{
  "_format": "hh-sol-artifact-1",
  "contractName": "BkCosmetics",
  "sourceName": "contracts/features/BkCosmetics.sol",
  "abi": [
    {
      "anonymous": false,
      "inputs": [
        {
          "indexed": false,
          "internalType": "uint8",
          "name": "version",
          "type": "uint8"
        }
      ],
      "name": "Initialized",
      "type": "event"
    },
    {
      "anonymous": false,
      "inputs": [
        {
          "indexed": false,
          "internalType": "address",
          "name": "account",
          "type": "address"
        }
      ],
      "name": "Paused",
      "type": "event"
    },
    {
      "anonymous": false,
      "inputs": [
        {
          "indexed": true,
          "internalType": "bytes32",
          "name": "role",
          "type": "bytes32"
        },
        {
          "indexed": true,
          "internalType": "bytes32",
          "name": "previousAdminRole",
          "type": "bytes32"
        },
        {
          "indexed": true,
          "internalType": "bytes32",
          "name": "newAdminRole",
          "type": "bytes32"
        }
      ],
      "name": "RoleAdminChanged",
      "type": "event"
    },
    {
      "anonymous": false,
      "inputs": [
        {
          "indexed": true,
          "internalType": "bytes32",
          "name": "role",
          "type": "bytes32"
        },
        {
          "indexed": true,
          "internalType": "address",
          "name": "account",
          "type": "address"
        },
        {
          "indexed": true,
          "internalType": "address",
          "name": "sender",
          "type": "address"
        }
      ],
      "name": "RoleGranted",
      "type": "event"
    },
    {
      "anonymous": false,
      "inputs": [
        {
          "indexed": true,
          "internalType": "bytes32",
          "name": "role",
          "type": "bytes32"
        },
        {
          "indexed": true,
          "internalType": "address",
          "name": "account",
          "type": "address"
        },
        {
          "indexed": true,
          "internalType": "address",
          "name": "sender",
          "type": "address"
        }
      ],
      "name": "RoleRevoked",
      "type": "event"
    },
    {
      "anonymous": false,
      "inputs": [
        {
          "indexed": false,
          "internalType": "address",
          "name": "account",
          "type": "address"
        }
      ],
      "name": "Unpaused",
      "type": "event"
    },
    {
      "inputs": [],
      "name": "DEFAULT_ADMIN_ROLE",
      "outputs": [
        {
          "internalType": "bytes32",
          "name": "",
          "type": "bytes32"
        }
      ],
      "stateMutability": "view",
      "type": "function"
    },
    {
      "inputs": [
        {
          "internalType": "address",
          "name": "_operator",
          "type": "address"
        },
        {
          "internalType": "address",
          "name": "_blocklistAddress",
          "type": "address"
        }
      ],
      "name": "__Administrable_init",
      "outputs": [],
      "stateMutability": "nonpayable",
      "type": "function"
    },
    {
      "inputs": [],
      "name": "_resetBlocklist",
      "outputs": [],
      "stateMutability": "nonpayable",
      "type": "function"
    },
    {
      "inputs": [],
      "name": "autoReturnRate",
      "outputs": [
        {
          "internalType": "uint256",
          "name": "",
          "type": "uint256"
        }
      ],
      "stateMutability": "view",
      "type": "function"
    },
    {
      "inputs": [
        {
          "internalType": "uint256",
          "name": "bctAmount",
          "type": "uint256"
        }
      ],
      "name": "bctToStabletoken",
      "outputs": [
        {
          "internalType": "uint256",
          "name": "",
          "type": "uint256"
        }
      ],
      "stateMutability": "view",
      "type": "function"
    },
    {
      "inputs": [
        {
          "internalType": "uint256",
          "name": "",
          "type": "uint256"
        },
        {
          "internalType": "uint256",
          "name": "",
          "type": "uint256"
        }
      ],
      "name": "beastIdToSpecialProps",
      "outputs": [
        {
          "internalType": "uint256",
          "name": "",
          "type": "uint256"
        }
      ],
      "stateMutability": "view",
      "type": "function"
    },
    {
      "inputs": [
        {
          "internalType": "uint256[]",
          "name": "beastIds",
          "type": "uint256[]"
        },
        {
          "internalType": "string[]",
          "name": "newImageUrls",
          "type": "string[]"
        },
        {
          "internalType": "bool",
          "name": "withBusd",
          "type": "bool"
        }
      ],
      "name": "changeImage",
      "outputs": [],
      "stateMutability": "nonpayable",
      "type": "function"
    },
    {
      "inputs": [
        {
          "internalType": "uint256[]",
          "name": "beastIds",
          "type": "uint256[]"
        },
        {
          "internalType": "string[]",
          "name": "newNames",
          "type": "string[]"
        },
        {
          "internalType": "bool",
          "name": "withBusd",
          "type": "bool"
        }
      ],
      "name": "changeName",
      "outputs": [],
      "stateMutability": "nonpayable",
      "type": "function"
    },
    {
      "inputs": [],
      "name": "contracts",
      "outputs": [
        {
          "internalType": "contract IBkFarm",
          "name": "farm",
          "type": "address"
        },
        {
          "internalType": "contract IBkNft",
          "name": "nft",
          "type": "address"
        },
        {
          "internalType": "contract IBkStasher",
          "name": "stasher",
          "type": "address"
        },
        {
          "internalType": "contract IBkFetch",
          "name": "balances",
          "type": "address"
        }
      ],
      "stateMutability": "view",
      "type": "function"
    },
    {
      "inputs": [
        {
          "internalType": "uint256",
          "name": "beastType",
          "type": "uint256"
        }
      ],
      "name": "getChangeImageCosts",
      "outputs": [
        {
          "internalType": "uint256",
          "name": "_bct",
          "type": "uint256"
        },
        {
          "internalType": "uint256[]",
          "name": "_resources",
          "type": "uint256[]"
        }
      ],
      "stateMutability": "view",
      "type": "function"
    },
    {
      "inputs": [
        {
          "internalType": "uint256",
          "name": "beastType",
          "type": "uint256"
        }
      ],
      "name": "getChangeNameCosts",
      "outputs": [
        {
          "internalType": "uint256",
          "name": "_bct",
          "type": "uint256"
        },
        {
          "internalType": "uint256[]",
          "name": "_resources",
          "type": "uint256[]"
        }
      ],
      "stateMutability": "view",
      "type": "function"
    },
    {
      "inputs": [
        {
          "internalType": "bytes32",
          "name": "role",
          "type": "bytes32"
        }
      ],
      "name": "getRoleAdmin",
      "outputs": [
        {
          "internalType": "bytes32",
          "name": "",
          "type": "bytes32"
        }
      ],
      "stateMutability": "view",
      "type": "function"
    },
    {
      "inputs": [
        {
          "internalType": "bytes32",
          "name": "role",
          "type": "bytes32"
        },
        {
          "internalType": "address",
          "name": "account",
          "type": "address"
        }
      ],
      "name": "grantRole",
      "outputs": [],
      "stateMutability": "nonpayable",
      "type": "function"
    },
    {
      "inputs": [],
      "name": "hasBlocklist",
      "outputs": [
        {
          "internalType": "bool",
          "name": "",
          "type": "bool"
        }
      ],
      "stateMutability": "view",
      "type": "function"
    },
    {
      "inputs": [
        {
          "internalType": "bytes32",
          "name": "role",
          "type": "bytes32"
        },
        {
          "internalType": "address",
          "name": "account",
          "type": "address"
        }
      ],
      "name": "hasRole",
      "outputs": [
        {
          "internalType": "bool",
          "name": "",
          "type": "bool"
        }
      ],
      "stateMutability": "view",
      "type": "function"
    },
    {
      "inputs": [
        {
          "internalType": "address",
          "name": "_operator",
          "type": "address"
        },
        {
          "internalType": "address",
          "name": "_blocklist",
          "type": "address"
        }
      ],
      "name": "initialize",
      "outputs": [],
      "stateMutability": "nonpayable",
      "type": "function"
    },
    {
      "inputs": [],
      "name": "pause",
      "outputs": [],
      "stateMutability": "nonpayable",
      "type": "function"
    },
    {
      "inputs": [],
      "name": "paused",
      "outputs": [
        {
          "internalType": "bool",
          "name": "",
          "type": "bool"
        }
      ],
      "stateMutability": "view",
      "type": "function"
    },
    {
      "inputs": [],
      "name": "paymentContracts",
      "outputs": [
        {
          "internalType": "contract IBkERC20",
          "name": "bct",
          "type": "address"
        },
        {
          "internalType": "contract IBkERC20",
          "name": "busd",
          "type": "address"
        },
        {
          "internalType": "contract ICommunityPool",
          "name": "pool",
          "type": "address"
        },
        {
          "internalType": "contract IBkFarm",
          "name": "farm",
          "type": "address"
        }
      ],
      "stateMutability": "view",
      "type": "function"
    },
    {
      "inputs": [
        {
          "internalType": "address",
          "name": "tokenAddress",
          "type": "address"
        },
        {
          "internalType": "address",
          "name": "to",
          "type": "address"
        },
        {
          "internalType": "uint256",
          "name": "amount",
          "type": "uint256"
        }
      ],
      "name": "recoverERC20",
      "outputs": [],
      "stateMutability": "nonpayable",
      "type": "function"
    },
    {
      "inputs": [
        {
          "internalType": "bytes32",
          "name": "role",
          "type": "bytes32"
        },
        {
          "internalType": "address",
          "name": "account",
          "type": "address"
        }
      ],
      "name": "renounceRole",
      "outputs": [],
      "stateMutability": "nonpayable",
      "type": "function"
    },
    {
      "inputs": [
        {
          "internalType": "uint256",
          "name": "",
          "type": "uint256"
        }
      ],
      "name": "resources",
      "outputs": [
        {
          "internalType": "address",
          "name": "",
          "type": "address"
        }
      ],
      "stateMutability": "view",
      "type": "function"
    },
    {
      "inputs": [],
      "name": "resourcesCount",
      "outputs": [
        {
          "internalType": "uint256",
          "name": "",
          "type": "uint256"
        }
      ],
      "stateMutability": "view",
      "type": "function"
    },
    {
      "inputs": [
        {
          "internalType": "bytes32",
          "name": "role",
          "type": "bytes32"
        },
        {
          "internalType": "address",
          "name": "account",
          "type": "address"
        }
      ],
      "name": "revokeRole",
      "outputs": [],
      "stateMutability": "nonpayable",
      "type": "function"
    },
    {
      "inputs": [
        {
          "internalType": "address",
          "name": "blocklistAddress",
          "type": "address"
        }
      ],
      "name": "setBlocklist",
      "outputs": [],
      "stateMutability": "nonpayable",
      "type": "function"
    },
    {
      "inputs": [
        {
          "internalType": "address",
          "name": "_farm",
          "type": "address"
        },
        {
          "internalType": "address",
          "name": "_nft",
          "type": "address"
        },
        {
          "internalType": "address",
          "name": "_stasher",
          "type": "address"
        },
        {
          "internalType": "address",
          "name": "_balances",
          "type": "address"
        }
      ],
      "name": "setContracts",
      "outputs": [],
      "stateMutability": "nonpayable",
      "type": "function"
    },
    {
      "inputs": [
        {
          "internalType": "uint256",
          "name": "_scale",
          "type": "uint256"
        }
      ],
      "name": "setScale",
      "outputs": [],
      "stateMutability": "nonpayable",
      "type": "function"
    },
    {
      "inputs": [
        {
          "internalType": "address",
          "name": "_bct",
          "type": "address"
        },
        {
          "internalType": "address",
          "name": "_busd",
          "type": "address"
        },
        {
          "internalType": "address",
          "name": "_pool",
          "type": "address"
        },
        {
          "internalType": "address",
          "name": "_farm",
          "type": "address"
        },
        {
          "internalType": "address",
          "name": "_resourcesSource",
          "type": "address"
        },
        {
          "internalType": "uint256",
          "name": "_autoReturnRate",
          "type": "uint256"
        }
      ],
      "name": "setupPaymentModule",
      "outputs": [],
      "stateMutability": "nonpayable",
      "type": "function"
    },
    {
      "inputs": [
        {
          "internalType": "uint256",
          "name": "busdAmount",
          "type": "uint256"
        }
      ],
      "name": "stabletokenToBct",
      "outputs": [
        {
          "internalType": "uint256",
          "name": "",
          "type": "uint256"
        }
      ],
      "stateMutability": "view",
      "type": "function"
    },
    {
      "inputs": [
        {
          "internalType": "bytes4",
          "name": "interfaceId",
          "type": "bytes4"
        }
      ],
      "name": "supportsInterface",
      "outputs": [
        {
          "internalType": "bool",
          "name": "",
          "type": "bool"
        }
      ],
      "stateMutability": "view",
      "type": "function"
    },
    {
      "inputs": [],
      "name": "unpause",
      "outputs": [],
      "stateMutability": "nonpayable",
      "type": "function"
    }
  ],
  "bytecode": "0x608060405234801561001057600080fd5b506121bc806100206000396000f3fe608060405234801561001057600080fd5b50600436106101e55760003560e01c8063634210f41161010f578063aef18ae7116100a2578063c429d34911610071578063c429d34914610465578063d547741f1461046e578063e238caf614610481578063f4b93f451461049457600080fd5b8063aef18ae714610419578063b5f63f601461042c578063be8a9cd31461043f578063bf989b6e1461045257600080fd5b80638456cb59116100de5780638456cb59146103e357806391d14854146103eb578063931da89b146103fe578063a217fddf1461041157600080fd5b8063634210f4146103885780636c0f79b61461039c5780637fab64e9146103c257806380c0b026146103c257600080fd5b806336568abe11610187578063485cc95511610156578063485cc9551461034e57806351ac7b8c14610361578063588375e01461036a5780635c975abb1461037d57600080fd5b806336568abe1461030d5780633edc3519146103205780633f4ba83a1461033357806341e80ad91461033b57600080fd5b8063244d6daa116101c3578063244d6daa1461022f578063248a9ca3146102705780632f2ff15d146102a1578063323b6cb7146102b457600080fd5b806301ffc9a7146101ea57806306a45070146102125780631171bda91461021c575b600080fd5b6101fd6101f83660046117e2565b6104a7565b60405190151581526020015b60405180910390f35b61021a6104de565b005b61021a61022a366004611821565b610509565b61025861023d366004611862565b60cb602052600090815260409020546001600160a01b031681565b6040516001600160a01b039091168152602001610209565b61029361027e366004611862565b60009081526065602052604090206001015490565b604051908152602001610209565b61021a6102af36600461187b565b6105aa565b60cc5460cd5460ce5460cf546102da936001600160a01b03908116938116928116911684565b604080516001600160a01b0395861681529385166020850152918416918301919091529091166060820152608001610209565b61021a61031b36600461187b565b6105d4565b61021a61032e366004611862565b6105f7565b61021a610615565b610293610349366004611862565b610638565b61021a61035c3660046118ab565b6106b6565b61029360ca5481565b61021a610378366004611933565b610776565b60975460ff166101fd565b60c9546101fd90600160a01b900460ff1681565b60d15460d25460d35460d4546102da936001600160a01b03908116938116928116911684565b6103d56103d0366004611862565b61099c565b6040516102099291906119f2565b61021a610a44565b6101fd6103f936600461187b565b610a64565b61021a61040c3660046118ab565b610a8f565b610293600081565b61021a610427366004611a13565b610b9d565b61029361043a366004611862565b610bdd565b61029361044d366004611a30565b610c0f565b61021a610460366004611a52565b610c40565b61029360d05481565b61021a61047c36600461187b565b610ccb565b61021a61048f366004611933565b610cf0565b61021a6104a2366004611aae565b610f0a565b60006001600160e01b03198216637965db0b60e01b14806104d857506301ffc9a760e01b6001600160e01b03198316145b92915050565b6000805160206121678339815191526104f681610f39565b5060c980546001600160a81b0319169055565b60008051602061216783398151915261052181610f39565b60405163a9059cbb60e01b81526001600160a01b0384811660048301526024820184905285169063a9059cbb90604401602060405180830381600087803b15801561056b57600080fd5b505af115801561057f573d6000803e3d6000fd5b505050506040513d601f19601f820116820180604052508101906105a39190611b37565b5050505050565b6000828152606560205260409020600101546105c581610f39565b6105cf8383610f43565b505050565b6001600160a01b03811633146105e957600080fd5b6105f38282610fc9565b5050565b60008051602061216783398151915261060f81610f39565b5060d655565b60008051602061216783398151915261062d81610f39565b610635611030565b50565b60ce54604051634ca1cccb60e11b8152600481018390526000916001600160a01b0316906399439996906024015b60206040518083038186803b15801561067e57600080fd5b505afa158015610692573d6000803e3d6000fd5b505050506040513d601f19601f820116820180604052508101906104d89190611b54565b600054610100900460ff16158080156106d65750600054600160ff909116105b806106f05750303b1580156106f0575060005460ff166001145b6106f957600080fd5b6000805460ff19166001179055801561071c576000805461ff0019166101001790555b6107268383610a8f565b603260d65580156105cf576000805461ff0019169055604051600181527f7f26b83ff96e1f2b6a682f133852f6798a09c465da95921460cefb3847402498906020015b60405180910390a1505050565b60005b848110156109945760d2546000906001600160a01b03166341f63bfd8888858181106107a7576107a7611b6d565b905060200201356040518263ffffffff1660e01b81526004016107cc91815260200190565b60006040518083038186803b1580156107e457600080fd5b505afa1580156107f8573d6000803e3d6000fd5b505050506040513d6000823e601f3d908101601f191682016040526108209190810190611d22565b9050600161082d82611082565b10156108645760405162461bcd60e51b81526020600482015260016024820152603160f81b60448201526064015b60405180910390fd5b60608101516001600160a01b031633146108a45760405162461bcd60e51b81526020600482015260016024820152601960f91b604482015260640161085b565b6000806108b36103d0846110ab565b915091506108ed828260405180608001604052806001151581526020016000151581526020018915158152602001600015158152506110c5565b60d25483516001600160a01b039091169063949755859089898881811061091657610916611b6d565b90506020028101906109289190611e7f565b87604001516040518563ffffffff1660e01b815260040161094c9493929190611f1b565b600060405180830381600087803b15801561096657600080fd5b505af115801561097a573d6000803e3d6000fd5b50505050505050808061098c90611f68565b915050610779565b505050505050565b600060606109ab836020611f83565b60408051600c8082526101a082019092529193506020820161018080368337019050509050600181600a815181106109e5576109e5611b6d565b602002602001018181525050600181600b81518110610a0657610a06611b6d565b602090810291909101015260d654603290610a2984670de0b6b3a7640000611f83565b610a339190611f83565b610a3d9190611fa2565b9150915091565b600080516020612167833981519152610a5c81610f39565b610635611339565b60009182526065602090815260408084206001600160a01b0393909316845291905290205460ff1690565b600054610100900460ff1615808015610aaf5750600054600160ff909116105b80610ac95750303b158015610ac9575060005460ff166001145b610ad257600080fd5b6000805460ff191660011790558015610af5576000805461ff0019166101001790555b610afd611376565b610b0561138c565b610b106000846113a8565b610b28600080516020612167833981519152846113a8565b610b527f73e573f9566d61418a34d5de3ff49360f9c51fec37f7486551670290f6285dab846113a8565b610b5b82610b9d565b80156105cf576000805461ff0019169055604051600181527f7f26b83ff96e1f2b6a682f133852f6798a09c465da95921460cefb384740249890602001610769565b600080516020612167833981519152610bb581610f39565b5060c980546001600160a81b0319166001600160a01b0390921691909117600160a01b179055565b60ce5460405163526267fd60e11b8152600481018390526000916001600160a01b03169063a4c4cffa90602401610666565b60d56020528160005260406000208181548110610c2b57600080fd5b90600052602060002001600091509150505481565b600080516020612167833981519152610c5881610f39565b50604080516080810182526001600160a01b039586168082529486166020820181905293861691810182905291909416606090910181905260d180546001600160a01b0319908116909417905560d28054841690921790915560d38054831690931790925560d480549091169091179055565b600082815260656020526040902060010154610ce681610f39565b6105cf8383610fc9565b60005b848110156109945760d2546000906001600160a01b03166341f63bfd888885818110610d2157610d21611b6d565b905060200201356040518263ffffffff1660e01b8152600401610d4691815260200190565b60006040518083038186803b158015610d5e57600080fd5b505afa158015610d72573d6000803e3d6000fd5b505050506040513d6000823e601f3d908101601f19168201604052610d9a9190810190611d22565b90506001610da782611082565b1015610dd95760405162461bcd60e51b81526020600482015260016024820152603160f81b604482015260640161085b565b60608101516001600160a01b03163314610e195760405162461bcd60e51b81526020600482015260016024820152601960f91b604482015260640161085b565b600080610e286103d0846110ab565b91509150610e62828260405180608001604052806001151581526020016000151581526020018915158152602001600015158152506110c5565b60d254835160208501516001600160a01b0390921691639497558591908a8a89818110610e9157610e91611b6d565b9050602002810190610ea39190611e7f565b6040518563ffffffff1660e01b8152600401610ec29493929190611fc4565b600060405180830381600087803b158015610edc57600080fd5b505af1158015610ef0573d6000803e3d6000fd5b505050505050508080610f0290611f68565b915050610cf3565b600080516020612167833981519152610f2281610f39565b610f308787878787876113b2565b50505050505050565b6106358133611479565b610f4d8282610a64565b6105f35760008281526065602090815260408083206001600160a01b03851684529091529020805460ff19166001179055610f853390565b6001600160a01b0316816001600160a01b0316837f2f8788117e7eff1d82e926ec794901d17c78024a50270940304540a733656f0d60405160405180910390a45050565b610fd38282610a64565b156105f35760008281526065602090815260408083206001600160a01b0385168085529252808320805460ff1916905551339285917ff6391f5c32d9c69d2a47ea670b442974b53935d1edc7fd64eb21e047a839171b9190a45050565b6110386114d2565b6097805460ff191690557f5db9ee0a495bf2e6ff9c91a7834c1ba4fdd244a5e8aa4e537bd38aeae4b073aa335b6040516001600160a01b03909116815260200160405180910390a1565b600081610100015160058151811061109c5761109c611b6d565b60200260200101519050919050565b600081610100015160008151811061109c5761109c611b6d565b806040015115611224578060200151156111065760405162461bcd60e51b8152602060048201526002602482015261070360f41b604482015260640161085b565b8051600090611115578361111e565b61111e84610bdd565b60cd546040516323b872dd60e01b8152336004820152306024820152604481018390529192506001600160a01b0316906323b872dd90606401600060405180830381600087803b15801561117157600080fd5b505af1158015611185573d6000803e3d6000fd5b50505050600060648260d05461119b9190611f83565b6111a59190611fa2565b60ce54604051630d3990db60e21b8152600481018390529192506001600160a01b0316906334e6436c90602401602060405180830381600087803b1580156111ec57600080fd5b505af1158015611200573d6000803e3d6000fd5b505050506040513d601f19601f820116820180604052508101906109949190611b54565b80606001511561125b5760405162461bcd60e51b8152602060048201526002602482015261703160f01b604482015260640161085b565b80516000906112725761126d84610638565b611274565b835b60cf5460405163b1918c9560e01b81529192506000916001600160a01b039091169063b1918c95906112ae90339086908990600401611ff0565b602060405180830381600087803b1580156112c857600080fd5b505af11580156112dc573d6000803e3d6000fd5b505050506040513d601f19601f820116820180604052508101906113009190611b37565b9050806105a35760405162461bcd60e51b81526020600482015260076024820152666e6f46756e647360c81b604482015260640161085b565b61134161151b565b6097805460ff191660011790557f62e78cea01bee320cd4e420270b5ea74000d11b0c9f74754ebdbfc544b05a2586110653390565b600054610100900460ff1661138a57600080fd5b565b600054610100900460ff166113a057600080fd5b61138a611561565b6105f38282610f43565b60cc80546001600160a01b038089166001600160a01b03199283161790925560cd805488841690831617905560ce805487841690831617905560cf80549286169290911691909117905561140582611581565b60d081905560cd5460405163095ea7b360e01b81526001600160a01b03868116600483015260001960248301529091169063095ea7b390604401600060405180830381600087803b15801561145957600080fd5b505af115801561146d573d6000803e3d6000fd5b50505050505050505050565b6114838282610a64565b6105f35761149081611670565b61149b836020611682565b6040516020016114ac929190612020565b60408051601f198184030181529082905262461bcd60e51b825261085b91600401612095565b60975460ff1661138a5760405162461bcd60e51b815260206004820152601460248201527314185d5cd8589b194e881b9bdd081c185d5cd95960621b604482015260640161085b565b60975460ff161561138a5760405162461bcd60e51b815260206004820152601060248201526f14185d5cd8589b194e881c185d5cd95960821b604482015260640161085b565b600054610100900460ff1661157557600080fd5b6097805460ff19169055565b60008190506000816001600160a01b031663c1cc57b06040518163ffffffff1660e01b815260040160006040518083038186803b1580156115c157600080fd5b505afa1580156115d5573d6000803e3d6000fd5b505050506040513d6000823e601f3d908101601f191682016040526115fd91908101906120a8565b905060005b81518110156116675781818151811061161d5761161d611b6d565b602090810291909101810151600083815260cb909252604090912080546001600160a01b0319166001600160a01b039092169190911790558061165f81611f68565b915050611602565b505160ca555050565b60606104d86001600160a01b03831660145b60606000611691836002611f83565b61169c906002612137565b67ffffffffffffffff8111156116b4576116b4611b83565b6040519080825280601f01601f1916602001820160405280156116de576020820181803683370190505b509050600360fc1b816000815181106116f9576116f9611b6d565b60200101906001600160f81b031916908160001a905350600f60fb1b8160018151811061172857611728611b6d565b60200101906001600160f81b031916908160001a905350600061174c846002611f83565b611757906001612137565b90505b60018111156117cf576f181899199a1a9b1b9c1cb0b131b232b360811b85600f166010811061178b5761178b611b6d565b1a60f81b8282815181106117a1576117a1611b6d565b60200101906001600160f81b031916908160001a90535060049490941c936117c88161214f565b905061175a565b5083156117db57600080fd5b9392505050565b6000602082840312156117f457600080fd5b81356001600160e01b0319811681146117db57600080fd5b6001600160a01b038116811461063557600080fd5b60008060006060848603121561183657600080fd5b83356118418161180c565b925060208401356118518161180c565b929592945050506040919091013590565b60006020828403121561187457600080fd5b5035919050565b6000806040838503121561188e57600080fd5b8235915060208301356118a08161180c565b809150509250929050565b600080604083850312156118be57600080fd5b82356118c98161180c565b915060208301356118a08161180c565b60008083601f8401126118eb57600080fd5b50813567ffffffffffffffff81111561190357600080fd5b6020830191508360208260051b850101111561191e57600080fd5b9250929050565b801515811461063557600080fd5b60008060008060006060868803121561194b57600080fd5b853567ffffffffffffffff8082111561196357600080fd5b61196f89838a016118d9565b9097509550602088013591508082111561198857600080fd5b50611995888289016118d9565b90945092505060408601356119a981611925565b809150509295509295909350565b600081518084526020808501945080840160005b838110156119e7578151875295820195908201906001016119cb565b509495945050505050565b828152604060208201526000611a0b60408301846119b7565b949350505050565b600060208284031215611a2557600080fd5b81356117db8161180c565b60008060408385031215611a4357600080fd5b50508035926020909101359150565b60008060008060808587031215611a6857600080fd5b8435611a738161180c565b93506020850135611a838161180c565b92506040850135611a938161180c565b91506060850135611aa38161180c565b939692955090935050565b60008060008060008060c08789031215611ac757600080fd5b8635611ad28161180c565b95506020870135611ae28161180c565b94506040870135611af28161180c565b93506060870135611b028161180c565b92506080870135611b128161180c565b8092505060a087013590509295509295509295565b8051611b3281611925565b919050565b600060208284031215611b4957600080fd5b81516117db81611925565b600060208284031215611b6657600080fd5b5051919050565b634e487b7160e01b600052603260045260246000fd5b634e487b7160e01b600052604160045260246000fd5b604051610180810167ffffffffffffffff81118282101715611bbd57611bbd611b83565b60405290565b604051601f8201601f1916810167ffffffffffffffff81118282101715611bec57611bec611b83565b604052919050565b60005b83811015611c0f578181015183820152602001611bf7565b83811115611c1e576000848401525b50505050565b600082601f830112611c3557600080fd5b815167ffffffffffffffff811115611c4f57611c4f611b83565b611c62601f8201601f1916602001611bc3565b818152846020838601011115611c7757600080fd5b611a0b826020830160208701611bf4565b8051611b328161180c565b600067ffffffffffffffff821115611cad57611cad611b83565b5060051b60200190565b600082601f830112611cc857600080fd5b81516020611cdd611cd883611c93565b611bc3565b82815260059290921b84018101918181019086841115611cfc57600080fd5b8286015b84811015611d175780518352918301918301611d00565b509695505050505050565b600060208284031215611d3457600080fd5b815167ffffffffffffffff80821115611d4c57600080fd5b908301906101808286031215611d6157600080fd5b611d69611b99565b82518152602083015182811115611d7f57600080fd5b611d8b87828601611c24565b602083015250604083015182811115611da357600080fd5b611daf87828601611c24565b604083015250611dc160608401611c88565b60608201526080830151608082015260a083015160a082015260c083015160c082015260e083015160e08201526101008084015183811115611e0257600080fd5b611e0e88828701611cb7565b8284015250506101208084015183811115611e2857600080fd5b611e3488828701611cb7565b8284015250506101408084015183811115611e4e57600080fd5b611e5a88828701611cb7565b8284015250506101609150611e70828401611b27565b91810191909152949350505050565b6000808335601e19843603018112611e9657600080fd5b83018035915067ffffffffffffffff821115611eb157600080fd5b60200191503681900382131561191e57600080fd5b81835281816020850137506000828201602090810191909152601f909101601f19169091010190565b60008151808452611f07816020860160208601611bf4565b601f01601f19169290920160200192915050565b848152606060208201526000611f35606083018587611ec6565b8281036040840152611f478185611eef565b979650505050505050565b634e487b7160e01b600052601160045260246000fd5b6000600019821415611f7c57611f7c611f52565b5060010190565b6000816000190483118215151615611f9d57611f9d611f52565b500290565b600082611fbf57634e487b7160e01b600052601260045260246000fd5b500490565b848152606060208201526000611fdd6060830186611eef565b8281036040840152611f47818587611ec6565b60018060a01b038416815282602082015260606040820152600061201760608301846119b7565b95945050505050565b7f416363657373436f6e74726f6c3a206163636f756e7420000000000000000000815260008351612058816017850160208801611bf4565b7001034b99036b4b9b9b4b733903937b6329607d1b6017918401918201528351612089816028840160208801611bf4565b01602801949350505050565b6020815260006117db6020830184611eef565b600060208083850312156120bb57600080fd5b825167ffffffffffffffff8111156120d257600080fd5b8301601f810185136120e357600080fd5b80516120f1611cd882611c93565b81815260059190911b8201830190838101908783111561211057600080fd5b928401925b82841015611f475783516121288161180c565b82529284019290840190612115565b6000821982111561214a5761214a611f52565b500190565b60008161215e5761215e611f52565b50600019019056fe97667070c54ef182b0f5858b034beac1b6f3089aa2d3188bb1e8929f4fa9b929a2646970667358221220d00ddcab4ba0b2b3e9b61418403027270599fe707cf4241aa8426091ab5a137f64736f6c63430008090033",
  "linkReferences": {},
  "deployedLinkReferences": {}
}