{
  "_format": "hh-sol-artifact-1",
  "contractName": "BkBoosterCrackerV6",
  "sourceName": "contracts/features/BkBoosterCrackerV6.sol",
  "abi": [
    {
      "anonymous": false,
      "inputs": [
        {
          "indexed": false,
          "internalType": "uint8",
          "name": "version",
          "type": "uint8"
        }
      ],
      "name": "Initialized",
      "type": "event"
    },
    {
      "anonymous": false,
      "inputs": [
        {
          "indexed": false,
          "internalType": "address",
          "name": "account",
          "type": "address"
        }
      ],
      "name": "Paused",
      "type": "event"
    },
    {
      "anonymous": false,
      "inputs": [
        {
          "indexed": true,
          "internalType": "bytes32",
          "name": "role",
          "type": "bytes32"
        },
        {
          "indexed": true,
          "internalType": "bytes32",
          "name": "previousAdminRole",
          "type": "bytes32"
        },
        {
          "indexed": true,
          "internalType": "bytes32",
          "name": "newAdminRole",
          "type": "bytes32"
        }
      ],
      "name": "RoleAdminChanged",
      "type": "event"
    },
    {
      "anonymous": false,
      "inputs": [
        {
          "indexed": true,
          "internalType": "bytes32",
          "name": "role",
          "type": "bytes32"
        },
        {
          "indexed": true,
          "internalType": "address",
          "name": "account",
          "type": "address"
        },
        {
          "indexed": true,
          "internalType": "address",
          "name": "sender",
          "type": "address"
        }
      ],
      "name": "RoleGranted",
      "type": "event"
    },
    {
      "anonymous": false,
      "inputs": [
        {
          "indexed": true,
          "internalType": "bytes32",
          "name": "role",
          "type": "bytes32"
        },
        {
          "indexed": true,
          "internalType": "address",
          "name": "account",
          "type": "address"
        },
        {
          "indexed": true,
          "internalType": "address",
          "name": "sender",
          "type": "address"
        }
      ],
      "name": "RoleRevoked",
      "type": "event"
    },
    {
      "anonymous": false,
      "inputs": [
        {
          "indexed": false,
          "internalType": "address",
          "name": "account",
          "type": "address"
        }
      ],
      "name": "Unpaused",
      "type": "event"
    },
    {
      "inputs": [],
      "name": "DEFAULT_ADMIN_ROLE",
      "outputs": [
        {
          "internalType": "bytes32",
          "name": "",
          "type": "bytes32"
        }
      ],
      "stateMutability": "view",
      "type": "function"
    },
    {
      "inputs": [],
      "name": "autoReturnRate",
      "outputs": [
        {
          "internalType": "uint256",
          "name": "",
          "type": "uint256"
        }
      ],
      "stateMutability": "view",
      "type": "function"
    },
    {
      "inputs": [
        {
          "internalType": "uint256",
          "name": "type_",
          "type": "uint256"
        },
        {
          "internalType": "uint256",
          "name": "quantity",
          "type": "uint256"
        },
        {
          "internalType": "uint256",
          "name": "times",
          "type": "uint256"
        }
      ],
      "name": "batchUnboxBooster",
      "outputs": [],
      "stateMutability": "nonpayable",
      "type": "function"
    },
    {
      "inputs": [
        {
          "internalType": "uint256",
          "name": "bctAmount",
          "type": "uint256"
        }
      ],
      "name": "bctToBusd",
      "outputs": [
        {
          "internalType": "uint256",
          "name": "",
          "type": "uint256"
        }
      ],
      "stateMutability": "view",
      "type": "function"
    },
    {
      "inputs": [
        {
          "internalType": "uint256",
          "name": "busdAmount",
          "type": "uint256"
        }
      ],
      "name": "busdToBct",
      "outputs": [
        {
          "internalType": "uint256",
          "name": "",
          "type": "uint256"
        }
      ],
      "stateMutability": "view",
      "type": "function"
    },
    {
      "inputs": [],
      "name": "contracts",
      "outputs": [
        {
          "internalType": "contract IMhdaoNft",
          "name": "nft",
          "type": "address"
        }
      ],
      "stateMutability": "view",
      "type": "function"
    },
    {
      "inputs": [
        {
          "internalType": "uint256",
          "name": "type_",
          "type": "uint256"
        },
        {
          "internalType": "uint256",
          "name": "howMany",
          "type": "uint256"
        }
      ],
      "name": "getIntegrationPrices",
      "outputs": [
        {
          "internalType": "uint256",
          "name": "bct",
          "type": "uint256"
        },
        {
          "internalType": "uint256",
          "name": "resourceCents",
          "type": "uint256"
        }
      ],
      "stateMutability": "view",
      "type": "function"
    },
    {
      "inputs": [
        {
          "internalType": "bytes32",
          "name": "role",
          "type": "bytes32"
        }
      ],
      "name": "getRoleAdmin",
      "outputs": [
        {
          "internalType": "bytes32",
          "name": "",
          "type": "bytes32"
        }
      ],
      "stateMutability": "view",
      "type": "function"
    },
    {
      "inputs": [
        {
          "internalType": "bytes32",
          "name": "role",
          "type": "bytes32"
        },
        {
          "internalType": "address",
          "name": "account",
          "type": "address"
        }
      ],
      "name": "grantRole",
      "outputs": [],
      "stateMutability": "nonpayable",
      "type": "function"
    },
    {
      "inputs": [
        {
          "internalType": "bytes32",
          "name": "role",
          "type": "bytes32"
        },
        {
          "internalType": "address",
          "name": "account",
          "type": "address"
        }
      ],
      "name": "hasRole",
      "outputs": [
        {
          "internalType": "bool",
          "name": "",
          "type": "bool"
        }
      ],
      "stateMutability": "view",
      "type": "function"
    },
    {
      "inputs": [
        {
          "internalType": "address",
          "name": "operator",
          "type": "address"
        },
        {
          "internalType": "address",
          "name": "_result",
          "type": "address"
        }
      ],
      "name": "initialize",
      "outputs": [],
      "stateMutability": "nonpayable",
      "type": "function"
    },
    {
      "inputs": [],
      "name": "lockPeriod",
      "outputs": [
        {
          "internalType": "uint256",
          "name": "",
          "type": "uint256"
        }
      ],
      "stateMutability": "view",
      "type": "function"
    },
    {
      "inputs": [],
      "name": "pause",
      "outputs": [],
      "stateMutability": "nonpayable",
      "type": "function"
    },
    {
      "inputs": [],
      "name": "paused",
      "outputs": [
        {
          "internalType": "bool",
          "name": "",
          "type": "bool"
        }
      ],
      "stateMutability": "view",
      "type": "function"
    },
    {
      "inputs": [],
      "name": "paymentContracts",
      "outputs": [
        {
          "internalType": "contract MHIERC20",
          "name": "bct",
          "type": "address"
        },
        {
          "internalType": "contract MHIERC20",
          "name": "busd",
          "type": "address"
        },
        {
          "internalType": "contract ICommunityPool",
          "name": "pool",
          "type": "address"
        },
        {
          "internalType": "contract IMhdaoFarmTransact_II",
          "name": "farm",
          "type": "address"
        }
      ],
      "stateMutability": "view",
      "type": "function"
    },
    {
      "inputs": [
        {
          "internalType": "uint256",
          "name": "",
          "type": "uint256"
        }
      ],
      "name": "rarityAndQuantityFactor",
      "outputs": [
        {
          "internalType": "uint256",
          "name": "",
          "type": "uint256"
        }
      ],
      "stateMutability": "view",
      "type": "function"
    },
    {
      "inputs": [
        {
          "internalType": "uint256",
          "name": "",
          "type": "uint256"
        }
      ],
      "name": "rarityAndTypeFactor",
      "outputs": [
        {
          "internalType": "uint256",
          "name": "",
          "type": "uint256"
        }
      ],
      "stateMutability": "view",
      "type": "function"
    },
    {
      "inputs": [
        {
          "internalType": "bytes32",
          "name": "role",
          "type": "bytes32"
        },
        {
          "internalType": "address",
          "name": "account",
          "type": "address"
        }
      ],
      "name": "renounceRole",
      "outputs": [],
      "stateMutability": "nonpayable",
      "type": "function"
    },
    {
      "inputs": [
        {
          "internalType": "uint256",
          "name": "",
          "type": "uint256"
        }
      ],
      "name": "resources",
      "outputs": [
        {
          "internalType": "address",
          "name": "",
          "type": "address"
        }
      ],
      "stateMutability": "view",
      "type": "function"
    },
    {
      "inputs": [],
      "name": "resourcesCount",
      "outputs": [
        {
          "internalType": "uint256",
          "name": "",
          "type": "uint256"
        }
      ],
      "stateMutability": "view",
      "type": "function"
    },
    {
      "inputs": [
        {
          "internalType": "bytes32",
          "name": "role",
          "type": "bytes32"
        },
        {
          "internalType": "address",
          "name": "account",
          "type": "address"
        }
      ],
      "name": "revokeRole",
      "outputs": [],
      "stateMutability": "nonpayable",
      "type": "function"
    },
    {
      "inputs": [],
      "name": "scale",
      "outputs": [
        {
          "internalType": "uint256",
          "name": "",
          "type": "uint256"
        }
      ],
      "stateMutability": "view",
      "type": "function"
    },
    {
      "inputs": [
        {
          "internalType": "address",
          "name": "_nft",
          "type": "address"
        }
      ],
      "name": "setContracts",
      "outputs": [],
      "stateMutability": "nonpayable",
      "type": "function"
    },
    {
      "inputs": [
        {
          "internalType": "address",
          "name": "_result",
          "type": "address"
        }
      ],
      "name": "setRResult",
      "outputs": [],
      "stateMutability": "nonpayable",
      "type": "function"
    },
    {
      "inputs": [
        {
          "internalType": "uint256",
          "name": "_scale",
          "type": "uint256"
        }
      ],
      "name": "setScale",
      "outputs": [],
      "stateMutability": "nonpayable",
      "type": "function"
    },
    {
      "inputs": [
        {
          "internalType": "address",
          "name": "_bct",
          "type": "address"
        },
        {
          "internalType": "address",
          "name": "_busd",
          "type": "address"
        },
        {
          "internalType": "address",
          "name": "_pool",
          "type": "address"
        },
        {
          "internalType": "address",
          "name": "_farm",
          "type": "address"
        },
        {
          "internalType": "address",
          "name": "_resourcesSource",
          "type": "address"
        },
        {
          "internalType": "uint256",
          "name": "_autoReturnRate",
          "type": "uint256"
        }
      ],
      "name": "setupPaymentModule",
      "outputs": [],
      "stateMutability": "nonpayable",
      "type": "function"
    },
    {
      "inputs": [
        {
          "internalType": "bytes4",
          "name": "interfaceId",
          "type": "bytes4"
        }
      ],
      "name": "supportsInterface",
      "outputs": [
        {
          "internalType": "bool",
          "name": "",
          "type": "bool"
        }
      ],
      "stateMutability": "view",
      "type": "function"
    },
    {
      "inputs": [
        {
          "internalType": "uint256",
          "name": "type_",
          "type": "uint256"
        },
        {
          "internalType": "uint256",
          "name": "quantity",
          "type": "uint256"
        }
      ],
      "name": "unboxBooster",
      "outputs": [],
      "stateMutability": "nonpayable",
      "type": "function"
    },
    {
      "inputs": [
        {
          "internalType": "address",
          "name": "owner",
          "type": "address"
        },
        {
          "internalType": "uint256",
          "name": "type_",
          "type": "uint256"
        },
        {
          "internalType": "uint256",
          "name": "quantity",
          "type": "uint256"
        }
      ],
      "name": "unboxBoosterFor",
      "outputs": [],
      "stateMutability": "nonpayable",
      "type": "function"
    },
    {
      "inputs": [],
      "name": "unpause",
      "outputs": [],
      "stateMutability": "nonpayable",
      "type": "function"
    },
    {
      "inputs": [
        {
          "internalType": "address",
          "name": "sourceContract",
          "type": "address"
        }
      ],
      "name": "updateResources",
      "outputs": [],
      "stateMutability": "nonpayable",
      "type": "function"
    }
  ],
  "bytecode": "0x608060405234801561001057600080fd5b506122d7806100206000396000f3fe608060405234801561001057600080fd5b50600436106101e55760003560e01c8063669be52f1161010f578063c429d349116100a2578063e3d28ea111610071578063e3d28ea11461047c578063f13e9d501461048f578063f4b93f45146104a2578063f51e181a146104b557600080fd5b8063c429d34914610418578063c7b84f8f14610421578063d547741f14610441578063dd0f7fd71461045457600080fd5b80638456cb59116100de5780638456cb59146103e257806391d14854146103ea578063a217fddf146103fd578063c3c87d531461040557600080fd5b8063669be52f146103965780636c0f79b6146103a95780637695eea4146103bc578063804ecd83146103cf57600080fd5b80633edc3519116101875780634dce62ac116101565780634dce62ac1461034f57806351ac7b8c1461036f5780635a2e2f47146103785780635c975abb1461038b57600080fd5b80633edc3519146103185780633f4ba83a1461032b5780633fd8b02f14610333578063485cc9551461033c57600080fd5b8063248a9ca3116101c3578063248a9ca3146102745780632f2ff15d14610297578063323b6cb7146102ac57806336568abe1461030557600080fd5b806301ffc9a7146101ea57806314d70ebe14610212578063244d6daa14610233575b600080fd5b6101fd6101f8366004611ba4565b6104be565b60405190151581526020015b60405180910390f35b610225610220366004611bce565b6104f5565b604051908152602001610209565b61025c610241366004611bce565b6001602052600090815260409020546001600160a01b031681565b6040516001600160a01b039091168152602001610209565b610225610282366004611bce565b6000908152606e602052604090206001015490565b6102aa6102a5366004611bfc565b610575565b005b6002546003546004546005546102d2936001600160a01b03908116938116928116911684565b604080516001600160a01b0395861681529385166020850152918416918301919091529091166060820152608001610209565b6102aa610313366004611bfc565b61059f565b6102aa610326366004611bce565b6105c2565b6102aa6105e0565b61022560075481565b6102aa61034a366004611c2c565b610603565b61022561035d366004611bce565b60d56020526000908152604090205481565b61022560005481565b6102aa610386366004611c5a565b61082e565b60a05460ff166101fd565b6102aa6103a4366004611c77565b610876565b60d35461025c906001600160a01b031681565b6102aa6103ca366004611ca3565b61091f565b6102aa6103dd366004611c5a565b610942565b6102aa61097d565b6101fd6103f8366004611bfc565b61099d565b610225600081565b6102aa610413366004611c5a565b6109c8565b61022560065481565b61022561042f366004611bce565b60d46020526000908152604090205481565b6102aa61044f366004611bfc565b6109e9565b610467610462366004611cd8565b610a0e565b60408051928352602083019190915201610209565b61022561048a366004611bce565b610d3b565b6102aa61049d366004611cd8565b610d6f565b6102aa6104b0366004611cfa565b610dd5565b61022560d65481565b60006001600160e01b03198216637965db0b60e01b14806104ef57506301ffc9a760e01b6001600160e01b03198316145b92915050565b6004805460405163526267fd60e11b81529182018390526000916001600160a01b039091169063a4c4cffa906024015b60206040518083038186803b15801561053d57600080fd5b505afa158015610551573d6000803e3d6000fd5b505050506040513d601f19601f820116820180604052508101906104ef9190611d73565b6000828152606e602052604090206001015461059081610e04565b61059a8383610e0e565b505050565b6001600160a01b03811633146105b457600080fd5b6105be8282610e94565b5050565b6000805160206122828339815191526105da81610e04565b5060d655565b6000805160206122828339815191526105f881610e04565b610600610efb565b50565b600954610100900460ff16158080156106235750600954600160ff909116105b8061063d5750303b15801561063d575060095460ff166001145b61064657600080fd5b6009805460ff191660011790558015610669576009805461ff0019166101001790555b610671610f4d565b610679610f63565b610684600084610f7f565b61069c60008051602061228283398151915284610f7f565b60d280546001600160a01b0319166001600160a01b0384161790556001600081905260d46020527f5088d1425a18d5bc951e2882fd5464ef708f0f9c2541f5215d15f6bfc6c278f58190555b600a8110156107445760016106fd8282611da2565b610708906002611e9e565b6107129190611eaa565b60d46000610721846001611da2565b81526020810191909152604001600020558061073c81611ec1565b9150506106e8565b5060d560205260017fb186f7a614e2b28e65ca076ca0b7bb14b3af2be24ff516bdf5cf4035a20df47c81905560027f6e591b1d34478d3b87a18e970e6f2d7a8399663b421195e9092da89590e25e495560037f79b87caa5cae2420f808254ec46896fe9aa929d631305c2ca2fc6115eb96697755601b60005260047f4ae250cce1a79971c147efb9fa3ea5ac9adcadd3c56053c28cd3845d65759fd755600755801561059a576009805461ff0019169055604051600181527f7f26b83ff96e1f2b6a682f133852f6798a09c465da95921460cefb38474024989060200160405180910390a1505050565b60008051602061228283398151915261084681610e04565b5060408051602081019091526001600160a01b039091169081905260d380546001600160a01b0319169091179055565b61087e610f89565b336000908152600860205260409020544310156108cd5760405162461bcd60e51b815260206004820152600860248201526731b7b7b63237bbb760c11b60448201526064015b60405180910390fd5b6108d633610f99565b600081116108e357600080fd5b60648111156108f157600080fd5b60005b8181101561091957610907338585610fc2565b8061091181611ec1565b9150506108f4565b50505050565b60008051602061228283398151915261093781610e04565b610919848484610fc2565b60008051602061228283398151915261095a81610e04565b5060d280546001600160a01b0319166001600160a01b0392909216919091179055565b60008051602061228283398151915261099581610e04565b610600611401565b6000918252606e602090815260408084206001600160a01b0393909316845291905290205460ff1690565b6000805160206122828339815191526109e081610e04565b6105be8261143e565b6000828152606e6020526040902060010154610a0481610e04565b61059a8383610e94565b6000808260011415610a2557506000905080610d0c565b8260031415610a6157610a39846019611edc565b610a44906001611edc565b610a5690670de0b6b3a7640000611edc565b915060199050610d0c565b8260091415610ae957610a75846019611edc565b610a80906001611edc565b610a9290670de0b6b3a7640000611edc565b610a9d906003611edc565b9150604b9050610aae846019611edc565b610ab9906002611edc565b610acb90670de0b6b3a7640000611edc565b610ad59083611da2565b9150610ae2603282611da2565b9050610d0c565b82601b1415610bb657610afd846019611edc565b610b08906001611edc565b610b1a90670de0b6b3a7640000611edc565b610b25906009611edc565b915060e19050610b36846019611edc565b610b41906002611edc565b610b5390670de0b6b3a7640000611edc565b610b5e906003611edc565b610b689083611da2565b9150610b75609682611da2565b9050610b82846019611edc565b610b8d906003611edc565b610b9f90670de0b6b3a7640000611edc565b610ba99083611da2565b9150610ae2604b82611da2565b8260511415610cd157610bca846019611edc565b610bd5906001611edc565b610be790670de0b6b3a7640000611edc565b610bf290601b611edc565b91506102a39050610c04846019611edc565b610c0f906002611edc565b610c2190670de0b6b3a7640000611edc565b610c2c906009611edc565b610c369083611da2565b9150610c446101c282611da2565b9050610c51846019611edc565b610c5c906003611edc565b610c6e90670de0b6b3a7640000611edc565b610c79906003611edc565b610c839083611da2565b9150610c9060e182611da2565b9050610c9d846019611edc565b610ca8906004611edc565b610cba90670de0b6b3a7640000611edc565b610cc49083611da2565b9150610ae2606482611da2565b60405162461bcd60e51b815260206004820152601060248201526f496e76616c6964207175616e7469747960801b60448201526064016108c4565b6002606460d65484610d1e9190611edc565b610d289190611efb565b610d329190611efb565b91509250929050565b60048054604051634ca1cccb60e11b81529182018390526000916001600160a01b0390911690639943999690602401610525565b610d77610f89565b33600090815260086020526040902054431015610dc15760405162461bcd60e51b815260206004820152600860248201526731b7b7b63237bbb760c11b60448201526064016108c4565b610dca33610f99565b6105be338383610fc2565b600080516020612282833981519152610ded81610e04565b610dfb87878787878761152d565b50505050505050565b61060081336115f4565b610e18828261099d565b6105be576000828152606e602090815260408083206001600160a01b03851684529091529020805460ff19166001179055610e503390565b6001600160a01b0316816001600160a01b0316837f2f8788117e7eff1d82e926ec794901d17c78024a50270940304540a733656f0d60405160405180910390a45050565b610e9e828261099d565b156105be576000828152606e602090815260408083206001600160a01b0385168085529252808320805460ff1916905551339285917ff6391f5c32d9c69d2a47ea670b442974b53935d1edc7fd64eb21e047a839171b9190a45050565b610f0361164d565b60a0805460ff191690557f5db9ee0a495bf2e6ff9c91a7834c1ba4fdd244a5e8aa4e537bd38aeae4b073aa335b6040516001600160a01b03909116815260200160405180910390a1565b600954610100900460ff16610f6157600080fd5b565b600954610100900460ff16610f7757600080fd5b610f6161165c565b6105be8282610e0e565b60a05460ff1615610f6157600080fd5b600754610fa69043611da2565b6001600160a01b03909116600090815260086020526040902055565b60018210158015610fd4575060048211155b610fdd57600080fd5b8060011480610fec5750806003145b80610ff75750806009145b80611002575080601b145b8061100d5750806051145b61101657600080fd5b60408051600e8082526101e08201909252600091602082016101c0803683370190505090506000806110488585610a0e565b9092509050808361105a876004611da2565b8151811061106a5761106a611f33565b6020026020010181815250506000600286116110905761108b86600b611da2565b61109b565b61109b866010611da2565b90506110a8856064611edc565b8482815181106110ba576110ba611f33565b6020026020010181815250506110fd838560405180608001604052806001151581526020016001151581526020016000151581526020016000151581525061167c565b60d3546040805163015f9eab60e11b815290516000926001600160a01b0316916302bf3d56916004808301926020929190829003018186803b15801561114257600080fd5b505afa158015611156573d6000803e3d6000fd5b505050506040513d601f19601f8201168201806040525081019061117a9190611d73565b6040805160028082526060820183529293506000929091602083019080368337505060d254919250506001600160a01b039081169063d19435ff908b906001906032906003906111ce908990861631611da2565b6040516001600160e01b031960e088901b1681526001600160a01b039095166004860152602485019390935260448401919091526064830152608482015260a40160206040518083038186803b15801561122757600080fd5b505afa15801561123b573d6000803e3d6000fd5b505050506040513d601f19601f8201168201806040525081019061125f9190611d73565b8160008151811061127257611272611f33565b602090810291909101015260d2546001600160a01b039081169063d19435ff908b906001906032906007906112ab908990861631611da2565b6112b6906001611da2565b6040516001600160e01b031960e088901b1681526001600160a01b039095166004860152602485019390935260448401919091526064830152608482015260a40160206040518083038186803b15801561130f57600080fd5b505afa158015611323573d6000803e3d6000fd5b505050506040513d601f19601f820116820180604052508101906113479190611d73565b8160018151811061135a5761135a611f33565b60200260200101818152505060008760511461138457600088815260d56020526040902054611387565b60055b60d354604051634bbe0ab760e11b81529192506001600160a01b03169063977c156e906113c3908d908d90869060009089908290600401611f84565b600060405180830381600087803b1580156113dd57600080fd5b505af11580156113f1573d6000803e3d6000fd5b5050505050505050505050505050565b611409610f89565b60a0805460ff191660011790557f62e78cea01bee320cd4e420270b5ea74000d11b0c9f74754ebdbfc544b05a258610f303390565b60008190506000816001600160a01b031663c1cc57b06040518163ffffffff1660e01b815260040160006040518083038186803b15801561147e57600080fd5b505afa158015611492573d6000803e3d6000fd5b505050506040513d6000823e601f3d908101601f191682016040526114ba9190810190612041565b905060005b8151811015611524578181815181106114da576114da611f33565b60209081029190910181015160008381526001909252604090912080546001600160a01b0319166001600160a01b039092169190911790558061151c81611ec1565b9150506114bf565b50516000555050565b600280546001600160a01b038089166001600160a01b031992831617909255600380548884169083161790556004805487841690831617905560058054928616929091169190911790556115808261143e565b600681905560035460405163095ea7b360e01b81526001600160a01b03868116600483015260001960248301529091169063095ea7b390604401600060405180830381600087803b1580156115d457600080fd5b505af11580156115e8573d6000803e3d6000fd5b50505050505050505050565b6115fe828261099d565b6105be5761160b81611a32565b611616836020611a44565b60405160200161162792919061210c565b60408051601f198184030181529082905262461bcd60e51b82526108c491600401612181565b60a05460ff16610f6157600080fd5b600954610100900460ff1661167057600080fd5b60a0805460ff19169055565b8060400151156117c25780602001511561169557600080fd5b80516000906116a457836116ad565b6116ad846104f5565b6003546040516323b872dd60e01b8152336004820152306024820152604481018390529192506001600160a01b0316906323b872dd90606401600060405180830381600087803b15801561170057600080fd5b505af1158015611714573d6000803e3d6000fd5b50505050600060648260065461172a9190611edc565b6117349190611efb565b60048054604051630d3990db60e21b81529293506001600160a01b0316916334e6436c916117689185910190815260200190565b602060405180830381600087803b15801561178257600080fd5b505af1158015611796573d6000803e3d6000fd5b505050506040513d601f19601f820116820180604052508101906117ba9190611d73565b505050505050565b8060600151156117d157600080fd5b80516000906117e8576117e384610d3b565b6117ea565b835b60055460405163b1918c9560e01b81529192506000916001600160a01b039091169063b1918c9590611824903390869089906004016121b4565b600060405180830381600087803b15801561183e57600080fd5b505af1158015611852573d6000803e3d6000fd5b505050506040513d6000823e601f3d908101601f1916820160405261187a91908101906121e4565b905060008160008151811061189157611891611f33565b602002602001015111156119355760025481516001600160a01b03909116906379cc679090339084906000906118c9576118c9611f33565b60200260200101516040518363ffffffff1660e01b81526004016119029291906001600160a01b03929092168252602082015260400190565b600060405180830381600087803b15801561191c57600080fd5b505af1158015611930573d6000803e3d6000fd5b505050505b60015b81518110156117ba57600082828151811061195557611955611f33565b60200260200101511115611a2057600160006119718284611eaa565b815260200190815260200160002060009054906101000a90046001600160a01b03166001600160a01b03166379cc6790338484815181106119b4576119b4611f33565b60200260200101516040518363ffffffff1660e01b81526004016119ed9291906001600160a01b03929092168252602082015260400190565b600060405180830381600087803b158015611a0757600080fd5b505af1158015611a1b573d6000803e3d6000fd5b505050505b80611a2a81611ec1565b915050611938565b60606104ef6001600160a01b03831660145b60606000611a53836002611edc565b611a5e906002611da2565b67ffffffffffffffff811115611a7657611a76611f1d565b6040519080825280601f01601f191660200182016040528015611aa0576020820181803683370190505b509050600360fc1b81600081518110611abb57611abb611f33565b60200101906001600160f81b031916908160001a905350600f60fb1b81600181518110611aea57611aea611f33565b60200101906001600160f81b031916908160001a9053506000611b0e846002611edc565b611b19906001611da2565b90505b6001811115611b91576f181899199a1a9b1b9c1cb0b131b232b360811b85600f1660108110611b4d57611b4d611f33565b1a60f81b828281518110611b6357611b63611f33565b60200101906001600160f81b031916908160001a90535060049490941c93611b8a8161226a565b9050611b1c565b508315611b9d57600080fd5b9392505050565b600060208284031215611bb657600080fd5b81356001600160e01b031981168114611b9d57600080fd5b600060208284031215611be057600080fd5b5035919050565b6001600160a01b038116811461060057600080fd5b60008060408385031215611c0f57600080fd5b823591506020830135611c2181611be7565b809150509250929050565b60008060408385031215611c3f57600080fd5b8235611c4a81611be7565b91506020830135611c2181611be7565b600060208284031215611c6c57600080fd5b8135611b9d81611be7565b600080600060608486031215611c8c57600080fd5b505081359360208301359350604090920135919050565b600080600060608486031215611cb857600080fd5b8335611cc381611be7565b95602085013595506040909401359392505050565b60008060408385031215611ceb57600080fd5b50508035926020909101359150565b60008060008060008060c08789031215611d1357600080fd5b8635611d1e81611be7565b95506020870135611d2e81611be7565b94506040870135611d3e81611be7565b93506060870135611d4e81611be7565b92506080870135611d5e81611be7565b8092505060a087013590509295509295509295565b600060208284031215611d8557600080fd5b5051919050565b634e487b7160e01b600052601160045260246000fd5b60008219821115611db557611db5611d8c565b500190565b600181815b80851115611df5578160001904821115611ddb57611ddb611d8c565b80851615611de857918102915b93841c9390800290611dbf565b509250929050565b600082611e0c575060016104ef565b81611e19575060006104ef565b8160018114611e2f5760028114611e3957611e55565b60019150506104ef565b60ff841115611e4a57611e4a611d8c565b50506001821b6104ef565b5060208310610133831016604e8410600b8410161715611e78575081810a6104ef565b611e828383611dba565b8060001904821115611e9657611e96611d8c565b029392505050565b6000611b9d8383611dfd565b600082821015611ebc57611ebc611d8c565b500390565b6000600019821415611ed557611ed5611d8c565b5060010190565b6000816000190483118215151615611ef657611ef6611d8c565b500290565b600082611f1857634e487b7160e01b600052601260045260246000fd5b500490565b634e487b7160e01b600052604160045260246000fd5b634e487b7160e01b600052603260045260246000fd5b600081518084526020808501945080840160005b83811015611f7957815187529582019590820190600101611f5d565b509495945050505050565b6000610100808352600081840152506101208060208401526000818401525061014060018060a01b03891660408401528760608401528660808401528560a08401528060c0840152611fd881840186611f49565b9150508260e0830152979650505050505050565b604051601f8201601f1916810167ffffffffffffffff8111828210171561201557612015611f1d565b604052919050565b600067ffffffffffffffff82111561203757612037611f1d565b5060051b60200190565b6000602080838503121561205457600080fd5b825167ffffffffffffffff81111561206b57600080fd5b8301601f8101851361207c57600080fd5b805161208f61208a8261201d565b611fec565b81815260059190911b820183019083810190878311156120ae57600080fd5b928401925b828410156120d55783516120c681611be7565b825292840192908401906120b3565b979650505050505050565b60005b838110156120fb5781810151838201526020016120e3565b838111156109195750506000910152565b7f416363657373436f6e74726f6c3a206163636f756e74200000000000000000008152600083516121448160178501602088016120e0565b7001034b99036b4b9b9b4b733903937b6329607d1b60179184019182015283516121758160288401602088016120e0565b01602801949350505050565b60208152600082518060208401526121a08160408501602087016120e0565b601f01601f19169190910160400192915050565b60018060a01b03841681528260208201526060604082015260006121db6060830184611f49565b95945050505050565b600060208083850312156121f757600080fd5b825167ffffffffffffffff81111561220e57600080fd5b8301601f8101851361221f57600080fd5b805161222d61208a8261201d565b81815260059190911b8201830190838101908783111561224c57600080fd5b928401925b828410156120d557835182529284019290840190612251565b60008161227957612279611d8c565b50600019019056fe97667070c54ef182b0f5858b034beac1b6f3089aa2d3188bb1e8929f4fa9b929a26469706673582212203e646c0a81c18563f231c89c97aba6370b40779c28f88b1435b0c66d50286f5f64736f6c63430008090033",
  "linkReferences": {},
  "deployedLinkReferences": {}
}