{
  "_format": "hh-sol-artifact-1",
  "contractName": "KoziPayments",
  "sourceName": "contracts/features/KoziPayments.sol",
  "abi": [
    {
      "anonymous": false,
      "inputs": [
        {
          "indexed": false,
          "internalType": "uint8",
          "name": "version",
          "type": "uint8"
        }
      ],
      "name": "Initialized",
      "type": "event"
    },
    {
      "anonymous": false,
      "inputs": [
        {
          "indexed": false,
          "internalType": "address",
          "name": "account",
          "type": "address"
        }
      ],
      "name": "Paused",
      "type": "event"
    },
    {
      "anonymous": false,
      "inputs": [
        {
          "indexed": true,
          "internalType": "bytes32",
          "name": "role",
          "type": "bytes32"
        },
        {
          "indexed": true,
          "internalType": "bytes32",
          "name": "previousAdminRole",
          "type": "bytes32"
        },
        {
          "indexed": true,
          "internalType": "bytes32",
          "name": "newAdminRole",
          "type": "bytes32"
        }
      ],
      "name": "RoleAdminChanged",
      "type": "event"
    },
    {
      "anonymous": false,
      "inputs": [
        {
          "indexed": true,
          "internalType": "bytes32",
          "name": "role",
          "type": "bytes32"
        },
        {
          "indexed": true,
          "internalType": "address",
          "name": "account",
          "type": "address"
        },
        {
          "indexed": true,
          "internalType": "address",
          "name": "sender",
          "type": "address"
        }
      ],
      "name": "RoleGranted",
      "type": "event"
    },
    {
      "anonymous": false,
      "inputs": [
        {
          "indexed": true,
          "internalType": "bytes32",
          "name": "role",
          "type": "bytes32"
        },
        {
          "indexed": true,
          "internalType": "address",
          "name": "account",
          "type": "address"
        },
        {
          "indexed": true,
          "internalType": "address",
          "name": "sender",
          "type": "address"
        }
      ],
      "name": "RoleRevoked",
      "type": "event"
    },
    {
      "anonymous": false,
      "inputs": [
        {
          "indexed": false,
          "internalType": "address",
          "name": "from",
          "type": "address"
        },
        {
          "indexed": false,
          "internalType": "address",
          "name": "to",
          "type": "address"
        },
        {
          "indexed": false,
          "internalType": "uint256",
          "name": "amount",
          "type": "uint256"
        }
      ],
      "name": "TransferKozi",
      "type": "event"
    },
    {
      "anonymous": false,
      "inputs": [
        {
          "indexed": false,
          "internalType": "address",
          "name": "account",
          "type": "address"
        }
      ],
      "name": "Unpaused",
      "type": "event"
    },
    {
      "inputs": [],
      "name": "DEFAULT_ADMIN_ROLE",
      "outputs": [
        {
          "internalType": "bytes32",
          "name": "",
          "type": "bytes32"
        }
      ],
      "stateMutability": "view",
      "type": "function"
    },
    {
      "inputs": [
        {
          "internalType": "address",
          "name": "_operator",
          "type": "address"
        },
        {
          "internalType": "address",
          "name": "_blocklistAddress",
          "type": "address"
        }
      ],
      "name": "__Administrable_init",
      "outputs": [],
      "stateMutability": "nonpayable",
      "type": "function"
    },
    {
      "inputs": [],
      "name": "autoReturnRate",
      "outputs": [
        {
          "internalType": "uint256",
          "name": "",
          "type": "uint256"
        }
      ],
      "stateMutability": "view",
      "type": "function"
    },
    {
      "inputs": [
        {
          "internalType": "bytes32",
          "name": "role",
          "type": "bytes32"
        }
      ],
      "name": "getRoleAdmin",
      "outputs": [
        {
          "internalType": "bytes32",
          "name": "",
          "type": "bytes32"
        }
      ],
      "stateMutability": "view",
      "type": "function"
    },
    {
      "inputs": [
        {
          "internalType": "bytes32",
          "name": "role",
          "type": "bytes32"
        },
        {
          "internalType": "address",
          "name": "account",
          "type": "address"
        }
      ],
      "name": "grantRole",
      "outputs": [],
      "stateMutability": "nonpayable",
      "type": "function"
    },
    {
      "inputs": [],
      "name": "hasBlocklist",
      "outputs": [
        {
          "internalType": "bool",
          "name": "",
          "type": "bool"
        }
      ],
      "stateMutability": "view",
      "type": "function"
    },
    {
      "inputs": [
        {
          "internalType": "bytes32",
          "name": "role",
          "type": "bytes32"
        },
        {
          "internalType": "address",
          "name": "account",
          "type": "address"
        }
      ],
      "name": "hasRole",
      "outputs": [
        {
          "internalType": "bool",
          "name": "",
          "type": "bool"
        }
      ],
      "stateMutability": "view",
      "type": "function"
    },
    {
      "inputs": [
        {
          "internalType": "address",
          "name": "_operator",
          "type": "address"
        },
        {
          "internalType": "address",
          "name": "_blocklist",
          "type": "address"
        }
      ],
      "name": "initialize",
      "outputs": [],
      "stateMutability": "nonpayable",
      "type": "function"
    },
    {
      "inputs": [],
      "name": "koziDiscountPct",
      "outputs": [
        {
          "internalType": "uint256",
          "name": "",
          "type": "uint256"
        }
      ],
      "stateMutability": "view",
      "type": "function"
    },
    {
      "inputs": [
        {
          "internalType": "address",
          "name": "",
          "type": "address"
        }
      ],
      "name": "koziSpent",
      "outputs": [
        {
          "internalType": "uint256",
          "name": "",
          "type": "uint256"
        }
      ],
      "stateMutability": "view",
      "type": "function"
    },
    {
      "inputs": [],
      "name": "pause",
      "outputs": [],
      "stateMutability": "nonpayable",
      "type": "function"
    },
    {
      "inputs": [],
      "name": "paused",
      "outputs": [
        {
          "internalType": "bool",
          "name": "",
          "type": "bool"
        }
      ],
      "stateMutability": "view",
      "type": "function"
    },
    {
      "inputs": [],
      "name": "paymentContracts",
      "outputs": [
        {
          "internalType": "contract IKoziPool",
          "name": "koziPool",
          "type": "address"
        },
        {
          "internalType": "address payable",
          "name": "kingdomWallet",
          "type": "address"
        }
      ],
      "stateMutability": "view",
      "type": "function"
    },
    {
      "inputs": [
        {
          "internalType": "address",
          "name": "tokenAddress",
          "type": "address"
        },
        {
          "internalType": "address",
          "name": "to",
          "type": "address"
        },
        {
          "internalType": "uint256",
          "name": "amount",
          "type": "uint256"
        }
      ],
      "name": "recoverERC20",
      "outputs": [],
      "stateMutability": "nonpayable",
      "type": "function"
    },
    {
      "inputs": [
        {
          "internalType": "bytes32",
          "name": "role",
          "type": "bytes32"
        },
        {
          "internalType": "address",
          "name": "account",
          "type": "address"
        }
      ],
      "name": "renounceRole",
      "outputs": [],
      "stateMutability": "nonpayable",
      "type": "function"
    },
    {
      "inputs": [
        {
          "internalType": "address",
          "name": "from",
          "type": "address"
        },
        {
          "internalType": "uint256",
          "name": "amount",
          "type": "uint256"
        },
        {
          "internalType": "bool",
          "name": "isAmountInStabletokens",
          "type": "bool"
        }
      ],
      "name": "requestPaymentFrom",
      "outputs": [
        {
          "internalType": "uint256",
          "name": "amountInKozi",
          "type": "uint256"
        }
      ],
      "stateMutability": "payable",
      "type": "function"
    },
    {
      "inputs": [],
      "name": "resetBlocklist",
      "outputs": [],
      "stateMutability": "nonpayable",
      "type": "function"
    },
    {
      "inputs": [
        {
          "internalType": "bytes32",
          "name": "role",
          "type": "bytes32"
        },
        {
          "internalType": "address",
          "name": "account",
          "type": "address"
        }
      ],
      "name": "revokeRole",
      "outputs": [],
      "stateMutability": "nonpayable",
      "type": "function"
    },
    {
      "inputs": [
        {
          "internalType": "address",
          "name": "blocklistAddress",
          "type": "address"
        }
      ],
      "name": "setBlocklist",
      "outputs": [],
      "stateMutability": "nonpayable",
      "type": "function"
    },
    {
      "inputs": [
        {
          "internalType": "address",
          "name": "_koziPool",
          "type": "address"
        },
        {
          "internalType": "address payable",
          "name": "_kingdomWallet",
          "type": "address"
        }
      ],
      "name": "setContracts",
      "outputs": [],
      "stateMutability": "nonpayable",
      "type": "function"
    },
    {
      "inputs": [
        {
          "internalType": "uint256",
          "name": "_koziDiscountPct",
          "type": "uint256"
        }
      ],
      "name": "setKoziDiscountPct",
      "outputs": [],
      "stateMutability": "nonpayable",
      "type": "function"
    },
    {
      "inputs": [
        {
          "internalType": "uint256",
          "name": "stabletokensIn",
          "type": "uint256"
        }
      ],
      "name": "stableToKozi",
      "outputs": [
        {
          "internalType": "uint256",
          "name": "koziOut",
          "type": "uint256"
        }
      ],
      "stateMutability": "view",
      "type": "function"
    },
    {
      "inputs": [
        {
          "internalType": "bytes4",
          "name": "interfaceId",
          "type": "bytes4"
        }
      ],
      "name": "supportsInterface",
      "outputs": [
        {
          "internalType": "bool",
          "name": "",
          "type": "bool"
        }
      ],
      "stateMutability": "view",
      "type": "function"
    },
    {
      "inputs": [],
      "name": "unpause",
      "outputs": [],
      "stateMutability": "nonpayable",
      "type": "function"
    }
  ],
  "bytecode": "0x608060405234801561001057600080fd5b50611317806100206000396000f3fe60806040526004361061014b5760003560e01c8063634210f4116100b6578063a217fddf1161006f578063a217fddf146103ba578063ad09b2ba146103cf578063aef18ae7146103ef578063c429d3491461040f578063d547741f14610425578063d8952a491461044557600080fd5b8063634210f41461031b5780637700db881461033c5780638456cb591461034f57806391d1485414610364578063931da89b146103845780639dcd7aec146103a457600080fd5b806336568abe1161010857806336568abe1461026c5780633c7fd8221461028c5780633f4ba83a146102a1578063485cc955146102b65780634bc15b33146102d65780635c975abb1461030357600080fd5b806301ffc9a7146101505780631171bda914610185578063222745fb146101a7578063248a9ca3146101c75780632f2ff15d14610205578063323b6cb714610225575b600080fd5b34801561015c57600080fd5b5061017061016b366004610f86565b610465565b60405190151581526020015b60405180910390f35b34801561019157600080fd5b506101a56101a0366004610fc5565b61049c565b005b3480156101b357600080fd5b506101a56101c2366004611006565b61053d565b3480156101d357600080fd5b506101f76101e2366004611006565b60009081526065602052604090206001015490565b60405190815260200161017c565b34801561021157600080fd5b506101a561022036600461101f565b61055b565b34801561023157600080fd5b5060cc5460cd5461024c916001600160a01b03908116911682565b604080516001600160a01b0393841681529290911660208301520161017c565b34801561027857600080fd5b506101a561028736600461101f565b610585565b34801561029857600080fd5b506101a56105a8565b3480156102ad57600080fd5b506101a56105d3565b3480156102c257600080fd5b506101a56102d136600461104f565b6105f6565b3480156102e257600080fd5b506101f76102f136600461107d565b60ce6020526000908152604090205481565b34801561030f57600080fd5b5060975460ff16610170565b34801561032757600080fd5b5060c95461017090600160a01b900460ff1681565b6101f761034a3660046110a8565b6106b6565b34801561035b57600080fd5b506101a5610855565b34801561037057600080fd5b5061017061037f36600461101f565b610875565b34801561039057600080fd5b506101a561039f36600461104f565b6108a0565b3480156103b057600080fd5b506101f760cb5481565b3480156103c657600080fd5b506101f7600081565b3480156103db57600080fd5b506101f76103ea366004611006565b6109ae565b3480156103fb57600080fd5b506101a561040a36600461107d565b610aa5565b34801561041b57600080fd5b506101f760ca5481565b34801561043157600080fd5b506101a561044036600461101f565b610ae5565b34801561045157600080fd5b506101a561046036600461104f565b610b0a565b60006001600160e01b03198216637965db0b60e01b148061049657506301ffc9a760e01b6001600160e01b03198316145b92915050565b6000805160206112c28339815191526104b481610b51565b60405163a9059cbb60e01b81526001600160a01b0384811660048301526024820184905285169063a9059cbb90604401602060405180830381600087803b1580156104fe57600080fd5b505af1158015610512573d6000803e3d6000fd5b505050506040513d601f19601f8201168201806040525081019061053691906110ea565b5050505050565b6000805160206112c283398151915261055581610b51565b5060cb55565b60008281526065602052604090206001015461057681610b51565b6105808383610b5b565b505050565b6001600160a01b038116331461059a57600080fd5b6105a48282610be1565b5050565b6000805160206112c28339815191526105c081610b51565b5060c980546001600160a81b0319169055565b6000805160206112c28339815191526105eb81610b51565b6105f3610c48565b50565b600054610100900460ff16158080156106165750600054600160ff909116105b806106305750303b158015610630575060005460ff166001145b61063957600080fd5b6000805460ff19166001179055801561065c576000805461ff0019166101001790555b61066683836108a0565b602160cb558015610580576000805461ff0019169055604051600181527f7f26b83ff96e1f2b6a682f133852f6798a09c465da95921460cefb3847402498906020015b60405180910390a1505050565b60007f73e573f9566d61418a34d5de3ff49360f9c51fec37f7486551670290f6285dab6106e281610b51565b82156106f8576106f1846109ae565b91506106fc565b8391505b6000821161074a5760405162461bcd60e51b815260206004820152601660248201527504b5061796d656e74733a20416d6f756e7420697320360541b60448201526064015b60405180910390fd5b8134101561079a5760405162461bcd60e51b815260206004820152601a60248201527f4b5061796d656e74733a204e6f7420456e6f756768204b6f7a690000000000006044820152606401610741565b60cd546040516001600160a01b03909116903480156108fc02916000818181858888f193505050501580156107d3573d6000803e3d6000fd5b506001600160a01b038516600090815260ce6020526040812080543492906107fc90849061111d565b909155505060cd54604080516001600160a01b03888116825290921660208301523482820152517ffb7c911d762dcd10c3d2aeb52e12bb7a1b461499d8e5c766051fc929599e51119181900360600190a1509392505050565b6000805160206112c283398151915261086d81610b51565b6105f3610c9a565b60009182526065602090815260408084206001600160a01b0393909316845291905290205460ff1690565b600054610100900460ff16158080156108c05750600054600160ff909116105b806108da5750303b1580156108da575060005460ff166001145b6108e357600080fd5b6000805460ff191660011790558015610906576000805461ff0019166101001790555b61090e610cd7565b610916610ced565b610921600084610d09565b6109396000805160206112c283398151915284610d09565b6109637f73e573f9566d61418a34d5de3ff49360f9c51fec37f7486551670290f6285dab84610d09565b61096c82610aa5565b8015610580576000805461ff0019169055604051600181527f7f26b83ff96e1f2b6a682f133852f6798a09c465da95921460cefb3847402498906020016106a9565b60008060cc60000160009054906101000a90046001600160a01b03166001600160a01b031663bd01bb326040518163ffffffff1660e01b815260040160206040518083038186803b158015610a0257600080fd5b505afa158015610a16573d6000803e3d6000fd5b505050506040513d601f19601f82011682018060405250810190610a3a9190611135565b905080610a4f84670de0b6b3a764000061114e565b610a5d90633b9aca0061114e565b610a67919061116d565b9150606460cb546064610a7a919061118f565b610a84908461114e565b610a8e919061116d565b9150610a9e633b9aca008361116d565b9392505050565b6000805160206112c2833981519152610abd81610b51565b5060c980546001600160a81b0319166001600160a01b0390921691909117600160a01b179055565b600082815260656020526040902060010154610b0081610b51565b6105808383610be1565b6000805160206112c2833981519152610b2281610b51565b5060cc80546001600160a01b039384166001600160a01b03199182161790915560cd8054929093169116179055565b6105f38133610d13565b610b658282610875565b6105a45760008281526065602090815260408083206001600160a01b03851684529091529020805460ff19166001179055610b9d3390565b6001600160a01b0316816001600160a01b0316837f2f8788117e7eff1d82e926ec794901d17c78024a50270940304540a733656f0d60405160405180910390a45050565b610beb8282610875565b156105a45760008281526065602090815260408083206001600160a01b0385168085529252808320805460ff1916905551339285917ff6391f5c32d9c69d2a47ea670b442974b53935d1edc7fd64eb21e047a839171b9190a45050565b610c50610d6c565b6097805460ff191690557f5db9ee0a495bf2e6ff9c91a7834c1ba4fdd244a5e8aa4e537bd38aeae4b073aa335b6040516001600160a01b03909116815260200160405180910390a1565b610ca2610db5565b6097805460ff191660011790557f62e78cea01bee320cd4e420270b5ea74000d11b0c9f74754ebdbfc544b05a258610c7d3390565b600054610100900460ff16610ceb57600080fd5b565b600054610100900460ff16610d0157600080fd5b610ceb610dfb565b6105a48282610b5b565b610d1d8282610875565b6105a457610d2a81610e1b565b610d35836020610e2d565b604051602001610d469291906111d6565b60408051601f198184030181529082905262461bcd60e51b82526107419160040161124b565b60975460ff16610ceb5760405162461bcd60e51b815260206004820152601460248201527314185d5cd8589b194e881b9bdd081c185d5cd95960621b6044820152606401610741565b60975460ff1615610ceb5760405162461bcd60e51b815260206004820152601060248201526f14185d5cd8589b194e881c185d5cd95960821b6044820152606401610741565b600054610100900460ff16610e0f57600080fd5b6097805460ff19169055565b60606104966001600160a01b03831660145b60606000610e3c83600261114e565b610e4790600261111d565b67ffffffffffffffff811115610e5f57610e5f61127e565b6040519080825280601f01601f191660200182016040528015610e89576020820181803683370190505b509050600360fc1b81600081518110610ea457610ea4611294565b60200101906001600160f81b031916908160001a905350600f60fb1b81600181518110610ed357610ed3611294565b60200101906001600160f81b031916908160001a9053506000610ef784600261114e565b610f0290600161111d565b90505b6001811115610f7a576f181899199a1a9b1b9c1cb0b131b232b360811b85600f1660108110610f3657610f36611294565b1a60f81b828281518110610f4c57610f4c611294565b60200101906001600160f81b031916908160001a90535060049490941c93610f73816112aa565b9050610f05565b508315610a9e57600080fd5b600060208284031215610f9857600080fd5b81356001600160e01b031981168114610a9e57600080fd5b6001600160a01b03811681146105f357600080fd5b600080600060608486031215610fda57600080fd5b8335610fe581610fb0565b92506020840135610ff581610fb0565b929592945050506040919091013590565b60006020828403121561101857600080fd5b5035919050565b6000806040838503121561103257600080fd5b82359150602083013561104481610fb0565b809150509250929050565b6000806040838503121561106257600080fd5b823561106d81610fb0565b9150602083013561104481610fb0565b60006020828403121561108f57600080fd5b8135610a9e81610fb0565b80151581146105f357600080fd5b6000806000606084860312156110bd57600080fd5b83356110c881610fb0565b92506020840135915060408401356110df8161109a565b809150509250925092565b6000602082840312156110fc57600080fd5b8151610a9e8161109a565b634e487b7160e01b600052601160045260246000fd5b6000821982111561113057611130611107565b500190565b60006020828403121561114757600080fd5b5051919050565b600081600019048311821515161561116857611168611107565b500290565b60008261118a57634e487b7160e01b600052601260045260246000fd5b500490565b6000828210156111a1576111a1611107565b500390565b60005b838110156111c15781810151838201526020016111a9565b838111156111d0576000848401525b50505050565b7f416363657373436f6e74726f6c3a206163636f756e742000000000000000000081526000835161120e8160178501602088016111a6565b7001034b99036b4b9b9b4b733903937b6329607d1b601791840191820152835161123f8160288401602088016111a6565b01602801949350505050565b602081526000825180602084015261126a8160408501602087016111a6565b601f01601f19169190910160400192915050565b634e487b7160e01b600052604160045260246000fd5b634e487b7160e01b600052603260045260246000fd5b6000816112b9576112b9611107565b50600019019056fe97667070c54ef182b0f5858b034beac1b6f3089aa2d3188bb1e8929f4fa9b929a26469706673582212201201cec5d4983d45b10ce499edf6d89f5d57153f9525aa81e2da5fe8ec1aa83564736f6c63430008090033",
  "linkReferences": {},
  "deployedLinkReferences": {}
}