{
  "_format": "hh-sol-artifact-1",
  "contractName": "KingdomBridge",
  "sourceName": "contracts/features/KingdomBridge/KingdomBridge/KingdomBridge.sol",
  "abi": [
    {
      "inputs": [],
      "name": "ECDSAInvalidSignature",
      "type": "error"
    },
    {
      "inputs": [
        {
          "internalType": "uint256",
          "name": "length",
          "type": "uint256"
        }
      ],
      "name": "ECDSAInvalidSignatureLength",
      "type": "error"
    },
    {
      "inputs": [
        {
          "internalType": "bytes32",
          "name": "s",
          "type": "bytes32"
        }
      ],
      "name": "ECDSAInvalidSignatureS",
      "type": "error"
    },
    {
      "anonymous": false,
      "inputs": [
        {
          "indexed": false,
          "internalType": "address",
          "name": "from",
          "type": "address"
        },
        {
          "indexed": false,
          "internalType": "uint256",
          "name": "amount",
          "type": "uint256"
        }
      ],
      "name": "DepositStabletokens",
      "type": "event"
    },
    {
      "anonymous": false,
      "inputs": [
        {
          "indexed": false,
          "internalType": "uint8",
          "name": "version",
          "type": "uint8"
        }
      ],
      "name": "Initialized",
      "type": "event"
    },
    {
      "anonymous": false,
      "inputs": [
        {
          "indexed": false,
          "internalType": "address",
          "name": "playerAddress",
          "type": "address"
        },
        {
          "indexed": false,
          "internalType": "uint256",
          "name": "stabletokens",
          "type": "uint256"
        },
        {
          "indexed": false,
          "internalType": "bool",
          "name": "convertToKozi",
          "type": "bool"
        },
        {
          "indexed": false,
          "internalType": "bytes32",
          "name": "depositHash",
          "type": "bytes32"
        }
      ],
      "name": "NewClaim",
      "type": "event"
    },
    {
      "anonymous": false,
      "inputs": [
        {
          "indexed": false,
          "internalType": "address",
          "name": "account",
          "type": "address"
        }
      ],
      "name": "Paused",
      "type": "event"
    },
    {
      "anonymous": false,
      "inputs": [
        {
          "indexed": false,
          "internalType": "address",
          "name": "from",
          "type": "address"
        },
        {
          "indexed": false,
          "internalType": "uint256",
          "name": "amount",
          "type": "uint256"
        }
      ],
      "name": "ReceiveKozi",
      "type": "event"
    },
    {
      "anonymous": false,
      "inputs": [
        {
          "indexed": true,
          "internalType": "bytes32",
          "name": "role",
          "type": "bytes32"
        },
        {
          "indexed": true,
          "internalType": "bytes32",
          "name": "previousAdminRole",
          "type": "bytes32"
        },
        {
          "indexed": true,
          "internalType": "bytes32",
          "name": "newAdminRole",
          "type": "bytes32"
        }
      ],
      "name": "RoleAdminChanged",
      "type": "event"
    },
    {
      "anonymous": false,
      "inputs": [
        {
          "indexed": true,
          "internalType": "bytes32",
          "name": "role",
          "type": "bytes32"
        },
        {
          "indexed": true,
          "internalType": "address",
          "name": "account",
          "type": "address"
        },
        {
          "indexed": true,
          "internalType": "address",
          "name": "sender",
          "type": "address"
        }
      ],
      "name": "RoleGranted",
      "type": "event"
    },
    {
      "anonymous": false,
      "inputs": [
        {
          "indexed": true,
          "internalType": "bytes32",
          "name": "role",
          "type": "bytes32"
        },
        {
          "indexed": true,
          "internalType": "address",
          "name": "account",
          "type": "address"
        },
        {
          "indexed": true,
          "internalType": "address",
          "name": "sender",
          "type": "address"
        }
      ],
      "name": "RoleRevoked",
      "type": "event"
    },
    {
      "anonymous": false,
      "inputs": [
        {
          "indexed": false,
          "internalType": "address",
          "name": "from",
          "type": "address"
        },
        {
          "indexed": false,
          "internalType": "address",
          "name": "to",
          "type": "address"
        },
        {
          "indexed": false,
          "internalType": "uint256",
          "name": "amount",
          "type": "uint256"
        }
      ],
      "name": "TransferKozi",
      "type": "event"
    },
    {
      "anonymous": false,
      "inputs": [
        {
          "indexed": false,
          "internalType": "address",
          "name": "from",
          "type": "address"
        },
        {
          "indexed": false,
          "internalType": "address",
          "name": "to",
          "type": "address"
        },
        {
          "indexed": false,
          "internalType": "uint256",
          "name": "amount",
          "type": "uint256"
        }
      ],
      "name": "TransferStabletokens",
      "type": "event"
    },
    {
      "anonymous": false,
      "inputs": [
        {
          "indexed": false,
          "internalType": "address",
          "name": "account",
          "type": "address"
        }
      ],
      "name": "Unpaused",
      "type": "event"
    },
    {
      "inputs": [],
      "name": "DEFAULT_ADMIN_ROLE",
      "outputs": [
        {
          "internalType": "bytes32",
          "name": "",
          "type": "bytes32"
        }
      ],
      "stateMutability": "view",
      "type": "function"
    },
    {
      "inputs": [
        {
          "internalType": "address",
          "name": "_operator",
          "type": "address"
        },
        {
          "internalType": "address",
          "name": "_blocklistAddress",
          "type": "address"
        }
      ],
      "name": "__Administrable_init",
      "outputs": [],
      "stateMutability": "nonpayable",
      "type": "function"
    },
    {
      "inputs": [
        {
          "internalType": "uint256",
          "name": "amount",
          "type": "uint256"
        }
      ],
      "name": "depositStabletokens",
      "outputs": [],
      "stateMutability": "payable",
      "type": "function"
    },
    {
      "inputs": [
        {
          "internalType": "bytes32",
          "name": "role",
          "type": "bytes32"
        }
      ],
      "name": "getRoleAdmin",
      "outputs": [
        {
          "internalType": "bytes32",
          "name": "",
          "type": "bytes32"
        }
      ],
      "stateMutability": "view",
      "type": "function"
    },
    {
      "inputs": [
        {
          "internalType": "bytes32",
          "name": "role",
          "type": "bytes32"
        },
        {
          "internalType": "address",
          "name": "account",
          "type": "address"
        }
      ],
      "name": "grantRole",
      "outputs": [],
      "stateMutability": "nonpayable",
      "type": "function"
    },
    {
      "inputs": [],
      "name": "hasBlocklist",
      "outputs": [
        {
          "internalType": "bool",
          "name": "",
          "type": "bool"
        }
      ],
      "stateMutability": "view",
      "type": "function"
    },
    {
      "inputs": [
        {
          "internalType": "bytes32",
          "name": "role",
          "type": "bytes32"
        },
        {
          "internalType": "address",
          "name": "account",
          "type": "address"
        }
      ],
      "name": "hasRole",
      "outputs": [
        {
          "internalType": "bool",
          "name": "",
          "type": "bool"
        }
      ],
      "stateMutability": "view",
      "type": "function"
    },
    {
      "inputs": [
        {
          "internalType": "address",
          "name": "_operator",
          "type": "address"
        },
        {
          "internalType": "address",
          "name": "_blocklist",
          "type": "address"
        },
        {
          "internalType": "address",
          "name": "_stabletoken",
          "type": "address"
        },
        {
          "internalType": "address",
          "name": "_koziPool",
          "type": "address"
        },
        {
          "internalType": "address",
          "name": "_initialValidator",
          "type": "address"
        }
      ],
      "name": "initialize",
      "outputs": [],
      "stateMutability": "nonpayable",
      "type": "function"
    },
    {
      "inputs": [],
      "name": "koziPool",
      "outputs": [
        {
          "internalType": "contract IKoziPool",
          "name": "",
          "type": "address"
        }
      ],
      "stateMutability": "view",
      "type": "function"
    },
    {
      "inputs": [
        {
          "internalType": "address",
          "name": "",
          "type": "address"
        }
      ],
      "name": "lastClaimReceivedBlock",
      "outputs": [
        {
          "internalType": "uint256",
          "name": "",
          "type": "uint256"
        }
      ],
      "stateMutability": "view",
      "type": "function"
    },
    {
      "inputs": [
        {
          "internalType": "address",
          "name": "",
          "type": "address"
        }
      ],
      "name": "lastNonceUpBlock",
      "outputs": [
        {
          "internalType": "uint256",
          "name": "",
          "type": "uint256"
        }
      ],
      "stateMutability": "view",
      "type": "function"
    },
    {
      "inputs": [
        {
          "internalType": "address",
          "name": "",
          "type": "address"
        }
      ],
      "name": "nonces",
      "outputs": [
        {
          "internalType": "uint256",
          "name": "",
          "type": "uint256"
        }
      ],
      "stateMutability": "view",
      "type": "function"
    },
    {
      "inputs": [],
      "name": "pause",
      "outputs": [],
      "stateMutability": "nonpayable",
      "type": "function"
    },
    {
      "inputs": [],
      "name": "paused",
      "outputs": [
        {
          "internalType": "bool",
          "name": "",
          "type": "bool"
        }
      ],
      "stateMutability": "view",
      "type": "function"
    },
    {
      "inputs": [
        {
          "internalType": "address",
          "name": "tokenAddress",
          "type": "address"
        },
        {
          "internalType": "address",
          "name": "to",
          "type": "address"
        },
        {
          "internalType": "uint256",
          "name": "amount",
          "type": "uint256"
        }
      ],
      "name": "recoverERC20",
      "outputs": [],
      "stateMutability": "nonpayable",
      "type": "function"
    },
    {
      "inputs": [
        {
          "internalType": "bytes32",
          "name": "role",
          "type": "bytes32"
        },
        {
          "internalType": "address",
          "name": "account",
          "type": "address"
        }
      ],
      "name": "renounceRole",
      "outputs": [],
      "stateMutability": "nonpayable",
      "type": "function"
    },
    {
      "inputs": [],
      "name": "resetBlocklist",
      "outputs": [],
      "stateMutability": "nonpayable",
      "type": "function"
    },
    {
      "inputs": [
        {
          "internalType": "bytes32",
          "name": "role",
          "type": "bytes32"
        },
        {
          "internalType": "address",
          "name": "account",
          "type": "address"
        }
      ],
      "name": "revokeRole",
      "outputs": [],
      "stateMutability": "nonpayable",
      "type": "function"
    },
    {
      "inputs": [
        {
          "internalType": "address",
          "name": "blocklistAddress",
          "type": "address"
        }
      ],
      "name": "setBlocklist",
      "outputs": [],
      "stateMutability": "nonpayable",
      "type": "function"
    },
    {
      "inputs": [],
      "name": "stabletoken",
      "outputs": [
        {
          "internalType": "contract IBkERC20",
          "name": "",
          "type": "address"
        }
      ],
      "stateMutability": "view",
      "type": "function"
    },
    {
      "inputs": [
        {
          "internalType": "address",
          "name": "",
          "type": "address"
        }
      ],
      "name": "stabletokensBalanceOf",
      "outputs": [
        {
          "internalType": "uint256",
          "name": "",
          "type": "uint256"
        }
      ],
      "stateMutability": "view",
      "type": "function"
    },
    {
      "inputs": [
        {
          "internalType": "address",
          "name": "",
          "type": "address"
        }
      ],
      "name": "stabletokensDepositedBy",
      "outputs": [
        {
          "internalType": "uint256",
          "name": "",
          "type": "uint256"
        }
      ],
      "stateMutability": "view",
      "type": "function"
    },
    {
      "inputs": [
        {
          "internalType": "address",
          "name": "",
          "type": "address"
        }
      ],
      "name": "stabletokensWithdrawnBy",
      "outputs": [
        {
          "internalType": "uint256",
          "name": "",
          "type": "uint256"
        }
      ],
      "stateMutability": "view",
      "type": "function"
    },
    {
      "inputs": [
        {
          "internalType": "bytes4",
          "name": "interfaceId",
          "type": "bytes4"
        }
      ],
      "name": "supportsInterface",
      "outputs": [
        {
          "internalType": "bool",
          "name": "",
          "type": "bool"
        }
      ],
      "stateMutability": "view",
      "type": "function"
    },
    {
      "inputs": [
        {
          "internalType": "address",
          "name": "",
          "type": "address"
        }
      ],
      "name": "totalKoziReceivedBy",
      "outputs": [
        {
          "internalType": "uint256",
          "name": "",
          "type": "uint256"
        }
      ],
      "stateMutability": "view",
      "type": "function"
    },
    {
      "inputs": [
        {
          "internalType": "bytes32",
          "name": "hashDigest",
          "type": "bytes32"
        },
        {
          "components": [
            {
              "internalType": "address",
              "name": "guardianAddress",
              "type": "address"
            },
            {
              "internalType": "address",
              "name": "playerAddress",
              "type": "address"
            },
            {
              "internalType": "uint256",
              "name": "nonce",
              "type": "uint256"
            },
            {
              "internalType": "uint256",
              "name": "stabletokens",
              "type": "uint256"
            },
            {
              "internalType": "bool",
              "name": "convertToKozi",
              "type": "bool"
            },
            {
              "internalType": "bytes32",
              "name": "depositHash",
              "type": "bytes32"
            }
          ],
          "internalType": "struct KingdomBridgeSignature.ClaimData",
          "name": "claimData",
          "type": "tuple"
        },
        {
          "components": [
            {
              "internalType": "address",
              "name": "signer",
              "type": "address"
            },
            {
              "internalType": "uint8",
              "name": "_v",
              "type": "uint8"
            },
            {
              "internalType": "bytes32",
              "name": "_r",
              "type": "bytes32"
            },
            {
              "internalType": "bytes32",
              "name": "_s",
              "type": "bytes32"
            }
          ],
          "internalType": "struct KingdomBridgeSigGuardian.SignatureData",
          "name": "signatureData",
          "type": "tuple"
        }
      ],
      "name": "transpose",
      "outputs": [],
      "stateMutability": "nonpayable",
      "type": "function"
    },
    {
      "inputs": [],
      "name": "unpause",
      "outputs": [],
      "stateMutability": "nonpayable",
      "type": "function"
    },
    {
      "stateMutability": "payable",
      "type": "receive"
    }
  ],
  "bytecode": "0x608060405234801561001057600080fd5b506121d5806100206000396000f3fe6080604052600436106101a05760003560e01c80637dfa3cfb116100ec578063ad6939221161008a578063d6e0613611610064578063d6e0613614610505578063e451753714610532578063e93669c114610552578063f4c816311461057f57600080fd5b8063ad6939221461048d578063aef18ae7146104c5578063d547741f146104e557600080fd5b806388d8d28c116100c657806388d8d28c1461040b57806391d1485414610438578063931da89b14610458578063a217fddf1461047857600080fd5b80637dfa3cfb1461039c5780637ecebe00146103c95780638456cb59146103f657600080fd5b806336568abe1161015957806349564f1a1161013357806349564f1a146103305780635c975abb14610343578063634210f41461035b5780636ac360e51461037c57600080fd5b806336568abe146102e65780633c7fd822146103065780633f4ba83a1461031b57600080fd5b806301ffc9a7146101e4578063038f7603146102195780631171bda9146102545780631459457a14610276578063248a9ca3146102965780632f2ff15d146102c657600080fd5b366101df57604080513381523460208201527fdef05564a79ad6215af9bc72305b4ed2ec6ef3a9727af2bbc1917219463faa5a910160405180910390a1005b600080fd5b3480156101f057600080fd5b506102046101ff366004611d3e565b6105ac565b60405190151581526020015b60405180910390f35b34801561022557600080fd5b50610246610234366004611d84565b60d36020526000908152604090205481565b604051908152602001610210565b34801561026057600080fd5b5061027461026f366004611d9f565b6105e3565b005b34801561028257600080fd5b50610274610291366004611ddb565b610684565b3480156102a257600080fd5b506102466102b1366004611e40565b6000908152606a602052604090206001015490565b3480156102d257600080fd5b506102746102e1366004611e59565b6107e3565b3480156102f257600080fd5b50610274610301366004611e59565b61080d565b34801561031257600080fd5b50610274610830565b34801561032757600080fd5b5061027461085b565b61027461033e366004611e40565b61087e565b34801561034f57600080fd5b50609c5460ff16610204565b34801561036757600080fd5b5060ce5461020490600160a01b900460ff1681565b34801561038857600080fd5b50610274610397366004611ecc565b610ab8565b3480156103a857600080fd5b506102466103b7366004611d84565b60d46020526000908152604090205481565b3480156103d557600080fd5b506102466103e4366004611d84565b60036020526000908152604090205481565b34801561040257600080fd5b50610274610fa9565b34801561041757600080fd5b50610246610426366004611d84565b60046020526000908152604090205481565b34801561044457600080fd5b50610204610453366004611e59565b610fc9565b34801561046457600080fd5b50610274610473366004611f94565b610ff4565b34801561048457600080fd5b50610246600081565b34801561049957600080fd5b5060d0546104ad906001600160a01b031681565b6040516001600160a01b039091168152602001610210565b3480156104d157600080fd5b506102746104e0366004611d84565b61111a565b3480156104f157600080fd5b50610274610500366004611e59565b61115a565b34801561051157600080fd5b50610246610520366004611d84565b60d26020526000908152604090205481565b34801561053e57600080fd5b5060cf546104ad906001600160a01b031681565b34801561055e57600080fd5b5061024661056d366004611d84565b60d16020526000908152604090205481565b34801561058b57600080fd5b5061024661059a366004611d84565b60d56020526000908152604090205481565b60006001600160e01b03198216637965db0b60e01b14806105dd57506301ffc9a760e01b6001600160e01b03198316145b92915050565b6000805160206121808339815191526105fb8161117f565b60405163a9059cbb60e01b81526001600160a01b0384811660048301526024820184905285169063a9059cbb90604401602060405180830381600087803b15801561064557600080fd5b505af1158015610659573d6000803e3d6000fd5b505050506040513d601f19601f8201168201806040525081019061067d9190611fbe565b5050505050565b60055462010000900460ff16158080156106a95750600554600161010090910460ff16105b806106c95750303b1580156106c9575060055460ff610100909104166001145b6106d257600080fd5b6005805461ff00191661010017905580156106f9576005805462ff00001916620100001790555b6107038686610ff4565b61070c82611189565b60cf80546001600160a01b038681166001600160a01b0319928316811790935560d0805491871691909216811790915560405163095ea7b360e01b81526004810191909152600019602482015263095ea7b390604401600060405180830381600087803b15801561077c57600080fd5b505af1158015610790573d6000803e3d6000fd5b5050505080156107db576005805462ff000019169055604051600181527f7f26b83ff96e1f2b6a682f133852f6798a09c465da95921460cefb38474024989060200160405180910390a15b505050505050565b6000828152606a60205260409020600101546107fe8161117f565b6108088383611205565b505050565b6001600160a01b038116331461082257600080fd5b61082c828261128b565b5050565b6000805160206121808339815191526108488161117f565b5060ce80546001600160a81b0319169055565b6000805160206121808339815191526108738161117f565b61087b6112f2565b50565b60ce54600160a81b900460ff16156108c55760405162461bcd60e51b81526020600482015260056024820152640daeae8caf60db1b60448201526064015b60405180910390fd5b60ce805460ff60a81b1916600160a81b1790556108e0611344565b336108ea8161138c565b156109255760405162461bcd60e51b815260206004820152600b60248201526a109b1bd8dadb1a5cdd195960aa1b60448201526064016108bc565b600082116109605760405162461bcd60e51b81526020600482015260086024820152670616d6f756e743d360c41b60448201526064016108bc565b60cf546040516323b872dd60e01b8152336004820152306024820152604481018490526001600160a01b03909116906323b872dd90606401602060405180830381600087803b1580156109b257600080fd5b505af11580156109c6573d6000803e3d6000fd5b505050506040513d601f19601f820116820180604052508101906109ea9190611fbe565b5033600090815260d1602052604081208054849290610a0a908490611ff1565b909155505060cf54604051630852cd8d60e31b8152600481018490526001600160a01b03909116906342966c6890602401600060405180830381600087803b158015610a5557600080fd5b505af1158015610a69573d6000803e3d6000fd5b505060408051338152602081018690527f74d3b4d966457ff7f4dae39a5809f363f6ebafed8c71b31deb3b37184bd544b4935001905060405180910390a1505060ce805460ff60a81b19169055565b60ce54600160a81b900460ff1615610afa5760405162461bcd60e51b81526020600482015260056024820152640daeae8caf60db1b60448201526064016108bc565b60ce805460ff60a81b1916600160a81b179055610b15611344565b7f73e573f9566d61418a34d5de3ff49360f9c51fec37f7486551670290f6285dab610b3f8161117f565b8260200151610b4d8161138c565b15610b885760405162461bcd60e51b815260206004820152600b60248201526a109b1bd8dadb1a5cdd195960aa1b60448201526064016108bc565b6000846060015111610bcd5760405162461bcd60e51b815260206004820152600e60248201526d0737461626c65746f6b656e733d360941b60448201526064016108bc565b610bd8858585611425565b602080850180516001600160a01b0316600090815260d5909252604091829020439055516060860151608087015160a088015193517f6954d4e9707109c840fb44154cf280475c4f7ec29aa486cf207384a44d4e1c6794610c5e949392916001600160a01b03949094168452602084019290925215156040830152606082015260800190565b60405180910390a1836080015115610e885760cf5460208501516060860151604051630621743d60e11b8152603860048201526001600160a01b0392831660248201523060448201526064810191909152911690630c42e87a90608401600060405180830381600087803b158015610cd557600080fd5b505af1158015610ce9573d6000803e3d6000fd5b505060d054606087015160405163077934b560e01b81526004810191909152600093506001600160a01b03909116915063077934b59060240160206040518083038186803b158015610d3a57600080fd5b505afa158015610d4e573d6000803e3d6000fd5b505050506040513d601f19601f82011682018060405250810190610d729190612009565b60d054604051633122ba7b60e11b8152600481018390529192506001600160a01b03169063624574f690602401602060405180830381600087803b158015610db957600080fd5b505af1158015610dcd573d6000803e3d6000fd5b505050506040513d601f19601f82011682018060405250810190610df19190612009565b5084602001516001600160a01b03166108fc829081150290604051600060405180830381858888f19350505050158015610e2f573d6000803e3d6000fd5b50602080860151604080513081526001600160a01b03909216928201929092529081018290527ffb7c911d762dcd10c3d2aeb52e12bb7a1b461499d8e5c766051fc929599e51119060600160405180910390a150610f95565b60cf5460208501516060860151604051630621743d60e11b8152603860048201526001600160a01b039283166024820181905260448201526064810191909152911690630c42e87a90608401600060405180830381600087803b158015610eee57600080fd5b505af1158015610f02573d6000803e3d6000fd5b50505060608501516020808701516001600160a01b0316600090815260d290915260408120805492935091610f38908490611ff1565b9091555050602084810151606080870151604080513081526001600160a01b0390941694840194909452928201929092527ff0072a7f751109c48d1859ec92e8c398ef96ffb54e412bb3f238152fd2e98295910160405180910390a15b505060ce805460ff60a81b19169055505050565b600080516020612180833981519152610fc18161117f565b61087b611641565b6000918252606a602090815260408084206001600160a01b0393909316845291905290205460ff1690565b60055462010000900460ff16158080156110195750600554600161010090910460ff16105b806110395750303b158015611039575060055460ff610100909104166001145b61104257600080fd5b6005805461ff0019166101001790558015611069576005805462ff00001916620100001790555b61107161167e565b611079611693565b6110846000846116b0565b61109c600080516020612180833981519152846116b0565b6110c67f73e573f9566d61418a34d5de3ff49360f9c51fec37f7486551670290f6285dab846116b0565b6110cf8261111a565b8015610808576005805462ff000019169055604051600181527f7f26b83ff96e1f2b6a682f133852f6798a09c465da95921460cefb38474024989060200160405180910390a1505050565b6000805160206121808339815191526111328161117f565b5060ce80546001600160a81b0319166001600160a01b0390921691909117600160a01b179055565b6000828152606a60205260409020600101546111758161117f565b610808838361128b565b61087b81336116ba565b60055460ff16156111d25760405162461bcd60e51b81526020600482015260136024820152721053149150511657d253925512505312569151606a1b60448201526064016108bc565b6001600160a01b0381166000908152602081905260409020805460ff19166001179055506005805460ff19166001179055565b61120f8282610fc9565b61082c576000828152606a602090815260408083206001600160a01b03851684529091529020805460ff191660011790556112473390565b6001600160a01b0316816001600160a01b0316837f2f8788117e7eff1d82e926ec794901d17c78024a50270940304540a733656f0d60405160405180910390a45050565b6112958282610fc9565b1561082c576000828152606a602090815260408083206001600160a01b0385168085529252808320805460ff1916905551339285917ff6391f5c32d9c69d2a47ea670b442974b53935d1edc7fd64eb21e047a839171b9190a45050565b6112fa611713565b609c805460ff191690557f5db9ee0a495bf2e6ff9c91a7834c1ba4fdd244a5e8aa4e537bd38aeae4b073aa335b6040516001600160a01b03909116815260200160405180910390a1565b609c5460ff161561138a5760405162461bcd60e51b815260206004820152601060248201526f14185d5cd8589b194e881c185d5cd95960821b60448201526064016108bc565b565b60ce54600090600160a01b900460ff166113a857506000919050565b60ce54604051638e204c4360e01b81526001600160a01b03848116600483015290911690638e204c439060240160206040518083038186803b1580156113ed57600080fd5b505afa158015611401573d6000803e3d6000fd5b505050506040513d601f19601f820116820180604052508101906105dd9190611fbe565b81516001600160a01b0316301461146d5760405162461bcd60e51b815260206004820152600c60248201526b24a72b2fa3aaa0a92224a0a760a11b60448201526064016108bc565b611477838361175c565b6114ae5760405162461bcd60e51b8152602060048201526008602482015267494e565f4441544160c01b60448201526064016108bc565b6114b88382611772565b6114f15760405162461bcd60e51b815260206004820152600a60248201526924a72b2fa9a4a3a722a960b11b60448201526064016108bc565b611503826020015183604001516118aa565b61153b5760405162461bcd60e51b8152602060048201526009602482015268494e565f4e4f4e434560b81b60448201526064016108bc565b60008381526001602052604090205460ff16156115865760405162461bcd60e51b8152602060048201526009602482015268494e565f434c41494d60b81b60448201526064016108bc565b60a082015160009081526002602052604090205460ff16156115d85760405162461bcd60e51b815260206004820152600b60248201526a12539597d1115413d4d25560aa1b60448201526064016108bc565b506000918252600160208181526040808520805460ff19908116851790915560a0850151865260028352818620805490911690931790925582810180516001600160a01b0390811686526004835283862043905593830151905190931684526003905290912055565b611649611344565b609c805460ff191660011790557f62e78cea01bee320cd4e420270b5ea74000d11b0c9f74754ebdbfc544b05a2586113273390565b60055462010000900460ff1661138a57600080fd5b60055462010000900460ff166116a857600080fd5b61138a61195a565b61082c8282611205565b6116c48282610fc9565b61082c576116d18161197b565b6116dc83602061198d565b6040516020016116ed929190612052565b60408051601f198184030181529082905262461bcd60e51b82526108bc916004016120c7565b609c5460ff1661138a5760405162461bcd60e51b815260206004820152601460248201527314185d5cd8589b194e881b9bdd081c185d5cd95960621b60448201526064016108bc565b60008061176883611aed565b9093149392505050565b6040517f19457468657265756d205369676e6564204d6573736167653a0a3332000000006020820152603c81018390526000908190605c0160405160208183030381529060405280519060200120905060006117ea828560200160208101906117db91906120fa565b86604001358760600135611b84565b6001600160a01b03811660009081526020819052604090205490915060ff166118455760405162461bcd60e51b815260206004820152600d60248201526c24a72b2fab20a624a220aa27a960991b60448201526064016108bc565b6001600160a01b03811661185c6020860186611d84565b6001600160a01b03161461189f5760405162461bcd60e51b815260206004820152600a60248201526924a72b2fa9a4a3a722a960b11b60448201526064016108bc565b506001949350505050565b6001600160a01b03821660009081526004602052604081205415806118f157506001600160a01b0383166000908152600460205260409020546118ee906001611ff1565b43115b61192d5760405162461bcd60e51b815260206004820152600d60248201526c12539597d393d390d157d55411609a1b60448201526064016108bc565b6001600160a01b038316600090815260036020526040902054611951906001611ff1565b90911492915050565b60055462010000900460ff1661196f57600080fd5b609c805460ff19169055565b60606105dd6001600160a01b03831660145b6060600061199c83600261211d565b6119a7906002611ff1565b67ffffffffffffffff8111156119bf576119bf611e85565b6040519080825280601f01601f1916602001820160405280156119e9576020820181803683370190505b509050600360fc1b81600081518110611a0457611a0461213c565b60200101906001600160f81b031916908160001a905350600f60fb1b81600181518110611a3357611a3361213c565b60200101906001600160f81b031916908160001a9053506000611a5784600261211d565b611a62906001611ff1565b90505b6001811115611ada576f181899199a1a9b1b9c1cb0b131b232b360811b85600f1660108110611a9657611a9661213c565b1a60f81b828281518110611aac57611aac61213c565b60200101906001600160f81b031916908160001a90535060049490941c93611ad381612152565b9050611a65565b508315611ae657600080fd5b9392505050565b80516020808301516040808501516060860151608087015160a08801519351600097611b6697909695916304c22a02918691016001600160a01b039889168152969097166020870152604086019490945260608501929092521515608084015260a083015260c082015260e08101919091526101000190565b60408051601f19818403018152919052805160209091012092915050565b600080600080611b9688888888611bb2565b925092509250611ba68282611c81565b50909695505050505050565b600080807f7fffffffffffffffffffffffffffffff5d576e7357a4501ddfe92f46681b20a0841115611bed5750600091506003905082611c77565b604080516000808252602082018084528a905260ff891692820192909252606081018790526080810186905260019060a0016020604051602081039080840390855afa158015611c41573d6000803e3d6000fd5b5050604051601f1901519150506001600160a01b038116611c6d57506000925060019150829050611c77565b9250600091508190505b9450945094915050565b6000826003811115611c9557611c95612169565b1415611c9f575050565b6001826003811115611cb357611cb3612169565b1415611cd25760405163f645eedf60e01b815260040160405180910390fd5b6002826003811115611ce657611ce6612169565b1415611d085760405163fce698f760e01b8152600481018290526024016108bc565b6003826003811115611d1c57611d1c612169565b141561082c576040516335e2f38360e21b8152600481018290526024016108bc565b600060208284031215611d5057600080fd5b81356001600160e01b031981168114611ae657600080fd5b80356001600160a01b0381168114611d7f57600080fd5b919050565b600060208284031215611d9657600080fd5b611ae682611d68565b600080600060608486031215611db457600080fd5b611dbd84611d68565b9250611dcb60208501611d68565b9150604084013590509250925092565b600080600080600060a08688031215611df357600080fd5b611dfc86611d68565b9450611e0a60208701611d68565b9350611e1860408701611d68565b9250611e2660608701611d68565b9150611e3460808701611d68565b90509295509295909350565b600060208284031215611e5257600080fd5b5035919050565b60008060408385031215611e6c57600080fd5b82359150611e7c60208401611d68565b90509250929050565b634e487b7160e01b600052604160045260246000fd5b801515811461087b57600080fd5b8035611d7f81611e9b565b600060808284031215611ec657600080fd5b50919050565b6000806000838503610160811215611ee357600080fd5b8435935060c0601f1982011215611ef957600080fd5b5060405160c0810181811067ffffffffffffffff82111715611f2b57634e487b7160e01b600052604160045260246000fd5b604052611f3a60208601611d68565b8152611f4860408601611d68565b60208201526060850135604082015260808501356060820152611f6d60a08601611ea9565b608082015260c085013560a08201529150611f8b8560e08601611eb4565b90509250925092565b60008060408385031215611fa757600080fd5b611fb083611d68565b9150611e7c60208401611d68565b600060208284031215611fd057600080fd5b8151611ae681611e9b565b634e487b7160e01b600052601160045260246000fd5b6000821982111561200457612004611fdb565b500190565b60006020828403121561201b57600080fd5b5051919050565b60005b8381101561203d578181015183820152602001612025565b8381111561204c576000848401525b50505050565b7f416363657373436f6e74726f6c3a206163636f756e742000000000000000000081526000835161208a816017850160208801612022565b7001034b99036b4b9b9b4b733903937b6329607d1b60179184019182015283516120bb816028840160208801612022565b01602801949350505050565b60208152600082518060208401526120e6816040850160208701612022565b601f01601f19169190910160400192915050565b60006020828403121561210c57600080fd5b813560ff81168114611ae657600080fd5b600081600019048311821515161561213757612137611fdb565b500290565b634e487b7160e01b600052603260045260246000fd5b60008161216157612161611fdb565b506000190190565b634e487b7160e01b600052602160045260246000fdfe97667070c54ef182b0f5858b034beac1b6f3089aa2d3188bb1e8929f4fa9b929a2646970667358221220f424b0d4a01829fd71a7f20b9bea68e345b813909f73000fecf8f0f87ff676fe64736f6c63430008090033",
  "linkReferences": {},
  "deployedLinkReferences": {}
}