{
  "_format": "hh-sol-artifact-1",
  "contractName": "KingdomBridge",
  "sourceName": "contracts/features/KingdomBridge/KingdomBridge/KingdomBridge.sol",
  "abi": [
    {
      "inputs": [],
      "name": "ECDSAInvalidSignature",
      "type": "error"
    },
    {
      "inputs": [
        {
          "internalType": "uint256",
          "name": "length",
          "type": "uint256"
        }
      ],
      "name": "ECDSAInvalidSignatureLength",
      "type": "error"
    },
    {
      "inputs": [
        {
          "internalType": "bytes32",
          "name": "s",
          "type": "bytes32"
        }
      ],
      "name": "ECDSAInvalidSignatureS",
      "type": "error"
    },
    {
      "anonymous": false,
      "inputs": [
        {
          "indexed": false,
          "internalType": "address",
          "name": "playerAddress",
          "type": "address"
        },
        {
          "indexed": false,
          "internalType": "uint256",
          "name": "stabletokens",
          "type": "uint256"
        },
        {
          "indexed": false,
          "internalType": "bool",
          "name": "convertToKozi",
          "type": "bool"
        },
        {
          "indexed": false,
          "internalType": "uint256",
          "name": "koziOut",
          "type": "uint256"
        },
        {
          "indexed": false,
          "internalType": "bytes32",
          "name": "depositHash",
          "type": "bytes32"
        }
      ],
      "name": "Bridged",
      "type": "event"
    },
    {
      "anonymous": false,
      "inputs": [
        {
          "indexed": false,
          "internalType": "address",
          "name": "from",
          "type": "address"
        },
        {
          "indexed": false,
          "internalType": "uint256",
          "name": "amount",
          "type": "uint256"
        }
      ],
      "name": "DepositStabletokens",
      "type": "event"
    },
    {
      "anonymous": false,
      "inputs": [
        {
          "indexed": false,
          "internalType": "uint8",
          "name": "version",
          "type": "uint8"
        }
      ],
      "name": "Initialized",
      "type": "event"
    },
    {
      "anonymous": false,
      "inputs": [
        {
          "indexed": false,
          "internalType": "address",
          "name": "account",
          "type": "address"
        }
      ],
      "name": "Paused",
      "type": "event"
    },
    {
      "anonymous": false,
      "inputs": [
        {
          "indexed": false,
          "internalType": "address",
          "name": "from",
          "type": "address"
        },
        {
          "indexed": false,
          "internalType": "uint256",
          "name": "amount",
          "type": "uint256"
        }
      ],
      "name": "ReceiveKozi",
      "type": "event"
    },
    {
      "anonymous": false,
      "inputs": [
        {
          "indexed": true,
          "internalType": "bytes32",
          "name": "role",
          "type": "bytes32"
        },
        {
          "indexed": true,
          "internalType": "bytes32",
          "name": "previousAdminRole",
          "type": "bytes32"
        },
        {
          "indexed": true,
          "internalType": "bytes32",
          "name": "newAdminRole",
          "type": "bytes32"
        }
      ],
      "name": "RoleAdminChanged",
      "type": "event"
    },
    {
      "anonymous": false,
      "inputs": [
        {
          "indexed": true,
          "internalType": "bytes32",
          "name": "role",
          "type": "bytes32"
        },
        {
          "indexed": true,
          "internalType": "address",
          "name": "account",
          "type": "address"
        },
        {
          "indexed": true,
          "internalType": "address",
          "name": "sender",
          "type": "address"
        }
      ],
      "name": "RoleGranted",
      "type": "event"
    },
    {
      "anonymous": false,
      "inputs": [
        {
          "indexed": true,
          "internalType": "bytes32",
          "name": "role",
          "type": "bytes32"
        },
        {
          "indexed": true,
          "internalType": "address",
          "name": "account",
          "type": "address"
        },
        {
          "indexed": true,
          "internalType": "address",
          "name": "sender",
          "type": "address"
        }
      ],
      "name": "RoleRevoked",
      "type": "event"
    },
    {
      "anonymous": false,
      "inputs": [
        {
          "indexed": false,
          "internalType": "address",
          "name": "from",
          "type": "address"
        },
        {
          "indexed": false,
          "internalType": "address",
          "name": "to",
          "type": "address"
        },
        {
          "indexed": false,
          "internalType": "uint256",
          "name": "amount",
          "type": "uint256"
        }
      ],
      "name": "TransferKozi",
      "type": "event"
    },
    {
      "anonymous": false,
      "inputs": [
        {
          "indexed": false,
          "internalType": "address",
          "name": "account",
          "type": "address"
        }
      ],
      "name": "Unpaused",
      "type": "event"
    },
    {
      "inputs": [],
      "name": "DEFAULT_ADMIN_ROLE",
      "outputs": [
        {
          "internalType": "bytes32",
          "name": "",
          "type": "bytes32"
        }
      ],
      "stateMutability": "view",
      "type": "function"
    },
    {
      "inputs": [
        {
          "internalType": "address",
          "name": "_operator",
          "type": "address"
        },
        {
          "internalType": "address",
          "name": "_blocklistAddress",
          "type": "address"
        }
      ],
      "name": "__Administrable_init",
      "outputs": [],
      "stateMutability": "nonpayable",
      "type": "function"
    },
    {
      "inputs": [
        {
          "internalType": "uint256",
          "name": "amount",
          "type": "uint256"
        }
      ],
      "name": "depositStabletokens",
      "outputs": [],
      "stateMutability": "payable",
      "type": "function"
    },
    {
      "inputs": [],
      "name": "exitFee",
      "outputs": [
        {
          "internalType": "uint256",
          "name": "",
          "type": "uint256"
        }
      ],
      "stateMutability": "view",
      "type": "function"
    },
    {
      "inputs": [
        {
          "internalType": "bytes32",
          "name": "role",
          "type": "bytes32"
        }
      ],
      "name": "getRoleAdmin",
      "outputs": [
        {
          "internalType": "bytes32",
          "name": "",
          "type": "bytes32"
        }
      ],
      "stateMutability": "view",
      "type": "function"
    },
    {
      "inputs": [
        {
          "internalType": "bytes32",
          "name": "role",
          "type": "bytes32"
        },
        {
          "internalType": "address",
          "name": "account",
          "type": "address"
        }
      ],
      "name": "grantRole",
      "outputs": [],
      "stateMutability": "nonpayable",
      "type": "function"
    },
    {
      "inputs": [],
      "name": "hasBlocklist",
      "outputs": [
        {
          "internalType": "bool",
          "name": "",
          "type": "bool"
        }
      ],
      "stateMutability": "view",
      "type": "function"
    },
    {
      "inputs": [
        {
          "internalType": "bytes32",
          "name": "role",
          "type": "bytes32"
        },
        {
          "internalType": "address",
          "name": "account",
          "type": "address"
        }
      ],
      "name": "hasRole",
      "outputs": [
        {
          "internalType": "bool",
          "name": "",
          "type": "bool"
        }
      ],
      "stateMutability": "view",
      "type": "function"
    },
    {
      "inputs": [
        {
          "internalType": "address",
          "name": "_operator",
          "type": "address"
        },
        {
          "internalType": "address",
          "name": "_blocklist",
          "type": "address"
        },
        {
          "internalType": "address",
          "name": "_stabletoken",
          "type": "address"
        },
        {
          "internalType": "address",
          "name": "_koziPool",
          "type": "address"
        },
        {
          "internalType": "address",
          "name": "_initialValidator",
          "type": "address"
        }
      ],
      "name": "initialize",
      "outputs": [],
      "stateMutability": "nonpayable",
      "type": "function"
    },
    {
      "inputs": [],
      "name": "kingdomWallet",
      "outputs": [
        {
          "internalType": "address",
          "name": "",
          "type": "address"
        }
      ],
      "stateMutability": "view",
      "type": "function"
    },
    {
      "inputs": [],
      "name": "koziPool",
      "outputs": [
        {
          "internalType": "contract IKoziPool",
          "name": "",
          "type": "address"
        }
      ],
      "stateMutability": "view",
      "type": "function"
    },
    {
      "inputs": [],
      "name": "minDeposit",
      "outputs": [
        {
          "internalType": "uint256",
          "name": "",
          "type": "uint256"
        }
      ],
      "stateMutability": "view",
      "type": "function"
    },
    {
      "inputs": [
        {
          "internalType": "address",
          "name": "",
          "type": "address"
        }
      ],
      "name": "nonces",
      "outputs": [
        {
          "internalType": "uint256",
          "name": "",
          "type": "uint256"
        }
      ],
      "stateMutability": "view",
      "type": "function"
    },
    {
      "inputs": [],
      "name": "pause",
      "outputs": [],
      "stateMutability": "nonpayable",
      "type": "function"
    },
    {
      "inputs": [],
      "name": "paused",
      "outputs": [
        {
          "internalType": "bool",
          "name": "",
          "type": "bool"
        }
      ],
      "stateMutability": "view",
      "type": "function"
    },
    {
      "inputs": [
        {
          "internalType": "address",
          "name": "tokenAddress",
          "type": "address"
        },
        {
          "internalType": "address",
          "name": "to",
          "type": "address"
        },
        {
          "internalType": "uint256",
          "name": "amount",
          "type": "uint256"
        }
      ],
      "name": "recoverERC20",
      "outputs": [],
      "stateMutability": "nonpayable",
      "type": "function"
    },
    {
      "inputs": [
        {
          "internalType": "bytes32",
          "name": "role",
          "type": "bytes32"
        },
        {
          "internalType": "address",
          "name": "account",
          "type": "address"
        }
      ],
      "name": "renounceRole",
      "outputs": [],
      "stateMutability": "nonpayable",
      "type": "function"
    },
    {
      "inputs": [],
      "name": "resetBlocklist",
      "outputs": [],
      "stateMutability": "nonpayable",
      "type": "function"
    },
    {
      "inputs": [
        {
          "internalType": "bytes32",
          "name": "role",
          "type": "bytes32"
        },
        {
          "internalType": "address",
          "name": "account",
          "type": "address"
        }
      ],
      "name": "revokeRole",
      "outputs": [],
      "stateMutability": "nonpayable",
      "type": "function"
    },
    {
      "inputs": [
        {
          "internalType": "address",
          "name": "blocklistAddress",
          "type": "address"
        }
      ],
      "name": "setBlocklist",
      "outputs": [],
      "stateMutability": "nonpayable",
      "type": "function"
    },
    {
      "inputs": [],
      "name": "stabletoken",
      "outputs": [
        {
          "internalType": "contract IBkERC20",
          "name": "",
          "type": "address"
        }
      ],
      "stateMutability": "view",
      "type": "function"
    },
    {
      "inputs": [
        {
          "internalType": "address",
          "name": "",
          "type": "address"
        }
      ],
      "name": "stabletokensBalanceOf",
      "outputs": [
        {
          "internalType": "uint256",
          "name": "",
          "type": "uint256"
        }
      ],
      "stateMutability": "view",
      "type": "function"
    },
    {
      "inputs": [
        {
          "internalType": "address",
          "name": "",
          "type": "address"
        }
      ],
      "name": "stabletokensDepositedBy",
      "outputs": [
        {
          "internalType": "uint256",
          "name": "",
          "type": "uint256"
        }
      ],
      "stateMutability": "view",
      "type": "function"
    },
    {
      "inputs": [
        {
          "internalType": "address",
          "name": "",
          "type": "address"
        }
      ],
      "name": "stabletokensWithdrawnBy",
      "outputs": [
        {
          "internalType": "uint256",
          "name": "",
          "type": "uint256"
        }
      ],
      "stateMutability": "view",
      "type": "function"
    },
    {
      "inputs": [
        {
          "internalType": "bytes4",
          "name": "interfaceId",
          "type": "bytes4"
        }
      ],
      "name": "supportsInterface",
      "outputs": [
        {
          "internalType": "bool",
          "name": "",
          "type": "bool"
        }
      ],
      "stateMutability": "view",
      "type": "function"
    },
    {
      "inputs": [
        {
          "internalType": "address",
          "name": "",
          "type": "address"
        }
      ],
      "name": "totalKoziReceivedBy",
      "outputs": [
        {
          "internalType": "uint256",
          "name": "",
          "type": "uint256"
        }
      ],
      "stateMutability": "view",
      "type": "function"
    },
    {
      "inputs": [
        {
          "internalType": "bytes32",
          "name": "hashDigest",
          "type": "bytes32"
        },
        {
          "components": [
            {
              "internalType": "address",
              "name": "guardianAddress",
              "type": "address"
            },
            {
              "internalType": "address",
              "name": "playerAddress",
              "type": "address"
            },
            {
              "internalType": "uint256",
              "name": "nonce",
              "type": "uint256"
            },
            {
              "internalType": "uint256",
              "name": "stabletokens",
              "type": "uint256"
            },
            {
              "internalType": "bool",
              "name": "convertToKozi",
              "type": "bool"
            },
            {
              "internalType": "bytes32",
              "name": "depositHash",
              "type": "bytes32"
            }
          ],
          "internalType": "struct KingdomBridgeSignature.ClaimData",
          "name": "claimData",
          "type": "tuple"
        },
        {
          "components": [
            {
              "internalType": "address",
              "name": "signer",
              "type": "address"
            },
            {
              "internalType": "uint8",
              "name": "_v",
              "type": "uint8"
            },
            {
              "internalType": "bytes32",
              "name": "_r",
              "type": "bytes32"
            },
            {
              "internalType": "bytes32",
              "name": "_s",
              "type": "bytes32"
            }
          ],
          "internalType": "struct KingdomBridgeSigGuardian.SignatureData",
          "name": "signatureData",
          "type": "tuple"
        }
      ],
      "name": "transpose",
      "outputs": [],
      "stateMutability": "nonpayable",
      "type": "function"
    },
    {
      "inputs": [],
      "name": "unpause",
      "outputs": [],
      "stateMutability": "nonpayable",
      "type": "function"
    },
    {
      "stateMutability": "payable",
      "type": "receive"
    }
  ],
  "bytecode": "0x608060405234801561001057600080fd5b506122e7806100206000396000f3fe6080604052600436106101bb5760003560e01c80636ac360e5116100ec578063ad6939221161008a578063d6e0613611610064578063d6e061361461051f578063dc2e8d8d1461054c578063e45175371461056c578063e93669c11461058c57600080fd5b8063ad693922146104a7578063aef18ae7146104df578063d547741f146104ff57600080fd5b80638456cb59116100c65780638456cb591461043d57806391d1485414610452578063931da89b14610472578063a217fddf1461049257600080fd5b80636ac360e5146103c35780637dfa3cfb146103e35780637ecebe001461041057600080fd5b80633c7fd8221161015957806349564f1a1161013357806349564f1a146103615780635c975abb146103745780636284ae411461038c578063634210f4146103a257600080fd5b80633c7fd822146103215780633f4ba83a1461033657806341b3d1851461034b57600080fd5b80631459457a116101955780631459457a14610291578063248a9ca3146102b15780632f2ff15d146102e157806336568abe1461030157600080fd5b806301ffc9a7146101ff578063038f7603146102345780631171bda91461026f57600080fd5b366101fa57604080513381523460208201527fdef05564a79ad6215af9bc72305b4ed2ec6ef3a9727af2bbc1917219463faa5a910160405180910390a1005b600080fd5b34801561020b57600080fd5b5061021f61021a366004611e39565b6105b9565b60405190151581526020015b60405180910390f35b34801561024057600080fd5b5061026161024f366004611e7f565b60d56020526000908152604090205481565b60405190815260200161022b565b34801561027b57600080fd5b5061028f61028a366004611e9a565b6105f0565b005b34801561029d57600080fd5b5061028f6102ac366004611ed6565b610691565b3480156102bd57600080fd5b506102616102cc366004611f3b565b60009081526069602052604090206001015490565b3480156102ed57600080fd5b5061028f6102fc366004611f54565b610889565b34801561030d57600080fd5b5061028f61031c366004611f54565b6108b3565b34801561032d57600080fd5b5061028f6108d6565b34801561034257600080fd5b5061028f610901565b34801561035757600080fd5b5061026160d15481565b61028f61036f366004611f3b565b610924565b34801561038057600080fd5b50609b5460ff1661021f565b34801561039857600080fd5b5061026160d25481565b3480156103ae57600080fd5b5060cd5461021f90600160a01b900460ff1681565b3480156103cf57600080fd5b5061028f6103de366004611fc7565b610cb3565b3480156103ef57600080fd5b506102616103fe366004611e7f565b60d66020526000908152604090205481565b34801561041c57600080fd5b5061026161042b366004611e7f565b60036020526000908152604090205481565b34801561044957600080fd5b5061028f61113b565b34801561045e57600080fd5b5061021f61046d366004611f54565b61115b565b34801561047e57600080fd5b5061028f61048d36600461208f565b611186565b34801561049e57600080fd5b50610261600081565b3480156104b357600080fd5b5060cf546104c7906001600160a01b031681565b6040516001600160a01b03909116815260200161022b565b3480156104eb57600080fd5b5061028f6104fa366004611e7f565b6112ac565b34801561050b57600080fd5b5061028f61051a366004611f54565b6112ec565b34801561052b57600080fd5b5061026161053a366004611e7f565b60d46020526000908152604090205481565b34801561055857600080fd5b5060d0546104c7906001600160a01b031681565b34801561057857600080fd5b5060ce546104c7906001600160a01b031681565b34801561059857600080fd5b506102616105a7366004611e7f565b60d36020526000908152604090205481565b60006001600160e01b03198216637965db0b60e01b14806105ea57506301ffc9a760e01b6001600160e01b03198316145b92915050565b60008051602061229283398151915261060881611311565b60405163a9059cbb60e01b81526001600160a01b0384811660048301526024820184905285169063a9059cbb90604401602060405180830381600087803b15801561065257600080fd5b505af1158015610666573d6000803e3d6000fd5b505050506040513d601f19601f8201168201806040525081019061068a91906120b9565b5050505050565b60045462010000900460ff16158080156106b65750600454600161010090910460ff16105b806106d65750303b1580156106d6575060045460ff610100909104166001145b6106df57600080fd5b6004805461ff0019166101001790558015610706576004805462ff00001916620100001790555b6107108686611186565b6107198261131b565b60ce80546001600160a01b038681166001600160a01b0319928316811790935560cf805491871691909216811790915560405163095ea7b360e01b81526004810191909152600019602482015263095ea7b390604401600060405180830381600087803b15801561078957600080fd5b505af115801561079d573d6000803e3d6000fd5b505060d080546001600160a01b0319166001600160a01b038a811691909117909155674563918244f4000060d155671bc16d674ec8000060d25560ce5460cf5460405163095ea7b360e01b8152908316600482015260001960248201529116925063095ea7b39150604401600060405180830381600087803b15801561082257600080fd5b505af1158015610836573d6000803e3d6000fd5b505050508015610881576004805462ff000019169055604051600181527f7f26b83ff96e1f2b6a682f133852f6798a09c465da95921460cefb38474024989060200160405180910390a15b505050505050565b6000828152606960205260409020600101546108a481611311565b6108ae8383611397565b505050565b6001600160a01b03811633146108c857600080fd5b6108d2828261141d565b5050565b6000805160206122928339815191526108ee81611311565b5060cd80546001600160a81b0319169055565b60008051602061229283398151915261091981611311565b610921611484565b50565b60cd54600160a81b900460ff161561096b5760405162461bcd60e51b81526020600482015260056024820152640daeae8caf60db1b60448201526064015b60405180910390fd5b60cd805460ff60a81b1916600160a81b1790556109866114d6565b336109908161151e565b156109cb5760405162461bcd60e51b815260206004820152600b60248201526a109b1bd8dadb1a5cdd195960aa1b6044820152606401610962565b60d154821015610a085760405162461bcd60e51b8152602060048201526008602482015267616d6f756e743c3560c01b6044820152606401610962565b60ce546040516323b872dd60e01b8152336004820152306024820152604481018490526001600160a01b03909116906323b872dd90606401602060405180830381600087803b158015610a5a57600080fd5b505af1158015610a6e573d6000803e3d6000fd5b505050506040513d601f19601f82011682018060405250810190610a9291906120b9565b50600060d25483610aa391906120ec565b33600090815260d36020526040812080549293508392909190610ac7908490612103565b909155505060cf5460d25460405163077934b560e01b815260048101919091526000916001600160a01b03169063077934b59060240160206040518083038186803b158015610b1557600080fd5b505afa158015610b29573d6000803e3d6000fd5b505050506040513d601f19601f82011682018060405250810190610b4d919061211b565b60cf54604051633122ba7b60e11b8152600481018390529192506001600160a01b03169063624574f690602401602060405180830381600087803b158015610b9457600080fd5b505af1158015610ba8573d6000803e3d6000fd5b505050506040513d601f19601f82011682018060405250810190610bcc919061211b565b5060d0546040516001600160a01b039091169082156108fc029083906000818181858888f19350505050158015610c07573d6000803e3d6000fd5b5060ce54604051630852cd8d60e31b8152600481018490526001600160a01b03909116906342966c6890602401600060405180830381600087803b158015610c4e57600080fd5b505af1158015610c62573d6000803e3d6000fd5b505060408051338152602081018890527f74d3b4d966457ff7f4dae39a5809f363f6ebafed8c71b31deb3b37184bd544b4935001905060405180910390a1505060cd805460ff60a81b191690555050565b60cd54600160a81b900460ff1615610cf55760405162461bcd60e51b81526020600482015260056024820152640daeae8caf60db1b6044820152606401610962565b60cd805460ff60a81b1916600160a81b179055610d106114d6565b7f73e573f9566d61418a34d5de3ff49360f9c51fec37f7486551670290f6285dab610d3a81611311565b8260200151610d488161151e565b15610d835760405162461bcd60e51b815260206004820152600b60248201526a109b1bd8dadb1a5cdd195960aa1b6044820152606401610962565b6000846060015111610dc85760405162461bcd60e51b815260206004820152600e60248201526d0737461626c65746f6b656e733d360941b6044820152606401610962565b610dd38585856115b7565b6000846080015115610ff85760ce5460208601516060870151604051630621743d60e11b8152603860048201526001600160a01b0392831660248201523060448201526064810191909152911690630c42e87a90608401600060405180830381600087803b158015610e4457600080fd5b505af1158015610e58573d6000803e3d6000fd5b505060cf54606088015160405163077934b560e01b81526001600160a01b03909216935063077934b59250610e939160040190815260200190565b60206040518083038186803b158015610eab57600080fd5b505afa158015610ebf573d6000803e3d6000fd5b505050506040513d601f19601f82011682018060405250810190610ee3919061211b565b60cf54604051633122ba7b60e11b8152600481018390529192506001600160a01b03169063624574f690602401602060405180830381600087803b158015610f2a57600080fd5b505af1158015610f3e573d6000803e3d6000fd5b505050506040513d601f19601f82011682018060405250810190610f62919061211b565b5084602001516001600160a01b03166108fc829081150290604051600060405180830381858888f19350505050158015610fa0573d6000803e3d6000fd5b50602080860151604080513081526001600160a01b03909216928201929092529081018290527ffb7c911d762dcd10c3d2aeb52e12bb7a1b461499d8e5c766051fc929599e51119060600160405180910390a16110ae565b60ce5460208601516060870151604051630621743d60e11b8152603860048201526001600160a01b039283166024820181905260448201526064810191909152911690630c42e87a90608401600060405180830381600087803b15801561105e57600080fd5b505af1158015611072573d6000803e3d6000fd5b50505060608601516020808801516001600160a01b0316600090815260d4909152604081208054929350916110a8908490612103565b90915550505b7f52def66c232c8dff49f053db154a6bcbd16f3799a19d78eb9a725c5c0b3c5fa0856020015186606001518760800151848960a0015160405161111e9594939291906001600160a01b03959095168552602085019390935290151560408401526060830152608082015260a00190565b60405180910390a1505060cd805460ff60a81b1916905550505050565b60008051602061229283398151915261115381611311565b6109216117bf565b60009182526069602090815260408084206001600160a01b0393909316845291905290205460ff1690565b60045462010000900460ff16158080156111ab5750600454600161010090910460ff16105b806111cb5750303b1580156111cb575060045460ff610100909104166001145b6111d457600080fd5b6004805461ff00191661010017905580156111fb576004805462ff00001916620100001790555b6112036117fc565b61120b611811565b61121660008461182e565b61122e6000805160206122928339815191528461182e565b6112587f73e573f9566d61418a34d5de3ff49360f9c51fec37f7486551670290f6285dab8461182e565b611261826112ac565b80156108ae576004805462ff000019169055604051600181527f7f26b83ff96e1f2b6a682f133852f6798a09c465da95921460cefb38474024989060200160405180910390a1505050565b6000805160206122928339815191526112c481611311565b5060cd80546001600160a81b0319166001600160a01b0390921691909117600160a01b179055565b60008281526069602052604090206001015461130781611311565b6108ae838361141d565b6109218133611838565b60045460ff16156113645760405162461bcd60e51b81526020600482015260136024820152721053149150511657d253925512505312569151606a1b6044820152606401610962565b6001600160a01b0381166000908152602081905260409020805460ff19166001179055506004805460ff19166001179055565b6113a1828261115b565b6108d25760008281526069602090815260408083206001600160a01b03851684529091529020805460ff191660011790556113d93390565b6001600160a01b0316816001600160a01b0316837f2f8788117e7eff1d82e926ec794901d17c78024a50270940304540a733656f0d60405160405180910390a45050565b611427828261115b565b156108d25760008281526069602090815260408083206001600160a01b0385168085529252808320805460ff1916905551339285917ff6391f5c32d9c69d2a47ea670b442974b53935d1edc7fd64eb21e047a839171b9190a45050565b61148c611891565b609b805460ff191690557f5db9ee0a495bf2e6ff9c91a7834c1ba4fdd244a5e8aa4e537bd38aeae4b073aa335b6040516001600160a01b03909116815260200160405180910390a1565b609b5460ff161561151c5760405162461bcd60e51b815260206004820152601060248201526f14185d5cd8589b194e881c185d5cd95960821b6044820152606401610962565b565b60cd54600090600160a01b900460ff1661153a57506000919050565b60cd54604051638e204c4360e01b81526001600160a01b03848116600483015290911690638e204c439060240160206040518083038186803b15801561157f57600080fd5b505afa158015611593573d6000803e3d6000fd5b505050506040513d601f19601f820116820180604052508101906105ea91906120b9565b81516001600160a01b031630146115ff5760405162461bcd60e51b815260206004820152600c60248201526b24a72b2fa3aaa0a92224a0a760a11b6044820152606401610962565b61160983836118da565b6116405760405162461bcd60e51b8152602060048201526008602482015267494e565f4441544160c01b6044820152606401610962565b61164a83826118f0565b6116835760405162461bcd60e51b815260206004820152600a60248201526924a72b2fa9a4a3a722a960b11b6044820152606401610962565b61169582602001518360400151611a28565b6116cd5760405162461bcd60e51b8152602060048201526009602482015268494e565f4e4f4e434560b81b6044820152606401610962565b60008381526001602052604090205460ff16156117185760405162461bcd60e51b8152602060048201526009602482015268494e565f434c41494d60b81b6044820152606401610962565b60a082015160009081526002602052604090205460ff161561176a5760405162461bcd60e51b815260206004820152600b60248201526a12539597d1115413d4d25560aa1b6044820152606401610962565b506000918252600160208181526040808520805460ff19908116851790915560a0850151865260028352818620805490911690931790925582820151928101516001600160a01b031684526003905290912055565b6117c76114d6565b609b805460ff191660011790557f62e78cea01bee320cd4e420270b5ea74000d11b0c9f74754ebdbfc544b05a2586114b93390565b60045462010000900460ff1661151c57600080fd5b60045462010000900460ff1661182657600080fd5b61151c611a55565b6108d28282611397565b611842828261115b565b6108d25761184f81611a76565b61185a836020611a88565b60405160200161186b929190612164565b60408051601f198184030181529082905262461bcd60e51b8252610962916004016121d9565b609b5460ff1661151c5760405162461bcd60e51b815260206004820152601460248201527314185d5cd8589b194e881b9bdd081c185d5cd95960621b6044820152606401610962565b6000806118e683611be8565b9093149392505050565b6040517f19457468657265756d205369676e6564204d6573736167653a0a3332000000006020820152603c81018390526000908190605c01604051602081830303815290604052805190602001209050600061196882856020016020810190611959919061220c565b86604001358760600135611c7f565b6001600160a01b03811660009081526020819052604090205490915060ff166119c35760405162461bcd60e51b815260206004820152600d60248201526c24a72b2fab20a624a220aa27a960991b6044820152606401610962565b6001600160a01b0381166119da6020860186611e7f565b6001600160a01b031614611a1d5760405162461bcd60e51b815260206004820152600a60248201526924a72b2fa9a4a3a722a960b11b6044820152606401610962565b506001949350505050565b6001600160a01b038216600090815260036020526040812054611a4c906001612103565b90911492915050565b60045462010000900460ff16611a6a57600080fd5b609b805460ff19169055565b60606105ea6001600160a01b03831660145b60606000611a9783600261222f565b611aa2906002612103565b67ffffffffffffffff811115611aba57611aba611f80565b6040519080825280601f01601f191660200182016040528015611ae4576020820181803683370190505b509050600360fc1b81600081518110611aff57611aff61224e565b60200101906001600160f81b031916908160001a905350600f60fb1b81600181518110611b2e57611b2e61224e565b60200101906001600160f81b031916908160001a9053506000611b5284600261222f565b611b5d906001612103565b90505b6001811115611bd5576f181899199a1a9b1b9c1cb0b131b232b360811b85600f1660108110611b9157611b9161224e565b1a60f81b828281518110611ba757611ba761224e565b60200101906001600160f81b031916908160001a90535060049490941c93611bce81612264565b9050611b60565b508315611be157600080fd5b9392505050565b80516020808301516040808501516060860151608087015160a08801519351600097611c6197909695916304c22a02918691016001600160a01b039889168152969097166020870152604086019490945260608501929092521515608084015260a083015260c082015260e08101919091526101000190565b60408051601f19818403018152919052805160209091012092915050565b600080600080611c9188888888611cad565b925092509250611ca18282611d7c565b50909695505050505050565b600080807f7fffffffffffffffffffffffffffffff5d576e7357a4501ddfe92f46681b20a0841115611ce85750600091506003905082611d72565b604080516000808252602082018084528a905260ff891692820192909252606081018790526080810186905260019060a0016020604051602081039080840390855afa158015611d3c573d6000803e3d6000fd5b5050604051601f1901519150506001600160a01b038116611d6857506000925060019150829050611d72565b9250600091508190505b9450945094915050565b6000826003811115611d9057611d9061227b565b1415611d9a575050565b6001826003811115611dae57611dae61227b565b1415611dcd5760405163f645eedf60e01b815260040160405180910390fd5b6002826003811115611de157611de161227b565b1415611e035760405163fce698f760e01b815260048101829052602401610962565b6003826003811115611e1757611e1761227b565b14156108d2576040516335e2f38360e21b815260048101829052602401610962565b600060208284031215611e4b57600080fd5b81356001600160e01b031981168114611be157600080fd5b80356001600160a01b0381168114611e7a57600080fd5b919050565b600060208284031215611e9157600080fd5b611be182611e63565b600080600060608486031215611eaf57600080fd5b611eb884611e63565b9250611ec660208501611e63565b9150604084013590509250925092565b600080600080600060a08688031215611eee57600080fd5b611ef786611e63565b9450611f0560208701611e63565b9350611f1360408701611e63565b9250611f2160608701611e63565b9150611f2f60808701611e63565b90509295509295909350565b600060208284031215611f4d57600080fd5b5035919050565b60008060408385031215611f6757600080fd5b82359150611f7760208401611e63565b90509250929050565b634e487b7160e01b600052604160045260246000fd5b801515811461092157600080fd5b8035611e7a81611f96565b600060808284031215611fc157600080fd5b50919050565b6000806000838503610160811215611fde57600080fd5b8435935060c0601f1982011215611ff457600080fd5b5060405160c0810181811067ffffffffffffffff8211171561202657634e487b7160e01b600052604160045260246000fd5b60405261203560208601611e63565b815261204360408601611e63565b6020820152606085013560408201526080850135606082015261206860a08601611fa4565b608082015260c085013560a082015291506120868560e08601611faf565b90509250925092565b600080604083850312156120a257600080fd5b6120ab83611e63565b9150611f7760208401611e63565b6000602082840312156120cb57600080fd5b8151611be181611f96565b634e487b7160e01b600052601160045260246000fd5b6000828210156120fe576120fe6120d6565b500390565b60008219821115612116576121166120d6565b500190565b60006020828403121561212d57600080fd5b5051919050565b60005b8381101561214f578181015183820152602001612137565b8381111561215e576000848401525b50505050565b7f416363657373436f6e74726f6c3a206163636f756e742000000000000000000081526000835161219c816017850160208801612134565b7001034b99036b4b9b9b4b733903937b6329607d1b60179184019182015283516121cd816028840160208801612134565b01602801949350505050565b60208152600082518060208401526121f8816040850160208701612134565b601f01601f19169190910160400192915050565b60006020828403121561221e57600080fd5b813560ff81168114611be157600080fd5b6000816000190483118215151615612249576122496120d6565b500290565b634e487b7160e01b600052603260045260246000fd5b600081612273576122736120d6565b506000190190565b634e487b7160e01b600052602160045260246000fdfe97667070c54ef182b0f5858b034beac1b6f3089aa2d3188bb1e8929f4fa9b929a264697066735822122075c3ca6b7171212fafccf0c8f2c915026bfc2cb23c5d52255f5bf8cf10d6a15164736f6c63430008090033",
  "linkReferences": {},
  "deployedLinkReferences": {}
}