{
  "_format": "hh-sol-artifact-1",
  "contractName": "AdminUpgradeableERC721",
  "sourceName": "contracts/erc721/standard/AdminUpgradeableERC721.sol",
  "abi": [
    {
      "anonymous": false,
      "inputs": [
        {
          "indexed": true,
          "internalType": "address",
          "name": "owner",
          "type": "address"
        },
        {
          "indexed": true,
          "internalType": "address",
          "name": "approved",
          "type": "address"
        },
        {
          "indexed": true,
          "internalType": "uint256",
          "name": "tokenId",
          "type": "uint256"
        }
      ],
      "name": "Approval",
      "type": "event"
    },
    {
      "anonymous": false,
      "inputs": [
        {
          "indexed": true,
          "internalType": "address",
          "name": "owner",
          "type": "address"
        },
        {
          "indexed": true,
          "internalType": "address",
          "name": "operator",
          "type": "address"
        },
        {
          "indexed": false,
          "internalType": "bool",
          "name": "approved",
          "type": "bool"
        }
      ],
      "name": "ApprovalForAll",
      "type": "event"
    },
    {
      "anonymous": false,
      "inputs": [
        {
          "indexed": false,
          "internalType": "uint8",
          "name": "version",
          "type": "uint8"
        }
      ],
      "name": "Initialized",
      "type": "event"
    },
    {
      "anonymous": false,
      "inputs": [
        {
          "indexed": false,
          "internalType": "address",
          "name": "account",
          "type": "address"
        }
      ],
      "name": "Paused",
      "type": "event"
    },
    {
      "anonymous": false,
      "inputs": [
        {
          "indexed": true,
          "internalType": "bytes32",
          "name": "role",
          "type": "bytes32"
        },
        {
          "indexed": true,
          "internalType": "bytes32",
          "name": "previousAdminRole",
          "type": "bytes32"
        },
        {
          "indexed": true,
          "internalType": "bytes32",
          "name": "newAdminRole",
          "type": "bytes32"
        }
      ],
      "name": "RoleAdminChanged",
      "type": "event"
    },
    {
      "anonymous": false,
      "inputs": [
        {
          "indexed": true,
          "internalType": "bytes32",
          "name": "role",
          "type": "bytes32"
        },
        {
          "indexed": true,
          "internalType": "address",
          "name": "account",
          "type": "address"
        },
        {
          "indexed": true,
          "internalType": "address",
          "name": "sender",
          "type": "address"
        }
      ],
      "name": "RoleGranted",
      "type": "event"
    },
    {
      "anonymous": false,
      "inputs": [
        {
          "indexed": true,
          "internalType": "bytes32",
          "name": "role",
          "type": "bytes32"
        },
        {
          "indexed": true,
          "internalType": "address",
          "name": "account",
          "type": "address"
        },
        {
          "indexed": true,
          "internalType": "address",
          "name": "sender",
          "type": "address"
        }
      ],
      "name": "RoleRevoked",
      "type": "event"
    },
    {
      "anonymous": false,
      "inputs": [
        {
          "indexed": true,
          "internalType": "address",
          "name": "from",
          "type": "address"
        },
        {
          "indexed": true,
          "internalType": "address",
          "name": "to",
          "type": "address"
        },
        {
          "indexed": true,
          "internalType": "uint256",
          "name": "tokenId",
          "type": "uint256"
        }
      ],
      "name": "Transfer",
      "type": "event"
    },
    {
      "anonymous": false,
      "inputs": [
        {
          "indexed": false,
          "internalType": "address",
          "name": "account",
          "type": "address"
        }
      ],
      "name": "Unpaused",
      "type": "event"
    },
    {
      "inputs": [],
      "name": "DEFAULT_ADMIN_ROLE",
      "outputs": [
        {
          "internalType": "bytes32",
          "name": "",
          "type": "bytes32"
        }
      ],
      "stateMutability": "view",
      "type": "function"
    },
    {
      "inputs": [
        {
          "internalType": "string",
          "name": "_name",
          "type": "string"
        },
        {
          "internalType": "string",
          "name": "_symbol",
          "type": "string"
        },
        {
          "internalType": "string",
          "name": "_baseTokenURI",
          "type": "string"
        },
        {
          "internalType": "address",
          "name": "_operator",
          "type": "address"
        },
        {
          "internalType": "address",
          "name": "_blocklistAddress",
          "type": "address"
        }
      ],
      "name": "__AdminUpgradeableERC721_init",
      "outputs": [],
      "stateMutability": "nonpayable",
      "type": "function"
    },
    {
      "inputs": [
        {
          "internalType": "address",
          "name": "to",
          "type": "address"
        },
        {
          "internalType": "uint256",
          "name": "tokenId",
          "type": "uint256"
        }
      ],
      "name": "approve",
      "outputs": [],
      "stateMutability": "nonpayable",
      "type": "function"
    },
    {
      "inputs": [
        {
          "internalType": "address",
          "name": "owner",
          "type": "address"
        }
      ],
      "name": "balanceOf",
      "outputs": [
        {
          "internalType": "uint256",
          "name": "",
          "type": "uint256"
        }
      ],
      "stateMutability": "view",
      "type": "function"
    },
    {
      "inputs": [],
      "name": "baseTokenURI",
      "outputs": [
        {
          "internalType": "string",
          "name": "",
          "type": "string"
        }
      ],
      "stateMutability": "view",
      "type": "function"
    },
    {
      "inputs": [],
      "name": "blocklist",
      "outputs": [
        {
          "internalType": "contract IBlocklist",
          "name": "",
          "type": "address"
        }
      ],
      "stateMutability": "view",
      "type": "function"
    },
    {
      "inputs": [
        {
          "internalType": "address",
          "name": "account",
          "type": "address"
        },
        {
          "internalType": "uint256",
          "name": "tokenId",
          "type": "uint256"
        }
      ],
      "name": "burnFrom",
      "outputs": [],
      "stateMutability": "nonpayable",
      "type": "function"
    },
    {
      "inputs": [
        {
          "internalType": "uint256",
          "name": "tokenId",
          "type": "uint256"
        }
      ],
      "name": "getApproved",
      "outputs": [
        {
          "internalType": "address",
          "name": "",
          "type": "address"
        }
      ],
      "stateMutability": "view",
      "type": "function"
    },
    {
      "inputs": [
        {
          "internalType": "bytes32",
          "name": "role",
          "type": "bytes32"
        }
      ],
      "name": "getRoleAdmin",
      "outputs": [
        {
          "internalType": "bytes32",
          "name": "",
          "type": "bytes32"
        }
      ],
      "stateMutability": "view",
      "type": "function"
    },
    {
      "inputs": [
        {
          "internalType": "bytes32",
          "name": "role",
          "type": "bytes32"
        },
        {
          "internalType": "address",
          "name": "account",
          "type": "address"
        }
      ],
      "name": "grantRole",
      "outputs": [],
      "stateMutability": "nonpayable",
      "type": "function"
    },
    {
      "inputs": [],
      "name": "hasBlocklist",
      "outputs": [
        {
          "internalType": "bool",
          "name": "",
          "type": "bool"
        }
      ],
      "stateMutability": "view",
      "type": "function"
    },
    {
      "inputs": [
        {
          "internalType": "bytes32",
          "name": "role",
          "type": "bytes32"
        },
        {
          "internalType": "address",
          "name": "account",
          "type": "address"
        }
      ],
      "name": "hasRole",
      "outputs": [
        {
          "internalType": "bool",
          "name": "",
          "type": "bool"
        }
      ],
      "stateMutability": "view",
      "type": "function"
    },
    {
      "inputs": [
        {
          "internalType": "address",
          "name": "owner",
          "type": "address"
        },
        {
          "internalType": "address",
          "name": "operator",
          "type": "address"
        }
      ],
      "name": "isApprovedForAll",
      "outputs": [
        {
          "internalType": "bool",
          "name": "",
          "type": "bool"
        }
      ],
      "stateMutability": "view",
      "type": "function"
    },
    {
      "inputs": [
        {
          "internalType": "address",
          "name": "to",
          "type": "address"
        }
      ],
      "name": "mintTo",
      "outputs": [],
      "stateMutability": "nonpayable",
      "type": "function"
    },
    {
      "inputs": [],
      "name": "name",
      "outputs": [
        {
          "internalType": "string",
          "name": "",
          "type": "string"
        }
      ],
      "stateMutability": "view",
      "type": "function"
    },
    {
      "inputs": [],
      "name": "nextNftId",
      "outputs": [
        {
          "internalType": "uint256",
          "name": "",
          "type": "uint256"
        }
      ],
      "stateMutability": "view",
      "type": "function"
    },
    {
      "inputs": [
        {
          "internalType": "uint256",
          "name": "tokenId",
          "type": "uint256"
        }
      ],
      "name": "ownerOf",
      "outputs": [
        {
          "internalType": "address",
          "name": "",
          "type": "address"
        }
      ],
      "stateMutability": "view",
      "type": "function"
    },
    {
      "inputs": [],
      "name": "pause",
      "outputs": [],
      "stateMutability": "nonpayable",
      "type": "function"
    },
    {
      "inputs": [],
      "name": "paused",
      "outputs": [
        {
          "internalType": "bool",
          "name": "",
          "type": "bool"
        }
      ],
      "stateMutability": "view",
      "type": "function"
    },
    {
      "inputs": [
        {
          "internalType": "bytes32",
          "name": "role",
          "type": "bytes32"
        },
        {
          "internalType": "address",
          "name": "account",
          "type": "address"
        }
      ],
      "name": "renounceRole",
      "outputs": [],
      "stateMutability": "nonpayable",
      "type": "function"
    },
    {
      "inputs": [
        {
          "internalType": "bytes32",
          "name": "role",
          "type": "bytes32"
        },
        {
          "internalType": "address",
          "name": "account",
          "type": "address"
        }
      ],
      "name": "revokeRole",
      "outputs": [],
      "stateMutability": "nonpayable",
      "type": "function"
    },
    {
      "inputs": [
        {
          "internalType": "address",
          "name": "from",
          "type": "address"
        },
        {
          "internalType": "address",
          "name": "to",
          "type": "address"
        },
        {
          "internalType": "uint256",
          "name": "tokenId",
          "type": "uint256"
        }
      ],
      "name": "safeTransferFrom",
      "outputs": [],
      "stateMutability": "nonpayable",
      "type": "function"
    },
    {
      "inputs": [
        {
          "internalType": "address",
          "name": "from",
          "type": "address"
        },
        {
          "internalType": "address",
          "name": "to",
          "type": "address"
        },
        {
          "internalType": "uint256",
          "name": "tokenId",
          "type": "uint256"
        },
        {
          "internalType": "bytes",
          "name": "data",
          "type": "bytes"
        }
      ],
      "name": "safeTransferFrom",
      "outputs": [],
      "stateMutability": "nonpayable",
      "type": "function"
    },
    {
      "inputs": [
        {
          "internalType": "address",
          "name": "operator",
          "type": "address"
        },
        {
          "internalType": "bool",
          "name": "approved",
          "type": "bool"
        }
      ],
      "name": "setApprovalForAll",
      "outputs": [],
      "stateMutability": "nonpayable",
      "type": "function"
    },
    {
      "inputs": [
        {
          "internalType": "string",
          "name": "_baseTokenURI",
          "type": "string"
        }
      ],
      "name": "setBaseTokenURI",
      "outputs": [],
      "stateMutability": "nonpayable",
      "type": "function"
    },
    {
      "inputs": [
        {
          "internalType": "bytes4",
          "name": "interfaceId",
          "type": "bytes4"
        }
      ],
      "name": "supportsInterface",
      "outputs": [
        {
          "internalType": "bool",
          "name": "",
          "type": "bool"
        }
      ],
      "stateMutability": "view",
      "type": "function"
    },
    {
      "inputs": [],
      "name": "symbol",
      "outputs": [
        {
          "internalType": "string",
          "name": "",
          "type": "string"
        }
      ],
      "stateMutability": "view",
      "type": "function"
    },
    {
      "inputs": [
        {
          "internalType": "uint256",
          "name": "index",
          "type": "uint256"
        }
      ],
      "name": "tokenByIndex",
      "outputs": [
        {
          "internalType": "uint256",
          "name": "",
          "type": "uint256"
        }
      ],
      "stateMutability": "view",
      "type": "function"
    },
    {
      "inputs": [
        {
          "internalType": "address",
          "name": "owner",
          "type": "address"
        },
        {
          "internalType": "uint256",
          "name": "index",
          "type": "uint256"
        }
      ],
      "name": "tokenOfOwnerByIndex",
      "outputs": [
        {
          "internalType": "uint256",
          "name": "",
          "type": "uint256"
        }
      ],
      "stateMutability": "view",
      "type": "function"
    },
    {
      "inputs": [
        {
          "internalType": "uint256",
          "name": "tokenId",
          "type": "uint256"
        }
      ],
      "name": "tokenURI",
      "outputs": [
        {
          "internalType": "string",
          "name": "",
          "type": "string"
        }
      ],
      "stateMutability": "view",
      "type": "function"
    },
    {
      "inputs": [
        {
          "internalType": "address",
          "name": "_owner",
          "type": "address"
        }
      ],
      "name": "tokensOfOwner",
      "outputs": [
        {
          "internalType": "uint256[]",
          "name": "",
          "type": "uint256[]"
        }
      ],
      "stateMutability": "view",
      "type": "function"
    },
    {
      "inputs": [],
      "name": "totalSupply",
      "outputs": [
        {
          "internalType": "uint256",
          "name": "",
          "type": "uint256"
        }
      ],
      "stateMutability": "view",
      "type": "function"
    },
    {
      "inputs": [
        {
          "internalType": "address",
          "name": "from",
          "type": "address"
        },
        {
          "internalType": "address",
          "name": "to",
          "type": "address"
        },
        {
          "internalType": "uint256",
          "name": "tokenId",
          "type": "uint256"
        }
      ],
      "name": "transferFrom",
      "outputs": [],
      "stateMutability": "nonpayable",
      "type": "function"
    },
    {
      "inputs": [],
      "name": "unpause",
      "outputs": [],
      "stateMutability": "nonpayable",
      "type": "function"
    }
  ],
  "bytecode": "0x608060405234801561001057600080fd5b506128f6806100206000396000f3fe608060405234801561001057600080fd5b50600436106102065760003560e01c806370a082311161011a578063a217fddf116100ad578063c99efaa01161007c578063c99efaa014610444578063d547741f14610457578063d547cfb71461046a578063d64e539614610472578063e985e9c51461048657600080fd5b8063a217fddf14610403578063a22cb4651461040b578063b88d4fde1461041e578063c87b56dd1461043157600080fd5b80638462151c116100e95780638462151c146103be57806391d14854146103de57806393f1da4f146103f157806395d89b41146103fb57600080fd5b806370a082311461037d578063755edd171461039057806379cc6790146103a35780638456cb59146103b657600080fd5b80632f745c591161019d57806342842e0e1161016c57806342842e0e146103245780634f6ccce7146103375780635c975abb1461034a578063634210f4146103555780636352211e1461036a57600080fd5b80632f745c59146102e357806330176e13146102f657806336568abe146103095780633f4ba83a1461031c57600080fd5b806318160ddd116101d957806318160ddd1461028857806323b872dd1461029a578063248a9ca3146102ad5780632f2ff15d146102d057600080fd5b806301ffc9a71461020b57806306fdde0314610233578063081812fc14610248578063095ea7b314610273575b600080fd5b61021e610219366004612135565b6104c2565b60405190151581526020015b60405180910390f35b61023b6104d3565b60405161022a91906121aa565b61025b6102563660046121bd565b610565565b6040516001600160a01b03909116815260200161022a565b6102866102813660046121f2565b61058c565b005b6099545b60405190815260200161022a565b6102866102a836600461221c565b6106a7565b61028c6102bb3660046121bd565b600090815260c9602052604090206001015490565b6102866102de366004612258565b6106d8565b61028c6102f13660046121f2565b6106fd565b610286610304366004612330565b610793565b610286610317366004612258565b6107bf565b61028661083d565b61028661033236600461221c565b610868565b61028c6103453660046121bd565b610883565b60fb5460ff1661021e565b61012d5461021e90600160a01b900460ff1681565b61025b6103783660046121bd565b610916565b61028c61038b366004612365565b610976565b61028661039e366004612365565b6109fc565b6102866103b13660046121f2565b610a2f565b610286610acd565b6103d16103cc366004612365565b610af5565b60405161022a9190612380565b61021e6103ec366004612258565b610b97565b61028c61012e5481565b61023b610bc2565b61028c600081565b6102866104193660046123d2565b610bd1565b61028661042c366004612409565b610bdc565b61023b61043f3660046121bd565b610c14565b610286610452366004612485565b610c88565b610286610465366004612258565b610d3a565b61023b610d5f565b61012d5461025b906001600160a01b031681565b61021e61049436600461252f565b6001600160a01b039182166000908152606a6020908152604080832093909416825291909152205460ff1690565b60006104cd82610dee565b92915050565b6060606580546104e290612559565b80601f016020809104026020016040519081016040528092919081815260200182805461050e90612559565b801561055b5780601f106105305761010080835404028352916020019161055b565b820191906000526020600020905b81548152906001019060200180831161053e57829003601f168201915b5050505050905090565b600061057082610e13565b506000908152606960205260409020546001600160a01b031690565b600061059782610916565b9050806001600160a01b0316836001600160a01b0316141561060a5760405162461bcd60e51b815260206004820152602160248201527f4552433732313a20617070726f76616c20746f2063757272656e74206f776e656044820152603960f91b60648201526084015b60405180910390fd5b336001600160a01b038216148061062657506106268133610494565b6106985760405162461bcd60e51b815260206004820152603d60248201527f4552433732313a20617070726f76652063616c6c6572206973206e6f7420746f60448201527f6b656e206f776e6572206f7220617070726f76656420666f7220616c6c0000006064820152608401610601565b6106a28383610e72565b505050565b6106b13382610ee0565b6106cd5760405162461bcd60e51b815260040161060190612594565b6106a2838383610f3f565b600082815260c960205260409020600101546106f3816110b0565b6106a283836110ba565b600061070883610976565b821061076a5760405162461bcd60e51b815260206004820152602b60248201527f455243373231456e756d657261626c653a206f776e657220696e646578206f7560448201526a74206f6620626f756e647360a81b6064820152608401610601565b506001600160a01b03919091166000908152609760209081526040808320938352929052205490565b6000805160206128a18339815191526107ab816110b0565b81516106a29061012f906020850190612086565b6001600160a01b038116331461082f5760405162461bcd60e51b815260206004820152602f60248201527f416363657373436f6e74726f6c3a2063616e206f6e6c792072656e6f756e636560448201526e103937b632b9903337b91039b2b63360891b6064820152608401610601565b6108398282611140565b5050565b6000805160206128a1833981519152610855816110b0565b61085d6111a7565b6108656111f2565b50565b6106a283838360405180602001604052806000815250610bdc565b600061088e60995490565b82106108f15760405162461bcd60e51b815260206004820152602c60248201527f455243373231456e756d657261626c653a20676c6f62616c20696e646578206f60448201526b7574206f6620626f756e647360a01b6064820152608401610601565b60998281548110610904576109046125e1565b90600052602060002001549050919050565b6000818152606760205260408120546001600160a01b0316806104cd5760405162461bcd60e51b8152602060048201526018602482015277115490cdcc8c4e881a5b9d985b1a59081d1bdad95b88125160421b6044820152606401610601565b60006001600160a01b0382166109e05760405162461bcd60e51b815260206004820152602960248201527f4552433732313a2061646472657373207a65726f206973206e6f7420612076616044820152683634b21037bbb732b960b91b6064820152608401610601565b506001600160a01b031660009081526068602052604090205490565b7f9f2df0fed2c77648de5860a4cc508cd0818c85b8b8a1ab4ceeef8d981c8956a6610a26816110b0565b61083982611244565b816001600160a01b0316610a4282610916565b6001600160a01b03161480610a5c5750610a5c8233610494565b80610a8c5750610a8c7f3c11d16cbaffd01df69ce1c404f6340ee057498f5f00246190ea54220576a84833610b97565b610ac45760405162461bcd60e51b81526020600482015260096024820152683337b93134b23232b760b91b6044820152606401610601565b6108398161126a565b6000805160206128a1833981519152610ae5816110b0565b610aed61130d565b610865611353565b60606000610b0283610976565b905060008167ffffffffffffffff811115610b1f57610b1f612284565b604051908082528060200260200182016040528015610b48578160200160208202803683370190505b50905060005b82811015610b8f57610b6085826106fd565b828281518110610b7257610b726125e1565b602090810291909101015280610b878161260d565b915050610b4e565b509392505050565b600091825260c9602090815260408084206001600160a01b0393909316845291905290205460ff1690565b6060606680546104e290612559565b610839338383611390565b610be63383610ee0565b610c025760405162461bcd60e51b815260040161060190612594565b610c0e8484848461145f565b50505050565b6060610c1f82610e13565b6000610c3660408051602081019091526000815290565b90506000815111610c565760405180602001604052806000815250610c81565b80610c6084611492565b604051602001610c71929190612628565b6040516020818303038152906040525b9392505050565b600054610100900460ff16610caf5760405162461bcd60e51b815260040161060190612657565b610cb98585611527565b610cc1611558565b610cc961157f565b610cf58161012d80546001600160a81b0319166001600160a01b0390921691909117600160a01b179055565b610d006000836115ae565b610d186000805160206128a1833981519152836115ae565b8251610d2c9061012f906020860190612086565b5050600161012e5550505050565b600082815260c96020526040902060010154610d55816110b0565b6106a28383611140565b61012f8054610d6d90612559565b80601f0160208091040260200160405190810160405280929190818152602001828054610d9990612559565b8015610de65780601f10610dbb57610100808354040283529160200191610de6565b820191906000526020600020905b815481529060010190602001808311610dc957829003601f168201915b505050505081565b60006001600160e01b03198216637965db0b60e01b14806104cd57506104cd826115b8565b6000818152606760205260409020546001600160a01b03166108655760405162461bcd60e51b8152602060048201526018602482015277115490cdcc8c4e881a5b9d985b1a59081d1bdad95b88125160421b6044820152606401610601565b600081815260696020526040902080546001600160a01b0319166001600160a01b0384169081179091558190610ea782610916565b6001600160a01b03167f8c5be1e5ebec7d5bd14f71427d1e84f3dd0314c0f7b2291e5b200ac8c7c3b92560405160405180910390a45050565b600080610eec83610916565b9050806001600160a01b0316846001600160a01b03161480610f135750610f138185610494565b80610f375750836001600160a01b0316610f2c84610565565b6001600160a01b0316145b949350505050565b826001600160a01b0316610f5282610916565b6001600160a01b031614610f785760405162461bcd60e51b8152600401610601906126a2565b6001600160a01b038216610fda5760405162461bcd60e51b8152602060048201526024808201527f4552433732313a207472616e7366657220746f20746865207a65726f206164646044820152637265737360e01b6064820152608401610601565b610fe783838360016115dd565b826001600160a01b0316610ffa82610916565b6001600160a01b0316146110205760405162461bcd60e51b8152600401610601906126a2565b600081815260696020908152604080832080546001600160a01b03199081169091556001600160a01b0387811680865260688552838620805460001901905590871680865283862080546001019055868652606790945282852080549092168417909155905184937fddf252ad1be2c89b69c2b068fc378daa952ba7f163c4a11628f55a4df523b3ef91a4505050565b610865813361168b565b6110c48282610b97565b61083957600082815260c9602090815260408083206001600160a01b03851684529091529020805460ff191660011790556110fc3390565b6001600160a01b0316816001600160a01b0316837f2f8788117e7eff1d82e926ec794901d17c78024a50270940304540a733656f0d60405160405180910390a45050565b61114a8282610b97565b1561083957600082815260c9602090815260408083206001600160a01b0385168085529252808320805460ff1916905551339285917ff6391f5c32d9c69d2a47ea670b442974b53935d1edc7fd64eb21e047a839171b9190a45050565b60fb5460ff166111f05760405162461bcd60e51b815260206004820152601460248201527314185d5cd8589b194e881b9bdd081c185d5cd95960621b6044820152606401610601565b565b6111fa6111a7565b60fb805460ff191690557f5db9ee0a495bf2e6ff9c91a7834c1ba4fdd244a5e8aa4e537bd38aeae4b073aa335b6040516001600160a01b03909116815260200160405180910390a1565b6112518161012e546116e4565b61012e80549060006112628361260d565b919050555050565b600061127582610916565b90506112858160008460016115dd565b61128e82610916565b600083815260696020908152604080832080546001600160a01b03199081169091556001600160a01b0385168085526068845282852080546000190190558785526067909352818420805490911690555192935084927fddf252ad1be2c89b69c2b068fc378daa952ba7f163c4a11628f55a4df523b3ef908390a45050565b60fb5460ff16156111f05760405162461bcd60e51b815260206004820152601060248201526f14185d5cd8589b194e881c185d5cd95960821b6044820152606401610601565b61135b61130d565b60fb805460ff191660011790557f62e78cea01bee320cd4e420270b5ea74000d11b0c9f74754ebdbfc544b05a2586112273390565b816001600160a01b0316836001600160a01b031614156113f25760405162461bcd60e51b815260206004820152601960248201527f4552433732313a20617070726f766520746f2063616c6c6572000000000000006044820152606401610601565b6001600160a01b038381166000818152606a6020908152604080832094871680845294825291829020805460ff191686151590811790915591519182527f17307eab39ab6107e8899845ad3d59bd9653f200f220920489ca2b5937696c31910160405180910390a3505050565b61146a848484610f3f565b61147684848484611827565b610c0e5760405162461bcd60e51b8152600401610601906126e7565b6060600061149f83611934565b600101905060008167ffffffffffffffff8111156114bf576114bf612284565b6040519080825280601f01601f1916602001820160405280156114e9576020820181803683370190505b5090508181016020015b600019016f181899199a1a9b1b9c1cb0b131b232b360811b600a86061a8153600a850494508461152257610b8f565b6114f3565b600054610100900460ff1661154e5760405162461bcd60e51b815260040161060190612657565b6108398282611a0c565b600054610100900460ff166111f05760405162461bcd60e51b815260040161060190612657565b600054610100900460ff166115a65760405162461bcd60e51b815260040161060190612657565b6111f0611a5a565b61083982826110ba565b60006001600160e01b0319821663780e9d6360e01b14806104cd57506104cd82611a8d565b6115e984848484611add565b60fb5460ff16156116255760405162461bcd60e51b81526020600482015260066024820152651c185d5cd95960d21b6044820152606401610601565b61162f8484611c1d565b15610c0e5760405162461bcd60e51b815260206004820152602660248201527f53656e64657220616e642f6f7220726563697069656e7420697320626c6f636b6044820152651b1a5cdd195960d21b6064820152608401610601565b6116958282610b97565b610839576116a281611cc0565b6116ad836020611cd2565b6040516020016116be929190612739565b60408051601f198184030181529082905262461bcd60e51b8252610601916004016121aa565b6000818152606760205260409020546001600160a01b0316156117495760405162461bcd60e51b815260206004820152601c60248201527f4552433732313a20746f6b656e20616c7265616479206d696e746564000000006044820152606401610601565b6117576000838360016115dd565b6000818152606760205260409020546001600160a01b0316156117bc5760405162461bcd60e51b815260206004820152601c60248201527f4552433732313a20746f6b656e20616c7265616479206d696e746564000000006044820152606401610601565b6001600160a01b038216600081815260686020908152604080832080546001019055848352606790915280822080546001600160a01b0319168417905551839291907fddf252ad1be2c89b69c2b068fc378daa952ba7f163c4a11628f55a4df523b3ef908290a45050565b60006001600160a01b0384163b1561192957604051630a85bd0160e11b81526001600160a01b0385169063150b7a029061186b9033908990889088906004016127ae565b602060405180830381600087803b15801561188557600080fd5b505af19250505080156118b5575060408051601f3d908101601f191682019092526118b2918101906127eb565b60015b61190f573d8080156118e3576040519150601f19603f3d011682016040523d82523d6000602084013e6118e8565b606091505b5080516119075760405162461bcd60e51b8152600401610601906126e7565b805181602001fd5b6001600160e01b031916630a85bd0160e11b149050610f37565b506001949350505050565b60008072184f03e93ff9f4daa797ed6e38ed64bf6a1f0160401b83106119735772184f03e93ff9f4daa797ed6e38ed64bf6a1f0160401b830492506040015b6d04ee2d6d415b85acef8100000000831061199f576d04ee2d6d415b85acef8100000000830492506020015b662386f26fc1000083106119bd57662386f26fc10000830492506010015b6305f5e10083106119d5576305f5e100830492506008015b61271083106119e957612710830492506004015b606483106119fb576064830492506002015b600a83106104cd5760010192915050565b600054610100900460ff16611a335760405162461bcd60e51b815260040161060190612657565b8151611a46906065906020850190612086565b5080516106a2906066906020840190612086565b600054610100900460ff16611a815760405162461bcd60e51b815260040161060190612657565b60fb805460ff19169055565b60006001600160e01b031982166380ac58cd60e01b1480611abe57506001600160e01b03198216635b5e139f60e01b145b806104cd57506301ffc9a760e01b6001600160e01b03198316146104cd565b611ae984848484611e6e565b6001811115611b585760405162461bcd60e51b815260206004820152603560248201527f455243373231456e756d657261626c653a20636f6e7365637574697665207472604482015274185b9cd9995c9cc81b9bdd081cdd5c1c1bdc9d1959605a1b6064820152608401610601565b816001600160a01b038516611bb457611baf81609980546000838152609a60205260408120829055600182018355919091527f72a152ddfb8e864297c917af52ea6c1c68aead0fee1a62673fcc7e0c94979d000155565b611bd7565b836001600160a01b0316856001600160a01b031614611bd757611bd78582611ef6565b6001600160a01b038416611bf357611bee81611f93565b611c16565b846001600160a01b0316846001600160a01b031614611c1657611c168482612042565b5050505050565b61012d54600090600160a01b900460ff16611c3a575060006104cd565b61012d5460405163257128dd60e21b81526001600160a01b0385811660048301528481166024830152909116906395c4a3749060440160206040518083038186803b158015611c8857600080fd5b505afa158015611c9c573d6000803e3d6000fd5b505050506040513d601f19601f82011682018060405250810190610c819190612808565b60606104cd6001600160a01b03831660145b60606000611ce1836002612825565b611cec906002612844565b67ffffffffffffffff811115611d0457611d04612284565b6040519080825280601f01601f191660200182016040528015611d2e576020820181803683370190505b509050600360fc1b81600081518110611d4957611d496125e1565b60200101906001600160f81b031916908160001a905350600f60fb1b81600181518110611d7857611d786125e1565b60200101906001600160f81b031916908160001a9053506000611d9c846002612825565b611da7906001612844565b90505b6001811115611e1f576f181899199a1a9b1b9c1cb0b131b232b360811b85600f1660108110611ddb57611ddb6125e1565b1a60f81b828281518110611df157611df16125e1565b60200101906001600160f81b031916908160001a90535060049490941c93611e188161285c565b9050611daa565b508315610c815760405162461bcd60e51b815260206004820181905260248201527f537472696e67733a20686578206c656e67746820696e73756666696369656e746044820152606401610601565b6001811115610c0e576001600160a01b03841615611eb4576001600160a01b03841660009081526068602052604081208054839290611eae908490612873565b90915550505b6001600160a01b03831615610c0e576001600160a01b03831660009081526068602052604081208054839290611eeb908490612844565b909155505050505050565b60006001611f0384610976565b611f0d9190612873565b600083815260986020526040902054909150808214611f60576001600160a01b03841660009081526097602090815260408083208584528252808320548484528184208190558352609890915290208190555b5060009182526098602090815260408084208490556001600160a01b039094168352609781528383209183525290812055565b609954600090611fa590600190612873565b6000838152609a602052604081205460998054939450909284908110611fcd57611fcd6125e1565b906000526020600020015490508060998381548110611fee57611fee6125e1565b6000918252602080832090910192909255828152609a909152604080822084905585825281205560998054806120265761202661288a565b6001900381819060005260206000200160009055905550505050565b600061204d83610976565b6001600160a01b039093166000908152609760209081526040808320868452825280832085905593825260989052919091209190915550565b82805461209290612559565b90600052602060002090601f0160209004810192826120b457600085556120fa565b82601f106120cd57805160ff19168380011785556120fa565b828001600101855582156120fa579182015b828111156120fa5782518255916020019190600101906120df565b5061210692915061210a565b5090565b5b80821115612106576000815560010161210b565b6001600160e01b03198116811461086557600080fd5b60006020828403121561214757600080fd5b8135610c818161211f565b60005b8381101561216d578181015183820152602001612155565b83811115610c0e5750506000910152565b60008151808452612196816020860160208601612152565b601f01601f19169290920160200192915050565b602081526000610c81602083018461217e565b6000602082840312156121cf57600080fd5b5035919050565b80356001600160a01b03811681146121ed57600080fd5b919050565b6000806040838503121561220557600080fd5b61220e836121d6565b946020939093013593505050565b60008060006060848603121561223157600080fd5b61223a846121d6565b9250612248602085016121d6565b9150604084013590509250925092565b6000806040838503121561226b57600080fd5b8235915061227b602084016121d6565b90509250929050565b634e487b7160e01b600052604160045260246000fd5b600067ffffffffffffffff808411156122b5576122b5612284565b604051601f8501601f19908116603f011681019082821181831017156122dd576122dd612284565b816040528093508581528686860111156122f657600080fd5b858560208301376000602087830101525050509392505050565b600082601f83011261232157600080fd5b610c818383356020850161229a565b60006020828403121561234257600080fd5b813567ffffffffffffffff81111561235957600080fd5b610f3784828501612310565b60006020828403121561237757600080fd5b610c81826121d6565b6020808252825182820181905260009190848201906040850190845b818110156123b85783518352928401929184019160010161239c565b50909695505050505050565b801515811461086557600080fd5b600080604083850312156123e557600080fd5b6123ee836121d6565b915060208301356123fe816123c4565b809150509250929050565b6000806000806080858703121561241f57600080fd5b612428856121d6565b9350612436602086016121d6565b925060408501359150606085013567ffffffffffffffff81111561245957600080fd5b8501601f8101871361246a57600080fd5b6124798782356020840161229a565b91505092959194509250565b600080600080600060a0868803121561249d57600080fd5b853567ffffffffffffffff808211156124b557600080fd5b6124c189838a01612310565b965060208801359150808211156124d757600080fd5b6124e389838a01612310565b955060408801359150808211156124f957600080fd5b5061250688828901612310565b935050612515606087016121d6565b9150612523608087016121d6565b90509295509295909350565b6000806040838503121561254257600080fd5b61254b836121d6565b915061227b602084016121d6565b600181811c9082168061256d57607f821691505b6020821081141561258e57634e487b7160e01b600052602260045260246000fd5b50919050565b6020808252602d908201527f4552433732313a2063616c6c6572206973206e6f7420746f6b656e206f776e6560408201526c1c881bdc88185c1c1c9bdd9959609a1b606082015260800190565b634e487b7160e01b600052603260045260246000fd5b634e487b7160e01b600052601160045260246000fd5b6000600019821415612621576126216125f7565b5060010190565b6000835161263a818460208801612152565b83519083019061264e818360208801612152565b01949350505050565b6020808252602b908201527f496e697469616c697a61626c653a20636f6e7472616374206973206e6f74206960408201526a6e697469616c697a696e6760a81b606082015260800190565b60208082526025908201527f4552433732313a207472616e736665722066726f6d20696e636f72726563742060408201526437bbb732b960d91b606082015260800190565b60208082526032908201527f4552433732313a207472616e7366657220746f206e6f6e20455243373231526560408201527131b2b4bb32b91034b6b83632b6b2b73a32b960711b606082015260800190565b7f416363657373436f6e74726f6c3a206163636f756e7420000000000000000000815260008351612771816017850160208801612152565b7001034b99036b4b9b9b4b733903937b6329607d1b60179184019182015283516127a2816028840160208801612152565b01602801949350505050565b6001600160a01b03858116825284166020820152604081018390526080606082018190526000906127e19083018461217e565b9695505050505050565b6000602082840312156127fd57600080fd5b8151610c818161211f565b60006020828403121561281a57600080fd5b8151610c81816123c4565b600081600019048311821515161561283f5761283f6125f7565b500290565b60008219821115612857576128576125f7565b500190565b60008161286b5761286b6125f7565b506000190190565b600082821015612885576128856125f7565b500390565b634e487b7160e01b600052603160045260246000fdfe97667070c54ef182b0f5858b034beac1b6f3089aa2d3188bb1e8929f4fa9b929a264697066735822122099d765262fc14b03c447a22c5ffb225ce79268a3a8087327f4ae5f80cf1fb3b464736f6c63430008090033",
  "linkReferences": {},
  "deployedLinkReferences": {}
}