{
  "_format": "hh-sol-artifact-1",
  "contractName": "AdminUpgradeableERC721",
  "sourceName": "contracts/erc721/standard/AdminUpgradeableERC721.sol",
  "abi": [
    {
      "anonymous": false,
      "inputs": [
        {
          "indexed": true,
          "internalType": "address",
          "name": "owner",
          "type": "address"
        },
        {
          "indexed": true,
          "internalType": "address",
          "name": "approved",
          "type": "address"
        },
        {
          "indexed": true,
          "internalType": "uint256",
          "name": "tokenId",
          "type": "uint256"
        }
      ],
      "name": "Approval",
      "type": "event"
    },
    {
      "anonymous": false,
      "inputs": [
        {
          "indexed": true,
          "internalType": "address",
          "name": "owner",
          "type": "address"
        },
        {
          "indexed": true,
          "internalType": "address",
          "name": "operator",
          "type": "address"
        },
        {
          "indexed": false,
          "internalType": "bool",
          "name": "approved",
          "type": "bool"
        }
      ],
      "name": "ApprovalForAll",
      "type": "event"
    },
    {
      "anonymous": false,
      "inputs": [
        {
          "indexed": false,
          "internalType": "uint8",
          "name": "version",
          "type": "uint8"
        }
      ],
      "name": "Initialized",
      "type": "event"
    },
    {
      "anonymous": false,
      "inputs": [
        {
          "indexed": false,
          "internalType": "address",
          "name": "account",
          "type": "address"
        }
      ],
      "name": "Paused",
      "type": "event"
    },
    {
      "anonymous": false,
      "inputs": [
        {
          "indexed": true,
          "internalType": "bytes32",
          "name": "role",
          "type": "bytes32"
        },
        {
          "indexed": true,
          "internalType": "bytes32",
          "name": "previousAdminRole",
          "type": "bytes32"
        },
        {
          "indexed": true,
          "internalType": "bytes32",
          "name": "newAdminRole",
          "type": "bytes32"
        }
      ],
      "name": "RoleAdminChanged",
      "type": "event"
    },
    {
      "anonymous": false,
      "inputs": [
        {
          "indexed": true,
          "internalType": "bytes32",
          "name": "role",
          "type": "bytes32"
        },
        {
          "indexed": true,
          "internalType": "address",
          "name": "account",
          "type": "address"
        },
        {
          "indexed": true,
          "internalType": "address",
          "name": "sender",
          "type": "address"
        }
      ],
      "name": "RoleGranted",
      "type": "event"
    },
    {
      "anonymous": false,
      "inputs": [
        {
          "indexed": true,
          "internalType": "bytes32",
          "name": "role",
          "type": "bytes32"
        },
        {
          "indexed": true,
          "internalType": "address",
          "name": "account",
          "type": "address"
        },
        {
          "indexed": true,
          "internalType": "address",
          "name": "sender",
          "type": "address"
        }
      ],
      "name": "RoleRevoked",
      "type": "event"
    },
    {
      "anonymous": false,
      "inputs": [
        {
          "indexed": true,
          "internalType": "address",
          "name": "from",
          "type": "address"
        },
        {
          "indexed": true,
          "internalType": "address",
          "name": "to",
          "type": "address"
        },
        {
          "indexed": true,
          "internalType": "uint256",
          "name": "tokenId",
          "type": "uint256"
        }
      ],
      "name": "Transfer",
      "type": "event"
    },
    {
      "anonymous": false,
      "inputs": [
        {
          "indexed": false,
          "internalType": "address",
          "name": "account",
          "type": "address"
        }
      ],
      "name": "Unpaused",
      "type": "event"
    },
    {
      "inputs": [],
      "name": "DEFAULT_ADMIN_ROLE",
      "outputs": [
        {
          "internalType": "bytes32",
          "name": "",
          "type": "bytes32"
        }
      ],
      "stateMutability": "view",
      "type": "function"
    },
    {
      "inputs": [
        {
          "internalType": "string",
          "name": "_name",
          "type": "string"
        },
        {
          "internalType": "string",
          "name": "_symbol",
          "type": "string"
        },
        {
          "internalType": "string",
          "name": "_baseTokenURI",
          "type": "string"
        },
        {
          "internalType": "address",
          "name": "_operator",
          "type": "address"
        },
        {
          "internalType": "address",
          "name": "_blocklistAddress",
          "type": "address"
        }
      ],
      "name": "__AdminUpgradeableERC721_init",
      "outputs": [],
      "stateMutability": "nonpayable",
      "type": "function"
    },
    {
      "inputs": [
        {
          "internalType": "address",
          "name": "to",
          "type": "address"
        },
        {
          "internalType": "uint256",
          "name": "tokenId",
          "type": "uint256"
        }
      ],
      "name": "approve",
      "outputs": [],
      "stateMutability": "nonpayable",
      "type": "function"
    },
    {
      "inputs": [
        {
          "internalType": "address",
          "name": "owner",
          "type": "address"
        }
      ],
      "name": "balanceOf",
      "outputs": [
        {
          "internalType": "uint256",
          "name": "",
          "type": "uint256"
        }
      ],
      "stateMutability": "view",
      "type": "function"
    },
    {
      "inputs": [],
      "name": "baseTokenURI",
      "outputs": [
        {
          "internalType": "string",
          "name": "",
          "type": "string"
        }
      ],
      "stateMutability": "view",
      "type": "function"
    },
    {
      "inputs": [],
      "name": "blocklist",
      "outputs": [
        {
          "internalType": "contract IBlocklist",
          "name": "",
          "type": "address"
        }
      ],
      "stateMutability": "view",
      "type": "function"
    },
    {
      "inputs": [
        {
          "internalType": "address",
          "name": "account",
          "type": "address"
        },
        {
          "internalType": "uint256",
          "name": "tokenId",
          "type": "uint256"
        }
      ],
      "name": "burnFrom",
      "outputs": [],
      "stateMutability": "nonpayable",
      "type": "function"
    },
    {
      "inputs": [
        {
          "internalType": "uint256",
          "name": "tokenId",
          "type": "uint256"
        }
      ],
      "name": "getApproved",
      "outputs": [
        {
          "internalType": "address",
          "name": "",
          "type": "address"
        }
      ],
      "stateMutability": "view",
      "type": "function"
    },
    {
      "inputs": [
        {
          "internalType": "bytes32",
          "name": "role",
          "type": "bytes32"
        }
      ],
      "name": "getRoleAdmin",
      "outputs": [
        {
          "internalType": "bytes32",
          "name": "",
          "type": "bytes32"
        }
      ],
      "stateMutability": "view",
      "type": "function"
    },
    {
      "inputs": [
        {
          "internalType": "bytes32",
          "name": "role",
          "type": "bytes32"
        },
        {
          "internalType": "address",
          "name": "account",
          "type": "address"
        }
      ],
      "name": "grantRole",
      "outputs": [],
      "stateMutability": "nonpayable",
      "type": "function"
    },
    {
      "inputs": [],
      "name": "hasBlocklist",
      "outputs": [
        {
          "internalType": "bool",
          "name": "",
          "type": "bool"
        }
      ],
      "stateMutability": "view",
      "type": "function"
    },
    {
      "inputs": [
        {
          "internalType": "bytes32",
          "name": "role",
          "type": "bytes32"
        },
        {
          "internalType": "address",
          "name": "account",
          "type": "address"
        }
      ],
      "name": "hasRole",
      "outputs": [
        {
          "internalType": "bool",
          "name": "",
          "type": "bool"
        }
      ],
      "stateMutability": "view",
      "type": "function"
    },
    {
      "inputs": [
        {
          "internalType": "address",
          "name": "owner",
          "type": "address"
        },
        {
          "internalType": "address",
          "name": "operator",
          "type": "address"
        }
      ],
      "name": "isApprovedForAll",
      "outputs": [
        {
          "internalType": "bool",
          "name": "",
          "type": "bool"
        }
      ],
      "stateMutability": "view",
      "type": "function"
    },
    {
      "inputs": [
        {
          "internalType": "address",
          "name": "to",
          "type": "address"
        }
      ],
      "name": "mintTo",
      "outputs": [],
      "stateMutability": "nonpayable",
      "type": "function"
    },
    {
      "inputs": [],
      "name": "name",
      "outputs": [
        {
          "internalType": "string",
          "name": "",
          "type": "string"
        }
      ],
      "stateMutability": "view",
      "type": "function"
    },
    {
      "inputs": [],
      "name": "nextNftId",
      "outputs": [
        {
          "internalType": "uint256",
          "name": "",
          "type": "uint256"
        }
      ],
      "stateMutability": "view",
      "type": "function"
    },
    {
      "inputs": [
        {
          "internalType": "uint256",
          "name": "tokenId",
          "type": "uint256"
        }
      ],
      "name": "ownerOf",
      "outputs": [
        {
          "internalType": "address",
          "name": "",
          "type": "address"
        }
      ],
      "stateMutability": "view",
      "type": "function"
    },
    {
      "inputs": [],
      "name": "pause",
      "outputs": [],
      "stateMutability": "nonpayable",
      "type": "function"
    },
    {
      "inputs": [],
      "name": "paused",
      "outputs": [
        {
          "internalType": "bool",
          "name": "",
          "type": "bool"
        }
      ],
      "stateMutability": "view",
      "type": "function"
    },
    {
      "inputs": [
        {
          "internalType": "bytes32",
          "name": "role",
          "type": "bytes32"
        },
        {
          "internalType": "address",
          "name": "account",
          "type": "address"
        }
      ],
      "name": "renounceRole",
      "outputs": [],
      "stateMutability": "nonpayable",
      "type": "function"
    },
    {
      "inputs": [
        {
          "internalType": "bytes32",
          "name": "role",
          "type": "bytes32"
        },
        {
          "internalType": "address",
          "name": "account",
          "type": "address"
        }
      ],
      "name": "revokeRole",
      "outputs": [],
      "stateMutability": "nonpayable",
      "type": "function"
    },
    {
      "inputs": [
        {
          "internalType": "address",
          "name": "from",
          "type": "address"
        },
        {
          "internalType": "address",
          "name": "to",
          "type": "address"
        },
        {
          "internalType": "uint256",
          "name": "tokenId",
          "type": "uint256"
        }
      ],
      "name": "safeTransferFrom",
      "outputs": [],
      "stateMutability": "nonpayable",
      "type": "function"
    },
    {
      "inputs": [
        {
          "internalType": "address",
          "name": "from",
          "type": "address"
        },
        {
          "internalType": "address",
          "name": "to",
          "type": "address"
        },
        {
          "internalType": "uint256",
          "name": "tokenId",
          "type": "uint256"
        },
        {
          "internalType": "bytes",
          "name": "data",
          "type": "bytes"
        }
      ],
      "name": "safeTransferFrom",
      "outputs": [],
      "stateMutability": "nonpayable",
      "type": "function"
    },
    {
      "inputs": [
        {
          "internalType": "address",
          "name": "operator",
          "type": "address"
        },
        {
          "internalType": "bool",
          "name": "approved",
          "type": "bool"
        }
      ],
      "name": "setApprovalForAll",
      "outputs": [],
      "stateMutability": "nonpayable",
      "type": "function"
    },
    {
      "inputs": [
        {
          "internalType": "string",
          "name": "_baseTokenURI",
          "type": "string"
        }
      ],
      "name": "setBaseTokenURI",
      "outputs": [],
      "stateMutability": "nonpayable",
      "type": "function"
    },
    {
      "inputs": [
        {
          "internalType": "bytes4",
          "name": "interfaceId",
          "type": "bytes4"
        }
      ],
      "name": "supportsInterface",
      "outputs": [
        {
          "internalType": "bool",
          "name": "",
          "type": "bool"
        }
      ],
      "stateMutability": "view",
      "type": "function"
    },
    {
      "inputs": [],
      "name": "symbol",
      "outputs": [
        {
          "internalType": "string",
          "name": "",
          "type": "string"
        }
      ],
      "stateMutability": "view",
      "type": "function"
    },
    {
      "inputs": [
        {
          "internalType": "uint256",
          "name": "index",
          "type": "uint256"
        }
      ],
      "name": "tokenByIndex",
      "outputs": [
        {
          "internalType": "uint256",
          "name": "",
          "type": "uint256"
        }
      ],
      "stateMutability": "view",
      "type": "function"
    },
    {
      "inputs": [
        {
          "internalType": "address",
          "name": "owner",
          "type": "address"
        },
        {
          "internalType": "uint256",
          "name": "index",
          "type": "uint256"
        }
      ],
      "name": "tokenOfOwnerByIndex",
      "outputs": [
        {
          "internalType": "uint256",
          "name": "",
          "type": "uint256"
        }
      ],
      "stateMutability": "view",
      "type": "function"
    },
    {
      "inputs": [
        {
          "internalType": "uint256",
          "name": "tokenId",
          "type": "uint256"
        }
      ],
      "name": "tokenURI",
      "outputs": [
        {
          "internalType": "string",
          "name": "",
          "type": "string"
        }
      ],
      "stateMutability": "view",
      "type": "function"
    },
    {
      "inputs": [
        {
          "internalType": "address",
          "name": "_owner",
          "type": "address"
        }
      ],
      "name": "tokensOfOwner",
      "outputs": [
        {
          "internalType": "uint256[]",
          "name": "",
          "type": "uint256[]"
        }
      ],
      "stateMutability": "view",
      "type": "function"
    },
    {
      "inputs": [],
      "name": "totalSupply",
      "outputs": [
        {
          "internalType": "uint256",
          "name": "",
          "type": "uint256"
        }
      ],
      "stateMutability": "view",
      "type": "function"
    },
    {
      "inputs": [
        {
          "internalType": "address",
          "name": "from",
          "type": "address"
        },
        {
          "internalType": "address",
          "name": "to",
          "type": "address"
        },
        {
          "internalType": "uint256",
          "name": "tokenId",
          "type": "uint256"
        }
      ],
      "name": "transferFrom",
      "outputs": [],
      "stateMutability": "nonpayable",
      "type": "function"
    },
    {
      "inputs": [],
      "name": "unpause",
      "outputs": [],
      "stateMutability": "nonpayable",
      "type": "function"
    }
  ],
  "bytecode": "0x608060405234801561001057600080fd5b5061294c806100206000396000f3fe608060405234801561001057600080fd5b50600436106102065760003560e01c806370a082311161011a578063a217fddf116100ad578063c99efaa01161007c578063c99efaa014610444578063d547741f14610457578063d547cfb71461046a578063d64e539614610472578063e985e9c51461048657600080fd5b8063a217fddf14610403578063a22cb4651461040b578063b88d4fde1461041e578063c87b56dd1461043157600080fd5b80638462151c116100e95780638462151c146103be57806391d14854146103de57806393f1da4f146103f157806395d89b41146103fb57600080fd5b806370a082311461037d578063755edd171461039057806379cc6790146103a35780638456cb59146103b657600080fd5b80632f745c591161019d57806342842e0e1161016c57806342842e0e146103245780634f6ccce7146103375780635c975abb1461034a578063634210f4146103555780636352211e1461036a57600080fd5b80632f745c59146102e357806330176e13146102f657806336568abe146103095780633f4ba83a1461031c57600080fd5b806318160ddd116101d957806318160ddd1461028857806323b872dd1461029a578063248a9ca3146102ad5780632f2ff15d146102d057600080fd5b806301ffc9a71461020b57806306fdde0314610233578063081812fc14610248578063095ea7b314610273575b600080fd5b61021e61021936600461218b565b6104c2565b60405190151581526020015b60405180910390f35b61023b6104d3565b60405161022a9190612200565b61025b610256366004612213565b610565565b6040516001600160a01b03909116815260200161022a565b610286610281366004612248565b61058c565b005b6099545b60405190815260200161022a565b6102866102a8366004612272565b6106a7565b61028c6102bb366004612213565b600090815260c9602052604090206001015490565b6102866102de3660046122ae565b6106d8565b61028c6102f1366004612248565b6106fd565b610286610304366004612386565b610793565b6102866103173660046122ae565b6107bf565b61028661083d565b610286610332366004612272565b610868565b61028c610345366004612213565b610883565b60fb5460ff1661021e565b61012d5461021e90600160a01b900460ff1681565b61025b610378366004612213565b610916565b61028c61038b3660046123bb565b610976565b61028661039e3660046123bb565b6109fc565b6102866103b1366004612248565b610a2f565b610286610acd565b6103d16103cc3660046123bb565b610af5565b60405161022a91906123d6565b61021e6103ec3660046122ae565b610b97565b61028c61012e5481565b61023b610bc2565b61028c600081565b610286610419366004612428565b610bd1565b61028661042c36600461245f565b610bdc565b61023b61043f366004612213565b610c14565b6102866104523660046124db565b610c88565b6102866104653660046122ae565b610d3a565b61023b610d5f565b61012d5461025b906001600160a01b031681565b61021e610494366004612585565b6001600160a01b039182166000908152606a6020908152604080832093909416825291909152205460ff1690565b60006104cd82610dee565b92915050565b6060606580546104e2906125af565b80601f016020809104026020016040519081016040528092919081815260200182805461050e906125af565b801561055b5780601f106105305761010080835404028352916020019161055b565b820191906000526020600020905b81548152906001019060200180831161053e57829003601f168201915b5050505050905090565b600061057082610e13565b506000908152606960205260409020546001600160a01b031690565b600061059782610916565b9050806001600160a01b0316836001600160a01b0316141561060a5760405162461bcd60e51b815260206004820152602160248201527f4552433732313a20617070726f76616c20746f2063757272656e74206f776e656044820152603960f91b60648201526084015b60405180910390fd5b336001600160a01b038216148061062657506106268133610494565b6106985760405162461bcd60e51b815260206004820152603d60248201527f4552433732313a20617070726f76652063616c6c6572206973206e6f7420746f60448201527f6b656e206f776e6572206f7220617070726f76656420666f7220616c6c0000006064820152608401610601565b6106a28383610e72565b505050565b6106b13382610ee0565b6106cd5760405162461bcd60e51b8152600401610601906125ea565b6106a2838383610f3f565b600082815260c960205260409020600101546106f3816110b0565b6106a283836110ba565b600061070883610976565b821061076a5760405162461bcd60e51b815260206004820152602b60248201527f455243373231456e756d657261626c653a206f776e657220696e646578206f7560448201526a74206f6620626f756e647360a81b6064820152608401610601565b506001600160a01b03919091166000908152609760209081526040808320938352929052205490565b6000805160206128f78339815191526107ab816110b0565b81516106a29061012f9060208501906120dc565b6001600160a01b038116331461082f5760405162461bcd60e51b815260206004820152602f60248201527f416363657373436f6e74726f6c3a2063616e206f6e6c792072656e6f756e636560448201526e103937b632b9903337b91039b2b63360891b6064820152608401610601565b6108398282611140565b5050565b6000805160206128f7833981519152610855816110b0565b61085d6111a7565b6108656111f2565b50565b6106a283838360405180602001604052806000815250610bdc565b600061088e60995490565b82106108f15760405162461bcd60e51b815260206004820152602c60248201527f455243373231456e756d657261626c653a20676c6f62616c20696e646578206f60448201526b7574206f6620626f756e647360a01b6064820152608401610601565b6099828154811061090457610904612637565b90600052602060002001549050919050565b6000818152606760205260408120546001600160a01b0316806104cd5760405162461bcd60e51b8152602060048201526018602482015277115490cdcc8c4e881a5b9d985b1a59081d1bdad95b88125160421b6044820152606401610601565b60006001600160a01b0382166109e05760405162461bcd60e51b815260206004820152602960248201527f4552433732313a2061646472657373207a65726f206973206e6f7420612076616044820152683634b21037bbb732b960b91b6064820152608401610601565b506001600160a01b031660009081526068602052604090205490565b7f9f2df0fed2c77648de5860a4cc508cd0818c85b8b8a1ab4ceeef8d981c8956a6610a26816110b0565b61083982611244565b816001600160a01b0316610a4282610916565b6001600160a01b03161480610a5c5750610a5c8233610494565b80610a8c5750610a8c7f3c11d16cbaffd01df69ce1c404f6340ee057498f5f00246190ea54220576a84833610b97565b610ac45760405162461bcd60e51b81526020600482015260096024820152683337b93134b23232b760b91b6044820152606401610601565b6108398161126a565b6000805160206128f7833981519152610ae5816110b0565b610aed61130d565b610865611353565b60606000610b0283610976565b905060008167ffffffffffffffff811115610b1f57610b1f6122da565b604051908082528060200260200182016040528015610b48578160200160208202803683370190505b50905060005b82811015610b8f57610b6085826106fd565b828281518110610b7257610b72612637565b602090810291909101015280610b8781612663565b915050610b4e565b509392505050565b600091825260c9602090815260408084206001600160a01b0393909316845291905290205460ff1690565b6060606680546104e2906125af565b610839338383611390565b610be63383610ee0565b610c025760405162461bcd60e51b8152600401610601906125ea565b610c0e8484848461145f565b50505050565b6060610c1f82610e13565b6000610c3660408051602081019091526000815290565b90506000815111610c565760405180602001604052806000815250610c81565b80610c6084611492565b604051602001610c7192919061267e565b6040516020818303038152906040525b9392505050565b600054610100900460ff16610caf5760405162461bcd60e51b8152600401610601906126ad565b610cb98585611527565b610cc1611558565b610cc961157f565b610cf58161012d80546001600160a81b0319166001600160a01b0390921691909117600160a01b179055565b610d006000836115ae565b610d186000805160206128f7833981519152836115ae565b8251610d2c9061012f9060208601906120dc565b5050600161012e5550505050565b600082815260c96020526040902060010154610d55816110b0565b6106a28383611140565b61012f8054610d6d906125af565b80601f0160208091040260200160405190810160405280929190818152602001828054610d99906125af565b8015610de65780601f10610dbb57610100808354040283529160200191610de6565b820191906000526020600020905b815481529060010190602001808311610dc957829003601f168201915b505050505081565b60006001600160e01b03198216637965db0b60e01b14806104cd57506104cd826115b8565b6000818152606760205260409020546001600160a01b03166108655760405162461bcd60e51b8152602060048201526018602482015277115490cdcc8c4e881a5b9d985b1a59081d1bdad95b88125160421b6044820152606401610601565b600081815260696020526040902080546001600160a01b0319166001600160a01b0384169081179091558190610ea782610916565b6001600160a01b03167f8c5be1e5ebec7d5bd14f71427d1e84f3dd0314c0f7b2291e5b200ac8c7c3b92560405160405180910390a45050565b600080610eec83610916565b9050806001600160a01b0316846001600160a01b03161480610f135750610f138185610494565b80610f375750836001600160a01b0316610f2c84610565565b6001600160a01b0316145b949350505050565b826001600160a01b0316610f5282610916565b6001600160a01b031614610f785760405162461bcd60e51b8152600401610601906126f8565b6001600160a01b038216610fda5760405162461bcd60e51b8152602060048201526024808201527f4552433732313a207472616e7366657220746f20746865207a65726f206164646044820152637265737360e01b6064820152608401610601565b610fe783838360016115dd565b826001600160a01b0316610ffa82610916565b6001600160a01b0316146110205760405162461bcd60e51b8152600401610601906126f8565b600081815260696020908152604080832080546001600160a01b03199081169091556001600160a01b0387811680865260688552838620805460001901905590871680865283862080546001019055868652606790945282852080549092168417909155905184937fddf252ad1be2c89b69c2b068fc378daa952ba7f163c4a11628f55a4df523b3ef91a4505050565b610865813361168b565b6110c48282610b97565b61083957600082815260c9602090815260408083206001600160a01b03851684529091529020805460ff191660011790556110fc3390565b6001600160a01b0316816001600160a01b0316837f2f8788117e7eff1d82e926ec794901d17c78024a50270940304540a733656f0d60405160405180910390a45050565b61114a8282610b97565b1561083957600082815260c9602090815260408083206001600160a01b0385168085529252808320805460ff1916905551339285917ff6391f5c32d9c69d2a47ea670b442974b53935d1edc7fd64eb21e047a839171b9190a45050565b60fb5460ff166111f05760405162461bcd60e51b815260206004820152601460248201527314185d5cd8589b194e881b9bdd081c185d5cd95960621b6044820152606401610601565b565b6111fa6111a7565b60fb805460ff191690557f5db9ee0a495bf2e6ff9c91a7834c1ba4fdd244a5e8aa4e537bd38aeae4b073aa335b6040516001600160a01b03909116815260200160405180910390a1565b6112518161012e546116e4565b61012e805490600061126283612663565b919050555050565b600061127582610916565b90506112858160008460016115dd565b61128e82610916565b600083815260696020908152604080832080546001600160a01b03199081169091556001600160a01b0385168085526068845282852080546000190190558785526067909352818420805490911690555192935084927fddf252ad1be2c89b69c2b068fc378daa952ba7f163c4a11628f55a4df523b3ef908390a45050565b60fb5460ff16156111f05760405162461bcd60e51b815260206004820152601060248201526f14185d5cd8589b194e881c185d5cd95960821b6044820152606401610601565b61135b61130d565b60fb805460ff191660011790557f62e78cea01bee320cd4e420270b5ea74000d11b0c9f74754ebdbfc544b05a2586112273390565b816001600160a01b0316836001600160a01b031614156113f25760405162461bcd60e51b815260206004820152601960248201527f4552433732313a20617070726f766520746f2063616c6c6572000000000000006044820152606401610601565b6001600160a01b038381166000818152606a6020908152604080832094871680845294825291829020805460ff191686151590811790915591519182527f17307eab39ab6107e8899845ad3d59bd9653f200f220920489ca2b5937696c31910160405180910390a3505050565b61146a848484610f3f565b6114768484848461187d565b610c0e5760405162461bcd60e51b81526004016106019061273d565b6060600061149f8361198a565b600101905060008167ffffffffffffffff8111156114bf576114bf6122da565b6040519080825280601f01601f1916602001820160405280156114e9576020820181803683370190505b5090508181016020015b600019016f181899199a1a9b1b9c1cb0b131b232b360811b600a86061a8153600a850494508461152257610b8f565b6114f3565b600054610100900460ff1661154e5760405162461bcd60e51b8152600401610601906126ad565b6108398282611a62565b600054610100900460ff166111f05760405162461bcd60e51b8152600401610601906126ad565b600054610100900460ff166115a65760405162461bcd60e51b8152600401610601906126ad565b6111f0611ab0565b61083982826110ba565b60006001600160e01b0319821663780e9d6360e01b14806104cd57506104cd82611ae3565b6115e984848484611b33565b60fb5460ff16156116255760405162461bcd60e51b81526020600482015260066024820152651c185d5cd95960d21b6044820152606401610601565b61162f8484611c73565b15610c0e5760405162461bcd60e51b815260206004820152602660248201527f53656e64657220616e642f6f7220726563697069656e7420697320626c6f636b6044820152651b1a5cdd195960d21b6064820152608401610601565b6116958282610b97565b610839576116a281611d16565b6116ad836020611d28565b6040516020016116be92919061278f565b60408051601f198184030181529082905262461bcd60e51b825261060191600401612200565b6001600160a01b03821661173a5760405162461bcd60e51b815260206004820181905260248201527f4552433732313a206d696e7420746f20746865207a65726f20616464726573736044820152606401610601565b6000818152606760205260409020546001600160a01b03161561179f5760405162461bcd60e51b815260206004820152601c60248201527f4552433732313a20746f6b656e20616c7265616479206d696e746564000000006044820152606401610601565b6117ad6000838360016115dd565b6000818152606760205260409020546001600160a01b0316156118125760405162461bcd60e51b815260206004820152601c60248201527f4552433732313a20746f6b656e20616c7265616479206d696e746564000000006044820152606401610601565b6001600160a01b038216600081815260686020908152604080832080546001019055848352606790915280822080546001600160a01b0319168417905551839291907fddf252ad1be2c89b69c2b068fc378daa952ba7f163c4a11628f55a4df523b3ef908290a45050565b60006001600160a01b0384163b1561197f57604051630a85bd0160e11b81526001600160a01b0385169063150b7a02906118c1903390899088908890600401612804565b602060405180830381600087803b1580156118db57600080fd5b505af192505050801561190b575060408051601f3d908101601f1916820190925261190891810190612841565b60015b611965573d808015611939576040519150601f19603f3d011682016040523d82523d6000602084013e61193e565b606091505b50805161195d5760405162461bcd60e51b81526004016106019061273d565b805181602001fd5b6001600160e01b031916630a85bd0160e11b149050610f37565b506001949350505050565b60008072184f03e93ff9f4daa797ed6e38ed64bf6a1f0160401b83106119c95772184f03e93ff9f4daa797ed6e38ed64bf6a1f0160401b830492506040015b6d04ee2d6d415b85acef810000000083106119f5576d04ee2d6d415b85acef8100000000830492506020015b662386f26fc100008310611a1357662386f26fc10000830492506010015b6305f5e1008310611a2b576305f5e100830492506008015b6127108310611a3f57612710830492506004015b60648310611a51576064830492506002015b600a83106104cd5760010192915050565b600054610100900460ff16611a895760405162461bcd60e51b8152600401610601906126ad565b8151611a9c9060659060208501906120dc565b5080516106a29060669060208401906120dc565b600054610100900460ff16611ad75760405162461bcd60e51b8152600401610601906126ad565b60fb805460ff19169055565b60006001600160e01b031982166380ac58cd60e01b1480611b1457506001600160e01b03198216635b5e139f60e01b145b806104cd57506301ffc9a760e01b6001600160e01b03198316146104cd565b611b3f84848484611ec4565b6001811115611bae5760405162461bcd60e51b815260206004820152603560248201527f455243373231456e756d657261626c653a20636f6e7365637574697665207472604482015274185b9cd9995c9cc81b9bdd081cdd5c1c1bdc9d1959605a1b6064820152608401610601565b816001600160a01b038516611c0a57611c0581609980546000838152609a60205260408120829055600182018355919091527f72a152ddfb8e864297c917af52ea6c1c68aead0fee1a62673fcc7e0c94979d000155565b611c2d565b836001600160a01b0316856001600160a01b031614611c2d57611c2d8582611f4c565b6001600160a01b038416611c4957611c4481611fe9565b611c6c565b846001600160a01b0316846001600160a01b031614611c6c57611c6c8482612098565b5050505050565b61012d54600090600160a01b900460ff16611c90575060006104cd565b61012d5460405163257128dd60e21b81526001600160a01b0385811660048301528481166024830152909116906395c4a3749060440160206040518083038186803b158015611cde57600080fd5b505afa158015611cf2573d6000803e3d6000fd5b505050506040513d601f19601f82011682018060405250810190610c81919061285e565b60606104cd6001600160a01b03831660145b60606000611d3783600261287b565b611d4290600261289a565b67ffffffffffffffff811115611d5a57611d5a6122da565b6040519080825280601f01601f191660200182016040528015611d84576020820181803683370190505b509050600360fc1b81600081518110611d9f57611d9f612637565b60200101906001600160f81b031916908160001a905350600f60fb1b81600181518110611dce57611dce612637565b60200101906001600160f81b031916908160001a9053506000611df284600261287b565b611dfd90600161289a565b90505b6001811115611e75576f181899199a1a9b1b9c1cb0b131b232b360811b85600f1660108110611e3157611e31612637565b1a60f81b828281518110611e4757611e47612637565b60200101906001600160f81b031916908160001a90535060049490941c93611e6e816128b2565b9050611e00565b508315610c815760405162461bcd60e51b815260206004820181905260248201527f537472696e67733a20686578206c656e67746820696e73756666696369656e746044820152606401610601565b6001811115610c0e576001600160a01b03841615611f0a576001600160a01b03841660009081526068602052604081208054839290611f049084906128c9565b90915550505b6001600160a01b03831615610c0e576001600160a01b03831660009081526068602052604081208054839290611f4190849061289a565b909155505050505050565b60006001611f5984610976565b611f6391906128c9565b600083815260986020526040902054909150808214611fb6576001600160a01b03841660009081526097602090815260408083208584528252808320548484528184208190558352609890915290208190555b5060009182526098602090815260408084208490556001600160a01b039094168352609781528383209183525290812055565b609954600090611ffb906001906128c9565b6000838152609a60205260408120546099805493945090928490811061202357612023612637565b90600052602060002001549050806099838154811061204457612044612637565b6000918252602080832090910192909255828152609a9091526040808220849055858252812055609980548061207c5761207c6128e0565b6001900381819060005260206000200160009055905550505050565b60006120a383610976565b6001600160a01b039093166000908152609760209081526040808320868452825280832085905593825260989052919091209190915550565b8280546120e8906125af565b90600052602060002090601f01602090048101928261210a5760008555612150565b82601f1061212357805160ff1916838001178555612150565b82800160010185558215612150579182015b82811115612150578251825591602001919060010190612135565b5061215c929150612160565b5090565b5b8082111561215c5760008155600101612161565b6001600160e01b03198116811461086557600080fd5b60006020828403121561219d57600080fd5b8135610c8181612175565b60005b838110156121c35781810151838201526020016121ab565b83811115610c0e5750506000910152565b600081518084526121ec8160208601602086016121a8565b601f01601f19169290920160200192915050565b602081526000610c8160208301846121d4565b60006020828403121561222557600080fd5b5035919050565b80356001600160a01b038116811461224357600080fd5b919050565b6000806040838503121561225b57600080fd5b6122648361222c565b946020939093013593505050565b60008060006060848603121561228757600080fd5b6122908461222c565b925061229e6020850161222c565b9150604084013590509250925092565b600080604083850312156122c157600080fd5b823591506122d16020840161222c565b90509250929050565b634e487b7160e01b600052604160045260246000fd5b600067ffffffffffffffff8084111561230b5761230b6122da565b604051601f8501601f19908116603f01168101908282118183101715612333576123336122da565b8160405280935085815286868601111561234c57600080fd5b858560208301376000602087830101525050509392505050565b600082601f83011261237757600080fd5b610c81838335602085016122f0565b60006020828403121561239857600080fd5b813567ffffffffffffffff8111156123af57600080fd5b610f3784828501612366565b6000602082840312156123cd57600080fd5b610c818261222c565b6020808252825182820181905260009190848201906040850190845b8181101561240e578351835292840192918401916001016123f2565b50909695505050505050565b801515811461086557600080fd5b6000806040838503121561243b57600080fd5b6124448361222c565b915060208301356124548161241a565b809150509250929050565b6000806000806080858703121561247557600080fd5b61247e8561222c565b935061248c6020860161222c565b925060408501359150606085013567ffffffffffffffff8111156124af57600080fd5b8501601f810187136124c057600080fd5b6124cf878235602084016122f0565b91505092959194509250565b600080600080600060a086880312156124f357600080fd5b853567ffffffffffffffff8082111561250b57600080fd5b61251789838a01612366565b9650602088013591508082111561252d57600080fd5b61253989838a01612366565b9550604088013591508082111561254f57600080fd5b5061255c88828901612366565b93505061256b6060870161222c565b91506125796080870161222c565b90509295509295909350565b6000806040838503121561259857600080fd5b6125a18361222c565b91506122d16020840161222c565b600181811c908216806125c357607f821691505b602082108114156125e457634e487b7160e01b600052602260045260246000fd5b50919050565b6020808252602d908201527f4552433732313a2063616c6c6572206973206e6f7420746f6b656e206f776e6560408201526c1c881bdc88185c1c1c9bdd9959609a1b606082015260800190565b634e487b7160e01b600052603260045260246000fd5b634e487b7160e01b600052601160045260246000fd5b60006000198214156126775761267761264d565b5060010190565b600083516126908184602088016121a8565b8351908301906126a48183602088016121a8565b01949350505050565b6020808252602b908201527f496e697469616c697a61626c653a20636f6e7472616374206973206e6f74206960408201526a6e697469616c697a696e6760a81b606082015260800190565b60208082526025908201527f4552433732313a207472616e736665722066726f6d20696e636f72726563742060408201526437bbb732b960d91b606082015260800190565b60208082526032908201527f4552433732313a207472616e7366657220746f206e6f6e20455243373231526560408201527131b2b4bb32b91034b6b83632b6b2b73a32b960711b606082015260800190565b7f416363657373436f6e74726f6c3a206163636f756e74200000000000000000008152600083516127c78160178501602088016121a8565b7001034b99036b4b9b9b4b733903937b6329607d1b60179184019182015283516127f88160288401602088016121a8565b01602801949350505050565b6001600160a01b0385811682528416602082015260408101839052608060608201819052600090612837908301846121d4565b9695505050505050565b60006020828403121561285357600080fd5b8151610c8181612175565b60006020828403121561287057600080fd5b8151610c818161241a565b60008160001904831182151516156128955761289561264d565b500290565b600082198211156128ad576128ad61264d565b500190565b6000816128c1576128c161264d565b506000190190565b6000828210156128db576128db61264d565b500390565b634e487b7160e01b600052603160045260246000fdfe97667070c54ef182b0f5858b034beac1b6f3089aa2d3188bb1e8929f4fa9b929a2646970667358221220ead988916cad36b5d1b4e7144d9be3f0e106abfd1e3a63ef02938de5a77b4a9164736f6c63430008090033",
  "linkReferences": {},
  "deployedLinkReferences": {}
}