{
  "_format": "hh-sol-artifact-1",
  "contractName": "AdminUpgradeableERC721",
  "sourceName": "contracts/erc721/standard/AdminUpgradeableERC721.sol",
  "abi": [
    {
      "anonymous": false,
      "inputs": [
        {
          "indexed": true,
          "internalType": "address",
          "name": "owner",
          "type": "address"
        },
        {
          "indexed": true,
          "internalType": "address",
          "name": "approved",
          "type": "address"
        },
        {
          "indexed": true,
          "internalType": "uint256",
          "name": "tokenId",
          "type": "uint256"
        }
      ],
      "name": "Approval",
      "type": "event"
    },
    {
      "anonymous": false,
      "inputs": [
        {
          "indexed": true,
          "internalType": "address",
          "name": "owner",
          "type": "address"
        },
        {
          "indexed": true,
          "internalType": "address",
          "name": "operator",
          "type": "address"
        },
        {
          "indexed": false,
          "internalType": "bool",
          "name": "approved",
          "type": "bool"
        }
      ],
      "name": "ApprovalForAll",
      "type": "event"
    },
    {
      "anonymous": false,
      "inputs": [
        {
          "indexed": false,
          "internalType": "uint8",
          "name": "version",
          "type": "uint8"
        }
      ],
      "name": "Initialized",
      "type": "event"
    },
    {
      "anonymous": false,
      "inputs": [
        {
          "indexed": false,
          "internalType": "address",
          "name": "account",
          "type": "address"
        }
      ],
      "name": "Paused",
      "type": "event"
    },
    {
      "anonymous": false,
      "inputs": [
        {
          "indexed": true,
          "internalType": "bytes32",
          "name": "role",
          "type": "bytes32"
        },
        {
          "indexed": true,
          "internalType": "bytes32",
          "name": "previousAdminRole",
          "type": "bytes32"
        },
        {
          "indexed": true,
          "internalType": "bytes32",
          "name": "newAdminRole",
          "type": "bytes32"
        }
      ],
      "name": "RoleAdminChanged",
      "type": "event"
    },
    {
      "anonymous": false,
      "inputs": [
        {
          "indexed": true,
          "internalType": "bytes32",
          "name": "role",
          "type": "bytes32"
        },
        {
          "indexed": true,
          "internalType": "address",
          "name": "account",
          "type": "address"
        },
        {
          "indexed": true,
          "internalType": "address",
          "name": "sender",
          "type": "address"
        }
      ],
      "name": "RoleGranted",
      "type": "event"
    },
    {
      "anonymous": false,
      "inputs": [
        {
          "indexed": true,
          "internalType": "bytes32",
          "name": "role",
          "type": "bytes32"
        },
        {
          "indexed": true,
          "internalType": "address",
          "name": "account",
          "type": "address"
        },
        {
          "indexed": true,
          "internalType": "address",
          "name": "sender",
          "type": "address"
        }
      ],
      "name": "RoleRevoked",
      "type": "event"
    },
    {
      "anonymous": false,
      "inputs": [
        {
          "indexed": true,
          "internalType": "address",
          "name": "from",
          "type": "address"
        },
        {
          "indexed": true,
          "internalType": "address",
          "name": "to",
          "type": "address"
        },
        {
          "indexed": true,
          "internalType": "uint256",
          "name": "tokenId",
          "type": "uint256"
        }
      ],
      "name": "Transfer",
      "type": "event"
    },
    {
      "anonymous": false,
      "inputs": [
        {
          "indexed": false,
          "internalType": "address",
          "name": "account",
          "type": "address"
        }
      ],
      "name": "Unpaused",
      "type": "event"
    },
    {
      "inputs": [],
      "name": "DEFAULT_ADMIN_ROLE",
      "outputs": [
        {
          "internalType": "bytes32",
          "name": "",
          "type": "bytes32"
        }
      ],
      "stateMutability": "view",
      "type": "function"
    },
    {
      "inputs": [
        {
          "internalType": "string",
          "name": "_name",
          "type": "string"
        },
        {
          "internalType": "string",
          "name": "_symbol",
          "type": "string"
        },
        {
          "internalType": "string",
          "name": "_baseTokenURI",
          "type": "string"
        },
        {
          "internalType": "address",
          "name": "_operator",
          "type": "address"
        },
        {
          "internalType": "address",
          "name": "_blocklistAddress",
          "type": "address"
        }
      ],
      "name": "__AdminUpgradeableERC721_init",
      "outputs": [],
      "stateMutability": "nonpayable",
      "type": "function"
    },
    {
      "inputs": [
        {
          "internalType": "address",
          "name": "to",
          "type": "address"
        },
        {
          "internalType": "uint256",
          "name": "tokenId",
          "type": "uint256"
        }
      ],
      "name": "approve",
      "outputs": [],
      "stateMutability": "nonpayable",
      "type": "function"
    },
    {
      "inputs": [
        {
          "internalType": "address",
          "name": "owner",
          "type": "address"
        }
      ],
      "name": "balanceOf",
      "outputs": [
        {
          "internalType": "uint256",
          "name": "",
          "type": "uint256"
        }
      ],
      "stateMutability": "view",
      "type": "function"
    },
    {
      "inputs": [],
      "name": "baseTokenURI",
      "outputs": [
        {
          "internalType": "string",
          "name": "",
          "type": "string"
        }
      ],
      "stateMutability": "view",
      "type": "function"
    },
    {
      "inputs": [],
      "name": "blocklist",
      "outputs": [
        {
          "internalType": "contract IBlocklist",
          "name": "",
          "type": "address"
        }
      ],
      "stateMutability": "view",
      "type": "function"
    },
    {
      "inputs": [
        {
          "internalType": "address",
          "name": "account",
          "type": "address"
        },
        {
          "internalType": "uint256",
          "name": "tokenId",
          "type": "uint256"
        }
      ],
      "name": "burnFrom",
      "outputs": [],
      "stateMutability": "nonpayable",
      "type": "function"
    },
    {
      "inputs": [
        {
          "internalType": "uint256",
          "name": "tokenId",
          "type": "uint256"
        }
      ],
      "name": "getApproved",
      "outputs": [
        {
          "internalType": "address",
          "name": "",
          "type": "address"
        }
      ],
      "stateMutability": "view",
      "type": "function"
    },
    {
      "inputs": [
        {
          "internalType": "bytes32",
          "name": "role",
          "type": "bytes32"
        }
      ],
      "name": "getRoleAdmin",
      "outputs": [
        {
          "internalType": "bytes32",
          "name": "",
          "type": "bytes32"
        }
      ],
      "stateMutability": "view",
      "type": "function"
    },
    {
      "inputs": [
        {
          "internalType": "bytes32",
          "name": "role",
          "type": "bytes32"
        },
        {
          "internalType": "address",
          "name": "account",
          "type": "address"
        }
      ],
      "name": "grantRole",
      "outputs": [],
      "stateMutability": "nonpayable",
      "type": "function"
    },
    {
      "inputs": [],
      "name": "hasBlocklist",
      "outputs": [
        {
          "internalType": "bool",
          "name": "",
          "type": "bool"
        }
      ],
      "stateMutability": "view",
      "type": "function"
    },
    {
      "inputs": [
        {
          "internalType": "bytes32",
          "name": "role",
          "type": "bytes32"
        },
        {
          "internalType": "address",
          "name": "account",
          "type": "address"
        }
      ],
      "name": "hasRole",
      "outputs": [
        {
          "internalType": "bool",
          "name": "",
          "type": "bool"
        }
      ],
      "stateMutability": "view",
      "type": "function"
    },
    {
      "inputs": [
        {
          "internalType": "address",
          "name": "owner",
          "type": "address"
        },
        {
          "internalType": "address",
          "name": "operator",
          "type": "address"
        }
      ],
      "name": "isApprovedForAll",
      "outputs": [
        {
          "internalType": "bool",
          "name": "",
          "type": "bool"
        }
      ],
      "stateMutability": "view",
      "type": "function"
    },
    {
      "inputs": [
        {
          "internalType": "address",
          "name": "to",
          "type": "address"
        }
      ],
      "name": "mintTo",
      "outputs": [],
      "stateMutability": "nonpayable",
      "type": "function"
    },
    {
      "inputs": [],
      "name": "name",
      "outputs": [
        {
          "internalType": "string",
          "name": "",
          "type": "string"
        }
      ],
      "stateMutability": "view",
      "type": "function"
    },
    {
      "inputs": [
        {
          "internalType": "uint256",
          "name": "tokenId",
          "type": "uint256"
        }
      ],
      "name": "ownerOf",
      "outputs": [
        {
          "internalType": "address",
          "name": "",
          "type": "address"
        }
      ],
      "stateMutability": "view",
      "type": "function"
    },
    {
      "inputs": [],
      "name": "pause",
      "outputs": [],
      "stateMutability": "nonpayable",
      "type": "function"
    },
    {
      "inputs": [],
      "name": "paused",
      "outputs": [
        {
          "internalType": "bool",
          "name": "",
          "type": "bool"
        }
      ],
      "stateMutability": "view",
      "type": "function"
    },
    {
      "inputs": [
        {
          "internalType": "bytes32",
          "name": "role",
          "type": "bytes32"
        },
        {
          "internalType": "address",
          "name": "account",
          "type": "address"
        }
      ],
      "name": "renounceRole",
      "outputs": [],
      "stateMutability": "nonpayable",
      "type": "function"
    },
    {
      "inputs": [
        {
          "internalType": "bytes32",
          "name": "role",
          "type": "bytes32"
        },
        {
          "internalType": "address",
          "name": "account",
          "type": "address"
        }
      ],
      "name": "revokeRole",
      "outputs": [],
      "stateMutability": "nonpayable",
      "type": "function"
    },
    {
      "inputs": [
        {
          "internalType": "address",
          "name": "from",
          "type": "address"
        },
        {
          "internalType": "address",
          "name": "to",
          "type": "address"
        },
        {
          "internalType": "uint256",
          "name": "tokenId",
          "type": "uint256"
        }
      ],
      "name": "safeTransferFrom",
      "outputs": [],
      "stateMutability": "nonpayable",
      "type": "function"
    },
    {
      "inputs": [
        {
          "internalType": "address",
          "name": "from",
          "type": "address"
        },
        {
          "internalType": "address",
          "name": "to",
          "type": "address"
        },
        {
          "internalType": "uint256",
          "name": "tokenId",
          "type": "uint256"
        },
        {
          "internalType": "bytes",
          "name": "data",
          "type": "bytes"
        }
      ],
      "name": "safeTransferFrom",
      "outputs": [],
      "stateMutability": "nonpayable",
      "type": "function"
    },
    {
      "inputs": [
        {
          "internalType": "address",
          "name": "operator",
          "type": "address"
        },
        {
          "internalType": "bool",
          "name": "approved",
          "type": "bool"
        }
      ],
      "name": "setApprovalForAll",
      "outputs": [],
      "stateMutability": "nonpayable",
      "type": "function"
    },
    {
      "inputs": [
        {
          "internalType": "string",
          "name": "_baseTokenURI",
          "type": "string"
        }
      ],
      "name": "setBaseTokenURI",
      "outputs": [],
      "stateMutability": "nonpayable",
      "type": "function"
    },
    {
      "inputs": [
        {
          "internalType": "bytes4",
          "name": "interfaceId",
          "type": "bytes4"
        }
      ],
      "name": "supportsInterface",
      "outputs": [
        {
          "internalType": "bool",
          "name": "",
          "type": "bool"
        }
      ],
      "stateMutability": "view",
      "type": "function"
    },
    {
      "inputs": [],
      "name": "symbol",
      "outputs": [
        {
          "internalType": "string",
          "name": "",
          "type": "string"
        }
      ],
      "stateMutability": "view",
      "type": "function"
    },
    {
      "inputs": [
        {
          "internalType": "uint256",
          "name": "index",
          "type": "uint256"
        }
      ],
      "name": "tokenByIndex",
      "outputs": [
        {
          "internalType": "uint256",
          "name": "",
          "type": "uint256"
        }
      ],
      "stateMutability": "view",
      "type": "function"
    },
    {
      "inputs": [],
      "name": "tokenIdTracker",
      "outputs": [
        {
          "internalType": "uint256",
          "name": "",
          "type": "uint256"
        }
      ],
      "stateMutability": "view",
      "type": "function"
    },
    {
      "inputs": [
        {
          "internalType": "address",
          "name": "owner",
          "type": "address"
        },
        {
          "internalType": "uint256",
          "name": "index",
          "type": "uint256"
        }
      ],
      "name": "tokenOfOwnerByIndex",
      "outputs": [
        {
          "internalType": "uint256",
          "name": "",
          "type": "uint256"
        }
      ],
      "stateMutability": "view",
      "type": "function"
    },
    {
      "inputs": [
        {
          "internalType": "uint256",
          "name": "tokenId",
          "type": "uint256"
        }
      ],
      "name": "tokenURI",
      "outputs": [
        {
          "internalType": "string",
          "name": "",
          "type": "string"
        }
      ],
      "stateMutability": "view",
      "type": "function"
    },
    {
      "inputs": [
        {
          "internalType": "address",
          "name": "_owner",
          "type": "address"
        }
      ],
      "name": "tokensOfOwner",
      "outputs": [
        {
          "internalType": "uint256[]",
          "name": "",
          "type": "uint256[]"
        }
      ],
      "stateMutability": "view",
      "type": "function"
    },
    {
      "inputs": [],
      "name": "totalSupply",
      "outputs": [
        {
          "internalType": "uint256",
          "name": "",
          "type": "uint256"
        }
      ],
      "stateMutability": "view",
      "type": "function"
    },
    {
      "inputs": [
        {
          "internalType": "address",
          "name": "from",
          "type": "address"
        },
        {
          "internalType": "address",
          "name": "to",
          "type": "address"
        },
        {
          "internalType": "uint256",
          "name": "tokenId",
          "type": "uint256"
        }
      ],
      "name": "transferFrom",
      "outputs": [],
      "stateMutability": "nonpayable",
      "type": "function"
    },
    {
      "inputs": [],
      "name": "unpause",
      "outputs": [],
      "stateMutability": "nonpayable",
      "type": "function"
    }
  ],
  "bytecode": "0x608060405234801561001057600080fd5b50612946806100206000396000f3fe608060405234801561001057600080fd5b50600436106102065760003560e01c80636352211e1161011a578063a217fddf116100ad578063c99efaa01161007c578063c99efaa014610448578063d547741f1461045b578063d547cfb71461046e578063d64e539614610476578063e985e9c51461048a57600080fd5b8063a217fddf14610407578063a22cb4651461040f578063b88d4fde14610422578063c87b56dd1461043557600080fd5b80638456cb59116100e95780638456cb59146103c45780638462151c146103cc57806391d14854146103ec57806395d89b41146103ff57600080fd5b80636352211e1461037857806370a082311461038b578063755edd171461039e57806379cc6790146103b157600080fd5b80632f2ff15d1161019d5780633f4ba83a1161016c5780633f4ba83a1461032a57806342842e0e146103325780634f6ccce7146103455780635c975abb14610358578063634210f41461036357600080fd5b80632f2ff15d146102de5780632f745c59146102f157806330176e131461030457806336568abe1461031757600080fd5b8063095ea7b3116101d9578063095ea7b31461028b57806318160ddd146102a057806323b872dd146102a8578063248a9ca3146102bb57600080fd5b806301ffc9a71461020b57806302bf3d561461023357806306fdde031461024b578063081812fc14610260575b600080fd5b61021e610219366004612185565b6104c6565b60405190151581526020015b60405180910390f35b61023d61012e5481565b60405190815260200161022a565b6102536104d7565b60405161022a91906121fa565b61027361026e36600461220d565b610569565b6040516001600160a01b03909116815260200161022a565b61029e610299366004612242565b610590565b005b60995461023d565b61029e6102b636600461226c565b6106ab565b61023d6102c936600461220d565b600090815260c9602052604090206001015490565b61029e6102ec3660046122a8565b6106dc565b61023d6102ff366004612242565b610701565b61029e610312366004612380565b610797565b61029e6103253660046122a8565b6107c3565b61029e610841565b61029e61034036600461226c565b61086c565b61023d61035336600461220d565b610887565b60fb5460ff1661021e565b61012d5461021e90600160a01b900460ff1681565b61027361038636600461220d565b61091a565b61023d6103993660046123b5565b61097a565b61029e6103ac3660046123b5565b610a00565b61029e6103bf366004612242565b610a33565b61029e610ad1565b6103df6103da3660046123b5565b610af9565b60405161022a91906123d0565b61021e6103fa3660046122a8565b610b9b565b610253610bc6565b61023d600081565b61029e61041d366004612422565b610bd5565b61029e610430366004612459565b610be0565b61025361044336600461220d565b610c18565b61029e6104563660046124d5565b610c8c565b61029e6104693660046122a8565b610d38565b610253610d5d565b61012d54610273906001600160a01b031681565b61021e61049836600461257f565b6001600160a01b039182166000908152606a6020908152604080832093909416825291909152205460ff1690565b60006104d182610dec565b92915050565b6060606580546104e6906125a9565b80601f0160208091040260200160405190810160405280929190818152602001828054610512906125a9565b801561055f5780601f106105345761010080835404028352916020019161055f565b820191906000526020600020905b81548152906001019060200180831161054257829003601f168201915b5050505050905090565b600061057482610e11565b506000908152606960205260409020546001600160a01b031690565b600061059b8261091a565b9050806001600160a01b0316836001600160a01b0316141561060e5760405162461bcd60e51b815260206004820152602160248201527f4552433732313a20617070726f76616c20746f2063757272656e74206f776e656044820152603960f91b60648201526084015b60405180910390fd5b336001600160a01b038216148061062a575061062a8133610498565b61069c5760405162461bcd60e51b815260206004820152603d60248201527f4552433732313a20617070726f76652063616c6c6572206973206e6f7420746f60448201527f6b656e206f776e6572206f7220617070726f76656420666f7220616c6c0000006064820152608401610605565b6106a68383610e70565b505050565b6106b53382610ede565b6106d15760405162461bcd60e51b8152600401610605906125e4565b6106a6838383610f3d565b600082815260c960205260409020600101546106f7816110ae565b6106a683836110b8565b600061070c8361097a565b821061076e5760405162461bcd60e51b815260206004820152602b60248201527f455243373231456e756d657261626c653a206f776e657220696e646578206f7560448201526a74206f6620626f756e647360a81b6064820152608401610605565b506001600160a01b03919091166000908152609760209081526040808320938352929052205490565b6000805160206128f18339815191526107af816110ae565b81516106a69061012f9060208501906120d6565b6001600160a01b03811633146108335760405162461bcd60e51b815260206004820152602f60248201527f416363657373436f6e74726f6c3a2063616e206f6e6c792072656e6f756e636560448201526e103937b632b9903337b91039b2b63360891b6064820152608401610605565b61083d828261113e565b5050565b6000805160206128f1833981519152610859816110ae565b6108616111a5565b6108696111f0565b50565b6106a683838360405180602001604052806000815250610be0565b600061089260995490565b82106108f55760405162461bcd60e51b815260206004820152602c60248201527f455243373231456e756d657261626c653a20676c6f62616c20696e646578206f60448201526b7574206f6620626f756e647360a01b6064820152608401610605565b6099828154811061090857610908612631565b90600052602060002001549050919050565b6000818152606760205260408120546001600160a01b0316806104d15760405162461bcd60e51b8152602060048201526018602482015277115490cdcc8c4e881a5b9d985b1a59081d1bdad95b88125160421b6044820152606401610605565b60006001600160a01b0382166109e45760405162461bcd60e51b815260206004820152602960248201527f4552433732313a2061646472657373207a65726f206973206e6f7420612076616044820152683634b21037bbb732b960b91b6064820152608401610605565b506001600160a01b031660009081526068602052604090205490565b7f9f2df0fed2c77648de5860a4cc508cd0818c85b8b8a1ab4ceeef8d981c8956a6610a2a816110ae565b61083d82611242565b816001600160a01b0316610a468261091a565b6001600160a01b03161480610a605750610a608233610498565b80610a905750610a907f3c11d16cbaffd01df69ce1c404f6340ee057498f5f00246190ea54220576a84833610b9b565b610ac85760405162461bcd60e51b81526020600482015260096024820152683337b93134b23232b760b91b6044820152606401610605565b61083d81611264565b6000805160206128f1833981519152610ae9816110ae565b610af1611307565b61086961134d565b60606000610b068361097a565b905060008167ffffffffffffffff811115610b2357610b236122d4565b604051908082528060200260200182016040528015610b4c578160200160208202803683370190505b50905060005b82811015610b9357610b648582610701565b828281518110610b7657610b76612631565b602090810291909101015280610b8b8161265d565b915050610b52565b509392505050565b600091825260c9602090815260408084206001600160a01b0393909316845291905290205460ff1690565b6060606680546104e6906125a9565b61083d33838361138a565b610bea3383610ede565b610c065760405162461bcd60e51b8152600401610605906125e4565b610c1284848484611459565b50505050565b6060610c2382610e11565b6000610c3a60408051602081019091526000815290565b90506000815111610c5a5760405180602001604052806000815250610c85565b80610c648461148c565b604051602001610c75929190612678565b6040516020818303038152906040525b9392505050565b600054610100900460ff16610cb35760405162461bcd60e51b8152600401610605906126a7565b610cbd8585611521565b610cc5611552565b610ccd611579565b610cf98161012d80546001600160a81b0319166001600160a01b0390921691909117600160a01b179055565b610d046000836115a8565b610d1c6000805160206128f1833981519152836115a8565b8251610d309061012f9060208601906120d6565b505050505050565b600082815260c96020526040902060010154610d53816110ae565b6106a6838361113e565b61012f8054610d6b906125a9565b80601f0160208091040260200160405190810160405280929190818152602001828054610d97906125a9565b8015610de45780601f10610db957610100808354040283529160200191610de4565b820191906000526020600020905b815481529060010190602001808311610dc757829003601f168201915b505050505081565b60006001600160e01b03198216637965db0b60e01b14806104d157506104d1826115b2565b6000818152606760205260409020546001600160a01b03166108695760405162461bcd60e51b8152602060048201526018602482015277115490cdcc8c4e881a5b9d985b1a59081d1bdad95b88125160421b6044820152606401610605565b600081815260696020526040902080546001600160a01b0319166001600160a01b0384169081179091558190610ea58261091a565b6001600160a01b03167f8c5be1e5ebec7d5bd14f71427d1e84f3dd0314c0f7b2291e5b200ac8c7c3b92560405160405180910390a45050565b600080610eea8361091a565b9050806001600160a01b0316846001600160a01b03161480610f115750610f118185610498565b80610f355750836001600160a01b0316610f2a84610569565b6001600160a01b0316145b949350505050565b826001600160a01b0316610f508261091a565b6001600160a01b031614610f765760405162461bcd60e51b8152600401610605906126f2565b6001600160a01b038216610fd85760405162461bcd60e51b8152602060048201526024808201527f4552433732313a207472616e7366657220746f20746865207a65726f206164646044820152637265737360e01b6064820152608401610605565b610fe583838360016115d7565b826001600160a01b0316610ff88261091a565b6001600160a01b03161461101e5760405162461bcd60e51b8152600401610605906126f2565b600081815260696020908152604080832080546001600160a01b03199081169091556001600160a01b0387811680865260688552838620805460001901905590871680865283862080546001019055868652606790945282852080549092168417909155905184937fddf252ad1be2c89b69c2b068fc378daa952ba7f163c4a11628f55a4df523b3ef91a4505050565b6108698133611685565b6110c28282610b9b565b61083d57600082815260c9602090815260408083206001600160a01b03851684529091529020805460ff191660011790556110fa3390565b6001600160a01b0316816001600160a01b0316837f2f8788117e7eff1d82e926ec794901d17c78024a50270940304540a733656f0d60405160405180910390a45050565b6111488282610b9b565b1561083d57600082815260c9602090815260408083206001600160a01b0385168085529252808320805460ff1916905551339285917ff6391f5c32d9c69d2a47ea670b442974b53935d1edc7fd64eb21e047a839171b9190a45050565b60fb5460ff166111ee5760405162461bcd60e51b815260206004820152601460248201527314185d5cd8589b194e881b9bdd081c185d5cd95960621b6044820152606401610605565b565b6111f86111a5565b60fb805460ff191690557f5db9ee0a495bf2e6ff9c91a7834c1ba4fdd244a5e8aa4e537bd38aeae4b073aa335b6040516001600160a01b03909116815260200160405180910390a1565b61012e805490819060006112558361265d565b919050555061083d82826116de565b600061126f8261091a565b905061127f8160008460016115d7565b6112888261091a565b600083815260696020908152604080832080546001600160a01b03199081169091556001600160a01b0385168085526068845282852080546000190190558785526067909352818420805490911690555192935084927fddf252ad1be2c89b69c2b068fc378daa952ba7f163c4a11628f55a4df523b3ef908390a45050565b60fb5460ff16156111ee5760405162461bcd60e51b815260206004820152601060248201526f14185d5cd8589b194e881c185d5cd95960821b6044820152606401610605565b611355611307565b60fb805460ff191660011790557f62e78cea01bee320cd4e420270b5ea74000d11b0c9f74754ebdbfc544b05a2586112253390565b816001600160a01b0316836001600160a01b031614156113ec5760405162461bcd60e51b815260206004820152601960248201527f4552433732313a20617070726f766520746f2063616c6c6572000000000000006044820152606401610605565b6001600160a01b038381166000818152606a6020908152604080832094871680845294825291829020805460ff191686151590811790915591519182527f17307eab39ab6107e8899845ad3d59bd9653f200f220920489ca2b5937696c31910160405180910390a3505050565b611464848484610f3d565b61147084848484611877565b610c125760405162461bcd60e51b815260040161060590612737565b6060600061149983611984565b600101905060008167ffffffffffffffff8111156114b9576114b96122d4565b6040519080825280601f01601f1916602001820160405280156114e3576020820181803683370190505b5090508181016020015b600019016f181899199a1a9b1b9c1cb0b131b232b360811b600a86061a8153600a850494508461151c57610b93565b6114ed565b600054610100900460ff166115485760405162461bcd60e51b8152600401610605906126a7565b61083d8282611a5c565b600054610100900460ff166111ee5760405162461bcd60e51b8152600401610605906126a7565b600054610100900460ff166115a05760405162461bcd60e51b8152600401610605906126a7565b6111ee611aaa565b61083d82826110b8565b60006001600160e01b0319821663780e9d6360e01b14806104d157506104d182611add565b6115e384848484611b2d565b60fb5460ff161561161f5760405162461bcd60e51b81526020600482015260066024820152651c185d5cd95960d21b6044820152606401610605565b6116298484611c6d565b15610c125760405162461bcd60e51b815260206004820152602660248201527f53656e64657220616e642f6f7220726563697069656e7420697320626c6f636b6044820152651b1a5cdd195960d21b6064820152608401610605565b61168f8282610b9b565b61083d5761169c81611d10565b6116a7836020611d22565b6040516020016116b8929190612789565b60408051601f198184030181529082905262461bcd60e51b8252610605916004016121fa565b6001600160a01b0382166117345760405162461bcd60e51b815260206004820181905260248201527f4552433732313a206d696e7420746f20746865207a65726f20616464726573736044820152606401610605565b6000818152606760205260409020546001600160a01b0316156117995760405162461bcd60e51b815260206004820152601c60248201527f4552433732313a20746f6b656e20616c7265616479206d696e746564000000006044820152606401610605565b6117a76000838360016115d7565b6000818152606760205260409020546001600160a01b03161561180c5760405162461bcd60e51b815260206004820152601c60248201527f4552433732313a20746f6b656e20616c7265616479206d696e746564000000006044820152606401610605565b6001600160a01b038216600081815260686020908152604080832080546001019055848352606790915280822080546001600160a01b0319168417905551839291907fddf252ad1be2c89b69c2b068fc378daa952ba7f163c4a11628f55a4df523b3ef908290a45050565b60006001600160a01b0384163b1561197957604051630a85bd0160e11b81526001600160a01b0385169063150b7a02906118bb9033908990889088906004016127fe565b602060405180830381600087803b1580156118d557600080fd5b505af1925050508015611905575060408051601f3d908101601f191682019092526119029181019061283b565b60015b61195f573d808015611933576040519150601f19603f3d011682016040523d82523d6000602084013e611938565b606091505b5080516119575760405162461bcd60e51b815260040161060590612737565b805181602001fd5b6001600160e01b031916630a85bd0160e11b149050610f35565b506001949350505050565b60008072184f03e93ff9f4daa797ed6e38ed64bf6a1f0160401b83106119c35772184f03e93ff9f4daa797ed6e38ed64bf6a1f0160401b830492506040015b6d04ee2d6d415b85acef810000000083106119ef576d04ee2d6d415b85acef8100000000830492506020015b662386f26fc100008310611a0d57662386f26fc10000830492506010015b6305f5e1008310611a25576305f5e100830492506008015b6127108310611a3957612710830492506004015b60648310611a4b576064830492506002015b600a83106104d15760010192915050565b600054610100900460ff16611a835760405162461bcd60e51b8152600401610605906126a7565b8151611a969060659060208501906120d6565b5080516106a69060669060208401906120d6565b600054610100900460ff16611ad15760405162461bcd60e51b8152600401610605906126a7565b60fb805460ff19169055565b60006001600160e01b031982166380ac58cd60e01b1480611b0e57506001600160e01b03198216635b5e139f60e01b145b806104d157506301ffc9a760e01b6001600160e01b03198316146104d1565b611b3984848484611ebe565b6001811115611ba85760405162461bcd60e51b815260206004820152603560248201527f455243373231456e756d657261626c653a20636f6e7365637574697665207472604482015274185b9cd9995c9cc81b9bdd081cdd5c1c1bdc9d1959605a1b6064820152608401610605565b816001600160a01b038516611c0457611bff81609980546000838152609a60205260408120829055600182018355919091527f72a152ddfb8e864297c917af52ea6c1c68aead0fee1a62673fcc7e0c94979d000155565b611c27565b836001600160a01b0316856001600160a01b031614611c2757611c278582611f46565b6001600160a01b038416611c4357611c3e81611fe3565b611c66565b846001600160a01b0316846001600160a01b031614611c6657611c668482612092565b5050505050565b61012d54600090600160a01b900460ff16611c8a575060006104d1565b61012d5460405163257128dd60e21b81526001600160a01b0385811660048301528481166024830152909116906395c4a3749060440160206040518083038186803b158015611cd857600080fd5b505afa158015611cec573d6000803e3d6000fd5b505050506040513d601f19601f82011682018060405250810190610c859190612858565b60606104d16001600160a01b03831660145b60606000611d31836002612875565b611d3c906002612894565b67ffffffffffffffff811115611d5457611d546122d4565b6040519080825280601f01601f191660200182016040528015611d7e576020820181803683370190505b509050600360fc1b81600081518110611d9957611d99612631565b60200101906001600160f81b031916908160001a905350600f60fb1b81600181518110611dc857611dc8612631565b60200101906001600160f81b031916908160001a9053506000611dec846002612875565b611df7906001612894565b90505b6001811115611e6f576f181899199a1a9b1b9c1cb0b131b232b360811b85600f1660108110611e2b57611e2b612631565b1a60f81b828281518110611e4157611e41612631565b60200101906001600160f81b031916908160001a90535060049490941c93611e68816128ac565b9050611dfa565b508315610c855760405162461bcd60e51b815260206004820181905260248201527f537472696e67733a20686578206c656e67746820696e73756666696369656e746044820152606401610605565b6001811115610c12576001600160a01b03841615611f04576001600160a01b03841660009081526068602052604081208054839290611efe9084906128c3565b90915550505b6001600160a01b03831615610c12576001600160a01b03831660009081526068602052604081208054839290611f3b908490612894565b909155505050505050565b60006001611f538461097a565b611f5d91906128c3565b600083815260986020526040902054909150808214611fb0576001600160a01b03841660009081526097602090815260408083208584528252808320548484528184208190558352609890915290208190555b5060009182526098602090815260408084208490556001600160a01b039094168352609781528383209183525290812055565b609954600090611ff5906001906128c3565b6000838152609a60205260408120546099805493945090928490811061201d5761201d612631565b90600052602060002001549050806099838154811061203e5761203e612631565b6000918252602080832090910192909255828152609a90915260408082208490558582528120556099805480612076576120766128da565b6001900381819060005260206000200160009055905550505050565b600061209d8361097a565b6001600160a01b039093166000908152609760209081526040808320868452825280832085905593825260989052919091209190915550565b8280546120e2906125a9565b90600052602060002090601f016020900481019282612104576000855561214a565b82601f1061211d57805160ff191683800117855561214a565b8280016001018555821561214a579182015b8281111561214a57825182559160200191906001019061212f565b5061215692915061215a565b5090565b5b80821115612156576000815560010161215b565b6001600160e01b03198116811461086957600080fd5b60006020828403121561219757600080fd5b8135610c858161216f565b60005b838110156121bd5781810151838201526020016121a5565b83811115610c125750506000910152565b600081518084526121e68160208601602086016121a2565b601f01601f19169290920160200192915050565b602081526000610c8560208301846121ce565b60006020828403121561221f57600080fd5b5035919050565b80356001600160a01b038116811461223d57600080fd5b919050565b6000806040838503121561225557600080fd5b61225e83612226565b946020939093013593505050565b60008060006060848603121561228157600080fd5b61228a84612226565b925061229860208501612226565b9150604084013590509250925092565b600080604083850312156122bb57600080fd5b823591506122cb60208401612226565b90509250929050565b634e487b7160e01b600052604160045260246000fd5b600067ffffffffffffffff80841115612305576123056122d4565b604051601f8501601f19908116603f0116810190828211818310171561232d5761232d6122d4565b8160405280935085815286868601111561234657600080fd5b858560208301376000602087830101525050509392505050565b600082601f83011261237157600080fd5b610c85838335602085016122ea565b60006020828403121561239257600080fd5b813567ffffffffffffffff8111156123a957600080fd5b610f3584828501612360565b6000602082840312156123c757600080fd5b610c8582612226565b6020808252825182820181905260009190848201906040850190845b81811015612408578351835292840192918401916001016123ec565b50909695505050505050565b801515811461086957600080fd5b6000806040838503121561243557600080fd5b61243e83612226565b9150602083013561244e81612414565b809150509250929050565b6000806000806080858703121561246f57600080fd5b61247885612226565b935061248660208601612226565b925060408501359150606085013567ffffffffffffffff8111156124a957600080fd5b8501601f810187136124ba57600080fd5b6124c9878235602084016122ea565b91505092959194509250565b600080600080600060a086880312156124ed57600080fd5b853567ffffffffffffffff8082111561250557600080fd5b61251189838a01612360565b9650602088013591508082111561252757600080fd5b61253389838a01612360565b9550604088013591508082111561254957600080fd5b5061255688828901612360565b93505061256560608701612226565b915061257360808701612226565b90509295509295909350565b6000806040838503121561259257600080fd5b61259b83612226565b91506122cb60208401612226565b600181811c908216806125bd57607f821691505b602082108114156125de57634e487b7160e01b600052602260045260246000fd5b50919050565b6020808252602d908201527f4552433732313a2063616c6c6572206973206e6f7420746f6b656e206f776e6560408201526c1c881bdc88185c1c1c9bdd9959609a1b606082015260800190565b634e487b7160e01b600052603260045260246000fd5b634e487b7160e01b600052601160045260246000fd5b600060001982141561267157612671612647565b5060010190565b6000835161268a8184602088016121a2565b83519083019061269e8183602088016121a2565b01949350505050565b6020808252602b908201527f496e697469616c697a61626c653a20636f6e7472616374206973206e6f74206960408201526a6e697469616c697a696e6760a81b606082015260800190565b60208082526025908201527f4552433732313a207472616e736665722066726f6d20696e636f72726563742060408201526437bbb732b960d91b606082015260800190565b60208082526032908201527f4552433732313a207472616e7366657220746f206e6f6e20455243373231526560408201527131b2b4bb32b91034b6b83632b6b2b73a32b960711b606082015260800190565b7f416363657373436f6e74726f6c3a206163636f756e74200000000000000000008152600083516127c18160178501602088016121a2565b7001034b99036b4b9b9b4b733903937b6329607d1b60179184019182015283516127f28160288401602088016121a2565b01602801949350505050565b6001600160a01b0385811682528416602082015260408101839052608060608201819052600090612831908301846121ce565b9695505050505050565b60006020828403121561284d57600080fd5b8151610c858161216f565b60006020828403121561286a57600080fd5b8151610c8581612414565b600081600019048311821515161561288f5761288f612647565b500290565b600082198211156128a7576128a7612647565b500190565b6000816128bb576128bb612647565b506000190190565b6000828210156128d5576128d5612647565b500390565b634e487b7160e01b600052603160045260246000fdfe97667070c54ef182b0f5858b034beac1b6f3089aa2d3188bb1e8929f4fa9b929a2646970667358221220f669e315a124b2e62e0d791268c577a9697e505391485709bf929a2418c129e264736f6c63430008090033",
  "linkReferences": {},
  "deployedLinkReferences": {}
}