{
  "_format": "hh-sol-artifact-1",
  "contractName": "BkDnaMaster",
  "sourceName": "contracts/features/BkDnaMaster.sol",
  "abi": [
    {
      "anonymous": false,
      "inputs": [
        {
          "indexed": false,
          "internalType": "uint8",
          "name": "version",
          "type": "uint8"
        }
      ],
      "name": "Initialized",
      "type": "event"
    },
    {
      "anonymous": false,
      "inputs": [
        {
          "indexed": false,
          "internalType": "address",
          "name": "account",
          "type": "address"
        }
      ],
      "name": "Paused",
      "type": "event"
    },
    {
      "anonymous": false,
      "inputs": [
        {
          "indexed": true,
          "internalType": "bytes32",
          "name": "role",
          "type": "bytes32"
        },
        {
          "indexed": true,
          "internalType": "bytes32",
          "name": "previousAdminRole",
          "type": "bytes32"
        },
        {
          "indexed": true,
          "internalType": "bytes32",
          "name": "newAdminRole",
          "type": "bytes32"
        }
      ],
      "name": "RoleAdminChanged",
      "type": "event"
    },
    {
      "anonymous": false,
      "inputs": [
        {
          "indexed": true,
          "internalType": "bytes32",
          "name": "role",
          "type": "bytes32"
        },
        {
          "indexed": true,
          "internalType": "address",
          "name": "account",
          "type": "address"
        },
        {
          "indexed": true,
          "internalType": "address",
          "name": "sender",
          "type": "address"
        }
      ],
      "name": "RoleGranted",
      "type": "event"
    },
    {
      "anonymous": false,
      "inputs": [
        {
          "indexed": true,
          "internalType": "bytes32",
          "name": "role",
          "type": "bytes32"
        },
        {
          "indexed": true,
          "internalType": "address",
          "name": "account",
          "type": "address"
        },
        {
          "indexed": true,
          "internalType": "address",
          "name": "sender",
          "type": "address"
        }
      ],
      "name": "RoleRevoked",
      "type": "event"
    },
    {
      "anonymous": false,
      "inputs": [
        {
          "indexed": false,
          "internalType": "address",
          "name": "account",
          "type": "address"
        }
      ],
      "name": "Unpaused",
      "type": "event"
    },
    {
      "inputs": [],
      "name": "DEFAULT_ADMIN_ROLE",
      "outputs": [
        {
          "internalType": "bytes32",
          "name": "",
          "type": "bytes32"
        }
      ],
      "stateMutability": "view",
      "type": "function"
    },
    {
      "inputs": [
        {
          "internalType": "address",
          "name": "_operator",
          "type": "address"
        },
        {
          "internalType": "address",
          "name": "_blocklistAddress",
          "type": "address"
        }
      ],
      "name": "__Administrable_init",
      "outputs": [],
      "stateMutability": "nonpayable",
      "type": "function"
    },
    {
      "inputs": [],
      "name": "autoReturnRate",
      "outputs": [
        {
          "internalType": "uint256",
          "name": "",
          "type": "uint256"
        }
      ],
      "stateMutability": "view",
      "type": "function"
    },
    {
      "inputs": [
        {
          "internalType": "uint256",
          "name": "bctAmount",
          "type": "uint256"
        }
      ],
      "name": "bctToStabletoken",
      "outputs": [
        {
          "internalType": "uint256",
          "name": "",
          "type": "uint256"
        }
      ],
      "stateMutability": "view",
      "type": "function"
    },
    {
      "inputs": [
        {
          "internalType": "string[]",
          "name": "collectionNames",
          "type": "string[]"
        },
        {
          "internalType": "uint256",
          "name": "numberOfCollections",
          "type": "uint256"
        }
      ],
      "name": "createFullCatCollections",
      "outputs": [],
      "stateMutability": "nonpayable",
      "type": "function"
    },
    {
      "inputs": [
        {
          "internalType": "string[]",
          "name": "collectionNames",
          "type": "string[]"
        },
        {
          "internalType": "uint256",
          "name": "numberOfCollections",
          "type": "uint256"
        }
      ],
      "name": "createFullMouseCollections",
      "outputs": [],
      "stateMutability": "nonpayable",
      "type": "function"
    },
    {
      "inputs": [
        {
          "internalType": "bytes32",
          "name": "role",
          "type": "bytes32"
        }
      ],
      "name": "getRoleAdmin",
      "outputs": [
        {
          "internalType": "bytes32",
          "name": "",
          "type": "bytes32"
        }
      ],
      "stateMutability": "view",
      "type": "function"
    },
    {
      "inputs": [
        {
          "internalType": "bytes32",
          "name": "role",
          "type": "bytes32"
        },
        {
          "internalType": "address",
          "name": "account",
          "type": "address"
        }
      ],
      "name": "grantRole",
      "outputs": [],
      "stateMutability": "nonpayable",
      "type": "function"
    },
    {
      "inputs": [],
      "name": "hasBlocklist",
      "outputs": [
        {
          "internalType": "bool",
          "name": "",
          "type": "bool"
        }
      ],
      "stateMutability": "view",
      "type": "function"
    },
    {
      "inputs": [],
      "name": "hasCreatedCollections",
      "outputs": [
        {
          "internalType": "bool",
          "name": "",
          "type": "bool"
        }
      ],
      "stateMutability": "view",
      "type": "function"
    },
    {
      "inputs": [],
      "name": "hasIntegratedBeasts",
      "outputs": [
        {
          "internalType": "bool",
          "name": "",
          "type": "bool"
        }
      ],
      "stateMutability": "view",
      "type": "function"
    },
    {
      "inputs": [
        {
          "internalType": "bytes32",
          "name": "role",
          "type": "bytes32"
        },
        {
          "internalType": "address",
          "name": "account",
          "type": "address"
        }
      ],
      "name": "hasRole",
      "outputs": [
        {
          "internalType": "bool",
          "name": "",
          "type": "bool"
        }
      ],
      "stateMutability": "view",
      "type": "function"
    },
    {
      "inputs": [
        {
          "internalType": "address",
          "name": "_operator",
          "type": "address"
        },
        {
          "internalType": "address",
          "name": "_blocklist",
          "type": "address"
        },
        {
          "internalType": "address",
          "name": "_nft",
          "type": "address"
        },
        {
          "internalType": "address",
          "name": "_dnaManager",
          "type": "address"
        }
      ],
      "name": "initialize",
      "outputs": [],
      "stateMutability": "nonpayable",
      "type": "function"
    },
    {
      "inputs": [
        {
          "internalType": "string",
          "name": "collection1Name",
          "type": "string"
        },
        {
          "internalType": "string",
          "name": "collection2Name",
          "type": "string"
        }
      ],
      "name": "makePowerCatsCollections",
      "outputs": [],
      "stateMutability": "nonpayable",
      "type": "function"
    },
    {
      "inputs": [],
      "name": "pause",
      "outputs": [],
      "stateMutability": "nonpayable",
      "type": "function"
    },
    {
      "inputs": [],
      "name": "paused",
      "outputs": [
        {
          "internalType": "bool",
          "name": "",
          "type": "bool"
        }
      ],
      "stateMutability": "view",
      "type": "function"
    },
    {
      "inputs": [],
      "name": "paymentContracts",
      "outputs": [
        {
          "internalType": "contract IBkERC20",
          "name": "bct",
          "type": "address"
        },
        {
          "internalType": "contract IBkERC20",
          "name": "busd",
          "type": "address"
        },
        {
          "internalType": "contract ICommunityPool",
          "name": "pool",
          "type": "address"
        },
        {
          "internalType": "contract IBkFarm",
          "name": "farm",
          "type": "address"
        }
      ],
      "stateMutability": "view",
      "type": "function"
    },
    {
      "inputs": [
        {
          "internalType": "address",
          "name": "tokenAddress",
          "type": "address"
        },
        {
          "internalType": "address",
          "name": "to",
          "type": "address"
        },
        {
          "internalType": "uint256",
          "name": "amount",
          "type": "uint256"
        }
      ],
      "name": "recoverERC20",
      "outputs": [],
      "stateMutability": "nonpayable",
      "type": "function"
    },
    {
      "inputs": [
        {
          "internalType": "bytes32",
          "name": "role",
          "type": "bytes32"
        },
        {
          "internalType": "address",
          "name": "account",
          "type": "address"
        }
      ],
      "name": "renounceRole",
      "outputs": [],
      "stateMutability": "nonpayable",
      "type": "function"
    },
    {
      "inputs": [],
      "name": "resetBlocklist",
      "outputs": [],
      "stateMutability": "nonpayable",
      "type": "function"
    },
    {
      "inputs": [
        {
          "internalType": "uint256",
          "name": "",
          "type": "uint256"
        }
      ],
      "name": "resources",
      "outputs": [
        {
          "internalType": "address",
          "name": "",
          "type": "address"
        }
      ],
      "stateMutability": "view",
      "type": "function"
    },
    {
      "inputs": [],
      "name": "resourcesCount",
      "outputs": [
        {
          "internalType": "uint256",
          "name": "",
          "type": "uint256"
        }
      ],
      "stateMutability": "view",
      "type": "function"
    },
    {
      "inputs": [
        {
          "internalType": "bytes32",
          "name": "role",
          "type": "bytes32"
        },
        {
          "internalType": "address",
          "name": "account",
          "type": "address"
        }
      ],
      "name": "revokeRole",
      "outputs": [],
      "stateMutability": "nonpayable",
      "type": "function"
    },
    {
      "inputs": [
        {
          "internalType": "address",
          "name": "blocklistAddress",
          "type": "address"
        }
      ],
      "name": "setBlocklist",
      "outputs": [],
      "stateMutability": "nonpayable",
      "type": "function"
    },
    {
      "inputs": [
        {
          "internalType": "address",
          "name": "_bct",
          "type": "address"
        },
        {
          "internalType": "address",
          "name": "_busd",
          "type": "address"
        },
        {
          "internalType": "address",
          "name": "_pool",
          "type": "address"
        },
        {
          "internalType": "address",
          "name": "_farm",
          "type": "address"
        },
        {
          "internalType": "address",
          "name": "_resourcesSource",
          "type": "address"
        },
        {
          "internalType": "uint256",
          "name": "_autoReturnRate",
          "type": "uint256"
        }
      ],
      "name": "setupPaymentModule",
      "outputs": [],
      "stateMutability": "nonpayable",
      "type": "function"
    },
    {
      "inputs": [
        {
          "internalType": "uint256",
          "name": "busdAmount",
          "type": "uint256"
        }
      ],
      "name": "stabletokenToBct",
      "outputs": [
        {
          "internalType": "uint256",
          "name": "",
          "type": "uint256"
        }
      ],
      "stateMutability": "view",
      "type": "function"
    },
    {
      "inputs": [
        {
          "internalType": "bytes4",
          "name": "interfaceId",
          "type": "bytes4"
        }
      ],
      "name": "supportsInterface",
      "outputs": [
        {
          "internalType": "bool",
          "name": "",
          "type": "bool"
        }
      ],
      "stateMutability": "view",
      "type": "function"
    },
    {
      "inputs": [],
      "name": "unpause",
      "outputs": [],
      "stateMutability": "nonpayable",
      "type": "function"
    },
    {
      "inputs": [],
      "name": "used",
      "outputs": [
        {
          "internalType": "bool",
          "name": "",
          "type": "bool"
        }
      ],
      "stateMutability": "view",
      "type": "function"
    },
    {
      "inputs": [
        {
          "internalType": "address",
          "name": "",
          "type": "address"
        }
      ],
      "name": "userUsed",
      "outputs": [
        {
          "internalType": "bool",
          "name": "",
          "type": "bool"
        }
      ],
      "stateMutability": "view",
      "type": "function"
    }
  ],
  "bytecode": "0x608060405234801561001057600080fd5b5061298b806100206000396000f3fe608060405234801561001057600080fd5b50600436106101da5760003560e01c8063634210f411610104578063aecbb8db116100a2578063c429d34911610071578063c429d3491461044c578063d547741f14610455578063f4b93f4514610468578063f8c8765e1461047b57600080fd5b8063aecbb8db146103ff578063aef18ae714610413578063b5f63f6014610426578063bb5d3f0a1461043957600080fd5b806391d14854116100de57806391d14854146103bd578063927bb53f146103d0578063931da89b146103e4578063a217fddf146103f757600080fd5b8063634210f41461038d57806363898e2b146103a15780638456cb59146103b557600080fd5b8063323b6cb71161017c57806341e80ad91161014b57806341e80ad91461035357806351ac7b8c146103665780635c975abb1461036f578063627c79ee1461037a57600080fd5b8063323b6cb7146102d757806336568abe146103305780633c7fd822146103435780633f4ba83a1461034b57600080fd5b806322a32734116101b857806322a327341461023f578063244d6daa14610252578063248a9ca3146102935780632f2ff15d146102c457600080fd5b806301ffc9a7146101df5780630a79decb146102075780631171bda91461022a575b600080fd5b6101f26101ed366004612046565b61048e565b60405190151581526020015b60405180910390f35b6101f2610215366004612085565b60d36020526000908152604090205460ff1681565b61023d6102383660046120a2565b6104c5565b005b61023d61024d3660046121be565b610566565b61027b61026036600461227a565b60cb602052600090815260409020546001600160a01b031681565b6040516001600160a01b0390911681526020016101fe565b6102b66102a136600461227a565b60009081526065602052604090206001015490565b6040519081526020016101fe565b61023d6102d2366004612293565b61087c565b60cc5460cd5460ce5460cf546102fd936001600160a01b03908116938116928116911684565b604080516001600160a01b03958616815293851660208501529184169183019190915290911660608201526080016101fe565b61023d61033e366004612293565b6108a6565b61023d6108c9565b61023d6108f4565b6102b661036136600461227a565b610917565b6102b660ca5481565b60975460ff166101f2565b61023d6103883660046122c3565b610995565b60c9546101f290600160a01b900460ff1681565b60d2546101f290600160b01b900460ff1681565b61023d610b65565b6101f26103cb366004612293565b610b85565b60d2546101f290600160a01b900460ff1681565b61023d6103f2366004612327565b610bb0565b6102b6600081565b60d2546101f290600160a81b900460ff1681565b61023d610421366004612085565b610cc6565b6102b661043436600461227a565b610d06565b61023d6104473660046121be565b610d38565b6102b660d05481565b61023d610463366004612293565b611038565b61023d610476366004612355565b61105d565b61023d6104893660046123ce565b61108c565b60006001600160e01b03198216637965db0b60e01b14806104bf57506301ffc9a760e01b6001600160e01b03198316145b92915050565b6000805160206129368339815191526104dd81611178565b60405163a9059cbb60e01b81526001600160a01b0384811660048301526024820184905285169063a9059cbb90604401602060405180830381600087803b15801561052757600080fd5b505af115801561053b573d6000803e3d6000fd5b505050506040513d601f19601f8201168201806040525081019061055f919061242a565b5050505050565b61056e611182565b808251146105975760405162461bcd60e51b815260040161058e9061244c565b60405180910390fd5b60d154604080516393f1da4f60e01b815290516000926001600160a01b0316916393f1da4f916004808301926020929190829003018186803b1580156105dc57600080fd5b505afa1580156105f0573d6000803e3d6000fd5b505050506040513d601f19601f820116820180604052508101906106149190612498565b905069010f0cf064dd59200000600061062d84836124c7565b9050614e20600061063e86836124c7565b60408051601080825261022082019092529192506000919060208201610200803683370190505090508181600f8151811061067b5761067b6124e6565b6020026020010181815250506106be84826040518060800160405280600115158152602001600115158152602001600015158152602001600015158152506111ca565b60005b8781101561071757610705336106d88360126124c7565b6106e2908a6124fc565b8b84815181106106f4576106f46124e6565b602002602001015160026004611467565b8061070f81612514565b9150506106c1565b5060006107258860126124c7565b67ffffffffffffffff81111561073d5761073d6120e3565b604051908082528060200260200182016040528015610766578160200160208202803683370190505b50905060005b6107778960126124c7565b8110156107b75761078881896124fc565b82828151811061079a5761079a6124e6565b6020908102919091010152806107af81612514565b91505061076c565b5060005b6107c68960126124c7565b8110156108705760d15482516001600160a01b039091169063de71b067908490849081106107f6576107f66124e6565b6020026020010151650a3b5840f4006040518363ffffffff1660e01b815260040161082b929190918252602082015260400190565b600060405180830381600087803b15801561084557600080fd5b505af1158015610859573d6000803e3d6000fd5b50505050808061086890612514565b9150506107bb565b50505050505050505050565b60008281526065602052604090206001015461089781611178565b6108a183836118b4565b505050565b6001600160a01b03811633146108bb57600080fd5b6108c5828261193a565b5050565b6000805160206129368339815191526108e181611178565b5060c980546001600160a81b0319169055565b60008051602061293683398151915261090c81611178565b6109146119a1565b50565b60ce54604051634ca1cccb60e11b8152600481018390526000916001600160a01b0316906399439996906024015b60206040518083038186803b15801561095d57600080fd5b505afa158015610971573d6000803e3d6000fd5b505050506040513d601f19601f820116820180604052508101906104bf9190612498565b61099d611182565b60d154604080516393f1da4f60e01b815290516000926001600160a01b0316916393f1da4f916004808301926020929190829003018186803b1580156109e257600080fd5b505afa1580156109f6573d6000803e3d6000fd5b505050506040513d601f19601f82011682018060405250810190610a1a9190612498565b9050610a2b33828560016004611467565b610a4433610a3a8360126124fc565b8460016004611467565b610a4d816119f3565b6040805160108082526102208201909252600091602082016102008036833701905050905061206c81600681518110610a8857610a886124e6565b6020026020010181815250506201a5e081600881518110610aab57610aab6124e6565b602002602001018181525050614b0081600b81518110610acd57610acd6124e6565b60200260200101818152505062068fb081600e81518110610af057610af06124e6565b602002602001018181525050614b0081600f81518110610b1257610b126124e6565b602002602001018181525050610b5f6903d8d5c5671bd97c0000826040518060800160405280600115158152602001600115158152602001600015158152602001600015158152506111ca565b50505050565b600080516020612936833981519152610b7d81611178565b610914611bf1565b60009182526065602090815260408084206001600160a01b0393909316845291905290205460ff1690565b600054610100900460ff1615808015610bd05750600054600160ff909116105b80610bea5750303b158015610bea575060005460ff166001145b610bf357600080fd5b6000805460ff191660011790558015610c16576000805461ff0019166101001790555b610c1e611c2e565b610c26611c42565b610c31600084611c5e565b610c4960008051602061293683398151915284611c5e565b610c737f73e573f9566d61418a34d5de3ff49360f9c51fec37f7486551670290f6285dab84611c5e565b610c7c82610cc6565b80156108a1576000805461ff0019169055604051600181527f7f26b83ff96e1f2b6a682f133852f6798a09c465da95921460cefb38474024989060200160405180910390a1505050565b600080516020612936833981519152610cde81611178565b5060c980546001600160a81b0319166001600160a01b0390921691909117600160a01b179055565b60ce5460405163526267fd60e11b8152600481018390526000916001600160a01b03169063a4c4cffa90602401610945565b610d40611182565b80825114610d605760405162461bcd60e51b815260040161058e9061244c565b60d154604080516393f1da4f60e01b815290516000926001600160a01b0316916393f1da4f916004808301926020929190829003018186803b158015610da557600080fd5b505afa158015610db9573d6000803e3d6000fd5b505050506040513d601f19601f82011682018060405250810190610ddd9190612498565b905068878678326eac9000006000610df584836124c7565b9050614e206000610e0686836124c7565b60408051601080825261022082019092529192506000919060208201610200803683370190505090508181600e81518110610e4357610e436124e6565b602002602001018181525050610e8684826040518060800160405280600115158152602001600115158152602001600015158152602001600015158152506111ca565b60005b87811015610edf57610ecd33610ea08360126124c7565b610eaa908a6124fc565b8b8481518110610ebc57610ebc6124e6565b602002602001015160016004611467565b80610ed781612514565b915050610e89565b506000610eed8860126124c7565b67ffffffffffffffff811115610f0557610f056120e3565b604051908082528060200260200182016040528015610f2e578160200160208202803683370190505b50905060005b610f3f8960126124c7565b811015610f7f57610f5081896124fc565b828281518110610f6257610f626124e6565b602090810291909101015280610f7781612514565b915050610f34565b5060005b610f8e8960126124c7565b8110156108705760d15482516001600160a01b039091169063de71b06790849084908110610fbe57610fbe6124e6565b60200260200101516503691d6afc006040518363ffffffff1660e01b8152600401610ff3929190918252602082015260400190565b600060405180830381600087803b15801561100d57600080fd5b505af1158015611021573d6000803e3d6000fd5b50505050808061103090612514565b915050610f83565b60008281526065602052604090206001015461105381611178565b6108a1838361193a565b60008051602061293683398151915261107581611178565b611083878787878787611c68565b50505050505050565b600054610100900460ff16158080156110ac5750600054600160ff909116105b806110c65750303b1580156110c6575060005460ff166001145b6110cf57600080fd5b6000805460ff1916600117905580156110f2576000805461ff0019166101001790555b6110fc8585610bb0565b60d180546001600160a01b038086166001600160a01b03199283161790925560d2805492851692909116919091179055801561055f576000805461ff0019169055604051600181527f7f26b83ff96e1f2b6a682f133852f6798a09c465da95921460cefb38474024989060200160405180910390a15050505050565b6109148133611d23565b60975460ff16156111c85760405162461bcd60e51b815260206004820152601060248201526f14185d5cd8589b194e881c185d5cd95960821b604482015260640161058e565b565b8060400151156113525780602001511561120b5760405162461bcd60e51b8152602060048201526002602482015261070360f41b604482015260640161058e565b805160009061121a5783611223565b61122384610d06565b60cd546040516323b872dd60e01b8152336004820152306024820152604481018390529192506001600160a01b0316906323b872dd90606401602060405180830381600087803b15801561127657600080fd5b505af115801561128a573d6000803e3d6000fd5b505050506040513d601f19601f820116820180604052508101906112ae919061242a565b50600060648260d0546112c191906124c7565b6112cb919061252f565b60ce54604051630d3990db60e21b8152600481018390529192506001600160a01b0316906334e6436c90602401602060405180830381600087803b15801561131257600080fd5b505af1158015611326573d6000803e3d6000fd5b505050506040513d601f19601f8201168201806040525081019061134a9190612498565b505050505050565b8060600151156113895760405162461bcd60e51b8152602060048201526002602482015261703160f01b604482015260640161058e565b80516000906113a05761139b84610917565b6113a2565b835b60cf5460405163b1918c9560e01b81529192506000916001600160a01b039091169063b1918c95906113dc9033908690899060040161258c565b602060405180830381600087803b1580156113f657600080fd5b505af115801561140a573d6000803e3d6000fd5b505050506040513d601f19601f8201168201806040525081019061142e919061242a565b90508061055f5760405162461bcd60e51b81526020600482015260076024820152666e6f46756e647360c81b604482015260640161058e565b60d2546040805163154e763360e11b815290516000926001600160a01b031691632a9cec66916004808301926020929190829003018186803b1580156114ac57600080fd5b505afa1580156114c0573d6000803e3d6000fd5b505050506040513d601f19601f820116820180604052508101906114e49190612498565b6114ef9060016124fc565b60408051600680825260e08201909252919250600091906020820160c080368337019050509050838160008151811061152a5761152a6124e6565b602002602001018181525050828160018151811061154a5761154a6124e6565b60209081029190910101526040805160028082526060820190925260009181602001602082028036833701905050905060018160008151811061158f5761158f6124e6565b6020026020010181815250506001816001815181106115b0576115b06124e6565b602090810291909101015260408051600680825260e082019092526000918160200160208202803683370190505090506001816000815181106115f5576115f56124e6565b602002602001018181525050600181600181518110611616576116166124e6565b60200260200101818152505060005b60128110156117305760d1546040805161018081019091526001600160a01b03909116906366dbd6be908c908061165c868f6124fc565b81526020016040518060200160405280600081525081526020016040518060200160405280600081525081526020018e6001600160a01b03168152602001600081526020018981526020016000815260200160008152602001888152602001878152602001868152602001600015158152506040518363ffffffff1660e01b81526004016116eb929190612614565b600060405180830381600087803b15801561170557600080fd5b505af1158015611719573d6000803e3d6000fd5b50505050808061172890612514565b915050611625565b50604080516001808252818301909252600091816020015b61177c6040518060800160405280600081526020016060815260200160006001600160a01b03168152602001606081525090565b815260200190600190039081611748575050604080516012808252610260820190925291925060009190602082016102408036833701905050905060005b60128110156117fc576117cd818c6124fc565b8282815181106117df576117df6124e6565b6020908102919091010152806117f481612514565b9150506117ba565b5060405180608001604052808781526020018a81526020018c6001600160a01b03168152602001828152508260008151811061183a5761183a6124e6565b602090810291909101015260d25460405163a89637bb60e01b81526001600160a01b039091169063a89637bb90611875908590600401612735565b600060405180830381600087803b15801561188f57600080fd5b505af11580156118a3573d6000803e3d6000fd5b505050505050505050505050505050565b6118be8282610b85565b6108c55760008281526065602090815260408083206001600160a01b03851684529091529020805460ff191660011790556118f63390565b6001600160a01b0316816001600160a01b0316837f2f8788117e7eff1d82e926ec794901d17c78024a50270940304540a733656f0d60405160405180910390a45050565b6119448282610b85565b156108c55760008281526065602090815260408083206001600160a01b0385168085529252808320805460ff1916905551339285917ff6391f5c32d9c69d2a47ea670b442974b53935d1edc7fd64eb21e047a839171b9190a45050565b6119a9611d7c565b6097805460ff191690557f5db9ee0a495bf2e6ff9c91a7834c1ba4fdd244a5e8aa4e537bd38aeae4b073aa335b6040516001600160a01b03909116815260200160405180910390a1565b60408051600680825260e082019092526000916020820160c080368337019050509050600281600181518110611a2b57611a2b6124e6565b602002602001018181525050600481600281518110611a4c57611a4c6124e6565b60200260200101818152505060005b6018811015611b53576000611a7082856124fc565b60d1546040516332eaadb760e21b81529192506001600160a01b03169063cbaab6dc90611aa390849087906004016127db565b600060405180830381600087803b158015611abd57600080fd5b505af1158015611ad1573d6000803e3d6000fd5b505060d15460405163de71b06760e01b815260048101859052651cb7a0a8a60060248201526001600160a01b03909116925063de71b0679150604401600060405180830381600087803b158015611b2757600080fd5b505af1158015611b3b573d6000803e3d6000fd5b50505050508080611b4b90612514565b915050611a5b565b5060005b600c8110156108a157600081611b6e8560186124fc565b611b7891906124fc565b60d15460405163079cc67960e41b8152336004820152602481018390529192506001600160a01b0316906379cc679090604401600060405180830381600087803b158015611bc557600080fd5b505af1158015611bd9573d6000803e3d6000fd5b50505050508080611be990612514565b915050611b57565b611bf9611182565b6097805460ff191660011790557f62e78cea01bee320cd4e420270b5ea74000d11b0c9f74754ebdbfc544b05a2586119d63390565b600054610100900460ff166111c857600080fd5b600054610100900460ff16611c5657600080fd5b6111c8611dc5565b6108c582826118b4565b60cc80546001600160a01b038089166001600160a01b03199283161790925560cd805488841690831617905560ce805487841690831617905560cf805492861692909116919091179055611cbb82611de5565b60d081905560cd5460405163095ea7b360e01b81526001600160a01b03868116600483015260001960248301529091169063095ea7b390604401600060405180830381600087803b158015611d0f57600080fd5b505af1158015610870573d6000803e3d6000fd5b611d2d8282610b85565b6108c557611d3a81611ed4565b611d45836020611ee6565b604051602001611d569291906127fc565b60408051601f198184030181529082905262461bcd60e51b825261058e91600401612871565b60975460ff166111c85760405162461bcd60e51b815260206004820152601460248201527314185d5cd8589b194e881b9bdd081c185d5cd95960621b604482015260640161058e565b600054610100900460ff16611dd957600080fd5b6097805460ff19169055565b60008190506000816001600160a01b031663c1cc57b06040518163ffffffff1660e01b815260040160006040518083038186803b158015611e2557600080fd5b505afa158015611e39573d6000803e3d6000fd5b505050506040513d6000823e601f3d908101601f19168201604052611e619190810190612884565b905060005b8151811015611ecb57818181518110611e8157611e816124e6565b602090810291909101810151600083815260cb909252604090912080546001600160a01b0319166001600160a01b0390921691909117905580611ec381612514565b915050611e66565b505160ca555050565b60606104bf6001600160a01b03831660145b60606000611ef58360026124c7565b611f009060026124fc565b67ffffffffffffffff811115611f1857611f186120e3565b6040519080825280601f01601f191660200182016040528015611f42576020820181803683370190505b509050600360fc1b81600081518110611f5d57611f5d6124e6565b60200101906001600160f81b031916908160001a905350600f60fb1b81600181518110611f8c57611f8c6124e6565b60200101906001600160f81b031916908160001a9053506000611fb08460026124c7565b611fbb9060016124fc565b90505b6001811115612033576f181899199a1a9b1b9c1cb0b131b232b360811b85600f1660108110611fef57611fef6124e6565b1a60f81b828281518110612005576120056124e6565b60200101906001600160f81b031916908160001a90535060049490941c9361202c8161291e565b9050611fbe565b50831561203f57600080fd5b9392505050565b60006020828403121561205857600080fd5b81356001600160e01b03198116811461203f57600080fd5b6001600160a01b038116811461091457600080fd5b60006020828403121561209757600080fd5b813561203f81612070565b6000806000606084860312156120b757600080fd5b83356120c281612070565b925060208401356120d281612070565b929592945050506040919091013590565b634e487b7160e01b600052604160045260246000fd5b604051601f8201601f1916810167ffffffffffffffff81118282101715612122576121226120e3565b604052919050565b600067ffffffffffffffff821115612144576121446120e3565b5060051b60200190565b600082601f83011261215f57600080fd5b813567ffffffffffffffff811115612179576121796120e3565b61218c601f8201601f19166020016120f9565b8181528460208386010111156121a157600080fd5b816020850160208301376000918101602001919091529392505050565b600080604083850312156121d157600080fd5b823567ffffffffffffffff808211156121e957600080fd5b818501915085601f8301126121fd57600080fd5b8135602061221261220d8361212a565b6120f9565b82815260059290921b8401810191818101908984111561223157600080fd5b8286015b848110156122695780358681111561224d5760008081fd5b61225b8c86838b010161214e565b845250918301918301612235565b509997909101359750505050505050565b60006020828403121561228c57600080fd5b5035919050565b600080604083850312156122a657600080fd5b8235915060208301356122b881612070565b809150509250929050565b600080604083850312156122d657600080fd5b823567ffffffffffffffff808211156122ee57600080fd5b6122fa8683870161214e565b9350602085013591508082111561231057600080fd5b5061231d8582860161214e565b9150509250929050565b6000806040838503121561233a57600080fd5b823561234581612070565b915060208301356122b881612070565b60008060008060008060c0878903121561236e57600080fd5b863561237981612070565b9550602087013561238981612070565b9450604087013561239981612070565b935060608701356123a981612070565b925060808701356123b981612070565b8092505060a087013590509295509295509295565b600080600080608085870312156123e457600080fd5b84356123ef81612070565b935060208501356123ff81612070565b9250604085013561240f81612070565b9150606085013561241f81612070565b939692955090935050565b60006020828403121561243c57600080fd5b8151801515811461203f57600080fd5b6020808252602c908201527f426b446e614d61737465723a20696e76616c696420636f6c6c656374696f6e2060408201526b0dcc2dacae640d8cadccee8d60a31b606082015260800190565b6000602082840312156124aa57600080fd5b5051919050565b634e487b7160e01b600052601160045260246000fd5b60008160001904831182151516156124e1576124e16124b1565b500290565b634e487b7160e01b600052603260045260246000fd5b6000821982111561250f5761250f6124b1565b500190565b6000600019821415612528576125286124b1565b5060010190565b60008261254c57634e487b7160e01b600052601260045260246000fd5b500490565b600081518084526020808501945080840160005b8381101561258157815187529582019590820190600101612565565b509495945050505050565b60018060a01b03841681528260208201526060604082015260006125b36060830184612551565b95945050505050565b60005b838110156125d75781810151838201526020016125bf565b83811115610b5f5750506000910152565b600081518084526126008160208601602086016125bc565b601f01601f19169290920160200192915050565b60018060a01b038316815260406020820152815160408201526000602083015161018080606085015261264b6101c08501836125e8565b91506040850151603f198086850301608087015261266984836125e8565b93506060870151915061268760a08701836001600160a01b03169052565b608087015160c087015260a087015160e087015260c08701519150610100828188015260e08801519250610120838189015281890151935061014091508288870301828901526126d78685612551565b9550808901519350506101608288870301818901526126f68685612551565b95508189015193508288870301858901526127118685612551565b95508089015194505050505061272c6101a085018215159052565b50949350505050565b60006020808301818452808551808352604092508286019150828160051b87010184880160005b838110156127cd57603f19898403018552815160808151855288820151818a87015261278a828701826125e8565b838a01516001600160a01b0316878b01526060938401518782039488019490945291506127b990508183612551565b96890196945050509086019060010161275c565b509098975050505050505050565b8281526040602082015260006127f46040830184612551565b949350505050565b7f416363657373436f6e74726f6c3a206163636f756e74200000000000000000008152600083516128348160178501602088016125bc565b7001034b99036b4b9b9b4b733903937b6329607d1b60179184019182015283516128658160288401602088016125bc565b01602801949350505050565b60208152600061203f60208301846125e8565b6000602080838503121561289757600080fd5b825167ffffffffffffffff8111156128ae57600080fd5b8301601f810185136128bf57600080fd5b80516128cd61220d8261212a565b81815260059190911b820183019083810190878311156128ec57600080fd5b928401925b8284101561291357835161290481612070565b825292840192908401906128f1565b979650505050505050565b60008161292d5761292d6124b1565b50600019019056fe97667070c54ef182b0f5858b034beac1b6f3089aa2d3188bb1e8929f4fa9b929a26469706673582212205c5e976300c753cd7427ec8e9d16ae3345f131a4f5abe06ff0c9f21900e9fff664736f6c63430008090033",
  "linkReferences": {},
  "deployedLinkReferences": {}
}