{
  "_format": "hh-sol-artifact-1",
  "contractName": "ExternalERC20",
  "sourceName": "contracts/erc20/ExternalERC20.sol",
  "abi": [
    {
      "anonymous": false,
      "inputs": [
        {
          "indexed": true,
          "internalType": "address",
          "name": "owner",
          "type": "address"
        },
        {
          "indexed": true,
          "internalType": "address",
          "name": "spender",
          "type": "address"
        },
        {
          "indexed": false,
          "internalType": "uint256",
          "name": "value",
          "type": "uint256"
        }
      ],
      "name": "Approval",
      "type": "event"
    },
    {
      "anonymous": false,
      "inputs": [
        {
          "indexed": true,
          "internalType": "uint256",
          "name": "fromChainId",
          "type": "uint256"
        },
        {
          "indexed": true,
          "internalType": "address",
          "name": "fromAddress",
          "type": "address"
        },
        {
          "indexed": true,
          "internalType": "address",
          "name": "toAddress",
          "type": "address"
        },
        {
          "indexed": false,
          "internalType": "uint256",
          "name": "amount",
          "type": "uint256"
        }
      ],
      "name": "BridgeFromChain",
      "type": "event"
    },
    {
      "anonymous": false,
      "inputs": [
        {
          "indexed": true,
          "internalType": "uint256",
          "name": "toChainId",
          "type": "uint256"
        },
        {
          "indexed": true,
          "internalType": "address",
          "name": "fromAddress",
          "type": "address"
        },
        {
          "indexed": true,
          "internalType": "address",
          "name": "toAddress",
          "type": "address"
        },
        {
          "indexed": false,
          "internalType": "uint256",
          "name": "amount",
          "type": "uint256"
        }
      ],
      "name": "BridgeToChain",
      "type": "event"
    },
    {
      "anonymous": false,
      "inputs": [
        {
          "indexed": false,
          "internalType": "uint8",
          "name": "version",
          "type": "uint8"
        }
      ],
      "name": "Initialized",
      "type": "event"
    },
    {
      "anonymous": false,
      "inputs": [
        {
          "indexed": false,
          "internalType": "address",
          "name": "account",
          "type": "address"
        }
      ],
      "name": "Paused",
      "type": "event"
    },
    {
      "anonymous": false,
      "inputs": [
        {
          "indexed": true,
          "internalType": "bytes32",
          "name": "role",
          "type": "bytes32"
        },
        {
          "indexed": true,
          "internalType": "bytes32",
          "name": "previousAdminRole",
          "type": "bytes32"
        },
        {
          "indexed": true,
          "internalType": "bytes32",
          "name": "newAdminRole",
          "type": "bytes32"
        }
      ],
      "name": "RoleAdminChanged",
      "type": "event"
    },
    {
      "anonymous": false,
      "inputs": [
        {
          "indexed": true,
          "internalType": "bytes32",
          "name": "role",
          "type": "bytes32"
        },
        {
          "indexed": true,
          "internalType": "address",
          "name": "account",
          "type": "address"
        },
        {
          "indexed": true,
          "internalType": "address",
          "name": "sender",
          "type": "address"
        }
      ],
      "name": "RoleGranted",
      "type": "event"
    },
    {
      "anonymous": false,
      "inputs": [
        {
          "indexed": true,
          "internalType": "bytes32",
          "name": "role",
          "type": "bytes32"
        },
        {
          "indexed": true,
          "internalType": "address",
          "name": "account",
          "type": "address"
        },
        {
          "indexed": true,
          "internalType": "address",
          "name": "sender",
          "type": "address"
        }
      ],
      "name": "RoleRevoked",
      "type": "event"
    },
    {
      "anonymous": false,
      "inputs": [
        {
          "indexed": true,
          "internalType": "address",
          "name": "from",
          "type": "address"
        },
        {
          "indexed": true,
          "internalType": "address",
          "name": "to",
          "type": "address"
        },
        {
          "indexed": false,
          "internalType": "uint256",
          "name": "value",
          "type": "uint256"
        }
      ],
      "name": "Transfer",
      "type": "event"
    },
    {
      "anonymous": false,
      "inputs": [
        {
          "indexed": false,
          "internalType": "address",
          "name": "account",
          "type": "address"
        }
      ],
      "name": "Unpaused",
      "type": "event"
    },
    {
      "inputs": [],
      "name": "DEFAULT_ADMIN_ROLE",
      "outputs": [
        {
          "internalType": "bytes32",
          "name": "",
          "type": "bytes32"
        }
      ],
      "stateMutability": "view",
      "type": "function"
    },
    {
      "inputs": [
        {
          "internalType": "string",
          "name": "_name",
          "type": "string"
        },
        {
          "internalType": "string",
          "name": "_symbol",
          "type": "string"
        },
        {
          "internalType": "address",
          "name": "_operator",
          "type": "address"
        },
        {
          "internalType": "uint256",
          "name": "_totalSupply",
          "type": "uint256"
        },
        {
          "internalType": "address",
          "name": "_blocklistAddress",
          "type": "address"
        },
        {
          "internalType": "uint256",
          "name": "_originChainId",
          "type": "uint256"
        }
      ],
      "name": "__AdminUpBridgeERC20_init",
      "outputs": [],
      "stateMutability": "nonpayable",
      "type": "function"
    },
    {
      "inputs": [
        {
          "internalType": "address",
          "name": "owner",
          "type": "address"
        },
        {
          "internalType": "address",
          "name": "spender",
          "type": "address"
        }
      ],
      "name": "allowance",
      "outputs": [
        {
          "internalType": "uint256",
          "name": "",
          "type": "uint256"
        }
      ],
      "stateMutability": "view",
      "type": "function"
    },
    {
      "inputs": [
        {
          "internalType": "address",
          "name": "spender",
          "type": "address"
        },
        {
          "internalType": "uint256",
          "name": "amount",
          "type": "uint256"
        }
      ],
      "name": "approve",
      "outputs": [
        {
          "internalType": "bool",
          "name": "",
          "type": "bool"
        }
      ],
      "stateMutability": "nonpayable",
      "type": "function"
    },
    {
      "inputs": [
        {
          "internalType": "address",
          "name": "account",
          "type": "address"
        }
      ],
      "name": "balanceOf",
      "outputs": [
        {
          "internalType": "uint256",
          "name": "",
          "type": "uint256"
        }
      ],
      "stateMutability": "view",
      "type": "function"
    },
    {
      "inputs": [],
      "name": "basicData",
      "outputs": [
        {
          "internalType": "string",
          "name": "",
          "type": "string"
        },
        {
          "internalType": "string",
          "name": "",
          "type": "string"
        },
        {
          "internalType": "uint256",
          "name": "",
          "type": "uint256"
        },
        {
          "internalType": "uint256",
          "name": "",
          "type": "uint256"
        }
      ],
      "stateMutability": "view",
      "type": "function"
    },
    {
      "inputs": [],
      "name": "blocklist",
      "outputs": [
        {
          "internalType": "contract IBlocklist",
          "name": "",
          "type": "address"
        }
      ],
      "stateMutability": "view",
      "type": "function"
    },
    {
      "inputs": [
        {
          "internalType": "uint256",
          "name": "fromChainId",
          "type": "uint256"
        },
        {
          "internalType": "address",
          "name": "fromAddress",
          "type": "address"
        },
        {
          "internalType": "address",
          "name": "toAddress",
          "type": "address"
        },
        {
          "internalType": "uint256",
          "name": "amount",
          "type": "uint256"
        }
      ],
      "name": "bridgeFromChain",
      "outputs": [],
      "stateMutability": "nonpayable",
      "type": "function"
    },
    {
      "inputs": [
        {
          "internalType": "uint256",
          "name": "toChainId",
          "type": "uint256"
        },
        {
          "internalType": "address",
          "name": "fromAddress",
          "type": "address"
        },
        {
          "internalType": "address",
          "name": "toAddress",
          "type": "address"
        },
        {
          "internalType": "uint256",
          "name": "amount",
          "type": "uint256"
        }
      ],
      "name": "bridgeToChain",
      "outputs": [],
      "stateMutability": "nonpayable",
      "type": "function"
    },
    {
      "inputs": [
        {
          "internalType": "uint256",
          "name": "amount",
          "type": "uint256"
        }
      ],
      "name": "burn",
      "outputs": [],
      "stateMutability": "nonpayable",
      "type": "function"
    },
    {
      "inputs": [
        {
          "internalType": "address",
          "name": "account",
          "type": "address"
        },
        {
          "internalType": "uint256",
          "name": "amount",
          "type": "uint256"
        }
      ],
      "name": "burnFrom",
      "outputs": [],
      "stateMutability": "nonpayable",
      "type": "function"
    },
    {
      "inputs": [],
      "name": "decimals",
      "outputs": [
        {
          "internalType": "uint8",
          "name": "",
          "type": "uint8"
        }
      ],
      "stateMutability": "view",
      "type": "function"
    },
    {
      "inputs": [
        {
          "internalType": "address",
          "name": "spender",
          "type": "address"
        },
        {
          "internalType": "uint256",
          "name": "subtractedValue",
          "type": "uint256"
        }
      ],
      "name": "decreaseAllowance",
      "outputs": [
        {
          "internalType": "bool",
          "name": "",
          "type": "bool"
        }
      ],
      "stateMutability": "nonpayable",
      "type": "function"
    },
    {
      "inputs": [
        {
          "internalType": "bytes32",
          "name": "role",
          "type": "bytes32"
        }
      ],
      "name": "getRoleAdmin",
      "outputs": [
        {
          "internalType": "bytes32",
          "name": "",
          "type": "bytes32"
        }
      ],
      "stateMutability": "view",
      "type": "function"
    },
    {
      "inputs": [
        {
          "internalType": "bytes32",
          "name": "role",
          "type": "bytes32"
        },
        {
          "internalType": "address",
          "name": "account",
          "type": "address"
        }
      ],
      "name": "grantRole",
      "outputs": [],
      "stateMutability": "nonpayable",
      "type": "function"
    },
    {
      "inputs": [],
      "name": "hasBlocklist",
      "outputs": [
        {
          "internalType": "bool",
          "name": "",
          "type": "bool"
        }
      ],
      "stateMutability": "view",
      "type": "function"
    },
    {
      "inputs": [
        {
          "internalType": "bytes32",
          "name": "role",
          "type": "bytes32"
        },
        {
          "internalType": "address",
          "name": "account",
          "type": "address"
        }
      ],
      "name": "hasRole",
      "outputs": [
        {
          "internalType": "bool",
          "name": "",
          "type": "bool"
        }
      ],
      "stateMutability": "view",
      "type": "function"
    },
    {
      "inputs": [
        {
          "internalType": "address",
          "name": "spender",
          "type": "address"
        },
        {
          "internalType": "uint256",
          "name": "addedValue",
          "type": "uint256"
        }
      ],
      "name": "increaseAllowance",
      "outputs": [
        {
          "internalType": "bool",
          "name": "",
          "type": "bool"
        }
      ],
      "stateMutability": "nonpayable",
      "type": "function"
    },
    {
      "inputs": [
        {
          "internalType": "string",
          "name": "_name",
          "type": "string"
        },
        {
          "internalType": "string",
          "name": "_symbol",
          "type": "string"
        },
        {
          "internalType": "address",
          "name": "_operator",
          "type": "address"
        },
        {
          "internalType": "uint256",
          "name": "_totalSupply",
          "type": "uint256"
        },
        {
          "internalType": "address",
          "name": "_blocklistAddress",
          "type": "address"
        },
        {
          "internalType": "uint256",
          "name": "_originChainId",
          "type": "uint256"
        }
      ],
      "name": "initialize",
      "outputs": [],
      "stateMutability": "nonpayable",
      "type": "function"
    },
    {
      "inputs": [
        {
          "internalType": "address",
          "name": "to",
          "type": "address"
        },
        {
          "internalType": "uint256",
          "name": "amount",
          "type": "uint256"
        }
      ],
      "name": "mint",
      "outputs": [],
      "stateMutability": "nonpayable",
      "type": "function"
    },
    {
      "inputs": [],
      "name": "name",
      "outputs": [
        {
          "internalType": "string",
          "name": "",
          "type": "string"
        }
      ],
      "stateMutability": "view",
      "type": "function"
    },
    {
      "inputs": [],
      "name": "originChainId",
      "outputs": [
        {
          "internalType": "uint256",
          "name": "",
          "type": "uint256"
        }
      ],
      "stateMutability": "view",
      "type": "function"
    },
    {
      "inputs": [],
      "name": "pause",
      "outputs": [],
      "stateMutability": "nonpayable",
      "type": "function"
    },
    {
      "inputs": [],
      "name": "paused",
      "outputs": [
        {
          "internalType": "bool",
          "name": "",
          "type": "bool"
        }
      ],
      "stateMutability": "view",
      "type": "function"
    },
    {
      "inputs": [
        {
          "internalType": "bytes32",
          "name": "role",
          "type": "bytes32"
        },
        {
          "internalType": "address",
          "name": "account",
          "type": "address"
        }
      ],
      "name": "renounceRole",
      "outputs": [],
      "stateMutability": "nonpayable",
      "type": "function"
    },
    {
      "inputs": [
        {
          "internalType": "bytes32",
          "name": "role",
          "type": "bytes32"
        },
        {
          "internalType": "address",
          "name": "account",
          "type": "address"
        }
      ],
      "name": "revokeRole",
      "outputs": [],
      "stateMutability": "nonpayable",
      "type": "function"
    },
    {
      "inputs": [
        {
          "internalType": "bytes4",
          "name": "interfaceId",
          "type": "bytes4"
        }
      ],
      "name": "supportsInterface",
      "outputs": [
        {
          "internalType": "bool",
          "name": "",
          "type": "bool"
        }
      ],
      "stateMutability": "view",
      "type": "function"
    },
    {
      "inputs": [],
      "name": "symbol",
      "outputs": [
        {
          "internalType": "string",
          "name": "",
          "type": "string"
        }
      ],
      "stateMutability": "view",
      "type": "function"
    },
    {
      "inputs": [],
      "name": "totalSupply",
      "outputs": [
        {
          "internalType": "uint256",
          "name": "",
          "type": "uint256"
        }
      ],
      "stateMutability": "view",
      "type": "function"
    },
    {
      "inputs": [
        {
          "internalType": "address",
          "name": "to",
          "type": "address"
        },
        {
          "internalType": "uint256",
          "name": "amount",
          "type": "uint256"
        }
      ],
      "name": "transfer",
      "outputs": [
        {
          "internalType": "bool",
          "name": "",
          "type": "bool"
        }
      ],
      "stateMutability": "nonpayable",
      "type": "function"
    },
    {
      "inputs": [
        {
          "internalType": "address",
          "name": "from",
          "type": "address"
        },
        {
          "internalType": "address",
          "name": "to",
          "type": "address"
        },
        {
          "internalType": "uint256",
          "name": "amount",
          "type": "uint256"
        }
      ],
      "name": "transferFrom",
      "outputs": [
        {
          "internalType": "bool",
          "name": "",
          "type": "bool"
        }
      ],
      "stateMutability": "nonpayable",
      "type": "function"
    },
    {
      "inputs": [],
      "name": "unpause",
      "outputs": [],
      "stateMutability": "nonpayable",
      "type": "function"
    }
  ],
  "bytecode": "0x608060405234801561001057600080fd5b50611e3e806100206000396000f3fe608060405234801561001057600080fd5b50600436106101f05760003560e01c80634becde251161010f578063a217fddf116100a2578063be9561f011610071578063be9561f014610411578063d547741f14610424578063d64e539614610437578063dd62ed3e1461046357600080fd5b8063a217fddf146103cb578063a457c2d7146103d3578063a9059cbb146103e6578063b52dc120146103f957600080fd5b806379cc6790116100de57806379cc6790146103955780638456cb59146103a857806391d14854146103b057806395d89b41146103c357600080fd5b80634becde25146103395780635c975abb1461034c578063634210f41461035757806370a082311461036c57600080fd5b80632f2ff15d116101875780633c063881116101565780633c063881146102f85780633f4ba83a1461030b57806340c10f191461031357806342966c681461032657600080fd5b80632f2ff15d146102b0578063313ce567146102c357806336568abe146102d257806339509351146102e557600080fd5b80630c42e87a116101c35780630c42e87a1461025d57806318160ddd1461027257806323b872dd1461027a578063248a9ca31461028d57600080fd5b806301ffc9a7146101f557806306fdde031461021d578063095ea7b3146102325780630ac7f56114610245575b600080fd5b610208610203366004611919565b610476565b60405190151581526020015b60405180910390f35b6102256104ad565b604051610214919061199b565b6102086102403660046119ca565b61053f565b61024f6101605481565b604051908152602001610214565b61027061026b3660046119f4565b610557565b005b60355461024f565b610208610288366004611a38565b61064b565b61024f61029b366004611a74565b600090815260c9602052604090206001015490565b6102706102be366004611a8d565b61066f565b60405160128152602001610214565b6102706102e0366004611a8d565b610699565b6102086102f33660046119ca565b610717565b6102706103063660046119f4565b610739565b610270610815565b6102706103213660046119ca565b610852565b610270610334366004611a74565b6108a1565b610270610347366004611b5c565b6108ab565b60fb5460ff16610208565b61015f5461020890600160a01b900460ff1681565b61024f61037a366004611bf3565b6001600160a01b031660009081526033602052604090205490565b6102706103a33660046119ca565b6108ea565b6102706108ff565b6102086103be366004611a8d565b610939565b610225610964565b61024f600081565b6102086103e13660046119ca565b610973565b6102086103f43660046119ca565b6109ee565b6104016109fc565b6040516102149493929190611c0e565b61027061041f366004611b5c565b610a25565b610270610432366004611a8d565b610b42565b61015f5461044b906001600160a01b031681565b6040516001600160a01b039091168152602001610214565b61024f610471366004611c47565b610b67565b60006001600160e01b03198216637965db0b60e01b14806104a757506301ffc9a760e01b6001600160e01b03198316145b92915050565b6060603680546104bc90611c71565b80601f01602080910402602001604051908101604052809291908181526020018280546104e890611c71565b80156105355780601f1061050a57610100808354040283529160200191610535565b820191906000526020600020905b81548152906001019060200180831161051857829003601f168201915b5050505050905090565b60003361054d818585610b92565b5060019392505050565b7f52ba824bfabc2bcfcdf7f0edbb486ebb05e1836c90e78047efeb949990f72e5f61058181610cb6565b610589610cc0565b610591610d08565b6101605485146105e15760405162461bcd60e51b815260206004820152601660248201527527b7363c90333937b69037b934b3b4b71031b430b4b760511b60448201526064015b60405180910390fd5b6105eb8383610d64565b826001600160a01b0316846001600160a01b0316867f23c60fff86958d58a60d3885c843af7ba0932de44c53840dc0416d02ba51eb108560405161063191815260200190565b60405180910390a4610644600161012d55565b5050505050565b600033610659858285610e39565b610664858585610eb3565b506001949350505050565b600082815260c9602052604090206001015461068a81610cb6565b6106948383611069565b505050565b6001600160a01b03811633146107095760405162461bcd60e51b815260206004820152602f60248201527f416363657373436f6e74726f6c3a2063616e206f6e6c792072656e6f756e636560448201526e103937b632b9903337b91039b2b63360891b60648201526084016105d8565b61071382826110ef565b5050565b60003361054d81858561072a8383610b67565b6107349190611cc2565b610b92565b7f52ba824bfabc2bcfcdf7f0edbb486ebb05e1836c90e78047efeb949990f72e5f61076381610cb6565b61076b610cc0565b610773610d08565b6101605485146107c55760405162461bcd60e51b815260206004820152601960248201527f4f6e6c79206261636b20746f206f726967696e20636861696e0000000000000060448201526064016105d8565b6107cf8483611156565b826001600160a01b0316846001600160a01b0316867f99d2ae2789599f6561a30a0bcbf7a6f298aac89ab3e62bee2a16b451c6a05c798560405161063191815260200190565b7f97667070c54ef182b0f5858b034beac1b6f3089aa2d3188bb1e8929f4fa9b92961083f81610cb6565b610847611296565b61084f6112df565b50565b7f9f2df0fed2c77648de5860a4cc508cd0818c85b8b8a1ab4ceeef8d981c8956a661087c81610cb6565b610884610cc0565b61088c610d08565b6108968383610d64565b610694600161012d55565b61084f3382611156565b600054610100900460ff166108d25760405162461bcd60e51b81526004016105d890611cda565b6108df8686868686611331565b610160555050505050565b6108f5823383610e39565b6107138282611156565b7f97667070c54ef182b0f5858b034beac1b6f3089aa2d3188bb1e8929f4fa9b92961092981610cb6565b610931610cc0565b61084f6113e3565b600091825260c9602090815260408084206001600160a01b0393909316845291905290205460ff1690565b6060603780546104bc90611c71565b600033816109818286610b67565b9050838110156109e15760405162461bcd60e51b815260206004820152602560248201527f45524332303a2064656372656173656420616c6c6f77616e63652062656c6f77604482015264207a65726f60d81b60648201526084016105d8565b6106648286868403610b92565b60003361054d818585610eb3565b606080600080610a0a6104ad565b610a12610964565b6035549196909550601294509092509050565b600054610100900460ff1615808015610a455750600054600160ff909116105b80610a5f5750303b158015610a5f575060005460ff166001145b610ac25760405162461bcd60e51b815260206004820152602e60248201527f496e697469616c697a61626c653a20636f6e747261637420697320616c72656160448201526d191e481a5b9a5d1a585b1a5e995960921b60648201526084016105d8565b6000805460ff191660011790558015610ae5576000805461ff0019166101001790555b610af38787878787876108ab565b8015610b39576000805461ff0019169055604051600181527f7f26b83ff96e1f2b6a682f133852f6798a09c465da95921460cefb38474024989060200160405180910390a15b50505050505050565b600082815260c96020526040902060010154610b5d81610cb6565b61069483836110ef565b6001600160a01b03918216600090815260346020908152604080832093909416825291909152205490565b6001600160a01b038316610bf45760405162461bcd60e51b8152602060048201526024808201527f45524332303a20617070726f76652066726f6d20746865207a65726f206164646044820152637265737360e01b60648201526084016105d8565b6001600160a01b038216610c555760405162461bcd60e51b815260206004820152602260248201527f45524332303a20617070726f766520746f20746865207a65726f206164647265604482015261737360f01b60648201526084016105d8565b6001600160a01b0383811660008181526034602090815260408083209487168084529482529182902085905590518481527f8c5be1e5ebec7d5bd14f71427d1e84f3dd0314c0f7b2291e5b200ac8c7c3b925910160405180910390a3505050565b61084f8133611420565b60fb5460ff1615610d065760405162461bcd60e51b815260206004820152601060248201526f14185d5cd8589b194e881c185d5cd95960821b60448201526064016105d8565b565b600261012d541415610d5c5760405162461bcd60e51b815260206004820152601f60248201527f5265656e7472616e637947756172643a207265656e7472616e742063616c6c0060448201526064016105d8565b600261012d55565b6001600160a01b038216610dba5760405162461bcd60e51b815260206004820152601f60248201527f45524332303a206d696e7420746f20746865207a65726f20616464726573730060448201526064016105d8565b610dc660008383611479565b8060356000828254610dd89190611cc2565b90915550506001600160a01b0382166000818152603360209081526040808320805486019055518481527fddf252ad1be2c89b69c2b068fc378daa952ba7f163c4a11628f55a4df523b3ef910160405180910390a35050565b600161012d55565b6000610e458484610b67565b90506000198114610ead5781811015610ea05760405162461bcd60e51b815260206004820152601d60248201527f45524332303a20696e73756666696369656e7420616c6c6f77616e636500000060448201526064016105d8565b610ead8484848403610b92565b50505050565b6001600160a01b038316610f175760405162461bcd60e51b815260206004820152602560248201527f45524332303a207472616e736665722066726f6d20746865207a65726f206164604482015264647265737360d81b60648201526084016105d8565b6001600160a01b038216610f795760405162461bcd60e51b815260206004820152602360248201527f45524332303a207472616e7366657220746f20746865207a65726f206164647260448201526265737360e81b60648201526084016105d8565b610f84838383611479565b6001600160a01b03831660009081526033602052604090205481811015610ffc5760405162461bcd60e51b815260206004820152602660248201527f45524332303a207472616e7366657220616d6f756e7420657863656564732062604482015265616c616e636560d01b60648201526084016105d8565b6001600160a01b0380851660008181526033602052604080822086860390559286168082529083902080548601905591517fddf252ad1be2c89b69c2b068fc378daa952ba7f163c4a11628f55a4df523b3ef9061105c9086815260200190565b60405180910390a3610ead565b6110738282610939565b61071357600082815260c9602090815260408083206001600160a01b03851684529091529020805460ff191660011790556110ab3390565b6001600160a01b0316816001600160a01b0316837f2f8788117e7eff1d82e926ec794901d17c78024a50270940304540a733656f0d60405160405180910390a45050565b6110f98282610939565b1561071357600082815260c9602090815260408083206001600160a01b0385168085529252808320805460ff1916905551339285917ff6391f5c32d9c69d2a47ea670b442974b53935d1edc7fd64eb21e047a839171b9190a45050565b6001600160a01b0382166111b65760405162461bcd60e51b815260206004820152602160248201527f45524332303a206275726e2066726f6d20746865207a65726f206164647265736044820152607360f81b60648201526084016105d8565b6111c282600083611479565b6001600160a01b038216600090815260336020526040902054818110156112365760405162461bcd60e51b815260206004820152602260248201527f45524332303a206275726e20616d6f756e7420657863656564732062616c616e604482015261636560f01b60648201526084016105d8565b6001600160a01b03831660008181526033602090815260408083208686039055603580548790039055518581529192917fddf252ad1be2c89b69c2b068fc378daa952ba7f163c4a11628f55a4df523b3ef910160405180910390a3505050565b60fb5460ff16610d065760405162461bcd60e51b815260206004820152601460248201527314185d5cd8589b194e881b9bdd081c185d5cd95960621b60448201526064016105d8565b6112e7611296565b60fb805460ff191690557f5db9ee0a495bf2e6ff9c91a7834c1ba4fdd244a5e8aa4e537bd38aeae4b073aa335b6040516001600160a01b03909116815260200160405180910390a1565b600054610100900460ff166113585760405162461bcd60e51b81526004016105d890611cda565b61136285856114e7565b61136a611518565b611372611547565b61139e8161015f80546001600160a81b0319166001600160a01b0390921691909117600160a01b179055565b6113a9600084611576565b6113d37f97667070c54ef182b0f5858b034beac1b6f3089aa2d3188bb1e8929f4fa9b92984611576565b8115610644576106448383610d64565b6113eb610cc0565b60fb805460ff191660011790557f62e78cea01bee320cd4e420270b5ea74000d11b0c9f74754ebdbfc544b05a2586113143390565b61142a8282610939565b6107135761143781611580565b611442836020611592565b604051602001611453929190611d25565b60408051601f198184030181529082905262461bcd60e51b82526105d89160040161199b565b611481610cc0565b61148b8383611735565b156106945760405162461bcd60e51b815260206004820152602660248201527f53656e64657220616e642f6f7220726563697069656e7420697320626c6f636b6044820152651b1a5cdd195960d21b60648201526084016105d8565b600054610100900460ff1661150e5760405162461bcd60e51b81526004016105d890611cda565b61071382826117d8565b600054610100900460ff1661153f5760405162461bcd60e51b81526004016105d890611cda565b610d06611826565b600054610100900460ff1661156e5760405162461bcd60e51b81526004016105d890611cda565b610d06611859565b6107138282611069565b60606104a76001600160a01b03831660145b606060006115a1836002611d9a565b6115ac906002611cc2565b67ffffffffffffffff8111156115c4576115c4611ab9565b6040519080825280601f01601f1916602001820160405280156115ee576020820181803683370190505b509050600360fc1b8160008151811061160957611609611db9565b60200101906001600160f81b031916908160001a905350600f60fb1b8160018151811061163857611638611db9565b60200101906001600160f81b031916908160001a905350600061165c846002611d9a565b611667906001611cc2565b90505b60018111156116df576f181899199a1a9b1b9c1cb0b131b232b360811b85600f166010811061169b5761169b611db9565b1a60f81b8282815181106116b1576116b1611db9565b60200101906001600160f81b031916908160001a90535060049490941c936116d881611dcf565b905061166a565b50831561172e5760405162461bcd60e51b815260206004820181905260248201527f537472696e67733a20686578206c656e67746820696e73756666696369656e7460448201526064016105d8565b9392505050565b61015f54600090600160a01b900460ff16611752575060006104a7565b61015f5460405163257128dd60e21b81526001600160a01b0385811660048301528481166024830152909116906395c4a3749060440160206040518083038186803b1580156117a057600080fd5b505afa1580156117b4573d6000803e3d6000fd5b505050506040513d601f19601f8201168201806040525081019061172e9190611de6565b600054610100900460ff166117ff5760405162461bcd60e51b81526004016105d890611cda565b8151611812906036906020850190611880565b508051610694906037906020840190611880565b600054610100900460ff1661184d5760405162461bcd60e51b81526004016105d890611cda565b60fb805460ff19169055565b600054610100900460ff16610e315760405162461bcd60e51b81526004016105d890611cda565b82805461188c90611c71565b90600052602060002090601f0160209004810192826118ae57600085556118f4565b82601f106118c757805160ff19168380011785556118f4565b828001600101855582156118f4579182015b828111156118f45782518255916020019190600101906118d9565b50611900929150611904565b5090565b5b808211156119005760008155600101611905565b60006020828403121561192b57600080fd5b81356001600160e01b03198116811461172e57600080fd5b60005b8381101561195e578181015183820152602001611946565b83811115610ead5750506000910152565b60008151808452611987816020860160208601611943565b601f01601f19169290920160200192915050565b60208152600061172e602083018461196f565b80356001600160a01b03811681146119c557600080fd5b919050565b600080604083850312156119dd57600080fd5b6119e6836119ae565b946020939093013593505050565b60008060008060808587031215611a0a57600080fd5b84359350611a1a602086016119ae565b9250611a28604086016119ae565b9396929550929360600135925050565b600080600060608486031215611a4d57600080fd5b611a56846119ae565b9250611a64602085016119ae565b9150604084013590509250925092565b600060208284031215611a8657600080fd5b5035919050565b60008060408385031215611aa057600080fd5b82359150611ab0602084016119ae565b90509250929050565b634e487b7160e01b600052604160045260246000fd5b600082601f830112611ae057600080fd5b813567ffffffffffffffff80821115611afb57611afb611ab9565b604051601f8301601f19908116603f01168101908282118183101715611b2357611b23611ab9565b81604052838152866020858801011115611b3c57600080fd5b836020870160208301376000602085830101528094505050505092915050565b60008060008060008060c08789031215611b7557600080fd5b863567ffffffffffffffff80821115611b8d57600080fd5b611b998a838b01611acf565b97506020890135915080821115611baf57600080fd5b50611bbc89828a01611acf565b955050611bcb604088016119ae565b935060608701359250611be0608088016119ae565b915060a087013590509295509295509295565b600060208284031215611c0557600080fd5b61172e826119ae565b608081526000611c21608083018761196f565b8281036020840152611c33818761196f565b604084019590955250506060015292915050565b60008060408385031215611c5a57600080fd5b611c63836119ae565b9150611ab0602084016119ae565b600181811c90821680611c8557607f821691505b60208210811415611ca657634e487b7160e01b600052602260045260246000fd5b50919050565b634e487b7160e01b600052601160045260246000fd5b60008219821115611cd557611cd5611cac565b500190565b6020808252602b908201527f496e697469616c697a61626c653a20636f6e7472616374206973206e6f74206960408201526a6e697469616c697a696e6760a81b606082015260800190565b7f416363657373436f6e74726f6c3a206163636f756e7420000000000000000000815260008351611d5d816017850160208801611943565b7001034b99036b4b9b9b4b733903937b6329607d1b6017918401918201528351611d8e816028840160208801611943565b01602801949350505050565b6000816000190483118215151615611db457611db4611cac565b500290565b634e487b7160e01b600052603260045260246000fd5b600081611dde57611dde611cac565b506000190190565b600060208284031215611df857600080fd5b8151801515811461172e57600080fdfea2646970667358221220a8f0b746bd7eb312a31954e221d37074aba8f57a09320e35a4f0a5d468d6634064736f6c63430008090033",
  "linkReferences": {},
  "deployedLinkReferences": {}
}