{
  "_format": "hh-sol-artifact-1",
  "contractName": "Blocklist",
  "sourceName": "contracts/features/Blocklist.sol",
  "abi": [
    {
      "inputs": [],
      "payable": false,
      "stateMutability": "nonpayable",
      "type": "constructor"
    },
    {
      "anonymous": false,
      "inputs": [
        {
          "indexed": true,
          "internalType": "address",
          "name": "account",
          "type": "address"
        },
        {
          "indexed": false,
          "internalType": "address",
          "name": "by",
          "type": "address"
        }
      ],
      "name": "addedToBlocklist",
      "type": "event"
    },
    {
      "anonymous": false,
      "inputs": [
        {
          "indexed": true,
          "internalType": "address",
          "name": "account",
          "type": "address"
        },
        {
          "indexed": false,
          "internalType": "address",
          "name": "by",
          "type": "address"
        }
      ],
      "name": "removedFromBlocklist",
      "type": "event"
    },
    {
      "constant": false,
      "inputs": [
        {
          "internalType": "address",
          "name": "account",
          "type": "address"
        }
      ],
      "name": "addToBlocklist",
      "outputs": [
        {
          "internalType": "bool",
          "name": "",
          "type": "bool"
        }
      ],
      "payable": false,
      "stateMutability": "nonpayable",
      "type": "function"
    },
    {
      "constant": true,
      "inputs": [
        {
          "internalType": "address",
          "name": "accountA",
          "type": "address"
        },
        {
          "internalType": "address",
          "name": "accountB",
          "type": "address"
        }
      ],
      "name": "areBlocklisted",
      "outputs": [
        {
          "internalType": "bool",
          "name": "",
          "type": "bool"
        }
      ],
      "payable": false,
      "stateMutability": "view",
      "type": "function"
    },
    {
      "constant": false,
      "inputs": [
        {
          "internalType": "address[]",
          "name": "accounts",
          "type": "address[]"
        }
      ],
      "name": "batchAddToBlocklist",
      "outputs": [],
      "payable": false,
      "stateMutability": "nonpayable",
      "type": "function"
    },
    {
      "constant": false,
      "inputs": [
        {
          "internalType": "address[]",
          "name": "accounts",
          "type": "address[]"
        }
      ],
      "name": "batchRemoveFromBlocklist",
      "outputs": [],
      "payable": false,
      "stateMutability": "nonpayable",
      "type": "function"
    },
    {
      "constant": true,
      "inputs": [],
      "name": "getFullList",
      "outputs": [
        {
          "internalType": "address[]",
          "name": "",
          "type": "address[]"
        }
      ],
      "payable": false,
      "stateMutability": "view",
      "type": "function"
    },
    {
      "constant": true,
      "inputs": [
        {
          "internalType": "address",
          "name": "account",
          "type": "address"
        }
      ],
      "name": "isBlocklisted",
      "outputs": [
        {
          "internalType": "bool",
          "name": "",
          "type": "bool"
        }
      ],
      "payable": false,
      "stateMutability": "view",
      "type": "function"
    },
    {
      "constant": true,
      "inputs": [
        {
          "internalType": "address",
          "name": "",
          "type": "address"
        }
      ],
      "name": "operators",
      "outputs": [
        {
          "internalType": "bool",
          "name": "",
          "type": "bool"
        }
      ],
      "payable": false,
      "stateMutability": "view",
      "type": "function"
    },
    {
      "constant": false,
      "inputs": [
        {
          "internalType": "address",
          "name": "account",
          "type": "address"
        }
      ],
      "name": "removeFromBlocklist",
      "outputs": [
        {
          "internalType": "bool",
          "name": "",
          "type": "bool"
        }
      ],
      "payable": false,
      "stateMutability": "nonpayable",
      "type": "function"
    },
    {
      "constant": false,
      "inputs": [
        {
          "internalType": "address",
          "name": "account",
          "type": "address"
        },
        {
          "internalType": "bool",
          "name": "active",
          "type": "bool"
        }
      ],
      "name": "setOperator",
      "outputs": [],
      "payable": false,
      "stateMutability": "nonpayable",
      "type": "function"
    }
  ],
  "bytecode": "0x608060405234801561001057600080fd5b50336000818152602081905260409020805460ff19166001179055600380546001600160a01b03191690911790556109ff8061004d6000396000f3fe608060405234801561001057600080fd5b50600436106100935760003560e01c80638e204c43116100665780638e204c431461019857806395c4a374146101be578063a2e6908c146101ec578063c83fae9114610244578063d4ed09631461026a57610093565b806313e7c9d814610098578063525d3b04146100d2578063558a729714610144578063592ca85014610172575b600080fd5b6100be600480360360208110156100ae57600080fd5b50356001600160a01b03166102da565b604080519115158252519081900360200190f35b610142600480360360208110156100e857600080fd5b81019060208101813564010000000081111561010357600080fd5b82018360208201111561011557600080fd5b8035906020019184602083028401116401000000008311171561013757600080fd5b5090925090506102ef565b005b6101426004803603604081101561015a57600080fd5b506001600160a01b038135169060200135151561037e565b6100be6004803603602081101561018857600080fd5b50356001600160a01b0316610456565b6100be600480360360208110156101ae57600080fd5b50356001600160a01b03166104b1565b6100be600480360360408110156101d457600080fd5b506001600160a01b0381358116916020013516610530565b6101f4610626565b60408051602080825283518183015283519192839290830191858101910280838360005b83811015610230578181015183820152602001610218565b505050509050019250505060405180910390f35b6100be6004803603602081101561025a57600080fd5b50356001600160a01b0316610689565b6101426004803603602081101561028057600080fd5b81019060208101813564010000000081111561029b57600080fd5b8201836020820111156102ad57600080fd5b803590602001918460208302840111640100000000831117156102cf57600080fd5b5090925090506106dc565b60006020819052908152604090205460ff1681565b3360009081526020819052604090205460ff16610339576040805162461bcd60e51b815260206004820152600360248201526239393960e81b604482015290519081900360640190fd5b60005b818110156103795761036883838381811061035357fe5b905060200201356001600160a01b0316610766565b61037157600080fd5b60010161033c565b505050565b3360009081526020819052604090205460ff166103c8576040805162461bcd60e51b815260206004820152600360248201526239393960e81b604482015290519081900360640190fd5b6003546001600160a01b038381169116141561042b576003546001600160a01b0316331461042b576040805162461bcd60e51b815260206004820152600b60248201526a27b7363c9036b0b9ba32b960a91b604482015290519081900360640190fd5b6001600160a01b03919091166000908152602081905260409020805460ff1916911515919091179055565b3360009081526020819052604081205460ff166104a0576040805162461bcd60e51b815260206004820152600360248201526239393960e81b604482015290519081900360640190fd5b6104a982610766565b90505b919050565b6002546000906104c3575060006104ac565b6002546001600160a01b038316600090815260016020526040902054106104ec575060006104ac565b6001600160a01b03821660008181526001602052604090205460028054909190811061051457fe5b6000918252602090912001546001600160a01b03161492915050565b60025460009061054257506000610620565b6002546001600160a01b03841660009081526001602052604090205410156105af576001600160a01b03831660008181526001602052604090205460028054909190811061058c57fe5b6000918252602090912001546001600160a01b031614156105af57506001610620565b6002546001600160a01b038316600090815260016020526040902054101561061c576001600160a01b0382166000818152600160205260409020546002805490919081106105f957fe5b6000918252602090912001546001600160a01b0316141561061c57506001610620565b5060005b92915050565b6060600280548060200260200160405190810160405280929190818152602001828054801561067e57602002820191906000526020600020905b81546001600160a01b03168152600190910190602001808311610660575b505050505090505b90565b3360009081526020819052604081205460ff166106d3576040805162461bcd60e51b815260206004820152600360248201526239393960e81b604482015290519081900360640190fd5b6104a9826108a1565b3360009081526020819052604090205460ff16610726576040805162461bcd60e51b815260206004820152600360248201526239393960e81b604482015290519081900360640190fd5b60005b818110156103795761075583838381811061074057fe5b905060200201356001600160a01b03166108a1565b61075e57600080fd5b600101610729565b6000610771826104b1565b6107b4576040805162461bcd60e51b815260206004820152600f60248201526e139bdd08189b1bd8dadb1a5cdd1959608a1b604482015290519081900360640190fd5b6001600160a01b0382166000908152600160205260408120546002805491929160001981019081106107e257fe5b600091825260209091200154600280546001600160a01b03909216925082918490811061080b57fe5b600091825260208083209190910180546001600160a01b0319166001600160a01b039485161790559183168152600190915260409020829055600280549061085790600019830161098d565b506040805133815290516001600160a01b038616917ff413adfa62863fece1f285b26a902badd1b4a0ad4ed0f5381d53c459ec9b7146919081900360200190a25060019392505050565b60006108ac826104b1565b156108f5576040805162461bcd60e51b8152602060048201526014602482015273105b1c9958591e481a5b88189b1bd8dadb1a5cdd60621b604482015290519081900360640190fd5b600280546001600160a01b03841660008181526001602081815260408084208690559185018655949091527f405787fa12a823e0f2b7631cc41b3ba8828b3321ca811111fa75cd3aa3bb5ace90920180546001600160a01b031916821790558151338152915190927f45b0f55051d62da0b2e9d2de981c34423d47a1507a51268dfa45a474459b3eee928290030190a2506001919050565b8154818355818111156103795760008381526020902061037991810190830161068691905b808211156109c657600081556001016109b2565b509056fea265627a7a7231582048494bb652b7b4ef809baa2d7def57994a638063e47368c08d98e261d41d1a7664736f6c63430005100032",
  "linkReferences": {},
  "deployedLinkReferences": {}
}