{
  "_format": "hh-sol-artifact-1",
  "contractName": "BkTraitRerollerV6",
  "sourceName": "contracts/features/BkTraitRerollerV6.sol",
  "abi": [
    {
      "anonymous": false,
      "inputs": [
        {
          "indexed": false,
          "internalType": "uint8",
          "name": "version",
          "type": "uint8"
        }
      ],
      "name": "Initialized",
      "type": "event"
    },
    {
      "anonymous": false,
      "inputs": [
        {
          "indexed": false,
          "internalType": "address",
          "name": "account",
          "type": "address"
        }
      ],
      "name": "Paused",
      "type": "event"
    },
    {
      "anonymous": false,
      "inputs": [
        {
          "indexed": true,
          "internalType": "bytes32",
          "name": "role",
          "type": "bytes32"
        },
        {
          "indexed": true,
          "internalType": "bytes32",
          "name": "previousAdminRole",
          "type": "bytes32"
        },
        {
          "indexed": true,
          "internalType": "bytes32",
          "name": "newAdminRole",
          "type": "bytes32"
        }
      ],
      "name": "RoleAdminChanged",
      "type": "event"
    },
    {
      "anonymous": false,
      "inputs": [
        {
          "indexed": true,
          "internalType": "bytes32",
          "name": "role",
          "type": "bytes32"
        },
        {
          "indexed": true,
          "internalType": "address",
          "name": "account",
          "type": "address"
        },
        {
          "indexed": true,
          "internalType": "address",
          "name": "sender",
          "type": "address"
        }
      ],
      "name": "RoleGranted",
      "type": "event"
    },
    {
      "anonymous": false,
      "inputs": [
        {
          "indexed": true,
          "internalType": "bytes32",
          "name": "role",
          "type": "bytes32"
        },
        {
          "indexed": true,
          "internalType": "address",
          "name": "account",
          "type": "address"
        },
        {
          "indexed": true,
          "internalType": "address",
          "name": "sender",
          "type": "address"
        }
      ],
      "name": "RoleRevoked",
      "type": "event"
    },
    {
      "anonymous": false,
      "inputs": [
        {
          "indexed": false,
          "internalType": "address",
          "name": "account",
          "type": "address"
        },
        {
          "indexed": false,
          "internalType": "uint256",
          "name": "nftId",
          "type": "uint256"
        },
        {
          "indexed": false,
          "internalType": "uint256",
          "name": "oldTrait1",
          "type": "uint256"
        },
        {
          "indexed": false,
          "internalType": "uint256",
          "name": "oldTrait2",
          "type": "uint256"
        },
        {
          "indexed": false,
          "internalType": "uint256",
          "name": "oldTrait3",
          "type": "uint256"
        },
        {
          "indexed": false,
          "internalType": "uint256",
          "name": "newTrait1",
          "type": "uint256"
        },
        {
          "indexed": false,
          "internalType": "uint256",
          "name": "newTrait2",
          "type": "uint256"
        },
        {
          "indexed": false,
          "internalType": "uint256",
          "name": "newTrait3",
          "type": "uint256"
        }
      ],
      "name": "TraitReroll",
      "type": "event"
    },
    {
      "anonymous": false,
      "inputs": [
        {
          "indexed": false,
          "internalType": "address",
          "name": "account",
          "type": "address"
        }
      ],
      "name": "Unpaused",
      "type": "event"
    },
    {
      "inputs": [],
      "name": "DEFAULT_ADMIN_ROLE",
      "outputs": [
        {
          "internalType": "bytes32",
          "name": "",
          "type": "bytes32"
        }
      ],
      "stateMutability": "view",
      "type": "function"
    },
    {
      "inputs": [],
      "name": "autoReturnRate",
      "outputs": [
        {
          "internalType": "uint256",
          "name": "",
          "type": "uint256"
        }
      ],
      "stateMutability": "view",
      "type": "function"
    },
    {
      "inputs": [
        {
          "internalType": "uint256",
          "name": "bctAmount",
          "type": "uint256"
        }
      ],
      "name": "bctToBusd",
      "outputs": [
        {
          "internalType": "uint256",
          "name": "",
          "type": "uint256"
        }
      ],
      "stateMutability": "view",
      "type": "function"
    },
    {
      "inputs": [
        {
          "internalType": "uint256",
          "name": "busdAmount",
          "type": "uint256"
        }
      ],
      "name": "busdToBct",
      "outputs": [
        {
          "internalType": "uint256",
          "name": "",
          "type": "uint256"
        }
      ],
      "stateMutability": "view",
      "type": "function"
    },
    {
      "inputs": [
        {
          "internalType": "uint256",
          "name": "chosenTrait",
          "type": "uint256"
        },
        {
          "internalType": "uint256",
          "name": "traitCount",
          "type": "uint256"
        }
      ],
      "name": "getRerolledTraits",
      "outputs": [
        {
          "internalType": "uint256[]",
          "name": "traits",
          "type": "uint256[]"
        }
      ],
      "stateMutability": "nonpayable",
      "type": "function"
    },
    {
      "inputs": [
        {
          "internalType": "bytes32",
          "name": "role",
          "type": "bytes32"
        }
      ],
      "name": "getRoleAdmin",
      "outputs": [
        {
          "internalType": "bytes32",
          "name": "",
          "type": "bytes32"
        }
      ],
      "stateMutability": "view",
      "type": "function"
    },
    {
      "inputs": [
        {
          "internalType": "bytes32",
          "name": "role",
          "type": "bytes32"
        },
        {
          "internalType": "address",
          "name": "account",
          "type": "address"
        }
      ],
      "name": "grantRole",
      "outputs": [],
      "stateMutability": "nonpayable",
      "type": "function"
    },
    {
      "inputs": [
        {
          "internalType": "bytes32",
          "name": "role",
          "type": "bytes32"
        },
        {
          "internalType": "address",
          "name": "account",
          "type": "address"
        }
      ],
      "name": "hasRole",
      "outputs": [
        {
          "internalType": "bool",
          "name": "",
          "type": "bool"
        }
      ],
      "stateMutability": "view",
      "type": "function"
    },
    {
      "inputs": [
        {
          "internalType": "address",
          "name": "operator",
          "type": "address"
        },
        {
          "internalType": "address",
          "name": "_nft",
          "type": "address"
        },
        {
          "internalType": "address",
          "name": "_result",
          "type": "address"
        }
      ],
      "name": "initialize",
      "outputs": [],
      "stateMutability": "nonpayable",
      "type": "function"
    },
    {
      "inputs": [],
      "name": "lockPeriod",
      "outputs": [
        {
          "internalType": "uint256",
          "name": "",
          "type": "uint256"
        }
      ],
      "stateMutability": "view",
      "type": "function"
    },
    {
      "inputs": [],
      "name": "pause",
      "outputs": [],
      "stateMutability": "nonpayable",
      "type": "function"
    },
    {
      "inputs": [],
      "name": "paused",
      "outputs": [
        {
          "internalType": "bool",
          "name": "",
          "type": "bool"
        }
      ],
      "stateMutability": "view",
      "type": "function"
    },
    {
      "inputs": [],
      "name": "paymentContracts",
      "outputs": [
        {
          "internalType": "contract MHIERC20",
          "name": "bct",
          "type": "address"
        },
        {
          "internalType": "contract MHIERC20",
          "name": "busd",
          "type": "address"
        },
        {
          "internalType": "contract ICommunityPool",
          "name": "pool",
          "type": "address"
        },
        {
          "internalType": "contract IMhdaoFarmTransact_II",
          "name": "farm",
          "type": "address"
        }
      ],
      "stateMutability": "view",
      "type": "function"
    },
    {
      "inputs": [
        {
          "internalType": "address",
          "name": "",
          "type": "address"
        }
      ],
      "name": "playerNonce",
      "outputs": [
        {
          "internalType": "uint256",
          "name": "",
          "type": "uint256"
        }
      ],
      "stateMutability": "view",
      "type": "function"
    },
    {
      "inputs": [
        {
          "internalType": "uint256",
          "name": "nftId",
          "type": "uint256"
        },
        {
          "internalType": "uint256",
          "name": "chosenTrait1",
          "type": "uint256"
        },
        {
          "internalType": "uint256",
          "name": "chosenTrait2",
          "type": "uint256"
        }
      ],
      "name": "reassemble",
      "outputs": [],
      "stateMutability": "nonpayable",
      "type": "function"
    },
    {
      "inputs": [
        {
          "internalType": "bytes32",
          "name": "role",
          "type": "bytes32"
        },
        {
          "internalType": "address",
          "name": "account",
          "type": "address"
        }
      ],
      "name": "renounceRole",
      "outputs": [],
      "stateMutability": "nonpayable",
      "type": "function"
    },
    {
      "inputs": [
        {
          "internalType": "uint256",
          "name": "",
          "type": "uint256"
        }
      ],
      "name": "resources",
      "outputs": [
        {
          "internalType": "address",
          "name": "",
          "type": "address"
        }
      ],
      "stateMutability": "view",
      "type": "function"
    },
    {
      "inputs": [],
      "name": "resourcesCount",
      "outputs": [
        {
          "internalType": "uint256",
          "name": "",
          "type": "uint256"
        }
      ],
      "stateMutability": "view",
      "type": "function"
    },
    {
      "inputs": [
        {
          "internalType": "bytes32",
          "name": "role",
          "type": "bytes32"
        },
        {
          "internalType": "address",
          "name": "account",
          "type": "address"
        }
      ],
      "name": "revokeRole",
      "outputs": [],
      "stateMutability": "nonpayable",
      "type": "function"
    },
    {
      "inputs": [],
      "name": "scale",
      "outputs": [
        {
          "internalType": "uint256",
          "name": "",
          "type": "uint256"
        }
      ],
      "stateMutability": "view",
      "type": "function"
    },
    {
      "inputs": [
        {
          "internalType": "address",
          "name": "_result",
          "type": "address"
        }
      ],
      "name": "setRResult",
      "outputs": [],
      "stateMutability": "nonpayable",
      "type": "function"
    },
    {
      "inputs": [
        {
          "internalType": "uint256",
          "name": "_scale",
          "type": "uint256"
        }
      ],
      "name": "setScale",
      "outputs": [],
      "stateMutability": "nonpayable",
      "type": "function"
    },
    {
      "inputs": [
        {
          "internalType": "address",
          "name": "_bct",
          "type": "address"
        },
        {
          "internalType": "address",
          "name": "_busd",
          "type": "address"
        },
        {
          "internalType": "address",
          "name": "_pool",
          "type": "address"
        },
        {
          "internalType": "address",
          "name": "_farm",
          "type": "address"
        },
        {
          "internalType": "address",
          "name": "_resourcesSource",
          "type": "address"
        },
        {
          "internalType": "uint256",
          "name": "_autoReturnRate",
          "type": "uint256"
        }
      ],
      "name": "setupPaymentModule",
      "outputs": [],
      "stateMutability": "nonpayable",
      "type": "function"
    },
    {
      "inputs": [
        {
          "internalType": "bytes4",
          "name": "interfaceId",
          "type": "bytes4"
        }
      ],
      "name": "supportsInterface",
      "outputs": [
        {
          "internalType": "bool",
          "name": "",
          "type": "bool"
        }
      ],
      "stateMutability": "view",
      "type": "function"
    },
    {
      "inputs": [
        {
          "internalType": "uint256",
          "name": "nftId",
          "type": "uint256"
        },
        {
          "internalType": "uint256",
          "name": "chosenTrait",
          "type": "uint256"
        }
      ],
      "name": "traitReroll",
      "outputs": [],
      "stateMutability": "nonpayable",
      "type": "function"
    },
    {
      "inputs": [
        {
          "internalType": "uint256",
          "name": "nftId",
          "type": "uint256"
        },
        {
          "internalType": "uint256",
          "name": "trait1",
          "type": "uint256"
        },
        {
          "internalType": "uint256",
          "name": "trait2",
          "type": "uint256"
        },
        {
          "internalType": "uint256",
          "name": "trait3",
          "type": "uint256"
        }
      ],
      "name": "transmute",
      "outputs": [],
      "stateMutability": "nonpayable",
      "type": "function"
    },
    {
      "inputs": [],
      "name": "unpause",
      "outputs": [],
      "stateMutability": "nonpayable",
      "type": "function"
    },
    {
      "inputs": [
        {
          "internalType": "address",
          "name": "sourceContract",
          "type": "address"
        }
      ],
      "name": "updateResources",
      "outputs": [],
      "stateMutability": "nonpayable",
      "type": "function"
    }
  ],
  "bytecode": "0x608060405234801561001057600080fd5b5061327d806100206000396000f3fe608060405234801561001057600080fd5b50600436106101c45760003560e01c80637b01d59f116100f9578063c429d34911610097578063d547741f11610071578063d547741f1461040d578063e3d28ea114610420578063f4b93f4514610433578063f51e181a1461044657600080fd5b8063c429d349146103de578063c4576ef8146103e7578063d336ae23146103fa57600080fd5b806391d14854116100d357806391d148541461039d578063a217fddf146103b0578063c0c53b8b146103b8578063c3c87d53146103cb57600080fd5b80637b01d59f14610362578063804ecd83146103825780638456cb591461039557600080fd5b8063323b6cb7116101665780633f4ba83a116101405780633f4ba83a1461033d5780633fd8b02f1461034557806351ac7b8c1461034e5780635c975abb1461035757600080fd5b8063323b6cb7146102be57806336568abe146103175780633edc35191461032a57600080fd5b8063244d6daa116101a2578063244d6daa14610232578063248a9ca314610273578063285f92c1146102965780632f2ff15d146102ab57600080fd5b806301ffc9a7146101c957806314d70ebe146101f157806315e5324614610212575b600080fd5b6101dc6101d7366004612836565b61044f565b60405190151581526020015b60405180910390f35b6102046101ff366004612860565b610486565b6040519081526020016101e8565b61020461022036600461288e565b60d46020526000908152604090205481565b61025b610240366004612860565b6003602052600090815260409020546001600160a01b031681565b6040516001600160a01b0390911681526020016101e8565b610204610281366004612860565b6000908152606e602052604090206001015490565b6102a96102a43660046128ab565b610504565b005b6102a96102b93660046128dd565b610af8565b6004546005546006546007546102e4936001600160a01b03908116938116928116911684565b604080516001600160a01b03958616815293851660208501529184169183019190915290911660608201526080016101e8565b6102a96103253660046128dd565b610b22565b6102a9610338366004612860565b610b45565b6102a9610b63565b61020460005481565b61020460025481565b60a05460ff166101dc565b61037561037036600461290d565b610b86565b6040516101e8919061296a565b6102a961039036600461288e565b610bb2565b6102a9610bed565b6101dc6103ab3660046128dd565b610c0d565b610204600081565b6102a96103c636600461297d565b610c38565b6102a96103d936600461288e565b610d52565b61020460085481565b6102a96103f536600461290d565b610d73565b6102a96104083660046129c8565b611217565b6102a961041b3660046128dd565b611954565b61020461042e366004612860565b611979565b6102a96104413660046129f4565b6119ab565b61020460d55481565b60006001600160e01b03198216637965db0b60e01b148061048057506301ffc9a760e01b6001600160e01b03198316145b92915050565b60065460405163526267fd60e11b8152600481018390526000916001600160a01b03169063a4c4cffa906024015b60206040518083038186803b1580156104cc57600080fd5b505afa1580156104e0573d6000803e3d6000fd5b505050506040513d601f19601f820116820180604052508101906104809190612a6d565b61050c6119d1565b3360008181526001602052604090205443101561055b5760405162461bcd60e51b815260206004820152600860248201526731b7b7b63237bbb760c11b60448201526064015b60405180910390fd5b610564816119e3565b60d3546040516341f63bfd60e01b8152600481018790526000916001600160a01b0316906341f63bfd9060240160006040518083038186803b1580156105a957600080fd5b505afa1580156105bd573d6000803e3d6000fd5b505050506040513d6000823e601f3d908101601f191682016040526105e59190810190612c26565b60d3546040516331a9108f60e11b81526004810189905291925033916001600160a01b0390911690636352211e9060240160206040518083038186803b15801561062e57600080fd5b505afa158015610642573d6000803e3d6000fd5b505050506040513d601f19601f820116820180604052508101906106669190612d73565b6001600160a01b03161461067957600080fd5b60d354604051630f2a280d60e21b8152600481018890526001600160a01b0390911690633ca8a0349060240160206040518083038186803b1580156106bd57600080fd5b505afa1580156106d1573d6000803e3d6000fd5b505050506040513d601f19601f820116820180604052508101906106f59190612d90565b156106ff57600080fd5b600085118015610710575060368511155b61071957600080fd5b60008411801561072a575060368411155b61073357600080fd5b600083118015610744575060368311155b61074d57600080fd5b61075a8160c00151611a0c565b60031461076657600080fd5b6000603286111561077f578061077b81612dc8565b9150505b6032851115610796578061079281612dc8565b9150505b60328411156107ad57806107a981612dc8565b9150505b600060026107bc836003612de8565b6107c69190612f0e565b6040805160038082526080820190925260ff9290921692506000919060208201606080368337019050509050878160008151811061080657610806612f20565b602002602001018181525050868160018151811061082657610826612f20565b602002602001018181525050858160028151811061084657610846612f20565b602002602001018181525050600080516020613228833981519152338a8660c0015160008151811061087a5761087a612f20565b60200260200101518760c0015160018151811061089957610899612f20565b60200260200101518860c001516002815181106108b8576108b8612f20565b6020026020010151866000815181106108d3576108d3612f20565b6020026020010151876001815181106108ee576108ee612f20565b60200260200101518860028151811061090957610909612f20565b6020026020010151604051610925989796959493929190612f36565b60405180910390a160d35460405163088d210f60e41b81526001600160a01b03909116906388d210f09061095f908c908590600401612f77565b600060405180830381600087803b15801561097957600080fd5b505af115801561098d573d6000803e3d6000fd5b50600092506016915061099d9050565b6040519080825280602002602001820160405280156109c6578160200160208202803683370190505b50905061271081600b815181106109df576109df612f20565b6020026020010181815250506109c481600781518110610a0157610a01612f20565b6020026020010181815250506064818660800151600d610a219190612f90565b81518110610a3157610a31612f20565b6020908102919091010152610a47836064612fa8565b81601581518110610a5a57610a5a612f20565b602002602001018181525050610aec6002606460d5548860a0015189608001516105dc610a879190612fa8565b610a919190612fa8565b610aa390670de0b6b3a7640000612fa8565b610aad9190612fa8565b610ab79190612fc7565b610ac19190612fc7565b6040805160808101825260018082526020820152600091810182905260608101919091528390611a62565b50505050505050505050565b6000828152606e6020526040902060010154610b1381611e0a565b610b1d8383611e14565b505050565b6001600160a01b0381163314610b3757600080fd5b610b418282611e9a565b5050565b600080516020613208833981519152610b5d81611e0a565b5060d555565b600080516020613208833981519152610b7b81611e0a565b610b83611f01565b50565b6060600080516020613208833981519152610ba081611e0a565b610baa8484611f53565b949350505050565b600080516020613208833981519152610bca81611e0a565b5060d280546001600160a01b0319166001600160a01b0392909216919091179055565b600080516020613208833981519152610c0581611e0a565b610b8361241b565b6000918252606e602090815260408084206001600160a01b0393909316845291905290205460ff1690565b600954610100900460ff1615808015610c585750600954600160ff909116105b80610c725750303b158015610c72575060095460ff166001145b610c7b57600080fd5b6009805460ff191660011790558015610c9e576009805461ff0019166101001790555b610ca6612458565b610cae61246c565b610cb9600085612488565b610cd160008051602061320883398151915285612488565b60d380546001600160a01b038086166001600160a01b03199283161790925560d280549285169290911691909117905560016000558015610d4c576009805461ff0019169055604051600181527f7f26b83ff96e1f2b6a682f133852f6798a09c465da95921460cefb38474024989060200160405180910390a15b50505050565b600080516020613208833981519152610d6a81611e0a565b610b4182612492565b610d7b6119d1565b60d3546040516341f63bfd60e01b8152600481018490526000916001600160a01b0316906341f63bfd9060240160006040518083038186803b158015610dc057600080fd5b505afa158015610dd4573d6000803e3d6000fd5b505050506040513d6000823e601f3d908101601f19168201604052610dfc9190810190612c26565b60d3546040516331a9108f60e11b81526004810186905291925033916001600160a01b0390911690636352211e9060240160206040518083038186803b158015610e4557600080fd5b505afa158015610e59573d6000803e3d6000fd5b505050506040513d601f19601f82011682018060405250810190610e7d9190612d73565b6001600160a01b031614610e9057600080fd5b60d354604051630f2a280d60e21b8152600481018590526001600160a01b0390911690633ca8a0349060240160206040518083038186803b158015610ed457600080fd5b505afa158015610ee8573d6000803e3d6000fd5b505050506040513d601f19601f82011682018060405250810190610f0c9190612d90565b15610f1657600080fd5b6000610f258260c00151611a0c565b90506000610f338483611f53565b9050816003141561101e5760008051602061322883398151915233868560c00151600081518110610f6657610f66612f20565b60200260200101518660c00151600181518110610f8557610f85612f20565b60200260200101518760c00151600281518110610fa457610fa4612f20565b602002602001015186600081518110610fbf57610fbf612f20565b602002602001015187600181518110610fda57610fda612f20565b602002602001015188600281518110610ff557610ff5612f20565b6020026020010151604051611011989796959493929190612f36565b60405180910390a1611132565b81600214156110c45760008051602061322883398151915233868560c0015160008151811061104f5761104f612f20565b60200260200101518660c0015160018151811061106e5761106e612f20565b602002602001015160008660008151811061108b5761108b612f20565b6020026020010151876001815181106110a6576110a6612f20565b60200260200101516000604051611011989796959493929190612f36565b60008051602061322883398151915233868560c001516000815181106110ec576110ec612f20565b60200260200101516000808660008151811061110a5761110a612f20565b6020026020010151600080604051611129989796959493929190612f36565b60405180910390a15b60d35460405163088d210f60e41b81526001600160a01b03909116906388d210f0906111649088908590600401612f77565b600060405180830381600087803b15801561117e57600080fd5b505af1158015611192573d6000803e3d6000fd5b5060009250600c91506111a29050565b6040519080825280602002602001820160405280156111cb578160200160208202803683370190505b509050606481600b815181106111e3576111e3612f20565b60200260200101818152505061120f6002606460d5548760a0015188608001516001610a879190612fa8565b505050505050565b61121f6119d1565b336000818152600160205260409020544310156112695760405162461bcd60e51b815260206004820152600860248201526731b7b7b63237bbb760c11b6044820152606401610552565b611272816119e3565b60d3546040516341f63bfd60e01b8152600481018690526000916001600160a01b0316906341f63bfd9060240160006040518083038186803b1580156112b757600080fd5b505afa1580156112cb573d6000803e3d6000fd5b505050506040513d6000823e601f3d908101601f191682016040526112f39190810190612c26565b60d3546040516331a9108f60e11b81526004810188905291925033916001600160a01b0390911690636352211e9060240160206040518083038186803b15801561133c57600080fd5b505afa158015611350573d6000803e3d6000fd5b505050506040513d601f19601f820116820180604052508101906113749190612d73565b6001600160a01b03161461138757600080fd5b60d354604051630f2a280d60e21b8152600481018790526001600160a01b0390911690633ca8a0349060240160206040518083038186803b1580156113cb57600080fd5b505afa1580156113df573d6000803e3d6000fd5b505050506040513d601f19601f820116820180604052508101906114039190612d90565b1561140d57600080fd5b60008411801561141e575060328411155b61142757600080fd5b600083118015611438575060328311155b61144157600080fd5b60006114508260c00151611a0c565b9050600381101561166157604080516002808252606082018352600092602083019080368337019050509050858160008151811061149057611490612f20565b60200260200101818152505084816001815181106114b0576114b0612f20565b60200260200101818152505081600114156115515760008051602061322883398151915233888560c001516000815181106114ed576114ed612f20565b60200260200101516000808660008151811061150b5761150b612f20565b60200260200101518760018151811061152657611526612f20565b60200260200101516000604051611544989796959493929190612f36565b60405180910390a16115f7565b60008051602061322883398151915233888560c0015160008151811061157957611579612f20565b60200260200101518660c0015160018151811061159857611598612f20565b60200260200101516000866000815181106115b5576115b5612f20565b6020026020010151876001815181106115d0576115d0612f20565b602002602001015160006040516115ee989796959493929190612f36565b60405180910390a15b60d35460405163088d210f60e41b81526001600160a01b03909116906388d210f090611629908a908590600401612f77565b600060405180830381600087803b15801561164357600080fd5b505af1158015611657573d6000803e3d6000fd5b50505050506118e3565b33600090815260d46020526040812080549182919061167f83612fe9565b9091555050604080516003808252608082019092526000916020820160608036833701905050905086816000815181106116bb576116bb612f20565b60200260200101818152505085816001815181106116db576116db612f20565b602090810291909101015260d2546001600160a01b031663d19435ff3360016032611707876061612f90565b611712886007612f90565b6040518663ffffffff1660e01b8152600401611732959493929190613004565b60206040518083038186803b15801561174a57600080fd5b505afa15801561175e573d6000803e3d6000fd5b505050506040513d601f19601f820116820180604052508101906117829190612a6d565b8160028151811061179557611795612f20565b60200260200101818152505060008051602061322883398151915233898660c001516000815181106117c9576117c9612f20565b60200260200101518760c001516001815181106117e8576117e8612f20565b60200260200101518860c0015160028151811061180757611807612f20565b60200260200101518660008151811061182257611822612f20565b60200260200101518760018151811061183d5761183d612f20565b60200260200101518860028151811061185857611858612f20565b6020026020010151604051611874989796959493929190612f36565b60405180910390a160d35460405163088d210f60e41b81526001600160a01b03909116906388d210f0906118ae908b908590600401612f77565b600060405180830381600087803b1580156118c857600080fd5b505af11580156118dc573d6000803e3d6000fd5b5050505050505b60408051600c8082526101a08201909252600091602082016101808036833701905050905061138881600b8151811061191e5761191e612f20565b60200260200101818152505061194b6002606460d5548660a0015187608001516102ee610a879190612fa8565b50505050505050565b6000828152606e602052604090206001015461196f81611e0a565b610b1d8383611e9a565b600654604051634ca1cccb60e11b8152600481018390526000916001600160a01b0316906399439996906024016104b4565b6000805160206132088339815191526119c381611e0a565b61194b878787878787612581565b60a05460ff16156119e157600080fd5b565b6000546119f09043612f90565b6001600160a01b03909116600090815260016020526040902055565b600080805b8351811015611a5b57838181518110611a2c57611a2c612f20565b6020026020010151600014611a495781611a4581612fe9565b9250505b80611a5381612fe9565b915050611a11565b5092915050565b806040015115611b9957806020015115611a7b57600080fd5b8051600090611a8a5783611a93565b611a9384610486565b6005546040516323b872dd60e01b8152336004820152306024820152604481018390529192506001600160a01b0316906323b872dd90606401600060405180830381600087803b158015611ae657600080fd5b505af1158015611afa573d6000803e3d6000fd5b505050506000606482600854611b109190612fa8565b611b1a9190612fc7565b600654604051630d3990db60e21b8152600481018390529192506001600160a01b0316906334e6436c90602401602060405180830381600087803b158015611b6157600080fd5b505af1158015611b75573d6000803e3d6000fd5b505050506040513d601f19601f8201168201806040525081019061120f9190612a6d565b806060015115611ba857600080fd5b8051600090611bbf57611bba84611979565b611bc1565b835b60075460405163b1918c9560e01b81529192506000916001600160a01b039091169063b1918c9590611bfb90339086908990600401613032565b600060405180830381600087803b158015611c1557600080fd5b505af1158015611c29573d6000803e3d6000fd5b505050506040513d6000823e601f3d908101601f19168201604052611c519190810190613062565b9050600081600081518110611c6857611c68612f20565b60200260200101511115611d0c5760045481516001600160a01b03909116906379cc67909033908490600090611ca057611ca0612f20565b60200260200101516040518363ffffffff1660e01b8152600401611cd99291906001600160a01b03929092168252602082015260400190565b600060405180830381600087803b158015611cf357600080fd5b505af1158015611d07573d6000803e3d6000fd5b505050505b60015b815181101561120f576000828281518110611d2c57611d2c612f20565b60200260200101511115611df85760036000611d49600184613097565b815260200190815260200160002060009054906101000a90046001600160a01b03166001600160a01b03166379cc679033848481518110611d8c57611d8c612f20565b60200260200101516040518363ffffffff1660e01b8152600401611dc59291906001600160a01b03929092168252602082015260400190565b600060405180830381600087803b158015611ddf57600080fd5b505af1158015611df3573d6000803e3d6000fd5b505050505b80611e0281612fe9565b915050611d0f565b610b83813361263c565b611e1e8282610c0d565b610b41576000828152606e602090815260408083206001600160a01b03851684529091529020805460ff19166001179055611e563390565b6001600160a01b0316816001600160a01b0316837f2f8788117e7eff1d82e926ec794901d17c78024a50270940304540a733656f0d60405160405180910390a45050565b611ea48282610c0d565b15610b41576000828152606e602090815260408083206001600160a01b0385168085529252808320805460ff1916905551339285917ff6391f5c32d9c69d2a47ea670b442974b53935d1edc7fd64eb21e047a839171b9190a45050565b611f09612695565b60a0805460ff191690557f5db9ee0a495bf2e6ff9c91a7834c1ba4fdd244a5e8aa4e537bd38aeae4b073aa335b6040516001600160a01b03909116815260200160405180910390a1565b60606032831115611f6357600080fd5b33600090815260d460205260408120805491611f7e83612fe9565b909155505033600081815260d4602052604081205460d25490926001600160a01b039091169063d19435ff9060016064611fba87610e0d612f90565b611fc5886003612fa8565b6040518663ffffffff1660e01b8152600401611fe5959493929190613004565b60206040518083038186803b158015611ffd57600080fd5b505afa158015612011573d6000803e3d6000fd5b505050506040513d601f19601f820116820180604052508101906120359190612a6d565b90508161204181612fe9565b925050846120f45760d2546001600160a01b031663d19435ff336001603261206a866061612f90565b8761207788610243612f90565b6120819190612f90565b6040518663ffffffff1660e01b81526004016120a1959493929190613004565b60206040518083038186803b1580156120b957600080fd5b505afa1580156120cd573d6000803e3d6000fd5b505050506040513d601f19601f820116820180604052508101906120f19190612a6d565b94505b83600314156122ce57604080516003808252608082019092529060208201606080368337019050509250848360008151811061213257612132612f20565b602090810291909101015260d2546001600160a01b031663d19435ff336001603261215e86605d612f90565b8761216a88607f612f90565b6121749190612f90565b6040518663ffffffff1660e01b8152600401612194959493929190613004565b60206040518083038186803b1580156121ac57600080fd5b505afa1580156121c0573d6000803e3d6000fd5b505050506040513d601f19601f820116820180604052508101906121e49190612a6d565b836001815181106121f7576121f7612f20565b602090810291909101015260d2546001600160a01b031663d19435ff336001603261222386604d612f90565b8761223088610143612f90565b61223a9190612f90565b6040518663ffffffff1660e01b815260040161225a959493929190613004565b60206040518083038186803b15801561227257600080fd5b505afa158015612286573d6000803e3d6000fd5b505050506040513d601f19601f820116820180604052508101906122aa9190612a6d565b836002815181106122bd576122bd612f20565b602002602001018181525050612413565b83600214156123d2576040805160028082526060820183529091602083019080368337019050509250848360008151811061230b5761230b612f20565b602090810291909101015260d2546001600160a01b031663d19435ff336001603261233886610115612f90565b87612345886103e5612f90565b61234f9190612f90565b6040518663ffffffff1660e01b815260040161236f959493929190613004565b60206040518083038186803b15801561238757600080fd5b505afa15801561239b573d6000803e3d6000fd5b505050506040513d601f19601f820116820180604052508101906123bf9190612a6d565b836001815181106122bd576122bd612f20565b6040805160018082528183019092529060208083019080368337019050509250848360008151811061240657612406612f20565b6020026020010181815250505b505092915050565b6124236119d1565b60a0805460ff191660011790557f62e78cea01bee320cd4e420270b5ea74000d11b0c9f74754ebdbfc544b05a258611f363390565b600954610100900460ff166119e157600080fd5b600954610100900460ff1661248057600080fd5b6119e16126a4565b610b418282611e14565b60008190506000816001600160a01b031663c1cc57b06040518163ffffffff1660e01b815260040160006040518083038186803b1580156124d257600080fd5b505afa1580156124e6573d6000803e3d6000fd5b505050506040513d6000823e601f3d908101601f1916820160405261250e91908101906130ae565b905060005b81518110156125785781818151811061252e5761252e612f20565b60209081029190910181015160008381526003909252604090912080546001600160a01b0319166001600160a01b039092169190911790558061257081612fe9565b915050612513565b50516002555050565b600480546001600160a01b038089166001600160a01b031992831617909255600580548884169083161790556006805487841690831617905560078054928616929091169190911790556125d482612492565b600881905560055460405163095ea7b360e01b81526001600160a01b03868116600483015260001960248301529091169063095ea7b390604401600060405180830381600087803b15801561262857600080fd5b505af1158015610aec573d6000803e3d6000fd5b6126468282610c0d565b610b4157612653816126c4565b61265e8360206126d6565b60405160200161266f929190613148565b60408051601f198184030181529082905262461bcd60e51b8252610552916004016131bd565b60a05460ff166119e157600080fd5b600954610100900460ff166126b857600080fd5b60a0805460ff19169055565b60606104806001600160a01b03831660145b606060006126e5836002612fa8565b6126f0906002612f90565b67ffffffffffffffff81111561270857612708612a86565b6040519080825280601f01601f191660200182016040528015612732576020820181803683370190505b509050600360fc1b8160008151811061274d5761274d612f20565b60200101906001600160f81b031916908160001a905350600f60fb1b8160018151811061277c5761277c612f20565b60200101906001600160f81b031916908160001a90535060006127a0846002612fa8565b6127ab906001612f90565b90505b6001811115612823576f181899199a1a9b1b9c1cb0b131b232b360811b85600f16601081106127df576127df612f20565b1a60f81b8282815181106127f5576127f5612f20565b60200101906001600160f81b031916908160001a90535060049490941c9361281c816131f0565b90506127ae565b50831561282f57600080fd5b9392505050565b60006020828403121561284857600080fd5b81356001600160e01b03198116811461282f57600080fd5b60006020828403121561287257600080fd5b5035919050565b6001600160a01b0381168114610b8357600080fd5b6000602082840312156128a057600080fd5b813561282f81612879565b600080600080608085870312156128c157600080fd5b5050823594602084013594506040840135936060013592509050565b600080604083850312156128f057600080fd5b82359150602083013561290281612879565b809150509250929050565b6000806040838503121561292057600080fd5b50508035926020909101359150565b600081518084526020808501945080840160005b8381101561295f57815187529582019590820190600101612943565b509495945050505050565b60208152600061282f602083018461292f565b60008060006060848603121561299257600080fd5b833561299d81612879565b925060208401356129ad81612879565b915060408401356129bd81612879565b809150509250925092565b6000806000606084860312156129dd57600080fd5b505081359360208301359350604090920135919050565b60008060008060008060c08789031215612a0d57600080fd5b8635612a1881612879565b95506020870135612a2881612879565b94506040870135612a3881612879565b93506060870135612a4881612879565b92506080870135612a5881612879565b8092505060a087013590509295509295509295565b600060208284031215612a7f57600080fd5b5051919050565b634e487b7160e01b600052604160045260246000fd5b6040516101c0810167ffffffffffffffff81118282101715612ac057612ac0612a86565b60405290565b604051601f8201601f1916810167ffffffffffffffff81118282101715612aef57612aef612a86565b604052919050565b60005b83811015612b12578181015183820152602001612afa565b83811115610d4c5750506000910152565b600082601f830112612b3457600080fd5b815167ffffffffffffffff811115612b4e57612b4e612a86565b612b61601f8201601f1916602001612ac6565b818152846020838601011115612b7657600080fd5b610baa826020830160208701612af7565b8051612b9281612879565b919050565b600067ffffffffffffffff821115612bb157612bb1612a86565b5060051b60200190565b600082601f830112612bcc57600080fd5b81516020612be1612bdc83612b97565b612ac6565b82815260059290921b84018101918181019086841115612c0057600080fd5b8286015b84811015612c1b5780518352918301918301612c04565b509695505050505050565b600060208284031215612c3857600080fd5b815167ffffffffffffffff80821115612c5057600080fd5b908301906101c08286031215612c6557600080fd5b612c6d612a9c565b82518152602083015182811115612c8357600080fd5b612c8f87828601612b23565b602083015250604083015182811115612ca757600080fd5b612cb387828601612b23565b604083015250612cc560608401612b87565b60608201526080830151608082015260a083015160a082015260c083015182811115612cf057600080fd5b612cfc87828601612bbb565b60c08301525060e083015182811115612d1457600080fd5b612d2087828601612bbb565b60e083015250610100838101519082015261012080840151908201526101408084015190820152610160808401519082015261018080840151908201526101a09283015192810192909252509392505050565b600060208284031215612d8557600080fd5b815161282f81612879565b600060208284031215612da257600080fd5b8151801515811461282f57600080fd5b634e487b7160e01b600052601160045260246000fd5b600060ff821660ff811415612ddf57612ddf612db2565b60010192915050565b600060ff821660ff84168160ff0481118215151615612e0957612e09612db2565b029392505050565b600181815b80851115612e4b578160ff04821115612e3157612e31612db2565b80851615612e3e57918102915b93841c9390800290612e16565b509250929050565b600082612e6257506001610480565b81612e6f57506000610480565b8160018114612e855760028114612e8f57612ebd565b6001915050610480565b60ff841115612ea057612ea0612db2565b6001841b915060ff821115612eb757612eb7612db2565b50610480565b5060208310610133831016604e8410600b8410161715612ef1575081810a60ff811115612eec57612eec612db2565b610480565b612efb8383612e11565b8060ff04821115612e0957612e09612db2565b600061282f60ff841660ff8416612e53565b634e487b7160e01b600052603260045260246000fd5b6001600160a01b03989098168852602088019690965260408701949094526060860192909252608085015260a084015260c083015260e08201526101000190565b828152604060208201526000610baa604083018461292f565b60008219821115612fa357612fa3612db2565b500190565b6000816000190483118215151615612fc257612fc2612db2565b500290565b600082612fe457634e487b7160e01b600052601260045260246000fd5b500490565b6000600019821415612ffd57612ffd612db2565b5060010190565b6001600160a01b03959095168552602085019390935260408401919091526060830152608082015260a00190565b60018060a01b0384168152826020820152606060408201526000613059606083018461292f565b95945050505050565b60006020828403121561307457600080fd5b815167ffffffffffffffff81111561308b57600080fd5b610baa84828501612bbb565b6000828210156130a9576130a9612db2565b500390565b600060208083850312156130c157600080fd5b825167ffffffffffffffff8111156130d857600080fd5b8301601f810185136130e957600080fd5b80516130f7612bdc82612b97565b81815260059190911b8201830190838101908783111561311657600080fd5b928401925b8284101561313d57835161312e81612879565b8252928401929084019061311b565b979650505050505050565b7f416363657373436f6e74726f6c3a206163636f756e7420000000000000000000815260008351613180816017850160208801612af7565b7001034b99036b4b9b9b4b733903937b6329607d1b60179184019182015283516131b1816028840160208801612af7565b01602801949350505050565b60208152600082518060208401526131dc816040850160208701612af7565b601f01601f19169190910160400192915050565b6000816131ff576131ff612db2565b50600019019056fe97667070c54ef182b0f5858b034beac1b6f3089aa2d3188bb1e8929f4fa9b9295d24d1b65af28620ba5a8ce3da5dfb3eb2d78c0cdfd4a566b8137141720277fea26469706673582212204336bce3b3d52330e93cfe6cc8b6593184f46a1edd737afd9b83681693a3fbd664736f6c63430008090033",
  "linkReferences": {},
  "deployedLinkReferences": {}
}