{
  "_format": "hh-sol-artifact-1",
  "contractName": "BkHighUpgrades",
  "sourceName": "contracts/features/BkHighUpgrades.sol",
  "abi": [
    {
      "anonymous": false,
      "inputs": [
        {
          "indexed": false,
          "internalType": "address",
          "name": "account",
          "type": "address"
        },
        {
          "indexed": false,
          "internalType": "uint256",
          "name": "masteryIndex",
          "type": "uint256"
        },
        {
          "indexed": false,
          "internalType": "uint256",
          "name": "oldLevel",
          "type": "uint256"
        },
        {
          "indexed": false,
          "internalType": "uint256",
          "name": "newLevel",
          "type": "uint256"
        }
      ],
      "name": "BuyMastery",
      "type": "event"
    },
    {
      "anonymous": false,
      "inputs": [
        {
          "indexed": false,
          "internalType": "address",
          "name": "account",
          "type": "address"
        },
        {
          "indexed": false,
          "internalType": "uint256",
          "name": "beastId",
          "type": "uint256"
        },
        {
          "indexed": false,
          "internalType": "uint256",
          "name": "oldSpecies",
          "type": "uint256"
        },
        {
          "indexed": false,
          "internalType": "uint256",
          "name": "newSpecies",
          "type": "uint256"
        }
      ],
      "name": "Deify",
      "type": "event"
    },
    {
      "anonymous": false,
      "inputs": [
        {
          "indexed": false,
          "internalType": "address",
          "name": "to",
          "type": "address"
        },
        {
          "indexed": false,
          "internalType": "uint256",
          "name": "amount",
          "type": "uint256"
        }
      ],
      "name": "DismantleAiChips",
      "type": "event"
    },
    {
      "anonymous": false,
      "inputs": [
        {
          "indexed": false,
          "internalType": "address",
          "name": "account",
          "type": "address"
        },
        {
          "indexed": false,
          "internalType": "uint256",
          "name": "oldLevel",
          "type": "uint256"
        },
        {
          "indexed": false,
          "internalType": "uint256",
          "name": "newLevel",
          "type": "uint256"
        }
      ],
      "name": "GlobalFarmingBonus",
      "type": "event"
    },
    {
      "anonymous": false,
      "inputs": [
        {
          "indexed": false,
          "internalType": "uint8",
          "name": "version",
          "type": "uint8"
        }
      ],
      "name": "Initialized",
      "type": "event"
    },
    {
      "anonymous": false,
      "inputs": [
        {
          "indexed": false,
          "internalType": "address",
          "name": "from",
          "type": "address"
        },
        {
          "indexed": false,
          "internalType": "address",
          "name": "to",
          "type": "address"
        },
        {
          "indexed": false,
          "internalType": "uint256",
          "name": "amount",
          "type": "uint256"
        }
      ],
      "name": "KoziTransfer",
      "type": "event"
    },
    {
      "anonymous": false,
      "inputs": [
        {
          "indexed": false,
          "internalType": "address",
          "name": "account",
          "type": "address"
        }
      ],
      "name": "Paused",
      "type": "event"
    },
    {
      "anonymous": false,
      "inputs": [
        {
          "indexed": true,
          "internalType": "bytes32",
          "name": "role",
          "type": "bytes32"
        },
        {
          "indexed": true,
          "internalType": "bytes32",
          "name": "previousAdminRole",
          "type": "bytes32"
        },
        {
          "indexed": true,
          "internalType": "bytes32",
          "name": "newAdminRole",
          "type": "bytes32"
        }
      ],
      "name": "RoleAdminChanged",
      "type": "event"
    },
    {
      "anonymous": false,
      "inputs": [
        {
          "indexed": true,
          "internalType": "bytes32",
          "name": "role",
          "type": "bytes32"
        },
        {
          "indexed": true,
          "internalType": "address",
          "name": "account",
          "type": "address"
        },
        {
          "indexed": true,
          "internalType": "address",
          "name": "sender",
          "type": "address"
        }
      ],
      "name": "RoleGranted",
      "type": "event"
    },
    {
      "anonymous": false,
      "inputs": [
        {
          "indexed": true,
          "internalType": "bytes32",
          "name": "role",
          "type": "bytes32"
        },
        {
          "indexed": true,
          "internalType": "address",
          "name": "account",
          "type": "address"
        },
        {
          "indexed": true,
          "internalType": "address",
          "name": "sender",
          "type": "address"
        }
      ],
      "name": "RoleRevoked",
      "type": "event"
    },
    {
      "anonymous": false,
      "inputs": [
        {
          "indexed": false,
          "internalType": "address",
          "name": "to",
          "type": "address"
        },
        {
          "indexed": false,
          "internalType": "uint256",
          "name": "amount",
          "type": "uint256"
        }
      ],
      "name": "TransferAiChips",
      "type": "event"
    },
    {
      "anonymous": false,
      "inputs": [
        {
          "indexed": false,
          "internalType": "address",
          "name": "to",
          "type": "address"
        },
        {
          "indexed": false,
          "internalType": "uint256[]",
          "name": "resources",
          "type": "uint256[]"
        }
      ],
      "name": "TransferResources",
      "type": "event"
    },
    {
      "anonymous": false,
      "inputs": [
        {
          "indexed": false,
          "internalType": "address",
          "name": "account",
          "type": "address"
        }
      ],
      "name": "Unpaused",
      "type": "event"
    },
    {
      "inputs": [],
      "name": "DEFAULT_ADMIN_ROLE",
      "outputs": [
        {
          "internalType": "bytes32",
          "name": "",
          "type": "bytes32"
        }
      ],
      "stateMutability": "view",
      "type": "function"
    },
    {
      "inputs": [
        {
          "internalType": "address",
          "name": "_operator",
          "type": "address"
        },
        {
          "internalType": "address",
          "name": "_blocklistAddress",
          "type": "address"
        }
      ],
      "name": "__Administrable_init",
      "outputs": [],
      "stateMutability": "nonpayable",
      "type": "function"
    },
    {
      "inputs": [],
      "name": "autoReturnRate",
      "outputs": [
        {
          "internalType": "uint256",
          "name": "",
          "type": "uint256"
        }
      ],
      "stateMutability": "view",
      "type": "function"
    },
    {
      "inputs": [
        {
          "internalType": "uint256",
          "name": "bctAmount",
          "type": "uint256"
        }
      ],
      "name": "bctToStabletoken",
      "outputs": [
        {
          "internalType": "uint256",
          "name": "",
          "type": "uint256"
        }
      ],
      "stateMutability": "view",
      "type": "function"
    },
    {
      "inputs": [
        {
          "internalType": "uint256",
          "name": "levels",
          "type": "uint256"
        }
      ],
      "name": "buyGlobalFarmingBonus",
      "outputs": [],
      "stateMutability": "nonpayable",
      "type": "function"
    },
    {
      "inputs": [
        {
          "internalType": "uint256",
          "name": "masteryIndex",
          "type": "uint256"
        },
        {
          "internalType": "uint256",
          "name": "levels",
          "type": "uint256"
        },
        {
          "internalType": "bool",
          "name": "useKozi",
          "type": "bool"
        }
      ],
      "name": "buyMastery",
      "outputs": [],
      "stateMutability": "payable",
      "type": "function"
    },
    {
      "inputs": [],
      "name": "contracts",
      "outputs": [
        {
          "internalType": "contract IBkFarm",
          "name": "farm",
          "type": "address"
        },
        {
          "internalType": "contract IBkNft",
          "name": "nft",
          "type": "address"
        },
        {
          "internalType": "contract IBkStasher",
          "name": "stasher",
          "type": "address"
        },
        {
          "internalType": "contract IBkFetch",
          "name": "balances",
          "type": "address"
        },
        {
          "internalType": "contract IBkPlayerBonus",
          "name": "playerBonus",
          "type": "address"
        }
      ],
      "stateMutability": "view",
      "type": "function"
    },
    {
      "inputs": [
        {
          "internalType": "uint256",
          "name": "beastId",
          "type": "uint256"
        }
      ],
      "name": "deify",
      "outputs": [],
      "stateMutability": "nonpayable",
      "type": "function"
    },
    {
      "inputs": [
        {
          "internalType": "uint256",
          "name": "howMany",
          "type": "uint256"
        }
      ],
      "name": "dismantleAiChips",
      "outputs": [],
      "stateMutability": "nonpayable",
      "type": "function"
    },
    {
      "inputs": [
        {
          "internalType": "bool",
          "name": "_enable",
          "type": "bool"
        }
      ],
      "name": "enableAiChips",
      "outputs": [],
      "stateMutability": "nonpayable",
      "type": "function"
    },
    {
      "inputs": [
        {
          "internalType": "bool",
          "name": "_enable",
          "type": "bool"
        }
      ],
      "name": "enableDeify",
      "outputs": [],
      "stateMutability": "nonpayable",
      "type": "function"
    },
    {
      "inputs": [
        {
          "internalType": "bool",
          "name": "_enable",
          "type": "bool"
        }
      ],
      "name": "enableGlobalFarmingBonus",
      "outputs": [],
      "stateMutability": "nonpayable",
      "type": "function"
    },
    {
      "inputs": [
        {
          "internalType": "bool",
          "name": "_enable",
          "type": "bool"
        }
      ],
      "name": "enableMasteries",
      "outputs": [],
      "stateMutability": "nonpayable",
      "type": "function"
    },
    {
      "inputs": [
        {
          "internalType": "uint256",
          "name": "howMany",
          "type": "uint256"
        }
      ],
      "name": "getAiChipCosts",
      "outputs": [
        {
          "internalType": "uint256",
          "name": "",
          "type": "uint256"
        },
        {
          "internalType": "uint256[]",
          "name": "",
          "type": "uint256[]"
        }
      ],
      "stateMutability": "view",
      "type": "function"
    },
    {
      "inputs": [
        {
          "internalType": "uint256",
          "name": "originalType",
          "type": "uint256"
        }
      ],
      "name": "getDeifyCosts",
      "outputs": [
        {
          "internalType": "uint256",
          "name": "",
          "type": "uint256"
        },
        {
          "internalType": "uint256[]",
          "name": "",
          "type": "uint256[]"
        }
      ],
      "stateMutability": "view",
      "type": "function"
    },
    {
      "inputs": [
        {
          "internalType": "uint256",
          "name": "howMany",
          "type": "uint256"
        }
      ],
      "name": "getDismantleAiChipCosts",
      "outputs": [
        {
          "internalType": "uint256",
          "name": "",
          "type": "uint256"
        },
        {
          "internalType": "uint256[]",
          "name": "",
          "type": "uint256[]"
        }
      ],
      "stateMutability": "view",
      "type": "function"
    },
    {
      "inputs": [
        {
          "internalType": "uint256",
          "name": "currentLevel",
          "type": "uint256"
        },
        {
          "internalType": "uint256",
          "name": "targetLevel",
          "type": "uint256"
        }
      ],
      "name": "getGlobalFarmingBonusCosts",
      "outputs": [
        {
          "internalType": "uint256",
          "name": "",
          "type": "uint256"
        },
        {
          "internalType": "uint256[]",
          "name": "",
          "type": "uint256[]"
        }
      ],
      "stateMutability": "view",
      "type": "function"
    },
    {
      "inputs": [
        {
          "internalType": "uint256",
          "name": "masteryIndex",
          "type": "uint256"
        },
        {
          "internalType": "uint256",
          "name": "currentLevel",
          "type": "uint256"
        },
        {
          "internalType": "uint256",
          "name": "targetLevel",
          "type": "uint256"
        }
      ],
      "name": "getMasteryCosts",
      "outputs": [
        {
          "internalType": "uint256",
          "name": "",
          "type": "uint256"
        },
        {
          "internalType": "uint256[]",
          "name": "",
          "type": "uint256[]"
        }
      ],
      "stateMutability": "pure",
      "type": "function"
    },
    {
      "inputs": [
        {
          "internalType": "bytes32",
          "name": "role",
          "type": "bytes32"
        }
      ],
      "name": "getRoleAdmin",
      "outputs": [
        {
          "internalType": "bytes32",
          "name": "",
          "type": "bytes32"
        }
      ],
      "stateMutability": "view",
      "type": "function"
    },
    {
      "inputs": [
        {
          "internalType": "bytes32",
          "name": "role",
          "type": "bytes32"
        },
        {
          "internalType": "address",
          "name": "account",
          "type": "address"
        }
      ],
      "name": "grantRole",
      "outputs": [],
      "stateMutability": "nonpayable",
      "type": "function"
    },
    {
      "inputs": [],
      "name": "hasBlocklist",
      "outputs": [
        {
          "internalType": "bool",
          "name": "",
          "type": "bool"
        }
      ],
      "stateMutability": "view",
      "type": "function"
    },
    {
      "inputs": [
        {
          "internalType": "bytes32",
          "name": "role",
          "type": "bytes32"
        },
        {
          "internalType": "address",
          "name": "account",
          "type": "address"
        }
      ],
      "name": "hasRole",
      "outputs": [
        {
          "internalType": "bool",
          "name": "",
          "type": "bool"
        }
      ],
      "stateMutability": "view",
      "type": "function"
    },
    {
      "inputs": [
        {
          "internalType": "address",
          "name": "_operator",
          "type": "address"
        },
        {
          "internalType": "address",
          "name": "_blocklist",
          "type": "address"
        }
      ],
      "name": "initialize",
      "outputs": [],
      "stateMutability": "nonpayable",
      "type": "function"
    },
    {
      "inputs": [],
      "name": "kingdomWallet",
      "outputs": [
        {
          "internalType": "address payable",
          "name": "",
          "type": "address"
        }
      ],
      "stateMutability": "view",
      "type": "function"
    },
    {
      "inputs": [],
      "name": "koziPayments",
      "outputs": [
        {
          "internalType": "contract IKoziPayments",
          "name": "",
          "type": "address"
        }
      ],
      "stateMutability": "view",
      "type": "function"
    },
    {
      "inputs": [
        {
          "internalType": "uint256",
          "name": "",
          "type": "uint256"
        }
      ],
      "name": "masteryIndexToDreamResourceIndex",
      "outputs": [
        {
          "internalType": "uint256",
          "name": "",
          "type": "uint256"
        }
      ],
      "stateMutability": "view",
      "type": "function"
    },
    {
      "inputs": [],
      "name": "maxDeifySpecies",
      "outputs": [
        {
          "internalType": "uint256",
          "name": "",
          "type": "uint256"
        }
      ],
      "stateMutability": "view",
      "type": "function"
    },
    {
      "inputs": [],
      "name": "pause",
      "outputs": [],
      "stateMutability": "nonpayable",
      "type": "function"
    },
    {
      "inputs": [],
      "name": "paused",
      "outputs": [
        {
          "internalType": "bool",
          "name": "",
          "type": "bool"
        }
      ],
      "stateMutability": "view",
      "type": "function"
    },
    {
      "inputs": [],
      "name": "paymentContracts",
      "outputs": [
        {
          "internalType": "contract IBkERC20",
          "name": "bct",
          "type": "address"
        },
        {
          "internalType": "contract IBkERC20",
          "name": "busd",
          "type": "address"
        },
        {
          "internalType": "contract ICommunityPool",
          "name": "pool",
          "type": "address"
        },
        {
          "internalType": "contract IBkFarm",
          "name": "farm",
          "type": "address"
        }
      ],
      "stateMutability": "view",
      "type": "function"
    },
    {
      "inputs": [
        {
          "internalType": "uint256",
          "name": "",
          "type": "uint256"
        }
      ],
      "name": "priceInEbctPerSpecies",
      "outputs": [
        {
          "internalType": "uint256",
          "name": "",
          "type": "uint256"
        }
      ],
      "stateMutability": "view",
      "type": "function"
    },
    {
      "inputs": [
        {
          "internalType": "uint256",
          "name": "howMany",
          "type": "uint256"
        }
      ],
      "name": "produceAiChips",
      "outputs": [],
      "stateMutability": "nonpayable",
      "type": "function"
    },
    {
      "inputs": [
        {
          "internalType": "address",
          "name": "tokenAddress",
          "type": "address"
        },
        {
          "internalType": "address",
          "name": "to",
          "type": "address"
        },
        {
          "internalType": "uint256",
          "name": "amount",
          "type": "uint256"
        }
      ],
      "name": "recoverERC20",
      "outputs": [],
      "stateMutability": "nonpayable",
      "type": "function"
    },
    {
      "inputs": [
        {
          "internalType": "bytes32",
          "name": "role",
          "type": "bytes32"
        },
        {
          "internalType": "address",
          "name": "account",
          "type": "address"
        }
      ],
      "name": "renounceRole",
      "outputs": [],
      "stateMutability": "nonpayable",
      "type": "function"
    },
    {
      "inputs": [],
      "name": "resetBlocklist",
      "outputs": [],
      "stateMutability": "nonpayable",
      "type": "function"
    },
    {
      "inputs": [
        {
          "internalType": "uint256",
          "name": "",
          "type": "uint256"
        }
      ],
      "name": "resources",
      "outputs": [
        {
          "internalType": "address",
          "name": "",
          "type": "address"
        }
      ],
      "stateMutability": "view",
      "type": "function"
    },
    {
      "inputs": [],
      "name": "resourcesCount",
      "outputs": [
        {
          "internalType": "uint256",
          "name": "",
          "type": "uint256"
        }
      ],
      "stateMutability": "view",
      "type": "function"
    },
    {
      "inputs": [
        {
          "internalType": "bytes32",
          "name": "role",
          "type": "bytes32"
        },
        {
          "internalType": "address",
          "name": "account",
          "type": "address"
        }
      ],
      "name": "revokeRole",
      "outputs": [],
      "stateMutability": "nonpayable",
      "type": "function"
    },
    {
      "inputs": [],
      "name": "scale",
      "outputs": [
        {
          "internalType": "uint256",
          "name": "",
          "type": "uint256"
        }
      ],
      "stateMutability": "view",
      "type": "function"
    },
    {
      "inputs": [
        {
          "internalType": "address",
          "name": "blocklistAddress",
          "type": "address"
        }
      ],
      "name": "setBlocklist",
      "outputs": [],
      "stateMutability": "nonpayable",
      "type": "function"
    },
    {
      "inputs": [
        {
          "internalType": "address",
          "name": "_farm",
          "type": "address"
        },
        {
          "internalType": "address",
          "name": "_nft",
          "type": "address"
        },
        {
          "internalType": "address",
          "name": "_stasher",
          "type": "address"
        },
        {
          "internalType": "address",
          "name": "_balances",
          "type": "address"
        },
        {
          "internalType": "address",
          "name": "_playerBonus",
          "type": "address"
        }
      ],
      "name": "setContracts",
      "outputs": [],
      "stateMutability": "nonpayable",
      "type": "function"
    },
    {
      "inputs": [
        {
          "internalType": "address",
          "name": "_koziPayments",
          "type": "address"
        }
      ],
      "name": "setKoziPayments",
      "outputs": [],
      "stateMutability": "nonpayable",
      "type": "function"
    },
    {
      "inputs": [
        {
          "internalType": "uint256",
          "name": "_scale",
          "type": "uint256"
        }
      ],
      "name": "setScale",
      "outputs": [],
      "stateMutability": "nonpayable",
      "type": "function"
    },
    {
      "inputs": [
        {
          "internalType": "address",
          "name": "_bct",
          "type": "address"
        },
        {
          "internalType": "address",
          "name": "_busd",
          "type": "address"
        },
        {
          "internalType": "address",
          "name": "_pool",
          "type": "address"
        },
        {
          "internalType": "address",
          "name": "_farm",
          "type": "address"
        },
        {
          "internalType": "address",
          "name": "_resourcesSource",
          "type": "address"
        },
        {
          "internalType": "uint256",
          "name": "_autoReturnRate",
          "type": "uint256"
        }
      ],
      "name": "setupPaymentModule",
      "outputs": [],
      "stateMutability": "nonpayable",
      "type": "function"
    },
    {
      "inputs": [
        {
          "internalType": "uint256",
          "name": "busdAmount",
          "type": "uint256"
        }
      ],
      "name": "stabletokenToBct",
      "outputs": [
        {
          "internalType": "uint256",
          "name": "",
          "type": "uint256"
        }
      ],
      "stateMutability": "view",
      "type": "function"
    },
    {
      "inputs": [
        {
          "internalType": "bytes4",
          "name": "interfaceId",
          "type": "bytes4"
        }
      ],
      "name": "supportsInterface",
      "outputs": [
        {
          "internalType": "bool",
          "name": "",
          "type": "bool"
        }
      ],
      "stateMutability": "view",
      "type": "function"
    },
    {
      "inputs": [
        {
          "internalType": "uint256",
          "name": "",
          "type": "uint256"
        }
      ],
      "name": "typeToBaseFarm",
      "outputs": [
        {
          "internalType": "uint256",
          "name": "",
          "type": "uint256"
        }
      ],
      "stateMutability": "view",
      "type": "function"
    },
    {
      "inputs": [
        {
          "internalType": "uint256",
          "name": "",
          "type": "uint256"
        }
      ],
      "name": "typeToTrait",
      "outputs": [
        {
          "internalType": "uint256",
          "name": "",
          "type": "uint256"
        }
      ],
      "stateMutability": "view",
      "type": "function"
    },
    {
      "inputs": [],
      "name": "unpause",
      "outputs": [],
      "stateMutability": "nonpayable",
      "type": "function"
    }
  ],
  "bytecode": "0x608060405234801561001057600080fd5b50613d12806100206000396000f3fe6080604052600436106102ae5760003560e01c8063597d7f811161017557806392746bc4116100dc578063be5a38b311610095578063dc2e8d8d1161006f578063dc2e8d8d14610933578063f4b93f4514610953578063f51e181a14610973578063f63bf8bd1461098957600080fd5b8063be5a38b3146108ea578063c429d349146108fd578063d547741f1461091357600080fd5b806392746bc414610835578063931da89b14610855578063a217fddf14610875578063aef18ae71461088a578063b5f63f60146108aa578063b84e99b8146108ca57600080fd5b80637198a07d1161012e5780637198a07d146107735780637f246fbf14610793578063803b0060146107b35780638456cb59146107e057806391d14854146107f557806391eebe2d1461081557600080fd5b8063597d7f81146106675780635c975abb14610687578063634210f41461069f5780636a754ffe146106c05780636aebca9e146106e05780636c0f79b61461070057600080fd5b806336568abe1161021957806341e80ad9116101d257806341e80ad9146105a4578063485cc955146105c457806349f1e708146105e45780634c80dda41461060457806351ac7b8c146106315780635736add41461064757600080fd5b806336568abe146104f65780633a93f328146105165780633ab5baeb146105445780633c7fd8221461055a5780633edc35191461056f5780633f4ba83a1461058f57600080fd5b8063244d6daa1161026b578063244d6daa146103a5578063248a9ca3146103f35780632bc8b397146104235780632cb156ad146104435780632f2ff15d14610470578063323b6cb71461049057600080fd5b806301ffc9a7146102b357806306b0750a146102e85780630a40f7261461030a5780630d520cfe146103455780631171bda9146103655780631eb313fc14610385575b600080fd5b3480156102bf57600080fd5b506102d36102ce366004613274565b6109a9565b60405190151581526020015b60405180910390f35b3480156102f457600080fd5b5061030861030336600461329e565b6109e0565b005b34801561031657600080fd5b5061033761032536600461329e565b60dc6020526000908152604090205481565b6040519081526020016102df565b34801561035157600080fd5b5061030861036036600461329e565b6110e0565b34801561037157600080fd5b506103086103803660046132cc565b6112e8565b34801561039157600080fd5b506103086103a036600461331b565b611389565b3480156103b157600080fd5b506103db6103c036600461329e565b60cb602052600090815260409020546001600160a01b031681565b6040516001600160a01b0390911681526020016102df565b3480156103ff57600080fd5b5061033761040e36600461329e565b60009081526065602052604090206001015490565b34801561042f57600080fd5b5061030861043e36600461329e565b6113c0565b34801561044f57600080fd5b5061033761045e36600461329e565b60da6020526000908152604090205481565b34801561047c57600080fd5b5061030861048b366004613338565b6115cb565b34801561049c57600080fd5b5060cc5460cd5460ce5460cf546104c3936001600160a01b03908116938116928116911684565b604080516001600160a01b03958616815293851660208501529184169183019190915290911660608201526080016102df565b34801561050257600080fd5b50610308610511366004613338565b6115f5565b34801561052257600080fd5b5061053661053136600461329e565b611618565b6040516102df9291906133a3565b34801561055057600080fd5b5061033760d85481565b34801561056657600080fd5b5061030861171f565b34801561057b57600080fd5b5061030861058a36600461329e565b61174a565b34801561059b57600080fd5b50610308611768565b3480156105b057600080fd5b506103376105bf36600461329e565b61178b565b3480156105d057600080fd5b506103086105df3660046133c4565b611809565b3480156105f057600080fd5b506105366105ff3660046133f2565b611caf565b34801561061057600080fd5b5061033761061f36600461329e565b60db6020526000908152604090205481565b34801561063d57600080fd5b5061033760ca5481565b34801561065357600080fd5b5061030861066236600461331b565b611df9565b34801561067357600080fd5b50610308610682366004613414565b611e2e565b34801561069357600080fd5b5060975460ff166102d3565b3480156106ab57600080fd5b5060c9546102d390600160a01b900460ff1681565b3480156106cc57600080fd5b506105366106db366004613431565b611e69565b3480156106ec57600080fd5b506105366106fb36600461329e565b611f7b565b34801561070c57600080fd5b5060d15460d25460d35460d45460d554610739946001600160a01b03908116948116938116928116911685565b604080516001600160a01b03968716815294861660208601529285169284019290925283166060830152909116608082015260a0016102df565b34801561077f57600080fd5b5061030861078e36600461331b565b611fc6565b34801561079f57600080fd5b506103086107ae36600461329e565b611ff2565b3480156107bf57600080fd5b506103376107ce36600461329e565b60d96020526000908152604090205481565b3480156107ec57600080fd5b506103086121cc565b34801561080157600080fd5b506102d3610810366004613338565b6121ec565b34801561082157600080fd5b5061030861083036600461331b565b612217565b34801561084157600080fd5b5061053661085036600461329e565b61224a565b34801561086157600080fd5b506103086108703660046133c4565b612413565b34801561088157600080fd5b50610337600081565b34801561089657600080fd5b506103086108a5366004613414565b61250f565b3480156108b657600080fd5b506103376108c536600461329e565b61254f565b3480156108d657600080fd5b5060de546103db906001600160a01b031681565b6103086108f836600461345d565b612581565b34801561090957600080fd5b5061033760d05481565b34801561091f57600080fd5b5061030861092e366004613338565b6128ae565b34801561093f57600080fd5b5060dd546103db906001600160a01b031681565b34801561095f57600080fd5b5061030861096e366004613496565b6128d3565b34801561097f57600080fd5b5061033760d75481565b34801561099557600080fd5b506103086109a436600461350f565b612902565b60006001600160e01b03198216637965db0b60e01b14806109da57506301ffc9a760e01b6001600160e01b03198316145b92915050565b6109e86129a2565b60d2546040516341f63bfd60e01b8152600481018390526000916001600160a01b0316906341f63bfd9060240160006040518083038186803b158015610a2d57600080fd5b505afa158015610a41573d6000803e3d6000fd5b505050506040513d6000823e601f3d908101601f19168201604052610a699190810190613752565b60d2546040516331a9108f60e11b8152600481018590529192506000916001600160a01b0390911690636352211e9060240160206040518083038186803b158015610ab357600080fd5b505afa158015610ac7573d6000803e3d6000fd5b505050506040513d601f19601f82011682018060405250810190610aeb91906138af565b90506001600160a01b0381163314610b2e5760405162461bcd60e51b81526020600482015260016024820152600360fc1b60448201526064015b60405180910390fd5b608082015115610b645760405162461bcd60e51b81526020600482015260016024820152603160f81b6044820152606401610b25565b610b6d826129ea565b600514610ba05760405162461bcd60e51b81526020600482015260016024820152601960f91b6044820152606401610b25565b6000610bab83612a13565b905060d854811115610be35760405162461bcd60e51b81526020600482015260016024820152603360f81b6044820152606401610b25565b60d354604051635c138c9d60e01b81523360048201526000916001600160a01b031690635c138c9d9060240160206040518083038186803b158015610c2757600080fd5b505afa158015610c3b573d6000803e3d6000fd5b505050506040513d601f19601f82011682018060405250810190610c5f91906138cc565b905080600a1480610c7a5750610c768260086138fb565b8110155b610caa5760405162461bcd60e51b81526020600482015260016024820152600d60fa1b6044820152606401610b25565b6000610cb78360056138fb565b9050600080610cc58561224a565b6040805160808101825260018082526020820152600091810182905260608101919091529193509150610cfb9083908390612a2d565b60d254604051639497558560e01b8152600481018a9052606060248201526000606482018190526080604483015260848201526001600160a01b039091169063949755859060a401600060405180830381600087803b158015610d5d57600080fd5b505af1158015610d71573d6000803e3d6000fd5b50505061010088015160009150600481518110610d9057610d90613913565b6020908102919091010152610100870151600090600581518110610db657610db6613913565b6020908102919091010152610100870151600590600181518110610ddc57610ddc613913565b60209081029190910101526101008701518390600081518110610e0157610e01613913565b602090810291909101015260408051600680825260e08201909252600091816020016020820280368337019050509050600181600081518110610e4657610e46613913565b602002602001018181525050600181600181518110610e6757610e67613913565b602090810291909101015260d2546101008901516040516386931e4960e01b81526001600160a01b03909216916386931e4991610eab918d91908690600401613929565b600060405180830381600087803b158015610ec557600080fd5b505af1158015610ed9573d6000803e3d6000fd5b506000925060039150610ee99050565b604051908082528060200260200182016040528015610f12578160200160208202803683370190505b50600086815260da6020526040812054825192935091839190610f3757610f37613913565b60200260200101818152505060da60008681526020019081526020016000205481600181518110610f6a57610f6a613913565b60200260200101818152505060da60008681526020019081526020016000205481600281518110610f9d57610f9d613913565b602090810291909101015260d25460405163088d210f60e41b81526001600160a01b03909116906388d210f090610fda908d9085906004016133a3565b600060405180830381600087803b158015610ff457600080fd5b505af1158015611008573d6000803e3d6000fd5b505060d254600088815260db60205260409081902054905163de71b06760e01b8152600481018f905260248101919091526001600160a01b03909116925063de71b0679150604401600060405180830381600087803b15801561106a57600080fd5b505af115801561107e573d6000803e3d6000fd5b5050604080516001600160a01b038c168152602081018e90529081018a9052606081018890527fdfe58dee5d678e842925d5672e923a0f0bd70b16b2285cc75a66b16e1c0e7a649250608001905060405180910390a150505050505050505050565b6110e86129a2565b60d6546301000000900460ff16806111135750611113600080516020613c9d833981519152336121ec565b61112f5760405162461bcd60e51b8152600401610b259061395e565b60d5546040516367bb9a1f60e11b81523360048201526000916001600160a01b03169063cf77343e9060240160006040518083038186803b15801561117357600080fd5b505afa158015611187573d6000803e3d6000fd5b505050506040513d6000823e601f3d908101601f191682016040526111af919081019061397a565b50606081015190915060009081906111cb906105ff86826138fb565b60408051608081018252600180825260208201526000918101829052606081019190915291935091506112019083908390612a2d565b60d55460608401516001600160a01b0390911690632f46c3839033906112289088906138fb565b6040516001600160e01b031960e085901b1681526001600160a01b0390921660048301526024820152604401600060405180830381600087803b15801561126e57600080fd5b505af1158015611282573d6000803e3d6000fd5b50505060608401517f12c0a01ca21cd085250692c4b1d255a48616a727046bcf0b0fd41ae42189ba7a915033906112b987826138fb565b604080516001600160a01b0390941684526020840192909252908201526060015b60405180910390a150505050565b600080516020613cbd83398151915261130081612cca565b60405163a9059cbb60e01b81526001600160a01b0384811660048301526024820184905285169063a9059cbb90604401602060405180830381600087803b15801561134a57600080fd5b505af115801561135e573d6000803e3d6000fd5b505050506040513d601f19601f820116820180604052508101906113829190613a0f565b5050505050565b600080516020613cbd8339815191526113a181612cca565b5060d6805491151563010000000263ff00000019909216919091179055565b6113c86129a2565b60d65462010000900460ff16806113f257506113f2600080516020613c9d833981519152336121ec565b61140e5760405162461bcd60e51b8152600401610b259061395e565b60008061141a83611f7b565b60408051608081018252600180825260208201526000918101829052606081019190915291935091506114509083908390612a2d565b61145b836064613a2c565b8160168151811061146e5761146e613913565b6020908102919091010152611484836064613a2c565b8160178151811061149757611497613913565b60209081029190910101526114ad836064613a2c565b816018815181106114c0576114c0613913565b6020026020010181815250506000816019815181106114e1576114e1613913565b602090810291909101015260d1546040516304567ca960e11b81526001600160a01b03909116906308acf952906115219033906000908690600401613a4b565b600060405180830381600087803b15801561153b57600080fd5b505af115801561154f573d6000803e3d6000fd5b505060408051338152602081018790527fa7cf3114bd11a560d5136d1261c3b4d1fc300d4d5763ea059dfee335a580fbd3935001905060405180910390a17ff01cb619d4302523996df428de2086bca27fe8f835bd6ce7c19e94fb046684c533826040516115be929190613a7b565b60405180910390a1505050565b6000828152606560205260409020600101546115e681612cca565b6115f08383612cd4565b505050565b6001600160a01b038116331461160a57600080fd5b6116148282612d5a565b5050565b60408051601a808252610360820190925260009160609183918291906020820161034080368337019050509050611650856064613a2c565b8160158151811061166357611663613913565b6020908102919091010152611679856064613a2c565b8160168151811061168c5761168c613913565b60209081029190910101526116a2856064613a2c565b816017815181106116b5576116b5613913565b60209081029190910101526116cb856064613a2c565b816018815181106116de576116de613913565b602090810291909101015260d75460329061170184670de0b6b3a7640000613a2c565b61170b9190613a2c565b6117159190613a9f565b9590945092505050565b600080516020613cbd83398151915261173781612cca565b5060c980546001600160a81b0319169055565b600080516020613cbd83398151915261176281612cca565b5060d755565b600080516020613cbd83398151915261178081612cca565b611788612dc1565b50565b60ce54604051634ca1cccb60e11b8152600481018390526000916001600160a01b0316906399439996906024015b60206040518083038186803b1580156117d157600080fd5b505afa1580156117e5573d6000803e3d6000fd5b505050506040513d601f19601f820116820180604052508101906109da91906138cc565b600054610100900460ff16158080156118295750600054600160ff909116105b806118435750303b158015611843575060005460ff166001145b61184c57600080fd5b6000805460ff19166001179055801561186f576000805461ff0019166101001790555b6118798383612413565b603260d755602c7f352542d120459fe49009d574b12995edcbb363275cf170be343dee6830d5dcdf5560317ffb4378f518daf1247a4fecf0fbc84c05578a2ac03a0465b018dc5da57dfd61185560057f62bc18884a8d2f06fc5375ba774ddf7ed53c8b1cef91fbbe0f66938ceb852c7981905560137fba8407f2dde1ffcb76cdb7ca386ae1f078000e0991202345e341cdc69d21699655601f7ff6f365d4baa205bd104b21ae18cd7c03c3d409d7fe392b1575b6e5aec4b1b4905560257fa73273eaf0dd7f80eea98b3f7f74f8c376c880b06ad673354b98a3343dd656845560337f79872d0688462dcc426b99ded94fa153ced5472511df68d0a09d238a30f3cbfa5560357f4955ddd678b0fd2068679eb6cbd2d8e176c66a676d2a4eafef0fde0f269563bb5560347fcc9bf65eabeb95d1fe95ced84bce21cc8b43ab424e2872f12cafd4dc19a12fd05560367ff67daaf05c86b712b3242cd58898fdfe556368055d88a6a486fd38ae2408c77455655af3107a40007f0753aab3c814d10169d625e7f73301b767fae521c959dd1f101dc1948b90768a556571afd498d0007f1e5ca2b3a5b37f307bf7224dee63e9db01850c69ad03b81a1746af40011c73295565886c98b760007f982a732a2db9f1c172af3728a031722a4fb69fc13c197730747678bca82e9f7355659f295cd5f0007f6d7a35b3393c68521d1beaa179aaa0963665f58848369eff816650d1ca6f666f556601c6bf526340007fd8efe695ce34e67be575fe9d61b4ce6ed9d2159ad3137c0a5d96facc5488366655660221b262dd80007f88e214959a6e1410760d7732915676dbc328ddb34b73cb68393ef95694a7ee5d5566027ca57357c0007f0b0a1c44dc6886781da95cf1805105f317ce8238e9ff8a639fca64e1ff3707d4556602d79883d200007f611d32ca7af386e29ec365b729326f4c1f5532bdfaacd05635ec531f357c316f5566038d7ea4c680007f2a4a21cdf6781e38cc546235b3dc31591e6e79ab585d195135d56bc77c4f1aba55660470de4df820007fe94c98768cbb30f02ef90377f555646c111ea9eae727e1c7b05234a60ae5d9ab5560dc60205260197fa914a711fa9859c15cb17d2aa25e08470aa298217330c83169dd2a380ff0e85d5560157fed5632bb274c77ec3a8fb983dc542cd5cc49def33659104ab3c76bf3dc28c94e8190557f305af1d5eeca2070eb555bae23239ec4d3425b7ee73c1c5ceb1a9bd5d7c1d3075560177fd424594b947c18da8f3a6f93819695640a748b6d74709a708102e14e3e81669c5560167f0fb4caf2b09259681c9229fb409ac599b6692aeff999fc756681a9d7d3fd042855600081905260187f046340db4f2c181c4c7d6966c61f461a307218d968b1f2751f28e78a2a637ffb5560d85580156115f0576000805461ff0019169055604051600181527f7f26b83ff96e1f2b6a682f133852f6798a09c465da95921460cefb3847402498906020016115be565b600060606103e860026001848080895b611cc98a8c6138fb565b811015611d4557611cdb8160016138fb565b611ce59088613a2c565b611cef90856138fb565b9350611cfc816002613a2c565b611d069087613a2c565b611d1090846138fb565b9250611d1d8160016138fb565b611d279086613a2c565b611d3190836138fb565b915080611d3d81613ac1565b915050611cbf565b5060408051601a80825261036082019092526000916020820161034080368337019050509050611d76826064613a2c565b81600981518110611d8957611d89613913565b6020908102919091010152611d9f836064613a2c565b81601981518110611db257611db2613913565b602090810291909101015260d754603290611dd586670de0b6b3a7640000613a2c565b611ddf9190613a2c565b611de99190613a9f565b9b909a5098505050505050505050565b600080516020613cbd833981519152611e1181612cca565b5060d68054911515620100000262ff000019909216919091179055565b600080516020613cbd833981519152611e4681612cca565b5060de80546001600160a01b0319166001600160a01b0392909216919091179055565b600060608185611e7b57506005611e9b565b8560011480611e8a5750856005145b15611e9757506004611e9b565b5060035b6000855b85811015611eea5782811015611ecb57611eba8160016138fb565b611ec490836138fb565b9150611ed8565b611ed583836138fb565b91505b80611ee281613ac1565b915050611e9f565b5060408051601a80825261036082019092526000916020820161034080368337019050509050611f1a8787613adc565b611f25906064613a2c565b81601581518110611f3857611f38613913565b6020908102919091010152611f4e826064613a2c565b81601981518110611f6157611f61613913565b602090810291909101015260009890975095505050505050565b60408051601a808252610360820190925260009160609183918291906020820161034080368337019050509050611fb3856064613a2c565b816019815181106116de576116de613913565b600080516020613cbd833981519152611fde81612cca565b5060d6805460ff1916911515919091179055565b611ffa6129a2565b60d65462010000900460ff16806120245750612024600080516020613c9d833981519152336121ec565b6120405760405162461bcd60e51b8152600401610b259061395e565b60008061204c83611618565b60408051608081018252600180825260208201526000918101829052606081019190915291935091506120829083908390612a2d565b60008160158151811061209757612097613913565b6020026020010181815250506000816016815181106120b8576120b8613913565b6020026020010181815250506000816017815181106120d9576120d9613913565b6020026020010181815250506000816018815181106120fa576120fa613913565b6020908102919091010152612110836064613a2c565b8160198151811061212357612123613913565b602090810291909101015260d1546040516304567ca960e11b81526001600160a01b03909116906308acf952906121639033906000908690600401613a4b565b600060405180830381600087803b15801561217d57600080fd5b505af1158015612191573d6000803e3d6000fd5b505060408051338152602081018790527f548f8a8766b0cc1cf5665263896acd1f29598428b997d762833b567a8a70b5ff93500190506115be565b600080516020613cbd8339815191526121e481612cca565b611788612e13565b60009182526065602090815260408084206001600160a01b0393909316845291905290205460ff1690565b600080516020613cbd83398151915261222f81612cca565b5060d680549115156101000261ff0019909216919091179055565b6000606060006008841115612279578360091461226a57620186a061226f565b620124f85b62ffffff1661229c565b612284600185613adc565b61229090611388613a2c565b61229c906127106138fb565b9050600060058511156122c05760088511156122b95760fa6122c3565b60326122c3565b60195b60ff169050600060058611156122e3576122de8660086138fb565b6122ee565b6122ee86600d6138fb565b90506000600587111561231257600887111561230b5760fa612315565b6064612315565b60325b60ff169050600060058811156123355761233088600f6138fb565b612340565b6123408860146138fb565b60408051601a808252610360820190925291925060009190602082016103408036833701905050905060648160098151811061237e5761237e613913565b6020908102919091010152612394856064613a2c565b8185815181106123a6576123a6613913565b60209081029190910101526123bc836064613a2c565b8183815181106123ce576123ce613913565b602090810291909101015260d7546032906123f188670de0b6b3a7640000613a2c565b6123fb9190613a2c565b6124059190613a9f565b999098509650505050505050565b600054610100900460ff16158080156124335750600054600160ff909116105b8061244d5750303b15801561244d575060005460ff166001145b61245657600080fd5b6000805460ff191660011790558015612479576000805461ff0019166101001790555b612481612e50565b612489612e64565b612494600084612e80565b6124ac600080516020613cbd83398151915284612e80565b6124c4600080516020613c9d83398151915284612e80565b6124cd8261250f565b80156115f0576000805461ff0019169055604051600181527f7f26b83ff96e1f2b6a682f133852f6798a09c465da95921460cefb3847402498906020016115be565b600080516020613cbd83398151915261252781612cca565b5060c980546001600160a81b0319166001600160a01b0390921691909117600160a01b179055565b60ce5460405163526267fd60e11b8152600481018390526000916001600160a01b03169063a4c4cffa906024016117b9565b6125896129a2565b60d654610100900460ff16806125b257506125b2600080516020613c9d833981519152336121ec565b6125ce5760405162461bcd60e51b8152600401610b259061395e565b60d554604051631d23bf9160e21b81523360048201526000916001600160a01b03169063748efe449060240160006040518083038186803b15801561261257600080fd5b505afa158015612626573d6000803e3d6000fd5b505050506040513d6000823e601f3d908101601f1916820160405261264e9190810190613af3565b9250505081156127135760de546001600160a01b0316637700db88343361267d87670de0b6b3a7640000613a2c565b61268890600a613a2c565b6040516001600160e01b031960e086901b1681526001600160a01b0390921660048301526024820152600160448201526064016020604051808303818588803b1580156126d457600080fd5b505af11580156126e8573d6000803e3d6000fd5b50505050506040513d601f19601f8201168201806040525081019061270d91906138cc565b50612792565b6000806127598684888151811061272c5761272c613913565b602002602001015187868a8151811061274757612747613913565b60200260200101516106db91906138fb565b604080516080810182526001808252602082015260009181018290526060810191909152919350915061278f9083908390612a2d565b50505b828185815181106127a5576127a5613913565b602002602001018181516127b991906138fb565b90525060d554604051630b8fe2f960e41b81526001600160a01b039091169063b8fe2f90906127ee9033908590600401613a7b565b600060405180830381600087803b15801561280857600080fd5b505af115801561281c573d6000803e3d6000fd5b505050507ff79500c859f8521da0fea9482c16e6c4280f8a3ec2701949db8604c3cce5c78433858584888151811061285657612856613913565b60200260200101516128689190613adc565b84888151811061287a5761287a613913565b602090810291909101810151604080516001600160a01b0390961686529185019390935283015260608201526080016112da565b6000828152606560205260409020600101546128c981612cca565b6115f08383612d5a565b600080516020613cbd8339815191526128eb81612cca565b6128f9878787878787612e8a565b50505050505050565b600080516020613cbd83398151915261291a81612cca565b506040805160a0810182526001600160a01b03968716808252958716602082018190529487169181018290529286166060840181905291909516608090920182905260d180546001600160a01b0319908116909517905560d28054851690931790925560d38054841690941790935560d480548316909117905560d580549091169091179055565b60975460ff16156129e85760405162461bcd60e51b815260206004820152601060248201526f14185d5cd8589b194e881c185d5cd95960821b6044820152606401610b25565b565b6000816101000151600181518110612a0457612a04613913565b60200260200101519050919050565b6000816101000151600081518110612a0457612a04613913565b806040015115612bb557806020015115612a6e5760405162461bcd60e51b8152602060048201526002602482015261070360f41b6044820152606401610b25565b8051600090612a7d5783612a86565b612a868461254f565b60cd546040516323b872dd60e01b8152336004820152306024820152604481018390529192506001600160a01b0316906323b872dd90606401602060405180830381600087803b158015612ad957600080fd5b505af1158015612aed573d6000803e3d6000fd5b505050506040513d601f19601f82011682018060405250810190612b119190613a0f565b50600060648260d054612b249190613a2c565b612b2e9190613a9f565b60ce54604051630d3990db60e21b8152600481018390529192506001600160a01b0316906334e6436c90602401602060405180830381600087803b158015612b7557600080fd5b505af1158015612b89573d6000803e3d6000fd5b505050506040513d601f19601f82011682018060405250810190612bad91906138cc565b505050505050565b806060015115612bec5760405162461bcd60e51b8152602060048201526002602482015261703160f01b6044820152606401610b25565b8051600090612c0357612bfe8461178b565b612c05565b835b60cf5460405163b1918c9560e01b81529192506000916001600160a01b039091169063b1918c9590612c3f90339086908990600401613a4b565b602060405180830381600087803b158015612c5957600080fd5b505af1158015612c6d573d6000803e3d6000fd5b505050506040513d601f19601f82011682018060405250810190612c919190613a0f565b9050806113825760405162461bcd60e51b81526020600482015260076024820152666e6f46756e647360c81b6044820152606401610b25565b6117888133612f51565b612cde82826121ec565b6116145760008281526065602090815260408083206001600160a01b03851684529091529020805460ff19166001179055612d163390565b6001600160a01b0316816001600160a01b0316837f2f8788117e7eff1d82e926ec794901d17c78024a50270940304540a733656f0d60405160405180910390a45050565b612d6482826121ec565b156116145760008281526065602090815260408083206001600160a01b0385168085529252808320805460ff1916905551339285917ff6391f5c32d9c69d2a47ea670b442974b53935d1edc7fd64eb21e047a839171b9190a45050565b612dc9612faa565b6097805460ff191690557f5db9ee0a495bf2e6ff9c91a7834c1ba4fdd244a5e8aa4e537bd38aeae4b073aa335b6040516001600160a01b03909116815260200160405180910390a1565b612e1b6129a2565b6097805460ff191660011790557f62e78cea01bee320cd4e420270b5ea74000d11b0c9f74754ebdbfc544b05a258612df63390565b600054610100900460ff166129e857600080fd5b600054610100900460ff16612e7857600080fd5b6129e8612ff3565b6116148282612cd4565b60cc80546001600160a01b038089166001600160a01b03199283161790925560cd805488841690831617905560ce805487841690831617905560cf805492861692909116919091179055612edd82613013565b60d081905560cd5460405163095ea7b360e01b81526001600160a01b03868116600483015260001960248301529091169063095ea7b390604401600060405180830381600087803b158015612f3157600080fd5b505af1158015612f45573d6000803e3d6000fd5b50505050505050505050565b612f5b82826121ec565b61161457612f6881613102565b612f73836020613114565b604051602001612f84929190613b43565b60408051601f198184030181529082905262461bcd60e51b8252610b2591600401613bb8565b60975460ff166129e85760405162461bcd60e51b815260206004820152601460248201527314185d5cd8589b194e881b9bdd081c185d5cd95960621b6044820152606401610b25565b600054610100900460ff1661300757600080fd5b6097805460ff19169055565b60008190506000816001600160a01b031663c1cc57b06040518163ffffffff1660e01b815260040160006040518083038186803b15801561305357600080fd5b505afa158015613067573d6000803e3d6000fd5b505050506040513d6000823e601f3d908101601f1916820160405261308f9190810190613beb565b905060005b81518110156130f9578181815181106130af576130af613913565b602090810291909101810151600083815260cb909252604090912080546001600160a01b0319166001600160a01b03909216919091179055806130f181613ac1565b915050613094565b505160ca555050565b60606109da6001600160a01b03831660145b60606000613123836002613a2c565b61312e9060026138fb565b67ffffffffffffffff81111561314657613146613580565b6040519080825280601f01601f191660200182016040528015613170576020820181803683370190505b509050600360fc1b8160008151811061318b5761318b613913565b60200101906001600160f81b031916908160001a905350600f60fb1b816001815181106131ba576131ba613913565b60200101906001600160f81b031916908160001a90535060006131de846002613a2c565b6131e99060016138fb565b90505b6001811115613261576f181899199a1a9b1b9c1cb0b131b232b360811b85600f166010811061321d5761321d613913565b1a60f81b82828151811061323357613233613913565b60200101906001600160f81b031916908160001a90535060049490941c9361325a81613c85565b90506131ec565b50831561326d57600080fd5b9392505050565b60006020828403121561328657600080fd5b81356001600160e01b03198116811461326d57600080fd5b6000602082840312156132b057600080fd5b5035919050565b6001600160a01b038116811461178857600080fd5b6000806000606084860312156132e157600080fd5b83356132ec816132b7565b925060208401356132fc816132b7565b929592945050506040919091013590565b801515811461178857600080fd5b60006020828403121561332d57600080fd5b813561326d8161330d565b6000806040838503121561334b57600080fd5b82359150602083013561335d816132b7565b809150509250929050565b600081518084526020808501945080840160005b838110156133985781518752958201959082019060010161337c565b509495945050505050565b8281526040602082015260006133bc6040830184613368565b949350505050565b600080604083850312156133d757600080fd5b82356133e2816132b7565b9150602083013561335d816132b7565b6000806040838503121561340557600080fd5b50508035926020909101359150565b60006020828403121561342657600080fd5b813561326d816132b7565b60008060006060848603121561344657600080fd5b505081359360208301359350604090920135919050565b60008060006060848603121561347257600080fd5b8335925060208401359150604084013561348b8161330d565b809150509250925092565b60008060008060008060c087890312156134af57600080fd5b86356134ba816132b7565b955060208701356134ca816132b7565b945060408701356134da816132b7565b935060608701356134ea816132b7565b925060808701356134fa816132b7565b8092505060a087013590509295509295509295565b600080600080600060a0868803121561352757600080fd5b8535613532816132b7565b94506020860135613542816132b7565b93506040860135613552816132b7565b92506060860135613562816132b7565b91506080860135613572816132b7565b809150509295509295909350565b634e487b7160e01b600052604160045260246000fd5b604051610180810167ffffffffffffffff811182821017156135ba576135ba613580565b60405290565b60405160c0810167ffffffffffffffff811182821017156135ba576135ba613580565b604051601f8201601f1916810167ffffffffffffffff8111828210171561360c5761360c613580565b604052919050565b60005b8381101561362f578181015183820152602001613617565b8381111561363e576000848401525b50505050565b600082601f83011261365557600080fd5b815167ffffffffffffffff81111561366f5761366f613580565b613682601f8201601f19166020016135e3565b81815284602083860101111561369757600080fd5b6133bc826020830160208701613614565b80516136b3816132b7565b919050565b600067ffffffffffffffff8211156136d2576136d2613580565b5060051b60200190565b600082601f8301126136ed57600080fd5b815160206137026136fd836136b8565b6135e3565b82815260059290921b8401810191818101908684111561372157600080fd5b8286015b8481101561373c5780518352918301918301613725565b509695505050505050565b80516136b38161330d565b60006020828403121561376457600080fd5b815167ffffffffffffffff8082111561377c57600080fd5b90830190610180828603121561379157600080fd5b613799613596565b825181526020830151828111156137af57600080fd5b6137bb87828601613644565b6020830152506040830151828111156137d357600080fd5b6137df87828601613644565b6040830152506137f1606084016136a8565b60608201526080830151608082015260a083015160a082015260c083015160c082015260e083015160e0820152610100808401518381111561383257600080fd5b61383e888287016136dc565b828401525050610120808401518381111561385857600080fd5b613864888287016136dc565b828401525050610140808401518381111561387e57600080fd5b61388a888287016136dc565b82840152505061016091506138a0828401613747565b91810191909152949350505050565b6000602082840312156138c157600080fd5b815161326d816132b7565b6000602082840312156138de57600080fd5b5051919050565b634e487b7160e01b600052601160045260246000fd5b6000821982111561390e5761390e6138e5565b500190565b634e487b7160e01b600052603260045260246000fd5b8381526060602082015260006139426060830185613368565b82810360408401526139548185613368565b9695505050505050565b602080825260029082015261373760f01b604082015260600190565b60008082840360e081121561398e57600080fd5b60c081121561399c57600080fd5b506139a56135c0565b835181526020840151602082015260408401516040820152606084015160608201526080840151608082015260a084015160a08201528092505060c083015167ffffffffffffffff8111156139f957600080fd5b613a05858286016136dc565b9150509250929050565b600060208284031215613a2157600080fd5b815161326d8161330d565b6000816000190483118215151615613a4657613a466138e5565b500290565b60018060a01b0384168152826020820152606060408201526000613a726060830184613368565b95945050505050565b6001600160a01b03831681526040602082018190526000906133bc90830184613368565b600082613abc57634e487b7160e01b600052601260045260246000fd5b500490565b6000600019821415613ad557613ad56138e5565b5060010190565b600082821015613aee57613aee6138e5565b500390565b600080600060608486031215613b0857600080fd5b8351925060208401519150604084015167ffffffffffffffff811115613b2d57600080fd5b613b39868287016136dc565b9150509250925092565b7f416363657373436f6e74726f6c3a206163636f756e7420000000000000000000815260008351613b7b816017850160208801613614565b7001034b99036b4b9b9b4b733903937b6329607d1b6017918401918201528351613bac816028840160208801613614565b01602801949350505050565b6020815260008251806020840152613bd7816040850160208701613614565b601f01601f19169190910160400192915050565b60006020808385031215613bfe57600080fd5b825167ffffffffffffffff811115613c1557600080fd5b8301601f81018513613c2657600080fd5b8051613c346136fd826136b8565b81815260059190911b82018301908381019087831115613c5357600080fd5b928401925b82841015613c7a578351613c6b816132b7565b82529284019290840190613c58565b979650505050505050565b600081613c9457613c946138e5565b50600019019056fe73e573f9566d61418a34d5de3ff49360f9c51fec37f7486551670290f6285dab97667070c54ef182b0f5858b034beac1b6f3089aa2d3188bb1e8929f4fa9b929a2646970667358221220930179cd2215594109dd2a2e57b95e3908a094390275c746094bb59bd287306964736f6c63430008090033",
  "linkReferences": {},
  "deployedLinkReferences": {}
}