{
  "_format": "hh-sol-artifact-1",
  "contractName": "BkHighUpgrades",
  "sourceName": "contracts/features/BkHighUpgrades.sol",
  "abi": [
    {
      "anonymous": false,
      "inputs": [
        {
          "indexed": false,
          "internalType": "address",
          "name": "account",
          "type": "address"
        },
        {
          "indexed": false,
          "internalType": "uint256",
          "name": "masteryIndex",
          "type": "uint256"
        },
        {
          "indexed": false,
          "internalType": "uint256",
          "name": "oldLevel",
          "type": "uint256"
        },
        {
          "indexed": false,
          "internalType": "uint256",
          "name": "newLevel",
          "type": "uint256"
        }
      ],
      "name": "BuyMastery",
      "type": "event"
    },
    {
      "anonymous": false,
      "inputs": [
        {
          "indexed": false,
          "internalType": "address",
          "name": "account",
          "type": "address"
        },
        {
          "indexed": false,
          "internalType": "uint256",
          "name": "beastId",
          "type": "uint256"
        },
        {
          "indexed": false,
          "internalType": "uint256",
          "name": "oldSpecies",
          "type": "uint256"
        },
        {
          "indexed": false,
          "internalType": "uint256",
          "name": "newSpecies",
          "type": "uint256"
        }
      ],
      "name": "Deify",
      "type": "event"
    },
    {
      "anonymous": false,
      "inputs": [
        {
          "indexed": false,
          "internalType": "address",
          "name": "to",
          "type": "address"
        },
        {
          "indexed": false,
          "internalType": "uint256",
          "name": "amount",
          "type": "uint256"
        }
      ],
      "name": "DismantleAiChips",
      "type": "event"
    },
    {
      "anonymous": false,
      "inputs": [
        {
          "indexed": false,
          "internalType": "address",
          "name": "account",
          "type": "address"
        },
        {
          "indexed": false,
          "internalType": "uint256",
          "name": "oldLevel",
          "type": "uint256"
        },
        {
          "indexed": false,
          "internalType": "uint256",
          "name": "newLevel",
          "type": "uint256"
        }
      ],
      "name": "GlobalFarmingBonus",
      "type": "event"
    },
    {
      "anonymous": false,
      "inputs": [
        {
          "indexed": false,
          "internalType": "uint8",
          "name": "version",
          "type": "uint8"
        }
      ],
      "name": "Initialized",
      "type": "event"
    },
    {
      "anonymous": false,
      "inputs": [
        {
          "indexed": false,
          "internalType": "address",
          "name": "account",
          "type": "address"
        }
      ],
      "name": "Paused",
      "type": "event"
    },
    {
      "anonymous": false,
      "inputs": [
        {
          "indexed": true,
          "internalType": "bytes32",
          "name": "role",
          "type": "bytes32"
        },
        {
          "indexed": true,
          "internalType": "bytes32",
          "name": "previousAdminRole",
          "type": "bytes32"
        },
        {
          "indexed": true,
          "internalType": "bytes32",
          "name": "newAdminRole",
          "type": "bytes32"
        }
      ],
      "name": "RoleAdminChanged",
      "type": "event"
    },
    {
      "anonymous": false,
      "inputs": [
        {
          "indexed": true,
          "internalType": "bytes32",
          "name": "role",
          "type": "bytes32"
        },
        {
          "indexed": true,
          "internalType": "address",
          "name": "account",
          "type": "address"
        },
        {
          "indexed": true,
          "internalType": "address",
          "name": "sender",
          "type": "address"
        }
      ],
      "name": "RoleGranted",
      "type": "event"
    },
    {
      "anonymous": false,
      "inputs": [
        {
          "indexed": true,
          "internalType": "bytes32",
          "name": "role",
          "type": "bytes32"
        },
        {
          "indexed": true,
          "internalType": "address",
          "name": "account",
          "type": "address"
        },
        {
          "indexed": true,
          "internalType": "address",
          "name": "sender",
          "type": "address"
        }
      ],
      "name": "RoleRevoked",
      "type": "event"
    },
    {
      "anonymous": false,
      "inputs": [
        {
          "indexed": false,
          "internalType": "address",
          "name": "to",
          "type": "address"
        },
        {
          "indexed": false,
          "internalType": "uint256",
          "name": "amount",
          "type": "uint256"
        }
      ],
      "name": "TransferAiChips",
      "type": "event"
    },
    {
      "anonymous": false,
      "inputs": [
        {
          "indexed": false,
          "internalType": "address",
          "name": "to",
          "type": "address"
        },
        {
          "indexed": false,
          "internalType": "uint256[]",
          "name": "resources",
          "type": "uint256[]"
        }
      ],
      "name": "TransferResources",
      "type": "event"
    },
    {
      "anonymous": false,
      "inputs": [
        {
          "indexed": false,
          "internalType": "address",
          "name": "account",
          "type": "address"
        }
      ],
      "name": "Unpaused",
      "type": "event"
    },
    {
      "inputs": [],
      "name": "DEFAULT_ADMIN_ROLE",
      "outputs": [
        {
          "internalType": "bytes32",
          "name": "",
          "type": "bytes32"
        }
      ],
      "stateMutability": "view",
      "type": "function"
    },
    {
      "inputs": [
        {
          "internalType": "address",
          "name": "_operator",
          "type": "address"
        },
        {
          "internalType": "address",
          "name": "_blocklistAddress",
          "type": "address"
        }
      ],
      "name": "__Administrable_init",
      "outputs": [],
      "stateMutability": "nonpayable",
      "type": "function"
    },
    {
      "inputs": [],
      "name": "autoReturnRate",
      "outputs": [
        {
          "internalType": "uint256",
          "name": "",
          "type": "uint256"
        }
      ],
      "stateMutability": "view",
      "type": "function"
    },
    {
      "inputs": [
        {
          "internalType": "uint256",
          "name": "bctAmount",
          "type": "uint256"
        }
      ],
      "name": "bctToStabletoken",
      "outputs": [
        {
          "internalType": "uint256",
          "name": "",
          "type": "uint256"
        }
      ],
      "stateMutability": "view",
      "type": "function"
    },
    {
      "inputs": [
        {
          "internalType": "uint256",
          "name": "levels",
          "type": "uint256"
        }
      ],
      "name": "buyGlobalFarmingBonus",
      "outputs": [],
      "stateMutability": "nonpayable",
      "type": "function"
    },
    {
      "inputs": [
        {
          "internalType": "uint256",
          "name": "masteryIndex",
          "type": "uint256"
        },
        {
          "internalType": "uint256",
          "name": "levels",
          "type": "uint256"
        }
      ],
      "name": "buyMastery",
      "outputs": [],
      "stateMutability": "nonpayable",
      "type": "function"
    },
    {
      "inputs": [],
      "name": "contracts",
      "outputs": [
        {
          "internalType": "contract IBkFarm",
          "name": "farm",
          "type": "address"
        },
        {
          "internalType": "contract IBkNft",
          "name": "nft",
          "type": "address"
        },
        {
          "internalType": "contract IBkStasher",
          "name": "stasher",
          "type": "address"
        },
        {
          "internalType": "contract IBkFetch",
          "name": "balances",
          "type": "address"
        },
        {
          "internalType": "contract IBkPlayerBonus",
          "name": "playerBonus",
          "type": "address"
        }
      ],
      "stateMutability": "view",
      "type": "function"
    },
    {
      "inputs": [
        {
          "internalType": "uint256",
          "name": "beastId",
          "type": "uint256"
        }
      ],
      "name": "deify",
      "outputs": [],
      "stateMutability": "nonpayable",
      "type": "function"
    },
    {
      "inputs": [
        {
          "internalType": "uint256",
          "name": "howMany",
          "type": "uint256"
        }
      ],
      "name": "dismantleAiChips",
      "outputs": [],
      "stateMutability": "nonpayable",
      "type": "function"
    },
    {
      "inputs": [
        {
          "internalType": "bool",
          "name": "_enable",
          "type": "bool"
        }
      ],
      "name": "enableAiChips",
      "outputs": [],
      "stateMutability": "nonpayable",
      "type": "function"
    },
    {
      "inputs": [
        {
          "internalType": "bool",
          "name": "_enable",
          "type": "bool"
        }
      ],
      "name": "enableDeify",
      "outputs": [],
      "stateMutability": "nonpayable",
      "type": "function"
    },
    {
      "inputs": [
        {
          "internalType": "bool",
          "name": "_enable",
          "type": "bool"
        }
      ],
      "name": "enableGlobalFarmingBonus",
      "outputs": [],
      "stateMutability": "nonpayable",
      "type": "function"
    },
    {
      "inputs": [
        {
          "internalType": "bool",
          "name": "_enable",
          "type": "bool"
        }
      ],
      "name": "enableMasteries",
      "outputs": [],
      "stateMutability": "nonpayable",
      "type": "function"
    },
    {
      "inputs": [
        {
          "internalType": "uint256",
          "name": "howMany",
          "type": "uint256"
        }
      ],
      "name": "getAiChipCosts",
      "outputs": [
        {
          "internalType": "uint256",
          "name": "",
          "type": "uint256"
        },
        {
          "internalType": "uint256[]",
          "name": "",
          "type": "uint256[]"
        }
      ],
      "stateMutability": "view",
      "type": "function"
    },
    {
      "inputs": [
        {
          "internalType": "uint256",
          "name": "originalType",
          "type": "uint256"
        }
      ],
      "name": "getDeifyCosts",
      "outputs": [
        {
          "internalType": "uint256",
          "name": "",
          "type": "uint256"
        },
        {
          "internalType": "uint256[]",
          "name": "",
          "type": "uint256[]"
        }
      ],
      "stateMutability": "view",
      "type": "function"
    },
    {
      "inputs": [
        {
          "internalType": "uint256",
          "name": "howMany",
          "type": "uint256"
        }
      ],
      "name": "getDismantleAiChipCosts",
      "outputs": [
        {
          "internalType": "uint256",
          "name": "",
          "type": "uint256"
        },
        {
          "internalType": "uint256[]",
          "name": "",
          "type": "uint256[]"
        }
      ],
      "stateMutability": "view",
      "type": "function"
    },
    {
      "inputs": [
        {
          "internalType": "uint256",
          "name": "currentLevel",
          "type": "uint256"
        },
        {
          "internalType": "uint256",
          "name": "targetLevel",
          "type": "uint256"
        }
      ],
      "name": "getGlobalFarmingBonusCosts",
      "outputs": [
        {
          "internalType": "uint256",
          "name": "",
          "type": "uint256"
        },
        {
          "internalType": "uint256[]",
          "name": "",
          "type": "uint256[]"
        }
      ],
      "stateMutability": "view",
      "type": "function"
    },
    {
      "inputs": [
        {
          "internalType": "uint256",
          "name": "masteryIndex",
          "type": "uint256"
        },
        {
          "internalType": "uint256",
          "name": "currentLevel",
          "type": "uint256"
        },
        {
          "internalType": "uint256",
          "name": "targetLevel",
          "type": "uint256"
        }
      ],
      "name": "getMasteryCosts",
      "outputs": [
        {
          "internalType": "uint256",
          "name": "",
          "type": "uint256"
        },
        {
          "internalType": "uint256[]",
          "name": "",
          "type": "uint256[]"
        }
      ],
      "stateMutability": "pure",
      "type": "function"
    },
    {
      "inputs": [
        {
          "internalType": "bytes32",
          "name": "role",
          "type": "bytes32"
        }
      ],
      "name": "getRoleAdmin",
      "outputs": [
        {
          "internalType": "bytes32",
          "name": "",
          "type": "bytes32"
        }
      ],
      "stateMutability": "view",
      "type": "function"
    },
    {
      "inputs": [
        {
          "internalType": "bytes32",
          "name": "role",
          "type": "bytes32"
        },
        {
          "internalType": "address",
          "name": "account",
          "type": "address"
        }
      ],
      "name": "grantRole",
      "outputs": [],
      "stateMutability": "nonpayable",
      "type": "function"
    },
    {
      "inputs": [],
      "name": "hasBlocklist",
      "outputs": [
        {
          "internalType": "bool",
          "name": "",
          "type": "bool"
        }
      ],
      "stateMutability": "view",
      "type": "function"
    },
    {
      "inputs": [
        {
          "internalType": "bytes32",
          "name": "role",
          "type": "bytes32"
        },
        {
          "internalType": "address",
          "name": "account",
          "type": "address"
        }
      ],
      "name": "hasRole",
      "outputs": [
        {
          "internalType": "bool",
          "name": "",
          "type": "bool"
        }
      ],
      "stateMutability": "view",
      "type": "function"
    },
    {
      "inputs": [
        {
          "internalType": "address",
          "name": "_operator",
          "type": "address"
        },
        {
          "internalType": "address",
          "name": "_blocklist",
          "type": "address"
        }
      ],
      "name": "initialize",
      "outputs": [],
      "stateMutability": "nonpayable",
      "type": "function"
    },
    {
      "inputs": [
        {
          "internalType": "uint256",
          "name": "",
          "type": "uint256"
        }
      ],
      "name": "masteryIndexToDreamResourceIndex",
      "outputs": [
        {
          "internalType": "uint256",
          "name": "",
          "type": "uint256"
        }
      ],
      "stateMutability": "view",
      "type": "function"
    },
    {
      "inputs": [],
      "name": "maxDeifySpecies",
      "outputs": [
        {
          "internalType": "uint256",
          "name": "",
          "type": "uint256"
        }
      ],
      "stateMutability": "view",
      "type": "function"
    },
    {
      "inputs": [],
      "name": "pause",
      "outputs": [],
      "stateMutability": "nonpayable",
      "type": "function"
    },
    {
      "inputs": [],
      "name": "paused",
      "outputs": [
        {
          "internalType": "bool",
          "name": "",
          "type": "bool"
        }
      ],
      "stateMutability": "view",
      "type": "function"
    },
    {
      "inputs": [],
      "name": "paymentContracts",
      "outputs": [
        {
          "internalType": "contract IBkERC20",
          "name": "bct",
          "type": "address"
        },
        {
          "internalType": "contract IBkERC20",
          "name": "busd",
          "type": "address"
        },
        {
          "internalType": "contract ICommunityPool",
          "name": "pool",
          "type": "address"
        },
        {
          "internalType": "contract IBkFarm",
          "name": "farm",
          "type": "address"
        }
      ],
      "stateMutability": "view",
      "type": "function"
    },
    {
      "inputs": [
        {
          "internalType": "uint256",
          "name": "",
          "type": "uint256"
        }
      ],
      "name": "priceInEbctPerSpecies",
      "outputs": [
        {
          "internalType": "uint256",
          "name": "",
          "type": "uint256"
        }
      ],
      "stateMutability": "view",
      "type": "function"
    },
    {
      "inputs": [
        {
          "internalType": "uint256",
          "name": "howMany",
          "type": "uint256"
        }
      ],
      "name": "produceAiChips",
      "outputs": [],
      "stateMutability": "nonpayable",
      "type": "function"
    },
    {
      "inputs": [
        {
          "internalType": "address",
          "name": "tokenAddress",
          "type": "address"
        },
        {
          "internalType": "address",
          "name": "to",
          "type": "address"
        },
        {
          "internalType": "uint256",
          "name": "amount",
          "type": "uint256"
        }
      ],
      "name": "recoverERC20",
      "outputs": [],
      "stateMutability": "nonpayable",
      "type": "function"
    },
    {
      "inputs": [
        {
          "internalType": "bytes32",
          "name": "role",
          "type": "bytes32"
        },
        {
          "internalType": "address",
          "name": "account",
          "type": "address"
        }
      ],
      "name": "renounceRole",
      "outputs": [],
      "stateMutability": "nonpayable",
      "type": "function"
    },
    {
      "inputs": [],
      "name": "resetBlocklist",
      "outputs": [],
      "stateMutability": "nonpayable",
      "type": "function"
    },
    {
      "inputs": [
        {
          "internalType": "uint256",
          "name": "",
          "type": "uint256"
        }
      ],
      "name": "resources",
      "outputs": [
        {
          "internalType": "address",
          "name": "",
          "type": "address"
        }
      ],
      "stateMutability": "view",
      "type": "function"
    },
    {
      "inputs": [],
      "name": "resourcesCount",
      "outputs": [
        {
          "internalType": "uint256",
          "name": "",
          "type": "uint256"
        }
      ],
      "stateMutability": "view",
      "type": "function"
    },
    {
      "inputs": [
        {
          "internalType": "bytes32",
          "name": "role",
          "type": "bytes32"
        },
        {
          "internalType": "address",
          "name": "account",
          "type": "address"
        }
      ],
      "name": "revokeRole",
      "outputs": [],
      "stateMutability": "nonpayable",
      "type": "function"
    },
    {
      "inputs": [],
      "name": "scale",
      "outputs": [
        {
          "internalType": "uint256",
          "name": "",
          "type": "uint256"
        }
      ],
      "stateMutability": "view",
      "type": "function"
    },
    {
      "inputs": [
        {
          "internalType": "address",
          "name": "blocklistAddress",
          "type": "address"
        }
      ],
      "name": "setBlocklist",
      "outputs": [],
      "stateMutability": "nonpayable",
      "type": "function"
    },
    {
      "inputs": [
        {
          "internalType": "address",
          "name": "_farm",
          "type": "address"
        },
        {
          "internalType": "address",
          "name": "_nft",
          "type": "address"
        },
        {
          "internalType": "address",
          "name": "_stasher",
          "type": "address"
        },
        {
          "internalType": "address",
          "name": "_balances",
          "type": "address"
        },
        {
          "internalType": "address",
          "name": "_playerBonus",
          "type": "address"
        }
      ],
      "name": "setContracts",
      "outputs": [],
      "stateMutability": "nonpayable",
      "type": "function"
    },
    {
      "inputs": [
        {
          "internalType": "uint256",
          "name": "_scale",
          "type": "uint256"
        }
      ],
      "name": "setScale",
      "outputs": [],
      "stateMutability": "nonpayable",
      "type": "function"
    },
    {
      "inputs": [
        {
          "internalType": "address",
          "name": "_bct",
          "type": "address"
        },
        {
          "internalType": "address",
          "name": "_busd",
          "type": "address"
        },
        {
          "internalType": "address",
          "name": "_pool",
          "type": "address"
        },
        {
          "internalType": "address",
          "name": "_farm",
          "type": "address"
        },
        {
          "internalType": "address",
          "name": "_resourcesSource",
          "type": "address"
        },
        {
          "internalType": "uint256",
          "name": "_autoReturnRate",
          "type": "uint256"
        }
      ],
      "name": "setupPaymentModule",
      "outputs": [],
      "stateMutability": "nonpayable",
      "type": "function"
    },
    {
      "inputs": [
        {
          "internalType": "uint256",
          "name": "busdAmount",
          "type": "uint256"
        }
      ],
      "name": "stabletokenToBct",
      "outputs": [
        {
          "internalType": "uint256",
          "name": "",
          "type": "uint256"
        }
      ],
      "stateMutability": "view",
      "type": "function"
    },
    {
      "inputs": [
        {
          "internalType": "bytes4",
          "name": "interfaceId",
          "type": "bytes4"
        }
      ],
      "name": "supportsInterface",
      "outputs": [
        {
          "internalType": "bool",
          "name": "",
          "type": "bool"
        }
      ],
      "stateMutability": "view",
      "type": "function"
    },
    {
      "inputs": [
        {
          "internalType": "uint256",
          "name": "",
          "type": "uint256"
        }
      ],
      "name": "typeToBaseFarm",
      "outputs": [
        {
          "internalType": "uint256",
          "name": "",
          "type": "uint256"
        }
      ],
      "stateMutability": "view",
      "type": "function"
    },
    {
      "inputs": [
        {
          "internalType": "uint256",
          "name": "",
          "type": "uint256"
        }
      ],
      "name": "typeToTrait",
      "outputs": [
        {
          "internalType": "uint256",
          "name": "",
          "type": "uint256"
        }
      ],
      "stateMutability": "view",
      "type": "function"
    },
    {
      "inputs": [],
      "name": "unpause",
      "outputs": [],
      "stateMutability": "nonpayable",
      "type": "function"
    }
  ],
  "bytecode": "0x608060405234801561001057600080fd5b50613916806100206000396000f3fe608060405234801561001057600080fd5b506004361061028a5760003560e01c80635736add41161015c57806391eebe2d116100ce578063c429d34911610087578063c429d3491461067e578063d547741f14610687578063def0319f1461069a578063f4b93f45146106ad578063f51e181a146106c0578063f63bf8bd146106c957600080fd5b806391eebe2d1461061757806392746bc41461062a578063931da89b1461063d578063a217fddf14610650578063aef18ae714610658578063b5f63f601461066b57600080fd5b80636c0f79b6116101205780636c0f79b6146105505780637198a07d146105b65780637f246fbf146105c9578063803b0060146105dc5780638456cb59146105fc57806391d148541461060457600080fd5b80635736add4146104f85780635c975abb1461050b578063634210f4146105165780636a754ffe1461052a5780636aebca9e1461053d57600080fd5b8063323b6cb7116102005780633f4ba83a116101b95780633f4ba83a1461048e57806341e80ad914610496578063485cc955146104a957806349f1e708146104bc5780634c80dda4146104cf57806351ac7b8c146104ef57600080fd5b8063323b6cb7146103dd57806336568abe146104365780633a93f328146104495780633ab5baeb1461046a5780633c7fd822146104735780633edc35191461047b57600080fd5b80631eb313fc116102525780631eb313fc14610320578063244d6daa14610333578063248a9ca3146103745780632bc8b397146103975780632cb156ad146103aa5780632f2ff15d146103ca57600080fd5b806301ffc9a71461028f57806306b0750a146102b75780630a40f726146102cc5780630d520cfe146102fa5780631171bda91461030d575b600080fd5b6102a261029d366004612eb1565b6106dc565b60405190151581526020015b60405180910390f35b6102ca6102c5366004612edb565b610713565b005b6102ec6102da366004612edb565b60dc6020526000908152604090205481565b6040519081526020016102ae565b6102ca610308366004612edb565b610e13565b6102ca61031b366004612f09565b61101a565b6102ca61032e366004612f58565b6110bb565b61035c610341366004612edb565b60cb602052600090815260409020546001600160a01b031681565b6040516001600160a01b0390911681526020016102ae565b6102ec610382366004612edb565b60009081526065602052604090206001015490565b6102ca6103a5366004612edb565b6110f2565b6102ec6103b8366004612edb565b60da6020526000908152604090205481565b6102ca6103d8366004612f75565b6112fd565b60cc5460cd5460ce5460cf54610403936001600160a01b03908116938116928116911684565b604080516001600160a01b03958616815293851660208501529184169183019190915290911660608201526080016102ae565b6102ca610444366004612f75565b611327565b61045c610457366004612edb565b61134a565b6040516102ae929190612fe0565b6102ec60d85481565b6102ca611451565b6102ca610489366004612edb565b61147c565b6102ca61149a565b6102ec6104a4366004612edb565b6114bd565b6102ca6104b7366004613001565b61153b565b61045c6104ca36600461302f565b6119e1565b6102ec6104dd366004612edb565b60db6020526000908152604090205481565b6102ec60ca5481565b6102ca610506366004612f58565b611b2b565b60975460ff166102a2565b60c9546102a290600160a01b900460ff1681565b61045c610538366004613051565b611b60565b61045c61054b366004612edb565b611c72565b60d15460d25460d35460d45460d55461057c946001600160a01b03908116948116938116928116911685565b604080516001600160a01b03968716815294861660208601529285169284019290925283166060830152909116608082015260a0016102ae565b6102ca6105c4366004612f58565b611cbd565b6102ca6105d7366004612edb565b611ce9565b6102ec6105ea366004612edb565b60d96020526000908152604090205481565b6102ca611ec3565b6102a2610612366004612f75565b611ee3565b6102ca610625366004612f58565b611f0e565b61045c610638366004612edb565b611f41565b6102ca61064b366004613001565b61210a565b6102ec600081565b6102ca61066636600461307d565b612206565b6102ec610679366004612edb565b612246565b6102ec60d05481565b6102ca610695366004612f75565b612278565b6102ca6106a836600461302f565b61229d565b6102ca6106bb36600461309a565b612510565b6102ec60d75481565b6102ca6106d7366004613113565b61253f565b60006001600160e01b03198216637965db0b60e01b148061070d57506301ffc9a760e01b6001600160e01b03198316145b92915050565b61071b6125df565b60d2546040516341f63bfd60e01b8152600481018390526000916001600160a01b0316906341f63bfd9060240160006040518083038186803b15801561076057600080fd5b505afa158015610774573d6000803e3d6000fd5b505050506040513d6000823e601f3d908101601f1916820160405261079c9190810190613356565b60d2546040516331a9108f60e11b8152600481018590529192506000916001600160a01b0390911690636352211e9060240160206040518083038186803b1580156107e657600080fd5b505afa1580156107fa573d6000803e3d6000fd5b505050506040513d601f19601f8201168201806040525081019061081e91906134b3565b90506001600160a01b03811633146108615760405162461bcd60e51b81526020600482015260016024820152600360fc1b60448201526064015b60405180910390fd5b6080820151156108975760405162461bcd60e51b81526020600482015260016024820152603160f81b6044820152606401610858565b6108a082612627565b6005146108d35760405162461bcd60e51b81526020600482015260016024820152601960f91b6044820152606401610858565b60006108de83612650565b905060d8548111156109165760405162461bcd60e51b81526020600482015260016024820152603360f81b6044820152606401610858565b60d354604051635c138c9d60e01b81523360048201526000916001600160a01b031690635c138c9d9060240160206040518083038186803b15801561095a57600080fd5b505afa15801561096e573d6000803e3d6000fd5b505050506040513d601f19601f8201168201806040525081019061099291906134d0565b905080600a14806109ad57506109a98260086134ff565b8110155b6109dd5760405162461bcd60e51b81526020600482015260016024820152600d60fa1b6044820152606401610858565b60006109ea8360056134ff565b90506000806109f885611f41565b6040805160808101825260018082526020820152600091810182905260608101919091529193509150610a2e908390839061266a565b60d254604051639497558560e01b8152600481018a9052606060248201526000606482018190526080604483015260848201526001600160a01b039091169063949755859060a401600060405180830381600087803b158015610a9057600080fd5b505af1158015610aa4573d6000803e3d6000fd5b50505061010088015160009150600481518110610ac357610ac3613517565b6020908102919091010152610100870151600090600581518110610ae957610ae9613517565b6020908102919091010152610100870151600590600181518110610b0f57610b0f613517565b60209081029190910101526101008701518390600081518110610b3457610b34613517565b602090810291909101015260408051600680825260e08201909252600091816020016020820280368337019050509050600181600081518110610b7957610b79613517565b602002602001018181525050600181600181518110610b9a57610b9a613517565b602090810291909101015260d2546101008901516040516386931e4960e01b81526001600160a01b03909216916386931e4991610bde918d9190869060040161352d565b600060405180830381600087803b158015610bf857600080fd5b505af1158015610c0c573d6000803e3d6000fd5b506000925060039150610c1c9050565b604051908082528060200260200182016040528015610c45578160200160208202803683370190505b50600086815260da6020526040812054825192935091839190610c6a57610c6a613517565b60200260200101818152505060da60008681526020019081526020016000205481600181518110610c9d57610c9d613517565b60200260200101818152505060da60008681526020019081526020016000205481600281518110610cd057610cd0613517565b602090810291909101015260d25460405163088d210f60e41b81526001600160a01b03909116906388d210f090610d0d908d908590600401612fe0565b600060405180830381600087803b158015610d2757600080fd5b505af1158015610d3b573d6000803e3d6000fd5b505060d254600088815260db60205260409081902054905163de71b06760e01b8152600481018f905260248101919091526001600160a01b03909116925063de71b0679150604401600060405180830381600087803b158015610d9d57600080fd5b505af1158015610db1573d6000803e3d6000fd5b5050604080516001600160a01b038c168152602081018e90529081018a9052606081018890527fdfe58dee5d678e842925d5672e923a0f0bd70b16b2285cc75a66b16e1c0e7a649250608001905060405180910390a150505050505050505050565b610e1b6125df565b60d6546301000000900460ff1680610e465750610e466000805160206138a183398151915233611ee3565b610e625760405162461bcd60e51b815260040161085890613562565b60d5546040516367bb9a1f60e11b81523360048201526000916001600160a01b03169063cf77343e9060240160006040518083038186803b158015610ea657600080fd5b505afa158015610eba573d6000803e3d6000fd5b505050506040513d6000823e601f3d908101601f19168201604052610ee2919081019061357e565b5060608101519091506000908190610efe906104ca86826134ff565b6040805160808101825260018082526020820152600091810182905260608101919091529193509150610f34908390839061266a565b60d55460608401516001600160a01b0390911690632f46c383903390610f5b9088906134ff565b6040516001600160e01b031960e085901b1681526001600160a01b0390921660048301526024820152604401600060405180830381600087803b158015610fa157600080fd5b505af1158015610fb5573d6000803e3d6000fd5b50505060608401517f12c0a01ca21cd085250692c4b1d255a48616a727046bcf0b0fd41ae42189ba7a91503390610fec87826134ff565b604080516001600160a01b03909416845260208401929092529082015260600160405180910390a150505050565b6000805160206138c183398151915261103281612907565b60405163a9059cbb60e01b81526001600160a01b0384811660048301526024820184905285169063a9059cbb90604401602060405180830381600087803b15801561107c57600080fd5b505af1158015611090573d6000803e3d6000fd5b505050506040513d601f19601f820116820180604052508101906110b49190613613565b5050505050565b6000805160206138c18339815191526110d381612907565b5060d6805491151563010000000263ff00000019909216919091179055565b6110fa6125df565b60d65462010000900460ff168061112457506111246000805160206138a183398151915233611ee3565b6111405760405162461bcd60e51b815260040161085890613562565b60008061114c83611c72565b6040805160808101825260018082526020820152600091810182905260608101919091529193509150611182908390839061266a565b61118d836064613630565b816016815181106111a0576111a0613517565b60209081029190910101526111b6836064613630565b816017815181106111c9576111c9613517565b60209081029190910101526111df836064613630565b816018815181106111f2576111f2613517565b60200260200101818152505060008160198151811061121357611213613517565b602090810291909101015260d1546040516304567ca960e11b81526001600160a01b03909116906308acf95290611253903390600090869060040161364f565b600060405180830381600087803b15801561126d57600080fd5b505af1158015611281573d6000803e3d6000fd5b505060408051338152602081018790527fa7cf3114bd11a560d5136d1261c3b4d1fc300d4d5763ea059dfee335a580fbd3935001905060405180910390a17ff01cb619d4302523996df428de2086bca27fe8f835bd6ce7c19e94fb046684c533826040516112f092919061367f565b60405180910390a1505050565b60008281526065602052604090206001015461131881612907565b6113228383612911565b505050565b6001600160a01b038116331461133c57600080fd5b6113468282612997565b5050565b60408051601a808252610360820190925260009160609183918291906020820161034080368337019050509050611382856064613630565b8160158151811061139557611395613517565b60209081029190910101526113ab856064613630565b816016815181106113be576113be613517565b60209081029190910101526113d4856064613630565b816017815181106113e7576113e7613517565b60209081029190910101526113fd856064613630565b8160188151811061141057611410613517565b602090810291909101015260d75460329061143384670de0b6b3a7640000613630565b61143d9190613630565b61144791906136a3565b9590945092505050565b6000805160206138c183398151915261146981612907565b5060c980546001600160a81b0319169055565b6000805160206138c183398151915261149481612907565b5060d755565b6000805160206138c18339815191526114b281612907565b6114ba6129fe565b50565b60ce54604051634ca1cccb60e11b8152600481018390526000916001600160a01b0316906399439996906024015b60206040518083038186803b15801561150357600080fd5b505afa158015611517573d6000803e3d6000fd5b505050506040513d601f19601f8201168201806040525081019061070d91906134d0565b600054610100900460ff161580801561155b5750600054600160ff909116105b806115755750303b158015611575575060005460ff166001145b61157e57600080fd5b6000805460ff1916600117905580156115a1576000805461ff0019166101001790555b6115ab838361210a565b603260d755602c7f352542d120459fe49009d574b12995edcbb363275cf170be343dee6830d5dcdf5560317ffb4378f518daf1247a4fecf0fbc84c05578a2ac03a0465b018dc5da57dfd61185560057f62bc18884a8d2f06fc5375ba774ddf7ed53c8b1cef91fbbe0f66938ceb852c7981905560137fba8407f2dde1ffcb76cdb7ca386ae1f078000e0991202345e341cdc69d21699655601f7ff6f365d4baa205bd104b21ae18cd7c03c3d409d7fe392b1575b6e5aec4b1b4905560257fa73273eaf0dd7f80eea98b3f7f74f8c376c880b06ad673354b98a3343dd656845560337f79872d0688462dcc426b99ded94fa153ced5472511df68d0a09d238a30f3cbfa5560357f4955ddd678b0fd2068679eb6cbd2d8e176c66a676d2a4eafef0fde0f269563bb5560347fcc9bf65eabeb95d1fe95ced84bce21cc8b43ab424e2872f12cafd4dc19a12fd05560367ff67daaf05c86b712b3242cd58898fdfe556368055d88a6a486fd38ae2408c77455655af3107a40007f0753aab3c814d10169d625e7f73301b767fae521c959dd1f101dc1948b90768a556571afd498d0007f1e5ca2b3a5b37f307bf7224dee63e9db01850c69ad03b81a1746af40011c73295565886c98b760007f982a732a2db9f1c172af3728a031722a4fb69fc13c197730747678bca82e9f7355659f295cd5f0007f6d7a35b3393c68521d1beaa179aaa0963665f58848369eff816650d1ca6f666f556601c6bf526340007fd8efe695ce34e67be575fe9d61b4ce6ed9d2159ad3137c0a5d96facc5488366655660221b262dd80007f88e214959a6e1410760d7732915676dbc328ddb34b73cb68393ef95694a7ee5d5566027ca57357c0007f0b0a1c44dc6886781da95cf1805105f317ce8238e9ff8a639fca64e1ff3707d4556602d79883d200007f611d32ca7af386e29ec365b729326f4c1f5532bdfaacd05635ec531f357c316f5566038d7ea4c680007f2a4a21cdf6781e38cc546235b3dc31591e6e79ab585d195135d56bc77c4f1aba55660470de4df820007fe94c98768cbb30f02ef90377f555646c111ea9eae727e1c7b05234a60ae5d9ab5560dc60205260197fa914a711fa9859c15cb17d2aa25e08470aa298217330c83169dd2a380ff0e85d5560157fed5632bb274c77ec3a8fb983dc542cd5cc49def33659104ab3c76bf3dc28c94e8190557f305af1d5eeca2070eb555bae23239ec4d3425b7ee73c1c5ceb1a9bd5d7c1d3075560177fd424594b947c18da8f3a6f93819695640a748b6d74709a708102e14e3e81669c5560167f0fb4caf2b09259681c9229fb409ac599b6692aeff999fc756681a9d7d3fd042855600081905260187f046340db4f2c181c4c7d6966c61f461a307218d968b1f2751f28e78a2a637ffb5560d8558015611322576000805461ff0019169055604051600181527f7f26b83ff96e1f2b6a682f133852f6798a09c465da95921460cefb3847402498906020016112f0565b600060606103e860026001848080895b6119fb8a8c6134ff565b811015611a7757611a0d8160016134ff565b611a179088613630565b611a2190856134ff565b9350611a2e816002613630565b611a389087613630565b611a4290846134ff565b9250611a4f8160016134ff565b611a599086613630565b611a6390836134ff565b915080611a6f816136c5565b9150506119f1565b5060408051601a80825261036082019092526000916020820161034080368337019050509050611aa8826064613630565b81600981518110611abb57611abb613517565b6020908102919091010152611ad1836064613630565b81601981518110611ae457611ae4613517565b602090810291909101015260d754603290611b0786670de0b6b3a7640000613630565b611b119190613630565b611b1b91906136a3565b9b909a5098505050505050505050565b6000805160206138c1833981519152611b4381612907565b5060d68054911515620100000262ff000019909216919091179055565b600060608185611b7257506005611b92565b8560011480611b815750856005145b15611b8e57506004611b92565b5060035b6000855b85811015611be15782811015611bc257611bb18160016134ff565b611bbb90836134ff565b9150611bcf565b611bcc83836134ff565b91505b80611bd9816136c5565b915050611b96565b5060408051601a80825261036082019092526000916020820161034080368337019050509050611c1187876136e0565b611c1c906064613630565b81601581518110611c2f57611c2f613517565b6020908102919091010152611c45826064613630565b81601981518110611c5857611c58613517565b602090810291909101015260009890975095505050505050565b60408051601a808252610360820190925260009160609183918291906020820161034080368337019050509050611caa856064613630565b8160198151811061141057611410613517565b6000805160206138c1833981519152611cd581612907565b5060d6805460ff1916911515919091179055565b611cf16125df565b60d65462010000900460ff1680611d1b5750611d1b6000805160206138a183398151915233611ee3565b611d375760405162461bcd60e51b815260040161085890613562565b600080611d438361134a565b6040805160808101825260018082526020820152600091810182905260608101919091529193509150611d79908390839061266a565b600081601581518110611d8e57611d8e613517565b602002602001018181525050600081601681518110611daf57611daf613517565b602002602001018181525050600081601781518110611dd057611dd0613517565b602002602001018181525050600081601881518110611df157611df1613517565b6020908102919091010152611e07836064613630565b81601981518110611e1a57611e1a613517565b602090810291909101015260d1546040516304567ca960e11b81526001600160a01b03909116906308acf95290611e5a903390600090869060040161364f565b600060405180830381600087803b158015611e7457600080fd5b505af1158015611e88573d6000803e3d6000fd5b505060408051338152602081018790527f548f8a8766b0cc1cf5665263896acd1f29598428b997d762833b567a8a70b5ff93500190506112f0565b6000805160206138c1833981519152611edb81612907565b6114ba612a50565b60009182526065602090815260408084206001600160a01b0393909316845291905290205460ff1690565b6000805160206138c1833981519152611f2681612907565b5060d680549115156101000261ff0019909216919091179055565b6000606060006008841115611f705783600914611f6157620186a0611f66565b620124f85b62ffffff16611f93565b611f7b6001856136e0565b611f8790611388613630565b611f93906127106134ff565b905060006005851115611fb7576008851115611fb05760fa611fba565b6032611fba565b60195b60ff16905060006005861115611fda57611fd58660086134ff565b611fe5565b611fe586600d6134ff565b9050600060058711156120095760088711156120025760fa61200c565b606461200c565b60325b60ff1690506000600588111561202c5761202788600f6134ff565b612037565b6120378860146134ff565b60408051601a808252610360820190925291925060009190602082016103408036833701905050905060648160098151811061207557612075613517565b602090810291909101015261208b856064613630565b81858151811061209d5761209d613517565b60209081029190910101526120b3836064613630565b8183815181106120c5576120c5613517565b602090810291909101015260d7546032906120e888670de0b6b3a7640000613630565b6120f29190613630565b6120fc91906136a3565b999098509650505050505050565b600054610100900460ff161580801561212a5750600054600160ff909116105b806121445750303b158015612144575060005460ff166001145b61214d57600080fd5b6000805460ff191660011790558015612170576000805461ff0019166101001790555b612178612a8d565b612180612aa1565b61218b600084612abd565b6121a36000805160206138c183398151915284612abd565b6121bb6000805160206138a183398151915284612abd565b6121c482612206565b8015611322576000805461ff0019169055604051600181527f7f26b83ff96e1f2b6a682f133852f6798a09c465da95921460cefb3847402498906020016112f0565b6000805160206138c183398151915261221e81612907565b5060c980546001600160a81b0319166001600160a01b0390921691909117600160a01b179055565b60ce5460405163526267fd60e11b8152600481018390526000916001600160a01b03169063a4c4cffa906024016114eb565b60008281526065602052604090206001015461229381612907565b6113228383612997565b6122a56125df565b60d654610100900460ff16806122ce57506122ce6000805160206138a183398151915233611ee3565b6122ea5760405162461bcd60e51b815260040161085890613562565b60d554604051631d23bf9160e21b81523360048201526000916001600160a01b03169063748efe449060240160006040518083038186803b15801561232e57600080fd5b505afa158015612342573d6000803e3d6000fd5b505050506040513d6000823e601f3d908101601f1916820160405261236a91908101906136f7565b925050506000806123b48584878151811061238757612387613517565b6020026020010151868689815181106123a2576123a2613517565b602002602001015161053891906134ff565b60408051608081018252600180825260208201526000918101829052606081019190915291935091506123ea908390839061266a565b838386815181106123fd576123fd613517565b6020026020010181815161241191906134ff565b90525060d554604051630b8fe2f960e41b81526001600160a01b039091169063b8fe2f9090612446903390879060040161367f565b600060405180830381600087803b15801561246057600080fd5b505af1158015612474573d6000803e3d6000fd5b505050507ff79500c859f8521da0fea9482c16e6c4280f8a3ec2701949db8604c3cce5c7843386868689815181106124ae576124ae613517565b60200260200101516124c091906136e0565b8689815181106124d2576124d2613517565b602090810291909101810151604080516001600160a01b03909616865291850193909352830152606082015260800160405180910390a15050505050565b6000805160206138c183398151915261252881612907565b612536878787878787612ac7565b50505050505050565b6000805160206138c183398151915261255781612907565b506040805160a0810182526001600160a01b03968716808252958716602082018190529487169181018290529286166060840181905291909516608090920182905260d180546001600160a01b0319908116909517905560d28054851690931790925560d38054841690941790935560d480548316909117905560d580549091169091179055565b60975460ff16156126255760405162461bcd60e51b815260206004820152601060248201526f14185d5cd8589b194e881c185d5cd95960821b6044820152606401610858565b565b600081610100015160018151811061264157612641613517565b60200260200101519050919050565b600081610100015160008151811061264157612641613517565b8060400151156127f2578060200151156126ab5760405162461bcd60e51b8152602060048201526002602482015261070360f41b6044820152606401610858565b80516000906126ba57836126c3565b6126c384612246565b60cd546040516323b872dd60e01b8152336004820152306024820152604481018390529192506001600160a01b0316906323b872dd90606401602060405180830381600087803b15801561271657600080fd5b505af115801561272a573d6000803e3d6000fd5b505050506040513d601f19601f8201168201806040525081019061274e9190613613565b50600060648260d0546127619190613630565b61276b91906136a3565b60ce54604051630d3990db60e21b8152600481018390529192506001600160a01b0316906334e6436c90602401602060405180830381600087803b1580156127b257600080fd5b505af11580156127c6573d6000803e3d6000fd5b505050506040513d601f19601f820116820180604052508101906127ea91906134d0565b505050505050565b8060600151156128295760405162461bcd60e51b8152602060048201526002602482015261703160f01b6044820152606401610858565b80516000906128405761283b846114bd565b612842565b835b60cf5460405163b1918c9560e01b81529192506000916001600160a01b039091169063b1918c959061287c9033908690899060040161364f565b602060405180830381600087803b15801561289657600080fd5b505af11580156128aa573d6000803e3d6000fd5b505050506040513d601f19601f820116820180604052508101906128ce9190613613565b9050806110b45760405162461bcd60e51b81526020600482015260076024820152666e6f46756e647360c81b6044820152606401610858565b6114ba8133612b8e565b61291b8282611ee3565b6113465760008281526065602090815260408083206001600160a01b03851684529091529020805460ff191660011790556129533390565b6001600160a01b0316816001600160a01b0316837f2f8788117e7eff1d82e926ec794901d17c78024a50270940304540a733656f0d60405160405180910390a45050565b6129a18282611ee3565b156113465760008281526065602090815260408083206001600160a01b0385168085529252808320805460ff1916905551339285917ff6391f5c32d9c69d2a47ea670b442974b53935d1edc7fd64eb21e047a839171b9190a45050565b612a06612be7565b6097805460ff191690557f5db9ee0a495bf2e6ff9c91a7834c1ba4fdd244a5e8aa4e537bd38aeae4b073aa335b6040516001600160a01b03909116815260200160405180910390a1565b612a586125df565b6097805460ff191660011790557f62e78cea01bee320cd4e420270b5ea74000d11b0c9f74754ebdbfc544b05a258612a333390565b600054610100900460ff1661262557600080fd5b600054610100900460ff16612ab557600080fd5b612625612c30565b6113468282612911565b60cc80546001600160a01b038089166001600160a01b03199283161790925560cd805488841690831617905560ce805487841690831617905560cf805492861692909116919091179055612b1a82612c50565b60d081905560cd5460405163095ea7b360e01b81526001600160a01b03868116600483015260001960248301529091169063095ea7b390604401600060405180830381600087803b158015612b6e57600080fd5b505af1158015612b82573d6000803e3d6000fd5b50505050505050505050565b612b988282611ee3565b61134657612ba581612d3f565b612bb0836020612d51565b604051602001612bc1929190613747565b60408051601f198184030181529082905262461bcd60e51b8252610858916004016137bc565b60975460ff166126255760405162461bcd60e51b815260206004820152601460248201527314185d5cd8589b194e881b9bdd081c185d5cd95960621b6044820152606401610858565b600054610100900460ff16612c4457600080fd5b6097805460ff19169055565b60008190506000816001600160a01b031663c1cc57b06040518163ffffffff1660e01b815260040160006040518083038186803b158015612c9057600080fd5b505afa158015612ca4573d6000803e3d6000fd5b505050506040513d6000823e601f3d908101601f19168201604052612ccc91908101906137ef565b905060005b8151811015612d3657818181518110612cec57612cec613517565b602090810291909101810151600083815260cb909252604090912080546001600160a01b0319166001600160a01b0390921691909117905580612d2e816136c5565b915050612cd1565b505160ca555050565b606061070d6001600160a01b03831660145b60606000612d60836002613630565b612d6b9060026134ff565b67ffffffffffffffff811115612d8357612d83613184565b6040519080825280601f01601f191660200182016040528015612dad576020820181803683370190505b509050600360fc1b81600081518110612dc857612dc8613517565b60200101906001600160f81b031916908160001a905350600f60fb1b81600181518110612df757612df7613517565b60200101906001600160f81b031916908160001a9053506000612e1b846002613630565b612e269060016134ff565b90505b6001811115612e9e576f181899199a1a9b1b9c1cb0b131b232b360811b85600f1660108110612e5a57612e5a613517565b1a60f81b828281518110612e7057612e70613517565b60200101906001600160f81b031916908160001a90535060049490941c93612e9781613889565b9050612e29565b508315612eaa57600080fd5b9392505050565b600060208284031215612ec357600080fd5b81356001600160e01b031981168114612eaa57600080fd5b600060208284031215612eed57600080fd5b5035919050565b6001600160a01b03811681146114ba57600080fd5b600080600060608486031215612f1e57600080fd5b8335612f2981612ef4565b92506020840135612f3981612ef4565b929592945050506040919091013590565b80151581146114ba57600080fd5b600060208284031215612f6a57600080fd5b8135612eaa81612f4a565b60008060408385031215612f8857600080fd5b823591506020830135612f9a81612ef4565b809150509250929050565b600081518084526020808501945080840160005b83811015612fd557815187529582019590820190600101612fb9565b509495945050505050565b828152604060208201526000612ff96040830184612fa5565b949350505050565b6000806040838503121561301457600080fd5b823561301f81612ef4565b91506020830135612f9a81612ef4565b6000806040838503121561304257600080fd5b50508035926020909101359150565b60008060006060848603121561306657600080fd5b505081359360208301359350604090920135919050565b60006020828403121561308f57600080fd5b8135612eaa81612ef4565b60008060008060008060c087890312156130b357600080fd5b86356130be81612ef4565b955060208701356130ce81612ef4565b945060408701356130de81612ef4565b935060608701356130ee81612ef4565b925060808701356130fe81612ef4565b8092505060a087013590509295509295509295565b600080600080600060a0868803121561312b57600080fd5b853561313681612ef4565b9450602086013561314681612ef4565b9350604086013561315681612ef4565b9250606086013561316681612ef4565b9150608086013561317681612ef4565b809150509295509295909350565b634e487b7160e01b600052604160045260246000fd5b604051610180810167ffffffffffffffff811182821017156131be576131be613184565b60405290565b60405160c0810167ffffffffffffffff811182821017156131be576131be613184565b604051601f8201601f1916810167ffffffffffffffff8111828210171561321057613210613184565b604052919050565b60005b8381101561323357818101518382015260200161321b565b83811115613242576000848401525b50505050565b600082601f83011261325957600080fd5b815167ffffffffffffffff81111561327357613273613184565b613286601f8201601f19166020016131e7565b81815284602083860101111561329b57600080fd5b612ff9826020830160208701613218565b80516132b781612ef4565b919050565b600067ffffffffffffffff8211156132d6576132d6613184565b5060051b60200190565b600082601f8301126132f157600080fd5b81516020613306613301836132bc565b6131e7565b82815260059290921b8401810191818101908684111561332557600080fd5b8286015b848110156133405780518352918301918301613329565b509695505050505050565b80516132b781612f4a565b60006020828403121561336857600080fd5b815167ffffffffffffffff8082111561338057600080fd5b90830190610180828603121561339557600080fd5b61339d61319a565b825181526020830151828111156133b357600080fd5b6133bf87828601613248565b6020830152506040830151828111156133d757600080fd5b6133e387828601613248565b6040830152506133f5606084016132ac565b60608201526080830151608082015260a083015160a082015260c083015160c082015260e083015160e0820152610100808401518381111561343657600080fd5b613442888287016132e0565b828401525050610120808401518381111561345c57600080fd5b613468888287016132e0565b828401525050610140808401518381111561348257600080fd5b61348e888287016132e0565b82840152505061016091506134a482840161334b565b91810191909152949350505050565b6000602082840312156134c557600080fd5b8151612eaa81612ef4565b6000602082840312156134e257600080fd5b5051919050565b634e487b7160e01b600052601160045260246000fd5b60008219821115613512576135126134e9565b500190565b634e487b7160e01b600052603260045260246000fd5b8381526060602082015260006135466060830185612fa5565b82810360408401526135588185612fa5565b9695505050505050565b602080825260029082015261373760f01b604082015260600190565b60008082840360e081121561359257600080fd5b60c08112156135a057600080fd5b506135a96131c4565b835181526020840151602082015260408401516040820152606084015160608201526080840151608082015260a084015160a08201528092505060c083015167ffffffffffffffff8111156135fd57600080fd5b613609858286016132e0565b9150509250929050565b60006020828403121561362557600080fd5b8151612eaa81612f4a565b600081600019048311821515161561364a5761364a6134e9565b500290565b60018060a01b03841681528260208201526060604082015260006136766060830184612fa5565b95945050505050565b6001600160a01b0383168152604060208201819052600090612ff990830184612fa5565b6000826136c057634e487b7160e01b600052601260045260246000fd5b500490565b60006000198214156136d9576136d96134e9565b5060010190565b6000828210156136f2576136f26134e9565b500390565b60008060006060848603121561370c57600080fd5b8351925060208401519150604084015167ffffffffffffffff81111561373157600080fd5b61373d868287016132e0565b9150509250925092565b7f416363657373436f6e74726f6c3a206163636f756e742000000000000000000081526000835161377f816017850160208801613218565b7001034b99036b4b9b9b4b733903937b6329607d1b60179184019182015283516137b0816028840160208801613218565b01602801949350505050565b60208152600082518060208401526137db816040850160208701613218565b601f01601f19169190910160400192915050565b6000602080838503121561380257600080fd5b825167ffffffffffffffff81111561381957600080fd5b8301601f8101851361382a57600080fd5b8051613838613301826132bc565b81815260059190911b8201830190838101908783111561385757600080fd5b928401925b8284101561387e57835161386f81612ef4565b8252928401929084019061385c565b979650505050505050565b600081613898576138986134e9565b50600019019056fe73e573f9566d61418a34d5de3ff49360f9c51fec37f7486551670290f6285dab97667070c54ef182b0f5858b034beac1b6f3089aa2d3188bb1e8929f4fa9b929a2646970667358221220b7f04da048a34421e33d6f341e62ad0346492564976dbd7d551fcf5e3afaa24d64736f6c63430008090033",
  "linkReferences": {},
  "deployedLinkReferences": {}
}