{
  "_format": "hh-sol-artifact-1",
  "contractName": "BkHighUpgrades",
  "sourceName": "contracts/features/BkHighUpgrades.sol",
  "abi": [
    {
      "anonymous": false,
      "inputs": [
        {
          "indexed": false,
          "internalType": "address",
          "name": "account",
          "type": "address"
        },
        {
          "indexed": false,
          "internalType": "uint256",
          "name": "masteryIndex",
          "type": "uint256"
        },
        {
          "indexed": false,
          "internalType": "uint256",
          "name": "oldLevel",
          "type": "uint256"
        },
        {
          "indexed": false,
          "internalType": "uint256",
          "name": "newLevel",
          "type": "uint256"
        }
      ],
      "name": "BuyMastery",
      "type": "event"
    },
    {
      "anonymous": false,
      "inputs": [
        {
          "indexed": false,
          "internalType": "address",
          "name": "account",
          "type": "address"
        },
        {
          "indexed": false,
          "internalType": "uint256",
          "name": "beastId",
          "type": "uint256"
        },
        {
          "indexed": false,
          "internalType": "uint256",
          "name": "oldSpecies",
          "type": "uint256"
        },
        {
          "indexed": false,
          "internalType": "uint256",
          "name": "newSpecies",
          "type": "uint256"
        }
      ],
      "name": "Deify",
      "type": "event"
    },
    {
      "anonymous": false,
      "inputs": [
        {
          "indexed": false,
          "internalType": "address",
          "name": "to",
          "type": "address"
        },
        {
          "indexed": false,
          "internalType": "uint256",
          "name": "amount",
          "type": "uint256"
        }
      ],
      "name": "DismantleAiChips",
      "type": "event"
    },
    {
      "anonymous": false,
      "inputs": [
        {
          "indexed": false,
          "internalType": "address",
          "name": "account",
          "type": "address"
        },
        {
          "indexed": false,
          "internalType": "uint256",
          "name": "oldLevel",
          "type": "uint256"
        },
        {
          "indexed": false,
          "internalType": "uint256",
          "name": "newLevel",
          "type": "uint256"
        }
      ],
      "name": "GlobalFarmingBonus",
      "type": "event"
    },
    {
      "anonymous": false,
      "inputs": [
        {
          "indexed": false,
          "internalType": "uint8",
          "name": "version",
          "type": "uint8"
        }
      ],
      "name": "Initialized",
      "type": "event"
    },
    {
      "anonymous": false,
      "inputs": [
        {
          "indexed": false,
          "internalType": "address",
          "name": "account",
          "type": "address"
        }
      ],
      "name": "Paused",
      "type": "event"
    },
    {
      "anonymous": false,
      "inputs": [
        {
          "indexed": true,
          "internalType": "bytes32",
          "name": "role",
          "type": "bytes32"
        },
        {
          "indexed": true,
          "internalType": "bytes32",
          "name": "previousAdminRole",
          "type": "bytes32"
        },
        {
          "indexed": true,
          "internalType": "bytes32",
          "name": "newAdminRole",
          "type": "bytes32"
        }
      ],
      "name": "RoleAdminChanged",
      "type": "event"
    },
    {
      "anonymous": false,
      "inputs": [
        {
          "indexed": true,
          "internalType": "bytes32",
          "name": "role",
          "type": "bytes32"
        },
        {
          "indexed": true,
          "internalType": "address",
          "name": "account",
          "type": "address"
        },
        {
          "indexed": true,
          "internalType": "address",
          "name": "sender",
          "type": "address"
        }
      ],
      "name": "RoleGranted",
      "type": "event"
    },
    {
      "anonymous": false,
      "inputs": [
        {
          "indexed": true,
          "internalType": "bytes32",
          "name": "role",
          "type": "bytes32"
        },
        {
          "indexed": true,
          "internalType": "address",
          "name": "account",
          "type": "address"
        },
        {
          "indexed": true,
          "internalType": "address",
          "name": "sender",
          "type": "address"
        }
      ],
      "name": "RoleRevoked",
      "type": "event"
    },
    {
      "anonymous": false,
      "inputs": [
        {
          "indexed": false,
          "internalType": "address",
          "name": "to",
          "type": "address"
        },
        {
          "indexed": false,
          "internalType": "uint256",
          "name": "amount",
          "type": "uint256"
        }
      ],
      "name": "TransferAiChips",
      "type": "event"
    },
    {
      "anonymous": false,
      "inputs": [
        {
          "indexed": false,
          "internalType": "address",
          "name": "to",
          "type": "address"
        },
        {
          "indexed": false,
          "internalType": "uint256[]",
          "name": "resources",
          "type": "uint256[]"
        }
      ],
      "name": "TransferResources",
      "type": "event"
    },
    {
      "anonymous": false,
      "inputs": [
        {
          "indexed": false,
          "internalType": "address",
          "name": "account",
          "type": "address"
        }
      ],
      "name": "Unpaused",
      "type": "event"
    },
    {
      "inputs": [],
      "name": "DEFAULT_ADMIN_ROLE",
      "outputs": [
        {
          "internalType": "bytes32",
          "name": "",
          "type": "bytes32"
        }
      ],
      "stateMutability": "view",
      "type": "function"
    },
    {
      "inputs": [
        {
          "internalType": "address",
          "name": "_operator",
          "type": "address"
        },
        {
          "internalType": "address",
          "name": "_blocklistAddress",
          "type": "address"
        }
      ],
      "name": "__Administrable_init",
      "outputs": [],
      "stateMutability": "nonpayable",
      "type": "function"
    },
    {
      "inputs": [],
      "name": "_resetBlocklist",
      "outputs": [],
      "stateMutability": "nonpayable",
      "type": "function"
    },
    {
      "inputs": [],
      "name": "autoReturnRate",
      "outputs": [
        {
          "internalType": "uint256",
          "name": "",
          "type": "uint256"
        }
      ],
      "stateMutability": "view",
      "type": "function"
    },
    {
      "inputs": [
        {
          "internalType": "uint256",
          "name": "bctAmount",
          "type": "uint256"
        }
      ],
      "name": "bctToStabletoken",
      "outputs": [
        {
          "internalType": "uint256",
          "name": "",
          "type": "uint256"
        }
      ],
      "stateMutability": "view",
      "type": "function"
    },
    {
      "inputs": [
        {
          "internalType": "uint256",
          "name": "levels",
          "type": "uint256"
        }
      ],
      "name": "buyGlobalFarmingBonus",
      "outputs": [],
      "stateMutability": "nonpayable",
      "type": "function"
    },
    {
      "inputs": [
        {
          "internalType": "uint256",
          "name": "masteryIndex",
          "type": "uint256"
        },
        {
          "internalType": "uint256",
          "name": "levels",
          "type": "uint256"
        }
      ],
      "name": "buyMastery",
      "outputs": [],
      "stateMutability": "nonpayable",
      "type": "function"
    },
    {
      "inputs": [],
      "name": "contracts",
      "outputs": [
        {
          "internalType": "contract IBkFarm",
          "name": "farm",
          "type": "address"
        },
        {
          "internalType": "contract IBkNft",
          "name": "nft",
          "type": "address"
        },
        {
          "internalType": "contract IBkStasher",
          "name": "stasher",
          "type": "address"
        },
        {
          "internalType": "contract IBkFetch",
          "name": "balances",
          "type": "address"
        },
        {
          "internalType": "contract IBkPlayerBonus",
          "name": "playerBonus",
          "type": "address"
        }
      ],
      "stateMutability": "view",
      "type": "function"
    },
    {
      "inputs": [
        {
          "internalType": "uint256",
          "name": "beastId",
          "type": "uint256"
        }
      ],
      "name": "deify",
      "outputs": [],
      "stateMutability": "nonpayable",
      "type": "function"
    },
    {
      "inputs": [
        {
          "internalType": "uint256",
          "name": "howMany",
          "type": "uint256"
        }
      ],
      "name": "dismantleAiChips",
      "outputs": [],
      "stateMutability": "nonpayable",
      "type": "function"
    },
    {
      "inputs": [
        {
          "internalType": "bool",
          "name": "_enable",
          "type": "bool"
        }
      ],
      "name": "enableAiChips",
      "outputs": [],
      "stateMutability": "nonpayable",
      "type": "function"
    },
    {
      "inputs": [
        {
          "internalType": "bool",
          "name": "_enable",
          "type": "bool"
        }
      ],
      "name": "enableDeify",
      "outputs": [],
      "stateMutability": "nonpayable",
      "type": "function"
    },
    {
      "inputs": [
        {
          "internalType": "bool",
          "name": "_enable",
          "type": "bool"
        }
      ],
      "name": "enableGlobalFarmingBonus",
      "outputs": [],
      "stateMutability": "nonpayable",
      "type": "function"
    },
    {
      "inputs": [
        {
          "internalType": "bool",
          "name": "_enable",
          "type": "bool"
        }
      ],
      "name": "enableMasteries",
      "outputs": [],
      "stateMutability": "nonpayable",
      "type": "function"
    },
    {
      "inputs": [
        {
          "internalType": "uint256",
          "name": "howMany",
          "type": "uint256"
        }
      ],
      "name": "getAiChipCosts",
      "outputs": [
        {
          "internalType": "uint256",
          "name": "",
          "type": "uint256"
        },
        {
          "internalType": "uint256[]",
          "name": "",
          "type": "uint256[]"
        }
      ],
      "stateMutability": "view",
      "type": "function"
    },
    {
      "inputs": [
        {
          "internalType": "uint256",
          "name": "originalType",
          "type": "uint256"
        }
      ],
      "name": "getDeifyCosts",
      "outputs": [
        {
          "internalType": "uint256",
          "name": "",
          "type": "uint256"
        },
        {
          "internalType": "uint256[]",
          "name": "",
          "type": "uint256[]"
        }
      ],
      "stateMutability": "view",
      "type": "function"
    },
    {
      "inputs": [
        {
          "internalType": "uint256",
          "name": "howMany",
          "type": "uint256"
        }
      ],
      "name": "getDismantleAiChipCosts",
      "outputs": [
        {
          "internalType": "uint256",
          "name": "",
          "type": "uint256"
        },
        {
          "internalType": "uint256[]",
          "name": "",
          "type": "uint256[]"
        }
      ],
      "stateMutability": "view",
      "type": "function"
    },
    {
      "inputs": [
        {
          "internalType": "uint256",
          "name": "currentLevel",
          "type": "uint256"
        },
        {
          "internalType": "uint256",
          "name": "targetLevel",
          "type": "uint256"
        }
      ],
      "name": "getGlobalFarmingBonusCosts",
      "outputs": [
        {
          "internalType": "uint256",
          "name": "",
          "type": "uint256"
        },
        {
          "internalType": "uint256[]",
          "name": "",
          "type": "uint256[]"
        }
      ],
      "stateMutability": "view",
      "type": "function"
    },
    {
      "inputs": [
        {
          "internalType": "uint256",
          "name": "masteryIndex",
          "type": "uint256"
        },
        {
          "internalType": "uint256",
          "name": "currentLevel",
          "type": "uint256"
        },
        {
          "internalType": "uint256",
          "name": "targetLevel",
          "type": "uint256"
        }
      ],
      "name": "getMasteryCosts",
      "outputs": [
        {
          "internalType": "uint256",
          "name": "",
          "type": "uint256"
        },
        {
          "internalType": "uint256[]",
          "name": "",
          "type": "uint256[]"
        }
      ],
      "stateMutability": "pure",
      "type": "function"
    },
    {
      "inputs": [
        {
          "internalType": "bytes32",
          "name": "role",
          "type": "bytes32"
        }
      ],
      "name": "getRoleAdmin",
      "outputs": [
        {
          "internalType": "bytes32",
          "name": "",
          "type": "bytes32"
        }
      ],
      "stateMutability": "view",
      "type": "function"
    },
    {
      "inputs": [
        {
          "internalType": "bytes32",
          "name": "role",
          "type": "bytes32"
        },
        {
          "internalType": "address",
          "name": "account",
          "type": "address"
        }
      ],
      "name": "grantRole",
      "outputs": [],
      "stateMutability": "nonpayable",
      "type": "function"
    },
    {
      "inputs": [],
      "name": "hasBlocklist",
      "outputs": [
        {
          "internalType": "bool",
          "name": "",
          "type": "bool"
        }
      ],
      "stateMutability": "view",
      "type": "function"
    },
    {
      "inputs": [
        {
          "internalType": "bytes32",
          "name": "role",
          "type": "bytes32"
        },
        {
          "internalType": "address",
          "name": "account",
          "type": "address"
        }
      ],
      "name": "hasRole",
      "outputs": [
        {
          "internalType": "bool",
          "name": "",
          "type": "bool"
        }
      ],
      "stateMutability": "view",
      "type": "function"
    },
    {
      "inputs": [
        {
          "internalType": "address",
          "name": "_operator",
          "type": "address"
        },
        {
          "internalType": "address",
          "name": "_blocklist",
          "type": "address"
        }
      ],
      "name": "initialize",
      "outputs": [],
      "stateMutability": "nonpayable",
      "type": "function"
    },
    {
      "inputs": [
        {
          "internalType": "uint256",
          "name": "",
          "type": "uint256"
        }
      ],
      "name": "masteryIndexToDreamResourceIndex",
      "outputs": [
        {
          "internalType": "uint256",
          "name": "",
          "type": "uint256"
        }
      ],
      "stateMutability": "view",
      "type": "function"
    },
    {
      "inputs": [],
      "name": "maxDeifySpecies",
      "outputs": [
        {
          "internalType": "uint256",
          "name": "",
          "type": "uint256"
        }
      ],
      "stateMutability": "view",
      "type": "function"
    },
    {
      "inputs": [],
      "name": "pause",
      "outputs": [],
      "stateMutability": "nonpayable",
      "type": "function"
    },
    {
      "inputs": [],
      "name": "paused",
      "outputs": [
        {
          "internalType": "bool",
          "name": "",
          "type": "bool"
        }
      ],
      "stateMutability": "view",
      "type": "function"
    },
    {
      "inputs": [],
      "name": "paymentContracts",
      "outputs": [
        {
          "internalType": "contract IBkERC20",
          "name": "bct",
          "type": "address"
        },
        {
          "internalType": "contract IBkERC20",
          "name": "busd",
          "type": "address"
        },
        {
          "internalType": "contract ICommunityPool",
          "name": "pool",
          "type": "address"
        },
        {
          "internalType": "contract IBkFarm",
          "name": "farm",
          "type": "address"
        }
      ],
      "stateMutability": "view",
      "type": "function"
    },
    {
      "inputs": [
        {
          "internalType": "uint256",
          "name": "",
          "type": "uint256"
        }
      ],
      "name": "priceInEbctPerSpecies",
      "outputs": [
        {
          "internalType": "uint256",
          "name": "",
          "type": "uint256"
        }
      ],
      "stateMutability": "view",
      "type": "function"
    },
    {
      "inputs": [
        {
          "internalType": "uint256",
          "name": "howMany",
          "type": "uint256"
        }
      ],
      "name": "produceAiChips",
      "outputs": [],
      "stateMutability": "nonpayable",
      "type": "function"
    },
    {
      "inputs": [
        {
          "internalType": "address",
          "name": "tokenAddress",
          "type": "address"
        },
        {
          "internalType": "address",
          "name": "to",
          "type": "address"
        },
        {
          "internalType": "uint256",
          "name": "amount",
          "type": "uint256"
        }
      ],
      "name": "recoverERC20",
      "outputs": [],
      "stateMutability": "nonpayable",
      "type": "function"
    },
    {
      "inputs": [
        {
          "internalType": "bytes32",
          "name": "role",
          "type": "bytes32"
        },
        {
          "internalType": "address",
          "name": "account",
          "type": "address"
        }
      ],
      "name": "renounceRole",
      "outputs": [],
      "stateMutability": "nonpayable",
      "type": "function"
    },
    {
      "inputs": [
        {
          "internalType": "uint256",
          "name": "",
          "type": "uint256"
        }
      ],
      "name": "resources",
      "outputs": [
        {
          "internalType": "address",
          "name": "",
          "type": "address"
        }
      ],
      "stateMutability": "view",
      "type": "function"
    },
    {
      "inputs": [],
      "name": "resourcesCount",
      "outputs": [
        {
          "internalType": "uint256",
          "name": "",
          "type": "uint256"
        }
      ],
      "stateMutability": "view",
      "type": "function"
    },
    {
      "inputs": [
        {
          "internalType": "bytes32",
          "name": "role",
          "type": "bytes32"
        },
        {
          "internalType": "address",
          "name": "account",
          "type": "address"
        }
      ],
      "name": "revokeRole",
      "outputs": [],
      "stateMutability": "nonpayable",
      "type": "function"
    },
    {
      "inputs": [],
      "name": "scale",
      "outputs": [
        {
          "internalType": "uint256",
          "name": "",
          "type": "uint256"
        }
      ],
      "stateMutability": "view",
      "type": "function"
    },
    {
      "inputs": [
        {
          "internalType": "address",
          "name": "blocklistAddress",
          "type": "address"
        }
      ],
      "name": "setBlocklist",
      "outputs": [],
      "stateMutability": "nonpayable",
      "type": "function"
    },
    {
      "inputs": [
        {
          "internalType": "address",
          "name": "_farm",
          "type": "address"
        },
        {
          "internalType": "address",
          "name": "_nft",
          "type": "address"
        },
        {
          "internalType": "address",
          "name": "_stasher",
          "type": "address"
        },
        {
          "internalType": "address",
          "name": "_balances",
          "type": "address"
        },
        {
          "internalType": "address",
          "name": "_playerBonus",
          "type": "address"
        }
      ],
      "name": "setContracts",
      "outputs": [],
      "stateMutability": "nonpayable",
      "type": "function"
    },
    {
      "inputs": [
        {
          "internalType": "uint256",
          "name": "_scale",
          "type": "uint256"
        }
      ],
      "name": "setScale",
      "outputs": [],
      "stateMutability": "nonpayable",
      "type": "function"
    },
    {
      "inputs": [
        {
          "internalType": "address",
          "name": "_bct",
          "type": "address"
        },
        {
          "internalType": "address",
          "name": "_busd",
          "type": "address"
        },
        {
          "internalType": "address",
          "name": "_pool",
          "type": "address"
        },
        {
          "internalType": "address",
          "name": "_farm",
          "type": "address"
        },
        {
          "internalType": "address",
          "name": "_resourcesSource",
          "type": "address"
        },
        {
          "internalType": "uint256",
          "name": "_autoReturnRate",
          "type": "uint256"
        }
      ],
      "name": "setupPaymentModule",
      "outputs": [],
      "stateMutability": "nonpayable",
      "type": "function"
    },
    {
      "inputs": [
        {
          "internalType": "uint256",
          "name": "busdAmount",
          "type": "uint256"
        }
      ],
      "name": "stabletokenToBct",
      "outputs": [
        {
          "internalType": "uint256",
          "name": "",
          "type": "uint256"
        }
      ],
      "stateMutability": "view",
      "type": "function"
    },
    {
      "inputs": [
        {
          "internalType": "bytes4",
          "name": "interfaceId",
          "type": "bytes4"
        }
      ],
      "name": "supportsInterface",
      "outputs": [
        {
          "internalType": "bool",
          "name": "",
          "type": "bool"
        }
      ],
      "stateMutability": "view",
      "type": "function"
    },
    {
      "inputs": [
        {
          "internalType": "uint256",
          "name": "",
          "type": "uint256"
        }
      ],
      "name": "typeToBaseFarm",
      "outputs": [
        {
          "internalType": "uint256",
          "name": "",
          "type": "uint256"
        }
      ],
      "stateMutability": "view",
      "type": "function"
    },
    {
      "inputs": [
        {
          "internalType": "uint256",
          "name": "",
          "type": "uint256"
        }
      ],
      "name": "typeToTrait",
      "outputs": [
        {
          "internalType": "uint256",
          "name": "",
          "type": "uint256"
        }
      ],
      "stateMutability": "view",
      "type": "function"
    },
    {
      "inputs": [],
      "name": "unpause",
      "outputs": [],
      "stateMutability": "nonpayable",
      "type": "function"
    }
  ],
  "bytecode": "0x608060405234801561001057600080fd5b506138f5806100206000396000f3fe608060405234801561001057600080fd5b506004361061028a5760003560e01c80635736add41161015c57806391eebe2d116100ce578063c429d34911610087578063c429d3491461067e578063d547741f14610687578063def0319f1461069a578063f4b93f45146106ad578063f51e181a146106c0578063f63bf8bd146106c957600080fd5b806391eebe2d1461061757806392746bc41461062a578063931da89b1461063d578063a217fddf14610650578063aef18ae714610658578063b5f63f601461066b57600080fd5b80636c0f79b6116101205780636c0f79b6146105505780637198a07d146105b65780637f246fbf146105c9578063803b0060146105dc5780638456cb59146105fc57806391d148541461060457600080fd5b80635736add4146104f85780635c975abb1461050b578063634210f4146105165780636a754ffe1461052a5780636aebca9e1461053d57600080fd5b80632f2ff15d116102005780633f4ba83a116101b95780633f4ba83a1461048e57806341e80ad914610496578063485cc955146104a957806349f1e708146104bc5780634c80dda4146104cf57806351ac7b8c146104ef57600080fd5b80632f2ff15d146103d2578063323b6cb7146103e557806336568abe1461043e5780633a93f328146104515780633ab5baeb146104725780633edc35191461047b57600080fd5b80631171bda9116102525780631171bda9146103155780631eb313fc14610328578063244d6daa1461033b578063248a9ca31461037c5780632bc8b3971461039f5780632cb156ad146103b257600080fd5b806301ffc9a71461028f57806306a45070146102b757806306b0750a146102c15780630a40f726146102d45780630d520cfe14610302575b600080fd5b6102a261029d366004612e90565b6106dc565b60405190151581526020015b60405180910390f35b6102bf610713565b005b6102bf6102cf366004612eba565b61073e565b6102f46102e2366004612eba565b60dc6020526000908152604090205481565b6040519081526020016102ae565b6102bf610310366004612eba565b610e3e565b6102bf610323366004612ee8565b611045565b6102bf610336366004612f37565b6110e6565b610364610349366004612eba565b60cb602052600090815260409020546001600160a01b031681565b6040516001600160a01b0390911681526020016102ae565b6102f461038a366004612eba565b60009081526065602052604090206001015490565b6102bf6103ad366004612eba565b61111d565b6102f46103c0366004612eba565b60da6020526000908152604090205481565b6102bf6103e0366004612f54565b611328565b60cc5460cd5460ce5460cf5461040b936001600160a01b03908116938116928116911684565b604080516001600160a01b03958616815293851660208501529184169183019190915290911660608201526080016102ae565b6102bf61044c366004612f54565b611352565b61046461045f366004612eba565b611375565b6040516102ae929190612fbf565b6102f460d85481565b6102bf610489366004612eba565b61147c565b6102bf61149a565b6102f46104a4366004612eba565b6114bd565b6102bf6104b7366004612fe0565b61153b565b6104646104ca36600461300e565b6119e1565b6102f46104dd366004612eba565b60db6020526000908152604090205481565b6102f460ca5481565b6102bf610506366004612f37565b611b2b565b60975460ff166102a2565b60c9546102a290600160a01b900460ff1681565b610464610538366004613030565b611b60565b61046461054b366004612eba565b611c72565b60d15460d25460d35460d45460d55461057c946001600160a01b03908116948116938116928116911685565b604080516001600160a01b03968716815294861660208601529285169284019290925283166060830152909116608082015260a0016102ae565b6102bf6105c4366004612f37565b611cbd565b6102bf6105d7366004612eba565b611ce9565b6102f46105ea366004612eba565b60d96020526000908152604090205481565b6102bf611ec3565b6102a2610612366004612f54565b611ee3565b6102bf610625366004612f37565b611f0e565b610464610638366004612eba565b611f41565b6102bf61064b366004612fe0565b61210a565b6102f4600081565b6102bf61066636600461305c565b612206565b6102f4610679366004612eba565b612246565b6102f460d05481565b6102bf610695366004612f54565b612278565b6102bf6106a836600461300e565b61229d565b6102bf6106bb366004613079565b612510565b6102f460d75481565b6102bf6106d73660046130f2565b61253f565b60006001600160e01b03198216637965db0b60e01b148061070d57506301ffc9a760e01b6001600160e01b03198316145b92915050565b6000805160206138a083398151915261072b816125df565b5060c980546001600160a81b0319169055565b6107466125e9565b60d2546040516341f63bfd60e01b8152600481018390526000916001600160a01b0316906341f63bfd9060240160006040518083038186803b15801561078b57600080fd5b505afa15801561079f573d6000803e3d6000fd5b505050506040513d6000823e601f3d908101601f191682016040526107c79190810190613335565b60d2546040516331a9108f60e11b8152600481018590529192506000916001600160a01b0390911690636352211e9060240160206040518083038186803b15801561081157600080fd5b505afa158015610825573d6000803e3d6000fd5b505050506040513d601f19601f820116820180604052508101906108499190613492565b90506001600160a01b038116331461088c5760405162461bcd60e51b81526020600482015260016024820152600360fc1b60448201526064015b60405180910390fd5b6080820151156108c25760405162461bcd60e51b81526020600482015260016024820152603160f81b6044820152606401610883565b6108cb82612631565b6005146108fe5760405162461bcd60e51b81526020600482015260016024820152601960f91b6044820152606401610883565b60006109098361265a565b905060d8548111156109415760405162461bcd60e51b81526020600482015260016024820152603360f81b6044820152606401610883565b60d354604051635c138c9d60e01b81523360048201526000916001600160a01b031690635c138c9d9060240160206040518083038186803b15801561098557600080fd5b505afa158015610999573d6000803e3d6000fd5b505050506040513d601f19601f820116820180604052508101906109bd91906134af565b905080600a14806109d857506109d48260086134de565b8110155b610a085760405162461bcd60e51b81526020600482015260016024820152600d60fa1b6044820152606401610883565b6000610a158360056134de565b9050600080610a2385611f41565b6040805160808101825260018082526020820152600091810182905260608101919091529193509150610a599083908390612674565b60d254604051639497558560e01b8152600481018a9052606060248201526000606482018190526080604483015260848201526001600160a01b039091169063949755859060a401600060405180830381600087803b158015610abb57600080fd5b505af1158015610acf573d6000803e3d6000fd5b50505061010088015160009150600481518110610aee57610aee6134f6565b6020908102919091010152610100870151600090600581518110610b1457610b146134f6565b6020908102919091010152610100870151600590600181518110610b3a57610b3a6134f6565b60209081029190910101526101008701518390600081518110610b5f57610b5f6134f6565b602090810291909101015260408051600680825260e08201909252600091816020016020820280368337019050509050600181600081518110610ba457610ba46134f6565b602002602001018181525050600181600181518110610bc557610bc56134f6565b602090810291909101015260d2546101008901516040516386931e4960e01b81526001600160a01b03909216916386931e4991610c09918d9190869060040161350c565b600060405180830381600087803b158015610c2357600080fd5b505af1158015610c37573d6000803e3d6000fd5b506000925060039150610c479050565b604051908082528060200260200182016040528015610c70578160200160208202803683370190505b50600086815260da6020526040812054825192935091839190610c9557610c956134f6565b60200260200101818152505060da60008681526020019081526020016000205481600181518110610cc857610cc86134f6565b60200260200101818152505060da60008681526020019081526020016000205481600281518110610cfb57610cfb6134f6565b602090810291909101015260d25460405163088d210f60e41b81526001600160a01b03909116906388d210f090610d38908d908590600401612fbf565b600060405180830381600087803b158015610d5257600080fd5b505af1158015610d66573d6000803e3d6000fd5b505060d254600088815260db60205260409081902054905163de71b06760e01b8152600481018f905260248101919091526001600160a01b03909116925063de71b0679150604401600060405180830381600087803b158015610dc857600080fd5b505af1158015610ddc573d6000803e3d6000fd5b5050604080516001600160a01b038c168152602081018e90529081018a9052606081018890527fdfe58dee5d678e842925d5672e923a0f0bd70b16b2285cc75a66b16e1c0e7a649250608001905060405180910390a150505050505050505050565b610e466125e9565b60d6546301000000900460ff1680610e715750610e7160008051602061388083398151915233611ee3565b610e8d5760405162461bcd60e51b815260040161088390613541565b60d5546040516367bb9a1f60e11b81523360048201526000916001600160a01b03169063cf77343e9060240160006040518083038186803b158015610ed157600080fd5b505afa158015610ee5573d6000803e3d6000fd5b505050506040513d6000823e601f3d908101601f19168201604052610f0d919081019061355d565b5060608101519091506000908190610f29906104ca86826134de565b6040805160808101825260018082526020820152600091810182905260608101919091529193509150610f5f9083908390612674565b60d55460608401516001600160a01b0390911690632f46c383903390610f869088906134de565b6040516001600160e01b031960e085901b1681526001600160a01b0390921660048301526024820152604401600060405180830381600087803b158015610fcc57600080fd5b505af1158015610fe0573d6000803e3d6000fd5b50505060608401517f12c0a01ca21cd085250692c4b1d255a48616a727046bcf0b0fd41ae42189ba7a9150339061101787826134de565b604080516001600160a01b03909416845260208401929092529082015260600160405180910390a150505050565b6000805160206138a083398151915261105d816125df565b60405163a9059cbb60e01b81526001600160a01b0384811660048301526024820184905285169063a9059cbb90604401602060405180830381600087803b1580156110a757600080fd5b505af11580156110bb573d6000803e3d6000fd5b505050506040513d601f19601f820116820180604052508101906110df91906135f2565b5050505050565b6000805160206138a08339815191526110fe816125df565b5060d6805491151563010000000263ff00000019909216919091179055565b6111256125e9565b60d65462010000900460ff168061114f575061114f60008051602061388083398151915233611ee3565b61116b5760405162461bcd60e51b815260040161088390613541565b60008061117783611c72565b60408051608081018252600180825260208201526000918101829052606081019190915291935091506111ad9083908390612674565b6111b883606461360f565b816016815181106111cb576111cb6134f6565b60209081029190910101526111e183606461360f565b816017815181106111f4576111f46134f6565b602090810291909101015261120a83606461360f565b8160188151811061121d5761121d6134f6565b60200260200101818152505060008160198151811061123e5761123e6134f6565b602090810291909101015260d1546040516304567ca960e11b81526001600160a01b03909116906308acf9529061127e903390600090869060040161362e565b600060405180830381600087803b15801561129857600080fd5b505af11580156112ac573d6000803e3d6000fd5b505060408051338152602081018790527fa7cf3114bd11a560d5136d1261c3b4d1fc300d4d5763ea059dfee335a580fbd3935001905060405180910390a17ff01cb619d4302523996df428de2086bca27fe8f835bd6ce7c19e94fb046684c5338260405161131b92919061365e565b60405180910390a1505050565b600082815260656020526040902060010154611343816125df565b61134d83836128f0565b505050565b6001600160a01b038116331461136757600080fd5b6113718282612976565b5050565b60408051601a8082526103608201909252600091606091839182919060208201610340803683370190505090506113ad85606461360f565b816015815181106113c0576113c06134f6565b60209081029190910101526113d685606461360f565b816016815181106113e9576113e96134f6565b60209081029190910101526113ff85606461360f565b81601781518110611412576114126134f6565b602090810291909101015261142885606461360f565b8160188151811061143b5761143b6134f6565b602090810291909101015260d75460329061145e84670de0b6b3a764000061360f565b611468919061360f565b6114729190613682565b9590945092505050565b6000805160206138a0833981519152611494816125df565b5060d755565b6000805160206138a08339815191526114b2816125df565b6114ba6129dd565b50565b60ce54604051634ca1cccb60e11b8152600481018390526000916001600160a01b0316906399439996906024015b60206040518083038186803b15801561150357600080fd5b505afa158015611517573d6000803e3d6000fd5b505050506040513d601f19601f8201168201806040525081019061070d91906134af565b600054610100900460ff161580801561155b5750600054600160ff909116105b806115755750303b158015611575575060005460ff166001145b61157e57600080fd5b6000805460ff1916600117905580156115a1576000805461ff0019166101001790555b6115ab838361210a565b603260d755602c7f352542d120459fe49009d574b12995edcbb363275cf170be343dee6830d5dcdf5560317ffb4378f518daf1247a4fecf0fbc84c05578a2ac03a0465b018dc5da57dfd61185560057f62bc18884a8d2f06fc5375ba774ddf7ed53c8b1cef91fbbe0f66938ceb852c7981905560137fba8407f2dde1ffcb76cdb7ca386ae1f078000e0991202345e341cdc69d21699655601f7ff6f365d4baa205bd104b21ae18cd7c03c3d409d7fe392b1575b6e5aec4b1b4905560257fa73273eaf0dd7f80eea98b3f7f74f8c376c880b06ad673354b98a3343dd656845560337f79872d0688462dcc426b99ded94fa153ced5472511df68d0a09d238a30f3cbfa5560357f4955ddd678b0fd2068679eb6cbd2d8e176c66a676d2a4eafef0fde0f269563bb5560347fcc9bf65eabeb95d1fe95ced84bce21cc8b43ab424e2872f12cafd4dc19a12fd05560367ff67daaf05c86b712b3242cd58898fdfe556368055d88a6a486fd38ae2408c77455655af3107a40007f0753aab3c814d10169d625e7f73301b767fae521c959dd1f101dc1948b90768a556571afd498d0007f1e5ca2b3a5b37f307bf7224dee63e9db01850c69ad03b81a1746af40011c73295565886c98b760007f982a732a2db9f1c172af3728a031722a4fb69fc13c197730747678bca82e9f7355659f295cd5f0007f6d7a35b3393c68521d1beaa179aaa0963665f58848369eff816650d1ca6f666f556601c6bf526340007fd8efe695ce34e67be575fe9d61b4ce6ed9d2159ad3137c0a5d96facc5488366655660221b262dd80007f88e214959a6e1410760d7732915676dbc328ddb34b73cb68393ef95694a7ee5d5566027ca57357c0007f0b0a1c44dc6886781da95cf1805105f317ce8238e9ff8a639fca64e1ff3707d4556602d79883d200007f611d32ca7af386e29ec365b729326f4c1f5532bdfaacd05635ec531f357c316f5566038d7ea4c680007f2a4a21cdf6781e38cc546235b3dc31591e6e79ab585d195135d56bc77c4f1aba55660470de4df820007fe94c98768cbb30f02ef90377f555646c111ea9eae727e1c7b05234a60ae5d9ab5560dc60205260197fa914a711fa9859c15cb17d2aa25e08470aa298217330c83169dd2a380ff0e85d5560157fed5632bb274c77ec3a8fb983dc542cd5cc49def33659104ab3c76bf3dc28c94e8190557f305af1d5eeca2070eb555bae23239ec4d3425b7ee73c1c5ceb1a9bd5d7c1d3075560177fd424594b947c18da8f3a6f93819695640a748b6d74709a708102e14e3e81669c5560167f0fb4caf2b09259681c9229fb409ac599b6692aeff999fc756681a9d7d3fd042855600081905260187f046340db4f2c181c4c7d6966c61f461a307218d968b1f2751f28e78a2a637ffb5560d855801561134d576000805461ff0019169055604051600181527f7f26b83ff96e1f2b6a682f133852f6798a09c465da95921460cefb38474024989060200161131b565b600060606103e860026001848080895b6119fb8a8c6134de565b811015611a7757611a0d8160016134de565b611a17908861360f565b611a2190856134de565b9350611a2e81600261360f565b611a38908761360f565b611a4290846134de565b9250611a4f8160016134de565b611a59908661360f565b611a6390836134de565b915080611a6f816136a4565b9150506119f1565b5060408051601a80825261036082019092526000916020820161034080368337019050509050611aa882606461360f565b81600981518110611abb57611abb6134f6565b6020908102919091010152611ad183606461360f565b81601981518110611ae457611ae46134f6565b602090810291909101015260d754603290611b0786670de0b6b3a764000061360f565b611b11919061360f565b611b1b9190613682565b9b909a5098505050505050505050565b6000805160206138a0833981519152611b43816125df565b5060d68054911515620100000262ff000019909216919091179055565b600060608185611b7257506005611b92565b8560011480611b815750856005145b15611b8e57506004611b92565b5060035b6000855b85811015611be15782811015611bc257611bb18160016134de565b611bbb90836134de565b9150611bcf565b611bcc83836134de565b91505b80611bd9816136a4565b915050611b96565b5060408051601a80825261036082019092526000916020820161034080368337019050509050611c1187876136bf565b611c1c90606461360f565b81601581518110611c2f57611c2f6134f6565b6020908102919091010152611c4582606461360f565b81601981518110611c5857611c586134f6565b602090810291909101015260009890975095505050505050565b60408051601a808252610360820190925260009160609183918291906020820161034080368337019050509050611caa85606461360f565b8160198151811061143b5761143b6134f6565b6000805160206138a0833981519152611cd5816125df565b5060d6805460ff1916911515919091179055565b611cf16125e9565b60d65462010000900460ff1680611d1b5750611d1b60008051602061388083398151915233611ee3565b611d375760405162461bcd60e51b815260040161088390613541565b600080611d4383611375565b6040805160808101825260018082526020820152600091810182905260608101919091529193509150611d799083908390612674565b600081601581518110611d8e57611d8e6134f6565b602002602001018181525050600081601681518110611daf57611daf6134f6565b602002602001018181525050600081601781518110611dd057611dd06134f6565b602002602001018181525050600081601881518110611df157611df16134f6565b6020908102919091010152611e0783606461360f565b81601981518110611e1a57611e1a6134f6565b602090810291909101015260d1546040516304567ca960e11b81526001600160a01b03909116906308acf95290611e5a903390600090869060040161362e565b600060405180830381600087803b158015611e7457600080fd5b505af1158015611e88573d6000803e3d6000fd5b505060408051338152602081018790527f548f8a8766b0cc1cf5665263896acd1f29598428b997d762833b567a8a70b5ff935001905061131b565b6000805160206138a0833981519152611edb816125df565b6114ba612a2f565b60009182526065602090815260408084206001600160a01b0393909316845291905290205460ff1690565b6000805160206138a0833981519152611f26816125df565b5060d680549115156101000261ff0019909216919091179055565b6000606060006008841115611f705783600914611f6157620186a0611f66565b620124f85b62ffffff16611f93565b611f7b6001856136bf565b611f879061138861360f565b611f93906127106134de565b905060006005851115611fb7576008851115611fb05760fa611fba565b6032611fba565b60195b60ff16905060006005861115611fda57611fd58660086134de565b611fe5565b611fe586600d6134de565b9050600060058711156120095760088711156120025760fa61200c565b606461200c565b60325b60ff1690506000600588111561202c5761202788600f6134de565b612037565b6120378860146134de565b60408051601a8082526103608201909252919250600091906020820161034080368337019050509050606481600981518110612075576120756134f6565b602090810291909101015261208b85606461360f565b81858151811061209d5761209d6134f6565b60209081029190910101526120b383606461360f565b8183815181106120c5576120c56134f6565b602090810291909101015260d7546032906120e888670de0b6b3a764000061360f565b6120f2919061360f565b6120fc9190613682565b999098509650505050505050565b600054610100900460ff161580801561212a5750600054600160ff909116105b806121445750303b158015612144575060005460ff166001145b61214d57600080fd5b6000805460ff191660011790558015612170576000805461ff0019166101001790555b612178612a6c565b612180612a80565b61218b600084612a9c565b6121a36000805160206138a083398151915284612a9c565b6121bb60008051602061388083398151915284612a9c565b6121c482612206565b801561134d576000805461ff0019169055604051600181527f7f26b83ff96e1f2b6a682f133852f6798a09c465da95921460cefb38474024989060200161131b565b6000805160206138a083398151915261221e816125df565b5060c980546001600160a81b0319166001600160a01b0390921691909117600160a01b179055565b60ce5460405163526267fd60e11b8152600481018390526000916001600160a01b03169063a4c4cffa906024016114eb565b600082815260656020526040902060010154612293816125df565b61134d8383612976565b6122a56125e9565b60d654610100900460ff16806122ce57506122ce60008051602061388083398151915233611ee3565b6122ea5760405162461bcd60e51b815260040161088390613541565b60d554604051631d23bf9160e21b81523360048201526000916001600160a01b03169063748efe449060240160006040518083038186803b15801561232e57600080fd5b505afa158015612342573d6000803e3d6000fd5b505050506040513d6000823e601f3d908101601f1916820160405261236a91908101906136d6565b925050506000806123b485848781518110612387576123876134f6565b6020026020010151868689815181106123a2576123a26134f6565b602002602001015161053891906134de565b60408051608081018252600180825260208201526000918101829052606081019190915291935091506123ea9083908390612674565b838386815181106123fd576123fd6134f6565b6020026020010181815161241191906134de565b90525060d554604051630b8fe2f960e41b81526001600160a01b039091169063b8fe2f9090612446903390879060040161365e565b600060405180830381600087803b15801561246057600080fd5b505af1158015612474573d6000803e3d6000fd5b505050507ff79500c859f8521da0fea9482c16e6c4280f8a3ec2701949db8604c3cce5c7843386868689815181106124ae576124ae6134f6565b60200260200101516124c091906136bf565b8689815181106124d2576124d26134f6565b602090810291909101810151604080516001600160a01b03909616865291850193909352830152606082015260800160405180910390a15050505050565b6000805160206138a0833981519152612528816125df565b612536878787878787612aa6565b50505050505050565b6000805160206138a0833981519152612557816125df565b506040805160a0810182526001600160a01b03968716808252958716602082018190529487169181018290529286166060840181905291909516608090920182905260d180546001600160a01b0319908116909517905560d28054851690931790925560d38054841690941790935560d480548316909117905560d580549091169091179055565b6114ba8133612b6d565b60975460ff161561262f5760405162461bcd60e51b815260206004820152601060248201526f14185d5cd8589b194e881c185d5cd95960821b6044820152606401610883565b565b600081610100015160018151811061264b5761264b6134f6565b60200260200101519050919050565b600081610100015160008151811061264b5761264b6134f6565b8060400151156127db578060200151156126b55760405162461bcd60e51b8152602060048201526002602482015261070360f41b6044820152606401610883565b80516000906126c457836126cd565b6126cd84612246565b60cd546040516323b872dd60e01b8152336004820152306024820152604481018390529192506001600160a01b0316906323b872dd90606401600060405180830381600087803b15801561272057600080fd5b505af1158015612734573d6000803e3d6000fd5b50505050600060648260d05461274a919061360f565b6127549190613682565b60ce54604051630d3990db60e21b8152600481018390529192506001600160a01b0316906334e6436c90602401602060405180830381600087803b15801561279b57600080fd5b505af11580156127af573d6000803e3d6000fd5b505050506040513d601f19601f820116820180604052508101906127d391906134af565b505050505050565b8060600151156128125760405162461bcd60e51b8152602060048201526002602482015261703160f01b6044820152606401610883565b805160009061282957612824846114bd565b61282b565b835b60cf5460405163b1918c9560e01b81529192506000916001600160a01b039091169063b1918c95906128659033908690899060040161362e565b602060405180830381600087803b15801561287f57600080fd5b505af1158015612893573d6000803e3d6000fd5b505050506040513d601f19601f820116820180604052508101906128b791906135f2565b9050806110df5760405162461bcd60e51b81526020600482015260076024820152666e6f46756e647360c81b6044820152606401610883565b6128fa8282611ee3565b6113715760008281526065602090815260408083206001600160a01b03851684529091529020805460ff191660011790556129323390565b6001600160a01b0316816001600160a01b0316837f2f8788117e7eff1d82e926ec794901d17c78024a50270940304540a733656f0d60405160405180910390a45050565b6129808282611ee3565b156113715760008281526065602090815260408083206001600160a01b0385168085529252808320805460ff1916905551339285917ff6391f5c32d9c69d2a47ea670b442974b53935d1edc7fd64eb21e047a839171b9190a45050565b6129e5612bc6565b6097805460ff191690557f5db9ee0a495bf2e6ff9c91a7834c1ba4fdd244a5e8aa4e537bd38aeae4b073aa335b6040516001600160a01b03909116815260200160405180910390a1565b612a376125e9565b6097805460ff191660011790557f62e78cea01bee320cd4e420270b5ea74000d11b0c9f74754ebdbfc544b05a258612a123390565b600054610100900460ff1661262f57600080fd5b600054610100900460ff16612a9457600080fd5b61262f612c0f565b61137182826128f0565b60cc80546001600160a01b038089166001600160a01b03199283161790925560cd805488841690831617905560ce805487841690831617905560cf805492861692909116919091179055612af982612c2f565b60d081905560cd5460405163095ea7b360e01b81526001600160a01b03868116600483015260001960248301529091169063095ea7b390604401600060405180830381600087803b158015612b4d57600080fd5b505af1158015612b61573d6000803e3d6000fd5b50505050505050505050565b612b778282611ee3565b61137157612b8481612d1e565b612b8f836020612d30565b604051602001612ba0929190613726565b60408051601f198184030181529082905262461bcd60e51b82526108839160040161379b565b60975460ff1661262f5760405162461bcd60e51b815260206004820152601460248201527314185d5cd8589b194e881b9bdd081c185d5cd95960621b6044820152606401610883565b600054610100900460ff16612c2357600080fd5b6097805460ff19169055565b60008190506000816001600160a01b031663c1cc57b06040518163ffffffff1660e01b815260040160006040518083038186803b158015612c6f57600080fd5b505afa158015612c83573d6000803e3d6000fd5b505050506040513d6000823e601f3d908101601f19168201604052612cab91908101906137ce565b905060005b8151811015612d1557818181518110612ccb57612ccb6134f6565b602090810291909101810151600083815260cb909252604090912080546001600160a01b0319166001600160a01b0390921691909117905580612d0d816136a4565b915050612cb0565b505160ca555050565b606061070d6001600160a01b03831660145b60606000612d3f83600261360f565b612d4a9060026134de565b67ffffffffffffffff811115612d6257612d62613163565b6040519080825280601f01601f191660200182016040528015612d8c576020820181803683370190505b509050600360fc1b81600081518110612da757612da76134f6565b60200101906001600160f81b031916908160001a905350600f60fb1b81600181518110612dd657612dd66134f6565b60200101906001600160f81b031916908160001a9053506000612dfa84600261360f565b612e059060016134de565b90505b6001811115612e7d576f181899199a1a9b1b9c1cb0b131b232b360811b85600f1660108110612e3957612e396134f6565b1a60f81b828281518110612e4f57612e4f6134f6565b60200101906001600160f81b031916908160001a90535060049490941c93612e7681613868565b9050612e08565b508315612e8957600080fd5b9392505050565b600060208284031215612ea257600080fd5b81356001600160e01b031981168114612e8957600080fd5b600060208284031215612ecc57600080fd5b5035919050565b6001600160a01b03811681146114ba57600080fd5b600080600060608486031215612efd57600080fd5b8335612f0881612ed3565b92506020840135612f1881612ed3565b929592945050506040919091013590565b80151581146114ba57600080fd5b600060208284031215612f4957600080fd5b8135612e8981612f29565b60008060408385031215612f6757600080fd5b823591506020830135612f7981612ed3565b809150509250929050565b600081518084526020808501945080840160005b83811015612fb457815187529582019590820190600101612f98565b509495945050505050565b828152604060208201526000612fd86040830184612f84565b949350505050565b60008060408385031215612ff357600080fd5b8235612ffe81612ed3565b91506020830135612f7981612ed3565b6000806040838503121561302157600080fd5b50508035926020909101359150565b60008060006060848603121561304557600080fd5b505081359360208301359350604090920135919050565b60006020828403121561306e57600080fd5b8135612e8981612ed3565b60008060008060008060c0878903121561309257600080fd5b863561309d81612ed3565b955060208701356130ad81612ed3565b945060408701356130bd81612ed3565b935060608701356130cd81612ed3565b925060808701356130dd81612ed3565b8092505060a087013590509295509295509295565b600080600080600060a0868803121561310a57600080fd5b853561311581612ed3565b9450602086013561312581612ed3565b9350604086013561313581612ed3565b9250606086013561314581612ed3565b9150608086013561315581612ed3565b809150509295509295909350565b634e487b7160e01b600052604160045260246000fd5b604051610180810167ffffffffffffffff8111828210171561319d5761319d613163565b60405290565b60405160c0810167ffffffffffffffff8111828210171561319d5761319d613163565b604051601f8201601f1916810167ffffffffffffffff811182821017156131ef576131ef613163565b604052919050565b60005b838110156132125781810151838201526020016131fa565b83811115613221576000848401525b50505050565b600082601f83011261323857600080fd5b815167ffffffffffffffff81111561325257613252613163565b613265601f8201601f19166020016131c6565b81815284602083860101111561327a57600080fd5b612fd88260208301602087016131f7565b805161329681612ed3565b919050565b600067ffffffffffffffff8211156132b5576132b5613163565b5060051b60200190565b600082601f8301126132d057600080fd5b815160206132e56132e08361329b565b6131c6565b82815260059290921b8401810191818101908684111561330457600080fd5b8286015b8481101561331f5780518352918301918301613308565b509695505050505050565b805161329681612f29565b60006020828403121561334757600080fd5b815167ffffffffffffffff8082111561335f57600080fd5b90830190610180828603121561337457600080fd5b61337c613179565b8251815260208301518281111561339257600080fd5b61339e87828601613227565b6020830152506040830151828111156133b657600080fd5b6133c287828601613227565b6040830152506133d46060840161328b565b60608201526080830151608082015260a083015160a082015260c083015160c082015260e083015160e0820152610100808401518381111561341557600080fd5b613421888287016132bf565b828401525050610120808401518381111561343b57600080fd5b613447888287016132bf565b828401525050610140808401518381111561346157600080fd5b61346d888287016132bf565b828401525050610160915061348382840161332a565b91810191909152949350505050565b6000602082840312156134a457600080fd5b8151612e8981612ed3565b6000602082840312156134c157600080fd5b5051919050565b634e487b7160e01b600052601160045260246000fd5b600082198211156134f1576134f16134c8565b500190565b634e487b7160e01b600052603260045260246000fd5b8381526060602082015260006135256060830185612f84565b82810360408401526135378185612f84565b9695505050505050565b602080825260029082015261373760f01b604082015260600190565b60008082840360e081121561357157600080fd5b60c081121561357f57600080fd5b506135886131a3565b835181526020840151602082015260408401516040820152606084015160608201526080840151608082015260a084015160a08201528092505060c083015167ffffffffffffffff8111156135dc57600080fd5b6135e8858286016132bf565b9150509250929050565b60006020828403121561360457600080fd5b8151612e8981612f29565b6000816000190483118215151615613629576136296134c8565b500290565b60018060a01b03841681528260208201526060604082015260006136556060830184612f84565b95945050505050565b6001600160a01b0383168152604060208201819052600090612fd890830184612f84565b60008261369f57634e487b7160e01b600052601260045260246000fd5b500490565b60006000198214156136b8576136b86134c8565b5060010190565b6000828210156136d1576136d16134c8565b500390565b6000806000606084860312156136eb57600080fd5b8351925060208401519150604084015167ffffffffffffffff81111561371057600080fd5b61371c868287016132bf565b9150509250925092565b7f416363657373436f6e74726f6c3a206163636f756e742000000000000000000081526000835161375e8160178501602088016131f7565b7001034b99036b4b9b9b4b733903937b6329607d1b601791840191820152835161378f8160288401602088016131f7565b01602801949350505050565b60208152600082518060208401526137ba8160408501602087016131f7565b601f01601f19169190910160400192915050565b600060208083850312156137e157600080fd5b825167ffffffffffffffff8111156137f857600080fd5b8301601f8101851361380957600080fd5b80516138176132e08261329b565b81815260059190911b8201830190838101908783111561383657600080fd5b928401925b8284101561385d57835161384e81612ed3565b8252928401929084019061383b565b979650505050505050565b600081613877576138776134c8565b50600019019056fe73e573f9566d61418a34d5de3ff49360f9c51fec37f7486551670290f6285dab97667070c54ef182b0f5858b034beac1b6f3089aa2d3188bb1e8929f4fa9b929a2646970667358221220fa1a176ca0bf289a8421a23cf18136897e9425a957cc9f618bb0f2c1762e084e64736f6c63430008090033",
  "linkReferences": {},
  "deployedLinkReferences": {}
}