{
  "_format": "hh-sol-artifact-1",
  "contractName": "RResult",
  "sourceName": "contracts/features/RResult/RResult.sol",
  "abi": [
    {
      "inputs": [
        {
          "internalType": "address",
          "name": "corea",
          "type": "address"
        },
        {
          "internalType": "address",
          "name": "coreb",
          "type": "address"
        },
        {
          "internalType": "address",
          "name": "core",
          "type": "address"
        },
        {
          "internalType": "address",
          "name": "corec",
          "type": "address"
        },
        {
          "internalType": "address",
          "name": "cored",
          "type": "address"
        }
      ],
      "stateMutability": "nonpayable",
      "type": "constructor"
    },
    {
      "inputs": [
        {
          "internalType": "address",
          "name": "to",
          "type": "address"
        },
        {
          "internalType": "uint256",
          "name": "min",
          "type": "uint256"
        },
        {
          "internalType": "uint256",
          "name": "max",
          "type": "uint256"
        },
        {
          "internalType": "uint256",
          "name": "seedA",
          "type": "uint256"
        },
        {
          "internalType": "uint256",
          "name": "seedB",
          "type": "uint256"
        }
      ],
      "name": "get",
      "outputs": [
        {
          "internalType": "uint256",
          "name": "",
          "type": "uint256"
        }
      ],
      "stateMutability": "view",
      "type": "function"
    },
    {
      "inputs": [
        {
          "internalType": "address",
          "name": "to",
          "type": "address"
        },
        {
          "internalType": "uint256",
          "name": "min",
          "type": "uint256"
        },
        {
          "internalType": "uint256",
          "name": "max",
          "type": "uint256"
        },
        {
          "internalType": "uint256",
          "name": "seedA",
          "type": "uint256"
        },
        {
          "internalType": "uint256",
          "name": "seedB",
          "type": "uint256"
        }
      ],
      "name": "geta",
      "outputs": [
        {
          "internalType": "uint256",
          "name": "",
          "type": "uint256"
        }
      ],
      "stateMutability": "view",
      "type": "function"
    },
    {
      "inputs": [
        {
          "internalType": "address",
          "name": "to",
          "type": "address"
        },
        {
          "internalType": "uint256",
          "name": "min",
          "type": "uint256"
        },
        {
          "internalType": "uint256",
          "name": "max",
          "type": "uint256"
        },
        {
          "internalType": "uint256",
          "name": "seedA",
          "type": "uint256"
        },
        {
          "internalType": "uint256",
          "name": "seedB",
          "type": "uint256"
        }
      ],
      "name": "getb",
      "outputs": [
        {
          "internalType": "uint256",
          "name": "",
          "type": "uint256"
        }
      ],
      "stateMutability": "view",
      "type": "function"
    },
    {
      "inputs": [
        {
          "internalType": "address",
          "name": "to",
          "type": "address"
        },
        {
          "internalType": "uint256",
          "name": "min",
          "type": "uint256"
        },
        {
          "internalType": "uint256",
          "name": "max",
          "type": "uint256"
        },
        {
          "internalType": "uint256",
          "name": "seedA",
          "type": "uint256"
        },
        {
          "internalType": "uint256",
          "name": "seedB",
          "type": "uint256"
        }
      ],
      "name": "getc",
      "outputs": [
        {
          "internalType": "uint256",
          "name": "",
          "type": "uint256"
        }
      ],
      "stateMutability": "view",
      "type": "function"
    },
    {
      "inputs": [
        {
          "internalType": "address",
          "name": "to",
          "type": "address"
        },
        {
          "internalType": "uint256",
          "name": "min",
          "type": "uint256"
        },
        {
          "internalType": "uint256",
          "name": "max",
          "type": "uint256"
        },
        {
          "internalType": "uint256",
          "name": "seedA",
          "type": "uint256"
        },
        {
          "internalType": "uint256",
          "name": "seedB",
          "type": "uint256"
        }
      ],
      "name": "getd",
      "outputs": [
        {
          "internalType": "uint256",
          "name": "",
          "type": "uint256"
        }
      ],
      "stateMutability": "view",
      "type": "function"
    },
    {
      "inputs": [
        {
          "internalType": "address",
          "name": "to",
          "type": "address"
        },
        {
          "internalType": "uint256",
          "name": "min",
          "type": "uint256"
        },
        {
          "internalType": "uint256",
          "name": "max",
          "type": "uint256"
        },
        {
          "internalType": "uint256",
          "name": "seedA",
          "type": "uint256"
        },
        {
          "internalType": "uint256",
          "name": "seedB",
          "type": "uint256"
        }
      ],
      "name": "gete",
      "outputs": [
        {
          "internalType": "uint256",
          "name": "",
          "type": "uint256"
        }
      ],
      "stateMutability": "view",
      "type": "function"
    },
    {
      "inputs": [
        {
          "internalType": "address",
          "name": "to",
          "type": "address"
        },
        {
          "internalType": "uint256",
          "name": "min",
          "type": "uint256"
        },
        {
          "internalType": "uint256",
          "name": "max",
          "type": "uint256"
        },
        {
          "internalType": "uint256",
          "name": "seedA",
          "type": "uint256"
        },
        {
          "internalType": "uint256",
          "name": "seedB",
          "type": "uint256"
        }
      ],
      "name": "getf",
      "outputs": [
        {
          "internalType": "uint256",
          "name": "",
          "type": "uint256"
        }
      ],
      "stateMutability": "view",
      "type": "function"
    },
    {
      "inputs": [
        {
          "internalType": "address",
          "name": "to",
          "type": "address"
        },
        {
          "internalType": "uint256",
          "name": "min",
          "type": "uint256"
        },
        {
          "internalType": "uint256",
          "name": "max",
          "type": "uint256"
        },
        {
          "internalType": "uint256",
          "name": "seedA",
          "type": "uint256"
        },
        {
          "internalType": "uint256",
          "name": "seedB",
          "type": "uint256"
        }
      ],
      "name": "getg",
      "outputs": [
        {
          "internalType": "uint256",
          "name": "",
          "type": "uint256"
        }
      ],
      "stateMutability": "view",
      "type": "function"
    },
    {
      "inputs": [
        {
          "internalType": "address",
          "name": "to",
          "type": "address"
        },
        {
          "internalType": "uint256",
          "name": "min",
          "type": "uint256"
        },
        {
          "internalType": "uint256",
          "name": "max",
          "type": "uint256"
        },
        {
          "internalType": "uint256",
          "name": "seedA",
          "type": "uint256"
        },
        {
          "internalType": "uint256",
          "name": "seedB",
          "type": "uint256"
        }
      ],
      "name": "geth",
      "outputs": [
        {
          "internalType": "uint256",
          "name": "",
          "type": "uint256"
        }
      ],
      "stateMutability": "view",
      "type": "function"
    },
    {
      "inputs": [
        {
          "internalType": "address",
          "name": "to",
          "type": "address"
        },
        {
          "internalType": "uint256",
          "name": "min",
          "type": "uint256"
        },
        {
          "internalType": "uint256",
          "name": "max",
          "type": "uint256"
        },
        {
          "internalType": "uint256",
          "name": "seedA",
          "type": "uint256"
        },
        {
          "internalType": "uint256",
          "name": "seedB",
          "type": "uint256"
        }
      ],
      "name": "geti",
      "outputs": [
        {
          "internalType": "uint256",
          "name": "",
          "type": "uint256"
        }
      ],
      "stateMutability": "view",
      "type": "function"
    },
    {
      "inputs": [
        {
          "internalType": "address",
          "name": "to",
          "type": "address"
        },
        {
          "internalType": "uint256",
          "name": "min",
          "type": "uint256"
        },
        {
          "internalType": "uint256",
          "name": "max",
          "type": "uint256"
        },
        {
          "internalType": "uint256",
          "name": "seedA",
          "type": "uint256"
        },
        {
          "internalType": "uint256",
          "name": "seedB",
          "type": "uint256"
        }
      ],
      "name": "getj",
      "outputs": [
        {
          "internalType": "uint256",
          "name": "",
          "type": "uint256"
        }
      ],
      "stateMutability": "view",
      "type": "function"
    },
    {
      "inputs": [
        {
          "internalType": "address",
          "name": "to",
          "type": "address"
        },
        {
          "internalType": "uint256",
          "name": "min",
          "type": "uint256"
        },
        {
          "internalType": "uint256",
          "name": "max",
          "type": "uint256"
        },
        {
          "internalType": "uint256",
          "name": "seedA",
          "type": "uint256"
        },
        {
          "internalType": "uint256",
          "name": "seedB",
          "type": "uint256"
        }
      ],
      "name": "getk",
      "outputs": [
        {
          "internalType": "uint256",
          "name": "",
          "type": "uint256"
        }
      ],
      "stateMutability": "view",
      "type": "function"
    },
    {
      "inputs": [
        {
          "internalType": "address",
          "name": "to",
          "type": "address"
        },
        {
          "internalType": "uint256",
          "name": "min",
          "type": "uint256"
        },
        {
          "internalType": "uint256",
          "name": "max",
          "type": "uint256"
        },
        {
          "internalType": "uint256",
          "name": "seedA",
          "type": "uint256"
        },
        {
          "internalType": "uint256",
          "name": "seedB",
          "type": "uint256"
        }
      ],
      "name": "getl",
      "outputs": [
        {
          "internalType": "uint256",
          "name": "",
          "type": "uint256"
        }
      ],
      "stateMutability": "view",
      "type": "function"
    },
    {
      "inputs": [
        {
          "internalType": "address",
          "name": "to",
          "type": "address"
        },
        {
          "internalType": "uint256",
          "name": "min",
          "type": "uint256"
        },
        {
          "internalType": "uint256",
          "name": "max",
          "type": "uint256"
        },
        {
          "internalType": "uint256",
          "name": "seedA",
          "type": "uint256"
        },
        {
          "internalType": "uint256",
          "name": "seedB",
          "type": "uint256"
        }
      ],
      "name": "getm",
      "outputs": [
        {
          "internalType": "uint256",
          "name": "",
          "type": "uint256"
        }
      ],
      "stateMutability": "view",
      "type": "function"
    },
    {
      "inputs": [
        {
          "internalType": "address",
          "name": "to",
          "type": "address"
        },
        {
          "internalType": "uint256",
          "name": "min",
          "type": "uint256"
        },
        {
          "internalType": "uint256",
          "name": "max",
          "type": "uint256"
        },
        {
          "internalType": "uint256",
          "name": "seedA",
          "type": "uint256"
        },
        {
          "internalType": "uint256",
          "name": "seedB",
          "type": "uint256"
        }
      ],
      "name": "getn",
      "outputs": [
        {
          "internalType": "uint256",
          "name": "",
          "type": "uint256"
        }
      ],
      "stateMutability": "view",
      "type": "function"
    },
    {
      "inputs": [
        {
          "internalType": "address",
          "name": "to",
          "type": "address"
        },
        {
          "internalType": "uint256",
          "name": "min",
          "type": "uint256"
        },
        {
          "internalType": "uint256",
          "name": "max",
          "type": "uint256"
        },
        {
          "internalType": "uint256",
          "name": "seedA",
          "type": "uint256"
        },
        {
          "internalType": "uint256",
          "name": "seedB",
          "type": "uint256"
        }
      ],
      "name": "geto",
      "outputs": [
        {
          "internalType": "uint256",
          "name": "",
          "type": "uint256"
        }
      ],
      "stateMutability": "view",
      "type": "function"
    },
    {
      "inputs": [
        {
          "internalType": "address",
          "name": "to",
          "type": "address"
        },
        {
          "internalType": "uint256",
          "name": "min",
          "type": "uint256"
        },
        {
          "internalType": "uint256",
          "name": "max",
          "type": "uint256"
        },
        {
          "internalType": "uint256",
          "name": "seedA",
          "type": "uint256"
        },
        {
          "internalType": "uint256",
          "name": "seedB",
          "type": "uint256"
        }
      ],
      "name": "getp",
      "outputs": [
        {
          "internalType": "uint256",
          "name": "",
          "type": "uint256"
        }
      ],
      "stateMutability": "view",
      "type": "function"
    },
    {
      "inputs": [
        {
          "internalType": "address",
          "name": "to",
          "type": "address"
        },
        {
          "internalType": "uint256",
          "name": "min",
          "type": "uint256"
        },
        {
          "internalType": "uint256",
          "name": "max",
          "type": "uint256"
        },
        {
          "internalType": "uint256",
          "name": "seedA",
          "type": "uint256"
        },
        {
          "internalType": "uint256",
          "name": "seedB",
          "type": "uint256"
        }
      ],
      "name": "getq",
      "outputs": [
        {
          "internalType": "uint256",
          "name": "",
          "type": "uint256"
        }
      ],
      "stateMutability": "view",
      "type": "function"
    },
    {
      "inputs": [
        {
          "internalType": "address",
          "name": "address_",
          "type": "address"
        },
        {
          "internalType": "bool",
          "name": "value",
          "type": "bool"
        }
      ],
      "name": "setInWhitelist",
      "outputs": [],
      "stateMutability": "nonpayable",
      "type": "function"
    }
  ],
  "bytecode": "0x6080604052600080546001600160a01b0319908116735cb2c3ed882e37da610f9ef5b0fa25514d7bc85b1790915560018054821673e9e7cea3dedca5984780bafc599bd69add087d56179055600280548216730536ec03b1a9121cd84807e6593f7a71ae4971c5179055600380548216732b90e061a517db2bbd7e39ef7f733fd234b494ca17905560048054909116738ac76a51cc950d9822d68b83fe1ad97b32cd580d1790553480156100b257600080fd5b50604051610ce5380380610ce58339810160408190526100d19161015b565b600080546001600160a01b03199081166001600160a01b039788161790915560018054821695871695909517909455600280548516938616939093179092556003805484169185169190911790556004805483169190931617909155600580543392169190911790556101c0565b80516001600160a01b038116811461015657600080fd5b919050565b600080600080600060a0868803121561017357600080fd5b61017c8661013f565b945061018a6020870161013f565b93506101986040870161013f565b92506101a66060870161013f565b91506101b46080870161013f565b90509295509295909350565b610b16806101cf6000396000f3fe608060405234801561001057600080fd5b50600436106101215760003560e01c8063812dfe03116100ad578063c240b93c11610071578063c240b93c14610231578063d19435ff146101bf578063d266d0ed14610244578063d35d477514610257578063e72319941461026a57600080fd5b8063812dfe03146101d257806384ded37d146101e5578063a28aef11146101f8578063a56491c71461020b578063aa9fa99a1461021e57600080fd5b80633f5cf924116100f45780633f5cf9241461015e5780635a56faf1146101865780635aac0bc9146101995780635c6c41ed146101ac5780635fe7e07c146101bf57600080fd5b80630136828a1461012657806312b2d2d11461014b5780632ba7435b1461015e5780632d6f1e1c14610171575b600080fd5b61013961013436600461098b565b61027d565b60405190815260200160405180910390f35b61013961015936600461098b565b6102fd565b61013961016c36600461098b565b6103b4565b61018461017f3660046109cd565b61041a565b005b61013961019436600461098b565b61049f565b6101396101a736600461098b565b610506565b6101396101ba36600461098b565b610550565b6101396101cd36600461098b565b6105b7565b6101396101e036600461098b565b61061e565b6101396101f336600461098b565b610668565b61013961020636600461098b565b6106b2565b61013961021936600461098b565b610723565b61013961022c36600461098b565b61078a565b61013961023f36600461098b565b6107f0565b61013961025236600461098b565b610857565b61013961026536600461098b565b6108be565b61013961027836600461098b565b610925565b3360009081526006602052604081205460ff166102b55760405162461bcd60e51b81526004016102ac90610a09565b60405180910390fd5b606486838588886040516020016102d0959493929190610a40565b6040516020818303038152906040528051906020012060001c6102f39190610a77565b9695505050505050565b3360009081526006602052604081205460ff1661032c5760405162461bcd60e51b81526004016102ac90610a09565b60015460405163d19435ff60e01b81526001600160a01b039091169063d19435ff906103649089908990899089908990600401610a99565b60206040518083038186803b15801561037c57600080fd5b505afa158015610390573d6000803e3d6000fd5b505050506040513d601f19601f820116820180604052508101906102f39190610ac7565b3360009081526006602052604081205460ff166103e35760405162461bcd60e51b81526004016102ac90610a09565b6004805460405163d19435ff60e01b81526001600160a01b039091169163d19435ff91610364918a918a9188918a918c9101610a99565b6005546001600160a01b031633146104745760405162461bcd60e51b815260206004820152601760248201527f63616c6c6572206973206e6f7420746865206f776e657200000000000000000060448201526064016102ac565b6001600160a01b03919091166000908152600660205260409020805460ff1916911515919091179055565b3360009081526006602052604081205460ff166104ce5760405162461bcd60e51b81526004016102ac90610a09565b60015460405163d19435ff60e01b81526001600160a01b039091169063d19435ff9061036490899086908a9089908b90600401610a99565b3360009081526006602052604081205460ff166105355760405162461bcd60e51b81526004016102ac90610a09565b606486848488886040516020016102d0959493929190610a40565b3360009081526006602052604081205460ff1661057f5760405162461bcd60e51b81526004016102ac90610a09565b60005460405163d19435ff60e01b81526001600160a01b039091169063d19435ff9061036490899086908a9089908b90600401610a99565b3360009081526006602052604081205460ff166105e65760405162461bcd60e51b81526004016102ac90610a09565b60025460405163d19435ff60e01b81526001600160a01b039091169063d19435ff906103649089908990899089908990600401610a99565b3360009081526006602052604081205460ff1661064d5760405162461bcd60e51b81526004016102ac90610a09565b606486838688876040516020016102d0959493929190610a40565b3360009081526006602052604081205460ff166106975760405162461bcd60e51b81526004016102ac90610a09565b606486838587896040516020016102d0959493929190610a40565b3360009081526006602052604081205460ff166106e15760405162461bcd60e51b81526004016102ac90610a09565b6040805160208101859052908101839052606087811b6bffffffffffffffffffffffff191690820152607481018690526094810185905260649060b4016102d0565b3360009081526006602052604081205460ff166107525760405162461bcd60e51b81526004016102ac90610a09565b60015460405163d19435ff60e01b81526001600160a01b039091169063d19435ff9061036490899088908a9088908a90600401610a99565b3360009081526006602052604081205460ff166107b95760405162461bcd60e51b81526004016102ac90610a09565b6004805460405163d19435ff60e01b81526001600160a01b039091169163d19435ff91610364918a918a918a918a918a9101610a99565b3360009081526006602052604081205460ff1661081f5760405162461bcd60e51b81526004016102ac90610a09565b60005460405163d19435ff60e01b81526001600160a01b039091169063d19435ff9061036490899088908a9089908990600401610a99565b3360009081526006602052604081205460ff166108865760405162461bcd60e51b81526004016102ac90610a09565b60005460405163d19435ff60e01b81526001600160a01b039091169063d19435ff906103649089908990899089908990600401610a99565b3360009081526006602052604081205460ff166108ed5760405162461bcd60e51b81526004016102ac90610a09565b60035460405163d19435ff60e01b81526001600160a01b039091169063d19435ff906103649089908990899089908990600401610a99565b3360009081526006602052604081205460ff166109545760405162461bcd60e51b81526004016102ac90610a09565b606486868686866040516020016102d0959493929190610a40565b80356001600160a01b038116811461098657600080fd5b919050565b600080600080600060a086880312156109a357600080fd5b6109ac8661096f565b97602087013597506040870135966060810135965060800135945092505050565b600080604083850312156109e057600080fd5b6109e98361096f565b9150602083013580151581146109fe57600080fd5b809150509250929050565b60208082526019908201527f63616c6c6572206973206e6f742077686974656c697374656400000000000000604082015260600190565b60609590951b6bffffffffffffffffffffffff19168552601485019390935260348401919091526054830152607482015260940190565b600082610a9457634e487b7160e01b600052601260045260246000fd5b500690565b6001600160a01b03959095168552602085019390935260408401919091526060830152608082015260a00190565b600060208284031215610ad957600080fd5b505191905056fea2646970667358221220b7dca27248964727315c40dba22ae6ad06623577ea782a966f47fc4f1674a20d64736f6c63430008090033",
  "linkReferences": {},
  "deployedLinkReferences": {}
}