{
  "_format": "hh-sol-artifact-1",
  "contractName": "BkMigrator",
  "sourceName": "contracts/features/BkMigrator.sol",
  "abi": [
    {
      "anonymous": false,
      "inputs": [
        {
          "indexed": false,
          "internalType": "address",
          "name": "account",
          "type": "address"
        },
        {
          "indexed": false,
          "internalType": "uint256",
          "name": "amount",
          "type": "uint256"
        }
      ],
      "name": "BctMigrated",
      "type": "event"
    },
    {
      "anonymous": false,
      "inputs": [
        {
          "indexed": false,
          "internalType": "uint256[]",
          "name": "nftIds",
          "type": "uint256[]"
        }
      ],
      "name": "BeastsMigrated",
      "type": "event"
    },
    {
      "anonymous": false,
      "inputs": [
        {
          "indexed": false,
          "internalType": "address",
          "name": "account",
          "type": "address"
        },
        {
          "indexed": false,
          "internalType": "uint256",
          "name": "metamaskBct",
          "type": "uint256"
        },
        {
          "indexed": false,
          "internalType": "uint256",
          "name": "ingameBct",
          "type": "uint256"
        },
        {
          "indexed": false,
          "internalType": "uint256",
          "name": "eBct",
          "type": "uint256"
        },
        {
          "indexed": false,
          "internalType": "uint256[]",
          "name": "resources",
          "type": "uint256[]"
        }
      ],
      "name": "BnbChainSnapshot",
      "type": "event"
    },
    {
      "anonymous": false,
      "inputs": [
        {
          "indexed": false,
          "internalType": "address",
          "name": "account",
          "type": "address"
        },
        {
          "indexed": false,
          "internalType": "uint256",
          "name": "collectionId",
          "type": "uint256"
        },
        {
          "indexed": false,
          "internalType": "uint256[]",
          "name": "nftIds",
          "type": "uint256[]"
        }
      ],
      "name": "CollectionMigrated",
      "type": "event"
    },
    {
      "anonymous": false,
      "inputs": [
        {
          "indexed": false,
          "internalType": "address",
          "name": "account",
          "type": "address"
        },
        {
          "indexed": false,
          "internalType": "uint256",
          "name": "amount",
          "type": "uint256"
        }
      ],
      "name": "CraftingPowderMigrated",
      "type": "event"
    },
    {
      "anonymous": false,
      "inputs": [
        {
          "indexed": false,
          "internalType": "uint8",
          "name": "version",
          "type": "uint8"
        }
      ],
      "name": "Initialized",
      "type": "event"
    },
    {
      "anonymous": false,
      "inputs": [
        {
          "indexed": false,
          "internalType": "address",
          "name": "account",
          "type": "address"
        }
      ],
      "name": "Paused",
      "type": "event"
    },
    {
      "anonymous": false,
      "inputs": [
        {
          "indexed": false,
          "internalType": "address",
          "name": "account",
          "type": "address"
        },
        {
          "indexed": false,
          "internalType": "uint256[]",
          "name": "perks",
          "type": "uint256[]"
        },
        {
          "indexed": false,
          "internalType": "uint256[]",
          "name": "masteries",
          "type": "uint256[]"
        }
      ],
      "name": "PlayerBonusMigrated",
      "type": "event"
    },
    {
      "anonymous": false,
      "inputs": [
        {
          "indexed": false,
          "internalType": "address",
          "name": "account",
          "type": "address"
        },
        {
          "indexed": false,
          "internalType": "uint256",
          "name": "eBct",
          "type": "uint256"
        },
        {
          "indexed": false,
          "internalType": "uint256[]",
          "name": "resources",
          "type": "uint256[]"
        }
      ],
      "name": "ResourcesMigrated",
      "type": "event"
    },
    {
      "anonymous": false,
      "inputs": [
        {
          "indexed": true,
          "internalType": "bytes32",
          "name": "role",
          "type": "bytes32"
        },
        {
          "indexed": true,
          "internalType": "bytes32",
          "name": "previousAdminRole",
          "type": "bytes32"
        },
        {
          "indexed": true,
          "internalType": "bytes32",
          "name": "newAdminRole",
          "type": "bytes32"
        }
      ],
      "name": "RoleAdminChanged",
      "type": "event"
    },
    {
      "anonymous": false,
      "inputs": [
        {
          "indexed": true,
          "internalType": "bytes32",
          "name": "role",
          "type": "bytes32"
        },
        {
          "indexed": true,
          "internalType": "address",
          "name": "account",
          "type": "address"
        },
        {
          "indexed": true,
          "internalType": "address",
          "name": "sender",
          "type": "address"
        }
      ],
      "name": "RoleGranted",
      "type": "event"
    },
    {
      "anonymous": false,
      "inputs": [
        {
          "indexed": true,
          "internalType": "bytes32",
          "name": "role",
          "type": "bytes32"
        },
        {
          "indexed": true,
          "internalType": "address",
          "name": "account",
          "type": "address"
        },
        {
          "indexed": true,
          "internalType": "address",
          "name": "sender",
          "type": "address"
        }
      ],
      "name": "RoleRevoked",
      "type": "event"
    },
    {
      "anonymous": false,
      "inputs": [
        {
          "indexed": false,
          "internalType": "address",
          "name": "account",
          "type": "address"
        },
        {
          "indexed": false,
          "internalType": "uint256",
          "name": "amount",
          "type": "uint256"
        }
      ],
      "name": "StashMigrated",
      "type": "event"
    },
    {
      "anonymous": false,
      "inputs": [
        {
          "indexed": false,
          "internalType": "address",
          "name": "account",
          "type": "address"
        }
      ],
      "name": "Unpaused",
      "type": "event"
    },
    {
      "inputs": [],
      "name": "DEFAULT_ADMIN_ROLE",
      "outputs": [
        {
          "internalType": "bytes32",
          "name": "",
          "type": "bytes32"
        }
      ],
      "stateMutability": "view",
      "type": "function"
    },
    {
      "inputs": [
        {
          "internalType": "address",
          "name": "_operator",
          "type": "address"
        },
        {
          "internalType": "address",
          "name": "_blocklistAddress",
          "type": "address"
        }
      ],
      "name": "__Administrable_init",
      "outputs": [],
      "stateMutability": "nonpayable",
      "type": "function"
    },
    {
      "inputs": [],
      "name": "bct",
      "outputs": [
        {
          "internalType": "contract IBkERC20",
          "name": "",
          "type": "address"
        }
      ],
      "stateMutability": "view",
      "type": "function"
    },
    {
      "inputs": [],
      "name": "dnaManager",
      "outputs": [
        {
          "internalType": "contract IBkDnaManager",
          "name": "",
          "type": "address"
        }
      ],
      "stateMutability": "view",
      "type": "function"
    },
    {
      "inputs": [],
      "name": "farm",
      "outputs": [
        {
          "internalType": "contract IBkFarm",
          "name": "",
          "type": "address"
        }
      ],
      "stateMutability": "view",
      "type": "function"
    },
    {
      "inputs": [],
      "name": "fetch",
      "outputs": [
        {
          "internalType": "contract IBkFetch",
          "name": "",
          "type": "address"
        }
      ],
      "stateMutability": "view",
      "type": "function"
    },
    {
      "inputs": [],
      "name": "forge",
      "outputs": [
        {
          "internalType": "contract IBkForge",
          "name": "",
          "type": "address"
        }
      ],
      "stateMutability": "view",
      "type": "function"
    },
    {
      "inputs": [
        {
          "internalType": "bytes32",
          "name": "role",
          "type": "bytes32"
        }
      ],
      "name": "getRoleAdmin",
      "outputs": [
        {
          "internalType": "bytes32",
          "name": "",
          "type": "bytes32"
        }
      ],
      "stateMutability": "view",
      "type": "function"
    },
    {
      "inputs": [
        {
          "internalType": "bytes32",
          "name": "role",
          "type": "bytes32"
        },
        {
          "internalType": "address",
          "name": "account",
          "type": "address"
        }
      ],
      "name": "grantRole",
      "outputs": [],
      "stateMutability": "nonpayable",
      "type": "function"
    },
    {
      "inputs": [],
      "name": "hasBlocklist",
      "outputs": [
        {
          "internalType": "bool",
          "name": "",
          "type": "bool"
        }
      ],
      "stateMutability": "view",
      "type": "function"
    },
    {
      "inputs": [
        {
          "internalType": "bytes32",
          "name": "role",
          "type": "bytes32"
        },
        {
          "internalType": "address",
          "name": "account",
          "type": "address"
        }
      ],
      "name": "hasRole",
      "outputs": [
        {
          "internalType": "bool",
          "name": "",
          "type": "bool"
        }
      ],
      "stateMutability": "view",
      "type": "function"
    },
    {
      "inputs": [
        {
          "internalType": "address",
          "name": "_operator",
          "type": "address"
        },
        {
          "internalType": "address",
          "name": "_blocklist",
          "type": "address"
        }
      ],
      "name": "initialize",
      "outputs": [],
      "stateMutability": "nonpayable",
      "type": "function"
    },
    {
      "inputs": [
        {
          "internalType": "address",
          "name": "account",
          "type": "address"
        },
        {
          "components": [
            {
              "internalType": "uint256",
              "name": "bct",
              "type": "uint256"
            },
            {
              "internalType": "uint256",
              "name": "eBct",
              "type": "uint256"
            },
            {
              "internalType": "uint256[]",
              "name": "resources",
              "type": "uint256[]"
            }
          ],
          "internalType": "struct IBkFetch.InGameBalances",
          "name": "inGameBalances",
          "type": "tuple"
        },
        {
          "components": [
            {
              "internalType": "uint256",
              "name": "bct",
              "type": "uint256"
            },
            {
              "internalType": "uint256",
              "name": "stabletoken",
              "type": "uint256"
            }
          ],
          "internalType": "struct IBkFetch.MetamaskBalances",
          "name": "metamaskBalances",
          "type": "tuple"
        }
      ],
      "name": "migrateBctAndResources",
      "outputs": [],
      "stateMutability": "nonpayable",
      "type": "function"
    },
    {
      "inputs": [
        {
          "components": [
            {
              "internalType": "uint256",
              "name": "id",
              "type": "uint256"
            },
            {
              "internalType": "string",
              "name": "name",
              "type": "string"
            },
            {
              "internalType": "address",
              "name": "creator",
              "type": "address"
            },
            {
              "internalType": "uint256[]",
              "name": "nftIds",
              "type": "uint256[]"
            }
          ],
          "internalType": "struct IBkDnaManager.Collection[]",
          "name": "_collections",
          "type": "tuple[]"
        }
      ],
      "name": "migrateCollections",
      "outputs": [],
      "stateMutability": "nonpayable",
      "type": "function"
    },
    {
      "inputs": [
        {
          "internalType": "address",
          "name": "account",
          "type": "address"
        },
        {
          "internalType": "uint256",
          "name": "amount",
          "type": "uint256"
        }
      ],
      "name": "migrateCraftingPowder",
      "outputs": [],
      "stateMutability": "nonpayable",
      "type": "function"
    },
    {
      "inputs": [
        {
          "components": [
            {
              "internalType": "uint256",
              "name": "id",
              "type": "uint256"
            },
            {
              "internalType": "string",
              "name": "name",
              "type": "string"
            },
            {
              "internalType": "string",
              "name": "imageUrl",
              "type": "string"
            },
            {
              "internalType": "address",
              "name": "currentOwner",
              "type": "address"
            },
            {
              "internalType": "uint256",
              "name": "squadId",
              "type": "uint256"
            },
            {
              "internalType": "uint256",
              "name": "collection",
              "type": "uint256"
            },
            {
              "internalType": "uint256",
              "name": "baseFarm",
              "type": "uint256"
            },
            {
              "internalType": "uint256",
              "name": "farmPerBlock",
              "type": "uint256"
            },
            {
              "internalType": "uint256[]",
              "name": "attributes",
              "type": "uint256[]"
            },
            {
              "internalType": "uint256[]",
              "name": "traits",
              "type": "uint256[]"
            },
            {
              "internalType": "uint256[]",
              "name": "skills",
              "type": "uint256[]"
            },
            {
              "internalType": "bool",
              "name": "isDead",
              "type": "bool"
            }
          ],
          "internalType": "struct IBkChar.BkChar[]",
          "name": "beasts",
          "type": "tuple[]"
        }
      ],
      "name": "migrateNfts",
      "outputs": [],
      "stateMutability": "nonpayable",
      "type": "function"
    },
    {
      "inputs": [
        {
          "internalType": "address",
          "name": "account",
          "type": "address"
        },
        {
          "internalType": "uint256[]",
          "name": "perks",
          "type": "uint256[]"
        },
        {
          "internalType": "uint256[]",
          "name": "masteries",
          "type": "uint256[]"
        }
      ],
      "name": "migratePlayerBonus",
      "outputs": [],
      "stateMutability": "nonpayable",
      "type": "function"
    },
    {
      "inputs": [
        {
          "internalType": "address",
          "name": "account",
          "type": "address"
        },
        {
          "internalType": "uint256[]",
          "name": "squadSlots",
          "type": "uint256[]"
        },
        {
          "internalType": "uint256[]",
          "name": "squadTypes",
          "type": "uint256[]"
        },
        {
          "internalType": "uint256[]",
          "name": "squadTraits",
          "type": "uint256[]"
        }
      ],
      "name": "migrateSquads",
      "outputs": [],
      "stateMutability": "nonpayable",
      "type": "function"
    },
    {
      "inputs": [
        {
          "internalType": "address",
          "name": "account",
          "type": "address"
        },
        {
          "internalType": "uint256",
          "name": "amount",
          "type": "uint256"
        }
      ],
      "name": "migrateStash",
      "outputs": [],
      "stateMutability": "nonpayable",
      "type": "function"
    },
    {
      "inputs": [
        {
          "internalType": "address",
          "name": "",
          "type": "address"
        }
      ],
      "name": "migratedAtBlockBctAndResources",
      "outputs": [
        {
          "internalType": "uint256",
          "name": "",
          "type": "uint256"
        }
      ],
      "stateMutability": "view",
      "type": "function"
    },
    {
      "inputs": [
        {
          "internalType": "address",
          "name": "",
          "type": "address"
        }
      ],
      "name": "migratedAtBlockCraftingPowder",
      "outputs": [
        {
          "internalType": "uint256",
          "name": "",
          "type": "uint256"
        }
      ],
      "stateMutability": "view",
      "type": "function"
    },
    {
      "inputs": [
        {
          "internalType": "address",
          "name": "",
          "type": "address"
        }
      ],
      "name": "migratedAtBlockMarketplaceResources",
      "outputs": [
        {
          "internalType": "uint256",
          "name": "",
          "type": "uint256"
        }
      ],
      "stateMutability": "view",
      "type": "function"
    },
    {
      "inputs": [
        {
          "internalType": "uint256",
          "name": "",
          "type": "uint256"
        }
      ],
      "name": "migratedAtBlockNft",
      "outputs": [
        {
          "internalType": "uint256",
          "name": "",
          "type": "uint256"
        }
      ],
      "stateMutability": "view",
      "type": "function"
    },
    {
      "inputs": [
        {
          "internalType": "address",
          "name": "",
          "type": "address"
        }
      ],
      "name": "migratedAtBlockPlayer",
      "outputs": [
        {
          "internalType": "uint256",
          "name": "",
          "type": "uint256"
        }
      ],
      "stateMutability": "view",
      "type": "function"
    },
    {
      "inputs": [
        {
          "internalType": "address",
          "name": "",
          "type": "address"
        }
      ],
      "name": "migratedAtBlockStash",
      "outputs": [
        {
          "internalType": "uint256",
          "name": "",
          "type": "uint256"
        }
      ],
      "stateMutability": "view",
      "type": "function"
    },
    {
      "inputs": [
        {
          "internalType": "address",
          "name": "",
          "type": "address"
        }
      ],
      "name": "migratedAtPlayerBonus",
      "outputs": [
        {
          "internalType": "uint256",
          "name": "",
          "type": "uint256"
        }
      ],
      "stateMutability": "view",
      "type": "function"
    },
    {
      "inputs": [],
      "name": "nft",
      "outputs": [
        {
          "internalType": "contract IBkNft",
          "name": "",
          "type": "address"
        }
      ],
      "stateMutability": "view",
      "type": "function"
    },
    {
      "inputs": [],
      "name": "pause",
      "outputs": [],
      "stateMutability": "nonpayable",
      "type": "function"
    },
    {
      "inputs": [],
      "name": "paused",
      "outputs": [
        {
          "internalType": "bool",
          "name": "",
          "type": "bool"
        }
      ],
      "stateMutability": "view",
      "type": "function"
    },
    {
      "inputs": [],
      "name": "playerBonus",
      "outputs": [
        {
          "internalType": "contract IBkPlayerBonus",
          "name": "",
          "type": "address"
        }
      ],
      "stateMutability": "view",
      "type": "function"
    },
    {
      "inputs": [
        {
          "internalType": "address",
          "name": "tokenAddress",
          "type": "address"
        },
        {
          "internalType": "address",
          "name": "to",
          "type": "address"
        },
        {
          "internalType": "uint256",
          "name": "amount",
          "type": "uint256"
        }
      ],
      "name": "recoverERC20",
      "outputs": [],
      "stateMutability": "nonpayable",
      "type": "function"
    },
    {
      "inputs": [
        {
          "internalType": "bytes32",
          "name": "role",
          "type": "bytes32"
        },
        {
          "internalType": "address",
          "name": "account",
          "type": "address"
        }
      ],
      "name": "renounceRole",
      "outputs": [],
      "stateMutability": "nonpayable",
      "type": "function"
    },
    {
      "inputs": [],
      "name": "resetBlocklist",
      "outputs": [],
      "stateMutability": "nonpayable",
      "type": "function"
    },
    {
      "inputs": [
        {
          "internalType": "bytes32",
          "name": "role",
          "type": "bytes32"
        },
        {
          "internalType": "address",
          "name": "account",
          "type": "address"
        }
      ],
      "name": "revokeRole",
      "outputs": [],
      "stateMutability": "nonpayable",
      "type": "function"
    },
    {
      "inputs": [
        {
          "internalType": "address",
          "name": "blocklistAddress",
          "type": "address"
        }
      ],
      "name": "setBlocklist",
      "outputs": [],
      "stateMutability": "nonpayable",
      "type": "function"
    },
    {
      "inputs": [
        {
          "internalType": "address",
          "name": "_bct",
          "type": "address"
        },
        {
          "internalType": "address",
          "name": "_farm",
          "type": "address"
        },
        {
          "internalType": "address",
          "name": "_stasher",
          "type": "address"
        },
        {
          "internalType": "address",
          "name": "_nft",
          "type": "address"
        },
        {
          "internalType": "address",
          "name": "_fetch",
          "type": "address"
        },
        {
          "internalType": "address",
          "name": "_playerBonus",
          "type": "address"
        },
        {
          "internalType": "address",
          "name": "_forge",
          "type": "address"
        },
        {
          "internalType": "address",
          "name": "_dnaManager",
          "type": "address"
        }
      ],
      "name": "setContracts",
      "outputs": [],
      "stateMutability": "nonpayable",
      "type": "function"
    },
    {
      "inputs": [],
      "name": "stasher",
      "outputs": [
        {
          "internalType": "contract IBkStasher",
          "name": "",
          "type": "address"
        }
      ],
      "stateMutability": "view",
      "type": "function"
    },
    {
      "inputs": [
        {
          "internalType": "bytes4",
          "name": "interfaceId",
          "type": "bytes4"
        }
      ],
      "name": "supportsInterface",
      "outputs": [
        {
          "internalType": "bool",
          "name": "",
          "type": "bool"
        }
      ],
      "stateMutability": "view",
      "type": "function"
    },
    {
      "inputs": [],
      "name": "unpause",
      "outputs": [],
      "stateMutability": "nonpayable",
      "type": "function"
    }
  ],
  "bytecode": "0x608060405234801561001057600080fd5b506127fd806100206000396000f3fe608060405234801561001057600080fd5b506004361061023d5760003560e01c80636c6f42391161013b578063a217fddf116100b8578063d4f7340d1161007c578063d4f7340d14610530578063d547741f14610543578063e1e9f21514610556578063f56bbd1314610569578063f8ecb8541461058957600080fd5b8063a217fddf146104cf578063a95c372d146104d7578063aab400c5146104ea578063aef18ae71461050a578063ce4a1c7f1461051d57600080fd5b806393171659116100ff5780639317165914610463578063931da89b14610476578063939b0cde146104895780639ad8d6f7146104a95780639f57891d146104bc57600080fd5b80636c6f4239146104025780637eb8c27b14610415578063822f034e146104355780638456cb591461044857806391d148541461045057600080fd5b8063248a9ca3116101c95780633f4ba83a1161018d5780633f4ba83a146103b557806347ccca02146103bd578063485cc955146103d05780635c975abb146103e3578063634210f4146103ee57600080fd5b8063248a9ca3146103515780632f2ff15d1461037457806336568abe1461038757806336e9332d1461039a5780633c7fd822146103ad57600080fd5b80631171bda9116102105780631171bda9146102c057806313074be4146102d357806314ccecc8146102fe57806317db603214610311578063233138a51461033157600080fd5b806301ffc9a714610242578063092ee36e1461026a5780630a2636681461027f5780630e8ecaf214610292575b600080fd5b610255610250366004611a03565b61059c565b60405190151581526020015b60405180910390f35b61027d610278366004611b68565b6105d3565b005b61027d61028d366004611bdb565b6107c1565b6102b26102a0366004611c05565b60d36020526000908152604090205481565b604051908152602001610261565b61027d6102ce366004611c20565b6108db565b60cf546102e6906001600160a01b031681565b6040516001600160a01b039091168152602001610261565b61027d61030c366004611caa565b61097c565b6102b261031f366004611c05565b60d46020526000908152604090205481565b6102b261033f366004611c05565b60d66020526000908152604090205481565b6102b261035f366004611d66565b60009081526065602052604090206001015490565b61027d610382366004611d7f565b610b9c565b61027d610395366004611d7f565b610bc6565b60cb546102e6906001600160a01b031681565b61027d610be9565b61027d610c14565b60cd546102e6906001600160a01b031681565b61027d6103de366004611dab565b610c37565b60975460ff16610255565b60c95461025590600160a01b900460ff1681565b60d0546102e6906001600160a01b031681565b6102b2610423366004611c05565b60d56020526000908152604090205481565b61027d610443366004611e44565b610ce9565b61027d610e1b565b61025561045e366004611d7f565b610e3b565b60d1546102e6906001600160a01b031681565b61027d610484366004611dab565b610e66565b6102b2610497366004611c05565b60d26020526000908152604090205481565b61027d6104b7366004611f6d565b610f20565b60cc546102e6906001600160a01b031681565b6102b2600081565b60ce546102e6906001600160a01b031681565b6102b26104f8366004611c05565b60d76020526000908152604090205481565b61027d610518366004611c05565b610fc7565b60ca546102e6906001600160a01b031681565b61027d61053e366004611bdb565b611007565b61027d610551366004611d7f565b611118565b61027d61056436600461201d565b61113d565b6102b2610577366004611d66565b60d86020526000908152604090205481565b61027d6105973660046121e6565b611334565b60006001600160e01b03198216637965db0b60e01b14806105cd57506301ffc9a760e01b6001600160e01b03198316145b92915050565b6105db6115c8565b6000805160206127888339815191526105f381611610565b6001600160a01b038416600090815260d56020526040902054156106325760405162461bcd60e51b81526004016106299061227e565b60405180910390fd5b6001600160a01b038416600090815260d56020526040808220439055805160c08101909152845181908690849061066b5761066b6122a8565b602002602001015181526020018560018151811061068b5761068b6122a8565b60200260200101518152602001856002815181106106ab576106ab6122a8565b60200260200101518152602001856003815181106106cb576106cb6122a8565b60200260200101518152602001856004815181106106eb576106eb6122a8565b602002602001015181526020018560058151811061070b5761070b6122a8565b6020908102919091010151905260cf5460405163535dc5f960e01b81529192506001600160a01b03169063535dc5f99061074d908890859088906004016122f9565b600060405180830381600087803b15801561076757600080fd5b505af115801561077b573d6000803e3d6000fd5b505050507f6f2f1ae7275781acc2127ad373a0a7aa4fe472f03e231ad42bfe9bf1fdb429ea8585856040516107b29392919061235e565b60405180910390a15050505050565b6107c96115c8565b6000805160206127888339815191526107e181611610565b6001600160a01b038316600090815260d76020526040902054156108175760405162461bcd60e51b81526004016106299061227e565b6001600160a01b03838116600081815260d760205260409081902043905560d054905163f29573ff60e01b81526004810192909252602482018590529091169063f29573ff90604401600060405180830381600087803b15801561087a57600080fd5b505af115801561088e573d6000803e3d6000fd5b5050604080516001600160a01b0387168152602081018690527f4f309d49127347323f550a5c7d1047133385c53b1ca6de041550976561cd341493500190505b60405180910390a1505050565b6000805160206127a88339815191526108f381611610565b60405163a9059cbb60e01b81526001600160a01b0384811660048301526024820184905285169063a9059cbb90604401602060405180830381600087803b15801561093d57600080fd5b505af1158015610951573d6000803e3d6000fd5b505050506040513d601f19601f820116820180604052508101906109759190612394565b5050505050565b6109846115c8565b60008051602061278883398151915261099c81611610565b6001600160a01b038416600090815260d36020526040902054156109d25760405162461bcd60e51b81526004016106299061227e565b6001600160a01b038416600090815260d3602090815260409182902043905583518551918601518684015193517f14123005bef0f6b1c77d4b7ad6093a0c0947456c60c180d62c1b454532bd410894610a32948a949390929091906123b1565b60405180910390a181518351600091610a4a91612405565b60ca546040516340c10f1960e01b81526001600160a01b038881166004830152602482018490529293509116906340c10f1990604401600060405180830381600087803b158015610a9a57600080fd5b505af1158015610aae573d6000803e3d6000fd5b5050604080516001600160a01b0389168152602081018590527f1d9d3cb2562458dc0e6754396462cb51aba70e9dcb89410b1c2da2bba3b8974e935001905060405180910390a160cb54602085015160408087015190516304567ca960e11b81526001600160a01b03909316926308acf95292610b2f928a9260040161241d565b600060405180830381600087803b158015610b4957600080fd5b505af1158015610b5d573d6000803e3d6000fd5b505050507f4e270b5a247443f29f25aa9be3d41cf545080ff1fa1213a304d88240ffa2cf5985856020015186604001516040516107b29392919061241d565b600082815260656020526040902060010154610bb781611610565b610bc1838361161a565b505050565b6001600160a01b0381163314610bdb57600080fd5b610be582826116a0565b5050565b6000805160206127a8833981519152610c0181611610565b5060c980546001600160a81b0319169055565b6000805160206127a8833981519152610c2c81611610565b610c34611707565b50565b600054610100900460ff1615808015610c575750600054600160ff909116105b80610c715750303b158015610c71575060005460ff166001145b610c7a57600080fd5b6000805460ff191660011790558015610c9d576000805461ff0019166101001790555b610ca78383610e66565b8015610bc1576000805461ff0019169055604051600181527f7f26b83ff96e1f2b6a682f133852f6798a09c465da95921460cefb3847402498906020016108ce565b610cf16115c8565b600080516020612788833981519152610d0981611610565b60d15460405163a89637bb60e01b81526001600160a01b039091169063a89637bb90610d399085906004016124a9565b600060405180830381600087803b158015610d5357600080fd5b505af1158015610d67573d6000803e3d6000fd5b5050505060005b8251811015610bc1577f4d36327c48fd5188d717537cadb83ffd929d4886679cf8838bb33ede0bc6799e838281518110610daa57610daa6122a8565b602002602001015160400151848381518110610dc857610dc86122a8565b602002602001015160000151858481518110610de657610de66122a8565b602002602001015160600151604051610e019392919061241d565b60405180910390a180610e138161254f565b915050610d6e565b6000805160206127a8833981519152610e3381611610565b610c34611759565b60009182526065602090815260408084206001600160a01b0393909316845291905290205460ff1690565b600054610100900460ff1615808015610e865750600054600160ff909116105b80610ea05750303b158015610ea0575060005460ff166001145b610ea957600080fd5b6000805460ff191660011790558015610ecc576000805461ff0019166101001790555b610ed4611796565b610edc6117aa565b610ee76000846117c6565b610eff6000805160206127a8833981519152846117c6565b610f17600080516020612788833981519152846117c6565b610ca782610fc7565b6000805160206127a8833981519152610f3881611610565b5060ca80546001600160a01b03199081166001600160a01b039a8b161790915560cb80548216988a169890981790975560cc805488169689169690961790955560cd805487169488169490941790935560ce805486169287169290921790915560cf8054851691861691909117905560d08054841691851691909117905560d180549092169216919091179055565b6000805160206127a8833981519152610fdf81611610565b5060c980546001600160a81b0319166001600160a01b0390921691909117600160a01b179055565b61100f6115c8565b60008051602061278883398151915261102781611610565b6001600160a01b038316600090815260d660205260409020541561105d5760405162461bcd60e51b81526004016106299061227e565b6001600160a01b03838116600081815260d660205260409081902043905560cc54905163d4f7340d60e01b81526004810192909252602482018590529091169063d4f7340d90604401600060405180830381600087803b1580156110c057600080fd5b505af11580156110d4573d6000803e3d6000fd5b5050604080516001600160a01b0387168152602081018690527fdbaa60b6e1f5a8217c3fd71cee023e0ca8ed86bc3be95faeed7e10cc7b9467ee93500190506108ce565b60008281526065602052604090206001015461113381611610565b610bc183836116a0565b6111456115c8565b60008051602061278883398151915261115d81611610565b60005b82518110156112015760d8600084838151811061117f5761117f6122a8565b6020026020010151600001518152602001908152602001600020546000146111b95760405162461bcd60e51b81526004016106299061227e565b4360d860008584815181106111d0576111d06122a8565b60200260200101516000015181526020019081526020016000208190555080806111f99061254f565b915050611160565b5060cd546040516310531e9960e11b81526001600160a01b03909116906320a63d329061123290859060040161256a565b600060405180830381600087803b15801561124c57600080fd5b505af1158015611260573d6000803e3d6000fd5b50505050600082516001600160401b0381111561127f5761127f611a49565b6040519080825280602002602001820160405280156112a8578160200160208202803683370190505b50905060005b8351811015611304578381815181106112c9576112c96122a8565b6020026020010151600001518282815181106112e7576112e76122a8565b6020908102919091010152806112fc8161254f565b9150506112ae565b507f31c71af7eae94b68562444d2c5e97316ebb003f64f71dad4cc2dcd9f1acafb7e816040516108ce919061269d565b61133c6115c8565b60008051602061278883398151915261135481611610565b6001600160a01b038516600090815260d260205260409020541561138a5760405162461bcd60e51b81526004016106299061227e565b6001600160a01b03858116600081815260d2602052604080822043905560cb549051634b03955160e11b815260048101939093526024830191909152909116906396072aa290604401600060405180830381600087803b1580156113ed57600080fd5b505af1158015611401573d6000803e3d6000fd5b5050505060005b84518110156115c05760cb5484516001600160a01b039091169063a06bd67990889087908590811061143c5761143c6122a8565b6020026020010151888581518110611456576114566122a8565b60209081029190910101516040516001600160e01b031960e086901b1681526001600160a01b03909316600484015260248301919091526044820152606401602060405180830381600087803b1580156114af57600080fd5b505af11580156114c3573d6000803e3d6000fd5b505050506040513d601f19601f820116820180604052508101906114e791906126b0565b5060008382815181106114fc576114fc6122a8565b602002602001015111156115ae5760cb5485516001600160a01b03909116906314472f0590879084908110611533576115336122a8565b602002602001015185848151811061154d5761154d6122a8565b60200260200101516040518363ffffffff1660e01b815260040161157b929190918252602082015260400190565b600060405180830381600087803b15801561159557600080fd5b505af11580156115a9573d6000803e3d6000fd5b505050505b806115b88161254f565b915050611408565b505050505050565b60975460ff161561160e5760405162461bcd60e51b815260206004820152601060248201526f14185d5cd8589b194e881c185d5cd95960821b6044820152606401610629565b565b610c3481336117d0565b6116248282610e3b565b610be55760008281526065602090815260408083206001600160a01b03851684529091529020805460ff1916600117905561165c3390565b6001600160a01b0316816001600160a01b0316837f2f8788117e7eff1d82e926ec794901d17c78024a50270940304540a733656f0d60405160405180910390a45050565b6116aa8282610e3b565b15610be55760008281526065602090815260408083206001600160a01b0385168085529252808320805460ff1916905551339285917ff6391f5c32d9c69d2a47ea670b442974b53935d1edc7fd64eb21e047a839171b9190a45050565b61170f611829565b6097805460ff191690557f5db9ee0a495bf2e6ff9c91a7834c1ba4fdd244a5e8aa4e537bd38aeae4b073aa335b6040516001600160a01b03909116815260200160405180910390a1565b6117616115c8565b6097805460ff191660011790557f62e78cea01bee320cd4e420270b5ea74000d11b0c9f74754ebdbfc544b05a25861173c3390565b600054610100900460ff1661160e57600080fd5b600054610100900460ff166117be57600080fd5b61160e611872565b610be5828261161a565b6117da8282610e3b565b610be5576117e781611892565b6117f28360206118a4565b6040516020016118039291906126c9565b60408051601f198184030181529082905262461bcd60e51b82526106299160040161273e565b60975460ff1661160e5760405162461bcd60e51b815260206004820152601460248201527314185d5cd8589b194e881b9bdd081c185d5cd95960621b6044820152606401610629565b600054610100900460ff1661188657600080fd5b6097805460ff19169055565b60606105cd6001600160a01b03831660145b606060006118b3836002612751565b6118be906002612405565b6001600160401b038111156118d5576118d5611a49565b6040519080825280601f01601f1916602001820160405280156118ff576020820181803683370190505b509050600360fc1b8160008151811061191a5761191a6122a8565b60200101906001600160f81b031916908160001a905350600f60fb1b81600181518110611949576119496122a8565b60200101906001600160f81b031916908160001a905350600061196d846002612751565b611978906001612405565b90505b60018111156119f0576f181899199a1a9b1b9c1cb0b131b232b360811b85600f16601081106119ac576119ac6122a8565b1a60f81b8282815181106119c2576119c26122a8565b60200101906001600160f81b031916908160001a90535060049490941c936119e981612770565b905061197b565b5083156119fc57600080fd5b9392505050565b600060208284031215611a1557600080fd5b81356001600160e01b0319811681146119fc57600080fd5b80356001600160a01b0381168114611a4457600080fd5b919050565b634e487b7160e01b600052604160045260246000fd5b604051608081016001600160401b0381118282101715611a8157611a81611a49565b60405290565b60405161018081016001600160401b0381118282101715611a8157611a81611a49565b604051601f8201601f191681016001600160401b0381118282101715611ad257611ad2611a49565b604052919050565b60006001600160401b03821115611af357611af3611a49565b5060051b60200190565b600082601f830112611b0e57600080fd5b81356020611b23611b1e83611ada565b611aaa565b82815260059290921b84018101918181019086841115611b4257600080fd5b8286015b84811015611b5d5780358352918301918301611b46565b509695505050505050565b600080600060608486031215611b7d57600080fd5b611b8684611a2d565b925060208401356001600160401b0380821115611ba257600080fd5b611bae87838801611afd565b93506040860135915080821115611bc457600080fd5b50611bd186828701611afd565b9150509250925092565b60008060408385031215611bee57600080fd5b611bf783611a2d565b946020939093013593505050565b600060208284031215611c1757600080fd5b6119fc82611a2d565b600080600060608486031215611c3557600080fd5b611c3e84611a2d565b9250611c4c60208501611a2d565b9150604084013590509250925092565b600060408284031215611c6e57600080fd5b604051604081018181106001600160401b0382111715611c9057611c90611a49565b604052823581526020928301359281019290925250919050565b600080600060808486031215611cbf57600080fd5b611cc884611a2d565b925060208401356001600160401b0380821115611ce457600080fd5b9085019060608288031215611cf857600080fd5b604051606081018181108382111715611d1357611d13611a49565b80604052508235815260208301356020820152604083013582811115611d3857600080fd5b611d4489828601611afd565b604083015250809450505050611d5d8560408601611c5c565b90509250925092565b600060208284031215611d7857600080fd5b5035919050565b60008060408385031215611d9257600080fd5b82359150611da260208401611a2d565b90509250929050565b60008060408385031215611dbe57600080fd5b611dc783611a2d565b9150611da260208401611a2d565b600082601f830112611de657600080fd5b81356001600160401b03811115611dff57611dff611a49565b611e12601f8201601f1916602001611aaa565b818152846020838601011115611e2757600080fd5b816020850160208301376000918101602001919091529392505050565b60006020808385031215611e5757600080fd5b82356001600160401b0380821115611e6e57600080fd5b818501915085601f830112611e8257600080fd5b8135611e90611b1e82611ada565b81815260059190911b83018401908481019088831115611eaf57600080fd5b8585015b83811015611f6057803585811115611ecb5760008081fd5b86016080818c03601f1901811315611ee35760008081fd5b611eeb611a5f565b89830135815260408084013589811115611f055760008081fd5b611f138f8d83880101611dd5565b8c840152506060611f25818601611a2d565b83830152928401359289841115611f3e57600091508182fd5b611f4c8f8d86880101611afd565b908301525085525050918601918601611eb3565b5098975050505050505050565b600080600080600080600080610100898b031215611f8a57600080fd5b611f9389611a2d565b9750611fa160208a01611a2d565b9650611faf60408a01611a2d565b9550611fbd60608a01611a2d565b9450611fcb60808a01611a2d565b9350611fd960a08a01611a2d565b9250611fe760c08a01611a2d565b9150611ff560e08a01611a2d565b90509295985092959890939650565b8015158114610c3457600080fd5b8035611a4481612004565b6000602080838503121561203057600080fd5b82356001600160401b038082111561204757600080fd5b818501915085601f83011261205b57600080fd5b8135612069611b1e82611ada565b81815260059190911b8301840190848101908883111561208857600080fd5b8585015b83811015611f60578035858111156120a357600080fd5b8601610180818c03601f190112156120ba57600080fd5b6120c2611a87565b8882013581526040820135878111156120da57600080fd5b6120e88d8b83860101611dd5565b8a830152506060820135878111156120ff57600080fd5b61210d8d8b83860101611dd5565b60408301525061211f60808301611a2d565b606082015260a0820135608082015260c082013560a082015260e082013560c08201526101008083013560e0830152610120808401358981111561216257600080fd5b6121708f8d83880101611afd565b83850152506101409150818401358981111561218b57600080fd5b6121998f8d83880101611afd565b82850152505061016080840135898111156121b357600080fd5b6121c18f8d83880101611afd565b83850152506121d36101808501612012565b908301525084525091860191860161208c565b600080600080608085870312156121fc57600080fd5b61220585611a2d565b935060208501356001600160401b038082111561222157600080fd5b61222d88838901611afd565b9450604087013591508082111561224357600080fd5b61224f88838901611afd565b9350606087013591508082111561226557600080fd5b5061227287828801611afd565b91505092959194509250565b60208082526010908201526f185b1c9958591e481b5a59dc985d195960821b604082015260600190565b634e487b7160e01b600052603260045260246000fd5b600081518084526020808501945080840160005b838110156122ee578151875295820195908201906001016122d2565b509495945050505050565b600061010060018060a01b038616835284516020840152602085015160408401526040850151606084015260608501516080840152608085015160a084015260a085015160c08401528060e0840152612354818401856122be565b9695505050505050565b6001600160a01b0384168152606060208201819052600090612382908301856122be565b828103604084015261235481856122be565b6000602082840312156123a657600080fd5b81516119fc81612004565b60018060a01b038616815284602082015283604082015282606082015260a0608082015260006123e460a08301846122be565b979650505050505050565b634e487b7160e01b600052601160045260246000fd5b60008219821115612418576124186123ef565b500190565b60018060a01b038416815282602082015260606040820152600061244460608301846122be565b95945050505050565b60005b83811015612468578181015183820152602001612450565b83811115612477576000848401525b50505050565b6000815180845261249581602086016020860161244d565b601f01601f19169290920160200192915050565b60006020808301818452808551808352604092508286019150828160051b87010184880160005b8381101561254157603f19898403018552815160808151855288820151818a8701526124fe8287018261247d565b838a01516001600160a01b0316878b015260609384015187820394880194909452915061252d905081836122be565b9689019694505050908601906001016124d0565b509098975050505050505050565b6000600019821415612563576125636123ef565b5060010190565b60006020808301818452808551808352604092508286019150828160051b87010184880160005b8381101561254157603f1989840301855281516101808151855288820151818a8701526125c08287018261247d565b91505087820151858203898701526125d8828261247d565b9150506060808301516125f5828801826001600160a01b03169052565b50506080828101519086015260a0808301519086015260c0808301519086015260e08083015190860152610100808301518683038288015261263783826122be565b92505050610120808301518683038288015261265383826122be565b92505050610140808301518683038288015261266f83826122be565b925050506101608083015192506126898187018415159052565b509588019593505090860190600101612591565b6020815260006119fc60208301846122be565b6000602082840312156126c257600080fd5b5051919050565b7f416363657373436f6e74726f6c3a206163636f756e742000000000000000000081526000835161270181601785016020880161244d565b7001034b99036b4b9b9b4b733903937b6329607d1b601791840191820152835161273281602884016020880161244d565b01602801949350505050565b6020815260006119fc602083018461247d565b600081600019048311821515161561276b5761276b6123ef565b500290565b60008161277f5761277f6123ef565b50600019019056fe73e573f9566d61418a34d5de3ff49360f9c51fec37f7486551670290f6285dab97667070c54ef182b0f5858b034beac1b6f3089aa2d3188bb1e8929f4fa9b929a26469706673582212206a6a90a07ab31fbad6fcb8ceffe9776ed44f0682210eff049242bde93630bbce64736f6c63430008090033",
  "linkReferences": {},
  "deployedLinkReferences": {}
}