{
  "_format": "hh-sol-artifact-1",
  "contractName": "KingdomFunds",
  "sourceName": "contracts/features/KingdomFunds.sol",
  "abi": [
    {
      "anonymous": false,
      "inputs": [
        {
          "indexed": false,
          "internalType": "address",
          "name": "from",
          "type": "address"
        },
        {
          "indexed": false,
          "internalType": "uint256",
          "name": "fundNumber",
          "type": "uint256"
        },
        {
          "indexed": false,
          "internalType": "uint256",
          "name": "stabletokens",
          "type": "uint256"
        }
      ],
      "name": "Deposit",
      "type": "event"
    },
    {
      "anonymous": false,
      "inputs": [
        {
          "indexed": false,
          "internalType": "uint8",
          "name": "version",
          "type": "uint8"
        }
      ],
      "name": "Initialized",
      "type": "event"
    },
    {
      "anonymous": false,
      "inputs": [
        {
          "indexed": false,
          "internalType": "address",
          "name": "account",
          "type": "address"
        }
      ],
      "name": "Paused",
      "type": "event"
    },
    {
      "anonymous": false,
      "inputs": [
        {
          "indexed": true,
          "internalType": "bytes32",
          "name": "role",
          "type": "bytes32"
        },
        {
          "indexed": true,
          "internalType": "bytes32",
          "name": "previousAdminRole",
          "type": "bytes32"
        },
        {
          "indexed": true,
          "internalType": "bytes32",
          "name": "newAdminRole",
          "type": "bytes32"
        }
      ],
      "name": "RoleAdminChanged",
      "type": "event"
    },
    {
      "anonymous": false,
      "inputs": [
        {
          "indexed": true,
          "internalType": "bytes32",
          "name": "role",
          "type": "bytes32"
        },
        {
          "indexed": true,
          "internalType": "address",
          "name": "account",
          "type": "address"
        },
        {
          "indexed": true,
          "internalType": "address",
          "name": "sender",
          "type": "address"
        }
      ],
      "name": "RoleGranted",
      "type": "event"
    },
    {
      "anonymous": false,
      "inputs": [
        {
          "indexed": true,
          "internalType": "bytes32",
          "name": "role",
          "type": "bytes32"
        },
        {
          "indexed": true,
          "internalType": "address",
          "name": "account",
          "type": "address"
        },
        {
          "indexed": true,
          "internalType": "address",
          "name": "sender",
          "type": "address"
        }
      ],
      "name": "RoleRevoked",
      "type": "event"
    },
    {
      "anonymous": false,
      "inputs": [
        {
          "indexed": false,
          "internalType": "uint256",
          "name": "fundNumber",
          "type": "uint256"
        },
        {
          "indexed": false,
          "internalType": "address",
          "name": "beneficiary",
          "type": "address"
        },
        {
          "indexed": false,
          "internalType": "bool",
          "name": "isActive",
          "type": "bool"
        }
      ],
      "name": "SetBeneficiary",
      "type": "event"
    },
    {
      "anonymous": false,
      "inputs": [
        {
          "indexed": false,
          "internalType": "address",
          "name": "account",
          "type": "address"
        }
      ],
      "name": "Unpaused",
      "type": "event"
    },
    {
      "anonymous": false,
      "inputs": [
        {
          "indexed": false,
          "internalType": "address",
          "name": "to",
          "type": "address"
        },
        {
          "indexed": false,
          "internalType": "uint256",
          "name": "fundNumber",
          "type": "uint256"
        },
        {
          "indexed": false,
          "internalType": "uint256",
          "name": "amount",
          "type": "uint256"
        }
      ],
      "name": "Withdraw",
      "type": "event"
    },
    {
      "inputs": [],
      "name": "DEFAULT_ADMIN_ROLE",
      "outputs": [
        {
          "internalType": "bytes32",
          "name": "",
          "type": "bytes32"
        }
      ],
      "stateMutability": "view",
      "type": "function"
    },
    {
      "inputs": [
        {
          "internalType": "address",
          "name": "_operator",
          "type": "address"
        },
        {
          "internalType": "address",
          "name": "_blocklistAddress",
          "type": "address"
        }
      ],
      "name": "__Administrable_init",
      "outputs": [],
      "stateMutability": "nonpayable",
      "type": "function"
    },
    {
      "inputs": [
        {
          "internalType": "uint256",
          "name": "fundNumber",
          "type": "uint256"
        }
      ],
      "name": "balanceOf",
      "outputs": [
        {
          "internalType": "uint256",
          "name": "",
          "type": "uint256"
        }
      ],
      "stateMutability": "view",
      "type": "function"
    },
    {
      "inputs": [
        {
          "internalType": "uint256",
          "name": "fundNumber",
          "type": "uint256"
        },
        {
          "internalType": "uint256",
          "name": "amount",
          "type": "uint256"
        }
      ],
      "name": "deposit",
      "outputs": [],
      "stateMutability": "nonpayable",
      "type": "function"
    },
    {
      "inputs": [
        {
          "internalType": "uint256",
          "name": "",
          "type": "uint256"
        }
      ],
      "name": "funds",
      "outputs": [
        {
          "internalType": "uint256",
          "name": "number",
          "type": "uint256"
        },
        {
          "internalType": "uint256",
          "name": "stabletoken",
          "type": "uint256"
        },
        {
          "internalType": "address",
          "name": "directTransferBeneficiary",
          "type": "address"
        }
      ],
      "stateMutability": "view",
      "type": "function"
    },
    {
      "inputs": [
        {
          "internalType": "uint256",
          "name": "fundNumber",
          "type": "uint256"
        }
      ],
      "name": "getFund",
      "outputs": [
        {
          "components": [
            {
              "internalType": "uint256",
              "name": "number",
              "type": "uint256"
            },
            {
              "internalType": "uint256",
              "name": "stabletoken",
              "type": "uint256"
            },
            {
              "internalType": "address",
              "name": "directTransferBeneficiary",
              "type": "address"
            }
          ],
          "internalType": "struct KingdomFunds.Fund",
          "name": "",
          "type": "tuple"
        }
      ],
      "stateMutability": "view",
      "type": "function"
    },
    {
      "inputs": [
        {
          "internalType": "uint256",
          "name": "fundNumber",
          "type": "uint256"
        }
      ],
      "name": "getFundDirectTransferBeneficiary",
      "outputs": [
        {
          "internalType": "address",
          "name": "",
          "type": "address"
        }
      ],
      "stateMutability": "view",
      "type": "function"
    },
    {
      "inputs": [
        {
          "internalType": "bytes32",
          "name": "role",
          "type": "bytes32"
        }
      ],
      "name": "getRoleAdmin",
      "outputs": [
        {
          "internalType": "bytes32",
          "name": "",
          "type": "bytes32"
        }
      ],
      "stateMutability": "view",
      "type": "function"
    },
    {
      "inputs": [
        {
          "internalType": "bytes32",
          "name": "role",
          "type": "bytes32"
        },
        {
          "internalType": "address",
          "name": "account",
          "type": "address"
        }
      ],
      "name": "grantRole",
      "outputs": [],
      "stateMutability": "nonpayable",
      "type": "function"
    },
    {
      "inputs": [],
      "name": "hasBlocklist",
      "outputs": [
        {
          "internalType": "bool",
          "name": "",
          "type": "bool"
        }
      ],
      "stateMutability": "view",
      "type": "function"
    },
    {
      "inputs": [
        {
          "internalType": "bytes32",
          "name": "role",
          "type": "bytes32"
        },
        {
          "internalType": "address",
          "name": "account",
          "type": "address"
        }
      ],
      "name": "hasRole",
      "outputs": [
        {
          "internalType": "bool",
          "name": "",
          "type": "bool"
        }
      ],
      "stateMutability": "view",
      "type": "function"
    },
    {
      "inputs": [
        {
          "internalType": "address",
          "name": "_operator",
          "type": "address"
        },
        {
          "internalType": "address",
          "name": "_blocklist",
          "type": "address"
        },
        {
          "internalType": "address",
          "name": "_stabletoken",
          "type": "address"
        }
      ],
      "name": "initialize",
      "outputs": [],
      "stateMutability": "nonpayable",
      "type": "function"
    },
    {
      "inputs": [
        {
          "internalType": "uint256",
          "name": "fundNumber",
          "type": "uint256"
        },
        {
          "internalType": "address",
          "name": "account",
          "type": "address"
        }
      ],
      "name": "isFundBeneficiary",
      "outputs": [
        {
          "internalType": "bool",
          "name": "",
          "type": "bool"
        }
      ],
      "stateMutability": "view",
      "type": "function"
    },
    {
      "inputs": [],
      "name": "pause",
      "outputs": [],
      "stateMutability": "nonpayable",
      "type": "function"
    },
    {
      "inputs": [],
      "name": "paused",
      "outputs": [
        {
          "internalType": "bool",
          "name": "",
          "type": "bool"
        }
      ],
      "stateMutability": "view",
      "type": "function"
    },
    {
      "inputs": [
        {
          "internalType": "address",
          "name": "tokenAddress",
          "type": "address"
        },
        {
          "internalType": "address",
          "name": "to",
          "type": "address"
        },
        {
          "internalType": "uint256",
          "name": "amount",
          "type": "uint256"
        }
      ],
      "name": "recoverERC20",
      "outputs": [],
      "stateMutability": "nonpayable",
      "type": "function"
    },
    {
      "inputs": [
        {
          "internalType": "bytes32",
          "name": "role",
          "type": "bytes32"
        },
        {
          "internalType": "address",
          "name": "account",
          "type": "address"
        }
      ],
      "name": "renounceRole",
      "outputs": [],
      "stateMutability": "nonpayable",
      "type": "function"
    },
    {
      "inputs": [],
      "name": "resetBlocklist",
      "outputs": [],
      "stateMutability": "nonpayable",
      "type": "function"
    },
    {
      "inputs": [
        {
          "internalType": "bytes32",
          "name": "role",
          "type": "bytes32"
        },
        {
          "internalType": "address",
          "name": "account",
          "type": "address"
        }
      ],
      "name": "revokeRole",
      "outputs": [],
      "stateMutability": "nonpayable",
      "type": "function"
    },
    {
      "inputs": [
        {
          "internalType": "uint256",
          "name": "fundNumber",
          "type": "uint256"
        },
        {
          "internalType": "address",
          "name": "beneficiary",
          "type": "address"
        },
        {
          "internalType": "bool",
          "name": "isActive",
          "type": "bool"
        }
      ],
      "name": "setBeneficiary",
      "outputs": [],
      "stateMutability": "nonpayable",
      "type": "function"
    },
    {
      "inputs": [
        {
          "internalType": "address",
          "name": "beneficiary",
          "type": "address"
        }
      ],
      "name": "setBkCommonwealthFund",
      "outputs": [],
      "stateMutability": "nonpayable",
      "type": "function"
    },
    {
      "inputs": [
        {
          "internalType": "address",
          "name": "blocklistAddress",
          "type": "address"
        }
      ],
      "name": "setBlocklist",
      "outputs": [],
      "stateMutability": "nonpayable",
      "type": "function"
    },
    {
      "inputs": [],
      "name": "stabletoken",
      "outputs": [
        {
          "internalType": "contract IBkERC20",
          "name": "",
          "type": "address"
        }
      ],
      "stateMutability": "view",
      "type": "function"
    },
    {
      "inputs": [
        {
          "internalType": "bytes4",
          "name": "interfaceId",
          "type": "bytes4"
        }
      ],
      "name": "supportsInterface",
      "outputs": [
        {
          "internalType": "bool",
          "name": "",
          "type": "bool"
        }
      ],
      "stateMutability": "view",
      "type": "function"
    },
    {
      "inputs": [],
      "name": "totalAccumulatedStabletokens",
      "outputs": [
        {
          "internalType": "uint256",
          "name": "",
          "type": "uint256"
        }
      ],
      "stateMutability": "view",
      "type": "function"
    },
    {
      "inputs": [],
      "name": "unpause",
      "outputs": [],
      "stateMutability": "nonpayable",
      "type": "function"
    },
    {
      "inputs": [
        {
          "internalType": "uint256",
          "name": "fundNumber",
          "type": "uint256"
        },
        {
          "internalType": "uint256",
          "name": "amount",
          "type": "uint256"
        }
      ],
      "name": "withdraw",
      "outputs": [],
      "stateMutability": "nonpayable",
      "type": "function"
    }
  ],
  "bytecode": "0x608060405234801561001057600080fd5b5061173d806100206000396000f3fe608060405234801561001057600080fd5b50600436106101a95760003560e01c8063634210f4116100f9578063a217fddf11610097578063c4fcdc9d11610071578063c4fcdc9d14610436578063d547741f14610449578063e2bbb1581461045c578063e45175371461046f57600080fd5b8063a217fddf14610408578063aef18ae714610410578063c0c53b8b1461042357600080fd5b80638456cb59116100d35780638456cb59146103b757806391d14854146103bf578063931da89b146103d25780639cc7f708146103e557600080fd5b8063634210f41461030e57806377a36983146103225780637b8e88951461035b57600080fd5b80632f2ff15d116101665780633f4ba83a116101405780633f4ba83a146102aa578063441a3e70146102b257806352c8df64146102c55780635c975abb1461030357600080fd5b80632f2ff15d1461027c57806336568abe1461028f5780633c7fd822146102a257600080fd5b806301ffc9a7146101ae578063108f4922146101d65780631171bda91461021a578063144775c61461022f5780631a39a31214610242578063248a9ca314610259575b600080fd5b6101c16101bc366004611390565b610482565b60405190151581526020015b60405180910390f35b6102026101e43660046113ba565b600090815260cb60205260409020600201546001600160a01b031690565b6040516001600160a01b0390911681526020016101cd565b61022d6102283660046113ef565b6104b9565b005b61022d61023d36600461142b565b61055a565b61024b60cd5481565b6040519081526020016101cd565b61024b6102673660046113ba565b60009081526065602052604090206001015490565b61022d61028a366004611446565b6105be565b61022d61029d366004611446565b6105e8565b61022d61060b565b61022d610636565b61022d6102c0366004611472565b610659565b6102d86102d33660046113ba565b61087e565b604080518251815260208084015190820152918101516001600160a01b0316908201526060016101cd565b60975460ff166101c1565b60c9546101c190600160a01b900460ff1681565b6101c1610330366004611446565b600091825260cc602090815260408084206001600160a01b0393909316845291905290205460ff1690565b6103936103693660046113ba565b60cb602052600090815260409020805460018201546002909201549091906001600160a01b031683565b6040805193845260208401929092526001600160a01b0316908201526060016101cd565b61022d6108ed565b6101c16103cd366004611446565b61090d565b61022d6103e0366004611494565b610938565b61024b6103f33660046113ba565b600090815260cb602052604090206001015490565b61024b600081565b61022d61041e36600461142b565b610a4f565b61022d6104313660046114be565b610a8f565b61022d61044436600461150f565b610c1b565b61022d610457366004611446565b610cd8565b61022d61046a366004611472565b610cfd565b60ca54610202906001600160a01b031681565b60006001600160e01b03198216637965db0b60e01b14806104b357506301ffc9a760e01b6001600160e01b03198316145b92915050565b6000805160206116e88339815191526104d181610f54565b60405163a9059cbb60e01b81526001600160a01b0384811660048301526024820184905285169063a9059cbb90604401602060405180830381600087803b15801561051b57600080fd5b505af115801561052f573d6000803e3d6000fd5b505050506040513d601f19601f82011682018060405250810190610553919061154f565b5050505050565b6000805160206116e883398151915261057281610f54565b50600260005260cb6020527f2c278fda8778553b7b7a8cff03a9beadbef1773abb49c1f69c87347759480d5b80546001600160a01b0319166001600160a01b0392909216919091179055565b6000828152606560205260409020600101546105d981610f54565b6105e38383610f5e565b505050565b6001600160a01b03811633146105fd57600080fd5b6106078282610fe4565b5050565b6000805160206116e883398151915261062381610f54565b5060c980546001600160a81b0319169055565b6000805160206116e883398151915261064e81610f54565b61065661104b565b50565b60c954600160a81b900460ff16156106a05760405162461bcd60e51b81526020600482015260056024820152640daeae8caf60db1b60448201526064015b60405180910390fd5b60c9805460ff60a81b1916600160a81b1790556106bb61109d565b600081116106ef5760405162461bcd60e51b81526020600482015260016024820152603560f81b6044820152606401610697565b600082815260cb60205260409020600101548111156107345760405162461bcd60e51b81526020600482015260016024820152601b60f91b6044820152606401610697565b600082815260cc6020908152604080832033845290915290205460ff166107815760405162461bcd60e51b81526020600482015260016024820152603760f81b6044820152606401610697565b600082815260cb6020526040812060010180548392906107a2908490611582565b909155505060ca5460405163a9059cbb60e01b8152336004820152602481018390526001600160a01b039091169063a9059cbb90604401602060405180830381600087803b1580156107f357600080fd5b505af1158015610807573d6000803e3d6000fd5b505050506040513d601f19601f8201168201806040525081019061082b919061154f565b5060408051338152602081018490529081018290527ff279e6a1f5e320cca91135676d9cb6e44ca8a08c0b88342bcdb1144f6511b5689060600160405180910390a1505060c9805460ff60a81b19169055565b6108ab6040518060600160405280600081526020016000815260200160006001600160a01b031681525090565b50600090815260cb6020908152604091829020825160608101845281548152600182015492810192909252600201546001600160a01b03169181019190915290565b6000805160206116e883398151915261090581610f54565b6106566110e5565b60009182526065602090815260408084206001600160a01b0393909316845291905290205460ff1690565b600054610100900460ff16158080156109585750600054600160ff909116105b806109725750303b158015610972575060005460ff166001145b61097b57600080fd5b6000805460ff19166001179055801561099e576000805461ff0019166101001790555b6109a6611122565b6109ae611136565b6109b9600084611152565b6109d16000805160206116e883398151915284611152565b6109fb7f73e573f9566d61418a34d5de3ff49360f9c51fec37f7486551670290f6285dab84611152565b610a0482610a4f565b80156105e3576000805461ff0019169055604051600181527f7f26b83ff96e1f2b6a682f133852f6798a09c465da95921460cefb3847402498906020015b60405180910390a1505050565b6000805160206116e8833981519152610a6781610f54565b5060c980546001600160a81b0319166001600160a01b0390921691909117600160a01b179055565b600054610100900460ff1615808015610aaf5750600054600160ff909116105b80610ac95750303b158015610ac9575060005460ff166001145b610ad257600080fd5b6000805460ff191660011790558015610af5576000805461ff0019166101001790555b610aff8484610938565b60ca80546001600160a01b038085166001600160a01b03199283161790925560408051606081018252600280825260006020808401828152734bd1e4cddf8862cdc0d51a282110f65af2d1e4f69585019586529290915260cb905290517f2c278fda8778553b7b7a8cff03a9beadbef1773abb49c1f69c87347759480d5955517f2c278fda8778553b7b7a8cff03a9beadbef1773abb49c1f69c87347759480d5a55517f2c278fda8778553b7b7a8cff03a9beadbef1773abb49c1f69c87347759480d5b80549190931691161790558015610c15576000805461ff0019169055604051600181527f7f26b83ff96e1f2b6a682f133852f6798a09c465da95921460cefb3847402498906020015b60405180910390a15b50505050565b6000805160206116e8833981519152610c3381610f54565b60008411610c685760405162461bcd60e51b8152602060048201526002602482015261189960f11b6044820152606401610697565b600084815260cc602090815260408083206001600160a01b03871680855290835292819020805460ff19168615159081179091558151888152928301939093528101919091527f83a093b53bcea584bea3fa3f00c77983dd98f5489c1b78d9fe9da1bcee0a329b90606001610c0c565b600082815260656020526040902060010154610cf381610f54565b6105e38383610fe4565b7f73e573f9566d61418a34d5de3ff49360f9c51fec37f7486551670290f6285dab610d2781610f54565b60008311610d5b5760405162461bcd60e51b81526020600482015260016024820152603160f81b6044820152606401610697565b60008211610d8f5760405162461bcd60e51b81526020600482015260016024820152601960f91b6044820152606401610697565b60ca546040516323b872dd60e01b8152336004820152306024820152604481018490526001600160a01b03909116906323b872dd90606401602060405180830381600087803b158015610de157600080fd5b505af1158015610df5573d6000803e3d6000fd5b505050506040513d601f19601f82011682018060405250810190610e19919061154f565b50600083815260cb60205260409020600201546001600160a01b031615610ed85760ca54600084815260cb60205260409081902060020154905163a9059cbb60e01b81526001600160a01b0391821660048201526024810185905291169063a9059cbb90604401602060405180830381600087803b158015610e9a57600080fd5b505af1158015610eae573d6000803e3d6000fd5b505050506040513d601f19601f82011682018060405250810190610ed2919061154f565b50610eff565b600083815260cb602052604081206001018054849290610ef9908490611599565b90915550505b8160cd6000828254610f119190611599565b909155505060408051338152602081018590529081018390527f90890809c654f11d6e72a28fa60149770a0d11ec6c92319d6ceb2bb0a4ea1a1590606001610a42565b610656813361115c565b610f68828261090d565b6106075760008281526065602090815260408083206001600160a01b03851684529091529020805460ff19166001179055610fa03390565b6001600160a01b0316816001600160a01b0316837f2f8788117e7eff1d82e926ec794901d17c78024a50270940304540a733656f0d60405160405180910390a45050565b610fee828261090d565b156106075760008281526065602090815260408083206001600160a01b0385168085529252808320805460ff1916905551339285917ff6391f5c32d9c69d2a47ea670b442974b53935d1edc7fd64eb21e047a839171b9190a45050565b6110536111b5565b6097805460ff191690557f5db9ee0a495bf2e6ff9c91a7834c1ba4fdd244a5e8aa4e537bd38aeae4b073aa335b6040516001600160a01b03909116815260200160405180910390a1565b60975460ff16156110e35760405162461bcd60e51b815260206004820152601060248201526f14185d5cd8589b194e881c185d5cd95960821b6044820152606401610697565b565b6110ed61109d565b6097805460ff191660011790557f62e78cea01bee320cd4e420270b5ea74000d11b0c9f74754ebdbfc544b05a2586110803390565b600054610100900460ff166110e357600080fd5b600054610100900460ff1661114a57600080fd5b6110e36111fe565b6106078282610f5e565b611166828261090d565b610607576111738161121e565b61117e836020611230565b60405160200161118f9291906115dd565b60408051601f198184030181529082905262461bcd60e51b825261069791600401611652565b60975460ff166110e35760405162461bcd60e51b815260206004820152601460248201527314185d5cd8589b194e881b9bdd081c185d5cd95960621b6044820152606401610697565b600054610100900460ff1661121257600080fd5b6097805460ff19169055565b60606104b36001600160a01b03831660145b6060600061123f836002611685565b61124a906002611599565b67ffffffffffffffff811115611262576112626116a4565b6040519080825280601f01601f19166020018201604052801561128c576020820181803683370190505b509050600360fc1b816000815181106112a7576112a76116ba565b60200101906001600160f81b031916908160001a905350600f60fb1b816001815181106112d6576112d66116ba565b60200101906001600160f81b031916908160001a90535060006112fa846002611685565b611305906001611599565b90505b600181111561137d576f181899199a1a9b1b9c1cb0b131b232b360811b85600f1660108110611339576113396116ba565b1a60f81b82828151811061134f5761134f6116ba565b60200101906001600160f81b031916908160001a90535060049490941c93611376816116d0565b9050611308565b50831561138957600080fd5b9392505050565b6000602082840312156113a257600080fd5b81356001600160e01b03198116811461138957600080fd5b6000602082840312156113cc57600080fd5b5035919050565b80356001600160a01b03811681146113ea57600080fd5b919050565b60008060006060848603121561140457600080fd5b61140d846113d3565b925061141b602085016113d3565b9150604084013590509250925092565b60006020828403121561143d57600080fd5b611389826113d3565b6000806040838503121561145957600080fd5b82359150611469602084016113d3565b90509250929050565b6000806040838503121561148557600080fd5b50508035926020909101359150565b600080604083850312156114a757600080fd5b6114b0836113d3565b9150611469602084016113d3565b6000806000606084860312156114d357600080fd5b6114dc846113d3565b92506114ea602085016113d3565b91506114f8604085016113d3565b90509250925092565b801515811461065657600080fd5b60008060006060848603121561152457600080fd5b83359250611534602085016113d3565b9150604084013561154481611501565b809150509250925092565b60006020828403121561156157600080fd5b815161138981611501565b634e487b7160e01b600052601160045260246000fd5b6000828210156115945761159461156c565b500390565b600082198211156115ac576115ac61156c565b500190565b60005b838110156115cc5781810151838201526020016115b4565b83811115610c155750506000910152565b7f416363657373436f6e74726f6c3a206163636f756e74200000000000000000008152600083516116158160178501602088016115b1565b7001034b99036b4b9b9b4b733903937b6329607d1b60179184019182015283516116468160288401602088016115b1565b01602801949350505050565b60208152600082518060208401526116718160408501602087016115b1565b601f01601f19169190910160400192915050565b600081600019048311821515161561169f5761169f61156c565b500290565b634e487b7160e01b600052604160045260246000fd5b634e487b7160e01b600052603260045260246000fd5b6000816116df576116df61156c565b50600019019056fe97667070c54ef182b0f5858b034beac1b6f3089aa2d3188bb1e8929f4fa9b929a264697066735822122012191f0282c2b5c539aca71d3d49328af2c8f58bd8d275c08427c9bbe358039564736f6c63430008090033",
  "linkReferences": {},
  "deployedLinkReferences": {}
}