{
  "_format": "hh-sol-artifact-1",
  "contractName": "KingdomFunds",
  "sourceName": "contracts/features/KingdomFunds.sol",
  "abi": [
    {
      "anonymous": false,
      "inputs": [
        {
          "indexed": false,
          "internalType": "address",
          "name": "from",
          "type": "address"
        },
        {
          "indexed": false,
          "internalType": "uint256",
          "name": "fundNumber",
          "type": "uint256"
        },
        {
          "indexed": false,
          "internalType": "uint256",
          "name": "stabletokens",
          "type": "uint256"
        }
      ],
      "name": "Deposit",
      "type": "event"
    },
    {
      "anonymous": false,
      "inputs": [
        {
          "indexed": false,
          "internalType": "uint8",
          "name": "version",
          "type": "uint8"
        }
      ],
      "name": "Initialized",
      "type": "event"
    },
    {
      "anonymous": false,
      "inputs": [
        {
          "indexed": false,
          "internalType": "address",
          "name": "account",
          "type": "address"
        }
      ],
      "name": "Paused",
      "type": "event"
    },
    {
      "anonymous": false,
      "inputs": [
        {
          "indexed": true,
          "internalType": "bytes32",
          "name": "role",
          "type": "bytes32"
        },
        {
          "indexed": true,
          "internalType": "bytes32",
          "name": "previousAdminRole",
          "type": "bytes32"
        },
        {
          "indexed": true,
          "internalType": "bytes32",
          "name": "newAdminRole",
          "type": "bytes32"
        }
      ],
      "name": "RoleAdminChanged",
      "type": "event"
    },
    {
      "anonymous": false,
      "inputs": [
        {
          "indexed": true,
          "internalType": "bytes32",
          "name": "role",
          "type": "bytes32"
        },
        {
          "indexed": true,
          "internalType": "address",
          "name": "account",
          "type": "address"
        },
        {
          "indexed": true,
          "internalType": "address",
          "name": "sender",
          "type": "address"
        }
      ],
      "name": "RoleGranted",
      "type": "event"
    },
    {
      "anonymous": false,
      "inputs": [
        {
          "indexed": true,
          "internalType": "bytes32",
          "name": "role",
          "type": "bytes32"
        },
        {
          "indexed": true,
          "internalType": "address",
          "name": "account",
          "type": "address"
        },
        {
          "indexed": true,
          "internalType": "address",
          "name": "sender",
          "type": "address"
        }
      ],
      "name": "RoleRevoked",
      "type": "event"
    },
    {
      "anonymous": false,
      "inputs": [
        {
          "indexed": false,
          "internalType": "uint256",
          "name": "fundNumber",
          "type": "uint256"
        },
        {
          "indexed": false,
          "internalType": "address",
          "name": "beneficiary",
          "type": "address"
        },
        {
          "indexed": false,
          "internalType": "bool",
          "name": "isActive",
          "type": "bool"
        }
      ],
      "name": "SetBeneficiary",
      "type": "event"
    },
    {
      "anonymous": false,
      "inputs": [
        {
          "indexed": false,
          "internalType": "address",
          "name": "account",
          "type": "address"
        }
      ],
      "name": "Unpaused",
      "type": "event"
    },
    {
      "anonymous": false,
      "inputs": [
        {
          "indexed": false,
          "internalType": "address",
          "name": "to",
          "type": "address"
        },
        {
          "indexed": false,
          "internalType": "uint256",
          "name": "fundNumber",
          "type": "uint256"
        },
        {
          "indexed": false,
          "internalType": "uint256",
          "name": "amount",
          "type": "uint256"
        }
      ],
      "name": "Withdraw",
      "type": "event"
    },
    {
      "inputs": [],
      "name": "DEFAULT_ADMIN_ROLE",
      "outputs": [
        {
          "internalType": "bytes32",
          "name": "",
          "type": "bytes32"
        }
      ],
      "stateMutability": "view",
      "type": "function"
    },
    {
      "inputs": [
        {
          "internalType": "address",
          "name": "_operator",
          "type": "address"
        },
        {
          "internalType": "address",
          "name": "_blocklistAddress",
          "type": "address"
        }
      ],
      "name": "__Administrable_init",
      "outputs": [],
      "stateMutability": "nonpayable",
      "type": "function"
    },
    {
      "inputs": [
        {
          "internalType": "uint256",
          "name": "fundNumber",
          "type": "uint256"
        }
      ],
      "name": "balanceOf",
      "outputs": [
        {
          "internalType": "uint256",
          "name": "",
          "type": "uint256"
        }
      ],
      "stateMutability": "view",
      "type": "function"
    },
    {
      "inputs": [
        {
          "internalType": "uint256",
          "name": "fundNumber",
          "type": "uint256"
        },
        {
          "internalType": "uint256",
          "name": "amount",
          "type": "uint256"
        }
      ],
      "name": "deposit",
      "outputs": [],
      "stateMutability": "nonpayable",
      "type": "function"
    },
    {
      "inputs": [
        {
          "internalType": "uint256",
          "name": "",
          "type": "uint256"
        }
      ],
      "name": "funds",
      "outputs": [
        {
          "internalType": "uint256",
          "name": "number",
          "type": "uint256"
        },
        {
          "internalType": "uint256",
          "name": "stabletoken",
          "type": "uint256"
        },
        {
          "internalType": "address",
          "name": "directTransferBeneficiary",
          "type": "address"
        }
      ],
      "stateMutability": "view",
      "type": "function"
    },
    {
      "inputs": [
        {
          "internalType": "uint256",
          "name": "fundNumber",
          "type": "uint256"
        }
      ],
      "name": "getFund",
      "outputs": [
        {
          "components": [
            {
              "internalType": "uint256",
              "name": "number",
              "type": "uint256"
            },
            {
              "internalType": "uint256",
              "name": "stabletoken",
              "type": "uint256"
            },
            {
              "internalType": "address",
              "name": "directTransferBeneficiary",
              "type": "address"
            }
          ],
          "internalType": "struct KingdomFunds.Fund",
          "name": "",
          "type": "tuple"
        }
      ],
      "stateMutability": "view",
      "type": "function"
    },
    {
      "inputs": [
        {
          "internalType": "uint256",
          "name": "fundNumber",
          "type": "uint256"
        }
      ],
      "name": "getFundDirectTransferBeneficiary",
      "outputs": [
        {
          "internalType": "address",
          "name": "",
          "type": "address"
        }
      ],
      "stateMutability": "view",
      "type": "function"
    },
    {
      "inputs": [
        {
          "internalType": "bytes32",
          "name": "role",
          "type": "bytes32"
        }
      ],
      "name": "getRoleAdmin",
      "outputs": [
        {
          "internalType": "bytes32",
          "name": "",
          "type": "bytes32"
        }
      ],
      "stateMutability": "view",
      "type": "function"
    },
    {
      "inputs": [
        {
          "internalType": "bytes32",
          "name": "role",
          "type": "bytes32"
        },
        {
          "internalType": "address",
          "name": "account",
          "type": "address"
        }
      ],
      "name": "grantRole",
      "outputs": [],
      "stateMutability": "nonpayable",
      "type": "function"
    },
    {
      "inputs": [],
      "name": "hasBlocklist",
      "outputs": [
        {
          "internalType": "bool",
          "name": "",
          "type": "bool"
        }
      ],
      "stateMutability": "view",
      "type": "function"
    },
    {
      "inputs": [
        {
          "internalType": "bytes32",
          "name": "role",
          "type": "bytes32"
        },
        {
          "internalType": "address",
          "name": "account",
          "type": "address"
        }
      ],
      "name": "hasRole",
      "outputs": [
        {
          "internalType": "bool",
          "name": "",
          "type": "bool"
        }
      ],
      "stateMutability": "view",
      "type": "function"
    },
    {
      "inputs": [
        {
          "internalType": "address",
          "name": "_operator",
          "type": "address"
        },
        {
          "internalType": "address",
          "name": "_blocklist",
          "type": "address"
        },
        {
          "internalType": "address",
          "name": "_stableToken",
          "type": "address"
        }
      ],
      "name": "initialize",
      "outputs": [],
      "stateMutability": "nonpayable",
      "type": "function"
    },
    {
      "inputs": [
        {
          "internalType": "uint256",
          "name": "fundNumber",
          "type": "uint256"
        },
        {
          "internalType": "address",
          "name": "account",
          "type": "address"
        }
      ],
      "name": "isFundBeneficiary",
      "outputs": [
        {
          "internalType": "bool",
          "name": "",
          "type": "bool"
        }
      ],
      "stateMutability": "view",
      "type": "function"
    },
    {
      "inputs": [],
      "name": "pause",
      "outputs": [],
      "stateMutability": "nonpayable",
      "type": "function"
    },
    {
      "inputs": [],
      "name": "paused",
      "outputs": [
        {
          "internalType": "bool",
          "name": "",
          "type": "bool"
        }
      ],
      "stateMutability": "view",
      "type": "function"
    },
    {
      "inputs": [
        {
          "internalType": "address",
          "name": "tokenAddress",
          "type": "address"
        },
        {
          "internalType": "address",
          "name": "to",
          "type": "address"
        },
        {
          "internalType": "uint256",
          "name": "amount",
          "type": "uint256"
        }
      ],
      "name": "recoverERC20",
      "outputs": [],
      "stateMutability": "nonpayable",
      "type": "function"
    },
    {
      "inputs": [
        {
          "internalType": "bytes32",
          "name": "role",
          "type": "bytes32"
        },
        {
          "internalType": "address",
          "name": "account",
          "type": "address"
        }
      ],
      "name": "renounceRole",
      "outputs": [],
      "stateMutability": "nonpayable",
      "type": "function"
    },
    {
      "inputs": [],
      "name": "resetBlocklist",
      "outputs": [],
      "stateMutability": "nonpayable",
      "type": "function"
    },
    {
      "inputs": [
        {
          "internalType": "bytes32",
          "name": "role",
          "type": "bytes32"
        },
        {
          "internalType": "address",
          "name": "account",
          "type": "address"
        }
      ],
      "name": "revokeRole",
      "outputs": [],
      "stateMutability": "nonpayable",
      "type": "function"
    },
    {
      "inputs": [
        {
          "internalType": "uint256",
          "name": "fundNumber",
          "type": "uint256"
        },
        {
          "internalType": "address",
          "name": "beneficiary",
          "type": "address"
        },
        {
          "internalType": "bool",
          "name": "isActive",
          "type": "bool"
        }
      ],
      "name": "setBeneficiary",
      "outputs": [],
      "stateMutability": "nonpayable",
      "type": "function"
    },
    {
      "inputs": [
        {
          "internalType": "address",
          "name": "blocklistAddress",
          "type": "address"
        }
      ],
      "name": "setBlocklist",
      "outputs": [],
      "stateMutability": "nonpayable",
      "type": "function"
    },
    {
      "inputs": [],
      "name": "stableToken",
      "outputs": [
        {
          "internalType": "contract IBkERC20",
          "name": "",
          "type": "address"
        }
      ],
      "stateMutability": "view",
      "type": "function"
    },
    {
      "inputs": [
        {
          "internalType": "bytes4",
          "name": "interfaceId",
          "type": "bytes4"
        }
      ],
      "name": "supportsInterface",
      "outputs": [
        {
          "internalType": "bool",
          "name": "",
          "type": "bool"
        }
      ],
      "stateMutability": "view",
      "type": "function"
    },
    {
      "inputs": [],
      "name": "totalAccumulatedStabletokens",
      "outputs": [
        {
          "internalType": "uint256",
          "name": "",
          "type": "uint256"
        }
      ],
      "stateMutability": "view",
      "type": "function"
    },
    {
      "inputs": [],
      "name": "unpause",
      "outputs": [],
      "stateMutability": "nonpayable",
      "type": "function"
    },
    {
      "inputs": [
        {
          "internalType": "uint256",
          "name": "fundNumber",
          "type": "uint256"
        },
        {
          "internalType": "uint256",
          "name": "amount",
          "type": "uint256"
        }
      ],
      "name": "withdraw",
      "outputs": [],
      "stateMutability": "nonpayable",
      "type": "function"
    }
  ],
  "bytecode": "0x608060405234801561001057600080fd5b506116ab806100206000396000f3fe608060405234801561001057600080fd5b506004361061018e5760003560e01c806377a36983116100de578063a217fddf11610097578063c0c53b8b11610071578063c0c53b8b14610408578063c4fcdc9d1461041b578063d547741f1461042e578063e2bbb1581461044157600080fd5b8063a217fddf146103da578063a9d75b2b146103e2578063aef18ae7146103f557600080fd5b806377a36983146102f45780637b8e88951461032d5780638456cb591461038957806391d1485414610391578063931da89b146103a45780639cc7f708146103b757600080fd5b806336568abe1161014b578063441a3e7011610125578063441a3e701461028457806352c8df64146102975780635c975abb146102d5578063634210f4146102e057600080fd5b806336568abe146102615780633c7fd822146102745780633f4ba83a1461027c57600080fd5b806301ffc9a714610193578063108f4922146101bb5780631171bda9146101ff5780631a39a31214610214578063248a9ca31461022b5780632f2ff15d1461024e575b600080fd5b6101a66101a13660046112fe565b610454565b60405190151581526020015b60405180910390f35b6101e76101c9366004611328565b600090815260cb60205260409020600201546001600160a01b031690565b6040516001600160a01b0390911681526020016101b2565b61021261020d36600461135d565b61048b565b005b61021d60cd5481565b6040519081526020016101b2565b61021d610239366004611328565b60009081526065602052604090206001015490565b61021261025c366004611399565b61052c565b61021261026f366004611399565b610556565b610212610579565b6102126105a4565b6102126102923660046113c5565b6105c7565b6102aa6102a5366004611328565b6107ec565b604080518251815260208084015190820152918101516001600160a01b0316908201526060016101b2565b60975460ff166101a6565b60c9546101a690600160a01b900460ff1681565b6101a6610302366004611399565b600091825260cc602090815260408084206001600160a01b0393909316845291905290205460ff1690565b61036561033b366004611328565b60cb602052600090815260409020805460018201546002909201549091906001600160a01b031683565b6040805193845260208401929092526001600160a01b0316908201526060016101b2565b61021261085b565b6101a661039f366004611399565b61087b565b6102126103b23660046113e7565b6108a6565b61021d6103c5366004611328565b600090815260cb602052604090206001015490565b61021d600081565b60ca546101e7906001600160a01b031681565b610212610403366004611411565b6109bd565b61021261041636600461142c565b6109fd565b61021261042936600461147d565b610b89565b61021261043c366004611399565b610c46565b61021261044f3660046113c5565b610c6b565b60006001600160e01b03198216637965db0b60e01b148061048557506301ffc9a760e01b6001600160e01b03198316145b92915050565b6000805160206116568339815191526104a381610ec2565b60405163a9059cbb60e01b81526001600160a01b0384811660048301526024820184905285169063a9059cbb90604401602060405180830381600087803b1580156104ed57600080fd5b505af1158015610501573d6000803e3d6000fd5b505050506040513d601f19601f8201168201806040525081019061052591906114bd565b5050505050565b60008281526065602052604090206001015461054781610ec2565b6105518383610ecc565b505050565b6001600160a01b038116331461056b57600080fd5b6105758282610f52565b5050565b60008051602061165683398151915261059181610ec2565b5060c980546001600160a81b0319169055565b6000805160206116568339815191526105bc81610ec2565b6105c4610fb9565b50565b60c954600160a81b900460ff161561060e5760405162461bcd60e51b81526020600482015260056024820152640daeae8caf60db1b60448201526064015b60405180910390fd5b60c9805460ff60a81b1916600160a81b17905561062961100b565b6000811161065d5760405162461bcd60e51b81526020600482015260016024820152603560f81b6044820152606401610605565b600082815260cb60205260409020600101548111156106a25760405162461bcd60e51b81526020600482015260016024820152601b60f91b6044820152606401610605565b600082815260cc6020908152604080832033845290915290205460ff166106ef5760405162461bcd60e51b81526020600482015260016024820152603760f81b6044820152606401610605565b600082815260cb6020526040812060010180548392906107109084906114f0565b909155505060ca5460405163a9059cbb60e01b8152336004820152602481018390526001600160a01b039091169063a9059cbb90604401602060405180830381600087803b15801561076157600080fd5b505af1158015610775573d6000803e3d6000fd5b505050506040513d601f19601f8201168201806040525081019061079991906114bd565b5060408051338152602081018490529081018290527ff279e6a1f5e320cca91135676d9cb6e44ca8a08c0b88342bcdb1144f6511b5689060600160405180910390a1505060c9805460ff60a81b19169055565b6108196040518060600160405280600081526020016000815260200160006001600160a01b031681525090565b50600090815260cb6020908152604091829020825160608101845281548152600182015492810192909252600201546001600160a01b03169181019190915290565b60008051602061165683398151915261087381610ec2565b6105c4611053565b60009182526065602090815260408084206001600160a01b0393909316845291905290205460ff1690565b600054610100900460ff16158080156108c65750600054600160ff909116105b806108e05750303b1580156108e0575060005460ff166001145b6108e957600080fd5b6000805460ff19166001179055801561090c576000805461ff0019166101001790555b610914611090565b61091c6110a4565b6109276000846110c0565b61093f600080516020611656833981519152846110c0565b6109697f73e573f9566d61418a34d5de3ff49360f9c51fec37f7486551670290f6285dab846110c0565b610972826109bd565b8015610551576000805461ff0019169055604051600181527f7f26b83ff96e1f2b6a682f133852f6798a09c465da95921460cefb3847402498906020015b60405180910390a1505050565b6000805160206116568339815191526109d581610ec2565b5060c980546001600160a81b0319166001600160a01b0390921691909117600160a01b179055565b600054610100900460ff1615808015610a1d5750600054600160ff909116105b80610a375750303b158015610a37575060005460ff166001145b610a4057600080fd5b6000805460ff191660011790558015610a63576000805461ff0019166101001790555b610a6d84846108a6565b60ca80546001600160a01b038085166001600160a01b03199283161790925560408051606081018252600280825260006020808401828152734bd1e4cddf8862cdc0d51a282110f65af2d1e4f69585019586529290915260cb905290517f2c278fda8778553b7b7a8cff03a9beadbef1773abb49c1f69c87347759480d5955517f2c278fda8778553b7b7a8cff03a9beadbef1773abb49c1f69c87347759480d5a55517f2c278fda8778553b7b7a8cff03a9beadbef1773abb49c1f69c87347759480d5b80549190931691161790558015610b83576000805461ff0019169055604051600181527f7f26b83ff96e1f2b6a682f133852f6798a09c465da95921460cefb3847402498906020015b60405180910390a15b50505050565b600080516020611656833981519152610ba181610ec2565b60008411610bd65760405162461bcd60e51b8152602060048201526002602482015261189960f11b6044820152606401610605565b600084815260cc602090815260408083206001600160a01b03871680855290835292819020805460ff19168615159081179091558151888152928301939093528101919091527f83a093b53bcea584bea3fa3f00c77983dd98f5489c1b78d9fe9da1bcee0a329b90606001610b7a565b600082815260656020526040902060010154610c6181610ec2565b6105518383610f52565b7f73e573f9566d61418a34d5de3ff49360f9c51fec37f7486551670290f6285dab610c9581610ec2565b60008311610cc95760405162461bcd60e51b81526020600482015260016024820152603160f81b6044820152606401610605565b60008211610cfd5760405162461bcd60e51b81526020600482015260016024820152601960f91b6044820152606401610605565b60ca546040516323b872dd60e01b8152336004820152306024820152604481018490526001600160a01b03909116906323b872dd90606401602060405180830381600087803b158015610d4f57600080fd5b505af1158015610d63573d6000803e3d6000fd5b505050506040513d601f19601f82011682018060405250810190610d8791906114bd565b50600083815260cb60205260409020600201546001600160a01b031615610e465760ca54600084815260cb60205260409081902060020154905163a9059cbb60e01b81526001600160a01b0391821660048201526024810185905291169063a9059cbb90604401602060405180830381600087803b158015610e0857600080fd5b505af1158015610e1c573d6000803e3d6000fd5b505050506040513d601f19601f82011682018060405250810190610e4091906114bd565b50610e6d565b600083815260cb602052604081206001018054849290610e67908490611507565b90915550505b8160cd6000828254610e7f9190611507565b909155505060408051338152602081018590529081018390527f90890809c654f11d6e72a28fa60149770a0d11ec6c92319d6ceb2bb0a4ea1a15906060016109b0565b6105c481336110ca565b610ed6828261087b565b6105755760008281526065602090815260408083206001600160a01b03851684529091529020805460ff19166001179055610f0e3390565b6001600160a01b0316816001600160a01b0316837f2f8788117e7eff1d82e926ec794901d17c78024a50270940304540a733656f0d60405160405180910390a45050565b610f5c828261087b565b156105755760008281526065602090815260408083206001600160a01b0385168085529252808320805460ff1916905551339285917ff6391f5c32d9c69d2a47ea670b442974b53935d1edc7fd64eb21e047a839171b9190a45050565b610fc1611123565b6097805460ff191690557f5db9ee0a495bf2e6ff9c91a7834c1ba4fdd244a5e8aa4e537bd38aeae4b073aa335b6040516001600160a01b03909116815260200160405180910390a1565b60975460ff16156110515760405162461bcd60e51b815260206004820152601060248201526f14185d5cd8589b194e881c185d5cd95960821b6044820152606401610605565b565b61105b61100b565b6097805460ff191660011790557f62e78cea01bee320cd4e420270b5ea74000d11b0c9f74754ebdbfc544b05a258610fee3390565b600054610100900460ff1661105157600080fd5b600054610100900460ff166110b857600080fd5b61105161116c565b6105758282610ecc565b6110d4828261087b565b610575576110e18161118c565b6110ec83602061119e565b6040516020016110fd92919061154b565b60408051601f198184030181529082905262461bcd60e51b8252610605916004016115c0565b60975460ff166110515760405162461bcd60e51b815260206004820152601460248201527314185d5cd8589b194e881b9bdd081c185d5cd95960621b6044820152606401610605565b600054610100900460ff1661118057600080fd5b6097805460ff19169055565b60606104856001600160a01b03831660145b606060006111ad8360026115f3565b6111b8906002611507565b67ffffffffffffffff8111156111d0576111d0611612565b6040519080825280601f01601f1916602001820160405280156111fa576020820181803683370190505b509050600360fc1b8160008151811061121557611215611628565b60200101906001600160f81b031916908160001a905350600f60fb1b8160018151811061124457611244611628565b60200101906001600160f81b031916908160001a90535060006112688460026115f3565b611273906001611507565b90505b60018111156112eb576f181899199a1a9b1b9c1cb0b131b232b360811b85600f16601081106112a7576112a7611628565b1a60f81b8282815181106112bd576112bd611628565b60200101906001600160f81b031916908160001a90535060049490941c936112e48161163e565b9050611276565b5083156112f757600080fd5b9392505050565b60006020828403121561131057600080fd5b81356001600160e01b0319811681146112f757600080fd5b60006020828403121561133a57600080fd5b5035919050565b80356001600160a01b038116811461135857600080fd5b919050565b60008060006060848603121561137257600080fd5b61137b84611341565b925061138960208501611341565b9150604084013590509250925092565b600080604083850312156113ac57600080fd5b823591506113bc60208401611341565b90509250929050565b600080604083850312156113d857600080fd5b50508035926020909101359150565b600080604083850312156113fa57600080fd5b61140383611341565b91506113bc60208401611341565b60006020828403121561142357600080fd5b6112f782611341565b60008060006060848603121561144157600080fd5b61144a84611341565b925061145860208501611341565b915061146660408501611341565b90509250925092565b80151581146105c457600080fd5b60008060006060848603121561149257600080fd5b833592506114a260208501611341565b915060408401356114b28161146f565b809150509250925092565b6000602082840312156114cf57600080fd5b81516112f78161146f565b634e487b7160e01b600052601160045260246000fd5b600082821015611502576115026114da565b500390565b6000821982111561151a5761151a6114da565b500190565b60005b8381101561153a578181015183820152602001611522565b83811115610b835750506000910152565b7f416363657373436f6e74726f6c3a206163636f756e742000000000000000000081526000835161158381601785016020880161151f565b7001034b99036b4b9b9b4b733903937b6329607d1b60179184019182015283516115b481602884016020880161151f565b01602801949350505050565b60208152600082518060208401526115df81604085016020870161151f565b601f01601f19169190910160400192915050565b600081600019048311821515161561160d5761160d6114da565b500290565b634e487b7160e01b600052604160045260246000fd5b634e487b7160e01b600052603260045260246000fd5b60008161164d5761164d6114da565b50600019019056fe97667070c54ef182b0f5858b034beac1b6f3089aa2d3188bb1e8929f4fa9b929a2646970667358221220aa7f99c4e378fa52e9ff09d554ac19fbc326c5978cb9c9362532fc084e62b80e64736f6c63430008090033",
  "linkReferences": {},
  "deployedLinkReferences": {}
}