{
  "_format": "hh-sol-artifact-1",
  "contractName": "BkMarketplaceV2",
  "sourceName": "contracts/features/BkMarketplaceV2.sol",
  "abi": [
    {
      "anonymous": false,
      "inputs": [
        {
          "indexed": false,
          "internalType": "uint256",
          "name": "orderId",
          "type": "uint256"
        },
        {
          "indexed": false,
          "internalType": "address",
          "name": "bidder",
          "type": "address"
        },
        {
          "indexed": false,
          "internalType": "uint256",
          "name": "bid",
          "type": "uint256"
        },
        {
          "indexed": false,
          "internalType": "address",
          "name": "prevBidder",
          "type": "address"
        },
        {
          "indexed": false,
          "internalType": "uint256",
          "name": "prevBidderCashback",
          "type": "uint256"
        },
        {
          "indexed": false,
          "internalType": "uint256",
          "name": "blockNumber",
          "type": "uint256"
        }
      ],
      "name": "AuctionBidPlaced",
      "type": "event"
    },
    {
      "anonymous": false,
      "inputs": [
        {
          "indexed": false,
          "internalType": "uint8",
          "name": "version",
          "type": "uint8"
        }
      ],
      "name": "Initialized",
      "type": "event"
    },
    {
      "anonymous": false,
      "inputs": [
        {
          "indexed": false,
          "internalType": "uint256",
          "name": "orderId",
          "type": "uint256"
        }
      ],
      "name": "OrderCancelled",
      "type": "event"
    },
    {
      "anonymous": false,
      "inputs": [
        {
          "indexed": false,
          "internalType": "uint256",
          "name": "orderId",
          "type": "uint256"
        },
        {
          "indexed": false,
          "internalType": "uint256",
          "name": "createdAt",
          "type": "uint256"
        },
        {
          "indexed": false,
          "internalType": "uint256",
          "name": "assetId",
          "type": "uint256"
        },
        {
          "indexed": false,
          "internalType": "uint256",
          "name": "assetQuantity",
          "type": "uint256"
        },
        {
          "indexed": false,
          "internalType": "address",
          "name": "seller",
          "type": "address"
        },
        {
          "indexed": false,
          "internalType": "address",
          "name": "privateFor",
          "type": "address"
        },
        {
          "indexed": false,
          "internalType": "uint256",
          "name": "priceInWei",
          "type": "uint256"
        },
        {
          "indexed": false,
          "internalType": "bool",
          "name": "allowEbct",
          "type": "bool"
        },
        {
          "indexed": false,
          "internalType": "bool",
          "name": "isNft",
          "type": "bool"
        },
        {
          "indexed": false,
          "internalType": "bool",
          "name": "isPriceInBusd",
          "type": "bool"
        },
        {
          "indexed": false,
          "internalType": "bool",
          "name": "isBusdOnly",
          "type": "bool"
        },
        {
          "indexed": false,
          "internalType": "bool",
          "name": "isDutchAuction",
          "type": "bool"
        },
        {
          "indexed": false,
          "internalType": "bool",
          "name": "isPoolFuel",
          "type": "bool"
        }
      ],
      "name": "OrderCreated",
      "type": "event"
    },
    {
      "anonymous": false,
      "inputs": [
        {
          "indexed": false,
          "internalType": "uint256",
          "name": "orderId",
          "type": "uint256"
        },
        {
          "indexed": false,
          "internalType": "uint256",
          "name": "assetId",
          "type": "uint256"
        },
        {
          "indexed": false,
          "internalType": "uint256",
          "name": "availableQuantity",
          "type": "uint256"
        },
        {
          "indexed": false,
          "internalType": "uint256",
          "name": "boughtQuantity",
          "type": "uint256"
        },
        {
          "indexed": false,
          "internalType": "address",
          "name": "seller",
          "type": "address"
        },
        {
          "indexed": false,
          "internalType": "address",
          "name": "buyer",
          "type": "address"
        },
        {
          "indexed": false,
          "internalType": "uint256",
          "name": "originalPriceInWei",
          "type": "uint256"
        },
        {
          "indexed": false,
          "internalType": "uint256",
          "name": "pricePaidInWei",
          "type": "uint256"
        },
        {
          "indexed": false,
          "internalType": "bool",
          "name": "originalPriceInBusd",
          "type": "bool"
        },
        {
          "indexed": false,
          "internalType": "bool",
          "name": "paidInBusd",
          "type": "bool"
        },
        {
          "indexed": false,
          "internalType": "bool",
          "name": "paidInEbct",
          "type": "bool"
        },
        {
          "indexed": false,
          "internalType": "bool",
          "name": "isNft",
          "type": "bool"
        }
      ],
      "name": "OrderExecuted",
      "type": "event"
    },
    {
      "anonymous": false,
      "inputs": [
        {
          "indexed": false,
          "internalType": "uint256",
          "name": "orderId",
          "type": "uint256"
        },
        {
          "indexed": false,
          "internalType": "uint256",
          "name": "previousQuantity",
          "type": "uint256"
        },
        {
          "indexed": false,
          "internalType": "uint256",
          "name": "newQuantity",
          "type": "uint256"
        }
      ],
      "name": "OrderUpdated",
      "type": "event"
    },
    {
      "anonymous": false,
      "inputs": [
        {
          "indexed": false,
          "internalType": "address",
          "name": "account",
          "type": "address"
        }
      ],
      "name": "Paused",
      "type": "event"
    },
    {
      "anonymous": false,
      "inputs": [
        {
          "indexed": false,
          "internalType": "uint256",
          "name": "orderId",
          "type": "uint256"
        },
        {
          "indexed": false,
          "internalType": "address",
          "name": "winner",
          "type": "address"
        },
        {
          "indexed": false,
          "internalType": "uint256",
          "name": "ebct",
          "type": "uint256"
        },
        {
          "indexed": false,
          "internalType": "uint256[]",
          "name": "resources",
          "type": "uint256[]"
        }
      ],
      "name": "PrizePaid",
      "type": "event"
    },
    {
      "anonymous": false,
      "inputs": [
        {
          "indexed": true,
          "internalType": "bytes32",
          "name": "role",
          "type": "bytes32"
        },
        {
          "indexed": true,
          "internalType": "bytes32",
          "name": "previousAdminRole",
          "type": "bytes32"
        },
        {
          "indexed": true,
          "internalType": "bytes32",
          "name": "newAdminRole",
          "type": "bytes32"
        }
      ],
      "name": "RoleAdminChanged",
      "type": "event"
    },
    {
      "anonymous": false,
      "inputs": [
        {
          "indexed": true,
          "internalType": "bytes32",
          "name": "role",
          "type": "bytes32"
        },
        {
          "indexed": true,
          "internalType": "address",
          "name": "account",
          "type": "address"
        },
        {
          "indexed": true,
          "internalType": "address",
          "name": "sender",
          "type": "address"
        }
      ],
      "name": "RoleGranted",
      "type": "event"
    },
    {
      "anonymous": false,
      "inputs": [
        {
          "indexed": true,
          "internalType": "bytes32",
          "name": "role",
          "type": "bytes32"
        },
        {
          "indexed": true,
          "internalType": "address",
          "name": "account",
          "type": "address"
        },
        {
          "indexed": true,
          "internalType": "address",
          "name": "sender",
          "type": "address"
        }
      ],
      "name": "RoleRevoked",
      "type": "event"
    },
    {
      "anonymous": false,
      "inputs": [
        {
          "indexed": false,
          "internalType": "address",
          "name": "account",
          "type": "address"
        }
      ],
      "name": "Unpaused",
      "type": "event"
    },
    {
      "anonymous": false,
      "inputs": [
        {
          "indexed": false,
          "internalType": "address",
          "name": "from",
          "type": "address"
        },
        {
          "indexed": false,
          "internalType": "address",
          "name": "to",
          "type": "address"
        },
        {
          "indexed": false,
          "internalType": "uint256",
          "name": "amount",
          "type": "uint256"
        }
      ],
      "name": "drascaTransferred",
      "type": "event"
    },
    {
      "anonymous": false,
      "inputs": [
        {
          "indexed": false,
          "internalType": "address",
          "name": "from",
          "type": "address"
        },
        {
          "indexed": false,
          "internalType": "address",
          "name": "to",
          "type": "address"
        },
        {
          "indexed": false,
          "internalType": "uint256",
          "name": "amount",
          "type": "uint256"
        }
      ],
      "name": "eBctTransferred",
      "type": "event"
    },
    {
      "inputs": [],
      "name": "DEFAULT_ADMIN_ROLE",
      "outputs": [
        {
          "internalType": "bytes32",
          "name": "",
          "type": "bytes32"
        }
      ],
      "stateMutability": "view",
      "type": "function"
    },
    {
      "inputs": [
        {
          "internalType": "uint256",
          "name": "bctAmount",
          "type": "uint256"
        }
      ],
      "name": "bctToBusd",
      "outputs": [
        {
          "internalType": "uint256",
          "name": "",
          "type": "uint256"
        }
      ],
      "stateMutability": "view",
      "type": "function"
    },
    {
      "inputs": [
        {
          "internalType": "uint256",
          "name": "orderId",
          "type": "uint256"
        },
        {
          "internalType": "uint256",
          "name": "amount",
          "type": "uint256"
        },
        {
          "internalType": "bool",
          "name": "isPowerBid",
          "type": "bool"
        }
      ],
      "name": "bidOnAuction",
      "outputs": [],
      "stateMutability": "nonpayable",
      "type": "function"
    },
    {
      "inputs": [],
      "name": "blocklist",
      "outputs": [
        {
          "internalType": "contract IBlocklist",
          "name": "",
          "type": "address"
        }
      ],
      "stateMutability": "view",
      "type": "function"
    },
    {
      "inputs": [],
      "name": "burnFeePct",
      "outputs": [
        {
          "internalType": "uint256",
          "name": "",
          "type": "uint256"
        }
      ],
      "stateMutability": "view",
      "type": "function"
    },
    {
      "inputs": [
        {
          "internalType": "uint256",
          "name": "busdAmount",
          "type": "uint256"
        }
      ],
      "name": "busdToBct",
      "outputs": [
        {
          "internalType": "uint256",
          "name": "",
          "type": "uint256"
        }
      ],
      "stateMutability": "view",
      "type": "function"
    },
    {
      "inputs": [
        {
          "internalType": "uint256",
          "name": "orderId",
          "type": "uint256"
        }
      ],
      "name": "cancelOrder",
      "outputs": [],
      "stateMutability": "nonpayable",
      "type": "function"
    },
    {
      "inputs": [
        {
          "internalType": "uint256[]",
          "name": "orderIds",
          "type": "uint256[]"
        }
      ],
      "name": "cancelOrders",
      "outputs": [],
      "stateMutability": "nonpayable",
      "type": "function"
    },
    {
      "inputs": [],
      "name": "clearAllOrders",
      "outputs": [],
      "stateMutability": "nonpayable",
      "type": "function"
    },
    {
      "inputs": [],
      "name": "contracts",
      "outputs": [
        {
          "internalType": "contract MHIERC20",
          "name": "bct",
          "type": "address"
        },
        {
          "internalType": "contract MHIERC20",
          "name": "busd",
          "type": "address"
        },
        {
          "internalType": "contract MHIERC721",
          "name": "nft",
          "type": "address"
        },
        {
          "internalType": "contract ICommunityPool",
          "name": "pool",
          "type": "address"
        },
        {
          "internalType": "contract IBkFarmForMarketplace",
          "name": "farm",
          "type": "address"
        }
      ],
      "stateMutability": "view",
      "type": "function"
    },
    {
      "inputs": [
        {
          "components": [
            {
              "internalType": "bool",
              "name": "isNft",
              "type": "bool"
            },
            {
              "internalType": "uint256",
              "name": "id",
              "type": "uint256"
            },
            {
              "internalType": "uint256",
              "name": "quantity",
              "type": "uint256"
            }
          ],
          "internalType": "struct BkMarketplaceV2.Asset",
          "name": "asset",
          "type": "tuple"
        },
        {
          "components": [
            {
              "internalType": "bool",
              "name": "isNominalInBusd",
              "type": "bool"
            },
            {
              "internalType": "bool",
              "name": "isBusdOnly",
              "type": "bool"
            },
            {
              "internalType": "bool",
              "name": "allowEbct",
              "type": "bool"
            },
            {
              "internalType": "uint256",
              "name": "amount",
              "type": "uint256"
            },
            {
              "internalType": "uint256",
              "name": "secondaryReceiverPct",
              "type": "uint256"
            }
          ],
          "internalType": "struct BkMarketplaceV2.Price",
          "name": "price",
          "type": "tuple"
        },
        {
          "components": [
            {
              "internalType": "address",
              "name": "seller",
              "type": "address"
            },
            {
              "internalType": "address",
              "name": "secondaryReceiver",
              "type": "address"
            },
            {
              "internalType": "address",
              "name": "privateFor",
              "type": "address"
            }
          ],
          "internalType": "struct BkMarketplaceV2.Players",
          "name": "players",
          "type": "tuple"
        },
        {
          "internalType": "bool",
          "name": "isDutchAuction",
          "type": "bool"
        },
        {
          "internalType": "bool",
          "name": "isPoolFuel",
          "type": "bool"
        }
      ],
      "name": "createOrder",
      "outputs": [],
      "stateMutability": "nonpayable",
      "type": "function"
    },
    {
      "inputs": [],
      "name": "eBctPct",
      "outputs": [
        {
          "internalType": "uint256",
          "name": "",
          "type": "uint256"
        }
      ],
      "stateMutability": "view",
      "type": "function"
    },
    {
      "inputs": [
        {
          "internalType": "uint256",
          "name": "orderId",
          "type": "uint256"
        },
        {
          "internalType": "uint256",
          "name": "quantity",
          "type": "uint256"
        },
        {
          "internalType": "bool",
          "name": "payWithBusd",
          "type": "bool"
        },
        {
          "internalType": "bool",
          "name": "payWithEbct",
          "type": "bool"
        }
      ],
      "name": "executeOrder",
      "outputs": [],
      "stateMutability": "nonpayable",
      "type": "function"
    },
    {
      "inputs": [],
      "name": "gasPriceLimit",
      "outputs": [
        {
          "internalType": "uint256",
          "name": "",
          "type": "uint256"
        }
      ],
      "stateMutability": "view",
      "type": "function"
    },
    {
      "inputs": [],
      "name": "getAllOrders",
      "outputs": [
        {
          "components": [
            {
              "internalType": "uint256",
              "name": "id",
              "type": "uint256"
            },
            {
              "internalType": "uint256",
              "name": "createdAt",
              "type": "uint256"
            },
            {
              "internalType": "bool",
              "name": "isActive",
              "type": "bool"
            },
            {
              "internalType": "bool",
              "name": "isDutchAuction",
              "type": "bool"
            },
            {
              "internalType": "bool",
              "name": "isPoolFuel",
              "type": "bool"
            },
            {
              "components": [
                {
                  "internalType": "bool",
                  "name": "isNft",
                  "type": "bool"
                },
                {
                  "internalType": "uint256",
                  "name": "id",
                  "type": "uint256"
                },
                {
                  "internalType": "uint256",
                  "name": "quantity",
                  "type": "uint256"
                }
              ],
              "internalType": "struct BkMarketplaceV2.Asset",
              "name": "asset",
              "type": "tuple"
            },
            {
              "components": [
                {
                  "internalType": "bool",
                  "name": "isNominalInBusd",
                  "type": "bool"
                },
                {
                  "internalType": "bool",
                  "name": "isBusdOnly",
                  "type": "bool"
                },
                {
                  "internalType": "bool",
                  "name": "allowEbct",
                  "type": "bool"
                },
                {
                  "internalType": "uint256",
                  "name": "amount",
                  "type": "uint256"
                },
                {
                  "internalType": "uint256",
                  "name": "secondaryReceiverPct",
                  "type": "uint256"
                }
              ],
              "internalType": "struct BkMarketplaceV2.Price",
              "name": "price",
              "type": "tuple"
            },
            {
              "components": [
                {
                  "internalType": "address",
                  "name": "seller",
                  "type": "address"
                },
                {
                  "internalType": "address",
                  "name": "secondaryReceiver",
                  "type": "address"
                },
                {
                  "internalType": "address",
                  "name": "privateFor",
                  "type": "address"
                }
              ],
              "internalType": "struct BkMarketplaceV2.Players",
              "name": "players",
              "type": "tuple"
            }
          ],
          "internalType": "struct BkMarketplaceV2.Order[]",
          "name": "",
          "type": "tuple[]"
        }
      ],
      "stateMutability": "view",
      "type": "function"
    },
    {
      "inputs": [
        {
          "internalType": "uint256",
          "name": "orderId",
          "type": "uint256"
        }
      ],
      "name": "getAuctionCurrentPrice",
      "outputs": [
        {
          "components": [
            {
              "internalType": "bool",
              "name": "isNominalInBusd",
              "type": "bool"
            },
            {
              "internalType": "bool",
              "name": "isBusdOnly",
              "type": "bool"
            },
            {
              "internalType": "bool",
              "name": "allowEbct",
              "type": "bool"
            },
            {
              "internalType": "uint256",
              "name": "amount",
              "type": "uint256"
            },
            {
              "internalType": "uint256",
              "name": "secondaryReceiverPct",
              "type": "uint256"
            }
          ],
          "internalType": "struct BkMarketplaceV2.Price",
          "name": "price",
          "type": "tuple"
        }
      ],
      "stateMutability": "view",
      "type": "function"
    },
    {
      "inputs": [
        {
          "internalType": "uint256",
          "name": "limit",
          "type": "uint256"
        }
      ],
      "name": "getLatestOrders",
      "outputs": [
        {
          "components": [
            {
              "internalType": "uint256",
              "name": "id",
              "type": "uint256"
            },
            {
              "internalType": "uint256",
              "name": "createdAt",
              "type": "uint256"
            },
            {
              "internalType": "bool",
              "name": "isActive",
              "type": "bool"
            },
            {
              "internalType": "bool",
              "name": "isDutchAuction",
              "type": "bool"
            },
            {
              "internalType": "bool",
              "name": "isPoolFuel",
              "type": "bool"
            },
            {
              "components": [
                {
                  "internalType": "bool",
                  "name": "isNft",
                  "type": "bool"
                },
                {
                  "internalType": "uint256",
                  "name": "id",
                  "type": "uint256"
                },
                {
                  "internalType": "uint256",
                  "name": "quantity",
                  "type": "uint256"
                }
              ],
              "internalType": "struct BkMarketplaceV2.Asset",
              "name": "asset",
              "type": "tuple"
            },
            {
              "components": [
                {
                  "internalType": "bool",
                  "name": "isNominalInBusd",
                  "type": "bool"
                },
                {
                  "internalType": "bool",
                  "name": "isBusdOnly",
                  "type": "bool"
                },
                {
                  "internalType": "bool",
                  "name": "allowEbct",
                  "type": "bool"
                },
                {
                  "internalType": "uint256",
                  "name": "amount",
                  "type": "uint256"
                },
                {
                  "internalType": "uint256",
                  "name": "secondaryReceiverPct",
                  "type": "uint256"
                }
              ],
              "internalType": "struct BkMarketplaceV2.Price",
              "name": "price",
              "type": "tuple"
            },
            {
              "components": [
                {
                  "internalType": "address",
                  "name": "seller",
                  "type": "address"
                },
                {
                  "internalType": "address",
                  "name": "secondaryReceiver",
                  "type": "address"
                },
                {
                  "internalType": "address",
                  "name": "privateFor",
                  "type": "address"
                }
              ],
              "internalType": "struct BkMarketplaceV2.Players",
              "name": "players",
              "type": "tuple"
            }
          ],
          "internalType": "struct BkMarketplaceV2.Order[]",
          "name": "_orders",
          "type": "tuple[]"
        }
      ],
      "stateMutability": "view",
      "type": "function"
    },
    {
      "inputs": [
        {
          "internalType": "address",
          "name": "merchant",
          "type": "address"
        }
      ],
      "name": "getMerchant",
      "outputs": [
        {
          "components": [
            {
              "internalType": "uint256",
              "name": "auctions",
              "type": "uint256"
            },
            {
              "internalType": "uint256",
              "name": "sales",
              "type": "uint256"
            },
            {
              "internalType": "uint256",
              "name": "poolFuel",
              "type": "uint256"
            }
          ],
          "internalType": "struct BkMarketplaceV2.Merchant",
          "name": "",
          "type": "tuple"
        }
      ],
      "stateMutability": "view",
      "type": "function"
    },
    {
      "inputs": [
        {
          "internalType": "uint256",
          "name": "orderId",
          "type": "uint256"
        }
      ],
      "name": "getOrder",
      "outputs": [
        {
          "components": [
            {
              "internalType": "uint256",
              "name": "id",
              "type": "uint256"
            },
            {
              "internalType": "uint256",
              "name": "createdAt",
              "type": "uint256"
            },
            {
              "internalType": "bool",
              "name": "isActive",
              "type": "bool"
            },
            {
              "internalType": "bool",
              "name": "isDutchAuction",
              "type": "bool"
            },
            {
              "internalType": "bool",
              "name": "isPoolFuel",
              "type": "bool"
            },
            {
              "components": [
                {
                  "internalType": "bool",
                  "name": "isNft",
                  "type": "bool"
                },
                {
                  "internalType": "uint256",
                  "name": "id",
                  "type": "uint256"
                },
                {
                  "internalType": "uint256",
                  "name": "quantity",
                  "type": "uint256"
                }
              ],
              "internalType": "struct BkMarketplaceV2.Asset",
              "name": "asset",
              "type": "tuple"
            },
            {
              "components": [
                {
                  "internalType": "bool",
                  "name": "isNominalInBusd",
                  "type": "bool"
                },
                {
                  "internalType": "bool",
                  "name": "isBusdOnly",
                  "type": "bool"
                },
                {
                  "internalType": "bool",
                  "name": "allowEbct",
                  "type": "bool"
                },
                {
                  "internalType": "uint256",
                  "name": "amount",
                  "type": "uint256"
                },
                {
                  "internalType": "uint256",
                  "name": "secondaryReceiverPct",
                  "type": "uint256"
                }
              ],
              "internalType": "struct BkMarketplaceV2.Price",
              "name": "price",
              "type": "tuple"
            },
            {
              "components": [
                {
                  "internalType": "address",
                  "name": "seller",
                  "type": "address"
                },
                {
                  "internalType": "address",
                  "name": "secondaryReceiver",
                  "type": "address"
                },
                {
                  "internalType": "address",
                  "name": "privateFor",
                  "type": "address"
                }
              ],
              "internalType": "struct BkMarketplaceV2.Players",
              "name": "players",
              "type": "tuple"
            }
          ],
          "internalType": "struct BkMarketplaceV2.Order",
          "name": "",
          "type": "tuple"
        }
      ],
      "stateMutability": "view",
      "type": "function"
    },
    {
      "inputs": [
        {
          "internalType": "uint256[]",
          "name": "orderIds",
          "type": "uint256[]"
        }
      ],
      "name": "getOrders",
      "outputs": [
        {
          "components": [
            {
              "internalType": "uint256",
              "name": "id",
              "type": "uint256"
            },
            {
              "internalType": "uint256",
              "name": "createdAt",
              "type": "uint256"
            },
            {
              "internalType": "bool",
              "name": "isActive",
              "type": "bool"
            },
            {
              "internalType": "bool",
              "name": "isDutchAuction",
              "type": "bool"
            },
            {
              "internalType": "bool",
              "name": "isPoolFuel",
              "type": "bool"
            },
            {
              "components": [
                {
                  "internalType": "bool",
                  "name": "isNft",
                  "type": "bool"
                },
                {
                  "internalType": "uint256",
                  "name": "id",
                  "type": "uint256"
                },
                {
                  "internalType": "uint256",
                  "name": "quantity",
                  "type": "uint256"
                }
              ],
              "internalType": "struct BkMarketplaceV2.Asset",
              "name": "asset",
              "type": "tuple"
            },
            {
              "components": [
                {
                  "internalType": "bool",
                  "name": "isNominalInBusd",
                  "type": "bool"
                },
                {
                  "internalType": "bool",
                  "name": "isBusdOnly",
                  "type": "bool"
                },
                {
                  "internalType": "bool",
                  "name": "allowEbct",
                  "type": "bool"
                },
                {
                  "internalType": "uint256",
                  "name": "amount",
                  "type": "uint256"
                },
                {
                  "internalType": "uint256",
                  "name": "secondaryReceiverPct",
                  "type": "uint256"
                }
              ],
              "internalType": "struct BkMarketplaceV2.Price",
              "name": "price",
              "type": "tuple"
            },
            {
              "components": [
                {
                  "internalType": "address",
                  "name": "seller",
                  "type": "address"
                },
                {
                  "internalType": "address",
                  "name": "secondaryReceiver",
                  "type": "address"
                },
                {
                  "internalType": "address",
                  "name": "privateFor",
                  "type": "address"
                }
              ],
              "internalType": "struct BkMarketplaceV2.Players",
              "name": "players",
              "type": "tuple"
            }
          ],
          "internalType": "struct BkMarketplaceV2.Order[]",
          "name": "_orders",
          "type": "tuple[]"
        }
      ],
      "stateMutability": "view",
      "type": "function"
    },
    {
      "inputs": [
        {
          "internalType": "bytes32",
          "name": "role",
          "type": "bytes32"
        }
      ],
      "name": "getRoleAdmin",
      "outputs": [
        {
          "internalType": "bytes32",
          "name": "",
          "type": "bytes32"
        }
      ],
      "stateMutability": "view",
      "type": "function"
    },
    {
      "inputs": [],
      "name": "gracePeriod",
      "outputs": [
        {
          "internalType": "uint256",
          "name": "",
          "type": "uint256"
        }
      ],
      "stateMutability": "view",
      "type": "function"
    },
    {
      "inputs": [
        {
          "internalType": "bytes32",
          "name": "role",
          "type": "bytes32"
        },
        {
          "internalType": "address",
          "name": "account",
          "type": "address"
        }
      ],
      "name": "grantRole",
      "outputs": [],
      "stateMutability": "nonpayable",
      "type": "function"
    },
    {
      "inputs": [],
      "name": "hasBlocklist",
      "outputs": [
        {
          "internalType": "bool",
          "name": "",
          "type": "bool"
        }
      ],
      "stateMutability": "view",
      "type": "function"
    },
    {
      "inputs": [
        {
          "internalType": "bytes32",
          "name": "role",
          "type": "bytes32"
        },
        {
          "internalType": "address",
          "name": "account",
          "type": "address"
        }
      ],
      "name": "hasRole",
      "outputs": [
        {
          "internalType": "bool",
          "name": "",
          "type": "bool"
        }
      ],
      "stateMutability": "view",
      "type": "function"
    },
    {
      "inputs": [
        {
          "internalType": "address",
          "name": "operator",
          "type": "address"
        }
      ],
      "name": "initialize",
      "outputs": [],
      "stateMutability": "nonpayable",
      "type": "function"
    },
    {
      "inputs": [],
      "name": "lockPeriod",
      "outputs": [
        {
          "internalType": "uint256",
          "name": "",
          "type": "uint256"
        }
      ],
      "stateMutability": "view",
      "type": "function"
    },
    {
      "inputs": [
        {
          "internalType": "address",
          "name": "",
          "type": "address"
        }
      ],
      "name": "merchants",
      "outputs": [
        {
          "internalType": "uint256",
          "name": "auctions",
          "type": "uint256"
        },
        {
          "internalType": "uint256",
          "name": "sales",
          "type": "uint256"
        },
        {
          "internalType": "uint256",
          "name": "poolFuel",
          "type": "uint256"
        }
      ],
      "stateMutability": "view",
      "type": "function"
    },
    {
      "inputs": [],
      "name": "onERC721Received",
      "outputs": [
        {
          "internalType": "bytes4",
          "name": "",
          "type": "bytes4"
        }
      ],
      "stateMutability": "pure",
      "type": "function"
    },
    {
      "inputs": [
        {
          "internalType": "uint256",
          "name": "",
          "type": "uint256"
        }
      ],
      "name": "orderIdToAllowedBlock",
      "outputs": [
        {
          "internalType": "uint256",
          "name": "",
          "type": "uint256"
        }
      ],
      "stateMutability": "view",
      "type": "function"
    },
    {
      "inputs": [
        {
          "internalType": "uint256",
          "name": "",
          "type": "uint256"
        }
      ],
      "name": "orderIdToBids",
      "outputs": [
        {
          "internalType": "uint256",
          "name": "",
          "type": "uint256"
        }
      ],
      "stateMutability": "view",
      "type": "function"
    },
    {
      "inputs": [
        {
          "internalType": "uint256",
          "name": "",
          "type": "uint256"
        }
      ],
      "name": "orderIdToOrderIndex",
      "outputs": [
        {
          "internalType": "uint256",
          "name": "",
          "type": "uint256"
        }
      ],
      "stateMutability": "view",
      "type": "function"
    },
    {
      "inputs": [
        {
          "internalType": "uint256",
          "name": "",
          "type": "uint256"
        }
      ],
      "name": "orderIdToRemainingStableTokens",
      "outputs": [
        {
          "internalType": "uint256",
          "name": "",
          "type": "uint256"
        }
      ],
      "stateMutability": "view",
      "type": "function"
    },
    {
      "inputs": [
        {
          "internalType": "uint256",
          "name": "",
          "type": "uint256"
        }
      ],
      "name": "orders",
      "outputs": [
        {
          "internalType": "uint256",
          "name": "id",
          "type": "uint256"
        },
        {
          "internalType": "uint256",
          "name": "createdAt",
          "type": "uint256"
        },
        {
          "internalType": "bool",
          "name": "isActive",
          "type": "bool"
        },
        {
          "internalType": "bool",
          "name": "isDutchAuction",
          "type": "bool"
        },
        {
          "internalType": "bool",
          "name": "isPoolFuel",
          "type": "bool"
        },
        {
          "components": [
            {
              "internalType": "bool",
              "name": "isNft",
              "type": "bool"
            },
            {
              "internalType": "uint256",
              "name": "id",
              "type": "uint256"
            },
            {
              "internalType": "uint256",
              "name": "quantity",
              "type": "uint256"
            }
          ],
          "internalType": "struct BkMarketplaceV2.Asset",
          "name": "asset",
          "type": "tuple"
        },
        {
          "components": [
            {
              "internalType": "bool",
              "name": "isNominalInBusd",
              "type": "bool"
            },
            {
              "internalType": "bool",
              "name": "isBusdOnly",
              "type": "bool"
            },
            {
              "internalType": "bool",
              "name": "allowEbct",
              "type": "bool"
            },
            {
              "internalType": "uint256",
              "name": "amount",
              "type": "uint256"
            },
            {
              "internalType": "uint256",
              "name": "secondaryReceiverPct",
              "type": "uint256"
            }
          ],
          "internalType": "struct BkMarketplaceV2.Price",
          "name": "price",
          "type": "tuple"
        },
        {
          "components": [
            {
              "internalType": "address",
              "name": "seller",
              "type": "address"
            },
            {
              "internalType": "address",
              "name": "secondaryReceiver",
              "type": "address"
            },
            {
              "internalType": "address",
              "name": "privateFor",
              "type": "address"
            }
          ],
          "internalType": "struct BkMarketplaceV2.Players",
          "name": "players",
          "type": "tuple"
        }
      ],
      "stateMutability": "view",
      "type": "function"
    },
    {
      "inputs": [],
      "name": "pause",
      "outputs": [],
      "stateMutability": "nonpayable",
      "type": "function"
    },
    {
      "inputs": [],
      "name": "paused",
      "outputs": [
        {
          "internalType": "bool",
          "name": "",
          "type": "bool"
        }
      ],
      "stateMutability": "view",
      "type": "function"
    },
    {
      "inputs": [
        {
          "internalType": "bytes32",
          "name": "role",
          "type": "bytes32"
        },
        {
          "internalType": "address",
          "name": "account",
          "type": "address"
        }
      ],
      "name": "renounceRole",
      "outputs": [],
      "stateMutability": "nonpayable",
      "type": "function"
    },
    {
      "inputs": [],
      "name": "reservedStableTokens",
      "outputs": [
        {
          "internalType": "uint256",
          "name": "",
          "type": "uint256"
        }
      ],
      "stateMutability": "view",
      "type": "function"
    },
    {
      "inputs": [
        {
          "internalType": "bytes32",
          "name": "role",
          "type": "bytes32"
        },
        {
          "internalType": "address",
          "name": "account",
          "type": "address"
        }
      ],
      "name": "revokeRole",
      "outputs": [],
      "stateMutability": "nonpayable",
      "type": "function"
    },
    {
      "inputs": [
        {
          "internalType": "address",
          "name": "_bct",
          "type": "address"
        },
        {
          "internalType": "address",
          "name": "_busd",
          "type": "address"
        },
        {
          "internalType": "address",
          "name": "_nft",
          "type": "address"
        },
        {
          "internalType": "address",
          "name": "_pool",
          "type": "address"
        },
        {
          "internalType": "address",
          "name": "_farm",
          "type": "address"
        }
      ],
      "name": "setContracts",
      "outputs": [],
      "stateMutability": "nonpayable",
      "type": "function"
    },
    {
      "inputs": [
        {
          "internalType": "bytes4",
          "name": "interfaceId",
          "type": "bytes4"
        }
      ],
      "name": "supportsInterface",
      "outputs": [
        {
          "internalType": "bool",
          "name": "",
          "type": "bool"
        }
      ],
      "stateMutability": "view",
      "type": "function"
    },
    {
      "inputs": [],
      "name": "totalOrderCountEver",
      "outputs": [
        {
          "internalType": "uint256",
          "name": "",
          "type": "uint256"
        }
      ],
      "stateMutability": "view",
      "type": "function"
    },
    {
      "inputs": [],
      "name": "unpause",
      "outputs": [],
      "stateMutability": "nonpayable",
      "type": "function"
    }
  ],
  "bytecode": "0x608060405234801561001057600080fd5b50614f1d806100206000396000f3fe608060405234801561001057600080fd5b50600436106102695760003560e01c806381b0ba1111610151578063b55fb574116100c3578063d64e539611610087578063d64e5396146105c1578063e3d28ea1146105ec578063e5c815e4146105ff578063ee14e93914610608578063f63bf8bd14610652578063fbe13d3a1461066557600080fd5b8063b55fb5741461055f578063c4d66de814610572578063d09ef24114610585578063d547741f146105a5578063d5a12372146105b857600080fd5b8063a18fc7eb11610115578063a18fc7eb146104a6578063a217fddf146104c6578063a593d191146104ce578063a85c38ef146104ee578063a8fcc41714610515578063b2734eaf1461052a57600080fd5b806381b0ba11146104705780638456cb591461047957806391d1485414610481578063961a929c14610494578063a06db7dc1461049d57600080fd5b80633fd8b02f116101ea5780635315450f116101ae5780635315450f146103b057806358ab482e146103c35780635c975abb146103e3578063634210f4146103ee5780636c0f79b6146104025780637bea0d1c1461046857600080fd5b80633fd8b02f1461036557806341cba1241461036e5780634a47f2f114610381578063514fcac71461038a57806351fbacd91461039d57600080fd5b806328816bb11161023157806328816bb1146103045780632f2ff15d146103245780632f65ef281461033757806336568abe1461034a5780633f4ba83a1461035d57600080fd5b806301ffc9a71461026e578063036520271461029657806314d70ebe146102b657806320999973146102d7578063248a9ca3146102e1575b600080fd5b61028161027c3660046144aa565b610685565b60405190151581526020015b60405180910390f35b6102a96102a4366004614587565b6106bc565b60405161028d91906146f5565b6102c96102c4366004614744565b610777565b60405190815260200161028d565b6102df6107f5565b005b6102c96102ef366004614744565b60009081526069602052604090206001015490565b6102c9610312366004614744565b60db6020526000908152604090205481565b6102df610332366004614774565b6108da565b6102df6103453660046147b9565b610904565b6102df610358366004614774565b610dae565b6102df610e28565b6102c960005481565b6102a961037c366004614744565b610e4b565b6102c960d75481565b6102df610398366004614744565b611035565b6102df6103ab3660046147f2565b6112e9565b6102df6103be36600461488b565b611e5a565b6102c96103d1366004614744565b60d56020526000908152604090205481565b609b5460ff16610281565b60045461028190600160a01b900460ff1681565b60cd5460ce5460cf5460d05460d15461042e946001600160a01b03908116948116938116928116911685565b604080516001600160a01b03968716815294861660208601529285169284019290925283166060830152909116608082015260a00161028d565b6102a9612471565b6102c960dc5481565b6102df6125c2565b61028161048f366004614774565b6125e2565b6102c960035481565b6102c960d65481565b6102c96104b4366004614744565b60d96020526000908152604090205481565b6102c9600081565b6104e16104dc366004614744565b61260d565b60405161028d919061497d565b6105016104fc366004614744565b6126c2565b60405161028d98979695949392919061498b565b604051630a85bd0160e11b815260200161028d565b61053d610538366004614a1c565b6127ad565b604080518251815260208084015190820152918101519082015260600161028d565b6102df61056d366004614587565b612813565b6102df610580366004614a1c565b612853565b610598610593366004614744565b612aaa565b60405161028d9190614a37565b6102df6105b3366004614774565b612be9565b6102c960d45481565b6004546105d4906001600160a01b031681565b6040516001600160a01b03909116815260200161028d565b6102c96105fa366004614744565b612c0e565b6102c960d85481565b610637610616366004614a1c565b60d26020526000908152604090208054600182015460029092015490919083565b6040805193845260208401929092529082015260600161028d565b6102df610660366004614a46565b612c40565b6102c9610673366004614744565b60da6020526000908152604090205481565b60006001600160e01b03198216637965db0b60e01b14806106b657506301ffc9a760e01b6001600160e01b03198316145b92915050565b606081516001600160401b038111156106d7576106d76144d4565b60405190808252806020026020018201604052801561071057816020015b6106fd614412565b8152602001906001900390816106f55790505b50905060005b82518110156107715761074183828151811061073457610734614a9f565b6020026020010151612aaa565b82828151811061075357610753614a9f565b6020026020010181905250808061076990614acb565b915050610716565b50919050565b60d05460405163526267fd60e11b8152600481018390526000916001600160a01b03169063a4c4cffa906024015b60206040518083038186803b1580156107bd57600080fd5b505afa1580156107d1573d6000803e3d6000fd5b505050506040513d601f19601f820116820180604052508101906106b69190614ae6565b600080516020614ec883398151915261080d81612d03565b60d35460009061081f90600190614aff565b6001600160401b03811115610836576108366144d4565b60405190808252806020026020018201604052801561085f578160200160208202803683370190505b50905060015b60d3548110156108cc5760d3818154811061088257610882614a9f565b60009182526020909120600c90910201548261089f600184614aff565b815181106108af576108af614a9f565b6020908102919091010152806108c481614acb565b915050610865565b506108d681612813565b5050565b6000828152606960205260409020600101546108f581612d03565b6108ff8383612d0d565b505050565b60025460ff16156109305760405162461bcd60e51b815260040161092790614b16565b60405180910390fd5b6002805460ff19166001179055610945612d93565b6003543a11156109675760405162461bcd60e51b815260040161092790614b35565b61097033612ddb565b1561098d5760405162461bcd60e51b815260040161092790614b57565b600083815260d5602052604081205460d3805490919081106109b1576109b1614a9f565b60009182526020909120600c90910201600281015490915060ff166109fd5760405162461bcd60e51b8152602060048201526002602482015261062760f31b6044820152606401610927565b6002810154610100900460ff16610a3b5760405162461bcd60e51b8152602060048201526002602482015261313960f01b6044820152606401610927565b60098101546001600160a01b0316331415610a7d5760405162461bcd60e51b8152602060048201526002602482015261032360f41b6044820152606401610927565b6001810154610a8e90617080614b7c565b4310610ac15760405162461bcd60e51b8152602060048201526002602482015261323160f01b6044820152606401610927565b8115610ae7576007810154606490610ada906070614b94565b610ae49190614bb3565b92505b6007810154606490610afa906070614b94565b610b049190614bb3565b831015610b385760405162461bcd60e51b8152602060048201526002602482015261191960f11b6044820152606401610927565b600b8101546001600160a01b0316331415610b7a5760405162461bcd60e51b8152602060048201526002602482015261323360f01b6044820152606401610927565b60ce546040516323b872dd60e01b81526001600160a01b03909116906323b872dd90610bae90339030908890600401614bd5565b600060405180830381600087803b158015610bc857600080fd5b505af1158015610bdc573d6000803e3d6000fd5b50505050600b8101546001600160a01b031660008115801590610c0f575060098301546001600160a01b03838116911614155b15610ced576007830154606490610c27906069614b94565b610c319190614bb3565b60ce5460405163a9059cbb60e01b81526001600160a01b0385811660048301526024820184905292935091169063a9059cbb90604401602060405180830381600087803b158015610c8157600080fd5b505af1158015610c95573d6000803e3d6000fd5b505050506040513d601f19601f82011682018060405250810190610cb99190614bf9565b50610cc48186614aff565b600087815260db602052604081208054909190610ce2908490614b7c565b90915550610cff9050565b600086815260db602052604090208590555b600b830180546001600160a01b0319163317905543600184015560078301859055600086815260da60205260408120805491610d3a83614acb565b9091555050604080518781523360208201529081018690526001600160a01b0383166060820152608081018290524360a08201527fad2529a9ad2367f375af47554a9660baca1657f811acefad9b2829aee5c019179060c0015b60405180910390a150506002805460ff1916905550505050565b6001600160a01b0381163314610e1e5760405162461bcd60e51b815260206004820152602f60248201527f416363657373436f6e74726f6c3a2063616e206f6e6c792072656e6f756e636560448201526e103937b632b9903337b91039b2b63360891b6064820152608401610927565b6108d68282612e76565b600080516020614ec8833981519152610e4081612d03565b610e48612edd565b50565b60d3546060906000838211610e61576000610e6b565b610e6b8483614aff565b9050610e778183614aff565b6001600160401b03811115610e8e57610e8e6144d4565b604051908082528060200260200182016040528015610ec757816020015b610eb4614412565b815260200190600190039081610eac5790505b509250805b8281101561102d5760d38181548110610ee757610ee7614a9f565b6000918252602091829020604080516101008082018352600c90940290920180548352600181015483860152600281015460ff808216151585850152858204811615156060808701919091526201000092839004821615156080808801919091528551808301875260038601548416151581526004860154818b015260058601548188015260a0808901919091528651908101875260068601548085161515825298890484161515818b01529390970490911615158285015260078301548282015260088301549582019590955260c08401528151938401825260098101546001600160a01b039081168552600a820154811695850195909552600b01549093169282019290925260e082015284610fff8484614aff565b8151811061100f5761100f614a9f565b6020026020010181905250808061102590614acb565b915050610ecc565b505050919050565b61103d612d93565b6003543a111561105f5760405162461bcd60e51b815260040161092790614b35565b61106833612ddb565b156110855760405162461bcd60e51b815260040161092790614b57565b600061109082612aaa565b8051909150821480156110a4575080604001515b6110d55760405162461bcd60e51b8152602060048201526002602482015261031360f41b6044820152606401610927565b60e0810151516001600160a01b03163314806111045750611104600080516020614ec8833981519152336125e2565b6111355760405162461bcd60e51b8152602060048201526002602482015261313160f01b6044820152606401610927565b60a08101516020810151815160409092015160e08401515191929161115986612f2f565b6040518681527f61b9399f2f0f32ca39ce8d7be32caed5ec22fe07a6daba3a467ed479ec6065829060200160405180910390a18261127a57600061119e856001614b7c565b6001600160401b038111156111b5576111b56144d4565b6040519080825280602002602001820160405280156111de578160200160208202803683370190505b5090506111ec836064614b94565b8186815181106111fe576111fe614a9f565b602090810291909101015260d15460405163b238d31960e01b81526001600160a01b039091169063b238d31990611242903090869060009081908890600401614c51565b600060405180830381600087803b15801561125c57600080fd5b505af1158015611270573d6000803e3d6000fd5b50505050506112e1565b60cf546040516323b872dd60e01b81526001600160a01b03909116906323b872dd906112ae90309085908990600401614bd5565b600060405180830381600087803b1580156112c857600080fd5b505af11580156112dc573d6000803e3d6000fd5b505050505b505050505050565b60025460ff161561130c5760405162461bcd60e51b815260040161092790614b16565b6002805460ff19166001179055611321612d93565b6003543a11156113435760405162461bcd60e51b815260040161092790614b35565b61134c33612ddb565b156113695760405162461bcd60e51b815260040161092790614b57565b336000908152600160205260409020544310156113b35760405162461bcd60e51b815260206004820152600860248201526731b7b7b63237bbb760c11b6044820152606401610927565b6113bc33613345565b60006113c785612aaa565b905080604001516113fe5760405162461bcd60e51b81526020600482015260016024820152603160f81b6044820152606401610927565b600085815260d96020526040902054431161143f5760405162461bcd60e51b81526020600482015260016024820152601960f91b6044820152606401610927565b60e0810151516001600160a01b0316331480159061146e575060e0810151602001516001600160a01b03163314155b61149e5760405162461bcd60e51b81526020600482015260016024820152603360f81b6044820152606401610927565b60e0810151604001516001600160a01b03163314806114cc575060e0810151604001516001600160a01b0316155b6114fc5760405162461bcd60e51b81526020600482015260016024820152600d60fa1b6044820152606401610927565b60a081015151801561150e5750836001145b806115195750600084115b6115495760405162461bcd60e51b81526020600482015260016024820152603560f81b6044820152606401610927565b8060c00151602001518061155e575080608001515b1561159457826115945760405162461bcd60e51b81526020600482015260016024820152600760fb1b6044820152606401610927565b81156115d3578060c00151604001516115d35760405162461bcd60e51b81526020600482015260016024820152603960f81b6044820152606401610927565b60008160c00151606001519050600082606001516115f5578260c001516115fe565b6115fe8761260d565b9050826060015161161e578581606001516116199190614b94565b611624565b80606001515b816060018181525050600083606001511561190f578360a001516040015187146116745760405162461bcd60e51b81526020600482015260016024820152601b60f91b6044820152606401610927565b602084015161168590617080614b7c565b4310156116b95760405162461bcd60e51b8152602060048201526002602482015261189960f11b6044820152606401610927565b60e0840151604001516001600160a01b031633146116fe5760405162461bcd60e51b8152602060048201526002602482015261323360f01b6044820152606401610927565b600088815260db602052604081205460dc805491929091611720908490614b7c565b909155505050606081015160e0840151516001600160a01b0316600090815260d26020526040812080549161175483614acb565b90915550506040805160198082526103408201909252600091602082016103208036833750505060008a815260da6020526040902054909150611798906064614b94565b816016815181106117ab576117ab614a9f565b60200260200101818152505060da60008a81526020019081526020016000205460326117d79190614b94565b816017815181106117ea576117ea614a9f565b60200260200101818152505060da60008a81526020019081526020016000205460196118169190614b94565b8160188151811061182957611829614a9f565b60209081029190910181019190915260008a815260da90915260408120546118529060fa614b94565b61186490670de0b6b3a7640000614b94565b60d1546040516304567ca960e11b81529192506001600160a01b0316906308acf9529061189990339085908790600401614c8b565b600060405180830381600087803b1580156118b357600080fd5b505af11580156118c7573d6000803e3d6000fd5b505050507faa629ae4fb4821590b1dbb00ee486eea3d9657cdc997071b55d681e1915f1a6a8a3383856040516119009493929190614cbb565b60405180910390a15050611b99565b8360a001516040015187111561194b5760405162461bcd60e51b81526020600482015260016024820152603760f81b6044820152606401610927565b6119a56040518060800160405280336001600160a01b031681526020018660e00151815260200184815260200160405180606001604052808a1515815260200189151581526020018860800151151581525081525061336e565b90508580156119bd57508360a0015160200151601514155b15611b99576040805160168082526102e08201909252600091602082016102c08036833701905050905060008560800151611a0957611a04670de0b6b3a764000084614bb3565b611a27565b670de0b6b3a7640000611a1d846032614b94565b611a279190614bb3565b90508082601581518110611a3d57611a3d614a9f565b602090810291909101015260d1546040516304567ca960e11b81526001600160a01b03909116906308acf95290611a7d9033906000908790600401614c8b565b600060405180830381600087803b158015611a9757600080fd5b505af1158015611aab573d6000803e3d6000fd5b505060d15460e0890151516040516304567ca960e11b81526001600160a01b0390921693506308acf9529250611ae8916000908790600401614c8b565b600060405180830381600087803b158015611b0257600080fd5b505af1158015611b16573d6000803e3d6000fd5b505050507f1249c3c2fcdc6e7920d0a837fa922afce682b7265e59c75ac4a7ddd360e8ccdf303383604051611b4d93929190614bd5565b60405180910390a160e0860151516040517f1249c3c2fcdc6e7920d0a837fa922afce682b7265e59c75ac4a7ddd360e8ccdf91611b8e913091908590614bd5565b60405180910390a150505b60e0840151516001600160a01b0316600090815260d260205260408120600101805491611bc583614acb565b909155505060a084015151611ccf5760008460a00151602001516001611beb9190614b7c565b6001600160401b03811115611c0257611c026144d4565b604051908082528060200260200182016040528015611c2b578160200160208202803683370190505b509050611c39886064614b94565b818660a001516020015181518110611c5357611c53614a9f565b602090810291909101015260d15460405163b238d31960e01b81526001600160a01b039091169063b238d31990611c97903090339060009081908890600401614c51565b600060405180830381600087803b158015611cb157600080fd5b505af1158015611cc5573d6000803e3d6000fd5b5050505050611d3d565b60cf5460a0850151602001516040516323b872dd60e01b81526001600160a01b03909216916323b872dd91611d0a9130913391600401614bd5565b600060405180830381600087803b158015611d2457600080fd5b505af1158015611d38573d6000803e3d6000fd5b505050505b7f55e5c5faba836ee00f897ace65821e477e158a25ac610fd675b598b5fccbef4a888560a00151602001518660a00151604001518a8860e00151600001513389888c60c00151600001518f8f8f60a0015160000151604051611e0d9c9b9a999897969594939291909b8c5260208c019a909a5260408b019890985260608a01969096526001600160a01b0394851660808a01529290931660a088015260c087015260e086019190915215156101008501521515610120840152151561014083015215156101608201526101800190565b60405180910390a18360a0015160400151871415611e3357611e2e88612f2f565b611e46565b611e46888560a0015160400151896133aa565b50506002805460ff19169055505050505050565b60025460ff1615611e7d5760405162461bcd60e51b815260040161092790614b16565b6002805460ff19166001179055611e92612d93565b6003543a1115611eb45760405162461bcd60e51b815260040161092790614b35565b611ebd33612ddb565b15611eda5760405162461bcd60e51b815260040161092790614b57565b33600090815260016020526040902054431015611f245760405162461bcd60e51b815260206004820152600860248201526731b7b7b63237bbb760c11b6044820152606401610927565b611f2d33613345565b6000846060015111611f655760405162461bcd60e51b81526020600482015260016024820152606160f81b6044820152606401610927565b606484608001511115611f9e5760405162461bcd60e51b81526020600482015260016024820152603160f91b6044820152606401610927565b84518015611fb0575084604001516001145b80611fbf575060008560400151115b611fef5760405162461bcd60e51b81526020600482015260016024820152606360f81b6044820152606401610927565b6120197f3c4a2d89ed8b4cf4347fec87df1c38410f8fc538bf9fd64c10f2717bc0feff36336125e2565b6120935760408301516001600160a01b03161561205c5760405162461bcd60e51b81526020600482015260016024820152601960fa1b6044820152606401610927565b811561208e5760405162461bcd60e51b81526020600482015260016024820152606560f81b6044820152606401610927565b612176565b81156121765760408301516001600160a01b031633146120d95760405162461bcd60e51b81526020600482015260016024820152600d60fb1b6044820152606401610927565b836020015161210e5760405162461bcd60e51b81526020600482015260016024820152606960f81b6044820152606401610927565b83516121405760405162461bcd60e51b81526020600482015260016024820152603560f91b6044820152606401610927565b8360400151156121765760405162461bcd60e51b81526020600482015260016024820152606b60f81b6044820152606401610927565b84516122755760008560200151600161218f9190614b7c565b6001600160401b038111156121a6576121a66144d4565b6040519080825280602002602001820160405280156121cf578160200160208202803683370190505b509050856040015160646121e39190614b94565b818760200151815181106121f9576121f9614a9f565b602090810291909101015260d15460405163b238d31960e01b81526001600160a01b039091169063b238d3199061223d903390309060009081908890600401614c51565b600060405180830381600087803b15801561225757600080fd5b505af115801561226b573d6000803e3d6000fd5b50505050506122df565b60cf5460208601516040516323b872dd60e01b81526001600160a01b03909216916323b872dd916122ac9133913091600401614bd5565b600060405180830381600087803b1580156122c657600080fd5b505af11580156122da573d6000803e3d6000fd5b505050505b801561235357836020015161231a5760405162461bcd60e51b81526020600482015260016024820152603360f91b6044820152606401610927565b8460200151601514156123535760405162461bcd60e51b81526020600482015260016024820152606760f81b6044820152606401610927565b60d48054908190600061236583614acb565b91905055506123b36040518061010001604052808381526020014381526020016001151581526020018515158152602001841515815260200188815260200187815260200186815250613446565b6020808701516040808901518751888301516060808c01518c8601518e518e518f8b015189518d8152439c81019c909c52988b0199909952928901959095526001600160a01b0393841660808901529290911660a087015260c086019190915290151560e0850152151561010084015290151561012083015215156101408201528315156101608201528215156101808201527fbb7e3525b3f590866b81920d4d607f051f65051616125833b3548843c960172d906101a001610d94565b606060d3805480602002602001604051908101604052809291908181526020016000905b828210156125b9576000848152602090819020604080516101008082018352600c87029093018054825260018082015483870152600282015460ff808216151585870152868204811615156060808701919091526201000092839004821615156080808801919091528751808301895260038701548416151581526004870154818c01526005870154818a015260a08089019190915288519081018952600687015480851615158252998a0484161515818c01529390980490911615158287015260078401548282015260088401549682019690965260c08401528351948501845260098201546001600160a01b039081168652600a830154811686880152600b909201549091169284019290925260e08101929092529083529092019101612495565b50505050905090565b600080516020614ec88339815191526125da81612d03565b610e48613735565b60009182526069602090815260408084206001600160a01b0393909316845291905290205460ff1690565b6040805160a081018252600080825260208201819052918101829052606081018290526080810191909152600082815260d5602052604090205460d38054909190811061265c5761265c614a9f565b60009182526020918290206040805160a081018252600c93909302909101600681015460ff808216151585526101008204811615159585019590955262010000900490931615159082015260078201546060820152600890910154608082015292915050565b60d381815481106126d257600080fd5b6000918252602091829020600c909102018054600182015460028301546040805160608082018352600387015460ff908116151583526004880154838a0152600588015483850152835160a08101855260068901548083161515825261010080820484161515838d01526201000091829004841615158388015260078b01548386015260088b015460808401528651948501875260098b01546001600160a01b039081168652600a8c015481169c86019c909c52600b909a0154909a1694830194909452959850939685841696840486169593049092169288565b6127d160405180606001604052806000815260200160008152602001600081525090565b506001600160a01b0316600090815260d26020908152604091829020825160608101845281548152600182015492810192909252600201549181019190915290565b60005b81518110156108d65761284182828151811061283457612834614a9f565b6020026020010151611035565b8061284b81614acb565b915050612816565b600454600160b01b900460ff161580801561287b57506004546001600160a81b90910460ff16105b8061289c5750303b15801561289c5750600454600160a81b900460ff166001145b6128ff5760405162461bcd60e51b815260206004820152602e60248201527f496e697469616c697a61626c653a20636f6e747261637420697320616c72656160448201526d191e481a5b9a5d1a585b1a5e995960921b6064820152608401610927565b6004805460ff60a81b1916600160a81b179055801561292c576004805460ff60b01b1916600160b01b1790555b612934613772565b61293c61379b565b6129476000836137cc565b61295f600080516020614ec8833981519152836137cc565b6129897f3c4a2d89ed8b4cf4347fec87df1c38410f8fc538bf9fd64c10f2717bc0feff36836137cc565b604080516101008101825260008082526020808301829052828401829052606080840183905260808085018490528551808301875284815280840185905280870185905260a0808701919091528651908101875284815280840185905280870185905280830185905290810184905260c0850152845190810185528281529081018290529283015260e0810191909152612a2281613446565b60d48054906000612a3283614acb565b9091555050600260d781905560d655612a4b6004600055565b612a5964012a05f200600355565b50608260d85580156108d6576004805460ff60b01b19169055604051600181527f7f26b83ff96e1f2b6a682f133852f6798a09c465da95921460cefb38474024989060200160405180910390a15050565b612ab2614412565b600082815260d5602052604090205460d380549091908110612ad657612ad6614a9f565b6000918252602091829020604080516101008082018352600c90940290920180548352600181015483860152600281015460ff808216151585850152858204811615156060808701919091526201000092839004821615156080808801919091528551808301875260038601548416151581526004860154818b015260058601548188015260a0808901919091528651908101875260068601548085161515825298890484161515818b01529390970490911615158285015260078301548282015260088301549582019590955260c08401528151938401825260098101546001600160a01b039081168552600a820154811695850195909552600b01549093169282019290925260e082015292915050565b600082815260696020526040902060010154612c0481612d03565b6108ff8383612e76565b60d054604051634ca1cccb60e11b8152600481018390526000916001600160a01b0316906399439996906024016107a5565b600080516020614ec8833981519152612c5881612d03565b6040805160a0810182526001600160a01b038881168083528882166020840181905288831684860181905288841660608601819052938816608090950185905260cd80546001600160a01b0319908116909417905560ce805484168317905560cf80548416909117905560d0805483168417905560d180549092169093179055915163095ea7b360e01b8152600481019290925260001960248301529063095ea7b3906044016112ae565b610e4881336137d6565b612d1782826125e2565b6108d65760008281526069602090815260408083206001600160a01b03851684529091529020805460ff19166001179055612d4f3390565b6001600160a01b0316816001600160a01b0316837f2f8788117e7eff1d82e926ec794901d17c78024a50270940304540a733656f0d60405160405180910390a45050565b609b5460ff1615612dd95760405162461bcd60e51b815260206004820152601060248201526f14185d5cd8589b194e881c185d5cd95960821b6044820152606401610927565b565b600454600090600160a01b900460ff16612df757506000919050565b60048054604051638e204c4360e01b81526001600160a01b0385811693820193909352911690638e204c439060240160206040518083038186803b158015612e3e57600080fd5b505afa158015612e52573d6000803e3d6000fd5b505050506040513d601f19601f820116820180604052508101906106b69190614bf9565b612e8082826125e2565b156108d65760008281526069602090815260408083206001600160a01b0385168085529252808320805460ff1916905551339285917ff6391f5c32d9c69d2a47ea670b442974b53935d1edc7fd64eb21e047a839171b9190a45050565b612ee561382f565b609b805460ff191690557f5db9ee0a495bf2e6ff9c91a7834c1ba4fdd244a5e8aa4e537bd38aeae4b073aa335b6040516001600160a01b03909116815260200160405180910390a1565b600081815260d5602052604090205460d35481108015612f4e57508015155b612f7f5760405162461bcd60e51b8152602060048201526002602482015261189b60f11b6044820152606401610927565b600060d38281548110612f9457612f94614a9f565b90600052602060002090600c02019050828160000154148015612fbb5750600281015460ff165b612fec5760405162461bcd60e51b8152602060048201526002602482015261313760f01b6044820152606401610927565b60028101805460ff1916905560d380546000919061300c90600190614aff565b8154811061301c5761301c614a9f565b6000918252602091829020604080516101008082018352600c90940290920180548352600181015483860152600281015460ff808216151585850152858204811615156060808701919091526201000092839004821615156080808801919091528551808301875260038601548416151581526004860154818b015260058601548188015260a0808901919091528651908101875260068601548085161515825298890484161515818b01529390970490911615158285015260078301548282015260088301549582019590955260c08401528151938401825260098101546001600160a01b039081168552600a820154811695850195909552600b01549093169282019290925260e08201528051909150841461328c578060d3848154811061314857613148614a9f565b600091825260208083208451600c93909302019182558381015160018301556040808501516002840180546060808901516080808b015161ffff1994851696151561ff00199081169790971761010093151584021762ff0000199081166201000092151583021790965560a08c0151805160038c01805460ff1916911515919091179055808a015160048c015588015160058b015560c08c0151805160068c018054838d0151848d015191909916921515909a169190911796151590940295909517909516951515909402949094179093559182015160078601550151600884015560e09094015180516009840180546001600160a01b03199081166001600160a01b039384161790915582840151600a86018054831691841691909117905591860151600b90940180549092169316929092179091558351825260d59052208390555b60d380548061329d5761329d614cf2565b60008281526020808220600c600019909401938402018281556001810183905560028101805462ffffff1990811690915560038201805460ff191690556004820184905560058201849055600682018054909116905560078101839055600881018390556009810180546001600160a01b0319908116909155600a8201805482169055600b909101805490911690559190925594815260d59094525050604082209190915550565b6000546133529043614b7c565b6001600160a01b03909116600090815260016020526040902055565b60608101515160009015613385576106b682613878565b8160600151602001511561339c576106b6826138b1565b6106b68261398f565b919050565b7fe9e92ca155f7f849e8406a526168717b9ff4b506da09f38a5543e7554edee45d83836133d78482614aff565b6040805193845260208401929092529082015260600160405180910390a1600083815260d5602052604090205460d38054839290811061341957613419614a9f565b90600052602060002090600c0201600301600201600082825461343c9190614aff565b9091555050505050565b60d3805460018082018355600083905283517f915c3eb987b20e1af620c1403197bf687fb7f18513b3a73fde6e78c7072c41a6600c909302928301556020808501517f915c3eb987b20e1af620c1403197bf687fb7f18513b3a73fde6e78c7072c41a78401556040808601517f915c3eb987b20e1af620c1403197bf687fb7f18513b3a73fde6e78c7072c41a8850180546060808a01516080808c015161ffff1994851696151561ff00199081169790971761010093151584021762ff0000199081166201000092151583021790965560a08d015180517f915c3eb987b20e1af620c1403197bf687fb7f18513b3a73fde6e78c7072c41a98d01805460ff1916911515919091179055808a01517f915c3eb987b20e1af620c1403197bf687fb7f18513b3a73fde6e78c7072c41aa8d01558801517f915c3eb987b20e1af620c1403197bf687fb7f18513b3a73fde6e78c7072c41ab8c015560c08d015180517f915c3eb987b20e1af620c1403197bf687fb7f18513b3a73fde6e78c7072c41ac8d018054838d0151848d015191909916921515909a16919091179615159094029590951790951695151590940294909417909355918201517f915c3eb987b20e1af620c1403197bf687fb7f18513b3a73fde6e78c7072c41ad87015501517f915c3eb987b20e1af620c1403197bf687fb7f18513b3a73fde6e78c7072c41ae85015560e086015180517f915c3eb987b20e1af620c1403197bf687fb7f18513b3a73fde6e78c7072c41af860180546001600160a01b03199081166001600160a01b0393841617909155938201517f915c3eb987b20e1af620c1403197bf687fb7f18513b3a73fde6e78c7072c41b08701805486169183169190911790559101517f915c3eb987b20e1af620c1403197bf687fb7f18513b3a73fde6e78c7072c41b1909401805490921693169290921790915590546137049190614aff565b8151600090815260d5602052604090205560d6546137229043614b7c565b9051600090815260d96020526040902055565b61373d612d93565b609b805460ff191660011790557f62e78cea01bee320cd4e420270b5ea74000d11b0c9f74754ebdbfc544b05a258612f123390565b600454600160b01b900460ff16612dd95760405162461bcd60e51b815260040161092790614d08565b600454600160b01b900460ff166137c45760405162461bcd60e51b815260040161092790614d08565b612dd9613a01565b6108d68282612d0d565b6137e082826125e2565b6108d6576137ed81613a36565b6137f8836020613a48565b604051602001613809929190614d83565b60408051601f198184030181529082905262461bcd60e51b825261092791600401614df8565b609b5460ff16612dd95760405162461bcd60e51b815260206004820152601460248201527314185d5cd8589b194e881b9bdd081c185d5cd95960621b6044820152606401610927565b60408101515160009061389b57613896826040015160600151610777565b6138a5565b8160400151606001515b90506133a58282613bea565b60008160400151604001516138ed5760405162461bcd60e51b8152602060048201526002602482015261313360f01b6044820152606401610927565b816040015160200151156139285760405162461bcd60e51b81526020600482015260026024820152610c4d60f21b6044820152606401610927565b60408201515161395957606460d85483604001516060015161394a9190614b94565b6139549190614bb3565b613983565b606460d85461396f846040015160600151612c0e565b6139799190614b94565b6139839190614bb3565b90506133a58282613e5a565b6000816040015160200151156139cc5760405162461bcd60e51b8152602060048201526002602482015261313560f01b6044820152606401610927565b6040820151516139e4578160400151606001516139f5565b6139f5826040015160600151612c0e565b90506133a58282613f4c565b600454600160b01b900460ff16613a2a5760405162461bcd60e51b815260040161092790614d08565b609b805460ff19169055565b60606106b66001600160a01b03831660145b60606000613a57836002614b94565b613a62906002614b7c565b6001600160401b03811115613a7957613a796144d4565b6040519080825280601f01601f191660200182016040528015613aa3576020820181803683370190505b509050600360fc1b81600081518110613abe57613abe614a9f565b60200101906001600160f81b031916908160001a905350600f60fb1b81600181518110613aed57613aed614a9f565b60200101906001600160f81b031916908160001a9053506000613b11846002614b94565b613b1c906001614b7c565b90505b6001811115613b94576f181899199a1a9b1b9c1cb0b131b232b360811b85600f1660108110613b5057613b50614a9f565b1a60f81b828281518110613b6657613b66614a9f565b60200101906001600160f81b031916908160001a90535060049490941c93613b8d81614e2b565b9050613b1f565b508315613be35760405162461bcd60e51b815260206004820181905260248201527f537472696e67733a20686578206c656e67746820696e73756666696369656e746044820152606401610927565b9392505050565b81606001516040015115613d1257602080830151516001600160a01b0316600090815260d2909152604081206002018054839290613c29908490614b7c565b909155505060ce5482516040516323b872dd60e01b81526001600160a01b03909216916323b872dd91613c629130908690600401614bd5565b600060405180830381600087803b158015613c7c57600080fd5b505af1158015613c90573d6000803e3d6000fd5b505060d054604051630d3990db60e21b8152600481018590526001600160a01b0390911692506334e6436c9150602401602060405180830381600087803b158015613cda57600080fd5b505af1158015613cee573d6000803e3d6000fd5b505050506040513d601f19601f820116820180604052508101906108ff9190614ae6565b600080600080613d2a858760400151608001516141ad565b895160208b0151519498509296509094509250613d5091613d4b8488614b7c565b614230565b613d67866000015187602001516020015185614230565b81156112e15760ce5486516040516323b872dd60e01b81526001600160a01b03909216916323b872dd91613da19130908790600401614bd5565b600060405180830381600087803b158015613dbb57600080fd5b505af1158015613dcf573d6000803e3d6000fd5b505060d054604051630d3990db60e21b8152600481018690526001600160a01b0390911692506334e6436c9150602401602060405180830381600087803b158015613e1957600080fd5b505af1158015613e2d573d6000803e3d6000fd5b505050506040513d601f19601f82011682018060405250810190613e519190614ae6565b50505050505050565b600080600080613e72858760400151608001516141ad565b895160208b0151519498509296509094509250613e9891613e938488614b7c565b614298565b613eaf866000015187602001516020015185614298565b81156112e15760d15486516040805160008152602081019182905263b1918c9560e01b9091526001600160a01b039092169163b1918c9591613ef691869060248101614c8b565b600060405180830381600087803b158015613f1057600080fd5b505af1158015613f24573d6000803e3d6000fd5b505050506040513d6000823e601f3d908101601f19168201604052613e519190810190614e42565b60d154825160405163366d7a6b60e21b81526001600160a01b039182166004820152600092919091169063d9b5e9ac9060240160206040518083038186803b158015613f9757600080fd5b505afa158015613fab573d6000803e3d6000fd5b505050506040513d601f19601f82011682018060405250810190613fcf9190614ae6565b9050600082821015613fe15781613fe3565b825b9050600083831015613ffe57613ff98385614aff565b614001565b60005b905081156140d857600080600080614021868a60400151608001516141ad565b8c5160208e0151519498509296509094509250614047916140428488614b7c565b614371565b61405e89600001518a602001516020015185614371565b81156140d35760d1548951604051631e59b34d60e11b81526001600160a01b0391821660048201526024810185905260006044820152911690633cb3669a90606401600060405180830381600087803b1580156140ba57600080fd5b505af11580156140ce573d6000803e3d6000fd5b505050505b505050505b80156141a6576000806000806140f6858a60400151608001516141ad565b8c5160208e015151949850929650909450925061411c916141178488614b7c565b6143d8565b61413389600001518a6020015160200151856143d8565b81156141a15760cd54895160405163079cc67960e41b81526001600160a01b039182166004820152602481018590529116906379cc679090604401600060405180830381600087803b15801561418857600080fd5b505af115801561419c573d6000803e3d6000fd5b505050505b505050505b5050505050565b600080600080600090506000606460d754886141c99190614b94565b6141d39190614bb3565b90506141df8282614aff565b92506064866141ee838a614aff565b6141f89190614b94565b6142029190614bb3565b93508183614210868a614aff565b61421a9190614aff565b6142249190614aff565b94505092959194509250565b80156108ff5760ce546040516323b872dd60e01b81526001600160a01b03909116906323b872dd9061426a90869086908690600401614bd5565b600060405180830381600087803b15801561428457600080fd5b505af1158015613e51573d6000803e3d6000fd5b80156108ff5760d1546001600160a01b031663b238d3198484600085816040519080825280602002602001820160405280156142de578160200160208202803683370190505b506040518663ffffffff1660e01b81526004016142ff959493929190614c51565b600060405180830381600087803b15801561431957600080fd5b505af115801561432d573d6000803e3d6000fd5b505050507f4bb45d1d94c3cc2ea51bc37e3446850ae2db949bfe7a06a04594b66d70027bb383838360405161436493929190614bd5565b60405180910390a1505050565b80156108ff5760d1546001600160a01b031663b238d3198484846000806040519080825280602002602001820160405280156143b7578160200160208202803683370190505b506040518663ffffffff1660e01b815260040161426a959493929190614c51565b80156108ff5760cd546040516323b872dd60e01b81526001600160a01b03909116906323b872dd9061426a90869086908690600401614bd5565b60408051610100810182526000808252602080830182905282840182905260608084018390526080840183905284519081018552828152908101829052928301529060a082019081526040805160a08101825260008082526020828101829052928201819052606082018190526080820152910190815260408051606081018252600080825260208281018290529282015291015290565b6000602082840312156144bc57600080fd5b81356001600160e01b031981168114613be357600080fd5b634e487b7160e01b600052604160045260246000fd5b604051606081016001600160401b038111828210171561450c5761450c6144d4565b60405290565b60405160a081016001600160401b038111828210171561450c5761450c6144d4565b604051601f8201601f191681016001600160401b038111828210171561455c5761455c6144d4565b604052919050565b60006001600160401b0382111561457d5761457d6144d4565b5060051b60200190565b6000602080838503121561459a57600080fd5b82356001600160401b038111156145b057600080fd5b8301601f810185136145c157600080fd5b80356145d46145cf82614564565b614534565b81815260059190911b820183019083810190878311156145f357600080fd5b928401925b82841015614611578335825292840192908401906145f8565b979650505050505050565b80511515825260208101511515602083015260408101511515604083015260608101516060830152608081015160808301525050565b805182526020810151602083015260408101511515604083015260608101511515606083015260808101511515608083015260a08101516146ac60a084018280511515825260208082015190830152604090810151910152565b5060c08101516146c061010084018261461c565b5060e0015180516001600160a01b039081166101a0840152602082015181166101c0840152604090910151166101e090910152565b6020808252825182820181905260009190848201906040850190845b8181101561473857614724838551614652565b928401926102009290920191600101614711565b50909695505050505050565b60006020828403121561475657600080fd5b5035919050565b80356001600160a01b03811681146133a557600080fd5b6000806040838503121561478757600080fd5b823591506147976020840161475d565b90509250929050565b8015158114610e4857600080fd5b80356133a5816147a0565b6000806000606084860312156147ce57600080fd5b833592506020840135915060408401356147e7816147a0565b809150509250925092565b6000806000806080858703121561480857600080fd5b84359350602085013592506040850135614821816147a0565b91506060850135614831816147a0565b939692955090935050565b60006060828403121561484e57600080fd5b6148566144ea565b90506148618261475d565b815261486f6020830161475d565b60208201526148806040830161475d565b604082015292915050565b60008060008060008587036101a08112156148a557600080fd5b60608112156148b357600080fd5b6148bb6144ea565b87356148c6816147a0565b81526020888101359082015260408089013590820152955060a0605f19820112156148f057600080fd5b506148f9614512565b6060870135614907816147a0565b81526080870135614917816147a0565b602082015260a087013561492a816147a0565b604082015260c0870135606082015260e08701356080820152935061495387610100880161483c565b925061496261016087016147ae565b915061497161018087016147ae565b90509295509295909350565b60a081016106b6828461461c565b8881526020810188905286151560408201528515156060820152841515608082015261020081016149d560a083018680511515825260208082015190830152604090810151910152565b6149e361010083018561461c565b82516001600160a01b039081166101a0840152602084015181166101c08401526040840151166101e08301529998505050505050505050565b600060208284031215614a2e57600080fd5b613be38261475d565b61020081016106b68284614652565b600080600080600060a08688031215614a5e57600080fd5b614a678661475d565b9450614a756020870161475d565b9350614a836040870161475d565b9250614a916060870161475d565b91506149716080870161475d565b634e487b7160e01b600052603260045260246000fd5b634e487b7160e01b600052601160045260246000fd5b6000600019821415614adf57614adf614ab5565b5060010190565b600060208284031215614af857600080fd5b5051919050565b600082821015614b1157614b11614ab5565b500390565b6020808252600590820152640daeae8caf60db1b604082015260600190565b6020808252600890820152670cec2e664d0d2ced60c31b604082015260600190565b6020808252600b908201526a109b1bd8dadb1a5cdd195960aa1b604082015260600190565b60008219821115614b8f57614b8f614ab5565b500190565b6000816000190483118215151615614bae57614bae614ab5565b500290565b600082614bd057634e487b7160e01b600052601260045260246000fd5b500490565b6001600160a01b039384168152919092166020820152604081019190915260600190565b600060208284031215614c0b57600080fd5b8151613be3816147a0565b600081518084526020808501945080840160005b83811015614c4657815187529582019590820190600101614c2a565b509495945050505050565b6001600160a01b03868116825285166020820152604081018490526060810183905260a06080820181905260009061461190830184614c16565b60018060a01b0384168152826020820152606060408201526000614cb26060830184614c16565b95945050505050565b84815260018060a01b0384166020820152826040820152608060608201526000614ce86080830184614c16565b9695505050505050565b634e487b7160e01b600052603160045260246000fd5b6020808252602b908201527f496e697469616c697a61626c653a20636f6e7472616374206973206e6f74206960408201526a6e697469616c697a696e6760a81b606082015260800190565b60005b83811015614d6e578181015183820152602001614d56565b83811115614d7d576000848401525b50505050565b7f416363657373436f6e74726f6c3a206163636f756e7420000000000000000000815260008351614dbb816017850160208801614d53565b7001034b99036b4b9b9b4b733903937b6329607d1b6017918401918201528351614dec816028840160208801614d53565b01602801949350505050565b6020815260008251806020840152614e17816040850160208701614d53565b601f01601f19169190910160400192915050565b600081614e3a57614e3a614ab5565b506000190190565b60006020808385031215614e5557600080fd5b82516001600160401b03811115614e6b57600080fd5b8301601f81018513614e7c57600080fd5b8051614e8a6145cf82614564565b81815260059190911b82018301908381019087831115614ea957600080fd5b928401925b8284101561461157835182529284019290840190614eae56fe97667070c54ef182b0f5858b034beac1b6f3089aa2d3188bb1e8929f4fa9b929a2646970667358221220648cd1d598e38cecadf3073e69d1c50e4cba4c6e139a3e5324590594149c2f0d64736f6c63430008090033",
  "linkReferences": {},
  "deployedLinkReferences": {}
}