{
  "_format": "hh-sol-artifact-1",
  "contractName": "BkFarm",
  "sourceName": "contracts/features/BkFarm.sol",
  "abi": [
    {
      "anonymous": false,
      "inputs": [
        {
          "indexed": false,
          "internalType": "uint256",
          "name": "amount",
          "type": "uint256"
        }
      ],
      "name": "BurnBct",
      "type": "event"
    },
    {
      "anonymous": false,
      "inputs": [
        {
          "indexed": false,
          "internalType": "uint8",
          "name": "version",
          "type": "uint8"
        }
      ],
      "name": "Initialized",
      "type": "event"
    },
    {
      "anonymous": false,
      "inputs": [
        {
          "indexed": false,
          "internalType": "address",
          "name": "account",
          "type": "address"
        }
      ],
      "name": "Paused",
      "type": "event"
    },
    {
      "anonymous": false,
      "inputs": [
        {
          "indexed": false,
          "internalType": "address",
          "name": "player",
          "type": "address"
        }
      ],
      "name": "PlayerRegistered",
      "type": "event"
    },
    {
      "anonymous": false,
      "inputs": [
        {
          "indexed": false,
          "internalType": "address",
          "name": "player",
          "type": "address"
        },
        {
          "indexed": false,
          "internalType": "uint256",
          "name": "squadId",
          "type": "uint256"
        },
        {
          "indexed": false,
          "internalType": "uint256",
          "name": "questId",
          "type": "uint256"
        },
        {
          "indexed": false,
          "internalType": "uint256",
          "name": "duration",
          "type": "uint256"
        }
      ],
      "name": "QuestEnded",
      "type": "event"
    },
    {
      "anonymous": false,
      "inputs": [
        {
          "indexed": false,
          "internalType": "address",
          "name": "player",
          "type": "address"
        },
        {
          "indexed": false,
          "internalType": "uint256",
          "name": "squadId",
          "type": "uint256"
        },
        {
          "indexed": false,
          "internalType": "uint256",
          "name": "questId",
          "type": "uint256"
        },
        {
          "indexed": false,
          "internalType": "uint256",
          "name": "farmPerBlock",
          "type": "uint256"
        }
      ],
      "name": "QuestStarted",
      "type": "event"
    },
    {
      "anonymous": false,
      "inputs": [
        {
          "indexed": true,
          "internalType": "bytes32",
          "name": "role",
          "type": "bytes32"
        },
        {
          "indexed": true,
          "internalType": "bytes32",
          "name": "previousAdminRole",
          "type": "bytes32"
        },
        {
          "indexed": true,
          "internalType": "bytes32",
          "name": "newAdminRole",
          "type": "bytes32"
        }
      ],
      "name": "RoleAdminChanged",
      "type": "event"
    },
    {
      "anonymous": false,
      "inputs": [
        {
          "indexed": true,
          "internalType": "bytes32",
          "name": "role",
          "type": "bytes32"
        },
        {
          "indexed": true,
          "internalType": "address",
          "name": "account",
          "type": "address"
        },
        {
          "indexed": true,
          "internalType": "address",
          "name": "sender",
          "type": "address"
        }
      ],
      "name": "RoleGranted",
      "type": "event"
    },
    {
      "anonymous": false,
      "inputs": [
        {
          "indexed": true,
          "internalType": "bytes32",
          "name": "role",
          "type": "bytes32"
        },
        {
          "indexed": true,
          "internalType": "address",
          "name": "account",
          "type": "address"
        },
        {
          "indexed": true,
          "internalType": "address",
          "name": "sender",
          "type": "address"
        }
      ],
      "name": "RoleRevoked",
      "type": "event"
    },
    {
      "anonymous": false,
      "inputs": [
        {
          "indexed": false,
          "internalType": "address",
          "name": "from",
          "type": "address"
        },
        {
          "indexed": false,
          "internalType": "address",
          "name": "to",
          "type": "address"
        },
        {
          "indexed": false,
          "internalType": "uint256",
          "name": "bct",
          "type": "uint256"
        },
        {
          "indexed": false,
          "internalType": "uint256",
          "name": "ebct",
          "type": "uint256"
        },
        {
          "indexed": false,
          "internalType": "uint256[]",
          "name": "resources",
          "type": "uint256[]"
        }
      ],
      "name": "Transfer",
      "type": "event"
    },
    {
      "anonymous": false,
      "inputs": [
        {
          "indexed": false,
          "internalType": "address",
          "name": "account",
          "type": "address"
        }
      ],
      "name": "Unpaused",
      "type": "event"
    },
    {
      "anonymous": false,
      "inputs": [
        {
          "indexed": false,
          "internalType": "address",
          "name": "player",
          "type": "address"
        },
        {
          "indexed": false,
          "internalType": "uint256",
          "name": "amount",
          "type": "uint256"
        },
        {
          "indexed": false,
          "internalType": "uint256",
          "name": "burnAmount",
          "type": "uint256"
        }
      ],
      "name": "Withdraw",
      "type": "event"
    },
    {
      "inputs": [],
      "name": "DEFAULT_ADMIN_ROLE",
      "outputs": [
        {
          "internalType": "bytes32",
          "name": "",
          "type": "bytes32"
        }
      ],
      "stateMutability": "view",
      "type": "function"
    },
    {
      "inputs": [
        {
          "internalType": "address",
          "name": "_operator",
          "type": "address"
        },
        {
          "internalType": "address",
          "name": "_blocklistAddress",
          "type": "address"
        }
      ],
      "name": "__Administrable_init",
      "outputs": [],
      "stateMutability": "nonpayable",
      "type": "function"
    },
    {
      "inputs": [],
      "name": "_resetBlocklist",
      "outputs": [],
      "stateMutability": "nonpayable",
      "type": "function"
    },
    {
      "inputs": [
        {
          "internalType": "address",
          "name": "playerAddress",
          "type": "address"
        },
        {
          "internalType": "uint256",
          "name": "type_",
          "type": "uint256"
        }
      ],
      "name": "addSquadToPlayer",
      "outputs": [
        {
          "internalType": "uint256",
          "name": "",
          "type": "uint256"
        }
      ],
      "stateMutability": "nonpayable",
      "type": "function"
    },
    {
      "inputs": [
        {
          "internalType": "address",
          "name": "playerAddress",
          "type": "address"
        },
        {
          "internalType": "uint256",
          "name": "ebct",
          "type": "uint256"
        },
        {
          "internalType": "uint256[]",
          "name": "_resources",
          "type": "uint256[]"
        }
      ],
      "name": "addTo",
      "outputs": [],
      "stateMutability": "nonpayable",
      "type": "function"
    },
    {
      "inputs": [
        {
          "internalType": "uint256[]",
          "name": "nftIds",
          "type": "uint256[]"
        },
        {
          "internalType": "uint256",
          "name": "squadId",
          "type": "uint256"
        }
      ],
      "name": "addToSquad",
      "outputs": [],
      "stateMutability": "nonpayable",
      "type": "function"
    },
    {
      "inputs": [
        {
          "internalType": "address",
          "name": "to",
          "type": "address"
        },
        {
          "internalType": "uint256",
          "name": "amount",
          "type": "uint256"
        }
      ],
      "name": "approveBctSpending",
      "outputs": [],
      "stateMutability": "nonpayable",
      "type": "function"
    },
    {
      "inputs": [
        {
          "internalType": "address",
          "name": "playerAddress",
          "type": "address"
        }
      ],
      "name": "balancesOf",
      "outputs": [
        {
          "internalType": "uint256[]",
          "name": "",
          "type": "uint256[]"
        }
      ],
      "stateMutability": "view",
      "type": "function"
    },
    {
      "inputs": [
        {
          "internalType": "address",
          "name": "playerAddress",
          "type": "address"
        }
      ],
      "name": "bctBalanceOf",
      "outputs": [
        {
          "internalType": "uint256",
          "name": "",
          "type": "uint256"
        }
      ],
      "stateMutability": "view",
      "type": "function"
    },
    {
      "inputs": [
        {
          "internalType": "uint256",
          "name": "amount",
          "type": "uint256"
        }
      ],
      "name": "burnBct",
      "outputs": [],
      "stateMutability": "nonpayable",
      "type": "function"
    },
    {
      "inputs": [
        {
          "internalType": "uint256",
          "name": "squadId",
          "type": "uint256"
        }
      ],
      "name": "calculateSquadBaseFarmPerBlock",
      "outputs": [
        {
          "internalType": "uint256",
          "name": "",
          "type": "uint256"
        }
      ],
      "stateMutability": "view",
      "type": "function"
    },
    {
      "inputs": [
        {
          "internalType": "uint256",
          "name": "squadId",
          "type": "uint256"
        }
      ],
      "name": "calculateSquadFarmPerBlock",
      "outputs": [
        {
          "internalType": "uint256",
          "name": "",
          "type": "uint256"
        }
      ],
      "stateMutability": "view",
      "type": "function"
    },
    {
      "inputs": [
        {
          "internalType": "uint256[]",
          "name": "traits",
          "type": "uint256[]"
        },
        {
          "internalType": "uint256",
          "name": "extraTrait",
          "type": "uint256"
        }
      ],
      "name": "calculateTraitSynergy",
      "outputs": [
        {
          "internalType": "uint256",
          "name": "",
          "type": "uint256"
        }
      ],
      "stateMutability": "pure",
      "type": "function"
    },
    {
      "inputs": [
        {
          "internalType": "uint256",
          "name": "squadId",
          "type": "uint256"
        }
      ],
      "name": "cancelQuestFor",
      "outputs": [],
      "stateMutability": "nonpayable",
      "type": "function"
    },
    {
      "inputs": [
        {
          "internalType": "address",
          "name": "",
          "type": "address"
        }
      ],
      "name": "changeMentorBlock",
      "outputs": [
        {
          "internalType": "uint256",
          "name": "",
          "type": "uint256"
        }
      ],
      "stateMutability": "view",
      "type": "function"
    },
    {
      "inputs": [
        {
          "internalType": "uint256",
          "name": "squadId",
          "type": "uint256"
        }
      ],
      "name": "clearSquad",
      "outputs": [],
      "stateMutability": "nonpayable",
      "type": "function"
    },
    {
      "inputs": [],
      "name": "config",
      "outputs": [
        {
          "internalType": "uint256",
          "name": "burnFeePct",
          "type": "uint256"
        },
        {
          "internalType": "uint256",
          "name": "scale",
          "type": "uint256"
        },
        {
          "internalType": "uint256",
          "name": "withdrawalInterval",
          "type": "uint256"
        },
        {
          "internalType": "uint256",
          "name": "maxSquads",
          "type": "uint256"
        },
        {
          "internalType": "uint256",
          "name": "mentorDivider",
          "type": "uint256"
        },
        {
          "internalType": "bool",
          "name": "burnInGameBctBalance",
          "type": "bool"
        },
        {
          "internalType": "bool",
          "name": "burnInGameEbctBalance",
          "type": "bool"
        }
      ],
      "stateMutability": "view",
      "type": "function"
    },
    {
      "inputs": [],
      "name": "contracts",
      "outputs": [
        {
          "internalType": "contract IBkERC20",
          "name": "bct",
          "type": "address"
        },
        {
          "internalType": "contract IBkNft",
          "name": "bkNft",
          "type": "address"
        },
        {
          "internalType": "contract IBkPlayerBonus",
          "name": "playerBonus",
          "type": "address"
        },
        {
          "internalType": "contract IBkQuestRewardCalculator",
          "name": "questRewardCalculator",
          "type": "address"
        }
      ],
      "stateMutability": "view",
      "type": "function"
    },
    {
      "inputs": [
        {
          "internalType": "uint256",
          "name": "squadId",
          "type": "uint256"
        }
      ],
      "name": "finishQuestFor",
      "outputs": [],
      "stateMutability": "nonpayable",
      "type": "function"
    },
    {
      "inputs": [
        {
          "internalType": "address",
          "name": "playerAddress",
          "type": "address"
        }
      ],
      "name": "getPlayer",
      "outputs": [
        {
          "components": [
            {
              "internalType": "uint256",
              "name": "bctToClaim",
              "type": "uint256"
            },
            {
              "internalType": "uint256",
              "name": "etherealBct",
              "type": "uint256"
            },
            {
              "internalType": "uint256",
              "name": "lastWithdrawalBlock",
              "type": "uint256"
            },
            {
              "internalType": "uint256",
              "name": "registeredAt",
              "type": "uint256"
            },
            {
              "internalType": "address",
              "name": "mentor",
              "type": "address"
            },
            {
              "internalType": "uint256",
              "name": "mentorLevel",
              "type": "uint256"
            },
            {
              "internalType": "uint256",
              "name": "merchantLevel",
              "type": "uint256"
            },
            {
              "internalType": "uint256[]",
              "name": "squads",
              "type": "uint256[]"
            }
          ],
          "internalType": "struct IBkPlayer.Player",
          "name": "",
          "type": "tuple"
        }
      ],
      "stateMutability": "view",
      "type": "function"
    },
    {
      "inputs": [
        {
          "internalType": "uint256",
          "name": "questId",
          "type": "uint256"
        }
      ],
      "name": "getQuest",
      "outputs": [
        {
          "components": [
            {
              "internalType": "uint256",
              "name": "id",
              "type": "uint256"
            },
            {
              "internalType": "uint256",
              "name": "minSynergyMultiplier",
              "type": "uint256"
            },
            {
              "internalType": "uint256",
              "name": "bctPercentage",
              "type": "uint256"
            },
            {
              "internalType": "uint256",
              "name": "etherealPercentage",
              "type": "uint256"
            },
            {
              "internalType": "uint256[]",
              "name": "resourceMultipliers",
              "type": "uint256[]"
            },
            {
              "internalType": "uint256[]",
              "name": "traits",
              "type": "uint256[]"
            },
            {
              "internalType": "uint256[]",
              "name": "collections",
              "type": "uint256[]"
            },
            {
              "internalType": "bool",
              "name": "anyCollection",
              "type": "bool"
            }
          ],
          "internalType": "struct IBkQuest.Quest",
          "name": "",
          "type": "tuple"
        }
      ],
      "stateMutability": "view",
      "type": "function"
    },
    {
      "inputs": [
        {
          "internalType": "bytes32",
          "name": "role",
          "type": "bytes32"
        }
      ],
      "name": "getRoleAdmin",
      "outputs": [
        {
          "internalType": "bytes32",
          "name": "",
          "type": "bytes32"
        }
      ],
      "stateMutability": "view",
      "type": "function"
    },
    {
      "inputs": [
        {
          "internalType": "uint256",
          "name": "squadId",
          "type": "uint256"
        }
      ],
      "name": "getSquad",
      "outputs": [
        {
          "components": [
            {
              "internalType": "address",
              "name": "owner",
              "type": "address"
            },
            {
              "internalType": "uint256",
              "name": "type_",
              "type": "uint256"
            },
            {
              "internalType": "uint256",
              "name": "size",
              "type": "uint256"
            },
            {
              "internalType": "uint256",
              "name": "baseFarmPerBlock",
              "type": "uint256"
            },
            {
              "internalType": "uint256",
              "name": "synergyBonus",
              "type": "uint256"
            },
            {
              "internalType": "uint256",
              "name": "squadBonus",
              "type": "uint256"
            },
            {
              "internalType": "uint256",
              "name": "squadTrait",
              "type": "uint256"
            },
            {
              "internalType": "uint256",
              "name": "farmPerBlock",
              "type": "uint256"
            },
            {
              "internalType": "uint256",
              "name": "currentQuest",
              "type": "uint256"
            },
            {
              "internalType": "uint256",
              "name": "questStartedAt",
              "type": "uint256"
            },
            {
              "internalType": "uint256",
              "name": "questEndsAt",
              "type": "uint256"
            },
            {
              "internalType": "uint256[]",
              "name": "nftIds",
              "type": "uint256[]"
            },
            {
              "internalType": "uint256[]",
              "name": "traits",
              "type": "uint256[]"
            },
            {
              "internalType": "uint256[]",
              "name": "collections",
              "type": "uint256[]"
            }
          ],
          "internalType": "struct IBkSquad.Squad",
          "name": "",
          "type": "tuple"
        }
      ],
      "stateMutability": "view",
      "type": "function"
    },
    {
      "inputs": [
        {
          "internalType": "bytes32",
          "name": "role",
          "type": "bytes32"
        },
        {
          "internalType": "address",
          "name": "account",
          "type": "address"
        }
      ],
      "name": "grantRole",
      "outputs": [],
      "stateMutability": "nonpayable",
      "type": "function"
    },
    {
      "inputs": [],
      "name": "hasBlocklist",
      "outputs": [
        {
          "internalType": "bool",
          "name": "",
          "type": "bool"
        }
      ],
      "stateMutability": "view",
      "type": "function"
    },
    {
      "inputs": [
        {
          "internalType": "bytes32",
          "name": "role",
          "type": "bytes32"
        },
        {
          "internalType": "address",
          "name": "account",
          "type": "address"
        }
      ],
      "name": "hasRole",
      "outputs": [
        {
          "internalType": "bool",
          "name": "",
          "type": "bool"
        }
      ],
      "stateMutability": "view",
      "type": "function"
    },
    {
      "inputs": [
        {
          "internalType": "uint256",
          "name": "squadId",
          "type": "uint256"
        }
      ],
      "name": "increaseSquadSize",
      "outputs": [],
      "stateMutability": "nonpayable",
      "type": "function"
    },
    {
      "inputs": [
        {
          "internalType": "address",
          "name": "_operator",
          "type": "address"
        },
        {
          "internalType": "address",
          "name": "_blocklist",
          "type": "address"
        },
        {
          "internalType": "address",
          "name": "_bct",
          "type": "address"
        },
        {
          "internalType": "address",
          "name": "_bkNft",
          "type": "address"
        },
        {
          "internalType": "address",
          "name": "_playerBonus",
          "type": "address"
        },
        {
          "internalType": "address",
          "name": "_questRewardCalculator",
          "type": "address"
        }
      ],
      "name": "initialize",
      "outputs": [],
      "stateMutability": "nonpayable",
      "type": "function"
    },
    {
      "inputs": [
        {
          "internalType": "uint256",
          "name": "squadId",
          "type": "uint256"
        }
      ],
      "name": "isSquadOnQuest",
      "outputs": [
        {
          "internalType": "bool",
          "name": "",
          "type": "bool"
        }
      ],
      "stateMutability": "view",
      "type": "function"
    },
    {
      "inputs": [
        {
          "internalType": "address",
          "name": "playerAddress",
          "type": "address"
        }
      ],
      "name": "mentorOf",
      "outputs": [
        {
          "internalType": "address",
          "name": "mentor",
          "type": "address"
        },
        {
          "internalType": "uint256",
          "name": "mentorLevel",
          "type": "uint256"
        }
      ],
      "stateMutability": "view",
      "type": "function"
    },
    {
      "inputs": [],
      "name": "pause",
      "outputs": [],
      "stateMutability": "nonpayable",
      "type": "function"
    },
    {
      "inputs": [],
      "name": "paused",
      "outputs": [
        {
          "internalType": "bool",
          "name": "",
          "type": "bool"
        }
      ],
      "stateMutability": "view",
      "type": "function"
    },
    {
      "inputs": [
        {
          "internalType": "address",
          "name": "account",
          "type": "address"
        },
        {
          "internalType": "uint256",
          "name": "bctAmount",
          "type": "uint256"
        },
        {
          "internalType": "uint256[]",
          "name": "_resources",
          "type": "uint256[]"
        }
      ],
      "name": "payWithBalance",
      "outputs": [
        {
          "internalType": "bool",
          "name": "success",
          "type": "bool"
        }
      ],
      "stateMutability": "nonpayable",
      "type": "function"
    },
    {
      "inputs": [
        {
          "internalType": "address",
          "name": "",
          "type": "address"
        }
      ],
      "name": "players",
      "outputs": [
        {
          "internalType": "uint256",
          "name": "bctToClaim",
          "type": "uint256"
        },
        {
          "internalType": "uint256",
          "name": "etherealBct",
          "type": "uint256"
        },
        {
          "internalType": "uint256",
          "name": "lastWithdrawalBlock",
          "type": "uint256"
        },
        {
          "internalType": "uint256",
          "name": "registeredAt",
          "type": "uint256"
        },
        {
          "internalType": "address",
          "name": "mentor",
          "type": "address"
        },
        {
          "internalType": "uint256",
          "name": "mentorLevel",
          "type": "uint256"
        },
        {
          "internalType": "uint256",
          "name": "merchantLevel",
          "type": "uint256"
        }
      ],
      "stateMutability": "view",
      "type": "function"
    },
    {
      "inputs": [
        {
          "internalType": "uint256",
          "name": "",
          "type": "uint256"
        }
      ],
      "name": "quests",
      "outputs": [
        {
          "internalType": "uint256",
          "name": "id",
          "type": "uint256"
        },
        {
          "internalType": "uint256",
          "name": "minSynergyMultiplier",
          "type": "uint256"
        },
        {
          "internalType": "uint256",
          "name": "bctPercentage",
          "type": "uint256"
        },
        {
          "internalType": "uint256",
          "name": "etherealPercentage",
          "type": "uint256"
        },
        {
          "internalType": "bool",
          "name": "anyCollection",
          "type": "bool"
        }
      ],
      "stateMutability": "view",
      "type": "function"
    },
    {
      "inputs": [
        {
          "internalType": "uint256",
          "name": "",
          "type": "uint256"
        }
      ],
      "name": "raritySumOfSquad",
      "outputs": [
        {
          "internalType": "uint256",
          "name": "",
          "type": "uint256"
        }
      ],
      "stateMutability": "view",
      "type": "function"
    },
    {
      "inputs": [
        {
          "internalType": "uint256",
          "name": "squadId",
          "type": "uint256"
        }
      ],
      "name": "recalculateSquadFarming",
      "outputs": [],
      "stateMutability": "nonpayable",
      "type": "function"
    },
    {
      "inputs": [
        {
          "internalType": "address",
          "name": "tokenAddress",
          "type": "address"
        },
        {
          "internalType": "address",
          "name": "to",
          "type": "address"
        },
        {
          "internalType": "uint256",
          "name": "amount",
          "type": "uint256"
        }
      ],
      "name": "recoverERC20",
      "outputs": [],
      "stateMutability": "nonpayable",
      "type": "function"
    },
    {
      "inputs": [
        {
          "internalType": "address",
          "name": "mentor",
          "type": "address"
        }
      ],
      "name": "registerPlayer",
      "outputs": [],
      "stateMutability": "nonpayable",
      "type": "function"
    },
    {
      "inputs": [
        {
          "internalType": "uint256[]",
          "name": "nftIds",
          "type": "uint256[]"
        },
        {
          "internalType": "uint256",
          "name": "squadId",
          "type": "uint256"
        }
      ],
      "name": "removeFromSquad",
      "outputs": [],
      "stateMutability": "nonpayable",
      "type": "function"
    },
    {
      "inputs": [
        {
          "internalType": "bytes32",
          "name": "role",
          "type": "bytes32"
        },
        {
          "internalType": "address",
          "name": "account",
          "type": "address"
        }
      ],
      "name": "renounceRole",
      "outputs": [],
      "stateMutability": "nonpayable",
      "type": "function"
    },
    {
      "inputs": [
        {
          "internalType": "address",
          "name": "",
          "type": "address"
        },
        {
          "internalType": "uint256",
          "name": "",
          "type": "uint256"
        }
      ],
      "name": "resourceBalances",
      "outputs": [
        {
          "internalType": "uint256",
          "name": "",
          "type": "uint256"
        }
      ],
      "stateMutability": "view",
      "type": "function"
    },
    {
      "inputs": [
        {
          "internalType": "bytes32",
          "name": "role",
          "type": "bytes32"
        },
        {
          "internalType": "address",
          "name": "account",
          "type": "address"
        }
      ],
      "name": "revokeRole",
      "outputs": [],
      "stateMutability": "nonpayable",
      "type": "function"
    },
    {
      "inputs": [
        {
          "internalType": "address",
          "name": "blocklistAddress",
          "type": "address"
        }
      ],
      "name": "setBlocklist",
      "outputs": [],
      "stateMutability": "nonpayable",
      "type": "function"
    },
    {
      "inputs": [
        {
          "internalType": "address",
          "name": "questRewardsCalculator_",
          "type": "address"
        }
      ],
      "name": "setQuestRewardsCalculator",
      "outputs": [],
      "stateMutability": "nonpayable",
      "type": "function"
    },
    {
      "inputs": [
        {
          "internalType": "uint256[]",
          "name": "questIds",
          "type": "uint256[]"
        },
        {
          "components": [
            {
              "internalType": "uint256",
              "name": "id",
              "type": "uint256"
            },
            {
              "internalType": "uint256",
              "name": "minSynergyMultiplier",
              "type": "uint256"
            },
            {
              "internalType": "uint256",
              "name": "bctPercentage",
              "type": "uint256"
            },
            {
              "internalType": "uint256",
              "name": "etherealPercentage",
              "type": "uint256"
            },
            {
              "internalType": "uint256[]",
              "name": "resourceMultipliers",
              "type": "uint256[]"
            },
            {
              "internalType": "uint256[]",
              "name": "traits",
              "type": "uint256[]"
            },
            {
              "internalType": "uint256[]",
              "name": "collections",
              "type": "uint256[]"
            },
            {
              "internalType": "bool",
              "name": "anyCollection",
              "type": "bool"
            }
          ],
          "internalType": "struct IBkQuest.Quest[]",
          "name": "quests_",
          "type": "tuple[]"
        }
      ],
      "name": "setQuests",
      "outputs": [],
      "stateMutability": "nonpayable",
      "type": "function"
    },
    {
      "inputs": [
        {
          "internalType": "uint256",
          "name": "count",
          "type": "uint256"
        }
      ],
      "name": "setResources",
      "outputs": [],
      "stateMutability": "nonpayable",
      "type": "function"
    },
    {
      "inputs": [
        {
          "internalType": "uint256",
          "name": "_scale",
          "type": "uint256"
        }
      ],
      "name": "setScale",
      "outputs": [],
      "stateMutability": "nonpayable",
      "type": "function"
    },
    {
      "inputs": [
        {
          "internalType": "uint256",
          "name": "squadId",
          "type": "uint256"
        },
        {
          "internalType": "uint256",
          "name": "squadTrait",
          "type": "uint256"
        }
      ],
      "name": "setSquadTrait",
      "outputs": [],
      "stateMutability": "nonpayable",
      "type": "function"
    },
    {
      "inputs": [
        {
          "internalType": "uint256",
          "name": "squadId",
          "type": "uint256"
        },
        {
          "internalType": "uint256",
          "name": "type_",
          "type": "uint256"
        }
      ],
      "name": "setSquadType",
      "outputs": [],
      "stateMutability": "nonpayable",
      "type": "function"
    },
    {
      "inputs": [
        {
          "internalType": "address",
          "name": "playerAddress",
          "type": "address"
        },
        {
          "internalType": "uint256",
          "name": "resourceId",
          "type": "uint256"
        }
      ],
      "name": "singleBalanceOf",
      "outputs": [
        {
          "internalType": "uint256",
          "name": "",
          "type": "uint256"
        }
      ],
      "stateMutability": "view",
      "type": "function"
    },
    {
      "inputs": [
        {
          "internalType": "address",
          "name": "account",
          "type": "address"
        },
        {
          "internalType": "uint256",
          "name": "amount",
          "type": "uint256"
        },
        {
          "internalType": "bool",
          "name": "ethereal",
          "type": "bool"
        }
      ],
      "name": "spendBctFrom",
      "outputs": [],
      "stateMutability": "nonpayable",
      "type": "function"
    },
    {
      "inputs": [
        {
          "internalType": "uint256",
          "name": "",
          "type": "uint256"
        }
      ],
      "name": "squads",
      "outputs": [
        {
          "internalType": "address",
          "name": "owner",
          "type": "address"
        },
        {
          "internalType": "uint256",
          "name": "type_",
          "type": "uint256"
        },
        {
          "internalType": "uint256",
          "name": "size",
          "type": "uint256"
        },
        {
          "internalType": "uint256",
          "name": "baseFarmPerBlock",
          "type": "uint256"
        },
        {
          "internalType": "uint256",
          "name": "synergyBonus",
          "type": "uint256"
        },
        {
          "internalType": "uint256",
          "name": "squadBonus",
          "type": "uint256"
        },
        {
          "internalType": "uint256",
          "name": "squadTrait",
          "type": "uint256"
        },
        {
          "internalType": "uint256",
          "name": "farmPerBlock",
          "type": "uint256"
        },
        {
          "internalType": "uint256",
          "name": "currentQuest",
          "type": "uint256"
        },
        {
          "internalType": "uint256",
          "name": "questStartedAt",
          "type": "uint256"
        },
        {
          "internalType": "uint256",
          "name": "questEndsAt",
          "type": "uint256"
        }
      ],
      "stateMutability": "view",
      "type": "function"
    },
    {
      "inputs": [
        {
          "internalType": "address",
          "name": "playerAddress",
          "type": "address"
        }
      ],
      "name": "squadsOf",
      "outputs": [
        {
          "components": [
            {
              "internalType": "address",
              "name": "owner",
              "type": "address"
            },
            {
              "internalType": "uint256",
              "name": "type_",
              "type": "uint256"
            },
            {
              "internalType": "uint256",
              "name": "size",
              "type": "uint256"
            },
            {
              "internalType": "uint256",
              "name": "baseFarmPerBlock",
              "type": "uint256"
            },
            {
              "internalType": "uint256",
              "name": "synergyBonus",
              "type": "uint256"
            },
            {
              "internalType": "uint256",
              "name": "squadBonus",
              "type": "uint256"
            },
            {
              "internalType": "uint256",
              "name": "squadTrait",
              "type": "uint256"
            },
            {
              "internalType": "uint256",
              "name": "farmPerBlock",
              "type": "uint256"
            },
            {
              "internalType": "uint256",
              "name": "currentQuest",
              "type": "uint256"
            },
            {
              "internalType": "uint256",
              "name": "questStartedAt",
              "type": "uint256"
            },
            {
              "internalType": "uint256",
              "name": "questEndsAt",
              "type": "uint256"
            },
            {
              "internalType": "uint256[]",
              "name": "nftIds",
              "type": "uint256[]"
            },
            {
              "internalType": "uint256[]",
              "name": "traits",
              "type": "uint256[]"
            },
            {
              "internalType": "uint256[]",
              "name": "collections",
              "type": "uint256[]"
            }
          ],
          "internalType": "struct IBkSquad.Squad[]",
          "name": "",
          "type": "tuple[]"
        }
      ],
      "stateMutability": "view",
      "type": "function"
    },
    {
      "inputs": [
        {
          "internalType": "uint256",
          "name": "squadId",
          "type": "uint256"
        },
        {
          "internalType": "uint256",
          "name": "questId",
          "type": "uint256"
        }
      ],
      "name": "startQuestFor",
      "outputs": [],
      "stateMutability": "nonpayable",
      "type": "function"
    },
    {
      "inputs": [
        {
          "internalType": "bytes4",
          "name": "interfaceId",
          "type": "bytes4"
        }
      ],
      "name": "supportsInterface",
      "outputs": [
        {
          "internalType": "bool",
          "name": "",
          "type": "bool"
        }
      ],
      "stateMutability": "view",
      "type": "function"
    },
    {
      "inputs": [],
      "name": "totalSquads",
      "outputs": [
        {
          "internalType": "uint256",
          "name": "",
          "type": "uint256"
        }
      ],
      "stateMutability": "view",
      "type": "function"
    },
    {
      "inputs": [
        {
          "internalType": "address",
          "name": "to",
          "type": "address"
        },
        {
          "internalType": "uint256",
          "name": "bct",
          "type": "uint256"
        },
        {
          "internalType": "uint256",
          "name": "ebct",
          "type": "uint256"
        },
        {
          "internalType": "uint256[]",
          "name": "_resources",
          "type": "uint256[]"
        }
      ],
      "name": "transfer",
      "outputs": [],
      "stateMutability": "nonpayable",
      "type": "function"
    },
    {
      "inputs": [
        {
          "internalType": "address",
          "name": "from",
          "type": "address"
        },
        {
          "internalType": "address",
          "name": "to",
          "type": "address"
        },
        {
          "internalType": "uint256",
          "name": "bct",
          "type": "uint256"
        },
        {
          "internalType": "uint256",
          "name": "ebct",
          "type": "uint256"
        },
        {
          "internalType": "uint256[]",
          "name": "_resources",
          "type": "uint256[]"
        }
      ],
      "name": "transferFrom",
      "outputs": [],
      "stateMutability": "nonpayable",
      "type": "function"
    },
    {
      "inputs": [],
      "name": "unpause",
      "outputs": [],
      "stateMutability": "nonpayable",
      "type": "function"
    },
    {
      "inputs": [
        {
          "internalType": "uint256",
          "name": "amount",
          "type": "uint256"
        }
      ],
      "name": "withdraw",
      "outputs": [],
      "stateMutability": "nonpayable",
      "type": "function"
    }
  ],
  "bytecode": "0x608060405234801561001057600080fd5b50615cd380620000216000396000f3fe608060405234801561001057600080fd5b50600436106103af5760003560e01c806377822673116101f4578063b238d3191161011a578063da73d69c116100ad578063e604fa461161007c578063e604fa4614610b09578063f0c3aa2214610b1c578063f1486dcd14610b2f578063f8b9940c14610b4257600080fd5b8063da73d69c1461092b578063de1eecc91461093e578063e085f98014610a0c578063e2eb41ff14610a7657600080fd5b8063c1f3ef4d116100e9578063c1f3ef4d146108c9578063cc2a9a5b146108dc578063d547741f146108ef578063d9b5e9ac1461090257600080fd5b8063b238d3191461087d578063b685ed9414610890578063be94495b146108a3578063c1b712c7146108b657600080fd5b806386a4bc7e11610192578063a217fddf11610161578063a217fddf14610819578063a86db12f14610821578063aef18ae714610857578063b1918c951461086a57600080fd5b806386a4bc7e146107cd57806391d14854146107e0578063931da89b146107f357806397cba3ef1461080657600080fd5b80637b3a6610116101ce5780637b3a66101461076d5780637c2c1b1d146107805780637cc1116f146107a55780638456cb59146107c557600080fd5b806377822673146106e457806379502c55146106f7578063799377cb1461075a57600080fd5b80633edc3519116102d95780635bc60976116102775780636392a51f116102465780636392a51f1461063857806369a0e966146106585780636b5cc6d9146106785780636c0f79b61461068b57600080fd5b80635bc60976146105d95780635c12cd4b146105f95780635c975abb14610619578063634210f41461062457600080fd5b806346e2b209116102b357806346e2b2091461053757806349f86f341461054a578063501394da1461056a57806359f827ad1461057d57600080fd5b80633edc3519146105095780633f4ba83a1461051c57806341dea03d1461052457600080fd5b80631dc985bd116103515780632f2ff15d116103205780632f2ff15d146104c757806336568abe146104da5780633ad0c662146104ed5780633cb3669a146104f657600080fd5b80631dc985bd1461046b5780631ec971381461047e578063248a9ca3146104915780632e1a7d4d146104b457600080fd5b806308acf9521161038d57806308acf9521461041f5780631171bda91461043257806314472f051461044557806318988e431461045857600080fd5b806301ffc9a7146103b457806306411b24146103dc57806306a4507014610415575b600080fd5b6103c76103c2366004614d95565b610b62565b60405190151581526020015b60405180910390f35b6104076103ea366004614dd4565b60d460209081526000928352604080842090915290825290205481565b6040519081526020016103d3565b61041d610b99565b005b61041d61042d366004614f20565b610bc4565b61041d610440366004614f78565b610cc5565b61041d610453366004614fb9565b610d66565b61041d610466366004614fdb565b610d94565b61041d610479366004614fdb565b610dc8565b61040761048c366004614ff4565b610f40565b61040761049f366004614fdb565b60009081526065602052604090206001015490565b61041d6104c2366004614fdb565b611158565b61041d6104d5366004615038565b6112a6565b61041d6104e8366004615038565b6112d0565b61040760d15481565b61041d610504366004615086565b6112f3565b61041d610517366004614fdb565b61131c565b61041d61133a565b61041d610532366004614ff4565b61135d565b61041d610545366004614fdb565b611713565b61055d610558366004614fdb565b611751565b6040516103d39190615103565b61041d6105783660046151a5565b6118f6565b6105ba61058b366004615207565b6001600160a01b03908116600090815260ce602052604080822060040154909216808252919020600501549091565b604080516001600160a01b0390931683526020830191909152016103d3565b6105ec6105e7366004615207565b611903565b6040516103d391906152f0565b61060c610607366004615207565b6119fb565b6040516103d39190615352565b60975460ff166103c7565b60c9546103c790600160a01b900460ff1681565b61064b610646366004615207565b611b14565b6040516103d391906153bf565b61066b610666366004614fdb565b611cc7565b6040516103d391906153d2565b61041d610686366004615207565b611e6c565b60ca5460cb5460cc5460cd546106b1936001600160a01b03908116938116928116911684565b604080516001600160a01b03958616815293851660208501529184169183019190915290911660608201526080016103d3565b61041d6106f2366004614fdb565b6120a2565b60d65460d75460d85460d95460da5460db5461072195949392919060ff8082169161010090041687565b6040805197885260208801969096529486019390935260608501919091526080840152151560a0830152151560c082015260e0016103d3565b61041d610768366004614fdb565b6120ba565b61041d61077b366004614dd4565b6120d8565b6103c761078e366004614fdb565b600090815260cf6020526040902060080154151590565b6104076107b3366004615207565b60d56020526000908152604090205481565b61041d61215b565b61041d6107db3660046153e5565b61217b565b6103c76107ee366004615038565b61228f565b61041d610801366004615571565b6122ba565b610407610814366004614fdb565b6123bf565b610407600081565b61040761082f366004614dd4565b6001600160a01b0391909116600090815260d460209081526040808320938352929052205490565b61041d610865366004615207565b61262c565b6103c7610878366004614f20565b61266c565b61041d61088b36600461559f565b61287f565b61041d61089e366004614fdb565b6128ac565b6104076108b1366004614fdb565b6128d6565b6104076108c4366004614dd4565b612946565b61041d6108d7366004614fdb565b612975565b61041d6108ea366004615614565b6135f6565b61041d6108fd366004615038565b613780565b610407610910366004615207565b6001600160a01b0316600090815260ce602052604090205490565b61041d610939366004614fb9565b6137a5565b6109af61094c366004614fdb565b60cf60205260009081526040902080546001820154600283015460038401546004850154600586015460068701546007880154600889015460098a0154600a909a01546001600160a01b039099169997989697959694959394929391929091908b565b604080516001600160a01b03909c168c5260208c019a909a52988a01979097526060890195909552608088019390935260a087019190915260c086015260e0850152610100840152610120830152610140820152610160016103d3565b610a4c610a1a366004614fdb565b60d060205260009081526040902080546001820154600283015460038401546007909401549293919290919060ff1685565b6040805195865260208601949094529284019190915260608301521515608082015260a0016103d3565b610acb610a84366004615207565b60ce60205260009081526040902080546001820154600283015460038401546004850154600586015460069096015494959394929391926001600160a01b03909116919087565b6040805197885260208801969096529486019390935260608501919091526001600160a01b0316608084015260a083015260c082015260e0016103d3565b61041d610b17366004615207565b6137d3565b61041d610b2a366004614ff4565b61380e565b61041d610b3d366004614fb9565b613bf7565b610407610b50366004614fdb565b60d26020526000908152604090205481565b60006001600160e01b03198216637965db0b60e01b1480610b9357506301ffc9a760e01b6001600160e01b03198316145b92915050565b600080516020615c7e833981519152610bb181613fcc565b5060c980546001600160a81b0319169055565b600080516020615c5e833981519152610bdc81613fcc565b6001600160a01b038416600090815260ce602052604081206001018054859290610c079084906156ac565b90915550600090505b8251811015610c9057828181518110610c2b57610c2b6156c4565b602002602001015160d46000876001600160a01b03166001600160a01b0316815260200190815260200160002060008381526020019081526020016000206000828254610c7891906156ac565b90915550819050610c88816156da565b915050610c10565b50600080516020615c3e833981519152308560008686604051610cb79594939291906156f5565b60405180910390a150505050565b600080516020615c7e833981519152610cdd81613fcc565b60405163a9059cbb60e01b81526001600160a01b0384811660048301526024820184905285169063a9059cbb90604401602060405180830381600087803b158015610d2757600080fd5b505af1158015610d3b573d6000803e3d6000fd5b505050506040513d601f19601f82011682018060405250810190610d5f9190615745565b5050505050565b600080516020615c5e833981519152610d7e81613fcc565b50600091825260cf602052604090912060060155565b600080516020615c5e833981519152610dac81613fcc565b50600090815260cf602052604081206008810182905560090155565b600081815260cf602052604090208054610dea906001600160a01b0316613fd6565b600881015415610df957600080fd5b600b810154610e0757600080fd5b60005b600b820154811015610eba5760cb54600b830180546001600160a01b039092169163ed6be91f919084908110610e4257610e426156c4565b906000526020600020015460006040518363ffffffff1660e01b8152600401610e75929190918252602082015260400190565b600060405180830381600087803b158015610e8f57600080fd5b505af1158015610ea3573d6000803e3d6000fd5b505050508080610eb2906156da565b915050610e0a565b506040805160008152602081019182905251610eda91600b840191614cbd565b506040805160008152602081019182905251610efa91600d840191614cbd565b506040805160008152602081019182905251610f1a91600c840191614cbd565b50600091825260d260205260408220829055600381018290556004810182905560070155565b600080805b8451811015610f9e5781858281518110610f6157610f616156c4565b60200260200101511115610f8c57848181518110610f8157610f816156c4565b602002602001015191505b80610f96816156da565b915050610f45565b5080831115610faa5750815b6000610fb78260016156ac565b6001600160401b03811115610fce57610fce614e00565b604051908082528060200260200182016040528015610ff7578160200160208202803683370190505b50905060005b855181101561105b5781868281518110611019576110196156c4565b602002602001015181518110611031576110316156c4565b602002602001018051809190611046906156da565b90525080611053816156da565b915050610ffd565b50831561108d57808481518110611074576110746156c4565b602002602001018051809190611089906156da565b9052505b6000805b8381116111425760018382815181106110ac576110ac6156c4565b602002602001015111156111305760068382815181106110ce576110ce6156c4565b602002602001015111156110fd5760068382815181106110f0576110f06156c4565b6020026020010181815250505b6002838281518110611111576111116156c4565b60200260200101516111239190615846565b61112d90836156ac565b91505b8061113a816156da565b915050611091565b5061114e81600a615855565b9695505050505050565b611160614018565b33600090815260ce60205260409020805482111561117d57600080fd5b60d85460028201544391611190916156ac565b111561119b57600080fd5b600060646111aa84600f615855565b6111b49190615874565b905060006111c28285615896565b9050838360000160008282546111d89190615896565b909155505043600284015560ca5460405163a9059cbb60e01b8152336004820152602481018390526001600160a01b039091169063a9059cbb90604401602060405180830381600087803b15801561122f57600080fd5b505af1158015611243573d6000803e3d6000fd5b505050506040513d601f19601f820116820180604052508101906112679190615745565b5060408051338152602081018690529081018390527ff279e6a1f5e320cca91135676d9cb6e44ca8a08c0b88342bcdb1144f6511b56890606001610cb7565b6000828152606560205260409020600101546112c181613fcc565b6112cb8383614060565b505050565b6001600160a01b03811633146112e557600080fd5b6112ef82826140e6565b5050565b600080516020615c5e83398151915261130b81613fcc565b61131684848461414d565b50505050565b600080516020615c7e83398151915261133481613fcc565b5060d755565b600080516020615c7e83398151915261135281613fcc565b61135a614216565b50565b600081815260cf60205260409020805461137f906001600160a01b0316613fd6565b60088101541561138e57600080fd5b600b81015461139c57600080fd5b6000805b84518110156116dc5760008582815181106113bd576113bd6156c4565b602090810291909101015160cb546040516341f63bfd60e01b8152600481018390529192506000916001600160a01b03909116906341f63bfd9060240160006040518083038186803b15801561141257600080fd5b505afa158015611426573d6000803e3d6000fd5b505050506040513d6000823e601f3d908101601f1916820160405261144e91908101906159a2565b855460608201519192506001600160a01b0391821691161461146f57600080fd5b8581608001511461147f57600080fd5b6000805b600b870154811015611548578387600b0182815481106114a5576114a56156c4565b9060005260206000200154141561153657600b870180546114c890600190615896565b815481106114d8576114d86156c4565b906000526020600020015487600b0182815481106114f8576114f86156c4565b600091825260209091200155600b870180548061151757611517615afe565b6001900381819060005260206000200160009055905560019150611548565b80611540816156da565b915050611483565b508061155357600080fd5b60a0820151156116345760005b600d870154811015611629578260a0015187600d018281548110611586576115866156c4565b9060005260206000200154141561161757600d870180546115a990600190615896565b815481106115b9576115b96156c4565b906000526020600020015487600d0182815481106115d9576115d96156c4565b600091825260209091200155600d87018054806115f8576115f8615afe565b6001900381819060005260206000200160009055905560019150611629565b80611621816156da565b915050611560565b508061163457600080fd5b60cb5460405163ed6be91f60e01b815260048101859052600060248201526001600160a01b039091169063ed6be91f90604401600060405180830381600087803b15801561168157600080fd5b505af1158015611695573d6000803e3d6000fd5b505050508161010001516001815181106116b1576116b16156c4565b6020026020010151856116c491906156ac565b945050505080806116d4906156da565b9150506113a0565b50600083815260d26020526040812080548392906116fb908490615896565b9091555061170a905083614268565b611316836143c3565b600080516020615c5e83398151915261172b81613fcc565b600082815260cf60205260408120600201805491611748836156da565b91905055505050565b61179b604051806101000160405280600081526020016000815260200160008152602001600081526020016060815260200160608152602001606081526020016000151581525090565b600082815260d060209081526040808320815161010081018352815481526001820154818501526002820154818401526003820154606082015260048201805484518187028101870190955280855291949293608086019390929083018282801561182557602002820191906000526020600020905b815481526020019060010190808311611811575b505050505081526020016005820180548060200260200160405190810160405280929190818152602001828054801561187d57602002820191906000526020600020905b815481526020019060010190808311611869575b50505050508152602001600682018054806020026020016040519081016040528092919081815260200182805480156118d557602002820191906000526020600020905b8154815260200190600101908083116118c1575b50505091835250506007919091015460ff1615156020909101529392505050565b611316338585858561450a565b6001600160a01b038116600090815260ce6020526040812060070154606091816001600160401b0381111561193a5761193a614e00565b60405190808252806020026020018201604052801561197357816020015b611960614d08565b8152602001906001900390816119585790505b50905060005b828110156119f3576001600160a01b038516600090815260ce6020526040902060070180546119c39190839081106119b3576119b36156c4565b9060005260206000200154611cc7565b8282815181106119d5576119d56156c4565b602002602001018190525080806119eb906156da565b915050611979565b509392505050565b611a4c6040518061010001604052806000815260200160008152602001600081526020016000815260200160006001600160a01b031681526020016000815260200160008152602001606081525090565b6001600160a01b03808316600090815260ce60209081526040808320815161010081018352815481526001820154818501526002820154818401526003820154606082015260048201549095166080860152600581015460a0860152600681015460c0860152600781018054835181860281018601909452808452949594919360e08601939290830182828015611b0257602002820191906000526020600020905b815481526020019060010190808311611aee575b50505091909252509195945050505050565b6001600160a01b03808216600090815260ce6020908152604080832081516101008101835281548152600182015481850152600282015481840152600382015460608281019190915260048301549096166080820152600582015460a0820152600682015460c08201526007820180548451818702810187019095528085529194929360e0860193909290830182828015611bce57602002820191906000526020600020905b815481526020019060010190808311611bba575b5050505050815250509050600060d3546001611bea91906156ac565b6001600160401b03811115611c0157611c01614e00565b604051908082528060200260200182016040528015611c2a578160200160208202803683370190505b5060208301518351919250611c3e916156ac565b81600081518110611c5157611c516156c4565b60200260200101818152505060005b60d3548110156119f3576001600160a01b038516600090815260d46020908152604080832084845290915290205482611c9a8360016156ac565b81518110611caa57611caa6156c4565b602090810291909101015280611cbf816156da565b915050611c60565b611ccf614d08565b600082815260cf6020908152604080832081516101c08101835281546001600160a01b031681526001820154818501526002820154818401526003820154606082015260048201546080820152600582015460a0820152600682015460c0820152600782015460e082015260088201546101008201526009820154610120820152600a820154610140820152600b8201805484518187028101870190955280855291949293610160860193909290830182828015611dac57602002820191906000526020600020905b815481526020019060010190808311611d98575b50505050508152602001600c8201805480602002602001604051908101604052809291908181526020018280548015611e0457602002820191906000526020600020905b815481526020019060010190808311611df0575b50505050508152602001600d8201805480602002602001604051908101604052809291908181526020018280548015611b025760200282019190600052602060002090815481526020019060010190808311611aee5750505091909252509195945050505050565b611e74614018565b33600090815260ce602052604090206007015415611e9157600080fd5b336001600160a01b0382161415611ea757600080fd5b6040518061010001604052806000815260200160ce6000336001600160a01b03166001600160a01b03168152602001908152602001600020600101548152602001438152602001438152602001826001600160a01b03168152602001600181526020016000815260200160006001600160401b03811115611f2a57611f2a614e00565b604051908082528060200260200182016040528015611f53578160200160208202803683370190505b50905233600090815260ce6020908152604091829020835181558382015160018201559183015160028301556060830151600383015560808301516004830180546001600160a01b0319166001600160a01b0390921691909117905560a0830151600583015560c0830151600683015560e08301518051611fda9260078501920190614cbd565b50905050611fe933600661474d565b50611ff533600661474d565b5061200133600661474d565b5061200d33600661474d565b5060cc5460405163127539d560e11b81523360048201526001600160a01b03909116906324ea73aa90602401600060405180830381600087803b15801561205357600080fd5b505af1158015612067573d6000803e3d6000fd5b50506040513381527f8cd3331e32cec677d80b82cf0f71496605e7ed6ff864a3ccedc7d5d11d838c839250602001905060405180910390a150565b600080516020615c5e8339815191526112ef81613fcc565b600080516020615c7e8339815191526120d281613fcc565b5060d355565b600080516020615c7e8339815191526120f081613fcc565b60ca5460405163095ea7b360e01b81526001600160a01b038581166004830152602482018590529091169063095ea7b390604401600060405180830381600087803b15801561213e57600080fd5b505af1158015612152573d6000803e3d6000fd5b50505050505050565b600080516020615c7e83398151915261217381613fcc565b61135a6149e0565b600080516020615c7e83398151915261219381613fcc565b60005b8251811015611316578281815181106121b1576121b16156c4565b602002602001015160d060008684815181106121cf576121cf6156c4565b60200260200101518152602001908152602001600020600082015181600001556020820151816001015560408201518160020155606082015181600301556080820151816004019080519060200190612229929190614cbd565b5060a08201518051612245916005840191602090910190614cbd565b5060c08201518051612261916006840191602090910190614cbd565b5060e091909101516007909101805460ff191691151591909117905580612287816156da565b915050612196565b60009182526065602090815260408084206001600160a01b0393909316845291905290205460ff1690565b600054610100900460ff16158080156122da5750600054600160ff909116105b806122f45750303b1580156122f4575060005460ff166001145b6122fd57600080fd5b6000805460ff191660011790558015612320576000805461ff0019166101001790555b612328614a1d565b612330614a31565b61233b600084614a4d565b612353600080516020615c7e83398151915284614a4d565b61236b600080516020615c5e83398151915284614a4d565b6123748261262c565b80156112cb576000805461ff0019169055604051600181527f7f26b83ff96e1f2b6a682f133852f6798a09c465da95921460cefb3847402498906020015b60405180910390a1505050565b600081815260cf6020908152604080832081516101c08101835281546001600160a01b031681526001820154818501526002820154818401526003820154606082015260048201546080820152600582015460a0820152600682015460c0820152600782015460e082015260088201546101008201526009820154610120820152600a820154610140820152600b82018054845181870281018701909552808552869592946101608601939092919083018282801561249d57602002820191906000526020600020905b815481526020019060010190808311612489575b50505050508152602001600c82018054806020026020016040519081016040528092919081815260200182805480156124f557602002820191906000526020600020905b8154815260200190600101908083116124e1575b50505050508152602001600d820180548060200260200160405190810160405280929190818152602001828054801561254d57602002820191906000526020600020905b815481526020019060010190808311612539575b50505050508152505090506000805b826101600151518110156119f35760cb5461016084015180516001600160a01b039092169163698c9d7e919084908110612598576125986156c4565b60200260200101516040518263ffffffff1660e01b81526004016125be91815260200190565b60206040518083038186803b1580156125d657600080fd5b505afa1580156125ea573d6000803e3d6000fd5b505050506040513d601f19601f8201168201806040525081019061260e9190615b14565b61261890836156ac565b915080612624816156da565b91505061255c565b600080516020615c7e83398151915261264481613fcc565b5060c980546001600160a81b0319166001600160a01b0390921691909117600160a01b179055565b6000600080516020615c5e83398151915261268681613fcc565b6001600160a01b038516600090815260ce60205260408120805460018201549192916126b291906156ac565b9050808611156126f35760405162461bcd60e51b81526020600482015260076024820152666e6f46756e647360c81b60448201526064015b60405180910390fd5b8160010154861161270f5761270a8787600161414d565b61273a565b61272a878360010154886127239190615896565b600061414d565b61273a878360010154600161414d565b60005b8551811015612842576001600160a01b038816600090815260d460209081526040808320848452909152902054865187908390811061277e5761277e6156c4565b6020026020010151116127f55785818151811061279d5761279d6156c4565b602002602001015160d460008a6001600160a01b03166001600160a01b03168152602001908152602001600020600083815260200190815260200160002060008282546127ea9190615896565b909155506128309050565b60405162461bcd60e51b815260206004820152601060248201526f6d697373696e675265736f757263657360801b60448201526064016126ea565b8061283a816156da565b91505061273d565b50600080516020615c3e8339815191528760008060008960405161286a9594939291906156f5565b60405180910390a15060019695505050505050565b600080516020615c5e83398151915261289781613fcc565b6128a4868686868661450a565b505050505050565b600080516020615c5e8339815191526128c481613fcc565b6128cd82614268565b6112ef826143c3565b600081815260cf602052604081206004810154600382015483916064916128fd9190615855565b6129079190615874565b826003015461291691906156ac565b9050606482600501548261292a9190615855565b6129349190615874565b61293e90826156ac565b949350505050565b6000600080516020615c5e83398151915261296081613fcc565b600061296c858561474d565b95945050505050565b600080516020615c5e83398151915261298d81613fcc565b600082815260cf602052604090206008810154806129aa57600080fd5b600081815260d0602090815260408083208151610100810183528154815260018201548185015260028201548184015260038201546060820152600482018054845181870281018701909552808552919492936080860193909290830182828015612a3457602002820191906000526020600020905b815481526020019060010190808311612a20575b5050505050815260200160058201805480602002602001604051908101604052809291908181526020018280548015612a8c57602002820191906000526020600020905b815481526020019060010190808311612a78575b5050505050815260200160068201805480602002602001604051908101604052809291908181526020018280548015612ae457602002820191906000526020600020905b815481526020019060010190808311612ad0575b50505091835250506007919091015460ff1615156020909101526009840154909150600090612b139043615896565b90506121c0811015612b2457600080fd5b6000600885018190556009850181905584546001600160a01b0390811680835260ce6020908152604080852060cd5482516101008101845260018c01548152600b8c0154818601528d885260d290945282872054848401526004808c01546060860152600c8c01546080860152600d8c015460a086015260c0850189905260e0850195909552915163170ca6fb60e21b81529095949190911692635c329bec92612c2892909101815181526020808301519082015260408083015190820152606080830151908201526080808301519082015260a0808301519082015260c0808301519082015260e0918201516001600160a01b0316918101919091526101000190565b60006040518083038186803b158015612c4057600080fd5b505afa158015612c54573d6000803e3d6000fd5b505050506040513d6000823e601f3d908101601f19168201604052612c7c9190810190615b2d565b905060008085604001511115612d0b5760d754604086015160078901546127109291612ca791615855565b612cb19190615855565b612cbb9190615874565b9050606482600081518110612cd257612cd26156c4565b602002602001015182612ce59190615855565b612cef9190615874565b905080836000016000828254612d0591906156ac565b90915550505b606085015160009015612d975760d754606087015160078a01546127109291612d3391615855565b612d3d9190615855565b612d479190615874565b9050606483600181518110612d5e57612d5e6156c4565b602002602001015182612d719190615855565b612d7b9190615874565b905080846001016000828254612d9191906156ac565b90915550505b60408051601a8082526103608201909252600091602082016103408036833701905050905060005b600b8a015481101561349b5760cb54600b8b0180546000926001600160a01b0316916341f63bfd9185908110612df757612df76156c4565b90600052602060002001546040518263ffffffff1660e01b8152600401612e2091815260200190565b60006040518083038186803b158015612e3857600080fd5b505afa158015612e4c573d6000803e3d6000fd5b505050506040513d6000823e601f3d908101601f19168201604052612e7491908101906159a2565b90506000816101000151600081518110612e9057612e906156c4565b602002602001015190506000826101000151600181518110612eb457612eb46156c4565b6020026020010151905087600281518110612ed157612ed16156c4565b6020026020010151836101400151600081518110612ef157612ef16156c4565b6020026020010151828d60800151600081518110612f1157612f116156c4565b6020026020010151612f239190615855565b612f2d9190615855565b612f379190615855565b85612f43600185615896565b81518110612f5357612f536156c4565b60200260200101818151612f6791906156ac565b905250875188906003908110612f7f57612f7f6156c4565b6020026020010151836101400151600181518110612f9f57612f9f6156c4565b6020026020010151828d60800151600181518110612fbf57612fbf6156c4565b6020026020010151612fd19190615855565b612fdb9190615855565b612fe59190615855565b85612ff18460046156ac565b81518110613001576130016156c4565b6020026020010181815161301591906156ac565b905250600682106130c35787600281518110613033576130336156c4565b6020026020010151836101400151600481518110613053576130536156c4565b6020026020010151828d60800151600081518110613073576130736156c4565b60200260200101516130859190615855565b61308f9190615855565b6130999190615855565b8583815181106130ab576130ab6156c4565b602002602001018181516130bf91906156ac565b9052505b600b821061317857876003815181106130de576130de6156c4565b60200260200101518361014001516005815181106130fe576130fe6156c4565b6020026020010151828d6080015160018151811061311e5761311e6156c4565b60200260200101516131309190615855565b61313a9190615855565b6131449190615855565b856131508460056156ac565b81518110613160576131606156c4565b6020026020010181815161317491906156ac565b9052505b8760048151811061318b5761318b6156c4565b60200260200101518361014001516002815181106131ab576131ab6156c4565b6020026020010151828d608001516002815181106131cb576131cb6156c4565b60200260200101516131dd9190615855565b6131e79190615855565b6131f19190615855565b85600a81518110613204576132046156c4565b6020026020010181815161321891906156ac565b90525060035b600b8110156132e4578860058151811061323a5761323a6156c4565b602002602001015184610140015160038151811061325a5761325a6156c4565b6020026020010151838e608001518481518110613279576132796156c4565b602002602001015161328b9190615855565b6132959190615855565b61329f9190615855565b866132ab8360086156ac565b815181106132bb576132bb6156c4565b602002602001018181516132cf91906156ac565b905250806132dc816156da565b91505061321e565b50600c8b6080015151106133b557600088600581518110613307576133076156c4565b6020026020010151846101400151600381518110613327576133276156c4565b6020026020010151838e60800151600b81518110613347576133476156c4565b60200260200101516133599190615855565b6133639190615855565b61336d9190615855565b9050600e83101561337e5780613389565b613389816032615855565b8660138151811061339c5761339c6156c4565b602002602001018181516133b091906156ac565b905250505b600d8b608001515110613485576000886005815181106133d7576133d76156c4565b60200260200101518461014001516003815181106133f7576133f76156c4565b6020026020010151838e60800151600c81518110613417576134176156c4565b60200260200101516134299190615855565b6134339190615855565b61343d9190615855565b9050600f83101561344e5780613459565b613459816032615855565b8660148151811061346c5761346c6156c4565b6020026020010181815161348091906156ac565b905250505b5050508080613493906156da565b915050612dbf565b5060005b815181101561355d57601381106134e9576032620d2f008383815181106134c8576134c86156c4565b60200260200101516134da9190615874565b6134e49190615874565b613511565b620d2f008282815181106134ff576134ff6156c4565b60200260200101516135119190615874565b8a546001600160a01b0316600090815260d460209081526040808320858452909152812080549091906135459084906156ac565b90915550819050613555816156da565b91505061349f565b508854604080516001600160a01b039092168252602082018d90528101899052606081018790527fcde2cc6ec9dcf6a80c9d5ba6c25cea4fe5ce5b674a09bf19f27aea9ec00042659060800160405180910390a18854604051600080516020615c3e833981519152916135e19130916001600160a01b0316908790879087906156f5565b60405180910390a15050505050505050505050565b600054610100900460ff16158080156136165750600054600160ff909116105b806136305750303b158015613630575060005460ff166001145b61363957600080fd5b6000805460ff19166001179055801561365c576000805461ff0019166101001790555b61366687876122ba565b60408051608080820183526001600160a01b038881168084528882166020808601829052898416868801819052938916606096870181905260ca80546001600160a01b0319908116909517905560cb8054851690931790925560cc8054841690941790935560cd8054909216179055835160e081018552601480825260019282018390526201fa4095820186905293810184905260c892810183905260a0810182905260c00181905260d683905560d75560d89290925560d95560da5560db805461ffff19166101011790558015612152576000805461ff0019169055604051600181527f7f26b83ff96e1f2b6a682f133852f6798a09c465da95921460cefb38474024989060200160405180910390a150505050505050565b60008281526065602052604090206001015461379b81613fcc565b6112cb83836140e6565b600080516020615c5e8339815191526137bd81613fcc565b50600091825260cf602052604090912060010155565b600080516020615c7e8339815191526137eb81613fcc565b5060cd80546001600160a01b0319166001600160a01b0392909216919091179055565b600081815260cf602052604090208054613830906001600160a01b0316613fd6565b60088101541561383f57600080fd5b60028101548351600b83015461385591906156ac565b111561386057600080fd5b6000805b8451811015613bc9576000858281518110613881576138816156c4565b6020908102919091010151845460cb546040516331a9108f60e11b8152600481018490529293506001600160a01b0391821692911690636352211e9060240160206040518083038186803b1580156138d857600080fd5b505afa1580156138ec573d6000803e3d6000fd5b505050506040513d601f19601f820116820180604052508101906139109190615b61565b6001600160a01b03161461392357600080fd5b60cb5460405163061ff27160e51b8152600481018390526001600160a01b039091169063c3fe4e209060240160206040518083038186803b15801561396757600080fd5b505afa15801561397b573d6000803e3d6000fd5b505050506040513d601f19601f8201168201806040525081019061399f9190615b14565b156139a957600080fd5b60cb546040516341f63bfd60e01b8152600481018390526000916001600160a01b0316906341f63bfd9060240160006040518083038186803b1580156139ee57600080fd5b505afa158015613a02573d6000803e3d6000fd5b505050506040513d6000823e601f3d908101601f19168201604052613a2a91908101906159a2565b9050613a55816101000151600081518110613a4757613a476156c4565b602002602001015187614a57565b613a5e57600080fd5b600b85018054600181018255600091825260208220018390555b81610120015151811015613afa5760008261012001518281518110613a9f57613a9f6156c4565b60200260200101511115613ae85785600c018261012001518281518110613ac857613ac86156c4565b602090810291909101810151825460018101845560009384529190922001555b80613af2816156da565b915050613a78565b5060a081015115613b235760a0810151600d860180546001810182556000918252602090912001555b806101000151600181518110613b3b57613b3b6156c4565b602002602001015184613b4e91906156ac565b60cb5460405163ed6be91f60e01b815260048101859052602481018990529195506001600160a01b03169063ed6be91f90604401600060405180830381600087803b158015613b9c57600080fd5b505af1158015613bb0573d6000803e3d6000fd5b5050505050508080613bc1906156da565b915050613864565b50600083815260d2602052604081208054839290613be89084906156ac565b909155506113169050836143c3565b600080516020615c5e833981519152613c0f81613fcc565b600083815260cf60205260409020600881015415613c2c57600080fd5b600083815260d0602090815260408083208151610100810183528154815260018201548185015260028201548184015260038201546060820152600482018054845181870281018701909552808552919492936080860193909290830182828015613cb657602002820191906000526020600020905b815481526020019060010190808311613ca2575b5050505050815260200160058201805480602002602001604051908101604052809291908181526020018280548015613d0e57602002820191906000526020600020905b815481526020019060010190808311613cfa575b5050505050815260200160068201805480602002602001604051908101604052809291908181526020018280548015613d6657602002820191906000526020600020905b815481526020019060010190808311613d52575b50505091835250506007919091015460ff1615156020909101528051909150613d8e57600080fd5b600b820154613d9c57600080fd5b602081015115613dbb57806020015182600401541015613dbb57600080fd5b60a08101515115613e9c5760005b8160a0015151811015613e9a576000805b600c850154811015613e45578360a001518381518110613dfc57613dfc6156c4565b602002602001015185600c018281548110613e1957613e196156c4565b90600052602060002001541415613e335760019150613e45565b80613e3d816156da565b915050613dda565b50600684015415613e7d578260a001518281518110613e6657613e666156c4565b602002602001015184600601541415613e7d575060015b80613e8757600080fd5b5080613e92816156da565b915050613dc9565b505b60008160c00151511180613eb157508060e001515b15613f615760005b8160c0015151811015613f5f576000805b600d850154811015613f41578360c001518381518110613eec57613eec6156c4565b602002602001015185600d018281548110613f0957613f096156c4565b90600052602060002001541480613f2157508360e001515b15613f2f5760019150613f41565b80613f39816156da565b915050613eca565b5080613f4c57600080fd5b5080613f57816156da565b915050613eb9565b505b6008820184905543600983015581546007830154604080516001600160a01b03909316835260208301889052820186905260608201527fb01c6f111ccf2d738b45ffe57725d969f4a4e893a0777391d77fc2351b5f3054906080015b60405180910390a15050505050565b61135a8133614a8a565b6001600160a01b03811633148015613ff1575060975460ff16155b8061400f575061400f600080516020615c5e8339815191523361228f565b61135a57600080fd5b60975460ff161561405e5760405162461bcd60e51b815260206004820152601060248201526f14185d5cd8589b194e881c185d5cd95960821b60448201526064016126ea565b565b61406a828261228f565b6112ef5760008281526065602090815260408083206001600160a01b03851684529091529020805460ff191660011790556140a23390565b6001600160a01b0316816001600160a01b0316837f2f8788117e7eff1d82e926ec794901d17c78024a50270940304540a733656f0d60405160405180910390a45050565b6140f0828261228f565b156112ef5760008281526065602090815260408083206001600160a01b0385168085529252808320805460ff1916905551339285917ff6391f5c32d9c69d2a47ea670b442974b53935d1edc7fd64eb21e047a839171b9190a45050565b80156141bd576001600160a01b038316600090815260ce60205260408120600101805484929061417e908490615896565b909155505060408051600080825260208201909252600080516020615c3e83398151915291859181908690825b506040516123b29594939291906156f5565b6001600160a01b038316600090815260ce6020526040812080548492906141e5908490615896565b909155505060408051600080825260208201909252600080516020615c3e83398151915291859185908290816141ab565b61421e614ae3565b6097805460ff191690557f5db9ee0a495bf2e6ff9c91a7834c1ba4fdd244a5e8aa4e537bd38aeae4b073aa335b6040516001600160a01b03909116815260200160405180910390a1565b614270614018565b600081815260cf60209081526040808320815193845291830190819052915190916142a091600c84019190614cbd565b5060005b600b8201548110156112cb5760cb54600b830180546000926001600160a01b031691635efab6e491859081106142dc576142dc6156c4565b90600052602060002001546040518263ffffffff1660e01b815260040161430591815260200190565b60006040518083038186803b15801561431d57600080fd5b505afa158015614331573d6000803e3d6000fd5b505050506040513d6000823e601f3d908101601f191682016040526143599190810190615b2d565b905060005b81518110156143ae5783600c0182828151811061437d5761437d6156c4565b60209081029190910181015182546001810184556000938452919092200155806143a6816156da565b91505061435e565b505080806143bb906156da565b9150506142a4565b6143cb614018565b600081815260cf602052604090206008810154156144115760405162461bcd60e51b81526020600482015260036024820152626f6e5160e81b60448201526064016126ea565b61441a826123bf565b6003820155600c810180546040805160208084028201810190925282815261447e939092909183018282801561446f57602002820191906000526020600020905b81548152602001906001019080831161445b575b50505050508260060154610f40565b6004820155600d81018054604080516020808402820181019092528281526144df93909290918301828280156144d357602002820191906000526020600020905b8154815260200190600101908083116144bf575b50505050506000610f40565b8160040160008282546144f291906156ac565b909155506145019050826128d6565b60079091015550565b6001600160a01b03851633148015614525575060975460ff16155b806145435750614543600080516020615c5e8339815191523361228f565b61454c57600080fd5b82156145ad576001600160a01b038516600090815260ce60205260408120805485929061457a908490615896565b90915550506001600160a01b038416600090815260ce6020526040812080548592906145a79084906156ac565b90915550505b8115614614576001600160a01b038516600090815260ce6020526040812060010180548492906145de908490615896565b90915550506001600160a01b038416600090815260ce60205260408120600101805484929061460e9084906156ac565b90915550505b8051156147285760005b815181101561472657600082828151811061463b5761463b6156c4565b602002602001015111156147145781818151811061465b5761465b6156c4565b602002602001015160d46000886001600160a01b03166001600160a01b03168152602001908152602001600020600083815260200190815260200160002060008282546146a89190615896565b925050819055508181815181106146c1576146c16156c4565b602002602001015160d46000876001600160a01b03166001600160a01b031681526020019081526020016000206000838152602001908152602001600020600082825461470e91906156ac565b90915550505b8061471e816156da565b91505061461e565b505b600080516020615c3e8339815191528585858585604051613fbd9594939291906156f5565b6001600160a01b038216600090815260ce6020526040812060d9546007909101805490911161477b57600080fd5b600060d154600161478c91906156ac565b82546001810184556000848152602081209091018290558354919250906004116147ce5782546147be90600490615896565b6147c9906005615855565b6147d1565b60005b9050604051806101c00160405280876001600160a01b03168152602001868152602001600381526020016000815260200160008152602001828152602001600081526020016000815260200160008152602001600081526020016000815260200160006001600160401b0381111561484b5761484b614e00565b604051908082528060200260200182016040528015614874578160200160208202803683370190505b50815260200160006040519080825280602002602001820160405280156148a5578160200160208202803683370190505b50815260200160006040519080825280602002602001820160405280156148d6578160200160208202803683370190505b509052600083815260cf6020908152604091829020835181546001600160a01b0319166001600160a01b03909116178155838201516001820155918301516002830155606083015160038301556080830151600483015560a0830151600583015560c0830151600683015560e0830151600783015561010083015160088301556101208301516009830155610140830151600a830155610160830151805161498492600b8501920190614cbd565b5061018082015180516149a191600c840191602090910190614cbd565b506101a082015180516149be91600d840191602090910190614cbd565b505060d18054915060006149d1836156da565b90915550919695505050505050565b6149e8614018565b6097805460ff191660011790557f62e78cea01bee320cd4e420270b5ea74000d11b0c9f74754ebdbfc544b05a25861424b3390565b600054610100900460ff1661405e57600080fd5b600054610100900460ff16614a4557600080fd5b61405e614b2c565b6112ef8282614060565b600081815260cf602052604081206001015483811480614a775750806006145b8061293e57506006841015949350505050565b614a94828261228f565b6112ef57614aa181614b4c565b614aac836020614b5e565b604051602001614abd929190615b7e565b60408051601f198184030181529082905262461bcd60e51b82526126ea91600401615bf3565b60975460ff1661405e5760405162461bcd60e51b815260206004820152601460248201527314185d5cd8589b194e881b9bdd081c185d5cd95960621b60448201526064016126ea565b600054610100900460ff16614b4057600080fd5b6097805460ff19169055565b6060610b936001600160a01b03831660145b60606000614b6d836002615855565b614b789060026156ac565b6001600160401b03811115614b8f57614b8f614e00565b6040519080825280601f01601f191660200182016040528015614bb9576020820181803683370190505b509050600360fc1b81600081518110614bd457614bd46156c4565b60200101906001600160f81b031916908160001a905350600f60fb1b81600181518110614c0357614c036156c4565b60200101906001600160f81b031916908160001a9053506000614c27846002615855565b614c329060016156ac565b90505b6001811115614caa576f181899199a1a9b1b9c1cb0b131b232b360811b85600f1660108110614c6657614c666156c4565b1a60f81b828281518110614c7c57614c7c6156c4565b60200101906001600160f81b031916908160001a90535060049490941c93614ca381615c26565b9050614c35565b508315614cb657600080fd5b9392505050565b828054828255906000526020600020908101928215614cf8579160200282015b82811115614cf8578251825591602001919060010190614cdd565b50614d04929150614d80565b5090565b604051806101c0016040528060006001600160a01b03168152602001600081526020016000815260200160008152602001600081526020016000815260200160008152602001600081526020016000815260200160008152602001600081526020016060815260200160608152602001606081525090565b5b80821115614d045760008155600101614d81565b600060208284031215614da757600080fd5b81356001600160e01b031981168114614cb657600080fd5b6001600160a01b038116811461135a57600080fd5b60008060408385031215614de757600080fd5b8235614df281614dbf565b946020939093013593505050565b634e487b7160e01b600052604160045260246000fd5b60405161010081016001600160401b0381118282101715614e3957614e39614e00565b60405290565b60405161018081016001600160401b0381118282101715614e3957614e39614e00565b604051601f8201601f191681016001600160401b0381118282101715614e8a57614e8a614e00565b604052919050565b60006001600160401b03821115614eab57614eab614e00565b5060051b60200190565b600082601f830112614ec657600080fd5b81356020614edb614ed683614e92565b614e62565b82815260059290921b84018101918181019086841115614efa57600080fd5b8286015b84811015614f155780358352918301918301614efe565b509695505050505050565b600080600060608486031215614f3557600080fd5b8335614f4081614dbf565b92506020840135915060408401356001600160401b03811115614f6257600080fd5b614f6e86828701614eb5565b9150509250925092565b600080600060608486031215614f8d57600080fd5b8335614f9881614dbf565b92506020840135614fa881614dbf565b929592945050506040919091013590565b60008060408385031215614fcc57600080fd5b50508035926020909101359150565b600060208284031215614fed57600080fd5b5035919050565b6000806040838503121561500757600080fd5b82356001600160401b0381111561501d57600080fd5b61502985828601614eb5565b95602094909401359450505050565b6000806040838503121561504b57600080fd5b82359150602083013561505d81614dbf565b809150509250929050565b801515811461135a57600080fd5b803561508181615068565b919050565b60008060006060848603121561509b57600080fd5b83356150a681614dbf565b92506020840135915060408401356150bd81615068565b809150509250925092565b600081518084526020808501945080840160005b838110156150f8578151875295820195908201906001016150dc565b509495945050505050565b6020815281516020820152602082015160408201526040820151606082015260608201516080820152600060808301516101008060a085015261514a6101208501836150c8565b915060a0850151601f19808685030160c087015261516884836150c8565b935060c08701519150808685030160e08701525061518683826150c8565b92505060e085015161519b8286018215159052565b5090949350505050565b600080600080608085870312156151bb57600080fd5b84356151c681614dbf565b9350602085013592506040850135915060608501356001600160401b038111156151ef57600080fd5b6151fb87828801614eb5565b91505092959194509250565b60006020828403121561521957600080fd5b8135614cb681614dbf565b80516001600160a01b0316825260006101c06020830151602085015260408301516040850152606083015160608501526080830151608085015260a083015160a085015260c083015160c085015260e083015160e08501526101008084015181860152506101208084015181860152506101408084015181860152506101608084015182828701526152b8838701826150c8565b9250505061018080840151858303828701526152d483826150c8565b925050506101a0808401518583038287015261114e83826150c8565b6000602080830181845280855180835260408601915060408160051b870101925083870160005b8281101561534557603f19888603018452615333858351615224565b94509285019290850190600101615317565b5092979650505050505050565b602081528151602082015260208201516040820152604082015160608201526060820151608082015260018060a01b0360808301511660a082015260a082015160c082015260c082015160e0820152600060e083015161010080818501525061293e6101208401826150c8565b602081526000614cb660208301846150c8565b602081526000614cb66020830184615224565b600080604083850312156153f857600080fd5b82356001600160401b038082111561540f57600080fd5b61541b86838701614eb5565b935060209150818501358181111561543257600080fd5b8501601f8101871361544357600080fd5b8035615451614ed682614e92565b81815260059190911b8201840190848101908983111561547057600080fd5b8584015b838110156155605780358681111561548b57600080fd5b8501610100818d03601f19018113156154a357600080fd5b6154ab614e16565b89830135815260408301358a820152606083013560408201526080830135606082015260a0830135898111156154e057600080fd5b6154ee8f8c83870101614eb5565b60808301525060c08301358981111561550657600080fd5b6155148f8c83870101614eb5565b60a08301525060e08301358981111561552d5760008081fd5b61553b8f8c83870101614eb5565b60c08301525061554c828401615076565b60e082015285525050918601918601615474565b508096505050505050509250929050565b6000806040838503121561558457600080fd5b823561558f81614dbf565b9150602083013561505d81614dbf565b600080600080600060a086880312156155b757600080fd5b85356155c281614dbf565b945060208601356155d281614dbf565b9350604086013592506060860135915060808601356001600160401b038111156155fb57600080fd5b61560788828901614eb5565b9150509295509295909350565b60008060008060008060c0878903121561562d57600080fd5b863561563881614dbf565b9550602087013561564881614dbf565b9450604087013561565881614dbf565b9350606087013561566881614dbf565b9250608087013561567881614dbf565b915060a087013561568881614dbf565b809150509295509295509295565b634e487b7160e01b600052601160045260246000fd5b600082198211156156bf576156bf615696565b500190565b634e487b7160e01b600052603260045260246000fd5b60006000198214156156ee576156ee615696565b5060010190565b6001600160a01b03868116825285166020820152604081018490526060810183905260a06080820181905260009061572f908301846150c8565b979650505050505050565b805161508181615068565b60006020828403121561575757600080fd5b8151614cb681615068565b600181815b8085111561579d57816000190482111561578357615783615696565b8085161561579057918102915b93841c9390800290615767565b509250929050565b6000826157b457506001610b93565b816157c157506000610b93565b81600181146157d757600281146157e1576157fd565b6001915050610b93565b60ff8411156157f2576157f2615696565b50506001821b610b93565b5060208310610133831016604e8410600b8410161715615820575081810a610b93565b61582a8383615762565b806000190482111561583e5761583e615696565b029392505050565b6000614cb660ff8416836157a5565b600081600019048311821515161561586f5761586f615696565b500290565b60008261589157634e487b7160e01b600052601260045260246000fd5b500490565b6000828210156158a8576158a8615696565b500390565b60005b838110156158c85781810151838201526020016158b0565b838111156113165750506000910152565b600082601f8301126158ea57600080fd5b81516001600160401b0381111561590357615903614e00565b615916601f8201601f1916602001614e62565b81815284602083860101111561592b57600080fd5b61293e8260208301602087016158ad565b805161508181614dbf565b600082601f83011261595857600080fd5b81516020615968614ed683614e92565b82815260059290921b8401810191818101908684111561598757600080fd5b8286015b84811015614f15578051835291830191830161598b565b6000602082840312156159b457600080fd5b81516001600160401b03808211156159cb57600080fd5b9083019061018082860312156159e057600080fd5b6159e8614e3f565b825181526020830151828111156159fe57600080fd5b615a0a878286016158d9565b602083015250604083015182811115615a2257600080fd5b615a2e878286016158d9565b604083015250615a406060840161593c565b60608201526080830151608082015260a083015160a082015260c083015160c082015260e083015160e08201526101008084015183811115615a8157600080fd5b615a8d88828701615947565b8284015250506101208084015183811115615aa757600080fd5b615ab388828701615947565b8284015250506101408084015183811115615acd57600080fd5b615ad988828701615947565b8284015250506101609150615aef82840161573a565b91810191909152949350505050565b634e487b7160e01b600052603160045260246000fd5b600060208284031215615b2657600080fd5b5051919050565b600060208284031215615b3f57600080fd5b81516001600160401b03811115615b5557600080fd5b61293e84828501615947565b600060208284031215615b7357600080fd5b8151614cb681614dbf565b7f416363657373436f6e74726f6c3a206163636f756e7420000000000000000000815260008351615bb68160178501602088016158ad565b7001034b99036b4b9b9b4b733903937b6329607d1b6017918401918201528351615be78160288401602088016158ad565b01602801949350505050565b6020815260008251806020840152615c128160408501602087016158ad565b601f01601f19169190910160400192915050565b600081615c3557615c35615696565b50600019019056fead0f552605b44082e9433e65cf90f9a39218485bcb173f148842d857f70c2d3773e573f9566d61418a34d5de3ff49360f9c51fec37f7486551670290f6285dab97667070c54ef182b0f5858b034beac1b6f3089aa2d3188bb1e8929f4fa9b929a2646970667358221220952bbebb303d96c741e4d26fd10dd7d24bf85af438442c4d5e230f2e3aaa6a7864736f6c63430008090033",
  "linkReferences": {},
  "deployedLinkReferences": {}
}