{
  "_format": "hh-sol-artifact-1",
  "contractName": "BkFarm",
  "sourceName": "contracts/features/BkFarm.sol",
  "abi": [
    {
      "anonymous": false,
      "inputs": [
        {
          "indexed": false,
          "internalType": "uint256",
          "name": "amount",
          "type": "uint256"
        }
      ],
      "name": "BurnBct",
      "type": "event"
    },
    {
      "anonymous": false,
      "inputs": [
        {
          "indexed": false,
          "internalType": "uint8",
          "name": "version",
          "type": "uint8"
        }
      ],
      "name": "Initialized",
      "type": "event"
    },
    {
      "anonymous": false,
      "inputs": [
        {
          "indexed": false,
          "internalType": "address",
          "name": "account",
          "type": "address"
        }
      ],
      "name": "Paused",
      "type": "event"
    },
    {
      "anonymous": false,
      "inputs": [
        {
          "indexed": false,
          "internalType": "address",
          "name": "player",
          "type": "address"
        }
      ],
      "name": "PlayerRegistered",
      "type": "event"
    },
    {
      "anonymous": false,
      "inputs": [
        {
          "indexed": false,
          "internalType": "address",
          "name": "player",
          "type": "address"
        },
        {
          "indexed": false,
          "internalType": "uint256",
          "name": "squadId",
          "type": "uint256"
        },
        {
          "indexed": false,
          "internalType": "uint256",
          "name": "questId",
          "type": "uint256"
        },
        {
          "indexed": false,
          "internalType": "uint256",
          "name": "duration",
          "type": "uint256"
        }
      ],
      "name": "QuestEnded",
      "type": "event"
    },
    {
      "anonymous": false,
      "inputs": [
        {
          "indexed": false,
          "internalType": "address",
          "name": "player",
          "type": "address"
        },
        {
          "indexed": false,
          "internalType": "uint256",
          "name": "squadId",
          "type": "uint256"
        },
        {
          "indexed": false,
          "internalType": "uint256",
          "name": "questId",
          "type": "uint256"
        },
        {
          "indexed": false,
          "internalType": "uint256",
          "name": "farmPerBlock",
          "type": "uint256"
        }
      ],
      "name": "QuestStarted",
      "type": "event"
    },
    {
      "anonymous": false,
      "inputs": [
        {
          "indexed": true,
          "internalType": "bytes32",
          "name": "role",
          "type": "bytes32"
        },
        {
          "indexed": true,
          "internalType": "bytes32",
          "name": "previousAdminRole",
          "type": "bytes32"
        },
        {
          "indexed": true,
          "internalType": "bytes32",
          "name": "newAdminRole",
          "type": "bytes32"
        }
      ],
      "name": "RoleAdminChanged",
      "type": "event"
    },
    {
      "anonymous": false,
      "inputs": [
        {
          "indexed": true,
          "internalType": "bytes32",
          "name": "role",
          "type": "bytes32"
        },
        {
          "indexed": true,
          "internalType": "address",
          "name": "account",
          "type": "address"
        },
        {
          "indexed": true,
          "internalType": "address",
          "name": "sender",
          "type": "address"
        }
      ],
      "name": "RoleGranted",
      "type": "event"
    },
    {
      "anonymous": false,
      "inputs": [
        {
          "indexed": true,
          "internalType": "bytes32",
          "name": "role",
          "type": "bytes32"
        },
        {
          "indexed": true,
          "internalType": "address",
          "name": "account",
          "type": "address"
        },
        {
          "indexed": true,
          "internalType": "address",
          "name": "sender",
          "type": "address"
        }
      ],
      "name": "RoleRevoked",
      "type": "event"
    },
    {
      "anonymous": false,
      "inputs": [
        {
          "indexed": false,
          "internalType": "address",
          "name": "from",
          "type": "address"
        },
        {
          "indexed": false,
          "internalType": "address",
          "name": "to",
          "type": "address"
        },
        {
          "indexed": false,
          "internalType": "uint256",
          "name": "bct",
          "type": "uint256"
        },
        {
          "indexed": false,
          "internalType": "uint256",
          "name": "ebct",
          "type": "uint256"
        },
        {
          "indexed": false,
          "internalType": "uint256[]",
          "name": "resources",
          "type": "uint256[]"
        }
      ],
      "name": "Transfer",
      "type": "event"
    },
    {
      "anonymous": false,
      "inputs": [
        {
          "indexed": false,
          "internalType": "address",
          "name": "account",
          "type": "address"
        }
      ],
      "name": "Unpaused",
      "type": "event"
    },
    {
      "anonymous": false,
      "inputs": [
        {
          "indexed": false,
          "internalType": "address",
          "name": "player",
          "type": "address"
        },
        {
          "indexed": false,
          "internalType": "uint256",
          "name": "amount",
          "type": "uint256"
        },
        {
          "indexed": false,
          "internalType": "uint256",
          "name": "burnAmount",
          "type": "uint256"
        }
      ],
      "name": "Withdraw",
      "type": "event"
    },
    {
      "inputs": [],
      "name": "DEFAULT_ADMIN_ROLE",
      "outputs": [
        {
          "internalType": "bytes32",
          "name": "",
          "type": "bytes32"
        }
      ],
      "stateMutability": "view",
      "type": "function"
    },
    {
      "inputs": [
        {
          "internalType": "address",
          "name": "_operator",
          "type": "address"
        },
        {
          "internalType": "address",
          "name": "_blocklistAddress",
          "type": "address"
        }
      ],
      "name": "__Administrable_init",
      "outputs": [],
      "stateMutability": "nonpayable",
      "type": "function"
    },
    {
      "inputs": [
        {
          "internalType": "address",
          "name": "playerAddress",
          "type": "address"
        },
        {
          "internalType": "uint256",
          "name": "type_",
          "type": "uint256"
        },
        {
          "internalType": "uint256",
          "name": "slots",
          "type": "uint256"
        }
      ],
      "name": "addSquadToPlayer",
      "outputs": [
        {
          "internalType": "uint256",
          "name": "",
          "type": "uint256"
        }
      ],
      "stateMutability": "nonpayable",
      "type": "function"
    },
    {
      "inputs": [
        {
          "internalType": "address",
          "name": "playerAddress",
          "type": "address"
        },
        {
          "internalType": "uint256",
          "name": "ebct",
          "type": "uint256"
        },
        {
          "internalType": "uint256[]",
          "name": "_resources",
          "type": "uint256[]"
        }
      ],
      "name": "addTo",
      "outputs": [],
      "stateMutability": "nonpayable",
      "type": "function"
    },
    {
      "inputs": [
        {
          "internalType": "uint256[]",
          "name": "nftIds",
          "type": "uint256[]"
        },
        {
          "internalType": "uint256",
          "name": "squadId",
          "type": "uint256"
        }
      ],
      "name": "addToSquad",
      "outputs": [],
      "stateMutability": "nonpayable",
      "type": "function"
    },
    {
      "inputs": [
        {
          "internalType": "address",
          "name": "to",
          "type": "address"
        },
        {
          "internalType": "uint256",
          "name": "amount",
          "type": "uint256"
        }
      ],
      "name": "approveBctSpending",
      "outputs": [],
      "stateMutability": "nonpayable",
      "type": "function"
    },
    {
      "inputs": [
        {
          "internalType": "address",
          "name": "playerAddress",
          "type": "address"
        }
      ],
      "name": "balancesOf",
      "outputs": [
        {
          "internalType": "uint256[]",
          "name": "",
          "type": "uint256[]"
        }
      ],
      "stateMutability": "view",
      "type": "function"
    },
    {
      "inputs": [
        {
          "internalType": "address",
          "name": "playerAddress",
          "type": "address"
        }
      ],
      "name": "bctBalanceOf",
      "outputs": [
        {
          "internalType": "uint256",
          "name": "",
          "type": "uint256"
        }
      ],
      "stateMutability": "view",
      "type": "function"
    },
    {
      "inputs": [
        {
          "internalType": "uint256",
          "name": "amount",
          "type": "uint256"
        }
      ],
      "name": "burnBct",
      "outputs": [],
      "stateMutability": "nonpayable",
      "type": "function"
    },
    {
      "inputs": [
        {
          "internalType": "uint256",
          "name": "squadId",
          "type": "uint256"
        }
      ],
      "name": "calculateSquadBaseFarmPerBlock",
      "outputs": [
        {
          "internalType": "uint256",
          "name": "",
          "type": "uint256"
        }
      ],
      "stateMutability": "view",
      "type": "function"
    },
    {
      "inputs": [
        {
          "internalType": "uint256",
          "name": "squadId",
          "type": "uint256"
        }
      ],
      "name": "calculateSquadFarmPerBlock",
      "outputs": [
        {
          "internalType": "uint256",
          "name": "",
          "type": "uint256"
        }
      ],
      "stateMutability": "view",
      "type": "function"
    },
    {
      "inputs": [
        {
          "internalType": "uint256[]",
          "name": "traits",
          "type": "uint256[]"
        },
        {
          "internalType": "uint256",
          "name": "extraTrait",
          "type": "uint256"
        }
      ],
      "name": "calculateTraitSynergy",
      "outputs": [
        {
          "internalType": "uint256",
          "name": "",
          "type": "uint256"
        }
      ],
      "stateMutability": "pure",
      "type": "function"
    },
    {
      "inputs": [
        {
          "internalType": "uint256",
          "name": "squadId",
          "type": "uint256"
        }
      ],
      "name": "cancelQuestFor",
      "outputs": [],
      "stateMutability": "nonpayable",
      "type": "function"
    },
    {
      "inputs": [
        {
          "internalType": "address",
          "name": "",
          "type": "address"
        }
      ],
      "name": "changeMentorBlock",
      "outputs": [
        {
          "internalType": "uint256",
          "name": "",
          "type": "uint256"
        }
      ],
      "stateMutability": "view",
      "type": "function"
    },
    {
      "inputs": [
        {
          "internalType": "uint256",
          "name": "squadId",
          "type": "uint256"
        }
      ],
      "name": "clearSquad",
      "outputs": [],
      "stateMutability": "nonpayable",
      "type": "function"
    },
    {
      "inputs": [],
      "name": "config",
      "outputs": [
        {
          "internalType": "uint256",
          "name": "scale",
          "type": "uint256"
        },
        {
          "internalType": "uint256",
          "name": "withdrawalInterval",
          "type": "uint256"
        },
        {
          "internalType": "uint256",
          "name": "maxSquads",
          "type": "uint256"
        }
      ],
      "stateMutability": "view",
      "type": "function"
    },
    {
      "inputs": [],
      "name": "contracts",
      "outputs": [
        {
          "internalType": "contract IBkERC20",
          "name": "bct",
          "type": "address"
        },
        {
          "internalType": "contract IBkNft",
          "name": "bkNft",
          "type": "address"
        },
        {
          "internalType": "contract IBkPlayerBonus",
          "name": "playerBonus",
          "type": "address"
        },
        {
          "internalType": "contract IBkQuestRewardCalculator",
          "name": "questRewardCalculator",
          "type": "address"
        }
      ],
      "stateMutability": "view",
      "type": "function"
    },
    {
      "inputs": [
        {
          "internalType": "uint256",
          "name": "squadId",
          "type": "uint256"
        }
      ],
      "name": "finishQuestFor",
      "outputs": [],
      "stateMutability": "nonpayable",
      "type": "function"
    },
    {
      "inputs": [
        {
          "internalType": "address",
          "name": "playerAddress",
          "type": "address"
        }
      ],
      "name": "getPlayer",
      "outputs": [
        {
          "components": [
            {
              "internalType": "uint256",
              "name": "bctToClaim",
              "type": "uint256"
            },
            {
              "internalType": "uint256",
              "name": "etherealBct",
              "type": "uint256"
            },
            {
              "internalType": "uint256",
              "name": "lastWithdrawalBlock",
              "type": "uint256"
            },
            {
              "internalType": "uint256",
              "name": "registeredAt",
              "type": "uint256"
            },
            {
              "internalType": "address",
              "name": "mentor",
              "type": "address"
            },
            {
              "internalType": "uint256",
              "name": "mentorLevel",
              "type": "uint256"
            },
            {
              "internalType": "uint256",
              "name": "merchantLevel",
              "type": "uint256"
            },
            {
              "internalType": "uint256[]",
              "name": "squads",
              "type": "uint256[]"
            }
          ],
          "internalType": "struct IBkPlayer.Player",
          "name": "",
          "type": "tuple"
        }
      ],
      "stateMutability": "view",
      "type": "function"
    },
    {
      "inputs": [
        {
          "internalType": "uint256",
          "name": "questId",
          "type": "uint256"
        }
      ],
      "name": "getQuest",
      "outputs": [
        {
          "components": [
            {
              "internalType": "uint256",
              "name": "id",
              "type": "uint256"
            },
            {
              "internalType": "uint256",
              "name": "minSynergyMultiplier",
              "type": "uint256"
            },
            {
              "internalType": "uint256",
              "name": "bctPercentage",
              "type": "uint256"
            },
            {
              "internalType": "uint256",
              "name": "etherealPercentage",
              "type": "uint256"
            },
            {
              "internalType": "uint256[]",
              "name": "resourceMultipliers",
              "type": "uint256[]"
            },
            {
              "internalType": "uint256[]",
              "name": "traits",
              "type": "uint256[]"
            },
            {
              "internalType": "uint256[]",
              "name": "collections",
              "type": "uint256[]"
            },
            {
              "internalType": "bool",
              "name": "anyCollection",
              "type": "bool"
            }
          ],
          "internalType": "struct IBkQuest.Quest",
          "name": "",
          "type": "tuple"
        }
      ],
      "stateMutability": "view",
      "type": "function"
    },
    {
      "inputs": [
        {
          "internalType": "bytes32",
          "name": "role",
          "type": "bytes32"
        }
      ],
      "name": "getRoleAdmin",
      "outputs": [
        {
          "internalType": "bytes32",
          "name": "",
          "type": "bytes32"
        }
      ],
      "stateMutability": "view",
      "type": "function"
    },
    {
      "inputs": [
        {
          "internalType": "uint256",
          "name": "squadId",
          "type": "uint256"
        }
      ],
      "name": "getSquad",
      "outputs": [
        {
          "components": [
            {
              "internalType": "address",
              "name": "owner",
              "type": "address"
            },
            {
              "internalType": "uint256",
              "name": "type_",
              "type": "uint256"
            },
            {
              "internalType": "uint256",
              "name": "size",
              "type": "uint256"
            },
            {
              "internalType": "uint256",
              "name": "baseFarmPerBlock",
              "type": "uint256"
            },
            {
              "internalType": "uint256",
              "name": "synergyBonus",
              "type": "uint256"
            },
            {
              "internalType": "uint256",
              "name": "squadBonus",
              "type": "uint256"
            },
            {
              "internalType": "uint256",
              "name": "squadTrait",
              "type": "uint256"
            },
            {
              "internalType": "uint256",
              "name": "farmPerBlock",
              "type": "uint256"
            },
            {
              "internalType": "uint256",
              "name": "currentQuest",
              "type": "uint256"
            },
            {
              "internalType": "uint256",
              "name": "questStartedAt",
              "type": "uint256"
            },
            {
              "internalType": "uint256",
              "name": "questEndsAt",
              "type": "uint256"
            },
            {
              "internalType": "uint256[]",
              "name": "nftIds",
              "type": "uint256[]"
            },
            {
              "internalType": "uint256[]",
              "name": "traits",
              "type": "uint256[]"
            },
            {
              "internalType": "uint256[]",
              "name": "collections",
              "type": "uint256[]"
            }
          ],
          "internalType": "struct IBkSquad.Squad",
          "name": "",
          "type": "tuple"
        }
      ],
      "stateMutability": "view",
      "type": "function"
    },
    {
      "inputs": [
        {
          "internalType": "bytes32",
          "name": "role",
          "type": "bytes32"
        },
        {
          "internalType": "address",
          "name": "account",
          "type": "address"
        }
      ],
      "name": "grantRole",
      "outputs": [],
      "stateMutability": "nonpayable",
      "type": "function"
    },
    {
      "inputs": [],
      "name": "hasBlocklist",
      "outputs": [
        {
          "internalType": "bool",
          "name": "",
          "type": "bool"
        }
      ],
      "stateMutability": "view",
      "type": "function"
    },
    {
      "inputs": [
        {
          "internalType": "bytes32",
          "name": "role",
          "type": "bytes32"
        },
        {
          "internalType": "address",
          "name": "account",
          "type": "address"
        }
      ],
      "name": "hasRole",
      "outputs": [
        {
          "internalType": "bool",
          "name": "",
          "type": "bool"
        }
      ],
      "stateMutability": "view",
      "type": "function"
    },
    {
      "inputs": [
        {
          "internalType": "uint256",
          "name": "squadId",
          "type": "uint256"
        }
      ],
      "name": "increaseSquadSize",
      "outputs": [],
      "stateMutability": "nonpayable",
      "type": "function"
    },
    {
      "inputs": [
        {
          "internalType": "address",
          "name": "_operator",
          "type": "address"
        },
        {
          "internalType": "address",
          "name": "_blocklist",
          "type": "address"
        },
        {
          "internalType": "address",
          "name": "_bct",
          "type": "address"
        },
        {
          "internalType": "address",
          "name": "_bkNft",
          "type": "address"
        },
        {
          "internalType": "address",
          "name": "_playerBonus",
          "type": "address"
        },
        {
          "internalType": "address",
          "name": "_questRewardCalculator",
          "type": "address"
        }
      ],
      "name": "initialize",
      "outputs": [],
      "stateMutability": "nonpayable",
      "type": "function"
    },
    {
      "inputs": [
        {
          "internalType": "uint256",
          "name": "squadId",
          "type": "uint256"
        }
      ],
      "name": "isSquadOnQuest",
      "outputs": [
        {
          "internalType": "bool",
          "name": "",
          "type": "bool"
        }
      ],
      "stateMutability": "view",
      "type": "function"
    },
    {
      "inputs": [
        {
          "internalType": "address",
          "name": "playerAddress",
          "type": "address"
        }
      ],
      "name": "mentorOf",
      "outputs": [
        {
          "internalType": "address",
          "name": "mentor",
          "type": "address"
        },
        {
          "internalType": "uint256",
          "name": "mentorLevel",
          "type": "uint256"
        }
      ],
      "stateMutability": "view",
      "type": "function"
    },
    {
      "inputs": [],
      "name": "pause",
      "outputs": [],
      "stateMutability": "nonpayable",
      "type": "function"
    },
    {
      "inputs": [],
      "name": "paused",
      "outputs": [
        {
          "internalType": "bool",
          "name": "",
          "type": "bool"
        }
      ],
      "stateMutability": "view",
      "type": "function"
    },
    {
      "inputs": [
        {
          "internalType": "address",
          "name": "account",
          "type": "address"
        },
        {
          "internalType": "uint256",
          "name": "bctAmount",
          "type": "uint256"
        },
        {
          "internalType": "uint256[]",
          "name": "_resources",
          "type": "uint256[]"
        }
      ],
      "name": "payWithBalance",
      "outputs": [
        {
          "internalType": "bool",
          "name": "success",
          "type": "bool"
        }
      ],
      "stateMutability": "nonpayable",
      "type": "function"
    },
    {
      "inputs": [
        {
          "internalType": "address",
          "name": "",
          "type": "address"
        }
      ],
      "name": "players",
      "outputs": [
        {
          "internalType": "uint256",
          "name": "bctToClaim",
          "type": "uint256"
        },
        {
          "internalType": "uint256",
          "name": "etherealBct",
          "type": "uint256"
        },
        {
          "internalType": "uint256",
          "name": "lastWithdrawalBlock",
          "type": "uint256"
        },
        {
          "internalType": "uint256",
          "name": "registeredAt",
          "type": "uint256"
        },
        {
          "internalType": "address",
          "name": "mentor",
          "type": "address"
        },
        {
          "internalType": "uint256",
          "name": "mentorLevel",
          "type": "uint256"
        },
        {
          "internalType": "uint256",
          "name": "merchantLevel",
          "type": "uint256"
        }
      ],
      "stateMutability": "view",
      "type": "function"
    },
    {
      "inputs": [
        {
          "internalType": "uint256",
          "name": "",
          "type": "uint256"
        }
      ],
      "name": "quests",
      "outputs": [
        {
          "internalType": "uint256",
          "name": "id",
          "type": "uint256"
        },
        {
          "internalType": "uint256",
          "name": "minSynergyMultiplier",
          "type": "uint256"
        },
        {
          "internalType": "uint256",
          "name": "bctPercentage",
          "type": "uint256"
        },
        {
          "internalType": "uint256",
          "name": "etherealPercentage",
          "type": "uint256"
        },
        {
          "internalType": "bool",
          "name": "anyCollection",
          "type": "bool"
        }
      ],
      "stateMutability": "view",
      "type": "function"
    },
    {
      "inputs": [
        {
          "internalType": "uint256",
          "name": "",
          "type": "uint256"
        }
      ],
      "name": "raritySumOfSquad",
      "outputs": [
        {
          "internalType": "uint256",
          "name": "",
          "type": "uint256"
        }
      ],
      "stateMutability": "view",
      "type": "function"
    },
    {
      "inputs": [
        {
          "internalType": "uint256",
          "name": "squadId",
          "type": "uint256"
        }
      ],
      "name": "recalculateSquadFarming",
      "outputs": [],
      "stateMutability": "nonpayable",
      "type": "function"
    },
    {
      "inputs": [
        {
          "internalType": "address",
          "name": "tokenAddress",
          "type": "address"
        },
        {
          "internalType": "address",
          "name": "to",
          "type": "address"
        },
        {
          "internalType": "uint256",
          "name": "amount",
          "type": "uint256"
        }
      ],
      "name": "recoverERC20",
      "outputs": [],
      "stateMutability": "nonpayable",
      "type": "function"
    },
    {
      "inputs": [
        {
          "internalType": "address",
          "name": "account",
          "type": "address"
        },
        {
          "internalType": "bool",
          "name": "autocreateSquads",
          "type": "bool"
        }
      ],
      "name": "registerPlayer",
      "outputs": [],
      "stateMutability": "nonpayable",
      "type": "function"
    },
    {
      "inputs": [
        {
          "internalType": "uint256[]",
          "name": "nftIds",
          "type": "uint256[]"
        },
        {
          "internalType": "uint256",
          "name": "squadId",
          "type": "uint256"
        }
      ],
      "name": "removeFromSquad",
      "outputs": [],
      "stateMutability": "nonpayable",
      "type": "function"
    },
    {
      "inputs": [
        {
          "internalType": "bytes32",
          "name": "role",
          "type": "bytes32"
        },
        {
          "internalType": "address",
          "name": "account",
          "type": "address"
        }
      ],
      "name": "renounceRole",
      "outputs": [],
      "stateMutability": "nonpayable",
      "type": "function"
    },
    {
      "inputs": [],
      "name": "resetBlocklist",
      "outputs": [],
      "stateMutability": "nonpayable",
      "type": "function"
    },
    {
      "inputs": [
        {
          "internalType": "address",
          "name": "",
          "type": "address"
        },
        {
          "internalType": "uint256",
          "name": "",
          "type": "uint256"
        }
      ],
      "name": "resourceBalances",
      "outputs": [
        {
          "internalType": "uint256",
          "name": "",
          "type": "uint256"
        }
      ],
      "stateMutability": "view",
      "type": "function"
    },
    {
      "inputs": [
        {
          "internalType": "bytes32",
          "name": "role",
          "type": "bytes32"
        },
        {
          "internalType": "address",
          "name": "account",
          "type": "address"
        }
      ],
      "name": "revokeRole",
      "outputs": [],
      "stateMutability": "nonpayable",
      "type": "function"
    },
    {
      "inputs": [
        {
          "internalType": "address",
          "name": "blocklistAddress",
          "type": "address"
        }
      ],
      "name": "setBlocklist",
      "outputs": [],
      "stateMutability": "nonpayable",
      "type": "function"
    },
    {
      "inputs": [
        {
          "internalType": "address",
          "name": "questRewardsCalculator_",
          "type": "address"
        }
      ],
      "name": "setQuestRewardsCalculator",
      "outputs": [],
      "stateMutability": "nonpayable",
      "type": "function"
    },
    {
      "inputs": [
        {
          "internalType": "uint256[]",
          "name": "questIds",
          "type": "uint256[]"
        },
        {
          "components": [
            {
              "internalType": "uint256",
              "name": "id",
              "type": "uint256"
            },
            {
              "internalType": "uint256",
              "name": "minSynergyMultiplier",
              "type": "uint256"
            },
            {
              "internalType": "uint256",
              "name": "bctPercentage",
              "type": "uint256"
            },
            {
              "internalType": "uint256",
              "name": "etherealPercentage",
              "type": "uint256"
            },
            {
              "internalType": "uint256[]",
              "name": "resourceMultipliers",
              "type": "uint256[]"
            },
            {
              "internalType": "uint256[]",
              "name": "traits",
              "type": "uint256[]"
            },
            {
              "internalType": "uint256[]",
              "name": "collections",
              "type": "uint256[]"
            },
            {
              "internalType": "bool",
              "name": "anyCollection",
              "type": "bool"
            }
          ],
          "internalType": "struct IBkQuest.Quest[]",
          "name": "quests_",
          "type": "tuple[]"
        }
      ],
      "name": "setQuests",
      "outputs": [],
      "stateMutability": "nonpayable",
      "type": "function"
    },
    {
      "inputs": [
        {
          "internalType": "uint256",
          "name": "count",
          "type": "uint256"
        }
      ],
      "name": "setResources",
      "outputs": [],
      "stateMutability": "nonpayable",
      "type": "function"
    },
    {
      "inputs": [
        {
          "internalType": "uint256",
          "name": "_scale",
          "type": "uint256"
        }
      ],
      "name": "setScale",
      "outputs": [],
      "stateMutability": "nonpayable",
      "type": "function"
    },
    {
      "inputs": [
        {
          "internalType": "uint256",
          "name": "squadId",
          "type": "uint256"
        },
        {
          "internalType": "uint256",
          "name": "size",
          "type": "uint256"
        }
      ],
      "name": "setSquadSize",
      "outputs": [],
      "stateMutability": "nonpayable",
      "type": "function"
    },
    {
      "inputs": [
        {
          "internalType": "uint256",
          "name": "squadId",
          "type": "uint256"
        },
        {
          "internalType": "uint256",
          "name": "squadTrait",
          "type": "uint256"
        }
      ],
      "name": "setSquadTrait",
      "outputs": [],
      "stateMutability": "nonpayable",
      "type": "function"
    },
    {
      "inputs": [
        {
          "internalType": "uint256",
          "name": "squadId",
          "type": "uint256"
        },
        {
          "internalType": "uint256",
          "name": "type_",
          "type": "uint256"
        }
      ],
      "name": "setSquadType",
      "outputs": [],
      "stateMutability": "nonpayable",
      "type": "function"
    },
    {
      "inputs": [
        {
          "internalType": "address",
          "name": "playerAddress",
          "type": "address"
        },
        {
          "internalType": "uint256",
          "name": "resourceId",
          "type": "uint256"
        }
      ],
      "name": "singleBalanceOf",
      "outputs": [
        {
          "internalType": "uint256",
          "name": "",
          "type": "uint256"
        }
      ],
      "stateMutability": "view",
      "type": "function"
    },
    {
      "inputs": [
        {
          "internalType": "address",
          "name": "account",
          "type": "address"
        },
        {
          "internalType": "uint256",
          "name": "amount",
          "type": "uint256"
        },
        {
          "internalType": "bool",
          "name": "ethereal",
          "type": "bool"
        }
      ],
      "name": "spendBctFrom",
      "outputs": [],
      "stateMutability": "nonpayable",
      "type": "function"
    },
    {
      "inputs": [
        {
          "internalType": "uint256",
          "name": "",
          "type": "uint256"
        }
      ],
      "name": "squads",
      "outputs": [
        {
          "internalType": "address",
          "name": "owner",
          "type": "address"
        },
        {
          "internalType": "uint256",
          "name": "type_",
          "type": "uint256"
        },
        {
          "internalType": "uint256",
          "name": "size",
          "type": "uint256"
        },
        {
          "internalType": "uint256",
          "name": "baseFarmPerBlock",
          "type": "uint256"
        },
        {
          "internalType": "uint256",
          "name": "synergyBonus",
          "type": "uint256"
        },
        {
          "internalType": "uint256",
          "name": "squadBonus",
          "type": "uint256"
        },
        {
          "internalType": "uint256",
          "name": "squadTrait",
          "type": "uint256"
        },
        {
          "internalType": "uint256",
          "name": "farmPerBlock",
          "type": "uint256"
        },
        {
          "internalType": "uint256",
          "name": "currentQuest",
          "type": "uint256"
        },
        {
          "internalType": "uint256",
          "name": "questStartedAt",
          "type": "uint256"
        },
        {
          "internalType": "uint256",
          "name": "questEndsAt",
          "type": "uint256"
        }
      ],
      "stateMutability": "view",
      "type": "function"
    },
    {
      "inputs": [
        {
          "internalType": "address",
          "name": "playerAddress",
          "type": "address"
        }
      ],
      "name": "squadsOf",
      "outputs": [
        {
          "components": [
            {
              "internalType": "address",
              "name": "owner",
              "type": "address"
            },
            {
              "internalType": "uint256",
              "name": "type_",
              "type": "uint256"
            },
            {
              "internalType": "uint256",
              "name": "size",
              "type": "uint256"
            },
            {
              "internalType": "uint256",
              "name": "baseFarmPerBlock",
              "type": "uint256"
            },
            {
              "internalType": "uint256",
              "name": "synergyBonus",
              "type": "uint256"
            },
            {
              "internalType": "uint256",
              "name": "squadBonus",
              "type": "uint256"
            },
            {
              "internalType": "uint256",
              "name": "squadTrait",
              "type": "uint256"
            },
            {
              "internalType": "uint256",
              "name": "farmPerBlock",
              "type": "uint256"
            },
            {
              "internalType": "uint256",
              "name": "currentQuest",
              "type": "uint256"
            },
            {
              "internalType": "uint256",
              "name": "questStartedAt",
              "type": "uint256"
            },
            {
              "internalType": "uint256",
              "name": "questEndsAt",
              "type": "uint256"
            },
            {
              "internalType": "uint256[]",
              "name": "nftIds",
              "type": "uint256[]"
            },
            {
              "internalType": "uint256[]",
              "name": "traits",
              "type": "uint256[]"
            },
            {
              "internalType": "uint256[]",
              "name": "collections",
              "type": "uint256[]"
            }
          ],
          "internalType": "struct IBkSquad.Squad[]",
          "name": "",
          "type": "tuple[]"
        }
      ],
      "stateMutability": "view",
      "type": "function"
    },
    {
      "inputs": [
        {
          "internalType": "uint256",
          "name": "squadId",
          "type": "uint256"
        },
        {
          "internalType": "uint256",
          "name": "questId",
          "type": "uint256"
        }
      ],
      "name": "startQuestFor",
      "outputs": [],
      "stateMutability": "nonpayable",
      "type": "function"
    },
    {
      "inputs": [
        {
          "internalType": "bytes4",
          "name": "interfaceId",
          "type": "bytes4"
        }
      ],
      "name": "supportsInterface",
      "outputs": [
        {
          "internalType": "bool",
          "name": "",
          "type": "bool"
        }
      ],
      "stateMutability": "view",
      "type": "function"
    },
    {
      "inputs": [],
      "name": "totalSquads",
      "outputs": [
        {
          "internalType": "uint256",
          "name": "",
          "type": "uint256"
        }
      ],
      "stateMutability": "view",
      "type": "function"
    },
    {
      "inputs": [
        {
          "internalType": "address",
          "name": "to",
          "type": "address"
        },
        {
          "internalType": "uint256",
          "name": "bct",
          "type": "uint256"
        },
        {
          "internalType": "uint256",
          "name": "ebct",
          "type": "uint256"
        },
        {
          "internalType": "uint256[]",
          "name": "_resources",
          "type": "uint256[]"
        }
      ],
      "name": "transfer",
      "outputs": [],
      "stateMutability": "nonpayable",
      "type": "function"
    },
    {
      "inputs": [
        {
          "internalType": "address",
          "name": "from",
          "type": "address"
        },
        {
          "internalType": "address",
          "name": "to",
          "type": "address"
        },
        {
          "internalType": "uint256",
          "name": "bct",
          "type": "uint256"
        },
        {
          "internalType": "uint256",
          "name": "ebct",
          "type": "uint256"
        },
        {
          "internalType": "uint256[]",
          "name": "_resources",
          "type": "uint256[]"
        }
      ],
      "name": "transferFrom",
      "outputs": [],
      "stateMutability": "nonpayable",
      "type": "function"
    },
    {
      "inputs": [],
      "name": "unpause",
      "outputs": [],
      "stateMutability": "nonpayable",
      "type": "function"
    },
    {
      "inputs": [
        {
          "internalType": "uint256",
          "name": "amount",
          "type": "uint256"
        }
      ],
      "name": "withdraw",
      "outputs": [],
      "stateMutability": "nonpayable",
      "type": "function"
    }
  ],
  "bytecode": "0x608060405234801561001057600080fd5b50615dbe80620000216000396000f3fe608060405234801561001057600080fd5b50600436106103ba5760003560e01c8063799377cb116101f4578063b1918c951161011a578063da73d69c116100ad578063e604fa461161007c578063e604fa4614610af1578063f0c3aa2214610b04578063f1486dcd14610b17578063f8b9940c14610b2a57600080fd5b8063da73d69c14610913578063de1eecc914610926578063e085f980146109f4578063e2eb41ff14610a5e57600080fd5b8063c1f3ef4d116100e9578063c1f3ef4d146108b1578063cc2a9a5b146108c4578063d547741f146108d7578063d9b5e9ac146108ea57600080fd5b8063b1918c9514610865578063b238d31914610878578063b685ed941461088b578063be94495b1461089e57600080fd5b8063931da89b11610192578063a217fddf11610161578063a217fddf14610801578063a86db12f14610809578063ae7521a41461083f578063aef18ae71461085257600080fd5b8063931da89b146107b557806396072aa2146107c857806397cba3ef146107db578063a06bd679146107ee57600080fd5b80637cc1116f116101ce5780637cc1116f146107675780638456cb591461078757806386a4bc7e1461078f57806391d14854146107a257600080fd5b8063799377cb1461071c5780637b3a66101461072f5780637c2c1b1d1461074257600080fd5b80633edc3519116102e45780635c12cd4b1161027757806369a0e9661161024657806369a0e966146106635780636c0f79b61461068357806377822673146106dc57806379502c55146106ef57600080fd5b80635c12cd4b146106045780635c975abb14610624578063634210f41461062f5780636392a51f1461064357600080fd5b806349f86f34116102b357806349f86f3414610555578063501394da1461057557806359f827ad146105885780635bc60976146105e457600080fd5b80633edc3519146105145780633f4ba83a1461052757806341dea03d1461052f57806346e2b2091461054257600080fd5b80631ec971381161035c57806336568abe1161032b57806336568abe146104dd5780633ad0c662146104f05780633c7fd822146104f95780633cb3669a1461050157600080fd5b80631ec9713814610481578063248a9ca3146104945780632e1a7d4d146104b75780632f2ff15d146104ca57600080fd5b80631171bda9116103985780631171bda91461043557806314472f051461044857806318988e431461045b5780631dc985bd1461046e57600080fd5b806301ffc9a7146103bf57806306411b24146103e757806308acf95214610420575b600080fd5b6103d26103cd366004614e1d565b610b4a565b60405190151581526020015b60405180910390f35b6104126103f5366004614e5c565b60d460209081526000928352604080842090915290825290205481565b6040519081526020016103de565b61043361042e366004614fa8565b610b81565b005b610433610443366004615000565b610c82565b610433610456366004615041565b610d23565b610433610469366004615063565b610d51565b61043361047c366004615063565b610d85565b61041261048f36600461507c565b610efd565b6104126104a2366004615063565b60009081526065602052604090206001015490565b6104336104c5366004615063565b611115565b6104336104d83660046150c0565b611263565b6104336104eb3660046150c0565b61128d565b61041260d15481565b6104336112b0565b61043361050f36600461510e565b6112db565b610433610522366004615063565b611304565b610433611322565b61043361053d36600461507c565b611345565b610433610550366004615063565b6116fb565b610568610563366004615063565b611739565b6040516103de919061518b565b61043361058336600461522d565b6118de565b6105c561059636600461528f565b6001600160a01b03908116600090815260ce602052604080822060040154909216808252919020600501549091565b604080516001600160a01b0390931683526020830191909152016103de565b6105f76105f236600461528f565b6118eb565b6040516103de9190615378565b61061761061236600461528f565b6119e3565b6040516103de91906153da565b60975460ff166103d2565b60c9546103d290600160a01b900460ff1681565b61065661065136600461528f565b611afc565b6040516103de9190615447565b610676610671366004615063565b611caf565b6040516103de919061545a565b60ca5460cb5460cc5460cd546106a9936001600160a01b03908116938116928116911684565b604080516001600160a01b03958616815293851660208501529184169183019190915290911660608201526080016103de565b6104336106ea366004615063565b611e54565b60d65460d75460d85461070192919083565b604080519384526020840192909252908201526060016103de565b61043361072a366004615063565b611e6c565b61043361073d366004614e5c565b611e8a565b6103d2610750366004615063565b600090815260cf6020526040902060080154151590565b61041261077536600461528f565b60d56020526000908152604090205481565b610433611f0d565b61043361079d36600461546d565b611f2d565b6103d26107b03660046150c0565b612041565b6104336107c33660046155f9565b61206c565b6104336107d6366004615627565b612171565b6104126107e9366004615063565b612439565b6104126107fc366004615655565b6126a6565b610412600081565b610412610817366004614e5c565b6001600160a01b0391909116600090815260d460209081526040808320938352929052205490565b61043361084d366004615041565b6126ea565b61043361086036600461528f565b612718565b6103d2610873366004614fa8565b612758565b61043361088636600461568a565b612966565b610433610899366004615063565b612993565b6104126108ac366004615063565b6129bd565b6104336108bf366004615063565b612a2d565b6104336108d23660046156ff565b6136ae565b6104336108e53660046150c0565b613808565b6104126108f836600461528f565b6001600160a01b0316600090815260ce602052604090205490565b610433610921366004615041565b61382d565b610997610934366004615063565b60cf60205260009081526040902080546001820154600283015460038401546004850154600586015460068701546007880154600889015460098a0154600a909a01546001600160a01b039099169997989697959694959394929391929091908b565b604080516001600160a01b03909c168c5260208c019a909a52988a01979097526060890195909552608088019390935260a087019190915260c086015260e0850152610100840152610120830152610140820152610160016103de565b610a34610a02366004615063565b60d060205260009081526040902080546001820154600283015460038401546007909401549293919290919060ff1685565b6040805195865260208601949094529284019190915260608301521515608082015260a0016103de565b610ab3610a6c36600461528f565b60ce60205260009081526040902080546001820154600283015460038401546004850154600586015460069096015494959394929391926001600160a01b03909116919087565b6040805197885260208801969096529486019390935260608501919091526001600160a01b0316608084015260a083015260c082015260e0016103de565b610433610aff36600461528f565b61385b565b610433610b1236600461507c565b613896565b610433610b25366004615041565b613c7f565b610412610b38366004615063565b60d26020526000908152604090205481565b60006001600160e01b03198216637965db0b60e01b1480610b7b57506301ffc9a760e01b6001600160e01b03198316145b92915050565b600080516020615d49833981519152610b9981614054565b6001600160a01b038416600090815260ce602052604081206001018054859290610bc4908490615797565b90915550600090505b8251811015610c4d57828181518110610be857610be86157af565b602002602001015160d46000876001600160a01b03166001600160a01b0316815260200190815260200160002060008381526020019081526020016000206000828254610c359190615797565b90915550819050610c45816157c5565b915050610bcd565b50600080516020615d29833981519152308560008686604051610c749594939291906157e0565b60405180910390a150505050565b600080516020615d69833981519152610c9a81614054565b60405163a9059cbb60e01b81526001600160a01b0384811660048301526024820184905285169063a9059cbb90604401602060405180830381600087803b158015610ce457600080fd5b505af1158015610cf8573d6000803e3d6000fd5b505050506040513d601f19601f82011682018060405250810190610d1c9190615830565b5050505050565b600080516020615d49833981519152610d3b81614054565b50600091825260cf602052604090912060060155565b600080516020615d49833981519152610d6981614054565b50600090815260cf602052604081206008810182905560090155565b600081815260cf602052604090208054610da7906001600160a01b031661405e565b600881015415610db657600080fd5b600b810154610dc457600080fd5b60005b600b820154811015610e775760cb54600b830180546001600160a01b039092169163ed6be91f919084908110610dff57610dff6157af565b906000526020600020015460006040518363ffffffff1660e01b8152600401610e32929190918252602082015260400190565b600060405180830381600087803b158015610e4c57600080fd5b505af1158015610e60573d6000803e3d6000fd5b505050508080610e6f906157c5565b915050610dc7565b506040805160008152602081019182905251610e9791600b840191614d45565b506040805160008152602081019182905251610eb791600d840191614d45565b506040805160008152602081019182905251610ed791600c840191614d45565b50600091825260d260205260408220829055600381018290556004810182905560070155565b600080805b8451811015610f5b5781858281518110610f1e57610f1e6157af565b60200260200101511115610f4957848181518110610f3e57610f3e6157af565b602002602001015191505b80610f53816157c5565b915050610f02565b5080831115610f675750815b6000610f74826001615797565b6001600160401b03811115610f8b57610f8b614e88565b604051908082528060200260200182016040528015610fb4578160200160208202803683370190505b50905060005b85518110156110185781868281518110610fd657610fd66157af565b602002602001015181518110610fee57610fee6157af565b602002602001018051809190611003906157c5565b90525080611010816157c5565b915050610fba565b50831561104a57808481518110611031576110316157af565b602002602001018051809190611046906157c5565b9052505b6000805b8381116110ff576001838281518110611069576110696157af565b602002602001015111156110ed57600683828151811061108b5761108b6157af565b602002602001015111156110ba5760068382815181106110ad576110ad6157af565b6020026020010181815250505b60028382815181106110ce576110ce6157af565b60200260200101516110e09190615931565b6110ea9083615797565b91505b806110f7816157c5565b91505061104e565b5061110b81600a615940565b9695505050505050565b61111d6140a0565b33600090815260ce60205260409020805482111561113a57600080fd5b60d7546002820154439161114d91615797565b111561115857600080fd5b6000606461116784600f615940565b611171919061595f565b9050600061117f8285615981565b9050838360000160008282546111959190615981565b909155505043600284015560ca5460405163a9059cbb60e01b8152336004820152602481018390526001600160a01b039091169063a9059cbb90604401602060405180830381600087803b1580156111ec57600080fd5b505af1158015611200573d6000803e3d6000fd5b505050506040513d601f19601f820116820180604052508101906112249190615830565b5060408051338152602081018690529081018390527ff279e6a1f5e320cca91135676d9cb6e44ca8a08c0b88342bcdb1144f6511b56890606001610c74565b60008281526065602052604090206001015461127e81614054565b61128883836140e8565b505050565b6001600160a01b03811633146112a257600080fd5b6112ac828261416e565b5050565b600080516020615d698339815191526112c881614054565b5060c980546001600160a81b0319169055565b600080516020615d498339815191526112f381614054565b6112fe8484846141d5565b50505050565b600080516020615d6983398151915261131c81614054565b5060d655565b600080516020615d6983398151915261133a81614054565b61134261429e565b50565b600081815260cf602052604090208054611367906001600160a01b031661405e565b60088101541561137657600080fd5b600b81015461138457600080fd5b6000805b84518110156116c45760008582815181106113a5576113a56157af565b602090810291909101015160cb546040516341f63bfd60e01b8152600481018390529192506000916001600160a01b03909116906341f63bfd9060240160006040518083038186803b1580156113fa57600080fd5b505afa15801561140e573d6000803e3d6000fd5b505050506040513d6000823e601f3d908101601f191682016040526114369190810190615a8d565b855460608201519192506001600160a01b0391821691161461145757600080fd5b8581608001511461146757600080fd5b6000805b600b870154811015611530578387600b01828154811061148d5761148d6157af565b9060005260206000200154141561151e57600b870180546114b090600190615981565b815481106114c0576114c06157af565b906000526020600020015487600b0182815481106114e0576114e06157af565b600091825260209091200155600b87018054806114ff576114ff615be9565b6001900381819060005260206000200160009055905560019150611530565b80611528816157c5565b91505061146b565b508061153b57600080fd5b60a08201511561161c5760005b600d870154811015611611578260a0015187600d01828154811061156e5761156e6157af565b906000526020600020015414156115ff57600d8701805461159190600190615981565b815481106115a1576115a16157af565b906000526020600020015487600d0182815481106115c1576115c16157af565b600091825260209091200155600d87018054806115e0576115e0615be9565b6001900381819060005260206000200160009055905560019150611611565b80611609816157c5565b915050611548565b508061161c57600080fd5b60cb5460405163ed6be91f60e01b815260048101859052600060248201526001600160a01b039091169063ed6be91f90604401600060405180830381600087803b15801561166957600080fd5b505af115801561167d573d6000803e3d6000fd5b50505050816101000151600181518110611699576116996157af565b6020026020010151856116ac9190615797565b945050505080806116bc906157c5565b915050611388565b50600083815260d26020526040812080548392906116e3908490615981565b909155506116f29050836142f0565b6112fe8361444b565b600080516020615d4983398151915261171381614054565b600082815260cf60205260408120600201805491611730836157c5565b91905055505050565b611783604051806101000160405280600081526020016000815260200160008152602001600081526020016060815260200160608152602001606081526020016000151581525090565b600082815260d060209081526040808320815161010081018352815481526001820154818501526002820154818401526003820154606082015260048201805484518187028101870190955280855291949293608086019390929083018282801561180d57602002820191906000526020600020905b8154815260200190600101908083116117f9575b505050505081526020016005820180548060200260200160405190810160405280929190818152602001828054801561186557602002820191906000526020600020905b815481526020019060010190808311611851575b50505050508152602001600682018054806020026020016040519081016040528092919081815260200182805480156118bd57602002820191906000526020600020905b8154815260200190600101908083116118a9575b50505091835250506007919091015460ff1615156020909101529392505050565b6112fe3385858585614592565b6001600160a01b038116600090815260ce6020526040812060070154606091816001600160401b0381111561192257611922614e88565b60405190808252806020026020018201604052801561195b57816020015b611948614d90565b8152602001906001900390816119405790505b50905060005b828110156119db576001600160a01b038516600090815260ce6020526040902060070180546119ab91908390811061199b5761199b6157af565b9060005260206000200154611caf565b8282815181106119bd576119bd6157af565b602002602001018190525080806119d3906157c5565b915050611961565b509392505050565b611a346040518061010001604052806000815260200160008152602001600081526020016000815260200160006001600160a01b031681526020016000815260200160008152602001606081525090565b6001600160a01b03808316600090815260ce60209081526040808320815161010081018352815481526001820154818501526002820154818401526003820154606082015260048201549095166080860152600581015460a0860152600681015460c0860152600781018054835181860281018601909452808452949594919360e08601939290830182828015611aea57602002820191906000526020600020905b815481526020019060010190808311611ad6575b50505091909252509195945050505050565b6001600160a01b03808216600090815260ce6020908152604080832081516101008101835281548152600182015481850152600282015481840152600382015460608281019190915260048301549096166080820152600582015460a0820152600682015460c08201526007820180548451818702810187019095528085529194929360e0860193909290830182828015611bb657602002820191906000526020600020905b815481526020019060010190808311611ba2575b5050505050815250509050600060d3546001611bd29190615797565b6001600160401b03811115611be957611be9614e88565b604051908082528060200260200182016040528015611c12578160200160208202803683370190505b5060208301518351919250611c2691615797565b81600081518110611c3957611c396157af565b60200260200101818152505060005b60d3548110156119db576001600160a01b038516600090815260d46020908152604080832084845290915290205482611c82836001615797565b81518110611c9257611c926157af565b602090810291909101015280611ca7816157c5565b915050611c48565b611cb7614d90565b600082815260cf6020908152604080832081516101c08101835281546001600160a01b031681526001820154818501526002820154818401526003820154606082015260048201546080820152600582015460a0820152600682015460c0820152600782015460e082015260088201546101008201526009820154610120820152600a820154610140820152600b8201805484518187028101870190955280855291949293610160860193909290830182828015611d9457602002820191906000526020600020905b815481526020019060010190808311611d80575b50505050508152602001600c8201805480602002602001604051908101604052809291908181526020018280548015611dec57602002820191906000526020600020905b815481526020019060010190808311611dd8575b50505050508152602001600d8201805480602002602001604051908101604052809291908181526020018280548015611aea5760200282019190600052602060002090815481526020019060010190808311611ad65750505091909252509195945050505050565b600080516020615d498339815191526112ac81614054565b600080516020615d69833981519152611e8481614054565b5060d355565b600080516020615d69833981519152611ea281614054565b60ca5460405163095ea7b360e01b81526001600160a01b038581166004830152602482018590529091169063095ea7b390604401600060405180830381600087803b158015611ef057600080fd5b505af1158015611f04573d6000803e3d6000fd5b50505050505050565b600080516020615d69833981519152611f2581614054565b6113426147d5565b600080516020615d69833981519152611f4581614054565b60005b82518110156112fe57828181518110611f6357611f636157af565b602002602001015160d06000868481518110611f8157611f816157af565b60200260200101518152602001908152602001600020600082015181600001556020820151816001015560408201518160020155606082015181600301556080820151816004019080519060200190611fdb929190614d45565b5060a08201518051611ff7916005840191602090910190614d45565b5060c08201518051612013916006840191602090910190614d45565b5060e091909101516007909101805460ff191691151591909117905580612039816157c5565b915050611f48565b60009182526065602090815260408084206001600160a01b0393909316845291905290205460ff1690565b600054610100900460ff161580801561208c5750600054600160ff909116105b806120a65750303b1580156120a6575060005460ff166001145b6120af57600080fd5b6000805460ff1916600117905580156120d2576000805461ff0019166101001790555b6120da614812565b6120e2614826565b6120ed600084614842565b612105600080516020615d6983398151915284614842565b61211d600080516020615d4983398151915284614842565b61212682612718565b8015611288576000805461ff0019169055604051600181527f7f26b83ff96e1f2b6a682f133852f6798a09c465da95921460cefb3847402498906020015b60405180910390a1505050565b6121796140a0565b6001600160a01b038216600090815260ce6020526040902060070154156121cb5760405162461bcd60e51b81526020600482015260016024820152603160f81b60448201526064015b60405180910390fd5b336001600160a01b03831614806121f557506121f5600080516020615d4983398151915233612041565b6122255760405162461bcd60e51b81526020600482015260016024820152601960f91b60448201526064016121c2565b6040518061010001604052806000815260200160ce6000856001600160a01b03166001600160a01b0316815260200190815260200160002060010154815260200143815260200143815260200160006001600160a01b03168152602001600181526020016000815260200160006001600160401b038111156122a9576122a9614e88565b6040519080825280602002602001820160405280156122d2578160200160208202803683370190505b5090526001600160a01b03838116600090815260ce6020908152604091829020845181558482015160018201559184015160028301556060840151600383015560808401516004830180546001600160a01b031916919094161790925560a0830151600582015560c0830151600682015560e08301518051919261235e92600785019290910190614d45565b5090505080156123995761237382600661484c565b5061237f82600661484c565b5061238b82600661484c565b5061239782600661484c565b505b60cc5460405163127539d560e11b81526001600160a01b038481166004830152909116906324ea73aa90602401600060405180830381600087803b1580156123e057600080fd5b505af11580156123f4573d6000803e3d6000fd5b50506040516001600160a01b03851681527f8cd3331e32cec677d80b82cf0f71496605e7ed6ff864a3ccedc7d5d11d838c839250602001905060405180910390a15050565b600081815260cf6020908152604080832081516101c08101835281546001600160a01b031681526001820154818501526002820154818401526003820154606082015260048201546080820152600582015460a0820152600682015460c0820152600782015460e082015260088201546101008201526009820154610120820152600a820154610140820152600b82018054845181870281018701909552808552869592946101608601939092919083018282801561251757602002820191906000526020600020905b815481526020019060010190808311612503575b50505050508152602001600c820180548060200260200160405190810160405280929190818152602001828054801561256f57602002820191906000526020600020905b81548152602001906001019080831161255b575b50505050508152602001600d82018054806020026020016040519081016040528092919081815260200182805480156125c757602002820191906000526020600020905b8154815260200190600101908083116125b3575b50505050508152505090506000805b826101600151518110156119db5760cb5461016084015180516001600160a01b039092169163698c9d7e919084908110612612576126126157af565b60200260200101516040518263ffffffff1660e01b815260040161263891815260200190565b60206040518083038186803b15801561265057600080fd5b505afa158015612664573d6000803e3d6000fd5b505050506040513d601f19601f820116820180604052508101906126889190615bff565b6126929083615797565b91508061269e816157c5565b9150506125d6565b6000600080516020615d498339815191526126c081614054565b60006126cc868661484c565b905060038411156126e1576126e181856126ea565b95945050505050565b600080516020615d4983398151915261270281614054565b50600091825260cf602052604090912060020155565b600080516020615d6983398151915261273081614054565b5060c980546001600160a81b0319166001600160a01b0390921691909117600160a01b179055565b6000600080516020615d4983398151915261277281614054565b6001600160a01b038516600090815260ce602052604081208054600182015491929161279e9190615797565b9050808611156127da5760405162461bcd60e51b81526020600482015260076024820152666e6f46756e647360c81b60448201526064016121c2565b816001015486116127f6576127f1878760016141d5565b612821565b6128118783600101548861280a9190615981565b60006141d5565b61282187836001015460016141d5565b60005b8551811015612929576001600160a01b038816600090815260d4602090815260408083208484529091529020548651879083908110612865576128656157af565b6020026020010151116128dc57858181518110612884576128846157af565b602002602001015160d460008a6001600160a01b03166001600160a01b03168152602001908152602001600020600083815260200190815260200160002060008282546128d19190615981565b909155506129179050565b60405162461bcd60e51b815260206004820152601060248201526f6d697373696e675265736f757263657360801b60448201526064016121c2565b80612921816157c5565b915050612824565b50600080516020615d29833981519152876000806000896040516129519594939291906157e0565b60405180910390a15060019695505050505050565b600080516020615d4983398151915261297e81614054565b61298b8686868686614592565b505050505050565b600080516020615d498339815191526129ab81614054565b6129b4826142f0565b6112ac8261444b565b600081815260cf602052604081206004810154600382015483916064916129e49190615940565b6129ee919061595f565b82600301546129fd9190615797565b90506064826005015482612a119190615940565b612a1b919061595f565b612a259082615797565b949350505050565b600080516020615d49833981519152612a4581614054565b600082815260cf60205260409020600881015480612a6257600080fd5b600081815260d0602090815260408083208151610100810183528154815260018201548185015260028201548184015260038201546060820152600482018054845181870281018701909552808552919492936080860193909290830182828015612aec57602002820191906000526020600020905b815481526020019060010190808311612ad8575b5050505050815260200160058201805480602002602001604051908101604052809291908181526020018280548015612b4457602002820191906000526020600020905b815481526020019060010190808311612b30575b5050505050815260200160068201805480602002602001604051908101604052809291908181526020018280548015612b9c57602002820191906000526020600020905b815481526020019060010190808311612b88575b50505091835250506007919091015460ff1615156020909101526009840154909150600090612bcb9043615981565b90506121c0811015612bdc57600080fd5b6000600885018190556009850181905584546001600160a01b0390811680835260ce6020908152604080852060cd5482516101008101845260018c01548152600b8c0154818601528d885260d290945282872054848401526004808c01546060860152600c8c01546080860152600d8c015460a086015260c0850189905260e0850195909552915163170ca6fb60e21b81529095949190911692635c329bec92612ce092909101815181526020808301519082015260408083015190820152606080830151908201526080808301519082015260a0808301519082015260c0808301519082015260e0918201516001600160a01b0316918101919091526101000190565b60006040518083038186803b158015612cf857600080fd5b505afa158015612d0c573d6000803e3d6000fd5b505050506040513d6000823e601f3d908101601f19168201604052612d349190810190615c18565b905060008085604001511115612dc35760d654604086015160078901546127109291612d5f91615940565b612d699190615940565b612d73919061595f565b9050606482600081518110612d8a57612d8a6157af565b602002602001015182612d9d9190615940565b612da7919061595f565b905080836000016000828254612dbd9190615797565b90915550505b606085015160009015612e4f5760d654606087015160078a01546127109291612deb91615940565b612df59190615940565b612dff919061595f565b9050606483600181518110612e1657612e166157af565b602002602001015182612e299190615940565b612e33919061595f565b905080846001016000828254612e499190615797565b90915550505b60408051601a8082526103608201909252600091602082016103408036833701905050905060005b600b8a01548110156135535760cb54600b8b0180546000926001600160a01b0316916341f63bfd9185908110612eaf57612eaf6157af565b90600052602060002001546040518263ffffffff1660e01b8152600401612ed891815260200190565b60006040518083038186803b158015612ef057600080fd5b505afa158015612f04573d6000803e3d6000fd5b505050506040513d6000823e601f3d908101601f19168201604052612f2c9190810190615a8d565b90506000816101000151600081518110612f4857612f486157af565b602002602001015190506000826101000151600181518110612f6c57612f6c6157af565b6020026020010151905087600281518110612f8957612f896157af565b6020026020010151836101400151600081518110612fa957612fa96157af565b6020026020010151828d60800151600081518110612fc957612fc96157af565b6020026020010151612fdb9190615940565b612fe59190615940565b612fef9190615940565b85612ffb600185615981565b8151811061300b5761300b6157af565b6020026020010181815161301f9190615797565b905250875188906003908110613037576130376157af565b6020026020010151836101400151600181518110613057576130576157af565b6020026020010151828d60800151600181518110613077576130776157af565b60200260200101516130899190615940565b6130939190615940565b61309d9190615940565b856130a9846004615797565b815181106130b9576130b96157af565b602002602001018181516130cd9190615797565b9052506006821061317b57876002815181106130eb576130eb6157af565b602002602001015183610140015160048151811061310b5761310b6157af565b6020026020010151828d6080015160008151811061312b5761312b6157af565b602002602001015161313d9190615940565b6131479190615940565b6131519190615940565b858381518110613163576131636157af565b602002602001018181516131779190615797565b9052505b600b82106132305787600381518110613196576131966157af565b60200260200101518361014001516005815181106131b6576131b66157af565b6020026020010151828d608001516001815181106131d6576131d66157af565b60200260200101516131e89190615940565b6131f29190615940565b6131fc9190615940565b85613208846005615797565b81518110613218576132186157af565b6020026020010181815161322c9190615797565b9052505b87600481518110613243576132436157af565b6020026020010151836101400151600281518110613263576132636157af565b6020026020010151828d60800151600281518110613283576132836157af565b60200260200101516132959190615940565b61329f9190615940565b6132a99190615940565b85600a815181106132bc576132bc6157af565b602002602001018181516132d09190615797565b90525060035b600b81101561339c57886005815181106132f2576132f26157af565b6020026020010151846101400151600381518110613312576133126157af565b6020026020010151838e608001518481518110613331576133316157af565b60200260200101516133439190615940565b61334d9190615940565b6133579190615940565b86613363836008615797565b81518110613373576133736157af565b602002602001018181516133879190615797565b90525080613394816157c5565b9150506132d6565b50600c8b60800151511061346d576000886005815181106133bf576133bf6157af565b60200260200101518461014001516003815181106133df576133df6157af565b6020026020010151838e60800151600b815181106133ff576133ff6157af565b60200260200101516134119190615940565b61341b9190615940565b6134259190615940565b9050600e8310156134365780613441565b613441816032615940565b86601381518110613454576134546157af565b602002602001018181516134689190615797565b905250505b600d8b60800151511061353d5760008860058151811061348f5761348f6157af565b60200260200101518461014001516003815181106134af576134af6157af565b6020026020010151838e60800151600c815181106134cf576134cf6157af565b60200260200101516134e19190615940565b6134eb9190615940565b6134f59190615940565b9050600f8310156135065780613511565b613511816032615940565b86601481518110613524576135246157af565b602002602001018181516135389190615797565b905250505b505050808061354b906157c5565b915050612e77565b5060005b815181101561361557601381106135a1576032620d2f00838381518110613580576135806157af565b6020026020010151613592919061595f565b61359c919061595f565b6135c9565b620d2f008282815181106135b7576135b76157af565b60200260200101516135c9919061595f565b8a546001600160a01b0316600090815260d460209081526040808320858452909152812080549091906135fd908490615797565b9091555081905061360d816157c5565b915050613557565b508854604080516001600160a01b039092168252602082018d90528101899052606081018790527fcde2cc6ec9dcf6a80c9d5ba6c25cea4fe5ce5b674a09bf19f27aea9ec00042659060800160405180910390a18854604051600080516020615d29833981519152916136999130916001600160a01b0316908790879087906157e0565b60405180910390a15050505050505050505050565b600054610100900460ff16158080156136ce5750600054600160ff909116105b806136e85750303b1580156136e8575060005460ff166001145b6136f157600080fd5b6000805460ff191660011790558015613714576000805461ff0019166101001790555b61371e878761206c565b604080516080810182526001600160a01b038088168083528782166020808501829052888416858701819052938816606095860181905260ca80546001600160a01b0319908116909517905560cb8054851690931790925560cc8054841690941790935560cd80549092161790558251918201835260018083526201fa4091830182905260149290930182905260d69290925560d79190915560d8558015611f04576000805461ff0019169055604051600181527f7f26b83ff96e1f2b6a682f133852f6798a09c465da95921460cefb38474024989060200160405180910390a150505050505050565b60008281526065602052604090206001015461382381614054565b611288838361416e565b600080516020615d4983398151915261384581614054565b50600091825260cf602052604090912060010155565b600080516020615d6983398151915261387381614054565b5060cd80546001600160a01b0319166001600160a01b0392909216919091179055565b600081815260cf6020526040902080546138b8906001600160a01b031661405e565b6008810154156138c757600080fd5b60028101548351600b8301546138dd9190615797565b11156138e857600080fd5b6000805b8451811015613c51576000858281518110613909576139096157af565b6020908102919091010151845460cb546040516331a9108f60e11b8152600481018490529293506001600160a01b0391821692911690636352211e9060240160206040518083038186803b15801561396057600080fd5b505afa158015613974573d6000803e3d6000fd5b505050506040513d601f19601f820116820180604052508101906139989190615c4c565b6001600160a01b0316146139ab57600080fd5b60cb5460405163061ff27160e51b8152600481018390526001600160a01b039091169063c3fe4e209060240160206040518083038186803b1580156139ef57600080fd5b505afa158015613a03573d6000803e3d6000fd5b505050506040513d601f19601f82011682018060405250810190613a279190615bff565b15613a3157600080fd5b60cb546040516341f63bfd60e01b8152600481018390526000916001600160a01b0316906341f63bfd9060240160006040518083038186803b158015613a7657600080fd5b505afa158015613a8a573d6000803e3d6000fd5b505050506040513d6000823e601f3d908101601f19168201604052613ab29190810190615a8d565b9050613add816101000151600081518110613acf57613acf6157af565b602002602001015187614adf565b613ae657600080fd5b600b85018054600181018255600091825260208220018390555b81610120015151811015613b825760008261012001518281518110613b2757613b276157af565b60200260200101511115613b705785600c018261012001518281518110613b5057613b506157af565b602090810291909101810151825460018101845560009384529190922001555b80613b7a816157c5565b915050613b00565b5060a081015115613bab5760a0810151600d860180546001810182556000918252602090912001555b806101000151600181518110613bc357613bc36157af565b602002602001015184613bd69190615797565b60cb5460405163ed6be91f60e01b815260048101859052602481018990529195506001600160a01b03169063ed6be91f90604401600060405180830381600087803b158015613c2457600080fd5b505af1158015613c38573d6000803e3d6000fd5b5050505050508080613c49906157c5565b9150506138ec565b50600083815260d2602052604081208054839290613c70908490615797565b909155506112fe90508361444b565b600080516020615d49833981519152613c9781614054565b600083815260cf60205260409020600881015415613cb457600080fd5b600083815260d0602090815260408083208151610100810183528154815260018201548185015260028201548184015260038201546060820152600482018054845181870281018701909552808552919492936080860193909290830182828015613d3e57602002820191906000526020600020905b815481526020019060010190808311613d2a575b5050505050815260200160058201805480602002602001604051908101604052809291908181526020018280548015613d9657602002820191906000526020600020905b815481526020019060010190808311613d82575b5050505050815260200160068201805480602002602001604051908101604052809291908181526020018280548015613dee57602002820191906000526020600020905b815481526020019060010190808311613dda575b50505091835250506007919091015460ff1615156020909101528051909150613e1657600080fd5b600b820154613e2457600080fd5b602081015115613e4357806020015182600401541015613e4357600080fd5b60a08101515115613f245760005b8160a0015151811015613f22576000805b600c850154811015613ecd578360a001518381518110613e8457613e846157af565b602002602001015185600c018281548110613ea157613ea16157af565b90600052602060002001541415613ebb5760019150613ecd565b80613ec5816157c5565b915050613e62565b50600684015415613f05578260a001518281518110613eee57613eee6157af565b602002602001015184600601541415613f05575060015b80613f0f57600080fd5b5080613f1a816157c5565b915050613e51565b505b60008160c00151511180613f3957508060e001515b15613fe95760005b8160c0015151811015613fe7576000805b600d850154811015613fc9578360c001518381518110613f7457613f746157af565b602002602001015185600d018281548110613f9157613f916157af565b90600052602060002001541480613fa957508360e001515b15613fb75760019150613fc9565b80613fc1816157c5565b915050613f52565b5080613fd457600080fd5b5080613fdf816157c5565b915050613f41565b505b6008820184905543600983015581546007830154604080516001600160a01b03909316835260208301889052820186905260608201527fb01c6f111ccf2d738b45ffe57725d969f4a4e893a0777391d77fc2351b5f3054906080015b60405180910390a15050505050565b6113428133614b12565b6001600160a01b03811633148015614079575060975460ff16155b806140975750614097600080516020615d4983398151915233612041565b61134257600080fd5b60975460ff16156140e65760405162461bcd60e51b815260206004820152601060248201526f14185d5cd8589b194e881c185d5cd95960821b60448201526064016121c2565b565b6140f28282612041565b6112ac5760008281526065602090815260408083206001600160a01b03851684529091529020805460ff1916600117905561412a3390565b6001600160a01b0316816001600160a01b0316837f2f8788117e7eff1d82e926ec794901d17c78024a50270940304540a733656f0d60405160405180910390a45050565b6141788282612041565b156112ac5760008281526065602090815260408083206001600160a01b0385168085529252808320805460ff1916905551339285917ff6391f5c32d9c69d2a47ea670b442974b53935d1edc7fd64eb21e047a839171b9190a45050565b8015614245576001600160a01b038316600090815260ce602052604081206001018054849290614206908490615981565b909155505060408051600080825260208201909252600080516020615d2983398151915291859181908690825b506040516121649594939291906157e0565b6001600160a01b038316600090815260ce60205260408120805484929061426d908490615981565b909155505060408051600080825260208201909252600080516020615d298339815191529185918590829081614233565b6142a6614b6b565b6097805460ff191690557f5db9ee0a495bf2e6ff9c91a7834c1ba4fdd244a5e8aa4e537bd38aeae4b073aa335b6040516001600160a01b03909116815260200160405180910390a1565b6142f86140a0565b600081815260cf602090815260408083208151938452918301908190529151909161432891600c84019190614d45565b5060005b600b8201548110156112885760cb54600b830180546000926001600160a01b031691635efab6e49185908110614364576143646157af565b90600052602060002001546040518263ffffffff1660e01b815260040161438d91815260200190565b60006040518083038186803b1580156143a557600080fd5b505afa1580156143b9573d6000803e3d6000fd5b505050506040513d6000823e601f3d908101601f191682016040526143e19190810190615c18565b905060005b81518110156144365783600c01828281518110614405576144056157af565b602090810291909101810151825460018101845560009384529190922001558061442e816157c5565b9150506143e6565b50508080614443906157c5565b91505061432c565b6144536140a0565b600081815260cf602052604090206008810154156144995760405162461bcd60e51b81526020600482015260036024820152626f6e5160e81b60448201526064016121c2565b6144a282612439565b6003820155600c810180546040805160208084028201810190925282815261450693909290918301828280156144f757602002820191906000526020600020905b8154815260200190600101908083116144e3575b50505050508260060154610efd565b6004820155600d8101805460408051602080840282018101909252828152614567939092909183018282801561455b57602002820191906000526020600020905b815481526020019060010190808311614547575b50505050506000610efd565b81600401600082825461457a9190615797565b909155506145899050826129bd565b60079091015550565b6001600160a01b038516331480156145ad575060975460ff16155b806145cb57506145cb600080516020615d4983398151915233612041565b6145d457600080fd5b8215614635576001600160a01b038516600090815260ce602052604081208054859290614602908490615981565b90915550506001600160a01b038416600090815260ce60205260408120805485929061462f908490615797565b90915550505b811561469c576001600160a01b038516600090815260ce602052604081206001018054849290614666908490615981565b90915550506001600160a01b038416600090815260ce602052604081206001018054849290614696908490615797565b90915550505b8051156147b05760005b81518110156147ae5760008282815181106146c3576146c36157af565b6020026020010151111561479c578181815181106146e3576146e36157af565b602002602001015160d46000886001600160a01b03166001600160a01b03168152602001908152602001600020600083815260200190815260200160002060008282546147309190615981565b92505081905550818181518110614749576147496157af565b602002602001015160d46000876001600160a01b03166001600160a01b03168152602001908152602001600020600083815260200190815260200160002060008282546147969190615797565b90915550505b806147a6816157c5565b9150506146a6565b505b600080516020615d2983398151915285858585856040516140459594939291906157e0565b6147dd6140a0565b6097805460ff191660011790557f62e78cea01bee320cd4e420270b5ea74000d11b0c9f74754ebdbfc544b05a2586142d33390565b600054610100900460ff166140e657600080fd5b600054610100900460ff1661483a57600080fd5b6140e6614bb4565b6112ac82826140e8565b6001600160a01b038216600090815260ce6020526040812060d8546007909101805490911161487a57600080fd5b600060d154600161488b9190615797565b82546001810184556000848152602081209091018290558354919250906004116148cd5782546148bd90600490615981565b6148c8906005615940565b6148d0565b60005b9050604051806101c00160405280876001600160a01b03168152602001868152602001600381526020016000815260200160008152602001828152602001600081526020016000815260200160008152602001600081526020016000815260200160006001600160401b0381111561494a5761494a614e88565b604051908082528060200260200182016040528015614973578160200160208202803683370190505b50815260200160006040519080825280602002602001820160405280156149a4578160200160208202803683370190505b50815260200160006040519080825280602002602001820160405280156149d5578160200160208202803683370190505b509052600083815260cf6020908152604091829020835181546001600160a01b0319166001600160a01b03909116178155838201516001820155918301516002830155606083015160038301556080830151600483015560a0830151600583015560c0830151600683015560e0830151600783015561010083015160088301556101208301516009830155610140830151600a8301556101608301518051614a8392600b8501920190614d45565b506101808201518051614aa091600c840191602090910190614d45565b506101a08201518051614abd91600d840191602090910190614d45565b505060d1805491506000614ad0836157c5565b90915550919695505050505050565b600081815260cf602052604081206001015483811480614aff5750806006145b80612a2557506006841015949350505050565b614b1c8282612041565b6112ac57614b2981614bd4565b614b34836020614be6565b604051602001614b45929190615c69565b60408051601f198184030181529082905262461bcd60e51b82526121c291600401615cde565b60975460ff166140e65760405162461bcd60e51b815260206004820152601460248201527314185d5cd8589b194e881b9bdd081c185d5cd95960621b60448201526064016121c2565b600054610100900460ff16614bc857600080fd5b6097805460ff19169055565b6060610b7b6001600160a01b03831660145b60606000614bf5836002615940565b614c00906002615797565b6001600160401b03811115614c1757614c17614e88565b6040519080825280601f01601f191660200182016040528015614c41576020820181803683370190505b509050600360fc1b81600081518110614c5c57614c5c6157af565b60200101906001600160f81b031916908160001a905350600f60fb1b81600181518110614c8b57614c8b6157af565b60200101906001600160f81b031916908160001a9053506000614caf846002615940565b614cba906001615797565b90505b6001811115614d32576f181899199a1a9b1b9c1cb0b131b232b360811b85600f1660108110614cee57614cee6157af565b1a60f81b828281518110614d0457614d046157af565b60200101906001600160f81b031916908160001a90535060049490941c93614d2b81615d11565b9050614cbd565b508315614d3e57600080fd5b9392505050565b828054828255906000526020600020908101928215614d80579160200282015b82811115614d80578251825591602001919060010190614d65565b50614d8c929150614e08565b5090565b604051806101c0016040528060006001600160a01b03168152602001600081526020016000815260200160008152602001600081526020016000815260200160008152602001600081526020016000815260200160008152602001600081526020016060815260200160608152602001606081525090565b5b80821115614d8c5760008155600101614e09565b600060208284031215614e2f57600080fd5b81356001600160e01b031981168114614d3e57600080fd5b6001600160a01b038116811461134257600080fd5b60008060408385031215614e6f57600080fd5b8235614e7a81614e47565b946020939093013593505050565b634e487b7160e01b600052604160045260246000fd5b60405161010081016001600160401b0381118282101715614ec157614ec1614e88565b60405290565b60405161018081016001600160401b0381118282101715614ec157614ec1614e88565b604051601f8201601f191681016001600160401b0381118282101715614f1257614f12614e88565b604052919050565b60006001600160401b03821115614f3357614f33614e88565b5060051b60200190565b600082601f830112614f4e57600080fd5b81356020614f63614f5e83614f1a565b614eea565b82815260059290921b84018101918181019086841115614f8257600080fd5b8286015b84811015614f9d5780358352918301918301614f86565b509695505050505050565b600080600060608486031215614fbd57600080fd5b8335614fc881614e47565b92506020840135915060408401356001600160401b03811115614fea57600080fd5b614ff686828701614f3d565b9150509250925092565b60008060006060848603121561501557600080fd5b833561502081614e47565b9250602084013561503081614e47565b929592945050506040919091013590565b6000806040838503121561505457600080fd5b50508035926020909101359150565b60006020828403121561507557600080fd5b5035919050565b6000806040838503121561508f57600080fd5b82356001600160401b038111156150a557600080fd5b6150b185828601614f3d565b95602094909401359450505050565b600080604083850312156150d357600080fd5b8235915060208301356150e581614e47565b809150509250929050565b801515811461134257600080fd5b8035615109816150f0565b919050565b60008060006060848603121561512357600080fd5b833561512e81614e47565b9250602084013591506040840135615145816150f0565b809150509250925092565b600081518084526020808501945080840160005b8381101561518057815187529582019590820190600101615164565b509495945050505050565b6020815281516020820152602082015160408201526040820151606082015260608201516080820152600060808301516101008060a08501526151d2610120850183615150565b915060a0850151601f19808685030160c08701526151f08483615150565b935060c08701519150808685030160e08701525061520e8382615150565b92505060e08501516152238286018215159052565b5090949350505050565b6000806000806080858703121561524357600080fd5b843561524e81614e47565b9350602085013592506040850135915060608501356001600160401b0381111561527757600080fd5b61528387828801614f3d565b91505092959194509250565b6000602082840312156152a157600080fd5b8135614d3e81614e47565b80516001600160a01b0316825260006101c06020830151602085015260408301516040850152606083015160608501526080830151608085015260a083015160a085015260c083015160c085015260e083015160e085015261010080840151818601525061012080840151818601525061014080840151818601525061016080840151828287015261534083870182615150565b92505050610180808401518583038287015261535c8382615150565b925050506101a0808401518583038287015261110b8382615150565b6000602080830181845280855180835260408601915060408160051b870101925083870160005b828110156153cd57603f198886030184526153bb8583516152ac565b9450928501929085019060010161539f565b5092979650505050505050565b602081528151602082015260208201516040820152604082015160608201526060820151608082015260018060a01b0360808301511660a082015260a082015160c082015260c082015160e0820152600060e0830151610100808185015250612a25610120840182615150565b602081526000614d3e6020830184615150565b602081526000614d3e60208301846152ac565b6000806040838503121561548057600080fd5b82356001600160401b038082111561549757600080fd5b6154a386838701614f3d565b93506020915081850135818111156154ba57600080fd5b8501601f810187136154cb57600080fd5b80356154d9614f5e82614f1a565b81815260059190911b820184019084810190898311156154f857600080fd5b8584015b838110156155e85780358681111561551357600080fd5b8501610100818d03601f190181131561552b57600080fd5b615533614e9e565b89830135815260408301358a820152606083013560408201526080830135606082015260a08301358981111561556857600080fd5b6155768f8c83870101614f3d565b60808301525060c08301358981111561558e57600080fd5b61559c8f8c83870101614f3d565b60a08301525060e0830135898111156155b55760008081fd5b6155c38f8c83870101614f3d565b60c0830152506155d48284016150fe565b60e0820152855250509186019186016154fc565b508096505050505050509250929050565b6000806040838503121561560c57600080fd5b823561561781614e47565b915060208301356150e581614e47565b6000806040838503121561563a57600080fd5b823561564581614e47565b915060208301356150e5816150f0565b60008060006060848603121561566a57600080fd5b833561567581614e47565b95602085013595506040909401359392505050565b600080600080600060a086880312156156a257600080fd5b85356156ad81614e47565b945060208601356156bd81614e47565b9350604086013592506060860135915060808601356001600160401b038111156156e657600080fd5b6156f288828901614f3d565b9150509295509295909350565b60008060008060008060c0878903121561571857600080fd5b863561572381614e47565b9550602087013561573381614e47565b9450604087013561574381614e47565b9350606087013561575381614e47565b9250608087013561576381614e47565b915060a087013561577381614e47565b809150509295509295509295565b634e487b7160e01b600052601160045260246000fd5b600082198211156157aa576157aa615781565b500190565b634e487b7160e01b600052603260045260246000fd5b60006000198214156157d9576157d9615781565b5060010190565b6001600160a01b03868116825285166020820152604081018490526060810183905260a06080820181905260009061581a90830184615150565b979650505050505050565b8051615109816150f0565b60006020828403121561584257600080fd5b8151614d3e816150f0565b600181815b8085111561588857816000190482111561586e5761586e615781565b8085161561587b57918102915b93841c9390800290615852565b509250929050565b60008261589f57506001610b7b565b816158ac57506000610b7b565b81600181146158c257600281146158cc576158e8565b6001915050610b7b565b60ff8411156158dd576158dd615781565b50506001821b610b7b565b5060208310610133831016604e8410600b841016171561590b575081810a610b7b565b615915838361584d565b806000190482111561592957615929615781565b029392505050565b6000614d3e60ff841683615890565b600081600019048311821515161561595a5761595a615781565b500290565b60008261597c57634e487b7160e01b600052601260045260246000fd5b500490565b60008282101561599357615993615781565b500390565b60005b838110156159b357818101518382015260200161599b565b838111156112fe5750506000910152565b600082601f8301126159d557600080fd5b81516001600160401b038111156159ee576159ee614e88565b615a01601f8201601f1916602001614eea565b818152846020838601011115615a1657600080fd5b612a25826020830160208701615998565b805161510981614e47565b600082601f830112615a4357600080fd5b81516020615a53614f5e83614f1a565b82815260059290921b84018101918181019086841115615a7257600080fd5b8286015b84811015614f9d5780518352918301918301615a76565b600060208284031215615a9f57600080fd5b81516001600160401b0380821115615ab657600080fd5b908301906101808286031215615acb57600080fd5b615ad3614ec7565b82518152602083015182811115615ae957600080fd5b615af5878286016159c4565b602083015250604083015182811115615b0d57600080fd5b615b19878286016159c4565b604083015250615b2b60608401615a27565b60608201526080830151608082015260a083015160a082015260c083015160c082015260e083015160e08201526101008084015183811115615b6c57600080fd5b615b7888828701615a32565b8284015250506101208084015183811115615b9257600080fd5b615b9e88828701615a32565b8284015250506101408084015183811115615bb857600080fd5b615bc488828701615a32565b8284015250506101609150615bda828401615825565b91810191909152949350505050565b634e487b7160e01b600052603160045260246000fd5b600060208284031215615c1157600080fd5b5051919050565b600060208284031215615c2a57600080fd5b81516001600160401b03811115615c4057600080fd5b612a2584828501615a32565b600060208284031215615c5e57600080fd5b8151614d3e81614e47565b7f416363657373436f6e74726f6c3a206163636f756e7420000000000000000000815260008351615ca1816017850160208801615998565b7001034b99036b4b9b9b4b733903937b6329607d1b6017918401918201528351615cd2816028840160208801615998565b01602801949350505050565b6020815260008251806020840152615cfd816040850160208701615998565b601f01601f19169190910160400192915050565b600081615d2057615d20615781565b50600019019056fead0f552605b44082e9433e65cf90f9a39218485bcb173f148842d857f70c2d3773e573f9566d61418a34d5de3ff49360f9c51fec37f7486551670290f6285dab97667070c54ef182b0f5858b034beac1b6f3089aa2d3188bb1e8929f4fa9b929a264697066735822122026674192ae5163ac31c8f6aef8946af8c7689922719fdcf119884e918fe7e25e64736f6c63430008090033",
  "linkReferences": {},
  "deployedLinkReferences": {}
}