{
  "_format": "hh-sol-artifact-1",
  "contractName": "KoziPool",
  "sourceName": "contracts/features/KoziPool.sol",
  "abi": [
    {
      "anonymous": false,
      "inputs": [
        {
          "indexed": false,
          "internalType": "address",
          "name": "account",
          "type": "address"
        },
        {
          "indexed": false,
          "internalType": "uint256",
          "name": "stabletokensIn",
          "type": "uint256"
        },
        {
          "indexed": false,
          "internalType": "uint256",
          "name": "koziOut",
          "type": "uint256"
        }
      ],
      "name": "Buy",
      "type": "event"
    },
    {
      "anonymous": false,
      "inputs": [
        {
          "indexed": false,
          "internalType": "address",
          "name": "account",
          "type": "address"
        },
        {
          "indexed": false,
          "internalType": "uint256",
          "name": "stabletokensIn",
          "type": "uint256"
        },
        {
          "indexed": false,
          "internalType": "uint256",
          "name": "koziBurned",
          "type": "uint256"
        }
      ],
      "name": "BuyAndBurn",
      "type": "event"
    },
    {
      "anonymous": false,
      "inputs": [
        {
          "indexed": false,
          "internalType": "uint8",
          "name": "version",
          "type": "uint8"
        }
      ],
      "name": "Initialized",
      "type": "event"
    },
    {
      "anonymous": false,
      "inputs": [
        {
          "indexed": false,
          "internalType": "address",
          "name": "from",
          "type": "address"
        },
        {
          "indexed": false,
          "internalType": "uint256",
          "name": "koziIn",
          "type": "uint256"
        },
        {
          "indexed": false,
          "internalType": "uint256",
          "name": "stabletokensIn",
          "type": "uint256"
        }
      ],
      "name": "LiquidityAdded",
      "type": "event"
    },
    {
      "anonymous": false,
      "inputs": [
        {
          "indexed": false,
          "internalType": "uint256",
          "name": "price",
          "type": "uint256"
        },
        {
          "indexed": false,
          "internalType": "uint256",
          "name": "targetPrice",
          "type": "uint256"
        }
      ],
      "name": "NewPrice",
      "type": "event"
    },
    {
      "anonymous": false,
      "inputs": [
        {
          "indexed": false,
          "internalType": "address",
          "name": "account",
          "type": "address"
        }
      ],
      "name": "Paused",
      "type": "event"
    },
    {
      "anonymous": false,
      "inputs": [
        {
          "indexed": true,
          "internalType": "bytes32",
          "name": "role",
          "type": "bytes32"
        },
        {
          "indexed": true,
          "internalType": "bytes32",
          "name": "previousAdminRole",
          "type": "bytes32"
        },
        {
          "indexed": true,
          "internalType": "bytes32",
          "name": "newAdminRole",
          "type": "bytes32"
        }
      ],
      "name": "RoleAdminChanged",
      "type": "event"
    },
    {
      "anonymous": false,
      "inputs": [
        {
          "indexed": true,
          "internalType": "bytes32",
          "name": "role",
          "type": "bytes32"
        },
        {
          "indexed": true,
          "internalType": "address",
          "name": "account",
          "type": "address"
        },
        {
          "indexed": true,
          "internalType": "address",
          "name": "sender",
          "type": "address"
        }
      ],
      "name": "RoleGranted",
      "type": "event"
    },
    {
      "anonymous": false,
      "inputs": [
        {
          "indexed": true,
          "internalType": "bytes32",
          "name": "role",
          "type": "bytes32"
        },
        {
          "indexed": true,
          "internalType": "address",
          "name": "account",
          "type": "address"
        },
        {
          "indexed": true,
          "internalType": "address",
          "name": "sender",
          "type": "address"
        }
      ],
      "name": "RoleRevoked",
      "type": "event"
    },
    {
      "anonymous": false,
      "inputs": [
        {
          "indexed": false,
          "internalType": "address",
          "name": "account",
          "type": "address"
        },
        {
          "indexed": false,
          "internalType": "uint256",
          "name": "koziIn",
          "type": "uint256"
        },
        {
          "indexed": false,
          "internalType": "uint256",
          "name": "stabletokensOut",
          "type": "uint256"
        }
      ],
      "name": "Sell",
      "type": "event"
    },
    {
      "anonymous": false,
      "inputs": [
        {
          "indexed": false,
          "internalType": "address",
          "name": "from",
          "type": "address"
        },
        {
          "indexed": false,
          "internalType": "address",
          "name": "to",
          "type": "address"
        },
        {
          "indexed": false,
          "internalType": "uint256",
          "name": "value",
          "type": "uint256"
        }
      ],
      "name": "TransferKozi",
      "type": "event"
    },
    {
      "anonymous": false,
      "inputs": [
        {
          "indexed": false,
          "internalType": "address",
          "name": "account",
          "type": "address"
        }
      ],
      "name": "Unpaused",
      "type": "event"
    },
    {
      "inputs": [],
      "name": "DEFAULT_ADMIN_ROLE",
      "outputs": [
        {
          "internalType": "bytes32",
          "name": "",
          "type": "bytes32"
        }
      ],
      "stateMutability": "view",
      "type": "function"
    },
    {
      "inputs": [
        {
          "internalType": "address",
          "name": "_operator",
          "type": "address"
        },
        {
          "internalType": "address",
          "name": "_blocklistAddress",
          "type": "address"
        }
      ],
      "name": "__Administrable_init",
      "outputs": [],
      "stateMutability": "nonpayable",
      "type": "function"
    },
    {
      "inputs": [
        {
          "internalType": "uint256",
          "name": "amountOfStabletokens",
          "type": "uint256"
        }
      ],
      "name": "addLiquidity",
      "outputs": [],
      "stateMutability": "payable",
      "type": "function"
    },
    {
      "inputs": [
        {
          "internalType": "uint256",
          "name": "kozi",
          "type": "uint256"
        }
      ],
      "name": "buyKozi",
      "outputs": [
        {
          "internalType": "uint256",
          "name": "stabletokensPaid",
          "type": "uint256"
        }
      ],
      "stateMutability": "nonpayable",
      "type": "function"
    },
    {
      "inputs": [
        {
          "internalType": "uint256",
          "name": "kozi",
          "type": "uint256"
        },
        {
          "internalType": "uint256",
          "name": "atPrice",
          "type": "uint256"
        },
        {
          "internalType": "uint256",
          "name": "maxSlippage",
          "type": "uint256"
        }
      ],
      "name": "buyKoziAtPrice",
      "outputs": [
        {
          "internalType": "uint256",
          "name": "stabletokensPaid",
          "type": "uint256"
        }
      ],
      "stateMutability": "nonpayable",
      "type": "function"
    },
    {
      "inputs": [
        {
          "internalType": "uint256",
          "name": "principal",
          "type": "uint256"
        },
        {
          "internalType": "uint256",
          "name": "ratio",
          "type": "uint256"
        },
        {
          "internalType": "uint256",
          "name": "n",
          "type": "uint256"
        }
      ],
      "name": "compound",
      "outputs": [
        {
          "internalType": "uint256",
          "name": "",
          "type": "uint256"
        }
      ],
      "stateMutability": "pure",
      "type": "function"
    },
    {
      "inputs": [],
      "name": "estimateKindomSellToTargetPrice",
      "outputs": [
        {
          "internalType": "uint256",
          "name": "koziToSell",
          "type": "uint256"
        }
      ],
      "stateMutability": "view",
      "type": "function"
    },
    {
      "inputs": [],
      "name": "gasPriceLimit",
      "outputs": [
        {
          "internalType": "uint256",
          "name": "",
          "type": "uint256"
        }
      ],
      "stateMutability": "view",
      "type": "function"
    },
    {
      "inputs": [],
      "name": "getPrice",
      "outputs": [
        {
          "internalType": "uint256",
          "name": "_price",
          "type": "uint256"
        }
      ],
      "stateMutability": "view",
      "type": "function"
    },
    {
      "inputs": [],
      "name": "getPricesAndReserves",
      "outputs": [
        {
          "internalType": "uint256",
          "name": "_price",
          "type": "uint256"
        },
        {
          "internalType": "uint256",
          "name": "_targetPrice",
          "type": "uint256"
        },
        {
          "internalType": "uint256",
          "name": "_koziReserve",
          "type": "uint256"
        },
        {
          "internalType": "uint256",
          "name": "_stabletokenReserve",
          "type": "uint256"
        }
      ],
      "stateMutability": "view",
      "type": "function"
    },
    {
      "inputs": [],
      "name": "getReserves",
      "outputs": [
        {
          "internalType": "uint256",
          "name": "_koziReserve",
          "type": "uint256"
        },
        {
          "internalType": "uint256",
          "name": "_stabletokenReserve",
          "type": "uint256"
        }
      ],
      "stateMutability": "view",
      "type": "function"
    },
    {
      "inputs": [
        {
          "internalType": "bytes32",
          "name": "role",
          "type": "bytes32"
        }
      ],
      "name": "getRoleAdmin",
      "outputs": [
        {
          "internalType": "bytes32",
          "name": "",
          "type": "bytes32"
        }
      ],
      "stateMutability": "view",
      "type": "function"
    },
    {
      "inputs": [
        {
          "internalType": "uint256",
          "name": "koziOut",
          "type": "uint256"
        }
      ],
      "name": "getStabletokensIn",
      "outputs": [
        {
          "internalType": "uint256",
          "name": "stabletokensIn",
          "type": "uint256"
        }
      ],
      "stateMutability": "view",
      "type": "function"
    },
    {
      "inputs": [],
      "name": "getTargetPrice",
      "outputs": [
        {
          "internalType": "uint256",
          "name": "targetPrice",
          "type": "uint256"
        }
      ],
      "stateMutability": "view",
      "type": "function"
    },
    {
      "inputs": [
        {
          "internalType": "bytes32",
          "name": "role",
          "type": "bytes32"
        },
        {
          "internalType": "address",
          "name": "account",
          "type": "address"
        }
      ],
      "name": "grantRole",
      "outputs": [],
      "stateMutability": "nonpayable",
      "type": "function"
    },
    {
      "inputs": [],
      "name": "hasBlocklist",
      "outputs": [
        {
          "internalType": "bool",
          "name": "",
          "type": "bool"
        }
      ],
      "stateMutability": "view",
      "type": "function"
    },
    {
      "inputs": [
        {
          "internalType": "bytes32",
          "name": "role",
          "type": "bytes32"
        },
        {
          "internalType": "address",
          "name": "account",
          "type": "address"
        }
      ],
      "name": "hasRole",
      "outputs": [
        {
          "internalType": "bool",
          "name": "",
          "type": "bool"
        }
      ],
      "stateMutability": "view",
      "type": "function"
    },
    {
      "inputs": [],
      "name": "initialTargetPrice",
      "outputs": [
        {
          "internalType": "uint256",
          "name": "",
          "type": "uint256"
        }
      ],
      "stateMutability": "view",
      "type": "function"
    },
    {
      "inputs": [
        {
          "internalType": "address",
          "name": "_operator",
          "type": "address"
        },
        {
          "internalType": "address",
          "name": "_blocklist",
          "type": "address"
        },
        {
          "internalType": "address",
          "name": "_stabletoken",
          "type": "address"
        }
      ],
      "name": "initialize",
      "outputs": [],
      "stateMutability": "nonpayable",
      "type": "function"
    },
    {
      "inputs": [],
      "name": "kingdomSell",
      "outputs": [],
      "stateMutability": "payable",
      "type": "function"
    },
    {
      "inputs": [],
      "name": "koziReserve",
      "outputs": [
        {
          "internalType": "uint256",
          "name": "",
          "type": "uint256"
        }
      ],
      "stateMutability": "view",
      "type": "function"
    },
    {
      "inputs": [],
      "name": "lockPeriod",
      "outputs": [
        {
          "internalType": "uint256",
          "name": "",
          "type": "uint256"
        }
      ],
      "stateMutability": "view",
      "type": "function"
    },
    {
      "inputs": [],
      "name": "pause",
      "outputs": [],
      "stateMutability": "nonpayable",
      "type": "function"
    },
    {
      "inputs": [],
      "name": "paused",
      "outputs": [
        {
          "internalType": "bool",
          "name": "",
          "type": "bool"
        }
      ],
      "stateMutability": "view",
      "type": "function"
    },
    {
      "inputs": [
        {
          "internalType": "uint256",
          "name": "koziToBuy",
          "type": "uint256"
        }
      ],
      "name": "quoteBuyKozi",
      "outputs": [
        {
          "internalType": "uint256",
          "name": "costInStabletokens",
          "type": "uint256"
        }
      ],
      "stateMutability": "view",
      "type": "function"
    },
    {
      "inputs": [
        {
          "internalType": "uint256",
          "name": "amount",
          "type": "uint256"
        }
      ],
      "name": "quoteKingdomSell",
      "outputs": [
        {
          "internalType": "uint256",
          "name": "stabletokensOut",
          "type": "uint256"
        }
      ],
      "stateMutability": "view",
      "type": "function"
    },
    {
      "inputs": [
        {
          "internalType": "uint256",
          "name": "kozi",
          "type": "uint256"
        }
      ],
      "name": "quoteKoziToStabletokens",
      "outputs": [
        {
          "internalType": "uint256",
          "name": "stable",
          "type": "uint256"
        }
      ],
      "stateMutability": "view",
      "type": "function"
    },
    {
      "inputs": [
        {
          "internalType": "uint256",
          "name": "koziToSell",
          "type": "uint256"
        }
      ],
      "name": "quoteSellKozi",
      "outputs": [
        {
          "internalType": "uint256",
          "name": "stabletokensOut",
          "type": "uint256"
        }
      ],
      "stateMutability": "view",
      "type": "function"
    },
    {
      "inputs": [
        {
          "internalType": "uint256",
          "name": "stabletokens",
          "type": "uint256"
        }
      ],
      "name": "quoteStableToKozi",
      "outputs": [
        {
          "internalType": "uint256",
          "name": "kozi",
          "type": "uint256"
        }
      ],
      "stateMutability": "view",
      "type": "function"
    },
    {
      "inputs": [
        {
          "internalType": "address",
          "name": "tokenAddress",
          "type": "address"
        },
        {
          "internalType": "address",
          "name": "to",
          "type": "address"
        },
        {
          "internalType": "uint256",
          "name": "amount",
          "type": "uint256"
        }
      ],
      "name": "recoverERC20",
      "outputs": [],
      "stateMutability": "nonpayable",
      "type": "function"
    },
    {
      "inputs": [
        {
          "internalType": "bytes32",
          "name": "role",
          "type": "bytes32"
        },
        {
          "internalType": "address",
          "name": "account",
          "type": "address"
        }
      ],
      "name": "renounceRole",
      "outputs": [],
      "stateMutability": "nonpayable",
      "type": "function"
    },
    {
      "inputs": [],
      "name": "resetBlocklist",
      "outputs": [],
      "stateMutability": "nonpayable",
      "type": "function"
    },
    {
      "inputs": [],
      "name": "resetReserves",
      "outputs": [],
      "stateMutability": "nonpayable",
      "type": "function"
    },
    {
      "inputs": [
        {
          "internalType": "bytes32",
          "name": "role",
          "type": "bytes32"
        },
        {
          "internalType": "address",
          "name": "account",
          "type": "address"
        }
      ],
      "name": "revokeRole",
      "outputs": [],
      "stateMutability": "nonpayable",
      "type": "function"
    },
    {
      "inputs": [],
      "name": "sellKozi",
      "outputs": [
        {
          "internalType": "uint256",
          "name": "stabletokensOut",
          "type": "uint256"
        }
      ],
      "stateMutability": "payable",
      "type": "function"
    },
    {
      "inputs": [
        {
          "internalType": "uint256",
          "name": "atPrice",
          "type": "uint256"
        },
        {
          "internalType": "uint256",
          "name": "maxSlippage",
          "type": "uint256"
        }
      ],
      "name": "sellKoziAtPrice",
      "outputs": [
        {
          "internalType": "uint256",
          "name": "stabletokensOut",
          "type": "uint256"
        }
      ],
      "stateMutability": "payable",
      "type": "function"
    },
    {
      "inputs": [
        {
          "internalType": "address",
          "name": "blocklistAddress",
          "type": "address"
        }
      ],
      "name": "setBlocklist",
      "outputs": [],
      "stateMutability": "nonpayable",
      "type": "function"
    },
    {
      "inputs": [
        {
          "internalType": "uint256",
          "name": "koziIn",
          "type": "uint256"
        },
        {
          "internalType": "uint256",
          "name": "stabletokensOut",
          "type": "uint256"
        },
        {
          "internalType": "bool",
          "name": "_isAboveTargetPrice",
          "type": "bool"
        }
      ],
      "name": "simulateNewPriceAfterSell",
      "outputs": [
        {
          "internalType": "uint256",
          "name": "_priceAfter",
          "type": "uint256"
        }
      ],
      "stateMutability": "view",
      "type": "function"
    },
    {
      "inputs": [],
      "name": "stabletoken",
      "outputs": [
        {
          "internalType": "contract IBkERC20",
          "name": "",
          "type": "address"
        }
      ],
      "stateMutability": "view",
      "type": "function"
    },
    {
      "inputs": [],
      "name": "stabletokenReserve",
      "outputs": [
        {
          "internalType": "uint256",
          "name": "",
          "type": "uint256"
        }
      ],
      "stateMutability": "view",
      "type": "function"
    },
    {
      "inputs": [],
      "name": "startBlock",
      "outputs": [
        {
          "internalType": "uint256",
          "name": "",
          "type": "uint256"
        }
      ],
      "stateMutability": "view",
      "type": "function"
    },
    {
      "inputs": [
        {
          "internalType": "bytes4",
          "name": "interfaceId",
          "type": "bytes4"
        }
      ],
      "name": "supportsInterface",
      "outputs": [
        {
          "internalType": "bool",
          "name": "",
          "type": "bool"
        }
      ],
      "stateMutability": "view",
      "type": "function"
    },
    {
      "inputs": [],
      "name": "tPriceIncrementPerDay",
      "outputs": [
        {
          "internalType": "uint256",
          "name": "",
          "type": "uint256"
        }
      ],
      "stateMutability": "view",
      "type": "function"
    },
    {
      "inputs": [],
      "name": "unpause",
      "outputs": [],
      "stateMutability": "nonpayable",
      "type": "function"
    }
  ],
  "bytecode": "0x608060405234801561001057600080fd5b50612db6806100206000396000f3fe6080604052600436106102665760003560e01c8063624574f611610144578063aef18ae7116100b6578063d547741f1161007a578063d547741f14610698578063d669e7cd146106b8578063db384be1146106ce578063e4517537146106ee578063f3c85eba14610726578063fb04eac31461074657600080fd5b8063aef18ae71461060d578063bd01bb321461062d578063c0c53b8b14610642578063cccc5b0d14610662578063d3f0fbc11461067857600080fd5b80638e2bb5f1116101085780638e2bb5f11461058557806391d148541461058d578063931da89b146105ad578063961a929c146105cd57806398d5fdca146105e3578063a217fddf146105f857600080fd5b8063624574f614610506578063634210f41461052657806367179824146105475780638456cb591461055a5780638d8dac5a1461056f57600080fd5b8063387b2f29116101dd57806348cd4cb1116101a157806348cd4cb1146104685780634b6f6e4c1461047e5780634bd52cc71461049e57806351c6590a146104d35780635c975abb146104e657806362100dfa146104fe57600080fd5b8063387b2f29146103fd5780633a1891d0146104135780633c7fd822146104285780633f4ba83a1461043d5780633fd8b02f1461045257600080fd5b80631171bda91161022f5780631171bda91461032b5780631ebd1d251461034d578063248a9ca31461036d5780632f2ff15d1461039d57806331419e93146103bd57806336568abe146103dd57600080fd5b80625aab241461026b57806301ffc9a71461029e578063077934b5146102ce5780630902f1ac146102ee5780630a46e66d14610316575b600080fd5b34801561027757600080fd5b5061028b610286366004612856565b610766565b6040519081526020015b60405180910390f35b3480156102aa57600080fd5b506102be6102b936600461286f565b610777565b6040519015158152602001610295565b3480156102da57600080fd5b5061028b6102e9366004612856565b6107ac565b3480156102fa57600080fd5b5060ce5460cf5460408051928352602083019190915201610295565b34801561032257600080fd5b5061028b61081e565b34801561033757600080fd5b5061034b6103463660046128b5565b61088e565b005b34801561035957600080fd5b5061028b610368366004612856565b61092f565b34801561037957600080fd5b5061028b610388366004612856565b60009081526068602052604090206001015490565b3480156103a957600080fd5b5061034b6103b83660046128f1565b610995565b3480156103c957600080fd5b5061028b6103d836600461291d565b6109bf565b3480156103e957600080fd5b5061034b6103f83660046128f1565b610aeb565b34801561040957600080fd5b5061028b60d25481565b34801561041f57600080fd5b5061034b610b0e565b34801561043457600080fd5b5061034b610c00565b34801561044957600080fd5b5061034b610c2b565b34801561045e57600080fd5b5061028b60005481565b34801561047457600080fd5b5061028b60d05481565b34801561048a57600080fd5b5061028b610499366004612957565b610c4e565b3480156104aa57600080fd5b506104b3610cd0565b604080519485526020850193909352918301526060820152608001610295565b61034b6104e1366004612856565b610d0d565b3480156104f257600080fd5b50609a5460ff166102be565b61028b610fd8565b34801561051257600080fd5b5061028b610521366004612856565b6110bc565b34801561053257600080fd5b5060cc546102be90600160a01b900460ff1681565b61028b610555366004612990565b61116a565b34801561056657600080fd5b5061034b6112cc565b34801561057b57600080fd5b5061028b60d15481565b61034b6112ec565b34801561059957600080fd5b506102be6105a83660046128f1565b6114d0565b3480156105b957600080fd5b5061034b6105c83660046129b2565b6114fb565b3480156105d957600080fd5b5061028b60025481565b3480156105ef57600080fd5b5061028b611611565b34801561060457600080fd5b5061028b600081565b34801561061957600080fd5b5061034b6106283660046129dc565b611629565b34801561063957600080fd5b5061028b611669565b34801561064e57600080fd5b5061034b61065d3660046129f7565b6116b1565b34801561066e57600080fd5b5061028b60ce5481565b34801561068457600080fd5b5061028b610693366004612856565b6117b4565b3480156106a457600080fd5b5061034b6106b33660046128f1565b61188e565b3480156106c457600080fd5b5061028b60cf5481565b3480156106da57600080fd5b5061028b6106e9366004612856565b6118b3565b3480156106fa57600080fd5b5060cd5461070e906001600160a01b031681565b6040516001600160a01b039091168152602001610295565b34801561073257600080fd5b5061028b61074136600461291d565b6118ff565b34801561075257600080fd5b5061028b610761366004612856565b611937565b6000610771826119bf565b92915050565b60006001600160e01b03198216637965db0b60e01b148061077157506301ffc9a760e01b6001600160e01b0319831614610771565b60008060006107be60ce5460cf549091565b909250905060016107cf8583612a50565b6107d98685612a68565b6107e39190612a9d565b6107ed9190612abf565b92508183106108175760405162461bcd60e51b815260040161080e90612ad6565b60405180910390fd5b5050919050565b60008060008061082c610cd0565b5092509250925081831015610845576000935050505090565b61084f8284612a50565b6108598385612abf565b6108639083612a68565b61086d9190612a9d565b9350606461087c856085612a68565b6108869190612a9d565b935050505090565b600080516020612d418339815191526108a681611a44565b60405163a9059cbb60e01b81526001600160a01b0384811660048301526024820184905285169063a9059cbb90604401602060405180830381600087803b1580156108f057600080fd5b505af1158015610904573d6000803e3d6000fd5b505050506040513d601f19601f820116820180604052508101906109289190612b06565b5050505050565b600080600061094160ce5460cf549091565b915091508184106109645760405162461bcd60e51b815260040161080e90612ad6565b61096e8483612abf565b6109788583612a68565b6109829190612a9d565b61098d906001612a50565b949350505050565b6000828152606860205260409020600101546109b081611a44565b6109ba8383611a4e565b505050565b60cc54600090600160a81b900460ff16156109ec5760405162461bcd60e51b815260040161080e90612b23565b60cc805460ff60a81b1916600160a81b179055610a07611ad4565b6002543a1115610a295760405162461bcd60e51b815260040161080e90612b42565b33610a3381611b1c565b15610a505760405162461bcd60e51b815260040161080e90612b64565b6000610a5a611611565b905060006103e8610a6b8688612a68565b610a759190612a9d565b610a7f9087612a50565b905080821115610aca5760405162461bcd60e51b81526020600482015260166024820152750a0e4d2c6ca40c6d0c2dccecac840e8dede40daeac6d60531b604482015260640161080e565b610ad387611bb5565b60cc805460ff60a81b19169055979650505050505050565b6001600160a01b0381163314610b0057600080fd5b610b0a8282611d8e565b5050565b60cc54600160a81b900460ff1615610b385760405162461bcd60e51b815260040161080e90612b23565b60cc805460ff60a81b1916600160a81b179055600080516020612d41833981519152610b6381611a44565b60cd546040516370a0823160e01b8152306004820152610bf09147916001600160a01b03909116906370a08231906024015b60206040518083038186803b158015610bad57600080fd5b505afa158015610bc1573d6000803e3d6000fd5b505050506040513d601f19601f82011682018060405250810190610be59190612b89565b60ce9190915560cf55565b5060cc805460ff60a81b19169055565b600080516020612d41833981519152610c1881611a44565b5060cc80546001600160a81b0319169055565b600080516020612d41833981519152610c4381611a44565b610c4b611df5565b50565b6000806000610c6060ce5460cf549091565b91509150600084610c715782610c7b565b610c7b8784612a50565b90506000610c898784612abf565b9050610c9d670de0b6b3a764000083612abf565b610caf82670de0b6b3a7640000612a68565b610cb99190612a9d565b610cc4906001612a50565b98975050505050505050565b600080600080610ce7670de0b6b3a76400006118b3565b9350610cf1611669565b9250610d0060ce5460cf549091565b9495939490939092509050565b60cc54600160a81b900460ff1615610d375760405162461bcd60e51b815260040161080e90612b23565b60cc805460ff60a81b1916600160a81b179055610d52611ad4565b6002543a1115610d745760405162461bcd60e51b815260040161080e90612b42565b33610d7e81611b1c565b15610d9b5760405162461bcd60e51b815260040161080e90612b64565b33600090815260016020526040902054431015610dca5760405162461bcd60e51b815260040161080e90612ba2565b610dd333611e47565b600080610de360ce5460cf549091565b915091506000821180610df65750600081115b15610e5c57610e058285612a68565b610e0f8234612a68565b14610e5c5760405162461bcd60e51b815260206004820152601d60248201527f556e62616c616e636564204c69717569646974792050726f7669646564000000604482015260640161080e565b8315610eea5760cd546040516323b872dd60e01b81526001600160a01b03909116906323b872dd90610e9690339030908990600401612bc4565b602060405180830381600087803b158015610eb057600080fd5b505af1158015610ec4573d6000803e3d6000fd5b505050506040513d601f19601f82011682018060405250810190610ee89190612b06565b505b60cd546040516370a0823160e01b8152306004820152610f209147916001600160a01b03909116906370a0823190602401610b95565b6000610f2a611611565b90506000610f36611669565b9050600080516020612d21833981519152333034604051610f5993929190612bc4565b60405180910390a17fac1d76749e5447b7b16f5ab61447e1bd502f3bb4807af3b28e620d1700a6ee45333488604051610f9493929190612be8565b60405180910390a16040805183815260208101839052600080516020612d61833981519152910160405180910390a1505060cc805460ff60a81b1916905550505050565b60cc54600090600160a81b900460ff16156110055760405162461bcd60e51b815260040161080e90612b23565b60cc805460ff60a81b1916600160a81b179055611020611ad4565b6002543a11156110425760405162461bcd60e51b815260040161080e90612b42565b3361104c81611b1c565b156110695760405162461bcd60e51b815260040161080e90612b64565b336000908152600160205260409020544310156110985760405162461bcd60e51b815260040161080e90612ba2565b6110a133611e47565b6110a9611e70565b91505060cc805460ff60a81b1916905590565b60cc54600090600160a81b900460ff16156110e95760405162461bcd60e51b815260040161080e90612b23565b60cc805460ff60a81b1916600160a81b179055611104611ad4565b6002543a11156111265760405162461bcd60e51b815260040161080e90612b42565b3361113081611b1c565b1561114d5760405162461bcd60e51b815260040161080e90612b64565b61115683611bb5565b60cc805460ff60a81b191690559392505050565b60cc54600090600160a81b900460ff16156111975760405162461bcd60e51b815260040161080e90612b23565b60cc805460ff60a81b1916600160a81b1790556111b2611ad4565b6002543a11156111d45760405162461bcd60e51b815260040161080e90612b42565b336111de81611b1c565b156111fb5760405162461bcd60e51b815260040161080e90612b64565b3360009081526001602052604090205443101561122a5760405162461bcd60e51b815260040161080e90612ba2565b61123333611e47565b600061123d611611565b905060006103e861124e8688612a68565b6112589190612a9d565b6112629087612abf565b9050808210156112ad5760405162461bcd60e51b81526020600482015260166024820152750a0e4d2c6ca40c6d0c2dccecac840e8dede40daeac6d60531b604482015260640161080e565b6112b5611e70565b60cc805460ff60a81b191690559695505050505050565b600080516020612d418339815191526112e481611a44565b610c4b61206f565b60cc54600160a81b900460ff16156113165760405162461bcd60e51b815260040161080e90612b23565b60cc805460ff60a81b1916600160a81b1790557f73e573f9566d61418a34d5de3ff49360f9c51fec37f7486551670290f6285dab61135381611a44565b600061135e346117b4565b60cd5460405163a9059cbb60e01b8152336004820152602481018390529192506001600160a01b03169063a9059cbb90604401602060405180830381600087803b1580156113ab57600080fd5b505af11580156113bf573d6000803e3d6000fd5b505050506040513d601f19601f820116820180604052508101906113e39190612b06565b5060cd546040516370a0823160e01b815230600482015261141a9147916001600160a01b03909116906370a0823190602401610b95565b6000611424611611565b90506000611430611669565b9050600080516020612d2183398151915233303460405161145393929190612bc4565b60405180910390a17fed7a144fad14804d5c249145e3e0e2b63a9eb455b76aee5bc92d711e9bba3e4a33348560405161148e93929190612be8565b60405180910390a16040805183815260208101839052600080516020612d61833981519152910160405180910390a1505060cc805460ff60a81b191690555050565b60009182526068602090815260408084206001600160a01b0393909316845291905290205460ff1690565b600354610100900460ff161580801561151b5750600354600160ff909116105b806115355750303b158015611535575060035460ff166001145b61153e57600080fd5b6003805460ff191660011790558015611561576003805461ff0019166101001790555b6115696120ac565b6115716120c0565b61157c6000846120dc565b611594600080516020612d41833981519152846120dc565b6115be7f73e573f9566d61418a34d5de3ff49360f9c51fec37f7486551670290f6285dab846120dc565b6115c782611629565b80156109ba576003805461ff0019169055604051600181527f7f26b83ff96e1f2b6a682f133852f6798a09c465da95921460cefb38474024989060200160405180910390a1505050565b6000611624670de0b6b3a76400006118b3565b905090565b600080516020612d4183398151915261164181611a44565b5060cc80546001600160a81b0319166001600160a01b0390921691909117600160a01b179055565b60008060d0544361167a9190612abf565b9050600061168a6121c083612a9d565b90508061169b5760d1549250505090565b6116aa60d15460d254836118ff565b9250505090565b600354610100900460ff16158080156116d15750600354600160ff909116105b806116eb5750303b1580156116eb575060035460ff166001145b6116f457600080fd5b6003805460ff191660011790558015611717576003805461ff0019166101001790555b61172184846114fb565b60cd80546001600160a01b0319166001600160a01b0384161790554360d055678ac7230489e8000060d15566038d7ea4c6800060d2556000805561176863b2d05e00600255565b80156117ae576003805461ff0019169055604051600181527f7f26b83ff96e1f2b6a682f133852f6798a09c465da95921460cefb38474024989060200160405180910390a15b50505050565b60007f73e573f9566d61418a34d5de3ff49360f9c51fec37f7486551670290f6285dab6117e081611a44565b600083116118265760405162461bcd60e51b8152602060048201526013602482015272125b9cdd59999a58da595b9d08105b5bdd5b9d606a1b604482015260640161080e565b60008061183660ce5460cf549091565b909250905060026118478684612a50565b6118518784612a68565b61185b9190612a9d565b6118659190612a9d565b93508084106118865760405162461bcd60e51b815260040161080e90612ad6565b505050919050565b6000828152606860205260409020600101546118a981611a44565b6109ba8383611d8e565b60008082116118ef5760405162461bcd60e51b81526020600482015260086024820152670616d6f756e743d360c41b604482015260640161080e565b60008061094160ce5460cf549091565b600061098d61193161192b61191460016120e6565b61192687670de0b6b3a7640000612104565b612142565b84612176565b8561239e565b600080600061194960ce5460cf549091565b9092509050600061195a8584612a50565b6119648684612a68565b61196e9190612a9d565b9050600061197a611611565b90506000611986611669565b905061199487848484612406565b95508386106119b55760405162461bcd60e51b815260040161080e90612ad6565b5050505050919050565b60008060006119d160ce5460cf549091565b90925090506119e08483612a50565b6119ea8583612a68565b6119f49190612a9d565b92506000611a00611611565b90506000611a0c611669565b9050611a1a86868484612406565b9450828510611a3b5760405162461bcd60e51b815260040161080e90612ad6565b50505050919050565b610c4b81336124c7565b611a5882826114d0565b610b0a5760008281526068602090815260408083206001600160a01b03851684529091529020805460ff19166001179055611a903390565b6001600160a01b0316816001600160a01b0316837f2f8788117e7eff1d82e926ec794901d17c78024a50270940304540a733656f0d60405160405180910390a45050565b609a5460ff1615611b1a5760405162461bcd60e51b815260206004820152601060248201526f14185d5cd8589b194e881c185d5cd95960821b604482015260640161080e565b565b60cc54600090600160a01b900460ff16611b3857506000919050565b60cc54604051638e204c4360e01b81526001600160a01b03848116600483015290911690638e204c439060240160206040518083038186803b158015611b7d57600080fd5b505afa158015611b91573d6000803e3d6000fd5b505050506040513d601f19601f820116820180604052508101906107719190612b06565b6000808211611bef5760405162461bcd60e51b815260206004820152600660248201526506b6f7a693d360d41b604482015260640161080e565b611bf8826118b3565b60cd546040516323b872dd60e01b81529192506001600160a01b0316906323b872dd90611c2d90339030908690600401612bc4565b602060405180830381600087803b158015611c4757600080fd5b505af1158015611c5b573d6000803e3d6000fd5b505050506040513d601f19601f82011682018060405250810190611c7f9190612b06565b50604051339083156108fc029084906000818181858888f19350505050158015611cad573d6000803e3d6000fd5b5060cd546040516370a0823160e01b8152306004820152611ce49147916001600160a01b03909116906370a0823190602401610b95565b6000611cee611611565b90506000611cfa611669565b9050600080516020612d21833981519152303386604051611d1d93929190612bc4565b60405180910390a17f1cbc5ab135991bd2b6a4b034a04aa2aa086dac1371cb9b16b8b5e2ed6b036bed338486604051611d5893929190612be8565b60405180910390a16040805183815260208101839052600080516020612d61833981519152910160405180910390a15050919050565b611d9882826114d0565b15610b0a5760008281526068602090815260408083206001600160a01b0385168085529252808320805460ff1916905551339285917ff6391f5c32d9c69d2a47ea670b442974b53935d1edc7fd64eb21e047a839171b9190a45050565b611dfd612520565b609a805460ff191690557f5db9ee0a495bf2e6ff9c91a7834c1ba4fdd244a5e8aa4e537bd38aeae4b073aa335b6040516001600160a01b03909116815260200160405180910390a1565b600054611e549043612a50565b6001600160a01b03909116600090815260016020526040902055565b6000803411611eb75760405162461bcd60e51b8152602060048201526013602482015272125b9cdd59999a58da595b9d08105b5bdd5b9d606a1b604482015260640161080e565b6000611ec2346119bf565b90508091506000611ed1611611565b90506000611edd611669565b905080821015611f3f576040516000903480156108fc029183818181858288f19350505050158015611f13573d6000803e3d6000fd5b50600080516020612d2183398151915230600034604051611f3693929190612bc4565b60405180910390a15b60cd5460405163a9059cbb60e01b8152336004820152602481018690526001600160a01b039091169063a9059cbb90604401602060405180830381600087803b158015611f8b57600080fd5b505af1158015611f9f573d6000803e3d6000fd5b505050506040513d601f19601f82011682018060405250810190611fc39190612b06565b5060cd546040516370a0823160e01b8152306004820152611ffa9147916001600160a01b03909116906370a0823190602401610b95565b6000612004611611565b90507fed7a144fad14804d5c249145e3e0e2b63a9eb455b76aee5bc92d711e9bba3e4a33348760405161203993929190612be8565b60405180910390a16040805182815260208101849052600080516020612d61833981519152910160405180910390a15050505090565b612077611ad4565b609a805460ff191660011790557f62e78cea01bee320cd4e420270b5ea74000d11b0c9f74754ebdbfc544b05a258611e2a3390565b600354610100900460ff16611b1a57600080fd5b600354610100900460ff166120d457600080fd5b611b1a612569565b610b0a8282611a4e565b6000677fffffffffffffff8211156120fd57600080fd5b5060401b90565b60008161211057600080fd5b600061211c8484612589565b905060016001607f1b036001600160801b038216111561213b57600080fd5b9392505050565b6000600f83810b9083900b0160016001607f1b0319811280159061216d575060016001607f1b038113155b61213b57600080fd5b600080600084600f0b12801561218f5750826001166001145b905060008085600f0b126121a357846121a8565b846000035b6001600160801b03169050600160801b68010000000000000000821161224257603f82901b91505b841561223a5760018516156121e5578102607f1c5b908002607f1c9060028516156121fb578102607f1c5b908002607f1c906004851615612211578102607f1c5b908002607f1c906008851615612227578102607f1c5b60049490941c93908002607f1c906121d0565b60401c612358565b603f600160601b83101561225c5760209290921b91601f19015b600160701b8310156122745760109290921b91600f19015b600160781b83101561228c5760089290921b91600719015b6001607c1b8310156122a45760049290921b91600319015b6001607e1b8310156122bc5760029290921b91600119015b6001607f1b8310156122d45760019290921b91600019015b60005b861561234157604082106122ea57600080fd5b600187161561231057918302607f1c918101600160801b83111561231057600192831c92015b928002607f1c9260019190911b90600160801b841061233557600193841c9391909101905b600187901c96506122d7565b6040811061234e57600080fd5b6040039190911c90505b600083612365578161236a565b816000035b905060016001607f1b0319811280159061238b575060016001607f1b038113155b61239457600080fd5b9695505050505050565b6000816123ad57506000610771565b600083600f0b12156123be57600080fd5b600f83900b6001600160801b038316810260401c90608084901c026001600160c01b038111156123ed57600080fd5b60401b81198111156123fe57600080fd5b019392505050565b6000806124168686858711610c4e565b90506000838211156124625760028461242f8185612abf565b61243a906064612a68565b6124449190612a9d565b61244e9190612a9d565b9050606381111561245d575060635b61249c565b8361246d8382612abf565b612478906064612a68565b6124829190612a9d565b61248d906002612a68565b9050606381111561249c575060635b60646124a88282612abf565b6124b29088612a68565b6124bc9190612a9d565b979650505050505050565b6124d182826114d0565b610b0a576124de816126eb565b6124e98360206126fd565b6040516020016124fa929190612c35565b60408051601f198184030181529082905262461bcd60e51b825261080e91600401612caa565b609a5460ff16611b1a5760405162461bcd60e51b815260206004820152601460248201527314185d5cd8589b194e881b9bdd081c185d5cd95960621b604482015260640161080e565b600354610100900460ff1661257d57600080fd5b609a805460ff19169055565b60008161259557600080fd5b60006001600160c01b0384116125c05782604085901b816125b8576125b8612a87565b0490506126d7565b60c084811c64010000000081106125d9576020918201911c5b6201000081106125eb576010918201911c5b61010081106125fc576008918201911c5b6010811061260c576004918201911c5b6004811061261c576002918201911c5b6002811061262b576001820191505b60bf820360018603901c6001018260ff0387901b8161264c5761264c612a87565b0492506001600160801b0383111561266357600080fd5b608085901c83026001600160801b038616840260c088901c604089901b8281101561268f576001820391505b608084901b929003828110156126a6576001820391505b829003608084901c82146126bb5760016126cc565b8881816126ca576126ca612a87565b045b870196505050505050505b6001600160801b0381111561213b57600080fd5b60606107716001600160a01b03831660145b6060600061270c836002612a68565b612717906002612a50565b67ffffffffffffffff81111561272f5761272f612cdd565b6040519080825280601f01601f191660200182016040528015612759576020820181803683370190505b509050600360fc1b8160008151811061277457612774612cf3565b60200101906001600160f81b031916908160001a905350600f60fb1b816001815181106127a3576127a3612cf3565b60200101906001600160f81b031916908160001a90535060006127c7846002612a68565b6127d2906001612a50565b90505b600181111561284a576f181899199a1a9b1b9c1cb0b131b232b360811b85600f166010811061280657612806612cf3565b1a60f81b82828151811061281c5761281c612cf3565b60200101906001600160f81b031916908160001a90535060049490941c9361284381612d09565b90506127d5565b50831561213b57600080fd5b60006020828403121561286857600080fd5b5035919050565b60006020828403121561288157600080fd5b81356001600160e01b03198116811461213b57600080fd5b80356001600160a01b03811681146128b057600080fd5b919050565b6000806000606084860312156128ca57600080fd5b6128d384612899565b92506128e160208501612899565b9150604084013590509250925092565b6000806040838503121561290457600080fd5b8235915061291460208401612899565b90509250929050565b60008060006060848603121561293257600080fd5b505081359360208301359350604090920135919050565b8015158114610c4b57600080fd5b60008060006060848603121561296c57600080fd5b8335925060208401359150604084013561298581612949565b809150509250925092565b600080604083850312156129a357600080fd5b50508035926020909101359150565b600080604083850312156129c557600080fd5b6129ce83612899565b915061291460208401612899565b6000602082840312156129ee57600080fd5b61213b82612899565b600080600060608486031215612a0c57600080fd5b612a1584612899565b9250612a2360208501612899565b9150612a3160408501612899565b90509250925092565b634e487b7160e01b600052601160045260246000fd5b60008219821115612a6357612a63612a3a565b500190565b6000816000190483118215151615612a8257612a82612a3a565b500290565b634e487b7160e01b600052601260045260246000fd5b600082612aba57634e487b7160e01b600052601260045260246000fd5b500490565b600082821015612ad157612ad1612a3a565b500390565b602080825260169082015275496e73756666696369656e74204c697175696469747960501b604082015260600190565b600060208284031215612b1857600080fd5b815161213b81612949565b6020808252600590820152640daeae8caf60db1b604082015260600190565b6020808252600890820152670cec2e664d0d2ced60c31b604082015260600190565b6020808252600b908201526a109b1bd8dadb1a5cdd195960aa1b604082015260600190565b600060208284031215612b9b57600080fd5b5051919050565b60208082526008908201526731b7b7b63237bbb760c11b604082015260600190565b6001600160a01b039384168152919092166020820152604081019190915260600190565b6001600160a01b039390931683526020830191909152604082015260600190565b60005b83811015612c24578181015183820152602001612c0c565b838111156117ae5750506000910152565b7f416363657373436f6e74726f6c3a206163636f756e7420000000000000000000815260008351612c6d816017850160208801612c09565b7001034b99036b4b9b9b4b733903937b6329607d1b6017918401918201528351612c9e816028840160208801612c09565b01602801949350505050565b6020815260008251806020840152612cc9816040850160208701612c09565b601f01601f19169190910160400192915050565b634e487b7160e01b600052604160045260246000fd5b634e487b7160e01b600052603260045260246000fd5b600081612d1857612d18612a3a565b50600019019056fefb7c911d762dcd10c3d2aeb52e12bb7a1b461499d8e5c766051fc929599e511197667070c54ef182b0f5858b034beac1b6f3089aa2d3188bb1e8929f4fa9b929b9362b96e28efbb7a7e63bb4a97faf9924ec0394635feff8588a6ae2a5f784fea26469706673582212207906c2ec318d338b459ab2abbde98c0de54aa499956934d5a7b678d3620fdbf264736f6c63430008090033",
  "linkReferences": {},
  "deployedLinkReferences": {}
}