{
  "_format": "hh-sol-artifact-1",
  "contractName": "KoziPool",
  "sourceName": "contracts/features/KoziPool.sol",
  "abi": [
    {
      "anonymous": false,
      "inputs": [
        {
          "indexed": false,
          "internalType": "address",
          "name": "account",
          "type": "address"
        },
        {
          "indexed": false,
          "internalType": "uint256",
          "name": "stabletokensIn",
          "type": "uint256"
        },
        {
          "indexed": false,
          "internalType": "uint256",
          "name": "koziOut",
          "type": "uint256"
        }
      ],
      "name": "Buy",
      "type": "event"
    },
    {
      "anonymous": false,
      "inputs": [
        {
          "indexed": false,
          "internalType": "address",
          "name": "account",
          "type": "address"
        },
        {
          "indexed": false,
          "internalType": "uint256",
          "name": "stabletokensIn",
          "type": "uint256"
        },
        {
          "indexed": false,
          "internalType": "uint256",
          "name": "koziBurned",
          "type": "uint256"
        }
      ],
      "name": "BuyAndBurn",
      "type": "event"
    },
    {
      "anonymous": false,
      "inputs": [
        {
          "indexed": false,
          "internalType": "uint8",
          "name": "version",
          "type": "uint8"
        }
      ],
      "name": "Initialized",
      "type": "event"
    },
    {
      "anonymous": false,
      "inputs": [
        {
          "indexed": false,
          "internalType": "address",
          "name": "from",
          "type": "address"
        },
        {
          "indexed": false,
          "internalType": "uint256",
          "name": "koziIn",
          "type": "uint256"
        },
        {
          "indexed": false,
          "internalType": "uint256",
          "name": "stabletokensIn",
          "type": "uint256"
        }
      ],
      "name": "LiquidityAdded",
      "type": "event"
    },
    {
      "anonymous": false,
      "inputs": [
        {
          "indexed": false,
          "internalType": "uint256",
          "name": "price",
          "type": "uint256"
        },
        {
          "indexed": false,
          "internalType": "uint256",
          "name": "targetPrice",
          "type": "uint256"
        }
      ],
      "name": "NewPrice",
      "type": "event"
    },
    {
      "anonymous": false,
      "inputs": [
        {
          "indexed": false,
          "internalType": "address",
          "name": "account",
          "type": "address"
        }
      ],
      "name": "Paused",
      "type": "event"
    },
    {
      "anonymous": false,
      "inputs": [
        {
          "indexed": true,
          "internalType": "bytes32",
          "name": "role",
          "type": "bytes32"
        },
        {
          "indexed": true,
          "internalType": "bytes32",
          "name": "previousAdminRole",
          "type": "bytes32"
        },
        {
          "indexed": true,
          "internalType": "bytes32",
          "name": "newAdminRole",
          "type": "bytes32"
        }
      ],
      "name": "RoleAdminChanged",
      "type": "event"
    },
    {
      "anonymous": false,
      "inputs": [
        {
          "indexed": true,
          "internalType": "bytes32",
          "name": "role",
          "type": "bytes32"
        },
        {
          "indexed": true,
          "internalType": "address",
          "name": "account",
          "type": "address"
        },
        {
          "indexed": true,
          "internalType": "address",
          "name": "sender",
          "type": "address"
        }
      ],
      "name": "RoleGranted",
      "type": "event"
    },
    {
      "anonymous": false,
      "inputs": [
        {
          "indexed": true,
          "internalType": "bytes32",
          "name": "role",
          "type": "bytes32"
        },
        {
          "indexed": true,
          "internalType": "address",
          "name": "account",
          "type": "address"
        },
        {
          "indexed": true,
          "internalType": "address",
          "name": "sender",
          "type": "address"
        }
      ],
      "name": "RoleRevoked",
      "type": "event"
    },
    {
      "anonymous": false,
      "inputs": [
        {
          "indexed": false,
          "internalType": "address",
          "name": "account",
          "type": "address"
        },
        {
          "indexed": false,
          "internalType": "uint256",
          "name": "koziIn",
          "type": "uint256"
        },
        {
          "indexed": false,
          "internalType": "uint256",
          "name": "stabletokensOut",
          "type": "uint256"
        }
      ],
      "name": "Sell",
      "type": "event"
    },
    {
      "anonymous": false,
      "inputs": [
        {
          "indexed": false,
          "internalType": "address",
          "name": "from",
          "type": "address"
        },
        {
          "indexed": false,
          "internalType": "address",
          "name": "to",
          "type": "address"
        },
        {
          "indexed": false,
          "internalType": "uint256",
          "name": "value",
          "type": "uint256"
        }
      ],
      "name": "TransferKozi",
      "type": "event"
    },
    {
      "anonymous": false,
      "inputs": [
        {
          "indexed": false,
          "internalType": "address",
          "name": "account",
          "type": "address"
        }
      ],
      "name": "Unpaused",
      "type": "event"
    },
    {
      "inputs": [],
      "name": "DEFAULT_ADMIN_ROLE",
      "outputs": [
        {
          "internalType": "bytes32",
          "name": "",
          "type": "bytes32"
        }
      ],
      "stateMutability": "view",
      "type": "function"
    },
    {
      "inputs": [
        {
          "internalType": "address",
          "name": "_operator",
          "type": "address"
        },
        {
          "internalType": "address",
          "name": "_blocklistAddress",
          "type": "address"
        }
      ],
      "name": "__Administrable_init",
      "outputs": [],
      "stateMutability": "nonpayable",
      "type": "function"
    },
    {
      "inputs": [
        {
          "internalType": "uint256",
          "name": "amountOfStabletokens",
          "type": "uint256"
        }
      ],
      "name": "addLiquidity",
      "outputs": [],
      "stateMutability": "payable",
      "type": "function"
    },
    {
      "inputs": [
        {
          "internalType": "uint256",
          "name": "kozi",
          "type": "uint256"
        }
      ],
      "name": "buyKozi",
      "outputs": [
        {
          "internalType": "uint256",
          "name": "stabletokensPaid",
          "type": "uint256"
        }
      ],
      "stateMutability": "nonpayable",
      "type": "function"
    },
    {
      "inputs": [
        {
          "internalType": "uint256",
          "name": "kozi",
          "type": "uint256"
        },
        {
          "internalType": "uint256",
          "name": "atPrice",
          "type": "uint256"
        },
        {
          "internalType": "uint256",
          "name": "maxSlippage",
          "type": "uint256"
        }
      ],
      "name": "buyKoziAtPrice",
      "outputs": [
        {
          "internalType": "uint256",
          "name": "stabletokensPaid",
          "type": "uint256"
        }
      ],
      "stateMutability": "nonpayable",
      "type": "function"
    },
    {
      "inputs": [
        {
          "internalType": "uint256",
          "name": "principal",
          "type": "uint256"
        },
        {
          "internalType": "uint256",
          "name": "ratio",
          "type": "uint256"
        },
        {
          "internalType": "uint256",
          "name": "n",
          "type": "uint256"
        }
      ],
      "name": "compound",
      "outputs": [
        {
          "internalType": "uint256",
          "name": "",
          "type": "uint256"
        }
      ],
      "stateMutability": "pure",
      "type": "function"
    },
    {
      "inputs": [],
      "name": "estimateKindomSellToTargetPrice",
      "outputs": [
        {
          "internalType": "uint256",
          "name": "koziToSell",
          "type": "uint256"
        }
      ],
      "stateMutability": "view",
      "type": "function"
    },
    {
      "inputs": [],
      "name": "gasPriceLimit",
      "outputs": [
        {
          "internalType": "uint256",
          "name": "",
          "type": "uint256"
        }
      ],
      "stateMutability": "view",
      "type": "function"
    },
    {
      "inputs": [],
      "name": "getPrice",
      "outputs": [
        {
          "internalType": "uint256",
          "name": "_price",
          "type": "uint256"
        }
      ],
      "stateMutability": "view",
      "type": "function"
    },
    {
      "inputs": [],
      "name": "getPricesAndReserves",
      "outputs": [
        {
          "internalType": "uint256",
          "name": "_price",
          "type": "uint256"
        },
        {
          "internalType": "uint256",
          "name": "_targetPrice",
          "type": "uint256"
        },
        {
          "internalType": "uint256",
          "name": "_koziReserve",
          "type": "uint256"
        },
        {
          "internalType": "uint256",
          "name": "_stabletokenReserve",
          "type": "uint256"
        }
      ],
      "stateMutability": "view",
      "type": "function"
    },
    {
      "inputs": [],
      "name": "getReserves",
      "outputs": [
        {
          "internalType": "uint256",
          "name": "_koziReserve",
          "type": "uint256"
        },
        {
          "internalType": "uint256",
          "name": "_stabletokenReserve",
          "type": "uint256"
        }
      ],
      "stateMutability": "view",
      "type": "function"
    },
    {
      "inputs": [
        {
          "internalType": "bytes32",
          "name": "role",
          "type": "bytes32"
        }
      ],
      "name": "getRoleAdmin",
      "outputs": [
        {
          "internalType": "bytes32",
          "name": "",
          "type": "bytes32"
        }
      ],
      "stateMutability": "view",
      "type": "function"
    },
    {
      "inputs": [
        {
          "internalType": "uint256",
          "name": "koziOut",
          "type": "uint256"
        }
      ],
      "name": "getStabletokensIn",
      "outputs": [
        {
          "internalType": "uint256",
          "name": "stabletokensIn",
          "type": "uint256"
        }
      ],
      "stateMutability": "view",
      "type": "function"
    },
    {
      "inputs": [],
      "name": "getTargetPrice",
      "outputs": [
        {
          "internalType": "uint256",
          "name": "targetPrice",
          "type": "uint256"
        }
      ],
      "stateMutability": "view",
      "type": "function"
    },
    {
      "inputs": [
        {
          "internalType": "bytes32",
          "name": "role",
          "type": "bytes32"
        },
        {
          "internalType": "address",
          "name": "account",
          "type": "address"
        }
      ],
      "name": "grantRole",
      "outputs": [],
      "stateMutability": "nonpayable",
      "type": "function"
    },
    {
      "inputs": [],
      "name": "hasBlocklist",
      "outputs": [
        {
          "internalType": "bool",
          "name": "",
          "type": "bool"
        }
      ],
      "stateMutability": "view",
      "type": "function"
    },
    {
      "inputs": [
        {
          "internalType": "bytes32",
          "name": "role",
          "type": "bytes32"
        },
        {
          "internalType": "address",
          "name": "account",
          "type": "address"
        }
      ],
      "name": "hasRole",
      "outputs": [
        {
          "internalType": "bool",
          "name": "",
          "type": "bool"
        }
      ],
      "stateMutability": "view",
      "type": "function"
    },
    {
      "inputs": [],
      "name": "initialTargetPrice",
      "outputs": [
        {
          "internalType": "uint256",
          "name": "",
          "type": "uint256"
        }
      ],
      "stateMutability": "view",
      "type": "function"
    },
    {
      "inputs": [
        {
          "internalType": "address",
          "name": "_operator",
          "type": "address"
        },
        {
          "internalType": "address",
          "name": "_blocklist",
          "type": "address"
        },
        {
          "internalType": "address",
          "name": "_stabletoken",
          "type": "address"
        }
      ],
      "name": "initialize",
      "outputs": [],
      "stateMutability": "nonpayable",
      "type": "function"
    },
    {
      "inputs": [],
      "name": "kingdomSell",
      "outputs": [],
      "stateMutability": "payable",
      "type": "function"
    },
    {
      "inputs": [],
      "name": "koziReserve",
      "outputs": [
        {
          "internalType": "uint256",
          "name": "",
          "type": "uint256"
        }
      ],
      "stateMutability": "view",
      "type": "function"
    },
    {
      "inputs": [],
      "name": "lockPeriod",
      "outputs": [
        {
          "internalType": "uint256",
          "name": "",
          "type": "uint256"
        }
      ],
      "stateMutability": "view",
      "type": "function"
    },
    {
      "inputs": [],
      "name": "pause",
      "outputs": [],
      "stateMutability": "nonpayable",
      "type": "function"
    },
    {
      "inputs": [],
      "name": "paused",
      "outputs": [
        {
          "internalType": "bool",
          "name": "",
          "type": "bool"
        }
      ],
      "stateMutability": "view",
      "type": "function"
    },
    {
      "inputs": [
        {
          "internalType": "uint256",
          "name": "koziToBuy",
          "type": "uint256"
        }
      ],
      "name": "quoteBuyKozi",
      "outputs": [
        {
          "internalType": "uint256",
          "name": "costInStabletokens",
          "type": "uint256"
        }
      ],
      "stateMutability": "view",
      "type": "function"
    },
    {
      "inputs": [
        {
          "internalType": "uint256",
          "name": "amount",
          "type": "uint256"
        }
      ],
      "name": "quoteKingdomSell",
      "outputs": [
        {
          "internalType": "uint256",
          "name": "stabletokensOut",
          "type": "uint256"
        }
      ],
      "stateMutability": "view",
      "type": "function"
    },
    {
      "inputs": [
        {
          "internalType": "uint256",
          "name": "kozi",
          "type": "uint256"
        }
      ],
      "name": "quoteKoziToStabletokens",
      "outputs": [
        {
          "internalType": "uint256",
          "name": "stable",
          "type": "uint256"
        }
      ],
      "stateMutability": "view",
      "type": "function"
    },
    {
      "inputs": [
        {
          "internalType": "uint256",
          "name": "koziToSell",
          "type": "uint256"
        }
      ],
      "name": "quoteSellKozi",
      "outputs": [
        {
          "internalType": "uint256",
          "name": "stabletokensOut",
          "type": "uint256"
        }
      ],
      "stateMutability": "view",
      "type": "function"
    },
    {
      "inputs": [
        {
          "internalType": "uint256",
          "name": "stabletokens",
          "type": "uint256"
        }
      ],
      "name": "quoteStableToKozi",
      "outputs": [
        {
          "internalType": "uint256",
          "name": "kozi",
          "type": "uint256"
        }
      ],
      "stateMutability": "view",
      "type": "function"
    },
    {
      "inputs": [
        {
          "internalType": "address",
          "name": "tokenAddress",
          "type": "address"
        },
        {
          "internalType": "address",
          "name": "to",
          "type": "address"
        },
        {
          "internalType": "uint256",
          "name": "amount",
          "type": "uint256"
        }
      ],
      "name": "recoverERC20",
      "outputs": [],
      "stateMutability": "nonpayable",
      "type": "function"
    },
    {
      "inputs": [
        {
          "internalType": "bytes32",
          "name": "role",
          "type": "bytes32"
        },
        {
          "internalType": "address",
          "name": "account",
          "type": "address"
        }
      ],
      "name": "renounceRole",
      "outputs": [],
      "stateMutability": "nonpayable",
      "type": "function"
    },
    {
      "inputs": [],
      "name": "resetBlocklist",
      "outputs": [],
      "stateMutability": "nonpayable",
      "type": "function"
    },
    {
      "inputs": [],
      "name": "resetReserves",
      "outputs": [],
      "stateMutability": "nonpayable",
      "type": "function"
    },
    {
      "inputs": [
        {
          "internalType": "bytes32",
          "name": "role",
          "type": "bytes32"
        },
        {
          "internalType": "address",
          "name": "account",
          "type": "address"
        }
      ],
      "name": "revokeRole",
      "outputs": [],
      "stateMutability": "nonpayable",
      "type": "function"
    },
    {
      "inputs": [],
      "name": "sellKozi",
      "outputs": [
        {
          "internalType": "uint256",
          "name": "stabletokensOut",
          "type": "uint256"
        }
      ],
      "stateMutability": "payable",
      "type": "function"
    },
    {
      "inputs": [
        {
          "internalType": "uint256",
          "name": "atPrice",
          "type": "uint256"
        },
        {
          "internalType": "uint256",
          "name": "maxSlippage",
          "type": "uint256"
        }
      ],
      "name": "sellKoziAtPrice",
      "outputs": [
        {
          "internalType": "uint256",
          "name": "stabletokensOut",
          "type": "uint256"
        }
      ],
      "stateMutability": "payable",
      "type": "function"
    },
    {
      "inputs": [
        {
          "internalType": "address",
          "name": "blocklistAddress",
          "type": "address"
        }
      ],
      "name": "setBlocklist",
      "outputs": [],
      "stateMutability": "nonpayable",
      "type": "function"
    },
    {
      "inputs": [
        {
          "internalType": "uint256",
          "name": "koziIn",
          "type": "uint256"
        },
        {
          "internalType": "uint256",
          "name": "stabletokensOut",
          "type": "uint256"
        },
        {
          "internalType": "bool",
          "name": "_isAboveTargetPrice",
          "type": "bool"
        }
      ],
      "name": "simulateNewPriceAfterSell",
      "outputs": [
        {
          "internalType": "uint256",
          "name": "_priceAfter",
          "type": "uint256"
        }
      ],
      "stateMutability": "view",
      "type": "function"
    },
    {
      "inputs": [],
      "name": "stabletoken",
      "outputs": [
        {
          "internalType": "contract IBkERC20",
          "name": "",
          "type": "address"
        }
      ],
      "stateMutability": "view",
      "type": "function"
    },
    {
      "inputs": [],
      "name": "stabletokenReserve",
      "outputs": [
        {
          "internalType": "uint256",
          "name": "",
          "type": "uint256"
        }
      ],
      "stateMutability": "view",
      "type": "function"
    },
    {
      "inputs": [],
      "name": "startBlock",
      "outputs": [
        {
          "internalType": "uint256",
          "name": "",
          "type": "uint256"
        }
      ],
      "stateMutability": "view",
      "type": "function"
    },
    {
      "inputs": [
        {
          "internalType": "bytes4",
          "name": "interfaceId",
          "type": "bytes4"
        }
      ],
      "name": "supportsInterface",
      "outputs": [
        {
          "internalType": "bool",
          "name": "",
          "type": "bool"
        }
      ],
      "stateMutability": "view",
      "type": "function"
    },
    {
      "inputs": [],
      "name": "tPriceIncrementPerDay",
      "outputs": [
        {
          "internalType": "uint256",
          "name": "",
          "type": "uint256"
        }
      ],
      "stateMutability": "view",
      "type": "function"
    },
    {
      "inputs": [],
      "name": "unpause",
      "outputs": [],
      "stateMutability": "nonpayable",
      "type": "function"
    }
  ],
  "bytecode": "0x608060405234801561001057600080fd5b50612e45806100206000396000f3fe6080604052600436106102665760003560e01c8063624574f611610144578063aef18ae7116100b6578063d547741f1161007a578063d547741f14610698578063d669e7cd146106b8578063db384be1146106ce578063e4517537146106ee578063f3c85eba14610726578063fb04eac31461074657600080fd5b8063aef18ae71461060d578063bd01bb321461062d578063c0c53b8b14610642578063cccc5b0d14610662578063d3f0fbc11461067857600080fd5b80638e2bb5f1116101085780638e2bb5f11461058557806391d148541461058d578063931da89b146105ad578063961a929c146105cd57806398d5fdca146105e3578063a217fddf146105f857600080fd5b8063624574f614610506578063634210f41461052657806367179824146105475780638456cb591461055a5780638d8dac5a1461056f57600080fd5b8063387b2f29116101dd57806348cd4cb1116101a157806348cd4cb1146104685780634b6f6e4c1461047e5780634bd52cc71461049e57806351c6590a146104d35780635c975abb146104e657806362100dfa146104fe57600080fd5b8063387b2f29146103fd5780633a1891d0146104135780633c7fd822146104285780633f4ba83a1461043d5780633fd8b02f1461045257600080fd5b80631171bda91161022f5780631171bda91461032b5780631ebd1d251461034d578063248a9ca31461036d5780632f2ff15d1461039d57806331419e93146103bd57806336568abe146103dd57600080fd5b80625aab241461026b57806301ffc9a71461029e578063077934b5146102ce5780630902f1ac146102ee5780630a46e66d14610316575b600080fd5b34801561027757600080fd5b5061028b6102863660046128e5565b610766565b6040519081526020015b60405180910390f35b3480156102aa57600080fd5b506102be6102b93660046128fe565b610777565b6040519015158152602001610295565b3480156102da57600080fd5b5061028b6102e93660046128e5565b6107ac565b3480156102fa57600080fd5b5060ce5460cf5460408051928352602083019190915201610295565b34801561032257600080fd5b5061028b61081e565b34801561033757600080fd5b5061034b610346366004612944565b61088e565b005b34801561035957600080fd5b5061028b6103683660046128e5565b61092f565b34801561037957600080fd5b5061028b6103883660046128e5565b60009081526068602052604090206001015490565b3480156103a957600080fd5b5061034b6103b8366004612980565b610995565b3480156103c957600080fd5b5061028b6103d83660046129ac565b6109bf565b3480156103e957600080fd5b5061034b6103f8366004612980565b610b23565b34801561040957600080fd5b5061028b60d25481565b34801561041f57600080fd5b5061034b610b46565b34801561043457600080fd5b5061034b610c38565b34801561044957600080fd5b5061034b610c63565b34801561045e57600080fd5b5061028b60005481565b34801561047457600080fd5b5061028b60d05481565b34801561048a57600080fd5b5061028b6104993660046129e6565b610c86565b3480156104aa57600080fd5b506104b3610d08565b604080519485526020850193909352918301526060820152608001610295565b61034b6104e13660046128e5565b610d45565b3480156104f257600080fd5b50609a5460ff166102be565b61028b611010565b34801561051257600080fd5b5061028b6105213660046128e5565b6110f4565b34801561053257600080fd5b5060cc546102be90600160a01b900460ff1681565b61028b610555366004612a1f565b6111da565b34801561056657600080fd5b5061034b61133c565b34801561057b57600080fd5b5061028b60d15481565b61034b61135c565b34801561059957600080fd5b506102be6105a8366004612980565b611540565b3480156105b957600080fd5b5061034b6105c8366004612a41565b61156b565b3480156105d957600080fd5b5061028b60025481565b3480156105ef57600080fd5b5061028b611681565b34801561060457600080fd5b5061028b600081565b34801561061957600080fd5b5061034b610628366004612a6b565b611699565b34801561063957600080fd5b5061028b6116d9565b34801561064e57600080fd5b5061034b61065d366004612a86565b611721565b34801561066e57600080fd5b5061028b60ce5481565b34801561068457600080fd5b5061028b6106933660046128e5565b611824565b3480156106a457600080fd5b5061034b6106b3366004612980565b6118fe565b3480156106c457600080fd5b5061028b60cf5481565b3480156106da57600080fd5b5061028b6106e93660046128e5565b611923565b3480156106fa57600080fd5b5060cd5461070e906001600160a01b031681565b6040516001600160a01b039091168152602001610295565b34801561073257600080fd5b5061028b6107413660046129ac565b61196f565b34801561075257600080fd5b5061028b6107613660046128e5565b6119a7565b600061077182611a2f565b92915050565b60006001600160e01b03198216637965db0b60e01b148061077157506301ffc9a760e01b6001600160e01b0319831614610771565b60008060006107be60ce5460cf549091565b909250905060016107cf8583612adf565b6107d98685612af7565b6107e39190612b2c565b6107ed9190612b4e565b92508183106108175760405162461bcd60e51b815260040161080e90612b65565b60405180910390fd5b5050919050565b60008060008061082c610d08565b5092509250925081831015610845576000935050505090565b61084f8284612adf565b6108598385612b4e565b6108639083612af7565b61086d9190612b2c565b9350606461087c856085612af7565b6108869190612b2c565b935050505090565b600080516020612dd08339815191526108a681611ab4565b60405163a9059cbb60e01b81526001600160a01b0384811660048301526024820184905285169063a9059cbb90604401602060405180830381600087803b1580156108f057600080fd5b505af1158015610904573d6000803e3d6000fd5b505050506040513d601f19601f820116820180604052508101906109289190612b95565b5050505050565b600080600061094160ce5460cf549091565b915091508184106109645760405162461bcd60e51b815260040161080e90612b65565b61096e8483612b4e565b6109788583612af7565b6109829190612b2c565b61098d906001612adf565b949350505050565b6000828152606860205260409020600101546109b081611ab4565b6109ba8383611abe565b505050565b60cc54600090600160a81b900460ff16156109ec5760405162461bcd60e51b815260040161080e90612bb2565b60cc805460ff60a81b1916600160a81b179055610a07611b44565b6002543a1115610a295760405162461bcd60e51b815260040161080e90612bd1565b33610a3381611b8c565b15610a505760405162461bcd60e51b815260040161080e90612bf3565b33600090815260016020526040902054431015610a7f5760405162461bcd60e51b815260040161080e90612c18565b610a8833611c25565b6000610a92611681565b905060006103e8610aa38688612af7565b610aad9190612b2c565b610ab79087612adf565b905080821115610b025760405162461bcd60e51b81526020600482015260166024820152750a0e4d2c6ca40c6d0c2dccecac840e8dede40daeac6d60531b604482015260640161080e565b610b0b87611c4e565b60cc805460ff60a81b19169055979650505050505050565b6001600160a01b0381163314610b3857600080fd5b610b428282611e46565b5050565b60cc54600160a81b900460ff1615610b705760405162461bcd60e51b815260040161080e90612bb2565b60cc805460ff60a81b1916600160a81b179055600080516020612dd0833981519152610b9b81611ab4565b60cd546040516370a0823160e01b8152306004820152610c289147916001600160a01b03909116906370a08231906024015b60206040518083038186803b158015610be557600080fd5b505afa158015610bf9573d6000803e3d6000fd5b505050506040513d601f19601f82011682018060405250810190610c1d9190612c3a565b60ce9190915560cf55565b5060cc805460ff60a81b19169055565b600080516020612dd0833981519152610c5081611ab4565b5060cc80546001600160a81b0319169055565b600080516020612dd0833981519152610c7b81611ab4565b610c83611ead565b50565b6000806000610c9860ce5460cf549091565b91509150600084610ca95782610cb3565b610cb38784612adf565b90506000610cc18784612b4e565b9050610cd5670de0b6b3a764000083612b4e565b610ce782670de0b6b3a7640000612af7565b610cf19190612b2c565b610cfc906001612adf565b98975050505050505050565b600080600080610d1f670de0b6b3a7640000611923565b9350610d296116d9565b9250610d3860ce5460cf549091565b9495939490939092509050565b60cc54600160a81b900460ff1615610d6f5760405162461bcd60e51b815260040161080e90612bb2565b60cc805460ff60a81b1916600160a81b179055610d8a611b44565b6002543a1115610dac5760405162461bcd60e51b815260040161080e90612bd1565b33610db681611b8c565b15610dd35760405162461bcd60e51b815260040161080e90612bf3565b33600090815260016020526040902054431015610e025760405162461bcd60e51b815260040161080e90612c18565b610e0b33611c25565b600080610e1b60ce5460cf549091565b915091506000821180610e2e5750600081115b15610e9457610e3d8285612af7565b610e478234612af7565b14610e945760405162461bcd60e51b815260206004820152601d60248201527f556e62616c616e636564204c69717569646974792050726f7669646564000000604482015260640161080e565b8315610f225760cd546040516323b872dd60e01b81526001600160a01b03909116906323b872dd90610ece90339030908990600401612c53565b602060405180830381600087803b158015610ee857600080fd5b505af1158015610efc573d6000803e3d6000fd5b505050506040513d601f19601f82011682018060405250810190610f209190612b95565b505b60cd546040516370a0823160e01b8152306004820152610f589147916001600160a01b03909116906370a0823190602401610bcd565b6000610f62611681565b90506000610f6e6116d9565b9050600080516020612db0833981519152333034604051610f9193929190612c53565b60405180910390a17fac1d76749e5447b7b16f5ab61447e1bd502f3bb4807af3b28e620d1700a6ee45333488604051610fcc93929190612c77565b60405180910390a16040805183815260208101839052600080516020612df0833981519152910160405180910390a1505060cc805460ff60a81b1916905550505050565b60cc54600090600160a81b900460ff161561103d5760405162461bcd60e51b815260040161080e90612bb2565b60cc805460ff60a81b1916600160a81b179055611058611b44565b6002543a111561107a5760405162461bcd60e51b815260040161080e90612bd1565b3361108481611b8c565b156110a15760405162461bcd60e51b815260040161080e90612bf3565b336000908152600160205260409020544310156110d05760405162461bcd60e51b815260040161080e90612c18565b6110d933611c25565b6110e1611eff565b91505060cc805460ff60a81b1916905590565b60cc54600090600160a81b900460ff16156111215760405162461bcd60e51b815260040161080e90612bb2565b60cc805460ff60a81b1916600160a81b17905561113c611b44565b6002543a111561115e5760405162461bcd60e51b815260040161080e90612bd1565b3361116881611b8c565b156111855760405162461bcd60e51b815260040161080e90612bf3565b336000908152600160205260409020544310156111b45760405162461bcd60e51b815260040161080e90612c18565b6111bd33611c25565b6111c683611c4e565b60cc805460ff60a81b191690559392505050565b60cc54600090600160a81b900460ff16156112075760405162461bcd60e51b815260040161080e90612bb2565b60cc805460ff60a81b1916600160a81b179055611222611b44565b6002543a11156112445760405162461bcd60e51b815260040161080e90612bd1565b3361124e81611b8c565b1561126b5760405162461bcd60e51b815260040161080e90612bf3565b3360009081526001602052604090205443101561129a5760405162461bcd60e51b815260040161080e90612c18565b6112a333611c25565b60006112ad611681565b905060006103e86112be8688612af7565b6112c89190612b2c565b6112d29087612b4e565b90508082101561131d5760405162461bcd60e51b81526020600482015260166024820152750a0e4d2c6ca40c6d0c2dccecac840e8dede40daeac6d60531b604482015260640161080e565b611325611eff565b60cc805460ff60a81b191690559695505050505050565b600080516020612dd083398151915261135481611ab4565b610c836120fe565b60cc54600160a81b900460ff16156113865760405162461bcd60e51b815260040161080e90612bb2565b60cc805460ff60a81b1916600160a81b1790557f73e573f9566d61418a34d5de3ff49360f9c51fec37f7486551670290f6285dab6113c381611ab4565b60006113ce34611824565b60cd5460405163a9059cbb60e01b8152336004820152602481018390529192506001600160a01b03169063a9059cbb90604401602060405180830381600087803b15801561141b57600080fd5b505af115801561142f573d6000803e3d6000fd5b505050506040513d601f19601f820116820180604052508101906114539190612b95565b5060cd546040516370a0823160e01b815230600482015261148a9147916001600160a01b03909116906370a0823190602401610bcd565b6000611494611681565b905060006114a06116d9565b9050600080516020612db08339815191523330346040516114c393929190612c53565b60405180910390a17fed7a144fad14804d5c249145e3e0e2b63a9eb455b76aee5bc92d711e9bba3e4a3334856040516114fe93929190612c77565b60405180910390a16040805183815260208101839052600080516020612df0833981519152910160405180910390a1505060cc805460ff60a81b191690555050565b60009182526068602090815260408084206001600160a01b0393909316845291905290205460ff1690565b600354610100900460ff161580801561158b5750600354600160ff909116105b806115a55750303b1580156115a5575060035460ff166001145b6115ae57600080fd5b6003805460ff1916600117905580156115d1576003805461ff0019166101001790555b6115d961213b565b6115e161214f565b6115ec60008461216b565b611604600080516020612dd08339815191528461216b565b61162e7f73e573f9566d61418a34d5de3ff49360f9c51fec37f7486551670290f6285dab8461216b565b61163782611699565b80156109ba576003805461ff0019169055604051600181527f7f26b83ff96e1f2b6a682f133852f6798a09c465da95921460cefb38474024989060200160405180910390a1505050565b6000611694670de0b6b3a7640000611923565b905090565b600080516020612dd08339815191526116b181611ab4565b5060cc80546001600160a81b0319166001600160a01b0390921691909117600160a01b179055565b60008060d054436116ea9190612b4e565b905060006116fa6121c083612b2c565b90508061170b5760d1549250505090565b61171a60d15460d2548361196f565b9250505090565b600354610100900460ff16158080156117415750600354600160ff909116105b8061175b5750303b15801561175b575060035460ff166001145b61176457600080fd5b6003805460ff191660011790558015611787576003805461ff0019166101001790555b611791848461156b565b60cd80546001600160a01b0319166001600160a01b0384161790554360d055678ac7230489e8000060d15566038d7ea4c6800060d255600080556117d863b2d05e00600255565b801561181e576003805461ff0019169055604051600181527f7f26b83ff96e1f2b6a682f133852f6798a09c465da95921460cefb38474024989060200160405180910390a15b50505050565b60007f73e573f9566d61418a34d5de3ff49360f9c51fec37f7486551670290f6285dab61185081611ab4565b600083116118965760405162461bcd60e51b8152602060048201526013602482015272125b9cdd59999a58da595b9d08105b5bdd5b9d606a1b604482015260640161080e565b6000806118a660ce5460cf549091565b909250905060026118b78684612adf565b6118c18784612af7565b6118cb9190612b2c565b6118d59190612b2c565b93508084106118f65760405162461bcd60e51b815260040161080e90612b65565b505050919050565b60008281526068602052604090206001015461191981611ab4565b6109ba8383611e46565b600080821161195f5760405162461bcd60e51b81526020600482015260086024820152670616d6f756e743d360c41b604482015260640161080e565b60008061094160ce5460cf549091565b600061098d6119a161199b6119846001612175565b61199687670de0b6b3a7640000612193565b6121d1565b84612205565b8561242d565b60008060006119b960ce5460cf549091565b909250905060006119ca8584612adf565b6119d48684612af7565b6119de9190612b2c565b905060006119ea611681565b905060006119f66116d9565b9050611a0487848484612495565b9550838610611a255760405162461bcd60e51b815260040161080e90612b65565b5050505050919050565b6000806000611a4160ce5460cf549091565b9092509050611a508483612adf565b611a5a8583612af7565b611a649190612b2c565b92506000611a70611681565b90506000611a7c6116d9565b9050611a8a86868484612495565b9450828510611aab5760405162461bcd60e51b815260040161080e90612b65565b50505050919050565b610c838133612556565b611ac88282611540565b610b425760008281526068602090815260408083206001600160a01b03851684529091529020805460ff19166001179055611b003390565b6001600160a01b0316816001600160a01b0316837f2f8788117e7eff1d82e926ec794901d17c78024a50270940304540a733656f0d60405160405180910390a45050565b609a5460ff1615611b8a5760405162461bcd60e51b815260206004820152601060248201526f14185d5cd8589b194e881c185d5cd95960821b604482015260640161080e565b565b60cc54600090600160a01b900460ff16611ba857506000919050565b60cc54604051638e204c4360e01b81526001600160a01b03848116600483015290911690638e204c439060240160206040518083038186803b158015611bed57600080fd5b505afa158015611c01573d6000803e3d6000fd5b505050506040513d601f19601f820116820180604052508101906107719190612b95565b600054611c329043612adf565b6001600160a01b03909116600090815260016020526040902055565b600066038d7ea4c68000821015611ca75760405162461bcd60e51b815260206004820152601960248201527f4d696e696d756d2062757920697320302e303031204b4f5a4900000000000000604482015260640161080e565b611cb082611923565b60cd546040516323b872dd60e01b81529192506001600160a01b0316906323b872dd90611ce590339030908690600401612c53565b602060405180830381600087803b158015611cff57600080fd5b505af1158015611d13573d6000803e3d6000fd5b505050506040513d601f19601f82011682018060405250810190611d379190612b95565b50604051339083156108fc029084906000818181858888f19350505050158015611d65573d6000803e3d6000fd5b5060cd546040516370a0823160e01b8152306004820152611d9c9147916001600160a01b03909116906370a0823190602401610bcd565b6000611da6611681565b90506000611db26116d9565b9050600080516020612db0833981519152303386604051611dd593929190612c53565b60405180910390a17f1cbc5ab135991bd2b6a4b034a04aa2aa086dac1371cb9b16b8b5e2ed6b036bed338486604051611e1093929190612c77565b60405180910390a16040805183815260208101839052600080516020612df0833981519152910160405180910390a15050919050565b611e508282611540565b15610b425760008281526068602090815260408083206001600160a01b0385168085529252808320805460ff1916905551339285917ff6391f5c32d9c69d2a47ea670b442974b53935d1edc7fd64eb21e047a839171b9190a45050565b611eb56125af565b609a805460ff191690557f5db9ee0a495bf2e6ff9c91a7834c1ba4fdd244a5e8aa4e537bd38aeae4b073aa335b6040516001600160a01b03909116815260200160405180910390a1565b6000803411611f465760405162461bcd60e51b8152602060048201526013602482015272125b9cdd59999a58da595b9d08105b5bdd5b9d606a1b604482015260640161080e565b6000611f5134611a2f565b90508091506000611f60611681565b90506000611f6c6116d9565b905080821015611fce576040516000903480156108fc029183818181858288f19350505050158015611fa2573d6000803e3d6000fd5b50600080516020612db083398151915230600034604051611fc593929190612c53565b60405180910390a15b60cd5460405163a9059cbb60e01b8152336004820152602481018690526001600160a01b039091169063a9059cbb90604401602060405180830381600087803b15801561201a57600080fd5b505af115801561202e573d6000803e3d6000fd5b505050506040513d601f19601f820116820180604052508101906120529190612b95565b5060cd546040516370a0823160e01b81523060048201526120899147916001600160a01b03909116906370a0823190602401610bcd565b6000612093611681565b90507fed7a144fad14804d5c249145e3e0e2b63a9eb455b76aee5bc92d711e9bba3e4a3334876040516120c893929190612c77565b60405180910390a16040805182815260208101849052600080516020612df0833981519152910160405180910390a15050505090565b612106611b44565b609a805460ff191660011790557f62e78cea01bee320cd4e420270b5ea74000d11b0c9f74754ebdbfc544b05a258611ee23390565b600354610100900460ff16611b8a57600080fd5b600354610100900460ff1661216357600080fd5b611b8a6125f8565b610b428282611abe565b6000677fffffffffffffff82111561218c57600080fd5b5060401b90565b60008161219f57600080fd5b60006121ab8484612618565b905060016001607f1b036001600160801b03821611156121ca57600080fd5b9392505050565b6000600f83810b9083900b0160016001607f1b031981128015906121fc575060016001607f1b038113155b6121ca57600080fd5b600080600084600f0b12801561221e5750826001166001145b905060008085600f0b126122325784612237565b846000035b6001600160801b03169050600160801b6801000000000000000082116122d157603f82901b91505b84156122c9576001851615612274578102607f1c5b908002607f1c90600285161561228a578102607f1c5b908002607f1c9060048516156122a0578102607f1c5b908002607f1c9060088516156122b6578102607f1c5b60049490941c93908002607f1c9061225f565b60401c6123e7565b603f600160601b8310156122eb5760209290921b91601f19015b600160701b8310156123035760109290921b91600f19015b600160781b83101561231b5760089290921b91600719015b6001607c1b8310156123335760049290921b91600319015b6001607e1b83101561234b5760029290921b91600119015b6001607f1b8310156123635760019290921b91600019015b60005b86156123d0576040821061237957600080fd5b600187161561239f57918302607f1c918101600160801b83111561239f57600192831c92015b928002607f1c9260019190911b90600160801b84106123c457600193841c9391909101905b600187901c9650612366565b604081106123dd57600080fd5b6040039190911c90505b6000836123f457816123f9565b816000035b905060016001607f1b0319811280159061241a575060016001607f1b038113155b61242357600080fd5b9695505050505050565b60008161243c57506000610771565b600083600f0b121561244d57600080fd5b600f83900b6001600160801b038316810260401c90608084901c026001600160c01b0381111561247c57600080fd5b60401b811981111561248d57600080fd5b019392505050565b6000806124a58686858711610c86565b90506000838211156124f1576002846124be8185612b4e565b6124c9906064612af7565b6124d39190612b2c565b6124dd9190612b2c565b905060638111156124ec575060635b61252b565b836124fc8382612b4e565b612507906064612af7565b6125119190612b2c565b61251c906002612af7565b9050606381111561252b575060635b60646125378282612b4e565b6125419088612af7565b61254b9190612b2c565b979650505050505050565b6125608282611540565b610b425761256d8161277a565b61257883602061278c565b604051602001612589929190612cc4565b60408051601f198184030181529082905262461bcd60e51b825261080e91600401612d39565b609a5460ff16611b8a5760405162461bcd60e51b815260206004820152601460248201527314185d5cd8589b194e881b9bdd081c185d5cd95960621b604482015260640161080e565b600354610100900460ff1661260c57600080fd5b609a805460ff19169055565b60008161262457600080fd5b60006001600160c01b03841161264f5782604085901b8161264757612647612b16565b049050612766565b60c084811c6401000000008110612668576020918201911c5b62010000811061267a576010918201911c5b610100811061268b576008918201911c5b6010811061269b576004918201911c5b600481106126ab576002918201911c5b600281106126ba576001820191505b60bf820360018603901c6001018260ff0387901b816126db576126db612b16565b0492506001600160801b038311156126f257600080fd5b608085901c83026001600160801b038616840260c088901c604089901b8281101561271e576001820391505b608084901b92900382811015612735576001820391505b829003608084901c821461274a57600161275b565b88818161275957612759612b16565b045b870196505050505050505b6001600160801b038111156121ca57600080fd5b60606107716001600160a01b03831660145b6060600061279b836002612af7565b6127a6906002612adf565b67ffffffffffffffff8111156127be576127be612d6c565b6040519080825280601f01601f1916602001820160405280156127e8576020820181803683370190505b509050600360fc1b8160008151811061280357612803612d82565b60200101906001600160f81b031916908160001a905350600f60fb1b8160018151811061283257612832612d82565b60200101906001600160f81b031916908160001a9053506000612856846002612af7565b612861906001612adf565b90505b60018111156128d9576f181899199a1a9b1b9c1cb0b131b232b360811b85600f166010811061289557612895612d82565b1a60f81b8282815181106128ab576128ab612d82565b60200101906001600160f81b031916908160001a90535060049490941c936128d281612d98565b9050612864565b5083156121ca57600080fd5b6000602082840312156128f757600080fd5b5035919050565b60006020828403121561291057600080fd5b81356001600160e01b0319811681146121ca57600080fd5b80356001600160a01b038116811461293f57600080fd5b919050565b60008060006060848603121561295957600080fd5b61296284612928565b925061297060208501612928565b9150604084013590509250925092565b6000806040838503121561299357600080fd5b823591506129a360208401612928565b90509250929050565b6000806000606084860312156129c157600080fd5b505081359360208301359350604090920135919050565b8015158114610c8357600080fd5b6000806000606084860312156129fb57600080fd5b83359250602084013591506040840135612a14816129d8565b809150509250925092565b60008060408385031215612a3257600080fd5b50508035926020909101359150565b60008060408385031215612a5457600080fd5b612a5d83612928565b91506129a360208401612928565b600060208284031215612a7d57600080fd5b6121ca82612928565b600080600060608486031215612a9b57600080fd5b612aa484612928565b9250612ab260208501612928565b9150612ac060408501612928565b90509250925092565b634e487b7160e01b600052601160045260246000fd5b60008219821115612af257612af2612ac9565b500190565b6000816000190483118215151615612b1157612b11612ac9565b500290565b634e487b7160e01b600052601260045260246000fd5b600082612b4957634e487b7160e01b600052601260045260246000fd5b500490565b600082821015612b6057612b60612ac9565b500390565b602080825260169082015275496e73756666696369656e74204c697175696469747960501b604082015260600190565b600060208284031215612ba757600080fd5b81516121ca816129d8565b6020808252600590820152640daeae8caf60db1b604082015260600190565b6020808252600890820152670cec2e664d0d2ced60c31b604082015260600190565b6020808252600b908201526a109b1bd8dadb1a5cdd195960aa1b604082015260600190565b60208082526008908201526731b7b7b63237bbb760c11b604082015260600190565b600060208284031215612c4c57600080fd5b5051919050565b6001600160a01b039384168152919092166020820152604081019190915260600190565b6001600160a01b039390931683526020830191909152604082015260600190565b60005b83811015612cb3578181015183820152602001612c9b565b8381111561181e5750506000910152565b7f416363657373436f6e74726f6c3a206163636f756e7420000000000000000000815260008351612cfc816017850160208801612c98565b7001034b99036b4b9b9b4b733903937b6329607d1b6017918401918201528351612d2d816028840160208801612c98565b01602801949350505050565b6020815260008251806020840152612d58816040850160208701612c98565b601f01601f19169190910160400192915050565b634e487b7160e01b600052604160045260246000fd5b634e487b7160e01b600052603260045260246000fd5b600081612da757612da7612ac9565b50600019019056fefb7c911d762dcd10c3d2aeb52e12bb7a1b461499d8e5c766051fc929599e511197667070c54ef182b0f5858b034beac1b6f3089aa2d3188bb1e8929f4fa9b929b9362b96e28efbb7a7e63bb4a97faf9924ec0394635feff8588a6ae2a5f784fea2646970667358221220c7225dd46eb7a1bb92447ad204a201b0e34428ab4479f1c92cf59a3e82dddb2064736f6c63430008090033",
  "linkReferences": {},
  "deployedLinkReferences": {}
}