{
  "_format": "hh-sol-artifact-1",
  "contractName": "KoziPool",
  "sourceName": "contracts/features/KoziPool.sol",
  "abi": [
    {
      "anonymous": false,
      "inputs": [
        {
          "indexed": false,
          "internalType": "uint256",
          "name": "amount",
          "type": "uint256"
        }
      ],
      "name": "AddToFund",
      "type": "event"
    },
    {
      "anonymous": false,
      "inputs": [
        {
          "indexed": false,
          "internalType": "address",
          "name": "account",
          "type": "address"
        },
        {
          "indexed": false,
          "internalType": "uint256",
          "name": "stableTokensIn",
          "type": "uint256"
        },
        {
          "indexed": false,
          "internalType": "uint256",
          "name": "koziOut",
          "type": "uint256"
        },
        {
          "indexed": false,
          "internalType": "uint256",
          "name": "newPrice",
          "type": "uint256"
        }
      ],
      "name": "Buy",
      "type": "event"
    },
    {
      "anonymous": false,
      "inputs": [
        {
          "indexed": false,
          "internalType": "address",
          "name": "account",
          "type": "address"
        },
        {
          "indexed": false,
          "internalType": "uint256",
          "name": "stableTokensIn",
          "type": "uint256"
        },
        {
          "indexed": false,
          "internalType": "uint256",
          "name": "koziBurned",
          "type": "uint256"
        },
        {
          "indexed": false,
          "internalType": "uint256",
          "name": "newPrice",
          "type": "uint256"
        }
      ],
      "name": "BuyAndBurn",
      "type": "event"
    },
    {
      "anonymous": false,
      "inputs": [
        {
          "indexed": false,
          "internalType": "uint8",
          "name": "version",
          "type": "uint8"
        }
      ],
      "name": "Initialized",
      "type": "event"
    },
    {
      "anonymous": false,
      "inputs": [
        {
          "indexed": false,
          "internalType": "address",
          "name": "from",
          "type": "address"
        },
        {
          "indexed": false,
          "internalType": "uint256",
          "name": "koziIn",
          "type": "uint256"
        },
        {
          "indexed": false,
          "internalType": "uint256",
          "name": "stableTokensIn",
          "type": "uint256"
        },
        {
          "indexed": false,
          "internalType": "uint256",
          "name": "newPrice",
          "type": "uint256"
        }
      ],
      "name": "LiquidityAdded",
      "type": "event"
    },
    {
      "anonymous": false,
      "inputs": [
        {
          "indexed": false,
          "internalType": "uint256",
          "name": "price",
          "type": "uint256"
        }
      ],
      "name": "NewPrice",
      "type": "event"
    },
    {
      "anonymous": false,
      "inputs": [
        {
          "indexed": false,
          "internalType": "address",
          "name": "account",
          "type": "address"
        }
      ],
      "name": "Paused",
      "type": "event"
    },
    {
      "anonymous": false,
      "inputs": [
        {
          "indexed": true,
          "internalType": "bytes32",
          "name": "role",
          "type": "bytes32"
        },
        {
          "indexed": true,
          "internalType": "bytes32",
          "name": "previousAdminRole",
          "type": "bytes32"
        },
        {
          "indexed": true,
          "internalType": "bytes32",
          "name": "newAdminRole",
          "type": "bytes32"
        }
      ],
      "name": "RoleAdminChanged",
      "type": "event"
    },
    {
      "anonymous": false,
      "inputs": [
        {
          "indexed": true,
          "internalType": "bytes32",
          "name": "role",
          "type": "bytes32"
        },
        {
          "indexed": true,
          "internalType": "address",
          "name": "account",
          "type": "address"
        },
        {
          "indexed": true,
          "internalType": "address",
          "name": "sender",
          "type": "address"
        }
      ],
      "name": "RoleGranted",
      "type": "event"
    },
    {
      "anonymous": false,
      "inputs": [
        {
          "indexed": true,
          "internalType": "bytes32",
          "name": "role",
          "type": "bytes32"
        },
        {
          "indexed": true,
          "internalType": "address",
          "name": "account",
          "type": "address"
        },
        {
          "indexed": true,
          "internalType": "address",
          "name": "sender",
          "type": "address"
        }
      ],
      "name": "RoleRevoked",
      "type": "event"
    },
    {
      "anonymous": false,
      "inputs": [
        {
          "indexed": false,
          "internalType": "address",
          "name": "account",
          "type": "address"
        },
        {
          "indexed": false,
          "internalType": "uint256",
          "name": "koziIn",
          "type": "uint256"
        },
        {
          "indexed": false,
          "internalType": "uint256",
          "name": "stableTokensOut",
          "type": "uint256"
        },
        {
          "indexed": false,
          "internalType": "uint256",
          "name": "newPrice",
          "type": "uint256"
        }
      ],
      "name": "Sell",
      "type": "event"
    },
    {
      "anonymous": false,
      "inputs": [
        {
          "indexed": false,
          "internalType": "address",
          "name": "from",
          "type": "address"
        },
        {
          "indexed": false,
          "internalType": "address",
          "name": "to",
          "type": "address"
        },
        {
          "indexed": false,
          "internalType": "uint256",
          "name": "value",
          "type": "uint256"
        }
      ],
      "name": "TransferKozi",
      "type": "event"
    },
    {
      "anonymous": false,
      "inputs": [
        {
          "indexed": false,
          "internalType": "address",
          "name": "account",
          "type": "address"
        }
      ],
      "name": "Unpaused",
      "type": "event"
    },
    {
      "inputs": [],
      "name": "DEFAULT_ADMIN_ROLE",
      "outputs": [
        {
          "internalType": "bytes32",
          "name": "",
          "type": "bytes32"
        }
      ],
      "stateMutability": "view",
      "type": "function"
    },
    {
      "inputs": [
        {
          "internalType": "address",
          "name": "_operator",
          "type": "address"
        },
        {
          "internalType": "address",
          "name": "_blocklistAddress",
          "type": "address"
        }
      ],
      "name": "__Administrable_init",
      "outputs": [],
      "stateMutability": "nonpayable",
      "type": "function"
    },
    {
      "inputs": [
        {
          "internalType": "uint256",
          "name": "amountOfStabletokens",
          "type": "uint256"
        }
      ],
      "name": "addLiquidity",
      "outputs": [],
      "stateMutability": "payable",
      "type": "function"
    },
    {
      "inputs": [
        {
          "internalType": "uint256",
          "name": "kozi",
          "type": "uint256"
        }
      ],
      "name": "buyKozi",
      "outputs": [
        {
          "internalType": "uint256",
          "name": "stableTokensPaid",
          "type": "uint256"
        }
      ],
      "stateMutability": "nonpayable",
      "type": "function"
    },
    {
      "inputs": [
        {
          "internalType": "uint256",
          "name": "kozi",
          "type": "uint256"
        },
        {
          "internalType": "uint256",
          "name": "atPrice",
          "type": "uint256"
        },
        {
          "internalType": "uint256",
          "name": "maxSlippage",
          "type": "uint256"
        }
      ],
      "name": "buyKoziAtPrice",
      "outputs": [
        {
          "internalType": "uint256",
          "name": "stableTokensPaid",
          "type": "uint256"
        }
      ],
      "stateMutability": "nonpayable",
      "type": "function"
    },
    {
      "inputs": [
        {
          "internalType": "uint256",
          "name": "principal",
          "type": "uint256"
        },
        {
          "internalType": "uint256",
          "name": "ratio",
          "type": "uint256"
        },
        {
          "internalType": "uint256",
          "name": "n",
          "type": "uint256"
        }
      ],
      "name": "compound",
      "outputs": [
        {
          "internalType": "uint256",
          "name": "",
          "type": "uint256"
        }
      ],
      "stateMutability": "pure",
      "type": "function"
    },
    {
      "inputs": [],
      "name": "estimateKindomSellToTargetPrice",
      "outputs": [
        {
          "internalType": "uint256",
          "name": "koziToSell",
          "type": "uint256"
        }
      ],
      "stateMutability": "view",
      "type": "function"
    },
    {
      "inputs": [],
      "name": "gasPriceLimit",
      "outputs": [
        {
          "internalType": "uint256",
          "name": "",
          "type": "uint256"
        }
      ],
      "stateMutability": "view",
      "type": "function"
    },
    {
      "inputs": [],
      "name": "getPrice",
      "outputs": [
        {
          "internalType": "uint256",
          "name": "_price",
          "type": "uint256"
        }
      ],
      "stateMutability": "view",
      "type": "function"
    },
    {
      "inputs": [],
      "name": "getPricesAndReserves",
      "outputs": [
        {
          "internalType": "uint256",
          "name": "_price",
          "type": "uint256"
        },
        {
          "internalType": "uint256",
          "name": "_targetPrice",
          "type": "uint256"
        },
        {
          "internalType": "uint256",
          "name": "_koziReserve",
          "type": "uint256"
        },
        {
          "internalType": "uint256",
          "name": "_stableTokenReserve",
          "type": "uint256"
        }
      ],
      "stateMutability": "view",
      "type": "function"
    },
    {
      "inputs": [],
      "name": "getReserves",
      "outputs": [
        {
          "internalType": "uint256",
          "name": "_koziReserve",
          "type": "uint256"
        },
        {
          "internalType": "uint256",
          "name": "_stableTokenReserve",
          "type": "uint256"
        }
      ],
      "stateMutability": "view",
      "type": "function"
    },
    {
      "inputs": [
        {
          "internalType": "bytes32",
          "name": "role",
          "type": "bytes32"
        }
      ],
      "name": "getRoleAdmin",
      "outputs": [
        {
          "internalType": "bytes32",
          "name": "",
          "type": "bytes32"
        }
      ],
      "stateMutability": "view",
      "type": "function"
    },
    {
      "inputs": [
        {
          "internalType": "uint256",
          "name": "koziOut",
          "type": "uint256"
        }
      ],
      "name": "getStabletokensIn",
      "outputs": [
        {
          "internalType": "uint256",
          "name": "stableTokensIn",
          "type": "uint256"
        }
      ],
      "stateMutability": "view",
      "type": "function"
    },
    {
      "inputs": [],
      "name": "getTargetPrice",
      "outputs": [
        {
          "internalType": "uint256",
          "name": "targetPrice",
          "type": "uint256"
        }
      ],
      "stateMutability": "view",
      "type": "function"
    },
    {
      "inputs": [
        {
          "internalType": "bytes32",
          "name": "role",
          "type": "bytes32"
        },
        {
          "internalType": "address",
          "name": "account",
          "type": "address"
        }
      ],
      "name": "grantRole",
      "outputs": [],
      "stateMutability": "nonpayable",
      "type": "function"
    },
    {
      "inputs": [],
      "name": "hasBlocklist",
      "outputs": [
        {
          "internalType": "bool",
          "name": "",
          "type": "bool"
        }
      ],
      "stateMutability": "view",
      "type": "function"
    },
    {
      "inputs": [
        {
          "internalType": "bytes32",
          "name": "role",
          "type": "bytes32"
        },
        {
          "internalType": "address",
          "name": "account",
          "type": "address"
        }
      ],
      "name": "hasRole",
      "outputs": [
        {
          "internalType": "bool",
          "name": "",
          "type": "bool"
        }
      ],
      "stateMutability": "view",
      "type": "function"
    },
    {
      "inputs": [],
      "name": "initialTargetPrice",
      "outputs": [
        {
          "internalType": "uint256",
          "name": "",
          "type": "uint256"
        }
      ],
      "stateMutability": "view",
      "type": "function"
    },
    {
      "inputs": [
        {
          "internalType": "address",
          "name": "_operator",
          "type": "address"
        },
        {
          "internalType": "address",
          "name": "_blocklist",
          "type": "address"
        },
        {
          "internalType": "address",
          "name": "_stableToken",
          "type": "address"
        }
      ],
      "name": "initialize",
      "outputs": [],
      "stateMutability": "nonpayable",
      "type": "function"
    },
    {
      "inputs": [],
      "name": "kingdomSell",
      "outputs": [],
      "stateMutability": "payable",
      "type": "function"
    },
    {
      "inputs": [],
      "name": "koziReserve",
      "outputs": [
        {
          "internalType": "uint256",
          "name": "",
          "type": "uint256"
        }
      ],
      "stateMutability": "view",
      "type": "function"
    },
    {
      "inputs": [],
      "name": "lockPeriod",
      "outputs": [
        {
          "internalType": "uint256",
          "name": "",
          "type": "uint256"
        }
      ],
      "stateMutability": "view",
      "type": "function"
    },
    {
      "inputs": [],
      "name": "pause",
      "outputs": [],
      "stateMutability": "nonpayable",
      "type": "function"
    },
    {
      "inputs": [],
      "name": "paused",
      "outputs": [
        {
          "internalType": "bool",
          "name": "",
          "type": "bool"
        }
      ],
      "stateMutability": "view",
      "type": "function"
    },
    {
      "inputs": [
        {
          "internalType": "uint256",
          "name": "koziToBuy",
          "type": "uint256"
        }
      ],
      "name": "quoteBuyKozi",
      "outputs": [
        {
          "internalType": "uint256",
          "name": "costInStabletokens",
          "type": "uint256"
        }
      ],
      "stateMutability": "view",
      "type": "function"
    },
    {
      "inputs": [
        {
          "internalType": "uint256",
          "name": "amount",
          "type": "uint256"
        }
      ],
      "name": "quoteKingdomSell",
      "outputs": [
        {
          "internalType": "uint256",
          "name": "stableTokensOut",
          "type": "uint256"
        }
      ],
      "stateMutability": "view",
      "type": "function"
    },
    {
      "inputs": [
        {
          "internalType": "uint256",
          "name": "kozi",
          "type": "uint256"
        }
      ],
      "name": "quoteKoziToStabletokens",
      "outputs": [
        {
          "internalType": "uint256",
          "name": "stable",
          "type": "uint256"
        }
      ],
      "stateMutability": "view",
      "type": "function"
    },
    {
      "inputs": [
        {
          "internalType": "uint256",
          "name": "koziToSell",
          "type": "uint256"
        }
      ],
      "name": "quoteSellKozi",
      "outputs": [
        {
          "internalType": "uint256",
          "name": "stableTokensOut",
          "type": "uint256"
        }
      ],
      "stateMutability": "view",
      "type": "function"
    },
    {
      "inputs": [
        {
          "internalType": "uint256",
          "name": "stableTokens",
          "type": "uint256"
        }
      ],
      "name": "quoteStableToKozi",
      "outputs": [
        {
          "internalType": "uint256",
          "name": "kozi",
          "type": "uint256"
        }
      ],
      "stateMutability": "view",
      "type": "function"
    },
    {
      "inputs": [
        {
          "internalType": "address",
          "name": "tokenAddress",
          "type": "address"
        },
        {
          "internalType": "address",
          "name": "to",
          "type": "address"
        },
        {
          "internalType": "uint256",
          "name": "amount",
          "type": "uint256"
        }
      ],
      "name": "recoverERC20",
      "outputs": [],
      "stateMutability": "nonpayable",
      "type": "function"
    },
    {
      "inputs": [
        {
          "internalType": "bytes32",
          "name": "role",
          "type": "bytes32"
        },
        {
          "internalType": "address",
          "name": "account",
          "type": "address"
        }
      ],
      "name": "renounceRole",
      "outputs": [],
      "stateMutability": "nonpayable",
      "type": "function"
    },
    {
      "inputs": [],
      "name": "resetBlocklist",
      "outputs": [],
      "stateMutability": "nonpayable",
      "type": "function"
    },
    {
      "inputs": [],
      "name": "resetReserves",
      "outputs": [],
      "stateMutability": "nonpayable",
      "type": "function"
    },
    {
      "inputs": [
        {
          "internalType": "bytes32",
          "name": "role",
          "type": "bytes32"
        },
        {
          "internalType": "address",
          "name": "account",
          "type": "address"
        }
      ],
      "name": "revokeRole",
      "outputs": [],
      "stateMutability": "nonpayable",
      "type": "function"
    },
    {
      "inputs": [],
      "name": "sellKozi",
      "outputs": [
        {
          "internalType": "uint256",
          "name": "stableTokensOut",
          "type": "uint256"
        }
      ],
      "stateMutability": "payable",
      "type": "function"
    },
    {
      "inputs": [
        {
          "internalType": "uint256",
          "name": "atPrice",
          "type": "uint256"
        },
        {
          "internalType": "uint256",
          "name": "maxSlippage",
          "type": "uint256"
        }
      ],
      "name": "sellKoziAtPrice",
      "outputs": [
        {
          "internalType": "uint256",
          "name": "stableTokensOut",
          "type": "uint256"
        }
      ],
      "stateMutability": "payable",
      "type": "function"
    },
    {
      "inputs": [
        {
          "internalType": "address",
          "name": "blocklistAddress",
          "type": "address"
        }
      ],
      "name": "setBlocklist",
      "outputs": [],
      "stateMutability": "nonpayable",
      "type": "function"
    },
    {
      "inputs": [
        {
          "internalType": "uint256",
          "name": "koziIn",
          "type": "uint256"
        },
        {
          "internalType": "uint256",
          "name": "stableTokensOut",
          "type": "uint256"
        },
        {
          "internalType": "bool",
          "name": "_isAboveTargetPrice",
          "type": "bool"
        }
      ],
      "name": "simulateNewPriceAfterSell",
      "outputs": [
        {
          "internalType": "uint256",
          "name": "_priceAfter",
          "type": "uint256"
        }
      ],
      "stateMutability": "view",
      "type": "function"
    },
    {
      "inputs": [],
      "name": "spreadAbove",
      "outputs": [
        {
          "internalType": "uint256",
          "name": "",
          "type": "uint256"
        }
      ],
      "stateMutability": "view",
      "type": "function"
    },
    {
      "inputs": [],
      "name": "stableToken",
      "outputs": [
        {
          "internalType": "contract IBkERC20",
          "name": "",
          "type": "address"
        }
      ],
      "stateMutability": "view",
      "type": "function"
    },
    {
      "inputs": [],
      "name": "stableTokenReserve",
      "outputs": [
        {
          "internalType": "uint256",
          "name": "",
          "type": "uint256"
        }
      ],
      "stateMutability": "view",
      "type": "function"
    },
    {
      "inputs": [],
      "name": "startBlock",
      "outputs": [
        {
          "internalType": "uint256",
          "name": "",
          "type": "uint256"
        }
      ],
      "stateMutability": "view",
      "type": "function"
    },
    {
      "inputs": [
        {
          "internalType": "bytes4",
          "name": "interfaceId",
          "type": "bytes4"
        }
      ],
      "name": "supportsInterface",
      "outputs": [
        {
          "internalType": "bool",
          "name": "",
          "type": "bool"
        }
      ],
      "stateMutability": "view",
      "type": "function"
    },
    {
      "inputs": [],
      "name": "tPriceIncrementPerDay",
      "outputs": [
        {
          "internalType": "uint256",
          "name": "",
          "type": "uint256"
        }
      ],
      "stateMutability": "view",
      "type": "function"
    },
    {
      "inputs": [],
      "name": "unpause",
      "outputs": [],
      "stateMutability": "nonpayable",
      "type": "function"
    }
  ],
  "bytecode": "0x608060405234801561001057600080fd5b50612e28806100206000396000f3fe6080604052600436106102715760003560e01c806362100dfa1161014f578063a217fddf116100c1578063cccc5b0d1161007a578063cccc5b0d146106d1578063d3f0fbc1146106e7578063d547741f14610707578063db384be114610727578063f3c85eba14610747578063fb04eac31461076757600080fd5b8063a217fddf14610619578063a9d75b2b1461062e578063aef18ae714610666578063b00a292214610686578063bd01bb321461069c578063c0c53b8b146106b157600080fd5b80638d8dac5a116101135780638d8dac5a146105905780638e2bb5f1146105a657806391d14854146105ae578063931da89b146105ce578063961a929c146105ee57806398d5fdca1461060457600080fd5b806362100dfa1461051f578063624574f614610527578063634210f41461054757806367179824146105685780638456cb591461057b57600080fd5b8063387b2f29116101e85780633fd8b02f116101ac5780633fd8b02f1461047357806348cd4cb1146104895780634b6f6e4c1461049f5780634bd52cc7146104bf57806351c6590a146104f45780635c975abb1461050757600080fd5b8063387b2f29146104085780633a1891d01461041e5780633beca29e146104335780633c7fd822146104495780633f4ba83a1461045e57600080fd5b80631171bda91161023a5780631171bda9146103365780631ebd1d2514610358578063248a9ca3146103785780632f2ff15d146103a857806331419e93146103c857806336568abe146103e857600080fd5b80625aab241461027657806301ffc9a7146102a9578063077934b5146102d95780630902f1ac146102f95780630a46e66d14610321575b600080fd5b34801561028257600080fd5b506102966102913660046128c3565b610787565b6040519081526020015b60405180910390f35b3480156102b557600080fd5b506102c96102c43660046128dc565b610798565b60405190151581526020016102a0565b3480156102e557600080fd5b506102966102f43660046128c3565b6107cd565b34801561030557600080fd5b5060ce5460cf54604080519283526020830191909152016102a0565b34801561032d57600080fd5b50610296610833565b34801561034257600080fd5b50610356610351366004612922565b6108a3565b005b34801561036457600080fd5b506102966103733660046128c3565b610944565b34801561038457600080fd5b506102966103933660046128c3565b60009081526068602052604090206001015490565b3480156103b457600080fd5b506103566103c336600461295e565b6109aa565b3480156103d457600080fd5b506102966103e336600461298a565b6109d4565b3480156103f457600080fd5b5061035661040336600461295e565b610b38565b34801561041457600080fd5b5061029660d25481565b34801561042a57600080fd5b50610356610b5b565b34801561043f57600080fd5b5061029660d35481565b34801561045557600080fd5b50610356610c4d565b34801561046a57600080fd5b50610356610c78565b34801561047f57600080fd5b5061029660005481565b34801561049557600080fd5b5061029660d05481565b3480156104ab57600080fd5b506102966104ba3660046129c4565b610c9b565b3480156104cb57600080fd5b506104d4610d1d565b6040805194855260208501939093529183015260608201526080016102a0565b6103566105023660046128c3565b610d5a565b34801561051357600080fd5b50609a5460ff166102c9565b610296611014565b34801561053357600080fd5b506102966105423660046128c3565b6110f8565b34801561055357600080fd5b5060cc546102c990600160a01b900460ff1681565b6102966105763660046129fd565b6111de565b34801561058757600080fd5b50610356611340565b34801561059c57600080fd5b5061029660d15481565b610356611360565b3480156105ba57600080fd5b506102c96105c936600461295e565b611533565b3480156105da57600080fd5b506103566105e9366004612a1f565b61155e565b3480156105fa57600080fd5b5061029660025481565b34801561061057600080fd5b50610296611674565b34801561062557600080fd5b50610296600081565b34801561063a57600080fd5b5060cd5461064e906001600160a01b031681565b6040516001600160a01b0390911681526020016102a0565b34801561067257600080fd5b50610356610681366004612a49565b61168c565b34801561069257600080fd5b5061029660cf5481565b3480156106a857600080fd5b506102966116cc565b3480156106bd57600080fd5b506103566106cc366004612a64565b611714565b3480156106dd57600080fd5b5061029660ce5481565b3480156106f357600080fd5b506102966107023660046128c3565b611817565b34801561071357600080fd5b5061035661072236600461295e565b6118f1565b34801561073357600080fd5b506102966107423660046128c3565b611916565b34801561075357600080fd5b5061029661076236600461298a565b611962565b34801561077357600080fd5b506102966107823660046128c3565b61199a565b600061079282611a22565b92915050565b60006001600160e01b03198216637965db0b60e01b148061079257506301ffc9a760e01b6001600160e01b0319831614610792565b60008060006107df60ce5460cf549091565b90925090506107ee8482612abd565b6107f88584612ad5565b6108029190612b0a565b925081831061082c5760405162461bcd60e51b815260040161082390612b2c565b60405180910390fd5b5050919050565b600080600080610841610d1d565b509250925092508183101561085a576000935050505090565b6108648284612abd565b61086e8385612b5c565b6108789083612ad5565b6108829190612b0a565b93506064610891856085612ad5565b61089b9190612b0a565b935050505090565b600080516020612db38339815191526108bb81611aa7565b60405163a9059cbb60e01b81526001600160a01b0384811660048301526024820184905285169063a9059cbb90604401602060405180830381600087803b15801561090557600080fd5b505af1158015610919573d6000803e3d6000fd5b505050506040513d601f19601f8201168201806040525081019061093d9190612b73565b5050505050565b600080600061095660ce5460cf549091565b915091508184106109795760405162461bcd60e51b815260040161082390612b2c565b6109838483612b5c565b61098d8583612ad5565b6109979190612b0a565b6109a2906001612abd565b949350505050565b6000828152606860205260409020600101546109c581611aa7565b6109cf8383611ab1565b505050565b60cc54600090600160a81b900460ff1615610a015760405162461bcd60e51b815260040161082390612b90565b60cc805460ff60a81b1916600160a81b179055610a1c611b37565b6002543a1115610a3e5760405162461bcd60e51b815260040161082390612baf565b33610a4881611b7f565b15610a655760405162461bcd60e51b815260040161082390612bd1565b33600090815260016020526040902054431015610a945760405162461bcd60e51b815260040161082390612bf6565b610a9d33611c18565b6000610aa7611674565b905060006103e8610ab88688612ad5565b610ac29190612b0a565b610acc9087612abd565b905080821115610b175760405162461bcd60e51b81526020600482015260166024820152750a0e4d2c6ca40c6d0c2dccecac840e8dede40daeac6d60531b6044820152606401610823565b610b2087611c41565b60cc805460ff60a81b19169055979650505050505050565b6001600160a01b0381163314610b4d57600080fd5b610b578282611e28565b5050565b60cc54600160a81b900460ff1615610b855760405162461bcd60e51b815260040161082390612b90565b60cc805460ff60a81b1916600160a81b179055600080516020612db3833981519152610bb081611aa7565b60cd546040516370a0823160e01b8152306004820152610c3d9147916001600160a01b03909116906370a08231906024015b60206040518083038186803b158015610bfa57600080fd5b505afa158015610c0e573d6000803e3d6000fd5b505050506040513d601f19601f82011682018060405250810190610c329190612c18565b60ce9190915560cf55565b5060cc805460ff60a81b19169055565b600080516020612db3833981519152610c6581611aa7565b5060cc80546001600160a81b0319169055565b600080516020612db3833981519152610c9081611aa7565b610c98611e8f565b50565b6000806000610cad60ce5460cf549091565b91509150600084610cbe5782610cc8565b610cc88784612abd565b90506000610cd68784612b5c565b9050610cea670de0b6b3a764000083612b5c565b610cfc82670de0b6b3a7640000612ad5565b610d069190612b0a565b610d11906001612abd565b98975050505050505050565b600080600080610d34670de0b6b3a7640000611916565b9350610d3e6116cc565b9250610d4d60ce5460cf549091565b9495939490939092509050565b60cc54600160a81b900460ff1615610d845760405162461bcd60e51b815260040161082390612b90565b60cc805460ff60a81b1916600160a81b179055610d9f611b37565b6002543a1115610dc15760405162461bcd60e51b815260040161082390612baf565b33610dcb81611b7f565b15610de85760405162461bcd60e51b815260040161082390612bd1565b33600090815260016020526040902054431015610e175760405162461bcd60e51b815260040161082390612bf6565b610e2033611c18565b600080610e3060ce5460cf549091565b915091506000821180610e435750600081115b15610ea957610e528285612ad5565b610e5c8234612ad5565b14610ea95760405162461bcd60e51b815260206004820152601d60248201527f556e62616c616e636564204c69717569646974792050726f76696465640000006044820152606401610823565b8315610f375760cd546040516323b872dd60e01b81526001600160a01b03909116906323b872dd90610ee390339030908990600401612c31565b602060405180830381600087803b158015610efd57600080fd5b505af1158015610f11573d6000803e3d6000fd5b505050506040513d601f19601f82011682018060405250810190610f359190612b73565b505b60cd546040516370a0823160e01b8152306004820152610f6d9147916001600160a01b03909116906370a0823190602401610be2565b6000610f77611674565b9050600080516020612d93833981519152333034604051610f9a93929190612c31565b60405180910390a17f64b83944e79c3ce8d4c297411de637c3e102d064677aac0c163976ebdcd6f50e33348784604051610fd79493929190612c55565b60405180910390a1604051818152600080516020612dd38339815191529060200160405180910390a1505060cc805460ff60a81b19169055505050565b60cc54600090600160a81b900460ff16156110415760405162461bcd60e51b815260040161082390612b90565b60cc805460ff60a81b1916600160a81b17905561105c611b37565b6002543a111561107e5760405162461bcd60e51b815260040161082390612baf565b3361108881611b7f565b156110a55760405162461bcd60e51b815260040161082390612bd1565b336000908152600160205260409020544310156110d45760405162461bcd60e51b815260040161082390612bf6565b6110dd33611c18565b6110e5611ee1565b91505060cc805460ff60a81b1916905590565b60cc54600090600160a81b900460ff16156111255760405162461bcd60e51b815260040161082390612b90565b60cc805460ff60a81b1916600160a81b179055611140611b37565b6002543a11156111625760405162461bcd60e51b815260040161082390612baf565b3361116c81611b7f565b156111895760405162461bcd60e51b815260040161082390612bd1565b336000908152600160205260409020544310156111b85760405162461bcd60e51b815260040161082390612bf6565b6111c133611c18565b6111ca83611c41565b60cc805460ff60a81b191690559392505050565b60cc54600090600160a81b900460ff161561120b5760405162461bcd60e51b815260040161082390612b90565b60cc805460ff60a81b1916600160a81b179055611226611b37565b6002543a11156112485760405162461bcd60e51b815260040161082390612baf565b3361125281611b7f565b1561126f5760405162461bcd60e51b815260040161082390612bd1565b3360009081526001602052604090205443101561129e5760405162461bcd60e51b815260040161082390612bf6565b6112a733611c18565b60006112b1611674565b905060006103e86112c28688612ad5565b6112cc9190612b0a565b6112d69087612b5c565b9050808210156113215760405162461bcd60e51b81526020600482015260166024820152750a0e4d2c6ca40c6d0c2dccecac840e8dede40daeac6d60531b6044820152606401610823565b611329611ee1565b60cc805460ff60a81b191690559695505050505050565b600080516020612db383398151915261135881611aa7565b610c986120dc565b60cc54600160a81b900460ff161561138a5760405162461bcd60e51b815260040161082390612b90565b60cc805460ff60a81b1916600160a81b1790557f73e573f9566d61418a34d5de3ff49360f9c51fec37f7486551670290f6285dab6113c781611aa7565b60006113d234611817565b60cd5460405163a9059cbb60e01b8152336004820152602481018390529192506001600160a01b03169063a9059cbb90604401602060405180830381600087803b15801561141f57600080fd5b505af1158015611433573d6000803e3d6000fd5b505050506040513d601f19601f820116820180604052508101906114579190612b73565b5060cd546040516370a0823160e01b815230600482015261148e9147916001600160a01b03909116906370a0823190602401610be2565b6000611498611674565b9050600080516020612d938339815191523330346040516114bb93929190612c31565b60405180910390a17f846c37eef631e0943682d87352ec117c20008eb7f425c9b85ac011a6d4774cc0333484846040516114f89493929190612c55565b60405180910390a1604051818152600080516020612dd38339815191529060200160405180910390a1505060cc805460ff60a81b1916905550565b60009182526068602090815260408084206001600160a01b0393909316845291905290205460ff1690565b600354610100900460ff161580801561157e5750600354600160ff909116105b806115985750303b158015611598575060035460ff166001145b6115a157600080fd5b6003805460ff1916600117905580156115c4576003805461ff0019166101001790555b6115cc612119565b6115d461212d565b6115df600084612149565b6115f7600080516020612db383398151915284612149565b6116217f73e573f9566d61418a34d5de3ff49360f9c51fec37f7486551670290f6285dab84612149565b61162a8261168c565b80156109cf576003805461ff0019169055604051600181527f7f26b83ff96e1f2b6a682f133852f6798a09c465da95921460cefb38474024989060200160405180910390a1505050565b6000611687670de0b6b3a7640000611916565b905090565b600080516020612db38339815191526116a481611aa7565b5060cc80546001600160a81b0319166001600160a01b0390921691909117600160a01b179055565b60008060d054436116dd9190612b5c565b905060006116ed6121c083612b0a565b9050806116fe5760d1549250505090565b61170d60d15460d25483611962565b9250505090565b600354610100900460ff16158080156117345750600354600160ff909116105b8061174e5750303b15801561174e575060035460ff166001145b61175757600080fd5b6003805460ff19166001179055801561177a576003805461ff0019166101001790555b611784848461155e565b60cd80546001600160a01b0319166001600160a01b0384161790554360d055678ac7230489e8000060d15566038d7ea4c6800060d255600080556117cb63b2d05e00600255565b8015611811576003805461ff0019169055604051600181527f7f26b83ff96e1f2b6a682f133852f6798a09c465da95921460cefb38474024989060200160405180910390a15b50505050565b60007f73e573f9566d61418a34d5de3ff49360f9c51fec37f7486551670290f6285dab61184381611aa7565b600083116118895760405162461bcd60e51b8152602060048201526013602482015272125b9cdd59999a58da595b9d08105b5bdd5b9d606a1b6044820152606401610823565b60008061189960ce5460cf549091565b909250905060026118aa8684612abd565b6118b48784612ad5565b6118be9190612b0a565b6118c89190612b0a565b93508084106118e95760405162461bcd60e51b815260040161082390612b2c565b505050919050565b60008281526068602052604090206001015461190c81611aa7565b6109cf8383611e28565b60008082116119525760405162461bcd60e51b81526020600482015260086024820152670616d6f756e743d360c41b6044820152606401610823565b60008061095660ce5460cf549091565b60006109a261199461198e6119776001612153565b61198987670de0b6b3a7640000612171565b6121af565b846121e3565b8561240b565b60008060006119ac60ce5460cf549091565b909250905060006119bd8584612abd565b6119c78684612ad5565b6119d19190612b0a565b905060006119dd611674565b905060006119e96116cc565b90506119f787848484612473565b9550838610611a185760405162461bcd60e51b815260040161082390612b2c565b5050505050919050565b6000806000611a3460ce5460cf549091565b9092509050611a438483612abd565b611a4d8583612ad5565b611a579190612b0a565b92506000611a63611674565b90506000611a6f6116cc565b9050611a7d86868484612473565b9450828510611a9e5760405162461bcd60e51b815260040161082390612b2c565b50505050919050565b610c988133612534565b611abb8282611533565b610b575760008281526068602090815260408083206001600160a01b03851684529091529020805460ff19166001179055611af33390565b6001600160a01b0316816001600160a01b0316837f2f8788117e7eff1d82e926ec794901d17c78024a50270940304540a733656f0d60405160405180910390a45050565b609a5460ff1615611b7d5760405162461bcd60e51b815260206004820152601060248201526f14185d5cd8589b194e881c185d5cd95960821b6044820152606401610823565b565b60cc54600090600160a01b900460ff16611b9b57506000919050565b60cc54604051638e204c4360e01b81526001600160a01b03848116600483015290911690638e204c439060240160206040518083038186803b158015611be057600080fd5b505afa158015611bf4573d6000803e3d6000fd5b505050506040513d601f19601f820116820180604052508101906107929190612b73565b600054611c259043612abd565b6001600160a01b03909116600090815260016020526040902055565b600066038d7ea4c68000821015611c9a5760405162461bcd60e51b815260206004820152601960248201527f4d696e696d756d2062757920697320302e303031204b4f5a49000000000000006044820152606401610823565b611ca382611916565b60cd546040516323b872dd60e01b81529192506001600160a01b0316906323b872dd90611cd890339030908690600401612c31565b602060405180830381600087803b158015611cf257600080fd5b505af1158015611d06573d6000803e3d6000fd5b505050506040513d601f19601f82011682018060405250810190611d2a9190612b73565b50604051339083156108fc029084906000818181858888f19350505050158015611d58573d6000803e3d6000fd5b5060cd546040516370a0823160e01b8152306004820152611d8f9147916001600160a01b03909116906370a0823190602401610be2565b6000611d99611674565b9050600080516020612d93833981519152303385604051611dbc93929190612c31565b60405180910390a17fbeae048c6d270d9469f86cf6e8fedda3c60ad770f16c24c9fc131c8e9a09101d33838584604051611df99493929190612c55565b60405180910390a1604051818152600080516020612dd38339815191529060200160405180910390a150919050565b611e328282611533565b15610b575760008281526068602090815260408083206001600160a01b0385168085529252808320805460ff1916905551339285917ff6391f5c32d9c69d2a47ea670b442974b53935d1edc7fd64eb21e047a839171b9190a45050565b611e9761258d565b609a805460ff191690557f5db9ee0a495bf2e6ff9c91a7834c1ba4fdd244a5e8aa4e537bd38aeae4b073aa335b6040516001600160a01b03909116815260200160405180910390a1565b6000803411611f285760405162461bcd60e51b8152602060048201526013602482015272125b9cdd59999a58da595b9d08105b5bdd5b9d606a1b6044820152606401610823565b6000611f3334611a22565b90508091506000611f42611674565b90506000611f4e6116cc565b905080821015611fb0576040516000903480156108fc029183818181858288f19350505050158015611f84573d6000803e3d6000fd5b50600080516020612d9383398151915230600034604051611fa793929190612c31565b60405180910390a15b60cd5460405163a9059cbb60e01b8152336004820152602481018690526001600160a01b039091169063a9059cbb90604401602060405180830381600087803b158015611ffc57600080fd5b505af1158015612010573d6000803e3d6000fd5b505050506040513d601f19601f820116820180604052508101906120349190612b73565b5060cd546040516370a0823160e01b815230600482015261206b9147916001600160a01b03909116906370a0823190602401610be2565b6000612075611674565b90507f846c37eef631e0943682d87352ec117c20008eb7f425c9b85ac011a6d4774cc0333487846040516120ac9493929190612c55565b60405180910390a1604051818152600080516020612dd38339815191529060200160405180910390a15050505090565b6120e4611b37565b609a805460ff191660011790557f62e78cea01bee320cd4e420270b5ea74000d11b0c9f74754ebdbfc544b05a258611ec43390565b600354610100900460ff16611b7d57600080fd5b600354610100900460ff1661214157600080fd5b611b7d6125d6565b610b578282611ab1565b6000677fffffffffffffff82111561216a57600080fd5b5060401b90565b60008161217d57600080fd5b600061218984846125f6565b905060016001607f1b036001600160801b03821611156121a857600080fd5b9392505050565b6000600f83810b9083900b0160016001607f1b031981128015906121da575060016001607f1b038113155b6121a857600080fd5b600080600084600f0b1280156121fc5750826001166001145b905060008085600f0b126122105784612215565b846000035b6001600160801b03169050600160801b6801000000000000000082116122af57603f82901b91505b84156122a7576001851615612252578102607f1c5b908002607f1c906002851615612268578102607f1c5b908002607f1c90600485161561227e578102607f1c5b908002607f1c906008851615612294578102607f1c5b60049490941c93908002607f1c9061223d565b60401c6123c5565b603f600160601b8310156122c95760209290921b91601f19015b600160701b8310156122e15760109290921b91600f19015b600160781b8310156122f95760089290921b91600719015b6001607c1b8310156123115760049290921b91600319015b6001607e1b8310156123295760029290921b91600119015b6001607f1b8310156123415760019290921b91600019015b60005b86156123ae576040821061235757600080fd5b600187161561237d57918302607f1c918101600160801b83111561237d57600192831c92015b928002607f1c9260019190911b90600160801b84106123a257600193841c9391909101905b600187901c9650612344565b604081106123bb57600080fd5b6040039190911c90505b6000836123d257816123d7565b816000035b905060016001607f1b031981128015906123f8575060016001607f1b038113155b61240157600080fd5b9695505050505050565b60008161241a57506000610792565b600083600f0b121561242b57600080fd5b600f83900b6001600160801b038316810260401c90608084901c026001600160c01b0381111561245a57600080fd5b60401b811981111561246b57600080fd5b019392505050565b6000806124838686858711610c9b565b90506000838211156124cf5760028461249c8185612b5c565b6124a7906064612ad5565b6124b19190612b0a565b6124bb9190612b0a565b905060638111156124ca575060635b612509565b836124da8382612b5c565b6124e5906064612ad5565b6124ef9190612b0a565b6124fa906002612ad5565b90506063811115612509575060635b60646125158282612b5c565b61251f9088612ad5565b6125299190612b0a565b979650505050505050565b61253e8282611533565b610b575761254b81612758565b61255683602061276a565b604051602001612567929190612ca7565b60408051601f198184030181529082905262461bcd60e51b825261082391600401612d1c565b609a5460ff16611b7d5760405162461bcd60e51b815260206004820152601460248201527314185d5cd8589b194e881b9bdd081c185d5cd95960621b6044820152606401610823565b600354610100900460ff166125ea57600080fd5b609a805460ff19169055565b60008161260257600080fd5b60006001600160c01b03841161262d5782604085901b8161262557612625612af4565b049050612744565b60c084811c6401000000008110612646576020918201911c5b620100008110612658576010918201911c5b6101008110612669576008918201911c5b60108110612679576004918201911c5b60048110612689576002918201911c5b60028110612698576001820191505b60bf820360018603901c6001018260ff0387901b816126b9576126b9612af4565b0492506001600160801b038311156126d057600080fd5b608085901c83026001600160801b038616840260c088901c604089901b828110156126fc576001820391505b608084901b92900382811015612713576001820391505b829003608084901c8214612728576001612739565b88818161273757612737612af4565b045b870196505050505050505b6001600160801b038111156121a857600080fd5b60606107926001600160a01b03831660145b60606000612779836002612ad5565b612784906002612abd565b67ffffffffffffffff81111561279c5761279c612d4f565b6040519080825280601f01601f1916602001820160405280156127c6576020820181803683370190505b509050600360fc1b816000815181106127e1576127e1612d65565b60200101906001600160f81b031916908160001a905350600f60fb1b8160018151811061281057612810612d65565b60200101906001600160f81b031916908160001a9053506000612834846002612ad5565b61283f906001612abd565b90505b60018111156128b7576f181899199a1a9b1b9c1cb0b131b232b360811b85600f166010811061287357612873612d65565b1a60f81b82828151811061288957612889612d65565b60200101906001600160f81b031916908160001a90535060049490941c936128b081612d7b565b9050612842565b5083156121a857600080fd5b6000602082840312156128d557600080fd5b5035919050565b6000602082840312156128ee57600080fd5b81356001600160e01b0319811681146121a857600080fd5b80356001600160a01b038116811461291d57600080fd5b919050565b60008060006060848603121561293757600080fd5b61294084612906565b925061294e60208501612906565b9150604084013590509250925092565b6000806040838503121561297157600080fd5b8235915061298160208401612906565b90509250929050565b60008060006060848603121561299f57600080fd5b505081359360208301359350604090920135919050565b8015158114610c9857600080fd5b6000806000606084860312156129d957600080fd5b833592506020840135915060408401356129f2816129b6565b809150509250925092565b60008060408385031215612a1057600080fd5b50508035926020909101359150565b60008060408385031215612a3257600080fd5b612a3b83612906565b915061298160208401612906565b600060208284031215612a5b57600080fd5b6121a882612906565b600080600060608486031215612a7957600080fd5b612a8284612906565b9250612a9060208501612906565b9150612a9e60408501612906565b90509250925092565b634e487b7160e01b600052601160045260246000fd5b60008219821115612ad057612ad0612aa7565b500190565b6000816000190483118215151615612aef57612aef612aa7565b500290565b634e487b7160e01b600052601260045260246000fd5b600082612b2757634e487b7160e01b600052601260045260246000fd5b500490565b602080825260169082015275496e73756666696369656e74204c697175696469747960501b604082015260600190565b600082821015612b6e57612b6e612aa7565b500390565b600060208284031215612b8557600080fd5b81516121a8816129b6565b6020808252600590820152640daeae8caf60db1b604082015260600190565b6020808252600890820152670cec2e664d0d2ced60c31b604082015260600190565b6020808252600b908201526a109b1bd8dadb1a5cdd195960aa1b604082015260600190565b60208082526008908201526731b7b7b63237bbb760c11b604082015260600190565b600060208284031215612c2a57600080fd5b5051919050565b6001600160a01b039384168152919092166020820152604081019190915260600190565b6001600160a01b0394909416845260208401929092526040830152606082015260800190565b60005b83811015612c96578181015183820152602001612c7e565b838111156118115750506000910152565b7f416363657373436f6e74726f6c3a206163636f756e7420000000000000000000815260008351612cdf816017850160208801612c7b565b7001034b99036b4b9b9b4b733903937b6329607d1b6017918401918201528351612d10816028840160208801612c7b565b01602801949350505050565b6020815260008251806020840152612d3b816040850160208701612c7b565b601f01601f19169190910160400192915050565b634e487b7160e01b600052604160045260246000fd5b634e487b7160e01b600052603260045260246000fd5b600081612d8a57612d8a612aa7565b50600019019056fefb7c911d762dcd10c3d2aeb52e12bb7a1b461499d8e5c766051fc929599e511197667070c54ef182b0f5858b034beac1b6f3089aa2d3188bb1e8929f4fa9b929270b316b51ab2cf3a3bb8ca4d22e76a327d05e762fcaa8bd6afaf8cfde9270b7a26469706673582212204b04be8e052efe3beaac03e546caa9009ea65b613fe8a984389cacb09a3561b064736f6c63430008090033",
  "linkReferences": {},
  "deployedLinkReferences": {}
}