{
  "_format": "hh-sol-artifact-1",
  "contractName": "KoziPool",
  "sourceName": "contracts/features/KoziPool.sol",
  "abi": [
    {
      "anonymous": false,
      "inputs": [
        {
          "indexed": false,
          "internalType": "address",
          "name": "account",
          "type": "address"
        },
        {
          "indexed": false,
          "internalType": "uint256",
          "name": "stabletokensIn",
          "type": "uint256"
        },
        {
          "indexed": false,
          "internalType": "uint256",
          "name": "koziOut",
          "type": "uint256"
        }
      ],
      "name": "Buy",
      "type": "event"
    },
    {
      "anonymous": false,
      "inputs": [
        {
          "indexed": false,
          "internalType": "address",
          "name": "account",
          "type": "address"
        },
        {
          "indexed": false,
          "internalType": "uint256",
          "name": "stabletokensIn",
          "type": "uint256"
        },
        {
          "indexed": false,
          "internalType": "uint256",
          "name": "koziBurned",
          "type": "uint256"
        }
      ],
      "name": "BuyAndBurn",
      "type": "event"
    },
    {
      "anonymous": false,
      "inputs": [
        {
          "indexed": false,
          "internalType": "address",
          "name": "account",
          "type": "address"
        }
      ],
      "name": "ForfeitPrestigeTrophies",
      "type": "event"
    },
    {
      "anonymous": false,
      "inputs": [
        {
          "indexed": false,
          "internalType": "uint8",
          "name": "version",
          "type": "uint8"
        }
      ],
      "name": "Initialized",
      "type": "event"
    },
    {
      "anonymous": false,
      "inputs": [
        {
          "indexed": false,
          "internalType": "address",
          "name": "from",
          "type": "address"
        },
        {
          "indexed": false,
          "internalType": "uint256",
          "name": "koziIn",
          "type": "uint256"
        },
        {
          "indexed": false,
          "internalType": "uint256",
          "name": "stabletokensIn",
          "type": "uint256"
        }
      ],
      "name": "LiquidityAdded",
      "type": "event"
    },
    {
      "anonymous": false,
      "inputs": [
        {
          "indexed": false,
          "internalType": "uint256",
          "name": "price",
          "type": "uint256"
        },
        {
          "indexed": false,
          "internalType": "uint256",
          "name": "targetPrice",
          "type": "uint256"
        }
      ],
      "name": "NewPrice",
      "type": "event"
    },
    {
      "anonymous": false,
      "inputs": [
        {
          "indexed": false,
          "internalType": "address",
          "name": "account",
          "type": "address"
        }
      ],
      "name": "Paused",
      "type": "event"
    },
    {
      "anonymous": false,
      "inputs": [
        {
          "indexed": false,
          "internalType": "address",
          "name": "account",
          "type": "address"
        },
        {
          "indexed": false,
          "internalType": "uint256",
          "name": "amountInCents",
          "type": "uint256"
        },
        {
          "indexed": false,
          "internalType": "uint256",
          "name": "balanceInCents",
          "type": "uint256"
        }
      ],
      "name": "PrestigeTrophiesEarned",
      "type": "event"
    },
    {
      "anonymous": false,
      "inputs": [
        {
          "indexed": false,
          "internalType": "address",
          "name": "account",
          "type": "address"
        },
        {
          "indexed": false,
          "internalType": "uint256",
          "name": "amountInCents",
          "type": "uint256"
        },
        {
          "indexed": false,
          "internalType": "uint256",
          "name": "balanceInCents",
          "type": "uint256"
        }
      ],
      "name": "PrestigeTrophiesSpent",
      "type": "event"
    },
    {
      "anonymous": false,
      "inputs": [
        {
          "indexed": true,
          "internalType": "bytes32",
          "name": "role",
          "type": "bytes32"
        },
        {
          "indexed": true,
          "internalType": "bytes32",
          "name": "previousAdminRole",
          "type": "bytes32"
        },
        {
          "indexed": true,
          "internalType": "bytes32",
          "name": "newAdminRole",
          "type": "bytes32"
        }
      ],
      "name": "RoleAdminChanged",
      "type": "event"
    },
    {
      "anonymous": false,
      "inputs": [
        {
          "indexed": true,
          "internalType": "bytes32",
          "name": "role",
          "type": "bytes32"
        },
        {
          "indexed": true,
          "internalType": "address",
          "name": "account",
          "type": "address"
        },
        {
          "indexed": true,
          "internalType": "address",
          "name": "sender",
          "type": "address"
        }
      ],
      "name": "RoleGranted",
      "type": "event"
    },
    {
      "anonymous": false,
      "inputs": [
        {
          "indexed": true,
          "internalType": "bytes32",
          "name": "role",
          "type": "bytes32"
        },
        {
          "indexed": true,
          "internalType": "address",
          "name": "account",
          "type": "address"
        },
        {
          "indexed": true,
          "internalType": "address",
          "name": "sender",
          "type": "address"
        }
      ],
      "name": "RoleRevoked",
      "type": "event"
    },
    {
      "anonymous": false,
      "inputs": [
        {
          "indexed": false,
          "internalType": "address",
          "name": "account",
          "type": "address"
        },
        {
          "indexed": false,
          "internalType": "uint256",
          "name": "koziIn",
          "type": "uint256"
        },
        {
          "indexed": false,
          "internalType": "uint256",
          "name": "stabletokensOut",
          "type": "uint256"
        }
      ],
      "name": "Sell",
      "type": "event"
    },
    {
      "anonymous": false,
      "inputs": [
        {
          "indexed": false,
          "internalType": "address",
          "name": "from",
          "type": "address"
        },
        {
          "indexed": false,
          "internalType": "address",
          "name": "to",
          "type": "address"
        },
        {
          "indexed": false,
          "internalType": "uint256",
          "name": "value",
          "type": "uint256"
        }
      ],
      "name": "TransferKozi",
      "type": "event"
    },
    {
      "anonymous": false,
      "inputs": [
        {
          "indexed": false,
          "internalType": "address",
          "name": "account",
          "type": "address"
        }
      ],
      "name": "Unpaused",
      "type": "event"
    },
    {
      "inputs": [],
      "name": "DEFAULT_ADMIN_ROLE",
      "outputs": [
        {
          "internalType": "bytes32",
          "name": "",
          "type": "bytes32"
        }
      ],
      "stateMutability": "view",
      "type": "function"
    },
    {
      "inputs": [
        {
          "internalType": "address",
          "name": "_operator",
          "type": "address"
        },
        {
          "internalType": "address",
          "name": "_blocklistAddress",
          "type": "address"
        }
      ],
      "name": "__Administrable_init",
      "outputs": [],
      "stateMutability": "nonpayable",
      "type": "function"
    },
    {
      "inputs": [
        {
          "internalType": "uint256",
          "name": "amountOfStabletokens",
          "type": "uint256"
        }
      ],
      "name": "addLiquidity",
      "outputs": [],
      "stateMutability": "payable",
      "type": "function"
    },
    {
      "inputs": [
        {
          "internalType": "uint256",
          "name": "kozi",
          "type": "uint256"
        }
      ],
      "name": "buyKozi",
      "outputs": [
        {
          "internalType": "uint256",
          "name": "stabletokensPaid",
          "type": "uint256"
        }
      ],
      "stateMutability": "nonpayable",
      "type": "function"
    },
    {
      "inputs": [
        {
          "internalType": "uint256",
          "name": "kozi",
          "type": "uint256"
        },
        {
          "internalType": "uint256",
          "name": "atPrice",
          "type": "uint256"
        },
        {
          "internalType": "uint256",
          "name": "maxSlippage",
          "type": "uint256"
        }
      ],
      "name": "buyKoziAtPrice",
      "outputs": [
        {
          "internalType": "uint256",
          "name": "stabletokensPaid",
          "type": "uint256"
        }
      ],
      "stateMutability": "nonpayable",
      "type": "function"
    },
    {
      "inputs": [
        {
          "internalType": "uint256",
          "name": "principal",
          "type": "uint256"
        },
        {
          "internalType": "uint256",
          "name": "ratio",
          "type": "uint256"
        },
        {
          "internalType": "uint256",
          "name": "n",
          "type": "uint256"
        }
      ],
      "name": "compound",
      "outputs": [
        {
          "internalType": "uint256",
          "name": "",
          "type": "uint256"
        }
      ],
      "stateMutability": "pure",
      "type": "function"
    },
    {
      "inputs": [],
      "name": "estimateKindomSellToTargetPrice",
      "outputs": [
        {
          "internalType": "uint256",
          "name": "koziToSell",
          "type": "uint256"
        }
      ],
      "stateMutability": "view",
      "type": "function"
    },
    {
      "inputs": [
        {
          "internalType": "address",
          "name": "account",
          "type": "address"
        }
      ],
      "name": "forfeitPrestigeTrophies",
      "outputs": [],
      "stateMutability": "nonpayable",
      "type": "function"
    },
    {
      "inputs": [],
      "name": "gasPriceLimit",
      "outputs": [
        {
          "internalType": "uint256",
          "name": "",
          "type": "uint256"
        }
      ],
      "stateMutability": "view",
      "type": "function"
    },
    {
      "inputs": [],
      "name": "getPrice",
      "outputs": [
        {
          "internalType": "uint256",
          "name": "_price",
          "type": "uint256"
        }
      ],
      "stateMutability": "view",
      "type": "function"
    },
    {
      "inputs": [],
      "name": "getPricesAndReserves",
      "outputs": [
        {
          "internalType": "uint256",
          "name": "_price",
          "type": "uint256"
        },
        {
          "internalType": "uint256",
          "name": "_targetPrice",
          "type": "uint256"
        },
        {
          "internalType": "uint256",
          "name": "_koziReserve",
          "type": "uint256"
        },
        {
          "internalType": "uint256",
          "name": "_stabletokenReserve",
          "type": "uint256"
        }
      ],
      "stateMutability": "view",
      "type": "function"
    },
    {
      "inputs": [],
      "name": "getReserves",
      "outputs": [
        {
          "internalType": "uint256",
          "name": "_koziReserve",
          "type": "uint256"
        },
        {
          "internalType": "uint256",
          "name": "_stabletokenReserve",
          "type": "uint256"
        }
      ],
      "stateMutability": "view",
      "type": "function"
    },
    {
      "inputs": [
        {
          "internalType": "bytes32",
          "name": "role",
          "type": "bytes32"
        }
      ],
      "name": "getRoleAdmin",
      "outputs": [
        {
          "internalType": "bytes32",
          "name": "",
          "type": "bytes32"
        }
      ],
      "stateMutability": "view",
      "type": "function"
    },
    {
      "inputs": [
        {
          "internalType": "uint256",
          "name": "koziOut",
          "type": "uint256"
        }
      ],
      "name": "getStabletokensIn",
      "outputs": [
        {
          "internalType": "uint256",
          "name": "stabletokensIn",
          "type": "uint256"
        }
      ],
      "stateMutability": "view",
      "type": "function"
    },
    {
      "inputs": [],
      "name": "getTargetPrice",
      "outputs": [
        {
          "internalType": "uint256",
          "name": "targetPrice",
          "type": "uint256"
        }
      ],
      "stateMutability": "view",
      "type": "function"
    },
    {
      "inputs": [
        {
          "internalType": "bytes32",
          "name": "role",
          "type": "bytes32"
        },
        {
          "internalType": "address",
          "name": "account",
          "type": "address"
        }
      ],
      "name": "grantRole",
      "outputs": [],
      "stateMutability": "nonpayable",
      "type": "function"
    },
    {
      "inputs": [],
      "name": "hasBlocklist",
      "outputs": [
        {
          "internalType": "bool",
          "name": "",
          "type": "bool"
        }
      ],
      "stateMutability": "view",
      "type": "function"
    },
    {
      "inputs": [
        {
          "internalType": "bytes32",
          "name": "role",
          "type": "bytes32"
        },
        {
          "internalType": "address",
          "name": "account",
          "type": "address"
        }
      ],
      "name": "hasRole",
      "outputs": [
        {
          "internalType": "bool",
          "name": "",
          "type": "bool"
        }
      ],
      "stateMutability": "view",
      "type": "function"
    },
    {
      "inputs": [],
      "name": "initialTargetPrice",
      "outputs": [
        {
          "internalType": "uint256",
          "name": "",
          "type": "uint256"
        }
      ],
      "stateMutability": "view",
      "type": "function"
    },
    {
      "inputs": [
        {
          "internalType": "address",
          "name": "_operator",
          "type": "address"
        },
        {
          "internalType": "address",
          "name": "_blocklist",
          "type": "address"
        },
        {
          "internalType": "address",
          "name": "_stabletoken",
          "type": "address"
        }
      ],
      "name": "initialize",
      "outputs": [],
      "stateMutability": "nonpayable",
      "type": "function"
    },
    {
      "inputs": [],
      "name": "kingdomSell",
      "outputs": [],
      "stateMutability": "payable",
      "type": "function"
    },
    {
      "inputs": [],
      "name": "koziReserve",
      "outputs": [
        {
          "internalType": "uint256",
          "name": "",
          "type": "uint256"
        }
      ],
      "stateMutability": "view",
      "type": "function"
    },
    {
      "inputs": [
        {
          "internalType": "address",
          "name": "",
          "type": "address"
        }
      ],
      "name": "lastBuyBlock",
      "outputs": [
        {
          "internalType": "uint256",
          "name": "",
          "type": "uint256"
        }
      ],
      "stateMutability": "view",
      "type": "function"
    },
    {
      "inputs": [
        {
          "internalType": "address",
          "name": "",
          "type": "address"
        }
      ],
      "name": "lastSellOrTransferBlock",
      "outputs": [
        {
          "internalType": "uint256",
          "name": "",
          "type": "uint256"
        }
      ],
      "stateMutability": "view",
      "type": "function"
    },
    {
      "inputs": [],
      "name": "lockPeriod",
      "outputs": [
        {
          "internalType": "uint256",
          "name": "",
          "type": "uint256"
        }
      ],
      "stateMutability": "view",
      "type": "function"
    },
    {
      "inputs": [],
      "name": "pause",
      "outputs": [],
      "stateMutability": "nonpayable",
      "type": "function"
    },
    {
      "inputs": [],
      "name": "paused",
      "outputs": [
        {
          "internalType": "bool",
          "name": "",
          "type": "bool"
        }
      ],
      "stateMutability": "view",
      "type": "function"
    },
    {
      "inputs": [
        {
          "internalType": "address",
          "name": "account",
          "type": "address"
        }
      ],
      "name": "prestigeTrophiesOf",
      "outputs": [
        {
          "internalType": "uint256",
          "name": "balanceInCents",
          "type": "uint256"
        }
      ],
      "stateMutability": "view",
      "type": "function"
    },
    {
      "inputs": [
        {
          "internalType": "address[]",
          "name": "accounts",
          "type": "address[]"
        }
      ],
      "name": "prestigeTrophiesOfMany",
      "outputs": [
        {
          "internalType": "uint256[]",
          "name": "balancesInCents",
          "type": "uint256[]"
        }
      ],
      "stateMutability": "view",
      "type": "function"
    },
    {
      "inputs": [
        {
          "internalType": "address",
          "name": "",
          "type": "address"
        }
      ],
      "name": "prestigeTrophyCentsEarned",
      "outputs": [
        {
          "internalType": "uint256",
          "name": "",
          "type": "uint256"
        }
      ],
      "stateMutability": "view",
      "type": "function"
    },
    {
      "inputs": [
        {
          "internalType": "address",
          "name": "",
          "type": "address"
        }
      ],
      "name": "prestigeTrophyCentsSpent",
      "outputs": [
        {
          "internalType": "uint256",
          "name": "",
          "type": "uint256"
        }
      ],
      "stateMutability": "view",
      "type": "function"
    },
    {
      "inputs": [
        {
          "internalType": "uint256",
          "name": "koziToBuy",
          "type": "uint256"
        }
      ],
      "name": "quoteBuyKozi",
      "outputs": [
        {
          "internalType": "uint256",
          "name": "costInStabletokens",
          "type": "uint256"
        }
      ],
      "stateMutability": "view",
      "type": "function"
    },
    {
      "inputs": [
        {
          "internalType": "uint256",
          "name": "amount",
          "type": "uint256"
        }
      ],
      "name": "quoteKingdomSell",
      "outputs": [
        {
          "internalType": "uint256",
          "name": "stabletokensOut",
          "type": "uint256"
        }
      ],
      "stateMutability": "view",
      "type": "function"
    },
    {
      "inputs": [
        {
          "internalType": "uint256",
          "name": "kozi",
          "type": "uint256"
        }
      ],
      "name": "quoteKoziToStabletokens",
      "outputs": [
        {
          "internalType": "uint256",
          "name": "stable",
          "type": "uint256"
        }
      ],
      "stateMutability": "view",
      "type": "function"
    },
    {
      "inputs": [
        {
          "internalType": "uint256",
          "name": "koziToSell",
          "type": "uint256"
        }
      ],
      "name": "quoteSellKozi",
      "outputs": [
        {
          "internalType": "uint256",
          "name": "stabletokensOut",
          "type": "uint256"
        }
      ],
      "stateMutability": "view",
      "type": "function"
    },
    {
      "inputs": [
        {
          "internalType": "uint256",
          "name": "stabletokens",
          "type": "uint256"
        }
      ],
      "name": "quoteStableToKozi",
      "outputs": [
        {
          "internalType": "uint256",
          "name": "kozi",
          "type": "uint256"
        }
      ],
      "stateMutability": "view",
      "type": "function"
    },
    {
      "inputs": [
        {
          "internalType": "address",
          "name": "tokenAddress",
          "type": "address"
        },
        {
          "internalType": "address",
          "name": "to",
          "type": "address"
        },
        {
          "internalType": "uint256",
          "name": "amount",
          "type": "uint256"
        }
      ],
      "name": "recoverERC20",
      "outputs": [],
      "stateMutability": "nonpayable",
      "type": "function"
    },
    {
      "inputs": [
        {
          "internalType": "bytes32",
          "name": "role",
          "type": "bytes32"
        },
        {
          "internalType": "address",
          "name": "account",
          "type": "address"
        }
      ],
      "name": "renounceRole",
      "outputs": [],
      "stateMutability": "nonpayable",
      "type": "function"
    },
    {
      "inputs": [],
      "name": "resetBlocklist",
      "outputs": [],
      "stateMutability": "nonpayable",
      "type": "function"
    },
    {
      "inputs": [],
      "name": "resetReserves",
      "outputs": [],
      "stateMutability": "nonpayable",
      "type": "function"
    },
    {
      "inputs": [
        {
          "internalType": "bytes32",
          "name": "role",
          "type": "bytes32"
        },
        {
          "internalType": "address",
          "name": "account",
          "type": "address"
        }
      ],
      "name": "revokeRole",
      "outputs": [],
      "stateMutability": "nonpayable",
      "type": "function"
    },
    {
      "inputs": [],
      "name": "sellKozi",
      "outputs": [
        {
          "internalType": "uint256",
          "name": "stabletokensOut",
          "type": "uint256"
        }
      ],
      "stateMutability": "payable",
      "type": "function"
    },
    {
      "inputs": [
        {
          "internalType": "uint256",
          "name": "atPrice",
          "type": "uint256"
        },
        {
          "internalType": "uint256",
          "name": "maxSlippage",
          "type": "uint256"
        }
      ],
      "name": "sellKoziAtPrice",
      "outputs": [
        {
          "internalType": "uint256",
          "name": "stabletokensOut",
          "type": "uint256"
        }
      ],
      "stateMutability": "payable",
      "type": "function"
    },
    {
      "inputs": [
        {
          "internalType": "address",
          "name": "blocklistAddress",
          "type": "address"
        }
      ],
      "name": "setBlocklist",
      "outputs": [],
      "stateMutability": "nonpayable",
      "type": "function"
    },
    {
      "inputs": [
        {
          "internalType": "address",
          "name": "account",
          "type": "address"
        },
        {
          "internalType": "uint256",
          "name": "earned",
          "type": "uint256"
        },
        {
          "internalType": "uint256",
          "name": "spent",
          "type": "uint256"
        }
      ],
      "name": "setPrestigeTrophiesOf",
      "outputs": [],
      "stateMutability": "nonpayable",
      "type": "function"
    },
    {
      "inputs": [
        {
          "internalType": "uint256",
          "name": "koziIn",
          "type": "uint256"
        },
        {
          "internalType": "uint256",
          "name": "stabletokensOut",
          "type": "uint256"
        },
        {
          "internalType": "bool",
          "name": "_isAboveTargetPrice",
          "type": "bool"
        }
      ],
      "name": "simulateNewPriceAfterSell",
      "outputs": [
        {
          "internalType": "uint256",
          "name": "_priceAfter",
          "type": "uint256"
        }
      ],
      "stateMutability": "view",
      "type": "function"
    },
    {
      "inputs": [
        {
          "internalType": "address",
          "name": "account",
          "type": "address"
        },
        {
          "internalType": "uint256",
          "name": "amountInCents",
          "type": "uint256"
        }
      ],
      "name": "spendPrestigeTrophies",
      "outputs": [],
      "stateMutability": "nonpayable",
      "type": "function"
    },
    {
      "inputs": [],
      "name": "stabletoken",
      "outputs": [
        {
          "internalType": "contract IBkERC20",
          "name": "",
          "type": "address"
        }
      ],
      "stateMutability": "view",
      "type": "function"
    },
    {
      "inputs": [],
      "name": "stabletokenReserve",
      "outputs": [
        {
          "internalType": "uint256",
          "name": "",
          "type": "uint256"
        }
      ],
      "stateMutability": "view",
      "type": "function"
    },
    {
      "inputs": [],
      "name": "startBlock",
      "outputs": [
        {
          "internalType": "uint256",
          "name": "",
          "type": "uint256"
        }
      ],
      "stateMutability": "view",
      "type": "function"
    },
    {
      "inputs": [
        {
          "internalType": "bytes4",
          "name": "interfaceId",
          "type": "bytes4"
        }
      ],
      "name": "supportsInterface",
      "outputs": [
        {
          "internalType": "bool",
          "name": "",
          "type": "bool"
        }
      ],
      "stateMutability": "view",
      "type": "function"
    },
    {
      "inputs": [],
      "name": "tPriceIncrementPerDay",
      "outputs": [
        {
          "internalType": "uint256",
          "name": "",
          "type": "uint256"
        }
      ],
      "stateMutability": "view",
      "type": "function"
    },
    {
      "inputs": [],
      "name": "unpause",
      "outputs": [],
      "stateMutability": "nonpayable",
      "type": "function"
    }
  ],
  "bytecode": "0x608060405234801561001057600080fd5b50613564806100206000396000f3fe6080604052600436106103195760003560e01c8063634210f4116101ab578063bd01bb32116100f7578063d547741f11610095578063e45175371161006f578063e4517537146108e2578063e695971e1461091a578063f3c85eba1461093a578063fb04eac31461095a57600080fd5b8063d547741f1461088c578063d669e7cd146108ac578063db384be1146108c257600080fd5b8063c995cc45116100d1578063c995cc4514610809578063cab5853e14610836578063cccc5b0d14610856578063d3f0fbc11461086c57600080fd5b8063bd01bb32146107b4578063c0c53b8b146107c9578063c55eb40a146107e957600080fd5b8063931da89b116101645780639eace7461161013e5780639eace74614610732578063a038d26a14610752578063a217fddf1461077f578063aef18ae71461079457600080fd5b8063931da89b146106e7578063961a929c1461070757806398d5fdca1461071d57600080fd5b8063634210f41461066057806367179824146106815780638456cb59146106945780638d8dac5a146106a95780638e2bb5f1146106bf57806391d14854146106c757600080fd5b8063387b2f291161026a5780634b6f6e4c1161022357806351c6590a116101fd57806351c6590a1461060d5780635c975abb1461062057806362100dfa14610638578063624574f61461064057600080fd5b80634b6f6e4c1461058b5780634bd52cc7146105ab5780634ee17d83146105e057600080fd5b8063387b2f291461050a5780633a1891d0146105205780633c7fd822146105355780633f4ba83a1461054a5780633fd8b02f1461055f57806348cd4cb11461057557600080fd5b80631171bda9116102d75780632f2ff15d116102b15780632f2ff15d1461047d57806331419e931461049d57806336568abe146104bd57806337b28bfd146104dd57600080fd5b80631171bda91461040b5780631ebd1d251461042d578063248a9ca31461044d57600080fd5b80625aab241461031e57806301ffc9a714610351578063077934b5146103815780630902f1ac146103a15780630a46e66d146103c957806310364b6a146103de575b600080fd5b34801561032a57600080fd5b5061033e610339366004612eb3565b61097a565b6040519081526020015b60405180910390f35b34801561035d57600080fd5b5061037161036c366004612ecc565b61098b565b6040519015158152602001610348565b34801561038d57600080fd5b5061033e61039c366004612eb3565b6109c0565b3480156103ad57600080fd5b5060ce5460cf5460408051928352602083019190915201610348565b3480156103d557600080fd5b5061033e610a32565b3480156103ea57600080fd5b5061033e6103f9366004612f12565b60d46020526000908152604090205481565b34801561041757600080fd5b5061042b610426366004612f2d565b610aa2565b005b34801561043957600080fd5b5061033e610448366004612eb3565b610b43565b34801561045957600080fd5b5061033e610468366004612eb3565b60009081526068602052604090206001015490565b34801561048957600080fd5b5061042b610498366004612f69565b610ba9565b3480156104a957600080fd5b5061033e6104b8366004612f95565b610bd3565b3480156104c957600080fd5b5061042b6104d8366004612f69565b610cff565b3480156104e957600080fd5b5061033e6104f8366004612f12565b60d66020526000908152604090205481565b34801561051657600080fd5b5061033e60d25481565b34801561052c57600080fd5b5061042b610d22565b34801561054157600080fd5b5061042b610e14565b34801561055657600080fd5b5061042b610e3f565b34801561056b57600080fd5b5061033e60005481565b34801561058157600080fd5b5061033e60d05481565b34801561059757600080fd5b5061033e6105a6366004612fcf565b610e62565b3480156105b757600080fd5b506105c0610ee4565b604080519485526020850193909352918301526060820152608001610348565b3480156105ec57600080fd5b5061033e6105fb366004612f12565b60d36020526000908152604090205481565b61042b61061b366004612eb3565b610f21565b34801561062c57600080fd5b50609a5460ff16610371565b61033e6111ec565b34801561064c57600080fd5b5061033e61065b366004612eb3565b6112d0565b34801561066c57600080fd5b5060cc5461037190600160a01b900460ff1681565b61033e61068f366004613008565b61137e565b3480156106a057600080fd5b5061042b6114e0565b3480156106b557600080fd5b5061033e60d15481565b61042b611500565b3480156106d357600080fd5b506103716106e2366004612f69565b6116d2565b3480156106f357600080fd5b5061042b61070236600461302a565b6116fd565b34801561071357600080fd5b5061033e60025481565b34801561072957600080fd5b5061033e611801565b34801561073e57600080fd5b5061042b61074d366004612f12565b611819565b34801561075e57600080fd5b5061033e61076d366004612f12565b60d56020526000908152604090205481565b34801561078b57600080fd5b5061033e600081565b3480156107a057600080fd5b5061042b6107af366004612f12565b61183a565b3480156107c057600080fd5b5061033e61187a565b3480156107d557600080fd5b5061042b6107e4366004613054565b6118c2565b3480156107f557600080fd5b5061042b610804366004613097565b6119c5565b34801561081557600080fd5b506108296108243660046130c1565b6119e7565b6040516103489190613136565b34801561084257600080fd5b5061033e610851366004612f12565b611b11565b34801561086257600080fd5b5061033e60ce5481565b34801561087857600080fd5b5061033e610887366004612eb3565b611b3f565b34801561089857600080fd5b5061042b6108a7366004612f69565b611c07565b3480156108b857600080fd5b5061033e60cf5481565b3480156108ce57600080fd5b5061033e6108dd366004612eb3565b611c2c565b3480156108ee57600080fd5b5060cd54610902906001600160a01b031681565b6040516001600160a01b039091168152602001610348565b34801561092657600080fd5b5061042b61093536600461317a565b611c78565b34801561094657600080fd5b5061033e610955366004612f95565b611cb9565b34801561096657600080fd5b5061033e610975366004612eb3565b611cf1565b600061098582611d79565b92915050565b60006001600160e01b03198216637965db0b60e01b148061098557506301ffc9a760e01b6001600160e01b0319831614610985565b60008060006109d260ce5460cf549091565b909250905060016109e385836131c3565b6109ed86856131db565b6109f79190613210565b610a019190613232565b9250818310610a2b5760405162461bcd60e51b8152600401610a2290613249565b60405180910390fd5b5050919050565b600080600080610a40610ee4565b5092509250925081831015610a59576000935050505090565b610a6382846131c3565b610a6d8385613232565b610a7790836131db565b610a819190613210565b93506064610a908560856131db565b610a9a9190613210565b935050505090565b6000805160206134ef833981519152610aba81611dfe565b60405163a9059cbb60e01b81526001600160a01b0384811660048301526024820184905285169063a9059cbb90604401602060405180830381600087803b158015610b0457600080fd5b505af1158015610b18573d6000803e3d6000fd5b505050506040513d601f19601f82011682018060405250810190610b3c9190613279565b5050505050565b6000806000610b5560ce5460cf549091565b91509150818410610b785760405162461bcd60e51b8152600401610a2290613249565b610b828483613232565b610b8c85836131db565b610b969190613210565b610ba19060016131c3565b949350505050565b600082815260686020526040902060010154610bc481611dfe565b610bce8383611e08565b505050565b60cc54600090600160a81b900460ff1615610c005760405162461bcd60e51b8152600401610a2290613296565b60cc805460ff60a81b1916600160a81b179055610c1b611e8e565b6002543a1115610c3d5760405162461bcd60e51b8152600401610a22906132b5565b33610c4781611ed6565b15610c645760405162461bcd60e51b8152600401610a22906132d7565b6000610c6e611801565b905060006103e8610c7f86886131db565b610c899190613210565b610c9390876131c3565b905080821115610cde5760405162461bcd60e51b81526020600482015260166024820152750a0e4d2c6ca40c6d0c2dccecac840e8dede40daeac6d60531b6044820152606401610a22565b610ce787611f6f565b60cc805460ff60a81b19169055979650505050505050565b6001600160a01b0381163314610d1457600080fd5b610d1e8282612239565b5050565b60cc54600160a81b900460ff1615610d4c5760405162461bcd60e51b8152600401610a2290613296565b60cc805460ff60a81b1916600160a81b1790556000805160206134ef833981519152610d7781611dfe565b60cd546040516370a0823160e01b8152306004820152610e049147916001600160a01b03909116906370a08231906024015b60206040518083038186803b158015610dc157600080fd5b505afa158015610dd5573d6000803e3d6000fd5b505050506040513d601f19601f82011682018060405250810190610df991906132fc565b60ce9190915560cf55565b5060cc805460ff60a81b19169055565b6000805160206134ef833981519152610e2c81611dfe565b5060cc80546001600160a81b0319169055565b6000805160206134ef833981519152610e5781611dfe565b610e5f6122a0565b50565b6000806000610e7460ce5460cf549091565b91509150600084610e855782610e8f565b610e8f87846131c3565b90506000610e9d8784613232565b9050610eb1670de0b6b3a764000083613232565b610ec382670de0b6b3a76400006131db565b610ecd9190613210565b610ed89060016131c3565b98975050505050505050565b600080600080610efb670de0b6b3a7640000611c2c565b9350610f0561187a565b9250610f1460ce5460cf549091565b9495939490939092509050565b60cc54600160a81b900460ff1615610f4b5760405162461bcd60e51b8152600401610a2290613296565b60cc805460ff60a81b1916600160a81b179055610f66611e8e565b6002543a1115610f885760405162461bcd60e51b8152600401610a22906132b5565b33610f9281611ed6565b15610faf5760405162461bcd60e51b8152600401610a22906132d7565b33600090815260016020526040902054431015610fde5760405162461bcd60e51b8152600401610a2290613315565b610fe7336122f2565b600080610ff760ce5460cf549091565b91509150600082118061100a5750600081115b156110705761101982856131db565b61102382346131db565b146110705760405162461bcd60e51b815260206004820152601d60248201527f556e62616c616e636564204c69717569646974792050726f76696465640000006044820152606401610a22565b83156110fe5760cd546040516323b872dd60e01b81526001600160a01b03909116906323b872dd906110aa90339030908990600401613337565b602060405180830381600087803b1580156110c457600080fd5b505af11580156110d8573d6000803e3d6000fd5b505050506040513d601f19601f820116820180604052508101906110fc9190613279565b505b60cd546040516370a0823160e01b81523060048201526111349147916001600160a01b03909116906370a0823190602401610da9565b600061113e611801565b9050600061114a61187a565b90506000805160206134af83398151915233303460405161116d93929190613337565b60405180910390a17fac1d76749e5447b7b16f5ab61447e1bd502f3bb4807af3b28e620d1700a6ee453334886040516111a89392919061335b565b60405180910390a1604080518381526020810183905260008051602061350f833981519152910160405180910390a1505060cc805460ff60a81b1916905550505050565b60cc54600090600160a81b900460ff16156112195760405162461bcd60e51b8152600401610a2290613296565b60cc805460ff60a81b1916600160a81b179055611234611e8e565b6002543a11156112565760405162461bcd60e51b8152600401610a22906132b5565b3361126081611ed6565b1561127d5760405162461bcd60e51b8152600401610a22906132d7565b336000908152600160205260409020544310156112ac5760405162461bcd60e51b8152600401610a2290613315565b6112b5336122f2565b6112bd61231b565b91505060cc805460ff60a81b1916905590565b60cc54600090600160a81b900460ff16156112fd5760405162461bcd60e51b8152600401610a2290613296565b60cc805460ff60a81b1916600160a81b179055611318611e8e565b6002543a111561133a5760405162461bcd60e51b8152600401610a22906132b5565b3361134481611ed6565b156113615760405162461bcd60e51b8152600401610a22906132d7565b61136a83611f6f565b60cc805460ff60a81b191690559392505050565b60cc54600090600160a81b900460ff16156113ab5760405162461bcd60e51b8152600401610a2290613296565b60cc805460ff60a81b1916600160a81b1790556113c6611e8e565b6002543a11156113e85760405162461bcd60e51b8152600401610a22906132b5565b336113f281611ed6565b1561140f5760405162461bcd60e51b8152600401610a22906132d7565b3360009081526001602052604090205443101561143e5760405162461bcd60e51b8152600401610a2290613315565b611447336122f2565b6000611451611801565b905060006103e861146286886131db565b61146c9190613210565b6114769087613232565b9050808210156114c15760405162461bcd60e51b81526020600482015260166024820152750a0e4d2c6ca40c6d0c2dccecac840e8dede40daeac6d60531b6044820152606401610a22565b6114c961231b565b60cc805460ff60a81b191690559695505050505050565b6000805160206134ef8339815191526114f881611dfe565b610e5f612523565b60cc54600160a81b900460ff161561152a5760405162461bcd60e51b8152600401610a2290613296565b60cc805460ff60a81b1916600160a81b1790556000805160206134cf83398151915261155581611dfe565b600061156034611b3f565b60cd5460405163a9059cbb60e01b8152336004820152602481018390529192506001600160a01b03169063a9059cbb90604401602060405180830381600087803b1580156115ad57600080fd5b505af11580156115c1573d6000803e3d6000fd5b505050506040513d601f19601f820116820180604052508101906115e59190613279565b5060cd546040516370a0823160e01b815230600482015261161c9147916001600160a01b03909116906370a0823190602401610da9565b6000611626611801565b9050600061163261187a565b90506000805160206134af83398151915233303460405161165593929190613337565b60405180910390a17fed7a144fad14804d5c249145e3e0e2b63a9eb455b76aee5bc92d711e9bba3e4a3334856040516116909392919061335b565b60405180910390a1604080518381526020810183905260008051602061350f833981519152910160405180910390a1505060cc805460ff60a81b191690555050565b60009182526068602090815260408084206001600160a01b0393909316845291905290205460ff1690565b600354610100900460ff161580801561171d5750600354600160ff909116105b806117375750303b158015611737575060035460ff166001145b61174057600080fd5b6003805460ff191660011790558015611763576003805461ff0019166101001790555b61176b612560565b611773612574565b61177e600084612590565b6117966000805160206134ef83398151915284612590565b6117ae6000805160206134cf83398151915284612590565b6117b78261183a565b8015610bce576003805461ff0019169055604051600181527f7f26b83ff96e1f2b6a682f133852f6798a09c465da95921460cefb38474024989060200160405180910390a1505050565b6000611814670de0b6b3a7640000611c2c565b905090565b6000805160206134cf83398151915261183181611dfe565b610d1e8261259a565b6000805160206134ef83398151915261185281611dfe565b5060cc80546001600160a81b0319166001600160a01b0390921691909117600160a01b179055565b60008060d0544361188b9190613232565b9050600061189b6121c083613210565b9050806118ac5760d1549250505090565b6118bb60d15460d25483611cb9565b9250505090565b600354610100900460ff16158080156118e25750600354600160ff909116105b806118fc5750303b1580156118fc575060035460ff166001145b61190557600080fd5b6003805460ff191660011790558015611928576003805461ff0019166101001790555b61193284846116fd565b60cd80546001600160a01b0319166001600160a01b0384161790554360d055678ac7230489e8000060d15566038d7ea4c6800060d2556000805561197963b2d05e00600255565b80156119bf576003805461ff0019169055604051600181527f7f26b83ff96e1f2b6a682f133852f6798a09c465da95921460cefb38474024989060200160405180910390a15b50505050565b6000805160206134cf8339815191526119dd81611dfe565b610bce8383612629565b60608167ffffffffffffffff811115611a0257611a0261337c565b604051908082528060200260200182016040528015611a2b578160200160208202803683370190505b50905060005b82811015611b0a5760d46000858584818110611a4f57611a4f613392565b9050602002016020810190611a649190612f12565b6001600160a01b03166001600160a01b031681526020019081526020016000205460d36000868685818110611a9b57611a9b613392565b9050602002016020810190611ab09190612f12565b6001600160a01b03166001600160a01b0316815260200190815260200160002054611adb9190613232565b828281518110611aed57611aed613392565b602090810291909101015280611b02816133a8565b915050611a31565b5092915050565b6001600160a01b038116600090815260d4602090815260408083205460d39092528220546109859190613232565b60006000805160206134cf833981519152611b5981611dfe565b60008311611b9f5760405162461bcd60e51b8152602060048201526013602482015272125b9cdd59999a58da595b9d08105b5bdd5b9d606a1b6044820152606401610a22565b600080611baf60ce5460cf549091565b90925090506002611bc086846131c3565b611bca87846131db565b611bd49190613210565b611bde9190613210565b9350808410611bff5760405162461bcd60e51b8152600401610a2290613249565b505050919050565b600082815260686020526040902060010154611c2281611dfe565b610bce8383612239565b6000808211611c685760405162461bcd60e51b81526020600482015260086024820152670616d6f756e743d360c41b6044820152606401610a22565b600080610b5560ce5460cf549091565b6000805160206134cf833981519152611c9081611dfe565b506001600160a01b03909216600090815260d3602090815260408083209390935560d490522055565b6000610ba1611ceb611ce5611cce6001612743565b611ce087670de0b6b3a7640000612761565b61279f565b846127d3565b856129fb565b6000806000611d0360ce5460cf549091565b90925090506000611d1485846131c3565b611d1e86846131db565b611d289190613210565b90506000611d34611801565b90506000611d4061187a565b9050611d4e87848484612a63565b9550838610611d6f5760405162461bcd60e51b8152600401610a2290613249565b5050505050919050565b6000806000611d8b60ce5460cf549091565b9092509050611d9a84836131c3565b611da485836131db565b611dae9190613210565b92506000611dba611801565b90506000611dc661187a565b9050611dd486868484612a63565b9450828510611df55760405162461bcd60e51b8152600401610a2290613249565b50505050919050565b610e5f8133612b24565b611e1282826116d2565b610d1e5760008281526068602090815260408083206001600160a01b03851684529091529020805460ff19166001179055611e4a3390565b6001600160a01b0316816001600160a01b0316837f2f8788117e7eff1d82e926ec794901d17c78024a50270940304540a733656f0d60405160405180910390a45050565b609a5460ff1615611ed45760405162461bcd60e51b815260206004820152601060248201526f14185d5cd8589b194e881c185d5cd95960821b6044820152606401610a22565b565b60cc54600090600160a01b900460ff16611ef257506000919050565b60cc54604051638e204c4360e01b81526001600160a01b03848116600483015290911690638e204c439060240160206040518083038186803b158015611f3757600080fd5b505afa158015611f4b573d6000803e3d6000fd5b505050506040513d601f19601f820116820180604052508101906109859190613279565b6000808211611fa95760405162461bcd60e51b815260206004820152600660248201526506b6f7a693d360d41b6044820152606401610a22565b611fb282611c2c565b60cd546040516323b872dd60e01b81529192506001600160a01b0316906323b872dd90611fe790339030908690600401613337565b602060405180830381600087803b15801561200157600080fd5b505af1158015612015573d6000803e3d6000fd5b505050506040513d601f19601f820116820180604052508101906120399190613279565b50678ac7230489e80000811015801561206b57506120596102ca43613232565b33600090815260d56020526040902054105b801561208f575061207d600143613232565b33600090815260d66020526040902054105b1561211d5733600090815260d3602052604081208054600192906120b49084906131c3565b909155505033600081815260d4602090815260408083205460d3909252909120547fc25fb85d076f230e81f56488e17eebae41d71bafb03caca57a5205e601d7d5b192916001916121059190613232565b6040516121149392919061335b565b60405180910390a15b33600081815260d660205260408082204390555184156108fc0291859190818181858888f19350505050158015612158573d6000803e3d6000fd5b5060cd546040516370a0823160e01b815230600482015261218f9147916001600160a01b03909116906370a0823190602401610da9565b6000612199611801565b905060006121a561187a565b90506000805160206134af8339815191523033866040516121c893929190613337565b60405180910390a17f1cbc5ab135991bd2b6a4b034a04aa2aa086dac1371cb9b16b8b5e2ed6b036bed3384866040516122039392919061335b565b60405180910390a1604080518381526020810183905260008051602061350f833981519152910160405180910390a15050919050565b61224382826116d2565b15610d1e5760008281526068602090815260408083206001600160a01b0385168085529252808320805460ff1916905551339285917ff6391f5c32d9c69d2a47ea670b442974b53935d1edc7fd64eb21e047a839171b9190a45050565b6122a8612b7d565b609a805460ff191690557f5db9ee0a495bf2e6ff9c91a7834c1ba4fdd244a5e8aa4e537bd38aeae4b073aa335b6040516001600160a01b03909116815260200160405180910390a1565b6000546122ff90436131c3565b6001600160a01b03909116600090815260016020526040902055565b60008034116123625760405162461bcd60e51b8152602060048201526013602482015272125b9cdd59999a58da595b9d08105b5bdd5b9d606a1b6044820152606401610a22565b600061236d34611d79565b9050809150600061237c611801565b9050600061238861187a565b9050808210156123ea576040516000903480156108fc029183818181858288f193505050501580156123be573d6000803e3d6000fd5b506000805160206134af833981519152306000346040516123e193929190613337565b60405180910390a15b6123f33361259a565b60cd5460405163a9059cbb60e01b8152336004820152602481018690526001600160a01b039091169063a9059cbb90604401602060405180830381600087803b15801561243f57600080fd5b505af1158015612453573d6000803e3d6000fd5b505050506040513d601f19601f820116820180604052508101906124779190613279565b5060cd546040516370a0823160e01b81523060048201526124ae9147916001600160a01b03909116906370a0823190602401610da9565b60006124b8611801565b90507fed7a144fad14804d5c249145e3e0e2b63a9eb455b76aee5bc92d711e9bba3e4a3334876040516124ed9392919061335b565b60405180910390a1604080518281526020810184905260008051602061350f833981519152910160405180910390a15050505090565b61252b611e8e565b609a805460ff191660011790557f62e78cea01bee320cd4e420270b5ea74000d11b0c9f74754ebdbfc544b05a2586122d53390565b600354610100900460ff16611ed457600080fd5b600354610100900460ff1661258857600080fd5b611ed4612bc6565b610d1e8282611e08565b6125a5600143613232565b6001600160a01b038216600090815260d5602090815260408083209390935560d481528282205460d3909152919020546125ea9183916125e59190613232565b612629565b6040516001600160a01b03821681527fbc847c4439271a6f77ec4afecc4efb0a8985565dae52f06a5ed56896ed858ed99060200160405180910390a150565b6001600160a01b038216600090815260d4602090815260408083205460d390925290912054829161265991613232565b10156126a75760405162461bcd60e51b815260206004820152601e60248201527f496e73756666696369656e742050726573746967652054726f706869657300006044820152606401610a22565b6001600160a01b038216600090815260d46020526040812080548392906126cf9084906131c3565b90915550506001600160a01b038216600090815260d4602090815260408083205460d3909252909120547fbd5f6e581625ba7ad9094b2e3b168d4b63a701bece59ac31260b7a3ffb307b7c918491849161272891613232565b6040516127379392919061335b565b60405180910390a15050565b6000677fffffffffffffff82111561275a57600080fd5b5060401b90565b60008161276d57600080fd5b60006127798484612be6565b905060016001607f1b036001600160801b038216111561279857600080fd5b9392505050565b6000600f83810b9083900b0160016001607f1b031981128015906127ca575060016001607f1b038113155b61279857600080fd5b600080600084600f0b1280156127ec5750826001166001145b905060008085600f0b126128005784612805565b846000035b6001600160801b03169050600160801b68010000000000000000821161289f57603f82901b91505b8415612897576001851615612842578102607f1c5b908002607f1c906002851615612858578102607f1c5b908002607f1c90600485161561286e578102607f1c5b908002607f1c906008851615612884578102607f1c5b60049490941c93908002607f1c9061282d565b60401c6129b5565b603f600160601b8310156128b95760209290921b91601f19015b600160701b8310156128d15760109290921b91600f19015b600160781b8310156128e95760089290921b91600719015b6001607c1b8310156129015760049290921b91600319015b6001607e1b8310156129195760029290921b91600119015b6001607f1b8310156129315760019290921b91600019015b60005b861561299e576040821061294757600080fd5b600187161561296d57918302607f1c918101600160801b83111561296d57600192831c92015b928002607f1c9260019190911b90600160801b841061299257600193841c9391909101905b600187901c9650612934565b604081106129ab57600080fd5b6040039190911c90505b6000836129c257816129c7565b816000035b905060016001607f1b031981128015906129e8575060016001607f1b038113155b6129f157600080fd5b9695505050505050565b600081612a0a57506000610985565b600083600f0b1215612a1b57600080fd5b600f83900b6001600160801b038316810260401c90608084901c026001600160c01b03811115612a4a57600080fd5b60401b8119811115612a5b57600080fd5b019392505050565b600080612a738686858711610e62565b9050600083821115612abf57600284612a8c8185613232565b612a979060646131db565b612aa19190613210565b612aab9190613210565b90506063811115612aba575060635b612af9565b83612aca8382613232565b612ad59060646131db565b612adf9190613210565b612aea9060026131db565b90506063811115612af9575060635b6064612b058282613232565b612b0f90886131db565b612b199190613210565b979650505050505050565b612b2e82826116d2565b610d1e57612b3b81612d48565b612b46836020612d5a565b604051602001612b579291906133ef565b60408051601f198184030181529082905262461bcd60e51b8252610a2291600401613464565b609a5460ff16611ed45760405162461bcd60e51b815260206004820152601460248201527314185d5cd8589b194e881b9bdd081c185d5cd95960621b6044820152606401610a22565b600354610100900460ff16612bda57600080fd5b609a805460ff19169055565b600081612bf257600080fd5b60006001600160c01b038411612c1d5782604085901b81612c1557612c156131fa565b049050612d34565b60c084811c6401000000008110612c36576020918201911c5b620100008110612c48576010918201911c5b6101008110612c59576008918201911c5b60108110612c69576004918201911c5b60048110612c79576002918201911c5b60028110612c88576001820191505b60bf820360018603901c6001018260ff0387901b81612ca957612ca96131fa565b0492506001600160801b03831115612cc057600080fd5b608085901c83026001600160801b038616840260c088901c604089901b82811015612cec576001820391505b608084901b92900382811015612d03576001820391505b829003608084901c8214612d18576001612d29565b888181612d2757612d276131fa565b045b870196505050505050505b6001600160801b0381111561279857600080fd5b60606109856001600160a01b03831660145b60606000612d698360026131db565b612d749060026131c3565b67ffffffffffffffff811115612d8c57612d8c61337c565b6040519080825280601f01601f191660200182016040528015612db6576020820181803683370190505b509050600360fc1b81600081518110612dd157612dd1613392565b60200101906001600160f81b031916908160001a905350600f60fb1b81600181518110612e0057612e00613392565b60200101906001600160f81b031916908160001a9053506000612e248460026131db565b612e2f9060016131c3565b90505b6001811115612ea7576f181899199a1a9b1b9c1cb0b131b232b360811b85600f1660108110612e6357612e63613392565b1a60f81b828281518110612e7957612e79613392565b60200101906001600160f81b031916908160001a90535060049490941c93612ea081613497565b9050612e32565b50831561279857600080fd5b600060208284031215612ec557600080fd5b5035919050565b600060208284031215612ede57600080fd5b81356001600160e01b03198116811461279857600080fd5b80356001600160a01b0381168114612f0d57600080fd5b919050565b600060208284031215612f2457600080fd5b61279882612ef6565b600080600060608486031215612f4257600080fd5b612f4b84612ef6565b9250612f5960208501612ef6565b9150604084013590509250925092565b60008060408385031215612f7c57600080fd5b82359150612f8c60208401612ef6565b90509250929050565b600080600060608486031215612faa57600080fd5b505081359360208301359350604090920135919050565b8015158114610e5f57600080fd5b600080600060608486031215612fe457600080fd5b83359250602084013591506040840135612ffd81612fc1565b809150509250925092565b6000806040838503121561301b57600080fd5b50508035926020909101359150565b6000806040838503121561303d57600080fd5b61304683612ef6565b9150612f8c60208401612ef6565b60008060006060848603121561306957600080fd5b61307284612ef6565b925061308060208501612ef6565b915061308e60408501612ef6565b90509250925092565b600080604083850312156130aa57600080fd5b6130b383612ef6565b946020939093013593505050565b600080602083850312156130d457600080fd5b823567ffffffffffffffff808211156130ec57600080fd5b818501915085601f83011261310057600080fd5b81358181111561310f57600080fd5b8660208260051b850101111561312457600080fd5b60209290920196919550909350505050565b6020808252825182820181905260009190848201906040850190845b8181101561316e57835183529284019291840191600101613152565b50909695505050505050565b60008060006060848603121561318f57600080fd5b61319884612ef6565b95602085013595506040909401359392505050565b634e487b7160e01b600052601160045260246000fd5b600082198211156131d6576131d66131ad565b500190565b60008160001904831182151516156131f5576131f56131ad565b500290565b634e487b7160e01b600052601260045260246000fd5b60008261322d57634e487b7160e01b600052601260045260246000fd5b500490565b600082821015613244576132446131ad565b500390565b602080825260169082015275496e73756666696369656e74204c697175696469747960501b604082015260600190565b60006020828403121561328b57600080fd5b815161279881612fc1565b6020808252600590820152640daeae8caf60db1b604082015260600190565b6020808252600890820152670cec2e664d0d2ced60c31b604082015260600190565b6020808252600b908201526a109b1bd8dadb1a5cdd195960aa1b604082015260600190565b60006020828403121561330e57600080fd5b5051919050565b60208082526008908201526731b7b7b63237bbb760c11b604082015260600190565b6001600160a01b039384168152919092166020820152604081019190915260600190565b6001600160a01b039390931683526020830191909152604082015260600190565b634e487b7160e01b600052604160045260246000fd5b634e487b7160e01b600052603260045260246000fd5b60006000198214156133bc576133bc6131ad565b5060010190565b60005b838110156133de5781810151838201526020016133c6565b838111156119bf5750506000910152565b7f416363657373436f6e74726f6c3a206163636f756e74200000000000000000008152600083516134278160178501602088016133c3565b7001034b99036b4b9b9b4b733903937b6329607d1b60179184019182015283516134588160288401602088016133c3565b01602801949350505050565b60208152600082518060208401526134838160408501602087016133c3565b601f01601f19169190910160400192915050565b6000816134a6576134a66131ad565b50600019019056fefb7c911d762dcd10c3d2aeb52e12bb7a1b461499d8e5c766051fc929599e511173e573f9566d61418a34d5de3ff49360f9c51fec37f7486551670290f6285dab97667070c54ef182b0f5858b034beac1b6f3089aa2d3188bb1e8929f4fa9b929b9362b96e28efbb7a7e63bb4a97faf9924ec0394635feff8588a6ae2a5f784fea26469706673582212200a24c721a3b2fa5b8dac4f8981e1bca38f913c5e2fff831837347e62007aca0464736f6c63430008090033",
  "linkReferences": {},
  "deployedLinkReferences": {}
}