{
  "_format": "hh-sol-artifact-1",
  "contractName": "BatchFixer",
  "sourceName": "contracts/features/BatchFixer.sol",
  "abi": [
    {
      "anonymous": false,
      "inputs": [
        {
          "indexed": false,
          "internalType": "uint8",
          "name": "version",
          "type": "uint8"
        }
      ],
      "name": "Initialized",
      "type": "event"
    },
    {
      "anonymous": false,
      "inputs": [
        {
          "indexed": false,
          "internalType": "address",
          "name": "account",
          "type": "address"
        }
      ],
      "name": "Paused",
      "type": "event"
    },
    {
      "anonymous": false,
      "inputs": [
        {
          "indexed": true,
          "internalType": "bytes32",
          "name": "role",
          "type": "bytes32"
        },
        {
          "indexed": true,
          "internalType": "bytes32",
          "name": "previousAdminRole",
          "type": "bytes32"
        },
        {
          "indexed": true,
          "internalType": "bytes32",
          "name": "newAdminRole",
          "type": "bytes32"
        }
      ],
      "name": "RoleAdminChanged",
      "type": "event"
    },
    {
      "anonymous": false,
      "inputs": [
        {
          "indexed": true,
          "internalType": "bytes32",
          "name": "role",
          "type": "bytes32"
        },
        {
          "indexed": true,
          "internalType": "address",
          "name": "account",
          "type": "address"
        },
        {
          "indexed": true,
          "internalType": "address",
          "name": "sender",
          "type": "address"
        }
      ],
      "name": "RoleGranted",
      "type": "event"
    },
    {
      "anonymous": false,
      "inputs": [
        {
          "indexed": true,
          "internalType": "bytes32",
          "name": "role",
          "type": "bytes32"
        },
        {
          "indexed": true,
          "internalType": "address",
          "name": "account",
          "type": "address"
        },
        {
          "indexed": true,
          "internalType": "address",
          "name": "sender",
          "type": "address"
        }
      ],
      "name": "RoleRevoked",
      "type": "event"
    },
    {
      "anonymous": false,
      "inputs": [
        {
          "indexed": false,
          "internalType": "address",
          "name": "account",
          "type": "address"
        }
      ],
      "name": "Unpaused",
      "type": "event"
    },
    {
      "inputs": [],
      "name": "DEFAULT_ADMIN_ROLE",
      "outputs": [
        {
          "internalType": "bytes32",
          "name": "",
          "type": "bytes32"
        }
      ],
      "stateMutability": "view",
      "type": "function"
    },
    {
      "inputs": [
        {
          "internalType": "address[]",
          "name": "playerAddresses",
          "type": "address[]"
        },
        {
          "internalType": "uint256[]",
          "name": "amount",
          "type": "uint256[]"
        },
        {
          "internalType": "uint256[]",
          "name": "resources",
          "type": "uint256[]"
        }
      ],
      "name": "addTo",
      "outputs": [],
      "stateMutability": "nonpayable",
      "type": "function"
    },
    {
      "inputs": [
        {
          "internalType": "address[]",
          "name": "playerAddresses",
          "type": "address[]"
        },
        {
          "internalType": "uint256",
          "name": "amount",
          "type": "uint256"
        },
        {
          "internalType": "uint256[]",
          "name": "resources",
          "type": "uint256[]"
        }
      ],
      "name": "addToMany",
      "outputs": [],
      "stateMutability": "nonpayable",
      "type": "function"
    },
    {
      "inputs": [],
      "name": "contracts",
      "outputs": [
        {
          "internalType": "contract IMhdaoFarmBatchFixer",
          "name": "farm",
          "type": "address"
        },
        {
          "internalType": "contract IMhdaoNft",
          "name": "nft",
          "type": "address"
        },
        {
          "internalType": "contract IStasher",
          "name": "stasher",
          "type": "address"
        },
        {
          "internalType": "contract ICommunityPool",
          "name": "pool",
          "type": "address"
        }
      ],
      "stateMutability": "view",
      "type": "function"
    },
    {
      "inputs": [
        {
          "internalType": "uint256[]",
          "name": "tokenIds",
          "type": "uint256[]"
        },
        {
          "internalType": "uint256[]",
          "name": "collectionIds",
          "type": "uint256[]"
        }
      ],
      "name": "fixNftCollectionId",
      "outputs": [],
      "stateMutability": "nonpayable",
      "type": "function"
    },
    {
      "inputs": [
        {
          "internalType": "bytes32",
          "name": "role",
          "type": "bytes32"
        }
      ],
      "name": "getRoleAdmin",
      "outputs": [
        {
          "internalType": "bytes32",
          "name": "",
          "type": "bytes32"
        }
      ],
      "stateMutability": "view",
      "type": "function"
    },
    {
      "inputs": [
        {
          "internalType": "bytes32",
          "name": "role",
          "type": "bytes32"
        },
        {
          "internalType": "address",
          "name": "account",
          "type": "address"
        }
      ],
      "name": "grantRole",
      "outputs": [],
      "stateMutability": "nonpayable",
      "type": "function"
    },
    {
      "inputs": [
        {
          "internalType": "bytes32",
          "name": "role",
          "type": "bytes32"
        },
        {
          "internalType": "address",
          "name": "account",
          "type": "address"
        }
      ],
      "name": "hasRole",
      "outputs": [
        {
          "internalType": "bool",
          "name": "",
          "type": "bool"
        }
      ],
      "stateMutability": "view",
      "type": "function"
    },
    {
      "inputs": [
        {
          "internalType": "address[]",
          "name": "playerAddresses",
          "type": "address[]"
        },
        {
          "internalType": "uint256[]",
          "name": "targetLevel",
          "type": "uint256[]"
        }
      ],
      "name": "increaseMerchantLevel",
      "outputs": [],
      "stateMutability": "nonpayable",
      "type": "function"
    },
    {
      "inputs": [
        {
          "internalType": "address",
          "name": "operator",
          "type": "address"
        },
        {
          "internalType": "address",
          "name": "_farm",
          "type": "address"
        },
        {
          "internalType": "address",
          "name": "_nft",
          "type": "address"
        },
        {
          "internalType": "address",
          "name": "_stasher",
          "type": "address"
        },
        {
          "internalType": "address",
          "name": "_pool",
          "type": "address"
        }
      ],
      "name": "initialize",
      "outputs": [],
      "stateMutability": "nonpayable",
      "type": "function"
    },
    {
      "inputs": [],
      "name": "paused",
      "outputs": [
        {
          "internalType": "bool",
          "name": "",
          "type": "bool"
        }
      ],
      "stateMutability": "view",
      "type": "function"
    },
    {
      "inputs": [
        {
          "internalType": "bytes32",
          "name": "role",
          "type": "bytes32"
        },
        {
          "internalType": "address",
          "name": "account",
          "type": "address"
        }
      ],
      "name": "renounceRole",
      "outputs": [],
      "stateMutability": "nonpayable",
      "type": "function"
    },
    {
      "inputs": [
        {
          "internalType": "bytes32",
          "name": "role",
          "type": "bytes32"
        },
        {
          "internalType": "address",
          "name": "account",
          "type": "address"
        }
      ],
      "name": "revokeRole",
      "outputs": [],
      "stateMutability": "nonpayable",
      "type": "function"
    },
    {
      "inputs": [
        {
          "internalType": "uint256[]",
          "name": "nftIds",
          "type": "uint256[]"
        },
        {
          "internalType": "uint256[]",
          "name": "agility",
          "type": "uint256[]"
        }
      ],
      "name": "setNftAgility",
      "outputs": [],
      "stateMutability": "nonpayable",
      "type": "function"
    },
    {
      "inputs": [
        {
          "internalType": "uint256[]",
          "name": "nftIds",
          "type": "uint256[]"
        },
        {
          "internalType": "string[]",
          "name": "names",
          "type": "string[]"
        },
        {
          "internalType": "string[]",
          "name": "imageUrls",
          "type": "string[]"
        },
        {
          "internalType": "uint256[]",
          "name": "rarities",
          "type": "uint256[]"
        },
        {
          "internalType": "uint256[]",
          "name": "types",
          "type": "uint256[]"
        },
        {
          "internalType": "uint256[]",
          "name": "baseFarms",
          "type": "uint256[]"
        }
      ],
      "name": "setNftNameImageRarityType",
      "outputs": [],
      "stateMutability": "nonpayable",
      "type": "function"
    },
    {
      "inputs": [
        {
          "internalType": "uint256[]",
          "name": "nftIds",
          "type": "uint256[]"
        },
        {
          "internalType": "uint256[]",
          "name": "ranks",
          "type": "uint256[]"
        }
      ],
      "name": "setNftRank",
      "outputs": [],
      "stateMutability": "nonpayable",
      "type": "function"
    },
    {
      "inputs": [
        {
          "internalType": "uint256[]",
          "name": "nftIds",
          "type": "uint256[]"
        },
        {
          "internalType": "uint256[][]",
          "name": "skills",
          "type": "uint256[][]"
        }
      ],
      "name": "setNftSkills",
      "outputs": [],
      "stateMutability": "nonpayable",
      "type": "function"
    },
    {
      "inputs": [
        {
          "internalType": "uint256[]",
          "name": "nftIds",
          "type": "uint256[]"
        },
        {
          "internalType": "uint256[][]",
          "name": "traits",
          "type": "uint256[][]"
        }
      ],
      "name": "setNftTraits",
      "outputs": [],
      "stateMutability": "nonpayable",
      "type": "function"
    },
    {
      "inputs": [
        {
          "internalType": "uint256[]",
          "name": "nftIds",
          "type": "uint256[]"
        },
        {
          "internalType": "uint256[]",
          "name": "ranks",
          "type": "uint256[]"
        },
        {
          "internalType": "uint256[]",
          "name": "agility",
          "type": "uint256[]"
        },
        {
          "internalType": "uint256[][]",
          "name": "skills",
          "type": "uint256[][]"
        }
      ],
      "name": "setRankAgilityAndSkills",
      "outputs": [],
      "stateMutability": "nonpayable",
      "type": "function"
    },
    {
      "inputs": [
        {
          "internalType": "bytes4",
          "name": "interfaceId",
          "type": "bytes4"
        }
      ],
      "name": "supportsInterface",
      "outputs": [
        {
          "internalType": "bool",
          "name": "",
          "type": "bool"
        }
      ],
      "stateMutability": "view",
      "type": "function"
    }
  ],
  "bytecode": "0x608060405234801561001057600080fd5b50611ca9806100206000396000f3fe608060405234801561001057600080fd5b506004361061012c5760003560e01c80635c975abb116100ad578063a217fddf11610071578063a217fddf146102c1578063b79f1568146102c9578063d547741f146102dc578063ecad3828146102ef578063fa5147df1461030257600080fd5b80635c975abb146102245780636c0f79b61461022f578063889ea5ba1461028857806391d148541461029b5780639a8ee3f7146102ae57600080fd5b8063248a9ca3116100f4578063248a9ca3146101a75780632f2ff15d146101d857806336568abe146101eb578063496c6f19146101fe57806353ca37a61461021157600080fd5b806301ffc9a714610131578063076fa9861461015957806312257c901461016e5780631459457a1461018157806316fad59014610194575b600080fd5b61014461013f36600461131c565b610315565b60405190151581526020015b60405180910390f35b61016c61016736600461149a565b61034c565b005b61016c61017c366004611522565b610426565b61016c61018f366004611578565b6104e0565b61016c6101a23660046115dd565b610634565b6101ca6101b5366004611641565b60009081526065602052604090206001015490565b604051908152602001610150565b61016c6101e636600461165a565b610714565b61016c6101f936600461165a565b61073e565b61016c61020c366004611686565b610761565b61016c61021f36600461173d565b61085d565b60975460ff16610144565b60c95460ca5460cb5460cc54610255936001600160a01b03908116938116928116911684565b604080516001600160a01b0395861681529385166020850152918416918301919091529091166060820152608001610150565b61016c6102963660046117ea565b610a74565b6101446102a936600461165a565b610b45565b61016c6102bc366004611928565b610b70565b6101ca600081565b61016c6102d73660046115dd565b610d4c565b61016c6102ea36600461165a565b610e26565b61016c6102fd3660046117ea565b610e4b565b61016c6103103660046115dd565b610f1c565b60006001600160e01b03198216637965db0b60e01b148061034657506301ffc9a760e01b6001600160e01b03198316145b92915050565b600080516020611c5483398151915261036481610ff6565b60005b845181101561041f5760c95485516001600160a01b03909116906308acf9529087908490811061039957610399611a1d565b60200260200101518684815181106103b3576103b3611a1d565b6020026020010151866040518463ffffffff1660e01b81526004016103da93929190611a6e565b600060405180830381600087803b1580156103f457600080fd5b505af1158015610408573d6000803e3d6000fd5b50505050808061041790611ab4565b915050610367565b5050505050565b600080516020611c5483398151915261043e81610ff6565b60005b845181101561041f5760c95485516001600160a01b03909116906308acf9529087908490811061047357610473611a1d565b602002602001015186866040518463ffffffff1660e01b815260040161049b93929190611a6e565b600060405180830381600087803b1580156104b557600080fd5b505af11580156104c9573d6000803e3d6000fd5b5050505080806104d890611ab4565b915050610441565b600054610100900460ff16158080156105005750600054600160ff909116105b8061051a5750303b15801561051a575060005460ff166001145b61052357600080fd5b6000805460ff191660011790558015610546576000805461ff0019166101001790555b61054e611003565b610556611019565b610561600087611035565b610579600080516020611c5483398151915287611035565b604080516080810182526001600160a01b0380881680835287821660208401819052878316948401859052918616606090930183905260c980546001600160a01b0319908116909217905560ca8054821690921790915560cb8054821690931790925560cc8054909216179055801561062c576000805461ff0019169055604051600181527f7f26b83ff96e1f2b6a682f133852f6798a09c465da95921460cefb38474024989060200160405180910390a15b505050505050565b600080516020611c5483398151915261064c81610ff6565b60005b835181101561070e5760ca5484516001600160a01b0390911690632ca2aa1a9086908490811061068157610681611a1d565b602002602001015185848151811061069b5761069b611a1d565b60200260200101516040518363ffffffff1660e01b81526004016106c9929190918252602082015260400190565b600060405180830381600087803b1580156106e357600080fd5b505af11580156106f7573d6000803e3d6000fd5b50505050808061070690611ab4565b91505061064f565b50505050565b60008281526065602052604090206001015461072f81610ff6565b610739838361103b565b505050565b6001600160a01b038116331461075357600080fd5b61075d82826110c1565b5050565b600080516020611c5483398151915261077981610ff6565b60005b835181101561070e5760005b83828151811061079a5761079a611a1d565b602002602001015181101561084a5760c95485516001600160a01b039091169063711d7e24908790859081106107d2576107d2611a1d565b60200260200101516040518263ffffffff1660e01b815260040161080591906001600160a01b0391909116815260200190565b600060405180830381600087803b15801561081f57600080fd5b505af1158015610833573d6000803e3d6000fd5b50505050808061084290611ab4565b915050610788565b508061085581611ab4565b91505061077c565b600080516020611c5483398151915261087581610ff6565b60005b855181101561062c5760ca5486516001600160a01b0390911690630c2f2be7908890849081106108aa576108aa611a1d565b60200260200101518784815181106108c4576108c4611a1d565b60200260200101516040518363ffffffff1660e01b81526004016108f2929190918252602082015260400190565b600060405180830381600087803b15801561090c57600080fd5b505af1158015610920573d6000803e3d6000fd5b505060ca5488516001600160a01b039091169250632ca2aa1a915088908490811061094d5761094d611a1d565b602002602001015186848151811061096757610967611a1d565b60200260200101516040518363ffffffff1660e01b8152600401610995929190918252602082015260400190565b600060405180830381600087803b1580156109af57600080fd5b505af11580156109c3573d6000803e3d6000fd5b505060ca5488516001600160a01b0390911692506321005a3191508890849081106109f0576109f0611a1d565b6020026020010151858481518110610a0a57610a0a611a1d565b60200260200101516040518363ffffffff1660e01b8152600401610a2f929190611acf565b600060405180830381600087803b158015610a4957600080fd5b505af1158015610a5d573d6000803e3d6000fd5b505050508080610a6c90611ab4565b915050610878565b600080516020611c54833981519152610a8c81610ff6565b60005b835181101561070e5760ca5484516001600160a01b03909116906321005a3190869084908110610ac157610ac1611a1d565b6020026020010151858481518110610adb57610adb611a1d565b60200260200101516040518363ffffffff1660e01b8152600401610b00929190611acf565b600060405180830381600087803b158015610b1a57600080fd5b505af1158015610b2e573d6000803e3d6000fd5b505050508080610b3d90611ab4565b915050610a8f565b60009182526065602090815260408084206001600160a01b0393909316845291905290205460ff1690565b600080516020611c54833981519152610b8881610ff6565b60005b8751811015610d425760ca5488516001600160a01b03909116906394975585908a9084908110610bbd57610bbd611a1d565b6020026020010151898481518110610bd757610bd7611a1d565b6020026020010151898581518110610bf157610bf1611a1d565b60200260200101516040518463ffffffff1660e01b8152600401610c1793929190611b48565b600060405180830381600087803b158015610c3157600080fd5b505af1158015610c45573d6000803e3d6000fd5b505060ca548a516001600160a01b03909116925063568cbb1791508a9084908110610c7257610c72611a1d565b6020026020010151878481518110610c8c57610c8c611a1d565b6020026020010151878581518110610ca657610ca6611a1d565b6020026020010151878681518110610cc057610cc0611a1d565b60200260200101516040518563ffffffff1660e01b8152600401610cfd949392919093845260208401929092526040830152606082015260800190565b600060405180830381600087803b158015610d1757600080fd5b505af1158015610d2b573d6000803e3d6000fd5b505050508080610d3a90611ab4565b915050610b8b565b5050505050505050565b600080516020611c54833981519152610d6481610ff6565b60005b835181101561070e5760ca5484516001600160a01b039091169063b3d84ae890869084908110610d9957610d99611a1d565b6020026020010151858481518110610db357610db3611a1d565b60200260200101516040518363ffffffff1660e01b8152600401610de1929190918252602082015260400190565b600060405180830381600087803b158015610dfb57600080fd5b505af1158015610e0f573d6000803e3d6000fd5b505050508080610e1e90611ab4565b915050610d67565b600082815260656020526040902060010154610e4181610ff6565b61073983836110c1565b600080516020611c54833981519152610e6381610ff6565b60005b835181101561070e5760ca5484516001600160a01b03909116906388d210f090869084908110610e9857610e98611a1d565b6020026020010151858481518110610eb257610eb2611a1d565b60200260200101516040518363ffffffff1660e01b8152600401610ed7929190611acf565b600060405180830381600087803b158015610ef157600080fd5b505af1158015610f05573d6000803e3d6000fd5b505050508080610f1490611ab4565b915050610e66565b600080516020611c54833981519152610f3481610ff6565b60005b835181101561070e5760ca5484516001600160a01b0390911690630c2f2be790869084908110610f6957610f69611a1d565b6020026020010151858481518110610f8357610f83611a1d565b60200260200101516040518363ffffffff1660e01b8152600401610fb1929190918252602082015260400190565b600060405180830381600087803b158015610fcb57600080fd5b505af1158015610fdf573d6000803e3d6000fd5b505050508080610fee90611ab4565b915050610f37565b6110008133611128565b50565b600054610100900460ff1661101757600080fd5b565b600054610100900460ff1661102d57600080fd5b61101761118a565b61075d82825b6110458282610b45565b61075d5760008281526065602090815260408083206001600160a01b03851684529091529020805460ff1916600117905561107d3390565b6001600160a01b0316816001600160a01b0316837f2f8788117e7eff1d82e926ec794901d17c78024a50270940304540a733656f0d60405160405180910390a45050565b6110cb8282610b45565b1561075d5760008281526065602090815260408083206001600160a01b0385168085529252808320805460ff1916905551339285917ff6391f5c32d9c69d2a47ea670b442974b53935d1edc7fd64eb21e047a839171b9190a45050565b6111328282610b45565b61075d5761113f816111aa565b61114a8360206111bc565b60405160200161115b929190611b7d565b60408051601f198184030181529082905262461bcd60e51b825261118191600401611bf2565b60405180910390fd5b600054610100900460ff1661119e57600080fd5b6097805460ff19169055565b60606103466001600160a01b03831660145b606060006111cb836002611c05565b6111d6906002611c24565b67ffffffffffffffff8111156111ee576111ee611346565b6040519080825280601f01601f191660200182016040528015611218576020820181803683370190505b509050600360fc1b8160008151811061123357611233611a1d565b60200101906001600160f81b031916908160001a905350600f60fb1b8160018151811061126257611262611a1d565b60200101906001600160f81b031916908160001a9053506000611286846002611c05565b611291906001611c24565b90505b6001811115611309576f181899199a1a9b1b9c1cb0b131b232b360811b85600f16601081106112c5576112c5611a1d565b1a60f81b8282815181106112db576112db611a1d565b60200101906001600160f81b031916908160001a90535060049490941c9361130281611c3c565b9050611294565b50831561131557600080fd5b9392505050565b60006020828403121561132e57600080fd5b81356001600160e01b03198116811461131557600080fd5b634e487b7160e01b600052604160045260246000fd5b604051601f8201601f1916810167ffffffffffffffff8111828210171561138557611385611346565b604052919050565b600067ffffffffffffffff8211156113a7576113a7611346565b5060051b60200190565b80356001600160a01b03811681146113c857600080fd5b919050565b600082601f8301126113de57600080fd5b813560206113f36113ee8361138d565b61135c565b82815260059290921b8401810191818101908684111561141257600080fd5b8286015b8481101561143457611427816113b1565b8352918301918301611416565b509695505050505050565b600082601f83011261145057600080fd5b813560206114606113ee8361138d565b82815260059290921b8401810191818101908684111561147f57600080fd5b8286015b848110156114345780358352918301918301611483565b6000806000606084860312156114af57600080fd5b833567ffffffffffffffff808211156114c757600080fd5b6114d3878388016113cd565b945060208601359150808211156114e957600080fd5b6114f58783880161143f565b9350604086013591508082111561150b57600080fd5b506115188682870161143f565b9150509250925092565b60008060006060848603121561153757600080fd5b833567ffffffffffffffff8082111561154f57600080fd5b61155b878388016113cd565b945060208601359350604086013591508082111561150b57600080fd5b600080600080600060a0868803121561159057600080fd5b611599866113b1565b94506115a7602087016113b1565b93506115b5604087016113b1565b92506115c3606087016113b1565b91506115d1608087016113b1565b90509295509295909350565b600080604083850312156115f057600080fd5b823567ffffffffffffffff8082111561160857600080fd5b6116148683870161143f565b9350602085013591508082111561162a57600080fd5b506116378582860161143f565b9150509250929050565b60006020828403121561165357600080fd5b5035919050565b6000806040838503121561166d57600080fd5b8235915061167d602084016113b1565b90509250929050565b6000806040838503121561169957600080fd5b823567ffffffffffffffff808211156116b157600080fd5b611614868387016113cd565b600082601f8301126116ce57600080fd5b813560206116de6113ee8361138d565b82815260059290921b840181019181810190868411156116fd57600080fd5b8286015b8481101561143457803567ffffffffffffffff8111156117215760008081fd5b61172f8986838b010161143f565b845250918301918301611701565b6000806000806080858703121561175357600080fd5b843567ffffffffffffffff8082111561176b57600080fd5b6117778883890161143f565b9550602087013591508082111561178d57600080fd5b6117998883890161143f565b945060408701359150808211156117af57600080fd5b6117bb8883890161143f565b935060608701359150808211156117d157600080fd5b506117de878288016116bd565b91505092959194509250565b600080604083850312156117fd57600080fd5b823567ffffffffffffffff8082111561181557600080fd5b6118218683870161143f565b9350602085013591508082111561183757600080fd5b50611637858286016116bd565b6000601f838184011261185657600080fd5b823560206118666113ee8361138d565b82815260059290921b8501810191818101908784111561188557600080fd5b8287015b8481101561191c57803567ffffffffffffffff808211156118aa5760008081fd5b818a0191508a603f8301126118bf5760008081fd5b858201356040828211156118d5576118d5611346565b6118e6828b01601f1916890161135c565b92508183528c818386010111156118fd5760008081fd5b8181850189850137506000908201870152845250918301918301611889565b50979650505050505050565b60008060008060008060c0878903121561194157600080fd5b863567ffffffffffffffff8082111561195957600080fd5b6119658a838b0161143f565b9750602089013591508082111561197b57600080fd5b6119878a838b01611844565b9650604089013591508082111561199d57600080fd5b6119a98a838b01611844565b955060608901359150808211156119bf57600080fd5b6119cb8a838b0161143f565b945060808901359150808211156119e157600080fd5b6119ed8a838b0161143f565b935060a0890135915080821115611a0357600080fd5b50611a1089828a0161143f565b9150509295509295509295565b634e487b7160e01b600052603260045260246000fd5b600081518084526020808501945080840160005b83811015611a6357815187529582019590820190600101611a47565b509495945050505050565b60018060a01b0384168152826020820152606060408201526000611a956060830184611a33565b95945050505050565b634e487b7160e01b600052601160045260246000fd5b6000600019821415611ac857611ac8611a9e565b5060010190565b828152604060208201526000611ae86040830184611a33565b949350505050565b60005b83811015611b0b578181015183820152602001611af3565b8381111561070e5750506000910152565b60008151808452611b34816020860160208601611af0565b601f01601f19169290920160200192915050565b838152606060208201526000611b616060830185611b1c565b8281036040840152611b738185611b1c565b9695505050505050565b7f416363657373436f6e74726f6c3a206163636f756e7420000000000000000000815260008351611bb5816017850160208801611af0565b7001034b99036b4b9b9b4b733903937b6329607d1b6017918401918201528351611be6816028840160208801611af0565b01602801949350505050565b6020815260006113156020830184611b1c565b6000816000190483118215151615611c1f57611c1f611a9e565b500290565b60008219821115611c3757611c37611a9e565b500190565b600081611c4b57611c4b611a9e565b50600019019056fe97667070c54ef182b0f5858b034beac1b6f3089aa2d3188bb1e8929f4fa9b929a2646970667358221220976578d7a16509fd77944b3d3317f639abe8d721a087c5e4f710f33bdc95f84264736f6c63430008090033",
  "linkReferences": {},
  "deployedLinkReferences": {}
}