{
  "_format": "hh-sol-artifact-1",
  "contractName": "BkMarketplace",
  "sourceName": "contracts/features/BkMarketplace.sol",
  "abi": [
    {
      "anonymous": false,
      "inputs": [
        {
          "indexed": false,
          "internalType": "uint256",
          "name": "orderId",
          "type": "uint256"
        },
        {
          "indexed": false,
          "internalType": "address",
          "name": "bidder",
          "type": "address"
        },
        {
          "indexed": false,
          "internalType": "uint256",
          "name": "bid",
          "type": "uint256"
        },
        {
          "indexed": false,
          "internalType": "address",
          "name": "prevBidder",
          "type": "address"
        },
        {
          "indexed": false,
          "internalType": "uint256",
          "name": "prevBidderCashback",
          "type": "uint256"
        },
        {
          "indexed": false,
          "internalType": "uint256",
          "name": "blockNumber",
          "type": "uint256"
        }
      ],
      "name": "AuctionBidPlaced",
      "type": "event"
    },
    {
      "anonymous": false,
      "inputs": [
        {
          "indexed": false,
          "internalType": "uint8",
          "name": "version",
          "type": "uint8"
        }
      ],
      "name": "Initialized",
      "type": "event"
    },
    {
      "anonymous": false,
      "inputs": [
        {
          "indexed": false,
          "internalType": "address",
          "name": "from",
          "type": "address"
        },
        {
          "indexed": false,
          "internalType": "address",
          "name": "to",
          "type": "address"
        },
        {
          "indexed": false,
          "internalType": "uint256",
          "name": "amount",
          "type": "uint256"
        }
      ],
      "name": "KoziTransfer",
      "type": "event"
    },
    {
      "anonymous": false,
      "inputs": [
        {
          "indexed": false,
          "internalType": "uint256",
          "name": "orderId",
          "type": "uint256"
        }
      ],
      "name": "OrderCancelled",
      "type": "event"
    },
    {
      "anonymous": false,
      "inputs": [
        {
          "indexed": false,
          "internalType": "uint256",
          "name": "orderId",
          "type": "uint256"
        },
        {
          "indexed": false,
          "internalType": "uint256",
          "name": "createdAt",
          "type": "uint256"
        },
        {
          "indexed": false,
          "internalType": "uint256",
          "name": "assetId",
          "type": "uint256"
        },
        {
          "indexed": false,
          "internalType": "uint256",
          "name": "assetQuantity",
          "type": "uint256"
        },
        {
          "indexed": false,
          "internalType": "address",
          "name": "seller",
          "type": "address"
        },
        {
          "indexed": false,
          "internalType": "address",
          "name": "privateFor",
          "type": "address"
        },
        {
          "indexed": false,
          "internalType": "uint256",
          "name": "priceInWei",
          "type": "uint256"
        },
        {
          "indexed": false,
          "internalType": "bool",
          "name": "allowEbct",
          "type": "bool"
        },
        {
          "indexed": false,
          "internalType": "bool",
          "name": "isNft",
          "type": "bool"
        },
        {
          "indexed": false,
          "internalType": "bool",
          "name": "isPriceInStabletoken",
          "type": "bool"
        },
        {
          "indexed": false,
          "internalType": "bool",
          "name": "isStabletokenOnly",
          "type": "bool"
        },
        {
          "indexed": false,
          "internalType": "bool",
          "name": "isDutchAuction",
          "type": "bool"
        },
        {
          "indexed": false,
          "internalType": "bool",
          "name": "isPoolFuel",
          "type": "bool"
        }
      ],
      "name": "OrderCreated",
      "type": "event"
    },
    {
      "anonymous": false,
      "inputs": [
        {
          "indexed": false,
          "internalType": "uint256",
          "name": "orderId",
          "type": "uint256"
        },
        {
          "indexed": false,
          "internalType": "uint256",
          "name": "assetId",
          "type": "uint256"
        },
        {
          "indexed": false,
          "internalType": "uint256",
          "name": "availableQuantity",
          "type": "uint256"
        },
        {
          "indexed": false,
          "internalType": "uint256",
          "name": "boughtQuantity",
          "type": "uint256"
        },
        {
          "indexed": false,
          "internalType": "address",
          "name": "seller",
          "type": "address"
        },
        {
          "indexed": false,
          "internalType": "address",
          "name": "buyer",
          "type": "address"
        },
        {
          "indexed": false,
          "internalType": "uint256",
          "name": "originalPriceInWei",
          "type": "uint256"
        },
        {
          "indexed": false,
          "internalType": "uint256",
          "name": "pricePaidInWei",
          "type": "uint256"
        },
        {
          "indexed": false,
          "internalType": "bool",
          "name": "originalPriceInStabletoken",
          "type": "bool"
        },
        {
          "indexed": false,
          "internalType": "bool",
          "name": "paidInStabletoken",
          "type": "bool"
        },
        {
          "indexed": false,
          "internalType": "bool",
          "name": "paidInEbct",
          "type": "bool"
        },
        {
          "indexed": false,
          "internalType": "bool",
          "name": "isNft",
          "type": "bool"
        }
      ],
      "name": "OrderExecuted",
      "type": "event"
    },
    {
      "anonymous": false,
      "inputs": [
        {
          "indexed": false,
          "internalType": "uint256",
          "name": "orderId",
          "type": "uint256"
        },
        {
          "indexed": false,
          "internalType": "uint256",
          "name": "previousQuantity",
          "type": "uint256"
        },
        {
          "indexed": false,
          "internalType": "uint256",
          "name": "newQuantity",
          "type": "uint256"
        }
      ],
      "name": "OrderUpdated",
      "type": "event"
    },
    {
      "anonymous": false,
      "inputs": [
        {
          "indexed": false,
          "internalType": "address",
          "name": "account",
          "type": "address"
        }
      ],
      "name": "Paused",
      "type": "event"
    },
    {
      "anonymous": false,
      "inputs": [
        {
          "indexed": false,
          "internalType": "uint256",
          "name": "orderId",
          "type": "uint256"
        },
        {
          "indexed": false,
          "internalType": "address",
          "name": "winner",
          "type": "address"
        },
        {
          "indexed": false,
          "internalType": "uint256",
          "name": "ebct",
          "type": "uint256"
        },
        {
          "indexed": false,
          "internalType": "uint256[]",
          "name": "resources",
          "type": "uint256[]"
        }
      ],
      "name": "PrizePaid",
      "type": "event"
    },
    {
      "anonymous": false,
      "inputs": [
        {
          "indexed": true,
          "internalType": "bytes32",
          "name": "role",
          "type": "bytes32"
        },
        {
          "indexed": true,
          "internalType": "bytes32",
          "name": "previousAdminRole",
          "type": "bytes32"
        },
        {
          "indexed": true,
          "internalType": "bytes32",
          "name": "newAdminRole",
          "type": "bytes32"
        }
      ],
      "name": "RoleAdminChanged",
      "type": "event"
    },
    {
      "anonymous": false,
      "inputs": [
        {
          "indexed": true,
          "internalType": "bytes32",
          "name": "role",
          "type": "bytes32"
        },
        {
          "indexed": true,
          "internalType": "address",
          "name": "account",
          "type": "address"
        },
        {
          "indexed": true,
          "internalType": "address",
          "name": "sender",
          "type": "address"
        }
      ],
      "name": "RoleGranted",
      "type": "event"
    },
    {
      "anonymous": false,
      "inputs": [
        {
          "indexed": true,
          "internalType": "bytes32",
          "name": "role",
          "type": "bytes32"
        },
        {
          "indexed": true,
          "internalType": "address",
          "name": "account",
          "type": "address"
        },
        {
          "indexed": true,
          "internalType": "address",
          "name": "sender",
          "type": "address"
        }
      ],
      "name": "RoleRevoked",
      "type": "event"
    },
    {
      "anonymous": false,
      "inputs": [
        {
          "indexed": false,
          "internalType": "address",
          "name": "account",
          "type": "address"
        }
      ],
      "name": "Unpaused",
      "type": "event"
    },
    {
      "anonymous": false,
      "inputs": [
        {
          "indexed": false,
          "internalType": "address",
          "name": "from",
          "type": "address"
        },
        {
          "indexed": false,
          "internalType": "address",
          "name": "to",
          "type": "address"
        },
        {
          "indexed": false,
          "internalType": "uint256",
          "name": "amount",
          "type": "uint256"
        }
      ],
      "name": "drascaTransferred",
      "type": "event"
    },
    {
      "anonymous": false,
      "inputs": [
        {
          "indexed": false,
          "internalType": "address",
          "name": "from",
          "type": "address"
        },
        {
          "indexed": false,
          "internalType": "address",
          "name": "to",
          "type": "address"
        },
        {
          "indexed": false,
          "internalType": "uint256",
          "name": "amount",
          "type": "uint256"
        }
      ],
      "name": "eBctTransferred",
      "type": "event"
    },
    {
      "inputs": [],
      "name": "DEFAULT_ADMIN_ROLE",
      "outputs": [
        {
          "internalType": "bytes32",
          "name": "",
          "type": "bytes32"
        }
      ],
      "stateMutability": "view",
      "type": "function"
    },
    {
      "inputs": [
        {
          "internalType": "address",
          "name": "_operator",
          "type": "address"
        },
        {
          "internalType": "address",
          "name": "_blocklistAddress",
          "type": "address"
        }
      ],
      "name": "__Administrable_init",
      "outputs": [],
      "stateMutability": "nonpayable",
      "type": "function"
    },
    {
      "inputs": [
        {
          "internalType": "uint256",
          "name": "bctAmount",
          "type": "uint256"
        }
      ],
      "name": "bctToStabletoken",
      "outputs": [
        {
          "internalType": "uint256",
          "name": "",
          "type": "uint256"
        }
      ],
      "stateMutability": "view",
      "type": "function"
    },
    {
      "inputs": [
        {
          "internalType": "uint256",
          "name": "orderId",
          "type": "uint256"
        },
        {
          "internalType": "uint256",
          "name": "amount",
          "type": "uint256"
        },
        {
          "internalType": "bool",
          "name": "isPowerBid",
          "type": "bool"
        }
      ],
      "name": "bidOnAuction",
      "outputs": [],
      "stateMutability": "nonpayable",
      "type": "function"
    },
    {
      "inputs": [],
      "name": "burnFeePct",
      "outputs": [
        {
          "internalType": "uint256",
          "name": "",
          "type": "uint256"
        }
      ],
      "stateMutability": "view",
      "type": "function"
    },
    {
      "inputs": [
        {
          "internalType": "uint256",
          "name": "orderId",
          "type": "uint256"
        }
      ],
      "name": "cancelOrder",
      "outputs": [],
      "stateMutability": "nonpayable",
      "type": "function"
    },
    {
      "inputs": [
        {
          "internalType": "uint256[]",
          "name": "orderIds",
          "type": "uint256[]"
        }
      ],
      "name": "cancelOrders",
      "outputs": [],
      "stateMutability": "nonpayable",
      "type": "function"
    },
    {
      "inputs": [],
      "name": "clearAllOrders",
      "outputs": [],
      "stateMutability": "nonpayable",
      "type": "function"
    },
    {
      "inputs": [],
      "name": "contracts",
      "outputs": [
        {
          "internalType": "contract IBkERC20",
          "name": "bct",
          "type": "address"
        },
        {
          "internalType": "contract IBkERC20",
          "name": "stabletoken",
          "type": "address"
        },
        {
          "internalType": "contract IBkNft",
          "name": "nft",
          "type": "address"
        },
        {
          "internalType": "contract ICommunityPool",
          "name": "pool",
          "type": "address"
        },
        {
          "internalType": "contract IBkFarm",
          "name": "farm",
          "type": "address"
        }
      ],
      "stateMutability": "view",
      "type": "function"
    },
    {
      "inputs": [
        {
          "components": [
            {
              "internalType": "bool",
              "name": "isNft",
              "type": "bool"
            },
            {
              "internalType": "uint256",
              "name": "id",
              "type": "uint256"
            },
            {
              "internalType": "uint256",
              "name": "quantity",
              "type": "uint256"
            }
          ],
          "internalType": "struct BkMarketplace.Asset",
          "name": "asset",
          "type": "tuple"
        },
        {
          "components": [
            {
              "internalType": "bool",
              "name": "isNominalInStabletoken",
              "type": "bool"
            },
            {
              "internalType": "bool",
              "name": "isStabletokenOnly",
              "type": "bool"
            },
            {
              "internalType": "bool",
              "name": "allowEbct",
              "type": "bool"
            },
            {
              "internalType": "uint256",
              "name": "amount",
              "type": "uint256"
            },
            {
              "internalType": "uint256",
              "name": "secondaryReceiverPct",
              "type": "uint256"
            }
          ],
          "internalType": "struct BkMarketplace.Price",
          "name": "price",
          "type": "tuple"
        },
        {
          "components": [
            {
              "internalType": "address",
              "name": "seller",
              "type": "address"
            },
            {
              "internalType": "address",
              "name": "secondaryReceiver",
              "type": "address"
            },
            {
              "internalType": "address",
              "name": "privateFor",
              "type": "address"
            }
          ],
          "internalType": "struct BkMarketplace.Players",
          "name": "players",
          "type": "tuple"
        },
        {
          "internalType": "bool",
          "name": "isDutchAuction",
          "type": "bool"
        },
        {
          "internalType": "bool",
          "name": "isPoolFuel",
          "type": "bool"
        }
      ],
      "name": "createOrder",
      "outputs": [],
      "stateMutability": "nonpayable",
      "type": "function"
    },
    {
      "inputs": [],
      "name": "eBctPct",
      "outputs": [
        {
          "internalType": "uint256",
          "name": "",
          "type": "uint256"
        }
      ],
      "stateMutability": "view",
      "type": "function"
    },
    {
      "inputs": [
        {
          "internalType": "uint256",
          "name": "orderId",
          "type": "uint256"
        },
        {
          "internalType": "uint256",
          "name": "quantity",
          "type": "uint256"
        },
        {
          "internalType": "bool",
          "name": "payWithStabletoken",
          "type": "bool"
        },
        {
          "internalType": "bool",
          "name": "payWithEbct",
          "type": "bool"
        }
      ],
      "name": "executeOrder",
      "outputs": [],
      "stateMutability": "nonpayable",
      "type": "function"
    },
    {
      "inputs": [],
      "name": "gasPriceLimit",
      "outputs": [
        {
          "internalType": "uint256",
          "name": "",
          "type": "uint256"
        }
      ],
      "stateMutability": "view",
      "type": "function"
    },
    {
      "inputs": [],
      "name": "getAllOrders",
      "outputs": [
        {
          "components": [
            {
              "internalType": "uint256",
              "name": "id",
              "type": "uint256"
            },
            {
              "internalType": "uint256",
              "name": "createdAt",
              "type": "uint256"
            },
            {
              "internalType": "bool",
              "name": "isActive",
              "type": "bool"
            },
            {
              "internalType": "bool",
              "name": "isDutchAuction",
              "type": "bool"
            },
            {
              "internalType": "bool",
              "name": "isPoolFuel",
              "type": "bool"
            },
            {
              "components": [
                {
                  "internalType": "bool",
                  "name": "isNft",
                  "type": "bool"
                },
                {
                  "internalType": "uint256",
                  "name": "id",
                  "type": "uint256"
                },
                {
                  "internalType": "uint256",
                  "name": "quantity",
                  "type": "uint256"
                }
              ],
              "internalType": "struct BkMarketplace.Asset",
              "name": "asset",
              "type": "tuple"
            },
            {
              "components": [
                {
                  "internalType": "bool",
                  "name": "isNominalInStabletoken",
                  "type": "bool"
                },
                {
                  "internalType": "bool",
                  "name": "isStabletokenOnly",
                  "type": "bool"
                },
                {
                  "internalType": "bool",
                  "name": "allowEbct",
                  "type": "bool"
                },
                {
                  "internalType": "uint256",
                  "name": "amount",
                  "type": "uint256"
                },
                {
                  "internalType": "uint256",
                  "name": "secondaryReceiverPct",
                  "type": "uint256"
                }
              ],
              "internalType": "struct BkMarketplace.Price",
              "name": "price",
              "type": "tuple"
            },
            {
              "components": [
                {
                  "internalType": "address",
                  "name": "seller",
                  "type": "address"
                },
                {
                  "internalType": "address",
                  "name": "secondaryReceiver",
                  "type": "address"
                },
                {
                  "internalType": "address",
                  "name": "privateFor",
                  "type": "address"
                }
              ],
              "internalType": "struct BkMarketplace.Players",
              "name": "players",
              "type": "tuple"
            }
          ],
          "internalType": "struct BkMarketplace.Order[]",
          "name": "",
          "type": "tuple[]"
        }
      ],
      "stateMutability": "view",
      "type": "function"
    },
    {
      "inputs": [
        {
          "internalType": "uint256",
          "name": "limit",
          "type": "uint256"
        }
      ],
      "name": "getLatestOrders",
      "outputs": [
        {
          "components": [
            {
              "internalType": "uint256",
              "name": "id",
              "type": "uint256"
            },
            {
              "internalType": "uint256",
              "name": "createdAt",
              "type": "uint256"
            },
            {
              "internalType": "bool",
              "name": "isActive",
              "type": "bool"
            },
            {
              "internalType": "bool",
              "name": "isDutchAuction",
              "type": "bool"
            },
            {
              "internalType": "bool",
              "name": "isPoolFuel",
              "type": "bool"
            },
            {
              "components": [
                {
                  "internalType": "bool",
                  "name": "isNft",
                  "type": "bool"
                },
                {
                  "internalType": "uint256",
                  "name": "id",
                  "type": "uint256"
                },
                {
                  "internalType": "uint256",
                  "name": "quantity",
                  "type": "uint256"
                }
              ],
              "internalType": "struct BkMarketplace.Asset",
              "name": "asset",
              "type": "tuple"
            },
            {
              "components": [
                {
                  "internalType": "bool",
                  "name": "isNominalInStabletoken",
                  "type": "bool"
                },
                {
                  "internalType": "bool",
                  "name": "isStabletokenOnly",
                  "type": "bool"
                },
                {
                  "internalType": "bool",
                  "name": "allowEbct",
                  "type": "bool"
                },
                {
                  "internalType": "uint256",
                  "name": "amount",
                  "type": "uint256"
                },
                {
                  "internalType": "uint256",
                  "name": "secondaryReceiverPct",
                  "type": "uint256"
                }
              ],
              "internalType": "struct BkMarketplace.Price",
              "name": "price",
              "type": "tuple"
            },
            {
              "components": [
                {
                  "internalType": "address",
                  "name": "seller",
                  "type": "address"
                },
                {
                  "internalType": "address",
                  "name": "secondaryReceiver",
                  "type": "address"
                },
                {
                  "internalType": "address",
                  "name": "privateFor",
                  "type": "address"
                }
              ],
              "internalType": "struct BkMarketplace.Players",
              "name": "players",
              "type": "tuple"
            }
          ],
          "internalType": "struct BkMarketplace.Order[]",
          "name": "_orders",
          "type": "tuple[]"
        }
      ],
      "stateMutability": "view",
      "type": "function"
    },
    {
      "inputs": [
        {
          "internalType": "address",
          "name": "merchant",
          "type": "address"
        }
      ],
      "name": "getMerchant",
      "outputs": [
        {
          "components": [
            {
              "internalType": "uint256",
              "name": "auctions",
              "type": "uint256"
            },
            {
              "internalType": "uint256",
              "name": "sales",
              "type": "uint256"
            },
            {
              "internalType": "uint256",
              "name": "poolFuel",
              "type": "uint256"
            }
          ],
          "internalType": "struct BkMarketplace.Merchant",
          "name": "",
          "type": "tuple"
        }
      ],
      "stateMutability": "view",
      "type": "function"
    },
    {
      "inputs": [
        {
          "internalType": "uint256",
          "name": "orderId",
          "type": "uint256"
        }
      ],
      "name": "getOrder",
      "outputs": [
        {
          "components": [
            {
              "internalType": "uint256",
              "name": "id",
              "type": "uint256"
            },
            {
              "internalType": "uint256",
              "name": "createdAt",
              "type": "uint256"
            },
            {
              "internalType": "bool",
              "name": "isActive",
              "type": "bool"
            },
            {
              "internalType": "bool",
              "name": "isDutchAuction",
              "type": "bool"
            },
            {
              "internalType": "bool",
              "name": "isPoolFuel",
              "type": "bool"
            },
            {
              "components": [
                {
                  "internalType": "bool",
                  "name": "isNft",
                  "type": "bool"
                },
                {
                  "internalType": "uint256",
                  "name": "id",
                  "type": "uint256"
                },
                {
                  "internalType": "uint256",
                  "name": "quantity",
                  "type": "uint256"
                }
              ],
              "internalType": "struct BkMarketplace.Asset",
              "name": "asset",
              "type": "tuple"
            },
            {
              "components": [
                {
                  "internalType": "bool",
                  "name": "isNominalInStabletoken",
                  "type": "bool"
                },
                {
                  "internalType": "bool",
                  "name": "isStabletokenOnly",
                  "type": "bool"
                },
                {
                  "internalType": "bool",
                  "name": "allowEbct",
                  "type": "bool"
                },
                {
                  "internalType": "uint256",
                  "name": "amount",
                  "type": "uint256"
                },
                {
                  "internalType": "uint256",
                  "name": "secondaryReceiverPct",
                  "type": "uint256"
                }
              ],
              "internalType": "struct BkMarketplace.Price",
              "name": "price",
              "type": "tuple"
            },
            {
              "components": [
                {
                  "internalType": "address",
                  "name": "seller",
                  "type": "address"
                },
                {
                  "internalType": "address",
                  "name": "secondaryReceiver",
                  "type": "address"
                },
                {
                  "internalType": "address",
                  "name": "privateFor",
                  "type": "address"
                }
              ],
              "internalType": "struct BkMarketplace.Players",
              "name": "players",
              "type": "tuple"
            }
          ],
          "internalType": "struct BkMarketplace.Order",
          "name": "",
          "type": "tuple"
        }
      ],
      "stateMutability": "view",
      "type": "function"
    },
    {
      "inputs": [
        {
          "internalType": "uint256[]",
          "name": "orderIds",
          "type": "uint256[]"
        }
      ],
      "name": "getOrders",
      "outputs": [
        {
          "components": [
            {
              "internalType": "uint256",
              "name": "id",
              "type": "uint256"
            },
            {
              "internalType": "uint256",
              "name": "createdAt",
              "type": "uint256"
            },
            {
              "internalType": "bool",
              "name": "isActive",
              "type": "bool"
            },
            {
              "internalType": "bool",
              "name": "isDutchAuction",
              "type": "bool"
            },
            {
              "internalType": "bool",
              "name": "isPoolFuel",
              "type": "bool"
            },
            {
              "components": [
                {
                  "internalType": "bool",
                  "name": "isNft",
                  "type": "bool"
                },
                {
                  "internalType": "uint256",
                  "name": "id",
                  "type": "uint256"
                },
                {
                  "internalType": "uint256",
                  "name": "quantity",
                  "type": "uint256"
                }
              ],
              "internalType": "struct BkMarketplace.Asset",
              "name": "asset",
              "type": "tuple"
            },
            {
              "components": [
                {
                  "internalType": "bool",
                  "name": "isNominalInStabletoken",
                  "type": "bool"
                },
                {
                  "internalType": "bool",
                  "name": "isStabletokenOnly",
                  "type": "bool"
                },
                {
                  "internalType": "bool",
                  "name": "allowEbct",
                  "type": "bool"
                },
                {
                  "internalType": "uint256",
                  "name": "amount",
                  "type": "uint256"
                },
                {
                  "internalType": "uint256",
                  "name": "secondaryReceiverPct",
                  "type": "uint256"
                }
              ],
              "internalType": "struct BkMarketplace.Price",
              "name": "price",
              "type": "tuple"
            },
            {
              "components": [
                {
                  "internalType": "address",
                  "name": "seller",
                  "type": "address"
                },
                {
                  "internalType": "address",
                  "name": "secondaryReceiver",
                  "type": "address"
                },
                {
                  "internalType": "address",
                  "name": "privateFor",
                  "type": "address"
                }
              ],
              "internalType": "struct BkMarketplace.Players",
              "name": "players",
              "type": "tuple"
            }
          ],
          "internalType": "struct BkMarketplace.Order[]",
          "name": "_orders",
          "type": "tuple[]"
        }
      ],
      "stateMutability": "view",
      "type": "function"
    },
    {
      "inputs": [
        {
          "internalType": "bytes32",
          "name": "role",
          "type": "bytes32"
        }
      ],
      "name": "getRoleAdmin",
      "outputs": [
        {
          "internalType": "bytes32",
          "name": "",
          "type": "bytes32"
        }
      ],
      "stateMutability": "view",
      "type": "function"
    },
    {
      "inputs": [],
      "name": "gracePeriod",
      "outputs": [
        {
          "internalType": "uint256",
          "name": "",
          "type": "uint256"
        }
      ],
      "stateMutability": "view",
      "type": "function"
    },
    {
      "inputs": [
        {
          "internalType": "bytes32",
          "name": "role",
          "type": "bytes32"
        },
        {
          "internalType": "address",
          "name": "account",
          "type": "address"
        }
      ],
      "name": "grantRole",
      "outputs": [],
      "stateMutability": "nonpayable",
      "type": "function"
    },
    {
      "inputs": [],
      "name": "hasBlocklist",
      "outputs": [
        {
          "internalType": "bool",
          "name": "",
          "type": "bool"
        }
      ],
      "stateMutability": "view",
      "type": "function"
    },
    {
      "inputs": [
        {
          "internalType": "bytes32",
          "name": "role",
          "type": "bytes32"
        },
        {
          "internalType": "address",
          "name": "account",
          "type": "address"
        }
      ],
      "name": "hasRole",
      "outputs": [
        {
          "internalType": "bool",
          "name": "",
          "type": "bool"
        }
      ],
      "stateMutability": "view",
      "type": "function"
    },
    {
      "inputs": [
        {
          "internalType": "address",
          "name": "_operator",
          "type": "address"
        },
        {
          "internalType": "address",
          "name": "_blocklist",
          "type": "address"
        }
      ],
      "name": "initialize",
      "outputs": [],
      "stateMutability": "nonpayable",
      "type": "function"
    },
    {
      "inputs": [],
      "name": "kingdomWallet",
      "outputs": [
        {
          "internalType": "address payable",
          "name": "",
          "type": "address"
        }
      ],
      "stateMutability": "view",
      "type": "function"
    },
    {
      "inputs": [],
      "name": "lockPeriod",
      "outputs": [
        {
          "internalType": "uint256",
          "name": "",
          "type": "uint256"
        }
      ],
      "stateMutability": "view",
      "type": "function"
    },
    {
      "inputs": [
        {
          "internalType": "address",
          "name": "",
          "type": "address"
        }
      ],
      "name": "merchants",
      "outputs": [
        {
          "internalType": "uint256",
          "name": "auctions",
          "type": "uint256"
        },
        {
          "internalType": "uint256",
          "name": "sales",
          "type": "uint256"
        },
        {
          "internalType": "uint256",
          "name": "poolFuel",
          "type": "uint256"
        }
      ],
      "stateMutability": "view",
      "type": "function"
    },
    {
      "inputs": [],
      "name": "onERC721Received",
      "outputs": [
        {
          "internalType": "bytes4",
          "name": "",
          "type": "bytes4"
        }
      ],
      "stateMutability": "pure",
      "type": "function"
    },
    {
      "inputs": [
        {
          "internalType": "uint256",
          "name": "",
          "type": "uint256"
        }
      ],
      "name": "orderIdToAllowedBlock",
      "outputs": [
        {
          "internalType": "uint256",
          "name": "",
          "type": "uint256"
        }
      ],
      "stateMutability": "view",
      "type": "function"
    },
    {
      "inputs": [
        {
          "internalType": "uint256",
          "name": "",
          "type": "uint256"
        }
      ],
      "name": "orderIdToBids",
      "outputs": [
        {
          "internalType": "uint256",
          "name": "",
          "type": "uint256"
        }
      ],
      "stateMutability": "view",
      "type": "function"
    },
    {
      "inputs": [
        {
          "internalType": "uint256",
          "name": "",
          "type": "uint256"
        }
      ],
      "name": "orderIdToOrderIndex",
      "outputs": [
        {
          "internalType": "uint256",
          "name": "",
          "type": "uint256"
        }
      ],
      "stateMutability": "view",
      "type": "function"
    },
    {
      "inputs": [
        {
          "internalType": "uint256",
          "name": "",
          "type": "uint256"
        }
      ],
      "name": "orderIdToRemainingStabletokens",
      "outputs": [
        {
          "internalType": "uint256",
          "name": "",
          "type": "uint256"
        }
      ],
      "stateMutability": "view",
      "type": "function"
    },
    {
      "inputs": [
        {
          "internalType": "uint256",
          "name": "",
          "type": "uint256"
        }
      ],
      "name": "orders",
      "outputs": [
        {
          "internalType": "uint256",
          "name": "id",
          "type": "uint256"
        },
        {
          "internalType": "uint256",
          "name": "createdAt",
          "type": "uint256"
        },
        {
          "internalType": "bool",
          "name": "isActive",
          "type": "bool"
        },
        {
          "internalType": "bool",
          "name": "isDutchAuction",
          "type": "bool"
        },
        {
          "internalType": "bool",
          "name": "isPoolFuel",
          "type": "bool"
        },
        {
          "components": [
            {
              "internalType": "bool",
              "name": "isNft",
              "type": "bool"
            },
            {
              "internalType": "uint256",
              "name": "id",
              "type": "uint256"
            },
            {
              "internalType": "uint256",
              "name": "quantity",
              "type": "uint256"
            }
          ],
          "internalType": "struct BkMarketplace.Asset",
          "name": "asset",
          "type": "tuple"
        },
        {
          "components": [
            {
              "internalType": "bool",
              "name": "isNominalInStabletoken",
              "type": "bool"
            },
            {
              "internalType": "bool",
              "name": "isStabletokenOnly",
              "type": "bool"
            },
            {
              "internalType": "bool",
              "name": "allowEbct",
              "type": "bool"
            },
            {
              "internalType": "uint256",
              "name": "amount",
              "type": "uint256"
            },
            {
              "internalType": "uint256",
              "name": "secondaryReceiverPct",
              "type": "uint256"
            }
          ],
          "internalType": "struct BkMarketplace.Price",
          "name": "price",
          "type": "tuple"
        },
        {
          "components": [
            {
              "internalType": "address",
              "name": "seller",
              "type": "address"
            },
            {
              "internalType": "address",
              "name": "secondaryReceiver",
              "type": "address"
            },
            {
              "internalType": "address",
              "name": "privateFor",
              "type": "address"
            }
          ],
          "internalType": "struct BkMarketplace.Players",
          "name": "players",
          "type": "tuple"
        }
      ],
      "stateMutability": "view",
      "type": "function"
    },
    {
      "inputs": [],
      "name": "pause",
      "outputs": [],
      "stateMutability": "nonpayable",
      "type": "function"
    },
    {
      "inputs": [],
      "name": "paused",
      "outputs": [
        {
          "internalType": "bool",
          "name": "",
          "type": "bool"
        }
      ],
      "stateMutability": "view",
      "type": "function"
    },
    {
      "inputs": [
        {
          "internalType": "address",
          "name": "tokenAddress",
          "type": "address"
        },
        {
          "internalType": "address",
          "name": "to",
          "type": "address"
        },
        {
          "internalType": "uint256",
          "name": "amount",
          "type": "uint256"
        }
      ],
      "name": "recoverERC20",
      "outputs": [],
      "stateMutability": "nonpayable",
      "type": "function"
    },
    {
      "inputs": [
        {
          "internalType": "bytes32",
          "name": "role",
          "type": "bytes32"
        },
        {
          "internalType": "address",
          "name": "account",
          "type": "address"
        }
      ],
      "name": "renounceRole",
      "outputs": [],
      "stateMutability": "nonpayable",
      "type": "function"
    },
    {
      "inputs": [],
      "name": "reservedStabletokens",
      "outputs": [
        {
          "internalType": "uint256",
          "name": "",
          "type": "uint256"
        }
      ],
      "stateMutability": "view",
      "type": "function"
    },
    {
      "inputs": [],
      "name": "resetBlocklist",
      "outputs": [],
      "stateMutability": "nonpayable",
      "type": "function"
    },
    {
      "inputs": [
        {
          "internalType": "bytes32",
          "name": "role",
          "type": "bytes32"
        },
        {
          "internalType": "address",
          "name": "account",
          "type": "address"
        }
      ],
      "name": "revokeRole",
      "outputs": [],
      "stateMutability": "nonpayable",
      "type": "function"
    },
    {
      "inputs": [
        {
          "internalType": "address",
          "name": "blocklistAddress",
          "type": "address"
        }
      ],
      "name": "setBlocklist",
      "outputs": [],
      "stateMutability": "nonpayable",
      "type": "function"
    },
    {
      "inputs": [
        {
          "internalType": "address",
          "name": "_bct",
          "type": "address"
        },
        {
          "internalType": "address",
          "name": "_stabletoken",
          "type": "address"
        },
        {
          "internalType": "address",
          "name": "_nft",
          "type": "address"
        },
        {
          "internalType": "address",
          "name": "_pool",
          "type": "address"
        },
        {
          "internalType": "address",
          "name": "_farm",
          "type": "address"
        }
      ],
      "name": "setContracts",
      "outputs": [],
      "stateMutability": "nonpayable",
      "type": "function"
    },
    {
      "inputs": [
        {
          "internalType": "address payable",
          "name": "_kingdomWallet",
          "type": "address"
        }
      ],
      "name": "setKingdomWallet",
      "outputs": [],
      "stateMutability": "nonpayable",
      "type": "function"
    },
    {
      "inputs": [
        {
          "internalType": "address",
          "name": "merchant",
          "type": "address"
        },
        {
          "internalType": "uint256",
          "name": "amount",
          "type": "uint256"
        }
      ],
      "name": "setPoolFuelOf",
      "outputs": [],
      "stateMutability": "nonpayable",
      "type": "function"
    },
    {
      "inputs": [
        {
          "internalType": "uint256",
          "name": "stabletokenAmount",
          "type": "uint256"
        }
      ],
      "name": "stabletokenToBct",
      "outputs": [
        {
          "internalType": "uint256",
          "name": "",
          "type": "uint256"
        }
      ],
      "stateMutability": "view",
      "type": "function"
    },
    {
      "inputs": [
        {
          "internalType": "bytes4",
          "name": "interfaceId",
          "type": "bytes4"
        }
      ],
      "name": "supportsInterface",
      "outputs": [
        {
          "internalType": "bool",
          "name": "",
          "type": "bool"
        }
      ],
      "stateMutability": "view",
      "type": "function"
    },
    {
      "inputs": [],
      "name": "totalOrderCountEver",
      "outputs": [
        {
          "internalType": "uint256",
          "name": "",
          "type": "uint256"
        }
      ],
      "stateMutability": "view",
      "type": "function"
    },
    {
      "inputs": [],
      "name": "unpause",
      "outputs": [],
      "stateMutability": "nonpayable",
      "type": "function"
    }
  ],
  "bytecode": "0x608060405234801561001057600080fd5b506150ca806100206000396000f3fe608060405234801561001057600080fd5b50600436106102a05760003560e01c80638456cb5911610167578063b55fb574116100ce578063db39880a11610087578063db39880a1461063f578063dc2e8d8d14610652578063e5c815e41461067d578063ee14e93914610686578063f63bf8bd146106d0578063fbe13d3a146106e357600080fd5b8063b55fb574146105ca578063b5f63f60146105dd578063c981f223146105f0578063d09ef24114610603578063d547741f14610623578063d5a123721461063657600080fd5b8063a18fc7eb11610120578063a18fc7eb1461051e578063a217fddf1461053e578063a85c38ef14610546578063a8fcc4171461056d578063aef18ae714610582578063b2734eaf1461059557600080fd5b80638456cb59146104be57806391d14854146104c6578063931da89b146104d9578063961a929c146104ec57806397d5b9e2146104f5578063a06db7dc1461051557600080fd5b806341cba1241161020b5780635315450f116101c45780635315450f146103fe57806358ab482e146104115780635c975abb14610431578063634210f41461043c5780636c0f79b6146104505780637bea0d1c146104b657600080fd5b806341cba1241461039657806341e80ad9146103a9578063485cc955146103bc5780634a47f2f1146103cf578063514fcac7146103d857806351fbacd9146103eb57600080fd5b80632f2ff15d1161025d5780632f2ff15d146103445780632f65ef281461035757806336568abe1461036a5780633c7fd8221461037d5780633f4ba83a146103855780633fd8b02f1461038d57600080fd5b806301ffc9a7146102a557806303652027146102cd5780631171bda9146102ed5780632099997314610302578063248a9ca31461030a5780632626fa991461033b575b600080fd5b6102b86102b336600461465e565b610703565b60405190151581526020015b60405180910390f35b6102e06102db36600461471b565b61073a565b6040516102c49190614890565b6103006102fb3660046148f4565b6107f6565b005b610300610897565b61032d610318366004614935565b60009081526068602052604090206001015490565b6040519081526020016102c4565b61032d60dc5481565b61030061035236600461494e565b61097d565b610300610365366004614997565b6109a7565b61030061037836600461494e565b610e41565b610300610e60565b610300610e8b565b61032d60005481565b6102e06103a4366004614935565b610eae565b61032d6103b7366004614935565b611099565b6103006103ca3660046149d0565b611117565b61032d60d75481565b6103006103e6366004614935565b6112a8565b6103006103f93660046149fe565b61155f565b61030061040c366004614a9d565b6120d3565b61032d61041f366004614935565b60d56020526000908152604090205481565b609a5460ff166102b8565b60cc546102b890600160a01b900460ff1681565b60cd5460ce5460cf5460d05460d15461047c946001600160a01b03908116948116938116928116911685565b604080516001600160a01b03968716815294861660208601529285169284019290925283166060830152909116608082015260a0016102c4565b6102e0612725565b610300612876565b6102b86104d436600461494e565b612896565b6103006104e73660046149d0565b6128c1565b61032d60025481565b61032d610503366004614935565b60db6020526000908152604090205481565b61032d60d65481565b61032d61052c366004614935565b60d96020526000908152604090205481565b61032d600081565b610559610554366004614935565b6129cf565b6040516102c4989796959493929190614b8f565b604051630a85bd0160e11b81526020016102c4565b610300610590366004614c4c565b612aba565b6105a86105a3366004614c4c565b612afa565b60408051825181526020808401519082015291810151908201526060016102c4565b6103006105d836600461471b565b612b60565b61032d6105eb366004614935565b612ba0565b6103006105fe366004614c4c565b612bd2565b610616610611366004614935565b612c0d565b6040516102c49190614c69565b61030061063136600461494e565b612d4c565b61032d60d45481565b61030061064d366004614c78565b612d71565b60dd54610665906001600160a01b031681565b6040516001600160a01b0390911681526020016102c4565b61032d60d85481565b6106b5610694366004614c4c565b60d26020526000908152604090208054600182015460029092015490919083565b604080519384526020840192909252908201526060016102c4565b6103006106de366004614ca4565b612dbb565b61032d6106f1366004614935565b60da6020526000908152604090205481565b60006001600160e01b03198216637965db0b60e01b148061073457506301ffc9a760e01b6001600160e01b03198316145b92915050565b6060815167ffffffffffffffff81111561075657610756614688565b60405190808252806020026020018201604052801561078f57816020015b61077c6145c6565b8152602001906001900390816107745790505b50905060005b82518110156107f0576107c08382815181106107b3576107b3614d15565b6020026020010151612c0d565b8282815181106107d2576107d2614d15565b602002602001018190525080806107e890614d41565b915050610795565b50919050565b60008051602061507583398151915261080e81612eb3565b60405163a9059cbb60e01b81526001600160a01b0384811660048301526024820184905285169063a9059cbb90604401602060405180830381600087803b15801561085857600080fd5b505af115801561086c573d6000803e3d6000fd5b505050506040513d601f19601f820116820180604052508101906108909190614d5c565b5050505050565b6000805160206150758339815191526108af81612eb3565b60d3546000906108c190600190614d79565b67ffffffffffffffff8111156108d9576108d9614688565b604051908082528060200260200182016040528015610902578160200160208202803683370190505b50905060015b60d35481101561096f5760d3818154811061092557610925614d15565b60009182526020909120600c909102015482610942600184614d79565b8151811061095257610952614d15565b60209081029190910101528061096781614d41565b915050610908565b5061097981612b60565b5050565b60008281526068602052604090206001015461099881612eb3565b6109a28383612ebd565b505050565b60cc54600160a81b900460ff16156109da5760405162461bcd60e51b81526004016109d190614d90565b60405180910390fd5b60cc805460ff60a81b1916600160a81b1790556109f5612f43565b6002543a1115610a175760405162461bcd60e51b81526004016109d190614daf565b33610a2181612f8b565b15610a3e5760405162461bcd60e51b81526004016109d190614dd1565b600084815260d5602052604081205460d380549091908110610a6257610a62614d15565b60009182526020909120600c90910201600281015490915060ff16610aae5760405162461bcd60e51b8152602060048201526002602482015261062760f31b60448201526064016109d1565b6002810154610100900460ff16610aec5760405162461bcd60e51b8152602060048201526002602482015261313960f01b60448201526064016109d1565b60098101546001600160a01b0316331415610b2e5760405162461bcd60e51b8152602060048201526002602482015261032360f41b60448201526064016109d1565b6001810154610b3f906121c0614df6565b4310610b725760405162461bcd60e51b8152602060048201526002602482015261323160f01b60448201526064016109d1565b8215610b98576007810154606490610b8b906069614e0e565b610b959190614e2d565b93505b6007810154606490610bab906069614e0e565b610bb59190614e2d565b841015610be95760405162461bcd60e51b8152602060048201526002602482015261191960f11b60448201526064016109d1565b60ce546040516323b872dd60e01b81526001600160a01b03909116906323b872dd90610c1d90339030908990600401614e4f565b602060405180830381600087803b158015610c3757600080fd5b505af1158015610c4b573d6000803e3d6000fd5b505050506040513d601f19601f82011682018060405250810190610c6f9190614d5c565b50600b8101546001600160a01b031660008115801590610c9f575060098301546001600160a01b03838116911614155b15610d7d576007830154606490610cb7906066614e0e565b610cc19190614e2d565b60ce5460405163a9059cbb60e01b81526001600160a01b0385811660048301526024820184905292935091169063a9059cbb90604401602060405180830381600087803b158015610d1157600080fd5b505af1158015610d25573d6000803e3d6000fd5b505050506040513d601f19601f82011682018060405250810190610d499190614d5c565b50610d548187614d79565b600088815260db602052604081208054909190610d72908490614df6565b90915550610d8f9050565b600087815260db602052604090208690555b600b830180546001600160a01b0319163317905543600184015560078301869055600087815260da60205260408120805491610dca83614d41565b9091555050604080518881523360208201529081018790526001600160a01b0383166060820152608081018290524360a08201527fad2529a9ad2367f375af47554a9660baca1657f811acefad9b2829aee5c019179060c00160405180910390a1505060cc805460ff60a81b191690555050505050565b6001600160a01b0381163314610e5657600080fd5b6109798282613024565b600080516020615075833981519152610e7881612eb3565b5060cc80546001600160a81b0319169055565b600080516020615075833981519152610ea381612eb3565b610eab61308b565b50565b60d3546060906000838211610ec4576000610ece565b610ece8483614d79565b9050610eda8183614d79565b67ffffffffffffffff811115610ef257610ef2614688565b604051908082528060200260200182016040528015610f2b57816020015b610f186145c6565b815260200190600190039081610f105790505b509250805b828110156110915760d38181548110610f4b57610f4b614d15565b6000918252602091829020604080516101008082018352600c90940290920180548352600181015483860152600281015460ff808216151585850152858204811615156060808701919091526201000092839004821615156080808801919091528551808301875260038601548416151581526004860154818b015260058601548188015260a0808901919091528651908101875260068601548085161515825298890484161515818b01529390970490911615158285015260078301548282015260088301549582019590955260c08401528151938401825260098101546001600160a01b039081168552600a820154811695850195909552600b01549093169282019290925260e0820152846110638484614d79565b8151811061107357611073614d15565b6020026020010181905250808061108990614d41565b915050610f30565b505050919050565b60d054604051634ca1cccb60e11b8152600481018390526000916001600160a01b0316906399439996906024015b60206040518083038186803b1580156110df57600080fd5b505afa1580156110f3573d6000803e3d6000fd5b505050506040513d601f19601f820116820180604052508101906107349190614e73565b600354610100900460ff16158080156111375750600354600160ff909116105b806111515750303b158015611151575060035460ff166001145b61115a57600080fd5b6003805460ff19166001179055801561117d576003805461ff0019166101001790555b61118783836128c1565b604080516101008101825260008082526020808301829052828401829052606080840183905260808085018490528551808301875284815280840185905280870185905260a0808701919091528651908101875284815280840185905280870185905280830185905290810184905260c0850152845190810185528281529081018290529283015260e0810191909152611220816130dd565b60d4805490600061123083614d41565b9091555050600260d781905560d6556112496004600055565b61125764012a05f200600255565b50608260d85580156109a2576003805461ff0019169055604051600181527f7f26b83ff96e1f2b6a682f133852f6798a09c465da95921460cefb3847402498906020015b60405180910390a1505050565b6112b0612f43565b6002543a11156112d25760405162461bcd60e51b81526004016109d190614daf565b336112dc81612f8b565b156112f95760405162461bcd60e51b81526004016109d190614dd1565b600061130483612c0d565b805190915083148015611318575080604001515b6113495760405162461bcd60e51b8152602060048201526002602482015261031360f41b60448201526064016109d1565b60e0810151516001600160a01b0316331480611378575061137860008051602061507583398151915233612896565b6113a95760405162461bcd60e51b8152602060048201526002602482015261313160f01b60448201526064016109d1565b60a08101516020810151815160409092015160e0840151519192916113cd876133cc565b6040518781527f61b9399f2f0f32ca39ce8d7be32caed5ec22fe07a6daba3a467ed479ec6065829060200160405180910390a1826114ef576000611412856001614df6565b67ffffffffffffffff81111561142a5761142a614688565b604051908082528060200260200182016040528015611453578160200160208202803683370190505b509050611461836064614e0e565b81868151811061147357611473614d15565b602090810291909101015260d15460405163b238d31960e01b81526001600160a01b039091169063b238d319906114b7903090869060009081908890600401614ec7565b600060405180830381600087803b1580156114d157600080fd5b505af11580156114e5573d6000803e3d6000fd5b5050505050611556565b60cf546040516323b872dd60e01b81526001600160a01b03909116906323b872dd9061152390309085908990600401614e4f565b600060405180830381600087803b15801561153d57600080fd5b505af1158015611551573d6000803e3d6000fd5b505050505b50505050505050565b60cc54600160a81b900460ff16156115895760405162461bcd60e51b81526004016109d190614d90565b60cc805460ff60a81b1916600160a81b1790556115a4612f43565b6002543a11156115c65760405162461bcd60e51b81526004016109d190614daf565b336115d081612f8b565b156115ed5760405162461bcd60e51b81526004016109d190614dd1565b336000908152600160205260409020544310156116375760405162461bcd60e51b815260206004820152600860248201526731b7b7b63237bbb760c11b60448201526064016109d1565b611640336137e2565b600061164b86612c0d565b905080604001516116825760405162461bcd60e51b81526020600482015260016024820152603160f81b60448201526064016109d1565b600086815260d9602052604090205443116116c35760405162461bcd60e51b81526020600482015260016024820152601960f91b60448201526064016109d1565b60e0810151516001600160a01b031633148015906116f2575060e0810151602001516001600160a01b03163314155b6117225760405162461bcd60e51b81526020600482015260016024820152603360f81b60448201526064016109d1565b60e0810151604001516001600160a01b0316331480611750575060e0810151604001516001600160a01b0316155b6117805760405162461bcd60e51b81526020600482015260016024820152600d60fa1b60448201526064016109d1565b60a08101515180156117925750846001145b8061179d5750600085115b6117cd5760405162461bcd60e51b81526020600482015260016024820152603560f81b60448201526064016109d1565b8060c0015160200151806117e2575080608001515b1561181857836118185760405162461bcd60e51b81526020600482015260016024820152600760fb1b60448201526064016109d1565b8215611857578060c00151604001516118575760405162461bcd60e51b81526020600482015260016024820152603960f81b60448201526064016109d1565b60c08101516060908101519082015161188357858260c001516060015161187e9190614e0e565b61188d565b8160c00151606001515b8260c0015160600181815250506000826060015115611b80578260a001516040015187146118e15760405162461bcd60e51b81526020600482015260016024820152601b60f91b60448201526064016109d1565b60208301516118f2906121c0614df6565b4310156119265760405162461bcd60e51b8152602060048201526002602482015261189960f11b60448201526064016109d1565b60e0830151604001516001600160a01b0316331461196b5760405162461bcd60e51b8152602060048201526002602482015261323360f01b60448201526064016109d1565b600088815260db602052604081205460dc80549192909161198d908490614df6565b90915550505060c08201516060015160e0830151516001600160a01b0316600090815260d2602052604081208054916119c583614d41565b90915550506040805160198082526103408201909252600091602082016103208036833750505060008a815260da6020526040902054909150611a09906014614e0e565b81601681518110611a1c57611a1c614d15565b60200260200101818152505060da60008a815260200190815260200160002054600a611a489190614e0e565b81601781518110611a5b57611a5b614d15565b60200260200101818152505060da60008a8152602001908152602001600020546005611a879190614e0e565b81601881518110611a9a57611a9a614d15565b60209081029190910181019190915260008a815260da9091526040812054611ac390600a614e0e565b611ad590670de0b6b3a7640000614e0e565b60d1546040516304567ca960e11b81529192506001600160a01b0316906308acf95290611b0a90339085908790600401614f0c565b600060405180830381600087803b158015611b2457600080fd5b505af1158015611b38573d6000803e3d6000fd5b505050507faa629ae4fb4821590b1dbb00ee486eea3d9657cdc997071b55d681e1915f1a6a8a338385604051611b719493929190614f3c565b60405180910390a15050611e0e565b8260a0015160400151871115611bbc5760405162461bcd60e51b81526020600482015260016024820152603760f81b60448201526064016109d1565b611c1a6040518060800160405280336001600160a01b031681526020018560e0015181526020018560c00151815260200160405180606001604052808a1515815260200189151581526020018760800151151581525081525061380b565b9050858015611c3257508260a0015160200151601514155b15611e0e576040805160168082526102e08201909252600091602082016102c08036833701905050905060008460800151611c7e57611c79670de0b6b3a764000084614e2d565b611c9c565b670de0b6b3a7640000611c92846032614e0e565b611c9c9190614e2d565b90508082601581518110611cb257611cb2614d15565b602090810291909101015260d1546040516304567ca960e11b81526001600160a01b03909116906308acf95290611cf29033906000908790600401614f0c565b600060405180830381600087803b158015611d0c57600080fd5b505af1158015611d20573d6000803e3d6000fd5b505060d15460e0880151516040516304567ca960e11b81526001600160a01b0390921693506308acf9529250611d5d916000908790600401614f0c565b600060405180830381600087803b158015611d7757600080fd5b505af1158015611d8b573d6000803e3d6000fd5b505050507f1249c3c2fcdc6e7920d0a837fa922afce682b7265e59c75ac4a7ddd360e8ccdf303383604051611dc293929190614e4f565b60405180910390a160e0850151516040517f1249c3c2fcdc6e7920d0a837fa922afce682b7265e59c75ac4a7ddd360e8ccdf91611e03913091908590614e4f565b60405180910390a150505b60e0830151516001600160a01b0316600090815260d260205260408120600101805491611e3a83614d41565b909155505060a083015151611f455760008360a00151602001516001611e609190614df6565b67ffffffffffffffff811115611e7857611e78614688565b604051908082528060200260200182016040528015611ea1578160200160208202803683370190505b509050611eaf886064614e0e565b818560a001516020015181518110611ec957611ec9614d15565b602090810291909101015260d15460405163b238d31960e01b81526001600160a01b039091169063b238d31990611f0d903090339060009081908890600401614ec7565b600060405180830381600087803b158015611f2757600080fd5b505af1158015611f3b573d6000803e3d6000fd5b5050505050611fb3565b60cf5460a0840151602001516040516323b872dd60e01b81526001600160a01b03909216916323b872dd91611f809130913391600401614e4f565b600060405180830381600087803b158015611f9a57600080fd5b505af1158015611fae573d6000803e3d6000fd5b505050505b7f55e5c5faba836ee00f897ace65821e477e158a25ac610fd675b598b5fccbef4a888460a00151602001518560a00151604001518a8760e00151600001513388888b60c00151600001518f8f8e60a00151600001516040516120839c9b9a999897969594939291909b8c5260208c019a909a5260408b019890985260608a01969096526001600160a01b0394851660808a01529290931660a088015260c087015260e086019190915215156101008501521515610120840152151561014083015215156101608201526101800190565b60405180910390a18260a00151604001518714156120a9576120a4886133cc565b6120bc565b6120bc888460a001516040015189613847565b505060cc805460ff60a81b19169055505050505050565b60cc54600160a81b900460ff16156120fd5760405162461bcd60e51b81526004016109d190614d90565b60cc805460ff60a81b1916600160a81b179055612118612f43565b6002543a111561213a5760405162461bcd60e51b81526004016109d190614daf565b336000908152600160205260409020544310156121845760405162461bcd60e51b815260206004820152600860248201526731b7b7b63237bbb760c11b60448201526064016109d1565b61218d336137e2565b61219633612f8b565b156121c85760405162461bcd60e51b8152602060048201526002602482015261189b60f11b60448201526064016109d1565b60008460600151116122005760405162461bcd60e51b81526020600482015260016024820152606160f81b60448201526064016109d1565b6064846080015111156122395760405162461bcd60e51b81526020600482015260016024820152603160f91b60448201526064016109d1565b8451801561224b575084604001516001145b8061225a575060008560400151115b61228a5760405162461bcd60e51b81526020600482015260016024820152606360f81b60448201526064016109d1565b6122b47f3c4a2d89ed8b4cf4347fec87df1c38410f8fc538bf9fd64c10f2717bc0feff3633612896565b61232e5760408301516001600160a01b0316156122f75760405162461bcd60e51b81526020600482015260016024820152601960fa1b60448201526064016109d1565b81156123295760405162461bcd60e51b81526020600482015260016024820152606560f81b60448201526064016109d1565b612411565b81156124115760408301516001600160a01b031633146123745760405162461bcd60e51b81526020600482015260016024820152600d60fb1b60448201526064016109d1565b83602001516123a95760405162461bcd60e51b81526020600482015260016024820152606960f81b60448201526064016109d1565b83516123db5760405162461bcd60e51b81526020600482015260016024820152603560f91b60448201526064016109d1565b8360400151156124115760405162461bcd60e51b81526020600482015260016024820152606b60f81b60448201526064016109d1565b84516125115760008560200151600161242a9190614df6565b67ffffffffffffffff81111561244257612442614688565b60405190808252806020026020018201604052801561246b578160200160208202803683370190505b5090508560400151606461247f9190614e0e565b8187602001518151811061249557612495614d15565b602090810291909101015260d15460405163b238d31960e01b81526001600160a01b039091169063b238d319906124d9903390309060009081908890600401614ec7565b600060405180830381600087803b1580156124f357600080fd5b505af1158015612507573d6000803e3d6000fd5b505050505061257b565b60cf5460208601516040516323b872dd60e01b81526001600160a01b03909216916323b872dd916125489133913091600401614e4f565b600060405180830381600087803b15801561256257600080fd5b505af1158015612576573d6000803e3d6000fd5b505050505b80156125ef5783602001516125b65760405162461bcd60e51b81526020600482015260016024820152603360f91b60448201526064016109d1565b8460200151601514156125ef5760405162461bcd60e51b81526020600482015260016024820152606760f81b60448201526064016109d1565b60d48054908190600061260183614d41565b919050555061264f60405180610100016040528083815260200143815260200160011515815260200185151581526020018415158152602001888152602001878152602001868152506130dd565b6020808701516040808901518751888301516060808c01518c8601518e518e518f8b015189518d8152439c81019c909c52988b0199909952928901959095526001600160a01b0393841660808901529290911660a087015260c086019190915290151560e0850152151561010084015290151561012083015215156101408201528315156101608201528215156101808201527fbb7e3525b3f590866b81920d4d607f051f65051616125833b3548843c960172d906101a00160405180910390a1505060cc805460ff60a81b1916905550505050565b606060d3805480602002602001604051908101604052809291908181526020016000905b8282101561286d576000848152602090819020604080516101008082018352600c87029093018054825260018082015483870152600282015460ff808216151585870152868204811615156060808701919091526201000092839004821615156080808801919091528751808301895260038701548416151581526004870154818c01526005870154818a015260a08089019190915288519081018952600687015480851615158252998a0484161515818c01529390980490911615158287015260078401548282015260088401549682019690965260c08401528351948501845260098201546001600160a01b039081168652600a830154811686880152600b909201549091169284019290925260e08101929092529083529092019101612749565b50505050905090565b60008051602061507583398151915261288e81612eb3565b610eab6138e3565b60009182526068602090815260408084206001600160a01b0393909316845291905290205460ff1690565b600354610100900460ff16158080156128e15750600354600160ff909116105b806128fb5750303b1580156128fb575060035460ff166001145b61290457600080fd5b6003805460ff191660011790558015612927576003805461ff0019166101001790555b61292f613920565b612937613934565b612942600084613950565b61295a60008051602061507583398151915284613950565b6129847f73e573f9566d61418a34d5de3ff49360f9c51fec37f7486551670290f6285dab84613950565b61298d82612aba565b80156109a2576003805461ff0019169055604051600181527f7f26b83ff96e1f2b6a682f133852f6798a09c465da95921460cefb38474024989060200161129b565b60d381815481106129df57600080fd5b6000918252602091829020600c909102018054600182015460028301546040805160608082018352600387015460ff908116151583526004880154838a0152600588015483850152835160a08101855260068901548083161515825261010080820484161515838d01526201000091829004841615158388015260078b01548386015260088b015460808401528651948501875260098b01546001600160a01b039081168652600a8c015481169c86019c909c52600b909a0154909a1694830194909452959850939685841696840486169593049092169288565b600080516020615075833981519152612ad281612eb3565b5060cc80546001600160a81b0319166001600160a01b0390921691909117600160a01b179055565b612b1e60405180606001604052806000815260200160008152602001600081525090565b506001600160a01b0316600090815260d26020908152604091829020825160608101845281548152600182015492810192909252600201549181019190915290565b60005b815181101561097957612b8e828281518110612b8157612b81614d15565b60200260200101516112a8565b80612b9881614d41565b915050612b63565b60d05460405163526267fd60e11b8152600481018390526000916001600160a01b03169063a4c4cffa906024016110c7565b600080516020615075833981519152612bea81612eb3565b5060dd80546001600160a01b0319166001600160a01b0392909216919091179055565b612c156145c6565b600082815260d5602052604090205460d380549091908110612c3957612c39614d15565b6000918252602091829020604080516101008082018352600c90940290920180548352600181015483860152600281015460ff808216151585850152858204811615156060808701919091526201000092839004821615156080808801919091528551808301875260038601548416151581526004860154818b015260058601548188015260a0808901919091528651908101875260068601548085161515825298890484161515818b01529390970490911615158285015260078301548282015260088301549582019590955260c08401528151938401825260098101546001600160a01b039081168552600a820154811695850195909552600b01549093169282019290925260e082015292915050565b600082815260686020526040902060010154612d6781612eb3565b6109a28383613024565b7f73e573f9566d61418a34d5de3ff49360f9c51fec37f7486551670290f6285dab612d9b81612eb3565b506001600160a01b03909116600090815260d26020526040902060020155565b600080516020615075833981519152612dd381612eb3565b6040805160a0810182526001600160a01b038881168083528882166020840181905288831684860181905288841660608601819052938816608090950185905260cd80546001600160a01b0319908116909417905560ce805484168317905560cf80548416909117905560d0805483168417905560d180549092169093179055915163095ea7b360e01b8152600481019290925260001960248301529063095ea7b390604401600060405180830381600087803b158015612e9357600080fd5b505af1158015612ea7573d6000803e3d6000fd5b50505050505050505050565b610eab813361395a565b612ec78282612896565b6109795760008281526068602090815260408083206001600160a01b03851684529091529020805460ff19166001179055612eff3390565b6001600160a01b0316816001600160a01b0316837f2f8788117e7eff1d82e926ec794901d17c78024a50270940304540a733656f0d60405160405180910390a45050565b609a5460ff1615612f895760405162461bcd60e51b815260206004820152601060248201526f14185d5cd8589b194e881c185d5cd95960821b60448201526064016109d1565b565b60cc54600090600160a01b900460ff16612fa757506000919050565b60cc54604051638e204c4360e01b81526001600160a01b03848116600483015290911690638e204c439060240160206040518083038186803b158015612fec57600080fd5b505afa158015613000573d6000803e3d6000fd5b505050506040513d601f19601f820116820180604052508101906107349190614d5c565b61302e8282612896565b156109795760008281526068602090815260408083206001600160a01b0385168085529252808320805460ff1916905551339285917ff6391f5c32d9c69d2a47ea670b442974b53935d1edc7fd64eb21e047a839171b9190a45050565b6130936139b3565b609a805460ff191690557f5db9ee0a495bf2e6ff9c91a7834c1ba4fdd244a5e8aa4e537bd38aeae4b073aa335b6040516001600160a01b03909116815260200160405180910390a1565b60d3805460018082018355600083905283517f915c3eb987b20e1af620c1403197bf687fb7f18513b3a73fde6e78c7072c41a6600c909302928301556020808501517f915c3eb987b20e1af620c1403197bf687fb7f18513b3a73fde6e78c7072c41a78401556040808601517f915c3eb987b20e1af620c1403197bf687fb7f18513b3a73fde6e78c7072c41a8850180546060808a01516080808c015161ffff1994851696151561ff00199081169790971761010093151584021762ff0000199081166201000092151583021790965560a08d015180517f915c3eb987b20e1af620c1403197bf687fb7f18513b3a73fde6e78c7072c41a98d01805460ff1916911515919091179055808a01517f915c3eb987b20e1af620c1403197bf687fb7f18513b3a73fde6e78c7072c41aa8d01558801517f915c3eb987b20e1af620c1403197bf687fb7f18513b3a73fde6e78c7072c41ab8c015560c08d015180517f915c3eb987b20e1af620c1403197bf687fb7f18513b3a73fde6e78c7072c41ac8d018054838d0151848d015191909916921515909a16919091179615159094029590951790951695151590940294909417909355918201517f915c3eb987b20e1af620c1403197bf687fb7f18513b3a73fde6e78c7072c41ad87015501517f915c3eb987b20e1af620c1403197bf687fb7f18513b3a73fde6e78c7072c41ae85015560e086015180517f915c3eb987b20e1af620c1403197bf687fb7f18513b3a73fde6e78c7072c41af860180546001600160a01b03199081166001600160a01b0393841617909155938201517f915c3eb987b20e1af620c1403197bf687fb7f18513b3a73fde6e78c7072c41b08701805486169183169190911790559101517f915c3eb987b20e1af620c1403197bf687fb7f18513b3a73fde6e78c7072c41b19094018054909216931692909217909155905461339b9190614d79565b8151600090815260d5602052604090205560d6546133b99043614df6565b9051600090815260d96020526040902055565b600081815260d5602052604090205460d354811080156133eb57508015155b61341c5760405162461bcd60e51b8152602060048201526002602482015261189b60f11b60448201526064016109d1565b600060d3828154811061343157613431614d15565b90600052602060002090600c020190508281600001541480156134585750600281015460ff165b6134895760405162461bcd60e51b8152602060048201526002602482015261313760f01b60448201526064016109d1565b60028101805460ff1916905560d38054600091906134a990600190614d79565b815481106134b9576134b9614d15565b6000918252602091829020604080516101008082018352600c90940290920180548352600181015483860152600281015460ff808216151585850152858204811615156060808701919091526201000092839004821615156080808801919091528551808301875260038601548416151581526004860154818b015260058601548188015260a0808901919091528651908101875260068601548085161515825298890484161515818b01529390970490911615158285015260078301548282015260088301549582019590955260c08401528151938401825260098101546001600160a01b039081168552600a820154811695850195909552600b01549093169282019290925260e082015280519091508414613729578060d384815481106135e5576135e5614d15565b600091825260208083208451600c93909302019182558381015160018301556040808501516002840180546060808901516080808b015161ffff1994851696151561ff00199081169790971761010093151584021762ff0000199081166201000092151583021790965560a08c0151805160038c01805460ff1916911515919091179055808a015160048c015588015160058b015560c08c0151805160068c018054838d0151848d015191909916921515909a169190911796151590940295909517909516951515909402949094179093559182015160078601550151600884015560e09094015180516009840180546001600160a01b03199081166001600160a01b039384161790915582840151600a86018054831691841691909117905591860151600b90940180549092169316929092179091558351825260d59052208390555b60d380548061373a5761373a614f73565b60008281526020808220600c600019909401938402018281556001810183905560028101805462ffffff1990811690915560038201805460ff191690556004820184905560058201849055600682018054909116905560078101839055600881018390556009810180546001600160a01b0319908116909155600a8201805482169055600b909101805490911690559190925594815260d59094525050604082209190915550565b6000546137ef9043614df6565b6001600160a01b03909116600090815260016020526040902055565b6060810151516000901561382257610734826139fc565b816060015160200151156138395761073482613a35565b61073482613b13565b919050565b7fe9e92ca155f7f849e8406a526168717b9ff4b506da09f38a5543e7554edee45d83836138748482614d79565b6040805193845260208401929092529082015260600160405180910390a1600083815260d5602052604090205460d3805483929081106138b6576138b6614d15565b90600052602060002090600c020160030160020160008282546138d99190614d79565b9091555050505050565b6138eb612f43565b609a805460ff191660011790557f62e78cea01bee320cd4e420270b5ea74000d11b0c9f74754ebdbfc544b05a2586130c03390565b600354610100900460ff16612f8957600080fd5b600354610100900460ff1661394857600080fd5b612f89613b85565b6109798282612ebd565b6139648282612896565b6109795761397181613ba5565b61397c836020613bb7565b60405160200161398d929190614fb5565b60408051601f198184030181529082905262461bcd60e51b82526109d19160040161502a565b609a5460ff16612f895760405162461bcd60e51b815260206004820152601460248201527314185d5cd8589b194e881b9bdd081c185d5cd95960621b60448201526064016109d1565b604081015151600090613a1f57613a1a826040015160600151612ba0565b613a29565b8160400151606001515b90506138428282613d17565b6000816040015160400151613a715760405162461bcd60e51b8152602060048201526002602482015261313360f01b60448201526064016109d1565b81604001516020015115613aac5760405162461bcd60e51b81526020600482015260026024820152610c4d60f21b60448201526064016109d1565b604082015151613add57606460d854836040015160600151613ace9190614e0e565b613ad89190614e2d565b613b07565b606460d854613af3846040015160600151611099565b613afd9190614e0e565b613b079190614e2d565b90506138428282613fc8565b600081604001516020015115613b505760405162461bcd60e51b8152602060048201526002602482015261313560f01b60448201526064016109d1565b604082015151613b6857816040015160600151613b79565b613b79826040015160600151611099565b905061384282826140b6565b600354610100900460ff16613b9957600080fd5b609a805460ff19169055565b60606107346001600160a01b03831660145b60606000613bc6836002614e0e565b613bd1906002614df6565b67ffffffffffffffff811115613be957613be9614688565b6040519080825280601f01601f191660200182016040528015613c13576020820181803683370190505b509050600360fc1b81600081518110613c2e57613c2e614d15565b60200101906001600160f81b031916908160001a905350600f60fb1b81600181518110613c5d57613c5d614d15565b60200101906001600160f81b031916908160001a9053506000613c81846002614e0e565b613c8c906001614df6565b90505b6001811115613d04576f181899199a1a9b1b9c1cb0b131b232b360811b85600f1660108110613cc057613cc0614d15565b1a60f81b828281518110613cd657613cd6614d15565b60200101906001600160f81b031916908160001a90535060049490941c93613cfd8161505d565b9050613c8f565b508315613d1057600080fd5b9392505050565b81606001516040015115613e6057602080830151516001600160a01b0316600090815260d2909152604081206002018054839290613d56908490614df6565b909155505060ce5482516040516323b872dd60e01b81526001600160a01b03909216916323b872dd91613d8f9130908690600401614e4f565b602060405180830381600087803b158015613da957600080fd5b505af1158015613dbd573d6000803e3d6000fd5b505050506040513d601f19601f82011682018060405250810190613de19190614d5c565b5060d054604051630d3990db60e21b8152600481018390526001600160a01b03909116906334e6436c90602401602060405180830381600087803b158015613e2857600080fd5b505af1158015613e3c573d6000803e3d6000fd5b505050506040513d601f19601f820116820180604052508101906109a29190614e73565b600080600080613e7885876040015160800151614316565b895160208b0151519498509296509094509250613e9e91613e998488614df6565b614399565b613eb5866000015187602001516020015185614399565b8115613fc05760ce5486516040516323b872dd60e01b81526001600160a01b03909216916323b872dd91613eef9130908790600401614e4f565b602060405180830381600087803b158015613f0957600080fd5b505af1158015613f1d573d6000803e3d6000fd5b505050506040513d601f19601f82011682018060405250810190613f419190614d5c565b5060d054604051630d3990db60e21b8152600481018490526001600160a01b03909116906334e6436c90602401602060405180830381600087803b158015613f8857600080fd5b505af1158015613f9c573d6000803e3d6000fd5b505050506040513d601f19601f820116820180604052508101906115569190614e73565b505050505050565b600080600080613fe085876040015160800151614316565b895160208b0151519498509296509094509250614006916140018488614df6565b61442b565b61401d86600001518760200151602001518561442b565b8115613fc05760d15486516040805160008152602081019182905263b1918c9560e01b9091526001600160a01b039092169163b1918c959161406491869060248101614f0c565b602060405180830381600087803b15801561407e57600080fd5b505af1158015614092573d6000803e3d6000fd5b505050506040513d601f19601f820116820180604052508101906115569190614d5c565b60d154825160405163366d7a6b60e21b81526001600160a01b039182166004820152600092919091169063d9b5e9ac9060240160206040518083038186803b15801561410157600080fd5b505afa158015614115573d6000803e3d6000fd5b505050506040513d601f19601f820116820180604052508101906141399190614e73565b905060008282101561414b578161414d565b825b9050600083831015614168576141638385614d79565b61416b565b60005b905081156142425760008060008061418b868a6040015160800151614316565b8c5160208e01515194985092965090945092506141b1916141ac8488614df6565b6144f7565b6141c889600001518a6020015160200151856144f7565b811561423d5760d1548951604051631e59b34d60e11b81526001600160a01b0391821660048201526024810185905260006044820152911690633cb3669a90606401600060405180830381600087803b15801561422457600080fd5b505af1158015614238573d6000803e3d6000fd5b505050505b505050505b801561089057600080600080614260858a6040015160800151614316565b8c5160208e0151519498509296509094509250614286916142818488614df6565b61458c565b61429d89600001518a60200151602001518561458c565b811561430b5760cd54895160405163079cc67960e41b81526001600160a01b039182166004820152602481018590529116906379cc679090604401600060405180830381600087803b1580156142f257600080fd5b505af1158015614306573d6000803e3d6000fd5b505050505b505050505050505050565b600080600080600090506000606460d754886143329190614e0e565b61433c9190614e2d565b90506143488282614d79565b9250606486614357838a614d79565b6143619190614e0e565b61436b9190614e2d565b93508183614379868a614d79565b6143839190614d79565b61438d9190614d79565b94505092959194509250565b80156109a25760ce546040516323b872dd60e01b81526001600160a01b03909116906323b872dd906143d390869086908690600401614e4f565b602060405180830381600087803b1580156143ed57600080fd5b505af1158015614401573d6000803e3d6000fd5b505050506040513d601f19601f820116820180604052508101906144259190614d5c565b50505050565b80156109a25760d1546001600160a01b031663b238d319848460008581604051908082528060200260200182016040528015614471578160200160208202803683370190505b506040518663ffffffff1660e01b8152600401614492959493929190614ec7565b600060405180830381600087803b1580156144ac57600080fd5b505af11580156144c0573d6000803e3d6000fd5b505050507f4bb45d1d94c3cc2ea51bc37e3446850ae2db949bfe7a06a04594b66d70027bb383838360405161129b93929190614e4f565b80156109a25760d1546001600160a01b031663b238d31984848460008060405190808252806020026020018201604052801561453d578160200160208202803683370190505b506040518663ffffffff1660e01b815260040161455e959493929190614ec7565b600060405180830381600087803b15801561457857600080fd5b505af1158015611556573d6000803e3d6000fd5b80156109a25760cd546040516323b872dd60e01b81526001600160a01b03909116906323b872dd906143d390869086908690600401614e4f565b60408051610100810182526000808252602080830182905282840182905260608084018390526080840183905284519081018552828152908101829052928301529060a082019081526040805160a08101825260008082526020828101829052928201819052606082018190526080820152910190815260408051606081018252600080825260208281018290529282015291015290565b60006020828403121561467057600080fd5b81356001600160e01b031981168114613d1057600080fd5b634e487b7160e01b600052604160045260246000fd5b6040516060810167ffffffffffffffff811182821017156146c1576146c1614688565b60405290565b60405160a0810167ffffffffffffffff811182821017156146c1576146c1614688565b604051601f8201601f1916810167ffffffffffffffff8111828210171561471357614713614688565b604052919050565b6000602080838503121561472e57600080fd5b823567ffffffffffffffff8082111561474657600080fd5b818501915085601f83011261475a57600080fd5b81358181111561476c5761476c614688565b8060051b915061477d8483016146ea565b818152918301840191848101908884111561479757600080fd5b938501935b838510156147b55784358252938501939085019061479c565b98975050505050505050565b805182526020810151602083015260408101511515604083015260608101511515606083015260808101511515608083015260a081015161481b60a084018280511515825260208082015190830152604090810151910152565b5060c0810151805115156101008401526020810151151561012084015260408101511515610140840152606081015161016084015260808101516101808401525060e0015180516001600160a01b039081166101a0840152602082015181166101c0840152604090910151166101e090910152565b6020808252825182820181905260009190848201906040850190845b818110156148d3576148bf8385516147c1565b9284019261020092909201916001016148ac565b50909695505050505050565b6001600160a01b0381168114610eab57600080fd5b60008060006060848603121561490957600080fd5b8335614914816148df565b92506020840135614924816148df565b929592945050506040919091013590565b60006020828403121561494757600080fd5b5035919050565b6000806040838503121561496157600080fd5b823591506020830135614973816148df565b809150509250929050565b8015158114610eab57600080fd5b80356138428161497e565b6000806000606084860312156149ac57600080fd5b833592506020840135915060408401356149c58161497e565b809150509250925092565b600080604083850312156149e357600080fd5b82356149ee816148df565b91506020830135614973816148df565b60008060008060808587031215614a1457600080fd5b84359350602085013592506040850135614a2d8161497e565b91506060850135614a3d8161497e565b939692955090935050565b600060608284031215614a5a57600080fd5b614a6261469e565b90508135614a6f816148df565b81526020820135614a7f816148df565b60208201526040820135614a92816148df565b604082015292915050565b60008060008060008587036101a0811215614ab757600080fd5b6060811215614ac557600080fd5b614acd61469e565b8735614ad88161497e565b81526020888101359082015260408089013590820152955060a0605f1982011215614b0257600080fd5b50614b0b6146c7565b6060870135614b198161497e565b81526080870135614b298161497e565b602082015260a0870135614b3c8161497e565b604082015260c0870135606082015260e087013560808201529350614b65876101008801614a48565b9250614b74610160870161498c565b9150614b83610180870161498c565b90509295509295909350565b888152602081018890528615156040820152851515606082015284151560808201526102008101614bd960a083018680511515825260208082015190830152604090810151910152565b8351151561010083015260208401511515610120830152604084015115156101408301526060840151610160830152608084015161018083015282516001600160a01b039081166101a0840152602084015181166101c08401526040840151166101e08301529998505050505050505050565b600060208284031215614c5e57600080fd5b8135613d10816148df565b610200810161073482846147c1565b60008060408385031215614c8b57600080fd5b8235614c96816148df565b946020939093013593505050565b600080600080600060a08688031215614cbc57600080fd5b8535614cc7816148df565b94506020860135614cd7816148df565b93506040860135614ce7816148df565b92506060860135614cf7816148df565b91506080860135614d07816148df565b809150509295509295909350565b634e487b7160e01b600052603260045260246000fd5b634e487b7160e01b600052601160045260246000fd5b6000600019821415614d5557614d55614d2b565b5060010190565b600060208284031215614d6e57600080fd5b8151613d108161497e565b600082821015614d8b57614d8b614d2b565b500390565b6020808252600590820152640daeae8caf60db1b604082015260600190565b6020808252600890820152670cec2e664d0d2ced60c31b604082015260600190565b6020808252600b908201526a109b1bd8dadb1a5cdd195960aa1b604082015260600190565b60008219821115614e0957614e09614d2b565b500190565b6000816000190483118215151615614e2857614e28614d2b565b500290565b600082614e4a57634e487b7160e01b600052601260045260246000fd5b500490565b6001600160a01b039384168152919092166020820152604081019190915260600190565b600060208284031215614e8557600080fd5b5051919050565b600081518084526020808501945080840160005b83811015614ebc57815187529582019590820190600101614ea0565b509495945050505050565b6001600160a01b03868116825285166020820152604081018490526060810183905260a060808201819052600090614f0190830184614e8c565b979650505050505050565b60018060a01b0384168152826020820152606060408201526000614f336060830184614e8c565b95945050505050565b84815260018060a01b0384166020820152826040820152608060608201526000614f696080830184614e8c565b9695505050505050565b634e487b7160e01b600052603160045260246000fd5b60005b83811015614fa4578181015183820152602001614f8c565b838111156144255750506000910152565b7f416363657373436f6e74726f6c3a206163636f756e7420000000000000000000815260008351614fed816017850160208801614f89565b7001034b99036b4b9b9b4b733903937b6329607d1b601791840191820152835161501e816028840160208801614f89565b01602801949350505050565b6020815260008251806020840152615049816040850160208701614f89565b601f01601f19169190910160400192915050565b60008161506c5761506c614d2b565b50600019019056fe97667070c54ef182b0f5858b034beac1b6f3089aa2d3188bb1e8929f4fa9b929a264697066735822122030d3e6268a90177d360269ed989823b3311c12994b459ec06953925358062e0764736f6c63430008090033",
  "linkReferences": {},
  "deployedLinkReferences": {}
}