{
  "_format": "hh-sol-artifact-1",
  "contractName": "BkMarketplace",
  "sourceName": "contracts/features/BkMarketplace.sol",
  "abi": [
    {
      "anonymous": false,
      "inputs": [
        {
          "indexed": false,
          "internalType": "uint256",
          "name": "orderId",
          "type": "uint256"
        },
        {
          "indexed": false,
          "internalType": "address",
          "name": "bidder",
          "type": "address"
        },
        {
          "indexed": false,
          "internalType": "uint256",
          "name": "bid",
          "type": "uint256"
        },
        {
          "indexed": false,
          "internalType": "address",
          "name": "prevBidder",
          "type": "address"
        },
        {
          "indexed": false,
          "internalType": "uint256",
          "name": "prevBidderCashback",
          "type": "uint256"
        },
        {
          "indexed": false,
          "internalType": "uint256",
          "name": "blockNumber",
          "type": "uint256"
        }
      ],
      "name": "AuctionBidPlaced",
      "type": "event"
    },
    {
      "anonymous": false,
      "inputs": [
        {
          "indexed": false,
          "internalType": "uint8",
          "name": "version",
          "type": "uint8"
        }
      ],
      "name": "Initialized",
      "type": "event"
    },
    {
      "anonymous": false,
      "inputs": [
        {
          "indexed": false,
          "internalType": "uint256",
          "name": "orderId",
          "type": "uint256"
        }
      ],
      "name": "OrderCancelled",
      "type": "event"
    },
    {
      "anonymous": false,
      "inputs": [
        {
          "indexed": false,
          "internalType": "uint256",
          "name": "orderId",
          "type": "uint256"
        },
        {
          "indexed": false,
          "internalType": "uint256",
          "name": "createdAt",
          "type": "uint256"
        },
        {
          "indexed": false,
          "internalType": "uint256",
          "name": "assetId",
          "type": "uint256"
        },
        {
          "indexed": false,
          "internalType": "uint256",
          "name": "assetQuantity",
          "type": "uint256"
        },
        {
          "indexed": false,
          "internalType": "address",
          "name": "seller",
          "type": "address"
        },
        {
          "indexed": false,
          "internalType": "address",
          "name": "privateFor",
          "type": "address"
        },
        {
          "indexed": false,
          "internalType": "uint256",
          "name": "priceInWei",
          "type": "uint256"
        },
        {
          "indexed": false,
          "internalType": "bool",
          "name": "allowEbct",
          "type": "bool"
        },
        {
          "indexed": false,
          "internalType": "bool",
          "name": "isNft",
          "type": "bool"
        },
        {
          "indexed": false,
          "internalType": "bool",
          "name": "isPriceInStabletoken",
          "type": "bool"
        },
        {
          "indexed": false,
          "internalType": "bool",
          "name": "isStabletokenOnly",
          "type": "bool"
        },
        {
          "indexed": false,
          "internalType": "bool",
          "name": "isDutchAuction",
          "type": "bool"
        },
        {
          "indexed": false,
          "internalType": "bool",
          "name": "isPoolFuel",
          "type": "bool"
        }
      ],
      "name": "OrderCreated",
      "type": "event"
    },
    {
      "anonymous": false,
      "inputs": [
        {
          "indexed": false,
          "internalType": "uint256",
          "name": "orderId",
          "type": "uint256"
        },
        {
          "indexed": false,
          "internalType": "uint256",
          "name": "assetId",
          "type": "uint256"
        },
        {
          "indexed": false,
          "internalType": "uint256",
          "name": "availableQuantity",
          "type": "uint256"
        },
        {
          "indexed": false,
          "internalType": "uint256",
          "name": "boughtQuantity",
          "type": "uint256"
        },
        {
          "indexed": false,
          "internalType": "address",
          "name": "seller",
          "type": "address"
        },
        {
          "indexed": false,
          "internalType": "address",
          "name": "buyer",
          "type": "address"
        },
        {
          "indexed": false,
          "internalType": "uint256",
          "name": "originalPriceInWei",
          "type": "uint256"
        },
        {
          "indexed": false,
          "internalType": "uint256",
          "name": "pricePaidInWei",
          "type": "uint256"
        },
        {
          "indexed": false,
          "internalType": "bool",
          "name": "originalPriceInStabletoken",
          "type": "bool"
        },
        {
          "indexed": false,
          "internalType": "bool",
          "name": "paidInStabletoken",
          "type": "bool"
        },
        {
          "indexed": false,
          "internalType": "bool",
          "name": "paidInEbct",
          "type": "bool"
        },
        {
          "indexed": false,
          "internalType": "bool",
          "name": "isNft",
          "type": "bool"
        }
      ],
      "name": "OrderExecuted",
      "type": "event"
    },
    {
      "anonymous": false,
      "inputs": [
        {
          "indexed": false,
          "internalType": "uint256",
          "name": "orderId",
          "type": "uint256"
        },
        {
          "indexed": false,
          "internalType": "uint256",
          "name": "previousQuantity",
          "type": "uint256"
        },
        {
          "indexed": false,
          "internalType": "uint256",
          "name": "newQuantity",
          "type": "uint256"
        }
      ],
      "name": "OrderUpdated",
      "type": "event"
    },
    {
      "anonymous": false,
      "inputs": [
        {
          "indexed": false,
          "internalType": "address",
          "name": "account",
          "type": "address"
        }
      ],
      "name": "Paused",
      "type": "event"
    },
    {
      "anonymous": false,
      "inputs": [
        {
          "indexed": false,
          "internalType": "uint256",
          "name": "orderId",
          "type": "uint256"
        },
        {
          "indexed": false,
          "internalType": "address",
          "name": "winner",
          "type": "address"
        },
        {
          "indexed": false,
          "internalType": "uint256",
          "name": "ebct",
          "type": "uint256"
        },
        {
          "indexed": false,
          "internalType": "uint256[]",
          "name": "resources",
          "type": "uint256[]"
        }
      ],
      "name": "PrizePaid",
      "type": "event"
    },
    {
      "anonymous": false,
      "inputs": [
        {
          "indexed": true,
          "internalType": "bytes32",
          "name": "role",
          "type": "bytes32"
        },
        {
          "indexed": true,
          "internalType": "bytes32",
          "name": "previousAdminRole",
          "type": "bytes32"
        },
        {
          "indexed": true,
          "internalType": "bytes32",
          "name": "newAdminRole",
          "type": "bytes32"
        }
      ],
      "name": "RoleAdminChanged",
      "type": "event"
    },
    {
      "anonymous": false,
      "inputs": [
        {
          "indexed": true,
          "internalType": "bytes32",
          "name": "role",
          "type": "bytes32"
        },
        {
          "indexed": true,
          "internalType": "address",
          "name": "account",
          "type": "address"
        },
        {
          "indexed": true,
          "internalType": "address",
          "name": "sender",
          "type": "address"
        }
      ],
      "name": "RoleGranted",
      "type": "event"
    },
    {
      "anonymous": false,
      "inputs": [
        {
          "indexed": true,
          "internalType": "bytes32",
          "name": "role",
          "type": "bytes32"
        },
        {
          "indexed": true,
          "internalType": "address",
          "name": "account",
          "type": "address"
        },
        {
          "indexed": true,
          "internalType": "address",
          "name": "sender",
          "type": "address"
        }
      ],
      "name": "RoleRevoked",
      "type": "event"
    },
    {
      "anonymous": false,
      "inputs": [
        {
          "indexed": false,
          "internalType": "address",
          "name": "account",
          "type": "address"
        }
      ],
      "name": "Unpaused",
      "type": "event"
    },
    {
      "anonymous": false,
      "inputs": [
        {
          "indexed": false,
          "internalType": "address",
          "name": "from",
          "type": "address"
        },
        {
          "indexed": false,
          "internalType": "address",
          "name": "to",
          "type": "address"
        },
        {
          "indexed": false,
          "internalType": "uint256",
          "name": "amount",
          "type": "uint256"
        }
      ],
      "name": "drascaTransferred",
      "type": "event"
    },
    {
      "anonymous": false,
      "inputs": [
        {
          "indexed": false,
          "internalType": "address",
          "name": "from",
          "type": "address"
        },
        {
          "indexed": false,
          "internalType": "address",
          "name": "to",
          "type": "address"
        },
        {
          "indexed": false,
          "internalType": "uint256",
          "name": "amount",
          "type": "uint256"
        }
      ],
      "name": "eBctTransferred",
      "type": "event"
    },
    {
      "inputs": [],
      "name": "DEFAULT_ADMIN_ROLE",
      "outputs": [
        {
          "internalType": "bytes32",
          "name": "",
          "type": "bytes32"
        }
      ],
      "stateMutability": "view",
      "type": "function"
    },
    {
      "inputs": [
        {
          "internalType": "address",
          "name": "_operator",
          "type": "address"
        },
        {
          "internalType": "address",
          "name": "_blocklistAddress",
          "type": "address"
        }
      ],
      "name": "__Administrable_init",
      "outputs": [],
      "stateMutability": "nonpayable",
      "type": "function"
    },
    {
      "inputs": [],
      "name": "_resetBlocklist",
      "outputs": [],
      "stateMutability": "nonpayable",
      "type": "function"
    },
    {
      "inputs": [
        {
          "internalType": "uint256",
          "name": "bctAmount",
          "type": "uint256"
        }
      ],
      "name": "bctToStabletoken",
      "outputs": [
        {
          "internalType": "uint256",
          "name": "",
          "type": "uint256"
        }
      ],
      "stateMutability": "view",
      "type": "function"
    },
    {
      "inputs": [
        {
          "internalType": "uint256",
          "name": "orderId",
          "type": "uint256"
        },
        {
          "internalType": "uint256",
          "name": "amount",
          "type": "uint256"
        },
        {
          "internalType": "bool",
          "name": "isPowerBid",
          "type": "bool"
        }
      ],
      "name": "bidOnAuction",
      "outputs": [],
      "stateMutability": "nonpayable",
      "type": "function"
    },
    {
      "inputs": [],
      "name": "burnFeePct",
      "outputs": [
        {
          "internalType": "uint256",
          "name": "",
          "type": "uint256"
        }
      ],
      "stateMutability": "view",
      "type": "function"
    },
    {
      "inputs": [
        {
          "internalType": "uint256",
          "name": "orderId",
          "type": "uint256"
        }
      ],
      "name": "cancelOrder",
      "outputs": [],
      "stateMutability": "nonpayable",
      "type": "function"
    },
    {
      "inputs": [
        {
          "internalType": "uint256[]",
          "name": "orderIds",
          "type": "uint256[]"
        }
      ],
      "name": "cancelOrders",
      "outputs": [],
      "stateMutability": "nonpayable",
      "type": "function"
    },
    {
      "inputs": [],
      "name": "clearAllOrders",
      "outputs": [],
      "stateMutability": "nonpayable",
      "type": "function"
    },
    {
      "inputs": [],
      "name": "contracts",
      "outputs": [
        {
          "internalType": "contract IBkERC20",
          "name": "bct",
          "type": "address"
        },
        {
          "internalType": "contract IBkERC20",
          "name": "stabletoken",
          "type": "address"
        },
        {
          "internalType": "contract IBkNft",
          "name": "nft",
          "type": "address"
        },
        {
          "internalType": "contract ICommunityPool",
          "name": "pool",
          "type": "address"
        },
        {
          "internalType": "contract IBkFarm",
          "name": "farm",
          "type": "address"
        }
      ],
      "stateMutability": "view",
      "type": "function"
    },
    {
      "inputs": [
        {
          "components": [
            {
              "internalType": "bool",
              "name": "isNft",
              "type": "bool"
            },
            {
              "internalType": "uint256",
              "name": "id",
              "type": "uint256"
            },
            {
              "internalType": "uint256",
              "name": "quantity",
              "type": "uint256"
            }
          ],
          "internalType": "struct BkMarketplace.Asset",
          "name": "asset",
          "type": "tuple"
        },
        {
          "components": [
            {
              "internalType": "bool",
              "name": "isNominalInStabletoken",
              "type": "bool"
            },
            {
              "internalType": "bool",
              "name": "isStabletokenOnly",
              "type": "bool"
            },
            {
              "internalType": "bool",
              "name": "allowEbct",
              "type": "bool"
            },
            {
              "internalType": "uint256",
              "name": "amount",
              "type": "uint256"
            },
            {
              "internalType": "uint256",
              "name": "secondaryReceiverPct",
              "type": "uint256"
            }
          ],
          "internalType": "struct BkMarketplace.Price",
          "name": "price",
          "type": "tuple"
        },
        {
          "components": [
            {
              "internalType": "address",
              "name": "seller",
              "type": "address"
            },
            {
              "internalType": "address",
              "name": "secondaryReceiver",
              "type": "address"
            },
            {
              "internalType": "address",
              "name": "privateFor",
              "type": "address"
            }
          ],
          "internalType": "struct BkMarketplace.Players",
          "name": "players",
          "type": "tuple"
        },
        {
          "internalType": "bool",
          "name": "isDutchAuction",
          "type": "bool"
        },
        {
          "internalType": "bool",
          "name": "isPoolFuel",
          "type": "bool"
        }
      ],
      "name": "createOrder",
      "outputs": [],
      "stateMutability": "nonpayable",
      "type": "function"
    },
    {
      "inputs": [],
      "name": "eBctPct",
      "outputs": [
        {
          "internalType": "uint256",
          "name": "",
          "type": "uint256"
        }
      ],
      "stateMutability": "view",
      "type": "function"
    },
    {
      "inputs": [
        {
          "internalType": "uint256",
          "name": "orderId",
          "type": "uint256"
        },
        {
          "internalType": "uint256",
          "name": "quantity",
          "type": "uint256"
        },
        {
          "internalType": "bool",
          "name": "payWithStabletoken",
          "type": "bool"
        },
        {
          "internalType": "bool",
          "name": "payWithEbct",
          "type": "bool"
        }
      ],
      "name": "executeOrder",
      "outputs": [],
      "stateMutability": "nonpayable",
      "type": "function"
    },
    {
      "inputs": [],
      "name": "gasPriceLimit",
      "outputs": [
        {
          "internalType": "uint256",
          "name": "",
          "type": "uint256"
        }
      ],
      "stateMutability": "view",
      "type": "function"
    },
    {
      "inputs": [],
      "name": "getAllOrders",
      "outputs": [
        {
          "components": [
            {
              "internalType": "uint256",
              "name": "id",
              "type": "uint256"
            },
            {
              "internalType": "uint256",
              "name": "createdAt",
              "type": "uint256"
            },
            {
              "internalType": "bool",
              "name": "isActive",
              "type": "bool"
            },
            {
              "internalType": "bool",
              "name": "isDutchAuction",
              "type": "bool"
            },
            {
              "internalType": "bool",
              "name": "isPoolFuel",
              "type": "bool"
            },
            {
              "components": [
                {
                  "internalType": "bool",
                  "name": "isNft",
                  "type": "bool"
                },
                {
                  "internalType": "uint256",
                  "name": "id",
                  "type": "uint256"
                },
                {
                  "internalType": "uint256",
                  "name": "quantity",
                  "type": "uint256"
                }
              ],
              "internalType": "struct BkMarketplace.Asset",
              "name": "asset",
              "type": "tuple"
            },
            {
              "components": [
                {
                  "internalType": "bool",
                  "name": "isNominalInStabletoken",
                  "type": "bool"
                },
                {
                  "internalType": "bool",
                  "name": "isStabletokenOnly",
                  "type": "bool"
                },
                {
                  "internalType": "bool",
                  "name": "allowEbct",
                  "type": "bool"
                },
                {
                  "internalType": "uint256",
                  "name": "amount",
                  "type": "uint256"
                },
                {
                  "internalType": "uint256",
                  "name": "secondaryReceiverPct",
                  "type": "uint256"
                }
              ],
              "internalType": "struct BkMarketplace.Price",
              "name": "price",
              "type": "tuple"
            },
            {
              "components": [
                {
                  "internalType": "address",
                  "name": "seller",
                  "type": "address"
                },
                {
                  "internalType": "address",
                  "name": "secondaryReceiver",
                  "type": "address"
                },
                {
                  "internalType": "address",
                  "name": "privateFor",
                  "type": "address"
                }
              ],
              "internalType": "struct BkMarketplace.Players",
              "name": "players",
              "type": "tuple"
            }
          ],
          "internalType": "struct BkMarketplace.Order[]",
          "name": "",
          "type": "tuple[]"
        }
      ],
      "stateMutability": "view",
      "type": "function"
    },
    {
      "inputs": [
        {
          "internalType": "uint256",
          "name": "limit",
          "type": "uint256"
        }
      ],
      "name": "getLatestOrders",
      "outputs": [
        {
          "components": [
            {
              "internalType": "uint256",
              "name": "id",
              "type": "uint256"
            },
            {
              "internalType": "uint256",
              "name": "createdAt",
              "type": "uint256"
            },
            {
              "internalType": "bool",
              "name": "isActive",
              "type": "bool"
            },
            {
              "internalType": "bool",
              "name": "isDutchAuction",
              "type": "bool"
            },
            {
              "internalType": "bool",
              "name": "isPoolFuel",
              "type": "bool"
            },
            {
              "components": [
                {
                  "internalType": "bool",
                  "name": "isNft",
                  "type": "bool"
                },
                {
                  "internalType": "uint256",
                  "name": "id",
                  "type": "uint256"
                },
                {
                  "internalType": "uint256",
                  "name": "quantity",
                  "type": "uint256"
                }
              ],
              "internalType": "struct BkMarketplace.Asset",
              "name": "asset",
              "type": "tuple"
            },
            {
              "components": [
                {
                  "internalType": "bool",
                  "name": "isNominalInStabletoken",
                  "type": "bool"
                },
                {
                  "internalType": "bool",
                  "name": "isStabletokenOnly",
                  "type": "bool"
                },
                {
                  "internalType": "bool",
                  "name": "allowEbct",
                  "type": "bool"
                },
                {
                  "internalType": "uint256",
                  "name": "amount",
                  "type": "uint256"
                },
                {
                  "internalType": "uint256",
                  "name": "secondaryReceiverPct",
                  "type": "uint256"
                }
              ],
              "internalType": "struct BkMarketplace.Price",
              "name": "price",
              "type": "tuple"
            },
            {
              "components": [
                {
                  "internalType": "address",
                  "name": "seller",
                  "type": "address"
                },
                {
                  "internalType": "address",
                  "name": "secondaryReceiver",
                  "type": "address"
                },
                {
                  "internalType": "address",
                  "name": "privateFor",
                  "type": "address"
                }
              ],
              "internalType": "struct BkMarketplace.Players",
              "name": "players",
              "type": "tuple"
            }
          ],
          "internalType": "struct BkMarketplace.Order[]",
          "name": "_orders",
          "type": "tuple[]"
        }
      ],
      "stateMutability": "view",
      "type": "function"
    },
    {
      "inputs": [
        {
          "internalType": "address",
          "name": "merchant",
          "type": "address"
        }
      ],
      "name": "getMerchant",
      "outputs": [
        {
          "components": [
            {
              "internalType": "uint256",
              "name": "auctions",
              "type": "uint256"
            },
            {
              "internalType": "uint256",
              "name": "sales",
              "type": "uint256"
            },
            {
              "internalType": "uint256",
              "name": "poolFuel",
              "type": "uint256"
            }
          ],
          "internalType": "struct BkMarketplace.Merchant",
          "name": "",
          "type": "tuple"
        }
      ],
      "stateMutability": "view",
      "type": "function"
    },
    {
      "inputs": [
        {
          "internalType": "uint256",
          "name": "orderId",
          "type": "uint256"
        }
      ],
      "name": "getOrder",
      "outputs": [
        {
          "components": [
            {
              "internalType": "uint256",
              "name": "id",
              "type": "uint256"
            },
            {
              "internalType": "uint256",
              "name": "createdAt",
              "type": "uint256"
            },
            {
              "internalType": "bool",
              "name": "isActive",
              "type": "bool"
            },
            {
              "internalType": "bool",
              "name": "isDutchAuction",
              "type": "bool"
            },
            {
              "internalType": "bool",
              "name": "isPoolFuel",
              "type": "bool"
            },
            {
              "components": [
                {
                  "internalType": "bool",
                  "name": "isNft",
                  "type": "bool"
                },
                {
                  "internalType": "uint256",
                  "name": "id",
                  "type": "uint256"
                },
                {
                  "internalType": "uint256",
                  "name": "quantity",
                  "type": "uint256"
                }
              ],
              "internalType": "struct BkMarketplace.Asset",
              "name": "asset",
              "type": "tuple"
            },
            {
              "components": [
                {
                  "internalType": "bool",
                  "name": "isNominalInStabletoken",
                  "type": "bool"
                },
                {
                  "internalType": "bool",
                  "name": "isStabletokenOnly",
                  "type": "bool"
                },
                {
                  "internalType": "bool",
                  "name": "allowEbct",
                  "type": "bool"
                },
                {
                  "internalType": "uint256",
                  "name": "amount",
                  "type": "uint256"
                },
                {
                  "internalType": "uint256",
                  "name": "secondaryReceiverPct",
                  "type": "uint256"
                }
              ],
              "internalType": "struct BkMarketplace.Price",
              "name": "price",
              "type": "tuple"
            },
            {
              "components": [
                {
                  "internalType": "address",
                  "name": "seller",
                  "type": "address"
                },
                {
                  "internalType": "address",
                  "name": "secondaryReceiver",
                  "type": "address"
                },
                {
                  "internalType": "address",
                  "name": "privateFor",
                  "type": "address"
                }
              ],
              "internalType": "struct BkMarketplace.Players",
              "name": "players",
              "type": "tuple"
            }
          ],
          "internalType": "struct BkMarketplace.Order",
          "name": "",
          "type": "tuple"
        }
      ],
      "stateMutability": "view",
      "type": "function"
    },
    {
      "inputs": [
        {
          "internalType": "uint256[]",
          "name": "orderIds",
          "type": "uint256[]"
        }
      ],
      "name": "getOrders",
      "outputs": [
        {
          "components": [
            {
              "internalType": "uint256",
              "name": "id",
              "type": "uint256"
            },
            {
              "internalType": "uint256",
              "name": "createdAt",
              "type": "uint256"
            },
            {
              "internalType": "bool",
              "name": "isActive",
              "type": "bool"
            },
            {
              "internalType": "bool",
              "name": "isDutchAuction",
              "type": "bool"
            },
            {
              "internalType": "bool",
              "name": "isPoolFuel",
              "type": "bool"
            },
            {
              "components": [
                {
                  "internalType": "bool",
                  "name": "isNft",
                  "type": "bool"
                },
                {
                  "internalType": "uint256",
                  "name": "id",
                  "type": "uint256"
                },
                {
                  "internalType": "uint256",
                  "name": "quantity",
                  "type": "uint256"
                }
              ],
              "internalType": "struct BkMarketplace.Asset",
              "name": "asset",
              "type": "tuple"
            },
            {
              "components": [
                {
                  "internalType": "bool",
                  "name": "isNominalInStabletoken",
                  "type": "bool"
                },
                {
                  "internalType": "bool",
                  "name": "isStabletokenOnly",
                  "type": "bool"
                },
                {
                  "internalType": "bool",
                  "name": "allowEbct",
                  "type": "bool"
                },
                {
                  "internalType": "uint256",
                  "name": "amount",
                  "type": "uint256"
                },
                {
                  "internalType": "uint256",
                  "name": "secondaryReceiverPct",
                  "type": "uint256"
                }
              ],
              "internalType": "struct BkMarketplace.Price",
              "name": "price",
              "type": "tuple"
            },
            {
              "components": [
                {
                  "internalType": "address",
                  "name": "seller",
                  "type": "address"
                },
                {
                  "internalType": "address",
                  "name": "secondaryReceiver",
                  "type": "address"
                },
                {
                  "internalType": "address",
                  "name": "privateFor",
                  "type": "address"
                }
              ],
              "internalType": "struct BkMarketplace.Players",
              "name": "players",
              "type": "tuple"
            }
          ],
          "internalType": "struct BkMarketplace.Order[]",
          "name": "_orders",
          "type": "tuple[]"
        }
      ],
      "stateMutability": "view",
      "type": "function"
    },
    {
      "inputs": [
        {
          "internalType": "bytes32",
          "name": "role",
          "type": "bytes32"
        }
      ],
      "name": "getRoleAdmin",
      "outputs": [
        {
          "internalType": "bytes32",
          "name": "",
          "type": "bytes32"
        }
      ],
      "stateMutability": "view",
      "type": "function"
    },
    {
      "inputs": [],
      "name": "gracePeriod",
      "outputs": [
        {
          "internalType": "uint256",
          "name": "",
          "type": "uint256"
        }
      ],
      "stateMutability": "view",
      "type": "function"
    },
    {
      "inputs": [
        {
          "internalType": "bytes32",
          "name": "role",
          "type": "bytes32"
        },
        {
          "internalType": "address",
          "name": "account",
          "type": "address"
        }
      ],
      "name": "grantRole",
      "outputs": [],
      "stateMutability": "nonpayable",
      "type": "function"
    },
    {
      "inputs": [],
      "name": "hasBlocklist",
      "outputs": [
        {
          "internalType": "bool",
          "name": "",
          "type": "bool"
        }
      ],
      "stateMutability": "view",
      "type": "function"
    },
    {
      "inputs": [
        {
          "internalType": "bytes32",
          "name": "role",
          "type": "bytes32"
        },
        {
          "internalType": "address",
          "name": "account",
          "type": "address"
        }
      ],
      "name": "hasRole",
      "outputs": [
        {
          "internalType": "bool",
          "name": "",
          "type": "bool"
        }
      ],
      "stateMutability": "view",
      "type": "function"
    },
    {
      "inputs": [
        {
          "internalType": "address",
          "name": "_operator",
          "type": "address"
        },
        {
          "internalType": "address",
          "name": "_blocklist",
          "type": "address"
        }
      ],
      "name": "initialize",
      "outputs": [],
      "stateMutability": "nonpayable",
      "type": "function"
    },
    {
      "inputs": [],
      "name": "lockPeriod",
      "outputs": [
        {
          "internalType": "uint256",
          "name": "",
          "type": "uint256"
        }
      ],
      "stateMutability": "view",
      "type": "function"
    },
    {
      "inputs": [
        {
          "internalType": "address",
          "name": "",
          "type": "address"
        }
      ],
      "name": "merchants",
      "outputs": [
        {
          "internalType": "uint256",
          "name": "auctions",
          "type": "uint256"
        },
        {
          "internalType": "uint256",
          "name": "sales",
          "type": "uint256"
        },
        {
          "internalType": "uint256",
          "name": "poolFuel",
          "type": "uint256"
        }
      ],
      "stateMutability": "view",
      "type": "function"
    },
    {
      "inputs": [],
      "name": "onERC721Received",
      "outputs": [
        {
          "internalType": "bytes4",
          "name": "",
          "type": "bytes4"
        }
      ],
      "stateMutability": "pure",
      "type": "function"
    },
    {
      "inputs": [
        {
          "internalType": "uint256",
          "name": "",
          "type": "uint256"
        }
      ],
      "name": "orderIdToAllowedBlock",
      "outputs": [
        {
          "internalType": "uint256",
          "name": "",
          "type": "uint256"
        }
      ],
      "stateMutability": "view",
      "type": "function"
    },
    {
      "inputs": [
        {
          "internalType": "uint256",
          "name": "",
          "type": "uint256"
        }
      ],
      "name": "orderIdToBids",
      "outputs": [
        {
          "internalType": "uint256",
          "name": "",
          "type": "uint256"
        }
      ],
      "stateMutability": "view",
      "type": "function"
    },
    {
      "inputs": [
        {
          "internalType": "uint256",
          "name": "",
          "type": "uint256"
        }
      ],
      "name": "orderIdToOrderIndex",
      "outputs": [
        {
          "internalType": "uint256",
          "name": "",
          "type": "uint256"
        }
      ],
      "stateMutability": "view",
      "type": "function"
    },
    {
      "inputs": [
        {
          "internalType": "uint256",
          "name": "",
          "type": "uint256"
        }
      ],
      "name": "orderIdToRemainingStableTokens",
      "outputs": [
        {
          "internalType": "uint256",
          "name": "",
          "type": "uint256"
        }
      ],
      "stateMutability": "view",
      "type": "function"
    },
    {
      "inputs": [
        {
          "internalType": "uint256",
          "name": "",
          "type": "uint256"
        }
      ],
      "name": "orders",
      "outputs": [
        {
          "internalType": "uint256",
          "name": "id",
          "type": "uint256"
        },
        {
          "internalType": "uint256",
          "name": "createdAt",
          "type": "uint256"
        },
        {
          "internalType": "bool",
          "name": "isActive",
          "type": "bool"
        },
        {
          "internalType": "bool",
          "name": "isDutchAuction",
          "type": "bool"
        },
        {
          "internalType": "bool",
          "name": "isPoolFuel",
          "type": "bool"
        },
        {
          "components": [
            {
              "internalType": "bool",
              "name": "isNft",
              "type": "bool"
            },
            {
              "internalType": "uint256",
              "name": "id",
              "type": "uint256"
            },
            {
              "internalType": "uint256",
              "name": "quantity",
              "type": "uint256"
            }
          ],
          "internalType": "struct BkMarketplace.Asset",
          "name": "asset",
          "type": "tuple"
        },
        {
          "components": [
            {
              "internalType": "bool",
              "name": "isNominalInStabletoken",
              "type": "bool"
            },
            {
              "internalType": "bool",
              "name": "isStabletokenOnly",
              "type": "bool"
            },
            {
              "internalType": "bool",
              "name": "allowEbct",
              "type": "bool"
            },
            {
              "internalType": "uint256",
              "name": "amount",
              "type": "uint256"
            },
            {
              "internalType": "uint256",
              "name": "secondaryReceiverPct",
              "type": "uint256"
            }
          ],
          "internalType": "struct BkMarketplace.Price",
          "name": "price",
          "type": "tuple"
        },
        {
          "components": [
            {
              "internalType": "address",
              "name": "seller",
              "type": "address"
            },
            {
              "internalType": "address",
              "name": "secondaryReceiver",
              "type": "address"
            },
            {
              "internalType": "address",
              "name": "privateFor",
              "type": "address"
            }
          ],
          "internalType": "struct BkMarketplace.Players",
          "name": "players",
          "type": "tuple"
        }
      ],
      "stateMutability": "view",
      "type": "function"
    },
    {
      "inputs": [],
      "name": "pause",
      "outputs": [],
      "stateMutability": "nonpayable",
      "type": "function"
    },
    {
      "inputs": [],
      "name": "paused",
      "outputs": [
        {
          "internalType": "bool",
          "name": "",
          "type": "bool"
        }
      ],
      "stateMutability": "view",
      "type": "function"
    },
    {
      "inputs": [
        {
          "internalType": "address",
          "name": "tokenAddress",
          "type": "address"
        },
        {
          "internalType": "address",
          "name": "to",
          "type": "address"
        },
        {
          "internalType": "uint256",
          "name": "amount",
          "type": "uint256"
        }
      ],
      "name": "recoverERC20",
      "outputs": [],
      "stateMutability": "nonpayable",
      "type": "function"
    },
    {
      "inputs": [
        {
          "internalType": "bytes32",
          "name": "role",
          "type": "bytes32"
        },
        {
          "internalType": "address",
          "name": "account",
          "type": "address"
        }
      ],
      "name": "renounceRole",
      "outputs": [],
      "stateMutability": "nonpayable",
      "type": "function"
    },
    {
      "inputs": [],
      "name": "reservedStableTokens",
      "outputs": [
        {
          "internalType": "uint256",
          "name": "",
          "type": "uint256"
        }
      ],
      "stateMutability": "view",
      "type": "function"
    },
    {
      "inputs": [
        {
          "internalType": "bytes32",
          "name": "role",
          "type": "bytes32"
        },
        {
          "internalType": "address",
          "name": "account",
          "type": "address"
        }
      ],
      "name": "revokeRole",
      "outputs": [],
      "stateMutability": "nonpayable",
      "type": "function"
    },
    {
      "inputs": [
        {
          "internalType": "address",
          "name": "blocklistAddress",
          "type": "address"
        }
      ],
      "name": "setBlocklist",
      "outputs": [],
      "stateMutability": "nonpayable",
      "type": "function"
    },
    {
      "inputs": [
        {
          "internalType": "address",
          "name": "_bct",
          "type": "address"
        },
        {
          "internalType": "address",
          "name": "_stabletoken",
          "type": "address"
        },
        {
          "internalType": "address",
          "name": "_nft",
          "type": "address"
        },
        {
          "internalType": "address",
          "name": "_pool",
          "type": "address"
        },
        {
          "internalType": "address",
          "name": "_farm",
          "type": "address"
        }
      ],
      "name": "setContracts",
      "outputs": [],
      "stateMutability": "nonpayable",
      "type": "function"
    },
    {
      "inputs": [
        {
          "internalType": "uint256",
          "name": "stabletokenAmount",
          "type": "uint256"
        }
      ],
      "name": "stabletokenToBct",
      "outputs": [
        {
          "internalType": "uint256",
          "name": "",
          "type": "uint256"
        }
      ],
      "stateMutability": "view",
      "type": "function"
    },
    {
      "inputs": [
        {
          "internalType": "bytes4",
          "name": "interfaceId",
          "type": "bytes4"
        }
      ],
      "name": "supportsInterface",
      "outputs": [
        {
          "internalType": "bool",
          "name": "",
          "type": "bool"
        }
      ],
      "stateMutability": "view",
      "type": "function"
    },
    {
      "inputs": [],
      "name": "totalOrderCountEver",
      "outputs": [
        {
          "internalType": "uint256",
          "name": "",
          "type": "uint256"
        }
      ],
      "stateMutability": "view",
      "type": "function"
    },
    {
      "inputs": [],
      "name": "unpause",
      "outputs": [],
      "stateMutability": "nonpayable",
      "type": "function"
    }
  ],
  "bytecode": "0x608060405234801561001057600080fd5b50614f07806100206000396000f3fe608060405234801561001057600080fd5b506004361061027f5760003560e01c80636c0f79b61161015c578063a8fcc417116100ce578063d547741f11610087578063d547741f146105ef578063d5a1237214610602578063e5c815e41461060b578063ee14e93914610614578063f63bf8bd1461065e578063fbe13d3a1461067157600080fd5b8063a8fcc4171461054c578063aef18ae714610561578063b2734eaf14610574578063b55fb574146105a9578063b5f63f60146105bc578063d09ef241146105cf57600080fd5b8063931da89b11610120578063931da89b146104d8578063961a929c146104eb578063a06db7dc146104f4578063a18fc7eb146104fd578063a217fddf1461051d578063a85c38ef1461052557600080fd5b80636c0f79b6146104465780637bea0d1c146104ac57806381b0ba11146104b45780638456cb59146104bd57806391d14854146104c557600080fd5b80633fd8b02f116101f5578063514fcac7116101b9578063514fcac7146103ce57806351fbacd9146103e15780635315450f146103f457806358ab482e146104075780635c975abb14610427578063634210f41461043257600080fd5b80633fd8b02f1461038357806341cba1241461038c57806341e80ad91461039f578063485cc955146103b25780634a47f2f1146103c557600080fd5b8063248a9ca311610247578063248a9ca3146102f157806328816bb1146103225780632f2ff15d146103425780632f65ef281461035557806336568abe146103685780633f4ba83a1461037b57600080fd5b806301ffc9a71461028457806303652027146102ac57806306a45070146102cc5780631171bda9146102d657806320999973146102e9575b600080fd5b6102976102923660046144ee565b610691565b60405190151581526020015b60405180910390f35b6102bf6102ba3660046145ab565b6106c8565b6040516102a39190614720565b6102d4610784565b005b6102d46102e4366004614786565b6107af565b6102d4610850565b6103146102ff3660046147c2565b60009081526068602052604090206001015490565b6040519081526020016102a3565b6103146103303660046147c2565b60db6020526000908152604090205481565b6102d46103503660046147db565b610936565b6102d4610363366004614820565b610960565b6102d46103763660046147db565b610e1b565b6102d4610e3a565b61031460005481565b6102bf61039a3660046147c2565b610e5d565b6103146103ad3660046147c2565b611048565b6102d46103c0366004614859565b6110c6565b61031460d75481565b6102d46103dc3660046147c2565b611257565b6102d46103ef366004614883565b61150e565b6102d461040236600461491c565b612082565b6103146104153660046147c2565b60d56020526000908152604090205481565b609a5460ff16610297565b60cc5461029790600160a01b900460ff1681565b60cd5460ce5460cf5460d05460d154610472946001600160a01b03908116948116938116928116911685565b604080516001600160a01b03968716815294861660208601529285169284019290925283166060830152909116608082015260a0016102a3565b6102bf6126d4565b61031460dc5481565b6102d4612825565b6102976104d33660046147db565b612845565b6102d46104e6366004614859565b612870565b61031460025481565b61031460d65481565b61031461050b3660046147c2565b60d96020526000908152604090205481565b610314600081565b6105386105333660046147c2565b61297e565b6040516102a3989796959493929190614a0e565b604051630a85bd0160e11b81526020016102a3565b6102d461056f366004614acb565b612a69565b610587610582366004614acb565b612aa9565b60408051825181526020808401519082015291810151908201526060016102a3565b6102d46105b73660046145ab565b612b0f565b6103146105ca3660046147c2565b612b4f565b6105e26105dd3660046147c2565b612b81565b6040516102a39190614ae6565b6102d46105fd3660046147db565b612cc0565b61031460d45481565b61031460d85481565b610643610622366004614acb565b60d26020526000908152604090208054600182015460029092015490919083565b604080519384526020840192909252908201526060016102a3565b6102d461066c366004614af5565b612ce5565b61031461067f3660046147c2565b60da6020526000908152604090205481565b60006001600160e01b03198216637965db0b60e01b14806106c257506301ffc9a760e01b6001600160e01b03198316145b92915050565b6060815167ffffffffffffffff8111156106e4576106e4614518565b60405190808252806020026020018201604052801561071d57816020015b61070a614456565b8152602001906001900390816107025790505b50905060005b825181101561077e5761074e83828151811061074157610741614b4e565b6020026020010151612b81565b82828151811061076057610760614b4e565b6020026020010181905250808061077690614b7a565b915050610723565b50919050565b600080516020614eb283398151915261079c81612ddd565b5060cc80546001600160a81b0319169055565b600080516020614eb28339815191526107c781612ddd565b60405163a9059cbb60e01b81526001600160a01b0384811660048301526024820184905285169063a9059cbb90604401602060405180830381600087803b15801561081157600080fd5b505af1158015610825573d6000803e3d6000fd5b505050506040513d601f19601f820116820180604052508101906108499190614b95565b5050505050565b600080516020614eb283398151915261086881612ddd565b60d35460009061087a90600190614bb2565b67ffffffffffffffff81111561089257610892614518565b6040519080825280602002602001820160405280156108bb578160200160208202803683370190505b50905060015b60d3548110156109285760d381815481106108de576108de614b4e565b60009182526020909120600c9091020154826108fb600184614bb2565b8151811061090b5761090b614b4e565b60209081029190910101528061092081614b7a565b9150506108c1565b5061093281612b0f565b5050565b60008281526068602052604090206001015461095181612ddd565b61095b8383612de7565b505050565b60cc54600160a81b900460ff16156109935760405162461bcd60e51b815260040161098a90614bc9565b60405180910390fd5b60cc805460ff60a81b1916600160a81b1790556109ae612e6d565b6002543a11156109d05760405162461bcd60e51b815260040161098a90614be8565b336109da81612eb5565b156109f75760405162461bcd60e51b815260040161098a90614c0a565b600084815260d5602052604081205460d380549091908110610a1b57610a1b614b4e565b60009182526020909120600c90910201600281015490915060ff16610a675760405162461bcd60e51b8152602060048201526002602482015261062760f31b604482015260640161098a565b6002810154610100900460ff16610aa55760405162461bcd60e51b8152602060048201526002602482015261313960f01b604482015260640161098a565b60098101546001600160a01b0316331415610ae75760405162461bcd60e51b8152602060048201526002602482015261032360f41b604482015260640161098a565b6001810154610af8906121c0614c2f565b4310610b2b5760405162461bcd60e51b8152602060048201526002602482015261323160f01b604482015260640161098a565b8215610b51576007810154606490610b44906070614c47565b610b4e9190614c66565b93505b6007810154606490610b64906070614c47565b610b6e9190614c66565b841015610ba25760405162461bcd60e51b8152602060048201526002602482015261191960f11b604482015260640161098a565b600b8101546001600160a01b0316331415610be45760405162461bcd60e51b8152602060048201526002602482015261323360f01b604482015260640161098a565b60ce546040516323b872dd60e01b81526001600160a01b03909116906323b872dd90610c1890339030908990600401614c88565b600060405180830381600087803b158015610c3257600080fd5b505af1158015610c46573d6000803e3d6000fd5b50505050600b8101546001600160a01b031660008115801590610c79575060098301546001600160a01b03838116911614155b15610d57576007830154606490610c91906069614c47565b610c9b9190614c66565b60ce5460405163a9059cbb60e01b81526001600160a01b0385811660048301526024820184905292935091169063a9059cbb90604401602060405180830381600087803b158015610ceb57600080fd5b505af1158015610cff573d6000803e3d6000fd5b505050506040513d601f19601f82011682018060405250810190610d239190614b95565b50610d2e8187614bb2565b600088815260db602052604081208054909190610d4c908490614c2f565b90915550610d699050565b600087815260db602052604090208690555b600b830180546001600160a01b0319163317905543600184015560078301869055600087815260da60205260408120805491610da483614b7a565b9091555050604080518881523360208201529081018790526001600160a01b0383166060820152608081018290524360a08201527fad2529a9ad2367f375af47554a9660baca1657f811acefad9b2829aee5c019179060c00160405180910390a1505060cc805460ff60a81b191690555050505050565b6001600160a01b0381163314610e3057600080fd5b6109328282612f4e565b600080516020614eb2833981519152610e5281612ddd565b610e5a612fb5565b50565b60d3546060906000838211610e73576000610e7d565b610e7d8483614bb2565b9050610e898183614bb2565b67ffffffffffffffff811115610ea157610ea1614518565b604051908082528060200260200182016040528015610eda57816020015b610ec7614456565b815260200190600190039081610ebf5790505b509250805b828110156110405760d38181548110610efa57610efa614b4e565b6000918252602091829020604080516101008082018352600c90940290920180548352600181015483860152600281015460ff808216151585850152858204811615156060808701919091526201000092839004821615156080808801919091528551808301875260038601548416151581526004860154818b015260058601548188015260a0808901919091528651908101875260068601548085161515825298890484161515818b01529390970490911615158285015260078301548282015260088301549582019590955260c08401528151938401825260098101546001600160a01b039081168552600a820154811695850195909552600b01549093169282019290925260e0820152846110128484614bb2565b8151811061102257611022614b4e565b6020026020010181905250808061103890614b7a565b915050610edf565b505050919050565b60d054604051634ca1cccb60e11b8152600481018390526000916001600160a01b0316906399439996906024015b60206040518083038186803b15801561108e57600080fd5b505afa1580156110a2573d6000803e3d6000fd5b505050506040513d601f19601f820116820180604052508101906106c29190614cac565b600354610100900460ff16158080156110e65750600354600160ff909116105b806111005750303b158015611100575060035460ff166001145b61110957600080fd5b6003805460ff19166001179055801561112c576003805461ff0019166101001790555b6111368383612870565b604080516101008101825260008082526020808301829052828401829052606080840183905260808085018490528551808301875284815280840185905280870185905260a0808701919091528651908101875284815280840185905280870185905280830185905290810184905260c0850152845190810185528281529081018290529283015260e08101919091526111cf81613007565b60d480549060006111df83614b7a565b9091555050600260d781905560d6556111f86004600055565b61120664012a05f200600255565b50608260d855801561095b576003805461ff0019169055604051600181527f7f26b83ff96e1f2b6a682f133852f6798a09c465da95921460cefb3847402498906020015b60405180910390a1505050565b61125f612e6d565b6002543a11156112815760405162461bcd60e51b815260040161098a90614be8565b3361128b81612eb5565b156112a85760405162461bcd60e51b815260040161098a90614c0a565b60006112b383612b81565b8051909150831480156112c7575080604001515b6112f85760405162461bcd60e51b8152602060048201526002602482015261031360f41b604482015260640161098a565b60e0810151516001600160a01b03163314806113275750611327600080516020614eb283398151915233612845565b6113585760405162461bcd60e51b8152602060048201526002602482015261313160f01b604482015260640161098a565b60a08101516020810151815160409092015160e08401515191929161137c876132f6565b6040518781527f61b9399f2f0f32ca39ce8d7be32caed5ec22fe07a6daba3a467ed479ec6065829060200160405180910390a18261149e5760006113c1856001614c2f565b67ffffffffffffffff8111156113d9576113d9614518565b604051908082528060200260200182016040528015611402578160200160208202803683370190505b509050611410836064614c47565b81868151811061142257611422614b4e565b602090810291909101015260d15460405163b238d31960e01b81526001600160a01b039091169063b238d31990611466903090869060009081908890600401614d00565b600060405180830381600087803b15801561148057600080fd5b505af1158015611494573d6000803e3d6000fd5b5050505050611505565b60cf546040516323b872dd60e01b81526001600160a01b03909116906323b872dd906114d290309085908990600401614c88565b600060405180830381600087803b1580156114ec57600080fd5b505af1158015611500573d6000803e3d6000fd5b505050505b50505050505050565b60cc54600160a81b900460ff16156115385760405162461bcd60e51b815260040161098a90614bc9565b60cc805460ff60a81b1916600160a81b179055611553612e6d565b6002543a11156115755760405162461bcd60e51b815260040161098a90614be8565b3361157f81612eb5565b1561159c5760405162461bcd60e51b815260040161098a90614c0a565b336000908152600160205260409020544310156115e65760405162461bcd60e51b815260206004820152600860248201526731b7b7b63237bbb760c11b604482015260640161098a565b6115ef3361370c565b60006115fa86612b81565b905080604001516116315760405162461bcd60e51b81526020600482015260016024820152603160f81b604482015260640161098a565b600086815260d9602052604090205443116116725760405162461bcd60e51b81526020600482015260016024820152601960f91b604482015260640161098a565b60e0810151516001600160a01b031633148015906116a1575060e0810151602001516001600160a01b03163314155b6116d15760405162461bcd60e51b81526020600482015260016024820152603360f81b604482015260640161098a565b60e0810151604001516001600160a01b03163314806116ff575060e0810151604001516001600160a01b0316155b61172f5760405162461bcd60e51b81526020600482015260016024820152600d60fa1b604482015260640161098a565b60a08101515180156117415750846001145b8061174c5750600085115b61177c5760405162461bcd60e51b81526020600482015260016024820152603560f81b604482015260640161098a565b8060c001516020015180611791575080608001515b156117c757836117c75760405162461bcd60e51b81526020600482015260016024820152600760fb1b604482015260640161098a565b8215611806578060c00151604001516118065760405162461bcd60e51b81526020600482015260016024820152603960f81b604482015260640161098a565b60c08101516060908101519082015161183257858260c001516060015161182d9190614c47565b61183c565b8160c00151606001515b8260c0015160600181815250506000826060015115611b2f578260a001516040015187146118905760405162461bcd60e51b81526020600482015260016024820152601b60f91b604482015260640161098a565b60208301516118a1906121c0614c2f565b4310156118d55760405162461bcd60e51b8152602060048201526002602482015261189960f11b604482015260640161098a565b60e0830151604001516001600160a01b0316331461191a5760405162461bcd60e51b8152602060048201526002602482015261323360f01b604482015260640161098a565b600088815260db602052604081205460dc80549192909161193c908490614c2f565b90915550505060c08201516060015160e0830151516001600160a01b0316600090815260d26020526040812080549161197483614b7a565b90915550506040805160198082526103408201909252600091602082016103208036833750505060008a815260da60205260409020549091506119b8906064614c47565b816016815181106119cb576119cb614b4e565b60200260200101818152505060da60008a81526020019081526020016000205460326119f79190614c47565b81601781518110611a0a57611a0a614b4e565b60200260200101818152505060da60008a8152602001908152602001600020546019611a369190614c47565b81601881518110611a4957611a49614b4e565b60209081029190910181019190915260008a815260da9091526040812054611a729060fa614c47565b611a8490670de0b6b3a7640000614c47565b60d1546040516304567ca960e11b81529192506001600160a01b0316906308acf95290611ab990339085908790600401614d45565b600060405180830381600087803b158015611ad357600080fd5b505af1158015611ae7573d6000803e3d6000fd5b505050507faa629ae4fb4821590b1dbb00ee486eea3d9657cdc997071b55d681e1915f1a6a8a338385604051611b209493929190614d75565b60405180910390a15050611dbd565b8260a0015160400151871115611b6b5760405162461bcd60e51b81526020600482015260016024820152603760f81b604482015260640161098a565b611bc96040518060800160405280336001600160a01b031681526020018560e0015181526020018560c00151815260200160405180606001604052808a15158152602001891515815260200187608001511515815250815250613735565b9050858015611be157508260a0015160200151601514155b15611dbd576040805160168082526102e08201909252600091602082016102c08036833701905050905060008460800151611c2d57611c28670de0b6b3a764000084614c66565b611c4b565b670de0b6b3a7640000611c41846032614c47565b611c4b9190614c66565b90508082601581518110611c6157611c61614b4e565b602090810291909101015260d1546040516304567ca960e11b81526001600160a01b03909116906308acf95290611ca19033906000908790600401614d45565b600060405180830381600087803b158015611cbb57600080fd5b505af1158015611ccf573d6000803e3d6000fd5b505060d15460e0880151516040516304567ca960e11b81526001600160a01b0390921693506308acf9529250611d0c916000908790600401614d45565b600060405180830381600087803b158015611d2657600080fd5b505af1158015611d3a573d6000803e3d6000fd5b505050507f1249c3c2fcdc6e7920d0a837fa922afce682b7265e59c75ac4a7ddd360e8ccdf303383604051611d7193929190614c88565b60405180910390a160e0850151516040517f1249c3c2fcdc6e7920d0a837fa922afce682b7265e59c75ac4a7ddd360e8ccdf91611db2913091908590614c88565b60405180910390a150505b60e0830151516001600160a01b0316600090815260d260205260408120600101805491611de983614b7a565b909155505060a083015151611ef45760008360a00151602001516001611e0f9190614c2f565b67ffffffffffffffff811115611e2757611e27614518565b604051908082528060200260200182016040528015611e50578160200160208202803683370190505b509050611e5e886064614c47565b818560a001516020015181518110611e7857611e78614b4e565b602090810291909101015260d15460405163b238d31960e01b81526001600160a01b039091169063b238d31990611ebc903090339060009081908890600401614d00565b600060405180830381600087803b158015611ed657600080fd5b505af1158015611eea573d6000803e3d6000fd5b5050505050611f62565b60cf5460a0840151602001516040516323b872dd60e01b81526001600160a01b03909216916323b872dd91611f2f9130913391600401614c88565b600060405180830381600087803b158015611f4957600080fd5b505af1158015611f5d573d6000803e3d6000fd5b505050505b7f55e5c5faba836ee00f897ace65821e477e158a25ac610fd675b598b5fccbef4a888460a00151602001518560a00151604001518a8760e00151600001513388888b60c00151600001518f8f8e60a00151600001516040516120329c9b9a999897969594939291909b8c5260208c019a909a5260408b019890985260608a01969096526001600160a01b0394851660808a01529290931660a088015260c087015260e086019190915215156101008501521515610120840152151561014083015215156101608201526101800190565b60405180910390a18260a001516040015187141561205857612053886132f6565b61206b565b61206b888460a001516040015189613771565b505060cc805460ff60a81b19169055505050505050565b60cc54600160a81b900460ff16156120ac5760405162461bcd60e51b815260040161098a90614bc9565b60cc805460ff60a81b1916600160a81b1790556120c7612e6d565b6002543a11156120e95760405162461bcd60e51b815260040161098a90614be8565b336000908152600160205260409020544310156121335760405162461bcd60e51b815260206004820152600860248201526731b7b7b63237bbb760c11b604482015260640161098a565b61213c3361370c565b61214533612eb5565b156121775760405162461bcd60e51b8152602060048201526002602482015261189b60f11b604482015260640161098a565b60008460600151116121af5760405162461bcd60e51b81526020600482015260016024820152606160f81b604482015260640161098a565b6064846080015111156121e85760405162461bcd60e51b81526020600482015260016024820152603160f91b604482015260640161098a565b845180156121fa575084604001516001145b80612209575060008560400151115b6122395760405162461bcd60e51b81526020600482015260016024820152606360f81b604482015260640161098a565b6122637f3c4a2d89ed8b4cf4347fec87df1c38410f8fc538bf9fd64c10f2717bc0feff3633612845565b6122dd5760408301516001600160a01b0316156122a65760405162461bcd60e51b81526020600482015260016024820152601960fa1b604482015260640161098a565b81156122d85760405162461bcd60e51b81526020600482015260016024820152606560f81b604482015260640161098a565b6123c0565b81156123c05760408301516001600160a01b031633146123235760405162461bcd60e51b81526020600482015260016024820152600d60fb1b604482015260640161098a565b83602001516123585760405162461bcd60e51b81526020600482015260016024820152606960f81b604482015260640161098a565b835161238a5760405162461bcd60e51b81526020600482015260016024820152603560f91b604482015260640161098a565b8360400151156123c05760405162461bcd60e51b81526020600482015260016024820152606b60f81b604482015260640161098a565b84516124c0576000856020015160016123d99190614c2f565b67ffffffffffffffff8111156123f1576123f1614518565b60405190808252806020026020018201604052801561241a578160200160208202803683370190505b5090508560400151606461242e9190614c47565b8187602001518151811061244457612444614b4e565b602090810291909101015260d15460405163b238d31960e01b81526001600160a01b039091169063b238d31990612488903390309060009081908890600401614d00565b600060405180830381600087803b1580156124a257600080fd5b505af11580156124b6573d6000803e3d6000fd5b505050505061252a565b60cf5460208601516040516323b872dd60e01b81526001600160a01b03909216916323b872dd916124f79133913091600401614c88565b600060405180830381600087803b15801561251157600080fd5b505af1158015612525573d6000803e3d6000fd5b505050505b801561259e5783602001516125655760405162461bcd60e51b81526020600482015260016024820152603360f91b604482015260640161098a565b84602001516015141561259e5760405162461bcd60e51b81526020600482015260016024820152606760f81b604482015260640161098a565b60d4805490819060006125b083614b7a565b91905055506125fe6040518061010001604052808381526020014381526020016001151581526020018515158152602001841515815260200188815260200187815260200186815250613007565b6020808701516040808901518751888301516060808c01518c8601518e518e518f8b015189518d8152439c81019c909c52988b0199909952928901959095526001600160a01b0393841660808901529290911660a087015260c086019190915290151560e0850152151561010084015290151561012083015215156101408201528315156101608201528215156101808201527fbb7e3525b3f590866b81920d4d607f051f65051616125833b3548843c960172d906101a00160405180910390a1505060cc805460ff60a81b1916905550505050565b606060d3805480602002602001604051908101604052809291908181526020016000905b8282101561281c576000848152602090819020604080516101008082018352600c87029093018054825260018082015483870152600282015460ff808216151585870152868204811615156060808701919091526201000092839004821615156080808801919091528751808301895260038701548416151581526004870154818c01526005870154818a015260a08089019190915288519081018952600687015480851615158252998a0484161515818c01529390980490911615158287015260078401548282015260088401549682019690965260c08401528351948501845260098201546001600160a01b039081168652600a830154811686880152600b909201549091169284019290925260e081019290925290835290920191016126f8565b50505050905090565b600080516020614eb283398151915261283d81612ddd565b610e5a61380d565b60009182526068602090815260408084206001600160a01b0393909316845291905290205460ff1690565b600354610100900460ff16158080156128905750600354600160ff909116105b806128aa5750303b1580156128aa575060035460ff166001145b6128b357600080fd5b6003805460ff1916600117905580156128d6576003805461ff0019166101001790555b6128de61384a565b6128e661385e565b6128f160008461387a565b612909600080516020614eb28339815191528461387a565b6129337f73e573f9566d61418a34d5de3ff49360f9c51fec37f7486551670290f6285dab8461387a565b61293c82612a69565b801561095b576003805461ff0019169055604051600181527f7f26b83ff96e1f2b6a682f133852f6798a09c465da95921460cefb38474024989060200161124a565b60d3818154811061298e57600080fd5b6000918252602091829020600c909102018054600182015460028301546040805160608082018352600387015460ff908116151583526004880154838a0152600588015483850152835160a08101855260068901548083161515825261010080820484161515838d01526201000091829004841615158388015260078b01548386015260088b015460808401528651948501875260098b01546001600160a01b039081168652600a8c015481169c86019c909c52600b909a0154909a1694830194909452959850939685841696840486169593049092169288565b600080516020614eb2833981519152612a8181612ddd565b5060cc80546001600160a81b0319166001600160a01b0390921691909117600160a01b179055565b612acd60405180606001604052806000815260200160008152602001600081525090565b506001600160a01b0316600090815260d26020908152604091829020825160608101845281548152600182015492810192909252600201549181019190915290565b60005b815181101561093257612b3d828281518110612b3057612b30614b4e565b6020026020010151611257565b80612b4781614b7a565b915050612b12565b60d05460405163526267fd60e11b8152600481018390526000916001600160a01b03169063a4c4cffa90602401611076565b612b89614456565b600082815260d5602052604090205460d380549091908110612bad57612bad614b4e565b6000918252602091829020604080516101008082018352600c90940290920180548352600181015483860152600281015460ff808216151585850152858204811615156060808701919091526201000092839004821615156080808801919091528551808301875260038601548416151581526004860154818b015260058601548188015260a0808901919091528651908101875260068601548085161515825298890484161515818b01529390970490911615158285015260078301548282015260088301549582019590955260c08401528151938401825260098101546001600160a01b039081168552600a820154811695850195909552600b01549093169282019290925260e082015292915050565b600082815260686020526040902060010154612cdb81612ddd565b61095b8383612f4e565b600080516020614eb2833981519152612cfd81612ddd565b6040805160a0810182526001600160a01b038881168083528882166020840181905288831684860181905288841660608601819052938816608090950185905260cd80546001600160a01b0319908116909417905560ce805484168317905560cf80548416909117905560d0805483168417905560d180549092169093179055915163095ea7b360e01b8152600481019290925260001960248301529063095ea7b390604401600060405180830381600087803b158015612dbd57600080fd5b505af1158015612dd1573d6000803e3d6000fd5b50505050505050505050565b610e5a8133613884565b612df18282612845565b6109325760008281526068602090815260408083206001600160a01b03851684529091529020805460ff19166001179055612e293390565b6001600160a01b0316816001600160a01b0316837f2f8788117e7eff1d82e926ec794901d17c78024a50270940304540a733656f0d60405160405180910390a45050565b609a5460ff1615612eb35760405162461bcd60e51b815260206004820152601060248201526f14185d5cd8589b194e881c185d5cd95960821b604482015260640161098a565b565b60cc54600090600160a01b900460ff16612ed157506000919050565b60cc54604051638e204c4360e01b81526001600160a01b03848116600483015290911690638e204c439060240160206040518083038186803b158015612f1657600080fd5b505afa158015612f2a573d6000803e3d6000fd5b505050506040513d601f19601f820116820180604052508101906106c29190614b95565b612f588282612845565b156109325760008281526068602090815260408083206001600160a01b0385168085529252808320805460ff1916905551339285917ff6391f5c32d9c69d2a47ea670b442974b53935d1edc7fd64eb21e047a839171b9190a45050565b612fbd6138dd565b609a805460ff191690557f5db9ee0a495bf2e6ff9c91a7834c1ba4fdd244a5e8aa4e537bd38aeae4b073aa335b6040516001600160a01b03909116815260200160405180910390a1565b60d3805460018082018355600083905283517f915c3eb987b20e1af620c1403197bf687fb7f18513b3a73fde6e78c7072c41a6600c909302928301556020808501517f915c3eb987b20e1af620c1403197bf687fb7f18513b3a73fde6e78c7072c41a78401556040808601517f915c3eb987b20e1af620c1403197bf687fb7f18513b3a73fde6e78c7072c41a8850180546060808a01516080808c015161ffff1994851696151561ff00199081169790971761010093151584021762ff0000199081166201000092151583021790965560a08d015180517f915c3eb987b20e1af620c1403197bf687fb7f18513b3a73fde6e78c7072c41a98d01805460ff1916911515919091179055808a01517f915c3eb987b20e1af620c1403197bf687fb7f18513b3a73fde6e78c7072c41aa8d01558801517f915c3eb987b20e1af620c1403197bf687fb7f18513b3a73fde6e78c7072c41ab8c015560c08d015180517f915c3eb987b20e1af620c1403197bf687fb7f18513b3a73fde6e78c7072c41ac8d018054838d0151848d015191909916921515909a16919091179615159094029590951790951695151590940294909417909355918201517f915c3eb987b20e1af620c1403197bf687fb7f18513b3a73fde6e78c7072c41ad87015501517f915c3eb987b20e1af620c1403197bf687fb7f18513b3a73fde6e78c7072c41ae85015560e086015180517f915c3eb987b20e1af620c1403197bf687fb7f18513b3a73fde6e78c7072c41af860180546001600160a01b03199081166001600160a01b0393841617909155938201517f915c3eb987b20e1af620c1403197bf687fb7f18513b3a73fde6e78c7072c41b08701805486169183169190911790559101517f915c3eb987b20e1af620c1403197bf687fb7f18513b3a73fde6e78c7072c41b1909401805490921693169290921790915590546132c59190614bb2565b8151600090815260d5602052604090205560d6546132e39043614c2f565b9051600090815260d96020526040902055565b600081815260d5602052604090205460d3548110801561331557508015155b6133465760405162461bcd60e51b8152602060048201526002602482015261189b60f11b604482015260640161098a565b600060d3828154811061335b5761335b614b4e565b90600052602060002090600c020190508281600001541480156133825750600281015460ff165b6133b35760405162461bcd60e51b8152602060048201526002602482015261313760f01b604482015260640161098a565b60028101805460ff1916905560d38054600091906133d390600190614bb2565b815481106133e3576133e3614b4e565b6000918252602091829020604080516101008082018352600c90940290920180548352600181015483860152600281015460ff808216151585850152858204811615156060808701919091526201000092839004821615156080808801919091528551808301875260038601548416151581526004860154818b015260058601548188015260a0808901919091528651908101875260068601548085161515825298890484161515818b01529390970490911615158285015260078301548282015260088301549582019590955260c08401528151938401825260098101546001600160a01b039081168552600a820154811695850195909552600b01549093169282019290925260e082015280519091508414613653578060d3848154811061350f5761350f614b4e565b600091825260208083208451600c93909302019182558381015160018301556040808501516002840180546060808901516080808b015161ffff1994851696151561ff00199081169790971761010093151584021762ff0000199081166201000092151583021790965560a08c0151805160038c01805460ff1916911515919091179055808a015160048c015588015160058b015560c08c0151805160068c018054838d0151848d015191909916921515909a169190911796151590940295909517909516951515909402949094179093559182015160078601550151600884015560e09094015180516009840180546001600160a01b03199081166001600160a01b039384161790915582840151600a86018054831691841691909117905591860151600b90940180549092169316929092179091558351825260d59052208390555b60d380548061366457613664614dac565b60008281526020808220600c600019909401938402018281556001810183905560028101805462ffffff1990811690915560038201805460ff191690556004820184905560058201849055600682018054909116905560078101839055600881018390556009810180546001600160a01b0319908116909155600a8201805482169055600b909101805490911690559190925594815260d59094525050604082209190915550565b6000546137199043614c2f565b6001600160a01b03909116600090815260016020526040902055565b6060810151516000901561374c576106c282613926565b81606001516020015115613763576106c28261395f565b6106c282613a3d565b919050565b7fe9e92ca155f7f849e8406a526168717b9ff4b506da09f38a5543e7554edee45d838361379e8482614bb2565b6040805193845260208401929092529082015260600160405180910390a1600083815260d5602052604090205460d3805483929081106137e0576137e0614b4e565b90600052602060002090600c020160030160020160008282546138039190614bb2565b9091555050505050565b613815612e6d565b609a805460ff191660011790557f62e78cea01bee320cd4e420270b5ea74000d11b0c9f74754ebdbfc544b05a258612fea3390565b600354610100900460ff16612eb357600080fd5b600354610100900460ff1661387257600080fd5b612eb3613aaf565b6109328282612de7565b61388e8282612845565b6109325761389b81613acf565b6138a6836020613ae1565b6040516020016138b7929190614df2565b60408051601f198184030181529082905262461bcd60e51b825261098a91600401614e67565b609a5460ff16612eb35760405162461bcd60e51b815260206004820152601460248201527314185d5cd8589b194e881b9bdd081c185d5cd95960621b604482015260640161098a565b60408101515160009061394957613944826040015160600151612b4f565b613953565b8160400151606001515b905061376c8282613c41565b600081604001516040015161399b5760405162461bcd60e51b8152602060048201526002602482015261313360f01b604482015260640161098a565b816040015160200151156139d65760405162461bcd60e51b81526020600482015260026024820152610c4d60f21b604482015260640161098a565b604082015151613a0757606460d8548360400151606001516139f89190614c47565b613a029190614c66565b613a31565b606460d854613a1d846040015160600151611048565b613a279190614c47565b613a319190614c66565b905061376c8282613eb0565b600081604001516020015115613a7a5760405162461bcd60e51b8152602060048201526002602482015261313560f01b604482015260640161098a565b604082015151613a9257816040015160600151613aa3565b613aa3826040015160600151611048565b905061376c8282613f9e565b600354610100900460ff16613ac357600080fd5b609a805460ff19169055565b60606106c26001600160a01b03831660145b60606000613af0836002614c47565b613afb906002614c2f565b67ffffffffffffffff811115613b1357613b13614518565b6040519080825280601f01601f191660200182016040528015613b3d576020820181803683370190505b509050600360fc1b81600081518110613b5857613b58614b4e565b60200101906001600160f81b031916908160001a905350600f60fb1b81600181518110613b8757613b87614b4e565b60200101906001600160f81b031916908160001a9053506000613bab846002614c47565b613bb6906001614c2f565b90505b6001811115613c2e576f181899199a1a9b1b9c1cb0b131b232b360811b85600f1660108110613bea57613bea614b4e565b1a60f81b828281518110613c0057613c00614b4e565b60200101906001600160f81b031916908160001a90535060049490941c93613c2781614e9a565b9050613bb9565b508315613c3a57600080fd5b9392505050565b81606001516040015115613d6957602080830151516001600160a01b0316600090815260d2909152604081206002018054839290613c80908490614c2f565b909155505060ce5482516040516323b872dd60e01b81526001600160a01b03909216916323b872dd91613cb99130908690600401614c88565b600060405180830381600087803b158015613cd357600080fd5b505af1158015613ce7573d6000803e3d6000fd5b505060d054604051630d3990db60e21b8152600481018590526001600160a01b0390911692506334e6436c9150602401602060405180830381600087803b158015613d3157600080fd5b505af1158015613d45573d6000803e3d6000fd5b505050506040513d601f19601f8201168201806040525081019061095b9190614cac565b600080600080613d81858760400151608001516141fe565b895160208b0151519498509296509094509250613da791613da28488614c2f565b614281565b613dbe866000015187602001516020015185614281565b8115613ea85760ce5486516040516323b872dd60e01b81526001600160a01b03909216916323b872dd91613df89130908790600401614c88565b600060405180830381600087803b158015613e1257600080fd5b505af1158015613e26573d6000803e3d6000fd5b505060d054604051630d3990db60e21b8152600481018690526001600160a01b0390911692506334e6436c9150602401602060405180830381600087803b158015613e7057600080fd5b505af1158015613e84573d6000803e3d6000fd5b505050506040513d601f19601f820116820180604052508101906115059190614cac565b505050505050565b600080600080613ec8858760400151608001516141fe565b895160208b0151519498509296509094509250613eee91613ee98488614c2f565b6142e9565b613f058660000151876020015160200151856142e9565b8115613ea85760d15486516040805160008152602081019182905263b1918c9560e01b9091526001600160a01b039092169163b1918c9591613f4c91869060248101614d45565b602060405180830381600087803b158015613f6657600080fd5b505af1158015613f7a573d6000803e3d6000fd5b505050506040513d601f19601f820116820180604052508101906115059190614b95565b60d154825160405163366d7a6b60e21b81526001600160a01b039182166004820152600092919091169063d9b5e9ac9060240160206040518083038186803b158015613fe957600080fd5b505afa158015613ffd573d6000803e3d6000fd5b505050506040513d601f19601f820116820180604052508101906140219190614cac565b90506000828210156140335781614035565b825b90506000838310156140505761404b8385614bb2565b614053565b60005b9050811561412a57600080600080614073868a60400151608001516141fe565b8c5160208e0151519498509296509094509250614099916140948488614c2f565b6143b5565b6140b089600001518a6020015160200151856143b5565b81156141255760d1548951604051631e59b34d60e11b81526001600160a01b0391821660048201526024810185905260006044820152911690633cb3669a90606401600060405180830381600087803b15801561410c57600080fd5b505af1158015614120573d6000803e3d6000fd5b505050505b505050505b801561084957600080600080614148858a60400151608001516141fe565b8c5160208e015151949850929650909450925061416e916141698488614c2f565b61441c565b61418589600001518a60200151602001518561441c565b81156141f35760cd54895160405163079cc67960e41b81526001600160a01b039182166004820152602481018590529116906379cc679090604401600060405180830381600087803b1580156141da57600080fd5b505af11580156141ee573d6000803e3d6000fd5b505050505b505050505050505050565b600080600080600090506000606460d7548861421a9190614c47565b6142249190614c66565b90506142308282614bb2565b925060648661423f838a614bb2565b6142499190614c47565b6142539190614c66565b93508183614261868a614bb2565b61426b9190614bb2565b6142759190614bb2565b94505092959194509250565b801561095b5760ce546040516323b872dd60e01b81526001600160a01b03909116906323b872dd906142bb90869086908690600401614c88565b600060405180830381600087803b1580156142d557600080fd5b505af1158015611505573d6000803e3d6000fd5b801561095b5760d1546001600160a01b031663b238d31984846000858160405190808252806020026020018201604052801561432f578160200160208202803683370190505b506040518663ffffffff1660e01b8152600401614350959493929190614d00565b600060405180830381600087803b15801561436a57600080fd5b505af115801561437e573d6000803e3d6000fd5b505050507f4bb45d1d94c3cc2ea51bc37e3446850ae2db949bfe7a06a04594b66d70027bb383838360405161124a93929190614c88565b801561095b5760d1546001600160a01b031663b238d3198484846000806040519080825280602002602001820160405280156143fb578160200160208202803683370190505b506040518663ffffffff1660e01b81526004016142bb959493929190614d00565b801561095b5760cd546040516323b872dd60e01b81526001600160a01b03909116906323b872dd906142bb90869086908690600401614c88565b60408051610100810182526000808252602080830182905282840182905260608084018390526080840183905284519081018552828152908101829052928301529060a082019081526040805160a08101825260008082526020828101829052928201819052606082018190526080820152910190815260408051606081018252600080825260208281018290529282015291015290565b60006020828403121561450057600080fd5b81356001600160e01b031981168114613c3a57600080fd5b634e487b7160e01b600052604160045260246000fd5b6040516060810167ffffffffffffffff8111828210171561455157614551614518565b60405290565b60405160a0810167ffffffffffffffff8111828210171561455157614551614518565b604051601f8201601f1916810167ffffffffffffffff811182821017156145a3576145a3614518565b604052919050565b600060208083850312156145be57600080fd5b823567ffffffffffffffff808211156145d657600080fd5b818501915085601f8301126145ea57600080fd5b8135818111156145fc576145fc614518565b8060051b915061460d84830161457a565b818152918301840191848101908884111561462757600080fd5b938501935b838510156146455784358252938501939085019061462c565b98975050505050505050565b805182526020810151602083015260408101511515604083015260608101511515606083015260808101511515608083015260a08101516146ab60a084018280511515825260208082015190830152604090810151910152565b5060c0810151805115156101008401526020810151151561012084015260408101511515610140840152606081015161016084015260808101516101808401525060e0015180516001600160a01b039081166101a0840152602082015181166101c0840152604090910151166101e090910152565b6020808252825182820181905260009190848201906040850190845b818110156147635761474f838551614651565b92840192610200929092019160010161473c565b50909695505050505050565b80356001600160a01b038116811461376c57600080fd5b60008060006060848603121561479b57600080fd5b6147a48461476f565b92506147b26020850161476f565b9150604084013590509250925092565b6000602082840312156147d457600080fd5b5035919050565b600080604083850312156147ee57600080fd5b823591506147fe6020840161476f565b90509250929050565b8015158114610e5a57600080fd5b803561376c81614807565b60008060006060848603121561483557600080fd5b8335925060208401359150604084013561484e81614807565b809150509250925092565b6000806040838503121561486c57600080fd5b6148758361476f565b91506147fe6020840161476f565b6000806000806080858703121561489957600080fd5b843593506020850135925060408501356148b281614807565b915060608501356148c281614807565b939692955090935050565b6000606082840312156148df57600080fd5b6148e761452e565b90506148f28261476f565b81526149006020830161476f565b60208201526149116040830161476f565b604082015292915050565b60008060008060008587036101a081121561493657600080fd5b606081121561494457600080fd5b61494c61452e565b873561495781614807565b81526020888101359082015260408089013590820152955060a0605f198201121561498157600080fd5b5061498a614557565b606087013561499881614807565b815260808701356149a881614807565b602082015260a08701356149bb81614807565b604082015260c0870135606082015260e0870135608082015293506149e48761010088016148cd565b92506149f36101608701614815565b9150614a026101808701614815565b90509295509295909350565b888152602081018890528615156040820152851515606082015284151560808201526102008101614a5860a083018680511515825260208082015190830152604090810151910152565b8351151561010083015260208401511515610120830152604084015115156101408301526060840151610160830152608084015161018083015282516001600160a01b039081166101a0840152602084015181166101c08401526040840151166101e08301529998505050505050505050565b600060208284031215614add57600080fd5b613c3a8261476f565b61020081016106c28284614651565b600080600080600060a08688031215614b0d57600080fd5b614b168661476f565b9450614b246020870161476f565b9350614b326040870161476f565b9250614b406060870161476f565b9150614a026080870161476f565b634e487b7160e01b600052603260045260246000fd5b634e487b7160e01b600052601160045260246000fd5b6000600019821415614b8e57614b8e614b64565b5060010190565b600060208284031215614ba757600080fd5b8151613c3a81614807565b600082821015614bc457614bc4614b64565b500390565b6020808252600590820152640daeae8caf60db1b604082015260600190565b6020808252600890820152670cec2e664d0d2ced60c31b604082015260600190565b6020808252600b908201526a109b1bd8dadb1a5cdd195960aa1b604082015260600190565b60008219821115614c4257614c42614b64565b500190565b6000816000190483118215151615614c6157614c61614b64565b500290565b600082614c8357634e487b7160e01b600052601260045260246000fd5b500490565b6001600160a01b039384168152919092166020820152604081019190915260600190565b600060208284031215614cbe57600080fd5b5051919050565b600081518084526020808501945080840160005b83811015614cf557815187529582019590820190600101614cd9565b509495945050505050565b6001600160a01b03868116825285166020820152604081018490526060810183905260a060808201819052600090614d3a90830184614cc5565b979650505050505050565b60018060a01b0384168152826020820152606060408201526000614d6c6060830184614cc5565b95945050505050565b84815260018060a01b0384166020820152826040820152608060608201526000614da26080830184614cc5565b9695505050505050565b634e487b7160e01b600052603160045260246000fd5b60005b83811015614ddd578181015183820152602001614dc5565b83811115614dec576000848401525b50505050565b7f416363657373436f6e74726f6c3a206163636f756e7420000000000000000000815260008351614e2a816017850160208801614dc2565b7001034b99036b4b9b9b4b733903937b6329607d1b6017918401918201528351614e5b816028840160208801614dc2565b01602801949350505050565b6020815260008251806020840152614e86816040850160208701614dc2565b601f01601f19169190910160400192915050565b600081614ea957614ea9614b64565b50600019019056fe97667070c54ef182b0f5858b034beac1b6f3089aa2d3188bb1e8929f4fa9b929a2646970667358221220f4a3b4c3f592d8ccdfdb5533f76949509b8614dc5f7be7c3d3b754aac4afa6fc64736f6c63430008090033",
  "linkReferences": {},
  "deployedLinkReferences": {}
}