{
  "_format": "hh-sol-artifact-1",
  "contractName": "BkMarketplace",
  "sourceName": "contracts/features/BkMarketplace.sol",
  "abi": [
    {
      "anonymous": false,
      "inputs": [
        {
          "indexed": false,
          "internalType": "uint256",
          "name": "orderId",
          "type": "uint256"
        },
        {
          "indexed": false,
          "internalType": "address",
          "name": "bidder",
          "type": "address"
        },
        {
          "indexed": false,
          "internalType": "uint256",
          "name": "bid",
          "type": "uint256"
        },
        {
          "indexed": false,
          "internalType": "address",
          "name": "prevBidder",
          "type": "address"
        },
        {
          "indexed": false,
          "internalType": "uint256",
          "name": "prevBidderCashback",
          "type": "uint256"
        },
        {
          "indexed": false,
          "internalType": "uint256",
          "name": "blockNumber",
          "type": "uint256"
        }
      ],
      "name": "AuctionBidPlaced",
      "type": "event"
    },
    {
      "anonymous": false,
      "inputs": [
        {
          "indexed": false,
          "internalType": "uint8",
          "name": "version",
          "type": "uint8"
        }
      ],
      "name": "Initialized",
      "type": "event"
    },
    {
      "anonymous": false,
      "inputs": [
        {
          "indexed": false,
          "internalType": "uint256",
          "name": "orderId",
          "type": "uint256"
        }
      ],
      "name": "OrderCancelled",
      "type": "event"
    },
    {
      "anonymous": false,
      "inputs": [
        {
          "indexed": false,
          "internalType": "uint256",
          "name": "orderId",
          "type": "uint256"
        },
        {
          "indexed": false,
          "internalType": "uint256",
          "name": "createdAt",
          "type": "uint256"
        },
        {
          "indexed": false,
          "internalType": "uint256",
          "name": "assetId",
          "type": "uint256"
        },
        {
          "indexed": false,
          "internalType": "uint256",
          "name": "assetQuantity",
          "type": "uint256"
        },
        {
          "indexed": false,
          "internalType": "address",
          "name": "seller",
          "type": "address"
        },
        {
          "indexed": false,
          "internalType": "address",
          "name": "privateFor",
          "type": "address"
        },
        {
          "indexed": false,
          "internalType": "uint256",
          "name": "priceInWei",
          "type": "uint256"
        },
        {
          "indexed": false,
          "internalType": "bool",
          "name": "allowEbct",
          "type": "bool"
        },
        {
          "indexed": false,
          "internalType": "bool",
          "name": "isNft",
          "type": "bool"
        },
        {
          "indexed": false,
          "internalType": "bool",
          "name": "isPriceInStabletoken",
          "type": "bool"
        },
        {
          "indexed": false,
          "internalType": "bool",
          "name": "isStabletokenOnly",
          "type": "bool"
        },
        {
          "indexed": false,
          "internalType": "bool",
          "name": "isDutchAuction",
          "type": "bool"
        },
        {
          "indexed": false,
          "internalType": "bool",
          "name": "isPoolFuel",
          "type": "bool"
        }
      ],
      "name": "OrderCreated",
      "type": "event"
    },
    {
      "anonymous": false,
      "inputs": [
        {
          "indexed": false,
          "internalType": "uint256",
          "name": "orderId",
          "type": "uint256"
        },
        {
          "indexed": false,
          "internalType": "uint256",
          "name": "assetId",
          "type": "uint256"
        },
        {
          "indexed": false,
          "internalType": "uint256",
          "name": "availableQuantity",
          "type": "uint256"
        },
        {
          "indexed": false,
          "internalType": "uint256",
          "name": "boughtQuantity",
          "type": "uint256"
        },
        {
          "indexed": false,
          "internalType": "address",
          "name": "seller",
          "type": "address"
        },
        {
          "indexed": false,
          "internalType": "address",
          "name": "buyer",
          "type": "address"
        },
        {
          "indexed": false,
          "internalType": "uint256",
          "name": "originalPriceInWei",
          "type": "uint256"
        },
        {
          "indexed": false,
          "internalType": "uint256",
          "name": "pricePaidInWei",
          "type": "uint256"
        },
        {
          "indexed": false,
          "internalType": "bool",
          "name": "originalPriceInStabletoken",
          "type": "bool"
        },
        {
          "indexed": false,
          "internalType": "bool",
          "name": "paidInStabletoken",
          "type": "bool"
        },
        {
          "indexed": false,
          "internalType": "bool",
          "name": "paidInEbct",
          "type": "bool"
        },
        {
          "indexed": false,
          "internalType": "bool",
          "name": "isNft",
          "type": "bool"
        }
      ],
      "name": "OrderExecuted",
      "type": "event"
    },
    {
      "anonymous": false,
      "inputs": [
        {
          "indexed": false,
          "internalType": "uint256",
          "name": "orderId",
          "type": "uint256"
        },
        {
          "indexed": false,
          "internalType": "uint256",
          "name": "previousQuantity",
          "type": "uint256"
        },
        {
          "indexed": false,
          "internalType": "uint256",
          "name": "newQuantity",
          "type": "uint256"
        }
      ],
      "name": "OrderUpdated",
      "type": "event"
    },
    {
      "anonymous": false,
      "inputs": [
        {
          "indexed": false,
          "internalType": "address",
          "name": "account",
          "type": "address"
        }
      ],
      "name": "Paused",
      "type": "event"
    },
    {
      "anonymous": false,
      "inputs": [
        {
          "indexed": false,
          "internalType": "uint256",
          "name": "orderId",
          "type": "uint256"
        },
        {
          "indexed": false,
          "internalType": "address",
          "name": "winner",
          "type": "address"
        },
        {
          "indexed": false,
          "internalType": "uint256",
          "name": "ebct",
          "type": "uint256"
        },
        {
          "indexed": false,
          "internalType": "uint256[]",
          "name": "resources",
          "type": "uint256[]"
        }
      ],
      "name": "PrizePaid",
      "type": "event"
    },
    {
      "anonymous": false,
      "inputs": [
        {
          "indexed": true,
          "internalType": "bytes32",
          "name": "role",
          "type": "bytes32"
        },
        {
          "indexed": true,
          "internalType": "bytes32",
          "name": "previousAdminRole",
          "type": "bytes32"
        },
        {
          "indexed": true,
          "internalType": "bytes32",
          "name": "newAdminRole",
          "type": "bytes32"
        }
      ],
      "name": "RoleAdminChanged",
      "type": "event"
    },
    {
      "anonymous": false,
      "inputs": [
        {
          "indexed": true,
          "internalType": "bytes32",
          "name": "role",
          "type": "bytes32"
        },
        {
          "indexed": true,
          "internalType": "address",
          "name": "account",
          "type": "address"
        },
        {
          "indexed": true,
          "internalType": "address",
          "name": "sender",
          "type": "address"
        }
      ],
      "name": "RoleGranted",
      "type": "event"
    },
    {
      "anonymous": false,
      "inputs": [
        {
          "indexed": true,
          "internalType": "bytes32",
          "name": "role",
          "type": "bytes32"
        },
        {
          "indexed": true,
          "internalType": "address",
          "name": "account",
          "type": "address"
        },
        {
          "indexed": true,
          "internalType": "address",
          "name": "sender",
          "type": "address"
        }
      ],
      "name": "RoleRevoked",
      "type": "event"
    },
    {
      "anonymous": false,
      "inputs": [
        {
          "indexed": false,
          "internalType": "address",
          "name": "account",
          "type": "address"
        }
      ],
      "name": "Unpaused",
      "type": "event"
    },
    {
      "anonymous": false,
      "inputs": [
        {
          "indexed": false,
          "internalType": "address",
          "name": "from",
          "type": "address"
        },
        {
          "indexed": false,
          "internalType": "address",
          "name": "to",
          "type": "address"
        },
        {
          "indexed": false,
          "internalType": "uint256",
          "name": "amount",
          "type": "uint256"
        }
      ],
      "name": "drascaTransferred",
      "type": "event"
    },
    {
      "anonymous": false,
      "inputs": [
        {
          "indexed": false,
          "internalType": "address",
          "name": "from",
          "type": "address"
        },
        {
          "indexed": false,
          "internalType": "address",
          "name": "to",
          "type": "address"
        },
        {
          "indexed": false,
          "internalType": "uint256",
          "name": "amount",
          "type": "uint256"
        }
      ],
      "name": "eBctTransferred",
      "type": "event"
    },
    {
      "inputs": [],
      "name": "DEFAULT_ADMIN_ROLE",
      "outputs": [
        {
          "internalType": "bytes32",
          "name": "",
          "type": "bytes32"
        }
      ],
      "stateMutability": "view",
      "type": "function"
    },
    {
      "inputs": [
        {
          "internalType": "address",
          "name": "_operator",
          "type": "address"
        },
        {
          "internalType": "address",
          "name": "_blocklistAddress",
          "type": "address"
        }
      ],
      "name": "__Administrable_init",
      "outputs": [],
      "stateMutability": "nonpayable",
      "type": "function"
    },
    {
      "inputs": [
        {
          "internalType": "uint256",
          "name": "bctAmount",
          "type": "uint256"
        }
      ],
      "name": "bctToStabletoken",
      "outputs": [
        {
          "internalType": "uint256",
          "name": "",
          "type": "uint256"
        }
      ],
      "stateMutability": "view",
      "type": "function"
    },
    {
      "inputs": [
        {
          "internalType": "uint256",
          "name": "orderId",
          "type": "uint256"
        },
        {
          "internalType": "uint256",
          "name": "amount",
          "type": "uint256"
        },
        {
          "internalType": "bool",
          "name": "isPowerBid",
          "type": "bool"
        }
      ],
      "name": "bidOnAuction",
      "outputs": [],
      "stateMutability": "nonpayable",
      "type": "function"
    },
    {
      "inputs": [],
      "name": "burnFeePct",
      "outputs": [
        {
          "internalType": "uint256",
          "name": "",
          "type": "uint256"
        }
      ],
      "stateMutability": "view",
      "type": "function"
    },
    {
      "inputs": [
        {
          "internalType": "uint256",
          "name": "orderId",
          "type": "uint256"
        }
      ],
      "name": "cancelOrder",
      "outputs": [],
      "stateMutability": "nonpayable",
      "type": "function"
    },
    {
      "inputs": [
        {
          "internalType": "uint256[]",
          "name": "orderIds",
          "type": "uint256[]"
        }
      ],
      "name": "cancelOrders",
      "outputs": [],
      "stateMutability": "nonpayable",
      "type": "function"
    },
    {
      "inputs": [],
      "name": "clearAllOrders",
      "outputs": [],
      "stateMutability": "nonpayable",
      "type": "function"
    },
    {
      "inputs": [],
      "name": "contracts",
      "outputs": [
        {
          "internalType": "contract IBkERC20",
          "name": "bct",
          "type": "address"
        },
        {
          "internalType": "contract IBkERC20",
          "name": "stabletoken",
          "type": "address"
        },
        {
          "internalType": "contract IBkNft",
          "name": "nft",
          "type": "address"
        },
        {
          "internalType": "contract ICommunityPool",
          "name": "pool",
          "type": "address"
        },
        {
          "internalType": "contract IBkFarm",
          "name": "farm",
          "type": "address"
        }
      ],
      "stateMutability": "view",
      "type": "function"
    },
    {
      "inputs": [
        {
          "components": [
            {
              "internalType": "bool",
              "name": "isNft",
              "type": "bool"
            },
            {
              "internalType": "uint256",
              "name": "id",
              "type": "uint256"
            },
            {
              "internalType": "uint256",
              "name": "quantity",
              "type": "uint256"
            }
          ],
          "internalType": "struct BkMarketplace.Asset",
          "name": "asset",
          "type": "tuple"
        },
        {
          "components": [
            {
              "internalType": "bool",
              "name": "isNominalInStabletoken",
              "type": "bool"
            },
            {
              "internalType": "bool",
              "name": "isStabletokenOnly",
              "type": "bool"
            },
            {
              "internalType": "bool",
              "name": "allowEbct",
              "type": "bool"
            },
            {
              "internalType": "uint256",
              "name": "amount",
              "type": "uint256"
            },
            {
              "internalType": "uint256",
              "name": "secondaryReceiverPct",
              "type": "uint256"
            }
          ],
          "internalType": "struct BkMarketplace.Price",
          "name": "price",
          "type": "tuple"
        },
        {
          "components": [
            {
              "internalType": "address",
              "name": "seller",
              "type": "address"
            },
            {
              "internalType": "address",
              "name": "secondaryReceiver",
              "type": "address"
            },
            {
              "internalType": "address",
              "name": "privateFor",
              "type": "address"
            }
          ],
          "internalType": "struct BkMarketplace.Players",
          "name": "players",
          "type": "tuple"
        },
        {
          "internalType": "bool",
          "name": "isDutchAuction",
          "type": "bool"
        },
        {
          "internalType": "bool",
          "name": "isPoolFuel",
          "type": "bool"
        }
      ],
      "name": "createOrder",
      "outputs": [],
      "stateMutability": "nonpayable",
      "type": "function"
    },
    {
      "inputs": [],
      "name": "eBctPct",
      "outputs": [
        {
          "internalType": "uint256",
          "name": "",
          "type": "uint256"
        }
      ],
      "stateMutability": "view",
      "type": "function"
    },
    {
      "inputs": [
        {
          "internalType": "uint256",
          "name": "orderId",
          "type": "uint256"
        },
        {
          "internalType": "uint256",
          "name": "quantity",
          "type": "uint256"
        },
        {
          "internalType": "bool",
          "name": "payWithStabletoken",
          "type": "bool"
        },
        {
          "internalType": "bool",
          "name": "payWithEbct",
          "type": "bool"
        }
      ],
      "name": "executeOrder",
      "outputs": [],
      "stateMutability": "nonpayable",
      "type": "function"
    },
    {
      "inputs": [],
      "name": "gasPriceLimit",
      "outputs": [
        {
          "internalType": "uint256",
          "name": "",
          "type": "uint256"
        }
      ],
      "stateMutability": "view",
      "type": "function"
    },
    {
      "inputs": [],
      "name": "getAllOrders",
      "outputs": [
        {
          "components": [
            {
              "internalType": "uint256",
              "name": "id",
              "type": "uint256"
            },
            {
              "internalType": "uint256",
              "name": "createdAt",
              "type": "uint256"
            },
            {
              "internalType": "bool",
              "name": "isActive",
              "type": "bool"
            },
            {
              "internalType": "bool",
              "name": "isDutchAuction",
              "type": "bool"
            },
            {
              "internalType": "bool",
              "name": "isPoolFuel",
              "type": "bool"
            },
            {
              "components": [
                {
                  "internalType": "bool",
                  "name": "isNft",
                  "type": "bool"
                },
                {
                  "internalType": "uint256",
                  "name": "id",
                  "type": "uint256"
                },
                {
                  "internalType": "uint256",
                  "name": "quantity",
                  "type": "uint256"
                }
              ],
              "internalType": "struct BkMarketplace.Asset",
              "name": "asset",
              "type": "tuple"
            },
            {
              "components": [
                {
                  "internalType": "bool",
                  "name": "isNominalInStabletoken",
                  "type": "bool"
                },
                {
                  "internalType": "bool",
                  "name": "isStabletokenOnly",
                  "type": "bool"
                },
                {
                  "internalType": "bool",
                  "name": "allowEbct",
                  "type": "bool"
                },
                {
                  "internalType": "uint256",
                  "name": "amount",
                  "type": "uint256"
                },
                {
                  "internalType": "uint256",
                  "name": "secondaryReceiverPct",
                  "type": "uint256"
                }
              ],
              "internalType": "struct BkMarketplace.Price",
              "name": "price",
              "type": "tuple"
            },
            {
              "components": [
                {
                  "internalType": "address",
                  "name": "seller",
                  "type": "address"
                },
                {
                  "internalType": "address",
                  "name": "secondaryReceiver",
                  "type": "address"
                },
                {
                  "internalType": "address",
                  "name": "privateFor",
                  "type": "address"
                }
              ],
              "internalType": "struct BkMarketplace.Players",
              "name": "players",
              "type": "tuple"
            }
          ],
          "internalType": "struct BkMarketplace.Order[]",
          "name": "",
          "type": "tuple[]"
        }
      ],
      "stateMutability": "view",
      "type": "function"
    },
    {
      "inputs": [
        {
          "internalType": "uint256",
          "name": "limit",
          "type": "uint256"
        }
      ],
      "name": "getLatestOrders",
      "outputs": [
        {
          "components": [
            {
              "internalType": "uint256",
              "name": "id",
              "type": "uint256"
            },
            {
              "internalType": "uint256",
              "name": "createdAt",
              "type": "uint256"
            },
            {
              "internalType": "bool",
              "name": "isActive",
              "type": "bool"
            },
            {
              "internalType": "bool",
              "name": "isDutchAuction",
              "type": "bool"
            },
            {
              "internalType": "bool",
              "name": "isPoolFuel",
              "type": "bool"
            },
            {
              "components": [
                {
                  "internalType": "bool",
                  "name": "isNft",
                  "type": "bool"
                },
                {
                  "internalType": "uint256",
                  "name": "id",
                  "type": "uint256"
                },
                {
                  "internalType": "uint256",
                  "name": "quantity",
                  "type": "uint256"
                }
              ],
              "internalType": "struct BkMarketplace.Asset",
              "name": "asset",
              "type": "tuple"
            },
            {
              "components": [
                {
                  "internalType": "bool",
                  "name": "isNominalInStabletoken",
                  "type": "bool"
                },
                {
                  "internalType": "bool",
                  "name": "isStabletokenOnly",
                  "type": "bool"
                },
                {
                  "internalType": "bool",
                  "name": "allowEbct",
                  "type": "bool"
                },
                {
                  "internalType": "uint256",
                  "name": "amount",
                  "type": "uint256"
                },
                {
                  "internalType": "uint256",
                  "name": "secondaryReceiverPct",
                  "type": "uint256"
                }
              ],
              "internalType": "struct BkMarketplace.Price",
              "name": "price",
              "type": "tuple"
            },
            {
              "components": [
                {
                  "internalType": "address",
                  "name": "seller",
                  "type": "address"
                },
                {
                  "internalType": "address",
                  "name": "secondaryReceiver",
                  "type": "address"
                },
                {
                  "internalType": "address",
                  "name": "privateFor",
                  "type": "address"
                }
              ],
              "internalType": "struct BkMarketplace.Players",
              "name": "players",
              "type": "tuple"
            }
          ],
          "internalType": "struct BkMarketplace.Order[]",
          "name": "_orders",
          "type": "tuple[]"
        }
      ],
      "stateMutability": "view",
      "type": "function"
    },
    {
      "inputs": [
        {
          "internalType": "address",
          "name": "merchant",
          "type": "address"
        }
      ],
      "name": "getMerchant",
      "outputs": [
        {
          "components": [
            {
              "internalType": "uint256",
              "name": "auctions",
              "type": "uint256"
            },
            {
              "internalType": "uint256",
              "name": "sales",
              "type": "uint256"
            },
            {
              "internalType": "uint256",
              "name": "poolFuel",
              "type": "uint256"
            }
          ],
          "internalType": "struct BkMarketplace.Merchant",
          "name": "",
          "type": "tuple"
        }
      ],
      "stateMutability": "view",
      "type": "function"
    },
    {
      "inputs": [
        {
          "internalType": "uint256",
          "name": "orderId",
          "type": "uint256"
        }
      ],
      "name": "getOrder",
      "outputs": [
        {
          "components": [
            {
              "internalType": "uint256",
              "name": "id",
              "type": "uint256"
            },
            {
              "internalType": "uint256",
              "name": "createdAt",
              "type": "uint256"
            },
            {
              "internalType": "bool",
              "name": "isActive",
              "type": "bool"
            },
            {
              "internalType": "bool",
              "name": "isDutchAuction",
              "type": "bool"
            },
            {
              "internalType": "bool",
              "name": "isPoolFuel",
              "type": "bool"
            },
            {
              "components": [
                {
                  "internalType": "bool",
                  "name": "isNft",
                  "type": "bool"
                },
                {
                  "internalType": "uint256",
                  "name": "id",
                  "type": "uint256"
                },
                {
                  "internalType": "uint256",
                  "name": "quantity",
                  "type": "uint256"
                }
              ],
              "internalType": "struct BkMarketplace.Asset",
              "name": "asset",
              "type": "tuple"
            },
            {
              "components": [
                {
                  "internalType": "bool",
                  "name": "isNominalInStabletoken",
                  "type": "bool"
                },
                {
                  "internalType": "bool",
                  "name": "isStabletokenOnly",
                  "type": "bool"
                },
                {
                  "internalType": "bool",
                  "name": "allowEbct",
                  "type": "bool"
                },
                {
                  "internalType": "uint256",
                  "name": "amount",
                  "type": "uint256"
                },
                {
                  "internalType": "uint256",
                  "name": "secondaryReceiverPct",
                  "type": "uint256"
                }
              ],
              "internalType": "struct BkMarketplace.Price",
              "name": "price",
              "type": "tuple"
            },
            {
              "components": [
                {
                  "internalType": "address",
                  "name": "seller",
                  "type": "address"
                },
                {
                  "internalType": "address",
                  "name": "secondaryReceiver",
                  "type": "address"
                },
                {
                  "internalType": "address",
                  "name": "privateFor",
                  "type": "address"
                }
              ],
              "internalType": "struct BkMarketplace.Players",
              "name": "players",
              "type": "tuple"
            }
          ],
          "internalType": "struct BkMarketplace.Order",
          "name": "",
          "type": "tuple"
        }
      ],
      "stateMutability": "view",
      "type": "function"
    },
    {
      "inputs": [
        {
          "internalType": "uint256[]",
          "name": "orderIds",
          "type": "uint256[]"
        }
      ],
      "name": "getOrders",
      "outputs": [
        {
          "components": [
            {
              "internalType": "uint256",
              "name": "id",
              "type": "uint256"
            },
            {
              "internalType": "uint256",
              "name": "createdAt",
              "type": "uint256"
            },
            {
              "internalType": "bool",
              "name": "isActive",
              "type": "bool"
            },
            {
              "internalType": "bool",
              "name": "isDutchAuction",
              "type": "bool"
            },
            {
              "internalType": "bool",
              "name": "isPoolFuel",
              "type": "bool"
            },
            {
              "components": [
                {
                  "internalType": "bool",
                  "name": "isNft",
                  "type": "bool"
                },
                {
                  "internalType": "uint256",
                  "name": "id",
                  "type": "uint256"
                },
                {
                  "internalType": "uint256",
                  "name": "quantity",
                  "type": "uint256"
                }
              ],
              "internalType": "struct BkMarketplace.Asset",
              "name": "asset",
              "type": "tuple"
            },
            {
              "components": [
                {
                  "internalType": "bool",
                  "name": "isNominalInStabletoken",
                  "type": "bool"
                },
                {
                  "internalType": "bool",
                  "name": "isStabletokenOnly",
                  "type": "bool"
                },
                {
                  "internalType": "bool",
                  "name": "allowEbct",
                  "type": "bool"
                },
                {
                  "internalType": "uint256",
                  "name": "amount",
                  "type": "uint256"
                },
                {
                  "internalType": "uint256",
                  "name": "secondaryReceiverPct",
                  "type": "uint256"
                }
              ],
              "internalType": "struct BkMarketplace.Price",
              "name": "price",
              "type": "tuple"
            },
            {
              "components": [
                {
                  "internalType": "address",
                  "name": "seller",
                  "type": "address"
                },
                {
                  "internalType": "address",
                  "name": "secondaryReceiver",
                  "type": "address"
                },
                {
                  "internalType": "address",
                  "name": "privateFor",
                  "type": "address"
                }
              ],
              "internalType": "struct BkMarketplace.Players",
              "name": "players",
              "type": "tuple"
            }
          ],
          "internalType": "struct BkMarketplace.Order[]",
          "name": "_orders",
          "type": "tuple[]"
        }
      ],
      "stateMutability": "view",
      "type": "function"
    },
    {
      "inputs": [
        {
          "internalType": "bytes32",
          "name": "role",
          "type": "bytes32"
        }
      ],
      "name": "getRoleAdmin",
      "outputs": [
        {
          "internalType": "bytes32",
          "name": "",
          "type": "bytes32"
        }
      ],
      "stateMutability": "view",
      "type": "function"
    },
    {
      "inputs": [],
      "name": "gracePeriod",
      "outputs": [
        {
          "internalType": "uint256",
          "name": "",
          "type": "uint256"
        }
      ],
      "stateMutability": "view",
      "type": "function"
    },
    {
      "inputs": [
        {
          "internalType": "bytes32",
          "name": "role",
          "type": "bytes32"
        },
        {
          "internalType": "address",
          "name": "account",
          "type": "address"
        }
      ],
      "name": "grantRole",
      "outputs": [],
      "stateMutability": "nonpayable",
      "type": "function"
    },
    {
      "inputs": [],
      "name": "hasBlocklist",
      "outputs": [
        {
          "internalType": "bool",
          "name": "",
          "type": "bool"
        }
      ],
      "stateMutability": "view",
      "type": "function"
    },
    {
      "inputs": [
        {
          "internalType": "bytes32",
          "name": "role",
          "type": "bytes32"
        },
        {
          "internalType": "address",
          "name": "account",
          "type": "address"
        }
      ],
      "name": "hasRole",
      "outputs": [
        {
          "internalType": "bool",
          "name": "",
          "type": "bool"
        }
      ],
      "stateMutability": "view",
      "type": "function"
    },
    {
      "inputs": [
        {
          "internalType": "address",
          "name": "_operator",
          "type": "address"
        },
        {
          "internalType": "address",
          "name": "_blocklist",
          "type": "address"
        }
      ],
      "name": "initialize",
      "outputs": [],
      "stateMutability": "nonpayable",
      "type": "function"
    },
    {
      "inputs": [],
      "name": "lockPeriod",
      "outputs": [
        {
          "internalType": "uint256",
          "name": "",
          "type": "uint256"
        }
      ],
      "stateMutability": "view",
      "type": "function"
    },
    {
      "inputs": [
        {
          "internalType": "address",
          "name": "",
          "type": "address"
        }
      ],
      "name": "merchants",
      "outputs": [
        {
          "internalType": "uint256",
          "name": "auctions",
          "type": "uint256"
        },
        {
          "internalType": "uint256",
          "name": "sales",
          "type": "uint256"
        },
        {
          "internalType": "uint256",
          "name": "poolFuel",
          "type": "uint256"
        }
      ],
      "stateMutability": "view",
      "type": "function"
    },
    {
      "inputs": [],
      "name": "onERC721Received",
      "outputs": [
        {
          "internalType": "bytes4",
          "name": "",
          "type": "bytes4"
        }
      ],
      "stateMutability": "pure",
      "type": "function"
    },
    {
      "inputs": [
        {
          "internalType": "uint256",
          "name": "",
          "type": "uint256"
        }
      ],
      "name": "orderIdToAllowedBlock",
      "outputs": [
        {
          "internalType": "uint256",
          "name": "",
          "type": "uint256"
        }
      ],
      "stateMutability": "view",
      "type": "function"
    },
    {
      "inputs": [
        {
          "internalType": "uint256",
          "name": "",
          "type": "uint256"
        }
      ],
      "name": "orderIdToBids",
      "outputs": [
        {
          "internalType": "uint256",
          "name": "",
          "type": "uint256"
        }
      ],
      "stateMutability": "view",
      "type": "function"
    },
    {
      "inputs": [
        {
          "internalType": "uint256",
          "name": "",
          "type": "uint256"
        }
      ],
      "name": "orderIdToOrderIndex",
      "outputs": [
        {
          "internalType": "uint256",
          "name": "",
          "type": "uint256"
        }
      ],
      "stateMutability": "view",
      "type": "function"
    },
    {
      "inputs": [
        {
          "internalType": "uint256",
          "name": "",
          "type": "uint256"
        }
      ],
      "name": "orderIdToRemainingStabletokens",
      "outputs": [
        {
          "internalType": "uint256",
          "name": "",
          "type": "uint256"
        }
      ],
      "stateMutability": "view",
      "type": "function"
    },
    {
      "inputs": [
        {
          "internalType": "uint256",
          "name": "",
          "type": "uint256"
        }
      ],
      "name": "orders",
      "outputs": [
        {
          "internalType": "uint256",
          "name": "id",
          "type": "uint256"
        },
        {
          "internalType": "uint256",
          "name": "createdAt",
          "type": "uint256"
        },
        {
          "internalType": "bool",
          "name": "isActive",
          "type": "bool"
        },
        {
          "internalType": "bool",
          "name": "isDutchAuction",
          "type": "bool"
        },
        {
          "internalType": "bool",
          "name": "isPoolFuel",
          "type": "bool"
        },
        {
          "components": [
            {
              "internalType": "bool",
              "name": "isNft",
              "type": "bool"
            },
            {
              "internalType": "uint256",
              "name": "id",
              "type": "uint256"
            },
            {
              "internalType": "uint256",
              "name": "quantity",
              "type": "uint256"
            }
          ],
          "internalType": "struct BkMarketplace.Asset",
          "name": "asset",
          "type": "tuple"
        },
        {
          "components": [
            {
              "internalType": "bool",
              "name": "isNominalInStabletoken",
              "type": "bool"
            },
            {
              "internalType": "bool",
              "name": "isStabletokenOnly",
              "type": "bool"
            },
            {
              "internalType": "bool",
              "name": "allowEbct",
              "type": "bool"
            },
            {
              "internalType": "uint256",
              "name": "amount",
              "type": "uint256"
            },
            {
              "internalType": "uint256",
              "name": "secondaryReceiverPct",
              "type": "uint256"
            }
          ],
          "internalType": "struct BkMarketplace.Price",
          "name": "price",
          "type": "tuple"
        },
        {
          "components": [
            {
              "internalType": "address",
              "name": "seller",
              "type": "address"
            },
            {
              "internalType": "address",
              "name": "secondaryReceiver",
              "type": "address"
            },
            {
              "internalType": "address",
              "name": "privateFor",
              "type": "address"
            }
          ],
          "internalType": "struct BkMarketplace.Players",
          "name": "players",
          "type": "tuple"
        }
      ],
      "stateMutability": "view",
      "type": "function"
    },
    {
      "inputs": [],
      "name": "pause",
      "outputs": [],
      "stateMutability": "nonpayable",
      "type": "function"
    },
    {
      "inputs": [],
      "name": "paused",
      "outputs": [
        {
          "internalType": "bool",
          "name": "",
          "type": "bool"
        }
      ],
      "stateMutability": "view",
      "type": "function"
    },
    {
      "inputs": [
        {
          "internalType": "address",
          "name": "tokenAddress",
          "type": "address"
        },
        {
          "internalType": "address",
          "name": "to",
          "type": "address"
        },
        {
          "internalType": "uint256",
          "name": "amount",
          "type": "uint256"
        }
      ],
      "name": "recoverERC20",
      "outputs": [],
      "stateMutability": "nonpayable",
      "type": "function"
    },
    {
      "inputs": [
        {
          "internalType": "bytes32",
          "name": "role",
          "type": "bytes32"
        },
        {
          "internalType": "address",
          "name": "account",
          "type": "address"
        }
      ],
      "name": "renounceRole",
      "outputs": [],
      "stateMutability": "nonpayable",
      "type": "function"
    },
    {
      "inputs": [],
      "name": "reservedStabletokens",
      "outputs": [
        {
          "internalType": "uint256",
          "name": "",
          "type": "uint256"
        }
      ],
      "stateMutability": "view",
      "type": "function"
    },
    {
      "inputs": [],
      "name": "resetBlocklist",
      "outputs": [],
      "stateMutability": "nonpayable",
      "type": "function"
    },
    {
      "inputs": [
        {
          "internalType": "bytes32",
          "name": "role",
          "type": "bytes32"
        },
        {
          "internalType": "address",
          "name": "account",
          "type": "address"
        }
      ],
      "name": "revokeRole",
      "outputs": [],
      "stateMutability": "nonpayable",
      "type": "function"
    },
    {
      "inputs": [
        {
          "internalType": "address",
          "name": "blocklistAddress",
          "type": "address"
        }
      ],
      "name": "setBlocklist",
      "outputs": [],
      "stateMutability": "nonpayable",
      "type": "function"
    },
    {
      "inputs": [
        {
          "internalType": "address",
          "name": "_bct",
          "type": "address"
        },
        {
          "internalType": "address",
          "name": "_stabletoken",
          "type": "address"
        },
        {
          "internalType": "address",
          "name": "_nft",
          "type": "address"
        },
        {
          "internalType": "address",
          "name": "_pool",
          "type": "address"
        },
        {
          "internalType": "address",
          "name": "_farm",
          "type": "address"
        }
      ],
      "name": "setContracts",
      "outputs": [],
      "stateMutability": "nonpayable",
      "type": "function"
    },
    {
      "inputs": [
        {
          "internalType": "uint256",
          "name": "stabletokenAmount",
          "type": "uint256"
        }
      ],
      "name": "stabletokenToBct",
      "outputs": [
        {
          "internalType": "uint256",
          "name": "",
          "type": "uint256"
        }
      ],
      "stateMutability": "view",
      "type": "function"
    },
    {
      "inputs": [
        {
          "internalType": "bytes4",
          "name": "interfaceId",
          "type": "bytes4"
        }
      ],
      "name": "supportsInterface",
      "outputs": [
        {
          "internalType": "bool",
          "name": "",
          "type": "bool"
        }
      ],
      "stateMutability": "view",
      "type": "function"
    },
    {
      "inputs": [],
      "name": "totalOrderCountEver",
      "outputs": [
        {
          "internalType": "uint256",
          "name": "",
          "type": "uint256"
        }
      ],
      "stateMutability": "view",
      "type": "function"
    },
    {
      "inputs": [],
      "name": "unpause",
      "outputs": [],
      "stateMutability": "nonpayable",
      "type": "function"
    }
  ],
  "bytecode": "0x608060405234801561001057600080fd5b50614fbe806100206000396000f3fe608060405234801561001057600080fd5b506004361061027f5760003560e01c80636c0f79b61161015c578063a8fcc417116100ce578063d547741f11610087578063d547741f146105ef578063d5a1237214610602578063e5c815e41461060b578063ee14e93914610614578063f63bf8bd1461065e578063fbe13d3a1461067157600080fd5b8063a8fcc4171461054c578063aef18ae714610561578063b2734eaf14610574578063b55fb574146105a9578063b5f63f60146105bc578063d09ef241146105cf57600080fd5b8063961a929c11610120578063961a929c146104cb57806397d5b9e2146104d4578063a06db7dc146104f4578063a18fc7eb146104fd578063a217fddf1461051d578063a85c38ef1461052557600080fd5b80636c0f79b61461042f5780637bea0d1c146104955780638456cb591461049d57806391d14854146104a5578063931da89b146104b857600080fd5b80633fd8b02f116101f5578063514fcac7116101b9578063514fcac7146103b757806351fbacd9146103ca5780635315450f146103dd57806358ab482e146103f05780635c975abb14610410578063634210f41461041b57600080fd5b80633fd8b02f1461036c57806341cba1241461037557806341e80ad914610388578063485cc9551461039b5780634a47f2f1146103ae57600080fd5b80632626fa99116102475780632626fa991461031a5780632f2ff15d146103235780632f65ef281461033657806336568abe146103495780633c7fd8221461035c5780633f4ba83a1461036457600080fd5b806301ffc9a71461028457806303652027146102ac5780631171bda9146102cc57806320999973146102e1578063248a9ca3146102e9575b600080fd5b6102976102923660046145a9565b610691565b60405190151581526020015b60405180910390f35b6102bf6102ba366004614666565b6106c8565b6040516102a391906147db565b6102df6102da366004614841565b610784565b005b6102df610825565b61030c6102f736600461487d565b60009081526068602052604090206001015490565b6040519081526020016102a3565b61030c60dc5481565b6102df610331366004614896565b61090b565b6102df6103443660046148db565b610935565b6102df610357366004614896565b610e11565b6102df610e30565b6102df610e5b565b61030c60005481565b6102bf61038336600461487d565b610e7e565b61030c61039636600461487d565b611069565b6102df6103a9366004614914565b6110e7565b61030c60d75481565b6102df6103c536600461487d565b611278565b6102df6103d836600461493e565b61152f565b6102df6103eb3660046149d7565b6120a3565b61030c6103fe36600461487d565b60d56020526000908152604090205481565b609a5460ff16610297565b60cc5461029790600160a01b900460ff1681565b60cd5460ce5460cf5460d05460d15461045b946001600160a01b03908116948116938116928116911685565b604080516001600160a01b03968716815294861660208601529285169284019290925283166060830152909116608082015260a0016102a3565b6102bf6126f5565b6102df612846565b6102976104b3366004614896565b612866565b6102df6104c6366004614914565b612891565b61030c60025481565b61030c6104e236600461487d565b60db6020526000908152604090205481565b61030c60d65481565b61030c61050b36600461487d565b60d96020526000908152604090205481565b61030c600081565b61053861053336600461487d565b61299f565b6040516102a3989796959493929190614ac9565b604051630a85bd0160e11b81526020016102a3565b6102df61056f366004614b86565b612a8a565b610587610582366004614b86565b612aca565b60408051825181526020808401519082015291810151908201526060016102a3565b6102df6105b7366004614666565b612b30565b61030c6105ca36600461487d565b612b70565b6105e26105dd36600461487d565b612ba2565b6040516102a39190614ba1565b6102df6105fd366004614896565b612ce1565b61030c60d45481565b61030c60d85481565b610643610622366004614b86565b60d26020526000908152604090208054600182015460029092015490919083565b604080519384526020840192909252908201526060016102a3565b6102df61066c366004614bb0565b612d06565b61030c61067f36600461487d565b60da6020526000908152604090205481565b60006001600160e01b03198216637965db0b60e01b14806106c257506301ffc9a760e01b6001600160e01b03198316145b92915050565b6060815167ffffffffffffffff8111156106e4576106e46145d3565b60405190808252806020026020018201604052801561071d57816020015b61070a614511565b8152602001906001900390816107025790505b50905060005b825181101561077e5761074e83828151811061074157610741614c09565b6020026020010151612ba2565b82828151811061076057610760614c09565b6020026020010181905250808061077690614c35565b915050610723565b50919050565b600080516020614f6983398151915261079c81612dfe565b60405163a9059cbb60e01b81526001600160a01b0384811660048301526024820184905285169063a9059cbb90604401602060405180830381600087803b1580156107e657600080fd5b505af11580156107fa573d6000803e3d6000fd5b505050506040513d601f19601f8201168201806040525081019061081e9190614c50565b5050505050565b600080516020614f6983398151915261083d81612dfe565b60d35460009061084f90600190614c6d565b67ffffffffffffffff811115610867576108676145d3565b604051908082528060200260200182016040528015610890578160200160208202803683370190505b50905060015b60d3548110156108fd5760d381815481106108b3576108b3614c09565b60009182526020909120600c9091020154826108d0600184614c6d565b815181106108e0576108e0614c09565b6020908102919091010152806108f581614c35565b915050610896565b5061090781612b30565b5050565b60008281526068602052604090206001015461092681612dfe565b6109308383612e08565b505050565b60cc54600160a81b900460ff16156109685760405162461bcd60e51b815260040161095f90614c84565b60405180910390fd5b60cc805460ff60a81b1916600160a81b179055610983612e8e565b6002543a11156109a55760405162461bcd60e51b815260040161095f90614ca3565b336109af81612ed6565b156109cc5760405162461bcd60e51b815260040161095f90614cc5565b600084815260d5602052604081205460d3805490919081106109f0576109f0614c09565b60009182526020909120600c90910201600281015490915060ff16610a3c5760405162461bcd60e51b8152602060048201526002602482015261062760f31b604482015260640161095f565b6002810154610100900460ff16610a7a5760405162461bcd60e51b8152602060048201526002602482015261313960f01b604482015260640161095f565b60098101546001600160a01b0316331415610abc5760405162461bcd60e51b8152602060048201526002602482015261032360f41b604482015260640161095f565b6001810154610acd906121c0614cea565b4310610b005760405162461bcd60e51b8152602060048201526002602482015261323160f01b604482015260640161095f565b8215610b26576007810154606490610b19906070614d02565b610b239190614d21565b93505b6007810154606490610b39906070614d02565b610b439190614d21565b841015610b775760405162461bcd60e51b8152602060048201526002602482015261191960f11b604482015260640161095f565b600b8101546001600160a01b0316331415610bb95760405162461bcd60e51b8152602060048201526002602482015261323360f01b604482015260640161095f565b60ce546040516323b872dd60e01b81526001600160a01b03909116906323b872dd90610bed90339030908990600401614d43565b602060405180830381600087803b158015610c0757600080fd5b505af1158015610c1b573d6000803e3d6000fd5b505050506040513d601f19601f82011682018060405250810190610c3f9190614c50565b50600b8101546001600160a01b031660008115801590610c6f575060098301546001600160a01b03838116911614155b15610d4d576007830154606490610c87906069614d02565b610c919190614d21565b60ce5460405163a9059cbb60e01b81526001600160a01b0385811660048301526024820184905292935091169063a9059cbb90604401602060405180830381600087803b158015610ce157600080fd5b505af1158015610cf5573d6000803e3d6000fd5b505050506040513d601f19601f82011682018060405250810190610d199190614c50565b50610d248187614c6d565b600088815260db602052604081208054909190610d42908490614cea565b90915550610d5f9050565b600087815260db602052604090208690555b600b830180546001600160a01b0319163317905543600184015560078301869055600087815260da60205260408120805491610d9a83614c35565b9091555050604080518881523360208201529081018790526001600160a01b0383166060820152608081018290524360a08201527fad2529a9ad2367f375af47554a9660baca1657f811acefad9b2829aee5c019179060c00160405180910390a1505060cc805460ff60a81b191690555050505050565b6001600160a01b0381163314610e2657600080fd5b6109078282612f6f565b600080516020614f69833981519152610e4881612dfe565b5060cc80546001600160a81b0319169055565b600080516020614f69833981519152610e7381612dfe565b610e7b612fd6565b50565b60d3546060906000838211610e94576000610e9e565b610e9e8483614c6d565b9050610eaa8183614c6d565b67ffffffffffffffff811115610ec257610ec26145d3565b604051908082528060200260200182016040528015610efb57816020015b610ee8614511565b815260200190600190039081610ee05790505b509250805b828110156110615760d38181548110610f1b57610f1b614c09565b6000918252602091829020604080516101008082018352600c90940290920180548352600181015483860152600281015460ff808216151585850152858204811615156060808701919091526201000092839004821615156080808801919091528551808301875260038601548416151581526004860154818b015260058601548188015260a0808901919091528651908101875260068601548085161515825298890484161515818b01529390970490911615158285015260078301548282015260088301549582019590955260c08401528151938401825260098101546001600160a01b039081168552600a820154811695850195909552600b01549093169282019290925260e0820152846110338484614c6d565b8151811061104357611043614c09565b6020026020010181905250808061105990614c35565b915050610f00565b505050919050565b60d054604051634ca1cccb60e11b8152600481018390526000916001600160a01b0316906399439996906024015b60206040518083038186803b1580156110af57600080fd5b505afa1580156110c3573d6000803e3d6000fd5b505050506040513d601f19601f820116820180604052508101906106c29190614d67565b600354610100900460ff16158080156111075750600354600160ff909116105b806111215750303b158015611121575060035460ff166001145b61112a57600080fd5b6003805460ff19166001179055801561114d576003805461ff0019166101001790555b6111578383612891565b604080516101008101825260008082526020808301829052828401829052606080840183905260808085018490528551808301875284815280840185905280870185905260a0808701919091528651908101875284815280840185905280870185905280830185905290810184905260c0850152845190810185528281529081018290529283015260e08101919091526111f081613028565b60d4805490600061120083614c35565b9091555050600260d781905560d6556112196004600055565b61122764012a05f200600255565b50608260d8558015610930576003805461ff0019169055604051600181527f7f26b83ff96e1f2b6a682f133852f6798a09c465da95921460cefb3847402498906020015b60405180910390a1505050565b611280612e8e565b6002543a11156112a25760405162461bcd60e51b815260040161095f90614ca3565b336112ac81612ed6565b156112c95760405162461bcd60e51b815260040161095f90614cc5565b60006112d483612ba2565b8051909150831480156112e8575080604001515b6113195760405162461bcd60e51b8152602060048201526002602482015261031360f41b604482015260640161095f565b60e0810151516001600160a01b03163314806113485750611348600080516020614f6983398151915233612866565b6113795760405162461bcd60e51b8152602060048201526002602482015261313160f01b604482015260640161095f565b60a08101516020810151815160409092015160e08401515191929161139d87613317565b6040518781527f61b9399f2f0f32ca39ce8d7be32caed5ec22fe07a6daba3a467ed479ec6065829060200160405180910390a1826114bf5760006113e2856001614cea565b67ffffffffffffffff8111156113fa576113fa6145d3565b604051908082528060200260200182016040528015611423578160200160208202803683370190505b509050611431836064614d02565b81868151811061144357611443614c09565b602090810291909101015260d15460405163b238d31960e01b81526001600160a01b039091169063b238d31990611487903090869060009081908890600401614dbb565b600060405180830381600087803b1580156114a157600080fd5b505af11580156114b5573d6000803e3d6000fd5b5050505050611526565b60cf546040516323b872dd60e01b81526001600160a01b03909116906323b872dd906114f390309085908990600401614d43565b600060405180830381600087803b15801561150d57600080fd5b505af1158015611521573d6000803e3d6000fd5b505050505b50505050505050565b60cc54600160a81b900460ff16156115595760405162461bcd60e51b815260040161095f90614c84565b60cc805460ff60a81b1916600160a81b179055611574612e8e565b6002543a11156115965760405162461bcd60e51b815260040161095f90614ca3565b336115a081612ed6565b156115bd5760405162461bcd60e51b815260040161095f90614cc5565b336000908152600160205260409020544310156116075760405162461bcd60e51b815260206004820152600860248201526731b7b7b63237bbb760c11b604482015260640161095f565b6116103361372d565b600061161b86612ba2565b905080604001516116525760405162461bcd60e51b81526020600482015260016024820152603160f81b604482015260640161095f565b600086815260d9602052604090205443116116935760405162461bcd60e51b81526020600482015260016024820152601960f91b604482015260640161095f565b60e0810151516001600160a01b031633148015906116c2575060e0810151602001516001600160a01b03163314155b6116f25760405162461bcd60e51b81526020600482015260016024820152603360f81b604482015260640161095f565b60e0810151604001516001600160a01b0316331480611720575060e0810151604001516001600160a01b0316155b6117505760405162461bcd60e51b81526020600482015260016024820152600d60fa1b604482015260640161095f565b60a08101515180156117625750846001145b8061176d5750600085115b61179d5760405162461bcd60e51b81526020600482015260016024820152603560f81b604482015260640161095f565b8060c0015160200151806117b2575080608001515b156117e857836117e85760405162461bcd60e51b81526020600482015260016024820152600760fb1b604482015260640161095f565b8215611827578060c00151604001516118275760405162461bcd60e51b81526020600482015260016024820152603960f81b604482015260640161095f565b60c08101516060908101519082015161185357858260c001516060015161184e9190614d02565b61185d565b8160c00151606001515b8260c0015160600181815250506000826060015115611b50578260a001516040015187146118b15760405162461bcd60e51b81526020600482015260016024820152601b60f91b604482015260640161095f565b60208301516118c2906121c0614cea565b4310156118f65760405162461bcd60e51b8152602060048201526002602482015261189960f11b604482015260640161095f565b60e0830151604001516001600160a01b0316331461193b5760405162461bcd60e51b8152602060048201526002602482015261323360f01b604482015260640161095f565b600088815260db602052604081205460dc80549192909161195d908490614cea565b90915550505060c08201516060015160e0830151516001600160a01b0316600090815260d26020526040812080549161199583614c35565b90915550506040805160198082526103408201909252600091602082016103208036833750505060008a815260da60205260409020549091506119d9906064614d02565b816016815181106119ec576119ec614c09565b60200260200101818152505060da60008a8152602001908152602001600020546032611a189190614d02565b81601781518110611a2b57611a2b614c09565b60200260200101818152505060da60008a8152602001908152602001600020546019611a579190614d02565b81601881518110611a6a57611a6a614c09565b60209081029190910181019190915260008a815260da9091526040812054611a939060fa614d02565b611aa590670de0b6b3a7640000614d02565b60d1546040516304567ca960e11b81529192506001600160a01b0316906308acf95290611ada90339085908790600401614e00565b600060405180830381600087803b158015611af457600080fd5b505af1158015611b08573d6000803e3d6000fd5b505050507faa629ae4fb4821590b1dbb00ee486eea3d9657cdc997071b55d681e1915f1a6a8a338385604051611b419493929190614e30565b60405180910390a15050611dde565b8260a0015160400151871115611b8c5760405162461bcd60e51b81526020600482015260016024820152603760f81b604482015260640161095f565b611bea6040518060800160405280336001600160a01b031681526020018560e0015181526020018560c00151815260200160405180606001604052808a15158152602001891515815260200187608001511515815250815250613756565b9050858015611c0257508260a0015160200151601514155b15611dde576040805160168082526102e08201909252600091602082016102c08036833701905050905060008460800151611c4e57611c49670de0b6b3a764000084614d21565b611c6c565b670de0b6b3a7640000611c62846032614d02565b611c6c9190614d21565b90508082601581518110611c8257611c82614c09565b602090810291909101015260d1546040516304567ca960e11b81526001600160a01b03909116906308acf95290611cc29033906000908790600401614e00565b600060405180830381600087803b158015611cdc57600080fd5b505af1158015611cf0573d6000803e3d6000fd5b505060d15460e0880151516040516304567ca960e11b81526001600160a01b0390921693506308acf9529250611d2d916000908790600401614e00565b600060405180830381600087803b158015611d4757600080fd5b505af1158015611d5b573d6000803e3d6000fd5b505050507f1249c3c2fcdc6e7920d0a837fa922afce682b7265e59c75ac4a7ddd360e8ccdf303383604051611d9293929190614d43565b60405180910390a160e0850151516040517f1249c3c2fcdc6e7920d0a837fa922afce682b7265e59c75ac4a7ddd360e8ccdf91611dd3913091908590614d43565b60405180910390a150505b60e0830151516001600160a01b0316600090815260d260205260408120600101805491611e0a83614c35565b909155505060a083015151611f155760008360a00151602001516001611e309190614cea565b67ffffffffffffffff811115611e4857611e486145d3565b604051908082528060200260200182016040528015611e71578160200160208202803683370190505b509050611e7f886064614d02565b818560a001516020015181518110611e9957611e99614c09565b602090810291909101015260d15460405163b238d31960e01b81526001600160a01b039091169063b238d31990611edd903090339060009081908890600401614dbb565b600060405180830381600087803b158015611ef757600080fd5b505af1158015611f0b573d6000803e3d6000fd5b5050505050611f83565b60cf5460a0840151602001516040516323b872dd60e01b81526001600160a01b03909216916323b872dd91611f509130913391600401614d43565b600060405180830381600087803b158015611f6a57600080fd5b505af1158015611f7e573d6000803e3d6000fd5b505050505b7f55e5c5faba836ee00f897ace65821e477e158a25ac610fd675b598b5fccbef4a888460a00151602001518560a00151604001518a8760e00151600001513388888b60c00151600001518f8f8e60a00151600001516040516120539c9b9a999897969594939291909b8c5260208c019a909a5260408b019890985260608a01969096526001600160a01b0394851660808a01529290931660a088015260c087015260e086019190915215156101008501521515610120840152151561014083015215156101608201526101800190565b60405180910390a18260a00151604001518714156120795761207488613317565b61208c565b61208c888460a001516040015189613792565b505060cc805460ff60a81b19169055505050505050565b60cc54600160a81b900460ff16156120cd5760405162461bcd60e51b815260040161095f90614c84565b60cc805460ff60a81b1916600160a81b1790556120e8612e8e565b6002543a111561210a5760405162461bcd60e51b815260040161095f90614ca3565b336000908152600160205260409020544310156121545760405162461bcd60e51b815260206004820152600860248201526731b7b7b63237bbb760c11b604482015260640161095f565b61215d3361372d565b61216633612ed6565b156121985760405162461bcd60e51b8152602060048201526002602482015261189b60f11b604482015260640161095f565b60008460600151116121d05760405162461bcd60e51b81526020600482015260016024820152606160f81b604482015260640161095f565b6064846080015111156122095760405162461bcd60e51b81526020600482015260016024820152603160f91b604482015260640161095f565b8451801561221b575084604001516001145b8061222a575060008560400151115b61225a5760405162461bcd60e51b81526020600482015260016024820152606360f81b604482015260640161095f565b6122847f3c4a2d89ed8b4cf4347fec87df1c38410f8fc538bf9fd64c10f2717bc0feff3633612866565b6122fe5760408301516001600160a01b0316156122c75760405162461bcd60e51b81526020600482015260016024820152601960fa1b604482015260640161095f565b81156122f95760405162461bcd60e51b81526020600482015260016024820152606560f81b604482015260640161095f565b6123e1565b81156123e15760408301516001600160a01b031633146123445760405162461bcd60e51b81526020600482015260016024820152600d60fb1b604482015260640161095f565b83602001516123795760405162461bcd60e51b81526020600482015260016024820152606960f81b604482015260640161095f565b83516123ab5760405162461bcd60e51b81526020600482015260016024820152603560f91b604482015260640161095f565b8360400151156123e15760405162461bcd60e51b81526020600482015260016024820152606b60f81b604482015260640161095f565b84516124e1576000856020015160016123fa9190614cea565b67ffffffffffffffff811115612412576124126145d3565b60405190808252806020026020018201604052801561243b578160200160208202803683370190505b5090508560400151606461244f9190614d02565b8187602001518151811061246557612465614c09565b602090810291909101015260d15460405163b238d31960e01b81526001600160a01b039091169063b238d319906124a9903390309060009081908890600401614dbb565b600060405180830381600087803b1580156124c357600080fd5b505af11580156124d7573d6000803e3d6000fd5b505050505061254b565b60cf5460208601516040516323b872dd60e01b81526001600160a01b03909216916323b872dd916125189133913091600401614d43565b600060405180830381600087803b15801561253257600080fd5b505af1158015612546573d6000803e3d6000fd5b505050505b80156125bf5783602001516125865760405162461bcd60e51b81526020600482015260016024820152603360f91b604482015260640161095f565b8460200151601514156125bf5760405162461bcd60e51b81526020600482015260016024820152606760f81b604482015260640161095f565b60d4805490819060006125d183614c35565b919050555061261f6040518061010001604052808381526020014381526020016001151581526020018515158152602001841515815260200188815260200187815260200186815250613028565b6020808701516040808901518751888301516060808c01518c8601518e518e518f8b015189518d8152439c81019c909c52988b0199909952928901959095526001600160a01b0393841660808901529290911660a087015260c086019190915290151560e0850152151561010084015290151561012083015215156101408201528315156101608201528215156101808201527fbb7e3525b3f590866b81920d4d607f051f65051616125833b3548843c960172d906101a00160405180910390a1505060cc805460ff60a81b1916905550505050565b606060d3805480602002602001604051908101604052809291908181526020016000905b8282101561283d576000848152602090819020604080516101008082018352600c87029093018054825260018082015483870152600282015460ff808216151585870152868204811615156060808701919091526201000092839004821615156080808801919091528751808301895260038701548416151581526004870154818c01526005870154818a015260a08089019190915288519081018952600687015480851615158252998a0484161515818c01529390980490911615158287015260078401548282015260088401549682019690965260c08401528351948501845260098201546001600160a01b039081168652600a830154811686880152600b909201549091169284019290925260e08101929092529083529092019101612719565b50505050905090565b600080516020614f6983398151915261285e81612dfe565b610e7b61382e565b60009182526068602090815260408084206001600160a01b0393909316845291905290205460ff1690565b600354610100900460ff16158080156128b15750600354600160ff909116105b806128cb5750303b1580156128cb575060035460ff166001145b6128d457600080fd5b6003805460ff1916600117905580156128f7576003805461ff0019166101001790555b6128ff61386b565b61290761387f565b61291260008461389b565b61292a600080516020614f698339815191528461389b565b6129547f73e573f9566d61418a34d5de3ff49360f9c51fec37f7486551670290f6285dab8461389b565b61295d82612a8a565b8015610930576003805461ff0019169055604051600181527f7f26b83ff96e1f2b6a682f133852f6798a09c465da95921460cefb38474024989060200161126b565b60d381815481106129af57600080fd5b6000918252602091829020600c909102018054600182015460028301546040805160608082018352600387015460ff908116151583526004880154838a0152600588015483850152835160a08101855260068901548083161515825261010080820484161515838d01526201000091829004841615158388015260078b01548386015260088b015460808401528651948501875260098b01546001600160a01b039081168652600a8c015481169c86019c909c52600b909a0154909a1694830194909452959850939685841696840486169593049092169288565b600080516020614f69833981519152612aa281612dfe565b5060cc80546001600160a81b0319166001600160a01b0390921691909117600160a01b179055565b612aee60405180606001604052806000815260200160008152602001600081525090565b506001600160a01b0316600090815260d26020908152604091829020825160608101845281548152600182015492810192909252600201549181019190915290565b60005b815181101561090757612b5e828281518110612b5157612b51614c09565b6020026020010151611278565b80612b6881614c35565b915050612b33565b60d05460405163526267fd60e11b8152600481018390526000916001600160a01b03169063a4c4cffa90602401611097565b612baa614511565b600082815260d5602052604090205460d380549091908110612bce57612bce614c09565b6000918252602091829020604080516101008082018352600c90940290920180548352600181015483860152600281015460ff808216151585850152858204811615156060808701919091526201000092839004821615156080808801919091528551808301875260038601548416151581526004860154818b015260058601548188015260a0808901919091528651908101875260068601548085161515825298890484161515818b01529390970490911615158285015260078301548282015260088301549582019590955260c08401528151938401825260098101546001600160a01b039081168552600a820154811695850195909552600b01549093169282019290925260e082015292915050565b600082815260686020526040902060010154612cfc81612dfe565b6109308383612f6f565b600080516020614f69833981519152612d1e81612dfe565b6040805160a0810182526001600160a01b038881168083528882166020840181905288831684860181905288841660608601819052938816608090950185905260cd80546001600160a01b0319908116909417905560ce805484168317905560cf80548416909117905560d0805483168417905560d180549092169093179055915163095ea7b360e01b8152600481019290925260001960248301529063095ea7b390604401600060405180830381600087803b158015612dde57600080fd5b505af1158015612df2573d6000803e3d6000fd5b50505050505050505050565b610e7b81336138a5565b612e128282612866565b6109075760008281526068602090815260408083206001600160a01b03851684529091529020805460ff19166001179055612e4a3390565b6001600160a01b0316816001600160a01b0316837f2f8788117e7eff1d82e926ec794901d17c78024a50270940304540a733656f0d60405160405180910390a45050565b609a5460ff1615612ed45760405162461bcd60e51b815260206004820152601060248201526f14185d5cd8589b194e881c185d5cd95960821b604482015260640161095f565b565b60cc54600090600160a01b900460ff16612ef257506000919050565b60cc54604051638e204c4360e01b81526001600160a01b03848116600483015290911690638e204c439060240160206040518083038186803b158015612f3757600080fd5b505afa158015612f4b573d6000803e3d6000fd5b505050506040513d601f19601f820116820180604052508101906106c29190614c50565b612f798282612866565b156109075760008281526068602090815260408083206001600160a01b0385168085529252808320805460ff1916905551339285917ff6391f5c32d9c69d2a47ea670b442974b53935d1edc7fd64eb21e047a839171b9190a45050565b612fde6138fe565b609a805460ff191690557f5db9ee0a495bf2e6ff9c91a7834c1ba4fdd244a5e8aa4e537bd38aeae4b073aa335b6040516001600160a01b03909116815260200160405180910390a1565b60d3805460018082018355600083905283517f915c3eb987b20e1af620c1403197bf687fb7f18513b3a73fde6e78c7072c41a6600c909302928301556020808501517f915c3eb987b20e1af620c1403197bf687fb7f18513b3a73fde6e78c7072c41a78401556040808601517f915c3eb987b20e1af620c1403197bf687fb7f18513b3a73fde6e78c7072c41a8850180546060808a01516080808c015161ffff1994851696151561ff00199081169790971761010093151584021762ff0000199081166201000092151583021790965560a08d015180517f915c3eb987b20e1af620c1403197bf687fb7f18513b3a73fde6e78c7072c41a98d01805460ff1916911515919091179055808a01517f915c3eb987b20e1af620c1403197bf687fb7f18513b3a73fde6e78c7072c41aa8d01558801517f915c3eb987b20e1af620c1403197bf687fb7f18513b3a73fde6e78c7072c41ab8c015560c08d015180517f915c3eb987b20e1af620c1403197bf687fb7f18513b3a73fde6e78c7072c41ac8d018054838d0151848d015191909916921515909a16919091179615159094029590951790951695151590940294909417909355918201517f915c3eb987b20e1af620c1403197bf687fb7f18513b3a73fde6e78c7072c41ad87015501517f915c3eb987b20e1af620c1403197bf687fb7f18513b3a73fde6e78c7072c41ae85015560e086015180517f915c3eb987b20e1af620c1403197bf687fb7f18513b3a73fde6e78c7072c41af860180546001600160a01b03199081166001600160a01b0393841617909155938201517f915c3eb987b20e1af620c1403197bf687fb7f18513b3a73fde6e78c7072c41b08701805486169183169190911790559101517f915c3eb987b20e1af620c1403197bf687fb7f18513b3a73fde6e78c7072c41b1909401805490921693169290921790915590546132e69190614c6d565b8151600090815260d5602052604090205560d6546133049043614cea565b9051600090815260d96020526040902055565b600081815260d5602052604090205460d3548110801561333657508015155b6133675760405162461bcd60e51b8152602060048201526002602482015261189b60f11b604482015260640161095f565b600060d3828154811061337c5761337c614c09565b90600052602060002090600c020190508281600001541480156133a35750600281015460ff165b6133d45760405162461bcd60e51b8152602060048201526002602482015261313760f01b604482015260640161095f565b60028101805460ff1916905560d38054600091906133f490600190614c6d565b8154811061340457613404614c09565b6000918252602091829020604080516101008082018352600c90940290920180548352600181015483860152600281015460ff808216151585850152858204811615156060808701919091526201000092839004821615156080808801919091528551808301875260038601548416151581526004860154818b015260058601548188015260a0808901919091528651908101875260068601548085161515825298890484161515818b01529390970490911615158285015260078301548282015260088301549582019590955260c08401528151938401825260098101546001600160a01b039081168552600a820154811695850195909552600b01549093169282019290925260e082015280519091508414613674578060d3848154811061353057613530614c09565b600091825260208083208451600c93909302019182558381015160018301556040808501516002840180546060808901516080808b015161ffff1994851696151561ff00199081169790971761010093151584021762ff0000199081166201000092151583021790965560a08c0151805160038c01805460ff1916911515919091179055808a015160048c015588015160058b015560c08c0151805160068c018054838d0151848d015191909916921515909a169190911796151590940295909517909516951515909402949094179093559182015160078601550151600884015560e09094015180516009840180546001600160a01b03199081166001600160a01b039384161790915582840151600a86018054831691841691909117905591860151600b90940180549092169316929092179091558351825260d59052208390555b60d380548061368557613685614e67565b60008281526020808220600c600019909401938402018281556001810183905560028101805462ffffff1990811690915560038201805460ff191690556004820184905560058201849055600682018054909116905560078101839055600881018390556009810180546001600160a01b0319908116909155600a8201805482169055600b909101805490911690559190925594815260d59094525050604082209190915550565b60005461373a9043614cea565b6001600160a01b03909116600090815260016020526040902055565b6060810151516000901561376d576106c282613947565b81606001516020015115613784576106c282613980565b6106c282613a5e565b919050565b7fe9e92ca155f7f849e8406a526168717b9ff4b506da09f38a5543e7554edee45d83836137bf8482614c6d565b6040805193845260208401929092529082015260600160405180910390a1600083815260d5602052604090205460d38054839290811061380157613801614c09565b90600052602060002090600c020160030160020160008282546138249190614c6d565b9091555050505050565b613836612e8e565b609a805460ff191660011790557f62e78cea01bee320cd4e420270b5ea74000d11b0c9f74754ebdbfc544b05a25861300b3390565b600354610100900460ff16612ed457600080fd5b600354610100900460ff1661389357600080fd5b612ed4613ad0565b6109078282612e08565b6138af8282612866565b610907576138bc81613af0565b6138c7836020613b02565b6040516020016138d8929190614ea9565b60408051601f198184030181529082905262461bcd60e51b825261095f91600401614f1e565b609a5460ff16612ed45760405162461bcd60e51b815260206004820152601460248201527314185d5cd8589b194e881b9bdd081c185d5cd95960621b604482015260640161095f565b60408101515160009061396a57613965826040015160600151612b70565b613974565b8160400151606001515b905061378d8282613c62565b60008160400151604001516139bc5760405162461bcd60e51b8152602060048201526002602482015261313360f01b604482015260640161095f565b816040015160200151156139f75760405162461bcd60e51b81526020600482015260026024820152610c4d60f21b604482015260640161095f565b604082015151613a2857606460d854836040015160600151613a199190614d02565b613a239190614d21565b613a52565b606460d854613a3e846040015160600151611069565b613a489190614d02565b613a529190614d21565b905061378d8282613f13565b600081604001516020015115613a9b5760405162461bcd60e51b8152602060048201526002602482015261313560f01b604482015260640161095f565b604082015151613ab357816040015160600151613ac4565b613ac4826040015160600151611069565b905061378d8282614001565b600354610100900460ff16613ae457600080fd5b609a805460ff19169055565b60606106c26001600160a01b03831660145b60606000613b11836002614d02565b613b1c906002614cea565b67ffffffffffffffff811115613b3457613b346145d3565b6040519080825280601f01601f191660200182016040528015613b5e576020820181803683370190505b509050600360fc1b81600081518110613b7957613b79614c09565b60200101906001600160f81b031916908160001a905350600f60fb1b81600181518110613ba857613ba8614c09565b60200101906001600160f81b031916908160001a9053506000613bcc846002614d02565b613bd7906001614cea565b90505b6001811115613c4f576f181899199a1a9b1b9c1cb0b131b232b360811b85600f1660108110613c0b57613c0b614c09565b1a60f81b828281518110613c2157613c21614c09565b60200101906001600160f81b031916908160001a90535060049490941c93613c4881614f51565b9050613bda565b508315613c5b57600080fd5b9392505050565b81606001516040015115613dab57602080830151516001600160a01b0316600090815260d2909152604081206002018054839290613ca1908490614cea565b909155505060ce5482516040516323b872dd60e01b81526001600160a01b03909216916323b872dd91613cda9130908690600401614d43565b602060405180830381600087803b158015613cf457600080fd5b505af1158015613d08573d6000803e3d6000fd5b505050506040513d601f19601f82011682018060405250810190613d2c9190614c50565b5060d054604051630d3990db60e21b8152600481018390526001600160a01b03909116906334e6436c90602401602060405180830381600087803b158015613d7357600080fd5b505af1158015613d87573d6000803e3d6000fd5b505050506040513d601f19601f820116820180604052508101906109309190614d67565b600080600080613dc385876040015160800151614261565b895160208b0151519498509296509094509250613de991613de48488614cea565b6142e4565b613e008660000151876020015160200151856142e4565b8115613f0b5760ce5486516040516323b872dd60e01b81526001600160a01b03909216916323b872dd91613e3a9130908790600401614d43565b602060405180830381600087803b158015613e5457600080fd5b505af1158015613e68573d6000803e3d6000fd5b505050506040513d601f19601f82011682018060405250810190613e8c9190614c50565b5060d054604051630d3990db60e21b8152600481018490526001600160a01b03909116906334e6436c90602401602060405180830381600087803b158015613ed357600080fd5b505af1158015613ee7573d6000803e3d6000fd5b505050506040513d601f19601f820116820180604052508101906115269190614d67565b505050505050565b600080600080613f2b85876040015160800151614261565b895160208b0151519498509296509094509250613f5191613f4c8488614cea565b614376565b613f68866000015187602001516020015185614376565b8115613f0b5760d15486516040805160008152602081019182905263b1918c9560e01b9091526001600160a01b039092169163b1918c9591613faf91869060248101614e00565b602060405180830381600087803b158015613fc957600080fd5b505af1158015613fdd573d6000803e3d6000fd5b505050506040513d601f19601f820116820180604052508101906115269190614c50565b60d154825160405163366d7a6b60e21b81526001600160a01b039182166004820152600092919091169063d9b5e9ac9060240160206040518083038186803b15801561404c57600080fd5b505afa158015614060573d6000803e3d6000fd5b505050506040513d601f19601f820116820180604052508101906140849190614d67565b90506000828210156140965781614098565b825b90506000838310156140b3576140ae8385614c6d565b6140b6565b60005b9050811561418d576000806000806140d6868a6040015160800151614261565b8c5160208e01515194985092965090945092506140fc916140f78488614cea565b614442565b61411389600001518a602001516020015185614442565b81156141885760d1548951604051631e59b34d60e11b81526001600160a01b0391821660048201526024810185905260006044820152911690633cb3669a90606401600060405180830381600087803b15801561416f57600080fd5b505af1158015614183573d6000803e3d6000fd5b505050505b505050505b801561081e576000806000806141ab858a6040015160800151614261565b8c5160208e01515194985092965090945092506141d1916141cc8488614cea565b6144d7565b6141e889600001518a6020015160200151856144d7565b81156142565760cd54895160405163079cc67960e41b81526001600160a01b039182166004820152602481018590529116906379cc679090604401600060405180830381600087803b15801561423d57600080fd5b505af1158015614251573d6000803e3d6000fd5b505050505b505050505050505050565b600080600080600090506000606460d7548861427d9190614d02565b6142879190614d21565b90506142938282614c6d565b92506064866142a2838a614c6d565b6142ac9190614d02565b6142b69190614d21565b935081836142c4868a614c6d565b6142ce9190614c6d565b6142d89190614c6d565b94505092959194509250565b80156109305760ce546040516323b872dd60e01b81526001600160a01b03909116906323b872dd9061431e90869086908690600401614d43565b602060405180830381600087803b15801561433857600080fd5b505af115801561434c573d6000803e3d6000fd5b505050506040513d601f19601f820116820180604052508101906143709190614c50565b50505050565b80156109305760d1546001600160a01b031663b238d3198484600085816040519080825280602002602001820160405280156143bc578160200160208202803683370190505b506040518663ffffffff1660e01b81526004016143dd959493929190614dbb565b600060405180830381600087803b1580156143f757600080fd5b505af115801561440b573d6000803e3d6000fd5b505050507f4bb45d1d94c3cc2ea51bc37e3446850ae2db949bfe7a06a04594b66d70027bb383838360405161126b93929190614d43565b80156109305760d1546001600160a01b031663b238d319848484600080604051908082528060200260200182016040528015614488578160200160208202803683370190505b506040518663ffffffff1660e01b81526004016144a9959493929190614dbb565b600060405180830381600087803b1580156144c357600080fd5b505af1158015611526573d6000803e3d6000fd5b80156109305760cd546040516323b872dd60e01b81526001600160a01b03909116906323b872dd9061431e90869086908690600401614d43565b60408051610100810182526000808252602080830182905282840182905260608084018390526080840183905284519081018552828152908101829052928301529060a082019081526040805160a08101825260008082526020828101829052928201819052606082018190526080820152910190815260408051606081018252600080825260208281018290529282015291015290565b6000602082840312156145bb57600080fd5b81356001600160e01b031981168114613c5b57600080fd5b634e487b7160e01b600052604160045260246000fd5b6040516060810167ffffffffffffffff8111828210171561460c5761460c6145d3565b60405290565b60405160a0810167ffffffffffffffff8111828210171561460c5761460c6145d3565b604051601f8201601f1916810167ffffffffffffffff8111828210171561465e5761465e6145d3565b604052919050565b6000602080838503121561467957600080fd5b823567ffffffffffffffff8082111561469157600080fd5b818501915085601f8301126146a557600080fd5b8135818111156146b7576146b76145d3565b8060051b91506146c8848301614635565b81815291830184019184810190888411156146e257600080fd5b938501935b83851015614700578435825293850193908501906146e7565b98975050505050505050565b805182526020810151602083015260408101511515604083015260608101511515606083015260808101511515608083015260a081015161476660a084018280511515825260208082015190830152604090810151910152565b5060c0810151805115156101008401526020810151151561012084015260408101511515610140840152606081015161016084015260808101516101808401525060e0015180516001600160a01b039081166101a0840152602082015181166101c0840152604090910151166101e090910152565b6020808252825182820181905260009190848201906040850190845b8181101561481e5761480a83855161470c565b9284019261020092909201916001016147f7565b50909695505050505050565b80356001600160a01b038116811461378d57600080fd5b60008060006060848603121561485657600080fd5b61485f8461482a565b925061486d6020850161482a565b9150604084013590509250925092565b60006020828403121561488f57600080fd5b5035919050565b600080604083850312156148a957600080fd5b823591506148b96020840161482a565b90509250929050565b8015158114610e7b57600080fd5b803561378d816148c2565b6000806000606084860312156148f057600080fd5b83359250602084013591506040840135614909816148c2565b809150509250925092565b6000806040838503121561492757600080fd5b6149308361482a565b91506148b96020840161482a565b6000806000806080858703121561495457600080fd5b8435935060208501359250604085013561496d816148c2565b9150606085013561497d816148c2565b939692955090935050565b60006060828403121561499a57600080fd5b6149a26145e9565b90506149ad8261482a565b81526149bb6020830161482a565b60208201526149cc6040830161482a565b604082015292915050565b60008060008060008587036101a08112156149f157600080fd5b60608112156149ff57600080fd5b614a076145e9565b8735614a12816148c2565b81526020888101359082015260408089013590820152955060a0605f1982011215614a3c57600080fd5b50614a45614612565b6060870135614a53816148c2565b81526080870135614a63816148c2565b602082015260a0870135614a76816148c2565b604082015260c0870135606082015260e087013560808201529350614a9f876101008801614988565b9250614aae61016087016148d0565b9150614abd61018087016148d0565b90509295509295909350565b888152602081018890528615156040820152851515606082015284151560808201526102008101614b1360a083018680511515825260208082015190830152604090810151910152565b8351151561010083015260208401511515610120830152604084015115156101408301526060840151610160830152608084015161018083015282516001600160a01b039081166101a0840152602084015181166101c08401526040840151166101e08301529998505050505050505050565b600060208284031215614b9857600080fd5b613c5b8261482a565b61020081016106c2828461470c565b600080600080600060a08688031215614bc857600080fd5b614bd18661482a565b9450614bdf6020870161482a565b9350614bed6040870161482a565b9250614bfb6060870161482a565b9150614abd6080870161482a565b634e487b7160e01b600052603260045260246000fd5b634e487b7160e01b600052601160045260246000fd5b6000600019821415614c4957614c49614c1f565b5060010190565b600060208284031215614c6257600080fd5b8151613c5b816148c2565b600082821015614c7f57614c7f614c1f565b500390565b6020808252600590820152640daeae8caf60db1b604082015260600190565b6020808252600890820152670cec2e664d0d2ced60c31b604082015260600190565b6020808252600b908201526a109b1bd8dadb1a5cdd195960aa1b604082015260600190565b60008219821115614cfd57614cfd614c1f565b500190565b6000816000190483118215151615614d1c57614d1c614c1f565b500290565b600082614d3e57634e487b7160e01b600052601260045260246000fd5b500490565b6001600160a01b039384168152919092166020820152604081019190915260600190565b600060208284031215614d7957600080fd5b5051919050565b600081518084526020808501945080840160005b83811015614db057815187529582019590820190600101614d94565b509495945050505050565b6001600160a01b03868116825285166020820152604081018490526060810183905260a060808201819052600090614df590830184614d80565b979650505050505050565b60018060a01b0384168152826020820152606060408201526000614e276060830184614d80565b95945050505050565b84815260018060a01b0384166020820152826040820152608060608201526000614e5d6080830184614d80565b9695505050505050565b634e487b7160e01b600052603160045260246000fd5b60005b83811015614e98578181015183820152602001614e80565b838111156143705750506000910152565b7f416363657373436f6e74726f6c3a206163636f756e7420000000000000000000815260008351614ee1816017850160208801614e7d565b7001034b99036b4b9b9b4b733903937b6329607d1b6017918401918201528351614f12816028840160208801614e7d565b01602801949350505050565b6020815260008251806020840152614f3d816040850160208701614e7d565b601f01601f19169190910160400192915050565b600081614f6057614f60614c1f565b50600019019056fe97667070c54ef182b0f5858b034beac1b6f3089aa2d3188bb1e8929f4fa9b929a26469706673582212206f951f9811e160cf24bcadd8270d12a613e0cdd5532643b5f06061f64b943cf064736f6c63430008090033",
  "linkReferences": {},
  "deployedLinkReferences": {}
}