{
  "_format": "hh-sol-artifact-1",
  "contractName": "BkVaultV2",
  "sourceName": "contracts/features/BkVaultV2/BkVaultV2.sol",
  "abi": [
    {
      "inputs": [],
      "name": "ECDSAInvalidSignature",
      "type": "error"
    },
    {
      "inputs": [
        {
          "internalType": "uint256",
          "name": "length",
          "type": "uint256"
        }
      ],
      "name": "ECDSAInvalidSignatureLength",
      "type": "error"
    },
    {
      "inputs": [
        {
          "internalType": "bytes32",
          "name": "s",
          "type": "bytes32"
        }
      ],
      "name": "ECDSAInvalidSignatureS",
      "type": "error"
    },
    {
      "anonymous": false,
      "inputs": [
        {
          "indexed": false,
          "internalType": "address",
          "name": "playerAddress",
          "type": "address"
        },
        {
          "indexed": false,
          "internalType": "uint256",
          "name": "eBct",
          "type": "uint256"
        },
        {
          "indexed": false,
          "internalType": "uint256[]",
          "name": "resources",
          "type": "uint256[]"
        }
      ],
      "name": "Claimed",
      "type": "event"
    },
    {
      "anonymous": false,
      "inputs": [
        {
          "indexed": false,
          "internalType": "uint8",
          "name": "version",
          "type": "uint8"
        }
      ],
      "name": "Initialized",
      "type": "event"
    },
    {
      "anonymous": false,
      "inputs": [
        {
          "indexed": false,
          "internalType": "address",
          "name": "account",
          "type": "address"
        }
      ],
      "name": "Paused",
      "type": "event"
    },
    {
      "anonymous": false,
      "inputs": [
        {
          "indexed": true,
          "internalType": "bytes32",
          "name": "role",
          "type": "bytes32"
        },
        {
          "indexed": true,
          "internalType": "bytes32",
          "name": "previousAdminRole",
          "type": "bytes32"
        },
        {
          "indexed": true,
          "internalType": "bytes32",
          "name": "newAdminRole",
          "type": "bytes32"
        }
      ],
      "name": "RoleAdminChanged",
      "type": "event"
    },
    {
      "anonymous": false,
      "inputs": [
        {
          "indexed": true,
          "internalType": "bytes32",
          "name": "role",
          "type": "bytes32"
        },
        {
          "indexed": true,
          "internalType": "address",
          "name": "account",
          "type": "address"
        },
        {
          "indexed": true,
          "internalType": "address",
          "name": "sender",
          "type": "address"
        }
      ],
      "name": "RoleGranted",
      "type": "event"
    },
    {
      "anonymous": false,
      "inputs": [
        {
          "indexed": true,
          "internalType": "bytes32",
          "name": "role",
          "type": "bytes32"
        },
        {
          "indexed": true,
          "internalType": "address",
          "name": "account",
          "type": "address"
        },
        {
          "indexed": true,
          "internalType": "address",
          "name": "sender",
          "type": "address"
        }
      ],
      "name": "RoleRevoked",
      "type": "event"
    },
    {
      "anonymous": false,
      "inputs": [
        {
          "indexed": false,
          "internalType": "address",
          "name": "account",
          "type": "address"
        }
      ],
      "name": "Unpaused",
      "type": "event"
    },
    {
      "inputs": [],
      "name": "DEFAULT_ADMIN_ROLE",
      "outputs": [
        {
          "internalType": "bytes32",
          "name": "",
          "type": "bytes32"
        }
      ],
      "stateMutability": "view",
      "type": "function"
    },
    {
      "inputs": [
        {
          "internalType": "address",
          "name": "_operator",
          "type": "address"
        }
      ],
      "name": "__Administrable_init",
      "outputs": [],
      "stateMutability": "nonpayable",
      "type": "function"
    },
    {
      "inputs": [],
      "name": "blocklist",
      "outputs": [
        {
          "internalType": "contract IBlocklist",
          "name": "",
          "type": "address"
        }
      ],
      "stateMutability": "view",
      "type": "function"
    },
    {
      "inputs": [
        {
          "internalType": "bytes32",
          "name": "hashDigest",
          "type": "bytes32"
        },
        {
          "components": [
            {
              "internalType": "address",
              "name": "guardianAddress",
              "type": "address"
            },
            {
              "internalType": "address",
              "name": "playerAddress",
              "type": "address"
            },
            {
              "internalType": "uint256",
              "name": "eBct",
              "type": "uint256"
            },
            {
              "internalType": "uint256[]",
              "name": "resources",
              "type": "uint256[]"
            },
            {
              "internalType": "uint256",
              "name": "nonce",
              "type": "uint256"
            }
          ],
          "internalType": "struct VaultSignatureV2.ClaimData",
          "name": "claimData",
          "type": "tuple"
        },
        {
          "components": [
            {
              "internalType": "address",
              "name": "signer",
              "type": "address"
            },
            {
              "internalType": "uint8",
              "name": "_v",
              "type": "uint8"
            },
            {
              "internalType": "bytes32",
              "name": "_r",
              "type": "bytes32"
            },
            {
              "internalType": "bytes32",
              "name": "_s",
              "type": "bytes32"
            }
          ],
          "internalType": "struct VaultSigGuardianV2.SignatureData",
          "name": "signatureData",
          "type": "tuple"
        }
      ],
      "name": "claim",
      "outputs": [],
      "stateMutability": "nonpayable",
      "type": "function"
    },
    {
      "inputs": [
        {
          "internalType": "bytes32",
          "name": "role",
          "type": "bytes32"
        }
      ],
      "name": "getRoleAdmin",
      "outputs": [
        {
          "internalType": "bytes32",
          "name": "",
          "type": "bytes32"
        }
      ],
      "stateMutability": "view",
      "type": "function"
    },
    {
      "inputs": [
        {
          "internalType": "bytes32",
          "name": "role",
          "type": "bytes32"
        },
        {
          "internalType": "address",
          "name": "account",
          "type": "address"
        }
      ],
      "name": "grantRole",
      "outputs": [],
      "stateMutability": "nonpayable",
      "type": "function"
    },
    {
      "inputs": [],
      "name": "hasBlocklist",
      "outputs": [
        {
          "internalType": "bool",
          "name": "",
          "type": "bool"
        }
      ],
      "stateMutability": "view",
      "type": "function"
    },
    {
      "inputs": [
        {
          "internalType": "bytes32",
          "name": "role",
          "type": "bytes32"
        },
        {
          "internalType": "address",
          "name": "account",
          "type": "address"
        }
      ],
      "name": "hasRole",
      "outputs": [
        {
          "internalType": "bool",
          "name": "",
          "type": "bool"
        }
      ],
      "stateMutability": "view",
      "type": "function"
    },
    {
      "inputs": [
        {
          "internalType": "address",
          "name": "_operator",
          "type": "address"
        },
        {
          "internalType": "address",
          "name": "_initialValidator",
          "type": "address"
        }
      ],
      "name": "initialize",
      "outputs": [],
      "stateMutability": "nonpayable",
      "type": "function"
    },
    {
      "inputs": [
        {
          "internalType": "address",
          "name": "",
          "type": "address"
        }
      ],
      "name": "lastNonceUpBlock",
      "outputs": [
        {
          "internalType": "uint256",
          "name": "",
          "type": "uint256"
        }
      ],
      "stateMutability": "view",
      "type": "function"
    },
    {
      "inputs": [
        {
          "internalType": "address",
          "name": "",
          "type": "address"
        }
      ],
      "name": "nonces",
      "outputs": [
        {
          "internalType": "uint256",
          "name": "",
          "type": "uint256"
        }
      ],
      "stateMutability": "view",
      "type": "function"
    },
    {
      "inputs": [],
      "name": "pause",
      "outputs": [],
      "stateMutability": "nonpayable",
      "type": "function"
    },
    {
      "inputs": [],
      "name": "paused",
      "outputs": [
        {
          "internalType": "bool",
          "name": "",
          "type": "bool"
        }
      ],
      "stateMutability": "view",
      "type": "function"
    },
    {
      "inputs": [
        {
          "internalType": "address",
          "name": "tokenAddress",
          "type": "address"
        },
        {
          "internalType": "address",
          "name": "to",
          "type": "address"
        },
        {
          "internalType": "uint256",
          "name": "amount",
          "type": "uint256"
        }
      ],
      "name": "recoverERC20",
      "outputs": [],
      "stateMutability": "nonpayable",
      "type": "function"
    },
    {
      "inputs": [
        {
          "internalType": "bytes32",
          "name": "role",
          "type": "bytes32"
        },
        {
          "internalType": "address",
          "name": "account",
          "type": "address"
        }
      ],
      "name": "renounceRole",
      "outputs": [],
      "stateMutability": "nonpayable",
      "type": "function"
    },
    {
      "inputs": [
        {
          "internalType": "bytes32",
          "name": "role",
          "type": "bytes32"
        },
        {
          "internalType": "address",
          "name": "account",
          "type": "address"
        }
      ],
      "name": "revokeRole",
      "outputs": [],
      "stateMutability": "nonpayable",
      "type": "function"
    },
    {
      "inputs": [
        {
          "internalType": "address",
          "name": "blocklistAddress",
          "type": "address"
        }
      ],
      "name": "setBlocklist",
      "outputs": [],
      "stateMutability": "nonpayable",
      "type": "function"
    },
    {
      "inputs": [
        {
          "internalType": "address",
          "name": "_farm",
          "type": "address"
        }
      ],
      "name": "setContracts",
      "outputs": [],
      "stateMutability": "nonpayable",
      "type": "function"
    },
    {
      "inputs": [
        {
          "internalType": "address",
          "name": "validator",
          "type": "address"
        },
        {
          "internalType": "bool",
          "name": "isValid",
          "type": "bool"
        }
      ],
      "name": "setValidator",
      "outputs": [],
      "stateMutability": "nonpayable",
      "type": "function"
    },
    {
      "inputs": [
        {
          "internalType": "bytes4",
          "name": "interfaceId",
          "type": "bytes4"
        }
      ],
      "name": "supportsInterface",
      "outputs": [
        {
          "internalType": "bool",
          "name": "",
          "type": "bool"
        }
      ],
      "stateMutability": "view",
      "type": "function"
    },
    {
      "inputs": [],
      "name": "unpause",
      "outputs": [],
      "stateMutability": "nonpayable",
      "type": "function"
    }
  ],
  "bytecode": "0x608060405234801561001057600080fd5b5061194f806100206000396000f3fe608060405234801561001057600080fd5b50600436106101375760003560e01c80635c975abb116100b857806391d148541161007c57806391d148541461028b578063a217fddf1461029e578063aef18ae7146102a6578063d547741f146102b9578063d64e5396146102cc578063dc3af73c146102f757600080fd5b80635c975abb14610224578063634210f41461022f5780637ecebe00146102435780638456cb591461026357806388d8d28c1461026b57600080fd5b806336568abe116100ff57806336568abe146101d05780633f4ba83a146101e35780634623c91d146101eb578063485cc955146101fe5780635a2e2f471461021157600080fd5b806301ffc9a71461013c578063070b6449146101645780631171bda914610179578063248a9ca31461018c5780632f2ff15d146101bd575b600080fd5b61014f61014a366004611387565b61030a565b60405190151581526020015b60405180910390f35b6101776101723660046113cd565b610341565b005b6101776101873660046113e8565b61045e565b6101af61019a366004611424565b60009081526069602052604090206001015490565b60405190815260200161015b565b6101776101cb36600461143d565b6104f0565b6101776101de36600461143d565b61051a565b610177610539565b6101776101f9366004611477565b61055c565b61017761020c3660046114ae565b61057e565b61017761021f3660046113cd565b610651565b609b5460ff1661014f565b60cd5461014f90600160a01b900460ff1681565b6101af6102513660046113cd565b60026020526000908152604090205481565b61017761068c565b6101af6102793660046113cd565b60036020526000908152604090205481565b61014f61029936600461143d565b6106ac565b6101af600081565b6101776102b43660046113cd565b6106d7565b6101776102c736600461143d565b61071a565b60cd546102df906001600160a01b031681565b6040516001600160a01b03909116815260200161015b565b610177610305366004611560565b61073f565b60006001600160e01b03198216637965db0b60e01b148061033b57506301ffc9a760e01b6001600160e01b03198316145b92915050565b60045462010000900460ff16158080156103665750600454600161010090910460ff16105b806103865750303b158015610386575060045460ff610100909104166001145b61038f57600080fd5b6004805461ff00191661010017905580156103b6576004805462ff00001916620100001790555b6103be6107b2565b6103c66107c9565b6103d16000836107e6565b6103e96000805160206118fa833981519152836107e6565b6104137f73e573f9566d61418a34d5de3ff49360f9c51fec37f7486551670290f6285dab836107e6565b801561045a576004805462ff000019169055604051600181527f7f26b83ff96e1f2b6a682f133852f6798a09c465da95921460cefb38474024989060200160405180910390a15b5050565b6000805160206118fa833981519152610476816107f0565b60405163a9059cbb60e01b81526001600160a01b0384811660048301526024820184905285169063a9059cbb906044016020604051808303816000875af11580156104c5573d6000803e3d6000fd5b505050506040513d601f19601f820116820180604052508101906104e99190611684565b5050505050565b60008281526069602052604090206001015461050b816107f0565b61051583836107fa565b505050565b6001600160a01b038116331461052f57600080fd5b61045a8282610880565b6000805160206118fa833981519152610551816107f0565b6105596108e7565b50565b6000805160206118fa833981519152610574816107f0565b6105158383610939565b60045462010000900460ff16158080156105a35750600454600161010090910460ff16105b806105c35750303b1580156105c3575060045460ff610100909104166001145b6105cc57600080fd5b6004805461ff00191661010017905580156105f3576004805462ff00001916620100001790555b6105fc83610341565b61060582610964565b8015610515576004805462ff000019169055604051600181527f7f26b83ff96e1f2b6a682f133852f6798a09c465da95921460cefb3847402498906020015b60405180910390a1505050565b6000805160206118fa833981519152610669816107f0565b5060ce80546001600160a01b0319166001600160a01b0392909216919091179055565b6000805160206118fa8339815191526106a4816107f0565b6105596109c8565b60009182526069602090815260408084206001600160a01b0393909316845291905290205460ff1690565b6000805160206118fa8339815191526106ef816107f0565b61045a8260cd80546001600160a81b0319166001600160a01b0390921691909117600160a01b179055565b600082815260696020526040902060010154610735816107f0565b6105158383610880565b610747610a05565b61075033610a15565b156107905760405162461bcd60e51b815260206004820152600b60248201526a109b1bd8dadb1a5cdd195960aa1b60448201526064015b60405180910390fd5b61079b838383610a9f565b610515826020015183604001518460600151610c54565b60045462010000900460ff166107c757600080fd5b565b60045462010000900460ff166107de57600080fd5b6107c7610ced565b61045a82826107fa565b6105598133610d0e565b61080482826106ac565b61045a5760008281526069602090815260408083206001600160a01b03851684529091529020805460ff1916600117905561083c3390565b6001600160a01b0316816001600160a01b0316837f2f8788117e7eff1d82e926ec794901d17c78024a50270940304540a733656f0d60405160405180910390a45050565b61088a82826106ac565b1561045a5760008281526069602090815260408083206001600160a01b0385168085529252808320805460ff1916905551339285917ff6391f5c32d9c69d2a47ea670b442974b53935d1edc7fd64eb21e047a839171b9190a45050565b6108ef610d67565b609b805460ff191690557f5db9ee0a495bf2e6ff9c91a7834c1ba4fdd244a5e8aa4e537bd38aeae4b073aa335b6040516001600160a01b03909116815260200160405180910390a1565b6001600160a01b03919091166000908152602081905260409020805460ff1916911515919091179055565b60045460ff16156109ad5760405162461bcd60e51b81526020600482015260136024820152721053149150511657d253925512505312569151606a1b6044820152606401610787565b6109b8816001610939565b506004805460ff19166001179055565b6109d0610a05565b609b805460ff191660011790557f62e78cea01bee320cd4e420270b5ea74000d11b0c9f74754ebdbfc544b05a25861091c3390565b609b5460ff16156107c757600080fd5b60cd54600090600160a01b900460ff16610a3157506000919050565b60cd54604051638e204c4360e01b81526001600160a01b03848116600483015290911690638e204c4390602401602060405180830381865afa158015610a7b573d6000803e3d6000fd5b505050506040513d601f19601f8201168201806040525081019061033b9190611684565b81516001600160a01b03163014610ae75760405162461bcd60e51b815260206004820152600c60248201526b24a72b2fa3aaa0a92224a0a760a11b6044820152606401610787565b610af18383610d76565b610b285760405162461bcd60e51b8152602060048201526008602482015267494e565f4441544160c01b6044820152606401610787565b610b328382610d8c565b610b6b5760405162461bcd60e51b815260206004820152600a60248201526924a72b2fa9a4a3a722a960b11b6044820152606401610787565b610b7d82602001518360800151610efa565b610bb55760405162461bcd60e51b8152602060048201526009602482015268494e565f4e4f4e434560b81b6044820152606401610787565b60008381526001602052604090205460ff1615610c035760405162461bcd60e51b815260206004820152600c60248201526b12539597d0d310525357d25160a21b6044820152606401610787565b506000918252600160208181526040808520805460ff191690931790925582810180516001600160a01b03908116865260038352838620439055608090940151905190931684526002905290912055565b60ce546040516304567ca960e11b81526001600160a01b03909116906308acf95290610c88908690869086906004016116dc565b600060405180830381600087803b158015610ca257600080fd5b505af1158015610cb6573d6000803e3d6000fd5b505050507fa6836ed9f6b0bfa430c6b744cac7cc781c2a5b5be98f6e7ca42d32fd16bc6af3838383604051610644939291906116dc565b60045462010000900460ff16610d0257600080fd5b609b805460ff19169055565b610d1882826106ac565b61045a57610d2581610fac565b610d30836020610fbe565b604051602001610d41929190611730565b60408051601f198184030181529082905262461bcd60e51b8252610787916004016117d1565b609b5460ff166107c757600080fd5b600080610d828361111e565b9093149392505050565b6040517f19457468657265756d205369676e6564204d6573736167653a0a3332000000006020820152603c81018390526000908190605c016040516020818303038152906040528051906020012090506000610e0482856020016020810190610df591906117e4565b86604001358760600135611167565b9050610e3d604051806040016040528060158152602001745f686173436f72726563745369676e65723f20257360581b81525082611195565b6001600160a01b03811660009081526020819052604090205460ff16610e955760405162461bcd60e51b815260206004820152600d60248201526c24a72b2fab20a624a220aa27a960991b6044820152606401610787565b6001600160a01b038116610eac60208601866113cd565b6001600160a01b031614610eef5760405162461bcd60e51b815260206004820152600a60248201526924a72b2fa9a4a3a722a960b11b6044820152606401610787565b506001949350505050565b6001600160a01b0382166000908152600360205260408120541580610f4357506001600160a01b038316600090815260036020526040902054610f40906203840061181d565b43115b610f7f5760405162461bcd60e51b815260206004820152600d60248201526c12539597d393d390d157d55411609a1b6044820152606401610787565b6001600160a01b038316600090815260026020526040902054610fa390600161181d565b90911492915050565b606061033b6001600160a01b03831660145b60606000610fcd836002611830565b610fd890600261181d565b67ffffffffffffffff811115610ff057610ff06114d8565b6040519080825280601f01601f19166020018201604052801561101a576020820181803683370190505b509050600360fc1b8160008151811061103557611035611847565b60200101906001600160f81b031916908160001a905350600f60fb1b8160018151811061106457611064611847565b60200101906001600160f81b031916908160001a9053506000611088846002611830565b61109390600161181d565b90505b600181111561110b576f181899199a1a9b1b9c1cb0b131b232b360811b85600f16601081106110c7576110c7611847565b1a60f81b8282815181106110dd576110dd611847565b60200101906001600160f81b031916908160001a90535060049490941c936111048161185d565b9050611096565b50831561111757600080fd5b9392505050565b8051602080830151604080850151606086015160808701519251600096611149969095949101611874565b60408051601f19818403018152919052805160209091012092915050565b600080600080611179888888886111da565b92509250925061118982826112a9565b50909695505050505050565b61045a82826040516024016111ab9291906118b9565b60408051601f198184030181529190526020810180516001600160e01b031663319af33360e01b179052611362565b600080807f7fffffffffffffffffffffffffffffff5d576e7357a4501ddfe92f46681b20a0841115611215575060009150600390508261129f565b604080516000808252602082018084528a905260ff891692820192909252606081018790526080810186905260019060a0016020604051602081039080840390855afa158015611269573d6000803e3d6000fd5b5050604051601f1901519150506001600160a01b0381166112955750600092506001915082905061129f565b9250600091508190505b9450945094915050565b60008260038111156112bd576112bd6118e3565b036112c6575050565b60018260038111156112da576112da6118e3565b036112f85760405163f645eedf60e01b815260040160405180910390fd5b600282600381111561130c5761130c6118e3565b0361132d5760405163fce698f760e01b815260048101829052602401610787565b6003826003811115611341576113416118e3565b0361045a576040516335e2f38360e21b815260048101829052602401610787565b6105598160006a636f6e736f6c652e6c6f679050600080835160208501845afa505050565b60006020828403121561139957600080fd5b81356001600160e01b03198116811461111757600080fd5b80356001600160a01b03811681146113c857600080fd5b919050565b6000602082840312156113df57600080fd5b611117826113b1565b6000806000606084860312156113fd57600080fd5b611406846113b1565b9250611414602085016113b1565b9150604084013590509250925092565b60006020828403121561143657600080fd5b5035919050565b6000806040838503121561145057600080fd5b82359150611460602084016113b1565b90509250929050565b801515811461055957600080fd5b6000806040838503121561148a57600080fd5b611493836113b1565b915060208301356114a381611469565b809150509250929050565b600080604083850312156114c157600080fd5b6114ca836113b1565b9150611460602084016113b1565b634e487b7160e01b600052604160045260246000fd5b60405160a0810167ffffffffffffffff81118282101715611511576115116114d8565b60405290565b604051601f8201601f1916810167ffffffffffffffff81118282101715611540576115406114d8565b604052919050565b60006080828403121561155a57600080fd5b50919050565b600080600060c0848603121561157557600080fd5b8335925060208085013567ffffffffffffffff8082111561159557600080fd5b9086019060a082890312156115a957600080fd5b6115b16114ee565b6115ba836113b1565b81526115c78484016113b1565b84820152604083013560408201526060830135828111156115e757600080fd5b8301601f81018a136115f857600080fd5b80358381111561160a5761160a6114d8565b8060051b935061161b868501611517565b818152938201860193868101908c86111561163557600080fd5b928701925b858410156116535783358252928701929087019061163a565b80606086015250505050608083013560808201528095505050505061167b8560408601611548565b90509250925092565b60006020828403121561169657600080fd5b815161111781611469565b600081518084526020808501945080840160005b838110156116d1578151875295820195908201906001016116b5565b509495945050505050565b60018060a01b038416815282602082015260606040820152600061170360608301846116a1565b95945050505050565b60005b8381101561172757818101518382015260200161170f565b50506000910152565b7f416363657373436f6e74726f6c3a206163636f756e742000000000000000000081526000835161176881601785016020880161170c565b7001034b99036b4b9b9b4b733903937b6329607d1b601791840191820152835161179981602884016020880161170c565b01602801949350505050565b600081518084526117bd81602086016020860161170c565b601f01601f19169290920160200192915050565b60208152600061111760208301846117a5565b6000602082840312156117f657600080fd5b813560ff8116811461111757600080fd5b634e487b7160e01b600052601160045260246000fd5b8082018082111561033b5761033b611807565b808202811582820484141761033b5761033b611807565b634e487b7160e01b600052603260045260246000fd5b60008161186c5761186c611807565b506000190190565b6001600160a01b038681168252851660208201526040810184905260a0606082018190526000906118a7908301856116a1565b90508260808301529695505050505050565b6040815260006118cc60408301856117a5565b905060018060a01b03831660208301529392505050565b634e487b7160e01b600052602160045260246000fdfe97667070c54ef182b0f5858b034beac1b6f3089aa2d3188bb1e8929f4fa9b929a2646970667358221220d7c98b2892260fccc317c531eeb9f3759b9fcef3bd8c514f62127ab94ecf4d1b64736f6c63430008140033",
  "linkReferences": {},
  "deployedLinkReferences": {}
}