{
  "_format": "hh-sol-artifact-1",
  "contractName": "BkHighUpgrades",
  "sourceName": "contracts/features/BkHighUpgrades.sol",
  "abi": [
    {
      "anonymous": false,
      "inputs": [
        {
          "indexed": false,
          "internalType": "address",
          "name": "account",
          "type": "address"
        },
        {
          "indexed": false,
          "internalType": "uint256",
          "name": "masteryIndex",
          "type": "uint256"
        },
        {
          "indexed": false,
          "internalType": "uint256",
          "name": "oldLevel",
          "type": "uint256"
        },
        {
          "indexed": false,
          "internalType": "uint256",
          "name": "newLevel",
          "type": "uint256"
        }
      ],
      "name": "BuyMastery",
      "type": "event"
    },
    {
      "anonymous": false,
      "inputs": [
        {
          "indexed": false,
          "internalType": "address",
          "name": "account",
          "type": "address"
        },
        {
          "indexed": false,
          "internalType": "uint256",
          "name": "beastId",
          "type": "uint256"
        },
        {
          "indexed": false,
          "internalType": "uint256",
          "name": "oldSpecies",
          "type": "uint256"
        },
        {
          "indexed": false,
          "internalType": "uint256",
          "name": "newSpecies",
          "type": "uint256"
        }
      ],
      "name": "Deify",
      "type": "event"
    },
    {
      "anonymous": false,
      "inputs": [
        {
          "indexed": false,
          "internalType": "address",
          "name": "to",
          "type": "address"
        },
        {
          "indexed": false,
          "internalType": "uint256",
          "name": "amount",
          "type": "uint256"
        }
      ],
      "name": "DismantleAiChips",
      "type": "event"
    },
    {
      "anonymous": false,
      "inputs": [
        {
          "indexed": false,
          "internalType": "address",
          "name": "account",
          "type": "address"
        },
        {
          "indexed": false,
          "internalType": "uint256",
          "name": "oldLevel",
          "type": "uint256"
        },
        {
          "indexed": false,
          "internalType": "uint256",
          "name": "newLevel",
          "type": "uint256"
        }
      ],
      "name": "GlobalFarmingBonus",
      "type": "event"
    },
    {
      "anonymous": false,
      "inputs": [
        {
          "indexed": false,
          "internalType": "uint8",
          "name": "version",
          "type": "uint8"
        }
      ],
      "name": "Initialized",
      "type": "event"
    },
    {
      "anonymous": false,
      "inputs": [
        {
          "indexed": false,
          "internalType": "address",
          "name": "account",
          "type": "address"
        }
      ],
      "name": "Paused",
      "type": "event"
    },
    {
      "anonymous": false,
      "inputs": [
        {
          "indexed": true,
          "internalType": "bytes32",
          "name": "role",
          "type": "bytes32"
        },
        {
          "indexed": true,
          "internalType": "bytes32",
          "name": "previousAdminRole",
          "type": "bytes32"
        },
        {
          "indexed": true,
          "internalType": "bytes32",
          "name": "newAdminRole",
          "type": "bytes32"
        }
      ],
      "name": "RoleAdminChanged",
      "type": "event"
    },
    {
      "anonymous": false,
      "inputs": [
        {
          "indexed": true,
          "internalType": "bytes32",
          "name": "role",
          "type": "bytes32"
        },
        {
          "indexed": true,
          "internalType": "address",
          "name": "account",
          "type": "address"
        },
        {
          "indexed": true,
          "internalType": "address",
          "name": "sender",
          "type": "address"
        }
      ],
      "name": "RoleGranted",
      "type": "event"
    },
    {
      "anonymous": false,
      "inputs": [
        {
          "indexed": true,
          "internalType": "bytes32",
          "name": "role",
          "type": "bytes32"
        },
        {
          "indexed": true,
          "internalType": "address",
          "name": "account",
          "type": "address"
        },
        {
          "indexed": true,
          "internalType": "address",
          "name": "sender",
          "type": "address"
        }
      ],
      "name": "RoleRevoked",
      "type": "event"
    },
    {
      "anonymous": false,
      "inputs": [
        {
          "indexed": false,
          "internalType": "address",
          "name": "to",
          "type": "address"
        },
        {
          "indexed": false,
          "internalType": "uint256",
          "name": "amount",
          "type": "uint256"
        }
      ],
      "name": "TransferAiChips",
      "type": "event"
    },
    {
      "anonymous": false,
      "inputs": [
        {
          "indexed": false,
          "internalType": "address",
          "name": "to",
          "type": "address"
        },
        {
          "indexed": false,
          "internalType": "uint256[]",
          "name": "resources",
          "type": "uint256[]"
        }
      ],
      "name": "TransferResources",
      "type": "event"
    },
    {
      "anonymous": false,
      "inputs": [
        {
          "indexed": false,
          "internalType": "address",
          "name": "account",
          "type": "address"
        }
      ],
      "name": "Unpaused",
      "type": "event"
    },
    {
      "inputs": [],
      "name": "DEFAULT_ADMIN_ROLE",
      "outputs": [
        {
          "internalType": "bytes32",
          "name": "",
          "type": "bytes32"
        }
      ],
      "stateMutability": "view",
      "type": "function"
    },
    {
      "inputs": [
        {
          "internalType": "address",
          "name": "_operator",
          "type": "address"
        }
      ],
      "name": "__Administrable_init",
      "outputs": [],
      "stateMutability": "nonpayable",
      "type": "function"
    },
    {
      "inputs": [],
      "name": "autoReturnRate",
      "outputs": [
        {
          "internalType": "uint256",
          "name": "",
          "type": "uint256"
        }
      ],
      "stateMutability": "view",
      "type": "function"
    },
    {
      "inputs": [
        {
          "internalType": "uint256",
          "name": "bctAmount",
          "type": "uint256"
        }
      ],
      "name": "bctToBusd",
      "outputs": [
        {
          "internalType": "uint256",
          "name": "",
          "type": "uint256"
        }
      ],
      "stateMutability": "view",
      "type": "function"
    },
    {
      "inputs": [
        {
          "internalType": "uint256",
          "name": "busdAmount",
          "type": "uint256"
        }
      ],
      "name": "busdToBct",
      "outputs": [
        {
          "internalType": "uint256",
          "name": "",
          "type": "uint256"
        }
      ],
      "stateMutability": "view",
      "type": "function"
    },
    {
      "inputs": [
        {
          "internalType": "uint256",
          "name": "levels",
          "type": "uint256"
        }
      ],
      "name": "buyGlobalFarmingBonus",
      "outputs": [],
      "stateMutability": "nonpayable",
      "type": "function"
    },
    {
      "inputs": [
        {
          "internalType": "uint256",
          "name": "masteryIndex",
          "type": "uint256"
        },
        {
          "internalType": "uint256",
          "name": "levels",
          "type": "uint256"
        }
      ],
      "name": "buyMastery",
      "outputs": [],
      "stateMutability": "nonpayable",
      "type": "function"
    },
    {
      "inputs": [],
      "name": "contracts",
      "outputs": [
        {
          "internalType": "contract IBkFarmV18P9",
          "name": "farm",
          "type": "address"
        },
        {
          "internalType": "contract IMhdaoNft",
          "name": "nft",
          "type": "address"
        },
        {
          "internalType": "contract IBkStasher2",
          "name": "stasher",
          "type": "address"
        },
        {
          "internalType": "contract IBkBalancesP9",
          "name": "balances",
          "type": "address"
        },
        {
          "internalType": "contract IBkDnaManagerP9",
          "name": "dnaManager",
          "type": "address"
        },
        {
          "internalType": "contract IBkPlayerBonusP9",
          "name": "playerBonus",
          "type": "address"
        }
      ],
      "stateMutability": "view",
      "type": "function"
    },
    {
      "inputs": [
        {
          "internalType": "uint256[]",
          "name": "beastIds",
          "type": "uint256[]"
        }
      ],
      "name": "deify",
      "outputs": [],
      "stateMutability": "nonpayable",
      "type": "function"
    },
    {
      "inputs": [
        {
          "internalType": "uint256",
          "name": "howMany",
          "type": "uint256"
        }
      ],
      "name": "dismantleAiChips",
      "outputs": [],
      "stateMutability": "nonpayable",
      "type": "function"
    },
    {
      "inputs": [
        {
          "internalType": "bool",
          "name": "_enable",
          "type": "bool"
        }
      ],
      "name": "enableAiChips",
      "outputs": [],
      "stateMutability": "nonpayable",
      "type": "function"
    },
    {
      "inputs": [
        {
          "internalType": "bool",
          "name": "_enable",
          "type": "bool"
        }
      ],
      "name": "enableDeify",
      "outputs": [],
      "stateMutability": "nonpayable",
      "type": "function"
    },
    {
      "inputs": [
        {
          "internalType": "bool",
          "name": "_enable",
          "type": "bool"
        }
      ],
      "name": "enableGlobalFarmingBonus",
      "outputs": [],
      "stateMutability": "nonpayable",
      "type": "function"
    },
    {
      "inputs": [
        {
          "internalType": "bool",
          "name": "_enable",
          "type": "bool"
        }
      ],
      "name": "enableMasteries",
      "outputs": [],
      "stateMutability": "nonpayable",
      "type": "function"
    },
    {
      "inputs": [
        {
          "internalType": "uint256",
          "name": "howMany",
          "type": "uint256"
        }
      ],
      "name": "getAiChipCosts",
      "outputs": [
        {
          "internalType": "uint256",
          "name": "",
          "type": "uint256"
        },
        {
          "internalType": "uint256[]",
          "name": "",
          "type": "uint256[]"
        }
      ],
      "stateMutability": "view",
      "type": "function"
    },
    {
      "inputs": [
        {
          "internalType": "uint256",
          "name": "originalType",
          "type": "uint256"
        }
      ],
      "name": "getDeifyCosts",
      "outputs": [
        {
          "internalType": "uint256",
          "name": "",
          "type": "uint256"
        },
        {
          "internalType": "uint256[]",
          "name": "",
          "type": "uint256[]"
        }
      ],
      "stateMutability": "view",
      "type": "function"
    },
    {
      "inputs": [
        {
          "internalType": "uint256",
          "name": "howMany",
          "type": "uint256"
        }
      ],
      "name": "getDismantleAiChipCosts",
      "outputs": [
        {
          "internalType": "uint256",
          "name": "",
          "type": "uint256"
        },
        {
          "internalType": "uint256[]",
          "name": "",
          "type": "uint256[]"
        }
      ],
      "stateMutability": "view",
      "type": "function"
    },
    {
      "inputs": [
        {
          "internalType": "uint256",
          "name": "currentLevel",
          "type": "uint256"
        },
        {
          "internalType": "uint256",
          "name": "targetLevel",
          "type": "uint256"
        }
      ],
      "name": "getGlobalFarmingBonusCosts",
      "outputs": [
        {
          "internalType": "uint256",
          "name": "",
          "type": "uint256"
        },
        {
          "internalType": "uint256[]",
          "name": "",
          "type": "uint256[]"
        }
      ],
      "stateMutability": "view",
      "type": "function"
    },
    {
      "inputs": [
        {
          "internalType": "uint256",
          "name": "masteryIndex",
          "type": "uint256"
        },
        {
          "internalType": "uint256",
          "name": "currentLevel",
          "type": "uint256"
        },
        {
          "internalType": "uint256",
          "name": "targetLevel",
          "type": "uint256"
        }
      ],
      "name": "getMasteryCosts",
      "outputs": [
        {
          "internalType": "uint256",
          "name": "",
          "type": "uint256"
        },
        {
          "internalType": "uint256[]",
          "name": "",
          "type": "uint256[]"
        }
      ],
      "stateMutability": "view",
      "type": "function"
    },
    {
      "inputs": [
        {
          "internalType": "bytes32",
          "name": "role",
          "type": "bytes32"
        }
      ],
      "name": "getRoleAdmin",
      "outputs": [
        {
          "internalType": "bytes32",
          "name": "",
          "type": "bytes32"
        }
      ],
      "stateMutability": "view",
      "type": "function"
    },
    {
      "inputs": [
        {
          "internalType": "bytes32",
          "name": "role",
          "type": "bytes32"
        },
        {
          "internalType": "address",
          "name": "account",
          "type": "address"
        }
      ],
      "name": "grantRole",
      "outputs": [],
      "stateMutability": "nonpayable",
      "type": "function"
    },
    {
      "inputs": [
        {
          "internalType": "bytes32",
          "name": "role",
          "type": "bytes32"
        },
        {
          "internalType": "address",
          "name": "account",
          "type": "address"
        }
      ],
      "name": "hasRole",
      "outputs": [
        {
          "internalType": "bool",
          "name": "",
          "type": "bool"
        }
      ],
      "stateMutability": "view",
      "type": "function"
    },
    {
      "inputs": [
        {
          "internalType": "address",
          "name": "_operator",
          "type": "address"
        }
      ],
      "name": "initialize",
      "outputs": [],
      "stateMutability": "nonpayable",
      "type": "function"
    },
    {
      "inputs": [
        {
          "internalType": "uint256",
          "name": "",
          "type": "uint256"
        }
      ],
      "name": "masteryIndexToDreamResourceIndex",
      "outputs": [
        {
          "internalType": "uint256",
          "name": "",
          "type": "uint256"
        }
      ],
      "stateMutability": "view",
      "type": "function"
    },
    {
      "inputs": [],
      "name": "maxDeifySpecies",
      "outputs": [
        {
          "internalType": "uint256",
          "name": "",
          "type": "uint256"
        }
      ],
      "stateMutability": "view",
      "type": "function"
    },
    {
      "inputs": [],
      "name": "pause",
      "outputs": [],
      "stateMutability": "nonpayable",
      "type": "function"
    },
    {
      "inputs": [],
      "name": "paused",
      "outputs": [
        {
          "internalType": "bool",
          "name": "",
          "type": "bool"
        }
      ],
      "stateMutability": "view",
      "type": "function"
    },
    {
      "inputs": [],
      "name": "paymentContracts",
      "outputs": [
        {
          "internalType": "contract MHIERC20",
          "name": "bct",
          "type": "address"
        },
        {
          "internalType": "contract MHIERC20",
          "name": "busd",
          "type": "address"
        },
        {
          "internalType": "contract ICommunityPool",
          "name": "pool",
          "type": "address"
        },
        {
          "internalType": "contract IBkFarmV18P9",
          "name": "farm",
          "type": "address"
        }
      ],
      "stateMutability": "view",
      "type": "function"
    },
    {
      "inputs": [
        {
          "internalType": "uint256",
          "name": "",
          "type": "uint256"
        }
      ],
      "name": "priceInEbctPerSpecies",
      "outputs": [
        {
          "internalType": "uint256",
          "name": "",
          "type": "uint256"
        }
      ],
      "stateMutability": "view",
      "type": "function"
    },
    {
      "inputs": [
        {
          "internalType": "uint256",
          "name": "howMany",
          "type": "uint256"
        }
      ],
      "name": "produceAiChips",
      "outputs": [],
      "stateMutability": "nonpayable",
      "type": "function"
    },
    {
      "inputs": [
        {
          "internalType": "address",
          "name": "tokenAddress",
          "type": "address"
        },
        {
          "internalType": "address",
          "name": "to",
          "type": "address"
        },
        {
          "internalType": "uint256",
          "name": "amount",
          "type": "uint256"
        }
      ],
      "name": "recoverERC20",
      "outputs": [],
      "stateMutability": "nonpayable",
      "type": "function"
    },
    {
      "inputs": [
        {
          "internalType": "bytes32",
          "name": "role",
          "type": "bytes32"
        },
        {
          "internalType": "address",
          "name": "account",
          "type": "address"
        }
      ],
      "name": "renounceRole",
      "outputs": [],
      "stateMutability": "nonpayable",
      "type": "function"
    },
    {
      "inputs": [
        {
          "internalType": "uint256",
          "name": "",
          "type": "uint256"
        }
      ],
      "name": "resources",
      "outputs": [
        {
          "internalType": "address",
          "name": "",
          "type": "address"
        }
      ],
      "stateMutability": "view",
      "type": "function"
    },
    {
      "inputs": [],
      "name": "resourcesCount",
      "outputs": [
        {
          "internalType": "uint256",
          "name": "",
          "type": "uint256"
        }
      ],
      "stateMutability": "view",
      "type": "function"
    },
    {
      "inputs": [
        {
          "internalType": "bytes32",
          "name": "role",
          "type": "bytes32"
        },
        {
          "internalType": "address",
          "name": "account",
          "type": "address"
        }
      ],
      "name": "revokeRole",
      "outputs": [],
      "stateMutability": "nonpayable",
      "type": "function"
    },
    {
      "inputs": [],
      "name": "scale",
      "outputs": [
        {
          "internalType": "uint256",
          "name": "",
          "type": "uint256"
        }
      ],
      "stateMutability": "view",
      "type": "function"
    },
    {
      "inputs": [
        {
          "internalType": "address",
          "name": "_farm",
          "type": "address"
        },
        {
          "internalType": "address",
          "name": "_nft",
          "type": "address"
        },
        {
          "internalType": "address",
          "name": "_stasher",
          "type": "address"
        },
        {
          "internalType": "address",
          "name": "_balances",
          "type": "address"
        },
        {
          "internalType": "address",
          "name": "_dnaManager",
          "type": "address"
        },
        {
          "internalType": "address",
          "name": "_playerBonus",
          "type": "address"
        }
      ],
      "name": "setContracts",
      "outputs": [],
      "stateMutability": "nonpayable",
      "type": "function"
    },
    {
      "inputs": [
        {
          "internalType": "uint256",
          "name": "_scale",
          "type": "uint256"
        }
      ],
      "name": "setScale",
      "outputs": [],
      "stateMutability": "nonpayable",
      "type": "function"
    },
    {
      "inputs": [
        {
          "internalType": "address",
          "name": "_bct",
          "type": "address"
        },
        {
          "internalType": "address",
          "name": "_busd",
          "type": "address"
        },
        {
          "internalType": "address",
          "name": "_pool",
          "type": "address"
        },
        {
          "internalType": "address",
          "name": "_farm",
          "type": "address"
        },
        {
          "internalType": "address",
          "name": "_resourcesSource",
          "type": "address"
        },
        {
          "internalType": "uint256",
          "name": "_autoReturnRate",
          "type": "uint256"
        }
      ],
      "name": "setupPaymentModule",
      "outputs": [],
      "stateMutability": "nonpayable",
      "type": "function"
    },
    {
      "inputs": [
        {
          "internalType": "bytes4",
          "name": "interfaceId",
          "type": "bytes4"
        }
      ],
      "name": "supportsInterface",
      "outputs": [
        {
          "internalType": "bool",
          "name": "",
          "type": "bool"
        }
      ],
      "stateMutability": "view",
      "type": "function"
    },
    {
      "inputs": [
        {
          "internalType": "uint256",
          "name": "",
          "type": "uint256"
        }
      ],
      "name": "typeToBaseFarm",
      "outputs": [
        {
          "internalType": "uint256",
          "name": "",
          "type": "uint256"
        }
      ],
      "stateMutability": "view",
      "type": "function"
    },
    {
      "inputs": [
        {
          "internalType": "uint256",
          "name": "",
          "type": "uint256"
        }
      ],
      "name": "typeToTrait",
      "outputs": [
        {
          "internalType": "uint256",
          "name": "",
          "type": "uint256"
        }
      ],
      "stateMutability": "view",
      "type": "function"
    },
    {
      "inputs": [],
      "name": "unpause",
      "outputs": [],
      "stateMutability": "nonpayable",
      "type": "function"
    }
  ],
  "bytecode": "0x608060405234801561001057600080fd5b50613b3b806100206000396000f3fe608060405234801561001057600080fd5b50600436106102695760003560e01c806351ac7b8c1161015157806391eebe2d116100c3578063c4d66de811610087578063c4d66de814610632578063d547741f14610645578063def0319f14610658578063e3d28ea11461066b578063f4b93f451461067e578063f51e181a1461069157600080fd5b806391eebe2d146105e857806392746bc4146105fb578063a217fddf1461060e578063a4d8535514610616578063c429d3491461062957600080fd5b80636c0f79b6116101155780636c0f79b6146105135780637198a07d146105875780637f246fbf1461059a578063803b0060146105ad5780638456cb59146105cd57806391d14854146105d557600080fd5b806351ac7b8c146104c65780635736add4146104cf5780635c975abb146104e25780636a754ffe146104ed5780636aebca9e1461050057600080fd5b80632bc8b397116101ea5780633a93f328116101ae5780633a93f3281461044e5780633ab5baeb1461046f5780633edc3519146104785780633f4ba83a1461048b57806349f1e708146104935780634c80dda4146104a657600080fd5b80632bc8b3971461039c5780632cb156ad146103af5780632f2ff15d146103cf578063323b6cb7146103e257806336568abe1461043b57600080fd5b806314d70ebe1161023157806314d70ebe146102ff5780631eb313fc14610312578063244d6daa146103255780632463a55a14610366578063248a9ca31461037957600080fd5b806301ffc9a71461026e578063070b6449146102965780630a40f726146102ab5780630d520cfe146102d95780631171bda9146102ec575b600080fd5b61028161027c366004612f34565b61069a565b60405190151581526020015b60405180910390f35b6102a96102a4366004612f73565b6106d1565b005b6102cb6102b9366004612f90565b60dc6020526000908152604090205481565b60405190815260200161028d565b6102a96102e7366004612f90565b6107cd565b6102a96102fa366004612fa9565b6109dd565b6102cb61030d366004612f90565b610a7e565b6102a9610320366004612ff8565b610afc565b61034e610333366004612f90565b60ca602052600090815260409020546001600160a01b031681565b6040516001600160a01b03909116815260200161028d565b6102a9610374366004613015565b610b33565b6102cb610387366004612f90565b60009081526065602052604090206001015490565b6102a96103aa366004612f90565b610be9565b6102cb6103bd366004612f90565b60da6020526000908152604090205481565b6102a96103dd366004613097565b610e1d565b60cb5460cc5460cd5460ce54610408936001600160a01b03908116938116928116911684565b604080516001600160a01b039586168152938516602085015291841691830191909152909116606082015260800161028d565b6102a9610449366004613097565b610e47565b61046161045c366004612f90565b610e66565b60405161028d929190613102565b6102cb60d85481565b6102a9610486366004612f90565b610fd7565b6102a9610ff5565b6104616104a1366004613123565b611018565b6102cb6104b4366004612f90565b60db6020526000908152604090205481565b6102cb60c95481565b6102a96104dd366004612ff8565b611162565b60975460ff16610281565b6104616104fb366004613145565b611197565b61046161050e366004612f90565b6112b2565b60d05460d15460d25460d35460d45460d554610545956001600160a01b03908116958116948116938116928116911686565b604080516001600160a01b03978816815295871660208701529386169385019390935290841660608401528316608083015290911660a082015260c00161028d565b6102a9610595366004612ff8565b611309565b6102a96105a8366004612f90565b611335565b6102cb6105bb366004612f90565b60d96020526000908152604090205481565b6102a9611463565b6102816105e3366004613097565b611483565b6102a96105f6366004612ff8565b6114ae565b610461610609366004612f90565b6114e1565b6102cb600081565b6102a9610624366004613171565b6116aa565b6102cb60cf5481565b6102a9610640366004612f73565b611db4565b6102a9610653366004613097565b612257565b6102a9610666366004613123565b61227c565b6102cb610679366004612f90565b6124ef565b6102a961068c3660046131e6565b612521565b6102cb60d75481565b60006001600160e01b03198216637965db0b60e01b14806106cb57506301ffc9a760e01b6001600160e01b03198316145b92915050565b600054610100900460ff16158080156106f15750600054600160ff909116105b8061070b5750303b15801561070b575060005460ff166001145b61071457600080fd5b6000805460ff191660011790558015610737576000805461ff0019166101001790555b61073f612550565b610747612566565b610752600083612582565b61076a600080516020613ae683398151915283612582565b610782600080516020613ac683398151915283612582565b80156107c9576000805461ff0019169055604051600181527f7f26b83ff96e1f2b6a682f133852f6798a09c465da95921460cefb3847402498906020015b60405180910390a15b5050565b6107d561258c565b60d6546301000000900460ff16806108005750610800600080516020613ac683398151915233611483565b6108255760405162461bcd60e51b815260040161081c9061325f565b60405180910390fd5b60d5546040516367bb9a1f60e11b81523360048201526000916001600160a01b03169063cf77343e9060240160006040518083038186803b15801561086957600080fd5b505afa15801561087d573d6000803e3d6000fd5b505050506040513d6000823e601f3d908101601f191682016040526108a5919081019061339e565b50606081015190915060009081906108c1906104a18682613449565b60408051608081018252600180825260208201526000918101829052606081019190915291935091506108f790839083906125d2565b60d55460608401516001600160a01b0390911690632f46c38390339061091e908890613449565b6040516001600160e01b031960e085901b1681526001600160a01b0390921660048301526024820152604401600060405180830381600087803b15801561096457600080fd5b505af1158015610978573d6000803e3d6000fd5b50505060608401517f12c0a01ca21cd085250692c4b1d255a48616a727046bcf0b0fd41ae42189ba7a915033906109af8782613449565b604080516001600160a01b03909416845260208401929092529082015260600160405180910390a150505050565b600080516020613ae68339815191526109f581612982565b60405163a9059cbb60e01b81526001600160a01b0384811660048301526024820184905285169063a9059cbb90604401602060405180830381600087803b158015610a3f57600080fd5b505af1158015610a53573d6000803e3d6000fd5b505050506040513d601f19601f82011682018060405250810190610a779190613461565b5050505050565b60cd5460405163526267fd60e11b8152600481018390526000916001600160a01b03169063a4c4cffa906024015b60206040518083038186803b158015610ac457600080fd5b505afa158015610ad8573d6000803e3d6000fd5b505050506040513d601f19601f820116820180604052508101906106cb919061347e565b600080516020613ae6833981519152610b1481612982565b5060d6805491151563010000000263ff00000019909216919091179055565b600080516020613ae6833981519152610b4b81612982565b506040805160c0810182526001600160a01b039788168082529688166020820181905295881691810182905293871660608501819052928716608085018190529190961660a090930183905260d080546001600160a01b0319908116909617905560d18054861690941790935560d28054851690951790945560d38054841690941790935560d480548316909117905560d580549091169091179055565b610bf161258c565b60d65462010000900460ff1680610c1b5750610c1b600080516020613ac683398151915233611483565b610c375760405162461bcd60e51b815260040161081c9061325f565b600080610c43836112b2565b6040805160808101825260018082526020820152600091810182905260608101919091529193509150610c7990839083906125d2565b610c84836064613497565b81601581518110610c9757610c976134b6565b6020908102919091010152610cad836064613497565b81601681518110610cc057610cc06134b6565b6020908102919091010152610cd6836064613497565b81601781518110610ce957610ce96134b6565b6020908102919091010152610cff836064613497565b81601881518110610d1257610d126134b6565b602002602001018181525050600081601981518110610d3357610d336134b6565b602090810291909101015260d0546040516304567ca960e11b81526001600160a01b03909116906308acf95290610d7390339060009086906004016134cc565b600060405180830381600087803b158015610d8d57600080fd5b505af1158015610da1573d6000803e3d6000fd5b505060408051338152602081018790527fa7cf3114bd11a560d5136d1261c3b4d1fc300d4d5763ea059dfee335a580fbd3935001905060405180910390a17ff01cb619d4302523996df428de2086bca27fe8f835bd6ce7c19e94fb046684c53382604051610e109291906134fc565b60405180910390a1505050565b600082815260656020526040902060010154610e3881612982565b610e42838361298c565b505050565b6001600160a01b0381163314610e5c57600080fd5b6107c98282612a12565b6000606081610e768460c8613497565b60408051601a8082526103608201909252919250600091906020820161034080368337019050509050610eab8561012c613497565b81600981518110610ebe57610ebe6134b6565b6020908102919091010152610ed485600a613497565b610edf906064613497565b81600a81518110610ef257610ef26134b6565b6020908102919091010152610f08856064613497565b81601581518110610f1b57610f1b6134b6565b6020908102919091010152610f31856064613497565b81601681518110610f4457610f446134b6565b6020908102919091010152610f5a856064613497565b81601781518110610f6d57610f6d6134b6565b6020908102919091010152610f83856064613497565b81601881518110610f9657610f966134b6565b602090810291909101015260d754603290610fb984670de0b6b3a7640000613497565b610fc39190613497565b610fcd9190613520565b9590945092505050565b600080516020613ae6833981519152610fef81612982565b5060d755565b600080516020613ae683398151915261100d81612982565b611015612a79565b50565b600060606103e860026001848080895b6110328a8c613449565b8110156110ae57611044816001613449565b61104e9088613497565b6110589085613449565b9350611065816002613497565b61106f9087613497565b6110799084613449565b9250611086816001613449565b6110909086613497565b61109a9083613449565b9150806110a681613542565b915050611028565b5060408051601a808252610360820190925260009160208201610340803683370190505090506110df826064613497565b816009815181106110f2576110f26134b6565b6020908102919091010152611108836064613497565b8160198151811061111b5761111b6134b6565b602090810291909101015260d75460329061113e86670de0b6b3a7640000613497565b6111489190613497565b6111529190613520565b9b909a5098505050505050505050565b600080516020613ae683398151915261117a81612982565b5060d68054911515620100000262ff000019909216919091179055565b600083815260dc6020526040812054606090602a906001908480885b6111bd898b613449565b811015611218576111cf81600b613449565b6111d99087613497565b6111e39084613449565b92506111f0816004613449565b6111fa9086613497565b6112049083613449565b91508061121081613542565b9150506111b3565b5060408051601a80825261036082019092526000916020820161034080368337019050509050611249826064613497565b81858151811061125b5761125b6134b6565b6020908102919091010152611271826002613497565b61127c906064613497565b81600a8151811061128f5761128f6134b6565b602090810291909101015260d75460329061113e85670de0b6b3a7640000613497565b60006060816112c2846040613497565b60408051601a80825261036082019092529192506000919060208201610340803683370190505090506112f6856064613497565b81601981518110610f9657610f966134b6565b600080516020613ae683398151915261132181612982565b5060d6805460ff1916911515919091179055565b61133d61258c565b60d65462010000900460ff16806113675750611367600080516020613ac683398151915233611483565b6113835760405162461bcd60e51b815260040161081c9061325f565b60008061138f83610e66565b60408051608081018252600180825260208201526000918101829052606081019190915291935091506113c590839083906125d2565b60d0546040516304567ca960e11b81526001600160a01b03909116906308acf952906113fa90339060009086906004016134cc565b600060405180830381600087803b15801561141457600080fd5b505af1158015611428573d6000803e3d6000fd5b505060408051338152602081018790527f548f8a8766b0cc1cf5665263896acd1f29598428b997d762833b567a8a70b5ff9350019050610e10565b600080516020613ae683398151915261147b81612982565b611015612acb565b60009182526065602090815260408084206001600160a01b0393909316845291905290205460ff1690565b600080516020613ae68339815191526114c681612982565b5060d680549115156101000261ff0019909216919091179055565b6000606060006008841115611510578360091461150157620186a0611506565b620124f85b62ffffff16611533565b61151b60018561355d565b61152790611388613497565b61153390612710613449565b9050600060058511156115575760088511156115505760fa61155a565b603261155a565b60195b60ff1690506000600586111561157a57611575866008613449565b611585565b61158586600d613449565b9050600060058711156115a95760088711156115a25760fa6115ac565b60646115ac565b60325b60ff169050600060058811156115cc576115c788600f613449565b6115d7565b6115d7886014613449565b60408051601a8082526103608201909252919250600091906020820161034080368337019050509050606481600981518110611615576116156134b6565b602090810291909101015261162b856064613497565b81858151811061163d5761163d6134b6565b6020908102919091010152611653836064613497565b818381518110611665576116656134b6565b602090810291909101015260d75460329061168888670de0b6b3a7640000613497565b6116929190613497565b61169c9190613520565b999098509650505050505050565b60d65460ff16806116ce57506116ce600080516020613ac683398151915233611483565b6116ea5760405162461bcd60e51b815260040161081c9061325f565b60d354604051632f74efff60e11b81526000916001600160a01b031690635ee9dffe9061171d9086908690600401613574565b60006040518083038186803b15801561173557600080fd5b505afa158015611749573d6000803e3d6000fd5b505050506040513d6000823e601f3d908101601f191682016040526117719190810190613650565b505050905060005b8151811015611dae576000828281518110611796576117966134b6565b602090810291909101015160d15481516040516331a9108f60e11b81529293506000926001600160a01b0390921691636352211e916117db9160040190815260200190565b60206040518083038186803b1580156117f357600080fd5b505afa158015611807573d6000803e3d6000fd5b505050506040513d601f19601f8201168201806040525081019061182b919061389b565b905061183681612b08565b6101808201511561186d5760405162461bcd60e51b81526020600482015260016024820152600360fc1b604482015260640161081c565b6000826080015160056118809190613449565b90508260a001516005146118ba5760405162461bcd60e51b81526020600482015260016024820152603160f81b604482015260640161081c565b60d8548360800151106118f35760405162461bcd60e51b81526020600482015260016024820152601960f91b604482015260640161081c565b60008061190385608001516114e1565b604080516080810182526001808252602082015260009181018290526060810191909152919350915061193990839083906125d2565b60d1548551604051639497558560e01b81526004810191909152606060248201526000606482018190526080604483015260848201526001600160a01b039091169063949755859060a401600060405180830381600087803b15801561199e57600080fd5b505af11580156119b2573d6000803e3d6000fd5b505060d454875160405163eefa470b60e01b8152600481019190915260006024820181905260448201526001600160a01b03909116925063eefa470b9150606401600060405180830381600087803b158015611a0d57600080fd5b505af1158015611a21573d6000803e3d6000fd5b506000925060069150611a319050565b604051908082528060200260200182016040528015611a5a578160200160208202803683370190505b509050600181600081518110611a7257611a726134b6565b602002602001018181525050600181600181518110611a9357611a936134b6565b602002602001018181525050600081600281518110611ab457611ab46134b6565b602002602001018181525050600081600381518110611ad557611ad56134b6565b602002602001018181525050600081600481518110611af657611af66134b6565b602002602001018181525050600081600581518110611b1757611b176134b6565b602090810291909101015260d154865160405163638762bd60e01b81526001600160a01b039092169163638762bd91611b5991600090819087906004016138b8565b600060405180830381600087803b158015611b7357600080fd5b505af1158015611b87573d6000803e3d6000fd5b506000925060039150611b979050565b604051908082528060200260200182016040528015611bc0578160200160208202803683370190505b50600086815260da6020526040812054825192935091839190611be557611be56134b6565b60200260200101818152505060da60008681526020019081526020016000205481600181518110611c1857611c186134b6565b60200260200101818152505060da60008681526020019081526020016000205481600281518110611c4b57611c4b6134b6565b602090810291909101015260d154875160405163088d210f60e41b81526001600160a01b03909216916388d210f091611c88918590600401613102565b600060405180830381600087803b158015611ca257600080fd5b505af1158015611cb6573d6000803e3d6000fd5b505060d1548951600089815260db60205260409081902054905163568cbb1760e01b8152600481019290925260056024830152604482018a905260648201526001600160a01b03909116925063568cbb179150608401600060405180830381600087803b158015611d2657600080fd5b505af1158015611d3a573d6000803e3d6000fd5b505088516080808b0151604080516001600160a01b038d1681526020810194909452830152606082018990527fdfe58dee5d678e842925d5672e923a0f0bd70b16b2285cc75a66b16e1c0e7a64935001905060405180910390a1505050505050508080611da690613542565b915050611779565b50505050565b600054610100900460ff1615808015611dd45750600054600160ff909116105b80611dee5750303b158015611dee575060005460ff166001145b611df757600080fd5b6000805460ff191660011790558015611e1a576000805461ff0019166101001790555b611e23826106d1565b603260d755602c7f352542d120459fe49009d574b12995edcbb363275cf170be343dee6830d5dcdf5560317ffb4378f518daf1247a4fecf0fbc84c05578a2ac03a0465b018dc5da57dfd61185560057f62bc18884a8d2f06fc5375ba774ddf7ed53c8b1cef91fbbe0f66938ceb852c7981905560137fba8407f2dde1ffcb76cdb7ca386ae1f078000e0991202345e341cdc69d21699655601f7ff6f365d4baa205bd104b21ae18cd7c03c3d409d7fe392b1575b6e5aec4b1b4905560257fa73273eaf0dd7f80eea98b3f7f74f8c376c880b06ad673354b98a3343dd656845560337f79872d0688462dcc426b99ded94fa153ced5472511df68d0a09d238a30f3cbfa5560357f4955ddd678b0fd2068679eb6cbd2d8e176c66a676d2a4eafef0fde0f269563bb5560347fcc9bf65eabeb95d1fe95ced84bce21cc8b43ab424e2872f12cafd4dc19a12fd05560367ff67daaf05c86b712b3242cd58898fdfe556368055d88a6a486fd38ae2408c77455655af3107a40007f0753aab3c814d10169d625e7f73301b767fae521c959dd1f101dc1948b90768a556571afd498d0007f1e5ca2b3a5b37f307bf7224dee63e9db01850c69ad03b81a1746af40011c73295565886c98b760007f982a732a2db9f1c172af3728a031722a4fb69fc13c197730747678bca82e9f7355659f295cd5f0007f6d7a35b3393c68521d1beaa179aaa0963665f58848369eff816650d1ca6f666f5565b5e620f480007fd8efe695ce34e67be575fe9d61b4ce6ed9d2159ad3137c0a5d96facc548836665565e35fa931a0007f88e214959a6e1410760d7732915676dbc328ddb34b73cb68393ef95694a7ee5d55660110d9316ec0007f0b0a1c44dc6886781da95cf1805105f317ce8238e9ff8a639fca64e1ff3707d45566013e52b9abe0007f611d32ca7af386e29ec365b729326f4c1f5532bdfaacd05635ec531f357c316f5566016bcc41e900007f2a4a21cdf6781e38cc546235b3dc31591e6e79ab585d195135d56bc77c4f1aba556601c6bf526340007fe94c98768cbb30f02ef90377f555646c111ea9eae727e1c7b05234a60ae5d9ab5560dc60205260197fa914a711fa9859c15cb17d2aa25e08470aa298217330c83169dd2a380ff0e85d5560157fed5632bb274c77ec3a8fb983dc542cd5cc49def33659104ab3c76bf3dc28c94e8190557f305af1d5eeca2070eb555bae23239ec4d3425b7ee73c1c5ceb1a9bd5d7c1d3075560177fd424594b947c18da8f3a6f93819695640a748b6d74709a708102e14e3e81669c5560167f0fb4caf2b09259681c9229fb409ac599b6692aeff999fc756681a9d7d3fd042855600081905260187f046340db4f2c181c4c7d6966c61f461a307218d968b1f2751f28e78a2a637ffb5560d85580156107c9576000805461ff0019169055604051600181527f7f26b83ff96e1f2b6a682f133852f6798a09c465da95921460cefb3847402498906020016107c0565b60008281526065602052604090206001015461227281612982565b610e428383612a12565b61228461258c565b60d654610100900460ff16806122ad57506122ad600080516020613ac683398151915233611483565b6122c95760405162461bcd60e51b815260040161081c9061325f565b60d554604051631d23bf9160e21b81523360048201526000916001600160a01b03169063748efe449060240160006040518083038186803b15801561230d57600080fd5b505afa158015612321573d6000803e3d6000fd5b505050506040513d6000823e601f3d908101601f1916820160405261234991908101906138e7565b9250505060008061239385848781518110612366576123666134b6565b602002602001015186868981518110612381576123816134b6565b60200260200101516104fb9190613449565b60408051608081018252600180825260208201526000918101829052606081019190915291935091506123c990839083906125d2565b838386815181106123dc576123dc6134b6565b602002602001018181516123f09190613449565b90525060d554604051630b8fe2f960e41b81526001600160a01b039091169063b8fe2f909061242590339087906004016134fc565b600060405180830381600087803b15801561243f57600080fd5b505af1158015612453573d6000803e3d6000fd5b505050507ff79500c859f8521da0fea9482c16e6c4280f8a3ec2701949db8604c3cce5c78433868686898151811061248d5761248d6134b6565b602002602001015161249f919061355d565b8689815181106124b1576124b16134b6565b602090810291909101810151604080516001600160a01b03909616865291850193909352830152606082015260800160405180910390a15050505050565b60cd54604051634ca1cccb60e11b8152600481018390526000916001600160a01b031690639943999690602401610aac565b600080516020613ae683398151915261253981612982565b612547878787878787612b4a565b50505050505050565b600054610100900460ff1661256457600080fd5b565b600054610100900460ff1661257a57600080fd5b612564612c11565b6107c9828261298c565b60975460ff16156125645760405162461bcd60e51b815260206004820152601060248201526f14185d5cd8589b194e881c185d5cd95960821b604482015260640161081c565b806040015115612711578060200151156125eb57600080fd5b80516000906125fa5783612603565b61260384610a7e565b60cc546040516323b872dd60e01b8152336004820152306024820152604481018390529192506001600160a01b0316906323b872dd90606401600060405180830381600087803b15801561265657600080fd5b505af115801561266a573d6000803e3d6000fd5b50505050600060648260cf546126809190613497565b61268a9190613520565b60cd54604051630d3990db60e21b8152600481018390529192506001600160a01b0316906334e6436c90602401602060405180830381600087803b1580156126d157600080fd5b505af11580156126e5573d6000803e3d6000fd5b505050506040513d601f19601f82011682018060405250810190612709919061347e565b505050505050565b80606001511561272057600080fd5b805160009061273757612732846124ef565b612739565b835b60ce5460405163b1918c9560e01b81529192506000916001600160a01b039091169063b1918c9590612773903390869089906004016134cc565b600060405180830381600087803b15801561278d57600080fd5b505af11580156127a1573d6000803e3d6000fd5b505050506040513d6000823e601f3d908101601f191682016040526127c99190810190613937565b90506000816000815181106127e0576127e06134b6565b602002602001015111156128845760cb5481516001600160a01b03909116906379cc67909033908490600090612818576128186134b6565b60200260200101516040518363ffffffff1660e01b81526004016128519291906001600160a01b03929092168252602082015260400190565b600060405180830381600087803b15801561286b57600080fd5b505af115801561287f573d6000803e3d6000fd5b505050505b60015b81518110156127095760008282815181106128a4576128a46134b6565b602002602001015111156129705760ca60006128c160018461355d565b815260200190815260200160002060009054906101000a90046001600160a01b03166001600160a01b03166379cc679033848481518110612904576129046134b6565b60200260200101516040518363ffffffff1660e01b815260040161293d9291906001600160a01b03929092168252602082015260400190565b600060405180830381600087803b15801561295757600080fd5b505af115801561296b573d6000803e3d6000fd5b505050505b8061297a81613542565b915050612887565b6110158133612c31565b6129968282611483565b6107c95760008281526065602090815260408083206001600160a01b03851684529091529020805460ff191660011790556129ce3390565b6001600160a01b0316816001600160a01b0316837f2f8788117e7eff1d82e926ec794901d17c78024a50270940304540a733656f0d60405160405180910390a45050565b612a1c8282611483565b156107c95760008281526065602090815260408083206001600160a01b0385168085529252808320805460ff1916905551339285917ff6391f5c32d9c69d2a47ea670b442974b53935d1edc7fd64eb21e047a839171b9190a45050565b612a81612c8a565b6097805460ff191690557f5db9ee0a495bf2e6ff9c91a7834c1ba4fdd244a5e8aa4e537bd38aeae4b073aa335b6040516001600160a01b03909116815260200160405180910390a1565b612ad361258c565b6097805460ff191660011790557f62e78cea01bee320cd4e420270b5ea74000d11b0c9f74754ebdbfc544b05a258612aae3390565b6001600160a01b03811633148015612b23575060975460ff16155b80612b415750612b41600080516020613ac683398151915233611483565b61101557600080fd5b60cb80546001600160a01b038089166001600160a01b03199283161790925560cc805488841690831617905560cd805487841690831617905560ce805492861692909116919091179055612b9d82612cd3565b60cf81905560cc5460405163095ea7b360e01b81526001600160a01b03868116600483015260001960248301529091169063095ea7b390604401600060405180830381600087803b158015612bf157600080fd5b505af1158015612c05573d6000803e3d6000fd5b50505050505050505050565b600054610100900460ff16612c2557600080fd5b6097805460ff19169055565b612c3b8282611483565b6107c957612c4881612dc2565b612c53836020612dd4565b604051602001612c6492919061396c565b60408051601f198184030181529082905262461bcd60e51b825261081c916004016139e1565b60975460ff166125645760405162461bcd60e51b815260206004820152601460248201527314185d5cd8589b194e881b9bdd081c185d5cd95960621b604482015260640161081c565b60008190506000816001600160a01b031663c1cc57b06040518163ffffffff1660e01b815260040160006040518083038186803b158015612d1357600080fd5b505afa158015612d27573d6000803e3d6000fd5b505050506040513d6000823e601f3d908101601f19168201604052612d4f9190810190613a14565b905060005b8151811015612db957818181518110612d6f57612d6f6134b6565b602090810291909101810151600083815260ca909252604090912080546001600160a01b0319166001600160a01b0390921691909117905580612db181613542565b915050612d54565b505160c9555050565b60606106cb6001600160a01b03831660145b60606000612de3836002613497565b612dee906002613449565b67ffffffffffffffff811115612e0657612e0661327b565b6040519080825280601f01601f191660200182016040528015612e30576020820181803683370190505b509050600360fc1b81600081518110612e4b57612e4b6134b6565b60200101906001600160f81b031916908160001a905350600f60fb1b81600181518110612e7a57612e7a6134b6565b60200101906001600160f81b031916908160001a9053506000612e9e846002613497565b612ea9906001613449565b90505b6001811115612f21576f181899199a1a9b1b9c1cb0b131b232b360811b85600f1660108110612edd57612edd6134b6565b1a60f81b828281518110612ef357612ef36134b6565b60200101906001600160f81b031916908160001a90535060049490941c93612f1a81613aae565b9050612eac565b508315612f2d57600080fd5b9392505050565b600060208284031215612f4657600080fd5b81356001600160e01b031981168114612f2d57600080fd5b6001600160a01b038116811461101557600080fd5b600060208284031215612f8557600080fd5b8135612f2d81612f5e565b600060208284031215612fa257600080fd5b5035919050565b600080600060608486031215612fbe57600080fd5b8335612fc981612f5e565b92506020840135612fd981612f5e565b929592945050506040919091013590565b801515811461101557600080fd5b60006020828403121561300a57600080fd5b8135612f2d81612fea565b60008060008060008060c0878903121561302e57600080fd5b863561303981612f5e565b9550602087013561304981612f5e565b9450604087013561305981612f5e565b9350606087013561306981612f5e565b9250608087013561307981612f5e565b915060a087013561308981612f5e565b809150509295509295509295565b600080604083850312156130aa57600080fd5b8235915060208301356130bc81612f5e565b809150509250929050565b600081518084526020808501945080840160005b838110156130f7578151875295820195908201906001016130db565b509495945050505050565b82815260406020820152600061311b60408301846130c7565b949350505050565b6000806040838503121561313657600080fd5b50508035926020909101359150565b60008060006060848603121561315a57600080fd5b505081359360208301359350604090920135919050565b6000806020838503121561318457600080fd5b823567ffffffffffffffff8082111561319c57600080fd5b818501915085601f8301126131b057600080fd5b8135818111156131bf57600080fd5b8660208260051b85010111156131d457600080fd5b60209290920196919550909350505050565b60008060008060008060c087890312156131ff57600080fd5b863561320a81612f5e565b9550602087013561321a81612f5e565b9450604087013561322a81612f5e565b9350606087013561323a81612f5e565b9250608087013561324a81612f5e565b8092505060a087013590509295509295509295565b602080825260029082015261373760f01b604082015260600190565b634e487b7160e01b600052604160045260246000fd5b60405160c0810167ffffffffffffffff811182821017156132b4576132b461327b565b60405290565b6040516101c0810167ffffffffffffffff811182821017156132b4576132b461327b565b604051601f8201601f1916810167ffffffffffffffff811182821017156133075761330761327b565b604052919050565b600067ffffffffffffffff8211156133295761332961327b565b5060051b60200190565b600082601f83011261334457600080fd5b815160206133596133548361330f565b6132de565b82815260059290921b8401810191818101908684111561337857600080fd5b8286015b84811015613393578051835291830191830161337c565b509695505050505050565b60008082840360e08112156133b257600080fd5b60c08112156133c057600080fd5b506133c9613291565b835181526020840151602082015260408401516040820152606084015160608201526080840151608082015260a084015160a08201528092505060c083015167ffffffffffffffff81111561341d57600080fd5b61342985828601613333565b9150509250929050565b634e487b7160e01b600052601160045260246000fd5b6000821982111561345c5761345c613433565b500190565b60006020828403121561347357600080fd5b8151612f2d81612fea565b60006020828403121561349057600080fd5b5051919050565b60008160001904831182151516156134b1576134b1613433565b500290565b634e487b7160e01b600052603260045260246000fd5b60018060a01b03841681528260208201526060604082015260006134f360608301846130c7565b95945050505050565b6001600160a01b038316815260406020820181905260009061311b908301846130c7565b60008261353d57634e487b7160e01b600052601260045260246000fd5b500490565b600060001982141561355657613556613433565b5060010190565b60008282101561356f5761356f613433565b500390565b6020808252810182905260006001600160fb1b0383111561359457600080fd5b8260051b80856040850137600092016040019182525092915050565b60005b838110156135cb5781810151838201526020016135b3565b83811115611dae5750506000910152565b600082601f8301126135ed57600080fd5b815167ffffffffffffffff8111156136075761360761327b565b61361a601f8201601f19166020016132de565b81815284602083860101111561362f57600080fd5b61311b8260208301602087016135b0565b805161364b81612f5e565b919050565b6000806000806080858703121561366657600080fd5b845167ffffffffffffffff8082111561367e57600080fd5b818701915087601f83011261369257600080fd5b81516136a06133548261330f565b8082825260208201915060208360051b86010192508a8311156136c257600080fd5b602085015b83811015613824578051858111156136de57600080fd5b86016101c0818e03601f190112156136f557600080fd5b6136fd6132ba565b6020820151815260408201518781111561371657600080fd5b6137258f6020838601016135dc565b60208301525060608201518781111561373d57600080fd5b61374c8f6020838601016135dc565b60408301525061375e60808301613640565b606082015260a0820151608082015260c082015160a082015260e08201518781111561378957600080fd5b6137988f602083860101613333565b60c083015250610100820151878111156137b157600080fd5b6137c08f602083860101613333565b60e0830152506101208201516101008201526101408201516101208201526101608201516101408201526101808201516101608201526101a08201516101808201526101c08201516101a082015280855250506020830192506020810190506136c7565b5060208a0151909850935050508082111561383e57600080fd5b61384a88838901613333565b9450604087015191508082111561386057600080fd5b61386c88838901613333565b9350606087015191508082111561388257600080fd5b5061388f87828801613333565b91505092959194509250565b6000602082840312156138ad57600080fd5b8151612f2d81612f5e565b8481528360208201528260408201526080606082015260006138dd60808301846130c7565b9695505050505050565b6000806000606084860312156138fc57600080fd5b8351925060208401519150604084015167ffffffffffffffff81111561392157600080fd5b61392d86828701613333565b9150509250925092565b60006020828403121561394957600080fd5b815167ffffffffffffffff81111561396057600080fd5b61311b84828501613333565b7f416363657373436f6e74726f6c3a206163636f756e74200000000000000000008152600083516139a48160178501602088016135b0565b7001034b99036b4b9b9b4b733903937b6329607d1b60179184019182015283516139d58160288401602088016135b0565b01602801949350505050565b6020815260008251806020840152613a008160408501602087016135b0565b601f01601f19169190910160400192915050565b60006020808385031215613a2757600080fd5b825167ffffffffffffffff811115613a3e57600080fd5b8301601f81018513613a4f57600080fd5b8051613a5d6133548261330f565b81815260059190911b82018301908381019087831115613a7c57600080fd5b928401925b82841015613aa3578351613a9481612f5e565b82529284019290840190613a81565b979650505050505050565b600081613abd57613abd613433565b50600019019056fe73e573f9566d61418a34d5de3ff49360f9c51fec37f7486551670290f6285dab97667070c54ef182b0f5858b034beac1b6f3089aa2d3188bb1e8929f4fa9b929a26469706673582212205fa953c1590f4f51544cbb7677488a6f83e1e02ab1077abc1ef9d2a7387d87d964736f6c63430008090033",
  "linkReferences": {},
  "deployedLinkReferences": {}
}