{
  "_format": "hh-sol-artifact-1",
  "contractName": "NativeERC20",
  "sourceName": "contracts/erc20/NativeERC20.sol",
  "abi": [
    {
      "anonymous": false,
      "inputs": [
        {
          "indexed": true,
          "internalType": "address",
          "name": "owner",
          "type": "address"
        },
        {
          "indexed": true,
          "internalType": "address",
          "name": "spender",
          "type": "address"
        },
        {
          "indexed": false,
          "internalType": "uint256",
          "name": "value",
          "type": "uint256"
        }
      ],
      "name": "Approval",
      "type": "event"
    },
    {
      "anonymous": false,
      "inputs": [
        {
          "indexed": true,
          "internalType": "uint256",
          "name": "fromChainId",
          "type": "uint256"
        },
        {
          "indexed": true,
          "internalType": "address",
          "name": "fromAddress",
          "type": "address"
        },
        {
          "indexed": true,
          "internalType": "address",
          "name": "toAddress",
          "type": "address"
        },
        {
          "indexed": false,
          "internalType": "uint256",
          "name": "amount",
          "type": "uint256"
        }
      ],
      "name": "BridgeFromChain",
      "type": "event"
    },
    {
      "anonymous": false,
      "inputs": [
        {
          "indexed": true,
          "internalType": "uint256",
          "name": "toChainId",
          "type": "uint256"
        },
        {
          "indexed": true,
          "internalType": "address",
          "name": "fromAddress",
          "type": "address"
        },
        {
          "indexed": true,
          "internalType": "address",
          "name": "toAddress",
          "type": "address"
        },
        {
          "indexed": false,
          "internalType": "uint256",
          "name": "amount",
          "type": "uint256"
        }
      ],
      "name": "BridgeToChain",
      "type": "event"
    },
    {
      "anonymous": false,
      "inputs": [
        {
          "indexed": false,
          "internalType": "uint8",
          "name": "version",
          "type": "uint8"
        }
      ],
      "name": "Initialized",
      "type": "event"
    },
    {
      "anonymous": false,
      "inputs": [
        {
          "indexed": false,
          "internalType": "address",
          "name": "account",
          "type": "address"
        }
      ],
      "name": "Paused",
      "type": "event"
    },
    {
      "anonymous": false,
      "inputs": [
        {
          "indexed": true,
          "internalType": "bytes32",
          "name": "role",
          "type": "bytes32"
        },
        {
          "indexed": true,
          "internalType": "bytes32",
          "name": "previousAdminRole",
          "type": "bytes32"
        },
        {
          "indexed": true,
          "internalType": "bytes32",
          "name": "newAdminRole",
          "type": "bytes32"
        }
      ],
      "name": "RoleAdminChanged",
      "type": "event"
    },
    {
      "anonymous": false,
      "inputs": [
        {
          "indexed": true,
          "internalType": "bytes32",
          "name": "role",
          "type": "bytes32"
        },
        {
          "indexed": true,
          "internalType": "address",
          "name": "account",
          "type": "address"
        },
        {
          "indexed": true,
          "internalType": "address",
          "name": "sender",
          "type": "address"
        }
      ],
      "name": "RoleGranted",
      "type": "event"
    },
    {
      "anonymous": false,
      "inputs": [
        {
          "indexed": true,
          "internalType": "bytes32",
          "name": "role",
          "type": "bytes32"
        },
        {
          "indexed": true,
          "internalType": "address",
          "name": "account",
          "type": "address"
        },
        {
          "indexed": true,
          "internalType": "address",
          "name": "sender",
          "type": "address"
        }
      ],
      "name": "RoleRevoked",
      "type": "event"
    },
    {
      "anonymous": false,
      "inputs": [
        {
          "indexed": true,
          "internalType": "address",
          "name": "from",
          "type": "address"
        },
        {
          "indexed": true,
          "internalType": "address",
          "name": "to",
          "type": "address"
        },
        {
          "indexed": false,
          "internalType": "uint256",
          "name": "value",
          "type": "uint256"
        }
      ],
      "name": "Transfer",
      "type": "event"
    },
    {
      "anonymous": false,
      "inputs": [
        {
          "indexed": false,
          "internalType": "address",
          "name": "account",
          "type": "address"
        }
      ],
      "name": "Unpaused",
      "type": "event"
    },
    {
      "inputs": [],
      "name": "DEFAULT_ADMIN_ROLE",
      "outputs": [
        {
          "internalType": "bytes32",
          "name": "",
          "type": "bytes32"
        }
      ],
      "stateMutability": "view",
      "type": "function"
    },
    {
      "inputs": [
        {
          "internalType": "string",
          "name": "_name",
          "type": "string"
        },
        {
          "internalType": "string",
          "name": "_symbol",
          "type": "string"
        },
        {
          "internalType": "address",
          "name": "_operator",
          "type": "address"
        },
        {
          "internalType": "uint256",
          "name": "_totalSupply",
          "type": "uint256"
        },
        {
          "internalType": "address",
          "name": "_blocklistAddress",
          "type": "address"
        },
        {
          "internalType": "uint256",
          "name": "_originChainId",
          "type": "uint256"
        }
      ],
      "name": "__AdminUpBridgeERC20_init",
      "outputs": [],
      "stateMutability": "nonpayable",
      "type": "function"
    },
    {
      "inputs": [
        {
          "internalType": "address",
          "name": "owner",
          "type": "address"
        },
        {
          "internalType": "address",
          "name": "spender",
          "type": "address"
        }
      ],
      "name": "allowance",
      "outputs": [
        {
          "internalType": "uint256",
          "name": "",
          "type": "uint256"
        }
      ],
      "stateMutability": "view",
      "type": "function"
    },
    {
      "inputs": [
        {
          "internalType": "address",
          "name": "spender",
          "type": "address"
        },
        {
          "internalType": "uint256",
          "name": "amount",
          "type": "uint256"
        }
      ],
      "name": "approve",
      "outputs": [
        {
          "internalType": "bool",
          "name": "",
          "type": "bool"
        }
      ],
      "stateMutability": "nonpayable",
      "type": "function"
    },
    {
      "inputs": [
        {
          "internalType": "address",
          "name": "account",
          "type": "address"
        }
      ],
      "name": "balanceOf",
      "outputs": [
        {
          "internalType": "uint256",
          "name": "",
          "type": "uint256"
        }
      ],
      "stateMutability": "view",
      "type": "function"
    },
    {
      "inputs": [],
      "name": "basicData",
      "outputs": [
        {
          "internalType": "string",
          "name": "",
          "type": "string"
        },
        {
          "internalType": "string",
          "name": "",
          "type": "string"
        },
        {
          "internalType": "uint256",
          "name": "",
          "type": "uint256"
        },
        {
          "internalType": "uint256",
          "name": "",
          "type": "uint256"
        }
      ],
      "stateMutability": "view",
      "type": "function"
    },
    {
      "inputs": [],
      "name": "blocklist",
      "outputs": [
        {
          "internalType": "contract IBlocklist",
          "name": "",
          "type": "address"
        }
      ],
      "stateMutability": "view",
      "type": "function"
    },
    {
      "inputs": [
        {
          "internalType": "uint256",
          "name": "fromChainId",
          "type": "uint256"
        },
        {
          "internalType": "address",
          "name": "fromAddress",
          "type": "address"
        },
        {
          "internalType": "address",
          "name": "toAddress",
          "type": "address"
        },
        {
          "internalType": "uint256",
          "name": "amount",
          "type": "uint256"
        }
      ],
      "name": "bridgeFromChain",
      "outputs": [],
      "stateMutability": "nonpayable",
      "type": "function"
    },
    {
      "inputs": [
        {
          "internalType": "uint256",
          "name": "toChainId",
          "type": "uint256"
        },
        {
          "internalType": "address",
          "name": "fromAddress",
          "type": "address"
        },
        {
          "internalType": "address",
          "name": "toAddress",
          "type": "address"
        },
        {
          "internalType": "uint256",
          "name": "amount",
          "type": "uint256"
        }
      ],
      "name": "bridgeToChain",
      "outputs": [],
      "stateMutability": "nonpayable",
      "type": "function"
    },
    {
      "inputs": [
        {
          "internalType": "uint256",
          "name": "amount",
          "type": "uint256"
        }
      ],
      "name": "burn",
      "outputs": [],
      "stateMutability": "nonpayable",
      "type": "function"
    },
    {
      "inputs": [
        {
          "internalType": "address",
          "name": "account",
          "type": "address"
        },
        {
          "internalType": "uint256",
          "name": "amount",
          "type": "uint256"
        }
      ],
      "name": "burnFrom",
      "outputs": [],
      "stateMutability": "nonpayable",
      "type": "function"
    },
    {
      "inputs": [],
      "name": "decimals",
      "outputs": [
        {
          "internalType": "uint8",
          "name": "",
          "type": "uint8"
        }
      ],
      "stateMutability": "view",
      "type": "function"
    },
    {
      "inputs": [
        {
          "internalType": "address",
          "name": "spender",
          "type": "address"
        },
        {
          "internalType": "uint256",
          "name": "subtractedValue",
          "type": "uint256"
        }
      ],
      "name": "decreaseAllowance",
      "outputs": [
        {
          "internalType": "bool",
          "name": "",
          "type": "bool"
        }
      ],
      "stateMutability": "nonpayable",
      "type": "function"
    },
    {
      "inputs": [
        {
          "internalType": "bytes32",
          "name": "role",
          "type": "bytes32"
        }
      ],
      "name": "getRoleAdmin",
      "outputs": [
        {
          "internalType": "bytes32",
          "name": "",
          "type": "bytes32"
        }
      ],
      "stateMutability": "view",
      "type": "function"
    },
    {
      "inputs": [
        {
          "internalType": "bytes32",
          "name": "role",
          "type": "bytes32"
        },
        {
          "internalType": "address",
          "name": "account",
          "type": "address"
        }
      ],
      "name": "grantRole",
      "outputs": [],
      "stateMutability": "nonpayable",
      "type": "function"
    },
    {
      "inputs": [],
      "name": "hasBlocklist",
      "outputs": [
        {
          "internalType": "bool",
          "name": "",
          "type": "bool"
        }
      ],
      "stateMutability": "view",
      "type": "function"
    },
    {
      "inputs": [
        {
          "internalType": "bytes32",
          "name": "role",
          "type": "bytes32"
        },
        {
          "internalType": "address",
          "name": "account",
          "type": "address"
        }
      ],
      "name": "hasRole",
      "outputs": [
        {
          "internalType": "bool",
          "name": "",
          "type": "bool"
        }
      ],
      "stateMutability": "view",
      "type": "function"
    },
    {
      "inputs": [
        {
          "internalType": "address",
          "name": "spender",
          "type": "address"
        },
        {
          "internalType": "uint256",
          "name": "addedValue",
          "type": "uint256"
        }
      ],
      "name": "increaseAllowance",
      "outputs": [
        {
          "internalType": "bool",
          "name": "",
          "type": "bool"
        }
      ],
      "stateMutability": "nonpayable",
      "type": "function"
    },
    {
      "inputs": [
        {
          "internalType": "string",
          "name": "_name",
          "type": "string"
        },
        {
          "internalType": "string",
          "name": "_symbol",
          "type": "string"
        },
        {
          "internalType": "address",
          "name": "_operator",
          "type": "address"
        },
        {
          "internalType": "uint256",
          "name": "_totalSupply",
          "type": "uint256"
        },
        {
          "internalType": "address",
          "name": "_blocklistAddress",
          "type": "address"
        },
        {
          "internalType": "uint256",
          "name": "_originChainId",
          "type": "uint256"
        }
      ],
      "name": "initialize",
      "outputs": [],
      "stateMutability": "nonpayable",
      "type": "function"
    },
    {
      "inputs": [
        {
          "internalType": "address",
          "name": "to",
          "type": "address"
        },
        {
          "internalType": "uint256",
          "name": "amount",
          "type": "uint256"
        }
      ],
      "name": "mint",
      "outputs": [],
      "stateMutability": "nonpayable",
      "type": "function"
    },
    {
      "inputs": [],
      "name": "name",
      "outputs": [
        {
          "internalType": "string",
          "name": "",
          "type": "string"
        }
      ],
      "stateMutability": "view",
      "type": "function"
    },
    {
      "inputs": [],
      "name": "originChainId",
      "outputs": [
        {
          "internalType": "uint256",
          "name": "",
          "type": "uint256"
        }
      ],
      "stateMutability": "view",
      "type": "function"
    },
    {
      "inputs": [],
      "name": "pause",
      "outputs": [],
      "stateMutability": "nonpayable",
      "type": "function"
    },
    {
      "inputs": [],
      "name": "paused",
      "outputs": [
        {
          "internalType": "bool",
          "name": "",
          "type": "bool"
        }
      ],
      "stateMutability": "view",
      "type": "function"
    },
    {
      "inputs": [
        {
          "internalType": "bytes32",
          "name": "role",
          "type": "bytes32"
        },
        {
          "internalType": "address",
          "name": "account",
          "type": "address"
        }
      ],
      "name": "renounceRole",
      "outputs": [],
      "stateMutability": "nonpayable",
      "type": "function"
    },
    {
      "inputs": [
        {
          "internalType": "bytes32",
          "name": "role",
          "type": "bytes32"
        },
        {
          "internalType": "address",
          "name": "account",
          "type": "address"
        }
      ],
      "name": "revokeRole",
      "outputs": [],
      "stateMutability": "nonpayable",
      "type": "function"
    },
    {
      "inputs": [
        {
          "internalType": "bytes4",
          "name": "interfaceId",
          "type": "bytes4"
        }
      ],
      "name": "supportsInterface",
      "outputs": [
        {
          "internalType": "bool",
          "name": "",
          "type": "bool"
        }
      ],
      "stateMutability": "view",
      "type": "function"
    },
    {
      "inputs": [],
      "name": "symbol",
      "outputs": [
        {
          "internalType": "string",
          "name": "",
          "type": "string"
        }
      ],
      "stateMutability": "view",
      "type": "function"
    },
    {
      "inputs": [],
      "name": "totalSupply",
      "outputs": [
        {
          "internalType": "uint256",
          "name": "",
          "type": "uint256"
        }
      ],
      "stateMutability": "view",
      "type": "function"
    },
    {
      "inputs": [
        {
          "internalType": "address",
          "name": "to",
          "type": "address"
        },
        {
          "internalType": "uint256",
          "name": "amount",
          "type": "uint256"
        }
      ],
      "name": "transfer",
      "outputs": [
        {
          "internalType": "bool",
          "name": "",
          "type": "bool"
        }
      ],
      "stateMutability": "nonpayable",
      "type": "function"
    },
    {
      "inputs": [
        {
          "internalType": "address",
          "name": "from",
          "type": "address"
        },
        {
          "internalType": "address",
          "name": "to",
          "type": "address"
        },
        {
          "internalType": "uint256",
          "name": "amount",
          "type": "uint256"
        }
      ],
      "name": "transferFrom",
      "outputs": [
        {
          "internalType": "bool",
          "name": "",
          "type": "bool"
        }
      ],
      "stateMutability": "nonpayable",
      "type": "function"
    },
    {
      "inputs": [],
      "name": "unpause",
      "outputs": [],
      "stateMutability": "nonpayable",
      "type": "function"
    }
  ],
  "bytecode": "0x608060405234801561001057600080fd5b50611d9f806100206000396000f3fe608060405234801561001057600080fd5b50600436106101f05760003560e01c80634becde251161010f578063a217fddf116100a2578063be9561f011610071578063be9561f014610411578063d547741f14610424578063d64e539614610437578063dd62ed3e1461046357600080fd5b8063a217fddf146103cb578063a457c2d7146103d3578063a9059cbb146103e6578063b52dc120146103f957600080fd5b806379cc6790116100de57806379cc6790146103955780638456cb59146103a857806391d14854146103b057806395d89b41146103c357600080fd5b80634becde25146103395780635c975abb1461034c578063634210f41461035757806370a082311461036c57600080fd5b80632f2ff15d116101875780633c063881116101565780633c063881146102f85780633f4ba83a1461030b57806340c10f191461031357806342966c681461032657600080fd5b80632f2ff15d146102b0578063313ce567146102c357806336568abe146102d257806339509351146102e557600080fd5b80630c42e87a116101c35780630c42e87a1461025d57806318160ddd1461027257806323b872dd1461027a578063248a9ca31461028d57600080fd5b806301ffc9a7146101f557806306fdde031461021d578063095ea7b3146102325780630ac7f56114610245575b600080fd5b61020861020336600461187a565b610476565b60405190151581526020015b60405180910390f35b6102256104ad565b60405161021491906118fc565b61020861024036600461192b565b61053f565b61024f6101605481565b604051908152602001610214565b61027061026b366004611955565b610557565b005b60355461024f565b610208610288366004611999565b6105fc565b61024f61029b3660046119d5565b600090815260c9602052604090206001015490565b6102706102be3660046119ee565b610620565b60405160128152602001610214565b6102706102e03660046119ee565b61064a565b6102086102f336600461192b565b6106cd565b610270610306366004611955565b6106ef565b61027061077a565b61027061032136600461192b565b6107b7565b6102706103343660046119d5565b610806565b610270610347366004611abd565b610810565b60fb5460ff16610208565b61015f5461020890600160a01b900460ff1681565b61024f61037a366004611b54565b6001600160a01b031660009081526033602052604090205490565b6102706103a336600461192b565b61084f565b610270610864565b6102086103be3660046119ee565b61089e565b6102256108c9565b61024f600081565b6102086103e136600461192b565b6108d8565b6102086103f436600461192b565b610953565b610401610961565b6040516102149493929190611b6f565b61027061041f366004611abd565b61098a565b6102706104323660046119ee565b610aa7565b61015f5461044b906001600160a01b031681565b6040516001600160a01b039091168152602001610214565b61024f610471366004611ba8565b610acc565b60006001600160e01b03198216637965db0b60e01b14806104a757506301ffc9a760e01b6001600160e01b03198316145b92915050565b6060603680546104bc90611bd2565b80601f01602080910402602001604051908101604052809291908181526020018280546104e890611bd2565b80156105355780601f1061050a57610100808354040283529160200191610535565b820191906000526020600020905b81548152906001019060200180831161051857829003601f168201915b5050505050905090565b60003361054d818585610af7565b5060019392505050565b7f52ba824bfabc2bcfcdf7f0edbb486ebb05e1836c90e78047efeb949990f72e5f61058181610c1b565b610589610c25565b610591610c6d565b61059c308484610cc9565b826001600160a01b0316846001600160a01b0316867f23c60fff86958d58a60d3885c843af7ba0932de44c53840dc0416d02ba51eb10856040516105e291815260200190565b60405180910390a46105f5600161012d55565b5050505050565b60003361060a858285610e89565b610615858585610cc9565b506001949350505050565b600082815260c9602052604090206001015461063b81610c1b565b6106458383610efd565b505050565b6001600160a01b03811633146106bf5760405162461bcd60e51b815260206004820152602f60248201527f416363657373436f6e74726f6c3a2063616e206f6e6c792072656e6f756e636560448201526e103937b632b9903337b91039b2b63360891b60648201526084015b60405180910390fd5b6106c98282610f83565b5050565b60003361054d8185856106e08383610acc565b6106ea9190611c23565b610af7565b7f52ba824bfabc2bcfcdf7f0edbb486ebb05e1836c90e78047efeb949990f72e5f61071981610c1b565b610721610c25565b610729610c6d565b610734843084610cc9565b826001600160a01b0316846001600160a01b0316867f99d2ae2789599f6561a30a0bcbf7a6f298aac89ab3e62bee2a16b451c6a05c79856040516105e291815260200190565b7f97667070c54ef182b0f5858b034beac1b6f3089aa2d3188bb1e8929f4fa9b9296107a481610c1b565b6107ac610fea565b6107b4611033565b50565b7f9f2df0fed2c77648de5860a4cc508cd0818c85b8b8a1ab4ceeef8d981c8956a66107e181610c1b565b6107e9610c25565b6107f1610c6d565b6107fb8383611085565b610645600161012d55565b6107b43382611152565b600054610100900460ff166108375760405162461bcd60e51b81526004016106b690611c3b565b6108448686868686611292565b610160555050505050565b61085a823383610e89565b6106c98282611152565b7f97667070c54ef182b0f5858b034beac1b6f3089aa2d3188bb1e8929f4fa9b92961088e81610c1b565b610896610c25565b6107b4611344565b600091825260c9602090815260408084206001600160a01b0393909316845291905290205460ff1690565b6060603780546104bc90611bd2565b600033816108e68286610acc565b9050838110156109465760405162461bcd60e51b815260206004820152602560248201527f45524332303a2064656372656173656420616c6c6f77616e63652062656c6f77604482015264207a65726f60d81b60648201526084016106b6565b6106158286868403610af7565b60003361054d818585610cc9565b60608060008061096f6104ad565b6109776108c9565b6035549196909550601294509092509050565b600054610100900460ff16158080156109aa5750600054600160ff909116105b806109c45750303b1580156109c4575060005460ff166001145b610a275760405162461bcd60e51b815260206004820152602e60248201527f496e697469616c697a61626c653a20636f6e747261637420697320616c72656160448201526d191e481a5b9a5d1a585b1a5e995960921b60648201526084016106b6565b6000805460ff191660011790558015610a4a576000805461ff0019166101001790555b610a58878787878787610810565b8015610a9e576000805461ff0019169055604051600181527f7f26b83ff96e1f2b6a682f133852f6798a09c465da95921460cefb38474024989060200160405180910390a15b50505050505050565b600082815260c96020526040902060010154610ac281610c1b565b6106458383610f83565b6001600160a01b03918216600090815260346020908152604080832093909416825291909152205490565b6001600160a01b038316610b595760405162461bcd60e51b8152602060048201526024808201527f45524332303a20617070726f76652066726f6d20746865207a65726f206164646044820152637265737360e01b60648201526084016106b6565b6001600160a01b038216610bba5760405162461bcd60e51b815260206004820152602260248201527f45524332303a20617070726f766520746f20746865207a65726f206164647265604482015261737360f01b60648201526084016106b6565b6001600160a01b0383811660008181526034602090815260408083209487168084529482529182902085905590518481527f8c5be1e5ebec7d5bd14f71427d1e84f3dd0314c0f7b2291e5b200ac8c7c3b925910160405180910390a3505050565b6107b48133611381565b60fb5460ff1615610c6b5760405162461bcd60e51b815260206004820152601060248201526f14185d5cd8589b194e881c185d5cd95960821b60448201526064016106b6565b565b600261012d541415610cc15760405162461bcd60e51b815260206004820152601f60248201527f5265656e7472616e637947756172643a207265656e7472616e742063616c6c0060448201526064016106b6565b600261012d55565b6001600160a01b038316610d2d5760405162461bcd60e51b815260206004820152602560248201527f45524332303a207472616e736665722066726f6d20746865207a65726f206164604482015264647265737360d81b60648201526084016106b6565b6001600160a01b038216610d8f5760405162461bcd60e51b815260206004820152602360248201527f45524332303a207472616e7366657220746f20746865207a65726f206164647260448201526265737360e81b60648201526084016106b6565b610d9a8383836113da565b6001600160a01b03831660009081526033602052604090205481811015610e125760405162461bcd60e51b815260206004820152602660248201527f45524332303a207472616e7366657220616d6f756e7420657863656564732062604482015265616c616e636560d01b60648201526084016106b6565b6001600160a01b0380851660008181526033602052604080822086860390559286168082529083902080548601905591517fddf252ad1be2c89b69c2b068fc378daa952ba7f163c4a11628f55a4df523b3ef90610e729086815260200190565b60405180910390a35b50505050565b600161012d55565b6000610e958484610acc565b90506000198114610e7b5781811015610ef05760405162461bcd60e51b815260206004820152601d60248201527f45524332303a20696e73756666696369656e7420616c6c6f77616e636500000060448201526064016106b6565b610e7b8484848403610af7565b610f07828261089e565b6106c957600082815260c9602090815260408083206001600160a01b03851684529091529020805460ff19166001179055610f3f3390565b6001600160a01b0316816001600160a01b0316837f2f8788117e7eff1d82e926ec794901d17c78024a50270940304540a733656f0d60405160405180910390a45050565b610f8d828261089e565b156106c957600082815260c9602090815260408083206001600160a01b0385168085529252808320805460ff1916905551339285917ff6391f5c32d9c69d2a47ea670b442974b53935d1edc7fd64eb21e047a839171b9190a45050565b60fb5460ff16610c6b5760405162461bcd60e51b815260206004820152601460248201527314185d5cd8589b194e881b9bdd081c185d5cd95960621b60448201526064016106b6565b61103b610fea565b60fb805460ff191690557f5db9ee0a495bf2e6ff9c91a7834c1ba4fdd244a5e8aa4e537bd38aeae4b073aa335b6040516001600160a01b03909116815260200160405180910390a1565b6001600160a01b0382166110db5760405162461bcd60e51b815260206004820152601f60248201527f45524332303a206d696e7420746f20746865207a65726f20616464726573730060448201526064016106b6565b6110e7600083836113da565b80603560008282546110f99190611c23565b90915550506001600160a01b0382166000818152603360209081526040808320805486019055518481527fddf252ad1be2c89b69c2b068fc378daa952ba7f163c4a11628f55a4df523b3ef910160405180910390a35050565b6001600160a01b0382166111b25760405162461bcd60e51b815260206004820152602160248201527f45524332303a206275726e2066726f6d20746865207a65726f206164647265736044820152607360f81b60648201526084016106b6565b6111be826000836113da565b6001600160a01b038216600090815260336020526040902054818110156112325760405162461bcd60e51b815260206004820152602260248201527f45524332303a206275726e20616d6f756e7420657863656564732062616c616e604482015261636560f01b60648201526084016106b6565b6001600160a01b03831660008181526033602090815260408083208686039055603580548790039055518581529192917fddf252ad1be2c89b69c2b068fc378daa952ba7f163c4a11628f55a4df523b3ef910160405180910390a3505050565b600054610100900460ff166112b95760405162461bcd60e51b81526004016106b690611c3b565b6112c38585611448565b6112cb611479565b6112d36114a8565b6112ff8161015f80546001600160a81b0319166001600160a01b0390921691909117600160a01b179055565b61130a6000846114d7565b6113347f97667070c54ef182b0f5858b034beac1b6f3089aa2d3188bb1e8929f4fa9b929846114d7565b81156105f5576105f58383611085565b61134c610c25565b60fb805460ff191660011790557f62e78cea01bee320cd4e420270b5ea74000d11b0c9f74754ebdbfc544b05a2586110683390565b61138b828261089e565b6106c957611398816114e1565b6113a38360206114f3565b6040516020016113b4929190611c86565b60408051601f198184030181529082905262461bcd60e51b82526106b6916004016118fc565b6113e2610c25565b6113ec8383611696565b156106455760405162461bcd60e51b815260206004820152602660248201527f53656e64657220616e642f6f7220726563697069656e7420697320626c6f636b6044820152651b1a5cdd195960d21b60648201526084016106b6565b600054610100900460ff1661146f5760405162461bcd60e51b81526004016106b690611c3b565b6106c98282611739565b600054610100900460ff166114a05760405162461bcd60e51b81526004016106b690611c3b565b610c6b611787565b600054610100900460ff166114cf5760405162461bcd60e51b81526004016106b690611c3b565b610c6b6117ba565b6106c98282610efd565b60606104a76001600160a01b03831660145b60606000611502836002611cfb565b61150d906002611c23565b67ffffffffffffffff81111561152557611525611a1a565b6040519080825280601f01601f19166020018201604052801561154f576020820181803683370190505b509050600360fc1b8160008151811061156a5761156a611d1a565b60200101906001600160f81b031916908160001a905350600f60fb1b8160018151811061159957611599611d1a565b60200101906001600160f81b031916908160001a90535060006115bd846002611cfb565b6115c8906001611c23565b90505b6001811115611640576f181899199a1a9b1b9c1cb0b131b232b360811b85600f16601081106115fc576115fc611d1a565b1a60f81b82828151811061161257611612611d1a565b60200101906001600160f81b031916908160001a90535060049490941c9361163981611d30565b90506115cb565b50831561168f5760405162461bcd60e51b815260206004820181905260248201527f537472696e67733a20686578206c656e67746820696e73756666696369656e7460448201526064016106b6565b9392505050565b61015f54600090600160a01b900460ff166116b3575060006104a7565b61015f5460405163257128dd60e21b81526001600160a01b0385811660048301528481166024830152909116906395c4a3749060440160206040518083038186803b15801561170157600080fd5b505afa158015611715573d6000803e3d6000fd5b505050506040513d601f19601f8201168201806040525081019061168f9190611d47565b600054610100900460ff166117605760405162461bcd60e51b81526004016106b690611c3b565b81516117739060369060208501906117e1565b5080516106459060379060208401906117e1565b600054610100900460ff166117ae5760405162461bcd60e51b81526004016106b690611c3b565b60fb805460ff19169055565b600054610100900460ff16610e815760405162461bcd60e51b81526004016106b690611c3b565b8280546117ed90611bd2565b90600052602060002090601f01602090048101928261180f5760008555611855565b82601f1061182857805160ff1916838001178555611855565b82800160010185558215611855579182015b8281111561185557825182559160200191906001019061183a565b50611861929150611865565b5090565b5b808211156118615760008155600101611866565b60006020828403121561188c57600080fd5b81356001600160e01b03198116811461168f57600080fd5b60005b838110156118bf5781810151838201526020016118a7565b83811115610e7b5750506000910152565b600081518084526118e88160208601602086016118a4565b601f01601f19169290920160200192915050565b60208152600061168f60208301846118d0565b80356001600160a01b038116811461192657600080fd5b919050565b6000806040838503121561193e57600080fd5b6119478361190f565b946020939093013593505050565b6000806000806080858703121561196b57600080fd5b8435935061197b6020860161190f565b92506119896040860161190f565b9396929550929360600135925050565b6000806000606084860312156119ae57600080fd5b6119b78461190f565b92506119c56020850161190f565b9150604084013590509250925092565b6000602082840312156119e757600080fd5b5035919050565b60008060408385031215611a0157600080fd5b82359150611a116020840161190f565b90509250929050565b634e487b7160e01b600052604160045260246000fd5b600082601f830112611a4157600080fd5b813567ffffffffffffffff80821115611a5c57611a5c611a1a565b604051601f8301601f19908116603f01168101908282118183101715611a8457611a84611a1a565b81604052838152866020858801011115611a9d57600080fd5b836020870160208301376000602085830101528094505050505092915050565b60008060008060008060c08789031215611ad657600080fd5b863567ffffffffffffffff80821115611aee57600080fd5b611afa8a838b01611a30565b97506020890135915080821115611b1057600080fd5b50611b1d89828a01611a30565b955050611b2c6040880161190f565b935060608701359250611b416080880161190f565b915060a087013590509295509295509295565b600060208284031215611b6657600080fd5b61168f8261190f565b608081526000611b8260808301876118d0565b8281036020840152611b9481876118d0565b604084019590955250506060015292915050565b60008060408385031215611bbb57600080fd5b611bc48361190f565b9150611a116020840161190f565b600181811c90821680611be657607f821691505b60208210811415611c0757634e487b7160e01b600052602260045260246000fd5b50919050565b634e487b7160e01b600052601160045260246000fd5b60008219821115611c3657611c36611c0d565b500190565b6020808252602b908201527f496e697469616c697a61626c653a20636f6e7472616374206973206e6f74206960408201526a6e697469616c697a696e6760a81b606082015260800190565b7f416363657373436f6e74726f6c3a206163636f756e7420000000000000000000815260008351611cbe8160178501602088016118a4565b7001034b99036b4b9b9b4b733903937b6329607d1b6017918401918201528351611cef8160288401602088016118a4565b01602801949350505050565b6000816000190483118215151615611d1557611d15611c0d565b500290565b634e487b7160e01b600052603260045260246000fd5b600081611d3f57611d3f611c0d565b506000190190565b600060208284031215611d5957600080fd5b8151801515811461168f57600080fdfea2646970667358221220edbb84221e808fbd27e7d170155d212e0a1be0afe6180b56672146931651701264736f6c63430008090033",
  "linkReferences": {},
  "deployedLinkReferences": {}
}