{
  "_format": "hh-sol-artifact-1",
  "contractName": "BkFetch",
  "sourceName": "contracts/features/BkFetch.sol",
  "abi": [
    {
      "anonymous": false,
      "inputs": [
        {
          "indexed": false,
          "internalType": "uint8",
          "name": "version",
          "type": "uint8"
        }
      ],
      "name": "Initialized",
      "type": "event"
    },
    {
      "anonymous": false,
      "inputs": [
        {
          "indexed": false,
          "internalType": "address",
          "name": "account",
          "type": "address"
        }
      ],
      "name": "Paused",
      "type": "event"
    },
    {
      "anonymous": false,
      "inputs": [
        {
          "indexed": true,
          "internalType": "bytes32",
          "name": "role",
          "type": "bytes32"
        },
        {
          "indexed": true,
          "internalType": "bytes32",
          "name": "previousAdminRole",
          "type": "bytes32"
        },
        {
          "indexed": true,
          "internalType": "bytes32",
          "name": "newAdminRole",
          "type": "bytes32"
        }
      ],
      "name": "RoleAdminChanged",
      "type": "event"
    },
    {
      "anonymous": false,
      "inputs": [
        {
          "indexed": true,
          "internalType": "bytes32",
          "name": "role",
          "type": "bytes32"
        },
        {
          "indexed": true,
          "internalType": "address",
          "name": "account",
          "type": "address"
        },
        {
          "indexed": true,
          "internalType": "address",
          "name": "sender",
          "type": "address"
        }
      ],
      "name": "RoleGranted",
      "type": "event"
    },
    {
      "anonymous": false,
      "inputs": [
        {
          "indexed": true,
          "internalType": "bytes32",
          "name": "role",
          "type": "bytes32"
        },
        {
          "indexed": true,
          "internalType": "address",
          "name": "account",
          "type": "address"
        },
        {
          "indexed": true,
          "internalType": "address",
          "name": "sender",
          "type": "address"
        }
      ],
      "name": "RoleRevoked",
      "type": "event"
    },
    {
      "anonymous": false,
      "inputs": [
        {
          "indexed": false,
          "internalType": "address",
          "name": "account",
          "type": "address"
        }
      ],
      "name": "Unpaused",
      "type": "event"
    },
    {
      "inputs": [],
      "name": "DEFAULT_ADMIN_ROLE",
      "outputs": [
        {
          "internalType": "bytes32",
          "name": "",
          "type": "bytes32"
        }
      ],
      "stateMutability": "view",
      "type": "function"
    },
    {
      "inputs": [
        {
          "internalType": "address",
          "name": "_operator",
          "type": "address"
        },
        {
          "internalType": "address",
          "name": "_blocklistAddress",
          "type": "address"
        }
      ],
      "name": "__Administrable_init",
      "outputs": [],
      "stateMutability": "nonpayable",
      "type": "function"
    },
    {
      "inputs": [
        {
          "internalType": "address",
          "name": "account",
          "type": "address"
        }
      ],
      "name": "balancesOf",
      "outputs": [
        {
          "components": [
            {
              "internalType": "uint256",
              "name": "bct",
              "type": "uint256"
            },
            {
              "internalType": "uint256",
              "name": "eBct",
              "type": "uint256"
            },
            {
              "internalType": "uint256[]",
              "name": "resources",
              "type": "uint256[]"
            }
          ],
          "internalType": "struct BkFetch.InGameBalances",
          "name": "",
          "type": "tuple"
        },
        {
          "components": [
            {
              "internalType": "uint256",
              "name": "bct",
              "type": "uint256"
            },
            {
              "internalType": "uint256",
              "name": "stabletoken",
              "type": "uint256"
            }
          ],
          "internalType": "struct BkFetch.MetamaskBalances",
          "name": "",
          "type": "tuple"
        }
      ],
      "stateMutability": "view",
      "type": "function"
    },
    {
      "inputs": [],
      "name": "contracts",
      "outputs": [
        {
          "internalType": "contract IBkERC20",
          "name": "bct",
          "type": "address"
        },
        {
          "internalType": "contract IBkERC20",
          "name": "stabletoken",
          "type": "address"
        },
        {
          "internalType": "contract IBkStasher",
          "name": "stasher",
          "type": "address"
        },
        {
          "internalType": "contract ICommunityPool",
          "name": "pool",
          "type": "address"
        },
        {
          "internalType": "contract IBkFarm",
          "name": "farm",
          "type": "address"
        },
        {
          "internalType": "contract IBkNft",
          "name": "nft",
          "type": "address"
        },
        {
          "internalType": "contract IBkPlayerBonus",
          "name": "playerBonus",
          "type": "address"
        }
      ],
      "stateMutability": "view",
      "type": "function"
    },
    {
      "inputs": [
        {
          "internalType": "address",
          "name": "account",
          "type": "address"
        }
      ],
      "name": "ebctBalanceOf",
      "outputs": [
        {
          "internalType": "uint256",
          "name": "",
          "type": "uint256"
        }
      ],
      "stateMutability": "view",
      "type": "function"
    },
    {
      "inputs": [
        {
          "internalType": "uint256[]",
          "name": "nftIds",
          "type": "uint256[]"
        }
      ],
      "name": "getBeasts",
      "outputs": [
        {
          "components": [
            {
              "internalType": "uint256",
              "name": "id",
              "type": "uint256"
            },
            {
              "internalType": "string",
              "name": "name",
              "type": "string"
            },
            {
              "internalType": "string",
              "name": "imageUrl",
              "type": "string"
            },
            {
              "internalType": "address",
              "name": "currentOwner",
              "type": "address"
            },
            {
              "internalType": "uint256",
              "name": "squadId",
              "type": "uint256"
            },
            {
              "internalType": "uint256",
              "name": "collection",
              "type": "uint256"
            },
            {
              "internalType": "uint256",
              "name": "baseFarm",
              "type": "uint256"
            },
            {
              "internalType": "uint256",
              "name": "farmPerBlock",
              "type": "uint256"
            },
            {
              "internalType": "uint256[]",
              "name": "attributes",
              "type": "uint256[]"
            },
            {
              "internalType": "uint256[]",
              "name": "traits",
              "type": "uint256[]"
            },
            {
              "internalType": "uint256[]",
              "name": "skills",
              "type": "uint256[]"
            },
            {
              "internalType": "bool",
              "name": "isDead",
              "type": "bool"
            }
          ],
          "internalType": "struct IBkChar.BkChar[]",
          "name": "nfts",
          "type": "tuple[]"
        }
      ],
      "stateMutability": "view",
      "type": "function"
    },
    {
      "inputs": [],
      "name": "getContracts",
      "outputs": [
        {
          "components": [
            {
              "internalType": "contract IBkERC20",
              "name": "bct",
              "type": "address"
            },
            {
              "internalType": "contract IBkERC20",
              "name": "stabletoken",
              "type": "address"
            },
            {
              "internalType": "contract IBkStasher",
              "name": "stasher",
              "type": "address"
            },
            {
              "internalType": "contract ICommunityPool",
              "name": "pool",
              "type": "address"
            },
            {
              "internalType": "contract IBkFarm",
              "name": "farm",
              "type": "address"
            },
            {
              "internalType": "contract IBkNft",
              "name": "nft",
              "type": "address"
            },
            {
              "internalType": "contract IBkPlayerBonus",
              "name": "playerBonus",
              "type": "address"
            }
          ],
          "internalType": "struct BkFetch.Contracts",
          "name": "",
          "type": "tuple"
        }
      ],
      "stateMutability": "view",
      "type": "function"
    },
    {
      "inputs": [
        {
          "internalType": "address",
          "name": "account",
          "type": "address"
        }
      ],
      "name": "getEverything",
      "outputs": [
        {
          "components": [
            {
              "internalType": "uint256",
              "name": "bctToClaim",
              "type": "uint256"
            },
            {
              "internalType": "uint256",
              "name": "etherealBct",
              "type": "uint256"
            },
            {
              "internalType": "uint256",
              "name": "lastWithdrawalBlock",
              "type": "uint256"
            },
            {
              "internalType": "uint256",
              "name": "registeredAt",
              "type": "uint256"
            },
            {
              "internalType": "address",
              "name": "mentor",
              "type": "address"
            },
            {
              "internalType": "uint256",
              "name": "mentorLevel",
              "type": "uint256"
            },
            {
              "internalType": "uint256",
              "name": "merchantLevel",
              "type": "uint256"
            },
            {
              "internalType": "uint256[]",
              "name": "squads",
              "type": "uint256[]"
            }
          ],
          "internalType": "struct IBkPlayer.Player",
          "name": "player",
          "type": "tuple"
        },
        {
          "components": [
            {
              "internalType": "address",
              "name": "owner",
              "type": "address"
            },
            {
              "internalType": "uint256",
              "name": "type_",
              "type": "uint256"
            },
            {
              "internalType": "uint256",
              "name": "size",
              "type": "uint256"
            },
            {
              "internalType": "uint256",
              "name": "baseFarmPerBlock",
              "type": "uint256"
            },
            {
              "internalType": "uint256",
              "name": "synergyBonus",
              "type": "uint256"
            },
            {
              "internalType": "uint256",
              "name": "squadBonus",
              "type": "uint256"
            },
            {
              "internalType": "uint256",
              "name": "squadTrait",
              "type": "uint256"
            },
            {
              "internalType": "uint256",
              "name": "farmPerBlock",
              "type": "uint256"
            },
            {
              "internalType": "uint256",
              "name": "currentQuest",
              "type": "uint256"
            },
            {
              "internalType": "uint256",
              "name": "questStartedAt",
              "type": "uint256"
            },
            {
              "internalType": "uint256",
              "name": "questEndsAt",
              "type": "uint256"
            },
            {
              "internalType": "uint256[]",
              "name": "nftIds",
              "type": "uint256[]"
            },
            {
              "internalType": "uint256[]",
              "name": "traits",
              "type": "uint256[]"
            },
            {
              "internalType": "uint256[]",
              "name": "collections",
              "type": "uint256[]"
            }
          ],
          "internalType": "struct IBkSquad.Squad[]",
          "name": "squads",
          "type": "tuple[]"
        },
        {
          "components": [
            {
              "internalType": "uint256",
              "name": "id",
              "type": "uint256"
            },
            {
              "internalType": "string",
              "name": "name",
              "type": "string"
            },
            {
              "internalType": "string",
              "name": "imageUrl",
              "type": "string"
            },
            {
              "internalType": "address",
              "name": "currentOwner",
              "type": "address"
            },
            {
              "internalType": "uint256",
              "name": "squadId",
              "type": "uint256"
            },
            {
              "internalType": "uint256",
              "name": "collection",
              "type": "uint256"
            },
            {
              "internalType": "uint256",
              "name": "baseFarm",
              "type": "uint256"
            },
            {
              "internalType": "uint256",
              "name": "farmPerBlock",
              "type": "uint256"
            },
            {
              "internalType": "uint256[]",
              "name": "attributes",
              "type": "uint256[]"
            },
            {
              "internalType": "uint256[]",
              "name": "traits",
              "type": "uint256[]"
            },
            {
              "internalType": "uint256[]",
              "name": "skills",
              "type": "uint256[]"
            },
            {
              "internalType": "bool",
              "name": "isDead",
              "type": "bool"
            }
          ],
          "internalType": "struct IBkChar.BkChar[]",
          "name": "nfts",
          "type": "tuple[]"
        },
        {
          "components": [
            {
              "internalType": "uint256",
              "name": "bct",
              "type": "uint256"
            },
            {
              "internalType": "uint256",
              "name": "eBct",
              "type": "uint256"
            },
            {
              "internalType": "uint256[]",
              "name": "resources",
              "type": "uint256[]"
            }
          ],
          "internalType": "struct BkFetch.InGameBalances",
          "name": "ingameBalances",
          "type": "tuple"
        },
        {
          "internalType": "uint256",
          "name": "stasherBalance",
          "type": "uint256"
        },
        {
          "components": [
            {
              "internalType": "uint256",
              "name": "stash",
              "type": "uint256"
            },
            {
              "internalType": "uint256",
              "name": "mythicMints",
              "type": "uint256"
            },
            {
              "internalType": "uint256",
              "name": "item",
              "type": "uint256"
            },
            {
              "internalType": "uint256",
              "name": "special",
              "type": "uint256"
            },
            {
              "internalType": "uint256",
              "name": "fortuneLevel",
              "type": "uint256"
            },
            {
              "internalType": "uint256",
              "name": "total",
              "type": "uint256"
            }
          ],
          "internalType": "struct IBkPlayerBonus.Player",
          "name": "playerBonus",
          "type": "tuple"
        },
        {
          "internalType": "uint256[]",
          "name": "masteries",
          "type": "uint256[]"
        },
        {
          "internalType": "uint256",
          "name": "bctMetamaskBalance",
          "type": "uint256"
        },
        {
          "internalType": "uint256",
          "name": "stabletokenBalance",
          "type": "uint256"
        }
      ],
      "stateMutability": "view",
      "type": "function"
    },
    {
      "inputs": [
        {
          "internalType": "address",
          "name": "account",
          "type": "address"
        }
      ],
      "name": "getPlayerNfts",
      "outputs": [
        {
          "components": [
            {
              "internalType": "uint256",
              "name": "id",
              "type": "uint256"
            },
            {
              "internalType": "string",
              "name": "name",
              "type": "string"
            },
            {
              "internalType": "string",
              "name": "imageUrl",
              "type": "string"
            },
            {
              "internalType": "address",
              "name": "currentOwner",
              "type": "address"
            },
            {
              "internalType": "uint256",
              "name": "squadId",
              "type": "uint256"
            },
            {
              "internalType": "uint256",
              "name": "collection",
              "type": "uint256"
            },
            {
              "internalType": "uint256",
              "name": "baseFarm",
              "type": "uint256"
            },
            {
              "internalType": "uint256",
              "name": "farmPerBlock",
              "type": "uint256"
            },
            {
              "internalType": "uint256[]",
              "name": "attributes",
              "type": "uint256[]"
            },
            {
              "internalType": "uint256[]",
              "name": "traits",
              "type": "uint256[]"
            },
            {
              "internalType": "uint256[]",
              "name": "skills",
              "type": "uint256[]"
            },
            {
              "internalType": "bool",
              "name": "isDead",
              "type": "bool"
            }
          ],
          "internalType": "struct IBkChar.BkChar[]",
          "name": "nfts",
          "type": "tuple[]"
        }
      ],
      "stateMutability": "view",
      "type": "function"
    },
    {
      "inputs": [],
      "name": "getResources",
      "outputs": [
        {
          "internalType": "address[]",
          "name": "",
          "type": "address[]"
        }
      ],
      "stateMutability": "view",
      "type": "function"
    },
    {
      "inputs": [
        {
          "internalType": "bytes32",
          "name": "role",
          "type": "bytes32"
        }
      ],
      "name": "getRoleAdmin",
      "outputs": [
        {
          "internalType": "bytes32",
          "name": "",
          "type": "bytes32"
        }
      ],
      "stateMutability": "view",
      "type": "function"
    },
    {
      "inputs": [
        {
          "internalType": "bytes32",
          "name": "role",
          "type": "bytes32"
        },
        {
          "internalType": "address",
          "name": "account",
          "type": "address"
        }
      ],
      "name": "grantRole",
      "outputs": [],
      "stateMutability": "nonpayable",
      "type": "function"
    },
    {
      "inputs": [],
      "name": "hasBlocklist",
      "outputs": [
        {
          "internalType": "bool",
          "name": "",
          "type": "bool"
        }
      ],
      "stateMutability": "view",
      "type": "function"
    },
    {
      "inputs": [
        {
          "internalType": "bytes32",
          "name": "role",
          "type": "bytes32"
        },
        {
          "internalType": "address",
          "name": "account",
          "type": "address"
        }
      ],
      "name": "hasRole",
      "outputs": [
        {
          "internalType": "bool",
          "name": "",
          "type": "bool"
        }
      ],
      "stateMutability": "view",
      "type": "function"
    },
    {
      "inputs": [
        {
          "internalType": "address",
          "name": "account",
          "type": "address"
        }
      ],
      "name": "inGameBalancesOf",
      "outputs": [
        {
          "components": [
            {
              "internalType": "uint256",
              "name": "bct",
              "type": "uint256"
            },
            {
              "internalType": "uint256",
              "name": "eBct",
              "type": "uint256"
            },
            {
              "internalType": "uint256[]",
              "name": "resources",
              "type": "uint256[]"
            }
          ],
          "internalType": "struct BkFetch.InGameBalances",
          "name": "",
          "type": "tuple"
        }
      ],
      "stateMutability": "view",
      "type": "function"
    },
    {
      "inputs": [
        {
          "internalType": "address",
          "name": "_operator",
          "type": "address"
        },
        {
          "internalType": "address",
          "name": "_blocklist",
          "type": "address"
        },
        {
          "internalType": "address",
          "name": "_bct",
          "type": "address"
        },
        {
          "internalType": "address",
          "name": "_stabletoken",
          "type": "address"
        },
        {
          "internalType": "address",
          "name": "_stasher",
          "type": "address"
        },
        {
          "internalType": "address",
          "name": "_pool",
          "type": "address"
        },
        {
          "internalType": "address",
          "name": "_farm",
          "type": "address"
        },
        {
          "internalType": "address",
          "name": "_nft",
          "type": "address"
        },
        {
          "internalType": "address",
          "name": "_playerBonus",
          "type": "address"
        }
      ],
      "name": "initialize",
      "outputs": [],
      "stateMutability": "nonpayable",
      "type": "function"
    },
    {
      "inputs": [
        {
          "internalType": "address",
          "name": "account",
          "type": "address"
        }
      ],
      "name": "metamaskBalancesOf",
      "outputs": [
        {
          "components": [
            {
              "internalType": "uint256",
              "name": "bct",
              "type": "uint256"
            },
            {
              "internalType": "uint256",
              "name": "stabletoken",
              "type": "uint256"
            }
          ],
          "internalType": "struct BkFetch.MetamaskBalances",
          "name": "",
          "type": "tuple"
        }
      ],
      "stateMutability": "view",
      "type": "function"
    },
    {
      "inputs": [],
      "name": "pause",
      "outputs": [],
      "stateMutability": "nonpayable",
      "type": "function"
    },
    {
      "inputs": [],
      "name": "paused",
      "outputs": [
        {
          "internalType": "bool",
          "name": "",
          "type": "bool"
        }
      ],
      "stateMutability": "view",
      "type": "function"
    },
    {
      "inputs": [
        {
          "internalType": "address",
          "name": "tokenAddress",
          "type": "address"
        },
        {
          "internalType": "address",
          "name": "to",
          "type": "address"
        },
        {
          "internalType": "uint256",
          "name": "amount",
          "type": "uint256"
        }
      ],
      "name": "recoverERC20",
      "outputs": [],
      "stateMutability": "nonpayable",
      "type": "function"
    },
    {
      "inputs": [
        {
          "internalType": "bytes32",
          "name": "role",
          "type": "bytes32"
        },
        {
          "internalType": "address",
          "name": "account",
          "type": "address"
        }
      ],
      "name": "renounceRole",
      "outputs": [],
      "stateMutability": "nonpayable",
      "type": "function"
    },
    {
      "inputs": [],
      "name": "resetBlocklist",
      "outputs": [],
      "stateMutability": "nonpayable",
      "type": "function"
    },
    {
      "inputs": [
        {
          "internalType": "uint256",
          "name": "",
          "type": "uint256"
        }
      ],
      "name": "resources",
      "outputs": [
        {
          "internalType": "address",
          "name": "",
          "type": "address"
        }
      ],
      "stateMutability": "view",
      "type": "function"
    },
    {
      "inputs": [
        {
          "internalType": "bytes32",
          "name": "role",
          "type": "bytes32"
        },
        {
          "internalType": "address",
          "name": "account",
          "type": "address"
        }
      ],
      "name": "revokeRole",
      "outputs": [],
      "stateMutability": "nonpayable",
      "type": "function"
    },
    {
      "inputs": [
        {
          "internalType": "address",
          "name": "blocklistAddress",
          "type": "address"
        }
      ],
      "name": "setBlocklist",
      "outputs": [],
      "stateMutability": "nonpayable",
      "type": "function"
    },
    {
      "inputs": [
        {
          "internalType": "address",
          "name": "farmAddress",
          "type": "address"
        },
        {
          "internalType": "address",
          "name": "bctAddress",
          "type": "address"
        },
        {
          "internalType": "address",
          "name": "stabletokenAddress",
          "type": "address"
        },
        {
          "internalType": "address",
          "name": "poolAddress",
          "type": "address"
        },
        {
          "internalType": "address",
          "name": "stasherAddress",
          "type": "address"
        },
        {
          "internalType": "address",
          "name": "nftAddress",
          "type": "address"
        },
        {
          "internalType": "address",
          "name": "playerBonusAddress",
          "type": "address"
        }
      ],
      "name": "setContracts",
      "outputs": [],
      "stateMutability": "nonpayable",
      "type": "function"
    },
    {
      "inputs": [
        {
          "internalType": "uint256",
          "name": "count",
          "type": "uint256"
        }
      ],
      "name": "setResources",
      "outputs": [],
      "stateMutability": "nonpayable",
      "type": "function"
    },
    {
      "inputs": [],
      "name": "supply",
      "outputs": [
        {
          "internalType": "uint256",
          "name": "bctTotalSupply",
          "type": "uint256"
        },
        {
          "internalType": "uint256",
          "name": "farm",
          "type": "uint256"
        },
        {
          "internalType": "uint256",
          "name": "pool",
          "type": "uint256"
        },
        {
          "internalType": "uint256[]",
          "name": "_resources",
          "type": "uint256[]"
        }
      ],
      "stateMutability": "view",
      "type": "function"
    },
    {
      "inputs": [
        {
          "internalType": "bytes4",
          "name": "interfaceId",
          "type": "bytes4"
        }
      ],
      "name": "supportsInterface",
      "outputs": [
        {
          "internalType": "bool",
          "name": "",
          "type": "bool"
        }
      ],
      "stateMutability": "view",
      "type": "function"
    },
    {
      "inputs": [],
      "name": "totalResources",
      "outputs": [
        {
          "internalType": "uint256",
          "name": "",
          "type": "uint256"
        }
      ],
      "stateMutability": "view",
      "type": "function"
    },
    {
      "inputs": [],
      "name": "unpause",
      "outputs": [],
      "stateMutability": "nonpayable",
      "type": "function"
    }
  ],
  "bytecode": "0x608060405234801561001057600080fd5b50612d67806100206000396000f3fe608060405234801561001057600080fd5b50600436106101e55760003560e01c8063634210f41161010f578063a217fddf116100a2578063d3ff95c711610071578063d3ff95c7146105a8578063d547741f146105bb578063f5228746146105ce578063f5e95acb146105f657600080fd5b8063a217fddf14610478578063aef18ae714610480578063c1cc57b014610493578063c3a2a93a146104a857600080fd5b8063799377cb116100de578063799377cb146104375780638456cb591461044a57806391d1485414610452578063931da89b1461046557600080fd5b8063634210f4146103785780636392a51f1461038c57806366f5a747146103ad5780636c0f79b6146103b657600080fd5b80632f2ff15d116101875780635c0ff1e1116101565780635c0ff1e11461031a5780635c975abb1461033a5780635ee9dffe1461034557806361e3ca2b1461036557600080fd5b80632f2ff15d146102e457806336568abe146102f75780633c7fd8221461030a5780633f4ba83a1461031257600080fd5b80631171bda9116101c35780631171bda91461024a578063208e33421461025f578063244d6daa14610280578063248a9ca3146102c157600080fd5b806301ffc9a7146101ea578063047fc9aa146102125780630e9978871461022a575b600080fd5b6101fd6101f8366004611c81565b610609565b60405190151581526020015b60405180910390f35b61021a610640565b6040516102099493929190611ce6565b61023d610238366004611d2a565b6108d5565b6040516102099190611d78565b61025d610258366004611d8b565b610902565b005b61027261026d366004611d2a565b6109a3565b604051908152602001610209565b6102a961028e366004611dcc565b60d2602052600090815260409020546001600160a01b031681565b6040516001600160a01b039091168152602001610209565b6102726102cf366004611dcc565b60009081526065602052604090206001015490565b61025d6102f2366004611de5565b610a33565b61025d610305366004611de5565b610a5d565b61025d610a80565b61025d610aab565b61032d610328366004611d2a565b610ace565b6040516102099190611e15565b60975460ff166101fd565b610358610353366004611f26565b610aeb565b604051610209919061214d565b610358610373366004611d2a565b610b70565b60c9546101fd90600160a01b900460ff1681565b61039f61039a366004611d2a565b610ba3565b604051610209929190612160565b61027260d15481565b60ca5460cb5460cc5460cd5460ce5460cf5460d0546103ee966001600160a01b03908116968116958116948116938116928116911687565b604080516001600160a01b039889168152968816602088015294871694860194909452918516606085015284166080840152831660a083015290911660c082015260e001610209565b61025d610445366004611dcc565b610bf6565b61025d610c14565b6101fd610460366004611de5565b610c34565b61025d61047336600461218c565b610c5f565b610272600081565b61025d61048e366004611d2a565b610d75565b61049b610db5565b60405161020991906121ba565b6105416040805160e081018252600080825260208201819052918101829052606081018290526080810182905260a0810182905260c0810191909152506040805160e08101825260ca546001600160a01b03908116825260cb548116602083015260cc5481169282019290925260cd548216606082015260ce548216608082015260cf54821660a082015260d05490911660c082015290565b604051610209919081516001600160a01b03908116825260208084015182169083015260408084015182169083015260608084015182169083015260808084015182169083015260a08381015182169083015260c092830151169181019190915260e00190565b61025d6105b6366004612207565b610e6b565b61025d6105c9366004611de5565b610f05565b6105e16105dc366004611d2a565b610f2a565b604051610209999897969594939291906123a7565b61025d6106043660046124d1565b61138b565b60006001600160e01b03198216637965db0b60e01b148061063a57506301ffc9a760e01b6001600160e01b03198316145b92915050565b60ca54604080516318160ddd60e01b81529051600092839283926060926001600160a01b0316916318160ddd916004808301926020929190829003018186803b15801561068c57600080fd5b505afa1580156106a0573d6000803e3d6000fd5b505050506040513d601f19601f820116820180604052508101906106c4919061258d565b60ca5460ce546040516370a0823160e01b81526001600160a01b03918216600482015292965016906370a082319060240160206040518083038186803b15801561070d57600080fd5b505afa158015610721573d6000803e3d6000fd5b505050506040513d601f19601f82011682018060405250810190610745919061258d565b60cd5460408051630240bc6b60e21b815281519396506001600160a01b0390921692630902f1ac926004808201939291829003018186803b15801561078957600080fd5b505afa15801561079d573d6000803e3d6000fd5b505050506040513d601f19601f820116820180604052508101906107c191906125a6565b5060d1549092506001600160401b038111156107df576107df611e2c565b604051908082528060200260200182016040528015610808578160200160208202803683370190505b50905060005b60d1548110156108ce57600081815260d260209081526040918290205482516318160ddd60e01b815292516001600160a01b03909116926318160ddd926004808301939192829003018186803b15801561086757600080fd5b505afa15801561087b573d6000803e3d6000fd5b505050506040513d601f19601f8201168201806040525081019061089f919061258d565b8282815181106108b1576108b16125ca565b6020908102919091010152806108c6816125f6565b91505061080e565b5090919293565b6108f960405180606001604052806000815260200160008152602001606081525090565b61063a826114fb565b600080516020612d1283398151915261091a8161170f565b60405163a9059cbb60e01b81526001600160a01b0384811660048301526024820184905285169063a9059cbb90604401602060405180830381600087803b15801561096457600080fd5b505af1158015610978573d6000803e3d6000fd5b505050506040513d601f19601f8201168201806040525081019061099c9190612626565b5050505050565b60ce54604051635c12cd4b60e01b81526001600160a01b0383811660048301526000928392911690635c12cd4b9060240160006040518083038186803b1580156109ec57600080fd5b505afa158015610a00573d6000803e3d6000fd5b505050506040513d6000823e601f3d908101601f19168201604052610a2891908101906126b2565b602001519392505050565b600082815260656020526040902060010154610a4e8161170f565b610a588383611719565b505050565b6001600160a01b0381163314610a7257600080fd5b610a7c828261179f565b5050565b600080516020612d12833981519152610a988161170f565b5060c980546001600160a81b0319169055565b600080516020612d12833981519152610ac38161170f565b610acb611806565b50565b604080518082019091526000808252602082015261063a82611858565b60cf5460405163618f4cdb60e11b81526060916001600160a01b03169063c31e99b690610b1c90859060040161276c565b60006040518083038186803b158015610b3457600080fd5b505afa158015610b48573d6000803e3d6000fd5b505050506040513d6000823e601f3d908101601f1916820160405261063a91908101906127e2565b60cf546040516318a1d6e160e21b81526001600160a01b03838116600483015260609216906362875b8490602401610b1c565b610bc760405180606001604052806000815260200160008152602001606081525090565b6040805180820190915260008082526020820152610be4836114fb565b610bed84611858565b91509150915091565b600080516020612d12833981519152610c0e8161170f565b5060d155565b600080516020612d12833981519152610c2c8161170f565b610acb611986565b60009182526065602090815260408084206001600160a01b0393909316845291905290205460ff1690565b600054610100900460ff1615808015610c7f5750600054600160ff909116105b80610c995750303b158015610c99575060005460ff166001145b610ca257600080fd5b6000805460ff191660011790558015610cc5576000805461ff0019166101001790555b610ccd6119c3565b610cd56119d9565b610ce06000846119f5565b610cf8600080516020612d12833981519152846119f5565b610d227f73e573f9566d61418a34d5de3ff49360f9c51fec37f7486551670290f6285dab846119f5565b610d2b82610d75565b8015610a58576000805461ff0019169055604051600181527f7f26b83ff96e1f2b6a682f133852f6798a09c465da95921460cefb38474024989060200160405180910390a1505050565b600080516020612d12833981519152610d8d8161170f565b5060c980546001600160a81b0319166001600160a01b0390921691909117600160a01b179055565b6060600060d1546001600160401b03811115610dd357610dd3611e2c565b604051908082528060200260200182016040528015610dfc578160200160208202803683370190505b50905060005b60d154811015610e6557600081815260d2602052604090205482516001600160a01b0390911690839083908110610e3b57610e3b6125ca565b6001600160a01b039092166020928302919091019091015280610e5d816125f6565b915050610e02565b50919050565b600080516020612d12833981519152610e838161170f565b5060ca80546001600160a01b03199081166001600160a01b039889161790915560cb805482169688169690961790955560cc805486169387169390931790925560cd805485169386169390931790925560ce805484169585169590951790945560cf8054831691841691909117905560d0805490911692909116919091179055565b600082815260656020526040902060010154610f208161170f565b610a58838361179f565b610f7b6040518061010001604052806000815260200160008152602001600081526020016000815260200160006001600160a01b031681526020016000815260200160008152602001606081525090565b606080610fa260405180606001604052806000815260200160008152602001606081525090565b6000610fdd6040518060c001604052806000815260200160008152602001600081526020016000815260200160008152602001600081525090565b60ce54604051635c12cd4b60e01b81526001600160a01b038981166004830152606092600092839290911690635c12cd4b9060240160006040518083038186803b15801561102a57600080fd5b505afa15801561103e573d6000803e3d6000fd5b505050506040513d6000823e601f3d908101601f1916820160405261106691908101906126b2565b60ce54604051632de304bb60e11b81526001600160a01b038d81166004830152929b50911690635bc609769060240160006040518083038186803b1580156110ad57600080fd5b505afa1580156110c1573d6000803e3d6000fd5b505050506040513d6000823e601f3d908101601f191682016040526110e991908101906129b8565b60cf546040516318a1d6e160e21b81526001600160a01b038d81166004830152929a509116906362875b849060240160006040518083038186803b15801561113057600080fd5b505afa158015611144573d6000803e3d6000fd5b505050506040513d6000823e601f3d908101601f1916820160405261116c91908101906127e2565b96506111778a6114fb565b60cc546040516370a0823160e01b81526001600160a01b038d811660048301529298509116906370a082319060240160206040518083038186803b1580156111be57600080fd5b505afa1580156111d2573d6000803e3d6000fd5b505050506040513d601f19601f820116820180604052508101906111f6919061258d565b60d0546040516367bb9a1f60e11b81526001600160a01b038d8116600483015292975091169063cf77343e9060240160006040518083038186803b15801561123d57600080fd5b505afa158015611251573d6000803e3d6000fd5b505050506040513d6000823e601f3d908101601f191682016040526112799190810190612b5c565b60ca546040516370a0823160e01b81526001600160a01b038e8116600483015293975091955091909116906370a082319060240160206040518083038186803b1580156112c557600080fd5b505afa1580156112d9573d6000803e3d6000fd5b505050506040513d601f19601f820116820180604052508101906112fd919061258d565b60cb546040516370a0823160e01b81526001600160a01b038d811660048301529294509116906370a082319060240160206040518083038186803b15801561134457600080fd5b505afa158015611358573d6000803e3d6000fd5b505050506040513d601f19601f8201168201806040525081019061137c919061258d565b90509193959799909294969850565b600054610100900460ff16158080156113ab5750600054600160ff909116105b806113c55750303b1580156113c5575060005460ff166001145b6113ce57600080fd5b6000805460ff1916600117905580156113f1576000805461ff0019166101001790555b6113fb8a8a610c5f565b6040805160e0810182526001600160a01b03808b168083528a8216602084018190528a8316948401859052898316606085018190528984166080860181905289851660a0870181905294891660c090960186905260ca80546001600160a01b0319908116909517905560cb8054851690931790925560cc8054841690961790955560cd8054831690951790945560ce8054821690941790935560cf80548416909117905560d0805490921617905580156114ef576000805461ff0019169055604051600181527f7f26b83ff96e1f2b6a682f133852f6798a09c465da95921460cefb38474024989060200160405180910390a15b50505050505050505050565b61151f60405180606001604052806000815260200160008152602001606081525090565b60ce54604051635c12cd4b60e01b81526001600160a01b0384811660048301526000921690635c12cd4b9060240160006040518083038186803b15801561156557600080fd5b505afa158015611579573d6000803e3d6000fd5b505050506040513d6000823e601f3d908101601f191682016040526115a191908101906126b2565b60ce54604051636392a51f60e01b81526001600160a01b03868116600483015292935060009290911690636392a51f9060240160006040518083038186803b1580156115ec57600080fd5b505afa158015611600573d6000803e3d6000fd5b505050506040513d6000823e601f3d908101601f191682016040526116289190810190612bf0565b905060606001825111156116ea57600182516116449190612c24565b6001600160401b0381111561165b5761165b611e2c565b604051908082528060200260200182016040528015611684578160200160208202803683370190505b50905060015b82518110156116e8578281815181106116a5576116a56125ca565b6020026020010151826001836116bb9190612c24565b815181106116cb576116cb6125ca565b6020908102919091010152806116e0816125f6565b91505061168a565b505b6040805160608101825284518152602094850151948101949094528301525092915050565b610acb81336119ff565b6117238282610c34565b610a7c5760008281526065602090815260408083206001600160a01b03851684529091529020805460ff1916600117905561175b3390565b6001600160a01b0316816001600160a01b0316837f2f8788117e7eff1d82e926ec794901d17c78024a50270940304540a733656f0d60405160405180910390a45050565b6117a98282610c34565b15610a7c5760008281526065602090815260408083206001600160a01b0385168085529252808320805460ff1916905551339285917ff6391f5c32d9c69d2a47ea670b442974b53935d1edc7fd64eb21e047a839171b9190a45050565b61180e611a61565b6097805460ff191690557f5db9ee0a495bf2e6ff9c91a7834c1ba4fdd244a5e8aa4e537bd38aeae4b073aa335b6040516001600160a01b03909116815260200160405180910390a1565b604080518082019091526000808252602082015260ca546040516370a0823160e01b81526001600160a01b03848116600483015260009216906370a082319060240160206040518083038186803b1580156118b257600080fd5b505afa1580156118c6573d6000803e3d6000fd5b505050506040513d601f19601f820116820180604052508101906118ea919061258d565b60cb546040516370a0823160e01b81526001600160a01b038681166004830152929350600092909116906370a082319060240160206040518083038186803b15801561193557600080fd5b505afa158015611949573d6000803e3d6000fd5b505050506040513d601f19601f8201168201806040525081019061196d919061258d565b6040805180820190915292835260208301525092915050565b61198e611aaa565b6097805460ff191660011790557f62e78cea01bee320cd4e420270b5ea74000d11b0c9f74754ebdbfc544b05a25861183b3390565b600054610100900460ff166119d757600080fd5b565b600054610100900460ff166119ed57600080fd5b6119d7611af0565b610a7c8282611719565b611a098282610c34565b610a7c57611a1681611b10565b611a21836020611b22565b604051602001611a32929190612c3b565b60408051601f198184030181529082905262461bcd60e51b8252611a5891600401612cb0565b60405180910390fd5b60975460ff166119d75760405162461bcd60e51b815260206004820152601460248201527314185d5cd8589b194e881b9bdd081c185d5cd95960621b6044820152606401611a58565b60975460ff16156119d75760405162461bcd60e51b815260206004820152601060248201526f14185d5cd8589b194e881c185d5cd95960821b6044820152606401611a58565b600054610100900460ff16611b0457600080fd5b6097805460ff19169055565b606061063a6001600160a01b03831660145b60606000611b31836002612cc3565b611b3c906002612ce2565b6001600160401b03811115611b5357611b53611e2c565b6040519080825280601f01601f191660200182016040528015611b7d576020820181803683370190505b509050600360fc1b81600081518110611b9857611b986125ca565b60200101906001600160f81b031916908160001a905350600f60fb1b81600181518110611bc757611bc76125ca565b60200101906001600160f81b031916908160001a9053506000611beb846002612cc3565b611bf6906001612ce2565b90505b6001811115611c6e576f181899199a1a9b1b9c1cb0b131b232b360811b85600f1660108110611c2a57611c2a6125ca565b1a60f81b828281518110611c4057611c406125ca565b60200101906001600160f81b031916908160001a90535060049490941c93611c6781612cfa565b9050611bf9565b508315611c7a57600080fd5b9392505050565b600060208284031215611c9357600080fd5b81356001600160e01b031981168114611c7a57600080fd5b600081518084526020808501945080840160005b83811015611cdb57815187529582019590820190600101611cbf565b509495945050505050565b848152836020820152826040820152608060608201526000611d0b6080830184611cab565b9695505050505050565b6001600160a01b0381168114610acb57600080fd5b600060208284031215611d3c57600080fd5b8135611c7a81611d15565b80518252602081015160208301526000604082015160606040850152611d706060850182611cab565b949350505050565b602081526000611c7a6020830184611d47565b600080600060608486031215611da057600080fd5b8335611dab81611d15565b92506020840135611dbb81611d15565b929592945050506040919091013590565b600060208284031215611dde57600080fd5b5035919050565b60008060408385031215611df857600080fd5b823591506020830135611e0a81611d15565b809150509250929050565b81518152602080830151908201526040810161063a565b634e487b7160e01b600052604160045260246000fd5b60405161010081016001600160401b0381118282101715611e6557611e65611e2c565b60405290565b60405161018081016001600160401b0381118282101715611e6557611e65611e2c565b6040516101c081016001600160401b0381118282101715611e6557611e65611e2c565b60405160c081016001600160401b0381118282101715611e6557611e65611e2c565b604051601f8201601f191681016001600160401b0381118282101715611efb57611efb611e2c565b604052919050565b60006001600160401b03821115611f1c57611f1c611e2c565b5060051b60200190565b60006020808385031215611f3957600080fd5b82356001600160401b03811115611f4f57600080fd5b8301601f81018513611f6057600080fd5b8035611f73611f6e82611f03565b611ed3565b81815260059190911b82018301908381019087831115611f9257600080fd5b928401925b82841015611fb057833582529284019290840190611f97565b979650505050505050565b60005b83811015611fd6578181015183820152602001611fbe565b83811115611fe5576000848401525b50505050565b60008151808452612003816020860160208601611fbb565b601f01601f19169290920160200192915050565b600081518084526020808501808196508360051b8101915082860160005b8581101561214057828403895281516101808151865286820151818888015261206082880182611feb565b9150506040808301518783038289015261207a8382611feb565b92505050606080830151612098828901826001600160a01b03169052565b50506080828101519087015260a0808301519087015260c0808301519087015260e0808301519087015261010080830151878303828901526120da8382611cab565b9250505061012080830151878303828901526120f68382611cab565b9250505061014080830151878303828901526121128382611cab565b9250505061016080830151925061212c8188018415159052565b509986019994505090840190600101612035565b5091979650505050505050565b602081526000611c7a6020830184612017565b6060815260006121736060830185611d47565b9050611c7a602083018480518252602090810151910152565b6000806040838503121561219f57600080fd5b82356121aa81611d15565b91506020830135611e0a81611d15565b6020808252825182820181905260009190848201906040850190845b818110156121fb5783516001600160a01b0316835292840192918401916001016121d6565b50909695505050505050565b600080600080600080600060e0888a03121561222257600080fd5b873561222d81611d15565b9650602088013561223d81611d15565b9550604088013561224d81611d15565b9450606088013561225d81611d15565b9350608088013561226d81611d15565b925060a088013561227d81611d15565b915060c088013561228d81611d15565b8091505092959891949750929550565b600081518084526020808501808196508360051b8101915082860160005b85811015612140578284038952815180516001600160a01b031685526101c0818701518688015260408083015190870152606080830151908701526080808301519087015260a0808301519087015260c0808301519087015260e080830151908701526101008083015190870152610120808301519087015261014080830151908701526101608083015181880183905261235883890182611cab565b9250505061018080830151878303828901526123748382611cab565b925050506101a080830151925086820381880152506123938183611cab565b9a87019a95505050908401906001016122bb565b6101c08082528a519082015260208a01516101e082015260408a015161020082015260608a015161022082015260808a01516001600160a01b031661024082015260a08a015161026082015260c08a015161028082015260e08a01516101006102a083015260009061241d6102c0840182611cab565b90508281036020840152612431818c61229d565b90508281036040840152612445818b612017565b90508281036060840152612459818a611d47565b90508760808401526124a360a0840188805182526020810151602083015260408101516040830152606081015160608301526080810151608083015260a081015160a08301525050565b8281036101608401526124b68187611cab565b61018084019590955250506101a00152979650505050505050565b60008060008060008060008060006101208a8c0312156124f057600080fd5b89356124fb81611d15565b985060208a013561250b81611d15565b975060408a013561251b81611d15565b965060608a013561252b81611d15565b955060808a013561253b81611d15565b945060a08a013561254b81611d15565b935060c08a013561255b81611d15565b925060e08a013561256b81611d15565b91506101008a013561257c81611d15565b809150509295985092959850929598565b60006020828403121561259f57600080fd5b5051919050565b600080604083850312156125b957600080fd5b505080516020909101519092909150565b634e487b7160e01b600052603260045260246000fd5b634e487b7160e01b600052601160045260246000fd5b600060001982141561260a5761260a6125e0565b5060010190565b8051801515811461262157600080fd5b919050565b60006020828403121561263857600080fd5b611c7a82612611565b805161262181611d15565b600082601f83011261265d57600080fd5b8151602061266d611f6e83611f03565b82815260059290921b8401810191818101908684111561268c57600080fd5b8286015b848110156126a75780518352918301918301612690565b509695505050505050565b6000602082840312156126c457600080fd5b81516001600160401b03808211156126db57600080fd5b9083019061010082860312156126f057600080fd5b6126f8611e42565b8251815260208301516020820152604083015160408201526060830151606082015261272660808401612641565b608082015260a083015160a082015260c083015160c082015260e08301518281111561275157600080fd5b61275d8782860161264c565b60e08301525095945050505050565b602081526000611c7a6020830184611cab565b600082601f83011261279057600080fd5b81516001600160401b038111156127a9576127a9611e2c565b6127bc601f8201601f1916602001611ed3565b8181528460208386010111156127d157600080fd5b611d70826020830160208701611fbb565b600060208083850312156127f557600080fd5b82516001600160401b038082111561280c57600080fd5b818501915085601f83011261282057600080fd5b815161282e611f6e82611f03565b81815260059190911b8301840190848101908883111561284d57600080fd5b8585015b838110156129ab5780518581111561286857600080fd5b8601610180818c03601f1901121561287f57600080fd5b612887611e6b565b88820151815260408201518781111561289f57600080fd5b6128ad8d8b8386010161277f565b8a830152506060820151878111156128c457600080fd5b6128d28d8b8386010161277f565b6040830152506128e460808301612641565b606082015260a0820151608082015260c082015160a082015260e082015160c08201526101008083015160e0830152610120808401518981111561292757600080fd5b6129358f8d8388010161264c565b83850152506101409150818401518981111561295057600080fd5b61295e8f8d8388010161264c565b828501525050610160808401518981111561297857600080fd5b6129868f8d8388010161264c565b83850152506129986101808501612611565b9083015250845250918601918601612851565b5098975050505050505050565b600060208083850312156129cb57600080fd5b82516001600160401b03808211156129e257600080fd5b818501915085601f8301126129f657600080fd5b8151612a04611f6e82611f03565b81815260059190911b83018401908481019088831115612a2357600080fd5b8585015b838110156129ab57805185811115612a3e57600080fd5b86016101c0818c03601f19011215612a5557600080fd5b612a5d611e8e565b612a68898301612641565b8152604082015189820152606082015160408201526080820151606082015260a0820151608082015260c082015160a082015260e082015160c08201526101008083015160e083015261012080840151828401526101409150818401518184015250610160808401518284015261018091508184015189811115612aeb57600080fd5b612af98f8d8388010161264c565b8285015250506101a08084015189811115612b1357600080fd5b612b218f8d8388010161264c565b83850152506101c0840151915088821115612b3b57600080fd5b612b498e8c8487010161264c565b9083015250845250918601918601612a27565b60008082840360e0811215612b7057600080fd5b60c0811215612b7e57600080fd5b50612b87611eb1565b835181526020840151602082015260408401516040820152606084015160608201526080840151608082015260a084015160a08201528092505060c08301516001600160401b03811115612bda57600080fd5b612be68582860161264c565b9150509250929050565b600060208284031215612c0257600080fd5b81516001600160401b03811115612c1857600080fd5b611d708482850161264c565b600082821015612c3657612c366125e0565b500390565b7f416363657373436f6e74726f6c3a206163636f756e7420000000000000000000815260008351612c73816017850160208801611fbb565b7001034b99036b4b9b9b4b733903937b6329607d1b6017918401918201528351612ca4816028840160208801611fbb565b01602801949350505050565b602081526000611c7a6020830184611feb565b6000816000190483118215151615612cdd57612cdd6125e0565b500290565b60008219821115612cf557612cf56125e0565b500190565b600081612d0957612d096125e0565b50600019019056fe97667070c54ef182b0f5858b034beac1b6f3089aa2d3188bb1e8929f4fa9b929a2646970667358221220174e8cf1e98732926fb368c36a5478f681f3a524bfab9dbdd956897f798d62d964736f6c63430008090033",
  "linkReferences": {},
  "deployedLinkReferences": {}
}