{
  "_format": "hh-sol-artifact-1",
  "contractName": "BkUpgrades",
  "sourceName": "contracts/features/BkUpgrades.sol",
  "abi": [
    {
      "anonymous": false,
      "inputs": [
        {
          "indexed": false,
          "internalType": "address",
          "name": "sender",
          "type": "address"
        },
        {
          "indexed": false,
          "internalType": "uint256",
          "name": "amount",
          "type": "uint256"
        },
        {
          "indexed": false,
          "internalType": "uint256",
          "name": "amountWithBonus",
          "type": "uint256"
        }
      ],
      "name": "Deposit",
      "type": "event"
    },
    {
      "anonymous": false,
      "inputs": [
        {
          "indexed": false,
          "internalType": "uint8",
          "name": "version",
          "type": "uint8"
        }
      ],
      "name": "Initialized",
      "type": "event"
    },
    {
      "anonymous": false,
      "inputs": [
        {
          "indexed": false,
          "internalType": "address",
          "name": "account",
          "type": "address"
        }
      ],
      "name": "Paused",
      "type": "event"
    },
    {
      "anonymous": false,
      "inputs": [
        {
          "indexed": false,
          "internalType": "uint256",
          "name": "nftId",
          "type": "uint256"
        },
        {
          "indexed": false,
          "internalType": "uint256",
          "name": "ranks",
          "type": "uint256"
        },
        {
          "indexed": false,
          "internalType": "address",
          "name": "owner",
          "type": "address"
        }
      ],
      "name": "RankUp",
      "type": "event"
    },
    {
      "anonymous": false,
      "inputs": [
        {
          "indexed": true,
          "internalType": "bytes32",
          "name": "role",
          "type": "bytes32"
        },
        {
          "indexed": true,
          "internalType": "bytes32",
          "name": "previousAdminRole",
          "type": "bytes32"
        },
        {
          "indexed": true,
          "internalType": "bytes32",
          "name": "newAdminRole",
          "type": "bytes32"
        }
      ],
      "name": "RoleAdminChanged",
      "type": "event"
    },
    {
      "anonymous": false,
      "inputs": [
        {
          "indexed": true,
          "internalType": "bytes32",
          "name": "role",
          "type": "bytes32"
        },
        {
          "indexed": true,
          "internalType": "address",
          "name": "account",
          "type": "address"
        },
        {
          "indexed": true,
          "internalType": "address",
          "name": "sender",
          "type": "address"
        }
      ],
      "name": "RoleGranted",
      "type": "event"
    },
    {
      "anonymous": false,
      "inputs": [
        {
          "indexed": true,
          "internalType": "bytes32",
          "name": "role",
          "type": "bytes32"
        },
        {
          "indexed": true,
          "internalType": "address",
          "name": "account",
          "type": "address"
        },
        {
          "indexed": true,
          "internalType": "address",
          "name": "sender",
          "type": "address"
        }
      ],
      "name": "RoleRevoked",
      "type": "event"
    },
    {
      "anonymous": false,
      "inputs": [
        {
          "indexed": false,
          "internalType": "address",
          "name": "account",
          "type": "address"
        }
      ],
      "name": "Unpaused",
      "type": "event"
    },
    {
      "inputs": [],
      "name": "DEFAULT_ADMIN_ROLE",
      "outputs": [
        {
          "internalType": "bytes32",
          "name": "",
          "type": "bytes32"
        }
      ],
      "stateMutability": "view",
      "type": "function"
    },
    {
      "inputs": [
        {
          "internalType": "address",
          "name": "_operator",
          "type": "address"
        },
        {
          "internalType": "address",
          "name": "_blocklistAddress",
          "type": "address"
        }
      ],
      "name": "__Administrable_init",
      "outputs": [],
      "stateMutability": "nonpayable",
      "type": "function"
    },
    {
      "inputs": [],
      "name": "autoReturnRate",
      "outputs": [
        {
          "internalType": "uint256",
          "name": "",
          "type": "uint256"
        }
      ],
      "stateMutability": "view",
      "type": "function"
    },
    {
      "inputs": [
        {
          "internalType": "uint256",
          "name": "bctAmount",
          "type": "uint256"
        }
      ],
      "name": "bctToStabletoken",
      "outputs": [
        {
          "internalType": "uint256",
          "name": "",
          "type": "uint256"
        }
      ],
      "stateMutability": "view",
      "type": "function"
    },
    {
      "inputs": [
        {
          "internalType": "uint256",
          "name": "nftId",
          "type": "uint256"
        },
        {
          "internalType": "uint256",
          "name": "levels",
          "type": "uint256"
        },
        {
          "internalType": "bool",
          "name": "withBusd",
          "type": "bool"
        }
      ],
      "name": "buyAgilityUp",
      "outputs": [],
      "stateMutability": "nonpayable",
      "type": "function"
    },
    {
      "inputs": [
        {
          "internalType": "uint256",
          "name": "squadId",
          "type": "uint256"
        },
        {
          "internalType": "bool",
          "name": "withBusd",
          "type": "bool"
        }
      ],
      "name": "buyExtraSlot",
      "outputs": [],
      "stateMutability": "nonpayable",
      "type": "function"
    },
    {
      "inputs": [
        {
          "internalType": "bool",
          "name": "withBusd",
          "type": "bool"
        }
      ],
      "name": "buyExtraSquad",
      "outputs": [],
      "stateMutability": "nonpayable",
      "type": "function"
    },
    {
      "inputs": [
        {
          "internalType": "uint256",
          "name": "nftId",
          "type": "uint256"
        }
      ],
      "name": "buyMaxOutRankAgility",
      "outputs": [],
      "stateMutability": "nonpayable",
      "type": "function"
    },
    {
      "inputs": [
        {
          "internalType": "uint256",
          "name": "nftId",
          "type": "uint256"
        },
        {
          "internalType": "uint256",
          "name": "ranks",
          "type": "uint256"
        }
      ],
      "name": "buyRankUp",
      "outputs": [],
      "stateMutability": "nonpayable",
      "type": "function"
    },
    {
      "inputs": [
        {
          "internalType": "uint256",
          "name": "nftId",
          "type": "uint256"
        },
        {
          "internalType": "uint256",
          "name": "skillIndex",
          "type": "uint256"
        },
        {
          "internalType": "uint256",
          "name": "levels",
          "type": "uint256"
        },
        {
          "internalType": "bool",
          "name": "withBusd",
          "type": "bool"
        }
      ],
      "name": "buySkillLevel",
      "outputs": [],
      "stateMutability": "nonpayable",
      "type": "function"
    },
    {
      "inputs": [],
      "name": "config",
      "outputs": [
        {
          "internalType": "uint256",
          "name": "autoReturnRate",
          "type": "uint256"
        },
        {
          "internalType": "uint256",
          "name": "cooldownInBlocks",
          "type": "uint256"
        },
        {
          "internalType": "uint256",
          "name": "depositBonus",
          "type": "uint256"
        },
        {
          "internalType": "uint256",
          "name": "rankUpPrice",
          "type": "uint256"
        },
        {
          "internalType": "uint256",
          "name": "agilityUpPrice",
          "type": "uint256"
        },
        {
          "internalType": "uint256",
          "name": "extraSquadPrice",
          "type": "uint256"
        },
        {
          "internalType": "uint256",
          "name": "mentorPrice",
          "type": "uint256"
        },
        {
          "internalType": "uint256",
          "name": "merchantPrice",
          "type": "uint256"
        },
        {
          "internalType": "uint256",
          "name": "skillPrice",
          "type": "uint256"
        },
        {
          "internalType": "uint256",
          "name": "ritualPrice",
          "type": "uint256"
        },
        {
          "internalType": "uint256",
          "name": "maxIntegrationType",
          "type": "uint256"
        }
      ],
      "stateMutability": "view",
      "type": "function"
    },
    {
      "inputs": [],
      "name": "contracts",
      "outputs": [
        {
          "internalType": "contract IBkFarm",
          "name": "farm",
          "type": "address"
        },
        {
          "internalType": "contract IBkNft",
          "name": "nft",
          "type": "address"
        },
        {
          "internalType": "contract IBkStasher",
          "name": "stasher",
          "type": "address"
        }
      ],
      "stateMutability": "view",
      "type": "function"
    },
    {
      "inputs": [
        {
          "internalType": "uint256",
          "name": "amount",
          "type": "uint256"
        }
      ],
      "name": "deposit",
      "outputs": [],
      "stateMutability": "nonpayable",
      "type": "function"
    },
    {
      "inputs": [
        {
          "internalType": "uint256",
          "name": "nftId",
          "type": "uint256"
        },
        {
          "internalType": "uint256",
          "name": "traitToExtract",
          "type": "uint256"
        },
        {
          "internalType": "uint256",
          "name": "squadToGetTrait",
          "type": "uint256"
        },
        {
          "internalType": "bool",
          "name": "withBusd",
          "type": "bool"
        }
      ],
      "name": "extractTrait",
      "outputs": [],
      "stateMutability": "nonpayable",
      "type": "function"
    },
    {
      "inputs": [
        {
          "internalType": "uint256",
          "name": "species",
          "type": "uint256"
        },
        {
          "internalType": "uint256",
          "name": "rarity",
          "type": "uint256"
        },
        {
          "internalType": "uint256",
          "name": "currentAgility",
          "type": "uint256"
        },
        {
          "internalType": "uint256",
          "name": "levels",
          "type": "uint256"
        }
      ],
      "name": "getAgilityUpPrices",
      "outputs": [
        {
          "internalType": "uint256",
          "name": "bct",
          "type": "uint256"
        },
        {
          "internalType": "uint256",
          "name": "resourceCents",
          "type": "uint256"
        }
      ],
      "stateMutability": "view",
      "type": "function"
    },
    {
      "inputs": [
        {
          "internalType": "uint256",
          "name": "currentSize",
          "type": "uint256"
        },
        {
          "internalType": "uint256",
          "name": "squadBonus",
          "type": "uint256"
        }
      ],
      "name": "getExtraSlotPrices",
      "outputs": [
        {
          "internalType": "uint256",
          "name": "bct",
          "type": "uint256"
        },
        {
          "internalType": "uint256",
          "name": "resourceCents",
          "type": "uint256"
        }
      ],
      "stateMutability": "view",
      "type": "function"
    },
    {
      "inputs": [
        {
          "internalType": "uint256",
          "name": "currentSquads",
          "type": "uint256"
        }
      ],
      "name": "getExtraSquadPrices",
      "outputs": [
        {
          "internalType": "uint256",
          "name": "bct",
          "type": "uint256"
        },
        {
          "internalType": "uint256",
          "name": "resourceCents",
          "type": "uint256"
        }
      ],
      "stateMutability": "view",
      "type": "function"
    },
    {
      "inputs": [
        {
          "internalType": "uint256",
          "name": "species",
          "type": "uint256"
        },
        {
          "internalType": "uint256",
          "name": "rarity",
          "type": "uint256"
        },
        {
          "internalType": "uint256",
          "name": "currentRank",
          "type": "uint256"
        },
        {
          "internalType": "uint256",
          "name": "currentAgility",
          "type": "uint256"
        }
      ],
      "name": "getMaxOutRankAgilityPrices",
      "outputs": [
        {
          "internalType": "uint256",
          "name": "bct",
          "type": "uint256"
        },
        {
          "internalType": "uint256",
          "name": "resourceCents",
          "type": "uint256"
        }
      ],
      "stateMutability": "view",
      "type": "function"
    },
    {
      "inputs": [
        {
          "internalType": "uint256",
          "name": "species",
          "type": "uint256"
        },
        {
          "internalType": "uint256",
          "name": "rarity",
          "type": "uint256"
        }
      ],
      "name": "getRankUpPrices",
      "outputs": [
        {
          "internalType": "uint256",
          "name": "bct",
          "type": "uint256"
        },
        {
          "internalType": "uint256",
          "name": "resourceCents",
          "type": "uint256"
        }
      ],
      "stateMutability": "view",
      "type": "function"
    },
    {
      "inputs": [
        {
          "internalType": "bytes32",
          "name": "role",
          "type": "bytes32"
        }
      ],
      "name": "getRoleAdmin",
      "outputs": [
        {
          "internalType": "bytes32",
          "name": "",
          "type": "bytes32"
        }
      ],
      "stateMutability": "view",
      "type": "function"
    },
    {
      "inputs": [
        {
          "internalType": "uint256",
          "name": "rarity",
          "type": "uint256"
        },
        {
          "internalType": "uint256",
          "name": "weight",
          "type": "uint256"
        },
        {
          "internalType": "uint256",
          "name": "levels",
          "type": "uint256"
        }
      ],
      "name": "getSkillLevelPrices",
      "outputs": [
        {
          "internalType": "uint256",
          "name": "bct",
          "type": "uint256"
        },
        {
          "internalType": "uint256",
          "name": "resourceCents",
          "type": "uint256"
        }
      ],
      "stateMutability": "view",
      "type": "function"
    },
    {
      "inputs": [
        {
          "internalType": "bytes32",
          "name": "role",
          "type": "bytes32"
        },
        {
          "internalType": "address",
          "name": "account",
          "type": "address"
        }
      ],
      "name": "grantRole",
      "outputs": [],
      "stateMutability": "nonpayable",
      "type": "function"
    },
    {
      "inputs": [],
      "name": "hasBlocklist",
      "outputs": [
        {
          "internalType": "bool",
          "name": "",
          "type": "bool"
        }
      ],
      "stateMutability": "view",
      "type": "function"
    },
    {
      "inputs": [
        {
          "internalType": "bytes32",
          "name": "role",
          "type": "bytes32"
        },
        {
          "internalType": "address",
          "name": "account",
          "type": "address"
        }
      ],
      "name": "hasRole",
      "outputs": [
        {
          "internalType": "bool",
          "name": "",
          "type": "bool"
        }
      ],
      "stateMutability": "view",
      "type": "function"
    },
    {
      "inputs": [
        {
          "internalType": "address",
          "name": "_operator",
          "type": "address"
        },
        {
          "internalType": "address",
          "name": "_blocklist",
          "type": "address"
        }
      ],
      "name": "initialize",
      "outputs": [],
      "stateMutability": "nonpayable",
      "type": "function"
    },
    {
      "inputs": [],
      "name": "pause",
      "outputs": [],
      "stateMutability": "nonpayable",
      "type": "function"
    },
    {
      "inputs": [],
      "name": "paused",
      "outputs": [
        {
          "internalType": "bool",
          "name": "",
          "type": "bool"
        }
      ],
      "stateMutability": "view",
      "type": "function"
    },
    {
      "inputs": [],
      "name": "paymentContracts",
      "outputs": [
        {
          "internalType": "contract IBkERC20",
          "name": "bct",
          "type": "address"
        },
        {
          "internalType": "contract IBkERC20",
          "name": "busd",
          "type": "address"
        },
        {
          "internalType": "contract ICommunityPool",
          "name": "pool",
          "type": "address"
        },
        {
          "internalType": "contract IBkFarm",
          "name": "farm",
          "type": "address"
        }
      ],
      "stateMutability": "view",
      "type": "function"
    },
    {
      "inputs": [
        {
          "internalType": "address",
          "name": "tokenAddress",
          "type": "address"
        },
        {
          "internalType": "address",
          "name": "to",
          "type": "address"
        },
        {
          "internalType": "uint256",
          "name": "amount",
          "type": "uint256"
        }
      ],
      "name": "recoverERC20",
      "outputs": [],
      "stateMutability": "nonpayable",
      "type": "function"
    },
    {
      "inputs": [
        {
          "internalType": "bytes32",
          "name": "role",
          "type": "bytes32"
        },
        {
          "internalType": "address",
          "name": "account",
          "type": "address"
        }
      ],
      "name": "renounceRole",
      "outputs": [],
      "stateMutability": "nonpayable",
      "type": "function"
    },
    {
      "inputs": [],
      "name": "resetBlocklist",
      "outputs": [],
      "stateMutability": "nonpayable",
      "type": "function"
    },
    {
      "inputs": [
        {
          "internalType": "uint256",
          "name": "",
          "type": "uint256"
        }
      ],
      "name": "resources",
      "outputs": [
        {
          "internalType": "address",
          "name": "",
          "type": "address"
        }
      ],
      "stateMutability": "view",
      "type": "function"
    },
    {
      "inputs": [],
      "name": "resourcesCount",
      "outputs": [
        {
          "internalType": "uint256",
          "name": "",
          "type": "uint256"
        }
      ],
      "stateMutability": "view",
      "type": "function"
    },
    {
      "inputs": [
        {
          "internalType": "bytes32",
          "name": "role",
          "type": "bytes32"
        },
        {
          "internalType": "address",
          "name": "account",
          "type": "address"
        }
      ],
      "name": "revokeRole",
      "outputs": [],
      "stateMutability": "nonpayable",
      "type": "function"
    },
    {
      "inputs": [],
      "name": "scale",
      "outputs": [
        {
          "internalType": "uint256",
          "name": "",
          "type": "uint256"
        }
      ],
      "stateMutability": "view",
      "type": "function"
    },
    {
      "inputs": [
        {
          "internalType": "uint256",
          "name": "_autoReturnRate",
          "type": "uint256"
        }
      ],
      "name": "setAutoReturnRate",
      "outputs": [],
      "stateMutability": "nonpayable",
      "type": "function"
    },
    {
      "inputs": [
        {
          "internalType": "address",
          "name": "blocklistAddress",
          "type": "address"
        }
      ],
      "name": "setBlocklist",
      "outputs": [],
      "stateMutability": "nonpayable",
      "type": "function"
    },
    {
      "inputs": [
        {
          "components": [
            {
              "internalType": "uint256",
              "name": "autoReturnRate",
              "type": "uint256"
            },
            {
              "internalType": "uint256",
              "name": "cooldownInBlocks",
              "type": "uint256"
            },
            {
              "internalType": "uint256",
              "name": "depositBonus",
              "type": "uint256"
            },
            {
              "internalType": "uint256",
              "name": "rankUpPrice",
              "type": "uint256"
            },
            {
              "internalType": "uint256",
              "name": "agilityUpPrice",
              "type": "uint256"
            },
            {
              "internalType": "uint256",
              "name": "extraSquadPrice",
              "type": "uint256"
            },
            {
              "internalType": "uint256",
              "name": "mentorPrice",
              "type": "uint256"
            },
            {
              "internalType": "uint256",
              "name": "merchantPrice",
              "type": "uint256"
            },
            {
              "internalType": "uint256",
              "name": "skillPrice",
              "type": "uint256"
            },
            {
              "internalType": "uint256",
              "name": "ritualPrice",
              "type": "uint256"
            },
            {
              "internalType": "uint256",
              "name": "maxIntegrationType",
              "type": "uint256"
            }
          ],
          "internalType": "struct BkUpgrades.Config",
          "name": "_config",
          "type": "tuple"
        }
      ],
      "name": "setConfig",
      "outputs": [],
      "stateMutability": "nonpayable",
      "type": "function"
    },
    {
      "inputs": [
        {
          "internalType": "address",
          "name": "_farm",
          "type": "address"
        },
        {
          "internalType": "address",
          "name": "_nft",
          "type": "address"
        },
        {
          "internalType": "address",
          "name": "_stasher",
          "type": "address"
        }
      ],
      "name": "setContracts",
      "outputs": [],
      "stateMutability": "nonpayable",
      "type": "function"
    },
    {
      "inputs": [
        {
          "internalType": "uint256",
          "name": "_scale",
          "type": "uint256"
        }
      ],
      "name": "setScale",
      "outputs": [],
      "stateMutability": "nonpayable",
      "type": "function"
    },
    {
      "inputs": [
        {
          "internalType": "uint256",
          "name": "squadId",
          "type": "uint256"
        },
        {
          "internalType": "uint256",
          "name": "newType",
          "type": "uint256"
        }
      ],
      "name": "setSquadType",
      "outputs": [],
      "stateMutability": "nonpayable",
      "type": "function"
    },
    {
      "inputs": [
        {
          "internalType": "address",
          "name": "_bct",
          "type": "address"
        },
        {
          "internalType": "address",
          "name": "_busd",
          "type": "address"
        },
        {
          "internalType": "address",
          "name": "_pool",
          "type": "address"
        },
        {
          "internalType": "address",
          "name": "_farm",
          "type": "address"
        },
        {
          "internalType": "address",
          "name": "_resourcesSource",
          "type": "address"
        },
        {
          "internalType": "uint256",
          "name": "_autoReturnRate",
          "type": "uint256"
        }
      ],
      "name": "setupPaymentModule",
      "outputs": [],
      "stateMutability": "nonpayable",
      "type": "function"
    },
    {
      "inputs": [
        {
          "internalType": "uint256",
          "name": "busdAmount",
          "type": "uint256"
        }
      ],
      "name": "stabletokenToBct",
      "outputs": [
        {
          "internalType": "uint256",
          "name": "",
          "type": "uint256"
        }
      ],
      "stateMutability": "view",
      "type": "function"
    },
    {
      "inputs": [
        {
          "internalType": "bytes4",
          "name": "interfaceId",
          "type": "bytes4"
        }
      ],
      "name": "supportsInterface",
      "outputs": [
        {
          "internalType": "bool",
          "name": "",
          "type": "bool"
        }
      ],
      "stateMutability": "view",
      "type": "function"
    },
    {
      "inputs": [],
      "name": "unpause",
      "outputs": [],
      "stateMutability": "nonpayable",
      "type": "function"
    },
    {
      "inputs": [
        {
          "internalType": "address",
          "name": "sourceContract",
          "type": "address"
        }
      ],
      "name": "updateResources",
      "outputs": [],
      "stateMutability": "nonpayable",
      "type": "function"
    }
  ],
  "bytecode": "0x608060405234801561001057600080fd5b50614318806100206000396000f3fe608060405234801561001057600080fd5b506004361061028a5760003560e01c80638456cb591161015c578063be505d08116100ce578063d547741f11610087578063d547741f146106a7578063da73d69c146106ba578063dd18f91b146106cd578063e1f3c3d4146106e0578063f4b93f45146106f3578063f51e181a1461070657600080fd5b8063be505d081461063f578063c3c87d5314610652578063c429d34914610665578063c53225761461066e578063cf3da80414610681578063cfe5aa281461069457600080fd5b8063a217fddf11610120578063a217fddf146105d8578063a75faf5d146105e0578063aef18ae7146105f3578063b3066d4914610606578063b5f63f6014610619578063b6b55f251461062c57600080fd5b80638456cb5914610584578063858768351461058c5780638c0dd9c51461059f57806391d14854146105b2578063931da89b146105c557600080fd5b80633edc351911610200578063634210f4116101b9578063634210f4146104685780636721a4df1461047c5780636c0f79b61461048f57806376a8612f146104d957806379502c55146104ec5780637cf295511461057157600080fd5b80633edc3519146104135780633f4ba83a1461042657806341e80ad91461042e578063485cc9551461044157806351ac7b8c146104545780635c975abb1461045d57600080fd5b80632f467f4e116102525780632f467f4e14610351578063323b6cb71461037957806336568abe146103d257806338d4588d146103e55780633c5b364c146103f85780633c7fd8221461040b57600080fd5b806301ffc9a71461028f5780631171bda9146102b7578063244d6daa146102cc578063248a9ca31461030d5780632f2ff15d1461033e575b600080fd5b6102a261029d3660046135ad565b61070f565b60405190151581526020015b60405180910390f35b6102ca6102c53660046135ec565b610746565b005b6102f56102da36600461362d565b6001602052600090815260409020546001600160a01b031681565b6040516001600160a01b0390911681526020016102ae565b61033061031b36600461362d565b6000908152606c602052604090206001015490565b6040519081526020016102ae565b6102ca61034c366004613646565b6107e7565b61036461035f36600461362d565b610811565b604080519283526020830191909152016102ae565b60025460035460045460055461039f936001600160a01b03908116938116928116911684565b604080516001600160a01b03958616815293851660208501529184169183019190915290911660608201526080016102ae565b6102ca6103e0366004613646565b6108ac565b6102ca6103f3366004613684565b6108cf565b6102ca6104063660046136bd565b610b2c565b6102ca610e9c565b6102ca61042136600461362d565b610ec7565b6102ca610ee5565b61033061043c36600461362d565b610f08565b6102ca61044f3660046136da565b610f88565b61033060005481565b609e5460ff166102a2565b60d0546102a290600160a01b900460ff1681565b61036461048a366004613708565b6110dc565b60dc5460dd5460de546104af926001600160a01b03908116928116911683565b604080516001600160a01b03948516815292841660208401529216918101919091526060016102ae565b6102ca6104e736600461372a565b6111b5565b60d15460d25460d35460d45460d55460d65460d75460d85460d95460da5460db5461051e9a999897969594939291908b565b604080519b8c5260208c019a909a52988a01979097526060890195909552608088019390935260a087019190915260c086015260e0850152610100840152610120830152610140820152610160016102ae565b6102ca61057f36600461376b565b61162d565b6102ca6117dd565b61036461059a366004613790565b6117fd565b6103646105ad366004613790565b61187e565b6102a26105c0366004613646565b611991565b6102ca6105d33660046136da565b6119bc565b610330600081565b6102ca6105ee36600461389a565b611aca565b6102ca61060136600461392d565b611b3c565b6102ca61061436600461394a565b611b7c565b61033061062736600461362d565b611bf1565b6102ca61063a36600461362d565b611c25565b6102ca61064d36600461372a565b612012565b6102ca61066036600461392d565b612435565b61033060065481565b6102ca61067c366004613708565b612456565b6102ca61068f36600461362d565b612705565b6102ca6106a236600461362d565b612976565b6102ca6106b5366004613646565b612994565b6102ca6106c8366004613708565b6129b9565b6103646106db36600461398a565b612b9e565b6103646106ee366004613708565b612c16565b6102ca6107013660046139b6565b612cb8565b61033060df5481565b60006001600160e01b03198216637965db0b60e01b148061074057506301ffc9a760e01b6001600160e01b03198316145b92915050565b6000805160206142c383398151915261075e81612cde565b60405163a9059cbb60e01b81526001600160a01b0384811660048301526024820184905285169063a9059cbb90604401602060405180830381600087803b1580156107a857600080fd5b505af11580156107bc573d6000803e3d6000fd5b505050506040513d601f19601f820116820180604052508101906107e09190613a3f565b5050505050565b6000828152606c602052604090206001015461080281612cde565b61080c8383612ce8565b505050565b60d65460009081908190610826600386613a72565b6108309190613a89565b90506000600385111561085857610848600486613a72565b61085390600c613a89565b61085b565b60005b90506002606460df5484670de0b6b3a76400006108789190613a89565b6108829190613a89565b61088c9190613abe565b6108969190613abe565b6108a1826064613a89565b935093505050915091565b6001600160a01b03811633146108c157600080fd5b6108cb8282612d6e565b5050565b6108d7612dd5565b60dd546040516341f63bfd60e01b8152600481018590526000916001600160a01b0316906341f63bfd9060240160006040518083038186803b15801561091c57600080fd5b505afa158015610930573d6000803e3d6000fd5b505050506040513d6000823e601f3d908101601f191682016040526109589190810190613c02565b60608101519091506001600160a01b0316331461097457600080fd5b60068361098083612e1d565b61098a9190613d5e565b1061099457600080fd5b600083116109a157600080fd5b6000806109c86109b084612e46565b6109b985612e60565b6109c286612e1d565b8861187e565b9150915060006109d784612e46565b6001600160401b038111156109ee576109ee6137c2565b604051908082528060200260200182016040528015610a17578160200160208202803683370190505b50905081816001610a2787612e46565b610a319190613a72565b81518110610a4157610a41613d76565b602002602001018181525050610a8383826040518060800160405280600115158152602001600015158152602001891515815260200160001515815250612e7a565b85610a8d85612e1d565b610a979190613d5e565b610100850151600381518110610aaf57610aaf613d76565b602090810291909101015260dd546101008501516040516332eaadb760e21b81526001600160a01b039092169163cbaab6dc91610af1918b9190600401613dc7565b600060405180830381600087803b158015610b0b57600080fd5b505af1158015610b1f573d6000803e3d6000fd5b5050505050505050505050565b610b34612dd5565b60dc54604051635c12cd4b60e01b81523360048201526000916001600160a01b031690635c12cd4b9060240160006040518083038186803b158015610b7857600080fd5b505afa158015610b8c573d6000803e3d6000fd5b505050506040513d6000823e601f3d908101601f19168201604052610bb49190810190613de0565b905060148160e001515110610bc857600080fd5b60de54604051635c138c9d60e01b81523360048201526000916001600160a01b031690635c138c9d9060240160206040518083038186803b158015610c0c57600080fd5b505afa158015610c20573d6000803e3d6000fd5b505050506040513d601f19601f82011682018060405250810190610c449190613e9a565b9050808260e0015151111580610c5b575060088110155b610c6457600080fd5b600080610c758460e0015151610811565b60408051600680825260e08201909252929450909250600091906020820160c0803683370190505090508181600581518110610cb357610cb3613d76565b602002602001018181525050610cf5838260405180608001604052806001151581526020016000151581526020018a1515815260200160001515815250612e7a565b60028560e00151516001610d099190613d5e565b610d139190613eb3565b15610da65760dc5460405163a06bd67960e01b81526001600160a01b039091169063a06bd67990610d4e903390600690600390600401613ec7565b602060405180830381600087803b158015610d6857600080fd5b505af1158015610d7c573d6000803e3d6000fd5b505050506040513d601f19601f82011682018060405250810190610da09190613e9a565b50610e94565b8460e001515160091480610dbf57508460e0015151600f145b80610dcf57508460e00151516013145b15610e0a5760dc5460405163a06bd67960e01b81526001600160a01b039091169063a06bd67990610d4e903390600290600390600401613ec7565b60dc5460405163a06bd67960e01b81526001600160a01b039091169063a06bd67990610e40903390600190600390600401613ec7565b602060405180830381600087803b158015610e5a57600080fd5b505af1158015610e6e573d6000803e3d6000fd5b505050506040513d601f19601f82011682018060405250810190610e929190613e9a565b505b505050505050565b6000805160206142c3833981519152610eb481612cde565b5060d080546001600160a81b0319169055565b6000805160206142c3833981519152610edf81612cde565b5060df55565b6000805160206142c3833981519152610efd81612cde565b610f05613116565b50565b60048054604051634ca1cccb60e11b81529182018390526000916001600160a01b03909116906399439996906024015b60206040518083038186803b158015610f5057600080fd5b505afa158015610f64573d6000803e3d6000fd5b505050506040513d601f19601f820116820180604052508101906107409190613e9a565b600754610100900460ff1615808015610fa85750600754600160ff909116105b80610fc25750303b158015610fc2575060075460ff166001145b610fcb57600080fd5b6007805460ff191660011790558015610fee576007805461ff0019166101001790555b610ff883836119bc565b6040805161016081018252606480825260208201819052600392820183905260026060830181905260056080840181905261138860a0850181905261022660c0860181905260e08601859052607d61010087018190526019610120880181905261014090970188905260d186905560d286905560d388905560d49490945560d59290925560d65560d75560d89190915560d95560da5560db55801561080c576007805461ff0019169055604051600181527f7f26b83ff96e1f2b6a682f133852f6798a09c465da95921460cefb3847402498906020015b60405180910390a1505050565b60008060008085600314156110f857506127109050600b611120565b856004141561110e5750613a9890506016611120565b856005141561112057506161a89050602c5b606461112c8682613d5e565b6111369084613a89565b6111409190613abe565b9150606461114e8682613d5e565b6111589083613a89565b6111629190613abe565b90506002606460df5484670de0b6b3a764000061117f9190613a89565b6111899190613a89565b6111939190613abe565b61119d9190613abe565b6111a8826064613a89565b9350935050509250929050565b6111bd612dd5565b60dd546040516341f63bfd60e01b8152600481018690526000916001600160a01b0316906341f63bfd9060240160006040518083038186803b15801561120257600080fd5b505afa158015611216573d6000803e3d6000fd5b505050506040513d6000823e601f3d908101601f1916820160405261123e9190810190613c02565b60608101519091506001600160a01b0316331461125a57600080fd5b60dd54604051630f2a280d60e21b8152600481018790526001600160a01b0390911690633ca8a0349060240160206040518083038186803b15801561129e57600080fd5b505afa1580156112b2573d6000803e3d6000fd5b505050506040513d601f19601f820116820180604052508101906112d69190613a3f565b1561130e5760405162461bcd60e51b81526020600482015260036024820152626f6e5160e81b60448201526064015b60405180910390fd5b600561131982612e46565b1161136857600384111561132c57600080fd5b600583826101400151868151811061134657611346613d76565b60200260200101516113589190613d5e565b111561136357600080fd5b6113e5565b600a61137382612e46565b116113a057600484111561138657600080fd5b600783826101400151868151811061134657611346613d76565b60058411156113ae57600080fd5b600a8382610140015186815181106113c8576113c8613d76565b60200260200101516113da9190613d5e565b11156113e557600080fd5b6000806114056113f484612e60565b6113ff886001613d5e565b87612b9e565b60408051601a80825261036082019092529294509092506000919060208201610340803683370190505090508661146e578181600161144387612e46565b61144d9190613a72565b8151811061145d5761145d613d76565b602002602001018181525050611538565b866001141561148d57818161148286612e46565b61144d906004613d5e565b86600214156114d457818160016114a387612e46565b6114ad9190613a72565b815181106114bd576114bd613d76565b602002602001018181525050818161148286612e46565b86600314156114f1578181600a8151811061145d5761145d613d76565b866004141561150557818161144d86612e46565b818161151086612e46565b61151b906005613d5e565b8151811061152b5761152b613d76565b6020026020010181815250505b61156e83826040518060800160405280600115158152602001600015158152602001891515815260200160001515815250612e7a565b85846101400151888151811061158657611586613d76565b60200260200101516115989190613d5e565b84610140015188815181106115af576115af613d76565b602090810291909101015260dd546101408501516040516321005a3160e01b81526001600160a01b03909216916321005a31916115f1918c9190600401613dc7565b600060405180830381600087803b15801561160b57600080fd5b505af115801561161f573d6000803e3d6000fd5b505050505050505050505050565b611635612dd5565b60dc546040516334d074b360e11b8152600481018490526000916001600160a01b0316906369a0e9669060240160006040518083038186803b15801561167a57600080fd5b505afa15801561168e573d6000803e3d6000fd5b505050506040513d6000823e601f3d908101601f191682016040526116b69190810190613ee8565b80519091506001600160a01b031633146116cf57600080fd5b60068160400151106116e057600080fd5b6000806116f583604001518460a001516110dc565b6040805160078082526101008201909252929450909250600091906020820160e080368337019050509050818160068151811061173457611734613d76565b60200260200101818152505061177683826040518060800160405280600115158152602001600015158152602001891515815260200160001515815250612e7a565b60dc546040516346e2b20960e01b8152600481018890526001600160a01b03909116906346e2b209906024015b600060405180830381600087803b1580156117bd57600080fd5b505af11580156117d1573d6000803e3d6000fd5b50505050505050505050565b6000805160206142c38339815191526117f581612cde565b610f05613168565b60008060008061180d8888612c16565b909250905061181d866063613a72565b6118279083613a89565b9150611834866063613a72565b61183e9082613a89565b90506000806118548a8a896105ad816005613a72565b90925090506118638285613d5e565b61186d8285613d5e565b955095505050505094509492505050565b6000806005861161188f5785611892565b60055b9550600060016118a3876002614104565b6118ad9190613a72565b60016118ba896002614104565b6118c49190613a72565b60d5546118d19190613a89565b6118db9190613a89565b90506000855b6118eb8688613d5e565b8110156119315760026118ff826001613d5e565b6119099190614110565b6119139084613a89565b61191d9083613d5e565b9150806119298161411f565b9150506118e1565b506002606460df5483670de0b6b3a764000061194d9190613a89565b6119579190613a89565b6119619190613abe565b61196b9190613abe565b601961197883600a613a89565b6119829190613abe565b93509350505094509492505050565b6000918252606c602090815260408084206001600160a01b0393909316845291905290205460ff1690565b600754610100900460ff16158080156119dc5750600754600160ff909116105b806119f65750303b1580156119f6575060075460ff166001145b6119ff57600080fd5b6007805460ff191660011790558015611a22576007805461ff0019166101001790555b611a2a6131a5565b611a326131b9565b611a3d6000846131d5565b611a556000805160206142c3833981519152846131d5565b611a7f7f73e573f9566d61418a34d5de3ff49360f9c51fec37f7486551670290f6285dab846131d5565b611a8882611b3c565b801561080c576007805461ff0019169055604051600181527f7f26b83ff96e1f2b6a682f133852f6798a09c465da95921460cefb3847402498906020016110cf565b6000805160206142c3833981519152611ae281612cde565b50805160d155602081015160d255604081015160d355606081015160d455608081015160d55560a081015160d65560c081015160d75560e081015160d85561010081015160d95561012081015160da55610140015160db55565b6000805160206142c3833981519152611b5481612cde565b5060d080546001600160a81b0319166001600160a01b0390921691909117600160a01b179055565b6000805160206142c3833981519152611b9481612cde565b604080516060810182526001600160a01b03808716808352818716602084018190529186169290930182905260dc80546001600160a01b0319908116909417905560dd80548416909117905560de80549092161790555b50505050565b6004805460405163526267fd60e11b81529182018390526000916001600160a01b039091169063a4c4cffa90602401610f38565b611c2d612dd5565b678ac7230489e800008111611c685760405162461bcd60e51b81526020600482015260016024820152603160f81b6044820152606401611305565b60025460405163079cc67960e41b8152336004820152602481018390526001600160a01b03909116906379cc679090604401600060405180830381600087803b158015611cb457600080fd5b505af1158015611cc8573d6000803e3d6000fd5b505060de54604051635c138c9d60e01b8152336004820152600093506001600160a01b039091169150635c138c9d9060240160206040518083038186803b158015611d1257600080fd5b505afa158015611d26573d6000803e3d6000fd5b505050506040513d601f19601f82011682018060405250810190611d4a9190613e9a565b90506000611d59826019613a89565b611d64906032613d5e565b905060006064611d748386613a89565b611d7e9190613abe565b611d889085613d5e565b60408051601a80825261036082019092529192506000919060208201610340803683370190505090506000670de0b6b3a76400006064611dc9886019613a89565b611dd39190613abe565b611ddd9190613abe565b905060005b6010811015611e1b5781838281518110611dfe57611dfe613d76565b602090810291909101015280611e138161411f565b915050611de2565b506000670de0b6b3a7640000611e336103e889613abe565b611e3e906064613a89565b611e489190613abe565b9050683635c9adc5dea000008710611eed578083601381518110611e6e57611e6e613d76565b6020908102919091010152611e84816004613a89565b83601681518110611e9757611e97613d76565b6020908102919091010152611ead816002613a89565b83601781518110611ec057611ec0613d76565b6020026020010181815250508083601881518110611ee057611ee0613d76565b6020026020010181815250505b69010f0cf064dd592000008710611f6857670de0b6b3a7640000611f1361138889613abe565b611f1d9190613abe565b611f28906064613a89565b83601481518110611f3b57611f3b613d76565b6020026020010181815250508083601981518110611f5b57611f5b613d76565b6020026020010181815250505b60dc546040516304567ca960e11b81526001600160a01b03909116906308acf95290611f9c9033908890889060040161413a565b600060405180830381600087803b158015611fb657600080fd5b505af1158015611fca573d6000803e3d6000fd5b505050507f90890809c654f11d6e72a28fa60149770a0d11ec6c92319d6ceb2bb0a4ea1a1533888660405161200193929190613ec7565b60405180910390a150505050505050565b61201a612dd5565b60dd546040516341f63bfd60e01b8152600481018690526000916001600160a01b0316906341f63bfd9060240160006040518083038186803b15801561205f57600080fd5b505afa158015612073573d6000803e3d6000fd5b505050506040513d6000823e601f3d908101601f1916820160405261209b9190810190613c02565b60608101519091506001600160a01b031633146120b757600080fd5b60dc546040516334d074b360e11b8152600481018590526000916001600160a01b0316906369a0e9669060240160006040518083038186803b1580156120fc57600080fd5b505afa158015612110573d6000803e3d6000fd5b505050506040513d6000823e601f3d908101601f191682016040526121389190810190613ee8565b80519091506001600160a01b0316331461215157600080fd5b6101008101511561216157600080fd5b6000805b836101200151518110156121b45786846101200151828151811061218b5761218b613d76565b602002602001015114156121a257600191506121b4565b806121ac8161411f565b915050612165565b50806121bf57600080fd5b60dd5460405163079cc67960e41b8152336004820152602481018990526001600160a01b03909116906379cc679090604401600060405180830381600087803b15801561220b57600080fd5b505af115801561221f573d6000803e3d6000fd5b5060009250600a915061222f9050565b604051908082528060200260200182016040528015612258578160200160208202803683370190505b5090506000600561226886612e60565b1161227b5761227685612e60565b61227e565b60055b905061228b816005613a89565b61229690601a613a72565b6122a1906064613a89565b826008815181106122b4576122b4613d76565b6020026020010181815250506064826009815181106122d5576122d5613d76565b6020026020010181815250506123676002606460df54846103e86122f99190613a89565b61230590611388613a72565b61231790670de0b6b3a7640000613a89565b6123219190613a89565b61232b9190613abe565b6123359190613abe565b8360405180608001604052806001151581526020016000151581526020018a1515815260200160001515815250612e7a565b60dc546040516314472f0560e01b815260048101899052602481018a90526001600160a01b03909116906314472f0590604401600060405180830381600087803b1580156123b457600080fd5b505af11580156123c8573d6000803e3d6000fd5b505060dc54604051632da17b6560e21b8152600481018b90526001600160a01b03909116925063b685ed949150602401600060405180830381600087803b15801561241257600080fd5b505af1158015612426573d6000803e3d6000fd5b50505050505050505050505050565b6000805160206142c383398151915261244d81612cde565b6108cb826131df565b61245e612dd5565b60dd546040516341f63bfd60e01b8152600481018490526000916001600160a01b0316906341f63bfd9060240160006040518083038186803b1580156124a357600080fd5b505afa1580156124b7573d6000803e3d6000fd5b505050506040513d6000823e601f3d908101601f191682016040526124df9190810190613c02565b60608101519091506001600160a01b031633146124fb57600080fd5b612506826064613a72565b61250f826132ce565b106125405760405162461bcd60e51b81526020600482015260016024820152603760f81b6044820152606401611305565b60008061255861254f84612e46565b6106ee85612e60565b91509150600061256784612e46565b6001600160401b0381111561257e5761257e6137c2565b6040519080825280602002602001820160405280156125a7578160200160208202803683370190505b5090506125b48583613a89565b8160016125c087612e46565b6125ca9190613a72565b815181106125da576125da613d76565b602090810291909101015261261d6125f28685613a89565b6040805160808101825260018082526020820152600091810182905260608101919091528390612e7a565b84612627856132ce565b6126319190613d5e565b61010085015160028151811061264957612649613d76565b602090810291909101015260dd546101008501516040516332eaadb760e21b81526001600160a01b039092169163cbaab6dc9161268b918a9190600401613dc7565b600060405180830381600087803b1580156126a557600080fd5b505af11580156126b9573d6000803e3d6000fd5b50506040805189815260208101899052338183015290517f9f2ce95eb1432da7c0b3a6fcea410c7d3837578ef2f15d05c66ac088f95972359350908190036060019150a1505050505050565b61270d612dd5565b60dd546040516341f63bfd60e01b8152600481018390526000916001600160a01b0316906341f63bfd9060240160006040518083038186803b15801561275257600080fd5b505afa158015612766573d6000803e3d6000fd5b505050506040513d6000823e601f3d908101601f1916820160405261278e9190810190613c02565b60608101519091506001600160a01b031633146127aa57600080fd5b60636127b5826132ce565b106127bf57600080fd5b60056127ca82612e1d565b106127d457600080fd5b6000806127fe6127e384612e46565b6127ec85612e60565b6127f5866132ce565b61059a87612e1d565b91509150600061280d84612e46565b6001600160401b03811115612824576128246137c2565b60405190808252806020026020018201604052801561284d578160200160208202803683370190505b5090508181600161285d87612e46565b6128679190613a72565b8151811061287757612877613d76565b6020026020010181815250506128ba8382604051806080016040528060011515815260200160011515815260200160001515815260200160001515815250612e7a565b6101008401516063906002815181106128d5576128d5613d76565b60209081029190910101526101008401516005906003815181106128fb576128fb613d76565b602090810291909101015260dd546101008501516040516332eaadb760e21b81526001600160a01b039092169163cbaab6dc9161293d91899190600401613dc7565b600060405180830381600087803b15801561295757600080fd5b505af115801561296b573d6000803e3d6000fd5b505050505050505050565b6000805160206142c383398151915261298e81612cde565b5060d155565b6000828152606c60205260409020600101546129af81612cde565b61080c8383612d6e565b6129c1612dd5565b60dc546040516334d074b360e11b8152600481018490526000916001600160a01b0316906369a0e9669060240160006040518083038186803b158015612a0657600080fd5b505afa158015612a1a573d6000803e3d6000fd5b505050506040513d6000823e601f3d908101601f19168201604052612a429190810190613ee8565b80519091506001600160a01b03163314612a5b57600080fd5b60408051600a8082526101608201909252600091602082016101408036833701905050905061138881600981518110612a9657612a96613d76565b602002602001018181525050612ad56002606460df5469021e19e0c9bab2400000612ac19190613a89565b612acb9190613abe565b6125f29190613abe565b60dc5460405163369cf5a760e21b815260048101869052602481018590526001600160a01b039091169063da73d69c90604401600060405180830381600087803b158015612b2257600080fd5b505af1158015612b36573d6000803e3d6000fd5b505060dc54604051632da17b6560e21b8152600481018890526001600160a01b03909116925063b685ed949150602401600060405180830381600087803b158015612b8057600080fd5b505af1158015612b94573d6000803e3d6000fd5b5050505050505050565b600080808385612baf88607d613a89565b612bb99190613a89565b612bc39190613a89565b9050612bd0600582613abe565b91506002606460df5483670de0b6b3a7640000612bed9190613a89565b612bf79190613a89565b612c019190613abe565b612c0b9190613abe565b925050935093915050565b60008060058411612c275783612c2a565b60055b935060006001612c3b856002614104565b612c459190613a72565b6001612c52876002614104565b612c5c9190613a72565b60d454612c699190613a89565b612c739190613a89565b90506002606460df5483670de0b6b3a7640000612c909190613a89565b612c9a9190613a89565b612ca49190613abe565b612cae9190613abe565b9590945092505050565b6000805160206142c3833981519152612cd081612cde565b610e928787878787876132e8565b610f05813361337a565b612cf28282611991565b6108cb576000828152606c602090815260408083206001600160a01b03851684529091529020805460ff19166001179055612d2a3390565b6001600160a01b0316816001600160a01b0316837f2f8788117e7eff1d82e926ec794901d17c78024a50270940304540a733656f0d60405160405180910390a45050565b612d788282611991565b156108cb576000828152606c602090815260408083206001600160a01b0385168085529252808320805460ff1916905551339285917ff6391f5c32d9c69d2a47ea670b442974b53935d1edc7fd64eb21e047a839171b9190a45050565b609e5460ff1615612e1b5760405162461bcd60e51b815260206004820152601060248201526f14185d5cd8589b194e881c185d5cd95960821b6044820152606401611305565b565b6000816101000151600381518110612e3757612e37613d76565b60200260200101519050919050565b6000816101000151600081518110612e3757612e37613d76565b6000816101000151600181518110612e3757612e37613d76565b80604001511561300157806020015115612ebb5760405162461bcd60e51b8152602060048201526002602482015261070360f41b6044820152606401611305565b8051600090612eca5783612ed3565b612ed384611bf1565b6003546040516323b872dd60e01b8152336004820152306024820152604481018390529192506001600160a01b0316906323b872dd90606401602060405180830381600087803b158015612f2657600080fd5b505af1158015612f3a573d6000803e3d6000fd5b505050506040513d601f19601f82011682018060405250810190612f5e9190613a3f565b506000606482600654612f719190613a89565b612f7b9190613abe565b60048054604051630d3990db60e21b81529293506001600160a01b0316916334e6436c91612faf9185910190815260200190565b602060405180830381600087803b158015612fc957600080fd5b505af1158015612fdd573d6000803e3d6000fd5b505050506040513d601f19601f82011682018060405250810190610e949190613e9a565b8060600151156130385760405162461bcd60e51b8152602060048201526002602482015261703160f01b6044820152606401611305565b805160009061304f5761304a84610f08565b613051565b835b60055460405163b1918c9560e01b81529192506000916001600160a01b039091169063b1918c959061308b9033908690899060040161413a565b602060405180830381600087803b1580156130a557600080fd5b505af11580156130b9573d6000803e3d6000fd5b505050506040513d601f19601f820116820180604052508101906130dd9190613a3f565b9050806107e05760405162461bcd60e51b81526020600482015260076024820152666e6f46756e647360c81b6044820152606401611305565b61311e6133d3565b609e805460ff191690557f5db9ee0a495bf2e6ff9c91a7834c1ba4fdd244a5e8aa4e537bd38aeae4b073aa335b6040516001600160a01b03909116815260200160405180910390a1565b613170612dd5565b609e805460ff191660011790557f62e78cea01bee320cd4e420270b5ea74000d11b0c9f74754ebdbfc544b05a25861314b3390565b600754610100900460ff16612e1b57600080fd5b600754610100900460ff166131cd57600080fd5b612e1b61341c565b6108cb8282612ce8565b60008190506000816001600160a01b031663c1cc57b06040518163ffffffff1660e01b815260040160006040518083038186803b15801561321f57600080fd5b505afa158015613233573d6000803e3d6000fd5b505050506040513d6000823e601f3d908101601f1916820160405261325b919081019061416a565b905060005b81518110156132c55781818151811061327b5761327b613d76565b60209081029190910181015160008381526001909252604090912080546001600160a01b0319166001600160a01b03909216919091179055806132bd8161411f565b915050613260565b50516000555050565b6000816101000151600281518110612e3757612e37613d76565b600280546001600160a01b038089166001600160a01b0319928316179092556003805488841690831617905560048054878416908316179055600580549286169290911691909117905561333b826131df565b600681905560035460405163095ea7b360e01b81526001600160a01b03868116600483015260001960248301529091169063095ea7b3906044016117a3565b6133848282611991565b6108cb576133918161343c565b61339c83602061344e565b6040516020016133ad929190614203565b60408051601f198184030181529082905262461bcd60e51b825261130591600401614278565b609e5460ff16612e1b5760405162461bcd60e51b815260206004820152601460248201527314185d5cd8589b194e881b9bdd081c185d5cd95960621b6044820152606401611305565b600754610100900460ff1661343057600080fd5b609e805460ff19169055565b60606107406001600160a01b03831660145b6060600061345d836002613a89565b613468906002613d5e565b6001600160401b0381111561347f5761347f6137c2565b6040519080825280601f01601f1916602001820160405280156134a9576020820181803683370190505b509050600360fc1b816000815181106134c4576134c4613d76565b60200101906001600160f81b031916908160001a905350600f60fb1b816001815181106134f3576134f3613d76565b60200101906001600160f81b031916908160001a9053506000613517846002613a89565b613522906001613d5e565b90505b600181111561359a576f181899199a1a9b1b9c1cb0b131b232b360811b85600f166010811061355657613556613d76565b1a60f81b82828151811061356c5761356c613d76565b60200101906001600160f81b031916908160001a90535060049490941c93613593816142ab565b9050613525565b5083156135a657600080fd5b9392505050565b6000602082840312156135bf57600080fd5b81356001600160e01b0319811681146135a657600080fd5b6001600160a01b0381168114610f0557600080fd5b60008060006060848603121561360157600080fd5b833561360c816135d7565b9250602084013561361c816135d7565b929592945050506040919091013590565b60006020828403121561363f57600080fd5b5035919050565b6000806040838503121561365957600080fd5b82359150602083013561366b816135d7565b809150509250929050565b8015158114610f0557600080fd5b60008060006060848603121561369957600080fd5b833592506020840135915060408401356136b281613676565b809150509250925092565b6000602082840312156136cf57600080fd5b81356135a681613676565b600080604083850312156136ed57600080fd5b82356136f8816135d7565b9150602083013561366b816135d7565b6000806040838503121561371b57600080fd5b50508035926020909101359150565b6000806000806080858703121561374057600080fd5b843593506020850135925060408501359150606085013561376081613676565b939692955090935050565b6000806040838503121561377e57600080fd5b82359150602083013561366b81613676565b600080600080608085870312156137a657600080fd5b5050823594602084013594506040840135936060013592509050565b634e487b7160e01b600052604160045260246000fd5b60405161016081016001600160401b03811182821017156137fb576137fb6137c2565b60405290565b60405161018081016001600160401b03811182821017156137fb576137fb6137c2565b60405161010081016001600160401b03811182821017156137fb576137fb6137c2565b6040516101c081016001600160401b03811182821017156137fb576137fb6137c2565b604051601f8201601f191681016001600160401b0381118282101715613892576138926137c2565b604052919050565b600061016082840312156138ad57600080fd5b6138b56137d8565b823581526020830135602082015260408301356040820152606083013560608201526080830135608082015260a083013560a082015260c083013560c082015260e083013560e08201526101008084013581830152506101208084013581830152506101408084013581830152508091505092915050565b60006020828403121561393f57600080fd5b81356135a6816135d7565b60008060006060848603121561395f57600080fd5b833561396a816135d7565b9250602084013561397a816135d7565b915060408401356136b2816135d7565b60008060006060848603121561399f57600080fd5b505081359360208301359350604090920135919050565b60008060008060008060c087890312156139cf57600080fd5b86356139da816135d7565b955060208701356139ea816135d7565b945060408701356139fa816135d7565b93506060870135613a0a816135d7565b92506080870135613a1a816135d7565b8092505060a087013590509295509295509295565b8051613a3a81613676565b919050565b600060208284031215613a5157600080fd5b81516135a681613676565b634e487b7160e01b600052601160045260246000fd5b600082821015613a8457613a84613a5c565b500390565b6000816000190483118215151615613aa357613aa3613a5c565b500290565b634e487b7160e01b600052601260045260246000fd5b600082613acd57613acd613aa8565b500490565b60005b83811015613aed578181015183820152602001613ad5565b83811115611beb5750506000910152565b600082601f830112613b0f57600080fd5b81516001600160401b03811115613b2857613b286137c2565b613b3b601f8201601f191660200161386a565b818152846020838601011115613b5057600080fd5b613b61826020830160208701613ad2565b949350505050565b8051613a3a816135d7565b60006001600160401b03821115613b8d57613b8d6137c2565b5060051b60200190565b600082601f830112613ba857600080fd5b81516020613bbd613bb883613b74565b61386a565b82815260059290921b84018101918181019086841115613bdc57600080fd5b8286015b84811015613bf75780518352918301918301613be0565b509695505050505050565b600060208284031215613c1457600080fd5b81516001600160401b0380821115613c2b57600080fd5b908301906101808286031215613c4057600080fd5b613c48613801565b82518152602083015182811115613c5e57600080fd5b613c6a87828601613afe565b602083015250604083015182811115613c8257600080fd5b613c8e87828601613afe565b604083015250613ca060608401613b69565b60608201526080830151608082015260a083015160a082015260c083015160c082015260e083015160e08201526101008084015183811115613ce157600080fd5b613ced88828701613b97565b8284015250506101208084015183811115613d0757600080fd5b613d1388828701613b97565b8284015250506101408084015183811115613d2d57600080fd5b613d3988828701613b97565b8284015250506101609150613d4f828401613a2f565b91810191909152949350505050565b60008219821115613d7157613d71613a5c565b500190565b634e487b7160e01b600052603260045260246000fd5b600081518084526020808501945080840160005b83811015613dbc57815187529582019590820190600101613da0565b509495945050505050565b828152604060208201526000613b616040830184613d8c565b600060208284031215613df257600080fd5b81516001600160401b0380821115613e0957600080fd5b908301906101008286031215613e1e57600080fd5b613e26613824565b82518152602083015160208201526040830151604082015260608301516060820152613e5460808401613b69565b608082015260a083015160a082015260c083015160c082015260e083015182811115613e7f57600080fd5b613e8b87828601613b97565b60e08301525095945050505050565b600060208284031215613eac57600080fd5b5051919050565b600082613ec257613ec2613aa8565b500690565b6001600160a01b039390931683526020830191909152604082015260600190565b600060208284031215613efa57600080fd5b81516001600160401b0380821115613f1157600080fd5b908301906101c08286031215613f2657600080fd5b613f2e613847565b613f3783613b69565b81526020830151602082015260408301516040820152606083015160608201526080830151608082015260a083015160a082015260c083015160c082015260e083015160e08201526101008084015181830152506101208084015181830152506101408084015181830152506101608084015183811115613fb757600080fd5b613fc388828701613b97565b8284015250506101808084015183811115613fdd57600080fd5b613fe988828701613b97565b8284015250506101a0808401518381111561400357600080fd5b61400f88828701613b97565b918301919091525095945050505050565b600181815b8085111561405b57816000190482111561404157614041613a5c565b8085161561404e57918102915b93841c9390800290614025565b509250929050565b60008261407257506001610740565b8161407f57506000610740565b8160018114614095576002811461409f576140bb565b6001915050610740565b60ff8411156140b0576140b0613a5c565b50506001821b610740565b5060208310610133831016604e8410600b84101617156140de575081810a610740565b6140e88383614020565b80600019048211156140fc576140fc613a5c565b029392505050565b60006135a68383614063565b60006135a660ff841683614063565b600060001982141561413357614133613a5c565b5060010190565b60018060a01b03841681528260208201526060604082015260006141616060830184613d8c565b95945050505050565b6000602080838503121561417d57600080fd5b82516001600160401b0381111561419357600080fd5b8301601f810185136141a457600080fd5b80516141b2613bb882613b74565b81815260059190911b820183019083810190878311156141d157600080fd5b928401925b828410156141f85783516141e9816135d7565b825292840192908401906141d6565b979650505050505050565b7f416363657373436f6e74726f6c3a206163636f756e742000000000000000000081526000835161423b816017850160208801613ad2565b7001034b99036b4b9b9b4b733903937b6329607d1b601791840191820152835161426c816028840160208801613ad2565b01602801949350505050565b6020815260008251806020840152614297816040850160208701613ad2565b601f01601f19169190910160400192915050565b6000816142ba576142ba613a5c565b50600019019056fe97667070c54ef182b0f5858b034beac1b6f3089aa2d3188bb1e8929f4fa9b929a264697066735822122034e6121b3bdf21e755949d37fc1aa46809cd9ff7a3ac3b122c840b44af4bb41a64736f6c63430008090033",
  "linkReferences": {},
  "deployedLinkReferences": {}
}