{
  "_format": "hh-sol-artifact-1",
  "contractName": "BkUpgrades",
  "sourceName": "contracts/features/BkUpgrades.sol",
  "abi": [
    {
      "anonymous": false,
      "inputs": [
        {
          "indexed": false,
          "internalType": "address",
          "name": "sender",
          "type": "address"
        },
        {
          "indexed": false,
          "internalType": "uint256",
          "name": "amount",
          "type": "uint256"
        },
        {
          "indexed": false,
          "internalType": "uint256",
          "name": "amountWithBonus",
          "type": "uint256"
        }
      ],
      "name": "Deposit",
      "type": "event"
    },
    {
      "anonymous": false,
      "inputs": [
        {
          "indexed": false,
          "internalType": "uint8",
          "name": "version",
          "type": "uint8"
        }
      ],
      "name": "Initialized",
      "type": "event"
    },
    {
      "anonymous": false,
      "inputs": [
        {
          "indexed": false,
          "internalType": "address",
          "name": "account",
          "type": "address"
        }
      ],
      "name": "Paused",
      "type": "event"
    },
    {
      "anonymous": false,
      "inputs": [
        {
          "indexed": false,
          "internalType": "uint256",
          "name": "nftId",
          "type": "uint256"
        },
        {
          "indexed": false,
          "internalType": "uint256",
          "name": "ranks",
          "type": "uint256"
        },
        {
          "indexed": false,
          "internalType": "address",
          "name": "owner",
          "type": "address"
        }
      ],
      "name": "RankUp",
      "type": "event"
    },
    {
      "anonymous": false,
      "inputs": [
        {
          "indexed": true,
          "internalType": "bytes32",
          "name": "role",
          "type": "bytes32"
        },
        {
          "indexed": true,
          "internalType": "bytes32",
          "name": "previousAdminRole",
          "type": "bytes32"
        },
        {
          "indexed": true,
          "internalType": "bytes32",
          "name": "newAdminRole",
          "type": "bytes32"
        }
      ],
      "name": "RoleAdminChanged",
      "type": "event"
    },
    {
      "anonymous": false,
      "inputs": [
        {
          "indexed": true,
          "internalType": "bytes32",
          "name": "role",
          "type": "bytes32"
        },
        {
          "indexed": true,
          "internalType": "address",
          "name": "account",
          "type": "address"
        },
        {
          "indexed": true,
          "internalType": "address",
          "name": "sender",
          "type": "address"
        }
      ],
      "name": "RoleGranted",
      "type": "event"
    },
    {
      "anonymous": false,
      "inputs": [
        {
          "indexed": true,
          "internalType": "bytes32",
          "name": "role",
          "type": "bytes32"
        },
        {
          "indexed": true,
          "internalType": "address",
          "name": "account",
          "type": "address"
        },
        {
          "indexed": true,
          "internalType": "address",
          "name": "sender",
          "type": "address"
        }
      ],
      "name": "RoleRevoked",
      "type": "event"
    },
    {
      "anonymous": false,
      "inputs": [
        {
          "indexed": false,
          "internalType": "address",
          "name": "account",
          "type": "address"
        }
      ],
      "name": "Unpaused",
      "type": "event"
    },
    {
      "inputs": [],
      "name": "DEFAULT_ADMIN_ROLE",
      "outputs": [
        {
          "internalType": "bytes32",
          "name": "",
          "type": "bytes32"
        }
      ],
      "stateMutability": "view",
      "type": "function"
    },
    {
      "inputs": [
        {
          "internalType": "address",
          "name": "_operator",
          "type": "address"
        },
        {
          "internalType": "address",
          "name": "_blocklistAddress",
          "type": "address"
        }
      ],
      "name": "__Administrable_init",
      "outputs": [],
      "stateMutability": "nonpayable",
      "type": "function"
    },
    {
      "inputs": [],
      "name": "autoReturnRate",
      "outputs": [
        {
          "internalType": "uint256",
          "name": "",
          "type": "uint256"
        }
      ],
      "stateMutability": "view",
      "type": "function"
    },
    {
      "inputs": [
        {
          "internalType": "uint256",
          "name": "bctAmount",
          "type": "uint256"
        }
      ],
      "name": "bctToStabletoken",
      "outputs": [
        {
          "internalType": "uint256",
          "name": "",
          "type": "uint256"
        }
      ],
      "stateMutability": "view",
      "type": "function"
    },
    {
      "inputs": [
        {
          "internalType": "uint256",
          "name": "nftId",
          "type": "uint256"
        },
        {
          "internalType": "uint256",
          "name": "levels",
          "type": "uint256"
        },
        {
          "internalType": "bool",
          "name": "withBusd",
          "type": "bool"
        }
      ],
      "name": "buyAgilityUp",
      "outputs": [],
      "stateMutability": "payable",
      "type": "function"
    },
    {
      "inputs": [
        {
          "internalType": "uint256",
          "name": "squadId",
          "type": "uint256"
        },
        {
          "internalType": "bool",
          "name": "withBusd",
          "type": "bool"
        }
      ],
      "name": "buyExtraSlot",
      "outputs": [],
      "stateMutability": "payable",
      "type": "function"
    },
    {
      "inputs": [
        {
          "internalType": "bool",
          "name": "withBusd",
          "type": "bool"
        }
      ],
      "name": "buyExtraSquad",
      "outputs": [],
      "stateMutability": "payable",
      "type": "function"
    },
    {
      "inputs": [
        {
          "internalType": "uint256",
          "name": "nftId",
          "type": "uint256"
        }
      ],
      "name": "buyMaxOutRankAgility",
      "outputs": [],
      "stateMutability": "nonpayable",
      "type": "function"
    },
    {
      "inputs": [
        {
          "internalType": "uint256",
          "name": "nftId",
          "type": "uint256"
        },
        {
          "internalType": "uint256",
          "name": "ranks",
          "type": "uint256"
        }
      ],
      "name": "buyRankUp",
      "outputs": [],
      "stateMutability": "nonpayable",
      "type": "function"
    },
    {
      "inputs": [
        {
          "internalType": "uint256",
          "name": "nftId",
          "type": "uint256"
        },
        {
          "internalType": "uint256",
          "name": "skillIndex",
          "type": "uint256"
        },
        {
          "internalType": "uint256",
          "name": "levels",
          "type": "uint256"
        },
        {
          "internalType": "bool",
          "name": "withBusd",
          "type": "bool"
        }
      ],
      "name": "buySkillLevel",
      "outputs": [],
      "stateMutability": "payable",
      "type": "function"
    },
    {
      "inputs": [],
      "name": "config",
      "outputs": [
        {
          "internalType": "uint256",
          "name": "autoReturnRate",
          "type": "uint256"
        },
        {
          "internalType": "uint256",
          "name": "cooldownInBlocks",
          "type": "uint256"
        },
        {
          "internalType": "uint256",
          "name": "depositBonus",
          "type": "uint256"
        },
        {
          "internalType": "uint256",
          "name": "rankUpPrice",
          "type": "uint256"
        },
        {
          "internalType": "uint256",
          "name": "agilityUpPrice",
          "type": "uint256"
        },
        {
          "internalType": "uint256",
          "name": "extraSquadPrice",
          "type": "uint256"
        },
        {
          "internalType": "uint256",
          "name": "mentorPrice",
          "type": "uint256"
        },
        {
          "internalType": "uint256",
          "name": "merchantPrice",
          "type": "uint256"
        },
        {
          "internalType": "uint256",
          "name": "skillPrice",
          "type": "uint256"
        },
        {
          "internalType": "uint256",
          "name": "ritualPrice",
          "type": "uint256"
        },
        {
          "internalType": "uint256",
          "name": "maxIntegrationType",
          "type": "uint256"
        }
      ],
      "stateMutability": "view",
      "type": "function"
    },
    {
      "inputs": [],
      "name": "contracts",
      "outputs": [
        {
          "internalType": "contract IBkFarm",
          "name": "farm",
          "type": "address"
        },
        {
          "internalType": "contract IBkNft",
          "name": "nft",
          "type": "address"
        },
        {
          "internalType": "contract IBkStasher",
          "name": "stasher",
          "type": "address"
        }
      ],
      "stateMutability": "view",
      "type": "function"
    },
    {
      "inputs": [
        {
          "internalType": "uint256",
          "name": "amount",
          "type": "uint256"
        }
      ],
      "name": "deposit",
      "outputs": [],
      "stateMutability": "nonpayable",
      "type": "function"
    },
    {
      "inputs": [
        {
          "internalType": "uint256",
          "name": "nftId",
          "type": "uint256"
        },
        {
          "internalType": "uint256",
          "name": "traitToExtract",
          "type": "uint256"
        },
        {
          "internalType": "uint256",
          "name": "squadToGetTrait",
          "type": "uint256"
        },
        {
          "internalType": "bool",
          "name": "withBusd",
          "type": "bool"
        }
      ],
      "name": "extractTrait",
      "outputs": [],
      "stateMutability": "payable",
      "type": "function"
    },
    {
      "inputs": [
        {
          "internalType": "uint256",
          "name": "species",
          "type": "uint256"
        },
        {
          "internalType": "uint256",
          "name": "rarity",
          "type": "uint256"
        },
        {
          "internalType": "uint256",
          "name": "currentAgility",
          "type": "uint256"
        },
        {
          "internalType": "uint256",
          "name": "levels",
          "type": "uint256"
        }
      ],
      "name": "getAgilityUpPrices",
      "outputs": [
        {
          "internalType": "uint256",
          "name": "bct",
          "type": "uint256"
        },
        {
          "internalType": "uint256",
          "name": "resourceCents",
          "type": "uint256"
        }
      ],
      "stateMutability": "view",
      "type": "function"
    },
    {
      "inputs": [
        {
          "internalType": "uint256",
          "name": "currentSize",
          "type": "uint256"
        },
        {
          "internalType": "uint256",
          "name": "squadBonus",
          "type": "uint256"
        }
      ],
      "name": "getExtraSlotPrices",
      "outputs": [
        {
          "internalType": "uint256",
          "name": "bct",
          "type": "uint256"
        },
        {
          "internalType": "uint256",
          "name": "resourceCents",
          "type": "uint256"
        }
      ],
      "stateMutability": "view",
      "type": "function"
    },
    {
      "inputs": [
        {
          "internalType": "uint256",
          "name": "currentSquads",
          "type": "uint256"
        }
      ],
      "name": "getExtraSquadPrices",
      "outputs": [
        {
          "internalType": "uint256",
          "name": "bct",
          "type": "uint256"
        },
        {
          "internalType": "uint256",
          "name": "resourceCents",
          "type": "uint256"
        }
      ],
      "stateMutability": "view",
      "type": "function"
    },
    {
      "inputs": [
        {
          "internalType": "uint256",
          "name": "species",
          "type": "uint256"
        },
        {
          "internalType": "uint256",
          "name": "rarity",
          "type": "uint256"
        },
        {
          "internalType": "uint256",
          "name": "currentRank",
          "type": "uint256"
        },
        {
          "internalType": "uint256",
          "name": "currentAgility",
          "type": "uint256"
        }
      ],
      "name": "getMaxOutRankAgilityPrices",
      "outputs": [
        {
          "internalType": "uint256",
          "name": "bct",
          "type": "uint256"
        },
        {
          "internalType": "uint256",
          "name": "resourceCents",
          "type": "uint256"
        }
      ],
      "stateMutability": "view",
      "type": "function"
    },
    {
      "inputs": [
        {
          "internalType": "uint256",
          "name": "species",
          "type": "uint256"
        },
        {
          "internalType": "uint256",
          "name": "rarity",
          "type": "uint256"
        }
      ],
      "name": "getRankUpPrices",
      "outputs": [
        {
          "internalType": "uint256",
          "name": "bct",
          "type": "uint256"
        },
        {
          "internalType": "uint256",
          "name": "resourceCents",
          "type": "uint256"
        }
      ],
      "stateMutability": "view",
      "type": "function"
    },
    {
      "inputs": [
        {
          "internalType": "bytes32",
          "name": "role",
          "type": "bytes32"
        }
      ],
      "name": "getRoleAdmin",
      "outputs": [
        {
          "internalType": "bytes32",
          "name": "",
          "type": "bytes32"
        }
      ],
      "stateMutability": "view",
      "type": "function"
    },
    {
      "inputs": [
        {
          "internalType": "uint256",
          "name": "rarity",
          "type": "uint256"
        },
        {
          "internalType": "uint256",
          "name": "weight",
          "type": "uint256"
        },
        {
          "internalType": "uint256",
          "name": "levels",
          "type": "uint256"
        }
      ],
      "name": "getSkillLevelPrices",
      "outputs": [
        {
          "internalType": "uint256",
          "name": "bct",
          "type": "uint256"
        },
        {
          "internalType": "uint256",
          "name": "resourceCents",
          "type": "uint256"
        }
      ],
      "stateMutability": "view",
      "type": "function"
    },
    {
      "inputs": [
        {
          "internalType": "bytes32",
          "name": "role",
          "type": "bytes32"
        },
        {
          "internalType": "address",
          "name": "account",
          "type": "address"
        }
      ],
      "name": "grantRole",
      "outputs": [],
      "stateMutability": "nonpayable",
      "type": "function"
    },
    {
      "inputs": [],
      "name": "hasBlocklist",
      "outputs": [
        {
          "internalType": "bool",
          "name": "",
          "type": "bool"
        }
      ],
      "stateMutability": "view",
      "type": "function"
    },
    {
      "inputs": [
        {
          "internalType": "bytes32",
          "name": "role",
          "type": "bytes32"
        },
        {
          "internalType": "address",
          "name": "account",
          "type": "address"
        }
      ],
      "name": "hasRole",
      "outputs": [
        {
          "internalType": "bool",
          "name": "",
          "type": "bool"
        }
      ],
      "stateMutability": "view",
      "type": "function"
    },
    {
      "inputs": [
        {
          "internalType": "address",
          "name": "_operator",
          "type": "address"
        },
        {
          "internalType": "address",
          "name": "_blocklist",
          "type": "address"
        }
      ],
      "name": "initialize",
      "outputs": [],
      "stateMutability": "nonpayable",
      "type": "function"
    },
    {
      "inputs": [],
      "name": "koziPayments",
      "outputs": [
        {
          "internalType": "contract IKoziPayments",
          "name": "",
          "type": "address"
        }
      ],
      "stateMutability": "view",
      "type": "function"
    },
    {
      "inputs": [],
      "name": "pause",
      "outputs": [],
      "stateMutability": "nonpayable",
      "type": "function"
    },
    {
      "inputs": [],
      "name": "paused",
      "outputs": [
        {
          "internalType": "bool",
          "name": "",
          "type": "bool"
        }
      ],
      "stateMutability": "view",
      "type": "function"
    },
    {
      "inputs": [],
      "name": "paymentContracts",
      "outputs": [
        {
          "internalType": "contract IBkERC20",
          "name": "bct",
          "type": "address"
        },
        {
          "internalType": "contract IBkERC20",
          "name": "busd",
          "type": "address"
        },
        {
          "internalType": "contract ICommunityPool",
          "name": "pool",
          "type": "address"
        },
        {
          "internalType": "contract IBkFarm",
          "name": "farm",
          "type": "address"
        }
      ],
      "stateMutability": "view",
      "type": "function"
    },
    {
      "inputs": [
        {
          "internalType": "address",
          "name": "tokenAddress",
          "type": "address"
        },
        {
          "internalType": "address",
          "name": "to",
          "type": "address"
        },
        {
          "internalType": "uint256",
          "name": "amount",
          "type": "uint256"
        }
      ],
      "name": "recoverERC20",
      "outputs": [],
      "stateMutability": "nonpayable",
      "type": "function"
    },
    {
      "inputs": [
        {
          "internalType": "bytes32",
          "name": "role",
          "type": "bytes32"
        },
        {
          "internalType": "address",
          "name": "account",
          "type": "address"
        }
      ],
      "name": "renounceRole",
      "outputs": [],
      "stateMutability": "nonpayable",
      "type": "function"
    },
    {
      "inputs": [],
      "name": "resetBlocklist",
      "outputs": [],
      "stateMutability": "nonpayable",
      "type": "function"
    },
    {
      "inputs": [
        {
          "internalType": "uint256",
          "name": "",
          "type": "uint256"
        }
      ],
      "name": "resources",
      "outputs": [
        {
          "internalType": "address",
          "name": "",
          "type": "address"
        }
      ],
      "stateMutability": "view",
      "type": "function"
    },
    {
      "inputs": [],
      "name": "resourcesCount",
      "outputs": [
        {
          "internalType": "uint256",
          "name": "",
          "type": "uint256"
        }
      ],
      "stateMutability": "view",
      "type": "function"
    },
    {
      "inputs": [
        {
          "internalType": "bytes32",
          "name": "role",
          "type": "bytes32"
        },
        {
          "internalType": "address",
          "name": "account",
          "type": "address"
        }
      ],
      "name": "revokeRole",
      "outputs": [],
      "stateMutability": "nonpayable",
      "type": "function"
    },
    {
      "inputs": [],
      "name": "scale",
      "outputs": [
        {
          "internalType": "uint256",
          "name": "",
          "type": "uint256"
        }
      ],
      "stateMutability": "view",
      "type": "function"
    },
    {
      "inputs": [
        {
          "internalType": "uint256",
          "name": "_autoReturnRate",
          "type": "uint256"
        }
      ],
      "name": "setAutoReturnRate",
      "outputs": [],
      "stateMutability": "nonpayable",
      "type": "function"
    },
    {
      "inputs": [
        {
          "internalType": "address",
          "name": "blocklistAddress",
          "type": "address"
        }
      ],
      "name": "setBlocklist",
      "outputs": [],
      "stateMutability": "nonpayable",
      "type": "function"
    },
    {
      "inputs": [
        {
          "components": [
            {
              "internalType": "uint256",
              "name": "autoReturnRate",
              "type": "uint256"
            },
            {
              "internalType": "uint256",
              "name": "cooldownInBlocks",
              "type": "uint256"
            },
            {
              "internalType": "uint256",
              "name": "depositBonus",
              "type": "uint256"
            },
            {
              "internalType": "uint256",
              "name": "rankUpPrice",
              "type": "uint256"
            },
            {
              "internalType": "uint256",
              "name": "agilityUpPrice",
              "type": "uint256"
            },
            {
              "internalType": "uint256",
              "name": "extraSquadPrice",
              "type": "uint256"
            },
            {
              "internalType": "uint256",
              "name": "mentorPrice",
              "type": "uint256"
            },
            {
              "internalType": "uint256",
              "name": "merchantPrice",
              "type": "uint256"
            },
            {
              "internalType": "uint256",
              "name": "skillPrice",
              "type": "uint256"
            },
            {
              "internalType": "uint256",
              "name": "ritualPrice",
              "type": "uint256"
            },
            {
              "internalType": "uint256",
              "name": "maxIntegrationType",
              "type": "uint256"
            }
          ],
          "internalType": "struct BkUpgrades.Config",
          "name": "_config",
          "type": "tuple"
        }
      ],
      "name": "setConfig",
      "outputs": [],
      "stateMutability": "nonpayable",
      "type": "function"
    },
    {
      "inputs": [
        {
          "internalType": "address",
          "name": "_farm",
          "type": "address"
        },
        {
          "internalType": "address",
          "name": "_nft",
          "type": "address"
        },
        {
          "internalType": "address",
          "name": "_stasher",
          "type": "address"
        }
      ],
      "name": "setContracts",
      "outputs": [],
      "stateMutability": "nonpayable",
      "type": "function"
    },
    {
      "inputs": [
        {
          "internalType": "address",
          "name": "_koziPayments",
          "type": "address"
        }
      ],
      "name": "setKoziPayments",
      "outputs": [],
      "stateMutability": "nonpayable",
      "type": "function"
    },
    {
      "inputs": [
        {
          "internalType": "uint256",
          "name": "_scale",
          "type": "uint256"
        }
      ],
      "name": "setScale",
      "outputs": [],
      "stateMutability": "nonpayable",
      "type": "function"
    },
    {
      "inputs": [
        {
          "internalType": "uint256",
          "name": "squadId",
          "type": "uint256"
        },
        {
          "internalType": "uint256",
          "name": "newType",
          "type": "uint256"
        }
      ],
      "name": "setSquadType",
      "outputs": [],
      "stateMutability": "nonpayable",
      "type": "function"
    },
    {
      "inputs": [
        {
          "internalType": "address",
          "name": "_bct",
          "type": "address"
        },
        {
          "internalType": "address",
          "name": "_busd",
          "type": "address"
        },
        {
          "internalType": "address",
          "name": "_pool",
          "type": "address"
        },
        {
          "internalType": "address",
          "name": "_farm",
          "type": "address"
        },
        {
          "internalType": "address",
          "name": "_resourcesSource",
          "type": "address"
        },
        {
          "internalType": "uint256",
          "name": "_autoReturnRate",
          "type": "uint256"
        }
      ],
      "name": "setupPaymentModule",
      "outputs": [],
      "stateMutability": "nonpayable",
      "type": "function"
    },
    {
      "inputs": [
        {
          "internalType": "uint256",
          "name": "busdAmount",
          "type": "uint256"
        }
      ],
      "name": "stabletokenToBct",
      "outputs": [
        {
          "internalType": "uint256",
          "name": "",
          "type": "uint256"
        }
      ],
      "stateMutability": "view",
      "type": "function"
    },
    {
      "inputs": [
        {
          "internalType": "bytes4",
          "name": "interfaceId",
          "type": "bytes4"
        }
      ],
      "name": "supportsInterface",
      "outputs": [
        {
          "internalType": "bool",
          "name": "",
          "type": "bool"
        }
      ],
      "stateMutability": "view",
      "type": "function"
    },
    {
      "inputs": [],
      "name": "unpause",
      "outputs": [],
      "stateMutability": "nonpayable",
      "type": "function"
    },
    {
      "inputs": [
        {
          "internalType": "address",
          "name": "sourceContract",
          "type": "address"
        }
      ],
      "name": "updateResources",
      "outputs": [],
      "stateMutability": "nonpayable",
      "type": "function"
    }
  ],
  "bytecode": "0x608060405234801561001057600080fd5b506148dc806100206000396000f3fe6080604052600436106102935760003560e01c80638456cb591161015a578063be505d08116100c1578063d547741f1161007a578063d547741f146108b7578063da73d69c146108d7578063dd18f91b146108f7578063e1f3c3d414610917578063f4b93f4514610937578063f51e181a1461095757600080fd5b8063be505d081461080e578063c3c87d5314610821578063c429d34914610841578063c532257614610857578063cf3da80414610877578063cfe5aa281461089757600080fd5b8063a75faf5d11610113578063a75faf5d1461074e578063aef18ae71461076e578063b3066d491461078e578063b5f63f60146107ae578063b6b55f25146107ce578063b84e99b8146107ee57600080fd5b80638456cb59146106a457806385876835146106b95780638c0dd9c5146106d957806391d14854146106f9578063931da89b14610719578063a217fddf1461073957600080fd5b80633f4ba83a116101fe578063634210f4116101b7578063634210f4146105545780636721a4df146105755780636c0f79b61461059557806376a8612f146105ec57806379502c55146105ff5780637cf295511461069157600080fd5b80633f4ba83a146104b157806341e80ad9146104c6578063485cc955146104e657806351ac7b8c14610506578063597d7f811461051c5780635c975abb1461053c57600080fd5b8063323b6cb711610250578063323b6cb7146103d057806336568abe1461043657806338d4588d146104565780633c5b364c146104695780633c7fd8221461047c5780633edc35191461049157600080fd5b806301ffc9a7146102985780631171bda9146102cd578063244d6daa146102ef578063248a9ca31461033d5780632f2ff15d1461037b5780632f467f4e1461039b575b600080fd5b3480156102a457600080fd5b506102b86102b3366004613b4e565b61096d565b60405190151581526020015b60405180910390f35b3480156102d957600080fd5b506102ed6102e8366004613b8d565b6109a4565b005b3480156102fb57600080fd5b5061032561030a366004613bce565b6001602052600090815260409020546001600160a01b031681565b6040516001600160a01b0390911681526020016102c4565b34801561034957600080fd5b5061036d610358366004613bce565b6000908152606c602052604090206001015490565b6040519081526020016102c4565b34801561038757600080fd5b506102ed610396366004613be7565b610a45565b3480156103a757600080fd5b506103bb6103b6366004613bce565b610a6f565b604080519283526020830191909152016102c4565b3480156103dc57600080fd5b50600254600354600454600554610403936001600160a01b03908116938116928116911684565b604080516001600160a01b03958616815293851660208501529184169183019190915290911660608201526080016102c4565b34801561044257600080fd5b506102ed610451366004613be7565b610b0a565b6102ed610464366004613c25565b610b2d565b6102ed610477366004613c5e565b610e24565b34801561048857600080fd5b506102ed61122e565b34801561049d57600080fd5b506102ed6104ac366004613bce565b611259565b3480156104bd57600080fd5b506102ed611277565b3480156104d257600080fd5b5061036d6104e1366004613bce565b61129a565b3480156104f257600080fd5b506102ed610501366004613c7b565b61131a565b34801561051257600080fd5b5061036d60005481565b34801561052857600080fd5b506102ed610537366004613ca9565b61146e565b34801561054857600080fd5b50609e5460ff166102b8565b34801561056057600080fd5b5060d0546102b890600160a01b900460ff1681565b34801561058157600080fd5b506103bb610590366004613cc6565b6114a9565b3480156105a157600080fd5b5060dc5460dd5460de546105c2926001600160a01b03908116928116911683565b604080516001600160a01b03948516815292841660208401529216918101919091526060016102c4565b6102ed6105fa366004613ce8565b611582565b34801561060b57600080fd5b5060d15460d25460d35460d45460d55460d65460d75460d85460d95460da5460db5461063e9a999897969594939291908b565b604080519b8c5260208c019a909a52988a01979097526060890195909552608088019390935260a087019190915260c086015260e0850152610100840152610120830152610140820152610160016102c4565b6102ed61069f366004613d29565b611a94565b3480156106b057600080fd5b506102ed611cde565b3480156106c557600080fd5b506103bb6106d4366004613d4e565b611cfe565b3480156106e557600080fd5b506103bb6106f4366004613d4e565b611d7f565b34801561070557600080fd5b506102b8610714366004613be7565b611e92565b34801561072557600080fd5b506102ed610734366004613c7b565b611ebd565b34801561074557600080fd5b5061036d600081565b34801561075a57600080fd5b506102ed610769366004613e58565b611fcb565b34801561077a57600080fd5b506102ed610789366004613ca9565b61203d565b34801561079a57600080fd5b506102ed6107a9366004613eeb565b61207d565b3480156107ba57600080fd5b5061036d6107c9366004613bce565b6120f2565b3480156107da57600080fd5b506102ed6107e9366004613bce565b612126565b3480156107fa57600080fd5b5060e054610325906001600160a01b031681565b6102ed61081c366004613ce8565b612513565b34801561082d57600080fd5b506102ed61083c366004613ca9565b6129d6565b34801561084d57600080fd5b5061036d60065481565b34801561086357600080fd5b506102ed610872366004613cc6565b6129f7565b34801561088357600080fd5b506102ed610892366004613bce565b612ca6565b3480156108a357600080fd5b506102ed6108b2366004613bce565b612f17565b3480156108c357600080fd5b506102ed6108d2366004613be7565b612f35565b3480156108e357600080fd5b506102ed6108f2366004613cc6565b612f5a565b34801561090357600080fd5b506103bb610912366004613f2b565b61313f565b34801561092357600080fd5b506103bb610932366004613cc6565b6131b7565b34801561094357600080fd5b506102ed610952366004613f57565b613259565b34801561096357600080fd5b5061036d60df5481565b60006001600160e01b03198216637965db0b60e01b148061099e57506301ffc9a760e01b6001600160e01b03198316145b92915050565b6000805160206148878339815191526109bc8161327f565b60405163a9059cbb60e01b81526001600160a01b0384811660048301526024820184905285169063a9059cbb90604401602060405180830381600087803b158015610a0657600080fd5b505af1158015610a1a573d6000803e3d6000fd5b505050506040513d601f19601f82011682018060405250810190610a3e9190613fe0565b5050505050565b6000828152606c6020526040902060010154610a608161327f565b610a6a8383613289565b505050565b60d65460009081908190610a84600386614013565b610a8e919061402a565b905060006003851115610ab657610aa6600486614013565b610ab190600c61402a565b610ab9565b60005b90506002606460df5484670de0b6b3a7640000610ad6919061402a565b610ae0919061402a565b610aea919061405f565b610af4919061405f565b610aff82606461402a565b935093505050915091565b6001600160a01b0381163314610b1f57600080fd5b610b29828261330f565b5050565b610b35613376565b60dd546040516341f63bfd60e01b8152600481018590526000916001600160a01b0316906341f63bfd9060240160006040518083038186803b158015610b7a57600080fd5b505afa158015610b8e573d6000803e3d6000fd5b505050506040513d6000823e601f3d908101601f19168201604052610bb691908101906141a3565b60608101519091506001600160a01b03163314610bd257600080fd5b600683610bde836133be565b610be891906142ff565b10610bf257600080fd5b60008311610bff57600080fd5b600080610c26610c0e846133e7565b610c1785613401565b610c20866133be565b88611d7f565b915091506000610c35846133e7565b6001600160401b03811115610c4c57610c4c613d80565b604051908082528060200260200182016040528015610c75578160200160208202803683370190505b50905081816001610c85876133e7565b610c8f9190614013565b81518110610c9f57610c9f614317565b6020026020010181815250508415610d455760e0546001600160a01b0316637700db883433610ccd876120f2565b60016040518563ffffffff1660e01b8152600401610ced9392919061432d565b6020604051808303818588803b158015610d0657600080fd5b505af1158015610d1a573d6000803e3d6000fd5b50505050506040513d601f19601f82011682018060405250810190610d3f9190614350565b50610d7b565b610d7b8382604051806080016040528060011515815260200160001515815260200189151581526020016000151581525061341b565b85610d85856133be565b610d8f91906142ff565b610100850151600381518110610da757610da7614317565b602090810291909101015260dd546101008501516040516332eaadb760e21b81526001600160a01b039092169163cbaab6dc91610de9918b91906004016143a4565b600060405180830381600087803b158015610e0357600080fd5b505af1158015610e17573d6000803e3d6000fd5b5050505050505050505050565b610e2c613376565b60dc54604051635c12cd4b60e01b81523360048201526000916001600160a01b031690635c12cd4b9060240160006040518083038186803b158015610e7057600080fd5b505afa158015610e84573d6000803e3d6000fd5b505050506040513d6000823e601f3d908101601f19168201604052610eac91908101906143bd565b905060148160e001515110610ec057600080fd5b60de54604051635c138c9d60e01b81523360048201526000916001600160a01b031690635c138c9d9060240160206040518083038186803b158015610f0457600080fd5b505afa158015610f18573d6000803e3d6000fd5b505050506040513d601f19601f82011682018060405250810190610f3c9190614350565b9050808260e0015151111580610f53575060088110155b610f5c57600080fd5b600080610f6d8460e0015151610a6f565b60408051600680825260e08201909252929450909250600091906020820160c0803683370190505090508181600581518110610fab57610fab614317565b60200260200101818152505085156110515760e0546001600160a01b0316637700db883433610fd9876120f2565b60016040518563ffffffff1660e01b8152600401610ff99392919061432d565b6020604051808303818588803b15801561101257600080fd5b505af1158015611026573d6000803e3d6000fd5b50505050506040513d601f19601f8201168201806040525081019061104b9190614350565b50611087565b611087838260405180608001604052806001151581526020016000151581526020018a151581526020016000151581525061341b565b60028560e0015151600161109b91906142ff565b6110a59190614477565b156111385760dc5460405163a06bd67960e01b81526001600160a01b039091169063a06bd679906110e090339060069060039060040161448b565b602060405180830381600087803b1580156110fa57600080fd5b505af115801561110e573d6000803e3d6000fd5b505050506040513d601f19601f820116820180604052508101906111329190614350565b50611226565b8460e00151516009148061115157508460e0015151600f145b8061116157508460e00151516013145b1561119c5760dc5460405163a06bd67960e01b81526001600160a01b039091169063a06bd679906110e090339060029060039060040161448b565b60dc5460405163a06bd67960e01b81526001600160a01b039091169063a06bd679906111d290339060019060039060040161448b565b602060405180830381600087803b1580156111ec57600080fd5b505af1158015611200573d6000803e3d6000fd5b505050506040513d601f19601f820116820180604052508101906112249190614350565b505b505050505050565b6000805160206148878339815191526112468161327f565b5060d080546001600160a81b0319169055565b6000805160206148878339815191526112718161327f565b5060df55565b60008051602061488783398151915261128f8161327f565b6112976136b7565b50565b60048054604051634ca1cccb60e11b81529182018390526000916001600160a01b03909116906399439996906024015b60206040518083038186803b1580156112e257600080fd5b505afa1580156112f6573d6000803e3d6000fd5b505050506040513d601f19601f8201168201806040525081019061099e9190614350565b600754610100900460ff161580801561133a5750600754600160ff909116105b806113545750303b158015611354575060075460ff166001145b61135d57600080fd5b6007805460ff191660011790558015611380576007805461ff0019166101001790555b61138a8383611ebd565b6040805161016081018252606480825260208201819052600392820183905260026060830181905260056080840181905261138860a0850181905261022660c0860181905260e08601859052607d61010087018190526019610120880181905261014090970188905260d186905560d286905560d388905560d49490945560d59290925560d65560d75560d89190915560d95560da5560db558015610a6a576007805461ff0019169055604051600181527f7f26b83ff96e1f2b6a682f133852f6798a09c465da95921460cefb3847402498906020015b60405180910390a1505050565b6000805160206148878339815191526114868161327f565b5060e080546001600160a01b0319166001600160a01b0392909216919091179055565b60008060008085600314156114c557506127109050600b6114ed565b85600414156114db5750613a98905060166114ed565b85600514156114ed57506161a89050602c5b60646114f986826142ff565b611503908461402a565b61150d919061405f565b9150606461151b86826142ff565b611525908361402a565b61152f919061405f565b90506002606460df5484670de0b6b3a764000061154c919061402a565b611556919061402a565b611560919061405f565b61156a919061405f565b61157582606461402a565b9350935050509250929050565b61158a613376565b60dd546040516341f63bfd60e01b8152600481018690526000916001600160a01b0316906341f63bfd9060240160006040518083038186803b1580156115cf57600080fd5b505afa1580156115e3573d6000803e3d6000fd5b505050506040513d6000823e601f3d908101601f1916820160405261160b91908101906141a3565b60608101519091506001600160a01b0316331461162757600080fd5b60dd54604051630f2a280d60e21b8152600481018790526001600160a01b0390911690633ca8a0349060240160206040518083038186803b15801561166b57600080fd5b505afa15801561167f573d6000803e3d6000fd5b505050506040513d601f19601f820116820180604052508101906116a39190613fe0565b156116db5760405162461bcd60e51b81526020600482015260036024820152626f6e5160e81b60448201526064015b60405180910390fd5b60056116e6826133e7565b116117355760038411156116f957600080fd5b600583826101400151868151811061171357611713614317565b602002602001015161172591906142ff565b111561173057600080fd5b6117b2565b600a611740826133e7565b1161176d57600484111561175357600080fd5b600783826101400151868151811061171357611713614317565b600584111561177b57600080fd5b600a83826101400151868151811061179557611795614317565b60200260200101516117a791906142ff565b11156117b257600080fd5b6000806117d26117c184613401565b6117cc8860016142ff565b8761313f565b60408051601a80825261036082019092529294509092506000919060208201610340803683370190505090508661183b5781816001611810876133e7565b61181a9190614013565b8151811061182a5761182a614317565b602002602001018181525050611905565b866001141561185a57818161184f866133e7565b61181a9060046142ff565b86600214156118a15781816001611870876133e7565b61187a9190614013565b8151811061188a5761188a614317565b602002602001018181525050818161184f866133e7565b86600314156118be578181600a8151811061182a5761182a614317565b86600414156118d257818161181a866133e7565b81816118dd866133e7565b6118e89060056142ff565b815181106118f8576118f8614317565b6020026020010181815250505b841561199f5760e0546001600160a01b0316637700db883433611927876120f2565b60016040518563ffffffff1660e01b81526004016119479392919061432d565b6020604051808303818588803b15801561196057600080fd5b505af1158015611974573d6000803e3d6000fd5b50505050506040513d601f19601f820116820180604052508101906119999190614350565b506119d5565b6119d58382604051806080016040528060011515815260200160001515815260200189151581526020016000151581525061341b565b8584610140015188815181106119ed576119ed614317565b60200260200101516119ff91906142ff565b8461014001518881518110611a1657611a16614317565b602090810291909101015260dd546101408501516040516321005a3160e01b81526001600160a01b03909216916321005a3191611a58918c91906004016143a4565b600060405180830381600087803b158015611a7257600080fd5b505af1158015611a86573d6000803e3d6000fd5b505050505050505050505050565b611a9c613376565b60dc546040516334d074b360e11b8152600481018490526000916001600160a01b0316906369a0e9669060240160006040518083038186803b158015611ae157600080fd5b505afa158015611af5573d6000803e3d6000fd5b505050506040513d6000823e601f3d908101601f19168201604052611b1d91908101906144ac565b80519091506001600160a01b03163314611b3657600080fd5b6006816040015110611b4757600080fd5b600080611b5c83604001518460a001516114a9565b6040805160078082526101008201909252929450909250600091906020820160e0803683370190505090508181600681518110611b9b57611b9b614317565b6020026020010181815250508415611c415760e0546001600160a01b0316637700db883433611bc9876120f2565b60016040518563ffffffff1660e01b8152600401611be99392919061432d565b6020604051808303818588803b158015611c0257600080fd5b505af1158015611c16573d6000803e3d6000fd5b50505050506040513d601f19601f82011682018060405250810190611c3b9190614350565b50611c77565b611c778382604051806080016040528060011515815260200160001515815260200189151581526020016000151581525061341b565b60dc546040516346e2b20960e01b8152600481018890526001600160a01b03909116906346e2b209906024015b600060405180830381600087803b158015611cbe57600080fd5b505af1158015611cd2573d6000803e3d6000fd5b50505050505050505050565b600080516020614887833981519152611cf68161327f565b611297613709565b600080600080611d0e88886131b7565b9092509050611d1e866063614013565b611d28908361402a565b9150611d35866063614013565b611d3f908261402a565b9050600080611d558a8a896106f4816005614013565b9092509050611d6482856142ff565b611d6e82856142ff565b955095505050505094509492505050565b60008060058611611d905785611d93565b60055b955060006001611da48760026146c8565b611dae9190614013565b6001611dbb8960026146c8565b611dc59190614013565b60d554611dd2919061402a565b611ddc919061402a565b90506000855b611dec86886142ff565b811015611e32576002611e008260016142ff565b611e0a91906146d4565b611e14908461402a565b611e1e90836142ff565b915080611e2a816146e3565b915050611de2565b506002606460df5483670de0b6b3a7640000611e4e919061402a565b611e58919061402a565b611e62919061405f565b611e6c919061405f565b6019611e7983600a61402a565b611e83919061405f565b93509350505094509492505050565b6000918252606c602090815260408084206001600160a01b0393909316845291905290205460ff1690565b600754610100900460ff1615808015611edd5750600754600160ff909116105b80611ef75750303b158015611ef7575060075460ff166001145b611f0057600080fd5b6007805460ff191660011790558015611f23576007805461ff0019166101001790555b611f2b613746565b611f3361375a565b611f3e600084613776565b611f5660008051602061488783398151915284613776565b611f807f73e573f9566d61418a34d5de3ff49360f9c51fec37f7486551670290f6285dab84613776565b611f898261203d565b8015610a6a576007805461ff0019169055604051600181527f7f26b83ff96e1f2b6a682f133852f6798a09c465da95921460cefb384740249890602001611461565b600080516020614887833981519152611fe38161327f565b50805160d155602081015160d255604081015160d355606081015160d455608081015160d55560a081015160d65560c081015160d75560e081015160d85561010081015160d95561012081015160da55610140015160db55565b6000805160206148878339815191526120558161327f565b5060d080546001600160a81b0319166001600160a01b0390921691909117600160a01b179055565b6000805160206148878339815191526120958161327f565b604080516060810182526001600160a01b03808716808352818716602084018190529186169290930182905260dc80546001600160a01b0319908116909417905560dd80548416909117905560de80549092161790555b50505050565b6004805460405163526267fd60e11b81529182018390526000916001600160a01b039091169063a4c4cffa906024016112ca565b61212e613376565b678ac7230489e8000081116121695760405162461bcd60e51b81526020600482015260016024820152603160f81b60448201526064016116d2565b60025460405163079cc67960e41b8152336004820152602481018390526001600160a01b03909116906379cc679090604401600060405180830381600087803b1580156121b557600080fd5b505af11580156121c9573d6000803e3d6000fd5b505060de54604051635c138c9d60e01b8152336004820152600093506001600160a01b039091169150635c138c9d9060240160206040518083038186803b15801561221357600080fd5b505afa158015612227573d6000803e3d6000fd5b505050506040513d601f19601f8201168201806040525081019061224b9190614350565b9050600061225a82601961402a565b6122659060326142ff565b905060006064612275838661402a565b61227f919061405f565b61228990856142ff565b60408051601a80825261036082019092529192506000919060208201610340803683370190505090506000670de0b6b3a764000060646122ca88601961402a565b6122d4919061405f565b6122de919061405f565b905060005b601081101561231c57818382815181106122ff576122ff614317565b602090810291909101015280612314816146e3565b9150506122e3565b506000670de0b6b3a76400006123346103e88961405f565b61233f90606461402a565b612349919061405f565b9050683635c9adc5dea0000087106123ee57808360138151811061236f5761236f614317565b602090810291909101015261238581600461402a565b8360168151811061239857612398614317565b60209081029190910101526123ae81600261402a565b836017815181106123c1576123c1614317565b60200260200101818152505080836018815181106123e1576123e1614317565b6020026020010181815250505b69010f0cf064dd59200000871061246957670de0b6b3a76400006124146113888961405f565b61241e919061405f565b61242990606461402a565b8360148151811061243c5761243c614317565b602002602001018181525050808360198151811061245c5761245c614317565b6020026020010181815250505b60dc546040516304567ca960e11b81526001600160a01b03909116906308acf9529061249d903390889088906004016146fe565b600060405180830381600087803b1580156124b757600080fd5b505af11580156124cb573d6000803e3d6000fd5b505050507f90890809c654f11d6e72a28fa60149770a0d11ec6c92319d6ceb2bb0a4ea1a153388866040516125029392919061448b565b60405180910390a150505050505050565b61251b613376565b60dd546040516341f63bfd60e01b8152600481018690526000916001600160a01b0316906341f63bfd9060240160006040518083038186803b15801561256057600080fd5b505afa158015612574573d6000803e3d6000fd5b505050506040513d6000823e601f3d908101601f1916820160405261259c91908101906141a3565b60608101519091506001600160a01b031633146125b857600080fd5b60dc546040516334d074b360e11b8152600481018590526000916001600160a01b0316906369a0e9669060240160006040518083038186803b1580156125fd57600080fd5b505afa158015612611573d6000803e3d6000fd5b505050506040513d6000823e601f3d908101601f1916820160405261263991908101906144ac565b80519091506001600160a01b0316331461265257600080fd5b6101008101511561266257600080fd5b6000805b836101200151518110156126b55786846101200151828151811061268c5761268c614317565b602002602001015114156126a357600191506126b5565b806126ad816146e3565b915050612666565b50806126c057600080fd5b60dd5460405163079cc67960e41b8152336004820152602481018990526001600160a01b03909116906379cc679090604401600060405180830381600087803b15801561270c57600080fd5b505af1158015612720573d6000803e3d6000fd5b5060009250600a91506127309050565b604051908082528060200260200182016040528015612759578160200160208202803683370190505b5090506000600561276986613401565b1161277c5761277785613401565b61277f565b60055b905061278c81600561402a565b61279790601a614013565b6127a290606461402a565b826008815181106127b5576127b5614317565b6020026020010181815250506064826009815181106127d6576127d6614317565b60200260200101818152505060006002606460df54846103e86127f9919061402a565b61280590611388614013565b61281790670de0b6b3a764000061402a565b612821919061402a565b61282b919061405f565b612835919061405f565b905086156128d15760e0546001600160a01b0316637700db883433612859856120f2565b60016040518563ffffffff1660e01b81526004016128799392919061432d565b6020604051808303818588803b15801561289257600080fd5b505af11580156128a6573d6000803e3d6000fd5b50505050506040513d601f19601f820116820180604052508101906128cb9190614350565b50612907565b612907818460405180608001604052806001151581526020016000151581526020018b151581526020016000151581525061341b565b60dc546040516314472f0560e01b8152600481018a9052602481018b90526001600160a01b03909116906314472f0590604401600060405180830381600087803b15801561295457600080fd5b505af1158015612968573d6000803e3d6000fd5b505060dc54604051632da17b6560e21b8152600481018c90526001600160a01b03909116925063b685ed949150602401600060405180830381600087803b1580156129b257600080fd5b505af11580156129c6573d6000803e3d6000fd5b5050505050505050505050505050565b6000805160206148878339815191526129ee8161327f565b610b2982613780565b6129ff613376565b60dd546040516341f63bfd60e01b8152600481018490526000916001600160a01b0316906341f63bfd9060240160006040518083038186803b158015612a4457600080fd5b505afa158015612a58573d6000803e3d6000fd5b505050506040513d6000823e601f3d908101601f19168201604052612a8091908101906141a3565b60608101519091506001600160a01b03163314612a9c57600080fd5b612aa7826064614013565b612ab08261386f565b10612ae15760405162461bcd60e51b81526020600482015260016024820152603760f81b60448201526064016116d2565b600080612af9612af0846133e7565b61093285613401565b915091506000612b08846133e7565b6001600160401b03811115612b1f57612b1f613d80565b604051908082528060200260200182016040528015612b48578160200160208202803683370190505b509050612b55858361402a565b816001612b61876133e7565b612b6b9190614013565b81518110612b7b57612b7b614317565b6020908102919091010152612bbe612b93868561402a565b604080516080810182526001808252602082015260009181018290526060810191909152839061341b565b84612bc88561386f565b612bd291906142ff565b610100850151600281518110612bea57612bea614317565b602090810291909101015260dd546101008501516040516332eaadb760e21b81526001600160a01b039092169163cbaab6dc91612c2c918a91906004016143a4565b600060405180830381600087803b158015612c4657600080fd5b505af1158015612c5a573d6000803e3d6000fd5b50506040805189815260208101899052338183015290517f9f2ce95eb1432da7c0b3a6fcea410c7d3837578ef2f15d05c66ac088f95972359350908190036060019150a1505050505050565b612cae613376565b60dd546040516341f63bfd60e01b8152600481018390526000916001600160a01b0316906341f63bfd9060240160006040518083038186803b158015612cf357600080fd5b505afa158015612d07573d6000803e3d6000fd5b505050506040513d6000823e601f3d908101601f19168201604052612d2f91908101906141a3565b60608101519091506001600160a01b03163314612d4b57600080fd5b6063612d568261386f565b10612d6057600080fd5b6005612d6b826133be565b10612d7557600080fd5b600080612d9f612d84846133e7565b612d8d85613401565b612d968661386f565b6106d4876133be565b915091506000612dae846133e7565b6001600160401b03811115612dc557612dc5613d80565b604051908082528060200260200182016040528015612dee578160200160208202803683370190505b50905081816001612dfe876133e7565b612e089190614013565b81518110612e1857612e18614317565b602002602001018181525050612e5b838260405180608001604052806001151581526020016001151581526020016000151581526020016000151581525061341b565b610100840151606390600281518110612e7657612e76614317565b6020908102919091010152610100840151600590600381518110612e9c57612e9c614317565b602090810291909101015260dd546101008501516040516332eaadb760e21b81526001600160a01b039092169163cbaab6dc91612ede918991906004016143a4565b600060405180830381600087803b158015612ef857600080fd5b505af1158015612f0c573d6000803e3d6000fd5b505050505050505050565b600080516020614887833981519152612f2f8161327f565b5060d155565b6000828152606c6020526040902060010154612f508161327f565b610a6a838361330f565b612f62613376565b60dc546040516334d074b360e11b8152600481018490526000916001600160a01b0316906369a0e9669060240160006040518083038186803b158015612fa757600080fd5b505afa158015612fbb573d6000803e3d6000fd5b505050506040513d6000823e601f3d908101601f19168201604052612fe391908101906144ac565b80519091506001600160a01b03163314612ffc57600080fd5b60408051600a808252610160820190925260009160208201610140803683370190505090506113888160098151811061303757613037614317565b6020026020010181815250506130766002606460df5469021e19e0c9bab2400000613062919061402a565b61306c919061405f565b612b93919061405f565b60dc5460405163369cf5a760e21b815260048101869052602481018590526001600160a01b039091169063da73d69c90604401600060405180830381600087803b1580156130c357600080fd5b505af11580156130d7573d6000803e3d6000fd5b505060dc54604051632da17b6560e21b8152600481018890526001600160a01b03909116925063b685ed949150602401600060405180830381600087803b15801561312157600080fd5b505af1158015613135573d6000803e3d6000fd5b5050505050505050565b60008080838561315088607d61402a565b61315a919061402a565b613164919061402a565b905061317160058261405f565b91506002606460df5483670de0b6b3a764000061318e919061402a565b613198919061402a565b6131a2919061405f565b6131ac919061405f565b925050935093915050565b600080600584116131c857836131cb565b60055b9350600060016131dc8560026146c8565b6131e69190614013565b60016131f38760026146c8565b6131fd9190614013565b60d45461320a919061402a565b613214919061402a565b90506002606460df5483670de0b6b3a7640000613231919061402a565b61323b919061402a565b613245919061405f565b61324f919061405f565b9590945092505050565b6000805160206148878339815191526132718161327f565b611224878787878787613889565b611297813361391b565b6132938282611e92565b610b29576000828152606c602090815260408083206001600160a01b03851684529091529020805460ff191660011790556132cb3390565b6001600160a01b0316816001600160a01b0316837f2f8788117e7eff1d82e926ec794901d17c78024a50270940304540a733656f0d60405160405180910390a45050565b6133198282611e92565b15610b29576000828152606c602090815260408083206001600160a01b0385168085529252808320805460ff1916905551339285917ff6391f5c32d9c69d2a47ea670b442974b53935d1edc7fd64eb21e047a839171b9190a45050565b609e5460ff16156133bc5760405162461bcd60e51b815260206004820152601060248201526f14185d5cd8589b194e881c185d5cd95960821b60448201526064016116d2565b565b60008161010001516003815181106133d8576133d8614317565b60200260200101519050919050565b60008161010001516000815181106133d8576133d8614317565b60008161010001516001815181106133d8576133d8614317565b8060400151156135a25780602001511561345c5760405162461bcd60e51b8152602060048201526002602482015261070360f41b60448201526064016116d2565b805160009061346b5783613474565b613474846120f2565b6003546040516323b872dd60e01b8152336004820152306024820152604481018390529192506001600160a01b0316906323b872dd90606401602060405180830381600087803b1580156134c757600080fd5b505af11580156134db573d6000803e3d6000fd5b505050506040513d601f19601f820116820180604052508101906134ff9190613fe0565b506000606482600654613512919061402a565b61351c919061405f565b60048054604051630d3990db60e21b81529293506001600160a01b0316916334e6436c916135509185910190815260200190565b602060405180830381600087803b15801561356a57600080fd5b505af115801561357e573d6000803e3d6000fd5b505050506040513d601f19601f820116820180604052508101906112269190614350565b8060600151156135d95760405162461bcd60e51b8152602060048201526002602482015261703160f01b60448201526064016116d2565b80516000906135f0576135eb8461129a565b6135f2565b835b60055460405163b1918c9560e01b81529192506000916001600160a01b039091169063b1918c959061362c903390869089906004016146fe565b602060405180830381600087803b15801561364657600080fd5b505af115801561365a573d6000803e3d6000fd5b505050506040513d601f19601f8201168201806040525081019061367e9190613fe0565b905080610a3e5760405162461bcd60e51b81526020600482015260076024820152666e6f46756e647360c81b60448201526064016116d2565b6136bf613974565b609e805460ff191690557f5db9ee0a495bf2e6ff9c91a7834c1ba4fdd244a5e8aa4e537bd38aeae4b073aa335b6040516001600160a01b03909116815260200160405180910390a1565b613711613376565b609e805460ff191660011790557f62e78cea01bee320cd4e420270b5ea74000d11b0c9f74754ebdbfc544b05a2586136ec3390565b600754610100900460ff166133bc57600080fd5b600754610100900460ff1661376e57600080fd5b6133bc6139bd565b610b298282613289565b60008190506000816001600160a01b031663c1cc57b06040518163ffffffff1660e01b815260040160006040518083038186803b1580156137c057600080fd5b505afa1580156137d4573d6000803e3d6000fd5b505050506040513d6000823e601f3d908101601f191682016040526137fc919081019061472e565b905060005b81518110156138665781818151811061381c5761381c614317565b60209081029190910181015160008381526001909252604090912080546001600160a01b0319166001600160a01b039092169190911790558061385e816146e3565b915050613801565b50516000555050565b60008161010001516002815181106133d8576133d8614317565b600280546001600160a01b038089166001600160a01b031992831617909255600380548884169083161790556004805487841690831617905560058054928616929091169190911790556138dc82613780565b600681905560035460405163095ea7b360e01b81526001600160a01b03868116600483015260001960248301529091169063095ea7b390604401611ca4565b6139258282611e92565b610b2957613932816139dd565b61393d8360206139ef565b60405160200161394e9291906147c7565b60408051601f198184030181529082905262461bcd60e51b82526116d29160040161483c565b609e5460ff166133bc5760405162461bcd60e51b815260206004820152601460248201527314185d5cd8589b194e881b9bdd081c185d5cd95960621b60448201526064016116d2565b600754610100900460ff166139d157600080fd5b609e805460ff19169055565b606061099e6001600160a01b03831660145b606060006139fe83600261402a565b613a099060026142ff565b6001600160401b03811115613a2057613a20613d80565b6040519080825280601f01601f191660200182016040528015613a4a576020820181803683370190505b509050600360fc1b81600081518110613a6557613a65614317565b60200101906001600160f81b031916908160001a905350600f60fb1b81600181518110613a9457613a94614317565b60200101906001600160f81b031916908160001a9053506000613ab884600261402a565b613ac39060016142ff565b90505b6001811115613b3b576f181899199a1a9b1b9c1cb0b131b232b360811b85600f1660108110613af757613af7614317565b1a60f81b828281518110613b0d57613b0d614317565b60200101906001600160f81b031916908160001a90535060049490941c93613b348161486f565b9050613ac6565b508315613b4757600080fd5b9392505050565b600060208284031215613b6057600080fd5b81356001600160e01b031981168114613b4757600080fd5b6001600160a01b038116811461129757600080fd5b600080600060608486031215613ba257600080fd5b8335613bad81613b78565b92506020840135613bbd81613b78565b929592945050506040919091013590565b600060208284031215613be057600080fd5b5035919050565b60008060408385031215613bfa57600080fd5b823591506020830135613c0c81613b78565b809150509250929050565b801515811461129757600080fd5b600080600060608486031215613c3a57600080fd5b83359250602084013591506040840135613c5381613c17565b809150509250925092565b600060208284031215613c7057600080fd5b8135613b4781613c17565b60008060408385031215613c8e57600080fd5b8235613c9981613b78565b91506020830135613c0c81613b78565b600060208284031215613cbb57600080fd5b8135613b4781613b78565b60008060408385031215613cd957600080fd5b50508035926020909101359150565b60008060008060808587031215613cfe57600080fd5b8435935060208501359250604085013591506060850135613d1e81613c17565b939692955090935050565b60008060408385031215613d3c57600080fd5b823591506020830135613c0c81613c17565b60008060008060808587031215613d6457600080fd5b5050823594602084013594506040840135936060013592509050565b634e487b7160e01b600052604160045260246000fd5b60405161016081016001600160401b0381118282101715613db957613db9613d80565b60405290565b60405161018081016001600160401b0381118282101715613db957613db9613d80565b60405161010081016001600160401b0381118282101715613db957613db9613d80565b6040516101c081016001600160401b0381118282101715613db957613db9613d80565b604051601f8201601f191681016001600160401b0381118282101715613e5057613e50613d80565b604052919050565b60006101608284031215613e6b57600080fd5b613e73613d96565b823581526020830135602082015260408301356040820152606083013560608201526080830135608082015260a083013560a082015260c083013560c082015260e083013560e08201526101008084013581830152506101208084013581830152506101408084013581830152508091505092915050565b600080600060608486031215613f0057600080fd5b8335613f0b81613b78565b92506020840135613f1b81613b78565b91506040840135613c5381613b78565b600080600060608486031215613f4057600080fd5b505081359360208301359350604090920135919050565b60008060008060008060c08789031215613f7057600080fd5b8635613f7b81613b78565b95506020870135613f8b81613b78565b94506040870135613f9b81613b78565b93506060870135613fab81613b78565b92506080870135613fbb81613b78565b8092505060a087013590509295509295509295565b8051613fdb81613c17565b919050565b600060208284031215613ff257600080fd5b8151613b4781613c17565b634e487b7160e01b600052601160045260246000fd5b60008282101561402557614025613ffd565b500390565b600081600019048311821515161561404457614044613ffd565b500290565b634e487b7160e01b600052601260045260246000fd5b60008261406e5761406e614049565b500490565b60005b8381101561408e578181015183820152602001614076565b838111156120ec5750506000910152565b600082601f8301126140b057600080fd5b81516001600160401b038111156140c9576140c9613d80565b6140dc601f8201601f1916602001613e28565b8181528460208386010111156140f157600080fd5b614102826020830160208701614073565b949350505050565b8051613fdb81613b78565b60006001600160401b0382111561412e5761412e613d80565b5060051b60200190565b600082601f83011261414957600080fd5b8151602061415e61415983614115565b613e28565b82815260059290921b8401810191818101908684111561417d57600080fd5b8286015b848110156141985780518352918301918301614181565b509695505050505050565b6000602082840312156141b557600080fd5b81516001600160401b03808211156141cc57600080fd5b9083019061018082860312156141e157600080fd5b6141e9613dbf565b825181526020830151828111156141ff57600080fd5b61420b8782860161409f565b60208301525060408301518281111561422357600080fd5b61422f8782860161409f565b6040830152506142416060840161410a565b60608201526080830151608082015260a083015160a082015260c083015160c082015260e083015160e0820152610100808401518381111561428257600080fd5b61428e88828701614138565b82840152505061012080840151838111156142a857600080fd5b6142b488828701614138565b82840152505061014080840151838111156142ce57600080fd5b6142da88828701614138565b82840152505061016091506142f0828401613fd0565b91810191909152949350505050565b6000821982111561431257614312613ffd565b500190565b634e487b7160e01b600052603260045260246000fd5b6001600160a01b0393909316835260208301919091521515604082015260600190565b60006020828403121561436257600080fd5b5051919050565b600081518084526020808501945080840160005b838110156143995781518752958201959082019060010161437d565b509495945050505050565b8281526040602082015260006141026040830184614369565b6000602082840312156143cf57600080fd5b81516001600160401b03808211156143e657600080fd5b9083019061010082860312156143fb57600080fd5b614403613de2565b825181526020830151602082015260408301516040820152606083015160608201526144316080840161410a565b608082015260a083015160a082015260c083015160c082015260e08301518281111561445c57600080fd5b61446887828601614138565b60e08301525095945050505050565b60008261448657614486614049565b500690565b6001600160a01b039390931683526020830191909152604082015260600190565b6000602082840312156144be57600080fd5b81516001600160401b03808211156144d557600080fd5b908301906101c082860312156144ea57600080fd5b6144f2613e05565b6144fb8361410a565b81526020830151602082015260408301516040820152606083015160608201526080830151608082015260a083015160a082015260c083015160c082015260e083015160e0820152610100808401518183015250610120808401518183015250610140808401518183015250610160808401518381111561457b57600080fd5b61458788828701614138565b82840152505061018080840151838111156145a157600080fd5b6145ad88828701614138565b8284015250506101a080840151838111156145c757600080fd5b6145d388828701614138565b918301919091525095945050505050565b600181815b8085111561461f57816000190482111561460557614605613ffd565b8085161561461257918102915b93841c93908002906145e9565b509250929050565b6000826146365750600161099e565b816146435750600061099e565b816001811461465957600281146146635761467f565b600191505061099e565b60ff84111561467457614674613ffd565b50506001821b61099e565b5060208310610133831016604e8410600b84101617156146a2575081810a61099e565b6146ac83836145e4565b80600019048211156146c0576146c0613ffd565b029392505050565b6000613b478383614627565b6000613b4760ff841683614627565b60006000198214156146f7576146f7613ffd565b5060010190565b60018060a01b03841681528260208201526060604082015260006147256060830184614369565b95945050505050565b6000602080838503121561474157600080fd5b82516001600160401b0381111561475757600080fd5b8301601f8101851361476857600080fd5b805161477661415982614115565b81815260059190911b8201830190838101908783111561479557600080fd5b928401925b828410156147bc5783516147ad81613b78565b8252928401929084019061479a565b979650505050505050565b7f416363657373436f6e74726f6c3a206163636f756e74200000000000000000008152600083516147ff816017850160208801614073565b7001034b99036b4b9b9b4b733903937b6329607d1b6017918401918201528351614830816028840160208801614073565b01602801949350505050565b602081526000825180602084015261485b816040850160208701614073565b601f01601f19169190910160400192915050565b60008161487e5761487e613ffd565b50600019019056fe97667070c54ef182b0f5858b034beac1b6f3089aa2d3188bb1e8929f4fa9b929a26469706673582212200949f0f4e50490ca68142088f8565d74c4c4f0edb36b8257f1f92a6b483ca66764736f6c63430008090033",
  "linkReferences": {},
  "deployedLinkReferences": {}
}