{
  "_format": "hh-sol-artifact-1",
  "contractName": "BkUpgrades",
  "sourceName": "contracts/features/BkUpgrades.sol",
  "abi": [
    {
      "anonymous": false,
      "inputs": [
        {
          "indexed": false,
          "internalType": "address",
          "name": "sender",
          "type": "address"
        },
        {
          "indexed": false,
          "internalType": "uint256",
          "name": "amount",
          "type": "uint256"
        },
        {
          "indexed": false,
          "internalType": "uint256",
          "name": "amountWithBonus",
          "type": "uint256"
        }
      ],
      "name": "Deposit",
      "type": "event"
    },
    {
      "anonymous": false,
      "inputs": [
        {
          "indexed": false,
          "internalType": "uint8",
          "name": "version",
          "type": "uint8"
        }
      ],
      "name": "Initialized",
      "type": "event"
    },
    {
      "anonymous": false,
      "inputs": [
        {
          "indexed": false,
          "internalType": "address",
          "name": "account",
          "type": "address"
        }
      ],
      "name": "Paused",
      "type": "event"
    },
    {
      "anonymous": false,
      "inputs": [
        {
          "indexed": false,
          "internalType": "uint256",
          "name": "nftId",
          "type": "uint256"
        },
        {
          "indexed": false,
          "internalType": "uint256",
          "name": "ranks",
          "type": "uint256"
        },
        {
          "indexed": false,
          "internalType": "address",
          "name": "owner",
          "type": "address"
        }
      ],
      "name": "RankUp",
      "type": "event"
    },
    {
      "anonymous": false,
      "inputs": [
        {
          "indexed": true,
          "internalType": "bytes32",
          "name": "role",
          "type": "bytes32"
        },
        {
          "indexed": true,
          "internalType": "bytes32",
          "name": "previousAdminRole",
          "type": "bytes32"
        },
        {
          "indexed": true,
          "internalType": "bytes32",
          "name": "newAdminRole",
          "type": "bytes32"
        }
      ],
      "name": "RoleAdminChanged",
      "type": "event"
    },
    {
      "anonymous": false,
      "inputs": [
        {
          "indexed": true,
          "internalType": "bytes32",
          "name": "role",
          "type": "bytes32"
        },
        {
          "indexed": true,
          "internalType": "address",
          "name": "account",
          "type": "address"
        },
        {
          "indexed": true,
          "internalType": "address",
          "name": "sender",
          "type": "address"
        }
      ],
      "name": "RoleGranted",
      "type": "event"
    },
    {
      "anonymous": false,
      "inputs": [
        {
          "indexed": true,
          "internalType": "bytes32",
          "name": "role",
          "type": "bytes32"
        },
        {
          "indexed": true,
          "internalType": "address",
          "name": "account",
          "type": "address"
        },
        {
          "indexed": true,
          "internalType": "address",
          "name": "sender",
          "type": "address"
        }
      ],
      "name": "RoleRevoked",
      "type": "event"
    },
    {
      "anonymous": false,
      "inputs": [
        {
          "indexed": false,
          "internalType": "address",
          "name": "account",
          "type": "address"
        }
      ],
      "name": "Unpaused",
      "type": "event"
    },
    {
      "inputs": [],
      "name": "DEFAULT_ADMIN_ROLE",
      "outputs": [
        {
          "internalType": "bytes32",
          "name": "",
          "type": "bytes32"
        }
      ],
      "stateMutability": "view",
      "type": "function"
    },
    {
      "inputs": [
        {
          "internalType": "address",
          "name": "_operator",
          "type": "address"
        },
        {
          "internalType": "address",
          "name": "_blocklistAddress",
          "type": "address"
        }
      ],
      "name": "__Administrable_init",
      "outputs": [],
      "stateMutability": "nonpayable",
      "type": "function"
    },
    {
      "inputs": [],
      "name": "_resetBlocklist",
      "outputs": [],
      "stateMutability": "nonpayable",
      "type": "function"
    },
    {
      "inputs": [],
      "name": "autoReturnRate",
      "outputs": [
        {
          "internalType": "uint256",
          "name": "",
          "type": "uint256"
        }
      ],
      "stateMutability": "view",
      "type": "function"
    },
    {
      "inputs": [
        {
          "internalType": "uint256",
          "name": "bctAmount",
          "type": "uint256"
        }
      ],
      "name": "bctToStabletoken",
      "outputs": [
        {
          "internalType": "uint256",
          "name": "",
          "type": "uint256"
        }
      ],
      "stateMutability": "view",
      "type": "function"
    },
    {
      "inputs": [
        {
          "internalType": "uint256",
          "name": "nftId",
          "type": "uint256"
        },
        {
          "internalType": "uint256",
          "name": "levels",
          "type": "uint256"
        },
        {
          "internalType": "bool",
          "name": "withBusd",
          "type": "bool"
        }
      ],
      "name": "buyAgilityUp",
      "outputs": [],
      "stateMutability": "nonpayable",
      "type": "function"
    },
    {
      "inputs": [
        {
          "internalType": "uint256",
          "name": "squadId",
          "type": "uint256"
        },
        {
          "internalType": "bool",
          "name": "withBusd",
          "type": "bool"
        }
      ],
      "name": "buyExtraSlot",
      "outputs": [],
      "stateMutability": "nonpayable",
      "type": "function"
    },
    {
      "inputs": [
        {
          "internalType": "bool",
          "name": "withBusd",
          "type": "bool"
        }
      ],
      "name": "buyExtraSquad",
      "outputs": [],
      "stateMutability": "nonpayable",
      "type": "function"
    },
    {
      "inputs": [
        {
          "internalType": "uint256",
          "name": "nftId",
          "type": "uint256"
        }
      ],
      "name": "buyMaxOutRankAgility",
      "outputs": [],
      "stateMutability": "nonpayable",
      "type": "function"
    },
    {
      "inputs": [
        {
          "internalType": "uint256",
          "name": "nftId",
          "type": "uint256"
        },
        {
          "internalType": "uint256",
          "name": "ranks",
          "type": "uint256"
        }
      ],
      "name": "buyRankUp",
      "outputs": [],
      "stateMutability": "nonpayable",
      "type": "function"
    },
    {
      "inputs": [
        {
          "internalType": "uint256",
          "name": "nftId",
          "type": "uint256"
        },
        {
          "internalType": "uint256",
          "name": "skillIndex",
          "type": "uint256"
        },
        {
          "internalType": "uint256",
          "name": "levels",
          "type": "uint256"
        },
        {
          "internalType": "bool",
          "name": "withBusd",
          "type": "bool"
        }
      ],
      "name": "buySkillLevel",
      "outputs": [],
      "stateMutability": "nonpayable",
      "type": "function"
    },
    {
      "inputs": [],
      "name": "config",
      "outputs": [
        {
          "internalType": "uint256",
          "name": "autoReturnRate",
          "type": "uint256"
        },
        {
          "internalType": "uint256",
          "name": "cooldownInBlocks",
          "type": "uint256"
        },
        {
          "internalType": "uint256",
          "name": "depositBonus",
          "type": "uint256"
        },
        {
          "internalType": "uint256",
          "name": "rankUpPrice",
          "type": "uint256"
        },
        {
          "internalType": "uint256",
          "name": "agilityUpPrice",
          "type": "uint256"
        },
        {
          "internalType": "uint256",
          "name": "extraSquadPrice",
          "type": "uint256"
        },
        {
          "internalType": "uint256",
          "name": "mentorPrice",
          "type": "uint256"
        },
        {
          "internalType": "uint256",
          "name": "merchantPrice",
          "type": "uint256"
        },
        {
          "internalType": "uint256",
          "name": "skillPrice",
          "type": "uint256"
        },
        {
          "internalType": "uint256",
          "name": "ritualPrice",
          "type": "uint256"
        },
        {
          "internalType": "uint256",
          "name": "maxIntegrationType",
          "type": "uint256"
        }
      ],
      "stateMutability": "view",
      "type": "function"
    },
    {
      "inputs": [],
      "name": "contracts",
      "outputs": [
        {
          "internalType": "contract IBkFarm",
          "name": "farm",
          "type": "address"
        },
        {
          "internalType": "contract IBkNft",
          "name": "nft",
          "type": "address"
        },
        {
          "internalType": "contract IBkStasher",
          "name": "stasher",
          "type": "address"
        }
      ],
      "stateMutability": "view",
      "type": "function"
    },
    {
      "inputs": [
        {
          "internalType": "uint256",
          "name": "amount",
          "type": "uint256"
        }
      ],
      "name": "deposit",
      "outputs": [],
      "stateMutability": "nonpayable",
      "type": "function"
    },
    {
      "inputs": [
        {
          "internalType": "uint256",
          "name": "nftId",
          "type": "uint256"
        },
        {
          "internalType": "uint256",
          "name": "traitToExtract",
          "type": "uint256"
        },
        {
          "internalType": "uint256",
          "name": "squadToGetTrait",
          "type": "uint256"
        },
        {
          "internalType": "bool",
          "name": "withBusd",
          "type": "bool"
        }
      ],
      "name": "extractTrait",
      "outputs": [],
      "stateMutability": "nonpayable",
      "type": "function"
    },
    {
      "inputs": [
        {
          "internalType": "uint256",
          "name": "species",
          "type": "uint256"
        },
        {
          "internalType": "uint256",
          "name": "rarity",
          "type": "uint256"
        },
        {
          "internalType": "uint256",
          "name": "currentAgility",
          "type": "uint256"
        },
        {
          "internalType": "uint256",
          "name": "levels",
          "type": "uint256"
        }
      ],
      "name": "getAgilityUpPrices",
      "outputs": [
        {
          "internalType": "uint256",
          "name": "bct",
          "type": "uint256"
        },
        {
          "internalType": "uint256",
          "name": "resourceCents",
          "type": "uint256"
        }
      ],
      "stateMutability": "view",
      "type": "function"
    },
    {
      "inputs": [
        {
          "internalType": "uint256",
          "name": "currentSize",
          "type": "uint256"
        },
        {
          "internalType": "uint256",
          "name": "squadBonus",
          "type": "uint256"
        }
      ],
      "name": "getExtraSlotPrices",
      "outputs": [
        {
          "internalType": "uint256",
          "name": "bct",
          "type": "uint256"
        },
        {
          "internalType": "uint256",
          "name": "resourceCents",
          "type": "uint256"
        }
      ],
      "stateMutability": "view",
      "type": "function"
    },
    {
      "inputs": [
        {
          "internalType": "uint256",
          "name": "currentSquads",
          "type": "uint256"
        }
      ],
      "name": "getExtraSquadPrices",
      "outputs": [
        {
          "internalType": "uint256",
          "name": "bct",
          "type": "uint256"
        },
        {
          "internalType": "uint256",
          "name": "resourceCents",
          "type": "uint256"
        }
      ],
      "stateMutability": "view",
      "type": "function"
    },
    {
      "inputs": [
        {
          "internalType": "uint256",
          "name": "species",
          "type": "uint256"
        },
        {
          "internalType": "uint256",
          "name": "rarity",
          "type": "uint256"
        },
        {
          "internalType": "uint256",
          "name": "currentRank",
          "type": "uint256"
        },
        {
          "internalType": "uint256",
          "name": "currentAgility",
          "type": "uint256"
        }
      ],
      "name": "getMaxOutRankAgilityPrices",
      "outputs": [
        {
          "internalType": "uint256",
          "name": "bct",
          "type": "uint256"
        },
        {
          "internalType": "uint256",
          "name": "resourceCents",
          "type": "uint256"
        }
      ],
      "stateMutability": "view",
      "type": "function"
    },
    {
      "inputs": [
        {
          "internalType": "uint256",
          "name": "species",
          "type": "uint256"
        },
        {
          "internalType": "uint256",
          "name": "rarity",
          "type": "uint256"
        }
      ],
      "name": "getRankUpPrices",
      "outputs": [
        {
          "internalType": "uint256",
          "name": "bct",
          "type": "uint256"
        },
        {
          "internalType": "uint256",
          "name": "resourceCents",
          "type": "uint256"
        }
      ],
      "stateMutability": "view",
      "type": "function"
    },
    {
      "inputs": [
        {
          "internalType": "bytes32",
          "name": "role",
          "type": "bytes32"
        }
      ],
      "name": "getRoleAdmin",
      "outputs": [
        {
          "internalType": "bytes32",
          "name": "",
          "type": "bytes32"
        }
      ],
      "stateMutability": "view",
      "type": "function"
    },
    {
      "inputs": [
        {
          "internalType": "uint256",
          "name": "rarity",
          "type": "uint256"
        },
        {
          "internalType": "uint256",
          "name": "weight",
          "type": "uint256"
        },
        {
          "internalType": "uint256",
          "name": "levels",
          "type": "uint256"
        }
      ],
      "name": "getSkillLevelPrices",
      "outputs": [
        {
          "internalType": "uint256",
          "name": "bct",
          "type": "uint256"
        },
        {
          "internalType": "uint256",
          "name": "resourceCents",
          "type": "uint256"
        }
      ],
      "stateMutability": "view",
      "type": "function"
    },
    {
      "inputs": [
        {
          "internalType": "bytes32",
          "name": "role",
          "type": "bytes32"
        },
        {
          "internalType": "address",
          "name": "account",
          "type": "address"
        }
      ],
      "name": "grantRole",
      "outputs": [],
      "stateMutability": "nonpayable",
      "type": "function"
    },
    {
      "inputs": [],
      "name": "hasBlocklist",
      "outputs": [
        {
          "internalType": "bool",
          "name": "",
          "type": "bool"
        }
      ],
      "stateMutability": "view",
      "type": "function"
    },
    {
      "inputs": [
        {
          "internalType": "bytes32",
          "name": "role",
          "type": "bytes32"
        },
        {
          "internalType": "address",
          "name": "account",
          "type": "address"
        }
      ],
      "name": "hasRole",
      "outputs": [
        {
          "internalType": "bool",
          "name": "",
          "type": "bool"
        }
      ],
      "stateMutability": "view",
      "type": "function"
    },
    {
      "inputs": [
        {
          "internalType": "address",
          "name": "_operator",
          "type": "address"
        },
        {
          "internalType": "address",
          "name": "_blocklist",
          "type": "address"
        }
      ],
      "name": "initialize",
      "outputs": [],
      "stateMutability": "nonpayable",
      "type": "function"
    },
    {
      "inputs": [],
      "name": "pause",
      "outputs": [],
      "stateMutability": "nonpayable",
      "type": "function"
    },
    {
      "inputs": [],
      "name": "paused",
      "outputs": [
        {
          "internalType": "bool",
          "name": "",
          "type": "bool"
        }
      ],
      "stateMutability": "view",
      "type": "function"
    },
    {
      "inputs": [],
      "name": "paymentContracts",
      "outputs": [
        {
          "internalType": "contract IBkERC20",
          "name": "bct",
          "type": "address"
        },
        {
          "internalType": "contract IBkERC20",
          "name": "busd",
          "type": "address"
        },
        {
          "internalType": "contract ICommunityPool",
          "name": "pool",
          "type": "address"
        },
        {
          "internalType": "contract IBkFarm",
          "name": "farm",
          "type": "address"
        }
      ],
      "stateMutability": "view",
      "type": "function"
    },
    {
      "inputs": [
        {
          "internalType": "address",
          "name": "tokenAddress",
          "type": "address"
        },
        {
          "internalType": "address",
          "name": "to",
          "type": "address"
        },
        {
          "internalType": "uint256",
          "name": "amount",
          "type": "uint256"
        }
      ],
      "name": "recoverERC20",
      "outputs": [],
      "stateMutability": "nonpayable",
      "type": "function"
    },
    {
      "inputs": [
        {
          "internalType": "bytes32",
          "name": "role",
          "type": "bytes32"
        },
        {
          "internalType": "address",
          "name": "account",
          "type": "address"
        }
      ],
      "name": "renounceRole",
      "outputs": [],
      "stateMutability": "nonpayable",
      "type": "function"
    },
    {
      "inputs": [
        {
          "internalType": "uint256",
          "name": "",
          "type": "uint256"
        }
      ],
      "name": "resources",
      "outputs": [
        {
          "internalType": "address",
          "name": "",
          "type": "address"
        }
      ],
      "stateMutability": "view",
      "type": "function"
    },
    {
      "inputs": [],
      "name": "resourcesCount",
      "outputs": [
        {
          "internalType": "uint256",
          "name": "",
          "type": "uint256"
        }
      ],
      "stateMutability": "view",
      "type": "function"
    },
    {
      "inputs": [
        {
          "internalType": "bytes32",
          "name": "role",
          "type": "bytes32"
        },
        {
          "internalType": "address",
          "name": "account",
          "type": "address"
        }
      ],
      "name": "revokeRole",
      "outputs": [],
      "stateMutability": "nonpayable",
      "type": "function"
    },
    {
      "inputs": [],
      "name": "scale",
      "outputs": [
        {
          "internalType": "uint256",
          "name": "",
          "type": "uint256"
        }
      ],
      "stateMutability": "view",
      "type": "function"
    },
    {
      "inputs": [
        {
          "internalType": "uint256",
          "name": "_autoReturnRate",
          "type": "uint256"
        }
      ],
      "name": "setAutoReturnRate",
      "outputs": [],
      "stateMutability": "nonpayable",
      "type": "function"
    },
    {
      "inputs": [
        {
          "internalType": "address",
          "name": "blocklistAddress",
          "type": "address"
        }
      ],
      "name": "setBlocklist",
      "outputs": [],
      "stateMutability": "nonpayable",
      "type": "function"
    },
    {
      "inputs": [
        {
          "components": [
            {
              "internalType": "uint256",
              "name": "autoReturnRate",
              "type": "uint256"
            },
            {
              "internalType": "uint256",
              "name": "cooldownInBlocks",
              "type": "uint256"
            },
            {
              "internalType": "uint256",
              "name": "depositBonus",
              "type": "uint256"
            },
            {
              "internalType": "uint256",
              "name": "rankUpPrice",
              "type": "uint256"
            },
            {
              "internalType": "uint256",
              "name": "agilityUpPrice",
              "type": "uint256"
            },
            {
              "internalType": "uint256",
              "name": "extraSquadPrice",
              "type": "uint256"
            },
            {
              "internalType": "uint256",
              "name": "mentorPrice",
              "type": "uint256"
            },
            {
              "internalType": "uint256",
              "name": "merchantPrice",
              "type": "uint256"
            },
            {
              "internalType": "uint256",
              "name": "skillPrice",
              "type": "uint256"
            },
            {
              "internalType": "uint256",
              "name": "ritualPrice",
              "type": "uint256"
            },
            {
              "internalType": "uint256",
              "name": "maxIntegrationType",
              "type": "uint256"
            }
          ],
          "internalType": "struct BkUpgrades.Config",
          "name": "_config",
          "type": "tuple"
        }
      ],
      "name": "setConfig",
      "outputs": [],
      "stateMutability": "nonpayable",
      "type": "function"
    },
    {
      "inputs": [
        {
          "internalType": "address",
          "name": "_farm",
          "type": "address"
        },
        {
          "internalType": "address",
          "name": "_nft",
          "type": "address"
        },
        {
          "internalType": "address",
          "name": "_stasher",
          "type": "address"
        }
      ],
      "name": "setContracts",
      "outputs": [],
      "stateMutability": "nonpayable",
      "type": "function"
    },
    {
      "inputs": [
        {
          "internalType": "uint256",
          "name": "_scale",
          "type": "uint256"
        }
      ],
      "name": "setScale",
      "outputs": [],
      "stateMutability": "nonpayable",
      "type": "function"
    },
    {
      "inputs": [
        {
          "internalType": "uint256",
          "name": "squadId",
          "type": "uint256"
        },
        {
          "internalType": "uint256",
          "name": "newType",
          "type": "uint256"
        }
      ],
      "name": "setSquadType",
      "outputs": [],
      "stateMutability": "nonpayable",
      "type": "function"
    },
    {
      "inputs": [
        {
          "internalType": "address",
          "name": "_bct",
          "type": "address"
        },
        {
          "internalType": "address",
          "name": "_busd",
          "type": "address"
        },
        {
          "internalType": "address",
          "name": "_pool",
          "type": "address"
        },
        {
          "internalType": "address",
          "name": "_farm",
          "type": "address"
        },
        {
          "internalType": "address",
          "name": "_resourcesSource",
          "type": "address"
        },
        {
          "internalType": "uint256",
          "name": "_autoReturnRate",
          "type": "uint256"
        }
      ],
      "name": "setupPaymentModule",
      "outputs": [],
      "stateMutability": "nonpayable",
      "type": "function"
    },
    {
      "inputs": [
        {
          "internalType": "uint256",
          "name": "busdAmount",
          "type": "uint256"
        }
      ],
      "name": "stabletokenToBct",
      "outputs": [
        {
          "internalType": "uint256",
          "name": "",
          "type": "uint256"
        }
      ],
      "stateMutability": "view",
      "type": "function"
    },
    {
      "inputs": [
        {
          "internalType": "bytes4",
          "name": "interfaceId",
          "type": "bytes4"
        }
      ],
      "name": "supportsInterface",
      "outputs": [
        {
          "internalType": "bool",
          "name": "",
          "type": "bool"
        }
      ],
      "stateMutability": "view",
      "type": "function"
    },
    {
      "inputs": [],
      "name": "unpause",
      "outputs": [],
      "stateMutability": "nonpayable",
      "type": "function"
    },
    {
      "inputs": [
        {
          "internalType": "address",
          "name": "sourceContract",
          "type": "address"
        }
      ],
      "name": "updateResources",
      "outputs": [],
      "stateMutability": "nonpayable",
      "type": "function"
    }
  ],
  "bytecode": "0x608060405234801561001057600080fd5b506142d8806100206000396000f3fe608060405234801561001057600080fd5b506004361061028a5760003560e01c80638456cb591161015c578063be505d08116100ce578063d547741f11610087578063d547741f146106a7578063da73d69c146106ba578063dd18f91b146106cd578063e1f3c3d4146106e0578063f4b93f45146106f3578063f51e181a1461070657600080fd5b8063be505d081461063f578063c3c87d5314610652578063c429d34914610665578063c53225761461066e578063cf3da80414610681578063cfe5aa281461069457600080fd5b8063a217fddf11610120578063a217fddf146105d8578063a75faf5d146105e0578063aef18ae7146105f3578063b3066d4914610606578063b5f63f6014610619578063b6b55f251461062c57600080fd5b80638456cb5914610584578063858768351461058c5780638c0dd9c51461059f57806391d14854146105b2578063931da89b146105c557600080fd5b80633edc351911610200578063634210f4116101b9578063634210f4146104685780636721a4df1461047c5780636c0f79b61461048f57806376a8612f146104d957806379502c55146104ec5780637cf295511461057157600080fd5b80633edc3519146104135780633f4ba83a1461042657806341e80ad91461042e578063485cc9551461044157806351ac7b8c146104545780635c975abb1461045d57600080fd5b80632f2ff15d116102525780632f2ff15d146103465780632f467f4e14610359578063323b6cb71461038157806336568abe146103da57806338d4588d146103ed5780633c5b364c1461040057600080fd5b806301ffc9a71461028f57806306a45070146102b75780631171bda9146102c1578063244d6daa146102d4578063248a9ca314610315575b600080fd5b6102a261029d36600461358e565b61070f565b60405190151581526020015b60405180910390f35b6102bf610746565b005b6102bf6102cf3660046135cd565b610771565b6102fd6102e236600461360e565b6001602052600090815260409020546001600160a01b031681565b6040516001600160a01b0390911681526020016102ae565b61033861032336600461360e565b6000908152606c602052604090206001015490565b6040519081526020016102ae565b6102bf610354366004613627565b610812565b61036c61036736600461360e565b61083c565b604080519283526020830191909152016102ae565b6002546003546004546005546103a7936001600160a01b03908116938116928116911684565b604080516001600160a01b03958616815293851660208501529184169183019190915290911660608201526080016102ae565b6102bf6103e8366004613627565b6108d7565b6102bf6103fb366004613665565b6108fa565b6102bf61040e36600461369e565b610b57565b6102bf61042136600461360e565b610ec1565b6102bf610edf565b61033861043c36600461360e565b610f02565b6102bf61044f3660046136bb565b610f82565b61033860005481565b609e5460ff166102a2565b60d0546102a290600160a01b900460ff1681565b61036c61048a3660046136e9565b6110d6565b60dc5460dd5460de546104af926001600160a01b03908116928116911683565b604080516001600160a01b03948516815292841660208401529216918101919091526060016102ae565b6102bf6104e736600461370b565b6111af565b60d15460d25460d35460d45460d55460d65460d75460d85460d95460da5460db5461051e9a999897969594939291908b565b604080519b8c5260208c019a909a52988a01979097526060890195909552608088019390935260a087019190915260c086015260e0850152610100840152610120830152610140820152610160016102ae565b6102bf61057f36600461374c565b611627565b6102bf6117d7565b61036c61059a366004613771565b6117f7565b61036c6105ad366004613771565b611878565b6102a26105c0366004613627565b61198b565b6102bf6105d33660046136bb565b6119b6565b610338600081565b6102bf6105ee36600461387b565b611ac4565b6102bf61060136600461390e565b611b36565b6102bf61061436600461392b565b611b76565b61033861062736600461360e565b611beb565b6102bf61063a36600461360e565b611c1f565b6102bf61064d36600461370b565b612015565b6102bf61066036600461390e565b612438565b61033860065481565b6102bf61067c3660046136e9565b612459565b6102bf61068f36600461360e565b612708565b6102bf6106a236600461360e565b612979565b6102bf6106b5366004613627565b612997565b6102bf6106c83660046136e9565b6129bc565b61036c6106db36600461396b565b612ba0565b61036c6106ee3660046136e9565b612c18565b6102bf610701366004613997565b612cba565b61033860df5481565b60006001600160e01b03198216637965db0b60e01b148061074057506301ffc9a760e01b6001600160e01b03198316145b92915050565b60008051602061428383398151915261075e81612ce0565b5060d080546001600160a81b0319169055565b60008051602061428383398151915261078981612ce0565b60405163a9059cbb60e01b81526001600160a01b0384811660048301526024820184905285169063a9059cbb90604401602060405180830381600087803b1580156107d357600080fd5b505af11580156107e7573d6000803e3d6000fd5b505050506040513d601f19601f8201168201806040525081019061080b9190613a20565b5050505050565b6000828152606c602052604090206001015461082d81612ce0565b6108378383612cea565b505050565b60d65460009081908190610851600386613a53565b61085b9190613a6a565b90506000600385111561088357610873600486613a53565b61087e90600c613a6a565b610886565b60005b90506002606460df5484670de0b6b3a76400006108a39190613a6a565b6108ad9190613a6a565b6108b79190613a9f565b6108c19190613a9f565b6108cc826064613a6a565b935093505050915091565b6001600160a01b03811633146108ec57600080fd5b6108f68282612d70565b5050565b610902612dd7565b60dd546040516341f63bfd60e01b8152600481018590526000916001600160a01b0316906341f63bfd9060240160006040518083038186803b15801561094757600080fd5b505afa15801561095b573d6000803e3d6000fd5b505050506040513d6000823e601f3d908101601f191682016040526109839190810190613be3565b60608101519091506001600160a01b0316331461099f57600080fd5b6006836109ab83612e1f565b6109b59190613d3f565b106109bf57600080fd5b600083116109cc57600080fd5b6000806109f36109db84612e48565b6109e485612e62565b6109ed86612e1f565b88611878565b915091506000610a0284612e48565b6001600160401b03811115610a1957610a196137a3565b604051908082528060200260200182016040528015610a42578160200160208202803683370190505b50905081816001610a5287612e48565b610a5c9190613a53565b81518110610a6c57610a6c613d57565b602002602001018181525050610aae83826040518060800160405280600115158152602001600015158152602001891515815260200160001515815250612e7c565b85610ab885612e1f565b610ac29190613d3f565b610100850151600381518110610ada57610ada613d57565b602090810291909101015260dd546101008501516040516332eaadb760e21b81526001600160a01b039092169163cbaab6dc91610b1c918b9190600401613da8565b600060405180830381600087803b158015610b3657600080fd5b505af1158015610b4a573d6000803e3d6000fd5b5050505050505050505050565b610b5f612dd7565b60dc54604051635c12cd4b60e01b81523360048201526000916001600160a01b031690635c12cd4b9060240160006040518083038186803b158015610ba357600080fd5b505afa158015610bb7573d6000803e3d6000fd5b505050506040513d6000823e601f3d908101601f19168201604052610bdf9190810190613dc1565b905060148160e001515110610bf357600080fd5b60de54604051635c138c9d60e01b81523360048201526000916001600160a01b031690635c138c9d9060240160206040518083038186803b158015610c3757600080fd5b505afa158015610c4b573d6000803e3d6000fd5b505050506040513d601f19601f82011682018060405250810190610c6f9190613e7b565b9050808260e0015151111580610c86575060088110155b610c8f57600080fd5b600080610ca08460e001515161083c565b60408051600680825260e08201909252929450909250600091906020820160c0803683370190505090508181600581518110610cde57610cde613d57565b602002602001018181525050610d20838260405180608001604052806001151581526020016000151581526020018a1515815260200160001515815250612e7c565b60028560e00151516001610d349190613d3f565b610d3e9190613e94565b15610dce5760dc5460405163c1b712c760e01b8152336004820152600660248201526001600160a01b039091169063c1b712c7906044015b602060405180830381600087803b158015610d9057600080fd5b505af1158015610da4573d6000803e3d6000fd5b505050506040513d601f19601f82011682018060405250810190610dc89190613e7b565b50610eb9565b8460e001515160091480610de757508460e0015151600f145b80610df757508460e00151516013145b15610e335760dc5460405163c1b712c760e01b8152336004820152600260248201526001600160a01b039091169063c1b712c790604401610d76565b60dc5460405163c1b712c760e01b8152336004820152600160248201526001600160a01b039091169063c1b712c790604401602060405180830381600087803b158015610e7f57600080fd5b505af1158015610e93573d6000803e3d6000fd5b505050506040513d601f19601f82011682018060405250810190610eb79190613e7b565b505b505050505050565b600080516020614283833981519152610ed981612ce0565b5060df55565b600080516020614283833981519152610ef781612ce0565b610eff6130f7565b50565b60048054604051634ca1cccb60e11b81529182018390526000916001600160a01b03909116906399439996906024015b60206040518083038186803b158015610f4a57600080fd5b505afa158015610f5e573d6000803e3d6000fd5b505050506040513d601f19601f820116820180604052508101906107409190613e7b565b600754610100900460ff1615808015610fa25750600754600160ff909116105b80610fbc5750303b158015610fbc575060075460ff166001145b610fc557600080fd5b6007805460ff191660011790558015610fe8576007805461ff0019166101001790555b610ff283836119b6565b6040805161016081018252606480825260208201819052600392820183905260026060830181905260056080840181905261138860a0850181905261022660c0860181905260e08601859052607d61010087018190526019610120880181905261014090970188905260d186905560d286905560d388905560d49490945560d59290925560d65560d75560d89190915560d95560da5560db558015610837576007805461ff0019169055604051600181527f7f26b83ff96e1f2b6a682f133852f6798a09c465da95921460cefb3847402498906020015b60405180910390a1505050565b60008060008085600314156110f257506127109050600b61111a565b85600414156111085750613a989050601661111a565b856005141561111a57506161a89050602c5b60646111268682613d3f565b6111309084613a6a565b61113a9190613a9f565b915060646111488682613d3f565b6111529083613a6a565b61115c9190613a9f565b90506002606460df5484670de0b6b3a76400006111799190613a6a565b6111839190613a6a565b61118d9190613a9f565b6111979190613a9f565b6111a2826064613a6a565b9350935050509250929050565b6111b7612dd7565b60dd546040516341f63bfd60e01b8152600481018690526000916001600160a01b0316906341f63bfd9060240160006040518083038186803b1580156111fc57600080fd5b505afa158015611210573d6000803e3d6000fd5b505050506040513d6000823e601f3d908101601f191682016040526112389190810190613be3565b60608101519091506001600160a01b0316331461125457600080fd5b60dd54604051630f2a280d60e21b8152600481018790526001600160a01b0390911690633ca8a0349060240160206040518083038186803b15801561129857600080fd5b505afa1580156112ac573d6000803e3d6000fd5b505050506040513d601f19601f820116820180604052508101906112d09190613a20565b156113085760405162461bcd60e51b81526020600482015260036024820152626f6e5160e81b60448201526064015b60405180910390fd5b600561131382612e48565b1161136257600384111561132657600080fd5b600583826101400151868151811061134057611340613d57565b60200260200101516113529190613d3f565b111561135d57600080fd5b6113df565b600a61136d82612e48565b1161139a57600484111561138057600080fd5b600783826101400151868151811061134057611340613d57565b60058411156113a857600080fd5b600a8382610140015186815181106113c2576113c2613d57565b60200260200101516113d49190613d3f565b11156113df57600080fd5b6000806113ff6113ee84612e62565b6113f9886001613d3f565b87612ba0565b60408051601a808252610360820190925292945090925060009190602082016103408036833701905050905086611468578181600161143d87612e48565b6114479190613a53565b8151811061145757611457613d57565b602002602001018181525050611532565b866001141561148757818161147c86612e48565b611447906004613d3f565b86600214156114ce578181600161149d87612e48565b6114a79190613a53565b815181106114b7576114b7613d57565b602002602001018181525050818161147c86612e48565b86600314156114eb578181600a8151811061145757611457613d57565b86600414156114ff57818161144786612e48565b818161150a86612e48565b611515906005613d3f565b8151811061152557611525613d57565b6020026020010181815250505b61156883826040518060800160405280600115158152602001600015158152602001891515815260200160001515815250612e7c565b85846101400151888151811061158057611580613d57565b60200260200101516115929190613d3f565b84610140015188815181106115a9576115a9613d57565b602090810291909101015260dd546101408501516040516321005a3160e01b81526001600160a01b03909216916321005a31916115eb918c9190600401613da8565b600060405180830381600087803b15801561160557600080fd5b505af1158015611619573d6000803e3d6000fd5b505050505050505050505050565b61162f612dd7565b60dc546040516334d074b360e11b8152600481018490526000916001600160a01b0316906369a0e9669060240160006040518083038186803b15801561167457600080fd5b505afa158015611688573d6000803e3d6000fd5b505050506040513d6000823e601f3d908101601f191682016040526116b09190810190613ea8565b80519091506001600160a01b031633146116c957600080fd5b60068160400151106116da57600080fd5b6000806116ef83604001518460a001516110d6565b6040805160078082526101008201909252929450909250600091906020820160e080368337019050509050818160068151811061172e5761172e613d57565b60200260200101818152505061177083826040518060800160405280600115158152602001600015158152602001891515815260200160001515815250612e7c565b60dc546040516346e2b20960e01b8152600481018890526001600160a01b03909116906346e2b209906024015b600060405180830381600087803b1580156117b757600080fd5b505af11580156117cb573d6000803e3d6000fd5b50505050505050505050565b6000805160206142838339815191526117ef81612ce0565b610eff613149565b6000806000806118078888612c18565b9092509050611817866063613a53565b6118219083613a6a565b915061182e866063613a53565b6118389082613a6a565b905060008061184e8a8a896105ad816005613a53565b909250905061185d8285613d3f565b6118678285613d3f565b955095505050505094509492505050565b60008060058611611889578561188c565b60055b95506000600161189d8760026140c4565b6118a79190613a53565b60016118b48960026140c4565b6118be9190613a53565b60d5546118cb9190613a6a565b6118d59190613a6a565b90506000855b6118e58688613d3f565b81101561192b5760026118f9826001613d3f565b61190391906140d0565b61190d9084613a6a565b6119179083613d3f565b915080611923816140df565b9150506118db565b506002606460df5483670de0b6b3a76400006119479190613a6a565b6119519190613a6a565b61195b9190613a9f565b6119659190613a9f565b601961197283600a613a6a565b61197c9190613a9f565b93509350505094509492505050565b6000918252606c602090815260408084206001600160a01b0393909316845291905290205460ff1690565b600754610100900460ff16158080156119d65750600754600160ff909116105b806119f05750303b1580156119f0575060075460ff166001145b6119f957600080fd5b6007805460ff191660011790558015611a1c576007805461ff0019166101001790555b611a24613186565b611a2c61319a565b611a376000846131b6565b611a4f600080516020614283833981519152846131b6565b611a797f73e573f9566d61418a34d5de3ff49360f9c51fec37f7486551670290f6285dab846131b6565b611a8282611b36565b8015610837576007805461ff0019169055604051600181527f7f26b83ff96e1f2b6a682f133852f6798a09c465da95921460cefb3847402498906020016110c9565b600080516020614283833981519152611adc81612ce0565b50805160d155602081015160d255604081015160d355606081015160d455608081015160d55560a081015160d65560c081015160d75560e081015160d85561010081015160d95561012081015160da55610140015160db55565b600080516020614283833981519152611b4e81612ce0565b5060d080546001600160a81b0319166001600160a01b0390921691909117600160a01b179055565b600080516020614283833981519152611b8e81612ce0565b604080516060810182526001600160a01b03808716808352818716602084018190529186169290930182905260dc80546001600160a01b0319908116909417905560dd80548416909117905560de80549092161790555b50505050565b6004805460405163526267fd60e11b81529182018390526000916001600160a01b039091169063a4c4cffa90602401610f32565b611c27612dd7565b678ac7230489e800008111611c625760405162461bcd60e51b81526020600482015260016024820152603160f81b60448201526064016112ff565b60025460405163079cc67960e41b8152336004820152602481018390526001600160a01b03909116906379cc679090604401600060405180830381600087803b158015611cae57600080fd5b505af1158015611cc2573d6000803e3d6000fd5b505060de54604051635c138c9d60e01b8152336004820152600093506001600160a01b039091169150635c138c9d9060240160206040518083038186803b158015611d0c57600080fd5b505afa158015611d20573d6000803e3d6000fd5b505050506040513d601f19601f82011682018060405250810190611d449190613e7b565b90506000611d53826005613a6a565b611d5e90600a613d3f565b905060006064611d6e8386613a6a565b611d789190613a9f565b611d829085613d3f565b60408051601a80825261036082019092529192506000919060208201610340803683370190505090506000670de0b6b3a76400006103e8611dc4886019613a6a565b611dce9190613a9f565b611dd89190613a9f565b905060005b6010811015611e165781838281518110611df957611df9613d57565b602090810291909101015280611e0e816140df565b915050611ddd565b506000670de0b6b3a7640000611e2e61271089613a9f565b611e39906064613a6a565b611e439190613a9f565b905069021e19e0c9bab24000008710611ee9578083601381518110611e6a57611e6a613d57565b6020908102919091010152611e80816004613a6a565b83601681518110611e9357611e93613d57565b6020908102919091010152611ea9816002613a6a565b83601781518110611ebc57611ebc613d57565b6020026020010181815250508083601881518110611edc57611edc613d57565b6020026020010181815250505b690a968163f0a57b4000008710611f6457670de0b6b3a7640000611f0f61c35089613a9f565b611f199190613a9f565b611f24906064613a6a565b83601481518110611f3757611f37613d57565b6020026020010181815250508083601981518110611f5757611f57613d57565b6020026020010181815250505b60dc546040516304567ca960e11b81526001600160a01b03909116906308acf95290611f98903390889088906004016140fa565b600060405180830381600087803b158015611fb257600080fd5b505af1158015611fc6573d6000803e3d6000fd5b505060408051338152602081018b90529081018790527f90890809c654f11d6e72a28fa60149770a0d11ec6c92319d6ceb2bb0a4ea1a159250606001905060405180910390a150505050505050565b61201d612dd7565b60dd546040516341f63bfd60e01b8152600481018690526000916001600160a01b0316906341f63bfd9060240160006040518083038186803b15801561206257600080fd5b505afa158015612076573d6000803e3d6000fd5b505050506040513d6000823e601f3d908101601f1916820160405261209e9190810190613be3565b60608101519091506001600160a01b031633146120ba57600080fd5b60dc546040516334d074b360e11b8152600481018590526000916001600160a01b0316906369a0e9669060240160006040518083038186803b1580156120ff57600080fd5b505afa158015612113573d6000803e3d6000fd5b505050506040513d6000823e601f3d908101601f1916820160405261213b9190810190613ea8565b80519091506001600160a01b0316331461215457600080fd5b6101008101511561216457600080fd5b6000805b836101200151518110156121b75786846101200151828151811061218e5761218e613d57565b602002602001015114156121a557600191506121b7565b806121af816140df565b915050612168565b50806121c257600080fd5b60dd5460405163079cc67960e41b8152336004820152602481018990526001600160a01b03909116906379cc679090604401600060405180830381600087803b15801561220e57600080fd5b505af1158015612222573d6000803e3d6000fd5b5060009250600a91506122329050565b60405190808252806020026020018201604052801561225b578160200160208202803683370190505b5090506000600561226b86612e62565b1161227e5761227985612e62565b612281565b60055b905061228e816005613a6a565b61229990601a613a53565b6122a4906064613a6a565b826008815181106122b7576122b7613d57565b6020026020010181815250506064826009815181106122d8576122d8613d57565b60200260200101818152505061236a6002606460df54846103e86122fc9190613a6a565b61230890611388613a53565b61231a90670de0b6b3a7640000613a6a565b6123249190613a6a565b61232e9190613a9f565b6123389190613a9f565b8360405180608001604052806001151581526020016000151581526020018a1515815260200160001515815250612e7c565b60dc546040516314472f0560e01b815260048101899052602481018a90526001600160a01b03909116906314472f0590604401600060405180830381600087803b1580156123b757600080fd5b505af11580156123cb573d6000803e3d6000fd5b505060dc54604051632da17b6560e21b8152600481018b90526001600160a01b03909116925063b685ed949150602401600060405180830381600087803b15801561241557600080fd5b505af1158015612429573d6000803e3d6000fd5b50505050505050505050505050565b60008051602061428383398151915261245081612ce0565b6108f6826131c0565b612461612dd7565b60dd546040516341f63bfd60e01b8152600481018490526000916001600160a01b0316906341f63bfd9060240160006040518083038186803b1580156124a657600080fd5b505afa1580156124ba573d6000803e3d6000fd5b505050506040513d6000823e601f3d908101601f191682016040526124e29190810190613be3565b60608101519091506001600160a01b031633146124fe57600080fd5b612509826064613a53565b612512826132af565b106125435760405162461bcd60e51b81526020600482015260016024820152603760f81b60448201526064016112ff565b60008061255b61255284612e48565b6106ee85612e62565b91509150600061256a84612e48565b6001600160401b03811115612581576125816137a3565b6040519080825280602002602001820160405280156125aa578160200160208202803683370190505b5090506125b78583613a6a565b8160016125c387612e48565b6125cd9190613a53565b815181106125dd576125dd613d57565b60209081029190910101526126206125f58685613a6a565b6040805160808101825260018082526020820152600091810182905260608101919091528390612e7c565b8461262a856132af565b6126349190613d3f565b61010085015160028151811061264c5761264c613d57565b602090810291909101015260dd546101008501516040516332eaadb760e21b81526001600160a01b039092169163cbaab6dc9161268e918a9190600401613da8565b600060405180830381600087803b1580156126a857600080fd5b505af11580156126bc573d6000803e3d6000fd5b50506040805189815260208101899052338183015290517f9f2ce95eb1432da7c0b3a6fcea410c7d3837578ef2f15d05c66ac088f95972359350908190036060019150a1505050505050565b612710612dd7565b60dd546040516341f63bfd60e01b8152600481018390526000916001600160a01b0316906341f63bfd9060240160006040518083038186803b15801561275557600080fd5b505afa158015612769573d6000803e3d6000fd5b505050506040513d6000823e601f3d908101601f191682016040526127919190810190613be3565b60608101519091506001600160a01b031633146127ad57600080fd5b60636127b8826132af565b106127c257600080fd5b60056127cd82612e1f565b106127d757600080fd5b6000806128016127e684612e48565b6127ef85612e62565b6127f8866132af565b61059a87612e1f565b91509150600061281084612e48565b6001600160401b03811115612827576128276137a3565b604051908082528060200260200182016040528015612850578160200160208202803683370190505b5090508181600161286087612e48565b61286a9190613a53565b8151811061287a5761287a613d57565b6020026020010181815250506128bd8382604051806080016040528060011515815260200160011515815260200160001515815260200160001515815250612e7c565b6101008401516063906002815181106128d8576128d8613d57565b60209081029190910101526101008401516005906003815181106128fe576128fe613d57565b602090810291909101015260dd546101008501516040516332eaadb760e21b81526001600160a01b039092169163cbaab6dc9161294091899190600401613da8565b600060405180830381600087803b15801561295a57600080fd5b505af115801561296e573d6000803e3d6000fd5b505050505050505050565b60008051602061428383398151915261299181612ce0565b5060d155565b6000828152606c60205260409020600101546129b281612ce0565b6108378383612d70565b6129c4612dd7565b60dc546040516334d074b360e11b8152600481018490526000916001600160a01b0316906369a0e9669060240160006040518083038186803b158015612a0957600080fd5b505afa158015612a1d573d6000803e3d6000fd5b505050506040513d6000823e601f3d908101601f19168201604052612a459190810190613ea8565b80519091506001600160a01b03163314612a5e57600080fd5b60408051600a8082526101608201909252600091602082016101408036833701905050905060c881600981518110612a9857612a98613d57565b602002602001018181525050612ad76002606460df5469021e19e0c9bab2400000612ac39190613a6a565b612acd9190613a9f565b6125f59190613a9f565b60dc5460405163369cf5a760e21b815260048101869052602481018590526001600160a01b039091169063da73d69c90604401600060405180830381600087803b158015612b2457600080fd5b505af1158015612b38573d6000803e3d6000fd5b505060dc54604051632da17b6560e21b8152600481018890526001600160a01b03909116925063b685ed949150602401600060405180830381600087803b158015612b8257600080fd5b505af1158015612b96573d6000803e3d6000fd5b5050505050505050565b600080808385612bb188607d613a6a565b612bbb9190613a6a565b612bc59190613a6a565b9050612bd2600582613a9f565b91506002606460df5483670de0b6b3a7640000612bef9190613a6a565b612bf99190613a6a565b612c039190613a9f565b612c0d9190613a9f565b925050935093915050565b60008060058411612c295783612c2c565b60055b935060006001612c3d8560026140c4565b612c479190613a53565b6001612c548760026140c4565b612c5e9190613a53565b60d454612c6b9190613a6a565b612c759190613a6a565b90506002606460df5483670de0b6b3a7640000612c929190613a6a565b612c9c9190613a6a565b612ca69190613a9f565b612cb09190613a9f565b9590945092505050565b600080516020614283833981519152612cd281612ce0565b610eb78787878787876132c9565b610eff813361335b565b612cf4828261198b565b6108f6576000828152606c602090815260408083206001600160a01b03851684529091529020805460ff19166001179055612d2c3390565b6001600160a01b0316816001600160a01b0316837f2f8788117e7eff1d82e926ec794901d17c78024a50270940304540a733656f0d60405160405180910390a45050565b612d7a828261198b565b156108f6576000828152606c602090815260408083206001600160a01b0385168085529252808320805460ff1916905551339285917ff6391f5c32d9c69d2a47ea670b442974b53935d1edc7fd64eb21e047a839171b9190a45050565b609e5460ff1615612e1d5760405162461bcd60e51b815260206004820152601060248201526f14185d5cd8589b194e881c185d5cd95960821b60448201526064016112ff565b565b6000816101000151600381518110612e3957612e39613d57565b60200260200101519050919050565b6000816101000151600081518110612e3957612e39613d57565b6000816101000151600181518110612e3957612e39613d57565b806040015115612fe257806020015115612ebd5760405162461bcd60e51b8152602060048201526002602482015261070360f41b60448201526064016112ff565b8051600090612ecc5783612ed5565b612ed584611beb565b6003546040516323b872dd60e01b8152336004820152306024820152604481018390529192506001600160a01b0316906323b872dd90606401600060405180830381600087803b158015612f2857600080fd5b505af1158015612f3c573d6000803e3d6000fd5b505050506000606482600654612f529190613a6a565b612f5c9190613a9f565b60048054604051630d3990db60e21b81529293506001600160a01b0316916334e6436c91612f909185910190815260200190565b602060405180830381600087803b158015612faa57600080fd5b505af1158015612fbe573d6000803e3d6000fd5b505050506040513d601f19601f82011682018060405250810190610eb99190613e7b565b8060600151156130195760405162461bcd60e51b8152602060048201526002602482015261703160f01b60448201526064016112ff565b80516000906130305761302b84610f02565b613032565b835b60055460405163b1918c9560e01b81529192506000916001600160a01b039091169063b1918c959061306c903390869089906004016140fa565b602060405180830381600087803b15801561308657600080fd5b505af115801561309a573d6000803e3d6000fd5b505050506040513d601f19601f820116820180604052508101906130be9190613a20565b90508061080b5760405162461bcd60e51b81526020600482015260076024820152666e6f46756e647360c81b60448201526064016112ff565b6130ff6133b4565b609e805460ff191690557f5db9ee0a495bf2e6ff9c91a7834c1ba4fdd244a5e8aa4e537bd38aeae4b073aa335b6040516001600160a01b03909116815260200160405180910390a1565b613151612dd7565b609e805460ff191660011790557f62e78cea01bee320cd4e420270b5ea74000d11b0c9f74754ebdbfc544b05a25861312c3390565b600754610100900460ff16612e1d57600080fd5b600754610100900460ff166131ae57600080fd5b612e1d6133fd565b6108f68282612cea565b60008190506000816001600160a01b031663c1cc57b06040518163ffffffff1660e01b815260040160006040518083038186803b15801561320057600080fd5b505afa158015613214573d6000803e3d6000fd5b505050506040513d6000823e601f3d908101601f1916820160405261323c919081019061412a565b905060005b81518110156132a65781818151811061325c5761325c613d57565b60209081029190910181015160008381526001909252604090912080546001600160a01b0319166001600160a01b039092169190911790558061329e816140df565b915050613241565b50516000555050565b6000816101000151600281518110612e3957612e39613d57565b600280546001600160a01b038089166001600160a01b0319928316179092556003805488841690831617905560048054878416908316179055600580549286169290911691909117905561331c826131c0565b600681905560035460405163095ea7b360e01b81526001600160a01b03868116600483015260001960248301529091169063095ea7b39060440161179d565b613365828261198b565b6108f6576133728161341d565b61337d83602061342f565b60405160200161338e9291906141c3565b60408051601f198184030181529082905262461bcd60e51b82526112ff91600401614238565b609e5460ff16612e1d5760405162461bcd60e51b815260206004820152601460248201527314185d5cd8589b194e881b9bdd081c185d5cd95960621b60448201526064016112ff565b600754610100900460ff1661341157600080fd5b609e805460ff19169055565b60606107406001600160a01b03831660145b6060600061343e836002613a6a565b613449906002613d3f565b6001600160401b03811115613460576134606137a3565b6040519080825280601f01601f19166020018201604052801561348a576020820181803683370190505b509050600360fc1b816000815181106134a5576134a5613d57565b60200101906001600160f81b031916908160001a905350600f60fb1b816001815181106134d4576134d4613d57565b60200101906001600160f81b031916908160001a90535060006134f8846002613a6a565b613503906001613d3f565b90505b600181111561357b576f181899199a1a9b1b9c1cb0b131b232b360811b85600f166010811061353757613537613d57565b1a60f81b82828151811061354d5761354d613d57565b60200101906001600160f81b031916908160001a90535060049490941c936135748161426b565b9050613506565b50831561358757600080fd5b9392505050565b6000602082840312156135a057600080fd5b81356001600160e01b03198116811461358757600080fd5b6001600160a01b0381168114610eff57600080fd5b6000806000606084860312156135e257600080fd5b83356135ed816135b8565b925060208401356135fd816135b8565b929592945050506040919091013590565b60006020828403121561362057600080fd5b5035919050565b6000806040838503121561363a57600080fd5b82359150602083013561364c816135b8565b809150509250929050565b8015158114610eff57600080fd5b60008060006060848603121561367a57600080fd5b8335925060208401359150604084013561369381613657565b809150509250925092565b6000602082840312156136b057600080fd5b813561358781613657565b600080604083850312156136ce57600080fd5b82356136d9816135b8565b9150602083013561364c816135b8565b600080604083850312156136fc57600080fd5b50508035926020909101359150565b6000806000806080858703121561372157600080fd5b843593506020850135925060408501359150606085013561374181613657565b939692955090935050565b6000806040838503121561375f57600080fd5b82359150602083013561364c81613657565b6000806000806080858703121561378757600080fd5b5050823594602084013594506040840135936060013592509050565b634e487b7160e01b600052604160045260246000fd5b60405161016081016001600160401b03811182821017156137dc576137dc6137a3565b60405290565b60405161018081016001600160401b03811182821017156137dc576137dc6137a3565b60405161010081016001600160401b03811182821017156137dc576137dc6137a3565b6040516101c081016001600160401b03811182821017156137dc576137dc6137a3565b604051601f8201601f191681016001600160401b0381118282101715613873576138736137a3565b604052919050565b6000610160828403121561388e57600080fd5b6138966137b9565b823581526020830135602082015260408301356040820152606083013560608201526080830135608082015260a083013560a082015260c083013560c082015260e083013560e08201526101008084013581830152506101208084013581830152506101408084013581830152508091505092915050565b60006020828403121561392057600080fd5b8135613587816135b8565b60008060006060848603121561394057600080fd5b833561394b816135b8565b9250602084013561395b816135b8565b91506040840135613693816135b8565b60008060006060848603121561398057600080fd5b505081359360208301359350604090920135919050565b60008060008060008060c087890312156139b057600080fd5b86356139bb816135b8565b955060208701356139cb816135b8565b945060408701356139db816135b8565b935060608701356139eb816135b8565b925060808701356139fb816135b8565b8092505060a087013590509295509295509295565b8051613a1b81613657565b919050565b600060208284031215613a3257600080fd5b815161358781613657565b634e487b7160e01b600052601160045260246000fd5b600082821015613a6557613a65613a3d565b500390565b6000816000190483118215151615613a8457613a84613a3d565b500290565b634e487b7160e01b600052601260045260246000fd5b600082613aae57613aae613a89565b500490565b60005b83811015613ace578181015183820152602001613ab6565b83811115611be55750506000910152565b600082601f830112613af057600080fd5b81516001600160401b03811115613b0957613b096137a3565b613b1c601f8201601f191660200161384b565b818152846020838601011115613b3157600080fd5b613b42826020830160208701613ab3565b949350505050565b8051613a1b816135b8565b60006001600160401b03821115613b6e57613b6e6137a3565b5060051b60200190565b600082601f830112613b8957600080fd5b81516020613b9e613b9983613b55565b61384b565b82815260059290921b84018101918181019086841115613bbd57600080fd5b8286015b84811015613bd85780518352918301918301613bc1565b509695505050505050565b600060208284031215613bf557600080fd5b81516001600160401b0380821115613c0c57600080fd5b908301906101808286031215613c2157600080fd5b613c296137e2565b82518152602083015182811115613c3f57600080fd5b613c4b87828601613adf565b602083015250604083015182811115613c6357600080fd5b613c6f87828601613adf565b604083015250613c8160608401613b4a565b60608201526080830151608082015260a083015160a082015260c083015160c082015260e083015160e08201526101008084015183811115613cc257600080fd5b613cce88828701613b78565b8284015250506101208084015183811115613ce857600080fd5b613cf488828701613b78565b8284015250506101408084015183811115613d0e57600080fd5b613d1a88828701613b78565b8284015250506101609150613d30828401613a10565b91810191909152949350505050565b60008219821115613d5257613d52613a3d565b500190565b634e487b7160e01b600052603260045260246000fd5b600081518084526020808501945080840160005b83811015613d9d57815187529582019590820190600101613d81565b509495945050505050565b828152604060208201526000613b426040830184613d6d565b600060208284031215613dd357600080fd5b81516001600160401b0380821115613dea57600080fd5b908301906101008286031215613dff57600080fd5b613e07613805565b82518152602083015160208201526040830151604082015260608301516060820152613e3560808401613b4a565b608082015260a083015160a082015260c083015160c082015260e083015182811115613e6057600080fd5b613e6c87828601613b78565b60e08301525095945050505050565b600060208284031215613e8d57600080fd5b5051919050565b600082613ea357613ea3613a89565b500690565b600060208284031215613eba57600080fd5b81516001600160401b0380821115613ed157600080fd5b908301906101c08286031215613ee657600080fd5b613eee613828565b613ef783613b4a565b81526020830151602082015260408301516040820152606083015160608201526080830151608082015260a083015160a082015260c083015160c082015260e083015160e08201526101008084015181830152506101208084015181830152506101408084015181830152506101608084015183811115613f7757600080fd5b613f8388828701613b78565b8284015250506101808084015183811115613f9d57600080fd5b613fa988828701613b78565b8284015250506101a08084015183811115613fc357600080fd5b613fcf88828701613b78565b918301919091525095945050505050565b600181815b8085111561401b57816000190482111561400157614001613a3d565b8085161561400e57918102915b93841c9390800290613fe5565b509250929050565b60008261403257506001610740565b8161403f57506000610740565b8160018114614055576002811461405f5761407b565b6001915050610740565b60ff84111561407057614070613a3d565b50506001821b610740565b5060208310610133831016604e8410600b841016171561409e575081810a610740565b6140a88383613fe0565b80600019048211156140bc576140bc613a3d565b029392505050565b60006135878383614023565b600061358760ff841683614023565b60006000198214156140f3576140f3613a3d565b5060010190565b60018060a01b03841681528260208201526060604082015260006141216060830184613d6d565b95945050505050565b6000602080838503121561413d57600080fd5b82516001600160401b0381111561415357600080fd5b8301601f8101851361416457600080fd5b8051614172613b9982613b55565b81815260059190911b8201830190838101908783111561419157600080fd5b928401925b828410156141b85783516141a9816135b8565b82529284019290840190614196565b979650505050505050565b7f416363657373436f6e74726f6c3a206163636f756e74200000000000000000008152600083516141fb816017850160208801613ab3565b7001034b99036b4b9b9b4b733903937b6329607d1b601791840191820152835161422c816028840160208801613ab3565b01602801949350505050565b6020815260008251806020840152614257816040850160208701613ab3565b601f01601f19169190910160400192915050565b60008161427a5761427a613a3d565b50600019019056fe97667070c54ef182b0f5858b034beac1b6f3089aa2d3188bb1e8929f4fa9b929a26469706673582212208667df8aea439dbf3ecb7df21b3ea993e856fefedb776505085cefe2916b605564736f6c63430008090033",
  "linkReferences": {},
  "deployedLinkReferences": {}
}