{
  "_format": "hh-sol-artifact-1",
  "contractName": "AdminUpgradeableERC20",
  "sourceName": "contracts/erc20/standard/AdminUpgradeableERC20.sol",
  "abi": [
    {
      "anonymous": false,
      "inputs": [
        {
          "indexed": true,
          "internalType": "address",
          "name": "owner",
          "type": "address"
        },
        {
          "indexed": true,
          "internalType": "address",
          "name": "spender",
          "type": "address"
        },
        {
          "indexed": false,
          "internalType": "uint256",
          "name": "value",
          "type": "uint256"
        }
      ],
      "name": "Approval",
      "type": "event"
    },
    {
      "anonymous": false,
      "inputs": [
        {
          "indexed": false,
          "internalType": "uint8",
          "name": "version",
          "type": "uint8"
        }
      ],
      "name": "Initialized",
      "type": "event"
    },
    {
      "anonymous": false,
      "inputs": [
        {
          "indexed": false,
          "internalType": "address",
          "name": "account",
          "type": "address"
        }
      ],
      "name": "Paused",
      "type": "event"
    },
    {
      "anonymous": false,
      "inputs": [
        {
          "indexed": true,
          "internalType": "bytes32",
          "name": "role",
          "type": "bytes32"
        },
        {
          "indexed": true,
          "internalType": "bytes32",
          "name": "previousAdminRole",
          "type": "bytes32"
        },
        {
          "indexed": true,
          "internalType": "bytes32",
          "name": "newAdminRole",
          "type": "bytes32"
        }
      ],
      "name": "RoleAdminChanged",
      "type": "event"
    },
    {
      "anonymous": false,
      "inputs": [
        {
          "indexed": true,
          "internalType": "bytes32",
          "name": "role",
          "type": "bytes32"
        },
        {
          "indexed": true,
          "internalType": "address",
          "name": "account",
          "type": "address"
        },
        {
          "indexed": true,
          "internalType": "address",
          "name": "sender",
          "type": "address"
        }
      ],
      "name": "RoleGranted",
      "type": "event"
    },
    {
      "anonymous": false,
      "inputs": [
        {
          "indexed": true,
          "internalType": "bytes32",
          "name": "role",
          "type": "bytes32"
        },
        {
          "indexed": true,
          "internalType": "address",
          "name": "account",
          "type": "address"
        },
        {
          "indexed": true,
          "internalType": "address",
          "name": "sender",
          "type": "address"
        }
      ],
      "name": "RoleRevoked",
      "type": "event"
    },
    {
      "anonymous": false,
      "inputs": [
        {
          "indexed": true,
          "internalType": "address",
          "name": "from",
          "type": "address"
        },
        {
          "indexed": true,
          "internalType": "address",
          "name": "to",
          "type": "address"
        },
        {
          "indexed": false,
          "internalType": "uint256",
          "name": "value",
          "type": "uint256"
        }
      ],
      "name": "Transfer",
      "type": "event"
    },
    {
      "anonymous": false,
      "inputs": [
        {
          "indexed": false,
          "internalType": "address",
          "name": "account",
          "type": "address"
        }
      ],
      "name": "Unpaused",
      "type": "event"
    },
    {
      "inputs": [],
      "name": "DEFAULT_ADMIN_ROLE",
      "outputs": [
        {
          "internalType": "bytes32",
          "name": "",
          "type": "bytes32"
        }
      ],
      "stateMutability": "view",
      "type": "function"
    },
    {
      "inputs": [
        {
          "internalType": "address",
          "name": "owner",
          "type": "address"
        },
        {
          "internalType": "address",
          "name": "spender",
          "type": "address"
        }
      ],
      "name": "allowance",
      "outputs": [
        {
          "internalType": "uint256",
          "name": "",
          "type": "uint256"
        }
      ],
      "stateMutability": "view",
      "type": "function"
    },
    {
      "inputs": [
        {
          "internalType": "address",
          "name": "spender",
          "type": "address"
        },
        {
          "internalType": "uint256",
          "name": "amount",
          "type": "uint256"
        }
      ],
      "name": "approve",
      "outputs": [
        {
          "internalType": "bool",
          "name": "",
          "type": "bool"
        }
      ],
      "stateMutability": "nonpayable",
      "type": "function"
    },
    {
      "inputs": [
        {
          "internalType": "address",
          "name": "account",
          "type": "address"
        }
      ],
      "name": "balanceOf",
      "outputs": [
        {
          "internalType": "uint256",
          "name": "",
          "type": "uint256"
        }
      ],
      "stateMutability": "view",
      "type": "function"
    },
    {
      "inputs": [],
      "name": "basicData",
      "outputs": [
        {
          "internalType": "string",
          "name": "",
          "type": "string"
        },
        {
          "internalType": "string",
          "name": "",
          "type": "string"
        },
        {
          "internalType": "uint256",
          "name": "",
          "type": "uint256"
        },
        {
          "internalType": "uint256",
          "name": "",
          "type": "uint256"
        }
      ],
      "stateMutability": "view",
      "type": "function"
    },
    {
      "inputs": [],
      "name": "blocklist",
      "outputs": [
        {
          "internalType": "contract IBlocklist",
          "name": "",
          "type": "address"
        }
      ],
      "stateMutability": "view",
      "type": "function"
    },
    {
      "inputs": [
        {
          "internalType": "uint256",
          "name": "amount",
          "type": "uint256"
        }
      ],
      "name": "burn",
      "outputs": [],
      "stateMutability": "nonpayable",
      "type": "function"
    },
    {
      "inputs": [
        {
          "internalType": "address",
          "name": "account",
          "type": "address"
        },
        {
          "internalType": "uint256",
          "name": "amount",
          "type": "uint256"
        }
      ],
      "name": "burnFrom",
      "outputs": [],
      "stateMutability": "nonpayable",
      "type": "function"
    },
    {
      "inputs": [],
      "name": "decimals",
      "outputs": [
        {
          "internalType": "uint8",
          "name": "",
          "type": "uint8"
        }
      ],
      "stateMutability": "view",
      "type": "function"
    },
    {
      "inputs": [
        {
          "internalType": "address",
          "name": "spender",
          "type": "address"
        },
        {
          "internalType": "uint256",
          "name": "subtractedValue",
          "type": "uint256"
        }
      ],
      "name": "decreaseAllowance",
      "outputs": [
        {
          "internalType": "bool",
          "name": "",
          "type": "bool"
        }
      ],
      "stateMutability": "nonpayable",
      "type": "function"
    },
    {
      "inputs": [
        {
          "internalType": "bytes32",
          "name": "role",
          "type": "bytes32"
        }
      ],
      "name": "getRoleAdmin",
      "outputs": [
        {
          "internalType": "bytes32",
          "name": "",
          "type": "bytes32"
        }
      ],
      "stateMutability": "view",
      "type": "function"
    },
    {
      "inputs": [
        {
          "internalType": "bytes32",
          "name": "role",
          "type": "bytes32"
        },
        {
          "internalType": "address",
          "name": "account",
          "type": "address"
        }
      ],
      "name": "grantRole",
      "outputs": [],
      "stateMutability": "nonpayable",
      "type": "function"
    },
    {
      "inputs": [],
      "name": "hasBlocklist",
      "outputs": [
        {
          "internalType": "bool",
          "name": "",
          "type": "bool"
        }
      ],
      "stateMutability": "view",
      "type": "function"
    },
    {
      "inputs": [
        {
          "internalType": "bytes32",
          "name": "role",
          "type": "bytes32"
        },
        {
          "internalType": "address",
          "name": "account",
          "type": "address"
        }
      ],
      "name": "hasRole",
      "outputs": [
        {
          "internalType": "bool",
          "name": "",
          "type": "bool"
        }
      ],
      "stateMutability": "view",
      "type": "function"
    },
    {
      "inputs": [
        {
          "internalType": "address",
          "name": "spender",
          "type": "address"
        },
        {
          "internalType": "uint256",
          "name": "addedValue",
          "type": "uint256"
        }
      ],
      "name": "increaseAllowance",
      "outputs": [
        {
          "internalType": "bool",
          "name": "",
          "type": "bool"
        }
      ],
      "stateMutability": "nonpayable",
      "type": "function"
    },
    {
      "inputs": [
        {
          "internalType": "address",
          "name": "to",
          "type": "address"
        },
        {
          "internalType": "uint256",
          "name": "amount",
          "type": "uint256"
        }
      ],
      "name": "mint",
      "outputs": [],
      "stateMutability": "nonpayable",
      "type": "function"
    },
    {
      "inputs": [],
      "name": "name",
      "outputs": [
        {
          "internalType": "string",
          "name": "",
          "type": "string"
        }
      ],
      "stateMutability": "view",
      "type": "function"
    },
    {
      "inputs": [],
      "name": "pause",
      "outputs": [],
      "stateMutability": "nonpayable",
      "type": "function"
    },
    {
      "inputs": [],
      "name": "paused",
      "outputs": [
        {
          "internalType": "bool",
          "name": "",
          "type": "bool"
        }
      ],
      "stateMutability": "view",
      "type": "function"
    },
    {
      "inputs": [
        {
          "internalType": "bytes32",
          "name": "role",
          "type": "bytes32"
        },
        {
          "internalType": "address",
          "name": "account",
          "type": "address"
        }
      ],
      "name": "renounceRole",
      "outputs": [],
      "stateMutability": "nonpayable",
      "type": "function"
    },
    {
      "inputs": [
        {
          "internalType": "bytes32",
          "name": "role",
          "type": "bytes32"
        },
        {
          "internalType": "address",
          "name": "account",
          "type": "address"
        }
      ],
      "name": "revokeRole",
      "outputs": [],
      "stateMutability": "nonpayable",
      "type": "function"
    },
    {
      "inputs": [
        {
          "internalType": "bytes4",
          "name": "interfaceId",
          "type": "bytes4"
        }
      ],
      "name": "supportsInterface",
      "outputs": [
        {
          "internalType": "bool",
          "name": "",
          "type": "bool"
        }
      ],
      "stateMutability": "view",
      "type": "function"
    },
    {
      "inputs": [],
      "name": "symbol",
      "outputs": [
        {
          "internalType": "string",
          "name": "",
          "type": "string"
        }
      ],
      "stateMutability": "view",
      "type": "function"
    },
    {
      "inputs": [],
      "name": "totalSupply",
      "outputs": [
        {
          "internalType": "uint256",
          "name": "",
          "type": "uint256"
        }
      ],
      "stateMutability": "view",
      "type": "function"
    },
    {
      "inputs": [
        {
          "internalType": "address",
          "name": "to",
          "type": "address"
        },
        {
          "internalType": "uint256",
          "name": "amount",
          "type": "uint256"
        }
      ],
      "name": "transfer",
      "outputs": [
        {
          "internalType": "bool",
          "name": "",
          "type": "bool"
        }
      ],
      "stateMutability": "nonpayable",
      "type": "function"
    },
    {
      "inputs": [
        {
          "internalType": "address",
          "name": "from",
          "type": "address"
        },
        {
          "internalType": "address",
          "name": "to",
          "type": "address"
        },
        {
          "internalType": "uint256",
          "name": "amount",
          "type": "uint256"
        }
      ],
      "name": "transferFrom",
      "outputs": [
        {
          "internalType": "bool",
          "name": "",
          "type": "bool"
        }
      ],
      "stateMutability": "nonpayable",
      "type": "function"
    },
    {
      "inputs": [],
      "name": "unpause",
      "outputs": [],
      "stateMutability": "nonpayable",
      "type": "function"
    }
  ],
  "bytecode": "0x608060405234801561001057600080fd5b5061162f806100206000396000f3fe608060405234801561001057600080fd5b50600436106101a95760003560e01c80635c975abb116100f9578063a217fddf11610097578063b52dc12011610071578063b52dc1201461036b578063d547741f14610383578063d64e539614610396578063dd62ed3e146103c257600080fd5b8063a217fddf1461033d578063a457c2d714610345578063a9059cbb1461035857600080fd5b806379cc6790116100d357806379cc6790146103075780638456cb591461031a57806391d148541461032257806395d89b411461033557600080fd5b80635c975abb146102be578063634210f4146102c957806370a08231146102de57600080fd5b80632f2ff15d116101665780633950935111610140578063395093511461027d5780633f4ba83a1461029057806340c10f191461029857806342966c68146102ab57600080fd5b80632f2ff15d14610246578063313ce5671461025b57806336568abe1461026a57600080fd5b806301ffc9a7146101ae57806306fdde03146101d6578063095ea7b3146101eb57806318160ddd146101fe57806323b872dd14610210578063248a9ca314610223575b600080fd5b6101c16101bc3660046112bd565b6103d5565b60405190151581526020015b60405180910390f35b6101de61040c565b6040516101cd919061133f565b6101c16101f936600461136e565b61049e565b6035545b6040519081526020016101cd565b6101c161021e366004611398565b6104b6565b6102026102313660046113d4565b600090815260c9602052604090206001015490565b6102596102543660046113ed565b6104da565b005b604051601281526020016101cd565b6102596102783660046113ed565b610504565b6101c161028b36600461136e565b610587565b6102596105a9565b6102596102a636600461136e565b6105e6565b6102596102b93660046113d4565b610635565b60fb5460ff166101c1565b61015f546101c190600160a01b900460ff1681565b6102026102ec366004611419565b6001600160a01b031660009081526033602052604090205490565b61025961031536600461136e565b61063f565b610259610654565b6101c16103303660046113ed565b61068e565b6101de6106b9565b610202600081565b6101c161035336600461136e565b6106c8565b6101c161036636600461136e565b610743565b610373610751565b6040516101cd9493929190611434565b6102596103913660046113ed565b61077a565b61015f546103aa906001600160a01b031681565b6040516001600160a01b0390911681526020016101cd565b6102026103d036600461146d565b61079f565b60006001600160e01b03198216637965db0b60e01b148061040657506301ffc9a760e01b6001600160e01b03198316145b92915050565b60606036805461041b90611497565b80601f016020809104026020016040519081016040528092919081815260200182805461044790611497565b80156104945780601f1061046957610100808354040283529160200191610494565b820191906000526020600020905b81548152906001019060200180831161047757829003601f168201915b5050505050905090565b6000336104ac8185856107ca565b5060019392505050565b6000336104c48582856108ee565b6104cf858585610968565b506001949350505050565b600082815260c960205260409020600101546104f581610b1e565b6104ff8383610b28565b505050565b6001600160a01b03811633146105795760405162461bcd60e51b815260206004820152602f60248201527f416363657373436f6e74726f6c3a2063616e206f6e6c792072656e6f756e636560448201526e103937b632b9903337b91039b2b63360891b60648201526084015b60405180910390fd5b6105838282610bae565b5050565b6000336104ac81858561059a838361079f565b6105a491906114e8565b6107ca565b7f97667070c54ef182b0f5858b034beac1b6f3089aa2d3188bb1e8929f4fa9b9296105d381610b1e565b6105db610c15565b6105e3610c60565b50565b7f9f2df0fed2c77648de5860a4cc508cd0818c85b8b8a1ab4ceeef8d981c8956a661061081610b1e565b610618610cb2565b610620610cf8565b61062a8383610d54565b6104ff600161012d55565b6105e33382610e21565b61064a8233836108ee565b6105838282610e21565b7f97667070c54ef182b0f5858b034beac1b6f3089aa2d3188bb1e8929f4fa9b92961067e81610b1e565b610686610cb2565b6105e3610f61565b600091825260c9602090815260408084206001600160a01b0393909316845291905290205460ff1690565b60606037805461041b90611497565b600033816106d6828661079f565b9050838110156107365760405162461bcd60e51b815260206004820152602560248201527f45524332303a2064656372656173656420616c6c6f77616e63652062656c6f77604482015264207a65726f60d81b6064820152608401610570565b6104cf82868684036107ca565b6000336104ac818585610968565b60608060008061075f61040c565b6107676106b9565b6035549196909550601294509092509050565b600082815260c9602052604090206001015461079581610b1e565b6104ff8383610bae565b6001600160a01b03918216600090815260346020908152604080832093909416825291909152205490565b6001600160a01b03831661082c5760405162461bcd60e51b8152602060048201526024808201527f45524332303a20617070726f76652066726f6d20746865207a65726f206164646044820152637265737360e01b6064820152608401610570565b6001600160a01b03821661088d5760405162461bcd60e51b815260206004820152602260248201527f45524332303a20617070726f766520746f20746865207a65726f206164647265604482015261737360f01b6064820152608401610570565b6001600160a01b0383811660008181526034602090815260408083209487168084529482529182902085905590518481527f8c5be1e5ebec7d5bd14f71427d1e84f3dd0314c0f7b2291e5b200ac8c7c3b925910160405180910390a3505050565b60006108fa848461079f565b9050600019811461096257818110156109555760405162461bcd60e51b815260206004820152601d60248201527f45524332303a20696e73756666696369656e7420616c6c6f77616e63650000006044820152606401610570565b61096284848484036107ca565b50505050565b6001600160a01b0383166109cc5760405162461bcd60e51b815260206004820152602560248201527f45524332303a207472616e736665722066726f6d20746865207a65726f206164604482015264647265737360d81b6064820152608401610570565b6001600160a01b038216610a2e5760405162461bcd60e51b815260206004820152602360248201527f45524332303a207472616e7366657220746f20746865207a65726f206164647260448201526265737360e81b6064820152608401610570565b610a39838383610f9e565b6001600160a01b03831660009081526033602052604090205481811015610ab15760405162461bcd60e51b815260206004820152602660248201527f45524332303a207472616e7366657220616d6f756e7420657863656564732062604482015265616c616e636560d01b6064820152608401610570565b6001600160a01b0380851660008181526033602052604080822086860390559286168082529083902080548601905591517fddf252ad1be2c89b69c2b068fc378daa952ba7f163c4a11628f55a4df523b3ef90610b119086815260200190565b60405180910390a3610962565b6105e3813361100c565b610b32828261068e565b61058357600082815260c9602090815260408083206001600160a01b03851684529091529020805460ff19166001179055610b6a3390565b6001600160a01b0316816001600160a01b0316837f2f8788117e7eff1d82e926ec794901d17c78024a50270940304540a733656f0d60405160405180910390a45050565b610bb8828261068e565b1561058357600082815260c9602090815260408083206001600160a01b0385168085529252808320805460ff1916905551339285917ff6391f5c32d9c69d2a47ea670b442974b53935d1edc7fd64eb21e047a839171b9190a45050565b60fb5460ff16610c5e5760405162461bcd60e51b815260206004820152601460248201527314185d5cd8589b194e881b9bdd081c185d5cd95960621b6044820152606401610570565b565b610c68610c15565b60fb805460ff191690557f5db9ee0a495bf2e6ff9c91a7834c1ba4fdd244a5e8aa4e537bd38aeae4b073aa335b6040516001600160a01b03909116815260200160405180910390a1565b60fb5460ff1615610c5e5760405162461bcd60e51b815260206004820152601060248201526f14185d5cd8589b194e881c185d5cd95960821b6044820152606401610570565b600261012d541415610d4c5760405162461bcd60e51b815260206004820152601f60248201527f5265656e7472616e637947756172643a207265656e7472616e742063616c6c006044820152606401610570565b600261012d55565b6001600160a01b038216610daa5760405162461bcd60e51b815260206004820152601f60248201527f45524332303a206d696e7420746f20746865207a65726f2061646472657373006044820152606401610570565b610db660008383610f9e565b8060356000828254610dc891906114e8565b90915550506001600160a01b0382166000818152603360209081526040808320805486019055518481527fddf252ad1be2c89b69c2b068fc378daa952ba7f163c4a11628f55a4df523b3ef910160405180910390a35050565b6001600160a01b038216610e815760405162461bcd60e51b815260206004820152602160248201527f45524332303a206275726e2066726f6d20746865207a65726f206164647265736044820152607360f81b6064820152608401610570565b610e8d82600083610f9e565b6001600160a01b03821660009081526033602052604090205481811015610f015760405162461bcd60e51b815260206004820152602260248201527f45524332303a206275726e20616d6f756e7420657863656564732062616c616e604482015261636560f01b6064820152608401610570565b6001600160a01b03831660008181526033602090815260408083208686039055603580548790039055518581529192917fddf252ad1be2c89b69c2b068fc378daa952ba7f163c4a11628f55a4df523b3ef910160405180910390a3505050565b610f69610cb2565b60fb805460ff191660011790557f62e78cea01bee320cd4e420270b5ea74000d11b0c9f74754ebdbfc544b05a258610c953390565b610fa6610cb2565b610fb08383611065565b156104ff5760405162461bcd60e51b815260206004820152602660248201527f53656e64657220616e642f6f7220726563697069656e7420697320626c6f636b6044820152651b1a5cdd195960d21b6064820152608401610570565b611016828261068e565b610583576110238161110f565b61102e836020611121565b60405160200161103f929190611500565b60408051601f198184030181529082905262461bcd60e51b82526105709160040161133f565b61015f54600090600160a01b900460ff1661108257506000610406565b61015f5460405163257128dd60e21b81526001600160a01b0385811660048301528481166024830152909116906395c4a3749060440160206040518083038186803b1580156110d057600080fd5b505afa1580156110e4573d6000803e3d6000fd5b505050506040513d601f19601f820116820180604052508101906111089190611575565b9392505050565b60606104066001600160a01b03831660145b60606000611130836002611597565b61113b9060026114e8565b67ffffffffffffffff811115611153576111536115b6565b6040519080825280601f01601f19166020018201604052801561117d576020820181803683370190505b509050600360fc1b81600081518110611198576111986115cc565b60200101906001600160f81b031916908160001a905350600f60fb1b816001815181106111c7576111c76115cc565b60200101906001600160f81b031916908160001a90535060006111eb846002611597565b6111f69060016114e8565b90505b600181111561126e576f181899199a1a9b1b9c1cb0b131b232b360811b85600f166010811061122a5761122a6115cc565b1a60f81b828281518110611240576112406115cc565b60200101906001600160f81b031916908160001a90535060049490941c93611267816115e2565b90506111f9565b5083156111085760405162461bcd60e51b815260206004820181905260248201527f537472696e67733a20686578206c656e67746820696e73756666696369656e746044820152606401610570565b6000602082840312156112cf57600080fd5b81356001600160e01b03198116811461110857600080fd5b60005b838110156113025781810151838201526020016112ea565b838111156109625750506000910152565b6000815180845261132b8160208601602086016112e7565b601f01601f19169290920160200192915050565b6020815260006111086020830184611313565b80356001600160a01b038116811461136957600080fd5b919050565b6000806040838503121561138157600080fd5b61138a83611352565b946020939093013593505050565b6000806000606084860312156113ad57600080fd5b6113b684611352565b92506113c460208501611352565b9150604084013590509250925092565b6000602082840312156113e657600080fd5b5035919050565b6000806040838503121561140057600080fd5b8235915061141060208401611352565b90509250929050565b60006020828403121561142b57600080fd5b61110882611352565b6080815260006114476080830187611313565b82810360208401526114598187611313565b604084019590955250506060015292915050565b6000806040838503121561148057600080fd5b61148983611352565b915061141060208401611352565b600181811c908216806114ab57607f821691505b602082108114156114cc57634e487b7160e01b600052602260045260246000fd5b50919050565b634e487b7160e01b600052601160045260246000fd5b600082198211156114fb576114fb6114d2565b500190565b7f416363657373436f6e74726f6c3a206163636f756e74200000000000000000008152600083516115388160178501602088016112e7565b7001034b99036b4b9b9b4b733903937b6329607d1b60179184019182015283516115698160288401602088016112e7565b01602801949350505050565b60006020828403121561158757600080fd5b8151801515811461110857600080fd5b60008160001904831182151516156115b1576115b16114d2565b500290565b634e487b7160e01b600052604160045260246000fd5b634e487b7160e01b600052603260045260246000fd5b6000816115f1576115f16114d2565b50600019019056fea2646970667358221220b31fae54300c70182270628b882e7afcbc02a5111b1f6a9dede52a9a65732e9764736f6c63430008090033",
  "linkReferences": {},
  "deployedLinkReferences": {}
}