{
  "_format": "hh-sol-artifact-1",
  "contractName": "BkPlayerBonus",
  "sourceName": "contracts/features/BkPlayerBonus.sol",
  "abi": [
    {
      "anonymous": false,
      "inputs": [
        {
          "indexed": false,
          "internalType": "uint8",
          "name": "version",
          "type": "uint8"
        }
      ],
      "name": "Initialized",
      "type": "event"
    },
    {
      "anonymous": false,
      "inputs": [
        {
          "indexed": false,
          "internalType": "address",
          "name": "account",
          "type": "address"
        }
      ],
      "name": "Paused",
      "type": "event"
    },
    {
      "anonymous": false,
      "inputs": [
        {
          "indexed": true,
          "internalType": "bytes32",
          "name": "role",
          "type": "bytes32"
        },
        {
          "indexed": true,
          "internalType": "bytes32",
          "name": "previousAdminRole",
          "type": "bytes32"
        },
        {
          "indexed": true,
          "internalType": "bytes32",
          "name": "newAdminRole",
          "type": "bytes32"
        }
      ],
      "name": "RoleAdminChanged",
      "type": "event"
    },
    {
      "anonymous": false,
      "inputs": [
        {
          "indexed": true,
          "internalType": "bytes32",
          "name": "role",
          "type": "bytes32"
        },
        {
          "indexed": true,
          "internalType": "address",
          "name": "account",
          "type": "address"
        },
        {
          "indexed": true,
          "internalType": "address",
          "name": "sender",
          "type": "address"
        }
      ],
      "name": "RoleGranted",
      "type": "event"
    },
    {
      "anonymous": false,
      "inputs": [
        {
          "indexed": true,
          "internalType": "bytes32",
          "name": "role",
          "type": "bytes32"
        },
        {
          "indexed": true,
          "internalType": "address",
          "name": "account",
          "type": "address"
        },
        {
          "indexed": true,
          "internalType": "address",
          "name": "sender",
          "type": "address"
        }
      ],
      "name": "RoleRevoked",
      "type": "event"
    },
    {
      "anonymous": false,
      "inputs": [
        {
          "indexed": false,
          "internalType": "address",
          "name": "account",
          "type": "address"
        }
      ],
      "name": "Unpaused",
      "type": "event"
    },
    {
      "inputs": [],
      "name": "DEFAULT_ADMIN_ROLE",
      "outputs": [
        {
          "internalType": "bytes32",
          "name": "",
          "type": "bytes32"
        }
      ],
      "stateMutability": "view",
      "type": "function"
    },
    {
      "inputs": [
        {
          "internalType": "address",
          "name": "_operator",
          "type": "address"
        },
        {
          "internalType": "address",
          "name": "_blocklistAddress",
          "type": "address"
        }
      ],
      "name": "__Administrable_init",
      "outputs": [],
      "stateMutability": "nonpayable",
      "type": "function"
    },
    {
      "inputs": [
        {
          "internalType": "address",
          "name": "account",
          "type": "address"
        }
      ],
      "name": "bonusOf",
      "outputs": [
        {
          "internalType": "uint256",
          "name": "",
          "type": "uint256"
        }
      ],
      "stateMutability": "view",
      "type": "function"
    },
    {
      "inputs": [
        {
          "internalType": "address",
          "name": "account",
          "type": "address"
        }
      ],
      "name": "bonusWithFortuneAndMasteryOf",
      "outputs": [
        {
          "internalType": "uint256",
          "name": "",
          "type": "uint256"
        },
        {
          "internalType": "uint256",
          "name": "",
          "type": "uint256"
        },
        {
          "internalType": "uint256[]",
          "name": "",
          "type": "uint256[]"
        }
      ],
      "stateMutability": "view",
      "type": "function"
    },
    {
      "inputs": [
        {
          "internalType": "address",
          "name": "account",
          "type": "address"
        }
      ],
      "name": "bonusWithFortuneOf",
      "outputs": [
        {
          "internalType": "uint256",
          "name": "",
          "type": "uint256"
        },
        {
          "internalType": "uint256",
          "name": "",
          "type": "uint256"
        }
      ],
      "stateMutability": "view",
      "type": "function"
    },
    {
      "inputs": [
        {
          "internalType": "address",
          "name": "account",
          "type": "address"
        }
      ],
      "name": "detailedBonusOf",
      "outputs": [
        {
          "components": [
            {
              "internalType": "uint256",
              "name": "stash",
              "type": "uint256"
            },
            {
              "internalType": "uint256",
              "name": "mythicMints",
              "type": "uint256"
            },
            {
              "internalType": "uint256",
              "name": "item",
              "type": "uint256"
            },
            {
              "internalType": "uint256",
              "name": "special",
              "type": "uint256"
            },
            {
              "internalType": "uint256",
              "name": "fortuneLevel",
              "type": "uint256"
            },
            {
              "internalType": "uint256",
              "name": "total",
              "type": "uint256"
            }
          ],
          "internalType": "struct BkPlayerBonus.Player",
          "name": "",
          "type": "tuple"
        },
        {
          "internalType": "uint256[]",
          "name": "_masteryLevels",
          "type": "uint256[]"
        }
      ],
      "stateMutability": "view",
      "type": "function"
    },
    {
      "inputs": [
        {
          "internalType": "bytes32",
          "name": "role",
          "type": "bytes32"
        }
      ],
      "name": "getRoleAdmin",
      "outputs": [
        {
          "internalType": "bytes32",
          "name": "",
          "type": "bytes32"
        }
      ],
      "stateMutability": "view",
      "type": "function"
    },
    {
      "inputs": [
        {
          "internalType": "bytes32",
          "name": "role",
          "type": "bytes32"
        },
        {
          "internalType": "address",
          "name": "account",
          "type": "address"
        }
      ],
      "name": "grantRole",
      "outputs": [],
      "stateMutability": "nonpayable",
      "type": "function"
    },
    {
      "inputs": [],
      "name": "hasBlocklist",
      "outputs": [
        {
          "internalType": "bool",
          "name": "",
          "type": "bool"
        }
      ],
      "stateMutability": "view",
      "type": "function"
    },
    {
      "inputs": [
        {
          "internalType": "bytes32",
          "name": "role",
          "type": "bytes32"
        },
        {
          "internalType": "address",
          "name": "account",
          "type": "address"
        }
      ],
      "name": "hasRole",
      "outputs": [
        {
          "internalType": "bool",
          "name": "",
          "type": "bool"
        }
      ],
      "stateMutability": "view",
      "type": "function"
    },
    {
      "inputs": [
        {
          "internalType": "address",
          "name": "account",
          "type": "address"
        }
      ],
      "name": "incrementMythicsOf",
      "outputs": [],
      "stateMutability": "nonpayable",
      "type": "function"
    },
    {
      "inputs": [
        {
          "internalType": "address",
          "name": "_operator",
          "type": "address"
        },
        {
          "internalType": "address",
          "name": "_blocklist",
          "type": "address"
        },
        {
          "internalType": "address",
          "name": "_stasher",
          "type": "address"
        }
      ],
      "name": "initialize",
      "outputs": [],
      "stateMutability": "nonpayable",
      "type": "function"
    },
    {
      "inputs": [
        {
          "internalType": "address",
          "name": "",
          "type": "address"
        },
        {
          "internalType": "uint256",
          "name": "",
          "type": "uint256"
        }
      ],
      "name": "masteryLevels",
      "outputs": [
        {
          "internalType": "uint256",
          "name": "",
          "type": "uint256"
        }
      ],
      "stateMutability": "view",
      "type": "function"
    },
    {
      "inputs": [],
      "name": "pause",
      "outputs": [],
      "stateMutability": "nonpayable",
      "type": "function"
    },
    {
      "inputs": [],
      "name": "paused",
      "outputs": [
        {
          "internalType": "bool",
          "name": "",
          "type": "bool"
        }
      ],
      "stateMutability": "view",
      "type": "function"
    },
    {
      "inputs": [
        {
          "internalType": "address",
          "name": "",
          "type": "address"
        }
      ],
      "name": "players",
      "outputs": [
        {
          "internalType": "uint256",
          "name": "stash",
          "type": "uint256"
        },
        {
          "internalType": "uint256",
          "name": "mythicMints",
          "type": "uint256"
        },
        {
          "internalType": "uint256",
          "name": "item",
          "type": "uint256"
        },
        {
          "internalType": "uint256",
          "name": "special",
          "type": "uint256"
        },
        {
          "internalType": "uint256",
          "name": "fortuneLevel",
          "type": "uint256"
        },
        {
          "internalType": "uint256",
          "name": "total",
          "type": "uint256"
        }
      ],
      "stateMutability": "view",
      "type": "function"
    },
    {
      "inputs": [
        {
          "internalType": "address",
          "name": "tokenAddress",
          "type": "address"
        },
        {
          "internalType": "address",
          "name": "to",
          "type": "address"
        },
        {
          "internalType": "uint256",
          "name": "amount",
          "type": "uint256"
        }
      ],
      "name": "recoverERC20",
      "outputs": [],
      "stateMutability": "nonpayable",
      "type": "function"
    },
    {
      "inputs": [
        {
          "internalType": "bytes32",
          "name": "role",
          "type": "bytes32"
        },
        {
          "internalType": "address",
          "name": "account",
          "type": "address"
        }
      ],
      "name": "renounceRole",
      "outputs": [],
      "stateMutability": "nonpayable",
      "type": "function"
    },
    {
      "inputs": [],
      "name": "resetBlocklist",
      "outputs": [],
      "stateMutability": "nonpayable",
      "type": "function"
    },
    {
      "inputs": [
        {
          "internalType": "address",
          "name": "account",
          "type": "address"
        }
      ],
      "name": "resetBonusOf",
      "outputs": [],
      "stateMutability": "nonpayable",
      "type": "function"
    },
    {
      "inputs": [
        {
          "internalType": "bytes32",
          "name": "role",
          "type": "bytes32"
        },
        {
          "internalType": "address",
          "name": "account",
          "type": "address"
        }
      ],
      "name": "revokeRole",
      "outputs": [],
      "stateMutability": "nonpayable",
      "type": "function"
    },
    {
      "inputs": [
        {
          "internalType": "address",
          "name": "account",
          "type": "address"
        },
        {
          "components": [
            {
              "internalType": "uint256",
              "name": "stash",
              "type": "uint256"
            },
            {
              "internalType": "uint256",
              "name": "mythicMints",
              "type": "uint256"
            },
            {
              "internalType": "uint256",
              "name": "item",
              "type": "uint256"
            },
            {
              "internalType": "uint256",
              "name": "special",
              "type": "uint256"
            },
            {
              "internalType": "uint256",
              "name": "fortuneLevel",
              "type": "uint256"
            },
            {
              "internalType": "uint256",
              "name": "total",
              "type": "uint256"
            }
          ],
          "internalType": "struct BkPlayerBonus.Player",
          "name": "playerBonus",
          "type": "tuple"
        },
        {
          "internalType": "uint256[]",
          "name": "_masteryLevels",
          "type": "uint256[]"
        }
      ],
      "name": "setAllOf",
      "outputs": [],
      "stateMutability": "nonpayable",
      "type": "function"
    },
    {
      "inputs": [
        {
          "internalType": "address",
          "name": "blocklistAddress",
          "type": "address"
        }
      ],
      "name": "setBlocklist",
      "outputs": [],
      "stateMutability": "nonpayable",
      "type": "function"
    },
    {
      "inputs": [
        {
          "internalType": "address",
          "name": "account",
          "type": "address"
        },
        {
          "internalType": "uint256",
          "name": "fortuneLevel",
          "type": "uint256"
        }
      ],
      "name": "setFortuneLevelOf",
      "outputs": [],
      "stateMutability": "nonpayable",
      "type": "function"
    },
    {
      "inputs": [
        {
          "internalType": "address",
          "name": "account",
          "type": "address"
        },
        {
          "internalType": "uint256",
          "name": "item",
          "type": "uint256"
        }
      ],
      "name": "setItemOf",
      "outputs": [],
      "stateMutability": "nonpayable",
      "type": "function"
    },
    {
      "inputs": [
        {
          "internalType": "address",
          "name": "account",
          "type": "address"
        },
        {
          "internalType": "uint256[]",
          "name": "_masteryLevels",
          "type": "uint256[]"
        }
      ],
      "name": "setMasteryLevelsOf",
      "outputs": [],
      "stateMutability": "nonpayable",
      "type": "function"
    },
    {
      "inputs": [
        {
          "internalType": "address",
          "name": "account",
          "type": "address"
        },
        {
          "internalType": "uint256",
          "name": "mythicMints",
          "type": "uint256"
        }
      ],
      "name": "setMythicMintsOf",
      "outputs": [],
      "stateMutability": "nonpayable",
      "type": "function"
    },
    {
      "inputs": [
        {
          "internalType": "address",
          "name": "account",
          "type": "address"
        }
      ],
      "name": "setSoldOrTransferredOf",
      "outputs": [],
      "stateMutability": "nonpayable",
      "type": "function"
    },
    {
      "inputs": [
        {
          "internalType": "address",
          "name": "account",
          "type": "address"
        },
        {
          "internalType": "uint256",
          "name": "special",
          "type": "uint256"
        }
      ],
      "name": "setSpecialOf",
      "outputs": [],
      "stateMutability": "nonpayable",
      "type": "function"
    },
    {
      "inputs": [
        {
          "internalType": "address",
          "name": "account",
          "type": "address"
        },
        {
          "internalType": "uint256",
          "name": "stash",
          "type": "uint256"
        }
      ],
      "name": "setStashOf",
      "outputs": [],
      "stateMutability": "nonpayable",
      "type": "function"
    },
    {
      "inputs": [
        {
          "internalType": "address",
          "name": "",
          "type": "address"
        }
      ],
      "name": "soldOrTransferredAt",
      "outputs": [
        {
          "internalType": "uint256",
          "name": "",
          "type": "uint256"
        }
      ],
      "stateMutability": "view",
      "type": "function"
    },
    {
      "inputs": [],
      "name": "stasher",
      "outputs": [
        {
          "internalType": "contract IBkStasher",
          "name": "",
          "type": "address"
        }
      ],
      "stateMutability": "view",
      "type": "function"
    },
    {
      "inputs": [
        {
          "internalType": "bytes4",
          "name": "interfaceId",
          "type": "bytes4"
        }
      ],
      "name": "supportsInterface",
      "outputs": [
        {
          "internalType": "bool",
          "name": "",
          "type": "bool"
        }
      ],
      "stateMutability": "view",
      "type": "function"
    },
    {
      "inputs": [],
      "name": "unpause",
      "outputs": [],
      "stateMutability": "nonpayable",
      "type": "function"
    }
  ],
  "bytecode": "0x608060405234801561001057600080fd5b50611ad0806100206000396000f3fe608060405234801561001057600080fd5b50600436106102065760003560e01c8063706548821161011a578063aa90a96f116100ad578063c0c53b8b1161007c578063c0c53b8b146104b6578063cd636406146104c9578063cf77343e146104dc578063d547741f146104fd578063e2eb41ff1461051057600080fd5b8063aa90a96f1461046a578063aef18ae71461047d578063b1b2eee014610490578063b8fe2f90146104a357600080fd5b8063931da89b116100e9578063931da89b146104115780639f57891d14610424578063a00dfaa91461044f578063a217fddf1461046257600080fd5b806370654882146103b4578063748efe44146103d45780638456cb59146103f657806391d14854146103fe57600080fd5b806334d415201161019d5780633f4ba83a1161016c5780633f4ba83a14610367578063535dc5f91461036f578063538ed2a1146103825780635c975abb14610395578063634210f4146103a057600080fd5b806334d415201461032657806336568abe146103395780633c7fd8221461034c5780633d83c6de1461035457600080fd5b8063248a9ca3116101d9578063248a9ca3146102ca57806324ea73aa146102ed5780632f2ff15d146103005780632f46c3831461031357600080fd5b806301ffc9a71461020b57806306b78e37146102335780631171bda91461027b5780631283e32814610290575b600080fd5b61021e610219366004611501565b610580565b60405190151581526020015b60405180910390f35b610266610241366004611547565b6001600160a01b0316600090815260cb60205260409020600481015460059091015491565b6040805192835260208301919091520161022a565b61028e610289366004611562565b6105b7565b005b6102bc61029e366004611547565b6001600160a01b0316600090815260cb602052604090206005015490565b60405190815260200161022a565b6102bc6102d836600461159e565b60009081526065602052604090206001015490565b61028e6102fb366004611547565b610658565b61028e61030e3660046115b7565b61070e565b61028e6103213660046115e3565b610733565b61028e6103343660046115e3565b610772565b61028e6103473660046115b7565b6107b1565b61028e6107d4565b61028e6103623660046115e3565b6107ff565b61028e61083b565b61028e61037d36600461160d565b61085e565b61028e6103903660046115e3565b6108fe565b60975460ff1661021e565b60c95461021e90600160a01b900460ff1681565b6102bc6103c2366004611547565b60cd6020526000908152604090205481565b6103e76103e2366004611547565b61093d565b60405161022a939291906116e6565b61028e610a62565b61021e61040c3660046115b7565b610a82565b61028e61041f36600461170e565b610aad565b60ca54610437906001600160a01b031681565b6040516001600160a01b03909116815260200161022a565b61028e61045d3660046115e3565b610bb1565b6102bc600081565b61028e610478366004611547565b610bf0565b61028e61048b366004611547565b610c25565b61028e61049e366004611547565b610c65565b61028e6104b136600461174e565b610cb2565b61028e6104c436600461181f565b610cf9565b6102bc6104d73660046115e3565b610dcf565b6104ef6104ea366004611547565b610e00565b60405161022a929190611862565b61028e61050b3660046115b7565b610fbb565b61055361051e366004611547565b60cb60205260009081526040902080546001820154600283015460038401546004850154600590950154939492939192909186565b604080519687526020870195909552938501929092526060840152608083015260a082015260c00161022a565b60006001600160e01b03198216637965db0b60e01b14806105b157506301ffc9a760e01b6001600160e01b03198316145b92915050565b600080516020611a7b8339815191526105cf81610fe0565b60405163a9059cbb60e01b81526001600160a01b0384811660048301526024820184905285169063a9059cbb90604401602060405180830381600087803b15801561061957600080fd5b505af115801561062d573d6000803e3d6000fd5b505050506040513d601f19601f8201168201806040525081019061065191906118b6565b5050505050565b600080516020611a5b83398151915261067081610fe0565b6001600160a01b03828116600081815260cb60205260409081902060ca549151635c138c9d60e01b81526004810193909352921690635c138c9d9060240160206040518083038186803b1580156106c657600080fd5b505afa1580156106da573d6000803e3d6000fd5b505050506040513d601f19601f820116820180604052508101906106fe91906118d8565b815561070983610fea565b505050565b60008281526065602052604090206001015461072981610fe0565b610709838361102b565b600080516020611a5b83398151915261074b81610fe0565b6001600160a01b038316600090815260cb6020526040902060030182905561070983610fea565b600080516020611a5b83398151915261078a81610fe0565b6001600160a01b038316600090815260cb6020526040902060040182905561070983610fea565b6001600160a01b03811633146107c657600080fd5b6107d082826110b1565b5050565b600080516020611a7b8339815191526107ec81610fe0565b5060c980546001600160a81b0319169055565b600080516020611a5b83398151915261081781610fe0565b6001600160a01b038316600090815260cb6020526040902082905561070983610fea565b600080516020611a7b83398151915261085381610fe0565b61085b611118565b50565b600080516020611a5b83398151915261087681610fe0565b6001600160a01b038516600090815260cb6020526040902084906108cf8282813581556020820135600182015560408201356002820155606082013560038201556080820135600482015560a082013560058201555050565b50506001600160a01b038516600090815260cc602052604090206108f4908484611466565b5061065185610fea565b600080516020611a5b83398151915261091681610fe0565b6001600160a01b038316600090815260cb6020526040902060020182905561070983610fea565b6001600160a01b038116600090815260cb602090815260408083206004015460cc9092528220548291606091158061098d57506001600160a01b038516600090815260cb6020526040902054600a115b156109dd5760408051600680825260e082019092526000916020820160c0803683375050506001600160a01b038716600090815260cb60205260409020600501549550919350909150610a5b9050565b6001600160a01b038516600090815260cb602090815260408083206005015460cc83529281902080548251818502810185019093528083528593919291839190830182828015610a4c57602002820191906000526020600020905b815481526020019060010190808311610a38575b50505050509050935093509350505b9193909250565b600080516020611a7b833981519152610a7a81610fe0565b61085b61116a565b60009182526065602090815260408084206001600160a01b0393909316845291905290205460ff1690565b600054610100900460ff1615808015610acd5750600054600160ff909116105b80610ae75750303b158015610ae7575060005460ff166001145b610af057600080fd5b6000805460ff191660011790558015610b13576000805461ff0019166101001790555b610b1b6111a7565b610b236111bd565b610b2e6000846111d9565b610b46600080516020611a7b833981519152846111d9565b610b5e600080516020611a5b833981519152846111d9565b610b6782610c25565b8015610709576000805461ff0019169055604051600181527f7f26b83ff96e1f2b6a682f133852f6798a09c465da95921460cefb38474024989060200160405180910390a1505050565b600080516020611a5b833981519152610bc981610fe0565b6001600160a01b038316600090815260cb6020526040902060010182905561070983610fea565b600080516020611a5b833981519152610c0881610fe0565b506001600160a01b0316600090815260cd60205260409020439055565b600080516020611a7b833981519152610c3d81610fe0565b5060c980546001600160a81b0319166001600160a01b0390921691909117600160a01b179055565b600080516020611a5b833981519152610c7d81610fe0565b6001600160a01b038216600090815260cb60205260408120600101805491610ca483611907565b91905055506107d082610fea565b600080516020611a5b833981519152610cca81610fe0565b6001600160a01b038316600090815260cc602090815260409091208351610cf3928501906114b1565b50505050565b600054610100900460ff1615808015610d195750600054600160ff909116105b80610d335750303b158015610d33575060005460ff166001145b610d3c57600080fd5b6000805460ff191660011790558015610d5f576000805461ff0019166101001790555b610d698484610aad565b60ca80546001600160a01b0319166001600160a01b0384161790558015610cf3576000805461ff0019169055604051600181527f7f26b83ff96e1f2b6a682f133852f6798a09c465da95921460cefb38474024989060200160405180910390a150505050565b60cc6020528160005260406000208181548110610deb57600080fd5b90600052602060002001600091509150505481565b610e396040518060c001604052806000815260200160008152602001600081526020016000815260200160008152602001600081525090565b6001600160a01b038216600090815260cc60205260409020546060901580610e7957506001600160a01b038316600090815260cb6020526040902054600a115b15610f065760408051600680825260e082019092526000916020820160c080368337019050506001600160a01b03909416600090815260cb6020908152604091829020825160c08101845281548152600182015492810192909252600281015492820192909252600382015460608201526004820154608082015260059091015460a08201529492505050565b6001600160a01b038316600090815260cb6020908152604080832060cc835292819020815160c08101835284548152600185015481850152600285015481840152600385015460608201526004850154608082015260059094015460a085015280548251818502810185019093528083529092839190830182828015610fab57602002820191906000526020600020905b815481526020019060010190808311610f97575b5050505050905091509150915091565b600082815260656020526040902060010154610fd681610fe0565b61070983836110b1565b61085b81336111e3565b6001600160a01b038116600090815260cb602052604090206003810154600282015482546110189190611922565b6110229190611922565b60059091015550565b6110358282610a82565b6107d05760008281526065602090815260408083206001600160a01b03851684529091529020805460ff1916600117905561106d3390565b6001600160a01b0316816001600160a01b0316837f2f8788117e7eff1d82e926ec794901d17c78024a50270940304540a733656f0d60405160405180910390a45050565b6110bb8282610a82565b156107d05760008281526065602090815260408083206001600160a01b0385168085529252808320805460ff1916905551339285917ff6391f5c32d9c69d2a47ea670b442974b53935d1edc7fd64eb21e047a839171b9190a45050565b611120611245565b6097805460ff191690557f5db9ee0a495bf2e6ff9c91a7834c1ba4fdd244a5e8aa4e537bd38aeae4b073aa335b6040516001600160a01b03909116815260200160405180910390a1565b61117261128e565b6097805460ff191660011790557f62e78cea01bee320cd4e420270b5ea74000d11b0c9f74754ebdbfc544b05a25861114d3390565b600054610100900460ff166111bb57600080fd5b565b600054610100900460ff166111d157600080fd5b6111bb6112d4565b6107d0828261102b565b6111ed8282610a82565b6107d0576111fa816112f4565b611205836020611306565b604051602001611216929190611966565b60408051601f198184030181529082905262461bcd60e51b825261123c916004016119db565b60405180910390fd5b60975460ff166111bb5760405162461bcd60e51b815260206004820152601460248201527314185d5cd8589b194e881b9bdd081c185d5cd95960621b604482015260640161123c565b60975460ff16156111bb5760405162461bcd60e51b815260206004820152601060248201526f14185d5cd8589b194e881c185d5cd95960821b604482015260640161123c565b600054610100900460ff166112e857600080fd5b6097805460ff19169055565b60606105b16001600160a01b03831660145b60606000611315836002611a0e565b611320906002611922565b67ffffffffffffffff81111561133857611338611738565b6040519080825280601f01601f191660200182016040528015611362576020820181803683370190505b509050600360fc1b8160008151811061137d5761137d611a2d565b60200101906001600160f81b031916908160001a905350600f60fb1b816001815181106113ac576113ac611a2d565b60200101906001600160f81b031916908160001a90535060006113d0846002611a0e565b6113db906001611922565b90505b6001811115611453576f181899199a1a9b1b9c1cb0b131b232b360811b85600f166010811061140f5761140f611a2d565b1a60f81b82828151811061142557611425611a2d565b60200101906001600160f81b031916908160001a90535060049490941c9361144c81611a43565b90506113de565b50831561145f57600080fd5b9392505050565b8280548282559060005260206000209081019282156114a1579160200282015b828111156114a1578235825591602001919060010190611486565b506114ad9291506114ec565b5090565b8280548282559060005260206000209081019282156114a1579160200282015b828111156114a15782518255916020019190600101906114d1565b5b808211156114ad57600081556001016114ed565b60006020828403121561151357600080fd5b81356001600160e01b03198116811461145f57600080fd5b80356001600160a01b038116811461154257600080fd5b919050565b60006020828403121561155957600080fd5b61145f8261152b565b60008060006060848603121561157757600080fd5b6115808461152b565b925061158e6020850161152b565b9150604084013590509250925092565b6000602082840312156115b057600080fd5b5035919050565b600080604083850312156115ca57600080fd5b823591506115da6020840161152b565b90509250929050565b600080604083850312156115f657600080fd5b6115ff8361152b565b946020939093013593505050565b60008060008084860361010081121561162557600080fd5b61162e8661152b565b945060c0601f198201121561164257600080fd5b5060208501925060e085013567ffffffffffffffff8082111561166457600080fd5b818701915087601f83011261167857600080fd5b81358181111561168757600080fd5b8860208260051b850101111561169c57600080fd5b95989497505060200194505050565b600081518084526020808501945080840160005b838110156116db578151875295820195908201906001016116bf565b509495945050505050565b83815282602082015260606040820152600061170560608301846116ab565b95945050505050565b6000806040838503121561172157600080fd5b61172a8361152b565b91506115da6020840161152b565b634e487b7160e01b600052604160045260246000fd5b6000806040838503121561176157600080fd5b61176a8361152b565b915060208084013567ffffffffffffffff8082111561178857600080fd5b818601915086601f83011261179c57600080fd5b8135818111156117ae576117ae611738565b8060051b604051601f19603f830116810181811085821117156117d3576117d3611738565b6040529182528482019250838101850191898311156117f157600080fd5b938501935b8285101561180f578435845293850193928501926117f6565b8096505050505050509250929050565b60008060006060848603121561183457600080fd5b61183d8461152b565b925061184b6020850161152b565b91506118596040850161152b565b90509250925092565b825181526020830151602082015260408301516040820152606083015160608201526080830151608082015260a083015160a082015260e060c082015260006118ae60e08301846116ab565b949350505050565b6000602082840312156118c857600080fd5b8151801515811461145f57600080fd5b6000602082840312156118ea57600080fd5b5051919050565b634e487b7160e01b600052601160045260246000fd5b600060001982141561191b5761191b6118f1565b5060010190565b60008219821115611935576119356118f1565b500190565b60005b8381101561195557818101518382015260200161193d565b83811115610cf35750506000910152565b7f416363657373436f6e74726f6c3a206163636f756e742000000000000000000081526000835161199e81601785016020880161193a565b7001034b99036b4b9b9b4b733903937b6329607d1b60179184019182015283516119cf81602884016020880161193a565b01602801949350505050565b60208152600082518060208401526119fa81604085016020870161193a565b601f01601f19169190910160400192915050565b6000816000190483118215151615611a2857611a286118f1565b500290565b634e487b7160e01b600052603260045260246000fd5b600081611a5257611a526118f1565b50600019019056fe73e573f9566d61418a34d5de3ff49360f9c51fec37f7486551670290f6285dab97667070c54ef182b0f5858b034beac1b6f3089aa2d3188bb1e8929f4fa9b929a264697066735822122024377ce50d54acbbbc38766be98866fac378f2f56d14fa9cbe2ddbdb9a293f3e64736f6c63430008090033",
  "linkReferences": {},
  "deployedLinkReferences": {}
}