{
  "_format": "hh-sol-artifact-1",
  "contractName": "KingdomFlow",
  "sourceName": "contracts/features/KingdomFlow.sol",
  "abi": [
    {
      "anonymous": false,
      "inputs": [
        {
          "indexed": false,
          "internalType": "address",
          "name": "from",
          "type": "address"
        },
        {
          "indexed": false,
          "internalType": "uint256",
          "name": "amount",
          "type": "uint256"
        },
        {
          "indexed": false,
          "internalType": "uint256",
          "name": "totalBurnedKozi",
          "type": "uint256"
        }
      ],
      "name": "BurnKozi",
      "type": "event"
    },
    {
      "anonymous": false,
      "inputs": [
        {
          "indexed": false,
          "internalType": "address",
          "name": "from",
          "type": "address"
        },
        {
          "indexed": false,
          "internalType": "uint256",
          "name": "amount",
          "type": "uint256"
        },
        {
          "indexed": false,
          "internalType": "uint256",
          "name": "stabletokensDistributed",
          "type": "uint256"
        },
        {
          "indexed": false,
          "internalType": "uint256",
          "name": "totalStabletokensDistributed",
          "type": "uint256"
        }
      ],
      "name": "FlowKozi",
      "type": "event"
    },
    {
      "anonymous": false,
      "inputs": [
        {
          "indexed": false,
          "internalType": "uint8",
          "name": "version",
          "type": "uint8"
        }
      ],
      "name": "Initialized",
      "type": "event"
    },
    {
      "anonymous": false,
      "inputs": [
        {
          "indexed": false,
          "internalType": "address",
          "name": "account",
          "type": "address"
        }
      ],
      "name": "Paused",
      "type": "event"
    },
    {
      "anonymous": false,
      "inputs": [
        {
          "indexed": true,
          "internalType": "bytes32",
          "name": "role",
          "type": "bytes32"
        },
        {
          "indexed": true,
          "internalType": "bytes32",
          "name": "previousAdminRole",
          "type": "bytes32"
        },
        {
          "indexed": true,
          "internalType": "bytes32",
          "name": "newAdminRole",
          "type": "bytes32"
        }
      ],
      "name": "RoleAdminChanged",
      "type": "event"
    },
    {
      "anonymous": false,
      "inputs": [
        {
          "indexed": true,
          "internalType": "bytes32",
          "name": "role",
          "type": "bytes32"
        },
        {
          "indexed": true,
          "internalType": "address",
          "name": "account",
          "type": "address"
        },
        {
          "indexed": true,
          "internalType": "address",
          "name": "sender",
          "type": "address"
        }
      ],
      "name": "RoleGranted",
      "type": "event"
    },
    {
      "anonymous": false,
      "inputs": [
        {
          "indexed": true,
          "internalType": "bytes32",
          "name": "role",
          "type": "bytes32"
        },
        {
          "indexed": true,
          "internalType": "address",
          "name": "account",
          "type": "address"
        },
        {
          "indexed": true,
          "internalType": "address",
          "name": "sender",
          "type": "address"
        }
      ],
      "name": "RoleRevoked",
      "type": "event"
    },
    {
      "anonymous": false,
      "inputs": [
        {
          "indexed": false,
          "internalType": "address",
          "name": "account",
          "type": "address"
        }
      ],
      "name": "Unpaused",
      "type": "event"
    },
    {
      "inputs": [],
      "name": "DEFAULT_ADMIN_ROLE",
      "outputs": [
        {
          "internalType": "bytes32",
          "name": "",
          "type": "bytes32"
        }
      ],
      "stateMutability": "view",
      "type": "function"
    },
    {
      "inputs": [
        {
          "internalType": "address",
          "name": "_operator",
          "type": "address"
        },
        {
          "internalType": "address",
          "name": "_blocklistAddress",
          "type": "address"
        }
      ],
      "name": "__Administrable_init",
      "outputs": [],
      "stateMutability": "nonpayable",
      "type": "function"
    },
    {
      "inputs": [],
      "name": "burnExcessKozi",
      "outputs": [
        {
          "internalType": "bool",
          "name": "",
          "type": "bool"
        }
      ],
      "stateMutability": "view",
      "type": "function"
    },
    {
      "inputs": [
        {
          "internalType": "address[]",
          "name": "_kingdomNobles",
          "type": "address[]"
        }
      ],
      "name": "flowKozi",
      "outputs": [],
      "stateMutability": "payable",
      "type": "function"
    },
    {
      "inputs": [
        {
          "internalType": "bytes32",
          "name": "role",
          "type": "bytes32"
        }
      ],
      "name": "getRoleAdmin",
      "outputs": [
        {
          "internalType": "bytes32",
          "name": "",
          "type": "bytes32"
        }
      ],
      "stateMutability": "view",
      "type": "function"
    },
    {
      "inputs": [
        {
          "internalType": "bytes32",
          "name": "role",
          "type": "bytes32"
        },
        {
          "internalType": "address",
          "name": "account",
          "type": "address"
        }
      ],
      "name": "grantRole",
      "outputs": [],
      "stateMutability": "nonpayable",
      "type": "function"
    },
    {
      "inputs": [],
      "name": "hasBlocklist",
      "outputs": [
        {
          "internalType": "bool",
          "name": "",
          "type": "bool"
        }
      ],
      "stateMutability": "view",
      "type": "function"
    },
    {
      "inputs": [
        {
          "internalType": "bytes32",
          "name": "role",
          "type": "bytes32"
        },
        {
          "internalType": "address",
          "name": "account",
          "type": "address"
        }
      ],
      "name": "hasRole",
      "outputs": [
        {
          "internalType": "bool",
          "name": "",
          "type": "bool"
        }
      ],
      "stateMutability": "view",
      "type": "function"
    },
    {
      "inputs": [
        {
          "internalType": "address",
          "name": "_operator",
          "type": "address"
        },
        {
          "internalType": "address",
          "name": "_blocklist",
          "type": "address"
        },
        {
          "internalType": "address",
          "name": "_stabletoken",
          "type": "address"
        },
        {
          "internalType": "address",
          "name": "_treasury",
          "type": "address"
        }
      ],
      "name": "initialize",
      "outputs": [],
      "stateMutability": "nonpayable",
      "type": "function"
    },
    {
      "inputs": [],
      "name": "kingdomFunds",
      "outputs": [
        {
          "internalType": "contract IKingdomFunds",
          "name": "",
          "type": "address"
        }
      ],
      "stateMutability": "view",
      "type": "function"
    },
    {
      "inputs": [],
      "name": "kingdomNobles",
      "outputs": [
        {
          "internalType": "contract IKingdomNobles",
          "name": "",
          "type": "address"
        }
      ],
      "stateMutability": "view",
      "type": "function"
    },
    {
      "inputs": [],
      "name": "koziPool",
      "outputs": [
        {
          "internalType": "contract IKoziPool",
          "name": "",
          "type": "address"
        }
      ],
      "stateMutability": "view",
      "type": "function"
    },
    {
      "inputs": [],
      "name": "lastFlowBlock",
      "outputs": [
        {
          "internalType": "uint256",
          "name": "",
          "type": "uint256"
        }
      ],
      "stateMutability": "view",
      "type": "function"
    },
    {
      "inputs": [],
      "name": "maxKoziPerFlow",
      "outputs": [
        {
          "internalType": "uint256",
          "name": "",
          "type": "uint256"
        }
      ],
      "stateMutability": "view",
      "type": "function"
    },
    {
      "inputs": [],
      "name": "pause",
      "outputs": [],
      "stateMutability": "nonpayable",
      "type": "function"
    },
    {
      "inputs": [],
      "name": "paused",
      "outputs": [
        {
          "internalType": "bool",
          "name": "",
          "type": "bool"
        }
      ],
      "stateMutability": "view",
      "type": "function"
    },
    {
      "inputs": [
        {
          "internalType": "address",
          "name": "tokenAddress",
          "type": "address"
        },
        {
          "internalType": "address",
          "name": "to",
          "type": "address"
        },
        {
          "internalType": "uint256",
          "name": "amount",
          "type": "uint256"
        }
      ],
      "name": "recoverERC20",
      "outputs": [],
      "stateMutability": "nonpayable",
      "type": "function"
    },
    {
      "inputs": [
        {
          "internalType": "bytes32",
          "name": "role",
          "type": "bytes32"
        },
        {
          "internalType": "address",
          "name": "account",
          "type": "address"
        }
      ],
      "name": "renounceRole",
      "outputs": [],
      "stateMutability": "nonpayable",
      "type": "function"
    },
    {
      "inputs": [],
      "name": "resetBlocklist",
      "outputs": [],
      "stateMutability": "nonpayable",
      "type": "function"
    },
    {
      "inputs": [
        {
          "internalType": "bytes32",
          "name": "role",
          "type": "bytes32"
        },
        {
          "internalType": "address",
          "name": "account",
          "type": "address"
        }
      ],
      "name": "revokeRole",
      "outputs": [],
      "stateMutability": "nonpayable",
      "type": "function"
    },
    {
      "inputs": [
        {
          "internalType": "address",
          "name": "blocklistAddress",
          "type": "address"
        }
      ],
      "name": "setBlocklist",
      "outputs": [],
      "stateMutability": "nonpayable",
      "type": "function"
    },
    {
      "inputs": [
        {
          "internalType": "bool",
          "name": "_burnExcessKozi",
          "type": "bool"
        }
      ],
      "name": "setBurnExcessKozi",
      "outputs": [],
      "stateMutability": "nonpayable",
      "type": "function"
    },
    {
      "inputs": [
        {
          "internalType": "address",
          "name": "_kingdomFunds",
          "type": "address"
        },
        {
          "internalType": "address",
          "name": "_kingdomNobles",
          "type": "address"
        },
        {
          "internalType": "address",
          "name": "_koziPool",
          "type": "address"
        }
      ],
      "name": "setContracts",
      "outputs": [],
      "stateMutability": "nonpayable",
      "type": "function"
    },
    {
      "inputs": [
        {
          "internalType": "uint256",
          "name": "_maxKoziPerFlow",
          "type": "uint256"
        }
      ],
      "name": "setMaxKoziPerFlow",
      "outputs": [],
      "stateMutability": "nonpayable",
      "type": "function"
    },
    {
      "inputs": [],
      "name": "stabletoken",
      "outputs": [
        {
          "internalType": "contract IBkERC20",
          "name": "",
          "type": "address"
        }
      ],
      "stateMutability": "view",
      "type": "function"
    },
    {
      "inputs": [
        {
          "internalType": "bytes4",
          "name": "interfaceId",
          "type": "bytes4"
        }
      ],
      "name": "supportsInterface",
      "outputs": [
        {
          "internalType": "bool",
          "name": "",
          "type": "bool"
        }
      ],
      "stateMutability": "view",
      "type": "function"
    },
    {
      "inputs": [],
      "name": "totalBurnedKozi",
      "outputs": [
        {
          "internalType": "uint256",
          "name": "",
          "type": "uint256"
        }
      ],
      "stateMutability": "view",
      "type": "function"
    },
    {
      "inputs": [],
      "name": "totalStabletokensDistributed",
      "outputs": [
        {
          "internalType": "uint256",
          "name": "",
          "type": "uint256"
        }
      ],
      "stateMutability": "view",
      "type": "function"
    },
    {
      "inputs": [],
      "name": "treasury",
      "outputs": [
        {
          "internalType": "address",
          "name": "",
          "type": "address"
        }
      ],
      "stateMutability": "view",
      "type": "function"
    },
    {
      "inputs": [],
      "name": "unpause",
      "outputs": [],
      "stateMutability": "nonpayable",
      "type": "function"
    }
  ],
  "bytecode": "0x608060405234801561001057600080fd5b50611bbc806100206000396000f3fe6080604052600436106101cd5760003560e01c80638456cb59116100f7578063aef18ae711610095578063e330b73e11610064578063e330b73e146104f1578063e451753714610511578063f784978014610531578063f8c8765e1461055157600080fd5b8063aef18ae71461047b578063b3066d491461049b578063b4807c29146104bb578063d547741f146104d157600080fd5b80639b9b06a3116100d15780639b9b06a31461041a578063a217fddf14610430578063a4cdc83814610445578063ad6939221461045b57600080fd5b80638456cb59146103c557806391d14854146103da578063931da89b146103fa57600080fd5b80633f4ba83a1161016f57806361d027b31161013e57806361d027b314610354578063634210f41461037457806379fd204f146103955780637edf4a5a146103af57600080fd5b80633f4ba83a146102dc57806342e8b4e6146102f15780635c975abb1461032957806360eef76e1461034157600080fd5b8063248a9ca3116101ab578063248a9ca3146102495780632f2ff15d1461028757806336568abe146102a75780633c7fd822146102c757600080fd5b806301ffc9a7146101d25780631171bda91461020757806320c8b8d014610229575b600080fd5b3480156101de57600080fd5b506101f26101ed3660046116ab565b610571565b60405190151581526020015b60405180910390f35b34801561021357600080fd5b506102276102223660046116f1565b6105a8565b005b34801561023557600080fd5b5061022761024436600461172d565b610649565b34801561025557600080fd5b5061027961026436600461172d565b60009081526065602052604090206001015490565b6040519081526020016101fe565b34801561029357600080fd5b506102276102a2366004611746565b610667565b3480156102b357600080fd5b506102276102c2366004611746565b610691565b3480156102d357600080fd5b506102276106b4565b3480156102e857600080fd5b506102276106df565b3480156102fd57600080fd5b5060cc54610311906001600160a01b031681565b6040516001600160a01b0390911681526020016101fe565b34801561033557600080fd5b5060975460ff166101f2565b61022761034f366004611788565b610702565b34801561036057600080fd5b5060d054610311906001600160a01b031681565b34801561038057600080fd5b5060c9546101f290600160a01b900460ff1681565b3480156103a157600080fd5b5060d3546101f29060ff1681565b3480156103bb57600080fd5b5061027960d25481565b3480156103d157600080fd5b50610227610dcf565b3480156103e657600080fd5b506101f26103f5366004611746565b610def565b34801561040657600080fd5b5061022761041536600461184d565b610e1a565b34801561042657600080fd5b5061027960cf5481565b34801561043c57600080fd5b50610279600081565b34801561045157600080fd5b5061027960ce5481565b34801561046757600080fd5b5060cd54610311906001600160a01b031681565b34801561048757600080fd5b50610227610496366004611877565b610f30565b3480156104a757600080fd5b506102276104b6366004611892565b610f70565b3480156104c757600080fd5b5061027960d15481565b3480156104dd57600080fd5b506102276104ec366004611746565b61108f565b3480156104fd57600080fd5b5061022761050c3660046118e3565b6110b4565b34801561051d57600080fd5b5060ca54610311906001600160a01b031681565b34801561053d57600080fd5b5060cb54610311906001600160a01b031681565b34801561055d57600080fd5b5061022761056c366004611900565b6110e0565b60006001600160e01b03198216637965db0b60e01b14806105a257506301ffc9a760e01b6001600160e01b03198316145b92915050565b600080516020611b678339815191526105c0816111e4565b60405163a9059cbb60e01b81526001600160a01b0384811660048301526024820184905285169063a9059cbb90604401602060405180830381600087803b15801561060a57600080fd5b505af115801561061e573d6000803e3d6000fd5b505050506040513d601f19601f820116820180604052508101906106429190611954565b5050505050565b600080516020611b67833981519152610661816111e4565b5060d255565b600082815260656020526040902060010154610682816111e4565b61068c83836111ee565b505050565b6001600160a01b03811633146106a657600080fd5b6106b08282611274565b5050565b600080516020611b678339815191526106cc816111e4565b5060c980546001600160a81b0319169055565b600080516020611b678339815191526106f7816111e4565b6106ff6112db565b50565b60c954600160a81b900460ff16156107495760405162461bcd60e51b81526020600482015260056024820152640daeae8caf60db1b60448201526064015b60405180910390fd5b60c9805460ff60a81b1916600160a81b17905561076461132d565b7f73e573f9566d61418a34d5de3ff49360f9c51fec37f7486551670290f6285dab61078e816111e4565b4360d15560cd5460408051630a46e66d60e01b815290516000926001600160a01b031691630a46e66d916004808301926020929190829003018186803b1580156107d757600080fd5b505afa1580156107eb573d6000803e3d6000fd5b505050506040513d601f19601f8201168201806040525081019061080f9190611971565b9050633b9aca00811115610d765760d25481111561082c575060d2545b348111156108375750345b600061084382346119a0565b905060cd60009054906101000a90046001600160a01b03166001600160a01b0316638e2bb5f1836040518263ffffffff1660e01b81526004016000604051808303818588803b15801561089557600080fd5b505af11580156108a9573d6000803e3d6000fd5b505060ca546040516370a0823160e01b8152306004820152600094506001600160a01b0390911692506370a08231915060240160206040518083038186803b1580156108f457600080fd5b505afa158015610908573d6000803e3d6000fd5b505050506040513d601f19601f8201168201806040525081019061092c9190611971565b90508060cf600082825461094091906119b7565b90915550600090506103e861095683607d6119cf565b61096091906119ee565b60cc54604051631826c11960e01b81529192506001600160a01b031690631826c119906109939089908590600401611a10565b600060405180830381600087803b1580156109ad57600080fd5b505af11580156109c1573d6000803e3d6000fd5b50505050600060648360046109d691906119cf565b6109e091906119ee565b60cb54604051631c57762b60e31b815260016004820152602481018390529192506001600160a01b03169063e2bbb15890604401600060405180830381600087803b158015610a2e57600080fd5b505af1158015610a42573d6000803e3d6000fd5b5050505060006064846004610a5791906119cf565b610a6191906119ee565b60cb54604051631c57762b60e31b815260026004820152602481018390529192506001600160a01b03169063e2bbb15890604401600060405180830381600087803b158015610aaf57600080fd5b505af1158015610ac3573d6000803e3d6000fd5b5050505060006064856003610ad891906119cf565b610ae291906119ee565b60cb54604051631c57762b60e31b815260036004820152602481018390529192506001600160a01b03169063e2bbb15890604401600060405180830381600087803b158015610b3057600080fd5b505af1158015610b44573d6000803e3d6000fd5b5050505060006103e886600f610b5a91906119cf565b610b6491906119ee565b60cb54604051631c57762b60e31b8152600480820152602481018390529192506001600160a01b03169063e2bbb15890604401600060405180830381600087803b158015610bb157600080fd5b505af1158015610bc5573d6000803e3d6000fd5b505060ca546040516370a0823160e01b8152306004820152600093506001600160a01b0390911691506370a082319060240160206040518083038186803b158015610c0f57600080fd5b505afa158015610c23573d6000803e3d6000fd5b505050506040513d601f19601f82011682018060405250810190610c479190611971565b60ca5460d05460405163a9059cbb60e01b81526001600160a01b03918216600482015260248101849052929350169063a9059cbb90604401602060405180830381600087803b158015610c9957600080fd5b505af1158015610cad573d6000803e3d6000fd5b505050506040513d601f19601f82011682018060405250810190610cd19190611954565b508715610d205760d35460ff1615610cf157610cec88611375565b610d20565b604051339089156108fc02908a906000818181858888f19350505050158015610d1e573d6000803e3d6000fd5b505b60cf54604080513381523460208201528082018a90526060810192909252517fe118f7ee62a551cde54bf2fbcfaf67e8fb8cd12880dc7489876d72f2c0e5e14b9181900360800190a15050505050505050610dbd565b60d35460ff1615610d8f57610d8a34611375565b610dbd565b60405133903480156108fc02916000818181858888f19350505050158015610dbb573d6000803e3d6000fd5b505b505060c9805460ff60a81b1916905550565b600080516020611b67833981519152610de7816111e4565b6106ff611400565b60009182526065602090815260408084206001600160a01b0393909316845291905290205460ff1690565b600054610100900460ff1615808015610e3a5750600054600160ff909116105b80610e545750303b158015610e54575060005460ff166001145b610e5d57600080fd5b6000805460ff191660011790558015610e80576000805461ff0019166101001790555b610e8861143d565b610e90611451565b610e9b60008461146d565b610eb3600080516020611b678339815191528461146d565b610edd7f73e573f9566d61418a34d5de3ff49360f9c51fec37f7486551670290f6285dab8461146d565b610ee682610f30565b801561068c576000805461ff0019169055604051600181527f7f26b83ff96e1f2b6a682f133852f6798a09c465da95921460cefb38474024989060200160405180910390a1505050565b600080516020611b67833981519152610f48816111e4565b5060c980546001600160a81b0319166001600160a01b0390921691909117600160a01b179055565b600080516020611b67833981519152610f88816111e4565b60cb80546001600160a01b03199081166001600160a01b0387811691821790935560cc8054831687851617905560cd80549092168584161790915560ca5460405163095ea7b360e01b8152600481019290925260001960248301529091169063095ea7b390604401600060405180830381600087803b15801561100a57600080fd5b505af115801561101e573d6000803e3d6000fd5b505060ca5460405163095ea7b360e01b81526001600160a01b0387811660048301526000196024830152909116925063095ea7b39150604401600060405180830381600087803b15801561107157600080fd5b505af1158015611085573d6000803e3d6000fd5b5050505050505050565b6000828152606560205260409020600101546110aa816111e4565b61068c8383611274565b600080516020611b678339815191526110cc816111e4565b5060d3805460ff1916911515919091179055565b600054610100900460ff16158080156111005750600054600160ff909116105b8061111a5750303b15801561111a575060005460ff166001145b61112357600080fd5b6000805460ff191660011790558015611146576000805461ff0019166101001790555b6111508585610e1a565b60ca80546001600160a01b038086166001600160a01b03199283161790925560d080549285169290911691909117905569152cf4e72a974f1c000060d25560d3805460ff191690558015610642576000805461ff0019169055604051600181527f7f26b83ff96e1f2b6a682f133852f6798a09c465da95921460cefb38474024989060200160405180910390a15050505050565b6106ff8133611477565b6111f88282610def565b6106b05760008281526065602090815260408083206001600160a01b03851684529091529020805460ff191660011790556112303390565b6001600160a01b0316816001600160a01b0316837f2f8788117e7eff1d82e926ec794901d17c78024a50270940304540a733656f0d60405160405180910390a45050565b61127e8282610def565b156106b05760008281526065602090815260408083206001600160a01b0385168085529252808320805460ff1916905551339285917ff6391f5c32d9c69d2a47ea670b442974b53935d1edc7fd64eb21e047a839171b9190a45050565b6112e36114d0565b6097805460ff191690557f5db9ee0a495bf2e6ff9c91a7834c1ba4fdd244a5e8aa4e537bd38aeae4b073aa335b6040516001600160a01b03909116815260200160405180910390a1565b60975460ff16156113735760405162461bcd60e51b815260206004820152601060248201526f14185d5cd8589b194e881c185d5cd95960821b6044820152606401610740565b565b60405160009082156108fc0290839083818181858288f193505050501580156113a2573d6000803e3d6000fd5b508060ce60008282546113b591906119b7565b909155505060ce54604080513381526020810184905280820192909252517f42d054580963e2dba823e742605c4122e3a17d67f075cef728464140a4a067639181900360600190a150565b61140861132d565b6097805460ff191660011790557f62e78cea01bee320cd4e420270b5ea74000d11b0c9f74754ebdbfc544b05a2586113103390565b600054610100900460ff1661137357600080fd5b600054610100900460ff1661146557600080fd5b611373611519565b6106b082826111ee565b6114818282610def565b6106b05761148e81611539565b61149983602061154b565b6040516020016114aa929190611a91565b60408051601f198184030181529082905262461bcd60e51b825261074091600401611b06565b60975460ff166113735760405162461bcd60e51b815260206004820152601460248201527314185d5cd8589b194e881b9bdd081c185d5cd95960621b6044820152606401610740565b600054610100900460ff1661152d57600080fd5b6097805460ff19169055565b60606105a26001600160a01b03831660145b6060600061155a8360026119cf565b6115659060026119b7565b67ffffffffffffffff81111561157d5761157d611772565b6040519080825280601f01601f1916602001820160405280156115a7576020820181803683370190505b509050600360fc1b816000815181106115c2576115c2611b39565b60200101906001600160f81b031916908160001a905350600f60fb1b816001815181106115f1576115f1611b39565b60200101906001600160f81b031916908160001a90535060006116158460026119cf565b6116209060016119b7565b90505b6001811115611698576f181899199a1a9b1b9c1cb0b131b232b360811b85600f166010811061165457611654611b39565b1a60f81b82828151811061166a5761166a611b39565b60200101906001600160f81b031916908160001a90535060049490941c9361169181611b4f565b9050611623565b5083156116a457600080fd5b9392505050565b6000602082840312156116bd57600080fd5b81356001600160e01b0319811681146116a457600080fd5b80356001600160a01b03811681146116ec57600080fd5b919050565b60008060006060848603121561170657600080fd5b61170f846116d5565b925061171d602085016116d5565b9150604084013590509250925092565b60006020828403121561173f57600080fd5b5035919050565b6000806040838503121561175957600080fd5b82359150611769602084016116d5565b90509250929050565b634e487b7160e01b600052604160045260246000fd5b6000602080838503121561179b57600080fd5b823567ffffffffffffffff808211156117b357600080fd5b818501915085601f8301126117c757600080fd5b8135818111156117d9576117d9611772565b8060051b604051601f19603f830116810181811085821117156117fe576117fe611772565b60405291825284820192508381018501918883111561181c57600080fd5b938501935b8285101561184157611832856116d5565b84529385019392850192611821565b98975050505050505050565b6000806040838503121561186057600080fd5b611869836116d5565b9150611769602084016116d5565b60006020828403121561188957600080fd5b6116a4826116d5565b6000806000606084860312156118a757600080fd5b6118b0846116d5565b92506118be602085016116d5565b91506118cc604085016116d5565b90509250925092565b80151581146106ff57600080fd5b6000602082840312156118f557600080fd5b81356116a4816118d5565b6000806000806080858703121561191657600080fd5b61191f856116d5565b935061192d602086016116d5565b925061193b604086016116d5565b9150611949606086016116d5565b905092959194509250565b60006020828403121561196657600080fd5b81516116a4816118d5565b60006020828403121561198357600080fd5b5051919050565b634e487b7160e01b600052601160045260246000fd5b6000828210156119b2576119b261198a565b500390565b600082198211156119ca576119ca61198a565b500190565b60008160001904831182151516156119e9576119e961198a565b500290565b600082611a0b57634e487b7160e01b600052601260045260246000fd5b500490565b604080825283519082018190526000906020906060840190828701845b82811015611a525781516001600160a01b031684529284019290840190600101611a2d565b50505092019290925292915050565b60005b83811015611a7c578181015183820152602001611a64565b83811115611a8b576000848401525b50505050565b7f416363657373436f6e74726f6c3a206163636f756e7420000000000000000000815260008351611ac9816017850160208801611a61565b7001034b99036b4b9b9b4b733903937b6329607d1b6017918401918201528351611afa816028840160208801611a61565b01602801949350505050565b6020815260008251806020840152611b25816040850160208701611a61565b601f01601f19169190910160400192915050565b634e487b7160e01b600052603260045260246000fd5b600081611b5e57611b5e61198a565b50600019019056fe97667070c54ef182b0f5858b034beac1b6f3089aa2d3188bb1e8929f4fa9b929a264697066735822122044937d672b17271f0d0493ad71c5f9df4e45d96dbed28cbcbc194cdaadaa0b8064736f6c63430008090033",
  "linkReferences": {},
  "deployedLinkReferences": {}
}