{
  "_format": "hh-sol-artifact-1",
  "contractName": "KingdomFlow",
  "sourceName": "contracts/features/KingdomFlow.sol",
  "abi": [
    {
      "anonymous": false,
      "inputs": [
        {
          "indexed": false,
          "internalType": "address",
          "name": "from",
          "type": "address"
        },
        {
          "indexed": false,
          "internalType": "uint256",
          "name": "amount",
          "type": "uint256"
        },
        {
          "indexed": false,
          "internalType": "uint256",
          "name": "totalBurnedKozi",
          "type": "uint256"
        }
      ],
      "name": "BurnKozi",
      "type": "event"
    },
    {
      "anonymous": false,
      "inputs": [
        {
          "indexed": false,
          "internalType": "address",
          "name": "from",
          "type": "address"
        },
        {
          "indexed": false,
          "internalType": "uint256",
          "name": "amount",
          "type": "uint256"
        },
        {
          "indexed": false,
          "internalType": "uint256",
          "name": "stableTokensDistributed",
          "type": "uint256"
        },
        {
          "indexed": false,
          "internalType": "uint256",
          "name": "totalStabletokensDistributed",
          "type": "uint256"
        }
      ],
      "name": "FlowKozi",
      "type": "event"
    },
    {
      "anonymous": false,
      "inputs": [
        {
          "indexed": false,
          "internalType": "uint8",
          "name": "version",
          "type": "uint8"
        }
      ],
      "name": "Initialized",
      "type": "event"
    },
    {
      "anonymous": false,
      "inputs": [
        {
          "indexed": false,
          "internalType": "address",
          "name": "account",
          "type": "address"
        }
      ],
      "name": "Paused",
      "type": "event"
    },
    {
      "anonymous": false,
      "inputs": [
        {
          "indexed": true,
          "internalType": "bytes32",
          "name": "role",
          "type": "bytes32"
        },
        {
          "indexed": true,
          "internalType": "bytes32",
          "name": "previousAdminRole",
          "type": "bytes32"
        },
        {
          "indexed": true,
          "internalType": "bytes32",
          "name": "newAdminRole",
          "type": "bytes32"
        }
      ],
      "name": "RoleAdminChanged",
      "type": "event"
    },
    {
      "anonymous": false,
      "inputs": [
        {
          "indexed": true,
          "internalType": "bytes32",
          "name": "role",
          "type": "bytes32"
        },
        {
          "indexed": true,
          "internalType": "address",
          "name": "account",
          "type": "address"
        },
        {
          "indexed": true,
          "internalType": "address",
          "name": "sender",
          "type": "address"
        }
      ],
      "name": "RoleGranted",
      "type": "event"
    },
    {
      "anonymous": false,
      "inputs": [
        {
          "indexed": true,
          "internalType": "bytes32",
          "name": "role",
          "type": "bytes32"
        },
        {
          "indexed": true,
          "internalType": "address",
          "name": "account",
          "type": "address"
        },
        {
          "indexed": true,
          "internalType": "address",
          "name": "sender",
          "type": "address"
        }
      ],
      "name": "RoleRevoked",
      "type": "event"
    },
    {
      "anonymous": false,
      "inputs": [
        {
          "indexed": false,
          "internalType": "address",
          "name": "account",
          "type": "address"
        }
      ],
      "name": "Unpaused",
      "type": "event"
    },
    {
      "inputs": [],
      "name": "DEFAULT_ADMIN_ROLE",
      "outputs": [
        {
          "internalType": "bytes32",
          "name": "",
          "type": "bytes32"
        }
      ],
      "stateMutability": "view",
      "type": "function"
    },
    {
      "inputs": [
        {
          "internalType": "address",
          "name": "_operator",
          "type": "address"
        },
        {
          "internalType": "address",
          "name": "_blocklistAddress",
          "type": "address"
        }
      ],
      "name": "__Administrable_init",
      "outputs": [],
      "stateMutability": "nonpayable",
      "type": "function"
    },
    {
      "inputs": [
        {
          "internalType": "address[]",
          "name": "_kingdomNobles",
          "type": "address[]"
        }
      ],
      "name": "flowKozi",
      "outputs": [],
      "stateMutability": "payable",
      "type": "function"
    },
    {
      "inputs": [
        {
          "internalType": "bytes32",
          "name": "role",
          "type": "bytes32"
        }
      ],
      "name": "getRoleAdmin",
      "outputs": [
        {
          "internalType": "bytes32",
          "name": "",
          "type": "bytes32"
        }
      ],
      "stateMutability": "view",
      "type": "function"
    },
    {
      "inputs": [
        {
          "internalType": "bytes32",
          "name": "role",
          "type": "bytes32"
        },
        {
          "internalType": "address",
          "name": "account",
          "type": "address"
        }
      ],
      "name": "grantRole",
      "outputs": [],
      "stateMutability": "nonpayable",
      "type": "function"
    },
    {
      "inputs": [],
      "name": "hasBlocklist",
      "outputs": [
        {
          "internalType": "bool",
          "name": "",
          "type": "bool"
        }
      ],
      "stateMutability": "view",
      "type": "function"
    },
    {
      "inputs": [
        {
          "internalType": "bytes32",
          "name": "role",
          "type": "bytes32"
        },
        {
          "internalType": "address",
          "name": "account",
          "type": "address"
        }
      ],
      "name": "hasRole",
      "outputs": [
        {
          "internalType": "bool",
          "name": "",
          "type": "bool"
        }
      ],
      "stateMutability": "view",
      "type": "function"
    },
    {
      "inputs": [
        {
          "internalType": "address",
          "name": "_operator",
          "type": "address"
        },
        {
          "internalType": "address",
          "name": "_blocklist",
          "type": "address"
        },
        {
          "internalType": "address",
          "name": "_stableToken",
          "type": "address"
        },
        {
          "internalType": "address",
          "name": "_treasury",
          "type": "address"
        }
      ],
      "name": "initialize",
      "outputs": [],
      "stateMutability": "nonpayable",
      "type": "function"
    },
    {
      "inputs": [],
      "name": "kingdomFunds",
      "outputs": [
        {
          "internalType": "contract IKingdomFunds",
          "name": "",
          "type": "address"
        }
      ],
      "stateMutability": "view",
      "type": "function"
    },
    {
      "inputs": [],
      "name": "kingdomNobles",
      "outputs": [
        {
          "internalType": "contract IKingdomNobles",
          "name": "",
          "type": "address"
        }
      ],
      "stateMutability": "view",
      "type": "function"
    },
    {
      "inputs": [],
      "name": "koziPool",
      "outputs": [
        {
          "internalType": "contract IKoziPool",
          "name": "",
          "type": "address"
        }
      ],
      "stateMutability": "view",
      "type": "function"
    },
    {
      "inputs": [],
      "name": "pause",
      "outputs": [],
      "stateMutability": "nonpayable",
      "type": "function"
    },
    {
      "inputs": [],
      "name": "paused",
      "outputs": [
        {
          "internalType": "bool",
          "name": "",
          "type": "bool"
        }
      ],
      "stateMutability": "view",
      "type": "function"
    },
    {
      "inputs": [
        {
          "internalType": "address",
          "name": "tokenAddress",
          "type": "address"
        },
        {
          "internalType": "address",
          "name": "to",
          "type": "address"
        },
        {
          "internalType": "uint256",
          "name": "amount",
          "type": "uint256"
        }
      ],
      "name": "recoverERC20",
      "outputs": [],
      "stateMutability": "nonpayable",
      "type": "function"
    },
    {
      "inputs": [
        {
          "internalType": "bytes32",
          "name": "role",
          "type": "bytes32"
        },
        {
          "internalType": "address",
          "name": "account",
          "type": "address"
        }
      ],
      "name": "renounceRole",
      "outputs": [],
      "stateMutability": "nonpayable",
      "type": "function"
    },
    {
      "inputs": [],
      "name": "resetBlocklist",
      "outputs": [],
      "stateMutability": "nonpayable",
      "type": "function"
    },
    {
      "inputs": [
        {
          "internalType": "bytes32",
          "name": "role",
          "type": "bytes32"
        },
        {
          "internalType": "address",
          "name": "account",
          "type": "address"
        }
      ],
      "name": "revokeRole",
      "outputs": [],
      "stateMutability": "nonpayable",
      "type": "function"
    },
    {
      "inputs": [
        {
          "internalType": "address",
          "name": "blocklistAddress",
          "type": "address"
        }
      ],
      "name": "setBlocklist",
      "outputs": [],
      "stateMutability": "nonpayable",
      "type": "function"
    },
    {
      "inputs": [
        {
          "internalType": "address",
          "name": "_kingdomFunds",
          "type": "address"
        },
        {
          "internalType": "address",
          "name": "_kingdomNobles",
          "type": "address"
        },
        {
          "internalType": "address",
          "name": "_koziPool",
          "type": "address"
        }
      ],
      "name": "setContracts",
      "outputs": [],
      "stateMutability": "nonpayable",
      "type": "function"
    },
    {
      "inputs": [],
      "name": "stableToken",
      "outputs": [
        {
          "internalType": "contract IBkERC20",
          "name": "",
          "type": "address"
        }
      ],
      "stateMutability": "view",
      "type": "function"
    },
    {
      "inputs": [
        {
          "internalType": "bytes4",
          "name": "interfaceId",
          "type": "bytes4"
        }
      ],
      "name": "supportsInterface",
      "outputs": [
        {
          "internalType": "bool",
          "name": "",
          "type": "bool"
        }
      ],
      "stateMutability": "view",
      "type": "function"
    },
    {
      "inputs": [],
      "name": "totalBurnedKozi",
      "outputs": [
        {
          "internalType": "uint256",
          "name": "",
          "type": "uint256"
        }
      ],
      "stateMutability": "view",
      "type": "function"
    },
    {
      "inputs": [],
      "name": "totalStabletokensDistributed",
      "outputs": [
        {
          "internalType": "uint256",
          "name": "",
          "type": "uint256"
        }
      ],
      "stateMutability": "view",
      "type": "function"
    },
    {
      "inputs": [],
      "name": "treasury",
      "outputs": [
        {
          "internalType": "address",
          "name": "",
          "type": "address"
        }
      ],
      "stateMutability": "view",
      "type": "function"
    },
    {
      "inputs": [],
      "name": "unpause",
      "outputs": [],
      "stateMutability": "nonpayable",
      "type": "function"
    }
  ],
  "bytecode": "0x608060405234801561001057600080fd5b506119cc806100206000396000f3fe6080604052600436106101665760003560e01c80638456cb59116100d1578063a9d75b2b1161008a578063b3066d4911610064578063b3066d4914610404578063d547741f14610424578063f784978014610444578063f8c8765e1461046457600080fd5b8063a9d75b2b146103a4578063ad693922146103c4578063aef18ae7146103e457600080fd5b80638456cb591461030e57806391d1485414610323578063931da89b146103435780639b9b06a314610363578063a217fddf14610379578063a4cdc8381461038e57600080fd5b80633f4ba83a116101235780633f4ba83a1461025557806342e8b4e61461026a5780635c975abb146102a257806360eef76e146102ba57806361d027b3146102cd578063634210f4146102ed57600080fd5b806301ffc9a71461016b5780631171bda9146101a0578063248a9ca3146101c25780632f2ff15d1461020057806336568abe146102205780633c7fd82214610240575b600080fd5b34801561017757600080fd5b5061018b6101863660046114e1565b610484565b60405190151581526020015b60405180910390f35b3480156101ac57600080fd5b506101c06101bb366004611527565b6104bb565b005b3480156101ce57600080fd5b506101f26101dd366004611563565b60009081526065602052604090206001015490565b604051908152602001610197565b34801561020c57600080fd5b506101c061021b36600461157c565b61055c565b34801561022c57600080fd5b506101c061023b36600461157c565b610586565b34801561024c57600080fd5b506101c06105a9565b34801561026157600080fd5b506101c06105d4565b34801561027657600080fd5b5060cc5461028a906001600160a01b031681565b6040516001600160a01b039091168152602001610197565b3480156102ae57600080fd5b5060975460ff1661018b565b6101c06102c83660046115be565b6105f7565b3480156102d957600080fd5b5060d05461028a906001600160a01b031681565b3480156102f957600080fd5b5060c95461018b90600160a01b900460ff1681565b34801561031a57600080fd5b506101c0610c49565b34801561032f57600080fd5b5061018b61033e36600461157c565b610c69565b34801561034f57600080fd5b506101c061035e366004611683565b610c94565b34801561036f57600080fd5b506101f260cf5481565b34801561038557600080fd5b506101f2600081565b34801561039a57600080fd5b506101f260ce5481565b3480156103b057600080fd5b5060ca5461028a906001600160a01b031681565b3480156103d057600080fd5b5060cd5461028a906001600160a01b031681565b3480156103f057600080fd5b506101c06103ff3660046116ad565b610daa565b34801561041057600080fd5b506101c061041f3660046116c8565b610dea565b34801561043057600080fd5b506101c061043f36600461157c565b610f09565b34801561045057600080fd5b5060cb5461028a906001600160a01b031681565b34801561047057600080fd5b506101c061047f36600461170b565b610f2e565b60006001600160e01b03198216637965db0b60e01b14806104b557506301ffc9a760e01b6001600160e01b03198316145b92915050565b6000805160206119778339815191526104d38161101a565b60405163a9059cbb60e01b81526001600160a01b0384811660048301526024820184905285169063a9059cbb90604401602060405180830381600087803b15801561051d57600080fd5b505af1158015610531573d6000803e3d6000fd5b505050506040513d601f19601f82011682018060405250810190610555919061175f565b5050505050565b6000828152606560205260409020600101546105778161101a565b6105818383611024565b505050565b6001600160a01b038116331461059b57600080fd5b6105a582826110aa565b5050565b6000805160206119778339815191526105c18161101a565b5060c980546001600160a81b0319169055565b6000805160206119778339815191526105ec8161101a565b6105f4611111565b50565b60c954600160a81b900460ff161561063e5760405162461bcd60e51b81526020600482015260056024820152640daeae8caf60db1b60448201526064015b60405180910390fd5b60c9805460ff60a81b1916600160a81b179055610659611163565b7f73e573f9566d61418a34d5de3ff49360f9c51fec37f7486551670290f6285dab6106838161101a565b60cd5460408051630a46e66d60e01b815290516000926001600160a01b031691630a46e66d916004808301926020929190829003018186803b1580156106c857600080fd5b505afa1580156106dc573d6000803e3d6000fd5b505050506040513d601f19601f820116820180604052508101906107009190611781565b90508015610c2e576731f5c4ed2768000081111561072357506731f5c4ed276800005b3481111561072e5750345b600061073a82346117b0565b905060cd60009054906101000a90046001600160a01b03166001600160a01b0316638e2bb5f1836040518263ffffffff1660e01b81526004016000604051808303818588803b15801561078c57600080fd5b505af11580156107a0573d6000803e3d6000fd5b505060ca546040516370a0823160e01b8152306004820152600094506001600160a01b0390911692506370a08231915060240160206040518083038186803b1580156107eb57600080fd5b505afa1580156107ff573d6000803e3d6000fd5b505050506040513d601f19601f820116820180604052508101906108239190611781565b90508060cf600082825461083791906117c7565b90915550600090506103e861084d83607d6117df565b61085791906117fe565b60cc54604051631826c11960e01b81529192506001600160a01b031690631826c1199061088a9089908590600401611820565b600060405180830381600087803b1580156108a457600080fd5b505af11580156108b8573d6000803e3d6000fd5b50505050600060648360046108cd91906117df565b6108d791906117fe565b60cb54604051631c57762b60e31b815260016004820152602481018390529192506001600160a01b03169063e2bbb15890604401600060405180830381600087803b15801561092557600080fd5b505af1158015610939573d6000803e3d6000fd5b505050506000606484600461094e91906117df565b61095891906117fe565b60cb54604051631c57762b60e31b815260026004820152602481018390529192506001600160a01b03169063e2bbb15890604401600060405180830381600087803b1580156109a657600080fd5b505af11580156109ba573d6000803e3d6000fd5b50505050600060648560036109cf91906117df565b6109d991906117fe565b60cb54604051631c57762b60e31b815260036004820152602481018390529192506001600160a01b03169063e2bbb15890604401600060405180830381600087803b158015610a2757600080fd5b505af1158015610a3b573d6000803e3d6000fd5b5050505060006103e886600f610a5191906117df565b610a5b91906117fe565b60cb54604051631c57762b60e31b8152600480820152602481018390529192506001600160a01b03169063e2bbb15890604401600060405180830381600087803b158015610aa857600080fd5b505af1158015610abc573d6000803e3d6000fd5b505060ca546040516370a0823160e01b8152306004820152600093506001600160a01b0390911691506370a082319060240160206040518083038186803b158015610b0657600080fd5b505afa158015610b1a573d6000803e3d6000fd5b505050506040513d601f19601f82011682018060405250810190610b3e9190611781565b60ca5460d05460405163a9059cbb60e01b81526001600160a01b03918216600482015260248101849052929350169063a9059cbb90604401602060405180830381600087803b158015610b9057600080fd5b505af1158015610ba4573d6000803e3d6000fd5b505050506040513d601f19601f82011682018060405250810190610bc8919061175f565b508715610bd857610bd8886111ab565b60cf54604080513381523460208201528082018a90526060810192909252517fe118f7ee62a551cde54bf2fbcfaf67e8fb8cd12880dc7489876d72f2c0e5e14b9181900360800190a15050505050505050610c37565b610c37346111ab565b505060c9805460ff60a81b1916905550565b600080516020611977833981519152610c618161101a565b6105f4611236565b60009182526065602090815260408084206001600160a01b0393909316845291905290205460ff1690565b600054610100900460ff1615808015610cb45750600054600160ff909116105b80610cce5750303b158015610cce575060005460ff166001145b610cd757600080fd5b6000805460ff191660011790558015610cfa576000805461ff0019166101001790555b610d02611273565b610d0a611287565b610d156000846112a3565b610d2d600080516020611977833981519152846112a3565b610d577f73e573f9566d61418a34d5de3ff49360f9c51fec37f7486551670290f6285dab846112a3565b610d6082610daa565b8015610581576000805461ff0019169055604051600181527f7f26b83ff96e1f2b6a682f133852f6798a09c465da95921460cefb38474024989060200160405180910390a1505050565b600080516020611977833981519152610dc28161101a565b5060c980546001600160a81b0319166001600160a01b0390921691909117600160a01b179055565b600080516020611977833981519152610e028161101a565b60cb80546001600160a01b03199081166001600160a01b0387811691821790935560cc8054831687851617905560cd80549092168584161790915560ca5460405163095ea7b360e01b8152600481019290925260001960248301529091169063095ea7b390604401600060405180830381600087803b158015610e8457600080fd5b505af1158015610e98573d6000803e3d6000fd5b505060ca5460405163095ea7b360e01b81526001600160a01b0387811660048301526000196024830152909116925063095ea7b39150604401600060405180830381600087803b158015610eeb57600080fd5b505af1158015610eff573d6000803e3d6000fd5b5050505050505050565b600082815260656020526040902060010154610f248161101a565b61058183836110aa565b600054610100900460ff1615808015610f4e5750600054600160ff909116105b80610f685750303b158015610f68575060005460ff166001145b610f7157600080fd5b6000805460ff191660011790558015610f94576000805461ff0019166101001790555b610f9e8585610c94565b60ca80546001600160a01b038086166001600160a01b03199283161790925560d08054928516929091169190911790558015610555576000805461ff0019169055604051600181527f7f26b83ff96e1f2b6a682f133852f6798a09c465da95921460cefb38474024989060200160405180910390a15050505050565b6105f481336112ad565b61102e8282610c69565b6105a55760008281526065602090815260408083206001600160a01b03851684529091529020805460ff191660011790556110663390565b6001600160a01b0316816001600160a01b0316837f2f8788117e7eff1d82e926ec794901d17c78024a50270940304540a733656f0d60405160405180910390a45050565b6110b48282610c69565b156105a55760008281526065602090815260408083206001600160a01b0385168085529252808320805460ff1916905551339285917ff6391f5c32d9c69d2a47ea670b442974b53935d1edc7fd64eb21e047a839171b9190a45050565b611119611306565b6097805460ff191690557f5db9ee0a495bf2e6ff9c91a7834c1ba4fdd244a5e8aa4e537bd38aeae4b073aa335b6040516001600160a01b03909116815260200160405180910390a1565b60975460ff16156111a95760405162461bcd60e51b815260206004820152601060248201526f14185d5cd8589b194e881c185d5cd95960821b6044820152606401610635565b565b60405160009082156108fc0290839083818181858288f193505050501580156111d8573d6000803e3d6000fd5b508060ce60008282546111eb91906117c7565b909155505060ce54604080513381526020810184905280820192909252517f42d054580963e2dba823e742605c4122e3a17d67f075cef728464140a4a067639181900360600190a150565b61123e611163565b6097805460ff191660011790557f62e78cea01bee320cd4e420270b5ea74000d11b0c9f74754ebdbfc544b05a2586111463390565b600054610100900460ff166111a957600080fd5b600054610100900460ff1661129b57600080fd5b6111a961134f565b6105a58282611024565b6112b78282610c69565b6105a5576112c48161136f565b6112cf836020611381565b6040516020016112e09291906118a1565b60408051601f198184030181529082905262461bcd60e51b825261063591600401611916565b60975460ff166111a95760405162461bcd60e51b815260206004820152601460248201527314185d5cd8589b194e881b9bdd081c185d5cd95960621b6044820152606401610635565b600054610100900460ff1661136357600080fd5b6097805460ff19169055565b60606104b56001600160a01b03831660145b606060006113908360026117df565b61139b9060026117c7565b67ffffffffffffffff8111156113b3576113b36115a8565b6040519080825280601f01601f1916602001820160405280156113dd576020820181803683370190505b509050600360fc1b816000815181106113f8576113f8611949565b60200101906001600160f81b031916908160001a905350600f60fb1b8160018151811061142757611427611949565b60200101906001600160f81b031916908160001a905350600061144b8460026117df565b6114569060016117c7565b90505b60018111156114ce576f181899199a1a9b1b9c1cb0b131b232b360811b85600f166010811061148a5761148a611949565b1a60f81b8282815181106114a0576114a0611949565b60200101906001600160f81b031916908160001a90535060049490941c936114c78161195f565b9050611459565b5083156114da57600080fd5b9392505050565b6000602082840312156114f357600080fd5b81356001600160e01b0319811681146114da57600080fd5b80356001600160a01b038116811461152257600080fd5b919050565b60008060006060848603121561153c57600080fd5b6115458461150b565b92506115536020850161150b565b9150604084013590509250925092565b60006020828403121561157557600080fd5b5035919050565b6000806040838503121561158f57600080fd5b8235915061159f6020840161150b565b90509250929050565b634e487b7160e01b600052604160045260246000fd5b600060208083850312156115d157600080fd5b823567ffffffffffffffff808211156115e957600080fd5b818501915085601f8301126115fd57600080fd5b81358181111561160f5761160f6115a8565b8060051b604051601f19603f83011681018181108582111715611634576116346115a8565b60405291825284820192508381018501918883111561165257600080fd5b938501935b82851015611677576116688561150b565b84529385019392850192611657565b98975050505050505050565b6000806040838503121561169657600080fd5b61169f8361150b565b915061159f6020840161150b565b6000602082840312156116bf57600080fd5b6114da8261150b565b6000806000606084860312156116dd57600080fd5b6116e68461150b565b92506116f46020850161150b565b91506117026040850161150b565b90509250925092565b6000806000806080858703121561172157600080fd5b61172a8561150b565b93506117386020860161150b565b92506117466040860161150b565b91506117546060860161150b565b905092959194509250565b60006020828403121561177157600080fd5b815180151581146114da57600080fd5b60006020828403121561179357600080fd5b5051919050565b634e487b7160e01b600052601160045260246000fd5b6000828210156117c2576117c261179a565b500390565b600082198211156117da576117da61179a565b500190565b60008160001904831182151516156117f9576117f961179a565b500290565b60008261181b57634e487b7160e01b600052601260045260246000fd5b500490565b604080825283519082018190526000906020906060840190828701845b828110156118625781516001600160a01b03168452928401929084019060010161183d565b50505092019290925292915050565b60005b8381101561188c578181015183820152602001611874565b8381111561189b576000848401525b50505050565b7f416363657373436f6e74726f6c3a206163636f756e74200000000000000000008152600083516118d9816017850160208801611871565b7001034b99036b4b9b9b4b733903937b6329607d1b601791840191820152835161190a816028840160208801611871565b01602801949350505050565b6020815260008251806020840152611935816040850160208701611871565b601f01601f19169190910160400192915050565b634e487b7160e01b600052603260045260246000fd5b60008161196e5761196e61179a565b50600019019056fe97667070c54ef182b0f5858b034beac1b6f3089aa2d3188bb1e8929f4fa9b929a2646970667358221220a36f0dcb0f7606f54e357d325b58aef29156da1e0d363864facac734e6f0be1064736f6c63430008090033",
  "linkReferences": {},
  "deployedLinkReferences": {}
}