{
  "_format": "hh-sol-artifact-1",
  "contractName": "KingdomFlow",
  "sourceName": "contracts/features/KingdomFlow.sol",
  "abi": [
    {
      "anonymous": false,
      "inputs": [
        {
          "indexed": false,
          "internalType": "address",
          "name": "from",
          "type": "address"
        },
        {
          "indexed": false,
          "internalType": "uint256",
          "name": "amount",
          "type": "uint256"
        },
        {
          "indexed": false,
          "internalType": "uint256",
          "name": "totalBurnedKozi",
          "type": "uint256"
        }
      ],
      "name": "BurnKozi",
      "type": "event"
    },
    {
      "anonymous": false,
      "inputs": [
        {
          "indexed": false,
          "internalType": "address",
          "name": "from",
          "type": "address"
        },
        {
          "indexed": false,
          "internalType": "uint256",
          "name": "amount",
          "type": "uint256"
        },
        {
          "indexed": false,
          "internalType": "uint256",
          "name": "stabletokensDistributed",
          "type": "uint256"
        },
        {
          "indexed": false,
          "internalType": "uint256",
          "name": "totalStabletokensDistributed",
          "type": "uint256"
        }
      ],
      "name": "FlowKozi",
      "type": "event"
    },
    {
      "anonymous": false,
      "inputs": [
        {
          "indexed": false,
          "internalType": "uint8",
          "name": "version",
          "type": "uint8"
        }
      ],
      "name": "Initialized",
      "type": "event"
    },
    {
      "anonymous": false,
      "inputs": [
        {
          "indexed": false,
          "internalType": "address",
          "name": "account",
          "type": "address"
        }
      ],
      "name": "Paused",
      "type": "event"
    },
    {
      "anonymous": false,
      "inputs": [
        {
          "indexed": true,
          "internalType": "bytes32",
          "name": "role",
          "type": "bytes32"
        },
        {
          "indexed": true,
          "internalType": "bytes32",
          "name": "previousAdminRole",
          "type": "bytes32"
        },
        {
          "indexed": true,
          "internalType": "bytes32",
          "name": "newAdminRole",
          "type": "bytes32"
        }
      ],
      "name": "RoleAdminChanged",
      "type": "event"
    },
    {
      "anonymous": false,
      "inputs": [
        {
          "indexed": true,
          "internalType": "bytes32",
          "name": "role",
          "type": "bytes32"
        },
        {
          "indexed": true,
          "internalType": "address",
          "name": "account",
          "type": "address"
        },
        {
          "indexed": true,
          "internalType": "address",
          "name": "sender",
          "type": "address"
        }
      ],
      "name": "RoleGranted",
      "type": "event"
    },
    {
      "anonymous": false,
      "inputs": [
        {
          "indexed": true,
          "internalType": "bytes32",
          "name": "role",
          "type": "bytes32"
        },
        {
          "indexed": true,
          "internalType": "address",
          "name": "account",
          "type": "address"
        },
        {
          "indexed": true,
          "internalType": "address",
          "name": "sender",
          "type": "address"
        }
      ],
      "name": "RoleRevoked",
      "type": "event"
    },
    {
      "anonymous": false,
      "inputs": [
        {
          "indexed": false,
          "internalType": "address",
          "name": "account",
          "type": "address"
        }
      ],
      "name": "Unpaused",
      "type": "event"
    },
    {
      "inputs": [],
      "name": "DEFAULT_ADMIN_ROLE",
      "outputs": [
        {
          "internalType": "bytes32",
          "name": "",
          "type": "bytes32"
        }
      ],
      "stateMutability": "view",
      "type": "function"
    },
    {
      "inputs": [
        {
          "internalType": "address",
          "name": "_operator",
          "type": "address"
        },
        {
          "internalType": "address",
          "name": "_blocklistAddress",
          "type": "address"
        }
      ],
      "name": "__Administrable_init",
      "outputs": [],
      "stateMutability": "nonpayable",
      "type": "function"
    },
    {
      "inputs": [],
      "name": "burnExcessKozi",
      "outputs": [
        {
          "internalType": "bool",
          "name": "",
          "type": "bool"
        }
      ],
      "stateMutability": "view",
      "type": "function"
    },
    {
      "inputs": [
        {
          "internalType": "address[]",
          "name": "_kingdomNobles",
          "type": "address[]"
        }
      ],
      "name": "flowKozi",
      "outputs": [],
      "stateMutability": "payable",
      "type": "function"
    },
    {
      "inputs": [
        {
          "internalType": "bytes32",
          "name": "role",
          "type": "bytes32"
        }
      ],
      "name": "getRoleAdmin",
      "outputs": [
        {
          "internalType": "bytes32",
          "name": "",
          "type": "bytes32"
        }
      ],
      "stateMutability": "view",
      "type": "function"
    },
    {
      "inputs": [
        {
          "internalType": "bytes32",
          "name": "role",
          "type": "bytes32"
        },
        {
          "internalType": "address",
          "name": "account",
          "type": "address"
        }
      ],
      "name": "grantRole",
      "outputs": [],
      "stateMutability": "nonpayable",
      "type": "function"
    },
    {
      "inputs": [],
      "name": "hasBlocklist",
      "outputs": [
        {
          "internalType": "bool",
          "name": "",
          "type": "bool"
        }
      ],
      "stateMutability": "view",
      "type": "function"
    },
    {
      "inputs": [
        {
          "internalType": "bytes32",
          "name": "role",
          "type": "bytes32"
        },
        {
          "internalType": "address",
          "name": "account",
          "type": "address"
        }
      ],
      "name": "hasRole",
      "outputs": [
        {
          "internalType": "bool",
          "name": "",
          "type": "bool"
        }
      ],
      "stateMutability": "view",
      "type": "function"
    },
    {
      "inputs": [
        {
          "internalType": "address",
          "name": "_operator",
          "type": "address"
        },
        {
          "internalType": "address",
          "name": "_blocklist",
          "type": "address"
        },
        {
          "internalType": "address",
          "name": "_stabletoken",
          "type": "address"
        },
        {
          "internalType": "address",
          "name": "_treasury",
          "type": "address"
        }
      ],
      "name": "initialize",
      "outputs": [],
      "stateMutability": "nonpayable",
      "type": "function"
    },
    {
      "inputs": [],
      "name": "kingdomFunds",
      "outputs": [
        {
          "internalType": "contract IKingdomFunds",
          "name": "",
          "type": "address"
        }
      ],
      "stateMutability": "view",
      "type": "function"
    },
    {
      "inputs": [],
      "name": "kingdomNobles",
      "outputs": [
        {
          "internalType": "contract IKingdomNobles",
          "name": "",
          "type": "address"
        }
      ],
      "stateMutability": "view",
      "type": "function"
    },
    {
      "inputs": [],
      "name": "koziPool",
      "outputs": [
        {
          "internalType": "contract IKoziPool",
          "name": "",
          "type": "address"
        }
      ],
      "stateMutability": "view",
      "type": "function"
    },
    {
      "inputs": [],
      "name": "lastFlowBlock",
      "outputs": [
        {
          "internalType": "uint256",
          "name": "",
          "type": "uint256"
        }
      ],
      "stateMutability": "view",
      "type": "function"
    },
    {
      "inputs": [],
      "name": "maxKoziPerFlow",
      "outputs": [
        {
          "internalType": "uint256",
          "name": "",
          "type": "uint256"
        }
      ],
      "stateMutability": "view",
      "type": "function"
    },
    {
      "inputs": [],
      "name": "pause",
      "outputs": [],
      "stateMutability": "nonpayable",
      "type": "function"
    },
    {
      "inputs": [],
      "name": "paused",
      "outputs": [
        {
          "internalType": "bool",
          "name": "",
          "type": "bool"
        }
      ],
      "stateMutability": "view",
      "type": "function"
    },
    {
      "inputs": [
        {
          "internalType": "address",
          "name": "tokenAddress",
          "type": "address"
        },
        {
          "internalType": "address",
          "name": "to",
          "type": "address"
        },
        {
          "internalType": "uint256",
          "name": "amount",
          "type": "uint256"
        }
      ],
      "name": "recoverERC20",
      "outputs": [],
      "stateMutability": "nonpayable",
      "type": "function"
    },
    {
      "inputs": [
        {
          "internalType": "bytes32",
          "name": "role",
          "type": "bytes32"
        },
        {
          "internalType": "address",
          "name": "account",
          "type": "address"
        }
      ],
      "name": "renounceRole",
      "outputs": [],
      "stateMutability": "nonpayable",
      "type": "function"
    },
    {
      "inputs": [],
      "name": "resetBlocklist",
      "outputs": [],
      "stateMutability": "nonpayable",
      "type": "function"
    },
    {
      "inputs": [
        {
          "internalType": "bytes32",
          "name": "role",
          "type": "bytes32"
        },
        {
          "internalType": "address",
          "name": "account",
          "type": "address"
        }
      ],
      "name": "revokeRole",
      "outputs": [],
      "stateMutability": "nonpayable",
      "type": "function"
    },
    {
      "inputs": [
        {
          "internalType": "address",
          "name": "blocklistAddress",
          "type": "address"
        }
      ],
      "name": "setBlocklist",
      "outputs": [],
      "stateMutability": "nonpayable",
      "type": "function"
    },
    {
      "inputs": [
        {
          "internalType": "bool",
          "name": "_burnExcessKozi",
          "type": "bool"
        }
      ],
      "name": "setBurnExcessKozi",
      "outputs": [],
      "stateMutability": "nonpayable",
      "type": "function"
    },
    {
      "inputs": [
        {
          "internalType": "address",
          "name": "_kingdomFunds",
          "type": "address"
        },
        {
          "internalType": "address",
          "name": "_kingdomNobles",
          "type": "address"
        },
        {
          "internalType": "address",
          "name": "_koziPool",
          "type": "address"
        }
      ],
      "name": "setContracts",
      "outputs": [],
      "stateMutability": "nonpayable",
      "type": "function"
    },
    {
      "inputs": [
        {
          "internalType": "uint256",
          "name": "_maxKoziPerFlow",
          "type": "uint256"
        }
      ],
      "name": "setMaxKoziPerFlow",
      "outputs": [],
      "stateMutability": "nonpayable",
      "type": "function"
    },
    {
      "inputs": [],
      "name": "stabletoken",
      "outputs": [
        {
          "internalType": "contract IBkERC20",
          "name": "",
          "type": "address"
        }
      ],
      "stateMutability": "view",
      "type": "function"
    },
    {
      "inputs": [
        {
          "internalType": "bytes4",
          "name": "interfaceId",
          "type": "bytes4"
        }
      ],
      "name": "supportsInterface",
      "outputs": [
        {
          "internalType": "bool",
          "name": "",
          "type": "bool"
        }
      ],
      "stateMutability": "view",
      "type": "function"
    },
    {
      "inputs": [],
      "name": "totalBurnedKozi",
      "outputs": [
        {
          "internalType": "uint256",
          "name": "",
          "type": "uint256"
        }
      ],
      "stateMutability": "view",
      "type": "function"
    },
    {
      "inputs": [],
      "name": "totalStabletokensDistributed",
      "outputs": [
        {
          "internalType": "uint256",
          "name": "",
          "type": "uint256"
        }
      ],
      "stateMutability": "view",
      "type": "function"
    },
    {
      "inputs": [],
      "name": "treasury",
      "outputs": [
        {
          "internalType": "address",
          "name": "",
          "type": "address"
        }
      ],
      "stateMutability": "view",
      "type": "function"
    },
    {
      "inputs": [],
      "name": "unpause",
      "outputs": [],
      "stateMutability": "nonpayable",
      "type": "function"
    }
  ],
  "bytecode": "0x608060405234801561001057600080fd5b50611bb6806100206000396000f3fe6080604052600436106101cd5760003560e01c80638456cb59116100f7578063aef18ae711610095578063e330b73e11610064578063e330b73e146104f1578063e451753714610511578063f784978014610531578063f8c8765e1461055157600080fd5b8063aef18ae71461047b578063b3066d491461049b578063b4807c29146104bb578063d547741f146104d157600080fd5b80639b9b06a3116100d15780639b9b06a31461041a578063a217fddf14610430578063a4cdc83814610445578063ad6939221461045b57600080fd5b80638456cb59146103c557806391d14854146103da578063931da89b146103fa57600080fd5b80633f4ba83a1161016f57806361d027b31161013e57806361d027b314610354578063634210f41461037457806379fd204f146103955780637edf4a5a146103af57600080fd5b80633f4ba83a146102dc57806342e8b4e6146102f15780635c975abb1461032957806360eef76e1461034157600080fd5b8063248a9ca3116101ab578063248a9ca3146102495780632f2ff15d1461028757806336568abe146102a75780633c7fd822146102c757600080fd5b806301ffc9a7146101d25780631171bda91461020757806320c8b8d014610229575b600080fd5b3480156101de57600080fd5b506101f26101ed3660046116a5565b610571565b60405190151581526020015b60405180910390f35b34801561021357600080fd5b506102276102223660046116eb565b6105a8565b005b34801561023557600080fd5b50610227610244366004611727565b610649565b34801561025557600080fd5b50610279610264366004611727565b60009081526065602052604090206001015490565b6040519081526020016101fe565b34801561029357600080fd5b506102276102a2366004611740565b610667565b3480156102b357600080fd5b506102276102c2366004611740565b610691565b3480156102d357600080fd5b506102276106b4565b3480156102e857600080fd5b506102276106df565b3480156102fd57600080fd5b5060cc54610311906001600160a01b031681565b6040516001600160a01b0390911681526020016101fe565b34801561033557600080fd5b5060975460ff166101f2565b61022761034f366004611782565b610702565b34801561036057600080fd5b5060d054610311906001600160a01b031681565b34801561038057600080fd5b5060c9546101f290600160a01b900460ff1681565b3480156103a157600080fd5b5060d3546101f29060ff1681565b3480156103bb57600080fd5b5061027960d25481565b3480156103d157600080fd5b50610227610dc9565b3480156103e657600080fd5b506101f26103f5366004611740565b610de9565b34801561040657600080fd5b50610227610415366004611847565b610e14565b34801561042657600080fd5b5061027960cf5481565b34801561043c57600080fd5b50610279600081565b34801561045157600080fd5b5061027960ce5481565b34801561046757600080fd5b5060cd54610311906001600160a01b031681565b34801561048757600080fd5b50610227610496366004611871565b610f2a565b3480156104a757600080fd5b506102276104b636600461188c565b610f6a565b3480156104c757600080fd5b5061027960d15481565b3480156104dd57600080fd5b506102276104ec366004611740565b611089565b3480156104fd57600080fd5b5061022761050c3660046118dd565b6110ae565b34801561051d57600080fd5b5060ca54610311906001600160a01b031681565b34801561053d57600080fd5b5060cb54610311906001600160a01b031681565b34801561055d57600080fd5b5061022761056c3660046118fa565b6110da565b60006001600160e01b03198216637965db0b60e01b14806105a257506301ffc9a760e01b6001600160e01b03198316145b92915050565b600080516020611b618339815191526105c0816111de565b60405163a9059cbb60e01b81526001600160a01b0384811660048301526024820184905285169063a9059cbb90604401602060405180830381600087803b15801561060a57600080fd5b505af115801561061e573d6000803e3d6000fd5b505050506040513d601f19601f82011682018060405250810190610642919061194e565b5050505050565b600080516020611b61833981519152610661816111de565b5060d255565b600082815260656020526040902060010154610682816111de565b61068c83836111e8565b505050565b6001600160a01b03811633146106a657600080fd5b6106b0828261126e565b5050565b600080516020611b618339815191526106cc816111de565b5060c980546001600160a81b0319169055565b600080516020611b618339815191526106f7816111de565b6106ff6112d5565b50565b60c954600160a81b900460ff16156107495760405162461bcd60e51b81526020600482015260056024820152640daeae8caf60db1b60448201526064015b60405180910390fd5b60c9805460ff60a81b1916600160a81b179055610764611327565b7f73e573f9566d61418a34d5de3ff49360f9c51fec37f7486551670290f6285dab61078e816111de565b4360d15560cd5460408051630a46e66d60e01b815290516000926001600160a01b031691630a46e66d916004808301926020929190829003018186803b1580156107d757600080fd5b505afa1580156107eb573d6000803e3d6000fd5b505050506040513d601f19601f8201168201806040525081019061080f919061196b565b90508015610d705760d254811115610826575060d2545b348111156108315750345b600061083d823461199a565b905060cd60009054906101000a90046001600160a01b03166001600160a01b0316638e2bb5f1836040518263ffffffff1660e01b81526004016000604051808303818588803b15801561088f57600080fd5b505af11580156108a3573d6000803e3d6000fd5b505060ca546040516370a0823160e01b8152306004820152600094506001600160a01b0390911692506370a08231915060240160206040518083038186803b1580156108ee57600080fd5b505afa158015610902573d6000803e3d6000fd5b505050506040513d601f19601f82011682018060405250810190610926919061196b565b90508060cf600082825461093a91906119b1565b90915550600090506103e861095083607d6119c9565b61095a91906119e8565b60cc54604051631826c11960e01b81529192506001600160a01b031690631826c1199061098d9089908590600401611a0a565b600060405180830381600087803b1580156109a757600080fd5b505af11580156109bb573d6000803e3d6000fd5b50505050600060648360046109d091906119c9565b6109da91906119e8565b60cb54604051631c57762b60e31b815260016004820152602481018390529192506001600160a01b03169063e2bbb15890604401600060405180830381600087803b158015610a2857600080fd5b505af1158015610a3c573d6000803e3d6000fd5b5050505060006064846004610a5191906119c9565b610a5b91906119e8565b60cb54604051631c57762b60e31b815260026004820152602481018390529192506001600160a01b03169063e2bbb15890604401600060405180830381600087803b158015610aa957600080fd5b505af1158015610abd573d6000803e3d6000fd5b5050505060006064856003610ad291906119c9565b610adc91906119e8565b60cb54604051631c57762b60e31b815260036004820152602481018390529192506001600160a01b03169063e2bbb15890604401600060405180830381600087803b158015610b2a57600080fd5b505af1158015610b3e573d6000803e3d6000fd5b5050505060006103e886600f610b5491906119c9565b610b5e91906119e8565b60cb54604051631c57762b60e31b8152600480820152602481018390529192506001600160a01b03169063e2bbb15890604401600060405180830381600087803b158015610bab57600080fd5b505af1158015610bbf573d6000803e3d6000fd5b505060ca546040516370a0823160e01b8152306004820152600093506001600160a01b0390911691506370a082319060240160206040518083038186803b158015610c0957600080fd5b505afa158015610c1d573d6000803e3d6000fd5b505050506040513d601f19601f82011682018060405250810190610c41919061196b565b60ca5460d05460405163a9059cbb60e01b81526001600160a01b03918216600482015260248101849052929350169063a9059cbb90604401602060405180830381600087803b158015610c9357600080fd5b505af1158015610ca7573d6000803e3d6000fd5b505050506040513d601f19601f82011682018060405250810190610ccb919061194e565b508715610d1a5760d35460ff1615610ceb57610ce68861136f565b610d1a565b604051339089156108fc02908a906000818181858888f19350505050158015610d18573d6000803e3d6000fd5b505b60cf54604080513381523460208201528082018a90526060810192909252517fe118f7ee62a551cde54bf2fbcfaf67e8fb8cd12880dc7489876d72f2c0e5e14b9181900360800190a15050505050505050610db7565b60d35460ff1615610d8957610d843461136f565b610db7565b60405133903480156108fc02916000818181858888f19350505050158015610db5573d6000803e3d6000fd5b505b505060c9805460ff60a81b1916905550565b600080516020611b61833981519152610de1816111de565b6106ff6113fa565b60009182526065602090815260408084206001600160a01b0393909316845291905290205460ff1690565b600054610100900460ff1615808015610e345750600054600160ff909116105b80610e4e5750303b158015610e4e575060005460ff166001145b610e5757600080fd5b6000805460ff191660011790558015610e7a576000805461ff0019166101001790555b610e82611437565b610e8a61144b565b610e95600084611467565b610ead600080516020611b6183398151915284611467565b610ed77f73e573f9566d61418a34d5de3ff49360f9c51fec37f7486551670290f6285dab84611467565b610ee082610f2a565b801561068c576000805461ff0019169055604051600181527f7f26b83ff96e1f2b6a682f133852f6798a09c465da95921460cefb38474024989060200160405180910390a1505050565b600080516020611b61833981519152610f42816111de565b5060c980546001600160a81b0319166001600160a01b0390921691909117600160a01b179055565b600080516020611b61833981519152610f82816111de565b60cb80546001600160a01b03199081166001600160a01b0387811691821790935560cc8054831687851617905560cd80549092168584161790915560ca5460405163095ea7b360e01b8152600481019290925260001960248301529091169063095ea7b390604401600060405180830381600087803b15801561100457600080fd5b505af1158015611018573d6000803e3d6000fd5b505060ca5460405163095ea7b360e01b81526001600160a01b0387811660048301526000196024830152909116925063095ea7b39150604401600060405180830381600087803b15801561106b57600080fd5b505af115801561107f573d6000803e3d6000fd5b5050505050505050565b6000828152606560205260409020600101546110a4816111de565b61068c838361126e565b600080516020611b618339815191526110c6816111de565b5060d3805460ff1916911515919091179055565b600054610100900460ff16158080156110fa5750600054600160ff909116105b806111145750303b158015611114575060005460ff166001145b61111d57600080fd5b6000805460ff191660011790558015611140576000805461ff0019166101001790555b61114a8585610e14565b60ca80546001600160a01b038086166001600160a01b03199283161790925560d080549285169290911691909117905569152cf4e72a974f1c000060d25560d3805460ff191690558015610642576000805461ff0019169055604051600181527f7f26b83ff96e1f2b6a682f133852f6798a09c465da95921460cefb38474024989060200160405180910390a15050505050565b6106ff8133611471565b6111f28282610de9565b6106b05760008281526065602090815260408083206001600160a01b03851684529091529020805460ff1916600117905561122a3390565b6001600160a01b0316816001600160a01b0316837f2f8788117e7eff1d82e926ec794901d17c78024a50270940304540a733656f0d60405160405180910390a45050565b6112788282610de9565b156106b05760008281526065602090815260408083206001600160a01b0385168085529252808320805460ff1916905551339285917ff6391f5c32d9c69d2a47ea670b442974b53935d1edc7fd64eb21e047a839171b9190a45050565b6112dd6114ca565b6097805460ff191690557f5db9ee0a495bf2e6ff9c91a7834c1ba4fdd244a5e8aa4e537bd38aeae4b073aa335b6040516001600160a01b03909116815260200160405180910390a1565b60975460ff161561136d5760405162461bcd60e51b815260206004820152601060248201526f14185d5cd8589b194e881c185d5cd95960821b6044820152606401610740565b565b60405160009082156108fc0290839083818181858288f1935050505015801561139c573d6000803e3d6000fd5b508060ce60008282546113af91906119b1565b909155505060ce54604080513381526020810184905280820192909252517f42d054580963e2dba823e742605c4122e3a17d67f075cef728464140a4a067639181900360600190a150565b611402611327565b6097805460ff191660011790557f62e78cea01bee320cd4e420270b5ea74000d11b0c9f74754ebdbfc544b05a25861130a3390565b600054610100900460ff1661136d57600080fd5b600054610100900460ff1661145f57600080fd5b61136d611513565b6106b082826111e8565b61147b8282610de9565b6106b05761148881611533565b611493836020611545565b6040516020016114a4929190611a8b565b60408051601f198184030181529082905262461bcd60e51b825261074091600401611b00565b60975460ff1661136d5760405162461bcd60e51b815260206004820152601460248201527314185d5cd8589b194e881b9bdd081c185d5cd95960621b6044820152606401610740565b600054610100900460ff1661152757600080fd5b6097805460ff19169055565b60606105a26001600160a01b03831660145b606060006115548360026119c9565b61155f9060026119b1565b67ffffffffffffffff8111156115775761157761176c565b6040519080825280601f01601f1916602001820160405280156115a1576020820181803683370190505b509050600360fc1b816000815181106115bc576115bc611b33565b60200101906001600160f81b031916908160001a905350600f60fb1b816001815181106115eb576115eb611b33565b60200101906001600160f81b031916908160001a905350600061160f8460026119c9565b61161a9060016119b1565b90505b6001811115611692576f181899199a1a9b1b9c1cb0b131b232b360811b85600f166010811061164e5761164e611b33565b1a60f81b82828151811061166457611664611b33565b60200101906001600160f81b031916908160001a90535060049490941c9361168b81611b49565b905061161d565b50831561169e57600080fd5b9392505050565b6000602082840312156116b757600080fd5b81356001600160e01b03198116811461169e57600080fd5b80356001600160a01b03811681146116e657600080fd5b919050565b60008060006060848603121561170057600080fd5b611709846116cf565b9250611717602085016116cf565b9150604084013590509250925092565b60006020828403121561173957600080fd5b5035919050565b6000806040838503121561175357600080fd5b82359150611763602084016116cf565b90509250929050565b634e487b7160e01b600052604160045260246000fd5b6000602080838503121561179557600080fd5b823567ffffffffffffffff808211156117ad57600080fd5b818501915085601f8301126117c157600080fd5b8135818111156117d3576117d361176c565b8060051b604051601f19603f830116810181811085821117156117f8576117f861176c565b60405291825284820192508381018501918883111561181657600080fd5b938501935b8285101561183b5761182c856116cf565b8452938501939285019261181b565b98975050505050505050565b6000806040838503121561185a57600080fd5b611863836116cf565b9150611763602084016116cf565b60006020828403121561188357600080fd5b61169e826116cf565b6000806000606084860312156118a157600080fd5b6118aa846116cf565b92506118b8602085016116cf565b91506118c6604085016116cf565b90509250925092565b80151581146106ff57600080fd5b6000602082840312156118ef57600080fd5b813561169e816118cf565b6000806000806080858703121561191057600080fd5b611919856116cf565b9350611927602086016116cf565b9250611935604086016116cf565b9150611943606086016116cf565b905092959194509250565b60006020828403121561196057600080fd5b815161169e816118cf565b60006020828403121561197d57600080fd5b5051919050565b634e487b7160e01b600052601160045260246000fd5b6000828210156119ac576119ac611984565b500390565b600082198211156119c4576119c4611984565b500190565b60008160001904831182151516156119e3576119e3611984565b500290565b600082611a0557634e487b7160e01b600052601260045260246000fd5b500490565b604080825283519082018190526000906020906060840190828701845b82811015611a4c5781516001600160a01b031684529284019290840190600101611a27565b50505092019290925292915050565b60005b83811015611a76578181015183820152602001611a5e565b83811115611a85576000848401525b50505050565b7f416363657373436f6e74726f6c3a206163636f756e7420000000000000000000815260008351611ac3816017850160208801611a5b565b7001034b99036b4b9b9b4b733903937b6329607d1b6017918401918201528351611af4816028840160208801611a5b565b01602801949350505050565b6020815260008251806020840152611b1f816040850160208701611a5b565b601f01601f19169190910160400192915050565b634e487b7160e01b600052603260045260246000fd5b600081611b5857611b58611984565b50600019019056fe97667070c54ef182b0f5858b034beac1b6f3089aa2d3188bb1e8929f4fa9b929a2646970667358221220134cfc2a5b879cebdf92ca96006b59dcb4e72751ee1dd4c77c718246fafff3ef64736f6c63430008090033",
  "linkReferences": {},
  "deployedLinkReferences": {}
}