{
  "_format": "hh-sol-artifact-1",
  "contractName": "BkBoosterCracker",
  "sourceName": "contracts/features/BkBoosterCracker.sol",
  "abi": [
    {
      "anonymous": false,
      "inputs": [
        {
          "indexed": false,
          "internalType": "uint8",
          "name": "version",
          "type": "uint8"
        }
      ],
      "name": "Initialized",
      "type": "event"
    },
    {
      "anonymous": false,
      "inputs": [
        {
          "indexed": false,
          "internalType": "address",
          "name": "account",
          "type": "address"
        }
      ],
      "name": "Paused",
      "type": "event"
    },
    {
      "anonymous": false,
      "inputs": [
        {
          "indexed": true,
          "internalType": "bytes32",
          "name": "role",
          "type": "bytes32"
        },
        {
          "indexed": true,
          "internalType": "bytes32",
          "name": "previousAdminRole",
          "type": "bytes32"
        },
        {
          "indexed": true,
          "internalType": "bytes32",
          "name": "newAdminRole",
          "type": "bytes32"
        }
      ],
      "name": "RoleAdminChanged",
      "type": "event"
    },
    {
      "anonymous": false,
      "inputs": [
        {
          "indexed": true,
          "internalType": "bytes32",
          "name": "role",
          "type": "bytes32"
        },
        {
          "indexed": true,
          "internalType": "address",
          "name": "account",
          "type": "address"
        },
        {
          "indexed": true,
          "internalType": "address",
          "name": "sender",
          "type": "address"
        }
      ],
      "name": "RoleGranted",
      "type": "event"
    },
    {
      "anonymous": false,
      "inputs": [
        {
          "indexed": true,
          "internalType": "bytes32",
          "name": "role",
          "type": "bytes32"
        },
        {
          "indexed": true,
          "internalType": "address",
          "name": "account",
          "type": "address"
        },
        {
          "indexed": true,
          "internalType": "address",
          "name": "sender",
          "type": "address"
        }
      ],
      "name": "RoleRevoked",
      "type": "event"
    },
    {
      "anonymous": false,
      "inputs": [
        {
          "indexed": false,
          "internalType": "address",
          "name": "account",
          "type": "address"
        }
      ],
      "name": "Unpaused",
      "type": "event"
    },
    {
      "inputs": [],
      "name": "DEFAULT_ADMIN_ROLE",
      "outputs": [
        {
          "internalType": "bytes32",
          "name": "",
          "type": "bytes32"
        }
      ],
      "stateMutability": "view",
      "type": "function"
    },
    {
      "inputs": [
        {
          "internalType": "address",
          "name": "_operator",
          "type": "address"
        },
        {
          "internalType": "address",
          "name": "_blocklistAddress",
          "type": "address"
        }
      ],
      "name": "__Administrable_init",
      "outputs": [],
      "stateMutability": "nonpayable",
      "type": "function"
    },
    {
      "inputs": [],
      "name": "_resetBlocklist",
      "outputs": [],
      "stateMutability": "nonpayable",
      "type": "function"
    },
    {
      "inputs": [],
      "name": "autoReturnRate",
      "outputs": [
        {
          "internalType": "uint256",
          "name": "",
          "type": "uint256"
        }
      ],
      "stateMutability": "view",
      "type": "function"
    },
    {
      "inputs": [
        {
          "internalType": "uint256",
          "name": "type_",
          "type": "uint256"
        },
        {
          "internalType": "uint256",
          "name": "quantity",
          "type": "uint256"
        },
        {
          "internalType": "uint256",
          "name": "times",
          "type": "uint256"
        }
      ],
      "name": "batchUnboxBooster",
      "outputs": [],
      "stateMutability": "nonpayable",
      "type": "function"
    },
    {
      "inputs": [
        {
          "internalType": "uint256",
          "name": "bctAmount",
          "type": "uint256"
        }
      ],
      "name": "bctToStabletoken",
      "outputs": [
        {
          "internalType": "uint256",
          "name": "",
          "type": "uint256"
        }
      ],
      "stateMutability": "view",
      "type": "function"
    },
    {
      "inputs": [],
      "name": "contracts",
      "outputs": [
        {
          "internalType": "contract IBkNft",
          "name": "nft",
          "type": "address"
        }
      ],
      "stateMutability": "view",
      "type": "function"
    },
    {
      "inputs": [
        {
          "internalType": "uint256",
          "name": "type_",
          "type": "uint256"
        },
        {
          "internalType": "uint256",
          "name": "howMany",
          "type": "uint256"
        }
      ],
      "name": "getIntegrationPrices",
      "outputs": [
        {
          "internalType": "uint256",
          "name": "bct",
          "type": "uint256"
        },
        {
          "internalType": "uint256",
          "name": "resourceCents",
          "type": "uint256"
        }
      ],
      "stateMutability": "view",
      "type": "function"
    },
    {
      "inputs": [
        {
          "internalType": "bytes32",
          "name": "role",
          "type": "bytes32"
        }
      ],
      "name": "getRoleAdmin",
      "outputs": [
        {
          "internalType": "bytes32",
          "name": "",
          "type": "bytes32"
        }
      ],
      "stateMutability": "view",
      "type": "function"
    },
    {
      "inputs": [
        {
          "internalType": "bytes32",
          "name": "role",
          "type": "bytes32"
        },
        {
          "internalType": "address",
          "name": "account",
          "type": "address"
        }
      ],
      "name": "grantRole",
      "outputs": [],
      "stateMutability": "nonpayable",
      "type": "function"
    },
    {
      "inputs": [],
      "name": "hasBlocklist",
      "outputs": [
        {
          "internalType": "bool",
          "name": "",
          "type": "bool"
        }
      ],
      "stateMutability": "view",
      "type": "function"
    },
    {
      "inputs": [
        {
          "internalType": "bytes32",
          "name": "role",
          "type": "bytes32"
        },
        {
          "internalType": "address",
          "name": "account",
          "type": "address"
        }
      ],
      "name": "hasRole",
      "outputs": [
        {
          "internalType": "bool",
          "name": "",
          "type": "bool"
        }
      ],
      "stateMutability": "view",
      "type": "function"
    },
    {
      "inputs": [
        {
          "internalType": "address",
          "name": "_operator",
          "type": "address"
        },
        {
          "internalType": "address",
          "name": "_blocklist",
          "type": "address"
        },
        {
          "internalType": "address",
          "name": "_result",
          "type": "address"
        }
      ],
      "name": "initialize",
      "outputs": [],
      "stateMutability": "nonpayable",
      "type": "function"
    },
    {
      "inputs": [],
      "name": "lockPeriod",
      "outputs": [
        {
          "internalType": "uint256",
          "name": "",
          "type": "uint256"
        }
      ],
      "stateMutability": "view",
      "type": "function"
    },
    {
      "inputs": [],
      "name": "pause",
      "outputs": [],
      "stateMutability": "nonpayable",
      "type": "function"
    },
    {
      "inputs": [],
      "name": "paused",
      "outputs": [
        {
          "internalType": "bool",
          "name": "",
          "type": "bool"
        }
      ],
      "stateMutability": "view",
      "type": "function"
    },
    {
      "inputs": [],
      "name": "paymentContracts",
      "outputs": [
        {
          "internalType": "contract IBkERC20",
          "name": "bct",
          "type": "address"
        },
        {
          "internalType": "contract IBkERC20",
          "name": "busd",
          "type": "address"
        },
        {
          "internalType": "contract ICommunityPool",
          "name": "pool",
          "type": "address"
        },
        {
          "internalType": "contract IBkFarm",
          "name": "farm",
          "type": "address"
        }
      ],
      "stateMutability": "view",
      "type": "function"
    },
    {
      "inputs": [
        {
          "internalType": "uint256",
          "name": "",
          "type": "uint256"
        }
      ],
      "name": "rarityAndQuantityFactor",
      "outputs": [
        {
          "internalType": "uint256",
          "name": "",
          "type": "uint256"
        }
      ],
      "stateMutability": "view",
      "type": "function"
    },
    {
      "inputs": [
        {
          "internalType": "uint256",
          "name": "",
          "type": "uint256"
        }
      ],
      "name": "rarityAndTypeFactor",
      "outputs": [
        {
          "internalType": "uint256",
          "name": "",
          "type": "uint256"
        }
      ],
      "stateMutability": "view",
      "type": "function"
    },
    {
      "inputs": [
        {
          "internalType": "address",
          "name": "tokenAddress",
          "type": "address"
        },
        {
          "internalType": "address",
          "name": "to",
          "type": "address"
        },
        {
          "internalType": "uint256",
          "name": "amount",
          "type": "uint256"
        }
      ],
      "name": "recoverERC20",
      "outputs": [],
      "stateMutability": "nonpayable",
      "type": "function"
    },
    {
      "inputs": [
        {
          "internalType": "bytes32",
          "name": "role",
          "type": "bytes32"
        },
        {
          "internalType": "address",
          "name": "account",
          "type": "address"
        }
      ],
      "name": "renounceRole",
      "outputs": [],
      "stateMutability": "nonpayable",
      "type": "function"
    },
    {
      "inputs": [
        {
          "internalType": "uint256",
          "name": "",
          "type": "uint256"
        }
      ],
      "name": "resources",
      "outputs": [
        {
          "internalType": "address",
          "name": "",
          "type": "address"
        }
      ],
      "stateMutability": "view",
      "type": "function"
    },
    {
      "inputs": [],
      "name": "resourcesCount",
      "outputs": [
        {
          "internalType": "uint256",
          "name": "",
          "type": "uint256"
        }
      ],
      "stateMutability": "view",
      "type": "function"
    },
    {
      "inputs": [
        {
          "internalType": "bytes32",
          "name": "role",
          "type": "bytes32"
        },
        {
          "internalType": "address",
          "name": "account",
          "type": "address"
        }
      ],
      "name": "revokeRole",
      "outputs": [],
      "stateMutability": "nonpayable",
      "type": "function"
    },
    {
      "inputs": [],
      "name": "scale",
      "outputs": [
        {
          "internalType": "uint256",
          "name": "",
          "type": "uint256"
        }
      ],
      "stateMutability": "view",
      "type": "function"
    },
    {
      "inputs": [
        {
          "internalType": "address",
          "name": "blocklistAddress",
          "type": "address"
        }
      ],
      "name": "setBlocklist",
      "outputs": [],
      "stateMutability": "nonpayable",
      "type": "function"
    },
    {
      "inputs": [
        {
          "internalType": "address",
          "name": "_nft",
          "type": "address"
        }
      ],
      "name": "setContracts",
      "outputs": [],
      "stateMutability": "nonpayable",
      "type": "function"
    },
    {
      "inputs": [
        {
          "internalType": "address",
          "name": "_result",
          "type": "address"
        }
      ],
      "name": "setRResult",
      "outputs": [],
      "stateMutability": "nonpayable",
      "type": "function"
    },
    {
      "inputs": [
        {
          "internalType": "uint256",
          "name": "_scale",
          "type": "uint256"
        }
      ],
      "name": "setScale",
      "outputs": [],
      "stateMutability": "nonpayable",
      "type": "function"
    },
    {
      "inputs": [
        {
          "internalType": "address",
          "name": "_bct",
          "type": "address"
        },
        {
          "internalType": "address",
          "name": "_busd",
          "type": "address"
        },
        {
          "internalType": "address",
          "name": "_pool",
          "type": "address"
        },
        {
          "internalType": "address",
          "name": "_farm",
          "type": "address"
        },
        {
          "internalType": "address",
          "name": "_resourcesSource",
          "type": "address"
        },
        {
          "internalType": "uint256",
          "name": "_autoReturnRate",
          "type": "uint256"
        }
      ],
      "name": "setupPaymentModule",
      "outputs": [],
      "stateMutability": "nonpayable",
      "type": "function"
    },
    {
      "inputs": [
        {
          "internalType": "uint256",
          "name": "busdAmount",
          "type": "uint256"
        }
      ],
      "name": "stabletokenToBct",
      "outputs": [
        {
          "internalType": "uint256",
          "name": "",
          "type": "uint256"
        }
      ],
      "stateMutability": "view",
      "type": "function"
    },
    {
      "inputs": [
        {
          "internalType": "bytes4",
          "name": "interfaceId",
          "type": "bytes4"
        }
      ],
      "name": "supportsInterface",
      "outputs": [
        {
          "internalType": "bool",
          "name": "",
          "type": "bool"
        }
      ],
      "stateMutability": "view",
      "type": "function"
    },
    {
      "inputs": [
        {
          "internalType": "uint256",
          "name": "type_",
          "type": "uint256"
        },
        {
          "internalType": "uint256",
          "name": "quantity",
          "type": "uint256"
        }
      ],
      "name": "unboxBooster",
      "outputs": [],
      "stateMutability": "nonpayable",
      "type": "function"
    },
    {
      "inputs": [
        {
          "internalType": "address",
          "name": "owner",
          "type": "address"
        },
        {
          "internalType": "uint256",
          "name": "type_",
          "type": "uint256"
        },
        {
          "internalType": "uint256",
          "name": "quantity",
          "type": "uint256"
        }
      ],
      "name": "unboxBoosterFor",
      "outputs": [],
      "stateMutability": "nonpayable",
      "type": "function"
    },
    {
      "inputs": [],
      "name": "unpause",
      "outputs": [],
      "stateMutability": "nonpayable",
      "type": "function"
    },
    {
      "inputs": [
        {
          "internalType": "address",
          "name": "sourceContract",
          "type": "address"
        }
      ],
      "name": "updateResources",
      "outputs": [],
      "stateMutability": "nonpayable",
      "type": "function"
    }
  ],
  "bytecode": "0x608060405234801561001057600080fd5b506126b2806100206000396000f3fe608060405234801561001057600080fd5b506004361061021c5760003560e01c80636c0f79b611610125578063c0c53b8b116100ad578063d547741f1161007c578063d547741f146104e0578063dd0f7fd7146104f3578063f13e9d501461051b578063f4b93f451461052e578063f51e181a1461054157600080fd5b8063c0c53b8b14610491578063c3c87d53146104a4578063c429d349146104b7578063c7b84f8f146104c057600080fd5b806391d14854116100f457806391d148541461043d578063931da89b14610450578063a217fddf14610463578063aef18ae71461046b578063b5f63f601461047e57600080fd5b80636c0f79b6146103fc5780637695eea41461040f578063804ecd83146104225780638456cb591461043557600080fd5b80633f4ba83a116101a857806351ac7b8c1161017757806351ac7b8c146103ae5780635a2e2f47146103b75780635c975abb146103ca578063634210f4146103d5578063669be52f146103e957600080fd5b80633f4ba83a1461036a5780633fd8b02f1461037257806341e80ad91461037b5780634dce62ac1461038e57600080fd5b8063248a9ca3116101ef578063248a9ca3146102a75780632f2ff15d146102d8578063323b6cb7146102eb57806336568abe146103445780633edc35191461035757600080fd5b806301ffc9a71461022157806306a45070146102495780631171bda914610253578063244d6daa14610266575b600080fd5b61023461022f366004611eb1565b61054a565b60405190151581526020015b60405180910390f35b610251610581565b005b610251610261366004611ef0565b6105ac565b61028f610274366004611f31565b6001602052600090815260409020546001600160a01b031681565b6040516001600160a01b039091168152602001610240565b6102ca6102b5366004611f31565b6000908152606e602052604090206001015490565b604051908152602001610240565b6102516102e6366004611f4a565b61064d565b600254600354600454600554610311936001600160a01b03908116938116928116911684565b604080516001600160a01b0395861681529385166020850152918416918301919091529091166060820152608001610240565b610251610352366004611f4a565b610677565b610251610365366004611f31565b61069a565b6102516106b8565b6102ca60075481565b6102ca610389366004611f31565b6106db565b6102ca61039c366004611f31565b60d66020526000908152604090205481565b6102ca60005481565b6102516103c5366004611f7a565b61075b565b60a05460ff16610234565b60d25461023490600160a01b900460ff1681565b6102516103f7366004611f97565b6107a3565b60d45461028f906001600160a01b031681565b61025161041d366004611fc3565b61084c565b610251610430366004611f7a565b61086f565b6102516108aa565b61023461044b366004611f4a565b6108ca565b61025161045e366004611ff8565b6108f5565b6102ca600081565b610251610479366004611f7a565b610a0b565b6102ca61048c366004611f31565b610a4b565b61025161049f366004612026565b610a7f565b6102516104b2366004611f7a565b610ca6565b6102ca60065481565b6102ca6104ce366004611f31565b60d56020526000908152604090205481565b6102516104ee366004611f4a565b610cc7565b610506610501366004612071565b610cec565b60408051928352602083019190915201610240565b610251610529366004612071565b611019565b61025161053c366004612093565b61107f565b6102ca60d75481565b60006001600160e01b03198216637965db0b60e01b148061057b57506301ffc9a760e01b6001600160e01b03198316145b92915050565b60008051602061265d833981519152610599816110ae565b5060d280546001600160a81b0319169055565b60008051602061265d8339815191526105c4816110ae565b60405163a9059cbb60e01b81526001600160a01b0384811660048301526024820184905285169063a9059cbb90604401602060405180830381600087803b15801561060e57600080fd5b505af1158015610622573d6000803e3d6000fd5b505050506040513d601f19601f82011682018060405250810190610646919061210c565b5050505050565b6000828152606e6020526040902060010154610668816110ae565b61067283836110b8565b505050565b6001600160a01b038116331461068c57600080fd5b610696828261113e565b5050565b60008051602061265d8339815191526106b2816110ae565b5060d755565b60008051602061265d8339815191526106d0816110ae565b6106d86111a5565b50565b60048054604051634ca1cccb60e11b81529182018390526000916001600160a01b03909116906399439996906024015b60206040518083038186803b15801561072357600080fd5b505afa158015610737573d6000803e3d6000fd5b505050506040513d601f19601f8201168201806040525081019061057b919061212e565b60008051602061265d833981519152610773816110ae565b5060408051602081019091526001600160a01b039091169081905260d480546001600160a01b0319169091179055565b6107ab6111f7565b336000908152600860205260409020544310156107fa5760405162461bcd60e51b815260206004820152600860248201526731b7b7b63237bbb760c11b60448201526064015b60405180910390fd5b6108033361123f565b6000811161081057600080fd5b606481111561081e57600080fd5b60005b8181101561084657610834338585611268565b8061083e8161215d565b915050610821565b50505050565b60008051602061265d833981519152610864816110ae565b610846848484611268565b60008051602061265d833981519152610887816110ae565b5060d380546001600160a01b0319166001600160a01b0392909216919091179055565b60008051602061265d8339815191526108c2816110ae565b6106d86117cd565b6000918252606e602090815260408084206001600160a01b0393909316845291905290205460ff1690565b600954610100900460ff16158080156109155750600954600160ff909116105b8061092f5750303b15801561092f575060095460ff166001145b61093857600080fd5b6009805460ff19166001179055801561095b576009805461ff0019166101001790555b61096361180a565b61096b61181e565b61097660008461183a565b61098e60008051602061265d8339815191528461183a565b6109b87f73e573f9566d61418a34d5de3ff49360f9c51fec37f7486551670290f6285dab8461183a565b6109c182610a0b565b8015610672576009805461ff0019169055604051600181527f7f26b83ff96e1f2b6a682f133852f6798a09c465da95921460cefb38474024989060200160405180910390a1505050565b60008051602061265d833981519152610a23816110ae565b5060d280546001600160a81b0319166001600160a01b0390921691909117600160a01b179055565b6004805460405163526267fd60e11b81529182018390526000916001600160a01b039091169063a4c4cffa9060240161070b565b600954610100900460ff1615808015610a9f5750600954600160ff909116105b80610ab95750303b158015610ab9575060095460ff166001145b610ac257600080fd5b6009805460ff191660011790558015610ae5576009805461ff0019166101001790555b610aef84846108f5565b60d380546001600160a01b0319166001600160a01b0384161790556001600081905260d56020527fb186f7a614e2b28e65ca076ca0b7bb14b3af2be24ff516bdf5cf4035a20df47c8190555b600a811015610b97576001610b508282612178565b610b5b906002612274565b610b659190612280565b60d56000610b74846001612178565b815260208101919091526040016000205580610b8f8161215d565b915050610b3b565b5060d660205260017fd2adaf2301c9e54b047b553c7ecb61fbf4f84d71709e2a227efec0843186585f81905560027fc771c0b64b79fe531fb580e22ef07b485230fb2ccc56f1d5209f51eb1c30f1255560037ff4a311c8dd908ac829e4232260121a63f7d040b230ce5d93dab6e4fd576e86f55560047f7c54a1b445b486f65fec63e67a28a4aa3d535d5c5249e536d48afca5eb2afb5d55605160005260057f72f4f720887550078aec106d24b3cf816fd54c587dcb61f27130a22cd5f839d4556007558015610846576009805461ff0019169055604051600181527f7f26b83ff96e1f2b6a682f133852f6798a09c465da95921460cefb38474024989060200160405180910390a150505050565b60008051602061265d833981519152610cbe816110ae565b61069682611844565b6000828152606e6020526040902060010154610ce2816110ae565b610672838361113e565b6000808260011415610d0357506000905080610fea565b8260031415610d3f57610d17846019612297565b610d22906001612297565b610d3490670de0b6b3a7640000612297565b915060199050610fea565b8260091415610dc757610d53846019612297565b610d5e906001612297565b610d7090670de0b6b3a7640000612297565b610d7b906003612297565b9150604b9050610d8c846019612297565b610d97906002612297565b610da990670de0b6b3a7640000612297565b610db39083612178565b9150610dc0603282612178565b9050610fea565b82601b1415610e9457610ddb846019612297565b610de6906001612297565b610df890670de0b6b3a7640000612297565b610e03906009612297565b915060e19050610e14846019612297565b610e1f906002612297565b610e3190670de0b6b3a7640000612297565b610e3c906003612297565b610e469083612178565b9150610e53609682612178565b9050610e60846019612297565b610e6b906003612297565b610e7d90670de0b6b3a7640000612297565b610e879083612178565b9150610dc0604b82612178565b8260511415610faf57610ea8846019612297565b610eb3906001612297565b610ec590670de0b6b3a7640000612297565b610ed090601b612297565b91506102a39050610ee2846019612297565b610eed906002612297565b610eff90670de0b6b3a7640000612297565b610f0a906009612297565b610f149083612178565b9150610f226101c282612178565b9050610f2f846019612297565b610f3a906003612297565b610f4c90670de0b6b3a7640000612297565b610f57906003612297565b610f619083612178565b9150610f6e60e182612178565b9050610f7b846019612297565b610f86906004612297565b610f9890670de0b6b3a7640000612297565b610fa29083612178565b9150610dc0606482612178565b60405162461bcd60e51b815260206004820152601060248201526f496e76616c6964207175616e7469747960801b60448201526064016107f1565b6002606460d75484610ffc9190612297565b61100691906122b6565b61101091906122b6565b91509250929050565b6110216111f7565b3360009081526008602052604090205443101561106b5760405162461bcd60e51b815260206004820152600860248201526731b7b7b63237bbb760c11b60448201526064016107f1565b6110743361123f565b610696338383611268565b60008051602061265d833981519152611097816110ae565b6110a5878787878787611933565b50505050505050565b6106d881336119fa565b6110c282826108ca565b610696576000828152606e602090815260408083206001600160a01b03851684529091529020805460ff191660011790556110fa3390565b6001600160a01b0316816001600160a01b0316837f2f8788117e7eff1d82e926ec794901d17c78024a50270940304540a733656f0d60405160405180910390a45050565b61114882826108ca565b15610696576000828152606e602090815260408083206001600160a01b0385168085529252808320805460ff1916905551339285917ff6391f5c32d9c69d2a47ea670b442974b53935d1edc7fd64eb21e047a839171b9190a45050565b6111ad611a53565b60a0805460ff191690557f5db9ee0a495bf2e6ff9c91a7834c1ba4fdd244a5e8aa4e537bd38aeae4b073aa335b6040516001600160a01b03909116815260200160405180910390a1565b60a05460ff161561123d5760405162461bcd60e51b815260206004820152601060248201526f14185d5cd8589b194e881c185d5cd95960821b60448201526064016107f1565b565b60075461124c9043612178565b6001600160a01b03909116600090815260086020526040902055565b6001821015801561127a575060048211155b61128357600080fd5b80600114806112925750806003145b8061129d5750806009145b806112a8575080601b145b806112b35750806051145b6112bc57600080fd5b60408051601a808252610360820190925260009160208201610340803683370190505090506000806112ee8585610cec565b90925090508083611300876004612178565b81518110611310576113106122ee565b6020026020010181815250506000600286116113365761133186600b612178565b611341565b611341866010612178565b905061134e856064612297565b848281518110611360576113606122ee565b6020026020010181815250506113a38385604051806080016040528060011515815260200160011515815260200160001515815260200160001515815250611a9c565b60d4546040805163015f9eab60e11b815290516000926001600160a01b0316916302bf3d56916004808301926020929190829003018186803b1580156113e857600080fd5b505afa1580156113fc573d6000803e3d6000fd5b505050506040513d601f19601f82011682018060405250810190611420919061212e565b6040805160028082526060820183529293506000929091602083019080368337505060d354919250506001600160a01b039081169063d19435ff908b90600190603290600390611474908990861631612178565b6040516001600160e01b031960e088901b1681526001600160a01b039095166004860152602485019390935260448401919091526064830152608482015260a40160206040518083038186803b1580156114cd57600080fd5b505afa1580156114e1573d6000803e3d6000fd5b505050506040513d601f19601f82011682018060405250810190611505919061212e565b81600081518110611518576115186122ee565b602090810291909101015260d3546001600160a01b039081169063d19435ff908b90600190603290600790611551908990861631612178565b61155c906001612178565b6040516001600160e01b031960e088901b1681526001600160a01b039095166004860152602485019390935260448401919091526064830152608482015260a40160206040518083038186803b1580156115b557600080fd5b505afa1580156115c9573d6000803e3d6000fd5b505050506040513d601f19601f820116820180604052508101906115ed919061212e565b81600181518110611600576116006122ee565b602090810291909101015260408051600680825260e08201909252600091816020016020820280368337019050509050600181600081518110611645576116456122ee565b602002602001018181525050600181600181518110611666576116666122ee565b602090810291909101015260408051600680825260e0820190925260009181602001602082028036833701905050905089816000815181106116aa576116aa6122ee565b60200260200101818152505060d660008a815260200190815260200160002054816001815181106116dd576116dd6122ee565b60209081029190910181019190915260d454604080516101808101825260008082528251808601845281815282860152825194850183528085528183019490945233606082018190526080820185905260a0820185905260c0820185905260e08201859052610100820186905261012082018890526101408201879052610160820194909452905163336deb5f60e11b81526001600160a01b03909216926366dbd6be9261178e9290600401612397565b600060405180830381600087803b1580156117a857600080fd5b505af11580156117bc573d6000803e3d6000fd5b505050505050505050505050505050565b6117d56111f7565b60a0805460ff191660011790557f62e78cea01bee320cd4e420270b5ea74000d11b0c9f74754ebdbfc544b05a2586111da3390565b600954610100900460ff1661123d57600080fd5b600954610100900460ff1661183257600080fd5b61123d611d1f565b61069682826110b8565b60008190506000816001600160a01b031663c1cc57b06040518163ffffffff1660e01b815260040160006040518083038186803b15801561188457600080fd5b505afa158015611898573d6000803e3d6000fd5b505050506040513d6000823e601f3d908101601f191682016040526118c091908101906124c8565b905060005b815181101561192a578181815181106118e0576118e06122ee565b60209081029190910181015160008381526001909252604090912080546001600160a01b0319166001600160a01b03909216919091179055806119228161215d565b9150506118c5565b50516000555050565b600280546001600160a01b038089166001600160a01b0319928316179092556003805488841690831617905560048054878416908316179055600580549286169290911691909117905561198682611844565b600681905560035460405163095ea7b360e01b81526001600160a01b03868116600483015260001960248301529091169063095ea7b390604401600060405180830381600087803b1580156119da57600080fd5b505af11580156119ee573d6000803e3d6000fd5b50505050505050505050565b611a0482826108ca565b61069657611a1181611d3f565b611a1c836020611d51565b604051602001611a2d92919061258d565b60408051601f198184030181529082905262461bcd60e51b82526107f191600401612602565b60a05460ff1661123d5760405162461bcd60e51b815260206004820152601460248201527314185d5cd8589b194e881b9bdd081c185d5cd95960621b60448201526064016107f1565b806040015115611c0a57806020015115611add5760405162461bcd60e51b8152602060048201526002602482015261070360f41b60448201526064016107f1565b8051600090611aec5783611af5565b611af584610a4b565b6003546040516323b872dd60e01b8152336004820152306024820152604481018390529192506001600160a01b0316906323b872dd90606401600060405180830381600087803b158015611b4857600080fd5b505af1158015611b5c573d6000803e3d6000fd5b505050506000606482600654611b729190612297565b611b7c91906122b6565b60048054604051630d3990db60e21b81529293506001600160a01b0316916334e6436c91611bb09185910190815260200190565b602060405180830381600087803b158015611bca57600080fd5b505af1158015611bde573d6000803e3d6000fd5b505050506040513d601f19601f82011682018060405250810190611c02919061212e565b505050505050565b806060015115611c415760405162461bcd60e51b8152602060048201526002602482015261703160f01b60448201526064016107f1565b8051600090611c5857611c53846106db565b611c5a565b835b60055460405163b1918c9560e01b81529192506000916001600160a01b039091169063b1918c9590611c9490339086908990600401612615565b602060405180830381600087803b158015611cae57600080fd5b505af1158015611cc2573d6000803e3d6000fd5b505050506040513d601f19601f82011682018060405250810190611ce6919061210c565b9050806106465760405162461bcd60e51b81526020600482015260076024820152666e6f46756e647360c81b60448201526064016107f1565b600954610100900460ff16611d3357600080fd5b60a0805460ff19169055565b606061057b6001600160a01b03831660145b60606000611d60836002612297565b611d6b906002612178565b67ffffffffffffffff811115611d8357611d836122d8565b6040519080825280601f01601f191660200182016040528015611dad576020820181803683370190505b509050600360fc1b81600081518110611dc857611dc86122ee565b60200101906001600160f81b031916908160001a905350600f60fb1b81600181518110611df757611df76122ee565b60200101906001600160f81b031916908160001a9053506000611e1b846002612297565b611e26906001612178565b90505b6001811115611e9e576f181899199a1a9b1b9c1cb0b131b232b360811b85600f1660108110611e5a57611e5a6122ee565b1a60f81b828281518110611e7057611e706122ee565b60200101906001600160f81b031916908160001a90535060049490941c93611e9781612645565b9050611e29565b508315611eaa57600080fd5b9392505050565b600060208284031215611ec357600080fd5b81356001600160e01b031981168114611eaa57600080fd5b6001600160a01b03811681146106d857600080fd5b600080600060608486031215611f0557600080fd5b8335611f1081611edb565b92506020840135611f2081611edb565b929592945050506040919091013590565b600060208284031215611f4357600080fd5b5035919050565b60008060408385031215611f5d57600080fd5b823591506020830135611f6f81611edb565b809150509250929050565b600060208284031215611f8c57600080fd5b8135611eaa81611edb565b600080600060608486031215611fac57600080fd5b505081359360208301359350604090920135919050565b600080600060608486031215611fd857600080fd5b8335611fe381611edb565b95602085013595506040909401359392505050565b6000806040838503121561200b57600080fd5b823561201681611edb565b91506020830135611f6f81611edb565b60008060006060848603121561203b57600080fd5b833561204681611edb565b9250602084013561205681611edb565b9150604084013561206681611edb565b809150509250925092565b6000806040838503121561208457600080fd5b50508035926020909101359150565b60008060008060008060c087890312156120ac57600080fd5b86356120b781611edb565b955060208701356120c781611edb565b945060408701356120d781611edb565b935060608701356120e781611edb565b925060808701356120f781611edb565b8092505060a087013590509295509295509295565b60006020828403121561211e57600080fd5b81518015158114611eaa57600080fd5b60006020828403121561214057600080fd5b5051919050565b634e487b7160e01b600052601160045260246000fd5b600060001982141561217157612171612147565b5060010190565b6000821982111561218b5761218b612147565b500190565b600181815b808511156121cb5781600019048211156121b1576121b1612147565b808516156121be57918102915b93841c9390800290612195565b509250929050565b6000826121e25750600161057b565b816121ef5750600061057b565b8160018114612205576002811461220f5761222b565b600191505061057b565b60ff84111561222057612220612147565b50506001821b61057b565b5060208310610133831016604e8410600b841016171561224e575081810a61057b565b6122588383612190565b806000190482111561226c5761226c612147565b029392505050565b6000611eaa83836121d3565b60008282101561229257612292612147565b500390565b60008160001904831182151516156122b1576122b1612147565b500290565b6000826122d357634e487b7160e01b600052601260045260246000fd5b500490565b634e487b7160e01b600052604160045260246000fd5b634e487b7160e01b600052603260045260246000fd5b60005b8381101561231f578181015183820152602001612307565b838111156108465750506000910152565b60008151808452612348816020860160208601612304565b601f01601f19169290920160200192915050565b600081518084526020808501945080840160005b8381101561238c57815187529582019590820190600101612370565b509495945050505050565b60018060a01b03831681526040602082015281516040820152600060208301516101808060608501526123ce6101c0850183612330565b91506040850151603f19808685030160808701526123ec8483612330565b93506060870151915061240a60a08701836001600160a01b03169052565b608087015160c087015260a087015160e087015260c08701519150610100828188015260e088015192506101208381890152818901519350610140915082888703018289015261245a868561235c565b955080890151935050610160828887030181890152612479868561235c565b9550818901519350828887030185890152612494868561235c565b9550808901519450505050506124af6101a085018215159052565b50949350505050565b80516124c381611edb565b919050565b600060208083850312156124db57600080fd5b825167ffffffffffffffff808211156124f357600080fd5b818501915085601f83011261250757600080fd5b815181811115612519576125196122d8565b8060051b604051601f19603f8301168101818110858211171561253e5761253e6122d8565b60405291825284820192508381018501918883111561255c57600080fd5b938501935b8285101561258157612572856124b8565b84529385019392850192612561565b98975050505050505050565b7f416363657373436f6e74726f6c3a206163636f756e74200000000000000000008152600083516125c5816017850160208801612304565b7001034b99036b4b9b9b4b733903937b6329607d1b60179184019182015283516125f6816028840160208801612304565b01602801949350505050565b602081526000611eaa6020830184612330565b60018060a01b038416815282602082015260606040820152600061263c606083018461235c565b95945050505050565b60008161265457612654612147565b50600019019056fe97667070c54ef182b0f5858b034beac1b6f3089aa2d3188bb1e8929f4fa9b929a2646970667358221220082d346fa288991079b7c047b7094fc2087b6ae42674da98ac47af3ed6099d9a64736f6c63430008090033",
  "linkReferences": {},
  "deployedLinkReferences": {}
}