{
  "_format": "hh-sol-artifact-1",
  "contractName": "CommunityPoolV3",
  "sourceName": "contracts/features/CommunityPoolV3.sol",
  "abi": [
    {
      "anonymous": false,
      "inputs": [
        {
          "indexed": false,
          "internalType": "uint256",
          "name": "amount",
          "type": "uint256"
        }
      ],
      "name": "AddToFund",
      "type": "event"
    },
    {
      "anonymous": false,
      "inputs": [
        {
          "indexed": false,
          "internalType": "address",
          "name": "account",
          "type": "address"
        },
        {
          "indexed": false,
          "internalType": "uint256",
          "name": "stableTokensIn",
          "type": "uint256"
        },
        {
          "indexed": false,
          "internalType": "uint256",
          "name": "gameTokensOut",
          "type": "uint256"
        },
        {
          "indexed": false,
          "internalType": "uint256",
          "name": "newPrice",
          "type": "uint256"
        }
      ],
      "name": "Buy",
      "type": "event"
    },
    {
      "anonymous": false,
      "inputs": [
        {
          "indexed": false,
          "internalType": "address",
          "name": "account",
          "type": "address"
        },
        {
          "indexed": false,
          "internalType": "uint256",
          "name": "stableTokensIn",
          "type": "uint256"
        },
        {
          "indexed": false,
          "internalType": "uint256",
          "name": "gameTokensBurned",
          "type": "uint256"
        },
        {
          "indexed": false,
          "internalType": "uint256",
          "name": "newPrice",
          "type": "uint256"
        }
      ],
      "name": "BuyAndBurn",
      "type": "event"
    },
    {
      "anonymous": false,
      "inputs": [
        {
          "indexed": false,
          "internalType": "uint8",
          "name": "version",
          "type": "uint8"
        }
      ],
      "name": "Initialized",
      "type": "event"
    },
    {
      "anonymous": false,
      "inputs": [
        {
          "indexed": false,
          "internalType": "address",
          "name": "from",
          "type": "address"
        },
        {
          "indexed": false,
          "internalType": "uint256",
          "name": "gameTokensIn",
          "type": "uint256"
        },
        {
          "indexed": false,
          "internalType": "uint256",
          "name": "stableTokensIn",
          "type": "uint256"
        },
        {
          "indexed": false,
          "internalType": "uint256",
          "name": "newPrice",
          "type": "uint256"
        }
      ],
      "name": "LiquidityAdded",
      "type": "event"
    },
    {
      "anonymous": false,
      "inputs": [
        {
          "indexed": false,
          "internalType": "uint256",
          "name": "price",
          "type": "uint256"
        }
      ],
      "name": "NewPrice",
      "type": "event"
    },
    {
      "anonymous": false,
      "inputs": [
        {
          "indexed": false,
          "internalType": "address",
          "name": "account",
          "type": "address"
        }
      ],
      "name": "Paused",
      "type": "event"
    },
    {
      "anonymous": false,
      "inputs": [
        {
          "indexed": true,
          "internalType": "bytes32",
          "name": "role",
          "type": "bytes32"
        },
        {
          "indexed": true,
          "internalType": "bytes32",
          "name": "previousAdminRole",
          "type": "bytes32"
        },
        {
          "indexed": true,
          "internalType": "bytes32",
          "name": "newAdminRole",
          "type": "bytes32"
        }
      ],
      "name": "RoleAdminChanged",
      "type": "event"
    },
    {
      "anonymous": false,
      "inputs": [
        {
          "indexed": true,
          "internalType": "bytes32",
          "name": "role",
          "type": "bytes32"
        },
        {
          "indexed": true,
          "internalType": "address",
          "name": "account",
          "type": "address"
        },
        {
          "indexed": true,
          "internalType": "address",
          "name": "sender",
          "type": "address"
        }
      ],
      "name": "RoleGranted",
      "type": "event"
    },
    {
      "anonymous": false,
      "inputs": [
        {
          "indexed": true,
          "internalType": "bytes32",
          "name": "role",
          "type": "bytes32"
        },
        {
          "indexed": true,
          "internalType": "address",
          "name": "account",
          "type": "address"
        },
        {
          "indexed": true,
          "internalType": "address",
          "name": "sender",
          "type": "address"
        }
      ],
      "name": "RoleRevoked",
      "type": "event"
    },
    {
      "anonymous": false,
      "inputs": [
        {
          "indexed": false,
          "internalType": "address",
          "name": "account",
          "type": "address"
        },
        {
          "indexed": false,
          "internalType": "uint256",
          "name": "gameTokensIn",
          "type": "uint256"
        },
        {
          "indexed": false,
          "internalType": "uint256",
          "name": "stableTokensOut",
          "type": "uint256"
        },
        {
          "indexed": false,
          "internalType": "uint256",
          "name": "newPrice",
          "type": "uint256"
        }
      ],
      "name": "Sell",
      "type": "event"
    },
    {
      "anonymous": false,
      "inputs": [
        {
          "indexed": false,
          "internalType": "address",
          "name": "account",
          "type": "address"
        }
      ],
      "name": "Unpaused",
      "type": "event"
    },
    {
      "inputs": [],
      "name": "DEFAULT_ADMIN_ROLE",
      "outputs": [
        {
          "internalType": "bytes32",
          "name": "",
          "type": "bytes32"
        }
      ],
      "stateMutability": "view",
      "type": "function"
    },
    {
      "inputs": [
        {
          "internalType": "uint256",
          "name": "amountIn",
          "type": "uint256"
        }
      ],
      "name": "actuallyBuyAndBurn",
      "outputs": [
        {
          "internalType": "uint256",
          "name": "amountBurned",
          "type": "uint256"
        }
      ],
      "stateMutability": "nonpayable",
      "type": "function"
    },
    {
      "inputs": [
        {
          "internalType": "uint256",
          "name": "amountOfBct",
          "type": "uint256"
        },
        {
          "internalType": "uint256",
          "name": "amountOfStableTokens",
          "type": "uint256"
        }
      ],
      "name": "addLiquidity",
      "outputs": [],
      "stateMutability": "nonpayable",
      "type": "function"
    },
    {
      "inputs": [],
      "name": "blocklist",
      "outputs": [
        {
          "internalType": "contract IBlocklist",
          "name": "",
          "type": "address"
        }
      ],
      "stateMutability": "view",
      "type": "function"
    },
    {
      "inputs": [
        {
          "internalType": "uint256",
          "name": "amount",
          "type": "uint256"
        }
      ],
      "name": "burnBct",
      "outputs": [],
      "stateMutability": "nonpayable",
      "type": "function"
    },
    {
      "inputs": [
        {
          "internalType": "uint256",
          "name": "amountIn",
          "type": "uint256"
        }
      ],
      "name": "buyAndBurn",
      "outputs": [
        {
          "internalType": "uint256",
          "name": "amountBurned",
          "type": "uint256"
        }
      ],
      "stateMutability": "nonpayable",
      "type": "function"
    },
    {
      "inputs": [
        {
          "internalType": "uint256",
          "name": "gameTokens",
          "type": "uint256"
        }
      ],
      "name": "buyGameTokens",
      "outputs": [
        {
          "internalType": "uint256",
          "name": "stableTokensPaid",
          "type": "uint256"
        }
      ],
      "stateMutability": "nonpayable",
      "type": "function"
    },
    {
      "inputs": [
        {
          "internalType": "uint256",
          "name": "gameTokens",
          "type": "uint256"
        },
        {
          "internalType": "uint256",
          "name": "atPrice",
          "type": "uint256"
        },
        {
          "internalType": "uint256",
          "name": "maxSlippage",
          "type": "uint256"
        }
      ],
      "name": "buyGameTokensAtPrice",
      "outputs": [
        {
          "internalType": "uint256",
          "name": "stableTokensPaid",
          "type": "uint256"
        }
      ],
      "stateMutability": "nonpayable",
      "type": "function"
    },
    {
      "inputs": [],
      "name": "config",
      "outputs": [
        {
          "internalType": "uint8",
          "name": "stasherDiscount",
          "type": "uint8"
        },
        {
          "internalType": "uint8",
          "name": "baseCommunityFee",
          "type": "uint8"
        },
        {
          "internalType": "uint8",
          "name": "closedForMonths",
          "type": "uint8"
        },
        {
          "internalType": "uint8",
          "name": "steepCurveMonths",
          "type": "uint8"
        },
        {
          "internalType": "uint8",
          "name": "maxMonths",
          "type": "uint8"
        }
      ],
      "stateMutability": "view",
      "type": "function"
    },
    {
      "inputs": [],
      "name": "gameToken",
      "outputs": [
        {
          "internalType": "contract MHIERC20",
          "name": "",
          "type": "address"
        }
      ],
      "stateMutability": "view",
      "type": "function"
    },
    {
      "inputs": [],
      "name": "gameTokenReserve",
      "outputs": [
        {
          "internalType": "uint256",
          "name": "",
          "type": "uint256"
        }
      ],
      "stateMutability": "view",
      "type": "function"
    },
    {
      "inputs": [],
      "name": "gasPriceLimit",
      "outputs": [
        {
          "internalType": "uint256",
          "name": "",
          "type": "uint256"
        }
      ],
      "stateMutability": "view",
      "type": "function"
    },
    {
      "inputs": [
        {
          "internalType": "uint8",
          "name": "stasherLevel",
          "type": "uint8"
        }
      ],
      "name": "getCommunityFeePct",
      "outputs": [
        {
          "internalType": "uint256",
          "name": "feeInPct",
          "type": "uint256"
        }
      ],
      "stateMutability": "view",
      "type": "function"
    },
    {
      "inputs": [],
      "name": "getPrice",
      "outputs": [
        {
          "internalType": "uint256",
          "name": "_price",
          "type": "uint256"
        }
      ],
      "stateMutability": "view",
      "type": "function"
    },
    {
      "inputs": [],
      "name": "getReserves",
      "outputs": [
        {
          "internalType": "uint256",
          "name": "_gameTokenReserve",
          "type": "uint256"
        },
        {
          "internalType": "uint256",
          "name": "_stableTokenReserve",
          "type": "uint256"
        }
      ],
      "stateMutability": "view",
      "type": "function"
    },
    {
      "inputs": [
        {
          "internalType": "bytes32",
          "name": "role",
          "type": "bytes32"
        }
      ],
      "name": "getRoleAdmin",
      "outputs": [
        {
          "internalType": "bytes32",
          "name": "",
          "type": "bytes32"
        }
      ],
      "stateMutability": "view",
      "type": "function"
    },
    {
      "inputs": [
        {
          "internalType": "uint256",
          "name": "bctOut",
          "type": "uint256"
        }
      ],
      "name": "getStableTokensIn",
      "outputs": [
        {
          "internalType": "uint256",
          "name": "stableTokensIn",
          "type": "uint256"
        }
      ],
      "stateMutability": "view",
      "type": "function"
    },
    {
      "inputs": [
        {
          "internalType": "bytes32",
          "name": "role",
          "type": "bytes32"
        },
        {
          "internalType": "address",
          "name": "account",
          "type": "address"
        }
      ],
      "name": "grantRole",
      "outputs": [],
      "stateMutability": "nonpayable",
      "type": "function"
    },
    {
      "inputs": [],
      "name": "hasBlocklist",
      "outputs": [
        {
          "internalType": "bool",
          "name": "",
          "type": "bool"
        }
      ],
      "stateMutability": "view",
      "type": "function"
    },
    {
      "inputs": [
        {
          "internalType": "bytes32",
          "name": "role",
          "type": "bytes32"
        },
        {
          "internalType": "address",
          "name": "account",
          "type": "address"
        }
      ],
      "name": "hasRole",
      "outputs": [
        {
          "internalType": "bool",
          "name": "",
          "type": "bool"
        }
      ],
      "stateMutability": "view",
      "type": "function"
    },
    {
      "inputs": [
        {
          "internalType": "address",
          "name": "_operator",
          "type": "address"
        },
        {
          "internalType": "address",
          "name": "_gameToken",
          "type": "address"
        },
        {
          "internalType": "address",
          "name": "_stableToken",
          "type": "address"
        },
        {
          "internalType": "address",
          "name": "_stasher",
          "type": "address"
        },
        {
          "internalType": "uint256",
          "name": "_startBlock",
          "type": "uint256"
        }
      ],
      "name": "initialize",
      "outputs": [],
      "stateMutability": "nonpayable",
      "type": "function"
    },
    {
      "inputs": [],
      "name": "isOpenForSelling",
      "outputs": [
        {
          "internalType": "bool",
          "name": "",
          "type": "bool"
        }
      ],
      "stateMutability": "pure",
      "type": "function"
    },
    {
      "inputs": [],
      "name": "lockPeriod",
      "outputs": [
        {
          "internalType": "uint256",
          "name": "",
          "type": "uint256"
        }
      ],
      "stateMutability": "view",
      "type": "function"
    },
    {
      "inputs": [],
      "name": "openForSelling",
      "outputs": [],
      "stateMutability": "nonpayable",
      "type": "function"
    },
    {
      "inputs": [],
      "name": "pause",
      "outputs": [],
      "stateMutability": "nonpayable",
      "type": "function"
    },
    {
      "inputs": [],
      "name": "paused",
      "outputs": [
        {
          "internalType": "bool",
          "name": "",
          "type": "bool"
        }
      ],
      "stateMutability": "view",
      "type": "function"
    },
    {
      "inputs": [
        {
          "internalType": "uint256",
          "name": "gameTokensToBuy",
          "type": "uint256"
        }
      ],
      "name": "quoteBuyGameTokens",
      "outputs": [
        {
          "internalType": "uint256",
          "name": "costInStableTokens",
          "type": "uint256"
        }
      ],
      "stateMutability": "view",
      "type": "function"
    },
    {
      "inputs": [
        {
          "internalType": "uint256",
          "name": "gameTokens",
          "type": "uint256"
        }
      ],
      "name": "quoteGameToStableTokens",
      "outputs": [
        {
          "internalType": "uint256",
          "name": "stableTokens",
          "type": "uint256"
        }
      ],
      "stateMutability": "view",
      "type": "function"
    },
    {
      "inputs": [
        {
          "internalType": "uint256",
          "name": "gameTokensToSell",
          "type": "uint256"
        }
      ],
      "name": "quoteSellGameTokens",
      "outputs": [
        {
          "internalType": "uint256",
          "name": "stableTokensOut",
          "type": "uint256"
        },
        {
          "internalType": "uint256",
          "name": "feePct",
          "type": "uint256"
        }
      ],
      "stateMutability": "view",
      "type": "function"
    },
    {
      "inputs": [
        {
          "internalType": "uint256",
          "name": "gameTokensToSell",
          "type": "uint256"
        },
        {
          "internalType": "address",
          "name": "account",
          "type": "address"
        }
      ],
      "name": "quoteSellGameTokensFor",
      "outputs": [
        {
          "internalType": "uint256",
          "name": "stableTokensOut",
          "type": "uint256"
        },
        {
          "internalType": "uint256",
          "name": "feePct",
          "type": "uint256"
        }
      ],
      "stateMutability": "view",
      "type": "function"
    },
    {
      "inputs": [
        {
          "internalType": "uint256",
          "name": "stableTokens",
          "type": "uint256"
        }
      ],
      "name": "quoteStableToGameTokens",
      "outputs": [
        {
          "internalType": "uint256",
          "name": "gameTokens",
          "type": "uint256"
        }
      ],
      "stateMutability": "view",
      "type": "function"
    },
    {
      "inputs": [
        {
          "internalType": "address",
          "name": "tokenAddress",
          "type": "address"
        },
        {
          "internalType": "address",
          "name": "to",
          "type": "address"
        },
        {
          "internalType": "uint256",
          "name": "amount",
          "type": "uint256"
        }
      ],
      "name": "recoverERC20",
      "outputs": [],
      "stateMutability": "nonpayable",
      "type": "function"
    },
    {
      "inputs": [
        {
          "internalType": "bytes32",
          "name": "role",
          "type": "bytes32"
        },
        {
          "internalType": "address",
          "name": "account",
          "type": "address"
        }
      ],
      "name": "renounceRole",
      "outputs": [],
      "stateMutability": "nonpayable",
      "type": "function"
    },
    {
      "inputs": [],
      "name": "resetBlocklist",
      "outputs": [],
      "stateMutability": "nonpayable",
      "type": "function"
    },
    {
      "inputs": [],
      "name": "resetReserves",
      "outputs": [],
      "stateMutability": "nonpayable",
      "type": "function"
    },
    {
      "inputs": [
        {
          "internalType": "bytes32",
          "name": "role",
          "type": "bytes32"
        },
        {
          "internalType": "address",
          "name": "account",
          "type": "address"
        }
      ],
      "name": "revokeRole",
      "outputs": [],
      "stateMutability": "nonpayable",
      "type": "function"
    },
    {
      "inputs": [
        {
          "internalType": "uint256",
          "name": "gameTokens",
          "type": "uint256"
        }
      ],
      "name": "sellGameTokens",
      "outputs": [
        {
          "internalType": "uint256",
          "name": "stableTokensOut",
          "type": "uint256"
        }
      ],
      "stateMutability": "nonpayable",
      "type": "function"
    },
    {
      "inputs": [
        {
          "internalType": "uint256",
          "name": "gameTokens",
          "type": "uint256"
        },
        {
          "internalType": "uint256",
          "name": "atPrice",
          "type": "uint256"
        },
        {
          "internalType": "uint256",
          "name": "maxSlippage",
          "type": "uint256"
        }
      ],
      "name": "sellGameTokensAtPrice",
      "outputs": [
        {
          "internalType": "uint256",
          "name": "stableTokensOut",
          "type": "uint256"
        }
      ],
      "stateMutability": "nonpayable",
      "type": "function"
    },
    {
      "inputs": [
        {
          "internalType": "address",
          "name": "_blocklist",
          "type": "address"
        }
      ],
      "name": "setBlocklist",
      "outputs": [],
      "stateMutability": "nonpayable",
      "type": "function"
    },
    {
      "inputs": [
        {
          "components": [
            {
              "internalType": "uint8",
              "name": "stasherDiscount",
              "type": "uint8"
            },
            {
              "internalType": "uint8",
              "name": "baseCommunityFee",
              "type": "uint8"
            },
            {
              "internalType": "uint8",
              "name": "closedForMonths",
              "type": "uint8"
            },
            {
              "internalType": "uint8",
              "name": "steepCurveMonths",
              "type": "uint8"
            },
            {
              "internalType": "uint8",
              "name": "maxMonths",
              "type": "uint8"
            }
          ],
          "internalType": "struct CommunityPoolV3.Config",
          "name": "_config",
          "type": "tuple"
        }
      ],
      "name": "setConfig",
      "outputs": [],
      "stateMutability": "nonpayable",
      "type": "function"
    },
    {
      "inputs": [
        {
          "internalType": "address",
          "name": "_gameToken",
          "type": "address"
        }
      ],
      "name": "setGameToken",
      "outputs": [],
      "stateMutability": "nonpayable",
      "type": "function"
    },
    {
      "inputs": [
        {
          "internalType": "uint256",
          "name": "_gasLimit",
          "type": "uint256"
        }
      ],
      "name": "setGasPriceLimit",
      "outputs": [],
      "stateMutability": "nonpayable",
      "type": "function"
    },
    {
      "inputs": [
        {
          "internalType": "uint256",
          "name": "blocks",
          "type": "uint256"
        }
      ],
      "name": "setLockPeriod",
      "outputs": [],
      "stateMutability": "nonpayable",
      "type": "function"
    },
    {
      "inputs": [
        {
          "internalType": "address",
          "name": "_stableToken",
          "type": "address"
        }
      ],
      "name": "setStableToken",
      "outputs": [],
      "stateMutability": "nonpayable",
      "type": "function"
    },
    {
      "inputs": [
        {
          "internalType": "uint256",
          "name": "_startBlock",
          "type": "uint256"
        }
      ],
      "name": "setStartBlock",
      "outputs": [],
      "stateMutability": "nonpayable",
      "type": "function"
    },
    {
      "inputs": [
        {
          "internalType": "address",
          "name": "_stasherAddress",
          "type": "address"
        }
      ],
      "name": "setStasher",
      "outputs": [],
      "stateMutability": "nonpayable",
      "type": "function"
    },
    {
      "inputs": [],
      "name": "stableToken",
      "outputs": [
        {
          "internalType": "contract MHIERC20",
          "name": "",
          "type": "address"
        }
      ],
      "stateMutability": "view",
      "type": "function"
    },
    {
      "inputs": [],
      "name": "stableTokenReserve",
      "outputs": [
        {
          "internalType": "uint256",
          "name": "",
          "type": "uint256"
        }
      ],
      "stateMutability": "view",
      "type": "function"
    },
    {
      "inputs": [],
      "name": "startBlock",
      "outputs": [
        {
          "internalType": "uint256",
          "name": "",
          "type": "uint256"
        }
      ],
      "stateMutability": "view",
      "type": "function"
    },
    {
      "inputs": [],
      "name": "stasher",
      "outputs": [
        {
          "internalType": "contract IStasher",
          "name": "",
          "type": "address"
        }
      ],
      "stateMutability": "view",
      "type": "function"
    },
    {
      "inputs": [
        {
          "internalType": "bytes4",
          "name": "interfaceId",
          "type": "bytes4"
        }
      ],
      "name": "supportsInterface",
      "outputs": [
        {
          "internalType": "bool",
          "name": "",
          "type": "bool"
        }
      ],
      "stateMutability": "view",
      "type": "function"
    },
    {
      "inputs": [],
      "name": "unpause",
      "outputs": [],
      "stateMutability": "nonpayable",
      "type": "function"
    }
  ],
  "bytecode": "0x608060405234801561001057600080fd5b50612d53806100206000396000f3fe608060405234801561001057600080fd5b506004361061030c5760003560e01c80638e28d9991161019d578063aef18ae7116100e9578063db1bc87b116100a2578063f7013ef61161007c578063f7013ef6146106c7578063fc83424a146106da578063fddd5198146106ed578063ffe7ff7b1461070057600080fd5b8063db1bc87b1461068e578063e76a9627146106a1578063f35e4a6e146106b457600080fd5b8063aef18ae714610630578063b00a292214610643578063c2c7a9f91461064c578063c3dfdae614610655578063d547741f14610668578063d64e53961461067b57600080fd5b80639cd441da11610156578063a217fddf11610130578063a217fddf146105ef578063a4c4cffa146105f7578063a70db6711461060a578063a9d75b2b1461061d57600080fd5b80639cd441da1461059e5780639e97736f146105b15780639f57891d146105c457600080fd5b80638e28d9991461054157806391d14854146105545780639327f04e14610567578063961a929c1461057a57806398d5fdca14610583578063994399961461058b57600080fd5b80633c7fd8221161025c578063634210f411610215578063779972da116101ef578063779972da146104aa57806379502c55146104bd57806380d29e66146105265780638456cb591461053957600080fd5b8063634210f414610470578063704a0ff514610484578063778226731461049757600080fd5b80633c7fd822146104305780633f4ba83a146104385780633fd8b02f146104405780634429bf9b1461044957806348cd4cb11461045c5780635c975abb1461046557600080fd5b8063248a9ca3116102c957806334e6436c116102a357806334e6436c146103ef57806336568abe1461040257806338de0d06146104155780633a1891d01461042857600080fd5b8063248a9ca3146103b15780632eca21ce146103d45780632f2ff15d146103dc57600080fd5b806301ffc9a71461031157806302716f36146103395780630902f1ac1461035a57806309231602146103765780631171bda91461038b5780632394e46d1461039e575b600080fd5b61032461031f366004612660565b610707565b60405190151581526020015b60405180910390f35b61034c61034736600461268a565b61073e565b604051908152602001610330565b60d05460d1545b60408051928352602083019190915201610330565b61038961038436600461268a565b610a01565b005b6103896103993660046126bf565b610a26565b61034c6103ac3660046126fb565b610b2d565b61034c6103bf36600461268a565b60009081526069602052604090206001015490565b610389610c7f565b6103896103ea366004612727565b610cb3565b61034c6103fd36600461268a565b610cdd565b610389610410366004612727565b610e15565b61036161042336600461268a565b610e8f565b610389610ea5565b610389610ef2565b610389610f1f565b61034c60005481565b61034c61045736600461268a565b610f3f565b61034c60d25481565b609b5460ff16610324565b60045461032490600160a01b900460ff1681565b61034c61049236600461268a565b611013565b6103896104a536600461268a565b611070565b6103896104b836600461268a565b611146565b60d3546104f29060ff808216916101008104821691620100008204811691630100000081048216916401000000009091041685565b6040805160ff968716815294861660208601529285169284019290925283166060830152909116608082015260a001610330565b610389610534366004612753565b611167565b6103896111a2565b61038961054f36600461276e565b6111c2565b610324610562366004612727565b6111ed565b610389610575366004612753565b611218565b61034c60035481565b61034c611253565b61034c61059936600461268a565b61126b565b6103896105ac366004612786565b6112c1565b61034c6105bf3660046127b7565b6114bd565b60cd546105d7906001600160a01b031681565b6040516001600160a01b039091168152602001610330565b61034c600081565b61034c61060536600461268a565b611640565b610361610618366004612727565b6116f5565b60cf546105d7906001600160a01b031681565b61038961063e366004612753565b61170d565b61034c60d15481565b61034c60d05481565b60ce546105d7906001600160a01b031681565b610389610676366004612727565b611750565b6004546105d7906001600160a01b031681565b61038961069c366004612753565b611775565b61034c6106af36600461268a565b6117b0565b6103896106c236600461268a565b6117c2565b6103896106d53660046127d4565b6117e0565b61034c6106e836600461268a565b6119ea565b61034c6106fb3660046126fb565b611aae565b6001610324565b60006001600160e01b03198216637965db0b60e01b148061073857506301ffc9a760e01b6001600160e01b03198316145b92915050565b60025460009060ff161561076d5760405162461bcd60e51b815260040161076490612830565b60405180910390fd5b6002805460ff19166001179055600080516020612cbe83398151915261079281611bec565b600083116107b25760405162461bcd60e51b81526004016107649061284f565b6107bb8361126b565b60cf546040516323b872dd60e01b81529193506001600160a01b0316906323b872dd906107f09033903090889060040161287c565b600060405180830381600087803b15801561080a57600080fd5b505af115801561081e573d6000803e3d6000fd5b505060ce54604051630852cd8d60e31b8152600481018690526001600160a01b0390911692506342966c689150602401600060405180830381600087803b15801561086857600080fd5b505af115801561087c573d6000803e3d6000fd5b505060ce546040516370a0823160e01b815230600482015261098693506001600160a01b0390911691506370a08231906024015b60206040518083038186803b1580156108c857600080fd5b505afa1580156108dc573d6000803e3d6000fd5b505050506040513d601f19601f8201168201806040525081019061090091906128a0565b60cf546040516370a0823160e01b81523060048201526001600160a01b03909116906370a082319060240160206040518083038186803b15801561094357600080fd5b505afa158015610957573d6000803e3d6000fd5b505050506040513d601f19601f8201168201806040525081019061097b91906128a0565b60d09190915560d155565b6000610990611253565b90507f0f960106459651f5920865daf08e328c57639961da0b3ea82d647c11ee0ec882338585846040516109c794939291906128b9565b60405180910390a1604051818152600080516020612cfe8339815191529060200160405180910390a150506002805460ff19169055919050565b600080516020612cde833981519152610a1981611bec565b610a2282600355565b5050565b600080516020612cde833981519152610a3e81611bec565b60405163a9059cbb60e01b81526001600160a01b0384811660048301526024820184905285169063a9059cbb90604401602060405180830381600087803b158015610a8857600080fd5b505af1158015610a9c573d6000803e3d6000fd5b505050506040513d601f19601f82011682018060405250810190610ac091906128df565b5060ce546040516370a0823160e01b8152306004820152610af3916001600160a01b0316906370a08231906024016108b0565b6000610afd611253565b9050600080516020612cfe83398151915281604051610b1e91815260200190565b60405180910390a15050505050565b60025460009060ff1615610b535760405162461bcd60e51b815260040161076490612830565b6002805460ff19166001179055610b68611bf6565b6003543a1115610b8a5760405162461bcd60e51b815260040161076490612901565b610b9333611c3e565b15610bb05760405162461bcd60e51b815260040161076490612923565b33600090815260016020526040902054431015610bdf5760405162461bcd60e51b815260040161076490612948565b610be833611cd9565b6000610bf2611253565b905060006103e8610c038587612980565b610c0d919061299f565b610c1790866129c1565b905080821015610c625760405162461bcd60e51b81526020600482015260166024820152750a0e4d2c6ca40c6d0c2dccecac840e8dede40daeac6d60531b6044820152606401610764565b610c6b86611d02565b6002805460ff191690559695505050505050565b600080516020612cde833981519152610c9781611bec565b504360d25560d3805464ff00ff00001916640c00000000179055565b600082815260696020526040902060010154610cce81611bec565b610cd88383611ec1565b505050565b60025460009060ff1615610d035760405162461bcd60e51b815260040161076490612830565b6002805460ff19166001179055600080516020612cbe833981519152610d2881611bec565b60008311610d485760405162461bcd60e51b81526004016107649061284f565b610d518361126b565b60cf546040516323b872dd60e01b81529193506001600160a01b0316906323b872dd90610d9a903390734bd1e4cddf8862cdc0d51a282110f65af2d1e4f690889060040161287c565b600060405180830381600087803b158015610db457600080fd5b505af1158015610dc8573d6000803e3d6000fd5b505050507f0968fe0a093e477146257875d2d58edef0a888f8ea128997cf1f241ee8348b8883604051610dfd91815260200190565b60405180910390a1506002805460ff19169055919050565b6001600160a01b0381163314610e855760405162461bcd60e51b815260206004820152602f60248201527f416363657373436f6e74726f6c3a2063616e206f6e6c792072656e6f756e636560448201526e103937b632b9903337b91039b2b63360891b6064820152608401610764565b610a228282611f47565b600080610e9c8333611fae565b91509150915091565b600080516020612cde833981519152610ebd81611bec565b60ce546040516370a0823160e01b8152306004820152610eef916001600160a01b0316906370a08231906024016108b0565b50565b600080516020612cde833981519152610f0a81611bec565b610eef600480546001600160a81b0319169055565b600080516020612cde833981519152610f3781611bec565b610eef6120f9565b60025460009060ff1615610f655760405162461bcd60e51b815260040161076490612830565b6002805460ff19166001179055610f7a611bf6565b6003543a1115610f9c5760405162461bcd60e51b815260040161076490612901565b610fa533611c3e565b15610fc25760405162461bcd60e51b815260040161076490612923565b33600090815260016020526040902054431015610ff15760405162461bcd60e51b815260040161076490612948565b610ffa33611cd9565b6110038261214b565b6002805460ff1916905592915050565b600080600061102560d05460d1549091565b909250905061103484836129d8565b61103e8583612980565b611048919061299f565b92508083106110695760405162461bcd60e51b8152600401610764906129f0565b5050919050565b600080516020612cbe83398151915261108881611bec565b60ce54604051630852cd8d60e31b8152600481018490526001600160a01b03909116906342966c6890602401600060405180830381600087803b1580156110ce57600080fd5b505af11580156110e2573d6000803e3d6000fd5b505060ce546040516370a0823160e01b815230600482015261111a93506001600160a01b0390911691506370a08231906024016108b0565b600080516020612cfe833981519152611131611253565b60405190815260200160405180910390a15050565b600080516020612cde83398151915261115e81611bec565b610a2282600055565b600080516020612cde83398151915261117f81611bec565b5060ce80546001600160a01b0319166001600160a01b0392909216919091179055565b600080516020612cde8339815191526111ba81611bec565b610eef612333565b600080516020612cde8339815191526111da81611bec565b8160d36111e78282612a2d565b50505050565b60009182526069602090815260408084206001600160a01b0393909316845291905290205460ff1690565b600080516020612cde83398151915261123081611bec565b5060cd80546001600160a01b0319166001600160a01b0392909216919091179055565b6000611266670de0b6b3a7640000611640565b905090565b600080600061127d60d05460d1549091565b909250905061128c84826129d8565b6112968584612980565b6112a0919061299f565b92508183106110695760405162461bcd60e51b8152600401610764906129f0565b6000806112d160d05460d1549091565b9150915060008211806112e45750600081115b1561134a576112f38284612980565b6112fd8286612980565b1461134a5760405162461bcd60e51b815260206004820152601d60248201527f556e62616c616e636564204c69717569646974792050726f76696465640000006044820152606401610764565b83156113b75760ce546040516323b872dd60e01b81526001600160a01b03909116906323b872dd906113849033903090899060040161287c565b600060405180830381600087803b15801561139e57600080fd5b505af11580156113b2573d6000803e3d6000fd5b505050505b82156114245760cf546040516323b872dd60e01b81526001600160a01b03909116906323b872dd906113f19033903090889060040161287c565b600060405180830381600087803b15801561140b57600080fd5b505af115801561141f573d6000803e3d6000fd5b505050505b60ce546040516370a0823160e01b8152306004820152611456916001600160a01b0316906370a08231906024016108b0565b6000611460611253565b90507f64b83944e79c3ce8d4c297411de637c3e102d064677aac0c163976ebdcd6f50e3386868460405161149794939291906128b9565b60405180910390a1604051818152600080516020612cfe83398151915290602001610b1e565b600060d3546000906114d29060ff1684612af0565b60ff1690506000620d2f0060d254436114eb91906129c1565b6114f5919061299f565b60d354909150640100000000900460ff1681111561151d575060d354640100000000900460ff165b60d35460009061153f9060ff6201000082048116916301000000900416612b19565b60ff168210156115645760d35461155f9062010000900460ff16836129c1565b611572565b60d3546301000000900460ff165b60d3549091506000906115979060ff6201000082048116916301000000900416612b19565b60ff168310156115a85760006115d4565b60d3546115c79060ff6201000082048116916301000000900416612b19565b6115d49060ff16846129c1565b60d3549091506000906115ea9060ff1683612980565b6115f584600a612980565b60d35461160a9190610100900460ff166129c1565b61161491906129c1565b90508085111561162b575060009695505050505050565b61163585826129c1565b979650505050505050565b6000670de0b6b3a76400008210156116915760405162461bcd60e51b8152602060048201526014602482015273135a5b9a5b5d5b48189d5e481a5cc80c481090d560621b6044820152606401610764565b6000806116a160d05460d1549091565b915091508184106116c45760405162461bcd60e51b8152600401610764906129f0565b6116ce84836129c1565b6116d88583612980565b6116e2919061299f565b6116ed9060016129d8565b949350505050565b6000806117028484611fae565b915091509250929050565b600080516020612cde83398151915261172581611bec565b610a2282600480546001600160a81b0319166001600160a01b0390921691909117600160a01b179055565b60008281526069602052604090206001015461176b81611bec565b610cd88383611f47565b600080516020612cde83398151915261178d81611bec565b5060cf80546001600160a01b0319166001600160a01b0392909216919091179055565b60008060006116a160d05460d1549091565b600080516020612cde8339815191526117da81611bec565b5060d255565b600454600160b01b900460ff161580801561180857506004546001600160a81b90910460ff16105b806118295750303b1580156118295750600454600160a81b900460ff166001145b61188c5760405162461bcd60e51b815260206004820152602e60248201527f496e697469616c697a61626c653a20636f6e747261637420697320616c72656160448201526d191e481a5b9a5d1a585b1a5e995960921b6064820152608401610764565b6004805460ff60a81b1916600160a81b17905580156118b9576004805460ff60b01b1916600160b01b1790555b6118c1612370565b6118c9612399565b6118d46000876123ca565b6118ec600080516020612cde833981519152876123ca565b611904600080516020612cbe833981519152876123ca565b60ce80546001600160a01b03199081166001600160a01b038881169190911790925560cf8054821687841617905560cd80549091169185169190911790556040805160a0810182526004815260466020820152600091810182905260036060820152600c60809091015260d3805464ffffffffff1916640c0300460417905560d283905560c8905561199a64012a05f200600355565b80156119e2576004805460ff60b01b19169055604051600181527f7f26b83ff96e1f2b6a682f133852f6798a09c465da95921460cefb38474024989060200160405180910390a15b505050505050565b60025460009060ff1615611a105760405162461bcd60e51b815260040161076490612830565b6002805460ff19166001179055611a25611bf6565b6003543a1115611a475760405162461bcd60e51b815260040161076490612901565b611a5033611c3e565b15611a6d5760405162461bcd60e51b815260040161076490612923565b33600090815260016020526040902054431015611a9c5760405162461bcd60e51b815260040161076490612948565b611aa533611cd9565b61100382611d02565b60025460009060ff1615611ad45760405162461bcd60e51b815260040161076490612830565b6002805460ff19166001179055611ae9611bf6565b6003543a1115611b0b5760405162461bcd60e51b815260040161076490612901565b611b1433611c3e565b15611b315760405162461bcd60e51b815260040161076490612923565b33600090815260016020526040902054431015611b605760405162461bcd60e51b815260040161076490612948565b611b6933611cd9565b6000611b73611253565b905060006103e8611b848587612980565b611b8e919061299f565b611b9890866129d8565b905080821115611be35760405162461bcd60e51b81526020600482015260166024820152750a0e4d2c6ca40c6d0c2dccecac840e8dede40daeac6d60531b6044820152606401610764565b610c6b8661214b565b610eef81336123d4565b609b5460ff1615611c3c5760405162461bcd60e51b815260206004820152601060248201526f14185d5cd8589b194e881c185d5cd95960821b6044820152606401610764565b565b600454600090600160a01b900460ff16611c5a57506000919050565b60048054604051638e204c4360e01b81526001600160a01b0385811693820193909352911690638e204c439060240160206040518083038186803b158015611ca157600080fd5b505afa158015611cb5573d6000803e3d6000fd5b505050506040513d601f19601f8201168201806040525081019061073891906128df565b600054611ce690436129d8565b6001600160a01b03909116600090815260016020526040902055565b6000808211611d235760405162461bcd60e51b81526004016107649061284f565b6000611d2e83610e8f565b5060ce546040516323b872dd60e01b81529193508392506001600160a01b0316906323b872dd90611d679033903090889060040161287c565b600060405180830381600087803b158015611d8157600080fd5b505af1158015611d95573d6000803e3d6000fd5b505060cf5460405163a9059cbb60e01b8152336004820152602481018690526001600160a01b03909116925063a9059cbb9150604401602060405180830381600087803b158015611de557600080fd5b505af1158015611df9573d6000803e3d6000fd5b505050506040513d601f19601f82011682018060405250810190611e1d91906128df565b5060ce546040516370a0823160e01b8152306004820152611e50916001600160a01b0316906370a08231906024016108b0565b6000611e5a611253565b90507f846c37eef631e0943682d87352ec117c20008eb7f425c9b85ac011a6d4774cc033858584604051611e9194939291906128b9565b60405180910390a1604051818152600080516020612cfe8339815191529060200160405180910390a15050919050565b611ecb82826111ed565b610a225760008281526069602090815260408083206001600160a01b03851684529091529020805460ff19166001179055611f033390565b6001600160a01b0316816001600160a01b0316837f2f8788117e7eff1d82e926ec794901d17c78024a50270940304540a733656f0d60405160405180910390a45050565b611f5182826111ed565b15610a225760008281526069602090815260408083206001600160a01b0385168085529252808320805460ff1916905551339285917ff6391f5c32d9c69d2a47ea670b442974b53935d1edc7fd64eb21e047a839171b9190a45050565b600080600080611fc160d05460d1549091565b60cd54604051635c138c9d60e01b81526001600160a01b0389811660048301529395509193506000921690635c138c9d9060240160206040518083038186803b15801561200d57600080fd5b505afa158015612021573d6000803e3d6000fd5b505050506040513d601f19601f820116820180604052508101906120459190612b3e565b9050612050816114bd565b93506101f4612067670de0b6b3a76400008961299f565b612071919061299f565b61207b90856129d8565b9350605a84111561208b57605a93505b60006064612099868a612980565b6120a3919061299f565b6120ad90896129c1565b90506120b981856129d8565b6120c38285612980565b6120cd919061299f565b95508286106120ee5760405162461bcd60e51b8152600401610764906129f0565b505050509250929050565b61210161242d565b609b805460ff191690557f5db9ee0a495bf2e6ff9c91a7834c1ba4fdd244a5e8aa4e537bd38aeae4b073aa335b6040516001600160a01b03909116815260200160405180910390a1565b6000670de0b6b3a764000082101561219c5760405162461bcd60e51b8152602060048201526014602482015273135a5b9a5b5d5b48189d5e481a5cc80c481090d560621b6044820152606401610764565b6121a582611640565b60cf546040516323b872dd60e01b81529192506001600160a01b0316906323b872dd906121da9033903090869060040161287c565b600060405180830381600087803b1580156121f457600080fd5b505af1158015612208573d6000803e3d6000fd5b505060ce5460405163a9059cbb60e01b8152336004820152602481018690526001600160a01b03909116925063a9059cbb9150604401602060405180830381600087803b15801561225857600080fd5b505af115801561226c573d6000803e3d6000fd5b505050506040513d601f19601f8201168201806040525081019061229091906128df565b5060ce546040516370a0823160e01b81523060048201526122c3916001600160a01b0316906370a08231906024016108b0565b60006122cd611253565b90507fbeae048c6d270d9469f86cf6e8fedda3c60ad770f16c24c9fc131c8e9a09101d3383858460405161230494939291906128b9565b60405180910390a1604051818152600080516020612cfe8339815191529060200160405180910390a150919050565b61233b611bf6565b609b805460ff191660011790557f62e78cea01bee320cd4e420270b5ea74000d11b0c9f74754ebdbfc544b05a25861212e3390565b600454600160b01b900460ff16611c3c5760405162461bcd60e51b815260040161076490612b5b565b600454600160b01b900460ff166123c25760405162461bcd60e51b815260040161076490612b5b565b611c3c612476565b610a228282611ec1565b6123de82826111ed565b610a22576123eb816124ab565b6123f68360206124bd565b604051602001612407929190612bd2565b60408051601f198184030181529082905262461bcd60e51b825261076491600401612c47565b609b5460ff16611c3c5760405162461bcd60e51b815260206004820152601460248201527314185d5cd8589b194e881b9bdd081c185d5cd95960621b6044820152606401610764565b600454600160b01b900460ff1661249f5760405162461bcd60e51b815260040161076490612b5b565b609b805460ff19169055565b60606107386001600160a01b03831660145b606060006124cc836002612980565b6124d79060026129d8565b67ffffffffffffffff8111156124ef576124ef612c7a565b6040519080825280601f01601f191660200182016040528015612519576020820181803683370190505b509050600360fc1b8160008151811061253457612534612c90565b60200101906001600160f81b031916908160001a905350600f60fb1b8160018151811061256357612563612c90565b60200101906001600160f81b031916908160001a9053506000612587846002612980565b6125929060016129d8565b90505b600181111561260a576f181899199a1a9b1b9c1cb0b131b232b360811b85600f16601081106125c6576125c6612c90565b1a60f81b8282815181106125dc576125dc612c90565b60200101906001600160f81b031916908160001a90535060049490941c9361260381612ca6565b9050612595565b5083156126595760405162461bcd60e51b815260206004820181905260248201527f537472696e67733a20686578206c656e67746820696e73756666696369656e746044820152606401610764565b9392505050565b60006020828403121561267257600080fd5b81356001600160e01b03198116811461265957600080fd5b60006020828403121561269c57600080fd5b5035919050565b80356001600160a01b03811681146126ba57600080fd5b919050565b6000806000606084860312156126d457600080fd5b6126dd846126a3565b92506126eb602085016126a3565b9150604084013590509250925092565b60008060006060848603121561271057600080fd5b505081359360208301359350604090920135919050565b6000806040838503121561273a57600080fd5b8235915061274a602084016126a3565b90509250929050565b60006020828403121561276557600080fd5b612659826126a3565b600060a0828403121561278057600080fd5b50919050565b6000806040838503121561279957600080fd5b50508035926020909101359150565b60ff81168114610eef57600080fd5b6000602082840312156127c957600080fd5b8135612659816127a8565b600080600080600060a086880312156127ec57600080fd5b6127f5866126a3565b9450612803602087016126a3565b9350612811604087016126a3565b925061281f606087016126a3565b949793965091946080013592915050565b6020808252600590820152640daeae8caf60db1b604082015260600190565b602080825260139082015272125b9cdd59999a58da595b9d08105b5bdd5b9d606a1b604082015260600190565b6001600160a01b039384168152919092166020820152604081019190915260600190565b6000602082840312156128b257600080fd5b5051919050565b6001600160a01b0394909416845260208401929092526040830152606082015260800190565b6000602082840312156128f157600080fd5b8151801515811461265957600080fd5b6020808252600890820152670cec2e664d0d2ced60c31b604082015260600190565b6020808252600b908201526a109b1bd8dadb1a5cdd195960aa1b604082015260600190565b60208082526008908201526731b7b7b63237bbb760c11b604082015260600190565b634e487b7160e01b600052601160045260246000fd5b600081600019048311821515161561299a5761299a61296a565b500290565b6000826129bc57634e487b7160e01b600052601260045260246000fd5b500490565b6000828210156129d3576129d361296a565b500390565b600082198211156129eb576129eb61296a565b500190565b602080825260169082015275496e73756666696369656e74204c697175696469747960501b604082015260600190565b60008135610738816127a8565b8135612a38816127a8565b60ff8116905081548160ff1982161783556020840135612a57816127a8565b61ff008160081b169050808361ffff198416171784556040850135612a7b816127a8565b62ff00008160101b1690508362ffffff1984161793508084831717855560608601359250612aa8836127a8565b63ff0000008360181b1663ff0000001985168317821717855550505050610a22612ad460808401612a20565b825464ff00000000191660209190911b64ff0000000016178255565b600060ff821660ff84168160ff0481118215151615612b1157612b1161296a565b029392505050565b600060ff821660ff84168060ff03821115612b3657612b3661296a565b019392505050565b600060208284031215612b5057600080fd5b8151612659816127a8565b6020808252602b908201527f496e697469616c697a61626c653a20636f6e7472616374206973206e6f74206960408201526a6e697469616c697a696e6760a81b606082015260800190565b60005b83811015612bc1578181015183820152602001612ba9565b838111156111e75750506000910152565b7f416363657373436f6e74726f6c3a206163636f756e7420000000000000000000815260008351612c0a816017850160208801612ba6565b7001034b99036b4b9b9b4b733903937b6329607d1b6017918401918201528351612c3b816028840160208801612ba6565b01602801949350505050565b6020815260008251806020840152612c66816040850160208701612ba6565b601f01601f19169190910160400192915050565b634e487b7160e01b600052604160045260246000fd5b634e487b7160e01b600052603260045260246000fd5b600081612cb557612cb561296a565b50600019019056fe73e573f9566d61418a34d5de3ff49360f9c51fec37f7486551670290f6285dab97667070c54ef182b0f5858b034beac1b6f3089aa2d3188bb1e8929f4fa9b929270b316b51ab2cf3a3bb8ca4d22e76a327d05e762fcaa8bd6afaf8cfde9270b7a26469706673582212206748ca3dff3461c36377708423db683d5c27ae273699c7e8fcdb9f97efd3b83864736f6c63430008090033",
  "linkReferences": {},
  "deployedLinkReferences": {}
}