{
  "_format": "hh-sol-artifact-1",
  "contractName": "BnbBridge",
  "sourceName": "contracts/features/KingdomBridge/BnbBridge/BnbBridge.sol",
  "abi": [
    {
      "inputs": [],
      "name": "ECDSAInvalidSignature",
      "type": "error"
    },
    {
      "inputs": [
        {
          "internalType": "uint256",
          "name": "length",
          "type": "uint256"
        }
      ],
      "name": "ECDSAInvalidSignatureLength",
      "type": "error"
    },
    {
      "inputs": [
        {
          "internalType": "bytes32",
          "name": "s",
          "type": "bytes32"
        }
      ],
      "name": "ECDSAInvalidSignatureS",
      "type": "error"
    },
    {
      "anonymous": false,
      "inputs": [
        {
          "indexed": false,
          "internalType": "address",
          "name": "playerAddress",
          "type": "address"
        },
        {
          "indexed": false,
          "internalType": "uint256",
          "name": "stabletokens",
          "type": "uint256"
        },
        {
          "indexed": false,
          "internalType": "bytes32",
          "name": "depositHash",
          "type": "bytes32"
        }
      ],
      "name": "AddClaim",
      "type": "event"
    },
    {
      "anonymous": false,
      "inputs": [
        {
          "indexed": false,
          "internalType": "address",
          "name": "playerAddress",
          "type": "address"
        },
        {
          "indexed": false,
          "internalType": "uint256",
          "name": "stabletokens",
          "type": "uint256"
        }
      ],
      "name": "Claim",
      "type": "event"
    },
    {
      "anonymous": false,
      "inputs": [
        {
          "indexed": false,
          "internalType": "address",
          "name": "from",
          "type": "address"
        },
        {
          "indexed": false,
          "internalType": "uint256",
          "name": "amount",
          "type": "uint256"
        },
        {
          "indexed": false,
          "internalType": "bool",
          "name": "convertToKozi",
          "type": "bool"
        }
      ],
      "name": "DepositStabletokens",
      "type": "event"
    },
    {
      "anonymous": false,
      "inputs": [
        {
          "indexed": false,
          "internalType": "uint8",
          "name": "version",
          "type": "uint8"
        }
      ],
      "name": "Initialized",
      "type": "event"
    },
    {
      "anonymous": false,
      "inputs": [
        {
          "indexed": false,
          "internalType": "address",
          "name": "account",
          "type": "address"
        }
      ],
      "name": "Paused",
      "type": "event"
    },
    {
      "anonymous": false,
      "inputs": [
        {
          "indexed": true,
          "internalType": "bytes32",
          "name": "role",
          "type": "bytes32"
        },
        {
          "indexed": true,
          "internalType": "bytes32",
          "name": "previousAdminRole",
          "type": "bytes32"
        },
        {
          "indexed": true,
          "internalType": "bytes32",
          "name": "newAdminRole",
          "type": "bytes32"
        }
      ],
      "name": "RoleAdminChanged",
      "type": "event"
    },
    {
      "anonymous": false,
      "inputs": [
        {
          "indexed": true,
          "internalType": "bytes32",
          "name": "role",
          "type": "bytes32"
        },
        {
          "indexed": true,
          "internalType": "address",
          "name": "account",
          "type": "address"
        },
        {
          "indexed": true,
          "internalType": "address",
          "name": "sender",
          "type": "address"
        }
      ],
      "name": "RoleGranted",
      "type": "event"
    },
    {
      "anonymous": false,
      "inputs": [
        {
          "indexed": true,
          "internalType": "bytes32",
          "name": "role",
          "type": "bytes32"
        },
        {
          "indexed": true,
          "internalType": "address",
          "name": "account",
          "type": "address"
        },
        {
          "indexed": true,
          "internalType": "address",
          "name": "sender",
          "type": "address"
        }
      ],
      "name": "RoleRevoked",
      "type": "event"
    },
    {
      "anonymous": false,
      "inputs": [
        {
          "indexed": false,
          "internalType": "address",
          "name": "account",
          "type": "address"
        }
      ],
      "name": "Unpaused",
      "type": "event"
    },
    {
      "inputs": [],
      "name": "DEFAULT_ADMIN_ROLE",
      "outputs": [
        {
          "internalType": "bytes32",
          "name": "",
          "type": "bytes32"
        }
      ],
      "stateMutability": "view",
      "type": "function"
    },
    {
      "inputs": [
        {
          "internalType": "address",
          "name": "_operator",
          "type": "address"
        },
        {
          "internalType": "address",
          "name": "_blocklistAddress",
          "type": "address"
        }
      ],
      "name": "__Administrable_init",
      "outputs": [],
      "stateMutability": "nonpayable",
      "type": "function"
    },
    {
      "inputs": [
        {
          "internalType": "bytes32",
          "name": "hashDigest",
          "type": "bytes32"
        },
        {
          "components": [
            {
              "internalType": "address",
              "name": "guardianAddress",
              "type": "address"
            },
            {
              "internalType": "address",
              "name": "playerAddress",
              "type": "address"
            },
            {
              "internalType": "uint256",
              "name": "nonce",
              "type": "uint256"
            },
            {
              "internalType": "uint256",
              "name": "stabletokensOut",
              "type": "uint256"
            },
            {
              "internalType": "bytes32",
              "name": "depositHash",
              "type": "bytes32"
            }
          ],
          "internalType": "struct BnbBridgeSignature.ClaimData",
          "name": "claimData",
          "type": "tuple"
        },
        {
          "components": [
            {
              "internalType": "address",
              "name": "signer",
              "type": "address"
            },
            {
              "internalType": "uint8",
              "name": "_v",
              "type": "uint8"
            },
            {
              "internalType": "bytes32",
              "name": "_r",
              "type": "bytes32"
            },
            {
              "internalType": "bytes32",
              "name": "_s",
              "type": "bytes32"
            }
          ],
          "internalType": "struct BnbBridgeSigGuardian.SignatureData",
          "name": "signatureData",
          "type": "tuple"
        }
      ],
      "name": "addClaim",
      "outputs": [],
      "stateMutability": "nonpayable",
      "type": "function"
    },
    {
      "inputs": [
        {
          "internalType": "address",
          "name": "",
          "type": "address"
        }
      ],
      "name": "balances",
      "outputs": [
        {
          "internalType": "uint256",
          "name": "",
          "type": "uint256"
        }
      ],
      "stateMutability": "view",
      "type": "function"
    },
    {
      "inputs": [],
      "name": "claim",
      "outputs": [],
      "stateMutability": "nonpayable",
      "type": "function"
    },
    {
      "inputs": [
        {
          "internalType": "uint256",
          "name": "amount",
          "type": "uint256"
        },
        {
          "internalType": "bool",
          "name": "convertToKozi",
          "type": "bool"
        }
      ],
      "name": "depositStabletokens",
      "outputs": [],
      "stateMutability": "payable",
      "type": "function"
    },
    {
      "inputs": [
        {
          "internalType": "address",
          "name": "",
          "type": "address"
        }
      ],
      "name": "deposited",
      "outputs": [
        {
          "internalType": "uint256",
          "name": "",
          "type": "uint256"
        }
      ],
      "stateMutability": "view",
      "type": "function"
    },
    {
      "inputs": [
        {
          "internalType": "bytes32",
          "name": "role",
          "type": "bytes32"
        }
      ],
      "name": "getRoleAdmin",
      "outputs": [
        {
          "internalType": "bytes32",
          "name": "",
          "type": "bytes32"
        }
      ],
      "stateMutability": "view",
      "type": "function"
    },
    {
      "inputs": [
        {
          "internalType": "bytes32",
          "name": "role",
          "type": "bytes32"
        },
        {
          "internalType": "address",
          "name": "account",
          "type": "address"
        }
      ],
      "name": "grantRole",
      "outputs": [],
      "stateMutability": "nonpayable",
      "type": "function"
    },
    {
      "inputs": [],
      "name": "hasBlocklist",
      "outputs": [
        {
          "internalType": "bool",
          "name": "",
          "type": "bool"
        }
      ],
      "stateMutability": "view",
      "type": "function"
    },
    {
      "inputs": [
        {
          "internalType": "bytes32",
          "name": "role",
          "type": "bytes32"
        },
        {
          "internalType": "address",
          "name": "account",
          "type": "address"
        }
      ],
      "name": "hasRole",
      "outputs": [
        {
          "internalType": "bool",
          "name": "",
          "type": "bool"
        }
      ],
      "stateMutability": "view",
      "type": "function"
    },
    {
      "inputs": [
        {
          "internalType": "address",
          "name": "_operator",
          "type": "address"
        },
        {
          "internalType": "address",
          "name": "_blocklist",
          "type": "address"
        },
        {
          "internalType": "address",
          "name": "_stabletoken",
          "type": "address"
        },
        {
          "internalType": "address",
          "name": "_initialValidator",
          "type": "address"
        }
      ],
      "name": "initialize",
      "outputs": [],
      "stateMutability": "nonpayable",
      "type": "function"
    },
    {
      "inputs": [
        {
          "internalType": "address",
          "name": "",
          "type": "address"
        }
      ],
      "name": "lastClaimReceivedBlock",
      "outputs": [
        {
          "internalType": "uint256",
          "name": "",
          "type": "uint256"
        }
      ],
      "stateMutability": "view",
      "type": "function"
    },
    {
      "inputs": [
        {
          "internalType": "address",
          "name": "",
          "type": "address"
        }
      ],
      "name": "lastNonceUpBlock",
      "outputs": [
        {
          "internalType": "uint256",
          "name": "",
          "type": "uint256"
        }
      ],
      "stateMutability": "view",
      "type": "function"
    },
    {
      "inputs": [
        {
          "internalType": "address",
          "name": "",
          "type": "address"
        }
      ],
      "name": "nonces",
      "outputs": [
        {
          "internalType": "uint256",
          "name": "",
          "type": "uint256"
        }
      ],
      "stateMutability": "view",
      "type": "function"
    },
    {
      "inputs": [],
      "name": "pause",
      "outputs": [],
      "stateMutability": "nonpayable",
      "type": "function"
    },
    {
      "inputs": [],
      "name": "paused",
      "outputs": [
        {
          "internalType": "bool",
          "name": "",
          "type": "bool"
        }
      ],
      "stateMutability": "view",
      "type": "function"
    },
    {
      "inputs": [
        {
          "internalType": "address",
          "name": "tokenAddress",
          "type": "address"
        },
        {
          "internalType": "address",
          "name": "to",
          "type": "address"
        },
        {
          "internalType": "uint256",
          "name": "amount",
          "type": "uint256"
        }
      ],
      "name": "recoverERC20",
      "outputs": [],
      "stateMutability": "nonpayable",
      "type": "function"
    },
    {
      "inputs": [
        {
          "internalType": "bytes32",
          "name": "role",
          "type": "bytes32"
        },
        {
          "internalType": "address",
          "name": "account",
          "type": "address"
        }
      ],
      "name": "renounceRole",
      "outputs": [],
      "stateMutability": "nonpayable",
      "type": "function"
    },
    {
      "inputs": [],
      "name": "resetBlocklist",
      "outputs": [],
      "stateMutability": "nonpayable",
      "type": "function"
    },
    {
      "inputs": [
        {
          "internalType": "bytes32",
          "name": "role",
          "type": "bytes32"
        },
        {
          "internalType": "address",
          "name": "account",
          "type": "address"
        }
      ],
      "name": "revokeRole",
      "outputs": [],
      "stateMutability": "nonpayable",
      "type": "function"
    },
    {
      "inputs": [
        {
          "internalType": "address",
          "name": "blocklistAddress",
          "type": "address"
        }
      ],
      "name": "setBlocklist",
      "outputs": [],
      "stateMutability": "nonpayable",
      "type": "function"
    },
    {
      "inputs": [],
      "name": "stabletoken",
      "outputs": [
        {
          "internalType": "contract IBkERC20",
          "name": "",
          "type": "address"
        }
      ],
      "stateMutability": "view",
      "type": "function"
    },
    {
      "inputs": [
        {
          "internalType": "bytes4",
          "name": "interfaceId",
          "type": "bytes4"
        }
      ],
      "name": "supportsInterface",
      "outputs": [
        {
          "internalType": "bool",
          "name": "",
          "type": "bool"
        }
      ],
      "stateMutability": "view",
      "type": "function"
    },
    {
      "inputs": [],
      "name": "unpause",
      "outputs": [],
      "stateMutability": "nonpayable",
      "type": "function"
    },
    {
      "inputs": [
        {
          "internalType": "address",
          "name": "",
          "type": "address"
        }
      ],
      "name": "withdrawn",
      "outputs": [
        {
          "internalType": "uint256",
          "name": "",
          "type": "uint256"
        }
      ],
      "stateMutability": "view",
      "type": "function"
    }
  ],
  "bytecode": "0x608060405234801561001057600080fd5b50611f9a806100206000396000f3fe6080604052600436106101815760003560e01c80636ef61092116100d1578063a217fddf1161008a578063d547741f11610064578063d547741f14610471578063e451753714610491578063f4c81631146104c9578063f8c8765e146104f657600080fd5b8063a217fddf1461040f578063aef18ae714610424578063cb13cddb1461044457600080fd5b80636ef61092146103335780637ecebe00146103605780638456cb591461038d57806388d8d28c146103a257806391d14854146103cf578063931da89b146103ef57600080fd5b806336568abe1161013e5780634e71d92d116101185780634e71d92d146102c55780635c975abb146102da578063634210f4146102f25780636b43cb821461031357600080fd5b806336568abe1461027b5780633c7fd8221461029b5780633f4ba83a146102b057600080fd5b806301ffc9a7146101865780631171bda9146101bb5780631b74999e146101dd578063248a9ca3146101f057806327e235e31461022e5780632f2ff15d1461025b575b600080fd5b34801561019257600080fd5b506101a66101a1366004611adf565b610516565b60405190151581526020015b60405180910390f35b3480156101c757600080fd5b506101db6101d6366004611b25565b61054d565b005b6101db6101eb366004611b6f565b6105ee565b3480156101fc57600080fd5b5061022061020b366004611b9f565b6000908152606a602052604090206001015490565b6040519081526020016101b2565b34801561023a57600080fd5b50610220610249366004611bb8565b60d26020526000908152604090205481565b34801561026757600080fd5b506101db610276366004611bd3565b6107be565b34801561028757600080fd5b506101db610296366004611bd3565b6107e8565b3480156102a757600080fd5b506101db61080b565b3480156102bc57600080fd5b506101db610836565b3480156102d157600080fd5b506101db610859565b3480156102e657600080fd5b50609c5460ff166101a6565b3480156102fe57600080fd5b5060ce546101a690600160a01b900460ff1681565b34801561031f57600080fd5b506101db61032e366004611c2d565b610a93565b34801561033f57600080fd5b5061022061034e366004611bb8565b60d16020526000908152604090205481565b34801561036c57600080fd5b5061022061037b366004611bb8565b60036020526000908152604090205481565b34801561039957600080fd5b506101db610c9d565b3480156103ae57600080fd5b506102206103bd366004611bb8565b60046020526000908152604090205481565b3480156103db57600080fd5b506101a66103ea366004611bd3565b610cbd565b3480156103fb57600080fd5b506101db61040a366004611ce6565b610ce8565b34801561041b57600080fd5b50610220600081565b34801561043057600080fd5b506101db61043f366004611bb8565b610e0e565b34801561045057600080fd5b5061022061045f366004611bb8565b60d06020526000908152604090205481565b34801561047d57600080fd5b506101db61048c366004611bd3565b610e4e565b34801561049d57600080fd5b5060cf546104b1906001600160a01b031681565b6040516001600160a01b0390911681526020016101b2565b3480156104d557600080fd5b506102206104e4366004611bb8565b60d36020526000908152604090205481565b34801561050257600080fd5b506101db610511366004611d10565b610e73565b60006001600160e01b03198216637965db0b60e01b148061054757506301ffc9a760e01b6001600160e01b03198316145b92915050565b600080516020611f4583398151915261056581610f63565b60405163a9059cbb60e01b81526001600160a01b0384811660048301526024820184905285169063a9059cbb90604401602060405180830381600087803b1580156105af57600080fd5b505af11580156105c3573d6000803e3d6000fd5b505050506040513d601f19601f820116820180604052508101906105e79190611d64565b5050505050565b60ce54600160a81b900460ff16156106215760405162461bcd60e51b815260040161061890611d81565b60405180910390fd5b60ce805460ff60a81b1916600160a81b17905561063c610f6d565b3361064681610fb5565b156106815760405162461bcd60e51b815260206004820152600b60248201526a109b1bd8dadb1a5cdd195960aa1b6044820152606401610618565b600083116106bc5760405162461bcd60e51b81526020600482015260086024820152670616d6f756e743d360c41b6044820152606401610618565b60cf546040516323b872dd60e01b8152336004820152306024820152604481018590526001600160a01b03909116906323b872dd90606401602060405180830381600087803b15801561070e57600080fd5b505af1158015610722573d6000803e3d6000fd5b505050506040513d601f19601f820116820180604052508101906107469190611d64565b5033600090815260d0602052604081208054859290610766908490611db6565b909155505060408051338152602081018590528315158183015290517fd78f8e425cefd83a4d7d9305b8da0f60c79002762951339af5c8a9985d98c0579181900360600190a1505060ce805460ff60a81b1916905550565b6000828152606a60205260409020600101546107d981610f63565b6107e3838361104e565b505050565b6001600160a01b03811633146107fd57600080fd5b61080782826110d4565b5050565b600080516020611f4583398151915261082381610f63565b5060ce80546001600160a81b0319169055565b600080516020611f4583398151915261084e81610f63565b61085661113b565b50565b60ce54600160a81b900460ff16156108835760405162461bcd60e51b815260040161061890611d81565b60ce805460ff60a81b1916600160a81b17905561089e610f6d565b336108a881610fb5565b156108e35760405162461bcd60e51b815260206004820152600b60248201526a109b1bd8dadb1a5cdd195960aa1b6044820152606401610618565b33600090815260d2602052604090205461092c5760405162461bcd60e51b815260206004820152600a6024820152696e6f2062616c616e636560b01b6044820152606401610618565b33600090815260d3602052604090205461094890616540611db6565b43116109815760405162461bcd60e51b81526020600482015260086024820152673a37b79039b7b7b760c11b6044820152606401610618565b33600090815260d2602090815260408083205460d190925282208054919283926109ac908490611db6565b909155505033600081815260d260205260408082209190915560cf54905163a9059cbb60e01b81526004810192909252602482018390526001600160a01b03169063a9059cbb90604401602060405180830381600087803b158015610a1057600080fd5b505af1158015610a24573d6000803e3d6000fd5b505050506040513d601f19601f82011682018060405250810190610a489190611d64565b5060408051338152602081018390527f47cee97cb7acd717b3c0aa1435d004cd5b3c8c57d70dbceb4e4458bbd60e39d4910160405180910390a1505060ce805460ff60a81b19169055565b60ce54600160a81b900460ff1615610abd5760405162461bcd60e51b815260040161061890611d81565b60ce805460ff60a81b1916600160a81b179055610ad8610f6d565b7f73e573f9566d61418a34d5de3ff49360f9c51fec37f7486551670290f6285dab610b0281610f63565b610b0d84848461118d565b602080840180516001600160a01b03908116600090815260d38452604080822043905560608801519351909216815260d29093528220805491929091610b54908490611db6565b909155505060cf546040516370a0823160e01b81523060048201526001600160a01b03909116906370a082319060240160206040518083038186803b158015610b9c57600080fd5b505afa158015610bb0573d6000803e3d6000fd5b505050506040513d601f19601f82011682018060405250810190610bd49190611dce565b83606001511115610c275760405162461bcd60e51b815260206004820152601760248201527f6e6f7420656e6f75676820737461626c65746f6b656e730000000000000000006044820152606401610618565b7f8517c556e7e44accb40a43fc88c4669ef3f5a2c036c962d565adde79a2364875836020015184606001518560800151604051610c82939291906001600160a01b039390931683526020830191909152604082015260600190565b60405180910390a1505060ce805460ff60a81b191690555050565b600080516020611f45833981519152610cb581610f63565b610856611411565b6000918252606a602090815260408084206001600160a01b0393909316845291905290205460ff1690565b60055462010000900460ff1615808015610d0d5750600554600161010090910460ff16105b80610d2d5750303b158015610d2d575060055460ff610100909104166001145b610d3657600080fd5b6005805461ff0019166101001790558015610d5d576005805462ff00001916620100001790555b610d6561144e565b610d6d611463565b610d78600084611480565b610d90600080516020611f4583398151915284611480565b610dba7f73e573f9566d61418a34d5de3ff49360f9c51fec37f7486551670290f6285dab84611480565b610dc382610e0e565b80156107e3576005805462ff000019169055604051600181527f7f26b83ff96e1f2b6a682f133852f6798a09c465da95921460cefb38474024989060200160405180910390a1505050565b600080516020611f45833981519152610e2681610f63565b5060ce80546001600160a81b0319166001600160a01b0390921691909117600160a01b179055565b6000828152606a6020526040902060010154610e6981610f63565b6107e383836110d4565b60055462010000900460ff1615808015610e985750600554600161010090910460ff16105b80610eb85750303b158015610eb8575060055460ff610100909104166001145b610ec157600080fd5b6005805461ff0019166101001790558015610ee8576005805462ff00001916620100001790555b610ef28585610ce8565b610efb8261148a565b60cf80546001600160a01b0319166001600160a01b03851617905580156105e7576005805462ff000019169055604051600181527f7f26b83ff96e1f2b6a682f133852f6798a09c465da95921460cefb38474024989060200160405180910390a15050505050565b6108568133611506565b609c5460ff1615610fb35760405162461bcd60e51b815260206004820152601060248201526f14185d5cd8589b194e881c185d5cd95960821b6044820152606401610618565b565b60ce54600090600160a01b900460ff16610fd157506000919050565b60ce54604051638e204c4360e01b81526001600160a01b03848116600483015290911690638e204c439060240160206040518083038186803b15801561101657600080fd5b505afa15801561102a573d6000803e3d6000fd5b505050506040513d601f19601f820116820180604052508101906105479190611d64565b6110588282610cbd565b610807576000828152606a602090815260408083206001600160a01b03851684529091529020805460ff191660011790556110903390565b6001600160a01b0316816001600160a01b0316837f2f8788117e7eff1d82e926ec794901d17c78024a50270940304540a733656f0d60405160405180910390a45050565b6110de8282610cbd565b15610807576000828152606a602090815260408083206001600160a01b0385168085529252808320805460ff1916905551339285917ff6391f5c32d9c69d2a47ea670b442974b53935d1edc7fd64eb21e047a839171b9190a45050565b61114361155f565b609c805460ff191690557f5db9ee0a495bf2e6ff9c91a7834c1ba4fdd244a5e8aa4e537bd38aeae4b073aa335b6040516001600160a01b03909116815260200160405180910390a1565b81516001600160a01b031630146111d55760405162461bcd60e51b815260206004820152600c60248201526b24a72b2fa3aaa0a92224a0a760a11b6044820152606401610618565b81516020808401516040808601516060808801516080808a015185516001600160a01b03998a16818a015298909616888601529187018390529086015260a08501929092526301308a8060c085015260e080850192909252805180850390920182526101009093019092528151910120831461127e5760405162461bcd60e51b8152602060048201526008602482015267494e565f4441544160c01b6044820152606401610618565b61128883826115a8565b6112c15760405162461bcd60e51b815260206004820152600a60248201526924a72b2fa9a4a3a722a960b11b6044820152606401610618565b6112d3826020015183604001516116e0565b61130b5760405162461bcd60e51b8152602060048201526009602482015268494e565f4e4f4e434560b81b6044820152606401610618565b60008381526001602052604090205460ff16156113565760405162461bcd60e51b8152602060048201526009602482015268494e565f434c41494d60b81b6044820152606401610618565b608082015160009081526002602052604090205460ff16156113a85760405162461bcd60e51b815260206004820152600b60248201526a12539597d1115413d4d25560aa1b6044820152606401610618565b506000918252600160208181526040808520805460ff1990811685179091556080850151865260028352818620805490911690931790925582810180516001600160a01b0390811686526004835283862043905593830151905190931684526003905290912055565b611419610f6d565b609c805460ff191660011790557f62e78cea01bee320cd4e420270b5ea74000d11b0c9f74754ebdbfc544b05a2586111703390565b60055462010000900460ff16610fb357600080fd5b60055462010000900460ff1661147857600080fd5b610fb3611792565b610807828261104e565b60055460ff16156114d35760405162461bcd60e51b81526020600482015260136024820152721053149150511657d253925512505312569151606a1b6044820152606401610618565b6001600160a01b0381166000908152602081905260409020805460ff19166001179055506005805460ff19166001179055565b6115108282610cbd565b6108075761151d816117b3565b6115288360206117c5565b604051602001611539929190611e17565b60408051601f198184030181529082905262461bcd60e51b825261061891600401611e8c565b609c5460ff16610fb35760405162461bcd60e51b815260206004820152601460248201527314185d5cd8589b194e881b9bdd081c185d5cd95960621b6044820152606401610618565b6040517f19457468657265756d205369676e6564204d6573736167653a0a3332000000006020820152603c81018390526000908190605c016040516020818303038152906040528051906020012090506000611620828560200160208101906116119190611ebf565b86604001358760600135611925565b6001600160a01b03811660009081526020819052604090205490915060ff1661167b5760405162461bcd60e51b815260206004820152600d60248201526c24a72b2fab20a624a220aa27a960991b6044820152606401610618565b6001600160a01b0381166116926020860186611bb8565b6001600160a01b0316146116d55760405162461bcd60e51b815260206004820152600a60248201526924a72b2fa9a4a3a722a960b11b6044820152606401610618565b506001949350505050565b6001600160a01b038216600090815260046020526040812054158061172957506001600160a01b0383166000908152600460205260409020546117269062010e00611db6565b43115b6117655760405162461bcd60e51b815260206004820152600d60248201526c12539597d393d390d157d55411609a1b6044820152606401610618565b6001600160a01b038316600090815260036020526040902054611789906001611db6565b90911492915050565b60055462010000900460ff166117a757600080fd5b609c805460ff19169055565b60606105476001600160a01b03831660145b606060006117d4836002611ee2565b6117df906002611db6565b67ffffffffffffffff8111156117f7576117f7611bff565b6040519080825280601f01601f191660200182016040528015611821576020820181803683370190505b509050600360fc1b8160008151811061183c5761183c611f01565b60200101906001600160f81b031916908160001a905350600f60fb1b8160018151811061186b5761186b611f01565b60200101906001600160f81b031916908160001a905350600061188f846002611ee2565b61189a906001611db6565b90505b6001811115611912576f181899199a1a9b1b9c1cb0b131b232b360811b85600f16601081106118ce576118ce611f01565b1a60f81b8282815181106118e4576118e4611f01565b60200101906001600160f81b031916908160001a90535060049490941c9361190b81611f17565b905061189d565b50831561191e57600080fd5b9392505050565b60008060008061193788888888611953565b9250925092506119478282611a22565b50909695505050505050565b600080807f7fffffffffffffffffffffffffffffff5d576e7357a4501ddfe92f46681b20a084111561198e5750600091506003905082611a18565b604080516000808252602082018084528a905260ff891692820192909252606081018790526080810186905260019060a0016020604051602081039080840390855afa1580156119e2573d6000803e3d6000fd5b5050604051601f1901519150506001600160a01b038116611a0e57506000925060019150829050611a18565b9250600091508190505b9450945094915050565b6000826003811115611a3657611a36611f2e565b1415611a40575050565b6001826003811115611a5457611a54611f2e565b1415611a735760405163f645eedf60e01b815260040160405180910390fd5b6002826003811115611a8757611a87611f2e565b1415611aa95760405163fce698f760e01b815260048101829052602401610618565b6003826003811115611abd57611abd611f2e565b1415610807576040516335e2f38360e21b815260048101829052602401610618565b600060208284031215611af157600080fd5b81356001600160e01b03198116811461191e57600080fd5b80356001600160a01b0381168114611b2057600080fd5b919050565b600080600060608486031215611b3a57600080fd5b611b4384611b09565b9250611b5160208501611b09565b9150604084013590509250925092565b801515811461085657600080fd5b60008060408385031215611b8257600080fd5b823591506020830135611b9481611b61565b809150509250929050565b600060208284031215611bb157600080fd5b5035919050565b600060208284031215611bca57600080fd5b61191e82611b09565b60008060408385031215611be657600080fd5b82359150611bf660208401611b09565b90509250929050565b634e487b7160e01b600052604160045260246000fd5b600060808284031215611c2757600080fd5b50919050565b6000806000838503610140811215611c4457600080fd5b8435935060a0601f1982011215611c5a57600080fd5b5060405160a0810181811067ffffffffffffffff82111715611c8c57634e487b7160e01b600052604160045260246000fd5b604052611c9b60208601611b09565b8152611ca960408601611b09565b6020820152606085013560408201526080850135606082015260a0850135608082015280925050611cdd8560c08601611c15565b90509250925092565b60008060408385031215611cf957600080fd5b611d0283611b09565b9150611bf660208401611b09565b60008060008060808587031215611d2657600080fd5b611d2f85611b09565b9350611d3d60208601611b09565b9250611d4b60408601611b09565b9150611d5960608601611b09565b905092959194509250565b600060208284031215611d7657600080fd5b815161191e81611b61565b6020808252600590820152640daeae8caf60db1b604082015260600190565b634e487b7160e01b600052601160045260246000fd5b60008219821115611dc957611dc9611da0565b500190565b600060208284031215611de057600080fd5b5051919050565b60005b83811015611e02578181015183820152602001611dea565b83811115611e11576000848401525b50505050565b7f416363657373436f6e74726f6c3a206163636f756e7420000000000000000000815260008351611e4f816017850160208801611de7565b7001034b99036b4b9b9b4b733903937b6329607d1b6017918401918201528351611e80816028840160208801611de7565b01602801949350505050565b6020815260008251806020840152611eab816040850160208701611de7565b601f01601f19169190910160400192915050565b600060208284031215611ed157600080fd5b813560ff8116811461191e57600080fd5b6000816000190483118215151615611efc57611efc611da0565b500290565b634e487b7160e01b600052603260045260246000fd5b600081611f2657611f26611da0565b506000190190565b634e487b7160e01b600052602160045260246000fdfe97667070c54ef182b0f5858b034beac1b6f3089aa2d3188bb1e8929f4fa9b929a264697066735822122027ce4b4974a31d92bb151933ede6577878da14b6c440c11742cbb3dc3635377564736f6c63430008090033",
  "linkReferences": {},
  "deployedLinkReferences": {}
}