{
  "_format": "hh-sol-artifact-1",
  "contractName": "BkBatchGiver",
  "sourceName": "contracts/features/BkBatchGiver.sol",
  "abi": [
    {
      "anonymous": false,
      "inputs": [
        {
          "indexed": false,
          "internalType": "uint8",
          "name": "version",
          "type": "uint8"
        }
      ],
      "name": "Initialized",
      "type": "event"
    },
    {
      "anonymous": false,
      "inputs": [
        {
          "indexed": false,
          "internalType": "address",
          "name": "account",
          "type": "address"
        }
      ],
      "name": "Paused",
      "type": "event"
    },
    {
      "anonymous": false,
      "inputs": [
        {
          "indexed": true,
          "internalType": "bytes32",
          "name": "role",
          "type": "bytes32"
        },
        {
          "indexed": true,
          "internalType": "bytes32",
          "name": "previousAdminRole",
          "type": "bytes32"
        },
        {
          "indexed": true,
          "internalType": "bytes32",
          "name": "newAdminRole",
          "type": "bytes32"
        }
      ],
      "name": "RoleAdminChanged",
      "type": "event"
    },
    {
      "anonymous": false,
      "inputs": [
        {
          "indexed": true,
          "internalType": "bytes32",
          "name": "role",
          "type": "bytes32"
        },
        {
          "indexed": true,
          "internalType": "address",
          "name": "account",
          "type": "address"
        },
        {
          "indexed": true,
          "internalType": "address",
          "name": "sender",
          "type": "address"
        }
      ],
      "name": "RoleGranted",
      "type": "event"
    },
    {
      "anonymous": false,
      "inputs": [
        {
          "indexed": true,
          "internalType": "bytes32",
          "name": "role",
          "type": "bytes32"
        },
        {
          "indexed": true,
          "internalType": "address",
          "name": "account",
          "type": "address"
        },
        {
          "indexed": true,
          "internalType": "address",
          "name": "sender",
          "type": "address"
        }
      ],
      "name": "RoleRevoked",
      "type": "event"
    },
    {
      "anonymous": false,
      "inputs": [
        {
          "indexed": false,
          "internalType": "address",
          "name": "account",
          "type": "address"
        }
      ],
      "name": "Unpaused",
      "type": "event"
    },
    {
      "inputs": [],
      "name": "DEFAULT_ADMIN_ROLE",
      "outputs": [
        {
          "internalType": "bytes32",
          "name": "",
          "type": "bytes32"
        }
      ],
      "stateMutability": "view",
      "type": "function"
    },
    {
      "inputs": [
        {
          "internalType": "address",
          "name": "_operator",
          "type": "address"
        },
        {
          "internalType": "address",
          "name": "_blocklistAddress",
          "type": "address"
        }
      ],
      "name": "__Administrable_init",
      "outputs": [],
      "stateMutability": "nonpayable",
      "type": "function"
    },
    {
      "inputs": [
        {
          "internalType": "address[]",
          "name": "playerAddresses",
          "type": "address[]"
        },
        {
          "internalType": "uint256",
          "name": "amount",
          "type": "uint256"
        }
      ],
      "name": "addPowderToMany",
      "outputs": [],
      "stateMutability": "nonpayable",
      "type": "function"
    },
    {
      "inputs": [
        {
          "internalType": "address[]",
          "name": "playerAddresses",
          "type": "address[]"
        },
        {
          "internalType": "uint256[]",
          "name": "amount",
          "type": "uint256[]"
        },
        {
          "internalType": "uint256[]",
          "name": "resources",
          "type": "uint256[]"
        }
      ],
      "name": "addTo",
      "outputs": [],
      "stateMutability": "nonpayable",
      "type": "function"
    },
    {
      "inputs": [
        {
          "internalType": "address[]",
          "name": "playerAddresses",
          "type": "address[]"
        },
        {
          "internalType": "uint256",
          "name": "amount",
          "type": "uint256"
        },
        {
          "internalType": "uint256[]",
          "name": "resources",
          "type": "uint256[]"
        }
      ],
      "name": "addToMany",
      "outputs": [],
      "stateMutability": "nonpayable",
      "type": "function"
    },
    {
      "inputs": [],
      "name": "farm",
      "outputs": [
        {
          "internalType": "contract IBkFarm",
          "name": "",
          "type": "address"
        }
      ],
      "stateMutability": "view",
      "type": "function"
    },
    {
      "inputs": [],
      "name": "forge",
      "outputs": [
        {
          "internalType": "contract IBkForge",
          "name": "",
          "type": "address"
        }
      ],
      "stateMutability": "view",
      "type": "function"
    },
    {
      "inputs": [
        {
          "internalType": "bytes32",
          "name": "role",
          "type": "bytes32"
        }
      ],
      "name": "getRoleAdmin",
      "outputs": [
        {
          "internalType": "bytes32",
          "name": "",
          "type": "bytes32"
        }
      ],
      "stateMutability": "view",
      "type": "function"
    },
    {
      "inputs": [
        {
          "internalType": "bytes32",
          "name": "role",
          "type": "bytes32"
        },
        {
          "internalType": "address",
          "name": "account",
          "type": "address"
        }
      ],
      "name": "grantRole",
      "outputs": [],
      "stateMutability": "nonpayable",
      "type": "function"
    },
    {
      "inputs": [],
      "name": "hasBlocklist",
      "outputs": [
        {
          "internalType": "bool",
          "name": "",
          "type": "bool"
        }
      ],
      "stateMutability": "view",
      "type": "function"
    },
    {
      "inputs": [
        {
          "internalType": "bytes32",
          "name": "role",
          "type": "bytes32"
        },
        {
          "internalType": "address",
          "name": "account",
          "type": "address"
        }
      ],
      "name": "hasRole",
      "outputs": [
        {
          "internalType": "bool",
          "name": "",
          "type": "bool"
        }
      ],
      "stateMutability": "view",
      "type": "function"
    },
    {
      "inputs": [
        {
          "internalType": "address",
          "name": "_operator",
          "type": "address"
        },
        {
          "internalType": "address",
          "name": "_blocklist",
          "type": "address"
        },
        {
          "internalType": "address",
          "name": "_farm",
          "type": "address"
        }
      ],
      "name": "initialize",
      "outputs": [],
      "stateMutability": "nonpayable",
      "type": "function"
    },
    {
      "inputs": [
        {
          "internalType": "address[]",
          "name": "playerAddresses",
          "type": "address[]"
        },
        {
          "components": [
            {
              "internalType": "uint256",
              "name": "id",
              "type": "uint256"
            },
            {
              "internalType": "string",
              "name": "name",
              "type": "string"
            },
            {
              "internalType": "string",
              "name": "imageUrl",
              "type": "string"
            },
            {
              "internalType": "address",
              "name": "currentOwner",
              "type": "address"
            },
            {
              "internalType": "uint256",
              "name": "squadId",
              "type": "uint256"
            },
            {
              "internalType": "uint256",
              "name": "collection",
              "type": "uint256"
            },
            {
              "internalType": "uint256",
              "name": "baseFarm",
              "type": "uint256"
            },
            {
              "internalType": "uint256",
              "name": "farmPerBlock",
              "type": "uint256"
            },
            {
              "internalType": "uint256[]",
              "name": "attributes",
              "type": "uint256[]"
            },
            {
              "internalType": "uint256[]",
              "name": "traits",
              "type": "uint256[]"
            },
            {
              "internalType": "uint256[]",
              "name": "skills",
              "type": "uint256[]"
            },
            {
              "internalType": "bool",
              "name": "isDead",
              "type": "bool"
            }
          ],
          "internalType": "struct IBkChar.BkChar",
          "name": "beast",
          "type": "tuple"
        }
      ],
      "name": "mintToMany",
      "outputs": [],
      "stateMutability": "nonpayable",
      "type": "function"
    },
    {
      "inputs": [],
      "name": "nft",
      "outputs": [
        {
          "internalType": "contract IBkNft",
          "name": "",
          "type": "address"
        }
      ],
      "stateMutability": "view",
      "type": "function"
    },
    {
      "inputs": [
        {
          "internalType": "address[]",
          "name": "playerAddresses",
          "type": "address[]"
        },
        {
          "internalType": "uint256[]",
          "name": "nftIds",
          "type": "uint256[]"
        },
        {
          "components": [
            {
              "internalType": "uint256",
              "name": "id",
              "type": "uint256"
            },
            {
              "internalType": "string",
              "name": "name",
              "type": "string"
            },
            {
              "internalType": "string",
              "name": "imageUrl",
              "type": "string"
            },
            {
              "internalType": "address",
              "name": "currentOwner",
              "type": "address"
            },
            {
              "internalType": "uint256",
              "name": "squadId",
              "type": "uint256"
            },
            {
              "internalType": "uint256",
              "name": "collection",
              "type": "uint256"
            },
            {
              "internalType": "uint256",
              "name": "baseFarm",
              "type": "uint256"
            },
            {
              "internalType": "uint256",
              "name": "farmPerBlock",
              "type": "uint256"
            },
            {
              "internalType": "uint256[]",
              "name": "attributes",
              "type": "uint256[]"
            },
            {
              "internalType": "uint256[]",
              "name": "traits",
              "type": "uint256[]"
            },
            {
              "internalType": "uint256[]",
              "name": "skills",
              "type": "uint256[]"
            },
            {
              "internalType": "bool",
              "name": "isDead",
              "type": "bool"
            }
          ],
          "internalType": "struct IBkChar.BkChar",
          "name": "beast",
          "type": "tuple"
        }
      ],
      "name": "overwriteMintToMany",
      "outputs": [],
      "stateMutability": "nonpayable",
      "type": "function"
    },
    {
      "inputs": [],
      "name": "pause",
      "outputs": [],
      "stateMutability": "nonpayable",
      "type": "function"
    },
    {
      "inputs": [],
      "name": "paused",
      "outputs": [
        {
          "internalType": "bool",
          "name": "",
          "type": "bool"
        }
      ],
      "stateMutability": "view",
      "type": "function"
    },
    {
      "inputs": [
        {
          "internalType": "address",
          "name": "tokenAddress",
          "type": "address"
        },
        {
          "internalType": "address",
          "name": "to",
          "type": "address"
        },
        {
          "internalType": "uint256",
          "name": "amount",
          "type": "uint256"
        }
      ],
      "name": "recoverERC20",
      "outputs": [],
      "stateMutability": "nonpayable",
      "type": "function"
    },
    {
      "inputs": [
        {
          "internalType": "bytes32",
          "name": "role",
          "type": "bytes32"
        },
        {
          "internalType": "address",
          "name": "account",
          "type": "address"
        }
      ],
      "name": "renounceRole",
      "outputs": [],
      "stateMutability": "nonpayable",
      "type": "function"
    },
    {
      "inputs": [],
      "name": "resetBlocklist",
      "outputs": [],
      "stateMutability": "nonpayable",
      "type": "function"
    },
    {
      "inputs": [
        {
          "internalType": "bytes32",
          "name": "role",
          "type": "bytes32"
        },
        {
          "internalType": "address",
          "name": "account",
          "type": "address"
        }
      ],
      "name": "revokeRole",
      "outputs": [],
      "stateMutability": "nonpayable",
      "type": "function"
    },
    {
      "inputs": [
        {
          "internalType": "address",
          "name": "blocklistAddress",
          "type": "address"
        }
      ],
      "name": "setBlocklist",
      "outputs": [],
      "stateMutability": "nonpayable",
      "type": "function"
    },
    {
      "inputs": [
        {
          "internalType": "bytes4",
          "name": "interfaceId",
          "type": "bytes4"
        }
      ],
      "name": "supportsInterface",
      "outputs": [
        {
          "internalType": "bool",
          "name": "",
          "type": "bool"
        }
      ],
      "stateMutability": "view",
      "type": "function"
    },
    {
      "inputs": [],
      "name": "unpause",
      "outputs": [],
      "stateMutability": "nonpayable",
      "type": "function"
    }
  ],
  "bytecode": "0x608060405234801561001057600080fd5b50611c2a806100206000396000f3fe608060405234801561001057600080fd5b50600436106101585760003560e01c80635b155456116100c3578063931da89b1161007c578063931da89b146102d85780639c91000d146102eb578063a217fddf146102fe578063aef18ae714610306578063c0c53b8b14610319578063d547741f1461032c57600080fd5b80635b155456146102785780635c975abb1461028b578063634210f4146102965780636c6f4239146102aa5780638456cb59146102bd57806391d14854146102c557600080fd5b806331e4becb1161011557806331e4becb1461020457806336568abe1461021757806336e9332d1461022a5780633c7fd822146102555780633f4ba83a1461025d57806347ccca021461026557600080fd5b806301ffc9a71461015d578063076fa986146101855780631171bda91461019a57806312257c90146101ad578063248a9ca3146101c05780632f2ff15d146101f1575b600080fd5b61017061016b3660046111ab565b61033f565b60405190151581526020015b60405180910390f35b610198610193366004611353565b610376565b005b6101986101a83660046113db565b610450565b6101986101bb366004611417565b6104ea565b6101e36101ce36600461146d565b60009081526065602052604090206001015490565b60405190815260200161017c565b6101986101ff366004611486565b6105a4565b610198610212366004611675565b6105ce565b610198610225366004611486565b61068c565b60ca5461023d906001600160a01b031681565b6040516001600160a01b03909116815260200161017c565b6101986106af565b6101986106da565b60cc5461023d906001600160a01b031681565b6101986102863660046116d9565b6106fd565b60975460ff16610170565b60c95461017090600160a01b900460ff1681565b60cb5461023d906001600160a01b031681565b6101986109fe565b6101706102d3366004611486565b610a1e565b6101986102e6366004611757565b610a49565b6101986102f9366004611781565b610b5f565b6101e3600081565b6101986103143660046117c6565b610c2b565b6101986103273660046117e1565b610c6b565b61019861033a366004611486565b610d41565b60006001600160e01b03198216637965db0b60e01b148061037057506301ffc9a760e01b6001600160e01b03198316145b92915050565b600080516020611bd583398151915261038e81610d66565b60005b84518110156104495760ca5485516001600160a01b03909116906308acf952908790849081106103c3576103c3611824565b60200260200101518684815181106103dd576103dd611824565b6020026020010151866040518463ffffffff1660e01b815260040161040493929190611875565b600060405180830381600087803b15801561041e57600080fd5b505af1158015610432573d6000803e3d6000fd5b505050508080610441906118bb565b915050610391565b5050505050565b600080516020611bd583398151915261046881610d66565b60405163a9059cbb60e01b81526001600160a01b0384811660048301526024820184905285169063a9059cbb90604401602060405180830381600087803b1580156104b257600080fd5b505af11580156104c6573d6000803e3d6000fd5b505050506040513d601f19601f8201168201806040525081019061044991906118d6565b600080516020611bd583398151915261050281610d66565b60005b84518110156104495760ca5485516001600160a01b03909116906308acf9529087908490811061053757610537611824565b602002602001015186866040518463ffffffff1660e01b815260040161055f93929190611875565b600060405180830381600087803b15801561057957600080fd5b505af115801561058d573d6000803e3d6000fd5b50505050808061059c906118bb565b915050610505565b6000828152606560205260409020600101546105bf81610d66565b6105c98383610d70565b505050565b600080516020611bd58339815191526105e681610d66565b60005b83518110156106865760cc5484516001600160a01b03909116906366dbd6be9086908490811061061b5761061b611824565b6020026020010151856040518363ffffffff1660e01b815260040161064192919061194b565b600060405180830381600087803b15801561065b57600080fd5b505af115801561066f573d6000803e3d6000fd5b50505050808061067e906118bb565b9150506105e9565b50505050565b6001600160a01b03811633146106a157600080fd5b6106ab8282610df6565b5050565b600080516020611bd58339815191526106c781610d66565b5060c980546001600160a81b0319169055565b600080516020611bd58339815191526106f281610d66565b6106fa610e5d565b50565b600080516020611bd583398151915261071581610d66565b60005b84518110156104495760cc5484516001600160a01b0390911690637cecd56e9086908490811061074a5761074a611824565b602002602001015160006040518363ffffffff1660e01b815260040161077c9291909182521515602082015260400190565b600060405180830381600087803b15801561079657600080fd5b505af11580156107aa573d6000803e3d6000fd5b505060cc5486516001600160a01b0390911692506366cb496091508690849081106107d7576107d7611824565b60200260200101518561010001518660c001518761014001516040518563ffffffff1660e01b815260040161080f9493929190611a6c565b600060405180830381600087803b15801561082957600080fd5b505af115801561083d573d6000803e3d6000fd5b5050505060a0830151156108da5760cc5484516001600160a01b039091169063b3d84ae89086908490811061087457610874611824565b60200260200101518560a001516040518363ffffffff1660e01b81526004016108a7929190918252602082015260400190565b600060405180830381600087803b1580156108c157600080fd5b505af11580156108d5573d6000803e3d6000fd5b505050505b60cc5484516001600160a01b039091169063949755859086908490811061090357610903611824565b6020026020010151856020015186604001516040518463ffffffff1660e01b815260040161093393929190611aa8565b600060405180830381600087803b15801561094d57600080fd5b505af1158015610961573d6000803e3d6000fd5b505060cc5486516001600160a01b0390911692506388d210f0915086908490811061098e5761098e611824565b60200260200101518561012001516040518363ffffffff1660e01b81526004016109b9929190611add565b600060405180830381600087803b1580156109d357600080fd5b505af11580156109e7573d6000803e3d6000fd5b5050505080806109f6906118bb565b915050610718565b600080516020611bd5833981519152610a1681610d66565b6106fa610eaf565b60009182526065602090815260408084206001600160a01b0393909316845291905290205460ff1690565b600054610100900460ff1615808015610a695750600054600160ff909116105b80610a835750303b158015610a83575060005460ff166001145b610a8c57600080fd5b6000805460ff191660011790558015610aaf576000805461ff0019166101001790555b610ab7610eec565b610abf610f02565b610aca600084610f1e565b610ae2600080516020611bd583398151915284610f1e565b610b0c7f73e573f9566d61418a34d5de3ff49360f9c51fec37f7486551670290f6285dab84610f1e565b610b1582610c2b565b80156105c9576000805461ff0019169055604051600181527f7f26b83ff96e1f2b6a682f133852f6798a09c465da95921460cefb38474024989060200160405180910390a1505050565b600080516020611bd5833981519152610b7781610d66565b60005b83518110156106865760cb5484516001600160a01b039091169063f29573ff90869084908110610bac57610bac611824565b6020026020010151856040518363ffffffff1660e01b8152600401610be69291906001600160a01b03929092168252602082015260400190565b600060405180830381600087803b158015610c0057600080fd5b505af1158015610c14573d6000803e3d6000fd5b505050508080610c23906118bb565b915050610b7a565b600080516020611bd5833981519152610c4381610d66565b5060c980546001600160a81b0319166001600160a01b0390921691909117600160a01b179055565b600054610100900460ff1615808015610c8b5750600054600160ff909116105b80610ca55750303b158015610ca5575060005460ff166001145b610cae57600080fd5b6000805460ff191660011790558015610cd1576000805461ff0019166101001790555b610cdb8484610a49565b60ca80546001600160a01b0319166001600160a01b0384161790558015610686576000805461ff0019169055604051600181527f7f26b83ff96e1f2b6a682f133852f6798a09c465da95921460cefb38474024989060200160405180910390a150505050565b600082815260656020526040902060010154610d5c81610d66565b6105c98383610df6565b6106fa8133610f28565b610d7a8282610a1e565b6106ab5760008281526065602090815260408083206001600160a01b03851684529091529020805460ff19166001179055610db23390565b6001600160a01b0316816001600160a01b0316837f2f8788117e7eff1d82e926ec794901d17c78024a50270940304540a733656f0d60405160405180910390a45050565b610e008282610a1e565b156106ab5760008281526065602090815260408083206001600160a01b0385168085529252808320805460ff1916905551339285917ff6391f5c32d9c69d2a47ea670b442974b53935d1edc7fd64eb21e047a839171b9190a45050565b610e65610f8a565b6097805460ff191690557f5db9ee0a495bf2e6ff9c91a7834c1ba4fdd244a5e8aa4e537bd38aeae4b073aa335b6040516001600160a01b03909116815260200160405180910390a1565b610eb7610fd3565b6097805460ff191660011790557f62e78cea01bee320cd4e420270b5ea74000d11b0c9f74754ebdbfc544b05a258610e923390565b600054610100900460ff16610f0057600080fd5b565b600054610100900460ff16610f1657600080fd5b610f00611019565b6106ab8282610d70565b610f328282610a1e565b6106ab57610f3f81611039565b610f4a83602061104b565b604051602001610f5b929190611afe565b60408051601f198184030181529082905262461bcd60e51b8252610f8191600401611b73565b60405180910390fd5b60975460ff16610f005760405162461bcd60e51b815260206004820152601460248201527314185d5cd8589b194e881b9bdd081c185d5cd95960621b6044820152606401610f81565b60975460ff1615610f005760405162461bcd60e51b815260206004820152601060248201526f14185d5cd8589b194e881c185d5cd95960821b6044820152606401610f81565b600054610100900460ff1661102d57600080fd5b6097805460ff19169055565b60606103706001600160a01b03831660145b6060600061105a836002611b86565b611065906002611ba5565b67ffffffffffffffff81111561107d5761107d6111d5565b6040519080825280601f01601f1916602001820160405280156110a7576020820181803683370190505b509050600360fc1b816000815181106110c2576110c2611824565b60200101906001600160f81b031916908160001a905350600f60fb1b816001815181106110f1576110f1611824565b60200101906001600160f81b031916908160001a9053506000611115846002611b86565b611120906001611ba5565b90505b6001811115611198576f181899199a1a9b1b9c1cb0b131b232b360811b85600f166010811061115457611154611824565b1a60f81b82828151811061116a5761116a611824565b60200101906001600160f81b031916908160001a90535060049490941c9361119181611bbd565b9050611123565b5083156111a457600080fd5b9392505050565b6000602082840312156111bd57600080fd5b81356001600160e01b0319811681146111a457600080fd5b634e487b7160e01b600052604160045260246000fd5b604051610180810167ffffffffffffffff8111828210171561120f5761120f6111d5565b60405290565b604051601f8201601f1916810167ffffffffffffffff8111828210171561123e5761123e6111d5565b604052919050565b600067ffffffffffffffff821115611260576112606111d5565b5060051b60200190565b80356001600160a01b038116811461128157600080fd5b919050565b600082601f83011261129757600080fd5b813560206112ac6112a783611246565b611215565b82815260059290921b840181019181810190868411156112cb57600080fd5b8286015b848110156112ed576112e08161126a565b83529183019183016112cf565b509695505050505050565b600082601f83011261130957600080fd5b813560206113196112a783611246565b82815260059290921b8401810191818101908684111561133857600080fd5b8286015b848110156112ed578035835291830191830161133c565b60008060006060848603121561136857600080fd5b833567ffffffffffffffff8082111561138057600080fd5b61138c87838801611286565b945060208601359150808211156113a257600080fd5b6113ae878388016112f8565b935060408601359150808211156113c457600080fd5b506113d1868287016112f8565b9150509250925092565b6000806000606084860312156113f057600080fd5b6113f98461126a565b92506114076020850161126a565b9150604084013590509250925092565b60008060006060848603121561142c57600080fd5b833567ffffffffffffffff8082111561144457600080fd5b61145087838801611286565b94506020860135935060408601359150808211156113c457600080fd5b60006020828403121561147f57600080fd5b5035919050565b6000806040838503121561149957600080fd5b823591506114a96020840161126a565b90509250929050565b600082601f8301126114c357600080fd5b813567ffffffffffffffff8111156114dd576114dd6111d5565b6114f0601f8201601f1916602001611215565b81815284602083860101111561150557600080fd5b816020850160208301376000918101602001919091529392505050565b80151581146106fa57600080fd5b803561128181611522565b6000610180828403121561154e57600080fd5b6115566111eb565b905081358152602082013567ffffffffffffffff8082111561157757600080fd5b611583858386016114b2565b6020840152604084013591508082111561159c57600080fd5b6115a8858386016114b2565b60408401526115b96060850161126a565b60608401526080840135608084015260a084013560a084015260c084013560c084015260e084013560e0840152610100915081840135818111156115fc57600080fd5b611608868287016112f8565b83850152506101209150818401358181111561162357600080fd5b61162f868287016112f8565b83850152506101409150818401358181111561164a57600080fd5b611656868287016112f8565b8385015250505061016061166b818401611530565b9082015292915050565b6000806040838503121561168857600080fd5b823567ffffffffffffffff808211156116a057600080fd5b6116ac86838701611286565b935060208501359150808211156116c257600080fd5b506116cf8582860161153b565b9150509250929050565b6000806000606084860312156116ee57600080fd5b833567ffffffffffffffff8082111561170657600080fd5b61171287838801611286565b9450602086013591508082111561172857600080fd5b611734878388016112f8565b9350604086013591508082111561174a57600080fd5b506113d18682870161153b565b6000806040838503121561176a57600080fd5b6117738361126a565b91506114a96020840161126a565b6000806040838503121561179457600080fd5b823567ffffffffffffffff8111156117ab57600080fd5b6117b785828601611286565b95602094909401359450505050565b6000602082840312156117d857600080fd5b6111a48261126a565b6000806000606084860312156117f657600080fd5b6117ff8461126a565b925061180d6020850161126a565b915061181b6040850161126a565b90509250925092565b634e487b7160e01b600052603260045260246000fd5b600081518084526020808501945080840160005b8381101561186a5781518752958201959082019060010161184e565b509495945050505050565b60018060a01b038416815282602082015260606040820152600061189c606083018461183a565b95945050505050565b634e487b7160e01b600052601160045260246000fd5b60006000198214156118cf576118cf6118a5565b5060010190565b6000602082840312156118e857600080fd5b81516111a481611522565b60005b8381101561190e5781810151838201526020016118f6565b838111156106865750506000910152565b600081518084526119378160208601602086016118f3565b601f01601f19169290920160200192915050565b60018060a01b03831681526040602082015281516040820152600060208301516101808060608501526119826101c085018361191f565b91506040850151603f19808685030160808701526119a0848361191f565b9350606087015191506119be60a08701836001600160a01b03169052565b608087015160c087015260a087015160e087015260c08701519150610100828188015260e0880151925061012083818901528189015193506101409150828887030182890152611a0e868561183a565b955080890151935050610160828887030181890152611a2d868561183a565b9550818901519350828887030185890152611a48868561183a565b955080890151945050505050611a636101a085018215159052565b50949350505050565b848152608060208201526000611a85608083018661183a565b8460408401528281036060840152611a9d818561183a565b979650505050505050565b838152606060208201526000611ac1606083018561191f565b8281036040840152611ad3818561191f565b9695505050505050565b828152604060208201526000611af6604083018461183a565b949350505050565b7f416363657373436f6e74726f6c3a206163636f756e7420000000000000000000815260008351611b368160178501602088016118f3565b7001034b99036b4b9b9b4b733903937b6329607d1b6017918401918201528351611b678160288401602088016118f3565b01602801949350505050565b6020815260006111a4602083018461191f565b6000816000190483118215151615611ba057611ba06118a5565b500290565b60008219821115611bb857611bb86118a5565b500190565b600081611bcc57611bcc6118a5565b50600019019056fe97667070c54ef182b0f5858b034beac1b6f3089aa2d3188bb1e8929f4fa9b929a2646970667358221220b51d47489e32563fe70e8eb7454cb6fd699dbea71930b8ccd00ae67b77fe812b64736f6c63430008090033",
  "linkReferences": {},
  "deployedLinkReferences": {}
}