{
  "_format": "hh-sol-artifact-1",
  "contractName": "BkBatchGiver",
  "sourceName": "contracts/features/BkBatchGiver.sol",
  "abi": [
    {
      "anonymous": false,
      "inputs": [
        {
          "indexed": false,
          "internalType": "uint8",
          "name": "version",
          "type": "uint8"
        }
      ],
      "name": "Initialized",
      "type": "event"
    },
    {
      "anonymous": false,
      "inputs": [
        {
          "indexed": false,
          "internalType": "address",
          "name": "account",
          "type": "address"
        }
      ],
      "name": "Paused",
      "type": "event"
    },
    {
      "anonymous": false,
      "inputs": [
        {
          "indexed": true,
          "internalType": "bytes32",
          "name": "role",
          "type": "bytes32"
        },
        {
          "indexed": true,
          "internalType": "bytes32",
          "name": "previousAdminRole",
          "type": "bytes32"
        },
        {
          "indexed": true,
          "internalType": "bytes32",
          "name": "newAdminRole",
          "type": "bytes32"
        }
      ],
      "name": "RoleAdminChanged",
      "type": "event"
    },
    {
      "anonymous": false,
      "inputs": [
        {
          "indexed": true,
          "internalType": "bytes32",
          "name": "role",
          "type": "bytes32"
        },
        {
          "indexed": true,
          "internalType": "address",
          "name": "account",
          "type": "address"
        },
        {
          "indexed": true,
          "internalType": "address",
          "name": "sender",
          "type": "address"
        }
      ],
      "name": "RoleGranted",
      "type": "event"
    },
    {
      "anonymous": false,
      "inputs": [
        {
          "indexed": true,
          "internalType": "bytes32",
          "name": "role",
          "type": "bytes32"
        },
        {
          "indexed": true,
          "internalType": "address",
          "name": "account",
          "type": "address"
        },
        {
          "indexed": true,
          "internalType": "address",
          "name": "sender",
          "type": "address"
        }
      ],
      "name": "RoleRevoked",
      "type": "event"
    },
    {
      "anonymous": false,
      "inputs": [
        {
          "indexed": false,
          "internalType": "address",
          "name": "account",
          "type": "address"
        }
      ],
      "name": "Unpaused",
      "type": "event"
    },
    {
      "inputs": [],
      "name": "DEFAULT_ADMIN_ROLE",
      "outputs": [
        {
          "internalType": "bytes32",
          "name": "",
          "type": "bytes32"
        }
      ],
      "stateMutability": "view",
      "type": "function"
    },
    {
      "inputs": [
        {
          "internalType": "address",
          "name": "_operator",
          "type": "address"
        },
        {
          "internalType": "address",
          "name": "_blocklistAddress",
          "type": "address"
        }
      ],
      "name": "__Administrable_init",
      "outputs": [],
      "stateMutability": "nonpayable",
      "type": "function"
    },
    {
      "inputs": [
        {
          "internalType": "address[]",
          "name": "playerAddresses",
          "type": "address[]"
        },
        {
          "internalType": "uint256[]",
          "name": "amount",
          "type": "uint256[]"
        },
        {
          "internalType": "uint256[]",
          "name": "resources",
          "type": "uint256[]"
        }
      ],
      "name": "addTo",
      "outputs": [],
      "stateMutability": "nonpayable",
      "type": "function"
    },
    {
      "inputs": [
        {
          "internalType": "address[]",
          "name": "playerAddresses",
          "type": "address[]"
        },
        {
          "internalType": "uint256",
          "name": "amount",
          "type": "uint256"
        },
        {
          "internalType": "uint256[]",
          "name": "resources",
          "type": "uint256[]"
        }
      ],
      "name": "addToMany",
      "outputs": [],
      "stateMutability": "nonpayable",
      "type": "function"
    },
    {
      "inputs": [],
      "name": "farm",
      "outputs": [
        {
          "internalType": "contract IBkFarm",
          "name": "",
          "type": "address"
        }
      ],
      "stateMutability": "view",
      "type": "function"
    },
    {
      "inputs": [
        {
          "internalType": "bytes32",
          "name": "role",
          "type": "bytes32"
        }
      ],
      "name": "getRoleAdmin",
      "outputs": [
        {
          "internalType": "bytes32",
          "name": "",
          "type": "bytes32"
        }
      ],
      "stateMutability": "view",
      "type": "function"
    },
    {
      "inputs": [
        {
          "internalType": "bytes32",
          "name": "role",
          "type": "bytes32"
        },
        {
          "internalType": "address",
          "name": "account",
          "type": "address"
        }
      ],
      "name": "grantRole",
      "outputs": [],
      "stateMutability": "nonpayable",
      "type": "function"
    },
    {
      "inputs": [],
      "name": "hasBlocklist",
      "outputs": [
        {
          "internalType": "bool",
          "name": "",
          "type": "bool"
        }
      ],
      "stateMutability": "view",
      "type": "function"
    },
    {
      "inputs": [
        {
          "internalType": "bytes32",
          "name": "role",
          "type": "bytes32"
        },
        {
          "internalType": "address",
          "name": "account",
          "type": "address"
        }
      ],
      "name": "hasRole",
      "outputs": [
        {
          "internalType": "bool",
          "name": "",
          "type": "bool"
        }
      ],
      "stateMutability": "view",
      "type": "function"
    },
    {
      "inputs": [
        {
          "internalType": "address",
          "name": "_operator",
          "type": "address"
        },
        {
          "internalType": "address",
          "name": "_blocklist",
          "type": "address"
        },
        {
          "internalType": "address",
          "name": "_farm",
          "type": "address"
        }
      ],
      "name": "initialize",
      "outputs": [],
      "stateMutability": "nonpayable",
      "type": "function"
    },
    {
      "inputs": [],
      "name": "pause",
      "outputs": [],
      "stateMutability": "nonpayable",
      "type": "function"
    },
    {
      "inputs": [],
      "name": "paused",
      "outputs": [
        {
          "internalType": "bool",
          "name": "",
          "type": "bool"
        }
      ],
      "stateMutability": "view",
      "type": "function"
    },
    {
      "inputs": [
        {
          "internalType": "address",
          "name": "tokenAddress",
          "type": "address"
        },
        {
          "internalType": "address",
          "name": "to",
          "type": "address"
        },
        {
          "internalType": "uint256",
          "name": "amount",
          "type": "uint256"
        }
      ],
      "name": "recoverERC20",
      "outputs": [],
      "stateMutability": "nonpayable",
      "type": "function"
    },
    {
      "inputs": [
        {
          "internalType": "bytes32",
          "name": "role",
          "type": "bytes32"
        },
        {
          "internalType": "address",
          "name": "account",
          "type": "address"
        }
      ],
      "name": "renounceRole",
      "outputs": [],
      "stateMutability": "nonpayable",
      "type": "function"
    },
    {
      "inputs": [],
      "name": "resetBlocklist",
      "outputs": [],
      "stateMutability": "nonpayable",
      "type": "function"
    },
    {
      "inputs": [
        {
          "internalType": "bytes32",
          "name": "role",
          "type": "bytes32"
        },
        {
          "internalType": "address",
          "name": "account",
          "type": "address"
        }
      ],
      "name": "revokeRole",
      "outputs": [],
      "stateMutability": "nonpayable",
      "type": "function"
    },
    {
      "inputs": [
        {
          "internalType": "address",
          "name": "blocklistAddress",
          "type": "address"
        }
      ],
      "name": "setBlocklist",
      "outputs": [],
      "stateMutability": "nonpayable",
      "type": "function"
    },
    {
      "inputs": [
        {
          "internalType": "bytes4",
          "name": "interfaceId",
          "type": "bytes4"
        }
      ],
      "name": "supportsInterface",
      "outputs": [
        {
          "internalType": "bool",
          "name": "",
          "type": "bool"
        }
      ],
      "stateMutability": "view",
      "type": "function"
    },
    {
      "inputs": [],
      "name": "unpause",
      "outputs": [],
      "stateMutability": "nonpayable",
      "type": "function"
    }
  ],
  "bytecode": "0x608060405234801561001057600080fd5b5061122e806100206000396000f3fe608060405234801561001057600080fd5b50600436106101215760003560e01c80633f4ba83a116100ad578063931da89b11610071578063931da89b14610255578063a217fddf14610268578063aef18ae714610270578063c0c53b8b14610283578063d547741f1461029657600080fd5b80633f4ba83a146102135780635c975abb1461021b578063634210f4146102265780638456cb591461023a57806391d148541461024257600080fd5b8063248a9ca3116100f4578063248a9ca3146101895780632f2ff15d146101ba57806336568abe146101cd57806336e9332d146101e05780633c7fd8221461020b57600080fd5b806301ffc9a714610126578063076fa9861461014e5780631171bda91461016357806312257c9014610176575b600080fd5b610139610134366004610c8b565b6102a9565b60405190151581526020015b60405180910390f35b61016161015c366004610e09565b6102e0565b005b610161610171366004610e91565b6103ba565b610161610184366004610ecd565b610454565b6101ac610197366004610f23565b60009081526065602052604090206001015490565b604051908152602001610145565b6101616101c8366004610f3c565b61050e565b6101616101db366004610f3c565b610538565b60ca546101f3906001600160a01b031681565b6040516001600160a01b039091168152602001610145565b61016161055b565b610161610586565b60975460ff16610139565b60c95461013990600160a01b900460ff1681565b6101616105a9565b610139610250366004610f3c565b6105c9565b610161610263366004610f68565b6105f4565b6101ac600081565b61016161027e366004610f92565b61070a565b610161610291366004610fad565b61074a565b6101616102a4366004610f3c565b610821565b60006001600160e01b03198216637965db0b60e01b14806102da57506301ffc9a760e01b6001600160e01b03198316145b92915050565b6000805160206111d98339815191526102f881610846565b60005b84518110156103b35760ca5485516001600160a01b03909116906308acf9529087908490811061032d5761032d610ff0565b602002602001015186848151811061034757610347610ff0565b6020026020010151866040518463ffffffff1660e01b815260040161036e93929190611006565b600060405180830381600087803b15801561038857600080fd5b505af115801561039c573d6000803e3d6000fd5b5050505080806103ab90611079565b9150506102fb565b5050505050565b6000805160206111d98339815191526103d281610846565b60405163a9059cbb60e01b81526001600160a01b0384811660048301526024820184905285169063a9059cbb90604401602060405180830381600087803b15801561041c57600080fd5b505af1158015610430573d6000803e3d6000fd5b505050506040513d601f19601f820116820180604052508101906103b39190611094565b6000805160206111d983398151915261046c81610846565b60005b84518110156103b35760ca5485516001600160a01b03909116906308acf952908790849081106104a1576104a1610ff0565b602002602001015186866040518463ffffffff1660e01b81526004016104c993929190611006565b600060405180830381600087803b1580156104e357600080fd5b505af11580156104f7573d6000803e3d6000fd5b50505050808061050690611079565b91505061046f565b60008281526065602052604090206001015461052981610846565b6105338383610850565b505050565b6001600160a01b038116331461054d57600080fd5b61055782826108d6565b5050565b6000805160206111d983398151915261057381610846565b5060c980546001600160a81b0319169055565b6000805160206111d983398151915261059e81610846565b6105a661093d565b50565b6000805160206111d98339815191526105c181610846565b6105a661098f565b60009182526065602090815260408084206001600160a01b0393909316845291905290205460ff1690565b600054610100900460ff16158080156106145750600054600160ff909116105b8061062e5750303b15801561062e575060005460ff166001145b61063757600080fd5b6000805460ff19166001179055801561065a576000805461ff0019166101001790555b6106626109cc565b61066a6109e2565b6106756000846109fe565b61068d6000805160206111d9833981519152846109fe565b6106b77f73e573f9566d61418a34d5de3ff49360f9c51fec37f7486551670290f6285dab846109fe565b6106c08261070a565b8015610533576000805461ff0019169055604051600181527f7f26b83ff96e1f2b6a682f133852f6798a09c465da95921460cefb38474024989060200160405180910390a1505050565b6000805160206111d983398151915261072281610846565b5060c980546001600160a81b0319166001600160a01b0390921691909117600160a01b179055565b600054610100900460ff161580801561076a5750600054600160ff909116105b806107845750303b158015610784575060005460ff166001145b61078d57600080fd5b6000805460ff1916600117905580156107b0576000805461ff0019166101001790555b6107ba84846105f4565b60ca80546001600160a01b0319166001600160a01b038416179055801561081b576000805461ff0019169055604051600181527f7f26b83ff96e1f2b6a682f133852f6798a09c465da95921460cefb38474024989060200160405180910390a15b50505050565b60008281526065602052604090206001015461083c81610846565b61053383836108d6565b6105a68133610a08565b61085a82826105c9565b6105575760008281526065602090815260408083206001600160a01b03851684529091529020805460ff191660011790556108923390565b6001600160a01b0316816001600160a01b0316837f2f8788117e7eff1d82e926ec794901d17c78024a50270940304540a733656f0d60405160405180910390a45050565b6108e082826105c9565b156105575760008281526065602090815260408083206001600160a01b0385168085529252808320805460ff1916905551339285917ff6391f5c32d9c69d2a47ea670b442974b53935d1edc7fd64eb21e047a839171b9190a45050565b610945610a6a565b6097805460ff191690557f5db9ee0a495bf2e6ff9c91a7834c1ba4fdd244a5e8aa4e537bd38aeae4b073aa335b6040516001600160a01b03909116815260200160405180910390a1565b610997610ab3565b6097805460ff191660011790557f62e78cea01bee320cd4e420270b5ea74000d11b0c9f74754ebdbfc544b05a2586109723390565b600054610100900460ff166109e057600080fd5b565b600054610100900460ff166109f657600080fd5b6109e0610af9565b6105578282610850565b610a1282826105c9565b61055757610a1f81610b19565b610a2a836020610b2b565b604051602001610a3b9291906110e2565b60408051601f198184030181529082905262461bcd60e51b8252610a6191600401611157565b60405180910390fd5b60975460ff166109e05760405162461bcd60e51b815260206004820152601460248201527314185d5cd8589b194e881b9bdd081c185d5cd95960621b6044820152606401610a61565b60975460ff16156109e05760405162461bcd60e51b815260206004820152601060248201526f14185d5cd8589b194e881c185d5cd95960821b6044820152606401610a61565b600054610100900460ff16610b0d57600080fd5b6097805460ff19169055565b60606102da6001600160a01b03831660145b60606000610b3a83600261118a565b610b459060026111a9565b67ffffffffffffffff811115610b5d57610b5d610cb5565b6040519080825280601f01601f191660200182016040528015610b87576020820181803683370190505b509050600360fc1b81600081518110610ba257610ba2610ff0565b60200101906001600160f81b031916908160001a905350600f60fb1b81600181518110610bd157610bd1610ff0565b60200101906001600160f81b031916908160001a9053506000610bf584600261118a565b610c009060016111a9565b90505b6001811115610c78576f181899199a1a9b1b9c1cb0b131b232b360811b85600f1660108110610c3457610c34610ff0565b1a60f81b828281518110610c4a57610c4a610ff0565b60200101906001600160f81b031916908160001a90535060049490941c93610c71816111c1565b9050610c03565b508315610c8457600080fd5b9392505050565b600060208284031215610c9d57600080fd5b81356001600160e01b031981168114610c8457600080fd5b634e487b7160e01b600052604160045260246000fd5b604051601f8201601f1916810167ffffffffffffffff81118282101715610cf457610cf4610cb5565b604052919050565b600067ffffffffffffffff821115610d1657610d16610cb5565b5060051b60200190565b80356001600160a01b0381168114610d3757600080fd5b919050565b600082601f830112610d4d57600080fd5b81356020610d62610d5d83610cfc565b610ccb565b82815260059290921b84018101918181019086841115610d8157600080fd5b8286015b84811015610da357610d9681610d20565b8352918301918301610d85565b509695505050505050565b600082601f830112610dbf57600080fd5b81356020610dcf610d5d83610cfc565b82815260059290921b84018101918181019086841115610dee57600080fd5b8286015b84811015610da35780358352918301918301610df2565b600080600060608486031215610e1e57600080fd5b833567ffffffffffffffff80821115610e3657600080fd5b610e4287838801610d3c565b94506020860135915080821115610e5857600080fd5b610e6487838801610dae565b93506040860135915080821115610e7a57600080fd5b50610e8786828701610dae565b9150509250925092565b600080600060608486031215610ea657600080fd5b610eaf84610d20565b9250610ebd60208501610d20565b9150604084013590509250925092565b600080600060608486031215610ee257600080fd5b833567ffffffffffffffff80821115610efa57600080fd5b610f0687838801610d3c565b9450602086013593506040860135915080821115610e7a57600080fd5b600060208284031215610f3557600080fd5b5035919050565b60008060408385031215610f4f57600080fd5b82359150610f5f60208401610d20565b90509250929050565b60008060408385031215610f7b57600080fd5b610f8483610d20565b9150610f5f60208401610d20565b600060208284031215610fa457600080fd5b610c8482610d20565b600080600060608486031215610fc257600080fd5b610fcb84610d20565b9250610fd960208501610d20565b9150610fe760408501610d20565b90509250925092565b634e487b7160e01b600052603260045260246000fd5b6001600160a01b038416815260208082018490526060604083018190528351908301819052600091848101916080850190845b8181101561105557845183529383019391830191600101611039565b509098975050505050505050565b634e487b7160e01b600052601160045260246000fd5b600060001982141561108d5761108d611063565b5060010190565b6000602082840312156110a657600080fd5b81518015158114610c8457600080fd5b60005b838110156110d15781810151838201526020016110b9565b8381111561081b5750506000910152565b7f416363657373436f6e74726f6c3a206163636f756e742000000000000000000081526000835161111a8160178501602088016110b6565b7001034b99036b4b9b9b4b733903937b6329607d1b601791840191820152835161114b8160288401602088016110b6565b01602801949350505050565b60208152600082518060208401526111768160408501602087016110b6565b601f01601f19169190910160400192915050565b60008160001904831182151516156111a4576111a4611063565b500290565b600082198211156111bc576111bc611063565b500190565b6000816111d0576111d0611063565b50600019019056fe97667070c54ef182b0f5858b034beac1b6f3089aa2d3188bb1e8929f4fa9b929a2646970667358221220f1aa09987a2bb7e11dbdedfeb7802eb005ac1dcc7b9d918cc2a69ec052b28fcc64736f6c63430008090033",
  "linkReferences": {},
  "deployedLinkReferences": {}
}