{
  "_format": "hh-sol-artifact-1",
  "contractName": "BkTraitReroller",
  "sourceName": "contracts/features/BkTraitReroller.sol",
  "abi": [
    {
      "anonymous": false,
      "inputs": [
        {
          "indexed": false,
          "internalType": "uint8",
          "name": "version",
          "type": "uint8"
        }
      ],
      "name": "Initialized",
      "type": "event"
    },
    {
      "anonymous": false,
      "inputs": [
        {
          "indexed": false,
          "internalType": "address",
          "name": "account",
          "type": "address"
        }
      ],
      "name": "Paused",
      "type": "event"
    },
    {
      "anonymous": false,
      "inputs": [
        {
          "indexed": true,
          "internalType": "bytes32",
          "name": "role",
          "type": "bytes32"
        },
        {
          "indexed": true,
          "internalType": "bytes32",
          "name": "previousAdminRole",
          "type": "bytes32"
        },
        {
          "indexed": true,
          "internalType": "bytes32",
          "name": "newAdminRole",
          "type": "bytes32"
        }
      ],
      "name": "RoleAdminChanged",
      "type": "event"
    },
    {
      "anonymous": false,
      "inputs": [
        {
          "indexed": true,
          "internalType": "bytes32",
          "name": "role",
          "type": "bytes32"
        },
        {
          "indexed": true,
          "internalType": "address",
          "name": "account",
          "type": "address"
        },
        {
          "indexed": true,
          "internalType": "address",
          "name": "sender",
          "type": "address"
        }
      ],
      "name": "RoleGranted",
      "type": "event"
    },
    {
      "anonymous": false,
      "inputs": [
        {
          "indexed": true,
          "internalType": "bytes32",
          "name": "role",
          "type": "bytes32"
        },
        {
          "indexed": true,
          "internalType": "address",
          "name": "account",
          "type": "address"
        },
        {
          "indexed": true,
          "internalType": "address",
          "name": "sender",
          "type": "address"
        }
      ],
      "name": "RoleRevoked",
      "type": "event"
    },
    {
      "anonymous": false,
      "inputs": [
        {
          "indexed": false,
          "internalType": "address",
          "name": "account",
          "type": "address"
        },
        {
          "indexed": false,
          "internalType": "uint256",
          "name": "nftId",
          "type": "uint256"
        },
        {
          "indexed": false,
          "internalType": "uint256",
          "name": "oldTrait1",
          "type": "uint256"
        },
        {
          "indexed": false,
          "internalType": "uint256",
          "name": "oldTrait2",
          "type": "uint256"
        },
        {
          "indexed": false,
          "internalType": "uint256",
          "name": "oldTrait3",
          "type": "uint256"
        },
        {
          "indexed": false,
          "internalType": "uint256",
          "name": "newTrait1",
          "type": "uint256"
        },
        {
          "indexed": false,
          "internalType": "uint256",
          "name": "newTrait2",
          "type": "uint256"
        },
        {
          "indexed": false,
          "internalType": "uint256",
          "name": "newTrait3",
          "type": "uint256"
        }
      ],
      "name": "TraitReroll",
      "type": "event"
    },
    {
      "anonymous": false,
      "inputs": [
        {
          "indexed": false,
          "internalType": "address",
          "name": "account",
          "type": "address"
        }
      ],
      "name": "Unpaused",
      "type": "event"
    },
    {
      "inputs": [],
      "name": "DEFAULT_ADMIN_ROLE",
      "outputs": [
        {
          "internalType": "bytes32",
          "name": "",
          "type": "bytes32"
        }
      ],
      "stateMutability": "view",
      "type": "function"
    },
    {
      "inputs": [
        {
          "internalType": "address",
          "name": "_operator",
          "type": "address"
        },
        {
          "internalType": "address",
          "name": "_blocklistAddress",
          "type": "address"
        }
      ],
      "name": "__Administrable_init",
      "outputs": [],
      "stateMutability": "nonpayable",
      "type": "function"
    },
    {
      "inputs": [],
      "name": "autoReturnRate",
      "outputs": [
        {
          "internalType": "uint256",
          "name": "",
          "type": "uint256"
        }
      ],
      "stateMutability": "view",
      "type": "function"
    },
    {
      "inputs": [
        {
          "internalType": "uint256",
          "name": "bctAmount",
          "type": "uint256"
        }
      ],
      "name": "bctToStabletoken",
      "outputs": [
        {
          "internalType": "uint256",
          "name": "",
          "type": "uint256"
        }
      ],
      "stateMutability": "view",
      "type": "function"
    },
    {
      "inputs": [
        {
          "internalType": "uint256",
          "name": "chosenTrait",
          "type": "uint256"
        },
        {
          "internalType": "uint256",
          "name": "traitCount",
          "type": "uint256"
        }
      ],
      "name": "getRerolledTraits",
      "outputs": [
        {
          "internalType": "uint256[]",
          "name": "traits",
          "type": "uint256[]"
        }
      ],
      "stateMutability": "nonpayable",
      "type": "function"
    },
    {
      "inputs": [
        {
          "internalType": "bytes32",
          "name": "role",
          "type": "bytes32"
        }
      ],
      "name": "getRoleAdmin",
      "outputs": [
        {
          "internalType": "bytes32",
          "name": "",
          "type": "bytes32"
        }
      ],
      "stateMutability": "view",
      "type": "function"
    },
    {
      "inputs": [
        {
          "internalType": "bytes32",
          "name": "role",
          "type": "bytes32"
        },
        {
          "internalType": "address",
          "name": "account",
          "type": "address"
        }
      ],
      "name": "grantRole",
      "outputs": [],
      "stateMutability": "nonpayable",
      "type": "function"
    },
    {
      "inputs": [],
      "name": "hasBlocklist",
      "outputs": [
        {
          "internalType": "bool",
          "name": "",
          "type": "bool"
        }
      ],
      "stateMutability": "view",
      "type": "function"
    },
    {
      "inputs": [
        {
          "internalType": "bytes32",
          "name": "role",
          "type": "bytes32"
        },
        {
          "internalType": "address",
          "name": "account",
          "type": "address"
        }
      ],
      "name": "hasRole",
      "outputs": [
        {
          "internalType": "bool",
          "name": "",
          "type": "bool"
        }
      ],
      "stateMutability": "view",
      "type": "function"
    },
    {
      "inputs": [
        {
          "internalType": "address",
          "name": "_operator",
          "type": "address"
        },
        {
          "internalType": "address",
          "name": "_blocklist",
          "type": "address"
        },
        {
          "internalType": "address",
          "name": "_nft",
          "type": "address"
        },
        {
          "internalType": "address",
          "name": "_result",
          "type": "address"
        }
      ],
      "name": "initialize",
      "outputs": [],
      "stateMutability": "nonpayable",
      "type": "function"
    },
    {
      "inputs": [],
      "name": "lockPeriod",
      "outputs": [
        {
          "internalType": "uint256",
          "name": "",
          "type": "uint256"
        }
      ],
      "stateMutability": "view",
      "type": "function"
    },
    {
      "inputs": [],
      "name": "pause",
      "outputs": [],
      "stateMutability": "nonpayable",
      "type": "function"
    },
    {
      "inputs": [],
      "name": "paused",
      "outputs": [
        {
          "internalType": "bool",
          "name": "",
          "type": "bool"
        }
      ],
      "stateMutability": "view",
      "type": "function"
    },
    {
      "inputs": [],
      "name": "paymentContracts",
      "outputs": [
        {
          "internalType": "contract IBkERC20",
          "name": "bct",
          "type": "address"
        },
        {
          "internalType": "contract IBkERC20",
          "name": "busd",
          "type": "address"
        },
        {
          "internalType": "contract ICommunityPool",
          "name": "pool",
          "type": "address"
        },
        {
          "internalType": "contract IBkFarm",
          "name": "farm",
          "type": "address"
        }
      ],
      "stateMutability": "view",
      "type": "function"
    },
    {
      "inputs": [
        {
          "internalType": "address",
          "name": "",
          "type": "address"
        }
      ],
      "name": "playerNonce",
      "outputs": [
        {
          "internalType": "uint256",
          "name": "",
          "type": "uint256"
        }
      ],
      "stateMutability": "view",
      "type": "function"
    },
    {
      "inputs": [
        {
          "internalType": "uint256",
          "name": "nftId",
          "type": "uint256"
        },
        {
          "internalType": "uint256",
          "name": "chosenTrait1",
          "type": "uint256"
        },
        {
          "internalType": "uint256",
          "name": "chosenTrait2",
          "type": "uint256"
        }
      ],
      "name": "reassemble",
      "outputs": [],
      "stateMutability": "nonpayable",
      "type": "function"
    },
    {
      "inputs": [
        {
          "internalType": "address",
          "name": "tokenAddress",
          "type": "address"
        },
        {
          "internalType": "address",
          "name": "to",
          "type": "address"
        },
        {
          "internalType": "uint256",
          "name": "amount",
          "type": "uint256"
        }
      ],
      "name": "recoverERC20",
      "outputs": [],
      "stateMutability": "nonpayable",
      "type": "function"
    },
    {
      "inputs": [
        {
          "internalType": "bytes32",
          "name": "role",
          "type": "bytes32"
        },
        {
          "internalType": "address",
          "name": "account",
          "type": "address"
        }
      ],
      "name": "renounceRole",
      "outputs": [],
      "stateMutability": "nonpayable",
      "type": "function"
    },
    {
      "inputs": [],
      "name": "resetBlocklist",
      "outputs": [],
      "stateMutability": "nonpayable",
      "type": "function"
    },
    {
      "inputs": [
        {
          "internalType": "uint256",
          "name": "",
          "type": "uint256"
        }
      ],
      "name": "resources",
      "outputs": [
        {
          "internalType": "address",
          "name": "",
          "type": "address"
        }
      ],
      "stateMutability": "view",
      "type": "function"
    },
    {
      "inputs": [],
      "name": "resourcesCount",
      "outputs": [
        {
          "internalType": "uint256",
          "name": "",
          "type": "uint256"
        }
      ],
      "stateMutability": "view",
      "type": "function"
    },
    {
      "inputs": [
        {
          "internalType": "bytes32",
          "name": "role",
          "type": "bytes32"
        },
        {
          "internalType": "address",
          "name": "account",
          "type": "address"
        }
      ],
      "name": "revokeRole",
      "outputs": [],
      "stateMutability": "nonpayable",
      "type": "function"
    },
    {
      "inputs": [],
      "name": "scale",
      "outputs": [
        {
          "internalType": "uint256",
          "name": "",
          "type": "uint256"
        }
      ],
      "stateMutability": "view",
      "type": "function"
    },
    {
      "inputs": [
        {
          "internalType": "address",
          "name": "blocklistAddress",
          "type": "address"
        }
      ],
      "name": "setBlocklist",
      "outputs": [],
      "stateMutability": "nonpayable",
      "type": "function"
    },
    {
      "inputs": [
        {
          "internalType": "address",
          "name": "_result",
          "type": "address"
        }
      ],
      "name": "setRResult",
      "outputs": [],
      "stateMutability": "nonpayable",
      "type": "function"
    },
    {
      "inputs": [
        {
          "internalType": "uint256",
          "name": "_scale",
          "type": "uint256"
        }
      ],
      "name": "setScale",
      "outputs": [],
      "stateMutability": "nonpayable",
      "type": "function"
    },
    {
      "inputs": [
        {
          "internalType": "address",
          "name": "_bct",
          "type": "address"
        },
        {
          "internalType": "address",
          "name": "_busd",
          "type": "address"
        },
        {
          "internalType": "address",
          "name": "_pool",
          "type": "address"
        },
        {
          "internalType": "address",
          "name": "_farm",
          "type": "address"
        },
        {
          "internalType": "address",
          "name": "_resourcesSource",
          "type": "address"
        },
        {
          "internalType": "uint256",
          "name": "_autoReturnRate",
          "type": "uint256"
        }
      ],
      "name": "setupPaymentModule",
      "outputs": [],
      "stateMutability": "nonpayable",
      "type": "function"
    },
    {
      "inputs": [
        {
          "internalType": "uint256",
          "name": "busdAmount",
          "type": "uint256"
        }
      ],
      "name": "stabletokenToBct",
      "outputs": [
        {
          "internalType": "uint256",
          "name": "",
          "type": "uint256"
        }
      ],
      "stateMutability": "view",
      "type": "function"
    },
    {
      "inputs": [
        {
          "internalType": "bytes4",
          "name": "interfaceId",
          "type": "bytes4"
        }
      ],
      "name": "supportsInterface",
      "outputs": [
        {
          "internalType": "bool",
          "name": "",
          "type": "bool"
        }
      ],
      "stateMutability": "view",
      "type": "function"
    },
    {
      "inputs": [
        {
          "internalType": "uint256",
          "name": "nftId",
          "type": "uint256"
        },
        {
          "internalType": "uint256",
          "name": "chosenTrait",
          "type": "uint256"
        }
      ],
      "name": "traitReroll",
      "outputs": [],
      "stateMutability": "nonpayable",
      "type": "function"
    },
    {
      "inputs": [
        {
          "internalType": "uint256",
          "name": "nftId",
          "type": "uint256"
        },
        {
          "internalType": "uint256",
          "name": "trait1",
          "type": "uint256"
        },
        {
          "internalType": "uint256",
          "name": "trait2",
          "type": "uint256"
        },
        {
          "internalType": "uint256",
          "name": "trait3",
          "type": "uint256"
        }
      ],
      "name": "transmute",
      "outputs": [],
      "stateMutability": "nonpayable",
      "type": "function"
    },
    {
      "inputs": [],
      "name": "unpause",
      "outputs": [],
      "stateMutability": "nonpayable",
      "type": "function"
    },
    {
      "inputs": [
        {
          "internalType": "address",
          "name": "sourceContract",
          "type": "address"
        }
      ],
      "name": "updateResources",
      "outputs": [],
      "stateMutability": "nonpayable",
      "type": "function"
    }
  ],
  "bytecode": "0x608060405234801561001057600080fd5b50613532806100206000396000f3fe608060405234801561001057600080fd5b50600436106101fb5760003560e01c8063634210f41161011a578063b5f63f60116100ad578063d336ae231161007c578063d336ae2314610486578063d547741f14610499578063f4b93f45146104ac578063f51e181a146104bf578063f8c8765e146104c857600080fd5b8063b5f63f6014610444578063c3c87d5314610457578063c429d3491461046a578063c4576ef81461047357600080fd5b806391d14854116100e957806391d1485414610403578063931da89b14610416578063a217fddf14610429578063aef18ae71461043157600080fd5b8063634210f4146103b45780637b01d59f146103c8578063804ecd83146103e85780638456cb59146103fb57600080fd5b806336568abe116101925780633fd8b02f116101615780633fd8b02f1461038457806341e80ad91461038d57806351ac7b8c146103a05780635c975abb146103a957600080fd5b806336568abe1461034e5780633c7fd822146103615780633edc3519146103695780633f4ba83a1461037c57600080fd5b8063248a9ca3116101ce578063248a9ca3146102ac578063285f92c1146102cf5780632f2ff15d146102e2578063323b6cb7146102f557600080fd5b806301ffc9a7146102005780631171bda91461022857806315e532461461023d578063244d6daa1461026b575b600080fd5b61021361020e366004612ab7565b6104db565b60405190151581526020015b60405180910390f35b61023b610236366004612af6565b610512565b005b61025d61024b366004612b37565b60d56020526000908152604090205481565b60405190815260200161021f565b610294610279366004612b54565b6003602052600090815260409020546001600160a01b031681565b6040516001600160a01b03909116815260200161021f565b61025d6102ba366004612b54565b6000908152606e602052604090206001015490565b61023b6102dd366004612b6d565b6105b3565b61023b6102f0366004612b9f565b610b80565b60045460055460065460075461031b936001600160a01b03908116938116928116911684565b604080516001600160a01b039586168152938516602085015291841691830191909152909116606082015260800161021f565b61023b61035c366004612b9f565b610baa565b61023b610bcd565b61023b610377366004612b54565b610bf8565b61023b610c16565b61025d60005481565b61025d61039b366004612b54565b610c39565b61025d60025481565b60a05460ff16610213565b60d25461021390600160a01b900460ff1681565b6103db6103d6366004612bcf565b610cb7565b60405161021f9190612c2c565b61023b6103f6366004612b37565b610ce3565b61023b610d1e565b610213610411366004612b9f565b610d3e565b61023b610424366004612c3f565b610d69565b61025d600081565b61023b61043f366004612b37565b610e7f565b61025d610452366004612b54565b610ebf565b61023b610465366004612b37565b610ef1565b61025d60085481565b61023b610481366004612bcf565b610f12565b61023b610494366004612c6d565b61134c565b61023b6104a7366004612b9f565b611a8b565b61023b6104ba366004612c99565b611ab0565b61025d60d65481565b61023b6104d6366004612d12565b611ad6565b60006001600160e01b03198216637965db0b60e01b148061050c57506301ffc9a760e01b6001600160e01b03198316145b92915050565b6000805160206134bd83398151915261052a81611bc7565b60405163a9059cbb60e01b81526001600160a01b0384811660048301526024820184905285169063a9059cbb90604401602060405180830381600087803b15801561057457600080fd5b505af1158015610588573d6000803e3d6000fd5b505050506040513d601f19601f820116820180604052508101906105ac9190612d83565b5050505050565b6105bb611bd1565b3360008181526001602052604090205443101561060a5760405162461bcd60e51b815260206004820152600860248201526731b7b7b63237bbb760c11b60448201526064015b60405180910390fd5b61061381611c19565b60d4546040516341f63bfd60e01b8152600481018790526000916001600160a01b0316906341f63bfd9060240160006040518083038186803b15801561065857600080fd5b505afa15801561066c573d6000803e3d6000fd5b505050506040513d6000823e601f3d908101601f191682016040526106949190810190612f3d565b60608101519091506001600160a01b031633146106b057600080fd5b60d454604051630f2a280d60e21b8152600481018890526001600160a01b0390911690633ca8a0349060240160206040518083038186803b1580156106f457600080fd5b505afa158015610708573d6000803e3d6000fd5b505050506040513d601f19601f8201168201806040525081019061072c9190612d83565b1561073657600080fd5b600085118015610747575060368511155b61075057600080fd5b600084118015610761575060368411155b61076a57600080fd5b60008311801561077b575060368311155b61078457600080fd5b610792816101200151611c42565b60031461079e57600080fd5b600060328611156107b757806107b3816130b0565b9150505b60328511156107ce57806107ca816130b0565b9150505b60328411156107e557806107e1816130b0565b9150505b600060026107f48360036130d0565b6107fe91906131f6565b6040805160038082526080820190925260ff9290921692506000919060208201606080368337019050509050878160008151811061083e5761083e613208565b602002602001018181525050868160018151811061085e5761085e613208565b602002602001018181525050858160028151811061087e5761087e613208565b6020026020010181815250506000805160206134dd833981519152338a8661012001516000815181106108b3576108b3613208565b60200260200101518761012001516001815181106108d3576108d3613208565b60200260200101518861012001516002815181106108f3576108f3613208565b60200260200101518660008151811061090e5761090e613208565b60200260200101518760018151811061092957610929613208565b60200260200101518860028151811061094457610944613208565b602002602001015160405161096098979695949392919061321e565b60405180910390a160d45460405163088d210f60e41b81526001600160a01b03909116906388d210f09061099a908c90859060040161325f565b600060405180830381600087803b1580156109b457600080fd5b505af11580156109c8573d6000803e3d6000fd5b5060009250601a91506109d89050565b604051908082528060200260200182016040528015610a01578160200160208202803683370190505b5090506109c481600a81518110610a1a57610a1a613208565b60200260200101818152505061271081600b81518110610a3c57610a3c613208565b6020026020010181815250506109c481600781518110610a5e57610a5e613208565b602002602001018181525050606481600981518110610a7f57610a7f613208565b602002602001018181525050606481610a9787611c98565b610aa290600d613278565b81518110610ab257610ab2613208565b6020908102919091010152610ac8836064613290565b81601581518110610adb57610adb613208565b602002602001018181525050610b746002606460d654610afa89611cc1565b610b038a611c98565b610b0f906105dc613290565b610b199190613290565b610b2b90670de0b6b3a7640000613290565b610b359190613290565b610b3f91906132af565b610b4991906132af565b6040805160808101825260018082526020820152600091810182905260608101919091528390611cdb565b50505050505050505050565b6000828152606e6020526040902060010154610b9b81611bc7565b610ba58383611f70565b505050565b6001600160a01b0381163314610bbf57600080fd5b610bc98282611ff6565b5050565b6000805160206134bd833981519152610be581611bc7565b5060d280546001600160a81b0319169055565b6000805160206134bd833981519152610c1081611bc7565b5060d655565b6000805160206134bd833981519152610c2e81611bc7565b610c3661205d565b50565b600654604051634ca1cccb60e11b8152600481018390526000916001600160a01b0316906399439996906024015b60206040518083038186803b158015610c7f57600080fd5b505afa158015610c93573d6000803e3d6000fd5b505050506040513d601f19601f8201168201806040525081019061050c91906132d1565b60606000805160206134bd833981519152610cd181611bc7565b610cdb84846120af565b949350505050565b6000805160206134bd833981519152610cfb81611bc7565b5060d380546001600160a01b0319166001600160a01b0392909216919091179055565b6000805160206134bd833981519152610d3681611bc7565b610c36612662565b6000918252606e602090815260408084206001600160a01b0393909316845291905290205460ff1690565b600954610100900460ff1615808015610d895750600954600160ff909116105b80610da35750303b158015610da3575060095460ff166001145b610dac57600080fd5b6009805460ff191660011790558015610dcf576009805461ff0019166101001790555b610dd761269f565b610ddf6126b3565b610dea6000846126cf565b610e026000805160206134bd833981519152846126cf565b610e2c7f73e573f9566d61418a34d5de3ff49360f9c51fec37f7486551670290f6285dab846126cf565b610e3582610e7f565b8015610ba5576009805461ff0019169055604051600181527f7f26b83ff96e1f2b6a682f133852f6798a09c465da95921460cefb38474024989060200160405180910390a1505050565b6000805160206134bd833981519152610e9781611bc7565b5060d280546001600160a81b0319166001600160a01b0390921691909117600160a01b179055565b60065460405163526267fd60e11b8152600481018390526000916001600160a01b03169063a4c4cffa90602401610c67565b6000805160206134bd833981519152610f0981611bc7565b610bc9826126d9565b610f1a611bd1565b60d4546040516341f63bfd60e01b8152600481018490526000916001600160a01b0316906341f63bfd9060240160006040518083038186803b158015610f5f57600080fd5b505afa158015610f73573d6000803e3d6000fd5b505050506040513d6000823e601f3d908101601f19168201604052610f9b9190810190612f3d565b60608101519091506001600160a01b03163314610fb757600080fd5b60d454604051630f2a280d60e21b8152600481018590526001600160a01b0390911690633ca8a0349060240160206040518083038186803b158015610ffb57600080fd5b505afa15801561100f573d6000803e3d6000fd5b505050506040513d601f19601f820116820180604052508101906110339190612d83565b1561103d57600080fd5b600061104d826101200151611c42565b9050600061105b84836120af565b90508160031415611149576000805160206134dd833981519152338685610120015160008151811061108f5761108f613208565b60200260200101518661012001516001815181106110af576110af613208565b60200260200101518761012001516002815181106110cf576110cf613208565b6020026020010151866000815181106110ea576110ea613208565b60200260200101518760018151811061110557611105613208565b60200260200101518860028151811061112057611120613208565b602002602001015160405161113c98979695949392919061321e565b60405180910390a1611260565b81600214156111f1576000805160206134dd833981519152338685610120015160008151811061117b5761117b613208565b602002602001015186610120015160018151811061119b5761119b613208565b60200260200101516000866000815181106111b8576111b8613208565b6020026020010151876001815181106111d3576111d3613208565b6020026020010151600060405161113c98979695949392919061321e565b6000805160206134dd833981519152338685610120015160008151811061121a5761121a613208565b60200260200101516000808660008151811061123857611238613208565b602002602001015160008060405161125798979695949392919061321e565b60405180910390a15b60d45460405163088d210f60e41b81526001600160a01b03909116906388d210f090611292908890859060040161325f565b600060405180830381600087803b1580156112ac57600080fd5b505af11580156112c0573d6000803e3d6000fd5b5060009250600c91506112d09050565b6040519080825280602002602001820160405280156112f9578160200160208202803683370190505b509050606481600b8151811061131157611311613208565b6020026020010181815250506113446002606460d65461133088611cc1565b61133989611c98565b610b0f906001613290565b505050505050565b611354611bd1565b3360008181526001602052604090205443101561139e5760405162461bcd60e51b815260206004820152600860248201526731b7b7b63237bbb760c11b6044820152606401610601565b6113a781611c19565b60d4546040516341f63bfd60e01b8152600481018690526000916001600160a01b0316906341f63bfd9060240160006040518083038186803b1580156113ec57600080fd5b505afa158015611400573d6000803e3d6000fd5b505050506040513d6000823e601f3d908101601f191682016040526114289190810190612f3d565b60608101519091506001600160a01b0316331461144457600080fd5b60d454604051630f2a280d60e21b8152600481018790526001600160a01b0390911690633ca8a0349060240160206040518083038186803b15801561148857600080fd5b505afa15801561149c573d6000803e3d6000fd5b505050506040513d601f19601f820116820180604052508101906114c09190612d83565b156114ca57600080fd5b6000841180156114db575060328411155b6114e457600080fd5b6000831180156114f5575060328311155b6114fe57600080fd5b60d7805490600061150e836132ea565b91905055506000611523826101200151611c42565b9050600381101561173757604080516002808252606082018352600092602083019080368337019050509050858160008151811061156357611563613208565b602002602001018181525050848160018151811061158357611583613208565b6020026020010181815250508160011415611625576000805160206134dd83398151915233888561012001516000815181106115c1576115c1613208565b6020026020010151600080866000815181106115df576115df613208565b6020026020010151876001815181106115fa576115fa613208565b6020026020010151600060405161161898979695949392919061321e565b60405180910390a16116cd565b6000805160206134dd833981519152338885610120015160008151811061164e5761164e613208565b602002602001015186610120015160018151811061166e5761166e613208565b602002602001015160008660008151811061168b5761168b613208565b6020026020010151876001815181106116a6576116a6613208565b602002602001015160006040516116c498979695949392919061321e565b60405180910390a15b60d45460405163088d210f60e41b81526001600160a01b03909116906388d210f0906116ff908a90859060040161325f565b600060405180830381600087803b15801561171957600080fd5b505af115801561172d573d6000803e3d6000fd5b5050505050611a13565b33600090815260d560205260408120805491829190611755836132ea565b90915550506040805160038082526080820190925260009160208201606080368337019050509050868160008151811061179157611791613208565b60200260200101818152505085816001815181106117b1576117b1613208565b602090810291909101015260d35460d7546001600160a01b039091169063d19435ff9033906001906032906117e7886061613278565b6117f19190613278565b60d7546117ff896007613278565b6118099190613278565b6040518663ffffffff1660e01b8152600401611829959493929190613305565b60206040518083038186803b15801561184157600080fd5b505afa158015611855573d6000803e3d6000fd5b505050506040513d601f19601f8201168201806040525081019061187991906132d1565b8160028151811061188c5761188c613208565b6020026020010181815250506000805160206134dd83398151915233898661012001516000815181106118c1576118c1613208565b60200260200101518761012001516001815181106118e1576118e1613208565b602002602001015188610120015160028151811061190157611901613208565b60200260200101518660008151811061191c5761191c613208565b60200260200101518760018151811061193757611937613208565b60200260200101518860028151811061195257611952613208565b602002602001015160405161196e98979695949392919061321e565b60405180910390a160d45460405163088d210f60e41b81526001600160a01b03909116906388d210f0906119a8908b90859060040161325f565b600060405180830381600087803b1580156119c257600080fd5b505af11580156119d6573d6000803e3d6000fd5b505033600090815260d5602052604081208054935091506119f6836132ea565b909155505060d78054906000611a0b836132ea565b919050555050505b60408051600c8082526101a08201909252600091602082016101808036833701905050905061138881600b81518110611a4e57611a4e613208565b602002602001018181525050611a826002606460d654611a6d87611cc1565b611a7688611c98565b610b0f906102ee613290565b50505050505050565b6000828152606e6020526040902060010154611aa681611bc7565b610ba58383611ff6565b6000805160206134bd833981519152611ac881611bc7565b611a828787878787876127c8565b600954610100900460ff1615808015611af65750600954600160ff909116105b80611b105750303b158015611b10575060095460ff166001145b611b1957600080fd5b6009805460ff191660011790558015611b3c576009805461ff0019166101001790555b611b468585610d69565b60d480546001600160a01b038086166001600160a01b03199283161790925560d3805492851692909116919091179055600160005580156105ac576009805461ff0019169055604051600181527f7f26b83ff96e1f2b6a682f133852f6798a09c465da95921460cefb38474024989060200160405180910390a15050505050565b610c368133612883565b60a05460ff1615611c175760405162461bcd60e51b815260206004820152601060248201526f14185d5cd8589b194e881c185d5cd95960821b6044820152606401610601565b565b600054611c269043613278565b6001600160a01b03909116600090815260016020526040902055565b600080805b8351811015611c9157838181518110611c6257611c62613208565b6020026020010151600014611c7f5781611c7b816132ea565b9250505b80611c89816132ea565b915050611c47565b5092915050565b6000816101000151600081518110611cb257611cb2613208565b60200260200101519050919050565b6000816101000151600181518110611cb257611cb2613208565b806040015115611e5b57806020015115611d1c5760405162461bcd60e51b8152602060048201526002602482015261070360f41b6044820152606401610601565b8051600090611d2b5783611d34565b611d3484610ebf565b6005546040516323b872dd60e01b8152336004820152306024820152604481018390529192506001600160a01b0316906323b872dd90606401602060405180830381600087803b158015611d8757600080fd5b505af1158015611d9b573d6000803e3d6000fd5b505050506040513d601f19601f82011682018060405250810190611dbf9190612d83565b506000606482600854611dd29190613290565b611ddc91906132af565b600654604051630d3990db60e21b8152600481018390529192506001600160a01b0316906334e6436c90602401602060405180830381600087803b158015611e2357600080fd5b505af1158015611e37573d6000803e3d6000fd5b505050506040513d601f19601f8201168201806040525081019061134491906132d1565b806060015115611e925760405162461bcd60e51b8152602060048201526002602482015261703160f01b6044820152606401610601565b8051600090611ea957611ea484610c39565b611eab565b835b60075460405163b1918c9560e01b81529192506000916001600160a01b039091169063b1918c9590611ee590339086908990600401613333565b602060405180830381600087803b158015611eff57600080fd5b505af1158015611f13573d6000803e3d6000fd5b505050506040513d601f19601f82011682018060405250810190611f379190612d83565b9050806105ac5760405162461bcd60e51b81526020600482015260076024820152666e6f46756e647360c81b6044820152606401610601565b611f7a8282610d3e565b610bc9576000828152606e602090815260408083206001600160a01b03851684529091529020805460ff19166001179055611fb23390565b6001600160a01b0316816001600160a01b0316837f2f8788117e7eff1d82e926ec794901d17c78024a50270940304540a733656f0d60405160405180910390a45050565b6120008282610d3e565b15610bc9576000828152606e602090815260408083206001600160a01b0385168085529252808320805460ff1916905551339285917ff6391f5c32d9c69d2a47ea670b442974b53935d1edc7fd64eb21e047a839171b9190a45050565b6120656128dc565b60a0805460ff191690557f5db9ee0a495bf2e6ff9c91a7834c1ba4fdd244a5e8aa4e537bd38aeae4b073aa335b6040516001600160a01b03909116815260200160405180910390a1565b606060328311156120bf57600080fd5b60d780549060006120cf836132ea565b909155505033600090815260d5602052604081208054916120ef836132ea565b909155505033600081815260d5602052604081205460d35460d75491936001600160a01b039091169163d19435ff919060019060649061212f9088613278565b61213b90610e0d613278565b60d754612149906003613290565b6121539089613278565b6040518663ffffffff1660e01b8152600401612173959493929190613305565b60206040518083038186803b15801561218b57600080fd5b505afa15801561219f573d6000803e3d6000fd5b505050506040513d601f19601f820116820180604052508101906121c391906132d1565b9050816121cf816132ea565b33600090815260d56020526040812080549295509192506121ef836132ea565b909155505060d78054906000612204836132ea565b9091555050846122da5760d35460d7546001600160a01b039091169063d19435ff90339060019060329061223987602f613278565b6122439190613278565b60d7548861225389610225613278565b61225d9190613278565b6122679190613278565b6040518663ffffffff1660e01b8152600401612287959493929190613305565b60206040518083038186803b15801561229f57600080fd5b505afa1580156122b3573d6000803e3d6000fd5b505050506040513d601f19601f820116820180604052508101906122d791906132d1565b94505b83600314156124f657604080516003808252608082019092529060208201606080368337019050509250848360008151811061231857612318613208565b602090810291909101015260d35460d7546001600160a01b039091169063d19435ff90339060019060329061234e876021613278565b6123589190613278565b60d75488612367896075613278565b6123719190613278565b61237b9190613278565b6040518663ffffffff1660e01b815260040161239b959493929190613305565b60206040518083038186803b1580156123b357600080fd5b505afa1580156123c7573d6000803e3d6000fd5b505050506040513d601f19601f820116820180604052508101906123eb91906132d1565b836001815181106123fe576123fe613208565b602090810291909101015260d35460d7546001600160a01b039091169063d19435ff90339060019060329061243487601b613278565b61243e9190613278565b60d7548861244e8961012f613278565b6124589190613278565b6124629190613278565b6040518663ffffffff1660e01b8152600401612482959493929190613305565b60206040518083038186803b15801561249a57600080fd5b505afa1580156124ae573d6000803e3d6000fd5b505050506040513d601f19601f820116820180604052508101906124d291906132d1565b836002815181106124e5576124e5613208565b60200260200101818152505061265a565b8360021415612619576040805160028082526060820183529091602083019080368337019050509250848360008151811061253357612533613208565b602090810291909101015260d35460d7546001600160a01b039091169063d19435ff9033906001906032906125698760f7613278565b6125739190613278565b60d754886125828960c5613278565b61258c9190613278565b6125969190613278565b6040518663ffffffff1660e01b81526004016125b6959493929190613305565b60206040518083038186803b1580156125ce57600080fd5b505afa1580156125e2573d6000803e3d6000fd5b505050506040513d601f19601f8201168201806040525081019061260691906132d1565b836001815181106124e5576124e5613208565b6040805160018082528183019092529060208083019080368337019050509250848360008151811061264d5761264d613208565b6020026020010181815250505b505092915050565b61266a611bd1565b60a0805460ff191660011790557f62e78cea01bee320cd4e420270b5ea74000d11b0c9f74754ebdbfc544b05a2586120923390565b600954610100900460ff16611c1757600080fd5b600954610100900460ff166126c757600080fd5b611c17612925565b610bc98282611f70565b60008190506000816001600160a01b031663c1cc57b06040518163ffffffff1660e01b815260040160006040518083038186803b15801561271957600080fd5b505afa15801561272d573d6000803e3d6000fd5b505050506040513d6000823e601f3d908101601f191682016040526127559190810190613363565b905060005b81518110156127bf5781818151811061277557612775613208565b60209081029190910181015160008381526003909252604090912080546001600160a01b0319166001600160a01b03909216919091179055806127b7816132ea565b91505061275a565b50516002555050565b600480546001600160a01b038089166001600160a01b0319928316179092556005805488841690831617905560068054878416908316179055600780549286169290911691909117905561281b826126d9565b600881905560055460405163095ea7b360e01b81526001600160a01b03868116600483015260001960248301529091169063095ea7b390604401600060405180830381600087803b15801561286f57600080fd5b505af1158015610b74573d6000803e3d6000fd5b61288d8282610d3e565b610bc95761289a81612945565b6128a5836020612957565b6040516020016128b69291906133fd565b60408051601f198184030181529082905262461bcd60e51b825261060191600401613472565b60a05460ff16611c175760405162461bcd60e51b815260206004820152601460248201527314185d5cd8589b194e881b9bdd081c185d5cd95960621b6044820152606401610601565b600954610100900460ff1661293957600080fd5b60a0805460ff19169055565b606061050c6001600160a01b03831660145b60606000612966836002613290565b612971906002613278565b67ffffffffffffffff81111561298957612989612d9e565b6040519080825280601f01601f1916602001820160405280156129b3576020820181803683370190505b509050600360fc1b816000815181106129ce576129ce613208565b60200101906001600160f81b031916908160001a905350600f60fb1b816001815181106129fd576129fd613208565b60200101906001600160f81b031916908160001a9053506000612a21846002613290565b612a2c906001613278565b90505b6001811115612aa4576f181899199a1a9b1b9c1cb0b131b232b360811b85600f1660108110612a6057612a60613208565b1a60f81b828281518110612a7657612a76613208565b60200101906001600160f81b031916908160001a90535060049490941c93612a9d816134a5565b9050612a2f565b508315612ab057600080fd5b9392505050565b600060208284031215612ac957600080fd5b81356001600160e01b031981168114612ab057600080fd5b6001600160a01b0381168114610c3657600080fd5b600080600060608486031215612b0b57600080fd5b8335612b1681612ae1565b92506020840135612b2681612ae1565b929592945050506040919091013590565b600060208284031215612b4957600080fd5b8135612ab081612ae1565b600060208284031215612b6657600080fd5b5035919050565b60008060008060808587031215612b8357600080fd5b5050823594602084013594506040840135936060013592509050565b60008060408385031215612bb257600080fd5b823591506020830135612bc481612ae1565b809150509250929050565b60008060408385031215612be257600080fd5b50508035926020909101359150565b600081518084526020808501945080840160005b83811015612c2157815187529582019590820190600101612c05565b509495945050505050565b602081526000612ab06020830184612bf1565b60008060408385031215612c5257600080fd5b8235612c5d81612ae1565b91506020830135612bc481612ae1565b600080600060608486031215612c8257600080fd5b505081359360208301359350604090920135919050565b60008060008060008060c08789031215612cb257600080fd5b8635612cbd81612ae1565b95506020870135612ccd81612ae1565b94506040870135612cdd81612ae1565b93506060870135612ced81612ae1565b92506080870135612cfd81612ae1565b8092505060a087013590509295509295509295565b60008060008060808587031215612d2857600080fd5b8435612d3381612ae1565b93506020850135612d4381612ae1565b92506040850135612d5381612ae1565b91506060850135612d6381612ae1565b939692955090935050565b80518015158114612d7e57600080fd5b919050565b600060208284031215612d9557600080fd5b612ab082612d6e565b634e487b7160e01b600052604160045260246000fd5b604051610180810167ffffffffffffffff81118282101715612dd857612dd8612d9e565b60405290565b604051601f8201601f1916810167ffffffffffffffff81118282101715612e0757612e07612d9e565b604052919050565b60005b83811015612e2a578181015183820152602001612e12565b83811115612e39576000848401525b50505050565b600082601f830112612e5057600080fd5b815167ffffffffffffffff811115612e6a57612e6a612d9e565b612e7d601f8201601f1916602001612dde565b818152846020838601011115612e9257600080fd5b610cdb826020830160208701612e0f565b8051612d7e81612ae1565b600067ffffffffffffffff821115612ec857612ec8612d9e565b5060051b60200190565b600082601f830112612ee357600080fd5b81516020612ef8612ef383612eae565b612dde565b82815260059290921b84018101918181019086841115612f1757600080fd5b8286015b84811015612f325780518352918301918301612f1b565b509695505050505050565b600060208284031215612f4f57600080fd5b815167ffffffffffffffff80821115612f6757600080fd5b908301906101808286031215612f7c57600080fd5b612f84612db4565b82518152602083015182811115612f9a57600080fd5b612fa687828601612e3f565b602083015250604083015182811115612fbe57600080fd5b612fca87828601612e3f565b604083015250612fdc60608401612ea3565b60608201526080830151608082015260a083015160a082015260c083015160c082015260e083015160e0820152610100808401518381111561301d57600080fd5b61302988828701612ed2565b828401525050610120808401518381111561304357600080fd5b61304f88828701612ed2565b828401525050610140808401518381111561306957600080fd5b61307588828701612ed2565b828401525050610160915061308b828401612d6e565b91810191909152949350505050565b634e487b7160e01b600052601160045260246000fd5b600060ff821660ff8114156130c7576130c761309a565b60010192915050565b600060ff821660ff84168160ff04811182151516156130f1576130f161309a565b029392505050565b600181815b80851115613133578160ff048211156131195761311961309a565b8085161561312657918102915b93841c93908002906130fe565b509250929050565b60008261314a5750600161050c565b816131575750600061050c565b816001811461316d5760028114613177576131a5565b600191505061050c565b60ff8411156131885761318861309a565b6001841b915060ff82111561319f5761319f61309a565b5061050c565b5060208310610133831016604e8410600b84101617156131d9575081810a60ff8111156131d4576131d461309a565b61050c565b6131e383836130f9565b8060ff048211156130f1576130f161309a565b6000612ab060ff841660ff841661313b565b634e487b7160e01b600052603260045260246000fd5b6001600160a01b03989098168852602088019690965260408701949094526060860192909252608085015260a084015260c083015260e08201526101000190565b828152604060208201526000610cdb6040830184612bf1565b6000821982111561328b5761328b61309a565b500190565b60008160001904831182151516156132aa576132aa61309a565b500290565b6000826132cc57634e487b7160e01b600052601260045260246000fd5b500490565b6000602082840312156132e357600080fd5b5051919050565b60006000198214156132fe576132fe61309a565b5060010190565b6001600160a01b03959095168552602085019390935260408401919091526060830152608082015260a00190565b60018060a01b038416815282602082015260606040820152600061335a6060830184612bf1565b95945050505050565b6000602080838503121561337657600080fd5b825167ffffffffffffffff81111561338d57600080fd5b8301601f8101851361339e57600080fd5b80516133ac612ef382612eae565b81815260059190911b820183019083810190878311156133cb57600080fd5b928401925b828410156133f25783516133e381612ae1565b825292840192908401906133d0565b979650505050505050565b7f416363657373436f6e74726f6c3a206163636f756e7420000000000000000000815260008351613435816017850160208801612e0f565b7001034b99036b4b9b9b4b733903937b6329607d1b6017918401918201528351613466816028840160208801612e0f565b01602801949350505050565b6020815260008251806020840152613491816040850160208701612e0f565b601f01601f19169190910160400192915050565b6000816134b4576134b461309a565b50600019019056fe97667070c54ef182b0f5858b034beac1b6f3089aa2d3188bb1e8929f4fa9b9295d24d1b65af28620ba5a8ce3da5dfb3eb2d78c0cdfd4a566b8137141720277fea26469706673582212209c55918701732fce32c6691fff6e96dad4038329e265106d01dbbd8887b2eaca64736f6c63430008090033",
  "linkReferences": {},
  "deployedLinkReferences": {}
}