{
  "_format": "hh-sol-artifact-1",
  "contractName": "BkTraitReroller",
  "sourceName": "contracts/features/BkTraitReroller.sol",
  "abi": [
    {
      "anonymous": false,
      "inputs": [
        {
          "indexed": false,
          "internalType": "uint8",
          "name": "version",
          "type": "uint8"
        }
      ],
      "name": "Initialized",
      "type": "event"
    },
    {
      "anonymous": false,
      "inputs": [
        {
          "indexed": false,
          "internalType": "address",
          "name": "account",
          "type": "address"
        }
      ],
      "name": "Paused",
      "type": "event"
    },
    {
      "anonymous": false,
      "inputs": [
        {
          "indexed": true,
          "internalType": "bytes32",
          "name": "role",
          "type": "bytes32"
        },
        {
          "indexed": true,
          "internalType": "bytes32",
          "name": "previousAdminRole",
          "type": "bytes32"
        },
        {
          "indexed": true,
          "internalType": "bytes32",
          "name": "newAdminRole",
          "type": "bytes32"
        }
      ],
      "name": "RoleAdminChanged",
      "type": "event"
    },
    {
      "anonymous": false,
      "inputs": [
        {
          "indexed": true,
          "internalType": "bytes32",
          "name": "role",
          "type": "bytes32"
        },
        {
          "indexed": true,
          "internalType": "address",
          "name": "account",
          "type": "address"
        },
        {
          "indexed": true,
          "internalType": "address",
          "name": "sender",
          "type": "address"
        }
      ],
      "name": "RoleGranted",
      "type": "event"
    },
    {
      "anonymous": false,
      "inputs": [
        {
          "indexed": true,
          "internalType": "bytes32",
          "name": "role",
          "type": "bytes32"
        },
        {
          "indexed": true,
          "internalType": "address",
          "name": "account",
          "type": "address"
        },
        {
          "indexed": true,
          "internalType": "address",
          "name": "sender",
          "type": "address"
        }
      ],
      "name": "RoleRevoked",
      "type": "event"
    },
    {
      "anonymous": false,
      "inputs": [
        {
          "indexed": false,
          "internalType": "address",
          "name": "account",
          "type": "address"
        },
        {
          "indexed": false,
          "internalType": "uint256",
          "name": "nftId",
          "type": "uint256"
        },
        {
          "indexed": false,
          "internalType": "uint256",
          "name": "oldTrait1",
          "type": "uint256"
        },
        {
          "indexed": false,
          "internalType": "uint256",
          "name": "oldTrait2",
          "type": "uint256"
        },
        {
          "indexed": false,
          "internalType": "uint256",
          "name": "oldTrait3",
          "type": "uint256"
        },
        {
          "indexed": false,
          "internalType": "uint256",
          "name": "newTrait1",
          "type": "uint256"
        },
        {
          "indexed": false,
          "internalType": "uint256",
          "name": "newTrait2",
          "type": "uint256"
        },
        {
          "indexed": false,
          "internalType": "uint256",
          "name": "newTrait3",
          "type": "uint256"
        }
      ],
      "name": "TraitReroll",
      "type": "event"
    },
    {
      "anonymous": false,
      "inputs": [
        {
          "indexed": false,
          "internalType": "address",
          "name": "account",
          "type": "address"
        }
      ],
      "name": "Unpaused",
      "type": "event"
    },
    {
      "inputs": [],
      "name": "DEFAULT_ADMIN_ROLE",
      "outputs": [
        {
          "internalType": "bytes32",
          "name": "",
          "type": "bytes32"
        }
      ],
      "stateMutability": "view",
      "type": "function"
    },
    {
      "inputs": [
        {
          "internalType": "address",
          "name": "_operator",
          "type": "address"
        },
        {
          "internalType": "address",
          "name": "_blocklistAddress",
          "type": "address"
        }
      ],
      "name": "__Administrable_init",
      "outputs": [],
      "stateMutability": "nonpayable",
      "type": "function"
    },
    {
      "inputs": [],
      "name": "autoReturnRate",
      "outputs": [
        {
          "internalType": "uint256",
          "name": "",
          "type": "uint256"
        }
      ],
      "stateMutability": "view",
      "type": "function"
    },
    {
      "inputs": [
        {
          "internalType": "uint256",
          "name": "bctAmount",
          "type": "uint256"
        }
      ],
      "name": "bctToStabletoken",
      "outputs": [
        {
          "internalType": "uint256",
          "name": "",
          "type": "uint256"
        }
      ],
      "stateMutability": "view",
      "type": "function"
    },
    {
      "inputs": [
        {
          "internalType": "uint256",
          "name": "chosenTrait",
          "type": "uint256"
        },
        {
          "internalType": "uint256",
          "name": "traitCount",
          "type": "uint256"
        }
      ],
      "name": "getRerolledTraits",
      "outputs": [
        {
          "internalType": "uint256[]",
          "name": "traits",
          "type": "uint256[]"
        }
      ],
      "stateMutability": "nonpayable",
      "type": "function"
    },
    {
      "inputs": [
        {
          "internalType": "bytes32",
          "name": "role",
          "type": "bytes32"
        }
      ],
      "name": "getRoleAdmin",
      "outputs": [
        {
          "internalType": "bytes32",
          "name": "",
          "type": "bytes32"
        }
      ],
      "stateMutability": "view",
      "type": "function"
    },
    {
      "inputs": [
        {
          "internalType": "bytes32",
          "name": "role",
          "type": "bytes32"
        },
        {
          "internalType": "address",
          "name": "account",
          "type": "address"
        }
      ],
      "name": "grantRole",
      "outputs": [],
      "stateMutability": "nonpayable",
      "type": "function"
    },
    {
      "inputs": [],
      "name": "hasBlocklist",
      "outputs": [
        {
          "internalType": "bool",
          "name": "",
          "type": "bool"
        }
      ],
      "stateMutability": "view",
      "type": "function"
    },
    {
      "inputs": [
        {
          "internalType": "bytes32",
          "name": "role",
          "type": "bytes32"
        },
        {
          "internalType": "address",
          "name": "account",
          "type": "address"
        }
      ],
      "name": "hasRole",
      "outputs": [
        {
          "internalType": "bool",
          "name": "",
          "type": "bool"
        }
      ],
      "stateMutability": "view",
      "type": "function"
    },
    {
      "inputs": [
        {
          "internalType": "address",
          "name": "_operator",
          "type": "address"
        },
        {
          "internalType": "address",
          "name": "_blocklist",
          "type": "address"
        },
        {
          "internalType": "address",
          "name": "_nft",
          "type": "address"
        },
        {
          "internalType": "address",
          "name": "_result",
          "type": "address"
        }
      ],
      "name": "initialize",
      "outputs": [],
      "stateMutability": "nonpayable",
      "type": "function"
    },
    {
      "inputs": [],
      "name": "lockPeriod",
      "outputs": [
        {
          "internalType": "uint256",
          "name": "",
          "type": "uint256"
        }
      ],
      "stateMutability": "view",
      "type": "function"
    },
    {
      "inputs": [],
      "name": "pause",
      "outputs": [],
      "stateMutability": "nonpayable",
      "type": "function"
    },
    {
      "inputs": [],
      "name": "paused",
      "outputs": [
        {
          "internalType": "bool",
          "name": "",
          "type": "bool"
        }
      ],
      "stateMutability": "view",
      "type": "function"
    },
    {
      "inputs": [],
      "name": "paymentContracts",
      "outputs": [
        {
          "internalType": "contract IBkERC20",
          "name": "bct",
          "type": "address"
        },
        {
          "internalType": "contract IBkERC20",
          "name": "busd",
          "type": "address"
        },
        {
          "internalType": "contract ICommunityPool",
          "name": "pool",
          "type": "address"
        },
        {
          "internalType": "contract IBkFarm",
          "name": "farm",
          "type": "address"
        }
      ],
      "stateMutability": "view",
      "type": "function"
    },
    {
      "inputs": [
        {
          "internalType": "address",
          "name": "",
          "type": "address"
        }
      ],
      "name": "playerNonce",
      "outputs": [
        {
          "internalType": "uint256",
          "name": "",
          "type": "uint256"
        }
      ],
      "stateMutability": "view",
      "type": "function"
    },
    {
      "inputs": [
        {
          "internalType": "uint256",
          "name": "nftId",
          "type": "uint256"
        },
        {
          "internalType": "uint256",
          "name": "chosenTrait1",
          "type": "uint256"
        },
        {
          "internalType": "uint256",
          "name": "chosenTrait2",
          "type": "uint256"
        }
      ],
      "name": "reassemble",
      "outputs": [],
      "stateMutability": "nonpayable",
      "type": "function"
    },
    {
      "inputs": [
        {
          "internalType": "address",
          "name": "tokenAddress",
          "type": "address"
        },
        {
          "internalType": "address",
          "name": "to",
          "type": "address"
        },
        {
          "internalType": "uint256",
          "name": "amount",
          "type": "uint256"
        }
      ],
      "name": "recoverERC20",
      "outputs": [],
      "stateMutability": "nonpayable",
      "type": "function"
    },
    {
      "inputs": [
        {
          "internalType": "bytes32",
          "name": "role",
          "type": "bytes32"
        },
        {
          "internalType": "address",
          "name": "account",
          "type": "address"
        }
      ],
      "name": "renounceRole",
      "outputs": [],
      "stateMutability": "nonpayable",
      "type": "function"
    },
    {
      "inputs": [],
      "name": "resetBlocklist",
      "outputs": [],
      "stateMutability": "nonpayable",
      "type": "function"
    },
    {
      "inputs": [
        {
          "internalType": "uint256",
          "name": "",
          "type": "uint256"
        }
      ],
      "name": "resources",
      "outputs": [
        {
          "internalType": "address",
          "name": "",
          "type": "address"
        }
      ],
      "stateMutability": "view",
      "type": "function"
    },
    {
      "inputs": [],
      "name": "resourcesCount",
      "outputs": [
        {
          "internalType": "uint256",
          "name": "",
          "type": "uint256"
        }
      ],
      "stateMutability": "view",
      "type": "function"
    },
    {
      "inputs": [
        {
          "internalType": "bytes32",
          "name": "role",
          "type": "bytes32"
        },
        {
          "internalType": "address",
          "name": "account",
          "type": "address"
        }
      ],
      "name": "revokeRole",
      "outputs": [],
      "stateMutability": "nonpayable",
      "type": "function"
    },
    {
      "inputs": [],
      "name": "scale",
      "outputs": [
        {
          "internalType": "uint256",
          "name": "",
          "type": "uint256"
        }
      ],
      "stateMutability": "view",
      "type": "function"
    },
    {
      "inputs": [
        {
          "internalType": "address",
          "name": "blocklistAddress",
          "type": "address"
        }
      ],
      "name": "setBlocklist",
      "outputs": [],
      "stateMutability": "nonpayable",
      "type": "function"
    },
    {
      "inputs": [
        {
          "internalType": "address",
          "name": "_result",
          "type": "address"
        }
      ],
      "name": "setRResult",
      "outputs": [],
      "stateMutability": "nonpayable",
      "type": "function"
    },
    {
      "inputs": [
        {
          "internalType": "uint256",
          "name": "_scale",
          "type": "uint256"
        }
      ],
      "name": "setScale",
      "outputs": [],
      "stateMutability": "nonpayable",
      "type": "function"
    },
    {
      "inputs": [
        {
          "internalType": "address",
          "name": "_bct",
          "type": "address"
        },
        {
          "internalType": "address",
          "name": "_busd",
          "type": "address"
        },
        {
          "internalType": "address",
          "name": "_pool",
          "type": "address"
        },
        {
          "internalType": "address",
          "name": "_farm",
          "type": "address"
        },
        {
          "internalType": "address",
          "name": "_resourcesSource",
          "type": "address"
        },
        {
          "internalType": "uint256",
          "name": "_autoReturnRate",
          "type": "uint256"
        }
      ],
      "name": "setupPaymentModule",
      "outputs": [],
      "stateMutability": "nonpayable",
      "type": "function"
    },
    {
      "inputs": [
        {
          "internalType": "uint256",
          "name": "busdAmount",
          "type": "uint256"
        }
      ],
      "name": "stabletokenToBct",
      "outputs": [
        {
          "internalType": "uint256",
          "name": "",
          "type": "uint256"
        }
      ],
      "stateMutability": "view",
      "type": "function"
    },
    {
      "inputs": [
        {
          "internalType": "bytes4",
          "name": "interfaceId",
          "type": "bytes4"
        }
      ],
      "name": "supportsInterface",
      "outputs": [
        {
          "internalType": "bool",
          "name": "",
          "type": "bool"
        }
      ],
      "stateMutability": "view",
      "type": "function"
    },
    {
      "inputs": [
        {
          "internalType": "uint256",
          "name": "nftId",
          "type": "uint256"
        },
        {
          "internalType": "uint256",
          "name": "chosenTrait",
          "type": "uint256"
        }
      ],
      "name": "traitReroll",
      "outputs": [],
      "stateMutability": "nonpayable",
      "type": "function"
    },
    {
      "inputs": [
        {
          "internalType": "uint256",
          "name": "nftId",
          "type": "uint256"
        },
        {
          "internalType": "uint256",
          "name": "trait1",
          "type": "uint256"
        },
        {
          "internalType": "uint256",
          "name": "trait2",
          "type": "uint256"
        },
        {
          "internalType": "uint256",
          "name": "trait3",
          "type": "uint256"
        }
      ],
      "name": "transmute",
      "outputs": [],
      "stateMutability": "nonpayable",
      "type": "function"
    },
    {
      "inputs": [],
      "name": "unpause",
      "outputs": [],
      "stateMutability": "nonpayable",
      "type": "function"
    },
    {
      "inputs": [
        {
          "internalType": "address",
          "name": "sourceContract",
          "type": "address"
        }
      ],
      "name": "updateResources",
      "outputs": [],
      "stateMutability": "nonpayable",
      "type": "function"
    }
  ],
  "bytecode": "0x608060405234801561001057600080fd5b506133db806100206000396000f3fe608060405234801561001057600080fd5b50600436106101fb5760003560e01c8063634210f41161011a578063b5f63f60116100ad578063d336ae231161007c578063d336ae2314610486578063d547741f14610499578063f4b93f45146104ac578063f51e181a146104bf578063f8c8765e146104c857600080fd5b8063b5f63f6014610444578063c3c87d5314610457578063c429d3491461046a578063c4576ef81461047357600080fd5b806391d14854116100e957806391d1485414610403578063931da89b14610416578063a217fddf14610429578063aef18ae71461043157600080fd5b8063634210f4146103b45780637b01d59f146103c8578063804ecd83146103e85780638456cb59146103fb57600080fd5b806336568abe116101925780633fd8b02f116101615780633fd8b02f1461038457806341e80ad91461038d57806351ac7b8c146103a05780635c975abb146103a957600080fd5b806336568abe1461034e5780633c7fd822146103615780633edc3519146103695780633f4ba83a1461037c57600080fd5b8063248a9ca3116101ce578063248a9ca3146102ac578063285f92c1146102cf5780632f2ff15d146102e2578063323b6cb7146102f557600080fd5b806301ffc9a7146102005780631171bda91461022857806315e532461461023d578063244d6daa1461026b575b600080fd5b61021361020e366004612960565b6104db565b60405190151581526020015b60405180910390f35b61023b61023636600461299f565b610512565b005b61025d61024b3660046129e0565b60d56020526000908152604090205481565b60405190815260200161021f565b6102946102793660046129fd565b6003602052600090815260409020546001600160a01b031681565b6040516001600160a01b03909116815260200161021f565b61025d6102ba3660046129fd565b6000908152606e602052604090206001015490565b61023b6102dd366004612a16565b6105b3565b61023b6102f0366004612a48565b610b80565b60045460055460065460075461031b936001600160a01b03908116938116928116911684565b604080516001600160a01b039586168152938516602085015291841691830191909152909116606082015260800161021f565b61023b61035c366004612a48565b610baa565b61023b610bcd565b61023b6103773660046129fd565b610bf8565b61023b610c16565b61025d60005481565b61025d61039b3660046129fd565b610c39565b61025d60025481565b60a05460ff16610213565b60d25461021390600160a01b900460ff1681565b6103db6103d6366004612a78565b610cb7565b60405161021f9190612ad5565b61023b6103f63660046129e0565b610ce3565b61023b610d1e565b610213610411366004612a48565b610d3e565b61023b610424366004612ae8565b610d69565b61025d600081565b61023b61043f3660046129e0565b610e7f565b61025d6104523660046129fd565b610ebf565b61023b6104653660046129e0565b610ef1565b61025d60085481565b61023b610481366004612a78565b610f12565b61023b610494366004612b16565b61134c565b61023b6104a7366004612a48565b611a1f565b61023b6104ba366004612b42565b611a44565b61025d60d65481565b61023b6104d6366004612bbb565b611a6a565b60006001600160e01b03198216637965db0b60e01b148061050c57506301ffc9a760e01b6001600160e01b03198316145b92915050565b60008051602061336683398151915261052a81611b5b565b60405163a9059cbb60e01b81526001600160a01b0384811660048301526024820184905285169063a9059cbb90604401602060405180830381600087803b15801561057457600080fd5b505af1158015610588573d6000803e3d6000fd5b505050506040513d601f19601f820116820180604052508101906105ac9190612c2c565b5050505050565b6105bb611b65565b3360008181526001602052604090205443101561060a5760405162461bcd60e51b815260206004820152600860248201526731b7b7b63237bbb760c11b60448201526064015b60405180910390fd5b61061381611bad565b60d4546040516341f63bfd60e01b8152600481018790526000916001600160a01b0316906341f63bfd9060240160006040518083038186803b15801561065857600080fd5b505afa15801561066c573d6000803e3d6000fd5b505050506040513d6000823e601f3d908101601f191682016040526106949190810190612de6565b60608101519091506001600160a01b031633146106b057600080fd5b60d454604051630f2a280d60e21b8152600481018890526001600160a01b0390911690633ca8a0349060240160206040518083038186803b1580156106f457600080fd5b505afa158015610708573d6000803e3d6000fd5b505050506040513d601f19601f8201168201806040525081019061072c9190612c2c565b1561073657600080fd5b600085118015610747575060368511155b61075057600080fd5b600084118015610761575060368411155b61076a57600080fd5b60008311801561077b575060368311155b61078457600080fd5b610792816101200151611bd6565b60031461079e57600080fd5b600060328611156107b757806107b381612f59565b9150505b60328511156107ce57806107ca81612f59565b9150505b60328411156107e557806107e181612f59565b9150505b600060026107f4836003612f79565b6107fe919061309f565b6040805160038082526080820190925260ff9290921692506000919060208201606080368337019050509050878160008151811061083e5761083e6130b1565b602002602001018181525050868160018151811061085e5761085e6130b1565b602002602001018181525050858160028151811061087e5761087e6130b1565b602002602001018181525050600080516020613386833981519152338a8661012001516000815181106108b3576108b36130b1565b60200260200101518761012001516001815181106108d3576108d36130b1565b60200260200101518861012001516002815181106108f3576108f36130b1565b60200260200101518660008151811061090e5761090e6130b1565b602002602001015187600181518110610929576109296130b1565b602002602001015188600281518110610944576109446130b1565b60200260200101516040516109609897969594939291906130c7565b60405180910390a160d45460405163088d210f60e41b81526001600160a01b03909116906388d210f09061099a908c908590600401613108565b600060405180830381600087803b1580156109b457600080fd5b505af11580156109c8573d6000803e3d6000fd5b5060009250601a91506109d89050565b604051908082528060200260200182016040528015610a01578160200160208202803683370190505b5090506109c481600a81518110610a1a57610a1a6130b1565b60200260200101818152505061271081600b81518110610a3c57610a3c6130b1565b6020026020010181815250506109c481600781518110610a5e57610a5e6130b1565b602002602001018181525050606481600981518110610a7f57610a7f6130b1565b602002602001018181525050606481610a9787611c2c565b610aa290600d613121565b81518110610ab257610ab26130b1565b6020908102919091010152610ac8836064613139565b81601581518110610adb57610adb6130b1565b602002602001018181525050610b746002606460d654610afa89611c55565b610b038a611c2c565b610b0f906105dc613139565b610b199190613139565b610b2b90670de0b6b3a7640000613139565b610b359190613139565b610b3f9190613158565b610b499190613158565b6040805160808101825260018082526020820152600091810182905260608101919091528390611c6f565b50505050505050505050565b6000828152606e6020526040902060010154610b9b81611b5b565b610ba58383611f04565b505050565b6001600160a01b0381163314610bbf57600080fd5b610bc98282611f8a565b5050565b600080516020613366833981519152610be581611b5b565b5060d280546001600160a81b0319169055565b600080516020613366833981519152610c1081611b5b565b5060d655565b600080516020613366833981519152610c2e81611b5b565b610c36611ff1565b50565b600654604051634ca1cccb60e11b8152600481018390526000916001600160a01b0316906399439996906024015b60206040518083038186803b158015610c7f57600080fd5b505afa158015610c93573d6000803e3d6000fd5b505050506040513d601f19601f8201168201806040525081019061050c919061317a565b6060600080516020613366833981519152610cd181611b5b565b610cdb8484612043565b949350505050565b600080516020613366833981519152610cfb81611b5b565b5060d380546001600160a01b0319166001600160a01b0392909216919091179055565b600080516020613366833981519152610d3681611b5b565b610c3661250b565b6000918252606e602090815260408084206001600160a01b0393909316845291905290205460ff1690565b600954610100900460ff1615808015610d895750600954600160ff909116105b80610da35750303b158015610da3575060095460ff166001145b610dac57600080fd5b6009805460ff191660011790558015610dcf576009805461ff0019166101001790555b610dd7612548565b610ddf61255c565b610dea600084612578565b610e0260008051602061336683398151915284612578565b610e2c7f73e573f9566d61418a34d5de3ff49360f9c51fec37f7486551670290f6285dab84612578565b610e3582610e7f565b8015610ba5576009805461ff0019169055604051600181527f7f26b83ff96e1f2b6a682f133852f6798a09c465da95921460cefb38474024989060200160405180910390a1505050565b600080516020613366833981519152610e9781611b5b565b5060d280546001600160a81b0319166001600160a01b0390921691909117600160a01b179055565b60065460405163526267fd60e11b8152600481018390526000916001600160a01b03169063a4c4cffa90602401610c67565b600080516020613366833981519152610f0981611b5b565b610bc982612582565b610f1a611b65565b60d4546040516341f63bfd60e01b8152600481018490526000916001600160a01b0316906341f63bfd9060240160006040518083038186803b158015610f5f57600080fd5b505afa158015610f73573d6000803e3d6000fd5b505050506040513d6000823e601f3d908101601f19168201604052610f9b9190810190612de6565b60608101519091506001600160a01b03163314610fb757600080fd5b60d454604051630f2a280d60e21b8152600481018590526001600160a01b0390911690633ca8a0349060240160206040518083038186803b158015610ffb57600080fd5b505afa15801561100f573d6000803e3d6000fd5b505050506040513d601f19601f820116820180604052508101906110339190612c2c565b1561103d57600080fd5b600061104d826101200151611bd6565b9050600061105b8483612043565b9050816003141561114957600080516020613386833981519152338685610120015160008151811061108f5761108f6130b1565b60200260200101518661012001516001815181106110af576110af6130b1565b60200260200101518761012001516002815181106110cf576110cf6130b1565b6020026020010151866000815181106110ea576110ea6130b1565b602002602001015187600181518110611105576111056130b1565b602002602001015188600281518110611120576111206130b1565b602002602001015160405161113c9897969594939291906130c7565b60405180910390a1611260565b81600214156111f157600080516020613386833981519152338685610120015160008151811061117b5761117b6130b1565b602002602001015186610120015160018151811061119b5761119b6130b1565b60200260200101516000866000815181106111b8576111b86130b1565b6020026020010151876001815181106111d3576111d36130b1565b6020026020010151600060405161113c9897969594939291906130c7565b600080516020613386833981519152338685610120015160008151811061121a5761121a6130b1565b602002602001015160008086600081518110611238576112386130b1565b60200260200101516000806040516112579897969594939291906130c7565b60405180910390a15b60d45460405163088d210f60e41b81526001600160a01b03909116906388d210f0906112929088908590600401613108565b600060405180830381600087803b1580156112ac57600080fd5b505af11580156112c0573d6000803e3d6000fd5b5060009250600c91506112d09050565b6040519080825280602002602001820160405280156112f9578160200160208202803683370190505b509050606481600b81518110611311576113116130b1565b6020026020010181815250506113446002606460d65461133088611c55565b61133989611c2c565b610b0f906001613139565b505050505050565b611354611b65565b3360008181526001602052604090205443101561139e5760405162461bcd60e51b815260206004820152600860248201526731b7b7b63237bbb760c11b6044820152606401610601565b6113a781611bad565b60d4546040516341f63bfd60e01b8152600481018690526000916001600160a01b0316906341f63bfd9060240160006040518083038186803b1580156113ec57600080fd5b505afa158015611400573d6000803e3d6000fd5b505050506040513d6000823e601f3d908101601f191682016040526114289190810190612de6565b60608101519091506001600160a01b0316331461144457600080fd5b60d454604051630f2a280d60e21b8152600481018790526001600160a01b0390911690633ca8a0349060240160206040518083038186803b15801561148857600080fd5b505afa15801561149c573d6000803e3d6000fd5b505050506040513d601f19601f820116820180604052508101906114c09190612c2c565b156114ca57600080fd5b6000841180156114db575060328411155b6114e457600080fd5b6000831180156114f5575060328311155b6114fe57600080fd5b600061150e826101200151611bd6565b9050600381101561172257604080516002808252606082018352600092602083019080368337019050509050858160008151811061154e5761154e6130b1565b602002602001018181525050848160018151811061156e5761156e6130b1565b60200260200101818152505081600114156116105760008051602061338683398151915233888561012001516000815181106115ac576115ac6130b1565b6020026020010151600080866000815181106115ca576115ca6130b1565b6020026020010151876001815181106115e5576115e56130b1565b602002602001015160006040516116039897969594939291906130c7565b60405180910390a16116b8565b6000805160206133868339815191523388856101200151600081518110611639576116396130b1565b6020026020010151866101200151600181518110611659576116596130b1565b6020026020010151600086600081518110611676576116766130b1565b602002602001015187600181518110611691576116916130b1565b602002602001015160006040516116af9897969594939291906130c7565b60405180910390a15b60d45460405163088d210f60e41b81526001600160a01b03909116906388d210f0906116ea908a908590600401613108565b600060405180830381600087803b15801561170457600080fd5b505af1158015611718573d6000803e3d6000fd5b50505050506119a7565b33600090815260d56020526040812080549182919061174083613193565b90915550506040805160038082526080820190925260009160208201606080368337019050509050868160008151811061177c5761177c6130b1565b602002602001018181525050858160018151811061179c5761179c6130b1565b602090810291909101015260d3546001600160a01b031663d19435ff33600160326117c8876061613121565b6117d3886007613121565b6040518663ffffffff1660e01b81526004016117f39594939291906131ae565b60206040518083038186803b15801561180b57600080fd5b505afa15801561181f573d6000803e3d6000fd5b505050506040513d601f19601f82011682018060405250810190611843919061317a565b81600281518110611856576118566130b1565b602002602001018181525050600080516020613386833981519152338986610120015160008151811061188b5761188b6130b1565b60200260200101518761012001516001815181106118ab576118ab6130b1565b60200260200101518861012001516002815181106118cb576118cb6130b1565b6020026020010151866000815181106118e6576118e66130b1565b602002602001015187600181518110611901576119016130b1565b60200260200101518860028151811061191c5761191c6130b1565b60200260200101516040516119389897969594939291906130c7565b60405180910390a160d45460405163088d210f60e41b81526001600160a01b03909116906388d210f090611972908b908590600401613108565b600060405180830381600087803b15801561198c57600080fd5b505af11580156119a0573d6000803e3d6000fd5b5050505050505b60408051600c8082526101a08201909252600091602082016101808036833701905050905061138881600b815181106119e2576119e26130b1565b602002602001018181525050611a166002606460d654611a0187611c55565b611a0a88611c2c565b610b0f906102ee613139565b50505050505050565b6000828152606e6020526040902060010154611a3a81611b5b565b610ba58383611f8a565b600080516020613366833981519152611a5c81611b5b565b611a16878787878787612671565b600954610100900460ff1615808015611a8a5750600954600160ff909116105b80611aa45750303b158015611aa4575060095460ff166001145b611aad57600080fd5b6009805460ff191660011790558015611ad0576009805461ff0019166101001790555b611ada8585610d69565b60d480546001600160a01b038086166001600160a01b03199283161790925560d3805492851692909116919091179055600160005580156105ac576009805461ff0019169055604051600181527f7f26b83ff96e1f2b6a682f133852f6798a09c465da95921460cefb38474024989060200160405180910390a15050505050565b610c36813361272c565b60a05460ff1615611bab5760405162461bcd60e51b815260206004820152601060248201526f14185d5cd8589b194e881c185d5cd95960821b6044820152606401610601565b565b600054611bba9043613121565b6001600160a01b03909116600090815260016020526040902055565b600080805b8351811015611c2557838181518110611bf657611bf66130b1565b6020026020010151600014611c135781611c0f81613193565b9250505b80611c1d81613193565b915050611bdb565b5092915050565b6000816101000151600081518110611c4657611c466130b1565b60200260200101519050919050565b6000816101000151600181518110611c4657611c466130b1565b806040015115611def57806020015115611cb05760405162461bcd60e51b8152602060048201526002602482015261070360f41b6044820152606401610601565b8051600090611cbf5783611cc8565b611cc884610ebf565b6005546040516323b872dd60e01b8152336004820152306024820152604481018390529192506001600160a01b0316906323b872dd90606401602060405180830381600087803b158015611d1b57600080fd5b505af1158015611d2f573d6000803e3d6000fd5b505050506040513d601f19601f82011682018060405250810190611d539190612c2c565b506000606482600854611d669190613139565b611d709190613158565b600654604051630d3990db60e21b8152600481018390529192506001600160a01b0316906334e6436c90602401602060405180830381600087803b158015611db757600080fd5b505af1158015611dcb573d6000803e3d6000fd5b505050506040513d601f19601f82011682018060405250810190611344919061317a565b806060015115611e265760405162461bcd60e51b8152602060048201526002602482015261703160f01b6044820152606401610601565b8051600090611e3d57611e3884610c39565b611e3f565b835b60075460405163b1918c9560e01b81529192506000916001600160a01b039091169063b1918c9590611e79903390869089906004016131dc565b602060405180830381600087803b158015611e9357600080fd5b505af1158015611ea7573d6000803e3d6000fd5b505050506040513d601f19601f82011682018060405250810190611ecb9190612c2c565b9050806105ac5760405162461bcd60e51b81526020600482015260076024820152666e6f46756e647360c81b6044820152606401610601565b611f0e8282610d3e565b610bc9576000828152606e602090815260408083206001600160a01b03851684529091529020805460ff19166001179055611f463390565b6001600160a01b0316816001600160a01b0316837f2f8788117e7eff1d82e926ec794901d17c78024a50270940304540a733656f0d60405160405180910390a45050565b611f948282610d3e565b15610bc9576000828152606e602090815260408083206001600160a01b0385168085529252808320805460ff1916905551339285917ff6391f5c32d9c69d2a47ea670b442974b53935d1edc7fd64eb21e047a839171b9190a45050565b611ff9612785565b60a0805460ff191690557f5db9ee0a495bf2e6ff9c91a7834c1ba4fdd244a5e8aa4e537bd38aeae4b073aa335b6040516001600160a01b03909116815260200160405180910390a1565b6060603283111561205357600080fd5b33600090815260d56020526040812080549161206e83613193565b909155505033600081815260d5602052604081205460d35490926001600160a01b039091169063d19435ff90600160646120aa87610e0d613121565b6120b5886003613139565b6040518663ffffffff1660e01b81526004016120d59594939291906131ae565b60206040518083038186803b1580156120ed57600080fd5b505afa158015612101573d6000803e3d6000fd5b505050506040513d601f19601f82011682018060405250810190612125919061317a565b90508161213181613193565b925050846121e45760d3546001600160a01b031663d19435ff336001603261215a866061613121565b8761216788610243613121565b6121719190613121565b6040518663ffffffff1660e01b81526004016121919594939291906131ae565b60206040518083038186803b1580156121a957600080fd5b505afa1580156121bd573d6000803e3d6000fd5b505050506040513d601f19601f820116820180604052508101906121e1919061317a565b94505b83600314156123be576040805160038082526080820190925290602082016060803683370190505092508483600081518110612222576122226130b1565b602090810291909101015260d3546001600160a01b031663d19435ff336001603261224e86605d613121565b8761225a88607f613121565b6122649190613121565b6040518663ffffffff1660e01b81526004016122849594939291906131ae565b60206040518083038186803b15801561229c57600080fd5b505afa1580156122b0573d6000803e3d6000fd5b505050506040513d601f19601f820116820180604052508101906122d4919061317a565b836001815181106122e7576122e76130b1565b602090810291909101015260d3546001600160a01b031663d19435ff336001603261231386604d613121565b8761232088610143613121565b61232a9190613121565b6040518663ffffffff1660e01b815260040161234a9594939291906131ae565b60206040518083038186803b15801561236257600080fd5b505afa158015612376573d6000803e3d6000fd5b505050506040513d601f19601f8201168201806040525081019061239a919061317a565b836002815181106123ad576123ad6130b1565b602002602001018181525050612503565b83600214156124c257604080516002808252606082018352909160208301908036833701905050925084836000815181106123fb576123fb6130b1565b602090810291909101015260d3546001600160a01b031663d19435ff336001603261242886610115613121565b87612435886103e5613121565b61243f9190613121565b6040518663ffffffff1660e01b815260040161245f9594939291906131ae565b60206040518083038186803b15801561247757600080fd5b505afa15801561248b573d6000803e3d6000fd5b505050506040513d601f19601f820116820180604052508101906124af919061317a565b836001815181106123ad576123ad6130b1565b604080516001808252818301909252906020808301908036833701905050925084836000815181106124f6576124f66130b1565b6020026020010181815250505b505092915050565b612513611b65565b60a0805460ff191660011790557f62e78cea01bee320cd4e420270b5ea74000d11b0c9f74754ebdbfc544b05a2586120263390565b600954610100900460ff16611bab57600080fd5b600954610100900460ff1661257057600080fd5b611bab6127ce565b610bc98282611f04565b60008190506000816001600160a01b031663c1cc57b06040518163ffffffff1660e01b815260040160006040518083038186803b1580156125c257600080fd5b505afa1580156125d6573d6000803e3d6000fd5b505050506040513d6000823e601f3d908101601f191682016040526125fe919081019061320c565b905060005b81518110156126685781818151811061261e5761261e6130b1565b60209081029190910181015160008381526003909252604090912080546001600160a01b0319166001600160a01b039092169190911790558061266081613193565b915050612603565b50516002555050565b600480546001600160a01b038089166001600160a01b031992831617909255600580548884169083161790556006805487841690831617905560078054928616929091169190911790556126c482612582565b600881905560055460405163095ea7b360e01b81526001600160a01b03868116600483015260001960248301529091169063095ea7b390604401600060405180830381600087803b15801561271857600080fd5b505af1158015610b74573d6000803e3d6000fd5b6127368282610d3e565b610bc957612743816127ee565b61274e836020612800565b60405160200161275f9291906132a6565b60408051601f198184030181529082905262461bcd60e51b82526106019160040161331b565b60a05460ff16611bab5760405162461bcd60e51b815260206004820152601460248201527314185d5cd8589b194e881b9bdd081c185d5cd95960621b6044820152606401610601565b600954610100900460ff166127e257600080fd5b60a0805460ff19169055565b606061050c6001600160a01b03831660145b6060600061280f836002613139565b61281a906002613121565b67ffffffffffffffff81111561283257612832612c47565b6040519080825280601f01601f19166020018201604052801561285c576020820181803683370190505b509050600360fc1b81600081518110612877576128776130b1565b60200101906001600160f81b031916908160001a905350600f60fb1b816001815181106128a6576128a66130b1565b60200101906001600160f81b031916908160001a90535060006128ca846002613139565b6128d5906001613121565b90505b600181111561294d576f181899199a1a9b1b9c1cb0b131b232b360811b85600f1660108110612909576129096130b1565b1a60f81b82828151811061291f5761291f6130b1565b60200101906001600160f81b031916908160001a90535060049490941c936129468161334e565b90506128d8565b50831561295957600080fd5b9392505050565b60006020828403121561297257600080fd5b81356001600160e01b03198116811461295957600080fd5b6001600160a01b0381168114610c3657600080fd5b6000806000606084860312156129b457600080fd5b83356129bf8161298a565b925060208401356129cf8161298a565b929592945050506040919091013590565b6000602082840312156129f257600080fd5b81356129598161298a565b600060208284031215612a0f57600080fd5b5035919050565b60008060008060808587031215612a2c57600080fd5b5050823594602084013594506040840135936060013592509050565b60008060408385031215612a5b57600080fd5b823591506020830135612a6d8161298a565b809150509250929050565b60008060408385031215612a8b57600080fd5b50508035926020909101359150565b600081518084526020808501945080840160005b83811015612aca57815187529582019590820190600101612aae565b509495945050505050565b6020815260006129596020830184612a9a565b60008060408385031215612afb57600080fd5b8235612b068161298a565b91506020830135612a6d8161298a565b600080600060608486031215612b2b57600080fd5b505081359360208301359350604090920135919050565b60008060008060008060c08789031215612b5b57600080fd5b8635612b668161298a565b95506020870135612b768161298a565b94506040870135612b868161298a565b93506060870135612b968161298a565b92506080870135612ba68161298a565b8092505060a087013590509295509295509295565b60008060008060808587031215612bd157600080fd5b8435612bdc8161298a565b93506020850135612bec8161298a565b92506040850135612bfc8161298a565b91506060850135612c0c8161298a565b939692955090935050565b80518015158114612c2757600080fd5b919050565b600060208284031215612c3e57600080fd5b61295982612c17565b634e487b7160e01b600052604160045260246000fd5b604051610180810167ffffffffffffffff81118282101715612c8157612c81612c47565b60405290565b604051601f8201601f1916810167ffffffffffffffff81118282101715612cb057612cb0612c47565b604052919050565b60005b83811015612cd3578181015183820152602001612cbb565b83811115612ce2576000848401525b50505050565b600082601f830112612cf957600080fd5b815167ffffffffffffffff811115612d1357612d13612c47565b612d26601f8201601f1916602001612c87565b818152846020838601011115612d3b57600080fd5b610cdb826020830160208701612cb8565b8051612c278161298a565b600067ffffffffffffffff821115612d7157612d71612c47565b5060051b60200190565b600082601f830112612d8c57600080fd5b81516020612da1612d9c83612d57565b612c87565b82815260059290921b84018101918181019086841115612dc057600080fd5b8286015b84811015612ddb5780518352918301918301612dc4565b509695505050505050565b600060208284031215612df857600080fd5b815167ffffffffffffffff80821115612e1057600080fd5b908301906101808286031215612e2557600080fd5b612e2d612c5d565b82518152602083015182811115612e4357600080fd5b612e4f87828601612ce8565b602083015250604083015182811115612e6757600080fd5b612e7387828601612ce8565b604083015250612e8560608401612d4c565b60608201526080830151608082015260a083015160a082015260c083015160c082015260e083015160e08201526101008084015183811115612ec657600080fd5b612ed288828701612d7b565b8284015250506101208084015183811115612eec57600080fd5b612ef888828701612d7b565b8284015250506101408084015183811115612f1257600080fd5b612f1e88828701612d7b565b8284015250506101609150612f34828401612c17565b91810191909152949350505050565b634e487b7160e01b600052601160045260246000fd5b600060ff821660ff811415612f7057612f70612f43565b60010192915050565b600060ff821660ff84168160ff0481118215151615612f9a57612f9a612f43565b029392505050565b600181815b80851115612fdc578160ff04821115612fc257612fc2612f43565b80851615612fcf57918102915b93841c9390800290612fa7565b509250929050565b600082612ff35750600161050c565b816130005750600061050c565b816001811461301657600281146130205761304e565b600191505061050c565b60ff84111561303157613031612f43565b6001841b915060ff82111561304857613048612f43565b5061050c565b5060208310610133831016604e8410600b8410161715613082575081810a60ff81111561307d5761307d612f43565b61050c565b61308c8383612fa2565b8060ff04821115612f9a57612f9a612f43565b600061295960ff841660ff8416612fe4565b634e487b7160e01b600052603260045260246000fd5b6001600160a01b03989098168852602088019690965260408701949094526060860192909252608085015260a084015260c083015260e08201526101000190565b828152604060208201526000610cdb6040830184612a9a565b6000821982111561313457613134612f43565b500190565b600081600019048311821515161561315357613153612f43565b500290565b60008261317557634e487b7160e01b600052601260045260246000fd5b500490565b60006020828403121561318c57600080fd5b5051919050565b60006000198214156131a7576131a7612f43565b5060010190565b6001600160a01b03959095168552602085019390935260408401919091526060830152608082015260a00190565b60018060a01b03841681528260208201526060604082015260006132036060830184612a9a565b95945050505050565b6000602080838503121561321f57600080fd5b825167ffffffffffffffff81111561323657600080fd5b8301601f8101851361324757600080fd5b8051613255612d9c82612d57565b81815260059190911b8201830190838101908783111561327457600080fd5b928401925b8284101561329b57835161328c8161298a565b82529284019290840190613279565b979650505050505050565b7f416363657373436f6e74726f6c3a206163636f756e74200000000000000000008152600083516132de816017850160208801612cb8565b7001034b99036b4b9b9b4b733903937b6329607d1b601791840191820152835161330f816028840160208801612cb8565b01602801949350505050565b602081526000825180602084015261333a816040850160208701612cb8565b601f01601f19169190910160400192915050565b60008161335d5761335d612f43565b50600019019056fe97667070c54ef182b0f5858b034beac1b6f3089aa2d3188bb1e8929f4fa9b9295d24d1b65af28620ba5a8ce3da5dfb3eb2d78c0cdfd4a566b8137141720277fea2646970667358221220c557c9f58d9004e47a8aca200bd186d71532dfcced86257105e7b6310b01c38e64736f6c63430008090033",
  "linkReferences": {},
  "deployedLinkReferences": {}
}