{
  "_format": "hh-sol-artifact-1",
  "contractName": "BkTraitReroller",
  "sourceName": "contracts/features/BkTraitReroller.sol",
  "abi": [
    {
      "anonymous": false,
      "inputs": [
        {
          "indexed": false,
          "internalType": "uint8",
          "name": "version",
          "type": "uint8"
        }
      ],
      "name": "Initialized",
      "type": "event"
    },
    {
      "anonymous": false,
      "inputs": [
        {
          "indexed": false,
          "internalType": "address",
          "name": "account",
          "type": "address"
        }
      ],
      "name": "Paused",
      "type": "event"
    },
    {
      "anonymous": false,
      "inputs": [
        {
          "indexed": true,
          "internalType": "bytes32",
          "name": "role",
          "type": "bytes32"
        },
        {
          "indexed": true,
          "internalType": "bytes32",
          "name": "previousAdminRole",
          "type": "bytes32"
        },
        {
          "indexed": true,
          "internalType": "bytes32",
          "name": "newAdminRole",
          "type": "bytes32"
        }
      ],
      "name": "RoleAdminChanged",
      "type": "event"
    },
    {
      "anonymous": false,
      "inputs": [
        {
          "indexed": true,
          "internalType": "bytes32",
          "name": "role",
          "type": "bytes32"
        },
        {
          "indexed": true,
          "internalType": "address",
          "name": "account",
          "type": "address"
        },
        {
          "indexed": true,
          "internalType": "address",
          "name": "sender",
          "type": "address"
        }
      ],
      "name": "RoleGranted",
      "type": "event"
    },
    {
      "anonymous": false,
      "inputs": [
        {
          "indexed": true,
          "internalType": "bytes32",
          "name": "role",
          "type": "bytes32"
        },
        {
          "indexed": true,
          "internalType": "address",
          "name": "account",
          "type": "address"
        },
        {
          "indexed": true,
          "internalType": "address",
          "name": "sender",
          "type": "address"
        }
      ],
      "name": "RoleRevoked",
      "type": "event"
    },
    {
      "anonymous": false,
      "inputs": [
        {
          "indexed": false,
          "internalType": "address",
          "name": "account",
          "type": "address"
        },
        {
          "indexed": false,
          "internalType": "uint256",
          "name": "nftId",
          "type": "uint256"
        },
        {
          "indexed": false,
          "internalType": "uint256",
          "name": "oldTrait1",
          "type": "uint256"
        },
        {
          "indexed": false,
          "internalType": "uint256",
          "name": "oldTrait2",
          "type": "uint256"
        },
        {
          "indexed": false,
          "internalType": "uint256",
          "name": "oldTrait3",
          "type": "uint256"
        },
        {
          "indexed": false,
          "internalType": "uint256",
          "name": "newTrait1",
          "type": "uint256"
        },
        {
          "indexed": false,
          "internalType": "uint256",
          "name": "newTrait2",
          "type": "uint256"
        },
        {
          "indexed": false,
          "internalType": "uint256",
          "name": "newTrait3",
          "type": "uint256"
        }
      ],
      "name": "TraitReroll",
      "type": "event"
    },
    {
      "anonymous": false,
      "inputs": [
        {
          "indexed": false,
          "internalType": "address",
          "name": "account",
          "type": "address"
        }
      ],
      "name": "Unpaused",
      "type": "event"
    },
    {
      "inputs": [],
      "name": "DEFAULT_ADMIN_ROLE",
      "outputs": [
        {
          "internalType": "bytes32",
          "name": "",
          "type": "bytes32"
        }
      ],
      "stateMutability": "view",
      "type": "function"
    },
    {
      "inputs": [
        {
          "internalType": "address",
          "name": "_operator",
          "type": "address"
        },
        {
          "internalType": "address",
          "name": "_blocklistAddress",
          "type": "address"
        }
      ],
      "name": "__Administrable_init",
      "outputs": [],
      "stateMutability": "nonpayable",
      "type": "function"
    },
    {
      "inputs": [],
      "name": "_resetBlocklist",
      "outputs": [],
      "stateMutability": "nonpayable",
      "type": "function"
    },
    {
      "inputs": [],
      "name": "autoReturnRate",
      "outputs": [
        {
          "internalType": "uint256",
          "name": "",
          "type": "uint256"
        }
      ],
      "stateMutability": "view",
      "type": "function"
    },
    {
      "inputs": [
        {
          "internalType": "uint256",
          "name": "bctAmount",
          "type": "uint256"
        }
      ],
      "name": "bctToStabletoken",
      "outputs": [
        {
          "internalType": "uint256",
          "name": "",
          "type": "uint256"
        }
      ],
      "stateMutability": "view",
      "type": "function"
    },
    {
      "inputs": [
        {
          "internalType": "uint256",
          "name": "chosenTrait",
          "type": "uint256"
        },
        {
          "internalType": "uint256",
          "name": "traitCount",
          "type": "uint256"
        }
      ],
      "name": "getRerolledTraits",
      "outputs": [
        {
          "internalType": "uint256[]",
          "name": "traits",
          "type": "uint256[]"
        }
      ],
      "stateMutability": "nonpayable",
      "type": "function"
    },
    {
      "inputs": [
        {
          "internalType": "bytes32",
          "name": "role",
          "type": "bytes32"
        }
      ],
      "name": "getRoleAdmin",
      "outputs": [
        {
          "internalType": "bytes32",
          "name": "",
          "type": "bytes32"
        }
      ],
      "stateMutability": "view",
      "type": "function"
    },
    {
      "inputs": [
        {
          "internalType": "bytes32",
          "name": "role",
          "type": "bytes32"
        },
        {
          "internalType": "address",
          "name": "account",
          "type": "address"
        }
      ],
      "name": "grantRole",
      "outputs": [],
      "stateMutability": "nonpayable",
      "type": "function"
    },
    {
      "inputs": [],
      "name": "hasBlocklist",
      "outputs": [
        {
          "internalType": "bool",
          "name": "",
          "type": "bool"
        }
      ],
      "stateMutability": "view",
      "type": "function"
    },
    {
      "inputs": [
        {
          "internalType": "bytes32",
          "name": "role",
          "type": "bytes32"
        },
        {
          "internalType": "address",
          "name": "account",
          "type": "address"
        }
      ],
      "name": "hasRole",
      "outputs": [
        {
          "internalType": "bool",
          "name": "",
          "type": "bool"
        }
      ],
      "stateMutability": "view",
      "type": "function"
    },
    {
      "inputs": [
        {
          "internalType": "address",
          "name": "_operator",
          "type": "address"
        },
        {
          "internalType": "address",
          "name": "_blocklist",
          "type": "address"
        },
        {
          "internalType": "address",
          "name": "_nft",
          "type": "address"
        },
        {
          "internalType": "address",
          "name": "_result",
          "type": "address"
        }
      ],
      "name": "initialize",
      "outputs": [],
      "stateMutability": "nonpayable",
      "type": "function"
    },
    {
      "inputs": [],
      "name": "lockPeriod",
      "outputs": [
        {
          "internalType": "uint256",
          "name": "",
          "type": "uint256"
        }
      ],
      "stateMutability": "view",
      "type": "function"
    },
    {
      "inputs": [],
      "name": "pause",
      "outputs": [],
      "stateMutability": "nonpayable",
      "type": "function"
    },
    {
      "inputs": [],
      "name": "paused",
      "outputs": [
        {
          "internalType": "bool",
          "name": "",
          "type": "bool"
        }
      ],
      "stateMutability": "view",
      "type": "function"
    },
    {
      "inputs": [],
      "name": "paymentContracts",
      "outputs": [
        {
          "internalType": "contract IBkERC20",
          "name": "bct",
          "type": "address"
        },
        {
          "internalType": "contract IBkERC20",
          "name": "busd",
          "type": "address"
        },
        {
          "internalType": "contract ICommunityPool",
          "name": "pool",
          "type": "address"
        },
        {
          "internalType": "contract IBkFarm",
          "name": "farm",
          "type": "address"
        }
      ],
      "stateMutability": "view",
      "type": "function"
    },
    {
      "inputs": [
        {
          "internalType": "address",
          "name": "",
          "type": "address"
        }
      ],
      "name": "playerNonce",
      "outputs": [
        {
          "internalType": "uint256",
          "name": "",
          "type": "uint256"
        }
      ],
      "stateMutability": "view",
      "type": "function"
    },
    {
      "inputs": [
        {
          "internalType": "uint256",
          "name": "nftId",
          "type": "uint256"
        },
        {
          "internalType": "uint256",
          "name": "chosenTrait1",
          "type": "uint256"
        },
        {
          "internalType": "uint256",
          "name": "chosenTrait2",
          "type": "uint256"
        }
      ],
      "name": "reassemble",
      "outputs": [],
      "stateMutability": "nonpayable",
      "type": "function"
    },
    {
      "inputs": [
        {
          "internalType": "address",
          "name": "tokenAddress",
          "type": "address"
        },
        {
          "internalType": "address",
          "name": "to",
          "type": "address"
        },
        {
          "internalType": "uint256",
          "name": "amount",
          "type": "uint256"
        }
      ],
      "name": "recoverERC20",
      "outputs": [],
      "stateMutability": "nonpayable",
      "type": "function"
    },
    {
      "inputs": [
        {
          "internalType": "bytes32",
          "name": "role",
          "type": "bytes32"
        },
        {
          "internalType": "address",
          "name": "account",
          "type": "address"
        }
      ],
      "name": "renounceRole",
      "outputs": [],
      "stateMutability": "nonpayable",
      "type": "function"
    },
    {
      "inputs": [
        {
          "internalType": "uint256",
          "name": "",
          "type": "uint256"
        }
      ],
      "name": "resources",
      "outputs": [
        {
          "internalType": "address",
          "name": "",
          "type": "address"
        }
      ],
      "stateMutability": "view",
      "type": "function"
    },
    {
      "inputs": [],
      "name": "resourcesCount",
      "outputs": [
        {
          "internalType": "uint256",
          "name": "",
          "type": "uint256"
        }
      ],
      "stateMutability": "view",
      "type": "function"
    },
    {
      "inputs": [
        {
          "internalType": "bytes32",
          "name": "role",
          "type": "bytes32"
        },
        {
          "internalType": "address",
          "name": "account",
          "type": "address"
        }
      ],
      "name": "revokeRole",
      "outputs": [],
      "stateMutability": "nonpayable",
      "type": "function"
    },
    {
      "inputs": [],
      "name": "scale",
      "outputs": [
        {
          "internalType": "uint256",
          "name": "",
          "type": "uint256"
        }
      ],
      "stateMutability": "view",
      "type": "function"
    },
    {
      "inputs": [
        {
          "internalType": "address",
          "name": "blocklistAddress",
          "type": "address"
        }
      ],
      "name": "setBlocklist",
      "outputs": [],
      "stateMutability": "nonpayable",
      "type": "function"
    },
    {
      "inputs": [
        {
          "internalType": "address",
          "name": "_result",
          "type": "address"
        }
      ],
      "name": "setRResult",
      "outputs": [],
      "stateMutability": "nonpayable",
      "type": "function"
    },
    {
      "inputs": [
        {
          "internalType": "uint256",
          "name": "_scale",
          "type": "uint256"
        }
      ],
      "name": "setScale",
      "outputs": [],
      "stateMutability": "nonpayable",
      "type": "function"
    },
    {
      "inputs": [
        {
          "internalType": "address",
          "name": "_bct",
          "type": "address"
        },
        {
          "internalType": "address",
          "name": "_busd",
          "type": "address"
        },
        {
          "internalType": "address",
          "name": "_pool",
          "type": "address"
        },
        {
          "internalType": "address",
          "name": "_farm",
          "type": "address"
        },
        {
          "internalType": "address",
          "name": "_resourcesSource",
          "type": "address"
        },
        {
          "internalType": "uint256",
          "name": "_autoReturnRate",
          "type": "uint256"
        }
      ],
      "name": "setupPaymentModule",
      "outputs": [],
      "stateMutability": "nonpayable",
      "type": "function"
    },
    {
      "inputs": [
        {
          "internalType": "uint256",
          "name": "busdAmount",
          "type": "uint256"
        }
      ],
      "name": "stabletokenToBct",
      "outputs": [
        {
          "internalType": "uint256",
          "name": "",
          "type": "uint256"
        }
      ],
      "stateMutability": "view",
      "type": "function"
    },
    {
      "inputs": [
        {
          "internalType": "bytes4",
          "name": "interfaceId",
          "type": "bytes4"
        }
      ],
      "name": "supportsInterface",
      "outputs": [
        {
          "internalType": "bool",
          "name": "",
          "type": "bool"
        }
      ],
      "stateMutability": "view",
      "type": "function"
    },
    {
      "inputs": [
        {
          "internalType": "uint256",
          "name": "nftId",
          "type": "uint256"
        },
        {
          "internalType": "uint256",
          "name": "chosenTrait",
          "type": "uint256"
        }
      ],
      "name": "traitReroll",
      "outputs": [],
      "stateMutability": "nonpayable",
      "type": "function"
    },
    {
      "inputs": [
        {
          "internalType": "uint256",
          "name": "nftId",
          "type": "uint256"
        },
        {
          "internalType": "uint256",
          "name": "trait1",
          "type": "uint256"
        },
        {
          "internalType": "uint256",
          "name": "trait2",
          "type": "uint256"
        },
        {
          "internalType": "uint256",
          "name": "trait3",
          "type": "uint256"
        }
      ],
      "name": "transmute",
      "outputs": [],
      "stateMutability": "nonpayable",
      "type": "function"
    },
    {
      "inputs": [],
      "name": "unpause",
      "outputs": [],
      "stateMutability": "nonpayable",
      "type": "function"
    },
    {
      "inputs": [
        {
          "internalType": "address",
          "name": "sourceContract",
          "type": "address"
        }
      ],
      "name": "updateResources",
      "outputs": [],
      "stateMutability": "nonpayable",
      "type": "function"
    }
  ],
  "bytecode": "0x608060405234801561001057600080fd5b506133ba806100206000396000f3fe608060405234801561001057600080fd5b50600436106101fb5760003560e01c8063634210f41161011a578063b5f63f60116100ad578063d336ae231161007c578063d336ae2314610486578063d547741f14610499578063f4b93f45146104ac578063f51e181a146104bf578063f8c8765e146104c857600080fd5b8063b5f63f6014610444578063c3c87d5314610457578063c429d3491461046a578063c4576ef81461047357600080fd5b806391d14854116100e957806391d1485414610403578063931da89b14610416578063a217fddf14610429578063aef18ae71461043157600080fd5b8063634210f4146103b45780637b01d59f146103c8578063804ecd83146103e85780638456cb59146103fb57600080fd5b8063323b6cb7116101925780633fd8b02f116101615780633fd8b02f1461038457806341e80ad91461038d57806351ac7b8c146103a05780635c975abb146103a957600080fd5b8063323b6cb7146102fd57806336568abe146103565780633edc3519146103695780633f4ba83a1461037c57600080fd5b8063244d6daa116101ce578063244d6daa14610273578063248a9ca3146102b4578063285f92c1146102d75780632f2ff15d146102ea57600080fd5b806301ffc9a71461020057806306a45070146102285780631171bda91461023257806315e5324614610245575b600080fd5b61021361020e36600461293f565b6104db565b60405190151581526020015b60405180910390f35b610230610512565b005b61023061024036600461297e565b61053d565b6102656102533660046129bf565b60d56020526000908152604090205481565b60405190815260200161021f565b61029c6102813660046129dc565b6003602052600090815260409020546001600160a01b031681565b6040516001600160a01b03909116815260200161021f565b6102656102c23660046129dc565b6000908152606e602052604090206001015490565b6102306102e53660046129f5565b6105de565b6102306102f8366004612a27565b610bab565b600454600554600654600754610323936001600160a01b03908116938116928116911684565b604080516001600160a01b039586168152938516602085015291841691830191909152909116606082015260800161021f565b610230610364366004612a27565b610bd5565b6102306103773660046129dc565b610bf8565b610230610c16565b61026560005481565b61026561039b3660046129dc565b610c39565b61026560025481565b60a05460ff16610213565b60d25461021390600160a01b900460ff1681565b6103db6103d6366004612a57565b610cb7565b60405161021f9190612ab4565b6102306103f63660046129bf565b610ce3565b610230610d1e565b610213610411366004612a27565b610d3e565b610230610424366004612ac7565b610d69565b610265600081565b61023061043f3660046129bf565b610e7f565b6102656104523660046129dc565b610ebf565b6102306104653660046129bf565b610ef1565b61026560085481565b610230610481366004612a57565b610f12565b610230610494366004612af5565b61134c565b6102306104a7366004612a27565b611a1f565b6102306104ba366004612b21565b611a44565b61026560d65481565b6102306104d6366004612b9a565b611a6a565b60006001600160e01b03198216637965db0b60e01b148061050c57506301ffc9a760e01b6001600160e01b03198316145b92915050565b60008051602061334583398151915261052a81611b5b565b5060d280546001600160a81b0319169055565b60008051602061334583398151915261055581611b5b565b60405163a9059cbb60e01b81526001600160a01b0384811660048301526024820184905285169063a9059cbb90604401602060405180830381600087803b15801561059f57600080fd5b505af11580156105b3573d6000803e3d6000fd5b505050506040513d601f19601f820116820180604052508101906105d79190612c0b565b5050505050565b6105e6611b65565b336000818152600160205260409020544310156106355760405162461bcd60e51b815260206004820152600860248201526731b7b7b63237bbb760c11b60448201526064015b60405180910390fd5b61063e81611bad565b60d4546040516341f63bfd60e01b8152600481018790526000916001600160a01b0316906341f63bfd9060240160006040518083038186803b15801561068357600080fd5b505afa158015610697573d6000803e3d6000fd5b505050506040513d6000823e601f3d908101601f191682016040526106bf9190810190612dc5565b60608101519091506001600160a01b031633146106db57600080fd5b60d454604051630f2a280d60e21b8152600481018890526001600160a01b0390911690633ca8a0349060240160206040518083038186803b15801561071f57600080fd5b505afa158015610733573d6000803e3d6000fd5b505050506040513d601f19601f820116820180604052508101906107579190612c0b565b1561076157600080fd5b600085118015610772575060368511155b61077b57600080fd5b60008411801561078c575060368411155b61079557600080fd5b6000831180156107a6575060368311155b6107af57600080fd5b6107bd816101200151611bd6565b6003146107c957600080fd5b600060328611156107e257806107de81612f38565b9150505b60328511156107f957806107f581612f38565b9150505b6032841115610810578061080c81612f38565b9150505b6000600261081f836003612f58565b610829919061307e565b6040805160038082526080820190925260ff9290921692506000919060208201606080368337019050509050878160008151811061086957610869613090565b602002602001018181525050868160018151811061088957610889613090565b60200260200101818152505085816002815181106108a9576108a9613090565b602002602001018181525050600080516020613365833981519152338a8661012001516000815181106108de576108de613090565b60200260200101518761012001516001815181106108fe576108fe613090565b602002602001015188610120015160028151811061091e5761091e613090565b60200260200101518660008151811061093957610939613090565b60200260200101518760018151811061095457610954613090565b60200260200101518860028151811061096f5761096f613090565b602002602001015160405161098b9897969594939291906130a6565b60405180910390a160d45460405163088d210f60e41b81526001600160a01b03909116906388d210f0906109c5908c9085906004016130e7565b600060405180830381600087803b1580156109df57600080fd5b505af11580156109f3573d6000803e3d6000fd5b5060009250601a9150610a039050565b604051908082528060200260200182016040528015610a2c578160200160208202803683370190505b5090506109c481600a81518110610a4557610a45613090565b60200260200101818152505061271081600b81518110610a6757610a67613090565b6020026020010181815250506109c481600781518110610a8957610a89613090565b602002602001018181525050606481600981518110610aaa57610aaa613090565b602002602001018181525050606481610ac287611c2c565b610acd90600d613100565b81518110610add57610add613090565b6020908102919091010152610af3836064613118565b81601581518110610b0657610b06613090565b602002602001018181525050610b9f6002606460d654610b2589611c55565b610b2e8a611c2c565b610b3a906105dc613118565b610b449190613118565b610b5690670de0b6b3a7640000613118565b610b609190613118565b610b6a9190613137565b610b749190613137565b6040805160808101825260018082526020820152600091810182905260608101919091528390611c6f565b50505050505050505050565b6000828152606e6020526040902060010154610bc681611b5b565b610bd08383611ee3565b505050565b6001600160a01b0381163314610bea57600080fd5b610bf48282611f69565b5050565b600080516020613345833981519152610c1081611b5b565b5060d655565b600080516020613345833981519152610c2e81611b5b565b610c36611fd0565b50565b600654604051634ca1cccb60e11b8152600481018390526000916001600160a01b0316906399439996906024015b60206040518083038186803b158015610c7f57600080fd5b505afa158015610c93573d6000803e3d6000fd5b505050506040513d601f19601f8201168201806040525081019061050c9190613159565b6060600080516020613345833981519152610cd181611b5b565b610cdb8484612022565b949350505050565b600080516020613345833981519152610cfb81611b5b565b5060d380546001600160a01b0319166001600160a01b0392909216919091179055565b600080516020613345833981519152610d3681611b5b565b610c366124ea565b6000918252606e602090815260408084206001600160a01b0393909316845291905290205460ff1690565b600954610100900460ff1615808015610d895750600954600160ff909116105b80610da35750303b158015610da3575060095460ff166001145b610dac57600080fd5b6009805460ff191660011790558015610dcf576009805461ff0019166101001790555b610dd7612527565b610ddf61253b565b610dea600084612557565b610e0260008051602061334583398151915284612557565b610e2c7f73e573f9566d61418a34d5de3ff49360f9c51fec37f7486551670290f6285dab84612557565b610e3582610e7f565b8015610bd0576009805461ff0019169055604051600181527f7f26b83ff96e1f2b6a682f133852f6798a09c465da95921460cefb38474024989060200160405180910390a1505050565b600080516020613345833981519152610e9781611b5b565b5060d280546001600160a81b0319166001600160a01b0390921691909117600160a01b179055565b60065460405163526267fd60e11b8152600481018390526000916001600160a01b03169063a4c4cffa90602401610c67565b600080516020613345833981519152610f0981611b5b565b610bf482612561565b610f1a611b65565b60d4546040516341f63bfd60e01b8152600481018490526000916001600160a01b0316906341f63bfd9060240160006040518083038186803b158015610f5f57600080fd5b505afa158015610f73573d6000803e3d6000fd5b505050506040513d6000823e601f3d908101601f19168201604052610f9b9190810190612dc5565b60608101519091506001600160a01b03163314610fb757600080fd5b60d454604051630f2a280d60e21b8152600481018590526001600160a01b0390911690633ca8a0349060240160206040518083038186803b158015610ffb57600080fd5b505afa15801561100f573d6000803e3d6000fd5b505050506040513d601f19601f820116820180604052508101906110339190612c0b565b1561103d57600080fd5b600061104d826101200151611bd6565b9050600061105b8483612022565b9050816003141561114957600080516020613365833981519152338685610120015160008151811061108f5761108f613090565b60200260200101518661012001516001815181106110af576110af613090565b60200260200101518761012001516002815181106110cf576110cf613090565b6020026020010151866000815181106110ea576110ea613090565b60200260200101518760018151811061110557611105613090565b60200260200101518860028151811061112057611120613090565b602002602001015160405161113c9897969594939291906130a6565b60405180910390a1611260565b81600214156111f157600080516020613365833981519152338685610120015160008151811061117b5761117b613090565b602002602001015186610120015160018151811061119b5761119b613090565b60200260200101516000866000815181106111b8576111b8613090565b6020026020010151876001815181106111d3576111d3613090565b6020026020010151600060405161113c9897969594939291906130a6565b600080516020613365833981519152338685610120015160008151811061121a5761121a613090565b60200260200101516000808660008151811061123857611238613090565b60200260200101516000806040516112579897969594939291906130a6565b60405180910390a15b60d45460405163088d210f60e41b81526001600160a01b03909116906388d210f09061129290889085906004016130e7565b600060405180830381600087803b1580156112ac57600080fd5b505af11580156112c0573d6000803e3d6000fd5b5060009250600c91506112d09050565b6040519080825280602002602001820160405280156112f9578160200160208202803683370190505b509050606481600b8151811061131157611311613090565b6020026020010181815250506113446002606460d65461133088611c55565b61133989611c2c565b610b3a906001613118565b505050505050565b611354611b65565b3360008181526001602052604090205443101561139e5760405162461bcd60e51b815260206004820152600860248201526731b7b7b63237bbb760c11b604482015260640161062c565b6113a781611bad565b60d4546040516341f63bfd60e01b8152600481018690526000916001600160a01b0316906341f63bfd9060240160006040518083038186803b1580156113ec57600080fd5b505afa158015611400573d6000803e3d6000fd5b505050506040513d6000823e601f3d908101601f191682016040526114289190810190612dc5565b60608101519091506001600160a01b0316331461144457600080fd5b60d454604051630f2a280d60e21b8152600481018790526001600160a01b0390911690633ca8a0349060240160206040518083038186803b15801561148857600080fd5b505afa15801561149c573d6000803e3d6000fd5b505050506040513d601f19601f820116820180604052508101906114c09190612c0b565b156114ca57600080fd5b6000841180156114db575060328411155b6114e457600080fd5b6000831180156114f5575060328311155b6114fe57600080fd5b600061150e826101200151611bd6565b9050600381101561172257604080516002808252606082018352600092602083019080368337019050509050858160008151811061154e5761154e613090565b602002602001018181525050848160018151811061156e5761156e613090565b60200260200101818152505081600114156116105760008051602061336583398151915233888561012001516000815181106115ac576115ac613090565b6020026020010151600080866000815181106115ca576115ca613090565b6020026020010151876001815181106115e5576115e5613090565b602002602001015160006040516116039897969594939291906130a6565b60405180910390a16116b8565b600080516020613365833981519152338885610120015160008151811061163957611639613090565b602002602001015186610120015160018151811061165957611659613090565b602002602001015160008660008151811061167657611676613090565b60200260200101518760018151811061169157611691613090565b602002602001015160006040516116af9897969594939291906130a6565b60405180910390a15b60d45460405163088d210f60e41b81526001600160a01b03909116906388d210f0906116ea908a9085906004016130e7565b600060405180830381600087803b15801561170457600080fd5b505af1158015611718573d6000803e3d6000fd5b50505050506119a7565b33600090815260d56020526040812080549182919061174083613172565b90915550506040805160038082526080820190925260009160208201606080368337019050509050868160008151811061177c5761177c613090565b602002602001018181525050858160018151811061179c5761179c613090565b602090810291909101015260d3546001600160a01b031663d19435ff33600160326117c8876061613100565b6117d3886007613100565b6040518663ffffffff1660e01b81526004016117f395949392919061318d565b60206040518083038186803b15801561180b57600080fd5b505afa15801561181f573d6000803e3d6000fd5b505050506040513d601f19601f820116820180604052508101906118439190613159565b8160028151811061185657611856613090565b602002602001018181525050600080516020613365833981519152338986610120015160008151811061188b5761188b613090565b60200260200101518761012001516001815181106118ab576118ab613090565b60200260200101518861012001516002815181106118cb576118cb613090565b6020026020010151866000815181106118e6576118e6613090565b60200260200101518760018151811061190157611901613090565b60200260200101518860028151811061191c5761191c613090565b60200260200101516040516119389897969594939291906130a6565b60405180910390a160d45460405163088d210f60e41b81526001600160a01b03909116906388d210f090611972908b9085906004016130e7565b600060405180830381600087803b15801561198c57600080fd5b505af11580156119a0573d6000803e3d6000fd5b5050505050505b60408051600c8082526101a08201909252600091602082016101808036833701905050905061138881600b815181106119e2576119e2613090565b602002602001018181525050611a166002606460d654611a0187611c55565b611a0a88611c2c565b610b3a906102ee613118565b50505050505050565b6000828152606e6020526040902060010154611a3a81611b5b565b610bd08383611f69565b600080516020613345833981519152611a5c81611b5b565b611a16878787878787612650565b600954610100900460ff1615808015611a8a5750600954600160ff909116105b80611aa45750303b158015611aa4575060095460ff166001145b611aad57600080fd5b6009805460ff191660011790558015611ad0576009805461ff0019166101001790555b611ada8585610d69565b60d480546001600160a01b038086166001600160a01b03199283161790925560d3805492851692909116919091179055600160005580156105d7576009805461ff0019169055604051600181527f7f26b83ff96e1f2b6a682f133852f6798a09c465da95921460cefb38474024989060200160405180910390a15050505050565b610c36813361270b565b60a05460ff1615611bab5760405162461bcd60e51b815260206004820152601060248201526f14185d5cd8589b194e881c185d5cd95960821b604482015260640161062c565b565b600054611bba9043613100565b6001600160a01b03909116600090815260016020526040902055565b600080805b8351811015611c2557838181518110611bf657611bf6613090565b6020026020010151600014611c135781611c0f81613172565b9250505b80611c1d81613172565b915050611bdb565b5092915050565b6000816101000151600081518110611c4657611c46613090565b60200260200101519050919050565b6000816101000151600181518110611c4657611c46613090565b806040015115611dce57806020015115611cb05760405162461bcd60e51b8152602060048201526002602482015261070360f41b604482015260640161062c565b8051600090611cbf5783611cc8565b611cc884610ebf565b6005546040516323b872dd60e01b8152336004820152306024820152604481018390529192506001600160a01b0316906323b872dd90606401600060405180830381600087803b158015611d1b57600080fd5b505af1158015611d2f573d6000803e3d6000fd5b505050506000606482600854611d459190613118565b611d4f9190613137565b600654604051630d3990db60e21b8152600481018390529192506001600160a01b0316906334e6436c90602401602060405180830381600087803b158015611d9657600080fd5b505af1158015611daa573d6000803e3d6000fd5b505050506040513d601f19601f820116820180604052508101906113449190613159565b806060015115611e055760405162461bcd60e51b8152602060048201526002602482015261703160f01b604482015260640161062c565b8051600090611e1c57611e1784610c39565b611e1e565b835b60075460405163b1918c9560e01b81529192506000916001600160a01b039091169063b1918c9590611e58903390869089906004016131bb565b602060405180830381600087803b158015611e7257600080fd5b505af1158015611e86573d6000803e3d6000fd5b505050506040513d601f19601f82011682018060405250810190611eaa9190612c0b565b9050806105d75760405162461bcd60e51b81526020600482015260076024820152666e6f46756e647360c81b604482015260640161062c565b611eed8282610d3e565b610bf4576000828152606e602090815260408083206001600160a01b03851684529091529020805460ff19166001179055611f253390565b6001600160a01b0316816001600160a01b0316837f2f8788117e7eff1d82e926ec794901d17c78024a50270940304540a733656f0d60405160405180910390a45050565b611f738282610d3e565b15610bf4576000828152606e602090815260408083206001600160a01b0385168085529252808320805460ff1916905551339285917ff6391f5c32d9c69d2a47ea670b442974b53935d1edc7fd64eb21e047a839171b9190a45050565b611fd8612764565b60a0805460ff191690557f5db9ee0a495bf2e6ff9c91a7834c1ba4fdd244a5e8aa4e537bd38aeae4b073aa335b6040516001600160a01b03909116815260200160405180910390a1565b6060603283111561203257600080fd5b33600090815260d56020526040812080549161204d83613172565b909155505033600081815260d5602052604081205460d35490926001600160a01b039091169063d19435ff906001606461208987610e0d613100565b612094886003613118565b6040518663ffffffff1660e01b81526004016120b495949392919061318d565b60206040518083038186803b1580156120cc57600080fd5b505afa1580156120e0573d6000803e3d6000fd5b505050506040513d601f19601f820116820180604052508101906121049190613159565b90508161211081613172565b925050846121c35760d3546001600160a01b031663d19435ff3360016032612139866061613100565b8761214688610243613100565b6121509190613100565b6040518663ffffffff1660e01b815260040161217095949392919061318d565b60206040518083038186803b15801561218857600080fd5b505afa15801561219c573d6000803e3d6000fd5b505050506040513d601f19601f820116820180604052508101906121c09190613159565b94505b836003141561239d57604080516003808252608082019092529060208201606080368337019050509250848360008151811061220157612201613090565b602090810291909101015260d3546001600160a01b031663d19435ff336001603261222d86605d613100565b8761223988607f613100565b6122439190613100565b6040518663ffffffff1660e01b815260040161226395949392919061318d565b60206040518083038186803b15801561227b57600080fd5b505afa15801561228f573d6000803e3d6000fd5b505050506040513d601f19601f820116820180604052508101906122b39190613159565b836001815181106122c6576122c6613090565b602090810291909101015260d3546001600160a01b031663d19435ff33600160326122f286604d613100565b876122ff88610143613100565b6123099190613100565b6040518663ffffffff1660e01b815260040161232995949392919061318d565b60206040518083038186803b15801561234157600080fd5b505afa158015612355573d6000803e3d6000fd5b505050506040513d601f19601f820116820180604052508101906123799190613159565b8360028151811061238c5761238c613090565b6020026020010181815250506124e2565b83600214156124a157604080516002808252606082018352909160208301908036833701905050925084836000815181106123da576123da613090565b602090810291909101015260d3546001600160a01b031663d19435ff336001603261240786610115613100565b87612414886103e5613100565b61241e9190613100565b6040518663ffffffff1660e01b815260040161243e95949392919061318d565b60206040518083038186803b15801561245657600080fd5b505afa15801561246a573d6000803e3d6000fd5b505050506040513d601f19601f8201168201806040525081019061248e9190613159565b8360018151811061238c5761238c613090565b604080516001808252818301909252906020808301908036833701905050925084836000815181106124d5576124d5613090565b6020026020010181815250505b505092915050565b6124f2611b65565b60a0805460ff191660011790557f62e78cea01bee320cd4e420270b5ea74000d11b0c9f74754ebdbfc544b05a2586120053390565b600954610100900460ff16611bab57600080fd5b600954610100900460ff1661254f57600080fd5b611bab6127ad565b610bf48282611ee3565b60008190506000816001600160a01b031663c1cc57b06040518163ffffffff1660e01b815260040160006040518083038186803b1580156125a157600080fd5b505afa1580156125b5573d6000803e3d6000fd5b505050506040513d6000823e601f3d908101601f191682016040526125dd91908101906131eb565b905060005b8151811015612647578181815181106125fd576125fd613090565b60209081029190910181015160008381526003909252604090912080546001600160a01b0319166001600160a01b039092169190911790558061263f81613172565b9150506125e2565b50516002555050565b600480546001600160a01b038089166001600160a01b031992831617909255600580548884169083161790556006805487841690831617905560078054928616929091169190911790556126a382612561565b600881905560055460405163095ea7b360e01b81526001600160a01b03868116600483015260001960248301529091169063095ea7b390604401600060405180830381600087803b1580156126f757600080fd5b505af1158015610b9f573d6000803e3d6000fd5b6127158282610d3e565b610bf457612722816127cd565b61272d8360206127df565b60405160200161273e929190613285565b60408051601f198184030181529082905262461bcd60e51b825261062c916004016132fa565b60a05460ff16611bab5760405162461bcd60e51b815260206004820152601460248201527314185d5cd8589b194e881b9bdd081c185d5cd95960621b604482015260640161062c565b600954610100900460ff166127c157600080fd5b60a0805460ff19169055565b606061050c6001600160a01b03831660145b606060006127ee836002613118565b6127f9906002613100565b67ffffffffffffffff81111561281157612811612c26565b6040519080825280601f01601f19166020018201604052801561283b576020820181803683370190505b509050600360fc1b8160008151811061285657612856613090565b60200101906001600160f81b031916908160001a905350600f60fb1b8160018151811061288557612885613090565b60200101906001600160f81b031916908160001a90535060006128a9846002613118565b6128b4906001613100565b90505b600181111561292c576f181899199a1a9b1b9c1cb0b131b232b360811b85600f16601081106128e8576128e8613090565b1a60f81b8282815181106128fe576128fe613090565b60200101906001600160f81b031916908160001a90535060049490941c936129258161332d565b90506128b7565b50831561293857600080fd5b9392505050565b60006020828403121561295157600080fd5b81356001600160e01b03198116811461293857600080fd5b6001600160a01b0381168114610c3657600080fd5b60008060006060848603121561299357600080fd5b833561299e81612969565b925060208401356129ae81612969565b929592945050506040919091013590565b6000602082840312156129d157600080fd5b813561293881612969565b6000602082840312156129ee57600080fd5b5035919050565b60008060008060808587031215612a0b57600080fd5b5050823594602084013594506040840135936060013592509050565b60008060408385031215612a3a57600080fd5b823591506020830135612a4c81612969565b809150509250929050565b60008060408385031215612a6a57600080fd5b50508035926020909101359150565b600081518084526020808501945080840160005b83811015612aa957815187529582019590820190600101612a8d565b509495945050505050565b6020815260006129386020830184612a79565b60008060408385031215612ada57600080fd5b8235612ae581612969565b91506020830135612a4c81612969565b600080600060608486031215612b0a57600080fd5b505081359360208301359350604090920135919050565b60008060008060008060c08789031215612b3a57600080fd5b8635612b4581612969565b95506020870135612b5581612969565b94506040870135612b6581612969565b93506060870135612b7581612969565b92506080870135612b8581612969565b8092505060a087013590509295509295509295565b60008060008060808587031215612bb057600080fd5b8435612bbb81612969565b93506020850135612bcb81612969565b92506040850135612bdb81612969565b91506060850135612beb81612969565b939692955090935050565b80518015158114612c0657600080fd5b919050565b600060208284031215612c1d57600080fd5b61293882612bf6565b634e487b7160e01b600052604160045260246000fd5b604051610180810167ffffffffffffffff81118282101715612c6057612c60612c26565b60405290565b604051601f8201601f1916810167ffffffffffffffff81118282101715612c8f57612c8f612c26565b604052919050565b60005b83811015612cb2578181015183820152602001612c9a565b83811115612cc1576000848401525b50505050565b600082601f830112612cd857600080fd5b815167ffffffffffffffff811115612cf257612cf2612c26565b612d05601f8201601f1916602001612c66565b818152846020838601011115612d1a57600080fd5b610cdb826020830160208701612c97565b8051612c0681612969565b600067ffffffffffffffff821115612d5057612d50612c26565b5060051b60200190565b600082601f830112612d6b57600080fd5b81516020612d80612d7b83612d36565b612c66565b82815260059290921b84018101918181019086841115612d9f57600080fd5b8286015b84811015612dba5780518352918301918301612da3565b509695505050505050565b600060208284031215612dd757600080fd5b815167ffffffffffffffff80821115612def57600080fd5b908301906101808286031215612e0457600080fd5b612e0c612c3c565b82518152602083015182811115612e2257600080fd5b612e2e87828601612cc7565b602083015250604083015182811115612e4657600080fd5b612e5287828601612cc7565b604083015250612e6460608401612d2b565b60608201526080830151608082015260a083015160a082015260c083015160c082015260e083015160e08201526101008084015183811115612ea557600080fd5b612eb188828701612d5a565b8284015250506101208084015183811115612ecb57600080fd5b612ed788828701612d5a565b8284015250506101408084015183811115612ef157600080fd5b612efd88828701612d5a565b8284015250506101609150612f13828401612bf6565b91810191909152949350505050565b634e487b7160e01b600052601160045260246000fd5b600060ff821660ff811415612f4f57612f4f612f22565b60010192915050565b600060ff821660ff84168160ff0481118215151615612f7957612f79612f22565b029392505050565b600181815b80851115612fbb578160ff04821115612fa157612fa1612f22565b80851615612fae57918102915b93841c9390800290612f86565b509250929050565b600082612fd25750600161050c565b81612fdf5750600061050c565b8160018114612ff55760028114612fff5761302d565b600191505061050c565b60ff84111561301057613010612f22565b6001841b915060ff82111561302757613027612f22565b5061050c565b5060208310610133831016604e8410600b8410161715613061575081810a60ff81111561305c5761305c612f22565b61050c565b61306b8383612f81565b8060ff04821115612f7957612f79612f22565b600061293860ff841660ff8416612fc3565b634e487b7160e01b600052603260045260246000fd5b6001600160a01b03989098168852602088019690965260408701949094526060860192909252608085015260a084015260c083015260e08201526101000190565b828152604060208201526000610cdb6040830184612a79565b6000821982111561311357613113612f22565b500190565b600081600019048311821515161561313257613132612f22565b500290565b60008261315457634e487b7160e01b600052601260045260246000fd5b500490565b60006020828403121561316b57600080fd5b5051919050565b600060001982141561318657613186612f22565b5060010190565b6001600160a01b03959095168552602085019390935260408401919091526060830152608082015260a00190565b60018060a01b03841681528260208201526060604082015260006131e26060830184612a79565b95945050505050565b600060208083850312156131fe57600080fd5b825167ffffffffffffffff81111561321557600080fd5b8301601f8101851361322657600080fd5b8051613234612d7b82612d36565b81815260059190911b8201830190838101908783111561325357600080fd5b928401925b8284101561327a57835161326b81612969565b82529284019290840190613258565b979650505050505050565b7f416363657373436f6e74726f6c3a206163636f756e74200000000000000000008152600083516132bd816017850160208801612c97565b7001034b99036b4b9b9b4b733903937b6329607d1b60179184019182015283516132ee816028840160208801612c97565b01602801949350505050565b6020815260008251806020840152613319816040850160208701612c97565b601f01601f19169190910160400192915050565b60008161333c5761333c612f22565b50600019019056fe97667070c54ef182b0f5858b034beac1b6f3089aa2d3188bb1e8929f4fa9b9295d24d1b65af28620ba5a8ce3da5dfb3eb2d78c0cdfd4a566b8137141720277fea264697066735822122024338f0b6afff824d77980cb78c58c187021661a5404ccc327441e8167ad783164736f6c63430008090033",
  "linkReferences": {},
  "deployedLinkReferences": {}
}