{
  "_format": "hh-sol-artifact-1",
  "contractName": "CommunityPool",
  "sourceName": "contracts/features/CommunityPool.sol",
  "abi": [
    {
      "anonymous": false,
      "inputs": [
        {
          "indexed": false,
          "internalType": "uint256",
          "name": "amount",
          "type": "uint256"
        }
      ],
      "name": "AddToFund",
      "type": "event"
    },
    {
      "anonymous": false,
      "inputs": [
        {
          "indexed": false,
          "internalType": "address",
          "name": "account",
          "type": "address"
        },
        {
          "indexed": false,
          "internalType": "uint256",
          "name": "stabletokensIn",
          "type": "uint256"
        },
        {
          "indexed": false,
          "internalType": "uint256",
          "name": "gameTokensOut",
          "type": "uint256"
        },
        {
          "indexed": false,
          "internalType": "uint256",
          "name": "newPrice",
          "type": "uint256"
        }
      ],
      "name": "Buy",
      "type": "event"
    },
    {
      "anonymous": false,
      "inputs": [
        {
          "indexed": false,
          "internalType": "address",
          "name": "account",
          "type": "address"
        },
        {
          "indexed": false,
          "internalType": "uint256",
          "name": "stabletokensIn",
          "type": "uint256"
        },
        {
          "indexed": false,
          "internalType": "uint256",
          "name": "gameTokensBurned",
          "type": "uint256"
        },
        {
          "indexed": false,
          "internalType": "uint256",
          "name": "newPrice",
          "type": "uint256"
        }
      ],
      "name": "BuyAndBurn",
      "type": "event"
    },
    {
      "anonymous": false,
      "inputs": [
        {
          "indexed": false,
          "internalType": "uint8",
          "name": "version",
          "type": "uint8"
        }
      ],
      "name": "Initialized",
      "type": "event"
    },
    {
      "anonymous": false,
      "inputs": [
        {
          "indexed": false,
          "internalType": "address",
          "name": "from",
          "type": "address"
        },
        {
          "indexed": false,
          "internalType": "uint256",
          "name": "gameTokensIn",
          "type": "uint256"
        },
        {
          "indexed": false,
          "internalType": "uint256",
          "name": "stabletokensIn",
          "type": "uint256"
        },
        {
          "indexed": false,
          "internalType": "uint256",
          "name": "newPrice",
          "type": "uint256"
        }
      ],
      "name": "LiquidityAdded",
      "type": "event"
    },
    {
      "anonymous": false,
      "inputs": [
        {
          "indexed": false,
          "internalType": "uint256",
          "name": "price",
          "type": "uint256"
        }
      ],
      "name": "NewPrice",
      "type": "event"
    },
    {
      "anonymous": false,
      "inputs": [
        {
          "indexed": false,
          "internalType": "address",
          "name": "account",
          "type": "address"
        }
      ],
      "name": "Paused",
      "type": "event"
    },
    {
      "anonymous": false,
      "inputs": [
        {
          "indexed": true,
          "internalType": "bytes32",
          "name": "role",
          "type": "bytes32"
        },
        {
          "indexed": true,
          "internalType": "bytes32",
          "name": "previousAdminRole",
          "type": "bytes32"
        },
        {
          "indexed": true,
          "internalType": "bytes32",
          "name": "newAdminRole",
          "type": "bytes32"
        }
      ],
      "name": "RoleAdminChanged",
      "type": "event"
    },
    {
      "anonymous": false,
      "inputs": [
        {
          "indexed": true,
          "internalType": "bytes32",
          "name": "role",
          "type": "bytes32"
        },
        {
          "indexed": true,
          "internalType": "address",
          "name": "account",
          "type": "address"
        },
        {
          "indexed": true,
          "internalType": "address",
          "name": "sender",
          "type": "address"
        }
      ],
      "name": "RoleGranted",
      "type": "event"
    },
    {
      "anonymous": false,
      "inputs": [
        {
          "indexed": true,
          "internalType": "bytes32",
          "name": "role",
          "type": "bytes32"
        },
        {
          "indexed": true,
          "internalType": "address",
          "name": "account",
          "type": "address"
        },
        {
          "indexed": true,
          "internalType": "address",
          "name": "sender",
          "type": "address"
        }
      ],
      "name": "RoleRevoked",
      "type": "event"
    },
    {
      "anonymous": false,
      "inputs": [
        {
          "indexed": false,
          "internalType": "address",
          "name": "account",
          "type": "address"
        },
        {
          "indexed": false,
          "internalType": "uint256",
          "name": "gameTokensIn",
          "type": "uint256"
        },
        {
          "indexed": false,
          "internalType": "uint256",
          "name": "stabletokensOut",
          "type": "uint256"
        },
        {
          "indexed": false,
          "internalType": "uint256",
          "name": "newPrice",
          "type": "uint256"
        }
      ],
      "name": "Sell",
      "type": "event"
    },
    {
      "anonymous": false,
      "inputs": [
        {
          "indexed": false,
          "internalType": "address",
          "name": "account",
          "type": "address"
        }
      ],
      "name": "Unpaused",
      "type": "event"
    },
    {
      "inputs": [],
      "name": "DEFAULT_ADMIN_ROLE",
      "outputs": [
        {
          "internalType": "bytes32",
          "name": "",
          "type": "bytes32"
        }
      ],
      "stateMutability": "view",
      "type": "function"
    },
    {
      "inputs": [
        {
          "internalType": "address",
          "name": "_operator",
          "type": "address"
        },
        {
          "internalType": "address",
          "name": "_blocklistAddress",
          "type": "address"
        }
      ],
      "name": "__Administrable_init",
      "outputs": [],
      "stateMutability": "nonpayable",
      "type": "function"
    },
    {
      "inputs": [
        {
          "internalType": "uint256",
          "name": "amountIn",
          "type": "uint256"
        }
      ],
      "name": "actuallyBuyAndBurn",
      "outputs": [
        {
          "internalType": "uint256",
          "name": "amountBurned",
          "type": "uint256"
        }
      ],
      "stateMutability": "nonpayable",
      "type": "function"
    },
    {
      "inputs": [
        {
          "internalType": "uint256",
          "name": "amountOfBct",
          "type": "uint256"
        },
        {
          "internalType": "uint256",
          "name": "amountOfStabletokens",
          "type": "uint256"
        }
      ],
      "name": "addLiquidity",
      "outputs": [],
      "stateMutability": "nonpayable",
      "type": "function"
    },
    {
      "inputs": [],
      "name": "bkCommonwealthFund",
      "outputs": [
        {
          "internalType": "address",
          "name": "",
          "type": "address"
        }
      ],
      "stateMutability": "view",
      "type": "function"
    },
    {
      "inputs": [
        {
          "internalType": "uint256",
          "name": "amount",
          "type": "uint256"
        }
      ],
      "name": "burnBct",
      "outputs": [],
      "stateMutability": "nonpayable",
      "type": "function"
    },
    {
      "inputs": [
        {
          "internalType": "uint256",
          "name": "amountIn",
          "type": "uint256"
        }
      ],
      "name": "buyAndBurn",
      "outputs": [
        {
          "internalType": "uint256",
          "name": "amountBurned",
          "type": "uint256"
        }
      ],
      "stateMutability": "nonpayable",
      "type": "function"
    },
    {
      "inputs": [
        {
          "internalType": "uint256",
          "name": "gameTokens",
          "type": "uint256"
        }
      ],
      "name": "buyGameTokens",
      "outputs": [
        {
          "internalType": "uint256",
          "name": "stabletokensPaid",
          "type": "uint256"
        }
      ],
      "stateMutability": "nonpayable",
      "type": "function"
    },
    {
      "inputs": [
        {
          "internalType": "uint256",
          "name": "gameTokens",
          "type": "uint256"
        },
        {
          "internalType": "uint256",
          "name": "atPrice",
          "type": "uint256"
        },
        {
          "internalType": "uint256",
          "name": "maxSlippage",
          "type": "uint256"
        }
      ],
      "name": "buyGameTokensAtPrice",
      "outputs": [
        {
          "internalType": "uint256",
          "name": "stabletokensPaid",
          "type": "uint256"
        }
      ],
      "stateMutability": "nonpayable",
      "type": "function"
    },
    {
      "inputs": [],
      "name": "config",
      "outputs": [
        {
          "internalType": "uint8",
          "name": "stasherDiscount",
          "type": "uint8"
        },
        {
          "internalType": "uint8",
          "name": "baseCommunityFee",
          "type": "uint8"
        },
        {
          "internalType": "uint8",
          "name": "closedForMonths",
          "type": "uint8"
        },
        {
          "internalType": "uint8",
          "name": "steepCurveMonths",
          "type": "uint8"
        },
        {
          "internalType": "uint8",
          "name": "maxMonths",
          "type": "uint8"
        }
      ],
      "stateMutability": "view",
      "type": "function"
    },
    {
      "inputs": [],
      "name": "gameToken",
      "outputs": [
        {
          "internalType": "contract IBkERC20",
          "name": "",
          "type": "address"
        }
      ],
      "stateMutability": "view",
      "type": "function"
    },
    {
      "inputs": [],
      "name": "gameTokenReserve",
      "outputs": [
        {
          "internalType": "uint256",
          "name": "",
          "type": "uint256"
        }
      ],
      "stateMutability": "view",
      "type": "function"
    },
    {
      "inputs": [],
      "name": "gasPriceLimit",
      "outputs": [
        {
          "internalType": "uint256",
          "name": "",
          "type": "uint256"
        }
      ],
      "stateMutability": "view",
      "type": "function"
    },
    {
      "inputs": [
        {
          "internalType": "uint256",
          "name": "stasherLevel",
          "type": "uint256"
        }
      ],
      "name": "getCommunityFeePct",
      "outputs": [
        {
          "internalType": "uint256",
          "name": "feeInPct",
          "type": "uint256"
        }
      ],
      "stateMutability": "view",
      "type": "function"
    },
    {
      "inputs": [],
      "name": "getPrice",
      "outputs": [
        {
          "internalType": "uint256",
          "name": "_price",
          "type": "uint256"
        }
      ],
      "stateMutability": "view",
      "type": "function"
    },
    {
      "inputs": [],
      "name": "getReserves",
      "outputs": [
        {
          "internalType": "uint256",
          "name": "_gameTokenReserve",
          "type": "uint256"
        },
        {
          "internalType": "uint256",
          "name": "_stabletokenReserve",
          "type": "uint256"
        }
      ],
      "stateMutability": "view",
      "type": "function"
    },
    {
      "inputs": [
        {
          "internalType": "bytes32",
          "name": "role",
          "type": "bytes32"
        }
      ],
      "name": "getRoleAdmin",
      "outputs": [
        {
          "internalType": "bytes32",
          "name": "",
          "type": "bytes32"
        }
      ],
      "stateMutability": "view",
      "type": "function"
    },
    {
      "inputs": [
        {
          "internalType": "uint256",
          "name": "bctOut",
          "type": "uint256"
        }
      ],
      "name": "getStabletokensIn",
      "outputs": [
        {
          "internalType": "uint256",
          "name": "stabletokensIn",
          "type": "uint256"
        }
      ],
      "stateMutability": "view",
      "type": "function"
    },
    {
      "inputs": [
        {
          "internalType": "bytes32",
          "name": "role",
          "type": "bytes32"
        },
        {
          "internalType": "address",
          "name": "account",
          "type": "address"
        }
      ],
      "name": "grantRole",
      "outputs": [],
      "stateMutability": "nonpayable",
      "type": "function"
    },
    {
      "inputs": [],
      "name": "hasBlocklist",
      "outputs": [
        {
          "internalType": "bool",
          "name": "",
          "type": "bool"
        }
      ],
      "stateMutability": "view",
      "type": "function"
    },
    {
      "inputs": [
        {
          "internalType": "bytes32",
          "name": "role",
          "type": "bytes32"
        },
        {
          "internalType": "address",
          "name": "account",
          "type": "address"
        }
      ],
      "name": "hasRole",
      "outputs": [
        {
          "internalType": "bool",
          "name": "",
          "type": "bool"
        }
      ],
      "stateMutability": "view",
      "type": "function"
    },
    {
      "inputs": [
        {
          "internalType": "address",
          "name": "_operator",
          "type": "address"
        },
        {
          "internalType": "address",
          "name": "_blocklist",
          "type": "address"
        },
        {
          "internalType": "address",
          "name": "_gameToken",
          "type": "address"
        },
        {
          "internalType": "address",
          "name": "_stabletoken",
          "type": "address"
        },
        {
          "internalType": "address",
          "name": "_stasher",
          "type": "address"
        },
        {
          "internalType": "uint256",
          "name": "_startBlock",
          "type": "uint256"
        }
      ],
      "name": "initialize",
      "outputs": [],
      "stateMutability": "nonpayable",
      "type": "function"
    },
    {
      "inputs": [],
      "name": "isOpenForSelling",
      "outputs": [
        {
          "internalType": "bool",
          "name": "",
          "type": "bool"
        }
      ],
      "stateMutability": "pure",
      "type": "function"
    },
    {
      "inputs": [],
      "name": "lockPeriod",
      "outputs": [
        {
          "internalType": "uint256",
          "name": "",
          "type": "uint256"
        }
      ],
      "stateMutability": "view",
      "type": "function"
    },
    {
      "inputs": [],
      "name": "openForSelling",
      "outputs": [],
      "stateMutability": "nonpayable",
      "type": "function"
    },
    {
      "inputs": [],
      "name": "pause",
      "outputs": [],
      "stateMutability": "nonpayable",
      "type": "function"
    },
    {
      "inputs": [],
      "name": "paused",
      "outputs": [
        {
          "internalType": "bool",
          "name": "",
          "type": "bool"
        }
      ],
      "stateMutability": "view",
      "type": "function"
    },
    {
      "inputs": [
        {
          "internalType": "uint256",
          "name": "gameTokensToBuy",
          "type": "uint256"
        }
      ],
      "name": "quoteBuyGameTokens",
      "outputs": [
        {
          "internalType": "uint256",
          "name": "costInStabletokens",
          "type": "uint256"
        }
      ],
      "stateMutability": "view",
      "type": "function"
    },
    {
      "inputs": [
        {
          "internalType": "uint256",
          "name": "gameTokens",
          "type": "uint256"
        }
      ],
      "name": "quoteGameToStabletokens",
      "outputs": [
        {
          "internalType": "uint256",
          "name": "stabletokens",
          "type": "uint256"
        }
      ],
      "stateMutability": "view",
      "type": "function"
    },
    {
      "inputs": [
        {
          "internalType": "uint256",
          "name": "gameTokensToSell",
          "type": "uint256"
        }
      ],
      "name": "quoteSellGameTokens",
      "outputs": [
        {
          "internalType": "uint256",
          "name": "stabletokensOut",
          "type": "uint256"
        },
        {
          "internalType": "uint256",
          "name": "feePct",
          "type": "uint256"
        }
      ],
      "stateMutability": "view",
      "type": "function"
    },
    {
      "inputs": [
        {
          "internalType": "uint256",
          "name": "gameTokensToSell",
          "type": "uint256"
        },
        {
          "internalType": "address",
          "name": "account",
          "type": "address"
        }
      ],
      "name": "quoteSellGameTokensFor",
      "outputs": [
        {
          "internalType": "uint256",
          "name": "stabletokensOut",
          "type": "uint256"
        },
        {
          "internalType": "uint256",
          "name": "feePct",
          "type": "uint256"
        }
      ],
      "stateMutability": "view",
      "type": "function"
    },
    {
      "inputs": [
        {
          "internalType": "uint256",
          "name": "stabletokens",
          "type": "uint256"
        }
      ],
      "name": "quoteStableToGameTokens",
      "outputs": [
        {
          "internalType": "uint256",
          "name": "gameTokens",
          "type": "uint256"
        }
      ],
      "stateMutability": "view",
      "type": "function"
    },
    {
      "inputs": [
        {
          "internalType": "address",
          "name": "tokenAddress",
          "type": "address"
        },
        {
          "internalType": "address",
          "name": "to",
          "type": "address"
        },
        {
          "internalType": "uint256",
          "name": "amount",
          "type": "uint256"
        }
      ],
      "name": "recoverERC20",
      "outputs": [],
      "stateMutability": "nonpayable",
      "type": "function"
    },
    {
      "inputs": [
        {
          "internalType": "bytes32",
          "name": "role",
          "type": "bytes32"
        },
        {
          "internalType": "address",
          "name": "account",
          "type": "address"
        }
      ],
      "name": "renounceRole",
      "outputs": [],
      "stateMutability": "nonpayable",
      "type": "function"
    },
    {
      "inputs": [],
      "name": "resetBlocklist",
      "outputs": [],
      "stateMutability": "nonpayable",
      "type": "function"
    },
    {
      "inputs": [],
      "name": "resetReserves",
      "outputs": [],
      "stateMutability": "nonpayable",
      "type": "function"
    },
    {
      "inputs": [
        {
          "internalType": "bytes32",
          "name": "role",
          "type": "bytes32"
        },
        {
          "internalType": "address",
          "name": "account",
          "type": "address"
        }
      ],
      "name": "revokeRole",
      "outputs": [],
      "stateMutability": "nonpayable",
      "type": "function"
    },
    {
      "inputs": [
        {
          "internalType": "uint256",
          "name": "gameTokens",
          "type": "uint256"
        }
      ],
      "name": "sellGameTokens",
      "outputs": [
        {
          "internalType": "uint256",
          "name": "stabletokensOut",
          "type": "uint256"
        }
      ],
      "stateMutability": "nonpayable",
      "type": "function"
    },
    {
      "inputs": [
        {
          "internalType": "uint256",
          "name": "gameTokens",
          "type": "uint256"
        },
        {
          "internalType": "uint256",
          "name": "atPrice",
          "type": "uint256"
        },
        {
          "internalType": "uint256",
          "name": "maxSlippage",
          "type": "uint256"
        }
      ],
      "name": "sellGameTokensAtPrice",
      "outputs": [
        {
          "internalType": "uint256",
          "name": "stabletokensOut",
          "type": "uint256"
        }
      ],
      "stateMutability": "nonpayable",
      "type": "function"
    },
    {
      "inputs": [
        {
          "internalType": "address",
          "name": "_bkCommonwealthFund",
          "type": "address"
        }
      ],
      "name": "setBkCommonwealthFund",
      "outputs": [],
      "stateMutability": "nonpayable",
      "type": "function"
    },
    {
      "inputs": [
        {
          "internalType": "address",
          "name": "blocklistAddress",
          "type": "address"
        }
      ],
      "name": "setBlocklist",
      "outputs": [],
      "stateMutability": "nonpayable",
      "type": "function"
    },
    {
      "inputs": [
        {
          "components": [
            {
              "internalType": "uint8",
              "name": "stasherDiscount",
              "type": "uint8"
            },
            {
              "internalType": "uint8",
              "name": "baseCommunityFee",
              "type": "uint8"
            },
            {
              "internalType": "uint8",
              "name": "closedForMonths",
              "type": "uint8"
            },
            {
              "internalType": "uint8",
              "name": "steepCurveMonths",
              "type": "uint8"
            },
            {
              "internalType": "uint8",
              "name": "maxMonths",
              "type": "uint8"
            }
          ],
          "internalType": "struct CommunityPool.Config",
          "name": "_config",
          "type": "tuple"
        }
      ],
      "name": "setConfig",
      "outputs": [],
      "stateMutability": "nonpayable",
      "type": "function"
    },
    {
      "inputs": [
        {
          "internalType": "address",
          "name": "_gameToken",
          "type": "address"
        }
      ],
      "name": "setGameToken",
      "outputs": [],
      "stateMutability": "nonpayable",
      "type": "function"
    },
    {
      "inputs": [
        {
          "internalType": "uint256",
          "name": "_gasLimit",
          "type": "uint256"
        }
      ],
      "name": "setGasPriceLimit",
      "outputs": [],
      "stateMutability": "nonpayable",
      "type": "function"
    },
    {
      "inputs": [
        {
          "internalType": "uint256",
          "name": "blocks",
          "type": "uint256"
        }
      ],
      "name": "setLockPeriod",
      "outputs": [],
      "stateMutability": "nonpayable",
      "type": "function"
    },
    {
      "inputs": [
        {
          "internalType": "address",
          "name": "_stabletoken",
          "type": "address"
        }
      ],
      "name": "setStabletoken",
      "outputs": [],
      "stateMutability": "nonpayable",
      "type": "function"
    },
    {
      "inputs": [
        {
          "internalType": "uint256",
          "name": "_startBlock",
          "type": "uint256"
        }
      ],
      "name": "setStartBlock",
      "outputs": [],
      "stateMutability": "nonpayable",
      "type": "function"
    },
    {
      "inputs": [
        {
          "internalType": "address",
          "name": "_stasherAddress",
          "type": "address"
        }
      ],
      "name": "setStasher",
      "outputs": [],
      "stateMutability": "nonpayable",
      "type": "function"
    },
    {
      "inputs": [],
      "name": "stabletoken",
      "outputs": [
        {
          "internalType": "contract IBkERC20",
          "name": "",
          "type": "address"
        }
      ],
      "stateMutability": "view",
      "type": "function"
    },
    {
      "inputs": [],
      "name": "stabletokenReserve",
      "outputs": [
        {
          "internalType": "uint256",
          "name": "",
          "type": "uint256"
        }
      ],
      "stateMutability": "view",
      "type": "function"
    },
    {
      "inputs": [],
      "name": "startBlock",
      "outputs": [
        {
          "internalType": "uint256",
          "name": "",
          "type": "uint256"
        }
      ],
      "stateMutability": "view",
      "type": "function"
    },
    {
      "inputs": [],
      "name": "stasher",
      "outputs": [
        {
          "internalType": "contract IBkStasher",
          "name": "",
          "type": "address"
        }
      ],
      "stateMutability": "view",
      "type": "function"
    },
    {
      "inputs": [
        {
          "internalType": "bytes4",
          "name": "interfaceId",
          "type": "bytes4"
        }
      ],
      "name": "supportsInterface",
      "outputs": [
        {
          "internalType": "bool",
          "name": "",
          "type": "bool"
        }
      ],
      "stateMutability": "view",
      "type": "function"
    },
    {
      "inputs": [],
      "name": "unpause",
      "outputs": [],
      "stateMutability": "nonpayable",
      "type": "function"
    }
  ],
  "bytecode": "0x608060405234801561001057600080fd5b50612d27806100206000396000f3fe608060405234801561001057600080fd5b50600436106103425760003560e01c806379502c55116101b8578063a217fddf11610104578063d547741f116100a2578063f35e4a6e1161007c578063f35e4a6e14610710578063fc83424a14610723578063fddd519814610736578063ffe7ff7b1461074957600080fd5b8063d547741f146106e1578063d669e7cd146106f4578063e4517537146106fd57600080fd5b8063aef18ae7116100de578063aef18ae71461069f578063b6e83a75146106b2578063c2c7a9f9146106c5578063c3dfdae6146106ce57600080fd5b8063a217fddf14610684578063a4c4cffa146103e7578063a70db6711461068c57600080fd5b80639327f04e1161017157806398d5fdca1161014b57806398d5fdca14610643578063994399961461064b5780639cd441da1461065e5780639f57891d1461067157600080fd5b80639327f04e1461061457806395b6ef0c14610627578063961a929c1461063a57600080fd5b806379502c551461055757806380d29e66146105c05780638456cb59146105d35780638e28d999146105db57806391d14854146105ee578063931da89b1461060157600080fd5b806336568abe1161029257806348cd4cb1116102305780635c975abb1161020a5780635c975abb14610512578063634210f41461051d5780637782267314610531578063779972da1461054457600080fd5b806348cd4cb1146104e35780634d3796e5146104ec578063582c4577146104ff57600080fd5b80633c7fd8221161026c5780633c7fd822146104b75780633f4ba83a146104bf5780633fd8b02f146104c75780634429bf9b146104d057600080fd5b806336568abe1461048957806338de0d061461049c5780633a1891d0146104af57600080fd5b80631ebd1d25116102ff578063248a9ca3116102d9578063248a9ca3146104385780632eca21ce1461045b5780632f2ff15d1461046357806334e6436c1461047657600080fd5b80631ebd1d25146103e757806321bda63a146103fa5780632394e46d1461042557600080fd5b806301ffc9a71461034757806302716f361461036f5780630902f1ac1461039057806309231602146103ac5780631171bda9146103c1578063144775c6146103d4575b600080fd5b61035a6103553660046126c4565b610750565b60405190151581526020015b60405180910390f35b61038261037d3660046126ee565b610787565b604051908152602001610366565b60d05460d1545b60408051928352602083019190915201610366565b6103bf6103ba3660046126ee565b610a7b565b005b6103bf6103cf366004612723565b610aa0565b6103bf6103e236600461275f565b610ba7565b6103826103f53660046126ee565b610be2565b60d45461040d906001600160a01b031681565b6040516001600160a01b039091168152602001610366565b61038261043336600461277a565b610c48565b6103826104463660046126ee565b60009081526068602052604090206001015490565b6103bf610dac565b6103bf6104713660046127a6565b610de0565b6103826104843660046126ee565b610e0a565b6103bf6104973660046127a6565b610f5f565b6103976104aa3660046126ee565b610f7e565b6103bf610f94565b6103bf610fe1565b6103bf61100c565b61038260005481565b6103826104de3660046126ee565b61102c565b61038260d25481565b6103826104fa3660046126ee565b611112565b6103bf61050d36600461275f565b61116f565b609a5460ff1661035a565b60cc5461035a90600160a01b900460ff1681565b6103bf61053f3660046126ee565b6111aa565b6103bf6105523660046126ee565b611280565b60d35461058c9060ff808216916101008104821691620100008204811691630100000081048216916401000000009091041685565b6040805160ff968716815294861660208601529285169284019290925283166060830152909116608082015260a001610366565b6103bf6105ce36600461275f565b6112a1565b6103bf6112dc565b6103bf6105e93660046127d2565b6112fc565b61035a6105fc3660046127a6565b611327565b6103bf61060f3660046127ea565b611352565b6103bf61062236600461275f565b611456565b6103bf610635366004612814565b611491565b61038260025481565b6103826115e6565b6103826106593660046126ee565b6115fe565b6103bf61066c366004612881565b611654565b60cd5461040d906001600160a01b031681565b610382600081565b61039761069a3660046127a6565b611892565b6103bf6106ad36600461275f565b6118aa565b6103826106c03660046126ee565b6118ea565b61038260d05481565b60ce5461040d906001600160a01b031681565b6103bf6106ef3660046127a6565b611a6a565b61038260d15481565b60cf5461040d906001600160a01b031681565b6103bf61071e3660046126ee565b611a8f565b6103826107313660046126ee565b611aad565b61038261074436600461277a565b611b7f565b600161035a565b60006001600160e01b03198216637965db0b60e01b148061078157506301ffc9a760e01b6001600160e01b03198316145b92915050565b60cc54600090600160a81b900460ff16156107bd5760405162461bcd60e51b81526004016107b4906128a3565b60405180910390fd5b60cc805460ff60a81b1916600160a81b179055600080516020612c928339815191526107e881611ccb565b600083116108085760405162461bcd60e51b81526004016107b4906128c2565b610811836115fe565b60cf546040516323b872dd60e01b81529193506001600160a01b0316906323b872dd90610846903390309088906004016128ef565b602060405180830381600087803b15801561086057600080fd5b505af1158015610874573d6000803e3d6000fd5b505050506040513d601f19601f820116820180604052508101906108989190612913565b5060ce54604051630852cd8d60e31b8152600481018490526001600160a01b03909116906342966c6890602401600060405180830381600087803b1580156108df57600080fd5b505af11580156108f3573d6000803e3d6000fd5b505060ce546040516370a0823160e01b81523060048201526109fd93506001600160a01b0390911691506370a08231906024015b60206040518083038186803b15801561093f57600080fd5b505afa158015610953573d6000803e3d6000fd5b505050506040513d601f19601f820116820180604052508101906109779190612935565b60cf546040516370a0823160e01b81523060048201526001600160a01b03909116906370a082319060240160206040518083038186803b1580156109ba57600080fd5b505afa1580156109ce573d6000803e3d6000fd5b505050506040513d601f19601f820116820180604052508101906109f29190612935565b60d09190915560d155565b6000610a076115e6565b90507f0f960106459651f5920865daf08e328c57639961da0b3ea82d647c11ee0ec88233858584604051610a3e949392919061294e565b60405180910390a1604051818152600080516020612cd28339815191529060200160405180910390a1505060cc805460ff60a81b19169055919050565b600080516020612cb2833981519152610a9381611ccb565b610a9c82600255565b5050565b600080516020612cb2833981519152610ab881611ccb565b60405163a9059cbb60e01b81526001600160a01b0384811660048301526024820184905285169063a9059cbb90604401602060405180830381600087803b158015610b0257600080fd5b505af1158015610b16573d6000803e3d6000fd5b505050506040513d601f19601f82011682018060405250810190610b3a9190612913565b5060ce546040516370a0823160e01b8152306004820152610b6d916001600160a01b0316906370a0823190602401610927565b6000610b776115e6565b9050600080516020612cd283398151915281604051610b9891815260200190565b60405180910390a15050505050565b600080516020612cb2833981519152610bbf81611ccb565b5060d480546001600160a01b0319166001600160a01b0392909216919091179055565b6000806000610bf460d05460d1549091565b91509150818410610c175760405162461bcd60e51b81526004016107b490612974565b610c2184836129ba565b610c2b85836129d1565b610c3591906129f0565b610c40906001612a12565b949350505050565b60cc54600090600160a81b900460ff1615610c755760405162461bcd60e51b81526004016107b4906128a3565b60cc805460ff60a81b1916600160a81b179055610c90611cd5565b6002543a1115610cb25760405162461bcd60e51b81526004016107b490612a2a565b33610cbc81611d1d565b15610cd95760405162461bcd60e51b81526004016107b490612a4c565b33600090815260016020526040902054431015610d085760405162461bcd60e51b81526004016107b490612a71565b610d1133611db6565b6000610d1b6115e6565b905060006103e8610d2c86886129d1565b610d3691906129f0565b610d4090876129ba565b905080821015610d8b5760405162461bcd60e51b81526020600482015260166024820152750a0e4d2c6ca40c6d0c2dccecac840e8dede40daeac6d60531b60448201526064016107b4565b610d9487611ddf565b60cc805460ff60a81b19169055979650505050505050565b600080516020612cb2833981519152610dc481611ccb565b504360d25560d3805464ff00ff00001916640c00000000179055565b600082815260686020526040902060010154610dfb81611ccb565b610e058383611fbf565b505050565b60cc54600090600160a81b900460ff1615610e375760405162461bcd60e51b81526004016107b4906128a3565b60cc805460ff60a81b1916600160a81b179055600080516020612c92833981519152610e6281611ccb565b60008311610e825760405162461bcd60e51b81526004016107b4906128c2565b610e8b836115fe565b60cf5460d4546040516323b872dd60e01b81529294506001600160a01b03918216926323b872dd92610ec692339291169088906004016128ef565b602060405180830381600087803b158015610ee057600080fd5b505af1158015610ef4573d6000803e3d6000fd5b505050506040513d601f19601f82011682018060405250810190610f189190612913565b506040518381527f0968fe0a093e477146257875d2d58edef0a888f8ea128997cf1f241ee8348b889060200160405180910390a15060cc805460ff60a81b19169055919050565b6001600160a01b0381163314610f7457600080fd5b610a9c8282612045565b600080610f8b83336120ac565b91509150915091565b600080516020612cb2833981519152610fac81611ccb565b60ce546040516370a0823160e01b8152306004820152610fde916001600160a01b0316906370a0823190602401610927565b50565b600080516020612cb2833981519152610ff981611ccb565b5060cc80546001600160a81b0319169055565b600080516020612cb283398151915261102481611ccb565b610fde6121be565b60cc54600090600160a81b900460ff16156110595760405162461bcd60e51b81526004016107b4906128a3565b60cc805460ff60a81b1916600160a81b179055611074611cd5565b6002543a11156110965760405162461bcd60e51b81526004016107b490612a2a565b336110a081611d1d565b156110bd5760405162461bcd60e51b81526004016107b490612a4c565b336000908152600160205260409020544310156110ec5760405162461bcd60e51b81526004016107b490612a71565b6110f533611db6565b6110fe83612210565b60cc805460ff60a81b191690559392505050565b600080600061112460d05460d1549091565b90925090506111338483612a12565b61113d85836129d1565b61114791906129f0565b92508083106111685760405162461bcd60e51b81526004016107b490612974565b5050919050565b600080516020612cb283398151915261118781611ccb565b5060cf80546001600160a01b0319166001600160a01b0392909216919091179055565b600080516020612c928339815191526111c281611ccb565b60ce54604051630852cd8d60e31b8152600481018490526001600160a01b03909116906342966c6890602401600060405180830381600087803b15801561120857600080fd5b505af115801561121c573d6000803e3d6000fd5b505060ce546040516370a0823160e01b815230600482015261125493506001600160a01b0390911691506370a0823190602401610927565b600080516020612cd283398151915261126b6115e6565b60405190815260200160405180910390a15050565b600080516020612cb283398151915261129881611ccb565b610a9c82600055565b600080516020612cb28339815191526112b981611ccb565b5060ce80546001600160a01b0319166001600160a01b0392909216919091179055565b600080516020612cb28339815191526112f481611ccb565b610fde612419565b600080516020612cb283398151915261131481611ccb565b8160d36113218282612aa6565b50505050565b60009182526068602090815260408084206001600160a01b0393909316845291905290205460ff1690565b600354610100900460ff16158080156113725750600354600160ff909116105b8061138c5750303b15801561138c575060035460ff166001145b61139557600080fd5b6003805460ff1916600117905580156113b8576003805461ff0019166101001790555b6113c0612456565b6113c861246a565b6113d3600084612486565b6113eb600080516020612cb283398151915284612486565b611403600080516020612c9283398151915284612486565b61140c826118aa565b8015610e05576003805461ff0019169055604051600181527f7f26b83ff96e1f2b6a682f133852f6798a09c465da95921460cefb38474024989060200160405180910390a1505050565b600080516020612cb283398151915261146e81611ccb565b5060cd80546001600160a01b0319166001600160a01b0392909216919091179055565b600354610100900460ff16158080156114b15750600354600160ff909116105b806114cb5750303b1580156114cb575060035460ff166001145b6114d457600080fd5b6003805460ff1916600117905580156114f7576003805461ff0019166101001790555b6115018787611352565b60ce80546001600160a01b03199081166001600160a01b038881169190911790925560cf8054821687841617905560cd80549091169185169190911790556040805160a0810182526004815260466020820152600091810182905260036060820152600c60809091015260d3805464ffffffffff1916640c0300460417905560d283905560c8905561159764012a05f200600255565b80156115dd576003805461ff0019169055604051600181527f7f26b83ff96e1f2b6a682f133852f6798a09c465da95921460cefb38474024989060200160405180910390a15b50505050505050565b60006115f9670de0b6b3a7640000610be2565b905090565b600080600061161060d05460d1549091565b909250905061161f8482612a12565b61162985846129d1565b61163391906129f0565b92508183106111685760405162461bcd60e51b81526004016107b490612974565b60008061166460d05460d1549091565b9150915060008211806116775750600081115b156116dd5761168682846129d1565b61169082866129d1565b146116dd5760405162461bcd60e51b815260206004820152601d60248201527f556e62616c616e636564204c69717569646974792050726f766964656400000060448201526064016107b4565b831561176b5760ce546040516323b872dd60e01b81526001600160a01b03909116906323b872dd90611717903390309089906004016128ef565b602060405180830381600087803b15801561173157600080fd5b505af1158015611745573d6000803e3d6000fd5b505050506040513d601f19601f820116820180604052508101906117699190612913565b505b82156117f95760cf546040516323b872dd60e01b81526001600160a01b03909116906323b872dd906117a5903390309088906004016128ef565b602060405180830381600087803b1580156117bf57600080fd5b505af11580156117d3573d6000803e3d6000fd5b505050506040513d601f19601f820116820180604052508101906117f79190612913565b505b60ce546040516370a0823160e01b815230600482015261182b916001600160a01b0316906370a0823190602401610927565b60006118356115e6565b90507f64b83944e79c3ce8d4c297411de637c3e102d064677aac0c163976ebdcd6f50e3386868460405161186c949392919061294e565b60405180910390a1604051818152600080516020612cd283398151915290602001610b98565b60008061189f84846120ac565b915091509250929050565b600080516020612cb28339815191526118c281611ccb565b5060cc80546001600160a81b0319166001600160a01b0390921691909117600160a01b179055565b600060d3546000906118ff9060ff16846129d1565b90506000620d2f0060d2544361191591906129ba565b61191f91906129f0565b60d354909150640100000000900460ff16811115611947575060d354640100000000900460ff165b60d3546000906119699060ff6201000082048116916301000000900416612b55565b60ff1682101561198e5760d3546119899062010000900460ff16836129ba565b61199c565b60d3546301000000900460ff165b60d3549091506000906119c19060ff6201000082048116916301000000900416612b55565b60ff168310156119d25760006119fe565b60d3546119f19060ff6201000082048116916301000000900416612b55565b6119fe9060ff16846129ba565b60d354909150600090611a149060ff16836129d1565b611a1f84600a6129d1565b60d354611a349190610100900460ff166129ba565b611a3e91906129ba565b905080851115611a55575060009695505050505050565b611a5f85826129ba565b979650505050505050565b600082815260686020526040902060010154611a8581611ccb565b610e058383612045565b600080516020612cb2833981519152611aa781611ccb565b5060d255565b60cc54600090600160a81b900460ff1615611ada5760405162461bcd60e51b81526004016107b4906128a3565b60cc805460ff60a81b1916600160a81b179055611af5611cd5565b6002543a1115611b175760405162461bcd60e51b81526004016107b490612a2a565b33611b2181611d1d565b15611b3e5760405162461bcd60e51b81526004016107b490612a4c565b33600090815260016020526040902054431015611b6d5760405162461bcd60e51b81526004016107b490612a71565b611b7633611db6565b6110fe83611ddf565b60cc54600090600160a81b900460ff1615611bac5760405162461bcd60e51b81526004016107b4906128a3565b60cc805460ff60a81b1916600160a81b179055611bc7611cd5565b6002543a1115611be95760405162461bcd60e51b81526004016107b490612a2a565b33611bf381611d1d565b15611c105760405162461bcd60e51b81526004016107b490612a4c565b33600090815260016020526040902054431015611c3f5760405162461bcd60e51b81526004016107b490612a71565b611c4833611db6565b6000611c526115e6565b905060006103e8611c6386886129d1565b611c6d91906129f0565b611c779087612a12565b905080821115611cc25760405162461bcd60e51b81526020600482015260166024820152750a0e4d2c6ca40c6d0c2dccecac840e8dede40daeac6d60531b60448201526064016107b4565b610d9487612210565b610fde8133612490565b609a5460ff1615611d1b5760405162461bcd60e51b815260206004820152601060248201526f14185d5cd8589b194e881c185d5cd95960821b60448201526064016107b4565b565b60cc54600090600160a01b900460ff16611d3957506000919050565b60cc54604051638e204c4360e01b81526001600160a01b03848116600483015290911690638e204c439060240160206040518083038186803b158015611d7e57600080fd5b505afa158015611d92573d6000803e3d6000fd5b505050506040513d601f19601f820116820180604052508101906107819190612913565b600054611dc39043612a12565b6001600160a01b03909116600090815260016020526040902055565b6000808211611e005760405162461bcd60e51b81526004016107b4906128c2565b6000611e0b83610f7e565b5060ce546040516323b872dd60e01b81529193508392506001600160a01b0316906323b872dd90611e44903390309088906004016128ef565b602060405180830381600087803b158015611e5e57600080fd5b505af1158015611e72573d6000803e3d6000fd5b505050506040513d601f19601f82011682018060405250810190611e969190612913565b5060cf5460405163a9059cbb60e01b8152336004820152602481018490526001600160a01b039091169063a9059cbb90604401602060405180830381600087803b158015611ee357600080fd5b505af1158015611ef7573d6000803e3d6000fd5b505050506040513d601f19601f82011682018060405250810190611f1b9190612913565b5060ce546040516370a0823160e01b8152306004820152611f4e916001600160a01b0316906370a0823190602401610927565b6000611f586115e6565b90507f846c37eef631e0943682d87352ec117c20008eb7f425c9b85ac011a6d4774cc033858584604051611f8f949392919061294e565b60405180910390a1604051818152600080516020612cd28339815191529060200160405180910390a15050919050565b611fc98282611327565b610a9c5760008281526068602090815260408083206001600160a01b03851684529091529020805460ff191660011790556120013390565b6001600160a01b0316816001600160a01b0316837f2f8788117e7eff1d82e926ec794901d17c78024a50270940304540a733656f0d60405160405180910390a45050565b61204f8282611327565b15610a9c5760008281526068602090815260408083206001600160a01b0385168085529252808320805460ff1916905551339285917ff6391f5c32d9c69d2a47ea670b442974b53935d1edc7fd64eb21e047a839171b9190a45050565b6000806000806120bf60d05460d1549091565b60cd54604051635c138c9d60e01b81526001600160a01b0389811660048301529395509193506000921690635c138c9d9060240160206040518083038186803b15801561210b57600080fd5b505afa15801561211f573d6000803e3d6000fd5b505050506040513d601f19601f820116820180604052508101906121439190612935565b905061214e816118ea565b93506000606461215e868a6129d1565b61216891906129f0565b61217290896129ba565b905061217e8185612a12565b61218882856129d1565b61219291906129f0565b95508286106121b35760405162461bcd60e51b81526004016107b490612974565b505050509250929050565b6121c66124e9565b609a805460ff191690557f5db9ee0a495bf2e6ff9c91a7834c1ba4fdd244a5e8aa4e537bd38aeae4b073aa335b6040516001600160a01b03909116815260200160405180910390a1565b6000670de0b6b3a76400008210156122615760405162461bcd60e51b8152602060048201526014602482015273135a5b9a5b5d5b48189d5e481a5cc80c481090d560621b60448201526064016107b4565b61226a82610be2565b60cf546040516323b872dd60e01b81529192506001600160a01b0316906323b872dd9061229f903390309086906004016128ef565b602060405180830381600087803b1580156122b957600080fd5b505af11580156122cd573d6000803e3d6000fd5b505050506040513d601f19601f820116820180604052508101906122f19190612913565b5060ce5460405163a9059cbb60e01b8152336004820152602481018490526001600160a01b039091169063a9059cbb90604401602060405180830381600087803b15801561233e57600080fd5b505af1158015612352573d6000803e3d6000fd5b505050506040513d601f19601f820116820180604052508101906123769190612913565b5060ce546040516370a0823160e01b81523060048201526123a9916001600160a01b0316906370a0823190602401610927565b60006123b36115e6565b90507fbeae048c6d270d9469f86cf6e8fedda3c60ad770f16c24c9fc131c8e9a09101d338385846040516123ea949392919061294e565b60405180910390a1604051818152600080516020612cd28339815191529060200160405180910390a150919050565b612421611cd5565b609a805460ff191660011790557f62e78cea01bee320cd4e420270b5ea74000d11b0c9f74754ebdbfc544b05a2586121f33390565b600354610100900460ff16611d1b57600080fd5b600354610100900460ff1661247e57600080fd5b611d1b612532565b610a9c8282611fbf565b61249a8282611327565b610a9c576124a781612552565b6124b2836020612564565b6040516020016124c3929190612ba6565b60408051601f198184030181529082905262461bcd60e51b82526107b491600401612c1b565b609a5460ff16611d1b5760405162461bcd60e51b815260206004820152601460248201527314185d5cd8589b194e881b9bdd081c185d5cd95960621b60448201526064016107b4565b600354610100900460ff1661254657600080fd5b609a805460ff19169055565b60606107816001600160a01b03831660145b606060006125738360026129d1565b61257e906002612a12565b67ffffffffffffffff81111561259657612596612c4e565b6040519080825280601f01601f1916602001820160405280156125c0576020820181803683370190505b509050600360fc1b816000815181106125db576125db612c64565b60200101906001600160f81b031916908160001a905350600f60fb1b8160018151811061260a5761260a612c64565b60200101906001600160f81b031916908160001a905350600061262e8460026129d1565b612639906001612a12565b90505b60018111156126b1576f181899199a1a9b1b9c1cb0b131b232b360811b85600f166010811061266d5761266d612c64565b1a60f81b82828151811061268357612683612c64565b60200101906001600160f81b031916908160001a90535060049490941c936126aa81612c7a565b905061263c565b5083156126bd57600080fd5b9392505050565b6000602082840312156126d657600080fd5b81356001600160e01b0319811681146126bd57600080fd5b60006020828403121561270057600080fd5b5035919050565b80356001600160a01b038116811461271e57600080fd5b919050565b60008060006060848603121561273857600080fd5b61274184612707565b925061274f60208501612707565b9150604084013590509250925092565b60006020828403121561277157600080fd5b6126bd82612707565b60008060006060848603121561278f57600080fd5b505081359360208301359350604090920135919050565b600080604083850312156127b957600080fd5b823591506127c960208401612707565b90509250929050565b600060a082840312156127e457600080fd5b50919050565b600080604083850312156127fd57600080fd5b61280683612707565b91506127c960208401612707565b60008060008060008060c0878903121561282d57600080fd5b61283687612707565b955061284460208801612707565b945061285260408801612707565b935061286060608801612707565b925061286e60808801612707565b915060a087013590509295509295509295565b6000806040838503121561289457600080fd5b50508035926020909101359150565b6020808252600590820152640daeae8caf60db1b604082015260600190565b602080825260139082015272125b9cdd59999a58da595b9d08105b5bdd5b9d606a1b604082015260600190565b6001600160a01b039384168152919092166020820152604081019190915260600190565b60006020828403121561292557600080fd5b815180151581146126bd57600080fd5b60006020828403121561294757600080fd5b5051919050565b6001600160a01b0394909416845260208401929092526040830152606082015260800190565b602080825260169082015275496e73756666696369656e74204c697175696469747960501b604082015260600190565b634e487b7160e01b600052601160045260246000fd5b6000828210156129cc576129cc6129a4565b500390565b60008160001904831182151516156129eb576129eb6129a4565b500290565b600082612a0d57634e487b7160e01b600052601260045260246000fd5b500490565b60008219821115612a2557612a256129a4565b500190565b6020808252600890820152670cec2e664d0d2ced60c31b604082015260600190565b6020808252600b908201526a109b1bd8dadb1a5cdd195960aa1b604082015260600190565b60208082526008908201526731b7b7b63237bbb760c11b604082015260600190565b6000813560ff8116811461078157600080fd5b60ff612ab183612a93565b1681548160ff19821617835561ff00612acc60208601612a93565b60081b16808361ffff1984161717845562ff0000612aec60408701612a93565b60101b168362ffffff1984161793508084831717855563ff000000612b1360608801612a93565b60181b1663ff0000001985168317821717855550505050610a9c612b3960808401612a93565b825464ff00000000191660209190911b64ff0000000016178255565b600060ff821660ff84168060ff03821115612b7257612b726129a4565b019392505050565b60005b83811015612b95578181015183820152602001612b7d565b838111156113215750506000910152565b7f416363657373436f6e74726f6c3a206163636f756e7420000000000000000000815260008351612bde816017850160208801612b7a565b7001034b99036b4b9b9b4b733903937b6329607d1b6017918401918201528351612c0f816028840160208801612b7a565b01602801949350505050565b6020815260008251806020840152612c3a816040850160208701612b7a565b601f01601f19169190910160400192915050565b634e487b7160e01b600052604160045260246000fd5b634e487b7160e01b600052603260045260246000fd5b600081612c8957612c896129a4565b50600019019056fe73e573f9566d61418a34d5de3ff49360f9c51fec37f7486551670290f6285dab97667070c54ef182b0f5858b034beac1b6f3089aa2d3188bb1e8929f4fa9b929270b316b51ab2cf3a3bb8ca4d22e76a327d05e762fcaa8bd6afaf8cfde9270b7a2646970667358221220c9f4025a8f3217b4c9cc0962799ffbe42fd1079f36edf55782ed6f1c4510645a64736f6c63430008090033",
  "linkReferences": {},
  "deployedLinkReferences": {}
}