{
  "_format": "hh-sol-artifact-1",
  "contractName": "CommunityPool",
  "sourceName": "contracts/features/CommunityPool.sol",
  "abi": [
    {
      "anonymous": false,
      "inputs": [
        {
          "indexed": false,
          "internalType": "uint256",
          "name": "amount",
          "type": "uint256"
        }
      ],
      "name": "AddToFund",
      "type": "event"
    },
    {
      "anonymous": false,
      "inputs": [
        {
          "indexed": false,
          "internalType": "address",
          "name": "account",
          "type": "address"
        },
        {
          "indexed": false,
          "internalType": "uint256",
          "name": "stableTokensIn",
          "type": "uint256"
        },
        {
          "indexed": false,
          "internalType": "uint256",
          "name": "gameTokensOut",
          "type": "uint256"
        },
        {
          "indexed": false,
          "internalType": "uint256",
          "name": "newPrice",
          "type": "uint256"
        }
      ],
      "name": "Buy",
      "type": "event"
    },
    {
      "anonymous": false,
      "inputs": [
        {
          "indexed": false,
          "internalType": "address",
          "name": "account",
          "type": "address"
        },
        {
          "indexed": false,
          "internalType": "uint256",
          "name": "stableTokensIn",
          "type": "uint256"
        },
        {
          "indexed": false,
          "internalType": "uint256",
          "name": "gameTokensBurned",
          "type": "uint256"
        },
        {
          "indexed": false,
          "internalType": "uint256",
          "name": "newPrice",
          "type": "uint256"
        }
      ],
      "name": "BuyAndBurn",
      "type": "event"
    },
    {
      "anonymous": false,
      "inputs": [
        {
          "indexed": false,
          "internalType": "uint8",
          "name": "version",
          "type": "uint8"
        }
      ],
      "name": "Initialized",
      "type": "event"
    },
    {
      "anonymous": false,
      "inputs": [
        {
          "indexed": false,
          "internalType": "address",
          "name": "from",
          "type": "address"
        },
        {
          "indexed": false,
          "internalType": "uint256",
          "name": "gameTokensIn",
          "type": "uint256"
        },
        {
          "indexed": false,
          "internalType": "uint256",
          "name": "stableTokensIn",
          "type": "uint256"
        },
        {
          "indexed": false,
          "internalType": "uint256",
          "name": "newPrice",
          "type": "uint256"
        }
      ],
      "name": "LiquidityAdded",
      "type": "event"
    },
    {
      "anonymous": false,
      "inputs": [
        {
          "indexed": false,
          "internalType": "uint256",
          "name": "price",
          "type": "uint256"
        }
      ],
      "name": "NewPrice",
      "type": "event"
    },
    {
      "anonymous": false,
      "inputs": [
        {
          "indexed": false,
          "internalType": "address",
          "name": "account",
          "type": "address"
        }
      ],
      "name": "Paused",
      "type": "event"
    },
    {
      "anonymous": false,
      "inputs": [
        {
          "indexed": true,
          "internalType": "bytes32",
          "name": "role",
          "type": "bytes32"
        },
        {
          "indexed": true,
          "internalType": "bytes32",
          "name": "previousAdminRole",
          "type": "bytes32"
        },
        {
          "indexed": true,
          "internalType": "bytes32",
          "name": "newAdminRole",
          "type": "bytes32"
        }
      ],
      "name": "RoleAdminChanged",
      "type": "event"
    },
    {
      "anonymous": false,
      "inputs": [
        {
          "indexed": true,
          "internalType": "bytes32",
          "name": "role",
          "type": "bytes32"
        },
        {
          "indexed": true,
          "internalType": "address",
          "name": "account",
          "type": "address"
        },
        {
          "indexed": true,
          "internalType": "address",
          "name": "sender",
          "type": "address"
        }
      ],
      "name": "RoleGranted",
      "type": "event"
    },
    {
      "anonymous": false,
      "inputs": [
        {
          "indexed": true,
          "internalType": "bytes32",
          "name": "role",
          "type": "bytes32"
        },
        {
          "indexed": true,
          "internalType": "address",
          "name": "account",
          "type": "address"
        },
        {
          "indexed": true,
          "internalType": "address",
          "name": "sender",
          "type": "address"
        }
      ],
      "name": "RoleRevoked",
      "type": "event"
    },
    {
      "anonymous": false,
      "inputs": [
        {
          "indexed": false,
          "internalType": "address",
          "name": "account",
          "type": "address"
        },
        {
          "indexed": false,
          "internalType": "uint256",
          "name": "gameTokensIn",
          "type": "uint256"
        },
        {
          "indexed": false,
          "internalType": "uint256",
          "name": "stableTokensOut",
          "type": "uint256"
        },
        {
          "indexed": false,
          "internalType": "uint256",
          "name": "newPrice",
          "type": "uint256"
        }
      ],
      "name": "Sell",
      "type": "event"
    },
    {
      "anonymous": false,
      "inputs": [
        {
          "indexed": false,
          "internalType": "address",
          "name": "account",
          "type": "address"
        }
      ],
      "name": "Unpaused",
      "type": "event"
    },
    {
      "inputs": [],
      "name": "DEFAULT_ADMIN_ROLE",
      "outputs": [
        {
          "internalType": "bytes32",
          "name": "",
          "type": "bytes32"
        }
      ],
      "stateMutability": "view",
      "type": "function"
    },
    {
      "inputs": [
        {
          "internalType": "address",
          "name": "_operator",
          "type": "address"
        },
        {
          "internalType": "address",
          "name": "_blocklistAddress",
          "type": "address"
        }
      ],
      "name": "__Administrable_init",
      "outputs": [],
      "stateMutability": "nonpayable",
      "type": "function"
    },
    {
      "inputs": [],
      "name": "_resetBlocklist",
      "outputs": [],
      "stateMutability": "nonpayable",
      "type": "function"
    },
    {
      "inputs": [
        {
          "internalType": "uint256",
          "name": "amountIn",
          "type": "uint256"
        }
      ],
      "name": "actuallyBuyAndBurn",
      "outputs": [
        {
          "internalType": "uint256",
          "name": "amountBurned",
          "type": "uint256"
        }
      ],
      "stateMutability": "nonpayable",
      "type": "function"
    },
    {
      "inputs": [
        {
          "internalType": "uint256",
          "name": "amountOfBct",
          "type": "uint256"
        },
        {
          "internalType": "uint256",
          "name": "amountOfStableTokens",
          "type": "uint256"
        }
      ],
      "name": "addLiquidity",
      "outputs": [],
      "stateMutability": "nonpayable",
      "type": "function"
    },
    {
      "inputs": [
        {
          "internalType": "uint256",
          "name": "amount",
          "type": "uint256"
        }
      ],
      "name": "burnBct",
      "outputs": [],
      "stateMutability": "nonpayable",
      "type": "function"
    },
    {
      "inputs": [
        {
          "internalType": "uint256",
          "name": "amountIn",
          "type": "uint256"
        }
      ],
      "name": "buyAndBurn",
      "outputs": [
        {
          "internalType": "uint256",
          "name": "amountBurned",
          "type": "uint256"
        }
      ],
      "stateMutability": "nonpayable",
      "type": "function"
    },
    {
      "inputs": [
        {
          "internalType": "uint256",
          "name": "gameTokens",
          "type": "uint256"
        }
      ],
      "name": "buyGameTokens",
      "outputs": [
        {
          "internalType": "uint256",
          "name": "stableTokensPaid",
          "type": "uint256"
        }
      ],
      "stateMutability": "nonpayable",
      "type": "function"
    },
    {
      "inputs": [
        {
          "internalType": "uint256",
          "name": "gameTokens",
          "type": "uint256"
        },
        {
          "internalType": "uint256",
          "name": "atPrice",
          "type": "uint256"
        },
        {
          "internalType": "uint256",
          "name": "maxSlippage",
          "type": "uint256"
        }
      ],
      "name": "buyGameTokensAtPrice",
      "outputs": [
        {
          "internalType": "uint256",
          "name": "stableTokensPaid",
          "type": "uint256"
        }
      ],
      "stateMutability": "nonpayable",
      "type": "function"
    },
    {
      "inputs": [],
      "name": "config",
      "outputs": [
        {
          "internalType": "uint8",
          "name": "stasherDiscount",
          "type": "uint8"
        },
        {
          "internalType": "uint8",
          "name": "baseCommunityFee",
          "type": "uint8"
        },
        {
          "internalType": "uint8",
          "name": "closedForMonths",
          "type": "uint8"
        },
        {
          "internalType": "uint8",
          "name": "steepCurveMonths",
          "type": "uint8"
        },
        {
          "internalType": "uint8",
          "name": "maxMonths",
          "type": "uint8"
        }
      ],
      "stateMutability": "view",
      "type": "function"
    },
    {
      "inputs": [],
      "name": "gameToken",
      "outputs": [
        {
          "internalType": "contract IBkERC20",
          "name": "",
          "type": "address"
        }
      ],
      "stateMutability": "view",
      "type": "function"
    },
    {
      "inputs": [],
      "name": "gameTokenReserve",
      "outputs": [
        {
          "internalType": "uint256",
          "name": "",
          "type": "uint256"
        }
      ],
      "stateMutability": "view",
      "type": "function"
    },
    {
      "inputs": [],
      "name": "gasPriceLimit",
      "outputs": [
        {
          "internalType": "uint256",
          "name": "",
          "type": "uint256"
        }
      ],
      "stateMutability": "view",
      "type": "function"
    },
    {
      "inputs": [
        {
          "internalType": "uint256",
          "name": "stasherLevel",
          "type": "uint256"
        }
      ],
      "name": "getCommunityFeePct",
      "outputs": [
        {
          "internalType": "uint256",
          "name": "feeInPct",
          "type": "uint256"
        }
      ],
      "stateMutability": "view",
      "type": "function"
    },
    {
      "inputs": [],
      "name": "getPrice",
      "outputs": [
        {
          "internalType": "uint256",
          "name": "_price",
          "type": "uint256"
        }
      ],
      "stateMutability": "view",
      "type": "function"
    },
    {
      "inputs": [],
      "name": "getReserves",
      "outputs": [
        {
          "internalType": "uint256",
          "name": "_gameTokenReserve",
          "type": "uint256"
        },
        {
          "internalType": "uint256",
          "name": "_stableTokenReserve",
          "type": "uint256"
        }
      ],
      "stateMutability": "view",
      "type": "function"
    },
    {
      "inputs": [
        {
          "internalType": "bytes32",
          "name": "role",
          "type": "bytes32"
        }
      ],
      "name": "getRoleAdmin",
      "outputs": [
        {
          "internalType": "bytes32",
          "name": "",
          "type": "bytes32"
        }
      ],
      "stateMutability": "view",
      "type": "function"
    },
    {
      "inputs": [
        {
          "internalType": "uint256",
          "name": "bctOut",
          "type": "uint256"
        }
      ],
      "name": "getStableTokensIn",
      "outputs": [
        {
          "internalType": "uint256",
          "name": "stableTokensIn",
          "type": "uint256"
        }
      ],
      "stateMutability": "view",
      "type": "function"
    },
    {
      "inputs": [
        {
          "internalType": "bytes32",
          "name": "role",
          "type": "bytes32"
        },
        {
          "internalType": "address",
          "name": "account",
          "type": "address"
        }
      ],
      "name": "grantRole",
      "outputs": [],
      "stateMutability": "nonpayable",
      "type": "function"
    },
    {
      "inputs": [],
      "name": "hasBlocklist",
      "outputs": [
        {
          "internalType": "bool",
          "name": "",
          "type": "bool"
        }
      ],
      "stateMutability": "view",
      "type": "function"
    },
    {
      "inputs": [
        {
          "internalType": "bytes32",
          "name": "role",
          "type": "bytes32"
        },
        {
          "internalType": "address",
          "name": "account",
          "type": "address"
        }
      ],
      "name": "hasRole",
      "outputs": [
        {
          "internalType": "bool",
          "name": "",
          "type": "bool"
        }
      ],
      "stateMutability": "view",
      "type": "function"
    },
    {
      "inputs": [
        {
          "internalType": "address",
          "name": "_operator",
          "type": "address"
        },
        {
          "internalType": "address",
          "name": "_blocklist",
          "type": "address"
        },
        {
          "internalType": "address",
          "name": "_gameToken",
          "type": "address"
        },
        {
          "internalType": "address",
          "name": "_stableToken",
          "type": "address"
        },
        {
          "internalType": "address",
          "name": "_stasher",
          "type": "address"
        },
        {
          "internalType": "uint256",
          "name": "_startBlock",
          "type": "uint256"
        }
      ],
      "name": "initialize",
      "outputs": [],
      "stateMutability": "nonpayable",
      "type": "function"
    },
    {
      "inputs": [],
      "name": "isOpenForSelling",
      "outputs": [
        {
          "internalType": "bool",
          "name": "",
          "type": "bool"
        }
      ],
      "stateMutability": "pure",
      "type": "function"
    },
    {
      "inputs": [],
      "name": "lockPeriod",
      "outputs": [
        {
          "internalType": "uint256",
          "name": "",
          "type": "uint256"
        }
      ],
      "stateMutability": "view",
      "type": "function"
    },
    {
      "inputs": [],
      "name": "openForSelling",
      "outputs": [],
      "stateMutability": "nonpayable",
      "type": "function"
    },
    {
      "inputs": [],
      "name": "pause",
      "outputs": [],
      "stateMutability": "nonpayable",
      "type": "function"
    },
    {
      "inputs": [],
      "name": "paused",
      "outputs": [
        {
          "internalType": "bool",
          "name": "",
          "type": "bool"
        }
      ],
      "stateMutability": "view",
      "type": "function"
    },
    {
      "inputs": [
        {
          "internalType": "uint256",
          "name": "gameTokensToBuy",
          "type": "uint256"
        }
      ],
      "name": "quoteBuyGameTokens",
      "outputs": [
        {
          "internalType": "uint256",
          "name": "costInStableTokens",
          "type": "uint256"
        }
      ],
      "stateMutability": "view",
      "type": "function"
    },
    {
      "inputs": [
        {
          "internalType": "uint256",
          "name": "gameTokens",
          "type": "uint256"
        }
      ],
      "name": "quoteGameToStableTokens",
      "outputs": [
        {
          "internalType": "uint256",
          "name": "stableTokens",
          "type": "uint256"
        }
      ],
      "stateMutability": "view",
      "type": "function"
    },
    {
      "inputs": [
        {
          "internalType": "uint256",
          "name": "gameTokensToSell",
          "type": "uint256"
        }
      ],
      "name": "quoteSellGameTokens",
      "outputs": [
        {
          "internalType": "uint256",
          "name": "stableTokensOut",
          "type": "uint256"
        },
        {
          "internalType": "uint256",
          "name": "feePct",
          "type": "uint256"
        }
      ],
      "stateMutability": "view",
      "type": "function"
    },
    {
      "inputs": [
        {
          "internalType": "uint256",
          "name": "gameTokensToSell",
          "type": "uint256"
        },
        {
          "internalType": "address",
          "name": "account",
          "type": "address"
        }
      ],
      "name": "quoteSellGameTokensFor",
      "outputs": [
        {
          "internalType": "uint256",
          "name": "stableTokensOut",
          "type": "uint256"
        },
        {
          "internalType": "uint256",
          "name": "feePct",
          "type": "uint256"
        }
      ],
      "stateMutability": "view",
      "type": "function"
    },
    {
      "inputs": [
        {
          "internalType": "uint256",
          "name": "stableTokens",
          "type": "uint256"
        }
      ],
      "name": "quoteStableToGameTokens",
      "outputs": [
        {
          "internalType": "uint256",
          "name": "gameTokens",
          "type": "uint256"
        }
      ],
      "stateMutability": "view",
      "type": "function"
    },
    {
      "inputs": [
        {
          "internalType": "address",
          "name": "tokenAddress",
          "type": "address"
        },
        {
          "internalType": "address",
          "name": "to",
          "type": "address"
        },
        {
          "internalType": "uint256",
          "name": "amount",
          "type": "uint256"
        }
      ],
      "name": "recoverERC20",
      "outputs": [],
      "stateMutability": "nonpayable",
      "type": "function"
    },
    {
      "inputs": [
        {
          "internalType": "bytes32",
          "name": "role",
          "type": "bytes32"
        },
        {
          "internalType": "address",
          "name": "account",
          "type": "address"
        }
      ],
      "name": "renounceRole",
      "outputs": [],
      "stateMutability": "nonpayable",
      "type": "function"
    },
    {
      "inputs": [],
      "name": "resetReserves",
      "outputs": [],
      "stateMutability": "nonpayable",
      "type": "function"
    },
    {
      "inputs": [
        {
          "internalType": "bytes32",
          "name": "role",
          "type": "bytes32"
        },
        {
          "internalType": "address",
          "name": "account",
          "type": "address"
        }
      ],
      "name": "revokeRole",
      "outputs": [],
      "stateMutability": "nonpayable",
      "type": "function"
    },
    {
      "inputs": [
        {
          "internalType": "uint256",
          "name": "gameTokens",
          "type": "uint256"
        }
      ],
      "name": "sellGameTokens",
      "outputs": [
        {
          "internalType": "uint256",
          "name": "stableTokensOut",
          "type": "uint256"
        }
      ],
      "stateMutability": "nonpayable",
      "type": "function"
    },
    {
      "inputs": [
        {
          "internalType": "uint256",
          "name": "gameTokens",
          "type": "uint256"
        },
        {
          "internalType": "uint256",
          "name": "atPrice",
          "type": "uint256"
        },
        {
          "internalType": "uint256",
          "name": "maxSlippage",
          "type": "uint256"
        }
      ],
      "name": "sellGameTokensAtPrice",
      "outputs": [
        {
          "internalType": "uint256",
          "name": "stableTokensOut",
          "type": "uint256"
        }
      ],
      "stateMutability": "nonpayable",
      "type": "function"
    },
    {
      "inputs": [
        {
          "internalType": "address",
          "name": "blocklistAddress",
          "type": "address"
        }
      ],
      "name": "setBlocklist",
      "outputs": [],
      "stateMutability": "nonpayable",
      "type": "function"
    },
    {
      "inputs": [
        {
          "components": [
            {
              "internalType": "uint8",
              "name": "stasherDiscount",
              "type": "uint8"
            },
            {
              "internalType": "uint8",
              "name": "baseCommunityFee",
              "type": "uint8"
            },
            {
              "internalType": "uint8",
              "name": "closedForMonths",
              "type": "uint8"
            },
            {
              "internalType": "uint8",
              "name": "steepCurveMonths",
              "type": "uint8"
            },
            {
              "internalType": "uint8",
              "name": "maxMonths",
              "type": "uint8"
            }
          ],
          "internalType": "struct CommunityPool.Config",
          "name": "_config",
          "type": "tuple"
        }
      ],
      "name": "setConfig",
      "outputs": [],
      "stateMutability": "nonpayable",
      "type": "function"
    },
    {
      "inputs": [
        {
          "internalType": "address",
          "name": "_gameToken",
          "type": "address"
        }
      ],
      "name": "setGameToken",
      "outputs": [],
      "stateMutability": "nonpayable",
      "type": "function"
    },
    {
      "inputs": [
        {
          "internalType": "uint256",
          "name": "_gasLimit",
          "type": "uint256"
        }
      ],
      "name": "setGasPriceLimit",
      "outputs": [],
      "stateMutability": "nonpayable",
      "type": "function"
    },
    {
      "inputs": [
        {
          "internalType": "uint256",
          "name": "blocks",
          "type": "uint256"
        }
      ],
      "name": "setLockPeriod",
      "outputs": [],
      "stateMutability": "nonpayable",
      "type": "function"
    },
    {
      "inputs": [
        {
          "internalType": "address",
          "name": "_stableToken",
          "type": "address"
        }
      ],
      "name": "setStableToken",
      "outputs": [],
      "stateMutability": "nonpayable",
      "type": "function"
    },
    {
      "inputs": [
        {
          "internalType": "uint256",
          "name": "_startBlock",
          "type": "uint256"
        }
      ],
      "name": "setStartBlock",
      "outputs": [],
      "stateMutability": "nonpayable",
      "type": "function"
    },
    {
      "inputs": [
        {
          "internalType": "address",
          "name": "_stasherAddress",
          "type": "address"
        }
      ],
      "name": "setStasher",
      "outputs": [],
      "stateMutability": "nonpayable",
      "type": "function"
    },
    {
      "inputs": [],
      "name": "stableToken",
      "outputs": [
        {
          "internalType": "contract IBkERC20",
          "name": "",
          "type": "address"
        }
      ],
      "stateMutability": "view",
      "type": "function"
    },
    {
      "inputs": [],
      "name": "stableTokenReserve",
      "outputs": [
        {
          "internalType": "uint256",
          "name": "",
          "type": "uint256"
        }
      ],
      "stateMutability": "view",
      "type": "function"
    },
    {
      "inputs": [],
      "name": "startBlock",
      "outputs": [
        {
          "internalType": "uint256",
          "name": "",
          "type": "uint256"
        }
      ],
      "stateMutability": "view",
      "type": "function"
    },
    {
      "inputs": [],
      "name": "stasher",
      "outputs": [
        {
          "internalType": "contract IBkStasher",
          "name": "",
          "type": "address"
        }
      ],
      "stateMutability": "view",
      "type": "function"
    },
    {
      "inputs": [
        {
          "internalType": "bytes4",
          "name": "interfaceId",
          "type": "bytes4"
        }
      ],
      "name": "supportsInterface",
      "outputs": [
        {
          "internalType": "bool",
          "name": "",
          "type": "bool"
        }
      ],
      "stateMutability": "view",
      "type": "function"
    },
    {
      "inputs": [],
      "name": "unpause",
      "outputs": [],
      "stateMutability": "nonpayable",
      "type": "function"
    }
  ],
  "bytecode": "0x608060405234801561001057600080fd5b50612c8b806100206000396000f3fe608060405234801561001057600080fd5b506004361061030c5760003560e01c80638e28d9991161019d578063a9d75b2b116100e9578063d547741f116100a2578063f35e4a6e1161007c578063f35e4a6e146106c7578063fc83424a146106da578063fddd5198146106ed578063ffe7ff7b1461070057600080fd5b8063d547741f1461068e578063db1bc87b146106a1578063e76a9627146106b457600080fd5b8063a9d75b2b14610630578063aef18ae714610643578063b00a292214610656578063b6e83a751461065f578063c2c7a9f914610672578063c3dfdae61461067b57600080fd5b806398d5fdca116101565780639f57891d116101305780639f57891d146105d7578063a217fddf14610602578063a4c4cffa1461060a578063a70db6711461061d57600080fd5b806398d5fdca146105a957806399439996146105b15780639cd441da146105c457600080fd5b80638e28d9991461054157806391d1485414610554578063931da89b146105675780639327f04e1461057a57806395b6ef0c1461058d578063961a929c146105a057600080fd5b80633a1891d01161025c578063634210f411610215578063779972da116101ef578063779972da146104aa57806379502c55146104bd57806380d29e66146105265780638456cb591461053957600080fd5b8063634210f414610470578063704a0ff514610484578063778226731461049757600080fd5b80633a1891d0146104305780633f4ba83a146104385780633fd8b02f146104405780634429bf9b1461044957806348cd4cb11461045c5780635c975abb1461046557600080fd5b80632394e46d116102c95780632f2ff15d116102a35780632f2ff15d146103e457806334e6436c146103f757806336568abe1461040a57806338de0d061461041d57600080fd5b80632394e46d146103a6578063248a9ca3146103b95780632eca21ce146103dc57600080fd5b806301ffc9a71461031157806302716f361461033957806306a450701461035a5780630902f1ac1461036457806309231602146103805780631171bda914610393575b600080fd5b61032461031f366004612628565b610707565b60405190151581526020015b60405180910390f35b61034c610347366004612652565b61073e565b604051908152602001610330565b610362610a11565b005b60d05460d1545b60408051928352602083019190915201610330565b61036261038e366004612652565b610a3c565b6103626103a1366004612687565b610a61565b61034c6103b43660046126c3565b610b68565b61034c6103c7366004612652565b60009081526068602052604090206001015490565b610362610ccc565b6103626103f23660046126ef565b610d00565b61034c610405366004612652565b610d2a565b6103626104183660046126ef565b610e72565b61036b61042b366004612652565b610e91565b610362610ea7565b610362610ef4565b61034c60005481565b61034c610457366004612652565b610f14565b61034c60d25481565b609a5460ff16610324565b60cc5461032490600160a01b900460ff1681565b61034c610492366004612652565b610ffa565b6103626104a5366004612652565b611057565b6103626104b8366004612652565b61112d565b60d3546104f29060ff808216916101008104821691620100008204811691630100000081048216916401000000009091041685565b6040805160ff968716815294861660208601529285169284019290925283166060830152909116608082015260a001610330565b61036261053436600461271b565b61114e565b610362611189565b61036261054f366004612736565b6111a9565b6103246105623660046126ef565b6111d4565b61036261057536600461274e565b6111ff565b61036261058836600461271b565b611303565b61036261059b366004612778565b61133e565b61034c60025481565b61034c611493565b61034c6105bf366004612652565b6114ab565b6103626105d23660046127e5565b611501565b60cd546105ea906001600160a01b031681565b6040516001600160a01b039091168152602001610330565b61034c600081565b61034c610618366004612652565b6116fd565b61036b61062b3660046126ef565b6117b2565b60cf546105ea906001600160a01b031681565b61036261065136600461271b565b6117ca565b61034c60d15481565b61034c61066d366004612652565b61180a565b61034c60d05481565b60ce546105ea906001600160a01b031681565b61036261069c3660046126ef565b61198a565b6103626106af36600461271b565b6119af565b61034c6106c2366004612652565b6119ea565b6103626106d5366004612652565b6119fc565b61034c6106e8366004612652565b611a1a565b61034c6106fb3660046126c3565b611aec565b6001610324565b60006001600160e01b03198216637965db0b60e01b148061073857506301ffc9a760e01b6001600160e01b03198316145b92915050565b60cc54600090600160a81b900460ff16156107745760405162461bcd60e51b815260040161076b90612807565b60405180910390fd5b60cc805460ff60a81b1916600160a81b179055600080516020612bf683398151915261079f81611c38565b600083116107bf5760405162461bcd60e51b815260040161076b90612826565b6107c8836114ab565b60cf546040516323b872dd60e01b81529193506001600160a01b0316906323b872dd906107fd90339030908890600401612853565b600060405180830381600087803b15801561081757600080fd5b505af115801561082b573d6000803e3d6000fd5b505060ce54604051630852cd8d60e31b8152600481018690526001600160a01b0390911692506342966c689150602401600060405180830381600087803b15801561087557600080fd5b505af1158015610889573d6000803e3d6000fd5b505060ce546040516370a0823160e01b815230600482015261099393506001600160a01b0390911691506370a08231906024015b60206040518083038186803b1580156108d557600080fd5b505afa1580156108e9573d6000803e3d6000fd5b505050506040513d601f19601f8201168201806040525081019061090d9190612877565b60cf546040516370a0823160e01b81523060048201526001600160a01b03909116906370a082319060240160206040518083038186803b15801561095057600080fd5b505afa158015610964573d6000803e3d6000fd5b505050506040513d601f19601f820116820180604052508101906109889190612877565b60d09190915560d155565b600061099d611493565b90507f0f960106459651f5920865daf08e328c57639961da0b3ea82d647c11ee0ec882338585846040516109d49493929190612890565b60405180910390a1604051818152600080516020612c368339815191529060200160405180910390a1505060cc805460ff60a81b19169055919050565b600080516020612c16833981519152610a2981611c38565b5060cc80546001600160a81b0319169055565b600080516020612c16833981519152610a5481611c38565b610a5d82600255565b5050565b600080516020612c16833981519152610a7981611c38565b60405163a9059cbb60e01b81526001600160a01b0384811660048301526024820184905285169063a9059cbb90604401602060405180830381600087803b158015610ac357600080fd5b505af1158015610ad7573d6000803e3d6000fd5b505050506040513d601f19601f82011682018060405250810190610afb91906128b6565b5060ce546040516370a0823160e01b8152306004820152610b2e916001600160a01b0316906370a08231906024016108bd565b6000610b38611493565b9050600080516020612c3683398151915281604051610b5991815260200190565b60405180910390a15050505050565b60cc54600090600160a81b900460ff1615610b955760405162461bcd60e51b815260040161076b90612807565b60cc805460ff60a81b1916600160a81b179055610bb0611c42565b6002543a1115610bd25760405162461bcd60e51b815260040161076b906128d8565b33610bdc81611c8a565b15610bf95760405162461bcd60e51b815260040161076b906128fa565b33600090815260016020526040902054431015610c285760405162461bcd60e51b815260040161076b9061291f565b610c3133611d23565b6000610c3b611493565b905060006103e8610c4c8688612957565b610c569190612976565b610c609087612998565b905080821015610cab5760405162461bcd60e51b81526020600482015260166024820152750a0e4d2c6ca40c6d0c2dccecac840e8dede40daeac6d60531b604482015260640161076b565b610cb487611d4c565b60cc805460ff60a81b19169055979650505050505050565b600080516020612c16833981519152610ce481611c38565b504360d25560d3805464ff00ff00001916640c00000000179055565b600082815260686020526040902060010154610d1b81611c38565b610d258383611f0b565b505050565b60cc54600090600160a81b900460ff1615610d575760405162461bcd60e51b815260040161076b90612807565b60cc805460ff60a81b1916600160a81b179055600080516020612bf6833981519152610d8281611c38565b60008311610da25760405162461bcd60e51b815260040161076b90612826565b610dab836114ab565b60cf546040516323b872dd60e01b81529193506001600160a01b0316906323b872dd90610df4903390734bd1e4cddf8862cdc0d51a282110f65af2d1e4f6908890600401612853565b600060405180830381600087803b158015610e0e57600080fd5b505af1158015610e22573d6000803e3d6000fd5b505050507f0968fe0a093e477146257875d2d58edef0a888f8ea128997cf1f241ee8348b8883604051610e5791815260200190565b60405180910390a15060cc805460ff60a81b19169055919050565b6001600160a01b0381163314610e8757600080fd5b610a5d8282611f91565b600080610e9e8333611ff8565b91509150915091565b600080516020612c16833981519152610ebf81611c38565b60ce546040516370a0823160e01b8152306004820152610ef1916001600160a01b0316906370a08231906024016108bd565b50565b600080516020612c16833981519152610f0c81611c38565b610ef1612143565b60cc54600090600160a81b900460ff1615610f415760405162461bcd60e51b815260040161076b90612807565b60cc805460ff60a81b1916600160a81b179055610f5c611c42565b6002543a1115610f7e5760405162461bcd60e51b815260040161076b906128d8565b33610f8881611c8a565b15610fa55760405162461bcd60e51b815260040161076b906128fa565b33600090815260016020526040902054431015610fd45760405162461bcd60e51b815260040161076b9061291f565b610fdd33611d23565b610fe683612195565b60cc805460ff60a81b191690559392505050565b600080600061100c60d05460d1549091565b909250905061101b84836129af565b6110258583612957565b61102f9190612976565b92508083106110505760405162461bcd60e51b815260040161076b906129c7565b5050919050565b600080516020612bf683398151915261106f81611c38565b60ce54604051630852cd8d60e31b8152600481018490526001600160a01b03909116906342966c6890602401600060405180830381600087803b1580156110b557600080fd5b505af11580156110c9573d6000803e3d6000fd5b505060ce546040516370a0823160e01b815230600482015261110193506001600160a01b0390911691506370a08231906024016108bd565b600080516020612c36833981519152611118611493565b60405190815260200160405180910390a15050565b600080516020612c1683398151915261114581611c38565b610a5d82600055565b600080516020612c1683398151915261116681611c38565b5060ce80546001600160a01b0319166001600160a01b0392909216919091179055565b600080516020612c168339815191526111a181611c38565b610ef161237d565b600080516020612c168339815191526111c181611c38565b8160d36111ce8282612a0a565b50505050565b60009182526068602090815260408084206001600160a01b0393909316845291905290205460ff1690565b600354610100900460ff161580801561121f5750600354600160ff909116105b806112395750303b158015611239575060035460ff166001145b61124257600080fd5b6003805460ff191660011790558015611265576003805461ff0019166101001790555b61126d6123ba565b6112756123ce565b6112806000846123ea565b611298600080516020612c16833981519152846123ea565b6112b0600080516020612bf6833981519152846123ea565b6112b9826117ca565b8015610d25576003805461ff0019169055604051600181527f7f26b83ff96e1f2b6a682f133852f6798a09c465da95921460cefb38474024989060200160405180910390a1505050565b600080516020612c1683398151915261131b81611c38565b5060cd80546001600160a01b0319166001600160a01b0392909216919091179055565b600354610100900460ff161580801561135e5750600354600160ff909116105b806113785750303b158015611378575060035460ff166001145b61138157600080fd5b6003805460ff1916600117905580156113a4576003805461ff0019166101001790555b6113ae87876111ff565b60ce80546001600160a01b03199081166001600160a01b038881169190911790925560cf8054821687841617905560cd80549091169185169190911790556040805160a0810182526004815260466020820152600091810182905260036060820152600c60809091015260d3805464ffffffffff1916640c0300460417905560d283905560c8905561144464012a05f200600255565b801561148a576003805461ff0019169055604051600181527f7f26b83ff96e1f2b6a682f133852f6798a09c465da95921460cefb38474024989060200160405180910390a15b50505050505050565b60006114a6670de0b6b3a76400006116fd565b905090565b60008060006114bd60d05460d1549091565b90925090506114cc84826129af565b6114d68584612957565b6114e09190612976565b92508183106110505760405162461bcd60e51b815260040161076b906129c7565b60008061151160d05460d1549091565b9150915060008211806115245750600081115b1561158a576115338284612957565b61153d8286612957565b1461158a5760405162461bcd60e51b815260206004820152601d60248201527f556e62616c616e636564204c69717569646974792050726f7669646564000000604482015260640161076b565b83156115f75760ce546040516323b872dd60e01b81526001600160a01b03909116906323b872dd906115c490339030908990600401612853565b600060405180830381600087803b1580156115de57600080fd5b505af11580156115f2573d6000803e3d6000fd5b505050505b82156116645760cf546040516323b872dd60e01b81526001600160a01b03909116906323b872dd9061163190339030908890600401612853565b600060405180830381600087803b15801561164b57600080fd5b505af115801561165f573d6000803e3d6000fd5b505050505b60ce546040516370a0823160e01b8152306004820152611696916001600160a01b0316906370a08231906024016108bd565b60006116a0611493565b90507f64b83944e79c3ce8d4c297411de637c3e102d064677aac0c163976ebdcd6f50e338686846040516116d79493929190612890565b60405180910390a1604051818152600080516020612c3683398151915290602001610b59565b6000670de0b6b3a764000082101561174e5760405162461bcd60e51b8152602060048201526014602482015273135a5b9a5b5d5b48189d5e481a5cc80c481090d560621b604482015260640161076b565b60008061175e60d05460d1549091565b915091508184106117815760405162461bcd60e51b815260040161076b906129c7565b61178b8483612998565b6117958583612957565b61179f9190612976565b6117aa9060016129af565b949350505050565b6000806117bf8484611ff8565b915091509250929050565b600080516020612c168339815191526117e281611c38565b5060cc80546001600160a81b0319166001600160a01b0390921691909117600160a01b179055565b600060d35460009061181f9060ff1684612957565b90506000620d2f0060d254436118359190612998565b61183f9190612976565b60d354909150640100000000900460ff16811115611867575060d354640100000000900460ff165b60d3546000906118899060ff6201000082048116916301000000900416612ab9565b60ff168210156118ae5760d3546118a99062010000900460ff1683612998565b6118bc565b60d3546301000000900460ff165b60d3549091506000906118e19060ff6201000082048116916301000000900416612ab9565b60ff168310156118f257600061191e565b60d3546119119060ff6201000082048116916301000000900416612ab9565b61191e9060ff1684612998565b60d3549091506000906119349060ff1683612957565b61193f84600a612957565b60d3546119549190610100900460ff16612998565b61195e9190612998565b905080851115611975575060009695505050505050565b61197f8582612998565b979650505050505050565b6000828152606860205260409020600101546119a581611c38565b610d258383611f91565b600080516020612c168339815191526119c781611c38565b5060cf80546001600160a01b0319166001600160a01b0392909216919091179055565b600080600061175e60d05460d1549091565b600080516020612c16833981519152611a1481611c38565b5060d255565b60cc54600090600160a81b900460ff1615611a475760405162461bcd60e51b815260040161076b90612807565b60cc805460ff60a81b1916600160a81b179055611a62611c42565b6002543a1115611a845760405162461bcd60e51b815260040161076b906128d8565b33611a8e81611c8a565b15611aab5760405162461bcd60e51b815260040161076b906128fa565b33600090815260016020526040902054431015611ada5760405162461bcd60e51b815260040161076b9061291f565b611ae333611d23565b610fe683611d4c565b60cc54600090600160a81b900460ff1615611b195760405162461bcd60e51b815260040161076b90612807565b60cc805460ff60a81b1916600160a81b179055611b34611c42565b6002543a1115611b565760405162461bcd60e51b815260040161076b906128d8565b33611b6081611c8a565b15611b7d5760405162461bcd60e51b815260040161076b906128fa565b33600090815260016020526040902054431015611bac5760405162461bcd60e51b815260040161076b9061291f565b611bb533611d23565b6000611bbf611493565b905060006103e8611bd08688612957565b611bda9190612976565b611be490876129af565b905080821115611c2f5760405162461bcd60e51b81526020600482015260166024820152750a0e4d2c6ca40c6d0c2dccecac840e8dede40daeac6d60531b604482015260640161076b565b610cb487612195565b610ef181336123f4565b609a5460ff1615611c885760405162461bcd60e51b815260206004820152601060248201526f14185d5cd8589b194e881c185d5cd95960821b604482015260640161076b565b565b60cc54600090600160a01b900460ff16611ca657506000919050565b60cc54604051638e204c4360e01b81526001600160a01b03848116600483015290911690638e204c439060240160206040518083038186803b158015611ceb57600080fd5b505afa158015611cff573d6000803e3d6000fd5b505050506040513d601f19601f8201168201806040525081019061073891906128b6565b600054611d3090436129af565b6001600160a01b03909116600090815260016020526040902055565b6000808211611d6d5760405162461bcd60e51b815260040161076b90612826565b6000611d7883610e91565b5060ce546040516323b872dd60e01b81529193508392506001600160a01b0316906323b872dd90611db190339030908890600401612853565b600060405180830381600087803b158015611dcb57600080fd5b505af1158015611ddf573d6000803e3d6000fd5b505060cf5460405163a9059cbb60e01b8152336004820152602481018690526001600160a01b03909116925063a9059cbb9150604401602060405180830381600087803b158015611e2f57600080fd5b505af1158015611e43573d6000803e3d6000fd5b505050506040513d601f19601f82011682018060405250810190611e6791906128b6565b5060ce546040516370a0823160e01b8152306004820152611e9a916001600160a01b0316906370a08231906024016108bd565b6000611ea4611493565b90507f846c37eef631e0943682d87352ec117c20008eb7f425c9b85ac011a6d4774cc033858584604051611edb9493929190612890565b60405180910390a1604051818152600080516020612c368339815191529060200160405180910390a15050919050565b611f1582826111d4565b610a5d5760008281526068602090815260408083206001600160a01b03851684529091529020805460ff19166001179055611f4d3390565b6001600160a01b0316816001600160a01b0316837f2f8788117e7eff1d82e926ec794901d17c78024a50270940304540a733656f0d60405160405180910390a45050565b611f9b82826111d4565b15610a5d5760008281526068602090815260408083206001600160a01b0385168085529252808320805460ff1916905551339285917ff6391f5c32d9c69d2a47ea670b442974b53935d1edc7fd64eb21e047a839171b9190a45050565b60008060008061200b60d05460d1549091565b60cd54604051635c138c9d60e01b81526001600160a01b0389811660048301529395509193506000921690635c138c9d9060240160206040518083038186803b15801561205757600080fd5b505afa15801561206b573d6000803e3d6000fd5b505050506040513d601f19601f8201168201806040525081019061208f9190612877565b905061209a8161180a565b93506101f46120b1670de0b6b3a764000089612976565b6120bb9190612976565b6120c590856129af565b9350605a8411156120d557605a93505b600060646120e3868a612957565b6120ed9190612976565b6120f79089612998565b905061210381856129af565b61210d8285612957565b6121179190612976565b95508286106121385760405162461bcd60e51b815260040161076b906129c7565b505050509250929050565b61214b61244d565b609a805460ff191690557f5db9ee0a495bf2e6ff9c91a7834c1ba4fdd244a5e8aa4e537bd38aeae4b073aa335b6040516001600160a01b03909116815260200160405180910390a1565b6000670de0b6b3a76400008210156121e65760405162461bcd60e51b8152602060048201526014602482015273135a5b9a5b5d5b48189d5e481a5cc80c481090d560621b604482015260640161076b565b6121ef826116fd565b60cf546040516323b872dd60e01b81529192506001600160a01b0316906323b872dd9061222490339030908690600401612853565b600060405180830381600087803b15801561223e57600080fd5b505af1158015612252573d6000803e3d6000fd5b505060ce5460405163a9059cbb60e01b8152336004820152602481018690526001600160a01b03909116925063a9059cbb9150604401602060405180830381600087803b1580156122a257600080fd5b505af11580156122b6573d6000803e3d6000fd5b505050506040513d601f19601f820116820180604052508101906122da91906128b6565b5060ce546040516370a0823160e01b815230600482015261230d916001600160a01b0316906370a08231906024016108bd565b6000612317611493565b90507fbeae048c6d270d9469f86cf6e8fedda3c60ad770f16c24c9fc131c8e9a09101d3383858460405161234e9493929190612890565b60405180910390a1604051818152600080516020612c368339815191529060200160405180910390a150919050565b612385611c42565b609a805460ff191660011790557f62e78cea01bee320cd4e420270b5ea74000d11b0c9f74754ebdbfc544b05a2586121783390565b600354610100900460ff16611c8857600080fd5b600354610100900460ff166123e257600080fd5b611c88612496565b610a5d8282611f0b565b6123fe82826111d4565b610a5d5761240b816124b6565b6124168360206124c8565b604051602001612427929190612b0a565b60408051601f198184030181529082905262461bcd60e51b825261076b91600401612b7f565b609a5460ff16611c885760405162461bcd60e51b815260206004820152601460248201527314185d5cd8589b194e881b9bdd081c185d5cd95960621b604482015260640161076b565b600354610100900460ff166124aa57600080fd5b609a805460ff19169055565b60606107386001600160a01b03831660145b606060006124d7836002612957565b6124e29060026129af565b67ffffffffffffffff8111156124fa576124fa612bb2565b6040519080825280601f01601f191660200182016040528015612524576020820181803683370190505b509050600360fc1b8160008151811061253f5761253f612bc8565b60200101906001600160f81b031916908160001a905350600f60fb1b8160018151811061256e5761256e612bc8565b60200101906001600160f81b031916908160001a9053506000612592846002612957565b61259d9060016129af565b90505b6001811115612615576f181899199a1a9b1b9c1cb0b131b232b360811b85600f16601081106125d1576125d1612bc8565b1a60f81b8282815181106125e7576125e7612bc8565b60200101906001600160f81b031916908160001a90535060049490941c9361260e81612bde565b90506125a0565b50831561262157600080fd5b9392505050565b60006020828403121561263a57600080fd5b81356001600160e01b03198116811461262157600080fd5b60006020828403121561266457600080fd5b5035919050565b80356001600160a01b038116811461268257600080fd5b919050565b60008060006060848603121561269c57600080fd5b6126a58461266b565b92506126b36020850161266b565b9150604084013590509250925092565b6000806000606084860312156126d857600080fd5b505081359360208301359350604090920135919050565b6000806040838503121561270257600080fd5b823591506127126020840161266b565b90509250929050565b60006020828403121561272d57600080fd5b6126218261266b565b600060a0828403121561274857600080fd5b50919050565b6000806040838503121561276157600080fd5b61276a8361266b565b91506127126020840161266b565b60008060008060008060c0878903121561279157600080fd5b61279a8761266b565b95506127a86020880161266b565b94506127b66040880161266b565b93506127c46060880161266b565b92506127d26080880161266b565b915060a087013590509295509295509295565b600080604083850312156127f857600080fd5b50508035926020909101359150565b6020808252600590820152640daeae8caf60db1b604082015260600190565b602080825260139082015272125b9cdd59999a58da595b9d08105b5bdd5b9d606a1b604082015260600190565b6001600160a01b039384168152919092166020820152604081019190915260600190565b60006020828403121561288957600080fd5b5051919050565b6001600160a01b0394909416845260208401929092526040830152606082015260800190565b6000602082840312156128c857600080fd5b8151801515811461262157600080fd5b6020808252600890820152670cec2e664d0d2ced60c31b604082015260600190565b6020808252600b908201526a109b1bd8dadb1a5cdd195960aa1b604082015260600190565b60208082526008908201526731b7b7b63237bbb760c11b604082015260600190565b634e487b7160e01b600052601160045260246000fd5b600081600019048311821515161561297157612971612941565b500290565b60008261299357634e487b7160e01b600052601260045260246000fd5b500490565b6000828210156129aa576129aa612941565b500390565b600082198211156129c2576129c2612941565b500190565b602080825260169082015275496e73756666696369656e74204c697175696469747960501b604082015260600190565b6000813560ff8116811461073857600080fd5b60ff612a15836129f7565b1681548160ff19821617835561ff00612a30602086016129f7565b60081b16808361ffff1984161717845562ff0000612a50604087016129f7565b60101b168362ffffff1984161793508084831717855563ff000000612a77606088016129f7565b60181b1663ff0000001985168317821717855550505050610a5d612a9d608084016129f7565b825464ff00000000191660209190911b64ff0000000016178255565b600060ff821660ff84168060ff03821115612ad657612ad6612941565b019392505050565b60005b83811015612af9578181015183820152602001612ae1565b838111156111ce5750506000910152565b7f416363657373436f6e74726f6c3a206163636f756e7420000000000000000000815260008351612b42816017850160208801612ade565b7001034b99036b4b9b9b4b733903937b6329607d1b6017918401918201528351612b73816028840160208801612ade565b01602801949350505050565b6020815260008251806020840152612b9e816040850160208701612ade565b601f01601f19169190910160400192915050565b634e487b7160e01b600052604160045260246000fd5b634e487b7160e01b600052603260045260246000fd5b600081612bed57612bed612941565b50600019019056fe73e573f9566d61418a34d5de3ff49360f9c51fec37f7486551670290f6285dab97667070c54ef182b0f5858b034beac1b6f3089aa2d3188bb1e8929f4fa9b929270b316b51ab2cf3a3bb8ca4d22e76a327d05e762fcaa8bd6afaf8cfde9270b7a264697066735822122045131255669d1225e0b94841c845ea55d586d2821b4b197d1a069f85b9c24b9364736f6c63430008090033",
  "linkReferences": {},
  "deployedLinkReferences": {}
}