{
  "_format": "hh-sol-artifact-1",
  "contractName": "KingdomNobles",
  "sourceName": "contracts/features/KingdomNobles.sol",
  "abi": [
    {
      "anonymous": false,
      "inputs": [
        {
          "indexed": false,
          "internalType": "address",
          "name": "from",
          "type": "address"
        },
        {
          "indexed": false,
          "internalType": "uint256",
          "name": "amount",
          "type": "uint256"
        },
        {
          "indexed": false,
          "internalType": "uint256",
          "name": "totalBurnedKozi",
          "type": "uint256"
        }
      ],
      "name": "BurnKozi",
      "type": "event"
    },
    {
      "anonymous": false,
      "inputs": [
        {
          "indexed": false,
          "internalType": "address[]",
          "name": "accounts",
          "type": "address[]"
        },
        {
          "indexed": false,
          "internalType": "uint256",
          "name": "totalRewards",
          "type": "uint256"
        },
        {
          "indexed": false,
          "internalType": "uint256",
          "name": "accumulatedPayouts",
          "type": "uint256"
        }
      ],
      "name": "DistributeRewards",
      "type": "event"
    },
    {
      "anonymous": false,
      "inputs": [
        {
          "indexed": false,
          "internalType": "address",
          "name": "account",
          "type": "address"
        },
        {
          "indexed": false,
          "internalType": "bytes32",
          "name": "associatedTx",
          "type": "bytes32"
        },
        {
          "indexed": false,
          "internalType": "uint256",
          "name": "loyaltyLost",
          "type": "uint256"
        }
      ],
      "name": "ForfeitLoyalty",
      "type": "event"
    },
    {
      "anonymous": false,
      "inputs": [
        {
          "indexed": false,
          "internalType": "address",
          "name": "account",
          "type": "address"
        },
        {
          "indexed": false,
          "internalType": "uint256",
          "name": "amount",
          "type": "uint256"
        },
        {
          "indexed": false,
          "internalType": "uint256",
          "name": "stabletokens",
          "type": "uint256"
        }
      ],
      "name": "GainLoyalty",
      "type": "event"
    },
    {
      "anonymous": false,
      "inputs": [
        {
          "indexed": false,
          "internalType": "uint8",
          "name": "version",
          "type": "uint8"
        }
      ],
      "name": "Initialized",
      "type": "event"
    },
    {
      "anonymous": false,
      "inputs": [
        {
          "indexed": false,
          "internalType": "address",
          "name": "account",
          "type": "address"
        },
        {
          "indexed": false,
          "internalType": "uint256",
          "name": "amount",
          "type": "uint256"
        }
      ],
      "name": "MissedRewards",
      "type": "event"
    },
    {
      "anonymous": false,
      "inputs": [
        {
          "indexed": false,
          "internalType": "address",
          "name": "account",
          "type": "address"
        }
      ],
      "name": "Paused",
      "type": "event"
    },
    {
      "anonymous": false,
      "inputs": [
        {
          "indexed": true,
          "internalType": "bytes32",
          "name": "role",
          "type": "bytes32"
        },
        {
          "indexed": true,
          "internalType": "bytes32",
          "name": "previousAdminRole",
          "type": "bytes32"
        },
        {
          "indexed": true,
          "internalType": "bytes32",
          "name": "newAdminRole",
          "type": "bytes32"
        }
      ],
      "name": "RoleAdminChanged",
      "type": "event"
    },
    {
      "anonymous": false,
      "inputs": [
        {
          "indexed": true,
          "internalType": "bytes32",
          "name": "role",
          "type": "bytes32"
        },
        {
          "indexed": true,
          "internalType": "address",
          "name": "account",
          "type": "address"
        },
        {
          "indexed": true,
          "internalType": "address",
          "name": "sender",
          "type": "address"
        }
      ],
      "name": "RoleGranted",
      "type": "event"
    },
    {
      "anonymous": false,
      "inputs": [
        {
          "indexed": true,
          "internalType": "bytes32",
          "name": "role",
          "type": "bytes32"
        },
        {
          "indexed": true,
          "internalType": "address",
          "name": "account",
          "type": "address"
        },
        {
          "indexed": true,
          "internalType": "address",
          "name": "sender",
          "type": "address"
        }
      ],
      "name": "RoleRevoked",
      "type": "event"
    },
    {
      "anonymous": false,
      "inputs": [
        {
          "indexed": false,
          "internalType": "address",
          "name": "account",
          "type": "address"
        },
        {
          "indexed": false,
          "internalType": "string",
          "name": "name",
          "type": "string"
        }
      ],
      "name": "SetKingdomName",
      "type": "event"
    },
    {
      "anonymous": false,
      "inputs": [
        {
          "indexed": false,
          "internalType": "address",
          "name": "account",
          "type": "address"
        },
        {
          "indexed": false,
          "internalType": "uint256",
          "name": "amount",
          "type": "uint256"
        }
      ],
      "name": "SpendLoyalty",
      "type": "event"
    },
    {
      "anonymous": false,
      "inputs": [
        {
          "indexed": false,
          "internalType": "address",
          "name": "account",
          "type": "address"
        }
      ],
      "name": "Unpaused",
      "type": "event"
    },
    {
      "anonymous": false,
      "inputs": [
        {
          "indexed": false,
          "internalType": "address",
          "name": "account",
          "type": "address"
        },
        {
          "indexed": false,
          "internalType": "uint256",
          "name": "amount",
          "type": "uint256"
        }
      ],
      "name": "WithdrawRewards",
      "type": "event"
    },
    {
      "inputs": [],
      "name": "DEFAULT_ADMIN_ROLE",
      "outputs": [
        {
          "internalType": "bytes32",
          "name": "",
          "type": "bytes32"
        }
      ],
      "stateMutability": "view",
      "type": "function"
    },
    {
      "inputs": [
        {
          "internalType": "address",
          "name": "_operator",
          "type": "address"
        },
        {
          "internalType": "address",
          "name": "_blocklistAddress",
          "type": "address"
        }
      ],
      "name": "__Administrable_init",
      "outputs": [],
      "stateMutability": "nonpayable",
      "type": "function"
    },
    {
      "inputs": [],
      "name": "accumulatedPayouts",
      "outputs": [
        {
          "internalType": "uint256",
          "name": "",
          "type": "uint256"
        }
      ],
      "stateMutability": "view",
      "type": "function"
    },
    {
      "inputs": [
        {
          "internalType": "address",
          "name": "account",
          "type": "address"
        }
      ],
      "name": "accumulatedStabletokensOf",
      "outputs": [
        {
          "internalType": "uint256",
          "name": "",
          "type": "uint256"
        }
      ],
      "stateMutability": "view",
      "type": "function"
    },
    {
      "inputs": [
        {
          "internalType": "address",
          "name": "account",
          "type": "address"
        }
      ],
      "name": "balanceOf",
      "outputs": [
        {
          "internalType": "uint256",
          "name": "",
          "type": "uint256"
        }
      ],
      "stateMutability": "view",
      "type": "function"
    },
    {
      "inputs": [],
      "name": "currentCycle",
      "outputs": [
        {
          "internalType": "uint256",
          "name": "number",
          "type": "uint256"
        },
        {
          "internalType": "uint256",
          "name": "startBlock",
          "type": "uint256"
        },
        {
          "internalType": "uint256",
          "name": "endBlock",
          "type": "uint256"
        }
      ],
      "stateMutability": "view",
      "type": "function"
    },
    {
      "inputs": [],
      "name": "cycleDuration",
      "outputs": [
        {
          "internalType": "uint256",
          "name": "",
          "type": "uint256"
        }
      ],
      "stateMutability": "view",
      "type": "function"
    },
    {
      "inputs": [
        {
          "internalType": "address[]",
          "name": "accounts",
          "type": "address[]"
        },
        {
          "internalType": "uint256",
          "name": "totalAmount",
          "type": "uint256"
        }
      ],
      "name": "distribute",
      "outputs": [],
      "stateMutability": "nonpayable",
      "type": "function"
    },
    {
      "inputs": [
        {
          "internalType": "address",
          "name": "account",
          "type": "address"
        },
        {
          "internalType": "bytes32",
          "name": "associatedTx",
          "type": "bytes32"
        }
      ],
      "name": "forfeitLoyalty",
      "outputs": [],
      "stateMutability": "nonpayable",
      "type": "function"
    },
    {
      "inputs": [
        {
          "internalType": "address",
          "name": "account",
          "type": "address"
        },
        {
          "internalType": "uint256",
          "name": "loyalty",
          "type": "uint256"
        },
        {
          "internalType": "uint256",
          "name": "stabletokens",
          "type": "uint256"
        }
      ],
      "name": "gainLoyalty",
      "outputs": [],
      "stateMutability": "nonpayable",
      "type": "function"
    },
    {
      "inputs": [
        {
          "internalType": "bytes32",
          "name": "role",
          "type": "bytes32"
        }
      ],
      "name": "getRoleAdmin",
      "outputs": [
        {
          "internalType": "bytes32",
          "name": "",
          "type": "bytes32"
        }
      ],
      "stateMutability": "view",
      "type": "function"
    },
    {
      "inputs": [
        {
          "internalType": "bytes32",
          "name": "role",
          "type": "bytes32"
        },
        {
          "internalType": "address",
          "name": "account",
          "type": "address"
        }
      ],
      "name": "grantRole",
      "outputs": [],
      "stateMutability": "nonpayable",
      "type": "function"
    },
    {
      "inputs": [],
      "name": "hasBlocklist",
      "outputs": [
        {
          "internalType": "bool",
          "name": "",
          "type": "bool"
        }
      ],
      "stateMutability": "view",
      "type": "function"
    },
    {
      "inputs": [
        {
          "internalType": "bytes32",
          "name": "role",
          "type": "bytes32"
        },
        {
          "internalType": "address",
          "name": "account",
          "type": "address"
        }
      ],
      "name": "hasRole",
      "outputs": [
        {
          "internalType": "bool",
          "name": "",
          "type": "bool"
        }
      ],
      "stateMutability": "view",
      "type": "function"
    },
    {
      "inputs": [
        {
          "internalType": "address",
          "name": "_operator",
          "type": "address"
        },
        {
          "internalType": "address",
          "name": "_blocklist",
          "type": "address"
        },
        {
          "internalType": "address",
          "name": "_stabletoken",
          "type": "address"
        },
        {
          "internalType": "address",
          "name": "_treasury",
          "type": "address"
        }
      ],
      "name": "initialize",
      "outputs": [],
      "stateMutability": "nonpayable",
      "type": "function"
    },
    {
      "inputs": [
        {
          "internalType": "address",
          "name": "",
          "type": "address"
        }
      ],
      "name": "kingdomNameSetAtBlock",
      "outputs": [
        {
          "internalType": "uint256",
          "name": "",
          "type": "uint256"
        }
      ],
      "stateMutability": "view",
      "type": "function"
    },
    {
      "inputs": [
        {
          "internalType": "address",
          "name": "",
          "type": "address"
        }
      ],
      "name": "kingdomNames",
      "outputs": [
        {
          "internalType": "string",
          "name": "",
          "type": "string"
        }
      ],
      "stateMutability": "view",
      "type": "function"
    },
    {
      "inputs": [
        {
          "internalType": "address[]",
          "name": "accounts",
          "type": "address[]"
        }
      ],
      "name": "kingdomNamesOf",
      "outputs": [
        {
          "internalType": "string[]",
          "name": "",
          "type": "string[]"
        }
      ],
      "stateMutability": "view",
      "type": "function"
    },
    {
      "inputs": [],
      "name": "lockPeriod",
      "outputs": [
        {
          "internalType": "uint256",
          "name": "",
          "type": "uint256"
        }
      ],
      "stateMutability": "view",
      "type": "function"
    },
    {
      "inputs": [
        {
          "internalType": "address",
          "name": "account",
          "type": "address"
        }
      ],
      "name": "lockedUntilOf",
      "outputs": [
        {
          "internalType": "uint256",
          "name": "",
          "type": "uint256"
        }
      ],
      "stateMutability": "view",
      "type": "function"
    },
    {
      "inputs": [
        {
          "internalType": "address",
          "name": "account",
          "type": "address"
        },
        {
          "internalType": "uint256",
          "name": "cycle",
          "type": "uint256"
        }
      ],
      "name": "loyaltyByCycleOf",
      "outputs": [
        {
          "internalType": "uint256",
          "name": "",
          "type": "uint256"
        }
      ],
      "stateMutability": "view",
      "type": "function"
    },
    {
      "inputs": [
        {
          "internalType": "address",
          "name": "account",
          "type": "address"
        }
      ],
      "name": "loyaltyOf",
      "outputs": [
        {
          "internalType": "uint256",
          "name": "",
          "type": "uint256"
        }
      ],
      "stateMutability": "view",
      "type": "function"
    },
    {
      "inputs": [
        {
          "internalType": "address[]",
          "name": "account",
          "type": "address[]"
        }
      ],
      "name": "loyaltyOfMany",
      "outputs": [
        {
          "internalType": "uint256[]",
          "name": "loyalties",
          "type": "uint256[]"
        }
      ],
      "stateMutability": "view",
      "type": "function"
    },
    {
      "inputs": [],
      "name": "pause",
      "outputs": [],
      "stateMutability": "nonpayable",
      "type": "function"
    },
    {
      "inputs": [],
      "name": "paused",
      "outputs": [
        {
          "internalType": "bool",
          "name": "",
          "type": "bool"
        }
      ],
      "stateMutability": "view",
      "type": "function"
    },
    {
      "inputs": [
        {
          "internalType": "address",
          "name": "tokenAddress",
          "type": "address"
        },
        {
          "internalType": "address",
          "name": "to",
          "type": "address"
        },
        {
          "internalType": "uint256",
          "name": "amount",
          "type": "uint256"
        }
      ],
      "name": "recoverERC20",
      "outputs": [],
      "stateMutability": "nonpayable",
      "type": "function"
    },
    {
      "inputs": [
        {
          "internalType": "bytes32",
          "name": "role",
          "type": "bytes32"
        },
        {
          "internalType": "address",
          "name": "account",
          "type": "address"
        }
      ],
      "name": "renounceRole",
      "outputs": [],
      "stateMutability": "nonpayable",
      "type": "function"
    },
    {
      "inputs": [],
      "name": "resetBlocklist",
      "outputs": [],
      "stateMutability": "nonpayable",
      "type": "function"
    },
    {
      "inputs": [
        {
          "internalType": "bytes32",
          "name": "role",
          "type": "bytes32"
        },
        {
          "internalType": "address",
          "name": "account",
          "type": "address"
        }
      ],
      "name": "revokeRole",
      "outputs": [],
      "stateMutability": "nonpayable",
      "type": "function"
    },
    {
      "inputs": [
        {
          "internalType": "address",
          "name": "blocklistAddress",
          "type": "address"
        }
      ],
      "name": "setBlocklist",
      "outputs": [],
      "stateMutability": "nonpayable",
      "type": "function"
    },
    {
      "inputs": [
        {
          "internalType": "string",
          "name": "name",
          "type": "string"
        }
      ],
      "name": "setKingdomName",
      "outputs": [],
      "stateMutability": "payable",
      "type": "function"
    },
    {
      "inputs": [
        {
          "internalType": "address",
          "name": "account",
          "type": "address"
        },
        {
          "internalType": "uint256",
          "name": "amount",
          "type": "uint256"
        }
      ],
      "name": "spendLoyalty",
      "outputs": [],
      "stateMutability": "nonpayable",
      "type": "function"
    },
    {
      "inputs": [],
      "name": "stabletoken",
      "outputs": [
        {
          "internalType": "contract IBkERC20",
          "name": "",
          "type": "address"
        }
      ],
      "stateMutability": "view",
      "type": "function"
    },
    {
      "inputs": [
        {
          "internalType": "bytes4",
          "name": "interfaceId",
          "type": "bytes4"
        }
      ],
      "name": "supportsInterface",
      "outputs": [
        {
          "internalType": "bool",
          "name": "",
          "type": "bool"
        }
      ],
      "stateMutability": "view",
      "type": "function"
    },
    {
      "inputs": [],
      "name": "totalBurnedKozi",
      "outputs": [
        {
          "internalType": "uint256",
          "name": "",
          "type": "uint256"
        }
      ],
      "stateMutability": "view",
      "type": "function"
    },
    {
      "inputs": [],
      "name": "treasury",
      "outputs": [
        {
          "internalType": "address",
          "name": "",
          "type": "address"
        }
      ],
      "stateMutability": "view",
      "type": "function"
    },
    {
      "inputs": [],
      "name": "unpause",
      "outputs": [],
      "stateMutability": "nonpayable",
      "type": "function"
    },
    {
      "inputs": [],
      "name": "withdraw",
      "outputs": [],
      "stateMutability": "nonpayable",
      "type": "function"
    }
  ],
  "bytecode": "0x608060405234801561001057600080fd5b50612b4b806100206000396000f3fe6080604052600436106102255760003560e01c806366af5ea311610123578063aef18ae7116100ab578063d56f992a1161006f578063d56f992a146106ed578063e45175371461070d578063e5670a771461072d578063f48c0dbb1461074d578063f8c8765e1461077a57600080fd5b8063aef18ae71461061d578063bab2f5521461063d578063cc9e743614610677578063ce8ccd60146106ad578063d547741f146106cd57600080fd5b80638456cb59116100f25780638456cb591461059d57806391d14854146105b2578063931da89b146105d2578063a217fddf146105f2578063a4cdc8381461060757600080fd5b806366af5ea3146104ca57806370a082311461050d578063739b059014610543578063802db80d1461057057600080fd5b80633c7fd822116101b15780635bec4cb4116101755780635bec4cb4146104305780635c3e652d146104465780635c975abb1461045957806361d027b314610471578063634210f4146104a957600080fd5b80633c7fd822146103c55780633ccfd60b146103da5780633f4ba83a146103ef5780633fd8b02f1461040457806350d03ab81461041a57600080fd5b8063248a9ca3116101f8578063248a9ca3146102f25780632f2ff15d146103225780633091e1e21461034257806336568abe1461037857806339a1b6811461039857600080fd5b806301ffc9a71461022a5780630f2cc5fe1461025f5780631171bda9146102b05780631826c119146102d2575b600080fd5b34801561023657600080fd5b5061024a6102453660046123f4565b61079a565b60405190151581526020015b60405180910390f35b34801561026b57600080fd5b506102a261027a36600461243a565b6001600160a01b0316600090815260d06020908152604080832060d254845290915290205490565b604051908152602001610256565b3480156102bc57600080fd5b506102d06102cb366004612455565b6107d1565b005b3480156102de57600080fd5b506102d06102ed366004612549565b610872565b3480156102fe57600080fd5b506102a261030d36600461258e565b60009081526067602052604090206001015490565b34801561032e57600080fd5b506102d061033d3660046125a7565b610cf4565b34801561034e57600080fd5b506102a261035d36600461243a565b6001600160a01b0316600090815260cf602052604090205490565b34801561038457600080fd5b506102d06103933660046125a7565b610d1e565b3480156103a457600080fd5b506102a26103b336600461243a565b60d76020526000908152604090205481565b3480156103d157600080fd5b506102d0610d41565b3480156103e657600080fd5b506102d0610d6c565b3480156103fb57600080fd5b506102d0610fc7565b34801561041057600080fd5b506102a260005481565b34801561042657600080fd5b506102a260d65481565b34801561043c57600080fd5b506102a260d55481565b6102d06104543660046125d3565b610fea565b34801561046557600080fd5b5060995460ff1661024a565b34801561047d57600080fd5b5060cd54610491906001600160a01b031681565b6040516001600160a01b039091168152602001610256565b3480156104b557600080fd5b5060cb5461024a90600160a01b900460ff1681565b3480156104d657600080fd5b506102a26104e5366004612645565b6001600160a01b0391909116600090815260d060209081526040808320938352929052205490565b34801561051957600080fd5b506102a261052836600461243a565b6001600160a01b0316600090815260ce602052604090205490565b34801561054f57600080fd5b5061056361055e36600461266f565b611197565b6040516102569190612704565b34801561057c57600080fd5b5061059061058b36600461266f565b6112f5565b6040516102569190612766565b3480156105a957600080fd5b506102d06113d3565b3480156105be57600080fd5b5061024a6105cd3660046125a7565b6113f3565b3480156105de57600080fd5b506102d06105ed3660046127aa565b61141e565b3480156105fe57600080fd5b506102a2600081565b34801561061357600080fd5b506102a260d95481565b34801561062957600080fd5b506102d061063836600461243a565b61151a565b34801561064957600080fd5b5060d25460d35460d45461065c92919083565b60408051938452602084019290925290820152606001610256565b34801561068357600080fd5b506102a261069236600461243a565b6001600160a01b031660009081526001602052604090205490565b3480156106b957600080fd5b506102d06106c83660046127d4565b61155a565b3480156106d957600080fd5b506102d06106e83660046125a7565b611583565b3480156106f957600080fd5b506102d0610708366004612645565b6115a8565b34801561071957600080fd5b5060cc54610491906001600160a01b031681565b34801561073957600080fd5b506102d0610748366004612645565b6115ca565b34801561075957600080fd5b5061076d61076836600461243a565b611650565b6040516102569190612807565b34801561078657600080fd5b506102d061079536600461281a565b6116ea565b60006001600160e01b03198216637965db0b60e01b14806107cb57506301ffc9a760e01b6001600160e01b03198316145b92915050565b600080516020612af68339815191526107e981611b7f565b60405163a9059cbb60e01b81526001600160a01b0384811660048301526024820184905285169063a9059cbb90604401602060405180830381600087803b15801561083357600080fd5b505af1158015610847573d6000803e3d6000fd5b505050506040513d601f19601f8201168201806040525081019061086b919061286e565b5050505050565b60cb54600160a81b900460ff16156108b95760405162461bcd60e51b81526020600482015260056024820152640daeae8caf60db1b60448201526064015b60405180910390fd5b60cb805460ff60a81b1916600160a81b1790556108d4611b89565b600080516020612ad68339815191526108ec81611b7f565b600083511161093d5760405162461bcd60e51b815260206004820152601a60248201527f4b696e67646f6d4e6f626c65733a206e6f206163636f756e747300000000000060448201526064016108b0565b60198351111561098f5760405162461bcd60e51b815260206004820181905260248201527f4b696e67646f6d4e6f626c65733a20746f6f206d616e79206163636f756e747360448201526064016108b0565b60cc546040516323b872dd60e01b8152336004820152306024820152604481018490526001600160a01b03909116906323b872dd90606401602060405180830381600087803b1580156109e157600080fd5b505af11580156109f5573d6000803e3d6000fd5b505050506040513d601f19601f82011682018060405250810190610a19919061286e565b610a355760405162461bcd60e51b81526004016108b090612890565b60d4544310610a4657610a46611bd1565b8160d66000828254610a5891906128dd565b9091555060009050805b8451811015610b9a5760d76000868381518110610a8157610a816128f5565b60200260200101516001600160a01b03166001600160a01b031681526020019081526020016000205460001415610b1157610b0c858281518110610ac757610ac76128f5565b60200260200101516103e860d16000856001610ae391906128dd565b81526020019081526020016000205487610afd919061290b565b610b07919061292a565b611c03565b610b88565b60006103e860d182610b248560016128dd565b81526020019081526020016000205486610b3e919061290b565b610b48919061292a565b9050610b7a868381518110610b5f57610b5f6128f5565b6020026020010151836019610b74919061294c565b83611c4a565b610b8481846128dd565b9250505b80610b9281612963565b915050610a62565b5082811115610beb5760405162461bcd60e51b815260206004820152601d60248201527f4b696e67646f6d4e6f626c65733a207370656e7420746f6f206d75636800000060448201526064016108b0565b6000610bf7828561294c565b90508015610ca35760cc5460cd5460405163a9059cbb60e01b81526001600160a01b0391821660048201526024810184905291169063a9059cbb90604401602060405180830381600087803b158015610c4f57600080fd5b505af1158015610c63573d6000803e3d6000fd5b505050506040513d601f19601f82011682018060405250810190610c87919061286e565b610ca35760405162461bcd60e51b81526004016108b090612890565b7fcabeda0473badf59c1be9964fc231255129e4c829d3095b8234e90f2528320b3858360d654604051610cd89392919061297e565b60405180910390a1505060cb805460ff60a81b19169055505050565b600082815260676020526040902060010154610d0f81611b7f565b610d198383611d2c565b505050565b6001600160a01b0381163314610d3357600080fd5b610d3d8282611db2565b5050565b600080516020612af6833981519152610d5981611b7f565b5060cb80546001600160a81b0319169055565b60cb54600160a81b900460ff1615610dae5760405162461bcd60e51b81526020600482015260056024820152640daeae8caf60db1b60448201526064016108b0565b60cb805460ff60a81b1916600160a81b179055610dc9611b89565b33600090815260016020526040902054431015610e135760405162461bcd60e51b815260206004820152600860248201526731b7b7b63237bbb760c11b60448201526064016108b0565b610e1c33611e19565b33610e2681611e42565b15610e615760405162461bcd60e51b815260206004820152600b60248201526a109b1bd8dadb1a5cdd195960aa1b60448201526064016108b0565b33600090815260ce602052604090205480610eca5760405162461bcd60e51b815260206004820152602360248201527f4b696e67646f6d4e6f626c65733a206e6f207265776172647320617661696c61604482015262626c6560e81b60648201526084016108b0565b33600081815260ce60205260408082209190915560cc54905163a9059cbb60e01b81526004810192909252602482018390526001600160a01b03169063a9059cbb90604401602060405180830381600087803b158015610f2957600080fd5b505af1158015610f3d573d6000803e3d6000fd5b505050506040513d601f19601f82011682018060405250810190610f61919061286e565b610f7d5760405162461bcd60e51b81526004016108b090612890565b60408051338152602081018390527faa1377f7ec93c239e959efa811f7b8554c036fd7a706c23e58024626a8f3db96910160405180910390a1505060cb805460ff60a81b19169055565b600080516020612af6833981519152610fdf81611b7f565b610fe7611edb565b50565b610ff2611b89565b33610ffc81611e42565b156110375760405162461bcd60e51b815260206004820152600b60248201526a109b1bd8dadb1a5cdd195960aa1b60448201526064016108b0565b816110845760405162461bcd60e51b815260206004820152601d60248201527f4b696e67646f6d4e6f626c65733a206e616d6520746f6f2073686f727400000060448201526064016108b0565b60208211156110d55760405162461bcd60e51b815260206004820152601c60248201527f4b696e67646f6d4e6f626c65733a206e616d6520746f6f206c6f6e670000000060448201526064016108b0565b67016345785d8a00003410156111215760405162461bcd60e51b8152602060048201526011602482015270497420636f73747320302e31204b6f7a6960781b60448201526064016108b0565b33600090815260d86020526040902061113b90848461235b565b5033600090815260d76020526040902043905561115734611f2d565b7fe1819d70adb6def627c33741e2db5c3b7b1cfe97aee5285f524ad54a4b05b67d33848460405161118a939291906129d4565b60405180910390a1505050565b60606000825167ffffffffffffffff8111156111b5576111b5612491565b6040519080825280602002602001820160405280156111e857816020015b60608152602001906001900390816111d35790505b50905060005b83518110156112ee5760d8600085838151811061120d5761120d6128f5565b60200260200101516001600160a01b03166001600160a01b03168152602001908152602001600020805461124090612a14565b80601f016020809104026020016040519081016040528092919081815260200182805461126c90612a14565b80156112b95780601f1061128e576101008083540402835291602001916112b9565b820191906000526020600020905b81548152906001019060200180831161129c57829003601f168201915b50505050508282815181106112d0576112d06128f5565b602002602001018190525080806112e690612963565b9150506111ee565b5092915050565b6060815167ffffffffffffffff81111561131157611311612491565b60405190808252806020026020018201604052801561133a578160200160208202803683370190505b50905060005b82518110156113cd5760d0600084838151811061135f5761135f6128f5565b60200260200101516001600160a01b03166001600160a01b03168152602001908152602001600020600060d2600001548152602001908152602001600020548282815181106113b0576113b06128f5565b6020908102919091010152806113c581612963565b915050611340565b50919050565b600080516020612af68339815191526113eb81611b7f565b610fe7611fb8565b60009182526067602090815260408084206001600160a01b0393909316845291905290205460ff1690565b600254610100900460ff161580801561143e5750600254600160ff909116105b806114585750303b158015611458575060025460ff166001145b61146157600080fd5b6002805460ff191660011790558015611484576002805461ff0019166101001790555b61148c611ff5565b611494612009565b61149f600084612025565b6114b7600080516020612af683398151915284612025565b6114cf600080516020612ad683398151915284612025565b6114d88261151a565b8015610d19576002805461ff0019169055604051600181527f7f26b83ff96e1f2b6a682f133852f6798a09c465da95921460cefb38474024989060200161118a565b600080516020612af683398151915261153281611b7f565b5060cb80546001600160a81b0319166001600160a01b0390921691909117600160a01b179055565b600080516020612ad683398151915261157281611b7f565b61157d848484611c4a565b50505050565b60008281526067602052604090206001015461159e81611b7f565b610d198383611db2565b600080516020612ad68339815191526115c081611b7f565b610d19838361202f565b600080516020612ad68339815191526115e281611b7f565b6001600160a01b038316600081815260d06020908152604080832060d25484528252808320805493905580519384529083018590528201819052907fff565de25b1a64f97c3e2e5ce035f4d7774790592d8478480197d64dbed1623b9060600160405180910390a150505050565b60d8602052600090815260409020805461166990612a14565b80601f016020809104026020016040519081016040528092919081815260200182805461169590612a14565b80156116e25780601f106116b7576101008083540402835291602001916116e2565b820191906000526020600020905b8154815290600101906020018083116116c557829003601f168201915b505050505081565b600254610100900460ff161580801561170a5750600254600160ff909116105b806117245750303b158015611724575060025460ff166001145b61172d57600080fd5b6002805460ff191660011790558015611750576002805461ff0019166101001790555b61175a858561141e565b60cc80546001600160a01b038086166001600160a01b03199283161790925560cd8054928516929091169190911790556117956121c0600055565b60d1602090815260047f63d934fde9715ef4c4ef67d8905bbc88cc7a2b1011beb145fed4bc7402daffa88190557f732a90827bb7e1b6b8639bf92bef92d8db3f9f47cafaeb018e9f62f504d762238190557f269c3a4c6ad675e7cd2766f69b5bd8f6674eec951e7da26e6cc63b1503ec729f8190557f5ed8f8588583bccdce769c8b97847d727c6ff4b300a896a7865e13a8c1474ec38190557f01e5e2df8fb0bc2681dc4a252f57d3a9cc51d8ad98de589f954e7d831c9faab48190557fa0510bda1868423b7f84dfd31a014662b26dc546e44bf5590e4f56eaa1b44f398190557faa307840506843fa80a16fd990f698de65a0f005398424fac446516fbaef93068190557f6b3b629e0dfd49ff3fa9458ddc6a9e688f660455a1321ab0b9bea75561629a128190557f0113ba22dfd179155a60459cc5cc426986b16d6879c52045f58a069a6890e7128190557ffd9ce761972f37ffe77864206725cceee8c5b5df255c0f1a0bd78d93d0a019665560087f8b49be6b182e392a578dc82e0342aad2c4a752709f271244fdfa01f0d2a598998190557f886dd6a55af72c62be1f613057cb416357d24cdd0742db87585d2b9c7c3d47b18190557f0eee21aa3b90598e4800deef08940fe3705de824f1096940ef614e51a9f7161e8190557fbaf37fe9715f12da567bb4e8e466e2e259541e0c6b11c329cfc8e423f7f79aba8190557f86235368e71dc12c3fae6432ae881013ef76751a0631694b9a0c06ebbb3434eb5560107f1376a098ea326a304008b1345a781cefcdc22cb50c2d1509b62032e439da62d65560187fca21fa04e8f96c86a1f3d2b0042f134ec5e17b8bb9792cc3216ae43a8819a771557f1235c1788e673dbc712741e9427f612f243bb282eba4415676f8db68a7ecc33b5560287f7aa7615f78042e6df3d6beffa1745d189b466e4b625bee57b462dfcb73fd0d575560307f5fc37102da4e46a18c3f5a2a9e23b0018e77579a421a1531df425f4c5bce138a5560387f69aae7959c049fca74f5e43400d862464e9dc9b5042b52fc51b955075024a8575560507f9205af8e73dcb82a487de88e541200134d0139807150268b54190865cc74beed5560787f507fbfbc4604457cf48784aed8fcaf8ef1e156d984c943cc8583366a2705be5e5560c87f32ea06fcf2721a86a5d9ed09fff93f12af8d61fae22ffe196961f9320ec53d3f5560016000526101307fb41c81a20ee1317ccb9b438d7e5d59d66d5a6ec10e50c28bfec0bae0f14bf52755620bdd8060d555611b33611bd1565b801561086b576002805461ff0019169055604051600181527f7f26b83ff96e1f2b6a682f133852f6798a09c465da95921460cefb38474024989060200160405180910390a15050505050565b610fe78133612127565b60995460ff1615611bcf5760405162461bcd60e51b815260206004820152601060248201526f14185d5cd8589b194e881c185d5cd95960821b60448201526064016108b0565b565b600160d26000016000828254611be791906128dd565b90915550504360d381905560d554611bfe916128dd565b60d455565b604080516001600160a01b0384168152602081018390527f1abc98383d8da65a29243a6567a326616d182db2b13a41c6cde499a6e47239c991015b60405180910390a15050565b6001600160a01b038316600090815260d06020908152604080832060d254845290915281208054849290611c7f9084906128dd565b90915550508015611ce5576001600160a01b038316600090815260ce602052604081208054839290611cb29084906128dd565b90915550506001600160a01b038316600090815260cf602052604081208054839290611cdf9084906128dd565b90915550505b604080516001600160a01b0385168152602081018490529081018290527f46c328239b12435d03feadd57b7d427926e3bf96be1bbf5c4cd5596de663f4af9060600161118a565b611d3682826113f3565b610d3d5760008281526067602090815260408083206001600160a01b03851684529091529020805460ff19166001179055611d6e3390565b6001600160a01b0316816001600160a01b0316837f2f8788117e7eff1d82e926ec794901d17c78024a50270940304540a733656f0d60405160405180910390a45050565b611dbc82826113f3565b15610d3d5760008281526067602090815260408083206001600160a01b0385168085529252808320805460ff1916905551339285917ff6391f5c32d9c69d2a47ea670b442974b53935d1edc7fd64eb21e047a839171b9190a45050565b600054611e2690436128dd565b6001600160a01b03909116600090815260016020526040902055565b60cb54600090600160a01b900460ff16611e5e57506000919050565b60cb54604051638e204c4360e01b81526001600160a01b03848116600483015290911690638e204c439060240160206040518083038186803b158015611ea357600080fd5b505afa158015611eb7573d6000803e3d6000fd5b505050506040513d601f19601f820116820180604052508101906107cb919061286e565b611ee3612180565b6099805460ff191690557f5db9ee0a495bf2e6ff9c91a7834c1ba4fdd244a5e8aa4e537bd38aeae4b073aa335b6040516001600160a01b03909116815260200160405180910390a1565b60405160009082156108fc0290839083818181858288f19350505050158015611f5a573d6000803e3d6000fd5b508060d96000828254611f6d91906128dd565b909155505060d954604080513381526020810184905280820192909252517f42d054580963e2dba823e742605c4122e3a17d67f075cef728464140a4a067639181900360600190a150565b611fc0611b89565b6099805460ff191660011790557f62e78cea01bee320cd4e420270b5ea74000d11b0c9f74754ebdbfc544b05a258611f103390565b600254610100900460ff16611bcf57600080fd5b600254610100900460ff1661201d57600080fd5b611bcf6121c9565b610d3d8282611d2c565b6001600160a01b038216600090815260d06020908152604080832060d25484529091529020548111156120ae5760405162461bcd60e51b815260206004820152602160248201527f4b696e67646f6d4e6f626c65733a206e6f7420656e6f756768206c6f79616c746044820152607960f81b60648201526084016108b0565b6001600160a01b038216600090815260d06020908152604080832060d2548452909152812080548392906120e390849061294c565b9091555050604080516001600160a01b0384168152602081018390527f45ca96c859c5a2c2bd6c0bf970c84235ddb2f0157abc9d2e18dcde76afea79dc9101611c3e565b61213182826113f3565b610d3d5761213e816121e9565b6121498360206121fb565b60405160200161215a929190612a49565b60408051601f198184030181529082905262461bcd60e51b82526108b091600401612807565b60995460ff16611bcf5760405162461bcd60e51b815260206004820152601460248201527314185d5cd8589b194e881b9bdd081c185d5cd95960621b60448201526064016108b0565b600254610100900460ff166121dd57600080fd5b6099805460ff19169055565b60606107cb6001600160a01b03831660145b6060600061220a83600261290b565b6122159060026128dd565b67ffffffffffffffff81111561222d5761222d612491565b6040519080825280601f01601f191660200182016040528015612257576020820181803683370190505b509050600360fc1b81600081518110612272576122726128f5565b60200101906001600160f81b031916908160001a905350600f60fb1b816001815181106122a1576122a16128f5565b60200101906001600160f81b031916908160001a90535060006122c584600261290b565b6122d09060016128dd565b90505b6001811115612348576f181899199a1a9b1b9c1cb0b131b232b360811b85600f1660108110612304576123046128f5565b1a60f81b82828151811061231a5761231a6128f5565b60200101906001600160f81b031916908160001a90535060049490941c9361234181612abe565b90506122d3565b50831561235457600080fd5b9392505050565b82805461236790612a14565b90600052602060002090601f01602090048101928261238957600085556123cf565b82601f106123a25782800160ff198235161785556123cf565b828001600101855582156123cf579182015b828111156123cf5782358255916020019190600101906123b4565b506123db9291506123df565b5090565b5b808211156123db57600081556001016123e0565b60006020828403121561240657600080fd5b81356001600160e01b03198116811461235457600080fd5b80356001600160a01b038116811461243557600080fd5b919050565b60006020828403121561244c57600080fd5b6123548261241e565b60008060006060848603121561246a57600080fd5b6124738461241e565b92506124816020850161241e565b9150604084013590509250925092565b634e487b7160e01b600052604160045260246000fd5b600082601f8301126124b857600080fd5b8135602067ffffffffffffffff808311156124d5576124d5612491565b8260051b604051601f19603f830116810181811084821117156124fa576124fa612491565b60405293845285810183019383810192508785111561251857600080fd5b83870191505b8482101561253e5761252f8261241e565b8352918301919083019061251e565b979650505050505050565b6000806040838503121561255c57600080fd5b823567ffffffffffffffff81111561257357600080fd5b61257f858286016124a7565b95602094909401359450505050565b6000602082840312156125a057600080fd5b5035919050565b600080604083850312156125ba57600080fd5b823591506125ca6020840161241e565b90509250929050565b600080602083850312156125e657600080fd5b823567ffffffffffffffff808211156125fe57600080fd5b818501915085601f83011261261257600080fd5b81358181111561262157600080fd5b86602082850101111561263357600080fd5b60209290920196919550909350505050565b6000806040838503121561265857600080fd5b6126618361241e565b946020939093013593505050565b60006020828403121561268157600080fd5b813567ffffffffffffffff81111561269857600080fd5b6126a4848285016124a7565b949350505050565b60005b838110156126c75781810151838201526020016126af565b8381111561157d5750506000910152565b600081518084526126f08160208601602086016126ac565b601f01601f19169290920160200192915050565b6000602080830181845280855180835260408601915060408160051b870101925083870160005b8281101561275957603f198886030184526127478583516126d8565b9450928501929085019060010161272b565b5092979650505050505050565b6020808252825182820181905260009190848201906040850190845b8181101561279e57835183529284019291840191600101612782565b50909695505050505050565b600080604083850312156127bd57600080fd5b6127c68361241e565b91506125ca6020840161241e565b6000806000606084860312156127e957600080fd5b6127f28461241e565b95602085013595506040909401359392505050565b60208152600061235460208301846126d8565b6000806000806080858703121561283057600080fd5b6128398561241e565b93506128476020860161241e565b92506128556040860161241e565b91506128636060860161241e565b905092959194509250565b60006020828403121561288057600080fd5b8151801515811461235457600080fd5b6020808252601e908201527f4b696e67646f6d4e6f626c65733a207472616e73666572206661696c65640000604082015260600190565b634e487b7160e01b600052601160045260246000fd5b600082198211156128f0576128f06128c7565b500190565b634e487b7160e01b600052603260045260246000fd5b6000816000190483118215151615612925576129256128c7565b500290565b60008261294757634e487b7160e01b600052601260045260246000fd5b500490565b60008282101561295e5761295e6128c7565b500390565b6000600019821415612977576129776128c7565b5060010190565b606080825284519082018190526000906020906080840190828801845b828110156129c05781516001600160a01b03168452928401929084019060010161299b565b505050908301949094525060400152919050565b6001600160a01b03841681526040602082018190528101829052818360608301376000818301606090810191909152601f909201601f1916010192915050565b600181811c90821680612a2857607f821691505b602082108114156113cd57634e487b7160e01b600052602260045260246000fd5b7f416363657373436f6e74726f6c3a206163636f756e7420000000000000000000815260008351612a818160178501602088016126ac565b7001034b99036b4b9b9b4b733903937b6329607d1b6017918401918201528351612ab28160288401602088016126ac565b01602801949350505050565b600081612acd57612acd6128c7565b50600019019056fe73e573f9566d61418a34d5de3ff49360f9c51fec37f7486551670290f6285dab97667070c54ef182b0f5858b034beac1b6f3089aa2d3188bb1e8929f4fa9b929a264697066735822122021a5510cbac5765f960685e13c148e89b45b37f688970bf2ac3a11c01941ae7964736f6c63430008090033",
  "linkReferences": {},
  "deployedLinkReferences": {}
}