{
  "_format": "hh-sol-artifact-1",
  "contractName": "KingdomNobles",
  "sourceName": "contracts/features/KingdomNobles.sol",
  "abi": [
    {
      "anonymous": false,
      "inputs": [
        {
          "indexed": false,
          "internalType": "address[]",
          "name": "accounts",
          "type": "address[]"
        },
        {
          "indexed": false,
          "internalType": "uint256",
          "name": "totalRewards",
          "type": "uint256"
        },
        {
          "indexed": false,
          "internalType": "uint256",
          "name": "accumulatedPayouts",
          "type": "uint256"
        }
      ],
      "name": "DistributeRewards",
      "type": "event"
    },
    {
      "anonymous": false,
      "inputs": [
        {
          "indexed": false,
          "internalType": "address",
          "name": "account",
          "type": "address"
        },
        {
          "indexed": false,
          "internalType": "uint256",
          "name": "amount",
          "type": "uint256"
        },
        {
          "indexed": false,
          "internalType": "uint256",
          "name": "stabletokens",
          "type": "uint256"
        }
      ],
      "name": "GainLoyalty",
      "type": "event"
    },
    {
      "anonymous": false,
      "inputs": [
        {
          "indexed": false,
          "internalType": "uint8",
          "name": "version",
          "type": "uint8"
        }
      ],
      "name": "Initialized",
      "type": "event"
    },
    {
      "anonymous": false,
      "inputs": [
        {
          "indexed": false,
          "internalType": "address",
          "name": "account",
          "type": "address"
        }
      ],
      "name": "Paused",
      "type": "event"
    },
    {
      "anonymous": false,
      "inputs": [
        {
          "indexed": true,
          "internalType": "bytes32",
          "name": "role",
          "type": "bytes32"
        },
        {
          "indexed": true,
          "internalType": "bytes32",
          "name": "previousAdminRole",
          "type": "bytes32"
        },
        {
          "indexed": true,
          "internalType": "bytes32",
          "name": "newAdminRole",
          "type": "bytes32"
        }
      ],
      "name": "RoleAdminChanged",
      "type": "event"
    },
    {
      "anonymous": false,
      "inputs": [
        {
          "indexed": true,
          "internalType": "bytes32",
          "name": "role",
          "type": "bytes32"
        },
        {
          "indexed": true,
          "internalType": "address",
          "name": "account",
          "type": "address"
        },
        {
          "indexed": true,
          "internalType": "address",
          "name": "sender",
          "type": "address"
        }
      ],
      "name": "RoleGranted",
      "type": "event"
    },
    {
      "anonymous": false,
      "inputs": [
        {
          "indexed": true,
          "internalType": "bytes32",
          "name": "role",
          "type": "bytes32"
        },
        {
          "indexed": true,
          "internalType": "address",
          "name": "account",
          "type": "address"
        },
        {
          "indexed": true,
          "internalType": "address",
          "name": "sender",
          "type": "address"
        }
      ],
      "name": "RoleRevoked",
      "type": "event"
    },
    {
      "anonymous": false,
      "inputs": [
        {
          "indexed": false,
          "internalType": "address",
          "name": "account",
          "type": "address"
        },
        {
          "indexed": false,
          "internalType": "uint256",
          "name": "amount",
          "type": "uint256"
        }
      ],
      "name": "SpendLoyalty",
      "type": "event"
    },
    {
      "anonymous": false,
      "inputs": [
        {
          "indexed": false,
          "internalType": "address",
          "name": "account",
          "type": "address"
        }
      ],
      "name": "Unpaused",
      "type": "event"
    },
    {
      "anonymous": false,
      "inputs": [
        {
          "indexed": false,
          "internalType": "address",
          "name": "account",
          "type": "address"
        },
        {
          "indexed": false,
          "internalType": "uint256",
          "name": "amount",
          "type": "uint256"
        }
      ],
      "name": "WithdrawRewards",
      "type": "event"
    },
    {
      "inputs": [],
      "name": "DEFAULT_ADMIN_ROLE",
      "outputs": [
        {
          "internalType": "bytes32",
          "name": "",
          "type": "bytes32"
        }
      ],
      "stateMutability": "view",
      "type": "function"
    },
    {
      "inputs": [
        {
          "internalType": "address",
          "name": "_operator",
          "type": "address"
        },
        {
          "internalType": "address",
          "name": "_blocklistAddress",
          "type": "address"
        }
      ],
      "name": "__Administrable_init",
      "outputs": [],
      "stateMutability": "nonpayable",
      "type": "function"
    },
    {
      "inputs": [],
      "name": "accumulatedPayouts",
      "outputs": [
        {
          "internalType": "uint256",
          "name": "",
          "type": "uint256"
        }
      ],
      "stateMutability": "view",
      "type": "function"
    },
    {
      "inputs": [
        {
          "internalType": "address",
          "name": "account",
          "type": "address"
        }
      ],
      "name": "accumulatedStabletokensOf",
      "outputs": [
        {
          "internalType": "uint256",
          "name": "",
          "type": "uint256"
        }
      ],
      "stateMutability": "view",
      "type": "function"
    },
    {
      "inputs": [
        {
          "internalType": "address",
          "name": "account",
          "type": "address"
        }
      ],
      "name": "balanceOf",
      "outputs": [
        {
          "internalType": "uint256",
          "name": "",
          "type": "uint256"
        }
      ],
      "stateMutability": "view",
      "type": "function"
    },
    {
      "inputs": [],
      "name": "currentCycle",
      "outputs": [
        {
          "internalType": "uint256",
          "name": "number",
          "type": "uint256"
        },
        {
          "internalType": "uint256",
          "name": "startBlock",
          "type": "uint256"
        },
        {
          "internalType": "uint256",
          "name": "endBlock",
          "type": "uint256"
        }
      ],
      "stateMutability": "view",
      "type": "function"
    },
    {
      "inputs": [],
      "name": "cycleDuration",
      "outputs": [
        {
          "internalType": "uint256",
          "name": "",
          "type": "uint256"
        }
      ],
      "stateMutability": "view",
      "type": "function"
    },
    {
      "inputs": [
        {
          "internalType": "address[]",
          "name": "accounts",
          "type": "address[]"
        },
        {
          "internalType": "uint256",
          "name": "totalAmount",
          "type": "uint256"
        }
      ],
      "name": "distribute",
      "outputs": [],
      "stateMutability": "nonpayable",
      "type": "function"
    },
    {
      "inputs": [
        {
          "internalType": "address",
          "name": "account",
          "type": "address"
        },
        {
          "internalType": "uint256",
          "name": "loyalty",
          "type": "uint256"
        },
        {
          "internalType": "uint256",
          "name": "stabletokens",
          "type": "uint256"
        }
      ],
      "name": "gainLoyalty",
      "outputs": [],
      "stateMutability": "nonpayable",
      "type": "function"
    },
    {
      "inputs": [
        {
          "internalType": "bytes32",
          "name": "role",
          "type": "bytes32"
        }
      ],
      "name": "getRoleAdmin",
      "outputs": [
        {
          "internalType": "bytes32",
          "name": "",
          "type": "bytes32"
        }
      ],
      "stateMutability": "view",
      "type": "function"
    },
    {
      "inputs": [
        {
          "internalType": "bytes32",
          "name": "role",
          "type": "bytes32"
        },
        {
          "internalType": "address",
          "name": "account",
          "type": "address"
        }
      ],
      "name": "grantRole",
      "outputs": [],
      "stateMutability": "nonpayable",
      "type": "function"
    },
    {
      "inputs": [],
      "name": "hasBlocklist",
      "outputs": [
        {
          "internalType": "bool",
          "name": "",
          "type": "bool"
        }
      ],
      "stateMutability": "view",
      "type": "function"
    },
    {
      "inputs": [
        {
          "internalType": "bytes32",
          "name": "role",
          "type": "bytes32"
        },
        {
          "internalType": "address",
          "name": "account",
          "type": "address"
        }
      ],
      "name": "hasRole",
      "outputs": [
        {
          "internalType": "bool",
          "name": "",
          "type": "bool"
        }
      ],
      "stateMutability": "view",
      "type": "function"
    },
    {
      "inputs": [
        {
          "internalType": "address",
          "name": "_operator",
          "type": "address"
        },
        {
          "internalType": "address",
          "name": "_blocklist",
          "type": "address"
        },
        {
          "internalType": "address",
          "name": "_stableToken",
          "type": "address"
        },
        {
          "internalType": "address",
          "name": "_treasury",
          "type": "address"
        }
      ],
      "name": "initialize",
      "outputs": [],
      "stateMutability": "nonpayable",
      "type": "function"
    },
    {
      "inputs": [],
      "name": "lockPeriod",
      "outputs": [
        {
          "internalType": "uint256",
          "name": "",
          "type": "uint256"
        }
      ],
      "stateMutability": "view",
      "type": "function"
    },
    {
      "inputs": [
        {
          "internalType": "address",
          "name": "account",
          "type": "address"
        }
      ],
      "name": "lockedUntilOf",
      "outputs": [
        {
          "internalType": "uint256",
          "name": "",
          "type": "uint256"
        }
      ],
      "stateMutability": "view",
      "type": "function"
    },
    {
      "inputs": [
        {
          "internalType": "address",
          "name": "account",
          "type": "address"
        },
        {
          "internalType": "uint256",
          "name": "cycle",
          "type": "uint256"
        }
      ],
      "name": "loyaltyByCycleOf",
      "outputs": [
        {
          "internalType": "uint256",
          "name": "",
          "type": "uint256"
        }
      ],
      "stateMutability": "view",
      "type": "function"
    },
    {
      "inputs": [
        {
          "internalType": "address",
          "name": "account",
          "type": "address"
        }
      ],
      "name": "loyaltyOf",
      "outputs": [
        {
          "internalType": "uint256",
          "name": "",
          "type": "uint256"
        }
      ],
      "stateMutability": "view",
      "type": "function"
    },
    {
      "inputs": [],
      "name": "pause",
      "outputs": [],
      "stateMutability": "nonpayable",
      "type": "function"
    },
    {
      "inputs": [],
      "name": "paused",
      "outputs": [
        {
          "internalType": "bool",
          "name": "",
          "type": "bool"
        }
      ],
      "stateMutability": "view",
      "type": "function"
    },
    {
      "inputs": [
        {
          "internalType": "address",
          "name": "tokenAddress",
          "type": "address"
        },
        {
          "internalType": "address",
          "name": "to",
          "type": "address"
        },
        {
          "internalType": "uint256",
          "name": "amount",
          "type": "uint256"
        }
      ],
      "name": "recoverERC20",
      "outputs": [],
      "stateMutability": "nonpayable",
      "type": "function"
    },
    {
      "inputs": [
        {
          "internalType": "bytes32",
          "name": "role",
          "type": "bytes32"
        },
        {
          "internalType": "address",
          "name": "account",
          "type": "address"
        }
      ],
      "name": "renounceRole",
      "outputs": [],
      "stateMutability": "nonpayable",
      "type": "function"
    },
    {
      "inputs": [],
      "name": "resetBlocklist",
      "outputs": [],
      "stateMutability": "nonpayable",
      "type": "function"
    },
    {
      "inputs": [
        {
          "internalType": "bytes32",
          "name": "role",
          "type": "bytes32"
        },
        {
          "internalType": "address",
          "name": "account",
          "type": "address"
        }
      ],
      "name": "revokeRole",
      "outputs": [],
      "stateMutability": "nonpayable",
      "type": "function"
    },
    {
      "inputs": [
        {
          "internalType": "address",
          "name": "blocklistAddress",
          "type": "address"
        }
      ],
      "name": "setBlocklist",
      "outputs": [],
      "stateMutability": "nonpayable",
      "type": "function"
    },
    {
      "inputs": [
        {
          "internalType": "address",
          "name": "account",
          "type": "address"
        },
        {
          "internalType": "uint256",
          "name": "amount",
          "type": "uint256"
        }
      ],
      "name": "spendLoyalty",
      "outputs": [],
      "stateMutability": "nonpayable",
      "type": "function"
    },
    {
      "inputs": [],
      "name": "stableToken",
      "outputs": [
        {
          "internalType": "contract IBkERC20",
          "name": "",
          "type": "address"
        }
      ],
      "stateMutability": "view",
      "type": "function"
    },
    {
      "inputs": [
        {
          "internalType": "bytes4",
          "name": "interfaceId",
          "type": "bytes4"
        }
      ],
      "name": "supportsInterface",
      "outputs": [
        {
          "internalType": "bool",
          "name": "",
          "type": "bool"
        }
      ],
      "stateMutability": "view",
      "type": "function"
    },
    {
      "inputs": [],
      "name": "treasury",
      "outputs": [
        {
          "internalType": "address",
          "name": "",
          "type": "address"
        }
      ],
      "stateMutability": "view",
      "type": "function"
    },
    {
      "inputs": [],
      "name": "unpause",
      "outputs": [],
      "stateMutability": "nonpayable",
      "type": "function"
    },
    {
      "inputs": [],
      "name": "withdraw",
      "outputs": [],
      "stateMutability": "nonpayable",
      "type": "function"
    }
  ],
  "bytecode": "0x608060405234801561001057600080fd5b50611f7f806100206000396000f3fe608060405234801561001057600080fd5b50600436106101e55760003560e01c806361d027b31161010f578063a9d75b2b116100a2578063ce8ccd6011610071578063ce8ccd601461047e578063d547741f14610491578063d56f992a146104a4578063f8c8765e146104b757600080fd5b8063a9d75b2b14610402578063aef18ae714610415578063bab2f55214610428578063cc9e74361461045557600080fd5b80638456cb59116100de5780638456cb59146103cc57806391d14854146103d4578063931da89b146103e7578063a217fddf146103fa57600080fd5b806361d027b31461032e578063634210f41461035957806366af5ea31461036d57806370a08231146103a357600080fd5b806336568abe116101875780633fd8b02f116101565780633fd8b02f1461030857806350d03ab8146103115780635bec4cb41461031a5780635c975abb1461032357600080fd5b806336568abe146102dd5780633c7fd822146102f05780633ccfd60b146102f85780633f4ba83a1461030057600080fd5b80631826c119116101c35780631826c1191461026b578063248a9ca31461027e5780632f2ff15d146102a15780633091e1e2146102b457600080fd5b806301ffc9a7146101ea5780630f2cc5fe146102125780631171bda914610256575b600080fd5b6101fd6101f8366004611a1a565b6104ca565b60405190151581526020015b60405180910390f35b610248610220366004611a60565b6001600160a01b0316600090815260d06020908152604080832060d254845290915290205490565b604051908152602001610209565b610269610264366004611a7b565b610501565b005b610269610279366004611acd565b6105a2565b61024861028c366004611b98565b60009081526067602052604090206001015490565b6102696102af366004611bb1565b61097e565b6102486102c2366004611a60565b6001600160a01b0316600090815260cf602052604090205490565b6102696102eb366004611bb1565b6109a8565b6102696109cb565b6102696109f6565b610269610c51565b61024860005481565b61024860d65481565b61024860d55481565b60995460ff166101fd565b60cd54610341906001600160a01b031681565b6040516001600160a01b039091168152602001610209565b60cb546101fd90600160a01b900460ff1681565b61024861037b366004611bdd565b6001600160a01b0391909116600090815260d060209081526040808320938352929052205490565b6102486103b1366004611a60565b6001600160a01b0316600090815260ce602052604090205490565b610269610c74565b6101fd6103e2366004611bb1565b610c94565b6102696103f5366004611c07565b610cbf565b610248600081565b60cc54610341906001600160a01b031681565b610269610423366004611a60565b610dc4565b60d25460d35460d45461043a92919083565b60408051938452602084019290925290820152606001610209565b610248610463366004611a60565b6001600160a01b031660009081526001602052604090205490565b61026961048c366004611c31565b610e04565b61026961049f366004611bb1565b610e2d565b6102696104b2366004611bdd565b610e52565b6102696104c5366004611c64565b610e74565b60006001600160e01b03198216637965db0b60e01b14806104fb57506301ffc9a760e01b6001600160e01b03198316145b92915050565b600080516020611f2a83398151915261051981611309565b60405163a9059cbb60e01b81526001600160a01b0384811660048301526024820184905285169063a9059cbb90604401602060405180830381600087803b15801561056357600080fd5b505af1158015610577573d6000803e3d6000fd5b505050506040513d601f19601f8201168201806040525081019061059b9190611cb8565b5050505050565b60cb54600160a81b900460ff16156105e95760405162461bcd60e51b81526020600482015260056024820152640daeae8caf60db1b60448201526064015b60405180910390fd5b60cb805460ff60a81b1916600160a81b179055610604611313565b600080516020611f0a83398151915261061c81611309565b600083511161066d5760405162461bcd60e51b815260206004820152601a60248201527f4b696e67646f6d4e6f626c65733a206e6f206163636f756e747300000000000060448201526064016105e0565b6019835111156106bf5760405162461bcd60e51b815260206004820181905260248201527f4b696e67646f6d4e6f626c65733a20746f6f206d616e79206163636f756e747360448201526064016105e0565b60cc546040516323b872dd60e01b8152336004820152306024820152604481018490526001600160a01b03909116906323b872dd90606401602060405180830381600087803b15801561071157600080fd5b505af1158015610725573d6000803e3d6000fd5b505050506040513d601f19601f820116820180604052508101906107499190611cb8565b6107655760405162461bcd60e51b81526004016105e090611cda565b60d45443106107765761077661135b565b8160d660008282546107889190611d27565b9091555060009050805b84518110156108245760006103e860d1826107ae856001611d27565b815260200190815260200160002054866107c89190611d3f565b6107d29190611d5e565b90506108048683815181106107e9576107e9611d80565b60200260200101518360196107fe9190611d96565b8361138d565b61080e8184611d27565b925050808061081c90611dad565b915050610792565b50828111156108755760405162461bcd60e51b815260206004820152601d60248201527f4b696e67646f6d4e6f626c65733a207370656e7420746f6f206d75636800000060448201526064016105e0565b60006108818285611d96565b9050801561092d5760cc5460cd5460405163a9059cbb60e01b81526001600160a01b0391821660048201526024810184905291169063a9059cbb90604401602060405180830381600087803b1580156108d957600080fd5b505af11580156108ed573d6000803e3d6000fd5b505050506040513d601f19601f820116820180604052508101906109119190611cb8565b61092d5760405162461bcd60e51b81526004016105e090611cda565b7fcabeda0473badf59c1be9964fc231255129e4c829d3095b8234e90f2528320b3858360d65460405161096293929190611dc8565b60405180910390a1505060cb805460ff60a81b19169055505050565b60008281526067602052604090206001015461099981611309565b6109a3838361146f565b505050565b6001600160a01b03811633146109bd57600080fd5b6109c782826114f5565b5050565b600080516020611f2a8339815191526109e381611309565b5060cb80546001600160a81b0319169055565b60cb54600160a81b900460ff1615610a385760405162461bcd60e51b81526020600482015260056024820152640daeae8caf60db1b60448201526064016105e0565b60cb805460ff60a81b1916600160a81b179055610a53611313565b33600090815260016020526040902054431015610a9d5760405162461bcd60e51b815260206004820152600860248201526731b7b7b63237bbb760c11b60448201526064016105e0565b610aa63361155c565b33610ab081611585565b15610aeb5760405162461bcd60e51b815260206004820152600b60248201526a109b1bd8dadb1a5cdd195960aa1b60448201526064016105e0565b33600090815260ce602052604090205480610b545760405162461bcd60e51b815260206004820152602360248201527f4b696e67646f6d4e6f626c65733a206e6f207265776172647320617661696c61604482015262626c6560e81b60648201526084016105e0565b33600081815260ce60205260408082209190915560cc54905163a9059cbb60e01b81526004810192909252602482018390526001600160a01b03169063a9059cbb90604401602060405180830381600087803b158015610bb357600080fd5b505af1158015610bc7573d6000803e3d6000fd5b505050506040513d601f19601f82011682018060405250810190610beb9190611cb8565b610c075760405162461bcd60e51b81526004016105e090611cda565b60408051338152602081018390527faa1377f7ec93c239e959efa811f7b8554c036fd7a706c23e58024626a8f3db96910160405180910390a1505060cb805460ff60a81b19169055565b600080516020611f2a833981519152610c6981611309565b610c7161161e565b50565b600080516020611f2a833981519152610c8c81611309565b610c71611670565b60009182526067602090815260408084206001600160a01b0393909316845291905290205460ff1690565b600254610100900460ff1615808015610cdf5750600254600160ff909116105b80610cf95750303b158015610cf9575060025460ff166001145b610d0257600080fd5b6002805460ff191660011790558015610d25576002805461ff0019166101001790555b610d2d6116ad565b610d356116c1565b610d406000846116dd565b610d58600080516020611f2a833981519152846116dd565b610d70600080516020611f0a833981519152846116dd565b610d7982610dc4565b80156109a3576002805461ff0019169055604051600181527f7f26b83ff96e1f2b6a682f133852f6798a09c465da95921460cefb3847402498906020015b60405180910390a1505050565b600080516020611f2a833981519152610ddc81611309565b5060cb80546001600160a81b0319166001600160a01b0390921691909117600160a01b179055565b600080516020611f0a833981519152610e1c81611309565b610e2784848461138d565b50505050565b600082815260676020526040902060010154610e4881611309565b6109a383836114f5565b600080516020611f0a833981519152610e6a81611309565b6109a383836116e7565b600254610100900460ff1615808015610e945750600254600160ff909116105b80610eae5750303b158015610eae575060025460ff166001145b610eb757600080fd5b6002805460ff191660011790558015610eda576002805461ff0019166101001790555b610ee48585610cbf565b60cc80546001600160a01b038086166001600160a01b03199283161790925560cd805492851692909116919091179055610f1f6121c0600055565b60d1602090815260047f63d934fde9715ef4c4ef67d8905bbc88cc7a2b1011beb145fed4bc7402daffa88190557f732a90827bb7e1b6b8639bf92bef92d8db3f9f47cafaeb018e9f62f504d762238190557f269c3a4c6ad675e7cd2766f69b5bd8f6674eec951e7da26e6cc63b1503ec729f8190557f5ed8f8588583bccdce769c8b97847d727c6ff4b300a896a7865e13a8c1474ec38190557f01e5e2df8fb0bc2681dc4a252f57d3a9cc51d8ad98de589f954e7d831c9faab48190557fa0510bda1868423b7f84dfd31a014662b26dc546e44bf5590e4f56eaa1b44f398190557faa307840506843fa80a16fd990f698de65a0f005398424fac446516fbaef93068190557f6b3b629e0dfd49ff3fa9458ddc6a9e688f660455a1321ab0b9bea75561629a128190557f0113ba22dfd179155a60459cc5cc426986b16d6879c52045f58a069a6890e7128190557ffd9ce761972f37ffe77864206725cceee8c5b5df255c0f1a0bd78d93d0a019665560087f8b49be6b182e392a578dc82e0342aad2c4a752709f271244fdfa01f0d2a598998190557f886dd6a55af72c62be1f613057cb416357d24cdd0742db87585d2b9c7c3d47b18190557f0eee21aa3b90598e4800deef08940fe3705de824f1096940ef614e51a9f7161e8190557fbaf37fe9715f12da567bb4e8e466e2e259541e0c6b11c329cfc8e423f7f79aba8190557f86235368e71dc12c3fae6432ae881013ef76751a0631694b9a0c06ebbb3434eb5560107f1376a098ea326a304008b1345a781cefcdc22cb50c2d1509b62032e439da62d65560187fca21fa04e8f96c86a1f3d2b0042f134ec5e17b8bb9792cc3216ae43a8819a771557f1235c1788e673dbc712741e9427f612f243bb282eba4415676f8db68a7ecc33b5560287f7aa7615f78042e6df3d6beffa1745d189b466e4b625bee57b462dfcb73fd0d575560307f5fc37102da4e46a18c3f5a2a9e23b0018e77579a421a1531df425f4c5bce138a5560387f69aae7959c049fca74f5e43400d862464e9dc9b5042b52fc51b955075024a8575560507f9205af8e73dcb82a487de88e541200134d0139807150268b54190865cc74beed5560787f507fbfbc4604457cf48784aed8fcaf8ef1e156d984c943cc8583366a2705be5e5560c87f32ea06fcf2721a86a5d9ed09fff93f12af8d61fae22ffe196961f9320ec53d3f5560016000526101307fb41c81a20ee1317ccb9b438d7e5d59d66d5a6ec10e50c28bfec0bae0f14bf52755620bdd8060d5556112bd61135b565b801561059b576002805461ff0019169055604051600181527f7f26b83ff96e1f2b6a682f133852f6798a09c465da95921460cefb38474024989060200160405180910390a15050505050565b610c7181336117e6565b60995460ff16156113595760405162461bcd60e51b815260206004820152601060248201526f14185d5cd8589b194e881c185d5cd95960821b60448201526064016105e0565b565b600160d260000160008282546113719190611d27565b90915550504360d381905560d55461138891611d27565b60d455565b6001600160a01b038316600090815260d06020908152604080832060d2548452909152812080548492906113c2908490611d27565b90915550508015611428576001600160a01b038316600090815260ce6020526040812080548392906113f5908490611d27565b90915550506001600160a01b038316600090815260cf602052604081208054839290611422908490611d27565b90915550505b604080516001600160a01b0385168152602081018490529081018290527f46c328239b12435d03feadd57b7d427926e3bf96be1bbf5c4cd5596de663f4af90606001610db7565b6114798282610c94565b6109c75760008281526067602090815260408083206001600160a01b03851684529091529020805460ff191660011790556114b13390565b6001600160a01b0316816001600160a01b0316837f2f8788117e7eff1d82e926ec794901d17c78024a50270940304540a733656f0d60405160405180910390a45050565b6114ff8282610c94565b156109c75760008281526067602090815260408083206001600160a01b0385168085529252808320805460ff1916905551339285917ff6391f5c32d9c69d2a47ea670b442974b53935d1edc7fd64eb21e047a839171b9190a45050565b6000546115699043611d27565b6001600160a01b03909116600090815260016020526040902055565b60cb54600090600160a01b900460ff166115a157506000919050565b60cb54604051638e204c4360e01b81526001600160a01b03848116600483015290911690638e204c439060240160206040518083038186803b1580156115e657600080fd5b505afa1580156115fa573d6000803e3d6000fd5b505050506040513d601f19601f820116820180604052508101906104fb9190611cb8565b61162661183f565b6099805460ff191690557f5db9ee0a495bf2e6ff9c91a7834c1ba4fdd244a5e8aa4e537bd38aeae4b073aa335b6040516001600160a01b03909116815260200160405180910390a1565b611678611313565b6099805460ff191660011790557f62e78cea01bee320cd4e420270b5ea74000d11b0c9f74754ebdbfc544b05a2586116533390565b600254610100900460ff1661135957600080fd5b600254610100900460ff166116d557600080fd5b611359611888565b6109c7828261146f565b6001600160a01b038216600090815260d06020908152604080832060d25484529091529020548111156117665760405162461bcd60e51b815260206004820152602160248201527f4b696e67646f6d4e6f626c65733a206e6f7420656e6f756768206c6f79616c746044820152607960f81b60648201526084016105e0565b6001600160a01b038216600090815260d06020908152604080832060d25484529091528120805483929061179b908490611d96565b9091555050604080516001600160a01b0384168152602081018390527f45ca96c859c5a2c2bd6c0bf970c84235ddb2f0157abc9d2e18dcde76afea79dc910160405180910390a15050565b6117f08282610c94565b6109c7576117fd816118a8565b6118088360206118ba565b604051602001611819929190611e4a565b60408051601f198184030181529082905262461bcd60e51b82526105e091600401611ebf565b60995460ff166113595760405162461bcd60e51b815260206004820152601460248201527314185d5cd8589b194e881b9bdd081c185d5cd95960621b60448201526064016105e0565b600254610100900460ff1661189c57600080fd5b6099805460ff19169055565b60606104fb6001600160a01b03831660145b606060006118c9836002611d3f565b6118d4906002611d27565b67ffffffffffffffff8111156118ec576118ec611ab7565b6040519080825280601f01601f191660200182016040528015611916576020820181803683370190505b509050600360fc1b8160008151811061193157611931611d80565b60200101906001600160f81b031916908160001a905350600f60fb1b8160018151811061196057611960611d80565b60200101906001600160f81b031916908160001a9053506000611984846002611d3f565b61198f906001611d27565b90505b6001811115611a07576f181899199a1a9b1b9c1cb0b131b232b360811b85600f16601081106119c3576119c3611d80565b1a60f81b8282815181106119d9576119d9611d80565b60200101906001600160f81b031916908160001a90535060049490941c93611a0081611ef2565b9050611992565b508315611a1357600080fd5b9392505050565b600060208284031215611a2c57600080fd5b81356001600160e01b031981168114611a1357600080fd5b80356001600160a01b0381168114611a5b57600080fd5b919050565b600060208284031215611a7257600080fd5b611a1382611a44565b600080600060608486031215611a9057600080fd5b611a9984611a44565b9250611aa760208501611a44565b9150604084013590509250925092565b634e487b7160e01b600052604160045260246000fd5b60008060408385031215611ae057600080fd5b823567ffffffffffffffff80821115611af857600080fd5b818501915085601f830112611b0c57600080fd5b8135602082821115611b2057611b20611ab7565b8160051b604051601f19603f83011681018181108682111715611b4557611b45611ab7565b604052928352818301935084810182019289841115611b6357600080fd5b948201945b83861015611b8857611b7986611a44565b85529482019493820193611b68565b9997909101359750505050505050565b600060208284031215611baa57600080fd5b5035919050565b60008060408385031215611bc457600080fd5b82359150611bd460208401611a44565b90509250929050565b60008060408385031215611bf057600080fd5b611bf983611a44565b946020939093013593505050565b60008060408385031215611c1a57600080fd5b611c2383611a44565b9150611bd460208401611a44565b600080600060608486031215611c4657600080fd5b611c4f84611a44565b95602085013595506040909401359392505050565b60008060008060808587031215611c7a57600080fd5b611c8385611a44565b9350611c9160208601611a44565b9250611c9f60408601611a44565b9150611cad60608601611a44565b905092959194509250565b600060208284031215611cca57600080fd5b81518015158114611a1357600080fd5b6020808252601e908201527f4b696e67646f6d4e6f626c65733a207472616e73666572206661696c65640000604082015260600190565b634e487b7160e01b600052601160045260246000fd5b60008219821115611d3a57611d3a611d11565b500190565b6000816000190483118215151615611d5957611d59611d11565b500290565b600082611d7b57634e487b7160e01b600052601260045260246000fd5b500490565b634e487b7160e01b600052603260045260246000fd5b600082821015611da857611da8611d11565b500390565b6000600019821415611dc157611dc1611d11565b5060010190565b606080825284519082018190526000906020906080840190828801845b82811015611e0a5781516001600160a01b031684529284019290840190600101611de5565b505050908301949094525060400152919050565b60005b83811015611e39578181015183820152602001611e21565b83811115610e275750506000910152565b7f416363657373436f6e74726f6c3a206163636f756e7420000000000000000000815260008351611e82816017850160208801611e1e565b7001034b99036b4b9b9b4b733903937b6329607d1b6017918401918201528351611eb3816028840160208801611e1e565b01602801949350505050565b6020815260008251806020840152611ede816040850160208701611e1e565b601f01601f19169190910160400192915050565b600081611f0157611f01611d11565b50600019019056fe73e573f9566d61418a34d5de3ff49360f9c51fec37f7486551670290f6285dab97667070c54ef182b0f5858b034beac1b6f3089aa2d3188bb1e8929f4fa9b929a2646970667358221220c54576e6ce6b450b8fdc81ff530ebaeab394cb45a410be3125c4f1042fc37c9264736f6c63430008090033",
  "linkReferences": {},
  "deployedLinkReferences": {}
}