{
  "_format": "hh-sol-artifact-1",
  "contractName": "ResultCore",
  "sourceName": "contracts/features/RResult/ResultCore.sol",
  "abi": [
    {
      "inputs": [
        {
          "internalType": "address",
          "name": "coreA",
          "type": "address"
        },
        {
          "internalType": "address",
          "name": "coreB",
          "type": "address"
        },
        {
          "internalType": "address",
          "name": "coreC",
          "type": "address"
        },
        {
          "internalType": "address",
          "name": "coreD",
          "type": "address"
        }
      ],
      "stateMutability": "nonpayable",
      "type": "constructor"
    },
    {
      "inputs": [
        {
          "internalType": "address",
          "name": "to",
          "type": "address"
        },
        {
          "internalType": "uint256",
          "name": "min",
          "type": "uint256"
        },
        {
          "internalType": "uint256",
          "name": "max",
          "type": "uint256"
        },
        {
          "internalType": "uint256",
          "name": "seedA",
          "type": "uint256"
        },
        {
          "internalType": "uint256",
          "name": "seedB",
          "type": "uint256"
        }
      ],
      "name": "get",
      "outputs": [
        {
          "internalType": "uint256",
          "name": "",
          "type": "uint256"
        }
      ],
      "stateMutability": "view",
      "type": "function"
    },
    {
      "inputs": [
        {
          "internalType": "address",
          "name": "to",
          "type": "address"
        },
        {
          "internalType": "uint256",
          "name": "max",
          "type": "uint256"
        },
        {
          "internalType": "uint256",
          "name": "seedA",
          "type": "uint256"
        },
        {
          "internalType": "uint256",
          "name": "seedB",
          "type": "uint256"
        }
      ],
      "name": "geta",
      "outputs": [
        {
          "internalType": "uint256",
          "name": "",
          "type": "uint256"
        }
      ],
      "stateMutability": "view",
      "type": "function"
    },
    {
      "inputs": [
        {
          "internalType": "address",
          "name": "to",
          "type": "address"
        },
        {
          "internalType": "uint256",
          "name": "seedA",
          "type": "uint256"
        },
        {
          "internalType": "uint256",
          "name": "seedB",
          "type": "uint256"
        }
      ],
      "name": "getb",
      "outputs": [
        {
          "internalType": "uint256",
          "name": "",
          "type": "uint256"
        }
      ],
      "stateMutability": "view",
      "type": "function"
    },
    {
      "inputs": [
        {
          "internalType": "uint256",
          "name": "seedA",
          "type": "uint256"
        },
        {
          "internalType": "uint256",
          "name": "seedB",
          "type": "uint256"
        }
      ],
      "name": "getc",
      "outputs": [
        {
          "internalType": "uint256",
          "name": "",
          "type": "uint256"
        }
      ],
      "stateMutability": "view",
      "type": "function"
    },
    {
      "inputs": [
        {
          "internalType": "address",
          "name": "address_",
          "type": "address"
        },
        {
          "internalType": "bool",
          "name": "value",
          "type": "bool"
        }
      ],
      "name": "setInWhitelist",
      "outputs": [],
      "stateMutability": "nonpayable",
      "type": "function"
    }
  ],
  "bytecode": "0x6080604052600080546001600160a01b03199081167225239389b524762c97842cc4e1648a095a8e40179091556001805482167369637a2085b628480447b0c898d3dea28a5c36b1179055600280548216739d5c6721cf602c5eaeacfa5df7bdfbe96a69f88c17905560038054909116735d9544d59041bb074d97e12a7e969991a5cf322a179055630261150160045534801561009b57600080fd5b506040516107933803806107938339810160408190526100ba91610135565b600080546001600160a01b03199081166001600160a01b03968716179091556001805482169486169490941790935560028054841692851692909217909155600380548316919093161790915560058054339216919091179055610189565b80516001600160a01b038116811461013057600080fd5b919050565b6000806000806080858703121561014b57600080fd5b61015485610119565b935061016260208601610119565b925061017060408601610119565b915061017e60608601610119565b905092959194509250565b6105fb806101986000396000f3fe608060405234801561001057600080fd5b50600436106100575760003560e01c80632d6f1e1c1461005c57806361c8eb8e14610071578063cfb75c5414610096578063d00541a3146100a9578063d19435ff146100bc575b600080fd5b61006f61006a36600461041b565b6100cf565b005b61008461007f366004610457565b610159565b60405190815260200160405180910390f35b6100846100a4366004610479565b6101e4565b6100846100b73660046104b2565b61029d565b6100846100ca3660046104e5565b610337565b6005546001600160a01b0316331461012e5760405162461bcd60e51b815260206004820152601760248201527f63616c6c6572206973206e6f7420746865206f776e657200000000000000000060448201526064015b60405180910390fd5b6001600160a01b03919091166000908152600660205260409020805460ff1916911515919091179055565b3360009081526006602052604081205460ff166101885760405162461bcd60e51b815260040161012590610527565b6064836101958443610574565b61019f9190610574565b6040805160208101929092524290820152606081018590526080016040516020818303038152906040528051906020012060001c6101dd919061058c565b9392505050565b3360009081526006602052604081205460ff166102135760405162461bcd60e51b815260040161012590610527565b60648585856102228643610574565b61022c9190610574565b6102369190610574565b6004546102439087610574565b60405160609390931b6001600160601b0319166020840152603483019190915260548201524260748201526094016040516020818303038152906040528051906020012060001c610294919061058c565b95945050505050565b3360009081526006602052604081205460ff166102cc5760405162461bcd60e51b815260040161012590610527565b60646102d88484610574565b6040805160208101929092524390820152606086811b6001600160601b031916908201524260748201526094810185905260b4016040516020818303038152906040528051906020012060001c61032f919061058c565b949350505050565b3360009081526006602052604081205460ff166103665760405162461bcd60e51b815260040161012590610527565b8461037181866105ae565b61037c906001610574565b43886103888787610574565b6103924389610574565b6040516020016103c8949392919093845260609290921b6001600160601b03191660208401526034830152605482015260740190565b6040516020818303038152906040528051906020012060001c6103eb919061058c565b6103f59190610574565b9695505050505050565b80356001600160a01b038116811461041657600080fd5b919050565b6000806040838503121561042e57600080fd5b610437836103ff565b91506020830135801515811461044c57600080fd5b809150509250929050565b6000806040838503121561046a57600080fd5b50508035926020909101359150565b6000806000806080858703121561048f57600080fd5b610498856103ff565b966020860135965060408601359560600135945092505050565b6000806000606084860312156104c757600080fd5b6104d0846103ff565b95602085013595506040909401359392505050565b600080600080600060a086880312156104fd57600080fd5b610506866103ff565b97602087013597506040870135966060810135965060800135945092505050565b60208082526019908201527f63616c6c6572206973206e6f742077686974656c697374656400000000000000604082015260600190565b634e487b7160e01b600052601160045260246000fd5b600082198211156105875761058761055e565b500190565b6000826105a957634e487b7160e01b600052601260045260246000fd5b500690565b6000828210156105c0576105c061055e565b50039056fea26469706673582212202eb164d8ab4d4e27ca1ad8b432a160b3304d2ab59aac5a3ba9a55c2dc2e8678764736f6c63430008090033",
  "linkReferences": {},
  "deployedLinkReferences": {}
}