{
  "_format": "hh-sol-artifact-1",
  "contractName": "BkStasher",
  "sourceName": "contracts/features/BkStasher.sol",
  "abi": [
    {
      "anonymous": false,
      "inputs": [
        {
          "indexed": false,
          "internalType": "uint8",
          "name": "version",
          "type": "uint8"
        }
      ],
      "name": "Initialized",
      "type": "event"
    },
    {
      "anonymous": false,
      "inputs": [
        {
          "indexed": false,
          "internalType": "address",
          "name": "account",
          "type": "address"
        },
        {
          "indexed": false,
          "internalType": "uint256",
          "name": "amount",
          "type": "uint256"
        }
      ],
      "name": "Migrated",
      "type": "event"
    },
    {
      "anonymous": false,
      "inputs": [
        {
          "indexed": false,
          "internalType": "address",
          "name": "account",
          "type": "address"
        }
      ],
      "name": "Paused",
      "type": "event"
    },
    {
      "anonymous": false,
      "inputs": [
        {
          "indexed": true,
          "internalType": "bytes32",
          "name": "role",
          "type": "bytes32"
        },
        {
          "indexed": true,
          "internalType": "bytes32",
          "name": "previousAdminRole",
          "type": "bytes32"
        },
        {
          "indexed": true,
          "internalType": "bytes32",
          "name": "newAdminRole",
          "type": "bytes32"
        }
      ],
      "name": "RoleAdminChanged",
      "type": "event"
    },
    {
      "anonymous": false,
      "inputs": [
        {
          "indexed": true,
          "internalType": "bytes32",
          "name": "role",
          "type": "bytes32"
        },
        {
          "indexed": true,
          "internalType": "address",
          "name": "account",
          "type": "address"
        },
        {
          "indexed": true,
          "internalType": "address",
          "name": "sender",
          "type": "address"
        }
      ],
      "name": "RoleGranted",
      "type": "event"
    },
    {
      "anonymous": false,
      "inputs": [
        {
          "indexed": true,
          "internalType": "bytes32",
          "name": "role",
          "type": "bytes32"
        },
        {
          "indexed": true,
          "internalType": "address",
          "name": "account",
          "type": "address"
        },
        {
          "indexed": true,
          "internalType": "address",
          "name": "sender",
          "type": "address"
        }
      ],
      "name": "RoleRevoked",
      "type": "event"
    },
    {
      "anonymous": false,
      "inputs": [
        {
          "indexed": false,
          "internalType": "address",
          "name": "account",
          "type": "address"
        },
        {
          "indexed": false,
          "internalType": "uint256",
          "name": "amount",
          "type": "uint256"
        }
      ],
      "name": "Stashed",
      "type": "event"
    },
    {
      "anonymous": false,
      "inputs": [
        {
          "indexed": false,
          "internalType": "address",
          "name": "account",
          "type": "address"
        }
      ],
      "name": "Unpaused",
      "type": "event"
    },
    {
      "anonymous": false,
      "inputs": [
        {
          "indexed": false,
          "internalType": "address",
          "name": "account",
          "type": "address"
        },
        {
          "indexed": false,
          "internalType": "uint256",
          "name": "amount",
          "type": "uint256"
        }
      ],
      "name": "Unstashed",
      "type": "event"
    },
    {
      "inputs": [],
      "name": "DEFAULT_ADMIN_ROLE",
      "outputs": [
        {
          "internalType": "bytes32",
          "name": "",
          "type": "bytes32"
        }
      ],
      "stateMutability": "view",
      "type": "function"
    },
    {
      "inputs": [
        {
          "internalType": "address",
          "name": "account",
          "type": "address"
        }
      ],
      "name": "balanceAndLevelOf",
      "outputs": [
        {
          "internalType": "uint256",
          "name": "",
          "type": "uint256"
        },
        {
          "internalType": "uint256",
          "name": "",
          "type": "uint256"
        }
      ],
      "stateMutability": "view",
      "type": "function"
    },
    {
      "inputs": [
        {
          "internalType": "address",
          "name": "account",
          "type": "address"
        }
      ],
      "name": "balanceOf",
      "outputs": [
        {
          "internalType": "uint256",
          "name": "",
          "type": "uint256"
        }
      ],
      "stateMutability": "view",
      "type": "function"
    },
    {
      "inputs": [
        {
          "internalType": "address",
          "name": "",
          "type": "address"
        }
      ],
      "name": "balances",
      "outputs": [
        {
          "internalType": "uint256",
          "name": "",
          "type": "uint256"
        }
      ],
      "stateMutability": "view",
      "type": "function"
    },
    {
      "inputs": [],
      "name": "bct",
      "outputs": [
        {
          "internalType": "contract MHIERC20",
          "name": "",
          "type": "address"
        }
      ],
      "stateMutability": "view",
      "type": "function"
    },
    {
      "inputs": [],
      "name": "farm",
      "outputs": [
        {
          "internalType": "contract IMhdaoFarmSimplified",
          "name": "",
          "type": "address"
        }
      ],
      "stateMutability": "view",
      "type": "function"
    },
    {
      "inputs": [
        {
          "internalType": "bytes32",
          "name": "role",
          "type": "bytes32"
        }
      ],
      "name": "getRoleAdmin",
      "outputs": [
        {
          "internalType": "bytes32",
          "name": "",
          "type": "bytes32"
        }
      ],
      "stateMutability": "view",
      "type": "function"
    },
    {
      "inputs": [
        {
          "internalType": "bytes32",
          "name": "role",
          "type": "bytes32"
        },
        {
          "internalType": "address",
          "name": "account",
          "type": "address"
        }
      ],
      "name": "grantRole",
      "outputs": [],
      "stateMutability": "nonpayable",
      "type": "function"
    },
    {
      "inputs": [
        {
          "internalType": "address",
          "name": "",
          "type": "address"
        }
      ],
      "name": "hasMigrated",
      "outputs": [
        {
          "internalType": "bool",
          "name": "",
          "type": "bool"
        }
      ],
      "stateMutability": "view",
      "type": "function"
    },
    {
      "inputs": [
        {
          "internalType": "bytes32",
          "name": "role",
          "type": "bytes32"
        },
        {
          "internalType": "address",
          "name": "account",
          "type": "address"
        }
      ],
      "name": "hasRole",
      "outputs": [
        {
          "internalType": "bool",
          "name": "",
          "type": "bool"
        }
      ],
      "stateMutability": "view",
      "type": "function"
    },
    {
      "inputs": [
        {
          "internalType": "address",
          "name": "_operator",
          "type": "address"
        },
        {
          "internalType": "address",
          "name": "_bct",
          "type": "address"
        },
        {
          "internalType": "address",
          "name": "_mht",
          "type": "address"
        },
        {
          "internalType": "address",
          "name": "_oldStasher",
          "type": "address"
        }
      ],
      "name": "initialize",
      "outputs": [],
      "stateMutability": "nonpayable",
      "type": "function"
    },
    {
      "inputs": [
        {
          "internalType": "address",
          "name": "account",
          "type": "address"
        }
      ],
      "name": "levelOf",
      "outputs": [
        {
          "internalType": "uint256",
          "name": "",
          "type": "uint256"
        }
      ],
      "stateMutability": "view",
      "type": "function"
    },
    {
      "inputs": [
        {
          "internalType": "uint256",
          "name": "",
          "type": "uint256"
        }
      ],
      "name": "levelToAmount",
      "outputs": [
        {
          "internalType": "uint256",
          "name": "",
          "type": "uint256"
        }
      ],
      "stateMutability": "view",
      "type": "function"
    },
    {
      "inputs": [],
      "name": "mht",
      "outputs": [
        {
          "internalType": "contract MHIERC20",
          "name": "",
          "type": "address"
        }
      ],
      "stateMutability": "view",
      "type": "function"
    },
    {
      "inputs": [],
      "name": "mhtMigrator",
      "outputs": [
        {
          "internalType": "address",
          "name": "",
          "type": "address"
        }
      ],
      "stateMutability": "view",
      "type": "function"
    },
    {
      "inputs": [
        {
          "internalType": "address",
          "name": "account",
          "type": "address"
        }
      ],
      "name": "migrateFromMh",
      "outputs": [],
      "stateMutability": "nonpayable",
      "type": "function"
    },
    {
      "inputs": [],
      "name": "oldStasher",
      "outputs": [
        {
          "internalType": "contract IOldStasher",
          "name": "",
          "type": "address"
        }
      ],
      "stateMutability": "view",
      "type": "function"
    },
    {
      "inputs": [],
      "name": "pause",
      "outputs": [],
      "stateMutability": "nonpayable",
      "type": "function"
    },
    {
      "inputs": [],
      "name": "paused",
      "outputs": [
        {
          "internalType": "bool",
          "name": "",
          "type": "bool"
        }
      ],
      "stateMutability": "view",
      "type": "function"
    },
    {
      "inputs": [],
      "name": "playerBonus",
      "outputs": [
        {
          "internalType": "contract IPlayerBonus",
          "name": "",
          "type": "address"
        }
      ],
      "stateMutability": "view",
      "type": "function"
    },
    {
      "inputs": [
        {
          "internalType": "address",
          "name": "_tokenAddress",
          "type": "address"
        },
        {
          "internalType": "uint256",
          "name": "_amount",
          "type": "uint256"
        },
        {
          "internalType": "address",
          "name": "_recipient",
          "type": "address"
        }
      ],
      "name": "recoverERC20",
      "outputs": [],
      "stateMutability": "nonpayable",
      "type": "function"
    },
    {
      "inputs": [
        {
          "internalType": "bytes32",
          "name": "role",
          "type": "bytes32"
        },
        {
          "internalType": "address",
          "name": "account",
          "type": "address"
        }
      ],
      "name": "renounceRole",
      "outputs": [],
      "stateMutability": "nonpayable",
      "type": "function"
    },
    {
      "inputs": [
        {
          "internalType": "bytes32",
          "name": "role",
          "type": "bytes32"
        },
        {
          "internalType": "address",
          "name": "account",
          "type": "address"
        }
      ],
      "name": "revokeRole",
      "outputs": [],
      "stateMutability": "nonpayable",
      "type": "function"
    },
    {
      "inputs": [
        {
          "internalType": "uint256",
          "name": "blocks",
          "type": "uint256"
        }
      ],
      "name": "setCooldownInBlocks",
      "outputs": [],
      "stateMutability": "nonpayable",
      "type": "function"
    },
    {
      "inputs": [
        {
          "internalType": "address",
          "name": "account",
          "type": "address"
        }
      ],
      "name": "setLevelOf",
      "outputs": [],
      "stateMutability": "nonpayable",
      "type": "function"
    },
    {
      "inputs": [
        {
          "components": [
            {
              "internalType": "uint256",
              "name": "amount",
              "type": "uint256"
            },
            {
              "internalType": "uint256",
              "name": "level",
              "type": "uint256"
            }
          ],
          "internalType": "struct BkStasher.LevelSet[]",
          "name": "_levelSet",
          "type": "tuple[]"
        }
      ],
      "name": "setLevels",
      "outputs": [],
      "stateMutability": "nonpayable",
      "type": "function"
    },
    {
      "inputs": [
        {
          "internalType": "uint256",
          "name": "_maxLevel",
          "type": "uint256"
        }
      ],
      "name": "setMaxLevel",
      "outputs": [],
      "stateMutability": "nonpayable",
      "type": "function"
    },
    {
      "inputs": [
        {
          "internalType": "address",
          "name": "_migrator",
          "type": "address"
        }
      ],
      "name": "setMhtMigrator",
      "outputs": [],
      "stateMutability": "nonpayable",
      "type": "function"
    },
    {
      "inputs": [
        {
          "internalType": "address",
          "name": "_playerBonus",
          "type": "address"
        },
        {
          "internalType": "address",
          "name": "_farm",
          "type": "address"
        }
      ],
      "name": "setPlayerBonusAndFarm",
      "outputs": [],
      "stateMutability": "nonpayable",
      "type": "function"
    },
    {
      "inputs": [
        {
          "internalType": "uint256",
          "name": "amount",
          "type": "uint256"
        },
        {
          "internalType": "bool",
          "name": "fromFarm",
          "type": "bool"
        }
      ],
      "name": "stash",
      "outputs": [],
      "stateMutability": "nonpayable",
      "type": "function"
    },
    {
      "inputs": [
        {
          "internalType": "address",
          "name": "",
          "type": "address"
        }
      ],
      "name": "stashedAt",
      "outputs": [
        {
          "internalType": "uint256",
          "name": "",
          "type": "uint256"
        }
      ],
      "stateMutability": "view",
      "type": "function"
    },
    {
      "inputs": [
        {
          "internalType": "bytes4",
          "name": "interfaceId",
          "type": "bytes4"
        }
      ],
      "name": "supportsInterface",
      "outputs": [
        {
          "internalType": "bool",
          "name": "",
          "type": "bool"
        }
      ],
      "stateMutability": "view",
      "type": "function"
    },
    {
      "inputs": [],
      "name": "unpause",
      "outputs": [],
      "stateMutability": "nonpayable",
      "type": "function"
    },
    {
      "inputs": [],
      "name": "unstash",
      "outputs": [],
      "stateMutability": "nonpayable",
      "type": "function"
    },
    {
      "inputs": [
        {
          "internalType": "address",
          "name": "account",
          "type": "address"
        }
      ],
      "name": "unstashFor",
      "outputs": [],
      "stateMutability": "nonpayable",
      "type": "function"
    }
  ],
  "bytecode": "0x608060405234801561001057600080fd5b5061220f806100206000396000f3fe608060405234801561001057600080fd5b50600436106102115760003560e01c806370a0823111610125578063b51609b4116100ad578063d547741f1161007c578063d547741f146104f4578063d7625c8814610507578063e7d6e7ea1461052a578063f8c8765e1461053d578063fc7430a11461055057600080fd5b8063b51609b4146104a8578063bf905101146104bb578063cd5a9aa4146104ce578063ce4a1c7f146104e157600080fd5b806385d4a0d2116100f457806385d4a0d214610447578063893ee7fc1461045a5780638dd468561461047a57806391d148541461048d578063a217fddf146104a057600080fd5b806370a08231146103e357806379db06df1461040c5780637b39b6d81461041f5780638456cb591461043f57600080fd5b80632f2ff15d116101a85780633f4ba83a116101775780633f4ba83a1461038c57806349e12ebd146103945780635c138c9d1461039c5780635c975abb146103c557806362e215ea146103d057600080fd5b80632f2ff15d14610340578063344f1ba51461035357806336568abe1461036657806336e9332d1461037957600080fd5b80631412cd6f116101e45780631412cd6f146102c9578063248a9ca3146102dc5780632622c8111461030d57806327e235e31461032057600080fd5b806301ffc9a7146102165780630a060a831461023e57806312b0631b1461028957806313074be41461029e575b600080fd5b610229610224366004611bb8565b610563565b60405190151581526020015b60405180910390f35b61027461024c366004611bf7565b6001600160a01b0316600090815260d0602090815260408083205460d3909252909120549091565b60408051928352602083019190915201610235565b61029c610297366004611c14565b61059a565b005b60cc546102b1906001600160a01b031681565b6040516001600160a01b039091168152602001610235565b61029c6102d7366004611c97565b610624565b6102ff6102ea366004611cc7565b60009081526097602052604090206001015490565b604051908152602001610235565b60ca546102b1906001600160a01b031681565b6102ff61032e366004611bf7565b60d06020526000908152604090205481565b61029c61034e366004611ce0565b610659565b61029c610361366004611cc7565b610683565b61029c610374366004611ce0565b6106a1565b60ce546102b1906001600160a01b031681565b61029c6106c0565b61029c6106e3565b6102ff6103aa366004611bf7565b6001600160a01b0316600090815260d3602052604090205490565b60335460ff16610229565b61029c6103de366004611bf7565b610751565b6102ff6103f1366004611bf7565b6001600160a01b0316600090815260d0602052604090205490565b61029c61041a366004611bf7565b61078c565b6102ff61042d366004611bf7565b60cf6020526000908152604090205481565b61029c61085d565b61029c610455366004611cc7565b61087d565b6102ff610468366004611cc7565b60d16020526000908152604090205481565b61029c610488366004611d05565b61089b565b61022961049b366004611ce0565b6108e2565b6102ff600081565b61029c6104b6366004611d33565b61090d565b61029c6104c9366004611bf7565b6109ae565b60cd546102b1906001600160a01b031681565b60c9546102b1906001600160a01b031681565b61029c610502366004611ce0565b6110a0565b610229610515366004611bf7565b60d26020526000908152604090205460ff1681565b60cb546102b1906001600160a01b031681565b61029c61054b366004611d75565b6110c5565b61029c61055e366004611bf7565b61121a565b60006001600160e01b03198216637965db0b60e01b148061059457506301ffc9a760e01b6001600160e01b03198316145b92915050565b6000805160206121ba8339815191526105b281611243565b60005b8281101561061e578383828181106105cf576105cf611dd1565b9050604002016000013560d160008686858181106105ef576105ef611dd1565b90506040020160200135815260200190815260200160002081905550808061061690611dfd565b9150506105b5565b50505050565b61062c61124d565b80156106415761063c338361125d565b61064b565b61064b338361133f565b6106553383611373565b5050565b60008281526097602052604090206001015461067481611243565b61067e83836114db565b505050565b6000805160206121ba83398151915261069b81611243565b5060d455565b6001600160a01b03811633146106b657600080fd5b6106558282611561565b6000805160206121ba8339815191526106d881611243565b6106e06115c8565b50565b6106eb61124d565b60d55433600090815260cf60205260409020546107089043611e18565b10156107465760405162461bcd60e51b815260206004820152600860248201526721a7a7a62227aba760c11b60448201526064015b60405180910390fd5b61074f3361161a565b565b6000805160206121ba83398151915261076981611243565b5060cb80546001600160a01b0319166001600160a01b0392909216919091179055565b7fb41c81a20ee1317ccb9b438d7e5d59d66d5a6ec10e50c28bfec0bae0f14bf527546001600160a01b038216600090815260d0602052604090205410156107e7576001600160a01b0316600090815260d36020526040812055565b600060015b60d454811161084057600081815260d160209081526040808320546001600160a01b038716845260d090925290912054106108295780915061082e565b610840565b8061083881611dfd565b9150506107ec565b506001600160a01b03909116600090815260d36020526040902055565b6000805160206121ba83398151915261087581611243565b6106e06117c4565b6000805160206121ba83398151915261089581611243565b5060d555565b6000805160206121ba8339815191526108b381611243565b5060cc80546001600160a01b039384166001600160a01b03199182161790915560ce8054929093169116179055565b60009182526097602090815260408084206001600160a01b0393909316845291905290205460ff1690565b6000805160206121ba83398151915261092581611243565b60405163a9059cbb60e01b81526001600160a01b0383811660048301526024820185905285169063a9059cbb90604401602060405180830381600087803b15801561096f57600080fd5b505af1158015610983573d6000803e3d6000fd5b505050506040513d601f19601f820116820180604052508101906109a79190611e2f565b5050505050565b6001600160a01b038116600090815260d2602052604090205460ff1615610a0a5760405162461bcd60e51b815260206004820152601060248201526f1053149150511657d35251d49055115160821b604482015260640161073d565b336001600160a01b0382161480610a2b575060cd546001600160a01b031633145b610a635760405162461bcd60e51b81526020600482015260096024820152682737ba1027bbb732b960b91b604482015260640161073d565b60cd546040516370a0823160e01b81523360048201526000916001600160a01b0316906370a082319060240160206040518083038186803b158015610aa757600080fd5b505afa158015610abb573d6000803e3d6000fd5b505050506040513d601f19601f82011682018060405250810190610adf9190611e4c565b905060008111610b1e5760405162461bcd60e51b815260206004820152600a6024820152694e4f5f42414c414e434560b01b604482015260640161073d565b6001600160a01b03828116600090815260d26020526040808220805460ff1916600117905560cd5490516334b7a3c160e11b81523360048201529192169063696f47829060240160006040518083038186803b158015610b7d57600080fd5b505afa158015610b91573d6000803e3d6000fd5b505050506040513d6000823e601f3d908101601f19168201604052610bb99190810190611ed5565b905060005b8151811015610c8f576000828281518110610bdb57610bdb611dd1565b6020026020010151600001511115610c7d5760cd5482516001600160a01b0390911690635713216a90849084908110610c1657610c16611dd1565b60200260200101516000015160006040518363ffffffff1660e01b8152600401610c4a929190918252602082015260400190565b600060405180830381600087803b158015610c6457600080fd5b505af1158015610c78573d6000803e3d6000fd5b505050505b80610c8781611dfd565b915050610bbe565b5060ca546040516323b872dd60e01b81526001600160a01b03909116906323b872dd90610cc490339030908790600401611fc6565b600060405180830381600087803b158015610cde57600080fd5b505af1158015610cf2573d6000803e3d6000fd5b505060ca54604051630852cd8d60e31b8152600481018690526001600160a01b0390911692506342966c689150602401600060405180830381600087803b158015610d3c57600080fd5b505af1158015610d50573d6000803e3d6000fd5b505060c95460cb546040516323b872dd60e01b81526001600160a01b0392831694506323b872dd9350610d8d929091169030908790600401611fc6565b600060405180830381600087803b158015610da757600080fd5b505af1158015610dbb573d6000803e3d6000fd5b50505050610dc98383611801565b600069021e19e0c9bab2400000831115610dee575069021e19e0c9bab2400000610df1565b50815b604080516011808252610240820190925260009160208201610220803683370190505090506000670de0b6b3a7640000610e2c600585611fea565b610e369190611fea565b90508082600a81518110610e4c57610e4c611dd1565b60200260200101818151610e60919061200c565b905250815181908390600b908110610e7a57610e7a611dd1565b60200260200101818151610e8e919061200c565b905250815181908390600e908110610ea857610ea8611dd1565b60209081029190910101526000670de0b6b3a7640000610ec9600a86611fea565b610ed39190611fea565b90508083600a81518110610ee957610ee9611dd1565b60200260200101818151610efd919061200c565b905250825181908490600b908110610f1757610f17611dd1565b60200260200101818151610f2b919061200c565b905250825181908490600f908110610f4557610f45611dd1565b60209081029190910101526000670de0b6b3a7640000610f66601987611fea565b610f709190611fea565b90508084600881518110610f8657610f86611dd1565b60200260200101818151610f9a919061200c565b905250835181908590600b908110610fb457610fb4611dd1565b60200260200101818151610fc8919061200c565b9052508351819085906010908110610fe257610fe2611dd1565b602090810291909101015260ce546040516304567ca960e11b81526001600160a01b03909116906308acf95290611021908b9089908990600401612024565b600060405180830381600087803b15801561103b57600080fd5b505af115801561104f573d6000803e3d6000fd5b5050604080516001600160a01b038c168152602081018b90527f8b80bd19aea7b735bc6d75db8d6adbe18b28c30d62b3555245eb67b2340caedc935001905060405180910390a15050505050505050565b6000828152609760205260409020600101546110bb81611243565b61067e8383611561565b600054610100900460ff16158080156110e55750600054600160ff909116105b806110ff5750303b1580156110ff575060005460ff166001145b61112f5760405162461bcd60e51b81526020600482015260016024820152603760f91b604482015260640161073d565b6000805460ff191660011790558015611152576000805461ff0019166101001790555b61115a611941565b611162611955565b60c980546001600160a01b038087166001600160a01b03199283161790925560ca805486841690831617905560cd805492851692909116919091179055600a60d455624f1a0060d5556111b6600086611971565b6111ce6000805160206121ba83398151915286611971565b80156109a7576000805461ff0019169055604051600181527f7f26b83ff96e1f2b6a682f133852f6798a09c465da95921460cefb38474024989060200160405180910390a15050505050565b6000805160206121ba83398151915261123281611243565b61123a61124d565b6106558261161a565b6106e0813361197b565b60335460ff161561074f57600080fd5b60ce54604051631e59b34d60e11b81526001600160a01b038481166004830152602482018490526000604483015290911690633cb3669a90606401600060405180830381600087803b1580156112b257600080fd5b505af11580156112c6573d6000803e3d6000fd5b505060c95460ce546040516323b872dd60e01b81526001600160a01b0392831694506323b872dd9350611303929091169030908690600401611fc6565b600060405180830381600087803b15801561131d57600080fd5b505af1158015611331573d6000803e3d6000fd5b505050506106558282611801565b60c9546040516323b872dd60e01b81526001600160a01b03909116906323b872dd9061130390859030908690600401611fc6565b60ce546040516359f827ad60e01b81526001600160a01b03848116600483015260009216906359f827ad90602401604080518083038186803b1580156113b857600080fd5b505afa1580156113cc573d6000803e3d6000fd5b505050506040513d601f19601f820116820180604052508101906113f09190612081565b915060009050601961140283856120af565b61140c9190611fea565b60408051600180825281830190925291925060009190602080830190803683370190505090506005611446670de0b6b3a764000086611fea565b6114509190611fea565b8160008151811061146357611463611dd1565b602090810291909101015260ce546040516304567ca960e11b81526001600160a01b03909116906308acf952906114a290889086908690600401612024565b600060405180830381600087803b1580156114bc57600080fd5b505af11580156114d0573d6000803e3d6000fd5b505050505050505050565b6114e582826108e2565b6106555760008281526097602090815260408083206001600160a01b03851684529091529020805460ff1916600117905561151d3390565b6001600160a01b0316816001600160a01b0316837f2f8788117e7eff1d82e926ec794901d17c78024a50270940304540a733656f0d60405160405180910390a45050565b61156b82826108e2565b156106555760008281526097602090815260408083206001600160a01b0385168085529252808320805460ff1916905551339285917ff6391f5c32d9c69d2a47ea670b442974b53935d1edc7fd64eb21e047a839171b9190a45050565b6115d06119d4565b6033805460ff191690557f5db9ee0a495bf2e6ff9c91a7834c1ba4fdd244a5e8aa4e537bd38aeae4b073aa335b6040516001600160a01b03909116815260200160405180910390a1565b6001600160a01b038116600090815260d0602052604090205461166c5760405162461bcd60e51b815260206004820152600a6024820152694e4f5f42414c414e434560b01b604482015260640161073d565b6001600160a01b03818116600081815260d06020908152604080832080549084905560d390925280832083905560cc549051631ec1e36f60e11b815260048101949094526024840192909252921690633d83c6de90604401600060405180830381600087803b1580156116de57600080fd5b505af11580156116f2573d6000803e3d6000fd5b505060c95460405163a9059cbb60e01b81526001600160a01b03868116600483015260248201869052909116925063a9059cbb9150604401602060405180830381600087803b15801561174457600080fd5b505af1158015611758573d6000803e3d6000fd5b505050506040513d601f19601f8201168201806040525081019061177c9190611e2f565b50604080516001600160a01b0384168152602081018390527f6ff2a444c4353cfe4d3d0d77371942824d799f9d5256f9beb4979096362ecda891015b60405180910390a15050565b6117cc61124d565b6033805460ff191660011790557f62e78cea01bee320cd4e420270b5ea74000d11b0c9f74754ebdbfc544b05a2586115fd3390565b6000811161183a5760405162461bcd60e51b815260040161073d906020808252600490820152637a65726f60e01b604082015260600190565b6001600160a01b038216600090815260d060205260408120805483929061186290849061200c565b90915550506001600160a01b038216600090815260cf6020526040902043905561188b8261078c565b60cc546001600160a01b03838116600081815260d3602052604090819020549051631ec1e36f60e11b815260048101929092526024820152911690633d83c6de90604401600060405180830381600087803b1580156118e957600080fd5b505af11580156118fd573d6000803e3d6000fd5b5050604080516001600160a01b0386168152602081018590527f3c54659ea5ff21964d07447ffa8cd103abb28ac25fe4af22bd7536d60ecfab3293500190506117b8565b600054610100900460ff1661074f57600080fd5b600054610100900460ff1661196957600080fd5b61074f6119e3565b61065582826114db565b61198582826108e2565b6106555761199281611a03565b61199d836020611a15565b6040516020016119ae9291906120fa565b60408051601f198184030181529082905262461bcd60e51b825261073d9160040161216f565b60335460ff1661074f57600080fd5b600054610100900460ff166119f757600080fd5b6033805460ff19169055565b60606105946001600160a01b03831660145b60606000611a248360026120af565b611a2f90600261200c565b67ffffffffffffffff811115611a4757611a47611e65565b6040519080825280601f01601f191660200182016040528015611a71576020820181803683370190505b509050600360fc1b81600081518110611a8c57611a8c611dd1565b60200101906001600160f81b031916908160001a905350600f60fb1b81600181518110611abb57611abb611dd1565b60200101906001600160f81b031916908160001a9053506000611adf8460026120af565b611aea90600161200c565b90505b6001811115611b62576f181899199a1a9b1b9c1cb0b131b232b360811b85600f1660108110611b1e57611b1e611dd1565b1a60f81b828281518110611b3457611b34611dd1565b60200101906001600160f81b031916908160001a90535060049490941c93611b5b816121a2565b9050611aed565b508315611bb15760405162461bcd60e51b815260206004820181905260248201527f537472696e67733a20686578206c656e67746820696e73756666696369656e74604482015260640161073d565b9392505050565b600060208284031215611bca57600080fd5b81356001600160e01b031981168114611bb157600080fd5b6001600160a01b03811681146106e057600080fd5b600060208284031215611c0957600080fd5b8135611bb181611be2565b60008060208385031215611c2757600080fd5b823567ffffffffffffffff80821115611c3f57600080fd5b818501915085601f830112611c5357600080fd5b813581811115611c6257600080fd5b8660208260061b8501011115611c7757600080fd5b60209290920196919550909350505050565b80151581146106e057600080fd5b60008060408385031215611caa57600080fd5b823591506020830135611cbc81611c89565b809150509250929050565b600060208284031215611cd957600080fd5b5035919050565b60008060408385031215611cf357600080fd5b823591506020830135611cbc81611be2565b60008060408385031215611d1857600080fd5b8235611d2381611be2565b91506020830135611cbc81611be2565b600080600060608486031215611d4857600080fd5b8335611d5381611be2565b9250602084013591506040840135611d6a81611be2565b809150509250925092565b60008060008060808587031215611d8b57600080fd5b8435611d9681611be2565b93506020850135611da681611be2565b92506040850135611db681611be2565b91506060850135611dc681611be2565b939692955090935050565b634e487b7160e01b600052603260045260246000fd5b634e487b7160e01b600052601160045260246000fd5b6000600019821415611e1157611e11611de7565b5060010190565b600082821015611e2a57611e2a611de7565b500390565b600060208284031215611e4157600080fd5b8151611bb181611c89565b600060208284031215611e5e57600080fd5b5051919050565b634e487b7160e01b600052604160045260246000fd5b60405160a0810167ffffffffffffffff81118282101715611e9e57611e9e611e65565b60405290565b604051601f8201601f1916810167ffffffffffffffff81118282101715611ecd57611ecd611e65565b604052919050565b60006020808385031215611ee857600080fd5b825167ffffffffffffffff80821115611f0057600080fd5b818501915085601f830112611f1457600080fd5b815181811115611f2657611f26611e65565b611f34848260051b01611ea4565b818152848101925060a0918202840185019188831115611f5357600080fd5b938501935b82851015611fba5780858a031215611f705760008081fd5b611f78611e7b565b8551815286860151611f8981611be2565b8188015260408681015190820152606080870151908201526080808701519082015284529384019392850192611f58565b50979650505050505050565b6001600160a01b039384168152919092166020820152604081019190915260600190565b60008261200757634e487b7160e01b600052601260045260246000fd5b500490565b6000821982111561201f5761201f611de7565b500190565b6001600160a01b038416815260208082018490526060604083018190528351908301819052600091848101916080850190845b8181101561207357845183529383019391830191600101612057565b509098975050505050505050565b6000806040838503121561209457600080fd5b825161209f81611be2565b6020939093015192949293505050565b60008160001904831182151516156120c9576120c9611de7565b500290565b60005b838110156120e95781810151838201526020016120d1565b8381111561061e5750506000910152565b7f416363657373436f6e74726f6c3a206163636f756e74200000000000000000008152600083516121328160178501602088016120ce565b7001034b99036b4b9b9b4b733903937b6329607d1b60179184019182015283516121638160288401602088016120ce565b01602801949350505050565b602081526000825180602084015261218e8160408501602087016120ce565b601f01601f19169190910160400192915050565b6000816121b1576121b1611de7565b50600019019056fe97667070c54ef182b0f5858b034beac1b6f3089aa2d3188bb1e8929f4fa9b929a2646970667358221220db587aa78dbf8c6fd834fa35ca38b301a96f637a5ee8f902259955ef1154a3de64736f6c63430008090033",
  "linkReferences": {},
  "deployedLinkReferences": {}
}