{
  "_format": "hh-sol-artifact-1",
  "contractName": "BkBalancesV7",
  "sourceName": "contracts/features/BkBalancesV7.sol",
  "abi": [
    {
      "anonymous": false,
      "inputs": [
        {
          "indexed": false,
          "internalType": "uint8",
          "name": "version",
          "type": "uint8"
        }
      ],
      "name": "Initialized",
      "type": "event"
    },
    {
      "anonymous": false,
      "inputs": [
        {
          "indexed": false,
          "internalType": "address",
          "name": "account",
          "type": "address"
        }
      ],
      "name": "Paused",
      "type": "event"
    },
    {
      "anonymous": false,
      "inputs": [
        {
          "indexed": true,
          "internalType": "bytes32",
          "name": "role",
          "type": "bytes32"
        },
        {
          "indexed": true,
          "internalType": "bytes32",
          "name": "previousAdminRole",
          "type": "bytes32"
        },
        {
          "indexed": true,
          "internalType": "bytes32",
          "name": "newAdminRole",
          "type": "bytes32"
        }
      ],
      "name": "RoleAdminChanged",
      "type": "event"
    },
    {
      "anonymous": false,
      "inputs": [
        {
          "indexed": true,
          "internalType": "bytes32",
          "name": "role",
          "type": "bytes32"
        },
        {
          "indexed": true,
          "internalType": "address",
          "name": "account",
          "type": "address"
        },
        {
          "indexed": true,
          "internalType": "address",
          "name": "sender",
          "type": "address"
        }
      ],
      "name": "RoleGranted",
      "type": "event"
    },
    {
      "anonymous": false,
      "inputs": [
        {
          "indexed": true,
          "internalType": "bytes32",
          "name": "role",
          "type": "bytes32"
        },
        {
          "indexed": true,
          "internalType": "address",
          "name": "account",
          "type": "address"
        },
        {
          "indexed": true,
          "internalType": "address",
          "name": "sender",
          "type": "address"
        }
      ],
      "name": "RoleRevoked",
      "type": "event"
    },
    {
      "anonymous": false,
      "inputs": [
        {
          "indexed": false,
          "internalType": "address",
          "name": "account",
          "type": "address"
        }
      ],
      "name": "Unpaused",
      "type": "event"
    },
    {
      "inputs": [],
      "name": "DEFAULT_ADMIN_ROLE",
      "outputs": [
        {
          "internalType": "bytes32",
          "name": "",
          "type": "bytes32"
        }
      ],
      "stateMutability": "view",
      "type": "function"
    },
    {
      "inputs": [
        {
          "internalType": "address",
          "name": "account",
          "type": "address"
        }
      ],
      "name": "balancesOf",
      "outputs": [
        {
          "components": [
            {
              "internalType": "uint256",
              "name": "bct",
              "type": "uint256"
            },
            {
              "internalType": "uint256",
              "name": "eBct",
              "type": "uint256"
            },
            {
              "internalType": "uint256[]",
              "name": "resources",
              "type": "uint256[]"
            }
          ],
          "internalType": "struct BkBalancesV7.InGameBalances",
          "name": "",
          "type": "tuple"
        },
        {
          "components": [
            {
              "internalType": "uint256",
              "name": "bct",
              "type": "uint256"
            },
            {
              "internalType": "uint256",
              "name": "busd",
              "type": "uint256"
            },
            {
              "internalType": "uint256[]",
              "name": "resources",
              "type": "uint256[]"
            }
          ],
          "internalType": "struct BkBalancesV7.MetamaskBalances",
          "name": "",
          "type": "tuple"
        }
      ],
      "stateMutability": "view",
      "type": "function"
    },
    {
      "inputs": [],
      "name": "contracts",
      "outputs": [
        {
          "internalType": "contract MHIERC20",
          "name": "bct",
          "type": "address"
        },
        {
          "internalType": "contract MHIERC20",
          "name": "busd",
          "type": "address"
        },
        {
          "internalType": "contract IStasherForBalances",
          "name": "stasher",
          "type": "address"
        },
        {
          "internalType": "contract ICommunityPool",
          "name": "pool",
          "type": "address"
        },
        {
          "internalType": "contract IMhdaoFarmForBalances",
          "name": "farm",
          "type": "address"
        },
        {
          "internalType": "contract IMhdaoNftForBalances",
          "name": "nft",
          "type": "address"
        },
        {
          "internalType": "contract IPlayerBonusForBalances",
          "name": "playerBonus",
          "type": "address"
        },
        {
          "internalType": "contract IMhdaoDnaManager",
          "name": "dnaManager",
          "type": "address"
        }
      ],
      "stateMutability": "view",
      "type": "function"
    },
    {
      "inputs": [
        {
          "internalType": "uint256[]",
          "name": "nftIds",
          "type": "uint256[]"
        }
      ],
      "name": "getBeasts",
      "outputs": [
        {
          "components": [
            {
              "internalType": "uint256",
              "name": "id",
              "type": "uint256"
            },
            {
              "internalType": "string",
              "name": "name",
              "type": "string"
            },
            {
              "internalType": "string",
              "name": "imageUrl",
              "type": "string"
            },
            {
              "internalType": "address",
              "name": "owner",
              "type": "address"
            },
            {
              "internalType": "uint256",
              "name": "type_",
              "type": "uint256"
            },
            {
              "internalType": "uint256",
              "name": "rarity",
              "type": "uint256"
            },
            {
              "internalType": "uint256[]",
              "name": "traits",
              "type": "uint256[]"
            },
            {
              "internalType": "uint256[]",
              "name": "skills",
              "type": "uint256[]"
            },
            {
              "internalType": "uint256",
              "name": "baseFarm",
              "type": "uint256"
            },
            {
              "internalType": "uint256",
              "name": "agility",
              "type": "uint256"
            },
            {
              "internalType": "uint256",
              "name": "rank",
              "type": "uint256"
            },
            {
              "internalType": "uint256",
              "name": "farmPerBlock",
              "type": "uint256"
            },
            {
              "internalType": "uint256",
              "name": "squadId",
              "type": "uint256"
            },
            {
              "internalType": "uint256",
              "name": "collection",
              "type": "uint256"
            }
          ],
          "internalType": "struct IMhdaoNftForBalancesV6.NftCharacter[]",
          "name": "nfts",
          "type": "tuple[]"
        },
        {
          "internalType": "uint256[]",
          "name": "nutsPerNft",
          "type": "uint256[]"
        },
        {
          "internalType": "uint256[]",
          "name": "evosPerNft",
          "type": "uint256[]"
        },
        {
          "internalType": "uint256[]",
          "name": "areDead",
          "type": "uint256[]"
        }
      ],
      "stateMutability": "view",
      "type": "function"
    },
    {
      "inputs": [],
      "name": "getContracts",
      "outputs": [
        {
          "components": [
            {
              "internalType": "contract MHIERC20",
              "name": "bct",
              "type": "address"
            },
            {
              "internalType": "contract MHIERC20",
              "name": "busd",
              "type": "address"
            },
            {
              "internalType": "contract IStasherForBalances",
              "name": "stasher",
              "type": "address"
            },
            {
              "internalType": "contract ICommunityPool",
              "name": "pool",
              "type": "address"
            },
            {
              "internalType": "contract IMhdaoFarmForBalances",
              "name": "farm",
              "type": "address"
            },
            {
              "internalType": "contract IMhdaoNftForBalances",
              "name": "nft",
              "type": "address"
            },
            {
              "internalType": "contract IPlayerBonusForBalances",
              "name": "playerBonus",
              "type": "address"
            },
            {
              "internalType": "contract IMhdaoDnaManager",
              "name": "dnaManager",
              "type": "address"
            }
          ],
          "internalType": "struct BkBalancesV7.Contracts",
          "name": "",
          "type": "tuple"
        }
      ],
      "stateMutability": "view",
      "type": "function"
    },
    {
      "inputs": [
        {
          "internalType": "address",
          "name": "account",
          "type": "address"
        }
      ],
      "name": "getEverything",
      "outputs": [
        {
          "components": [
            {
              "internalType": "uint256",
              "name": "bctToClaim",
              "type": "uint256"
            },
            {
              "internalType": "uint256",
              "name": "etherealBct",
              "type": "uint256"
            },
            {
              "internalType": "uint256",
              "name": "lastWithdrawalBlock",
              "type": "uint256"
            },
            {
              "internalType": "uint256",
              "name": "registeredAt",
              "type": "uint256"
            },
            {
              "internalType": "address",
              "name": "mentor",
              "type": "address"
            },
            {
              "internalType": "uint256",
              "name": "mentorLevel",
              "type": "uint256"
            },
            {
              "internalType": "uint256",
              "name": "merchantLevel",
              "type": "uint256"
            },
            {
              "internalType": "uint256[]",
              "name": "squads",
              "type": "uint256[]"
            }
          ],
          "internalType": "struct IMhdaoPlayer.Player",
          "name": "player",
          "type": "tuple"
        },
        {
          "components": [
            {
              "internalType": "address",
              "name": "owner",
              "type": "address"
            },
            {
              "internalType": "uint256",
              "name": "type_",
              "type": "uint256"
            },
            {
              "internalType": "uint256",
              "name": "size",
              "type": "uint256"
            },
            {
              "internalType": "uint256",
              "name": "baseFarmPerBlock",
              "type": "uint256"
            },
            {
              "internalType": "uint256",
              "name": "synergyBonus",
              "type": "uint256"
            },
            {
              "internalType": "uint256",
              "name": "squadBonus",
              "type": "uint256"
            },
            {
              "internalType": "uint256",
              "name": "squadTrait",
              "type": "uint256"
            },
            {
              "internalType": "uint256",
              "name": "farmPerBlock",
              "type": "uint256"
            },
            {
              "internalType": "uint256",
              "name": "currentQuest",
              "type": "uint256"
            },
            {
              "internalType": "uint256",
              "name": "questStartedAt",
              "type": "uint256"
            },
            {
              "internalType": "uint256",
              "name": "questEndsAt",
              "type": "uint256"
            },
            {
              "internalType": "uint256[]",
              "name": "nftIds",
              "type": "uint256[]"
            },
            {
              "internalType": "uint256[]",
              "name": "traits",
              "type": "uint256[]"
            },
            {
              "internalType": "uint256[]",
              "name": "collections",
              "type": "uint256[]"
            }
          ],
          "internalType": "struct IMhdaoSquad.Squad[]",
          "name": "squads",
          "type": "tuple[]"
        },
        {
          "components": [
            {
              "internalType": "uint256",
              "name": "id",
              "type": "uint256"
            },
            {
              "internalType": "string",
              "name": "name",
              "type": "string"
            },
            {
              "internalType": "string",
              "name": "imageUrl",
              "type": "string"
            },
            {
              "internalType": "address",
              "name": "owner",
              "type": "address"
            },
            {
              "internalType": "uint256",
              "name": "type_",
              "type": "uint256"
            },
            {
              "internalType": "uint256",
              "name": "rarity",
              "type": "uint256"
            },
            {
              "internalType": "uint256[]",
              "name": "traits",
              "type": "uint256[]"
            },
            {
              "internalType": "uint256[]",
              "name": "skills",
              "type": "uint256[]"
            },
            {
              "internalType": "uint256",
              "name": "baseFarm",
              "type": "uint256"
            },
            {
              "internalType": "uint256",
              "name": "agility",
              "type": "uint256"
            },
            {
              "internalType": "uint256",
              "name": "rank",
              "type": "uint256"
            },
            {
              "internalType": "uint256",
              "name": "farmPerBlock",
              "type": "uint256"
            },
            {
              "internalType": "uint256",
              "name": "squadId",
              "type": "uint256"
            },
            {
              "internalType": "uint256",
              "name": "collection",
              "type": "uint256"
            }
          ],
          "internalType": "struct IMhdaoNftForBalances.NftCharacter[]",
          "name": "nfts",
          "type": "tuple[]"
        },
        {
          "internalType": "uint256[]",
          "name": "nutsPerNft",
          "type": "uint256[]"
        },
        {
          "internalType": "uint256[]",
          "name": "evosPerNft",
          "type": "uint256[]"
        },
        {
          "components": [
            {
              "internalType": "uint256",
              "name": "bct",
              "type": "uint256"
            },
            {
              "internalType": "uint256",
              "name": "eBct",
              "type": "uint256"
            },
            {
              "internalType": "uint256[]",
              "name": "resources",
              "type": "uint256[]"
            }
          ],
          "internalType": "struct BkBalancesV7.InGameBalances",
          "name": "ingameBalances",
          "type": "tuple"
        },
        {
          "components": [
            {
              "internalType": "uint256",
              "name": "bct",
              "type": "uint256"
            },
            {
              "internalType": "uint256",
              "name": "busd",
              "type": "uint256"
            },
            {
              "internalType": "uint256[]",
              "name": "resources",
              "type": "uint256[]"
            }
          ],
          "internalType": "struct BkBalancesV7.MetamaskBalances",
          "name": "metamaskBalances",
          "type": "tuple"
        },
        {
          "internalType": "uint256",
          "name": "stasherBalance",
          "type": "uint256"
        },
        {
          "components": [
            {
              "internalType": "uint256",
              "name": "stash",
              "type": "uint256"
            },
            {
              "internalType": "uint256",
              "name": "mythicMints",
              "type": "uint256"
            },
            {
              "internalType": "uint256",
              "name": "item",
              "type": "uint256"
            },
            {
              "internalType": "uint256",
              "name": "special",
              "type": "uint256"
            },
            {
              "internalType": "uint256",
              "name": "fortuneLevel",
              "type": "uint256"
            },
            {
              "internalType": "uint256",
              "name": "total",
              "type": "uint256"
            }
          ],
          "internalType": "struct IPlayerBonusForBalances.Player",
          "name": "playerBonus",
          "type": "tuple"
        },
        {
          "internalType": "uint256",
          "name": "scale",
          "type": "uint256"
        }
      ],
      "stateMutability": "view",
      "type": "function"
    },
    {
      "inputs": [
        {
          "internalType": "address",
          "name": "account",
          "type": "address"
        }
      ],
      "name": "getEverythingLight2",
      "outputs": [
        {
          "components": [
            {
              "internalType": "uint256",
              "name": "bctToClaim",
              "type": "uint256"
            },
            {
              "internalType": "uint256",
              "name": "etherealBct",
              "type": "uint256"
            },
            {
              "internalType": "uint256",
              "name": "lastWithdrawalBlock",
              "type": "uint256"
            },
            {
              "internalType": "uint256",
              "name": "registeredAt",
              "type": "uint256"
            },
            {
              "internalType": "address",
              "name": "mentor",
              "type": "address"
            },
            {
              "internalType": "uint256",
              "name": "mentorLevel",
              "type": "uint256"
            },
            {
              "internalType": "uint256",
              "name": "merchantLevel",
              "type": "uint256"
            },
            {
              "internalType": "uint256[]",
              "name": "squads",
              "type": "uint256[]"
            }
          ],
          "internalType": "struct IMhdaoPlayer.Player",
          "name": "player",
          "type": "tuple"
        },
        {
          "components": [
            {
              "internalType": "address",
              "name": "owner",
              "type": "address"
            },
            {
              "internalType": "uint256",
              "name": "type_",
              "type": "uint256"
            },
            {
              "internalType": "uint256",
              "name": "size",
              "type": "uint256"
            },
            {
              "internalType": "uint256",
              "name": "baseFarmPerBlock",
              "type": "uint256"
            },
            {
              "internalType": "uint256",
              "name": "synergyBonus",
              "type": "uint256"
            },
            {
              "internalType": "uint256",
              "name": "squadBonus",
              "type": "uint256"
            },
            {
              "internalType": "uint256",
              "name": "squadTrait",
              "type": "uint256"
            },
            {
              "internalType": "uint256",
              "name": "farmPerBlock",
              "type": "uint256"
            },
            {
              "internalType": "uint256",
              "name": "currentQuest",
              "type": "uint256"
            },
            {
              "internalType": "uint256",
              "name": "questStartedAt",
              "type": "uint256"
            },
            {
              "internalType": "uint256",
              "name": "questEndsAt",
              "type": "uint256"
            },
            {
              "internalType": "uint256[]",
              "name": "nftIds",
              "type": "uint256[]"
            },
            {
              "internalType": "uint256[]",
              "name": "traits",
              "type": "uint256[]"
            },
            {
              "internalType": "uint256[]",
              "name": "collections",
              "type": "uint256[]"
            }
          ],
          "internalType": "struct IMhdaoSquad.Squad[]",
          "name": "squads",
          "type": "tuple[]"
        },
        {
          "components": [
            {
              "internalType": "uint256",
              "name": "id",
              "type": "uint256"
            },
            {
              "internalType": "string",
              "name": "name",
              "type": "string"
            },
            {
              "internalType": "string",
              "name": "imageUrl",
              "type": "string"
            },
            {
              "internalType": "address",
              "name": "owner",
              "type": "address"
            },
            {
              "internalType": "uint256",
              "name": "type_",
              "type": "uint256"
            },
            {
              "internalType": "uint256",
              "name": "rarity",
              "type": "uint256"
            },
            {
              "internalType": "uint256[]",
              "name": "traits",
              "type": "uint256[]"
            },
            {
              "internalType": "uint256[]",
              "name": "skills",
              "type": "uint256[]"
            },
            {
              "internalType": "uint256",
              "name": "baseFarm",
              "type": "uint256"
            },
            {
              "internalType": "uint256",
              "name": "agility",
              "type": "uint256"
            },
            {
              "internalType": "uint256",
              "name": "rank",
              "type": "uint256"
            },
            {
              "internalType": "uint256",
              "name": "farmPerBlock",
              "type": "uint256"
            },
            {
              "internalType": "uint256",
              "name": "squadId",
              "type": "uint256"
            },
            {
              "internalType": "uint256",
              "name": "collection",
              "type": "uint256"
            }
          ],
          "internalType": "struct IMhdaoNftForBalances.NftCharacter[]",
          "name": "nfts",
          "type": "tuple[]"
        },
        {
          "internalType": "uint256[]",
          "name": "nutsPerNft",
          "type": "uint256[]"
        },
        {
          "internalType": "uint256[]",
          "name": "evosPerNft",
          "type": "uint256[]"
        },
        {
          "components": [
            {
              "internalType": "uint256",
              "name": "bct",
              "type": "uint256"
            },
            {
              "internalType": "uint256",
              "name": "eBct",
              "type": "uint256"
            },
            {
              "internalType": "uint256[]",
              "name": "resources",
              "type": "uint256[]"
            }
          ],
          "internalType": "struct BkBalancesV7.InGameBalances",
          "name": "ingameBalances",
          "type": "tuple"
        },
        {
          "internalType": "uint256",
          "name": "stasherBalance",
          "type": "uint256"
        },
        {
          "components": [
            {
              "internalType": "uint256",
              "name": "stash",
              "type": "uint256"
            },
            {
              "internalType": "uint256",
              "name": "mythicMints",
              "type": "uint256"
            },
            {
              "internalType": "uint256",
              "name": "item",
              "type": "uint256"
            },
            {
              "internalType": "uint256",
              "name": "special",
              "type": "uint256"
            },
            {
              "internalType": "uint256",
              "name": "fortuneLevel",
              "type": "uint256"
            },
            {
              "internalType": "uint256",
              "name": "total",
              "type": "uint256"
            }
          ],
          "internalType": "struct IBkPlayerBonusForBalancesV3.Player",
          "name": "playerBonus",
          "type": "tuple"
        },
        {
          "internalType": "uint256[]",
          "name": "masteries",
          "type": "uint256[]"
        },
        {
          "internalType": "uint256",
          "name": "bctMetamaskBalance",
          "type": "uint256"
        },
        {
          "internalType": "uint256",
          "name": "busdBalance",
          "type": "uint256"
        }
      ],
      "stateMutability": "view",
      "type": "function"
    },
    {
      "inputs": [
        {
          "internalType": "address",
          "name": "account",
          "type": "address"
        }
      ],
      "name": "getPlayerNfts",
      "outputs": [
        {
          "components": [
            {
              "internalType": "uint256",
              "name": "id",
              "type": "uint256"
            },
            {
              "internalType": "string",
              "name": "name",
              "type": "string"
            },
            {
              "internalType": "string",
              "name": "imageUrl",
              "type": "string"
            },
            {
              "internalType": "address",
              "name": "owner",
              "type": "address"
            },
            {
              "internalType": "uint256",
              "name": "type_",
              "type": "uint256"
            },
            {
              "internalType": "uint256",
              "name": "rarity",
              "type": "uint256"
            },
            {
              "internalType": "uint256[]",
              "name": "traits",
              "type": "uint256[]"
            },
            {
              "internalType": "uint256[]",
              "name": "skills",
              "type": "uint256[]"
            },
            {
              "internalType": "uint256",
              "name": "baseFarm",
              "type": "uint256"
            },
            {
              "internalType": "uint256",
              "name": "agility",
              "type": "uint256"
            },
            {
              "internalType": "uint256",
              "name": "rank",
              "type": "uint256"
            },
            {
              "internalType": "uint256",
              "name": "farmPerBlock",
              "type": "uint256"
            },
            {
              "internalType": "uint256",
              "name": "squadId",
              "type": "uint256"
            },
            {
              "internalType": "uint256",
              "name": "collection",
              "type": "uint256"
            }
          ],
          "internalType": "struct IMhdaoNftForBalances.NftCharacter[]",
          "name": "nfts",
          "type": "tuple[]"
        },
        {
          "internalType": "uint256[]",
          "name": "nutsPerNft",
          "type": "uint256[]"
        },
        {
          "internalType": "uint256[]",
          "name": "evosPerNft",
          "type": "uint256[]"
        }
      ],
      "stateMutability": "view",
      "type": "function"
    },
    {
      "inputs": [
        {
          "internalType": "address",
          "name": "account",
          "type": "address"
        }
      ],
      "name": "getPlayerSquadsAndBalances",
      "outputs": [
        {
          "components": [
            {
              "internalType": "uint256",
              "name": "bctToClaim",
              "type": "uint256"
            },
            {
              "internalType": "uint256",
              "name": "etherealBct",
              "type": "uint256"
            },
            {
              "internalType": "uint256",
              "name": "lastWithdrawalBlock",
              "type": "uint256"
            },
            {
              "internalType": "uint256",
              "name": "registeredAt",
              "type": "uint256"
            },
            {
              "internalType": "address",
              "name": "mentor",
              "type": "address"
            },
            {
              "internalType": "uint256",
              "name": "mentorLevel",
              "type": "uint256"
            },
            {
              "internalType": "uint256",
              "name": "merchantLevel",
              "type": "uint256"
            },
            {
              "internalType": "uint256[]",
              "name": "squads",
              "type": "uint256[]"
            }
          ],
          "internalType": "struct IMhdaoPlayer.Player",
          "name": "player",
          "type": "tuple"
        },
        {
          "components": [
            {
              "internalType": "address",
              "name": "owner",
              "type": "address"
            },
            {
              "internalType": "uint256",
              "name": "type_",
              "type": "uint256"
            },
            {
              "internalType": "uint256",
              "name": "size",
              "type": "uint256"
            },
            {
              "internalType": "uint256",
              "name": "baseFarmPerBlock",
              "type": "uint256"
            },
            {
              "internalType": "uint256",
              "name": "synergyBonus",
              "type": "uint256"
            },
            {
              "internalType": "uint256",
              "name": "squadBonus",
              "type": "uint256"
            },
            {
              "internalType": "uint256",
              "name": "squadTrait",
              "type": "uint256"
            },
            {
              "internalType": "uint256",
              "name": "farmPerBlock",
              "type": "uint256"
            },
            {
              "internalType": "uint256",
              "name": "currentQuest",
              "type": "uint256"
            },
            {
              "internalType": "uint256",
              "name": "questStartedAt",
              "type": "uint256"
            },
            {
              "internalType": "uint256",
              "name": "questEndsAt",
              "type": "uint256"
            },
            {
              "internalType": "uint256[]",
              "name": "nftIds",
              "type": "uint256[]"
            },
            {
              "internalType": "uint256[]",
              "name": "traits",
              "type": "uint256[]"
            },
            {
              "internalType": "uint256[]",
              "name": "collections",
              "type": "uint256[]"
            }
          ],
          "internalType": "struct IMhdaoSquad.Squad[]",
          "name": "squads",
          "type": "tuple[]"
        },
        {
          "components": [
            {
              "internalType": "uint256",
              "name": "bct",
              "type": "uint256"
            },
            {
              "internalType": "uint256",
              "name": "eBct",
              "type": "uint256"
            },
            {
              "internalType": "uint256[]",
              "name": "resources",
              "type": "uint256[]"
            }
          ],
          "internalType": "struct BkBalancesV7.InGameBalances",
          "name": "ingameBalances",
          "type": "tuple"
        },
        {
          "components": [
            {
              "internalType": "uint256",
              "name": "bct",
              "type": "uint256"
            },
            {
              "internalType": "uint256",
              "name": "busd",
              "type": "uint256"
            },
            {
              "internalType": "uint256[]",
              "name": "resources",
              "type": "uint256[]"
            }
          ],
          "internalType": "struct BkBalancesV7.MetamaskBalances",
          "name": "metamaskBalances",
          "type": "tuple"
        },
        {
          "internalType": "uint256",
          "name": "stasherBalance",
          "type": "uint256"
        }
      ],
      "stateMutability": "view",
      "type": "function"
    },
    {
      "inputs": [
        {
          "internalType": "address",
          "name": "account",
          "type": "address"
        }
      ],
      "name": "getPlayerSquadsBalancesAndScale",
      "outputs": [
        {
          "components": [
            {
              "internalType": "uint256",
              "name": "bctToClaim",
              "type": "uint256"
            },
            {
              "internalType": "uint256",
              "name": "etherealBct",
              "type": "uint256"
            },
            {
              "internalType": "uint256",
              "name": "lastWithdrawalBlock",
              "type": "uint256"
            },
            {
              "internalType": "uint256",
              "name": "registeredAt",
              "type": "uint256"
            },
            {
              "internalType": "address",
              "name": "mentor",
              "type": "address"
            },
            {
              "internalType": "uint256",
              "name": "mentorLevel",
              "type": "uint256"
            },
            {
              "internalType": "uint256",
              "name": "merchantLevel",
              "type": "uint256"
            },
            {
              "internalType": "uint256[]",
              "name": "squads",
              "type": "uint256[]"
            }
          ],
          "internalType": "struct IMhdaoPlayer.Player",
          "name": "player",
          "type": "tuple"
        },
        {
          "components": [
            {
              "internalType": "address",
              "name": "owner",
              "type": "address"
            },
            {
              "internalType": "uint256",
              "name": "type_",
              "type": "uint256"
            },
            {
              "internalType": "uint256",
              "name": "size",
              "type": "uint256"
            },
            {
              "internalType": "uint256",
              "name": "baseFarmPerBlock",
              "type": "uint256"
            },
            {
              "internalType": "uint256",
              "name": "synergyBonus",
              "type": "uint256"
            },
            {
              "internalType": "uint256",
              "name": "squadBonus",
              "type": "uint256"
            },
            {
              "internalType": "uint256",
              "name": "squadTrait",
              "type": "uint256"
            },
            {
              "internalType": "uint256",
              "name": "farmPerBlock",
              "type": "uint256"
            },
            {
              "internalType": "uint256",
              "name": "currentQuest",
              "type": "uint256"
            },
            {
              "internalType": "uint256",
              "name": "questStartedAt",
              "type": "uint256"
            },
            {
              "internalType": "uint256",
              "name": "questEndsAt",
              "type": "uint256"
            },
            {
              "internalType": "uint256[]",
              "name": "nftIds",
              "type": "uint256[]"
            },
            {
              "internalType": "uint256[]",
              "name": "traits",
              "type": "uint256[]"
            },
            {
              "internalType": "uint256[]",
              "name": "collections",
              "type": "uint256[]"
            }
          ],
          "internalType": "struct IMhdaoSquad.Squad[]",
          "name": "squads",
          "type": "tuple[]"
        },
        {
          "components": [
            {
              "internalType": "uint256",
              "name": "bct",
              "type": "uint256"
            },
            {
              "internalType": "uint256",
              "name": "eBct",
              "type": "uint256"
            },
            {
              "internalType": "uint256[]",
              "name": "resources",
              "type": "uint256[]"
            }
          ],
          "internalType": "struct BkBalancesV7.InGameBalances",
          "name": "ingameBalances",
          "type": "tuple"
        },
        {
          "components": [
            {
              "internalType": "uint256",
              "name": "bct",
              "type": "uint256"
            },
            {
              "internalType": "uint256",
              "name": "busd",
              "type": "uint256"
            },
            {
              "internalType": "uint256[]",
              "name": "resources",
              "type": "uint256[]"
            }
          ],
          "internalType": "struct BkBalancesV7.MetamaskBalances",
          "name": "metamaskBalances",
          "type": "tuple"
        },
        {
          "internalType": "uint256",
          "name": "stasherBalance",
          "type": "uint256"
        },
        {
          "internalType": "uint256",
          "name": "scale",
          "type": "uint256"
        }
      ],
      "stateMutability": "view",
      "type": "function"
    },
    {
      "inputs": [],
      "name": "getResources",
      "outputs": [
        {
          "internalType": "address[]",
          "name": "",
          "type": "address[]"
        }
      ],
      "stateMutability": "view",
      "type": "function"
    },
    {
      "inputs": [
        {
          "internalType": "bytes32",
          "name": "role",
          "type": "bytes32"
        }
      ],
      "name": "getRoleAdmin",
      "outputs": [
        {
          "internalType": "bytes32",
          "name": "",
          "type": "bytes32"
        }
      ],
      "stateMutability": "view",
      "type": "function"
    },
    {
      "inputs": [
        {
          "internalType": "bytes32",
          "name": "role",
          "type": "bytes32"
        },
        {
          "internalType": "address",
          "name": "account",
          "type": "address"
        }
      ],
      "name": "grantRole",
      "outputs": [],
      "stateMutability": "nonpayable",
      "type": "function"
    },
    {
      "inputs": [
        {
          "internalType": "bytes32",
          "name": "role",
          "type": "bytes32"
        },
        {
          "internalType": "address",
          "name": "account",
          "type": "address"
        }
      ],
      "name": "hasRole",
      "outputs": [
        {
          "internalType": "bool",
          "name": "",
          "type": "bool"
        }
      ],
      "stateMutability": "view",
      "type": "function"
    },
    {
      "inputs": [
        {
          "internalType": "address",
          "name": "account",
          "type": "address"
        }
      ],
      "name": "inGameBalancesOf",
      "outputs": [
        {
          "components": [
            {
              "internalType": "uint256",
              "name": "bct",
              "type": "uint256"
            },
            {
              "internalType": "uint256",
              "name": "eBct",
              "type": "uint256"
            },
            {
              "internalType": "uint256[]",
              "name": "resources",
              "type": "uint256[]"
            }
          ],
          "internalType": "struct BkBalancesV7.InGameBalances",
          "name": "",
          "type": "tuple"
        }
      ],
      "stateMutability": "view",
      "type": "function"
    },
    {
      "inputs": [
        {
          "internalType": "address",
          "name": "operator",
          "type": "address"
        },
        {
          "internalType": "address",
          "name": "_bct",
          "type": "address"
        },
        {
          "internalType": "address",
          "name": "_busd",
          "type": "address"
        },
        {
          "internalType": "address",
          "name": "_stasher",
          "type": "address"
        },
        {
          "internalType": "address",
          "name": "_pool",
          "type": "address"
        },
        {
          "internalType": "address",
          "name": "_farm",
          "type": "address"
        },
        {
          "internalType": "address",
          "name": "_nft",
          "type": "address"
        },
        {
          "internalType": "address",
          "name": "_playerBonus",
          "type": "address"
        },
        {
          "internalType": "address",
          "name": "_dnaManager",
          "type": "address"
        }
      ],
      "name": "initialize",
      "outputs": [],
      "stateMutability": "nonpayable",
      "type": "function"
    },
    {
      "inputs": [
        {
          "internalType": "address",
          "name": "account",
          "type": "address"
        }
      ],
      "name": "metamaskBalancesOf",
      "outputs": [
        {
          "components": [
            {
              "internalType": "uint256",
              "name": "bct",
              "type": "uint256"
            },
            {
              "internalType": "uint256",
              "name": "busd",
              "type": "uint256"
            },
            {
              "internalType": "uint256[]",
              "name": "resources",
              "type": "uint256[]"
            }
          ],
          "internalType": "struct BkBalancesV7.MetamaskBalances",
          "name": "",
          "type": "tuple"
        }
      ],
      "stateMutability": "view",
      "type": "function"
    },
    {
      "inputs": [],
      "name": "newNft",
      "outputs": [
        {
          "internalType": "contract IMhdaoNftForBalancesV6",
          "name": "",
          "type": "address"
        }
      ],
      "stateMutability": "view",
      "type": "function"
    },
    {
      "inputs": [],
      "name": "newPlayerBonus",
      "outputs": [
        {
          "internalType": "contract IBkPlayerBonusForBalances",
          "name": "",
          "type": "address"
        }
      ],
      "stateMutability": "view",
      "type": "function"
    },
    {
      "inputs": [],
      "name": "newPlayerBonusV3",
      "outputs": [
        {
          "internalType": "contract IBkPlayerBonusForBalancesV3",
          "name": "",
          "type": "address"
        }
      ],
      "stateMutability": "view",
      "type": "function"
    },
    {
      "inputs": [
        {
          "internalType": "uint256[]",
          "name": "nftIds",
          "type": "uint256[]"
        }
      ],
      "name": "onlyDeadBeastsIds",
      "outputs": [
        {
          "internalType": "uint256[]",
          "name": "areDead",
          "type": "uint256[]"
        }
      ],
      "stateMutability": "view",
      "type": "function"
    },
    {
      "inputs": [],
      "name": "paused",
      "outputs": [
        {
          "internalType": "bool",
          "name": "",
          "type": "bool"
        }
      ],
      "stateMutability": "view",
      "type": "function"
    },
    {
      "inputs": [
        {
          "internalType": "bytes32",
          "name": "role",
          "type": "bytes32"
        },
        {
          "internalType": "address",
          "name": "account",
          "type": "address"
        }
      ],
      "name": "renounceRole",
      "outputs": [],
      "stateMutability": "nonpayable",
      "type": "function"
    },
    {
      "inputs": [
        {
          "internalType": "uint256",
          "name": "",
          "type": "uint256"
        }
      ],
      "name": "resources",
      "outputs": [
        {
          "internalType": "address",
          "name": "",
          "type": "address"
        }
      ],
      "stateMutability": "view",
      "type": "function"
    },
    {
      "inputs": [
        {
          "internalType": "bytes32",
          "name": "role",
          "type": "bytes32"
        },
        {
          "internalType": "address",
          "name": "account",
          "type": "address"
        }
      ],
      "name": "revokeRole",
      "outputs": [],
      "stateMutability": "nonpayable",
      "type": "function"
    },
    {
      "inputs": [
        {
          "internalType": "address",
          "name": "farmAddress",
          "type": "address"
        },
        {
          "internalType": "address",
          "name": "bctAddress",
          "type": "address"
        },
        {
          "internalType": "address",
          "name": "busdAddress",
          "type": "address"
        },
        {
          "internalType": "address",
          "name": "poolAddress",
          "type": "address"
        },
        {
          "internalType": "address",
          "name": "stasherAddress",
          "type": "address"
        },
        {
          "internalType": "address",
          "name": "nftAddress",
          "type": "address"
        },
        {
          "internalType": "address",
          "name": "dnaManagerAddress",
          "type": "address"
        },
        {
          "internalType": "address",
          "name": "playerBonusAddress",
          "type": "address"
        }
      ],
      "name": "setContracts",
      "outputs": [],
      "stateMutability": "nonpayable",
      "type": "function"
    },
    {
      "inputs": [
        {
          "internalType": "address",
          "name": "newNftAddress",
          "type": "address"
        }
      ],
      "name": "setNewNft",
      "outputs": [],
      "stateMutability": "nonpayable",
      "type": "function"
    },
    {
      "inputs": [
        {
          "internalType": "address",
          "name": "newPlayerBonusAddress",
          "type": "address"
        }
      ],
      "name": "setNewPlayerBonus",
      "outputs": [],
      "stateMutability": "nonpayable",
      "type": "function"
    },
    {
      "inputs": [
        {
          "internalType": "address",
          "name": "newPlayerBonusAddress",
          "type": "address"
        }
      ],
      "name": "setNewPlayerBonusV3",
      "outputs": [],
      "stateMutability": "nonpayable",
      "type": "function"
    },
    {
      "inputs": [
        {
          "internalType": "address[]",
          "name": "resourcesAddresses",
          "type": "address[]"
        }
      ],
      "name": "setResources",
      "outputs": [],
      "stateMutability": "nonpayable",
      "type": "function"
    },
    {
      "inputs": [],
      "name": "supply",
      "outputs": [
        {
          "internalType": "uint256",
          "name": "bctTotalSupply",
          "type": "uint256"
        },
        {
          "internalType": "uint256",
          "name": "farm",
          "type": "uint256"
        },
        {
          "internalType": "uint256",
          "name": "pool",
          "type": "uint256"
        },
        {
          "internalType": "uint256[]",
          "name": "_resources",
          "type": "uint256[]"
        }
      ],
      "stateMutability": "view",
      "type": "function"
    },
    {
      "inputs": [
        {
          "internalType": "bytes4",
          "name": "interfaceId",
          "type": "bytes4"
        }
      ],
      "name": "supportsInterface",
      "outputs": [
        {
          "internalType": "bool",
          "name": "",
          "type": "bool"
        }
      ],
      "stateMutability": "view",
      "type": "function"
    },
    {
      "inputs": [],
      "name": "totalResources",
      "outputs": [
        {
          "internalType": "uint256",
          "name": "",
          "type": "uint256"
        }
      ],
      "stateMutability": "view",
      "type": "function"
    }
  ],
  "bytecode": "0x608060405234801561001057600080fd5b50613ed8806100206000396000f3fe608060405234801561001057600080fd5b50600436106101fb5760003560e01c80636392a51f1161011a578063aa086834116100ad578063d9e3cd3d1161007c578063d9e3cd3d1461064d578063f522874614610660578063f5e95acb14610689578063fc9cac111461069c578063fffaeb13146106c157600080fd5b8063aa086834146104f2578063c1cc57b014610505578063c3a2a93a1461051a578063d547741f1461063a57600080fd5b806391d14854116100e957806391d14854146104b15780639ad8d6f7146104c4578063a217fddf146104d7578063a3625e00146104df57600080fd5b80636392a51f146103e457806366f5a747146104055780636c0f79b61461040e578063831ebd9f1461049e57600080fd5b80632f2ff15d116101925780635c975abb116101615780635c975abb146103705780635ee9dffe1461037b57806361e3ca2b1461039e578063628a2f66146103c057600080fd5b80632f2ff15d1461030d57806336568abe146103205780634edd50da146103335780635c0ff1e11461035d57600080fd5b80630e997887116101ce5780630e99788714610268578063244d6daa14610288578063248a9ca3146102c957806325083837146102fa57600080fd5b8063017ac2171461020057806301ffc9a714610215578063047fc9aa1461023d5780630dfcdde814610255575b600080fd5b61021361020e366004612af6565b6106e1565b005b610228610223366004612b94565b610769565b60405190151581526020015b60405180910390f35b6102456107a0565b6040516102349493929190612bf9565b610213610263366004612c28565b610a35565b61027b610276366004612c28565b610a70565b6040516102349190612c76565b6102b1610296366004612c89565b60d2602052600090815260409020546001600160a01b031681565b6040516001600160a01b039091168152602001610234565b6102ec6102d7366004612c89565b60009081526065602052604090206001015490565b604051908152602001610234565b60d4546102b1906001600160a01b031681565b61021361031b366004612ca2565b610a9d565b61021361032e366004612ca2565b610ac7565b610346610341366004612c28565b610aea565b6040516102349b9a99989796959493929190612fef565b61027b61036b366004612c28565b611059565b60975460ff16610228565b61038e6103893660046130de565b611086565b6040516102349493929190613163565b6103b16103ac366004612c28565b6111af565b604051610234939291906131f8565b6103d36103ce366004612c28565b61134e565b604051610234959493929190613231565b6103f76103f2366004612c28565b611534565b604051610234929190613291565b6102ec60d15481565b60c95460ca5460cb5460cc5460cd5460ce5460cf5460d05461044c976001600160a01b03908116978116968116958116948116938116928116911688565b604080516001600160a01b03998a16815297891660208901529588169587019590955292861660608601529085166080850152841660a0840152831660c083015290911660e082015261010001610234565b60d3546102b1906001600160a01b031681565b6102286104bf366004612ca2565b611597565b6102136104d23660046132b6565b6115c2565b6102ec600081565b6102136104ed366004612c28565b61166d565b60d5546102b1906001600160a01b031681565b61050d6116a8565b604051610234919061335f565b6105c66040805161010081018252600080825260208201819052918101829052606081018290526080810182905260a0810182905260c0810182905260e081019190915250604080516101008101825260c9546001600160a01b03908116825260ca548116602083015260cb5481169282019290925260cc548216606082015260cd548216608082015260ce54821660a082015260cf54821660c082015260d05490911660e082015290565b604051610234919081516001600160a01b03908116825260208084015182169083015260408084015182169083015260608084015182169083015260808084015182169083015260a08084015182169083015260c08084015182169083015260e09283015116918101919091526101000190565b610213610648366004612ca2565b61175e565b61021361065b366004612c28565b611783565b61067361066e366004612c28565b6117be565b6040516102349a999897969594939291906133ac565b61021361069736600461349d565b611cce565b6106af6106aa366004612c28565b611e7d565b60405161023496959493929190613559565b6106d46106cf3660046130de565b6120f8565b60405161023491906135bc565b600080516020613e838339815191526106f98161224b565b60005b825181101561076157828181518110610717576107176135cf565b602090810291909101810151600083815260d2909252604090912080546001600160a01b0319166001600160a01b0390921691909117905580610759816135fb565b9150506106fc565b50505160d155565b60006001600160e01b03198216637965db0b60e01b148061079a57506301ffc9a760e01b6001600160e01b03198316145b92915050565b60c954604080516318160ddd60e01b81529051600092839283926060926001600160a01b0316916318160ddd916004808301926020929190829003018186803b1580156107ec57600080fd5b505afa158015610800573d6000803e3d6000fd5b505050506040513d601f19601f820116820180604052508101906108249190613616565b60c95460cd546040516370a0823160e01b81526001600160a01b03918216600482015292965016906370a082319060240160206040518083038186803b15801561086d57600080fd5b505afa158015610881573d6000803e3d6000fd5b505050506040513d601f19601f820116820180604052508101906108a59190613616565b60cc5460408051630240bc6b60e21b815281519396506001600160a01b0390921692630902f1ac926004808201939291829003018186803b1580156108e957600080fd5b505afa1580156108fd573d6000803e3d6000fd5b505050506040513d601f19601f82011682018060405250810190610921919061362f565b5060d1549092506001600160401b0381111561093f5761093f612a2c565b604051908082528060200260200182016040528015610968578160200160208202803683370190505b50905060005b60d154811015610a2e57600081815260d260209081526040918290205482516318160ddd60e01b815292516001600160a01b03909116926318160ddd926004808301939192829003018186803b1580156109c757600080fd5b505afa1580156109db573d6000803e3d6000fd5b505050506040513d601f19601f820116820180604052508101906109ff9190613616565b828281518110610a1157610a116135cf565b602090810291909101015280610a26816135fb565b91505061096e565b5090919293565b600080516020613e83833981519152610a4d8161224b565b5060d380546001600160a01b0319166001600160a01b0392909216919091179055565b610a9460405180606001604052806000815260200160008152602001606081525090565b61079a82612258565b600082815260656020526040902060010154610ab88161224b565b610ac2838361246c565b505050565b6001600160a01b0381163314610adc57600080fd5b610ae682826124f2565b5050565b610af26129de565b606080606080610b1c60405180606001604052806000815260200160008152602001606081525090565b6000610b576040518060c001604052806000815260200160008152602001600081526020016000815260200160008152602001600081525090565b60cd54604051635c12cd4b60e01b81526001600160a01b038b81166004830152606092600092839290911690635c12cd4b9060240160006040518083038186803b158015610ba457600080fd5b505afa158015610bb8573d6000803e3d6000fd5b505050506040513d6000823e601f3d908101601f19168201604052610be091908101906136c9565b60cd54604051632de304bb60e11b81526001600160a01b038f81166004830152929d50911690635bc609769060240160006040518083038186803b158015610c2757600080fd5b505afa158015610c3b573d6000803e3d6000fd5b505050506040513d6000823e601f3d908101601f19168201604052610c639190810190613783565b60ce546040516318a1d6e160e21b81526001600160a01b038f81166004830152929c509116906362875b849060240160006040518083038186803b158015610caa57600080fd5b505afa158015610cbe573d6000803e3d6000fd5b505050506040513d6000823e601f3d908101601f19168201604052610ce69190810190613b22565b985060c960070160009054906101000a90046001600160a01b03166001600160a01b0316636e4f3ef760c960050160009054906101000a90046001600160a01b03166001600160a01b0316638462151c8f6040518263ffffffff1660e01b8152600401610d6291906001600160a01b0391909116815260200190565b60006040518083038186803b158015610d7a57600080fd5b505afa158015610d8e573d6000803e3d6000fd5b505050506040513d6000823e601f3d908101601f19168201604052610db69190810190613b6a565b6040518263ffffffff1660e01b8152600401610dd291906135bc565b60006040518083038186803b158015610dea57600080fd5b505afa158015610dfe573d6000803e3d6000fd5b505050506040513d6000823e601f3d908101601f19168201604052610e269190810190613b9e565b9098509650610e348c612258565b60cb546040516370a0823160e01b81526001600160a01b038f811660048301529298509116906370a082319060240160206040518083038186803b158015610e7b57600080fd5b505afa158015610e8f573d6000803e3d6000fd5b505050506040513d601f19601f82011682018060405250810190610eb39190613616565b60d4546040516367bb9a1f60e11b81526001600160a01b038f8116600483015292975091169063cf77343e9060240160006040518083038186803b158015610efa57600080fd5b505afa158015610f0e573d6000803e3d6000fd5b505050506040513d6000823e601f3d908101601f19168201604052610f369190810190613c7a565b60c9546040516370a0823160e01b81529296509094506001600160a01b0316906370a0823190610f79908f906004016001600160a01b0391909116815260200190565b60206040518083038186803b158015610f9157600080fd5b505afa158015610fa5573d6000803e3d6000fd5b505050506040513d601f19601f82011682018060405250810190610fc99190613616565b60ca546040516370a0823160e01b81526001600160a01b038f811660048301529294509116906370a082319060240160206040518083038186803b15801561101057600080fd5b505afa158015611024573d6000803e3d6000fd5b505050506040513d601f19601f820116820180604052508101906110489190613616565b905091939597999b90929496989a50565b61107d60405180606001604052806000815260200160008152602001606081525090565b61079a82612559565b60d55460405163618f4cdb60e11b81526060918291829182916001600160a01b039091169063c31e99b6906110bf9088906004016135bc565b60006040518083038186803b1580156110d757600080fd5b505afa1580156110eb573d6000803e3d6000fd5b505050506040513d6000823e601f3d908101601f191682016040526111139190810190613b22565b60d054604051636e4f3ef760e01b81529195506001600160a01b031690636e4f3ef7906111449088906004016135bc565b60006040518083038186803b15801561115c57600080fd5b505afa158015611170573d6000803e3d6000fd5b505050506040513d6000823e601f3d908101601f191682016040526111989190810190613b9e565b90935091506111a6856120f8565b90509193509193565b60ce546040516318a1d6e160e21b81526001600160a01b03838116600483015260609283928392909116906362875b849060240160006040518083038186803b1580156111fb57600080fd5b505afa15801561120f573d6000803e3d6000fd5b505050506040513d6000823e601f3d908101601f191682016040526112379190810190613b22565b60ce54604051632118854760e21b81526001600160a01b03878116600483015292955060009290911690638462151c9060240160006040518083038186803b15801561128257600080fd5b505afa158015611296573d6000803e3d6000fd5b505050506040513d6000823e601f3d908101601f191682016040526112be9190810190613b6a565b60d054604051636e4f3ef760e01b81529192506001600160a01b031690636e4f3ef7906112ef9084906004016135bc565b60006040518083038186803b15801561130757600080fd5b505afa15801561131b573d6000803e3d6000fd5b505050506040513d6000823e601f3d908101601f191682016040526113439190810190613b9e565b949690955092505050565b6113566129de565b60408051606081810183526000808352602083015291810182905261139560405180606001604052806000815260200160008152602001606081525090565b60cd54604051635c12cd4b60e01b81526001600160a01b0387811660048301526000921690635c12cd4b9060240160006040518083038186803b1580156113db57600080fd5b505afa1580156113ef573d6000803e3d6000fd5b505050506040513d6000823e601f3d908101601f1916820160405261141791908101906136c9565b60cd54604051632de304bb60e11b81526001600160a01b038981166004830152929750911690635bc609769060240160006040518083038186803b15801561145e57600080fd5b505afa158015611472573d6000803e3d6000fd5b505050506040513d6000823e601f3d908101601f1916820160405261149a9190810190613783565b93506114a586611534565b60cb546040516370a0823160e01b81526001600160a01b038a8116600483015293965091945091909116906370a082319060240160206040518083038186803b1580156114f157600080fd5b505afa158015611505573d6000803e3d6000fd5b505050506040513d601f19601f820116820180604052508101906115299190613616565b905091939590929450565b61155860405180606001604052806000815260200160008152602001606081525090565b61157c60405180606001604052806000815260200160008152602001606081525090565b61158583612258565b61158e84612559565b91509150915091565b60009182526065602090815260408084206001600160a01b0393909316845291905290205460ff1690565b600080516020613e838339815191526115da8161224b565b5060c980546001600160a01b03199081166001600160a01b03998a161790915560ca805482169789169790971790965560cb805487169488169490941790935560cc805486169487169490941790935560cd805485169686169690961790955560ce805484169585169590951790945560cf805483169484169490941790935560d0805490911692909116919091179055565b600080516020613e838339815191526116858161224b565b5060d580546001600160a01b0319166001600160a01b0392909216919091179055565b6060600060d1546001600160401b038111156116c6576116c6612a2c565b6040519080825280602002602001820160405280156116ef578160200160208202803683370190505b50905060005b60d15481101561175857600081815260d2602052604090205482516001600160a01b039091169083908390811061172e5761172e6135cf565b6001600160a01b039092166020928302919091019091015280611750816135fb565b9150506116f5565b50919050565b6000828152606560205260409020600101546117798161224b565b610ac283836124f2565b600080516020613e8383398151915261179b8161224b565b5060d480546001600160a01b0319166001600160a01b0392909216919091179055565b6117c66129de565b6060806060806117f060405180606001604052806000815260200160008152602001606081525090565b61181460405180606001604052806000815260200160008152602001606081525090565b600061184f6040518060c001604052806000815260200160008152602001600081526020016000815260200160008152602001600081525090565b60cd54604051635c12cd4b60e01b81526001600160a01b038c811660048301526000921690635c12cd4b9060240160006040518083038186803b15801561189557600080fd5b505afa1580156118a9573d6000803e3d6000fd5b505050506040513d6000823e601f3d908101601f191682016040526118d191908101906136c9565b60cd54604051632de304bb60e11b81526001600160a01b038e81166004830152929c50911690635bc609769060240160006040518083038186803b15801561191857600080fd5b505afa15801561192c573d6000803e3d6000fd5b505050506040513d6000823e601f3d908101601f191682016040526119549190810190613783565b60ce546040516318a1d6e160e21b81526001600160a01b038e81166004830152929b509116906362875b849060240160006040518083038186803b15801561199b57600080fd5b505afa1580156119af573d6000803e3d6000fd5b505050506040513d6000823e601f3d908101601f191682016040526119d79190810190613b22565b60ce54604051632118854760e21b81526001600160a01b038e81166004830152929a5060009290911690638462151c9060240160006040518083038186803b158015611a2257600080fd5b505afa158015611a36573d6000803e3d6000fd5b505050506040513d6000823e601f3d908101601f19168201604052611a5e9190810190613b6a565b60d054604051636e4f3ef760e01b81529192506001600160a01b031690636e4f3ef790611a8f9084906004016135bc565b60006040518083038186803b158015611aa757600080fd5b505afa158015611abb573d6000803e3d6000fd5b505050506040513d6000823e601f3d908101601f19168201604052611ae39190810190613b9e565b9098509650611af18c611534565b60cb546040516370a0823160e01b81529298509096506001600160a01b0316906370a0823190611b34908f906004016001600160a01b0391909116815260200190565b60206040518083038186803b158015611b4c57600080fd5b505afa158015611b60573d6000803e3d6000fd5b505050506040513d601f19601f82011682018060405250810190611b849190613616565b9350600060c960040160009054906101000a90046001600160a01b03166001600160a01b03166379502c556040518163ffffffff1660e01b815260040160e06040518083038186803b158015611bd957600080fd5b505afa158015611bed573d6000803e3d6000fd5b505050506040513d601f19601f82011682018060405250810190611c119190613cce565b90508060200151925060c960060160009054906101000a90046001600160a01b03166001600160a01b031663cf77343e8e6040518263ffffffff1660e01b8152600401611c6d91906001600160a01b0391909116815260200190565b60c06040518083038186803b158015611c8557600080fd5b505afa158015611c99573d6000803e3d6000fd5b505050506040513d601f19601f82011682018060405250810190611cbd9190613d5c565b935050509193959799509193959799565b600054610100900460ff1615808015611cee5750600054600160ff909116105b80611d085750303b158015611d08575060005460ff166001145b611d1157600080fd5b6000805460ff191660011790558015611d34576000805461ff0019166101001790555b611d3c6127af565b611d446127c5565b611d4f60008b6127e1565b611d67600080516020613e838339815191528b6127e1565b60408051610100810182526001600160a01b03808c168083528b8216602084018190528b83169484018590528a8316606085018190528a8416608086018190528a851660a087018190528a861660c08801819052958a1660e090970187905260c980546001600160a01b0319908116909617905560ca8054861690941790935560cb8054851690971790965560cc80548416909117905560cd8054831690951790945560ce8054821690941790935560cf80548416909117905560d080549092161790558015611e71576000805461ff0019169055604051600181527f7f26b83ff96e1f2b6a682f133852f6798a09c465da95921460cefb38474024989060200160405180910390a15b50505050505050505050565b611e856129de565b604080516060818101835260008083526020830152918101829052611ec460405180606001604052806000815260200160008152602001606081525090565b60cd54604051635c12cd4b60e01b81526001600160a01b0387811660048301526000928392911690635c12cd4b9060240160006040518083038186803b158015611f0d57600080fd5b505afa158015611f21573d6000803e3d6000fd5b505050506040513d6000823e601f3d908101601f19168201604052611f4991908101906136c9565b60cd54604051632de304bb60e11b81526001600160a01b038a81166004830152929850911690635bc609769060240160006040518083038186803b158015611f9057600080fd5b505afa158015611fa4573d6000803e3d6000fd5b505050506040513d6000823e601f3d908101601f19168201604052611fcc9190810190613783565b9450611fd787611534565b60cb546040516370a0823160e01b81526001600160a01b038b8116600483015293975091955091909116906370a082319060240160206040518083038186803b15801561202357600080fd5b505afa158015612037573d6000803e3d6000fd5b505050506040513d601f19601f8201168201806040525081019061205b9190613616565b9150600060c960040160009054906101000a90046001600160a01b03166001600160a01b03166379502c556040518163ffffffff1660e01b815260040160e06040518083038186803b1580156120b057600080fd5b505afa1580156120c4573d6000803e3d6000fd5b505050506040513d601f19601f820116820180604052508101906120e89190613cce565b6020015191505091939550919395565b606081516001600160401b0381111561211357612113612a2c565b60405190808252806020026020018201604052801561213c578160200160208202803683370190505b5090506000805b83518110156122445760d55484516001600160a01b0390911690636352211e90869084908110612175576121756135cf565b60200260200101516040518263ffffffff1660e01b815260040161219b91815260200190565b60206040518083038186803b1580156121b357600080fd5b505afa9250505080156121e3575060408051601f3d908101601f191682019092526121e091810190613d78565b60015b612230578381815181106121f9576121f96135cf565b6020026020010151838381518110612213576122136135cf565b602090810291909101015281612228816135fb565b925050612232565b505b8061223c816135fb565b915050612143565b5050919050565b61225581336127eb565b50565b61227c60405180606001604052806000815260200160008152602001606081525090565b60cd54604051635c12cd4b60e01b81526001600160a01b0384811660048301526000921690635c12cd4b9060240160006040518083038186803b1580156122c257600080fd5b505afa1580156122d6573d6000803e3d6000fd5b505050506040513d6000823e601f3d908101601f191682016040526122fe91908101906136c9565b60cd54604051636392a51f60e01b81526001600160a01b03868116600483015292935060009290911690636392a51f9060240160006040518083038186803b15801561234957600080fd5b505afa15801561235d573d6000803e3d6000fd5b505050506040513d6000823e601f3d908101601f191682016040526123859190810190613b6a565b9050606060018251111561244757600182516123a19190613d95565b6001600160401b038111156123b8576123b8612a2c565b6040519080825280602002602001820160405280156123e1578160200160208202803683370190505b50905060015b825181101561244557828181518110612402576124026135cf565b6020026020010151826001836124189190613d95565b81518110612428576124286135cf565b60209081029190910101528061243d816135fb565b9150506123e7565b505b6040805160608101825284518152602094850151948101949094528301525092915050565b6124768282611597565b610ae65760008281526065602090815260408083206001600160a01b03851684529091529020805460ff191660011790556124ae3390565b6001600160a01b0316816001600160a01b0316837f2f8788117e7eff1d82e926ec794901d17c78024a50270940304540a733656f0d60405160405180910390a45050565b6124fc8282611597565b15610ae65760008281526065602090815260408083206001600160a01b0385168085529252808320805460ff1916905551339285917ff6391f5c32d9c69d2a47ea670b442974b53935d1edc7fd64eb21e047a839171b9190a45050565b61257d60405180606001604052806000815260200160008152602001606081525090565b600060d1546001600160401b0381111561259957612599612a2c565b6040519080825280602002602001820160405280156125c2578160200160208202803683370190505b50905060005b60d15481101561268b57600081815260d26020526040908190205490516370a0823160e01b81526001600160a01b038681166004830152909116906370a082319060240160206040518083038186803b15801561262457600080fd5b505afa158015612638573d6000803e3d6000fd5b505050506040513d601f19601f8201168201806040525081019061265c9190613616565b82828151811061266e5761266e6135cf565b602090810291909101015280612683816135fb565b9150506125c8565b5060c9546040516370a0823160e01b81526001600160a01b03858116600483015260009216906370a082319060240160206040518083038186803b1580156126d257600080fd5b505afa1580156126e6573d6000803e3d6000fd5b505050506040513d601f19601f8201168201806040525081019061270a9190613616565b60ca546040516370a0823160e01b81526001600160a01b038781166004830152929350600092909116906370a082319060240160206040518083038186803b15801561275557600080fd5b505afa158015612769573d6000803e3d6000fd5b505050506040513d601f19601f8201168201806040525081019061278d9190613616565b6040805160608101825293845260208401919091528201929092529392505050565b600054610100900460ff166127c357600080fd5b565b600054610100900460ff166127d957600080fd5b6127c361284d565b610ae6828261246c565b6127f58282611597565b610ae6576128028161286d565b61280d83602061287f565b60405160200161281e929190613dac565b60408051601f198184030181529082905262461bcd60e51b825261284491600401613e21565b60405180910390fd5b600054610100900460ff1661286157600080fd5b6097805460ff19169055565b606061079a6001600160a01b03831660145b6060600061288e836002613e34565b612899906002613e53565b6001600160401b038111156128b0576128b0612a2c565b6040519080825280601f01601f1916602001820160405280156128da576020820181803683370190505b509050600360fc1b816000815181106128f5576128f56135cf565b60200101906001600160f81b031916908160001a905350600f60fb1b81600181518110612924576129246135cf565b60200101906001600160f81b031916908160001a9053506000612948846002613e34565b612953906001613e53565b90505b60018111156129cb576f181899199a1a9b1b9c1cb0b131b232b360811b85600f1660108110612987576129876135cf565b1a60f81b82828151811061299d5761299d6135cf565b60200101906001600160f81b031916908160001a90535060049490941c936129c481613e6b565b9050612956565b5083156129d757600080fd5b9392505050565b6040518061010001604052806000815260200160008152602001600081526020016000815260200160006001600160a01b031681526020016000815260200160008152602001606081525090565b634e487b7160e01b600052604160045260246000fd5b60405161010081016001600160401b0381118282101715612a6557612a65612a2c565b60405290565b6040516101c081016001600160401b0381118282101715612a6557612a65612a2c565b604051601f8201601f191681016001600160401b0381118282101715612ab657612ab6612a2c565b604052919050565b60006001600160401b03821115612ad757612ad7612a2c565b5060051b60200190565b6001600160a01b038116811461225557600080fd5b60006020808385031215612b0957600080fd5b82356001600160401b03811115612b1f57600080fd5b8301601f81018513612b3057600080fd5b8035612b43612b3e82612abe565b612a8e565b81815260059190911b82018301908381019087831115612b6257600080fd5b928401925b82841015612b89578335612b7a81612ae1565b82529284019290840190612b67565b979650505050505050565b600060208284031215612ba657600080fd5b81356001600160e01b0319811681146129d757600080fd5b600081518084526020808501945080840160005b83811015612bee57815187529582019590820190600101612bd2565b509495945050505050565b848152836020820152826040820152608060608201526000612c1e6080830184612bbe565b9695505050505050565b600060208284031215612c3a57600080fd5b81356129d781612ae1565b80518252602081015160208301526000604082015160606040850152612c6e6060850182612bbe565b949350505050565b6020815260006129d76020830184612c45565b600060208284031215612c9b57600080fd5b5035919050565b60008060408385031215612cb557600080fd5b823591506020830135612cc781612ae1565b809150509250929050565b60006101008251845260208301516020850152604083015160408501526060830151606085015260018060a01b03608084015116608085015260a083015160a085015260c083015160c085015260e08301518160e0860152612d3682860182612bbe565b95945050505050565b600081518084526020808501808196508360051b8101915082860160005b85811015612e49578284038952815180516001600160a01b031685526101c0818701518688015260408083015190870152606080830151908701526080808301519087015260a0808301519087015260c0808301519087015260e0808301519087015261010080830151908701526101208083015190870152610140808301519087015261016080830151818801839052612dfa83890182612bbe565b925050506101808083015187830382890152612e168382612bbe565b925050506101a08083015192508682038188015250612e358183612bbe565b9a87019a9550505090840190600101612d5d565b5091979650505050505050565b60005b83811015612e71578181015183820152602001612e59565b83811115612e80576000848401525b50505050565b60008151808452612e9e816020860160208601612e56565b601f01601f19169290920160200192915050565b60006101c0825184526020830151816020860152612ed282860182612e86565b91505060408301518482036040860152612eec8282612e86565b9150506060830151612f0960608601826001600160a01b03169052565b506080830151608085015260a083015160a085015260c083015184820360c0860152612f358282612bbe565b91505060e083015184820360e0860152612f4f8282612bbe565b610100858101519087015261012080860151908701526101408086015190870152610160808601519087015261018080860151908701526101a0948501519490950193909352509192915050565b6000815180845260208085019450848260051b860182860160005b85811015612fe2578383038952612fd0838351612eb2565b98850198925090840190600101612fb8565b5090979650505050505050565b60006102008083526130038184018f612cd2565b90508281036020840152613017818e612d3f565b9050828103604084015261302b818d612f9d565b9050828103606084015261303f818c612bbe565b90508281036080840152613053818b612bbe565b905082810360a0840152613067818a612c45565b60c08401899052875160e0850152602088015161010085015260408801516101208501526060880151610140850152608088015161016085015260a088015161018085015290508281036101a08401526130c18187612bbe565b6101c084019590955250506101e001529998505050505050505050565b600060208083850312156130f157600080fd5b82356001600160401b0381111561310757600080fd5b8301601f8101851361311857600080fd5b8035613126612b3e82612abe565b81815260059190911b8201830190838101908783111561314557600080fd5b928401925b82841015612b895783358252928401929084019061314a565b6000608082016080835280875180835260a08501915060a08160051b86010192506020808a0160005b838110156131ba57609f198887030185526131a8868351612eb2565b9550938201939082019060010161318c565b5050858403818701525050506131d08187612bbe565b905082810360408401526131e48186612bbe565b90508281036060840152612b898185612bbe565b60608152600061320b6060830186612f9d565b828103602084015261321d8186612bbe565b90508281036040840152612c1e8185612bbe565b60a08152600061324460a0830188612cd2565b82810360208401526132568188612d3f565b9050828103604084015261326a8187612c45565b9050828103606084015261327e8186612c45565b9150508260808301529695505050505050565b6040815260006132a46040830185612c45565b8281036020840152612d368185612c45565b600080600080600080600080610100898b0312156132d357600080fd5b88356132de81612ae1565b975060208901356132ee81612ae1565b965060408901356132fe81612ae1565b9550606089013561330e81612ae1565b9450608089013561331e81612ae1565b935060a089013561332e81612ae1565b925060c089013561333e81612ae1565b915060e089013561334e81612ae1565b809150509295985092959890939650565b6020808252825182820181905260009190848201906040850190845b818110156133a05783516001600160a01b03168352928401929184019160010161337b565b50909695505050505050565b60006101e08083526133c08184018e612cd2565b905082810360208401526133d4818d612d3f565b905082810360408401526133e8818c612f9d565b905082810360608401526133fc818b612bbe565b90508281036080840152613410818a612bbe565b905082810360a08401526134248189612c45565b905082810360c08401526134388188612c45565b60e084018790528551610100850152602086015161012085015260408601516101408501526060860151610160850152608086015161018085015260a08601516101a085015291506134879050565b826101c08301529b9a5050505050505050505050565b60008060008060008060008060006101208a8c0312156134bc57600080fd5b89356134c781612ae1565b985060208a01356134d781612ae1565b975060408a01356134e781612ae1565b965060608a01356134f781612ae1565b955060808a013561350781612ae1565b945060a08a013561351781612ae1565b935060c08a013561352781612ae1565b925060e08a013561353781612ae1565b91506101008a013561354881612ae1565b809150509295985092959850929598565b60c08152600061356c60c0830189612cd2565b828103602084015261357e8189612d3f565b905082810360408401526135928188612c45565b905082810360608401526135a68187612c45565b6080840195909552505060a00152949350505050565b6020815260006129d76020830184612bbe565b634e487b7160e01b600052603260045260246000fd5b634e487b7160e01b600052601160045260246000fd5b600060001982141561360f5761360f6135e5565b5060010190565b60006020828403121561362857600080fd5b5051919050565b6000806040838503121561364257600080fd5b505080516020909101519092909150565b805161365e81612ae1565b919050565b600082601f83011261367457600080fd5b81516020613684612b3e83612abe565b82815260059290921b840181019181810190868411156136a357600080fd5b8286015b848110156136be57805183529183019183016136a7565b509695505050505050565b6000602082840312156136db57600080fd5b81516001600160401b03808211156136f257600080fd5b90830190610100828603121561370757600080fd5b61370f612a42565b8251815260208301516020820152604083015160408201526060830151606082015261373d60808401613653565b608082015260a083015160a082015260c083015160c082015260e08301518281111561376857600080fd5b61377487828601613663565b60e08301525095945050505050565b6000602080838503121561379657600080fd5b82516001600160401b03808211156137ad57600080fd5b818501915085601f8301126137c157600080fd5b81516137cf612b3e82612abe565b81815260059190911b830184019084810190888311156137ee57600080fd5b8585015b838110156139275780518581111561380957600080fd5b86016101c0818c03601f1901121561382057600080fd5b613828612a6b565b613833898301613653565b8152604082015189820152606082015160408201526080820151606082015260a0820151608082015260c082015160a082015260e082015160c08201526101008083015160e0830152610120808401518284015261014091508184015181840152506101608084015182840152610180915081840151898111156138b657600080fd5b6138c48f8d83880101613663565b8285015250506101a080840151898111156138de57600080fd5b6138ec8f8d83880101613663565b83850152506101c084015191508882111561390657600080fd5b6139148e8c84870101613663565b90830152508452509186019186016137f2565b5098975050505050505050565b600082601f83011261394557600080fd5b81516001600160401b0381111561395e5761395e612a2c565b613971601f8201601f1916602001612a8e565b81815284602083860101111561398657600080fd5b612c6e826020830160208701612e56565b60006139a5612b3e84612abe565b8381529050602080820190600585901b8401868111156139c457600080fd5b845b81811015613b175780516001600160401b03808211156139e65760008081fd5b908701906101c0828b0312156139fc5760008081fd5b613a04612a6b565b825181528583015182811115613a1a5760008081fd5b613a268c828601613934565b878301525060408084015183811115613a3f5760008081fd5b613a4b8d828701613934565b8284015250506060613a5e818501613653565b908201526080838101519082015260a0808401519082015260c08084015183811115613a8a5760008081fd5b613a968d828701613663565b82840152505060e08084015183811115613ab05760008081fd5b613abc8d828701613663565b9183019190915250610100838101519082015261012080840151908201526101408084015190820152610160808401519082015261018080840151908201526101a092830151928101929092525084529282019282016139c6565b505050509392505050565b600060208284031215613b3457600080fd5b81516001600160401b03811115613b4a57600080fd5b8201601f81018413613b5b57600080fd5b612c6e84825160208401613997565b600060208284031215613b7c57600080fd5b81516001600160401b03811115613b9257600080fd5b612c6e84828501613663565b60008060408385031215613bb157600080fd5b82516001600160401b0380821115613bc857600080fd5b613bd486838701613663565b93506020850151915080821115613bea57600080fd5b50613bf785828601613663565b9150509250929050565b600060c08284031215613c1357600080fd5b60405160c081018181106001600160401b0382111715613c3557613c35612a2c565b8060405250809150825181526020830151602082015260408301516040820152606083015160608201526080830151608082015260a083015160a08201525092915050565b60008060e08385031215613c8d57600080fd5b613c978484613c01565b915060c08301516001600160401b03811115613cb257600080fd5b613bf785828601613663565b8051801515811461365e57600080fd5b600060e08284031215613ce057600080fd5b60405160e081018181106001600160401b0382111715613d0257613d02612a2c565b80604052508251815260208301516020820152604083015160408201526060830151606082015260808301516080820152613d3f60a08401613cbe565b60a0820152613d5060c08401613cbe565b60c08201529392505050565b600060c08284031215613d6e57600080fd5b6129d78383613c01565b600060208284031215613d8a57600080fd5b81516129d781612ae1565b600082821015613da757613da76135e5565b500390565b7f416363657373436f6e74726f6c3a206163636f756e7420000000000000000000815260008351613de4816017850160208801612e56565b7001034b99036b4b9b9b4b733903937b6329607d1b6017918401918201528351613e15816028840160208801612e56565b01602801949350505050565b6020815260006129d76020830184612e86565b6000816000190483118215151615613e4e57613e4e6135e5565b500290565b60008219821115613e6657613e666135e5565b500190565b600081613e7a57613e7a6135e5565b50600019019056fe97667070c54ef182b0f5858b034beac1b6f3089aa2d3188bb1e8929f4fa9b929a26469706673582212201c69ec7a0ae374ffdd0cad239823b92ae6da7d92b06777f37c63b5b466660e0d64736f6c63430008090033",
  "linkReferences": {},
  "deployedLinkReferences": {}
}