{
  "_format": "hh-sol-artifact-1",
  "contractName": "BkQuestRewardsCalculator",
  "sourceName": "contracts/features/BkQuestRewardsCalculator.sol",
  "abi": [
    {
      "anonymous": false,
      "inputs": [
        {
          "indexed": false,
          "internalType": "uint8",
          "name": "version",
          "type": "uint8"
        }
      ],
      "name": "Initialized",
      "type": "event"
    },
    {
      "anonymous": false,
      "inputs": [
        {
          "indexed": false,
          "internalType": "address",
          "name": "account",
          "type": "address"
        }
      ],
      "name": "Paused",
      "type": "event"
    },
    {
      "anonymous": false,
      "inputs": [
        {
          "indexed": true,
          "internalType": "bytes32",
          "name": "role",
          "type": "bytes32"
        },
        {
          "indexed": true,
          "internalType": "bytes32",
          "name": "previousAdminRole",
          "type": "bytes32"
        },
        {
          "indexed": true,
          "internalType": "bytes32",
          "name": "newAdminRole",
          "type": "bytes32"
        }
      ],
      "name": "RoleAdminChanged",
      "type": "event"
    },
    {
      "anonymous": false,
      "inputs": [
        {
          "indexed": true,
          "internalType": "bytes32",
          "name": "role",
          "type": "bytes32"
        },
        {
          "indexed": true,
          "internalType": "address",
          "name": "account",
          "type": "address"
        },
        {
          "indexed": true,
          "internalType": "address",
          "name": "sender",
          "type": "address"
        }
      ],
      "name": "RoleGranted",
      "type": "event"
    },
    {
      "anonymous": false,
      "inputs": [
        {
          "indexed": true,
          "internalType": "bytes32",
          "name": "role",
          "type": "bytes32"
        },
        {
          "indexed": true,
          "internalType": "address",
          "name": "account",
          "type": "address"
        },
        {
          "indexed": true,
          "internalType": "address",
          "name": "sender",
          "type": "address"
        }
      ],
      "name": "RoleRevoked",
      "type": "event"
    },
    {
      "anonymous": false,
      "inputs": [
        {
          "indexed": false,
          "internalType": "address",
          "name": "account",
          "type": "address"
        }
      ],
      "name": "Unpaused",
      "type": "event"
    },
    {
      "inputs": [],
      "name": "DEFAULT_ADMIN_ROLE",
      "outputs": [
        {
          "internalType": "bytes32",
          "name": "",
          "type": "bytes32"
        }
      ],
      "stateMutability": "view",
      "type": "function"
    },
    {
      "inputs": [
        {
          "internalType": "address",
          "name": "_operator",
          "type": "address"
        },
        {
          "internalType": "address",
          "name": "_blocklistAddress",
          "type": "address"
        }
      ],
      "name": "__Administrable_init",
      "outputs": [],
      "stateMutability": "nonpayable",
      "type": "function"
    },
    {
      "inputs": [
        {
          "internalType": "uint256",
          "name": "squadType",
          "type": "uint256"
        },
        {
          "internalType": "uint256",
          "name": "synergyBonus",
          "type": "uint256"
        },
        {
          "internalType": "uint256",
          "name": "traits",
          "type": "uint256"
        },
        {
          "internalType": "uint256",
          "name": "globalBonus",
          "type": "uint256"
        },
        {
          "internalType": "uint256",
          "name": "durationInBlocks",
          "type": "uint256"
        },
        {
          "internalType": "uint256",
          "name": "mastery",
          "type": "uint256"
        }
      ],
      "name": "getAlMultiplier",
      "outputs": [
        {
          "internalType": "uint256",
          "name": "",
          "type": "uint256"
        }
      ],
      "stateMutability": "pure",
      "type": "function"
    },
    {
      "inputs": [
        {
          "components": [
            {
              "internalType": "uint256",
              "name": "squadType",
              "type": "uint256"
            },
            {
              "internalType": "uint256",
              "name": "numberOfNtfs",
              "type": "uint256"
            },
            {
              "internalType": "uint256",
              "name": "raritySum",
              "type": "uint256"
            },
            {
              "internalType": "uint256",
              "name": "synergyBonus",
              "type": "uint256"
            },
            {
              "internalType": "uint256",
              "name": "traits",
              "type": "uint256"
            },
            {
              "internalType": "uint256",
              "name": "collections",
              "type": "uint256"
            },
            {
              "internalType": "uint256",
              "name": "durationInBlocks",
              "type": "uint256"
            },
            {
              "internalType": "address",
              "name": "account",
              "type": "address"
            }
          ],
          "internalType": "struct BkQuestRewardsCalculator.MultiplierRequest",
          "name": "req",
          "type": "tuple"
        }
      ],
      "name": "getBaseMultipliers",
      "outputs": [
        {
          "internalType": "uint256[]",
          "name": "",
          "type": "uint256[]"
        }
      ],
      "stateMutability": "view",
      "type": "function"
    },
    {
      "inputs": [
        {
          "internalType": "uint256",
          "name": "squadType",
          "type": "uint256"
        },
        {
          "internalType": "uint256",
          "name": "raritySum",
          "type": "uint256"
        },
        {
          "internalType": "uint256",
          "name": "globalBonus",
          "type": "uint256"
        },
        {
          "internalType": "uint256",
          "name": "durationInBlocks",
          "type": "uint256"
        },
        {
          "internalType": "uint256",
          "name": "mastery",
          "type": "uint256"
        }
      ],
      "name": "getBctMultiplier",
      "outputs": [
        {
          "internalType": "uint256",
          "name": "",
          "type": "uint256"
        }
      ],
      "stateMutability": "pure",
      "type": "function"
    },
    {
      "inputs": [
        {
          "internalType": "uint256",
          "name": "squadType",
          "type": "uint256"
        },
        {
          "internalType": "uint256",
          "name": "synergyBonus",
          "type": "uint256"
        },
        {
          "internalType": "uint256",
          "name": "traits",
          "type": "uint256"
        },
        {
          "internalType": "uint256",
          "name": "globalBonus",
          "type": "uint256"
        },
        {
          "internalType": "uint256",
          "name": "durationInBlocks",
          "type": "uint256"
        },
        {
          "internalType": "uint256",
          "name": "mastery",
          "type": "uint256"
        }
      ],
      "name": "getBlMultiplier",
      "outputs": [
        {
          "internalType": "uint256",
          "name": "",
          "type": "uint256"
        }
      ],
      "stateMutability": "pure",
      "type": "function"
    },
    {
      "inputs": [
        {
          "internalType": "uint256",
          "name": "squadType",
          "type": "uint256"
        },
        {
          "internalType": "uint256",
          "name": "numberOfNtfs",
          "type": "uint256"
        },
        {
          "internalType": "uint256",
          "name": "globalBonus",
          "type": "uint256"
        },
        {
          "internalType": "uint256",
          "name": "durationInBlocks",
          "type": "uint256"
        },
        {
          "internalType": "uint256",
          "name": "mastery",
          "type": "uint256"
        }
      ],
      "name": "getEbctMultiplier",
      "outputs": [
        {
          "internalType": "uint256",
          "name": "",
          "type": "uint256"
        }
      ],
      "stateMutability": "pure",
      "type": "function"
    },
    {
      "inputs": [
        {
          "internalType": "uint256",
          "name": "fortuneLevel",
          "type": "uint256"
        },
        {
          "internalType": "uint256",
          "name": "globalBonus",
          "type": "uint256"
        },
        {
          "internalType": "uint256",
          "name": "durationInBlocks",
          "type": "uint256"
        },
        {
          "internalType": "uint256",
          "name": "mastery",
          "type": "uint256"
        }
      ],
      "name": "getEvosMultiplier",
      "outputs": [
        {
          "internalType": "uint256",
          "name": "",
          "type": "uint256"
        }
      ],
      "stateMutability": "pure",
      "type": "function"
    },
    {
      "inputs": [
        {
          "internalType": "uint256",
          "name": "collections",
          "type": "uint256"
        },
        {
          "internalType": "uint256",
          "name": "globalBonus",
          "type": "uint256"
        },
        {
          "internalType": "uint256",
          "name": "durationInBlocks",
          "type": "uint256"
        },
        {
          "internalType": "uint256",
          "name": "mastery",
          "type": "uint256"
        }
      ],
      "name": "getNutsMultiplier",
      "outputs": [
        {
          "internalType": "uint256",
          "name": "",
          "type": "uint256"
        }
      ],
      "stateMutability": "pure",
      "type": "function"
    },
    {
      "inputs": [
        {
          "internalType": "bytes32",
          "name": "role",
          "type": "bytes32"
        }
      ],
      "name": "getRoleAdmin",
      "outputs": [
        {
          "internalType": "bytes32",
          "name": "",
          "type": "bytes32"
        }
      ],
      "stateMutability": "view",
      "type": "function"
    },
    {
      "inputs": [
        {
          "internalType": "bytes32",
          "name": "role",
          "type": "bytes32"
        },
        {
          "internalType": "address",
          "name": "account",
          "type": "address"
        }
      ],
      "name": "grantRole",
      "outputs": [],
      "stateMutability": "nonpayable",
      "type": "function"
    },
    {
      "inputs": [],
      "name": "hasBlocklist",
      "outputs": [
        {
          "internalType": "bool",
          "name": "",
          "type": "bool"
        }
      ],
      "stateMutability": "view",
      "type": "function"
    },
    {
      "inputs": [
        {
          "internalType": "bytes32",
          "name": "role",
          "type": "bytes32"
        },
        {
          "internalType": "address",
          "name": "account",
          "type": "address"
        }
      ],
      "name": "hasRole",
      "outputs": [
        {
          "internalType": "bool",
          "name": "",
          "type": "bool"
        }
      ],
      "stateMutability": "view",
      "type": "function"
    },
    {
      "inputs": [
        {
          "internalType": "address",
          "name": "_operator",
          "type": "address"
        },
        {
          "internalType": "address",
          "name": "_blocklist",
          "type": "address"
        },
        {
          "internalType": "address",
          "name": "_playerBonus",
          "type": "address"
        }
      ],
      "name": "initialize",
      "outputs": [],
      "stateMutability": "nonpayable",
      "type": "function"
    },
    {
      "inputs": [],
      "name": "pause",
      "outputs": [],
      "stateMutability": "nonpayable",
      "type": "function"
    },
    {
      "inputs": [],
      "name": "paused",
      "outputs": [
        {
          "internalType": "bool",
          "name": "",
          "type": "bool"
        }
      ],
      "stateMutability": "view",
      "type": "function"
    },
    {
      "inputs": [],
      "name": "playerBonus",
      "outputs": [
        {
          "internalType": "contract IBkPlayerBonus",
          "name": "",
          "type": "address"
        }
      ],
      "stateMutability": "view",
      "type": "function"
    },
    {
      "inputs": [
        {
          "internalType": "address",
          "name": "tokenAddress",
          "type": "address"
        },
        {
          "internalType": "address",
          "name": "to",
          "type": "address"
        },
        {
          "internalType": "uint256",
          "name": "amount",
          "type": "uint256"
        }
      ],
      "name": "recoverERC20",
      "outputs": [],
      "stateMutability": "nonpayable",
      "type": "function"
    },
    {
      "inputs": [
        {
          "internalType": "bytes32",
          "name": "role",
          "type": "bytes32"
        },
        {
          "internalType": "address",
          "name": "account",
          "type": "address"
        }
      ],
      "name": "renounceRole",
      "outputs": [],
      "stateMutability": "nonpayable",
      "type": "function"
    },
    {
      "inputs": [],
      "name": "resetBlocklist",
      "outputs": [],
      "stateMutability": "nonpayable",
      "type": "function"
    },
    {
      "inputs": [
        {
          "internalType": "bytes32",
          "name": "role",
          "type": "bytes32"
        },
        {
          "internalType": "address",
          "name": "account",
          "type": "address"
        }
      ],
      "name": "revokeRole",
      "outputs": [],
      "stateMutability": "nonpayable",
      "type": "function"
    },
    {
      "inputs": [
        {
          "internalType": "address",
          "name": "blocklistAddress",
          "type": "address"
        }
      ],
      "name": "setBlocklist",
      "outputs": [],
      "stateMutability": "nonpayable",
      "type": "function"
    },
    {
      "inputs": [
        {
          "internalType": "bytes4",
          "name": "interfaceId",
          "type": "bytes4"
        }
      ],
      "name": "supportsInterface",
      "outputs": [
        {
          "internalType": "bool",
          "name": "",
          "type": "bool"
        }
      ],
      "stateMutability": "view",
      "type": "function"
    },
    {
      "inputs": [],
      "name": "unpause",
      "outputs": [],
      "stateMutability": "nonpayable",
      "type": "function"
    }
  ],
  "bytecode": "0x608060405234801561001057600080fd5b506115a0806100206000396000f3fe608060405234801561001057600080fd5b50600436106101585760003560e01c806366012487116100c3578063a217fddf1161007c578063a217fddf146102e5578063a81df654146101c5578063abd150e2146102ed578063aef18ae714610300578063c0c53b8b14610313578063d547741f1461032657600080fd5b8063660124871461027e578063757ae9b6146102915780637b57c5f2146102a45780638456cb59146102b757806391d14854146102bf578063931da89b146102d257600080fd5b806336568abe1161011557806336568abe1461021c5780633c7fd8221461022f5780633f4ba83a146102375780635c329bec1461023f5780635c975abb1461025f578063634210f41461026a57600080fd5b806301ffc9a71461015d5780631171bda91461018557806313074be41461019a57806323efad97146101c5578063248a9ca3146101e65780632f2ff15d14610209575b600080fd5b61017061016b366004610fdf565b610339565b60405190151581526020015b60405180910390f35b610198610193366004611025565b610370565b005b60ca546101ad906001600160a01b031681565b6040516001600160a01b03909116815260200161017c565b6101d86101d3366004611061565b610411565b60405190815260200161017c565b6101d86101f43660046110a4565b60009081526065602052604090206001015490565b6101986102173660046110bd565b610486565b61019861022a3660046110bd565b6104b0565b6101986104d3565b6101986104fe565b61025261024d366004611130565b610521565b60405161017c91906111c4565b60975460ff16610170565b60c95461017090600160a01b900460ff1681565b6101d861028c366004611208565b6107f0565b6101d861029f366004611208565b610836565b6101d86102b236600461123a565b61085b565b6101986108c2565b6101706102cd3660046110bd565b6108e2565b6101986102e0366004611275565b61090d565b6101d8600081565b6101d86102fb36600461123a565b610a23565b61019861030e36600461129f565b610a5e565b6101986103213660046112ba565b610a9e565b6101986103343660046110bd565b610b75565b60006001600160e01b03198216637965db0b60e01b148061036a57506301ffc9a760e01b6001600160e01b03198316145b92915050565b60008051602061154b83398151915261038881610b9a565b60405163a9059cbb60e01b81526001600160a01b0384811660048301526024820184905285169063a9059cbb90604401602060405180830381600087803b1580156103d257600080fd5b505af11580156103e6573d6000803e3d6000fd5b505050506040513d601f19601f8201168201806040525081019061040a91906112fd565b5050505050565b60008082610420866064611335565b61042a9190611335565b9050876006146104425761043f606482611335565b90505b61044d600a8861134d565b6104579082611335565b905061046486600561136f565b61046e9082611335565b905061047a848261136f565b98975050505050505050565b6000828152606560205260409020600101546104a181610b9a565b6104ab8383610ba4565b505050565b6001600160a01b03811633146104c557600080fd5b6104cf8282610c2a565b5050565b60008051602061154b8339815191526104eb81610b9a565b5060c980546001600160a81b0319169055565b60008051602061154b83398151915261051681610b9a565b61051e610c91565b50565b60ca5460e0820151604051631d23bf9160e21b81526001600160a01b03918216600482015260609260009283928392919091169063748efe449060240160006040518083038186803b15801561057657600080fd5b505afa15801561058a573d6000803e3d6000fd5b505050506040513d6000823e601f3d908101601f191682016040526105b2919081019061138e565b92509250925080516000146105c757806105e6565b60408051600680825260e08201909252906020820160c0803683375050505b60408051600680825260e08201909252919250600091906020820160c08036833701905050905061064086600001518760400151868960c001518660008151811061063357610633611449565b6020026020010151610a23565b8160008151811061065357610653611449565b60200260200101818152505061069286600001518760200151868960c001518660018151811061068557610685611449565b602002602001015161085b565b816001815181106106a5576106a5611449565b6020026020010181815250506106e9866000015187606001518860800151878a60c00151876002815181106106dc576106dc611449565b6020026020010151610411565b816002815181106106fc576106fc611449565b602002602001018181525050610733866000015187606001518860800151878a60c00151876003815181106106dc576106dc611449565b8160038151811061074657610746611449565b6020026020010181815250506107808660a00151858860c001518560048151811061077357610773611449565b60200260200101516107f0565b8160048151811061079357610793611449565b6020026020010181815250506107c983858860c00151856005815181106107bc576107bc611449565b6020026020010151610836565b816005815181106107dc576107dc611449565b602090810291909101015295945050505050565b600080826107ff866064611335565b6108099190611335565b905061081686601461136f565b6108209082611335565b905061082c848261136f565b9695505050505050565b60008082610845866064611335565b61084f9190611335565b90506108208682611335565b6000808261086a866064611335565b6108749190611335565b90508660061461088c57610889601e82611335565b90505b60018611156108ad576108a086600a61136f565b6108aa9082611335565b90505b6108b7848261136f565b979650505050505050565b60008051602061154b8339815191526108da81610b9a565b61051e610ce3565b60009182526065602090815260408084206001600160a01b0393909316845291905290205460ff1690565b600054610100900460ff161580801561092d5750600054600160ff909116105b806109475750303b158015610947575060005460ff166001145b61095057600080fd5b6000805460ff191660011790558015610973576000805461ff0019166101001790555b61097b610d20565b610983610d36565b61098e600084610d52565b6109a660008051602061154b83398151915284610d52565b6109d07f73e573f9566d61418a34d5de3ff49360f9c51fec37f7486551670290f6285dab84610d52565b6109d982610a5e565b80156104ab576000805461ff0019169055604051600181527f7f26b83ff96e1f2b6a682f133852f6798a09c465da95921460cefb38474024989060200160405180910390a1505050565b60008082610a32866064611335565b610a3c9190611335565b905086600614610a5457610a51601482611335565b90505b6108aa8682611335565b60008051602061154b833981519152610a7681610b9a565b5060c980546001600160a81b0319166001600160a01b0390921691909117600160a01b179055565b600054610100900460ff1615808015610abe5750600054600160ff909116105b80610ad85750303b158015610ad8575060005460ff166001145b610ae157600080fd5b6000805460ff191660011790558015610b04576000805461ff0019166101001790555b610b0e848461090d565b60ca80546001600160a01b0319166001600160a01b0384161790558015610b6f576000805461ff0019169055604051600181527f7f26b83ff96e1f2b6a682f133852f6798a09c465da95921460cefb38474024989060200160405180910390a15b50505050565b600082815260656020526040902060010154610b9081610b9a565b6104ab8383610c2a565b61051e8133610d5c565b610bae82826108e2565b6104cf5760008281526065602090815260408083206001600160a01b03851684529091529020805460ff19166001179055610be63390565b6001600160a01b0316816001600160a01b0316837f2f8788117e7eff1d82e926ec794901d17c78024a50270940304540a733656f0d60405160405180910390a45050565b610c3482826108e2565b156104cf5760008281526065602090815260408083206001600160a01b0385168085529252808320805460ff1916905551339285917ff6391f5c32d9c69d2a47ea670b442974b53935d1edc7fd64eb21e047a839171b9190a45050565b610c99610dbe565b6097805460ff191690557f5db9ee0a495bf2e6ff9c91a7834c1ba4fdd244a5e8aa4e537bd38aeae4b073aa335b6040516001600160a01b03909116815260200160405180910390a1565b610ceb610e07565b6097805460ff191660011790557f62e78cea01bee320cd4e420270b5ea74000d11b0c9f74754ebdbfc544b05a258610cc63390565b600054610100900460ff16610d3457600080fd5b565b600054610100900460ff16610d4a57600080fd5b610d34610e4d565b6104cf8282610ba4565b610d6682826108e2565b6104cf57610d7381610e6d565b610d7e836020610e7f565b604051602001610d8f92919061148b565b60408051601f198184030181529082905262461bcd60e51b8252610db591600401611500565b60405180910390fd5b60975460ff16610d345760405162461bcd60e51b815260206004820152601460248201527314185d5cd8589b194e881b9bdd081c185d5cd95960621b6044820152606401610db5565b60975460ff1615610d345760405162461bcd60e51b815260206004820152601060248201526f14185d5cd8589b194e881c185d5cd95960821b6044820152606401610db5565b600054610100900460ff16610e6157600080fd5b6097805460ff19169055565b606061036a6001600160a01b03831660145b60606000610e8e83600261136f565b610e99906002611335565b67ffffffffffffffff811115610eb157610eb16110e9565b6040519080825280601f01601f191660200182016040528015610edb576020820181803683370190505b509050600360fc1b81600081518110610ef657610ef6611449565b60200101906001600160f81b031916908160001a905350600f60fb1b81600181518110610f2557610f25611449565b60200101906001600160f81b031916908160001a9053506000610f4984600261136f565b610f54906001611335565b90505b6001811115610fcc576f181899199a1a9b1b9c1cb0b131b232b360811b85600f1660108110610f8857610f88611449565b1a60f81b828281518110610f9e57610f9e611449565b60200101906001600160f81b031916908160001a90535060049490941c93610fc581611533565b9050610f57565b508315610fd857600080fd5b9392505050565b600060208284031215610ff157600080fd5b81356001600160e01b031981168114610fd857600080fd5b80356001600160a01b038116811461102057600080fd5b919050565b60008060006060848603121561103a57600080fd5b61104384611009565b925061105160208501611009565b9150604084013590509250925092565b60008060008060008060c0878903121561107a57600080fd5b505084359660208601359650604086013595606081013595506080810135945060a0013592509050565b6000602082840312156110b657600080fd5b5035919050565b600080604083850312156110d057600080fd5b823591506110e060208401611009565b90509250929050565b634e487b7160e01b600052604160045260246000fd5b604051601f8201601f1916810167ffffffffffffffff81118282101715611128576111286110e9565b604052919050565b600061010080838503121561114457600080fd5b6040519081019067ffffffffffffffff82118183101715611167576111676110e9565b81604052833581526020840135602082015260408401356040820152606084013560608201526080840135608082015260a084013560a082015260c084013560c08201526111b760e08501611009565b60e0820152949350505050565b6020808252825182820181905260009190848201906040850190845b818110156111fc578351835292840192918401916001016111e0565b50909695505050505050565b6000806000806080858703121561121e57600080fd5b5050823594602084013594506040840135936060013592509050565b600080600080600060a0868803121561125257600080fd5b505083359560208501359550604085013594606081013594506080013592509050565b6000806040838503121561128857600080fd5b61129183611009565b91506110e060208401611009565b6000602082840312156112b157600080fd5b610fd882611009565b6000806000606084860312156112cf57600080fd5b6112d884611009565b92506112e660208501611009565b91506112f460408501611009565b90509250925092565b60006020828403121561130f57600080fd5b81518015158114610fd857600080fd5b634e487b7160e01b600052601160045260246000fd5b600082198211156113485761134861131f565b500190565b60008261136a57634e487b7160e01b600052601260045260246000fd5b500490565b60008160001904831182151516156113895761138961131f565b500290565b6000806000606084860312156113a357600080fd5b835192506020808501519250604085015167ffffffffffffffff808211156113ca57600080fd5b818701915087601f8301126113de57600080fd5b8151818111156113f0576113f06110e9565b8060051b91506114018483016110ff565b818152918301840191848101908a84111561141b57600080fd5b938501935b8385101561143957845182529385019390850190611420565b8096505050505050509250925092565b634e487b7160e01b600052603260045260246000fd5b60005b8381101561147a578181015183820152602001611462565b83811115610b6f5750506000910152565b7f416363657373436f6e74726f6c3a206163636f756e74200000000000000000008152600083516114c381601785016020880161145f565b7001034b99036b4b9b9b4b733903937b6329607d1b60179184019182015283516114f481602884016020880161145f565b01602801949350505050565b602081526000825180602084015261151f81604085016020870161145f565b601f01601f19169190910160400192915050565b6000816115425761154261131f565b50600019019056fe97667070c54ef182b0f5858b034beac1b6f3089aa2d3188bb1e8929f4fa9b929a264697066735822122092267c4686ea69256dde18dee1d4f4bad38a8a64b9882d5ed19ab3083962b48364736f6c63430008090033",
  "linkReferences": {},
  "deployedLinkReferences": {}
}