{
  "_format": "hh-sol-artifact-1",
  "contractName": "BkBatch",
  "sourceName": "contracts/features/BkBatch.sol",
  "abi": [
    {
      "anonymous": false,
      "inputs": [
        {
          "indexed": true,
          "internalType": "uint256",
          "name": "nftId",
          "type": "uint256"
        },
        {
          "indexed": false,
          "internalType": "uint256",
          "name": "trait",
          "type": "uint256"
        }
      ],
      "name": "AddExtraTrait",
      "type": "event"
    },
    {
      "anonymous": false,
      "inputs": [
        {
          "indexed": true,
          "internalType": "uint256",
          "name": "nftId",
          "type": "uint256"
        },
        {
          "indexed": false,
          "internalType": "uint256",
          "name": "skill",
          "type": "uint256"
        },
        {
          "indexed": false,
          "internalType": "uint256",
          "name": "levelsApplied",
          "type": "uint256"
        }
      ],
      "name": "BuySkillLevel",
      "type": "event"
    },
    {
      "anonymous": false,
      "inputs": [
        {
          "indexed": true,
          "internalType": "uint256",
          "name": "nftId",
          "type": "uint256"
        },
        {
          "indexed": false,
          "internalType": "uint256",
          "name": "evosApplied",
          "type": "uint256"
        }
      ],
      "name": "EvolveSequentially",
      "type": "event"
    },
    {
      "anonymous": false,
      "inputs": [
        {
          "indexed": false,
          "internalType": "uint8",
          "name": "version",
          "type": "uint8"
        }
      ],
      "name": "Initialized",
      "type": "event"
    },
    {
      "anonymous": false,
      "inputs": [
        {
          "indexed": true,
          "internalType": "uint256",
          "name": "nftId",
          "type": "uint256"
        },
        {
          "indexed": false,
          "internalType": "uint256",
          "name": "nutsApplied",
          "type": "uint256"
        }
      ],
      "name": "MaxOutNuts",
      "type": "event"
    },
    {
      "anonymous": false,
      "inputs": [
        {
          "indexed": true,
          "internalType": "uint256",
          "name": "nftId",
          "type": "uint256"
        },
        {
          "indexed": false,
          "internalType": "uint256",
          "name": "ranksApplied",
          "type": "uint256"
        },
        {
          "indexed": false,
          "internalType": "uint256",
          "name": "agilityApplied",
          "type": "uint256"
        }
      ],
      "name": "MaxOutRanksAndAgility",
      "type": "event"
    },
    {
      "anonymous": false,
      "inputs": [
        {
          "indexed": false,
          "internalType": "address",
          "name": "account",
          "type": "address"
        }
      ],
      "name": "Paused",
      "type": "event"
    },
    {
      "anonymous": false,
      "inputs": [
        {
          "indexed": false,
          "internalType": "uint256[]",
          "name": "nftIds",
          "type": "uint256[]"
        }
      ],
      "name": "Rebox",
      "type": "event"
    },
    {
      "anonymous": false,
      "inputs": [
        {
          "indexed": true,
          "internalType": "bytes32",
          "name": "role",
          "type": "bytes32"
        },
        {
          "indexed": true,
          "internalType": "bytes32",
          "name": "previousAdminRole",
          "type": "bytes32"
        },
        {
          "indexed": true,
          "internalType": "bytes32",
          "name": "newAdminRole",
          "type": "bytes32"
        }
      ],
      "name": "RoleAdminChanged",
      "type": "event"
    },
    {
      "anonymous": false,
      "inputs": [
        {
          "indexed": true,
          "internalType": "bytes32",
          "name": "role",
          "type": "bytes32"
        },
        {
          "indexed": true,
          "internalType": "address",
          "name": "account",
          "type": "address"
        },
        {
          "indexed": true,
          "internalType": "address",
          "name": "sender",
          "type": "address"
        }
      ],
      "name": "RoleGranted",
      "type": "event"
    },
    {
      "anonymous": false,
      "inputs": [
        {
          "indexed": true,
          "internalType": "bytes32",
          "name": "role",
          "type": "bytes32"
        },
        {
          "indexed": true,
          "internalType": "address",
          "name": "account",
          "type": "address"
        },
        {
          "indexed": true,
          "internalType": "address",
          "name": "sender",
          "type": "address"
        }
      ],
      "name": "RoleRevoked",
      "type": "event"
    },
    {
      "anonymous": false,
      "inputs": [
        {
          "indexed": true,
          "internalType": "uint256",
          "name": "nftId",
          "type": "uint256"
        }
      ],
      "name": "SetOnFire",
      "type": "event"
    },
    {
      "anonymous": false,
      "inputs": [
        {
          "indexed": false,
          "internalType": "address",
          "name": "account",
          "type": "address"
        }
      ],
      "name": "Unpaused",
      "type": "event"
    },
    {
      "inputs": [],
      "name": "DEFAULT_ADMIN_ROLE",
      "outputs": [
        {
          "internalType": "bytes32",
          "name": "",
          "type": "bytes32"
        }
      ],
      "stateMutability": "view",
      "type": "function"
    },
    {
      "inputs": [
        {
          "internalType": "address",
          "name": "_operator",
          "type": "address"
        },
        {
          "internalType": "address",
          "name": "_blocklistAddress",
          "type": "address"
        }
      ],
      "name": "__Administrable_init",
      "outputs": [],
      "stateMutability": "nonpayable",
      "type": "function"
    },
    {
      "inputs": [
        {
          "internalType": "bytes32",
          "name": "role",
          "type": "bytes32"
        }
      ],
      "name": "getRoleAdmin",
      "outputs": [
        {
          "internalType": "bytes32",
          "name": "",
          "type": "bytes32"
        }
      ],
      "stateMutability": "view",
      "type": "function"
    },
    {
      "inputs": [
        {
          "internalType": "uint256",
          "name": "nftId",
          "type": "uint256"
        }
      ],
      "name": "getSetOnFireCost",
      "outputs": [
        {
          "internalType": "uint256",
          "name": "eBct",
          "type": "uint256"
        },
        {
          "internalType": "uint256[]",
          "name": "resources",
          "type": "uint256[]"
        }
      ],
      "stateMutability": "view",
      "type": "function"
    },
    {
      "inputs": [
        {
          "internalType": "bytes32",
          "name": "role",
          "type": "bytes32"
        },
        {
          "internalType": "address",
          "name": "account",
          "type": "address"
        }
      ],
      "name": "grantRole",
      "outputs": [],
      "stateMutability": "nonpayable",
      "type": "function"
    },
    {
      "inputs": [],
      "name": "hasBlocklist",
      "outputs": [
        {
          "internalType": "bool",
          "name": "",
          "type": "bool"
        }
      ],
      "stateMutability": "view",
      "type": "function"
    },
    {
      "inputs": [
        {
          "internalType": "bytes32",
          "name": "role",
          "type": "bytes32"
        },
        {
          "internalType": "address",
          "name": "account",
          "type": "address"
        }
      ],
      "name": "hasRole",
      "outputs": [
        {
          "internalType": "bool",
          "name": "",
          "type": "bool"
        }
      ],
      "stateMutability": "view",
      "type": "function"
    },
    {
      "inputs": [
        {
          "internalType": "address",
          "name": "_operator",
          "type": "address"
        },
        {
          "internalType": "address",
          "name": "_blocklist",
          "type": "address"
        }
      ],
      "name": "initialize",
      "outputs": [],
      "stateMutability": "nonpayable",
      "type": "function"
    },
    {
      "inputs": [
        {
          "internalType": "uint256",
          "name": "nftId",
          "type": "uint256"
        }
      ],
      "name": "maxOutNutsSequentially",
      "outputs": [],
      "stateMutability": "nonpayable",
      "type": "function"
    },
    {
      "inputs": [],
      "name": "pause",
      "outputs": [],
      "stateMutability": "nonpayable",
      "type": "function"
    },
    {
      "inputs": [],
      "name": "paused",
      "outputs": [
        {
          "internalType": "bool",
          "name": "",
          "type": "bool"
        }
      ],
      "stateMutability": "view",
      "type": "function"
    },
    {
      "inputs": [
        {
          "internalType": "uint256[]",
          "name": "nftIds",
          "type": "uint256[]"
        }
      ],
      "name": "rebox",
      "outputs": [],
      "stateMutability": "nonpayable",
      "type": "function"
    },
    {
      "inputs": [
        {
          "internalType": "address",
          "name": "tokenAddress",
          "type": "address"
        },
        {
          "internalType": "address",
          "name": "to",
          "type": "address"
        },
        {
          "internalType": "uint256",
          "name": "amount",
          "type": "uint256"
        }
      ],
      "name": "recoverERC20",
      "outputs": [],
      "stateMutability": "nonpayable",
      "type": "function"
    },
    {
      "inputs": [
        {
          "internalType": "bytes32",
          "name": "role",
          "type": "bytes32"
        },
        {
          "internalType": "address",
          "name": "account",
          "type": "address"
        }
      ],
      "name": "renounceRole",
      "outputs": [],
      "stateMutability": "nonpayable",
      "type": "function"
    },
    {
      "inputs": [],
      "name": "resetBlocklist",
      "outputs": [],
      "stateMutability": "nonpayable",
      "type": "function"
    },
    {
      "inputs": [
        {
          "internalType": "bytes32",
          "name": "role",
          "type": "bytes32"
        },
        {
          "internalType": "address",
          "name": "account",
          "type": "address"
        }
      ],
      "name": "revokeRole",
      "outputs": [],
      "stateMutability": "nonpayable",
      "type": "function"
    },
    {
      "inputs": [
        {
          "internalType": "address",
          "name": "blocklistAddress",
          "type": "address"
        }
      ],
      "name": "setBlocklist",
      "outputs": [],
      "stateMutability": "nonpayable",
      "type": "function"
    },
    {
      "inputs": [
        {
          "internalType": "uint256",
          "name": "nftId",
          "type": "uint256"
        }
      ],
      "name": "setOnFire",
      "outputs": [],
      "stateMutability": "nonpayable",
      "type": "function"
    },
    {
      "inputs": [
        {
          "internalType": "address",
          "name": "_nft",
          "type": "address"
        },
        {
          "internalType": "address",
          "name": "_dnaManager",
          "type": "address"
        },
        {
          "internalType": "address",
          "name": "_upgrades",
          "type": "address"
        },
        {
          "internalType": "address",
          "name": "_farm",
          "type": "address"
        }
      ],
      "name": "set_Contracts",
      "outputs": [],
      "stateMutability": "nonpayable",
      "type": "function"
    },
    {
      "inputs": [
        {
          "internalType": "bytes4",
          "name": "interfaceId",
          "type": "bytes4"
        }
      ],
      "name": "supportsInterface",
      "outputs": [
        {
          "internalType": "bool",
          "name": "",
          "type": "bool"
        }
      ],
      "stateMutability": "view",
      "type": "function"
    },
    {
      "inputs": [
        {
          "internalType": "address",
          "name": "to",
          "type": "address"
        },
        {
          "internalType": "uint256[]",
          "name": "nftIds",
          "type": "uint256[]"
        }
      ],
      "name": "transferMany",
      "outputs": [],
      "stateMutability": "nonpayable",
      "type": "function"
    },
    {
      "inputs": [],
      "name": "unpause",
      "outputs": [],
      "stateMutability": "nonpayable",
      "type": "function"
    }
  ],
  "bytecode": "0x608060405234801561001057600080fd5b50612bf9806100206000396000f3fe608060405234801561001057600080fd5b50600436106101425760003560e01c8063634210f4116100b8578063a217fddf1161007c578063a217fddf14610292578063aef18ae71461029a578063bbd26cf2146102ad578063bfc3bb42146102c0578063d547741f146102d3578063e1f9d83b146102e657600080fd5b8063634210f41461023d57806372b8d3f5146102515780638456cb591461026457806391d148541461026c578063931da89b1461027f57600080fd5b806336568abe1161010a57806336568abe146101db578063375dfce6146101ee5780633c7fd8221461020f5780633f4ba83a14610217578063485cc9551461021f5780635c975abb1461023257600080fd5b806301ffc9a7146101475780631171bda91461016f578063206059ff14610184578063248a9ca3146101975780632f2ff15d146101c8575b600080fd5b61015a61015536600461227f565b6102f9565b60405190151581526020015b60405180910390f35b61018261017d3660046122be565b610330565b005b6101826101923660046123ff565b6103d1565b6101ba6101a536600461243c565b60009081526065602052604090206001015490565b604051908152602001610166565b6101826101d6366004612455565b610811565b6101826101e9366004612455565b61083b565b6102016101fc36600461243c565b61085e565b6040516101669291906124c0565b61018261104d565b610182611078565b61018261022d3660046124d9565b61109b565b60975460ff1661015a565b60c95461015a90600160a01b900460ff1681565b61018261025f366004612507565b611152565b6101826111bb565b61015a61027a366004612455565b6111db565b61018261028d3660046124d9565b611206565b6101ba600081565b6101826102a8366004612563565b611314565b6101826102bb36600461243c565b611354565b6101826102ce36600461243c565b6114c0565b6101826102e1366004612455565b611d60565b6101826102f4366004612580565b611d85565b60006001600160e01b03198216637965db0b60e01b148061032a57506301ffc9a760e01b6001600160e01b03198316145b92915050565b600080516020612ba483398151915261034881611e43565b60405163a9059cbb60e01b81526001600160a01b0384811660048301526024820184905285169063a9059cbb90604401602060405180830381600087803b15801561039257600080fd5b505af11580156103a6573d6000803e3d6000fd5b505050506040513d601f19601f820116820180604052508101906103ca91906125e5565b5050505050565b6040805160158082526102c08201909252600091829190602082016102a08036833701905050905060005b835181101561076d5760ca5484516000916001600160a01b0316906341f63bfd9087908590811061042f5761042f612600565b60200260200101516040518263ffffffff1660e01b815260040161045591815260200190565b60006040518083038186803b15801561046d57600080fd5b505afa158015610481573d6000803e3d6000fd5b505050506040513d6000823e601f3d908101601f191682016040526104a99190810190612710565b905080608001516000146104fa5760405162461bcd60e51b81526020600482015260136024820152721099585cdd081a5cc81a5b8818481cdc5d5859606a1b60448201526064015b60405180910390fd5b60608101516001600160a01b031633148061053a575061053a7f73e573f9566d61418a34d5de3ff49360f9c51fec37f7486551670290f6285dab336111db565b6105765760405162461bcd60e51b815260206004820152600d60248201526c2737ba103a34329037bbb732b960991b60448201526064016104f1565b610100810151600090818151811061059057610590612600565b6020026020010151905060048111156105fd5760405162461bcd60e51b815260206004820152602960248201527f43616e206f6e6c79207265626f7820456c657068616e7473206f72206c6f776560448201526872207370656369657360b81b60648201526084016104f1565b606082015161010083015190955060009060018151811061062057610620612600565b6020026020010151905060006001826106399190612899565b610644906003612994565b90506002831161068757808661065b85600b6129a0565b8151811061066b5761066b612600565b6020026020010181815161067f91906129a0565b9052506106bc565b80866106948560106129a0565b815181106106a4576106a4612600565b602002602001018181516106b891906129a0565b9052505b60ca54606085015189516001600160a01b03909216916379cc679091908b90899081106106eb576106eb612600565b60200260200101516040518363ffffffff1660e01b81526004016107249291906001600160a01b03929092168252602082015260400190565b600060405180830381600087803b15801561073e57600080fd5b505af1158015610752573d6000803e3d6000fd5b50505050505050508080610765906129b8565b9150506103fc565b5060cd546040516304567ca960e11b81526001600160a01b03909116906308acf952906107a390859060009086906004016129d3565b600060405180830381600087803b1580156107bd57600080fd5b505af11580156107d1573d6000803e3d6000fd5b505050507fa25744957183ba8327791c0192859ed73e5ad7b8a6e645c9278cd0e26f5f7ea9836040516108049190612a03565b60405180910390a1505050565b60008281526065602052604090206001015461082c81611e43565b6108368383611e4d565b505050565b6001600160a01b038116331461085057600080fd5b61085a8282611ed3565b5050565b60ca546040516341f63bfd60e01b81526004810183905260009160609183916001600160a01b0316906341f63bfd9060240160006040518083038186803b1580156108a857600080fd5b505afa1580156108bc573d6000803e3d6000fd5b505050506040513d6000823e601f3d908101601f191682016040526108e49190810190612710565b610100810151909150600090818151811061090157610901612600565b602002602001015190506000826101000151600160058111156109265761092661286d565b8151811061093657610936612600565b6020026020010151905060006006831061096057600b8310610959576005610963565b6002610963565b60005b60ff1690506000846101000151600460058111156109835761098361286d565b8151811061099357610993612600565b602002602001015190506032811015610aef5760006109b3826032612899565b90506002606460ce5483878960026109cb9190612a16565b6109d59190612a16565b6109e790670de0b6b3a7640000612a16565b6109f19190612a16565b6109fb9190612a16565b610a059190612a35565b610a0f9190612a35565b9750610a1c816064612a16565b87600a81518110610a2f57610a2f612600565b60200260200101818152505060068510158015610a4d5750600a8511155b15610a9d5786600a81518110610a6557610a65612600565b60200260200101516005610a799190612a16565b87600a81518110610a8c57610a8c612600565b602002602001018181525050610aed565b600a851115610aed5786600a81518110610ab957610ab9612600565b6020026020010151600a610acd9190612a16565b87600a81518110610ae057610ae0612600565b6020026020010181815250505b505b610100850151600090600581518110610b0a57610b0a612600565b60200260200101519050600b811015610bfd576000610b2a82600b612899565b9050806002606460ce548a6101000151600181518110610b4c57610b4c612600565b60200260200101518a6064610b619190612a16565b610b6b9190612a16565b610b7d90670de0b6b3a7640000612a16565b610b879190612a16565b610b919190612a35565b610b9b9190612a35565b610ba59190612a16565b610baf908a6129a0565b9850606488600b81518110610bc657610bc6612600565b6020908102919091010152606488610bdf88600d6129a0565b81518110610bef57610bef612600565b602002602001018181525050505b8561012001515160021415610cd2576002606460ce54886101000151600181518110610c2b57610c2b612600565b6020026020010151886064610c409190612a16565b610c4a9190612a16565b610c5c90670de0b6b3a7640000612a16565b610c669190612a16565b610c709190612a35565b610c7a9190612a35565b610c8490896129a0565b97506109c487600781518110610c9c57610c9c612600565b6020908102919091010152606487610cb587600d6129a0565b81518110610cc557610cc5612600565b6020026020010181815250505b610100860151600281518110610cea57610cea612600565b60200260200101516063141580610d215750610100860151600381518110610d1457610d14612600565b6020026020010151600514155b15610e615760cc5461010087015160009182916001600160a01b039091169063858768359089908990600281518110610d5c57610d5c612600565b60200260200101518c610100015160036005811115610d7d57610d7d61286d565b81518110610d8d57610d8d612600565b60200260200101516040518563ffffffff1660e01b8152600401610dca949392919093845260208401929092526040830152606082015260800190565b604080518083038186803b158015610de157600080fd5b505afa158015610df5573d6000803e3d6000fd5b505050506040513d601f19601f82011682018060405250810190610e199190612a57565b9092509050610e28828b6129a0565b99508089610e3760018a612899565b81518110610e4757610e47612600565b60200260200101818151610e5b91906129a0565b90525050505b60005b866101400151518110156110415760008761014001518281518110610e8b57610e8b612600565b6020026020010151856005610ea091906129a0565b610eaa9190612899565b610eb58360016129a0565b610ec088607d612a16565b610eca9190612a16565b610ed49190612a16565b90506002606460ce5483670de0b6b3a7640000610ef19190612a16565b610efb9190612a16565b610f059190612a35565b610f0f9190612a35565b90506000610f1e600583612a35565b905082610f5e57808a610f3260018b612899565b81518110610f4257610f42612600565b60200260200101818151610f5691906129a0565b90525061102c565b8260011415610f7457808a610f328a60046129a0565b8260021415610fbe57808a610f8a60018b612899565b81518110610f9a57610f9a612600565b60200260200101818151610fae91906129a0565b905250808a610f328a60046129a0565b8260031415610fdb57808a600a81518110610f4257610f42612600565b8260041415610ff757808a8981518110610f4257610f42612600565b808a6110048a60056129a0565b8151811061101457611014612600565b6020026020010181815161102891906129a0565b9052505b50508080611039906129b8565b915050610e64565b50505050505050915091565b600080516020612ba483398151915261106581611e43565b5060c980546001600160a81b0319169055565b600080516020612ba483398151915261109081611e43565b611098611f3a565b50565b600054610100900460ff16158080156110bb5750600054600160ff909116105b806110d55750303b1580156110d5575060005460ff166001145b6110de57600080fd5b6000805460ff191660011790558015611101576000805461ff0019166101001790555b61110b8383611206565b600c60ce558015610836576000805461ff0019169055604051600181527f7f26b83ff96e1f2b6a682f133852f6798a09c465da95921460cefb384740249890602001610804565b600080516020612ba483398151915261116a81611e43565b5060ca80546001600160a01b039586166001600160a01b03199182161790915560cb80549486169482169490941790935560cc80549285169284169290921790915560cd8054919093169116179055565b600080516020612ba48339815191526111d381611e43565b611098611f8c565b60009182526065602090815260408084206001600160a01b0393909316845291905290205460ff1690565b600054610100900460ff16158080156112265750600054600160ff909116105b806112405750303b158015611240575060005460ff166001145b61124957600080fd5b6000805460ff19166001179055801561126c576000805461ff0019166101001790555b611274611fc9565b61127c611fdf565b611287600084611ffb565b61129f600080516020612ba483398151915284611ffb565b6112c97f73e573f9566d61418a34d5de3ff49360f9c51fec37f7486551670290f6285dab84611ffb565b6112d282611314565b8015610836576000805461ff0019169055604051600181527f7f26b83ff96e1f2b6a682f133852f6798a09c465da95921460cefb384740249890602001610804565b600080516020612ba483398151915261132c81611e43565b5060c980546001600160a81b0319166001600160a01b0390921691909117600160a01b179055565b61135c612005565b60ca54604051635751907b60e01b8152600481810184905260248201526000916001600160a01b031690635751907b9060440160206040518083038186803b1580156113a757600080fd5b505afa1580156113bb573d6000803e3d6000fd5b505050506040513d601f19601f820116820180604052508101906113df9190612a7b565b9050603281106113ee57600080fd5b60006113fb826032612899565b905060005b818110156114805760cb5460405163984314f960e01b815260048101869052600160248201526001600160a01b039091169063984314f990604401600060405180830381600087803b15801561145557600080fd5b505af1158015611469573d6000803e3d6000fd5b505050508080611478906129b8565b915050611400565b50827f13a9c687ded0038c52a74ca381cf5e4b7d4d0f1b5e927b23c4be4499acb1e6a9826040516114b391815260200190565b60405180910390a2505050565b6114c8612005565b60ca546040516341f63bfd60e01b8152600481018390526000916001600160a01b0316906341f63bfd9060240160006040518083038186803b15801561150d57600080fd5b505afa158015611521573d6000803e3d6000fd5b505050506040513d6000823e601f3d908101601f191682016040526115499190810190612710565b61010081015190915060049060018151811061156757611567612600565b602002602001015110156115bd5760405162461bcd60e51b815260206004820152601760248201527f4e6f74204c6567656e64617279206f72204d797468696300000000000000000060448201526064016104f1565b6080810151156116055760405162461bcd60e51b81526020600482015260136024820152721099585cdd081a5cc81a5b8818481cdc5d5859606a1b60448201526064016104f1565b61010081015160048151811061161d5761161d612600565b60200260200101516032146116355761163582611354565b61010081015160058151811061164d5761164d612600565b6020026020010151600b146117605760cb54602082015160408301516101008401516001600160a01b0390931692637df427c592869260009260058151811061169857611698612600565b6020026020010151600b6116ac9190612899565b6040518663ffffffff1660e01b81526004016116cc959493929190612ac0565b600060405180830381600087803b1580156116e657600080fd5b505af11580156116fa573d6000803e3d6000fd5b5050506101008201518391507f2db90a2b9f78c112b199877fdc93c01cb69aa23960040869307d07c78d104e229060058151811061173a5761173a612600565b6020026020010151600b61174e9190612899565b60405190815260200160405180910390a25b8061012001515160021415611a1457603281610120015160008151811061178957611789612600565b6020026020010151116118825760cb5461012082015180516001600160a01b039092169163d878436a9185916000906117c4576117c4612600565b60200260200101516040518363ffffffff1660e01b81526004016117f2929190918252602082015260400190565b600060405180830381600087803b15801561180c57600080fd5b505af1158015611820573d6000803e3d6000fd5b50505050817f0b73fbec95894fab34c8a57a091a9a69a25080d58066e050bfdea4332c609dd682610120015160008151811061185e5761185e612600565b602002602001015160405161187591815260200190565b60405180910390a2611a14565b603281610120015160018151811061189c5761189c612600565b6020026020010151116119735760cb5461012082015180516001600160a01b039092169163d878436a91859160019081106118d9576118d9612600565b60200260200101516040518363ffffffff1660e01b8152600401611907929190918252602082015260400190565b600060405180830381600087803b15801561192157600080fd5b505af1158015611935573d6000803e3d6000fd5b50505050817f0b73fbec95894fab34c8a57a091a9a69a25080d58066e050bfdea4332c609dd682610120015160018151811061185e5761185e612600565b60cb54604051636c3c21b560e11b815260048101849052600160248201526001600160a01b039091169063d878436a90604401600060405180830381600087803b1580156119c057600080fd5b505af11580156119d4573d6000803e3d6000fd5b50505050817f0b73fbec95894fab34c8a57a091a9a69a25080d58066e050bfdea4332c609dd66001604051611a0b91815260200190565b60405180910390a25b610100810151600281518110611a2c57611a2c612600565b60200260200101516063141580611a635750610100810151600381518110611a5657611a56612600565b6020026020010151600514155b15611b5b5760cc546040516333cf6a0160e21b8152600481018490526001600160a01b039091169063cf3da80490602401600060405180830381600087803b158015611aae57600080fd5b505af1158015611ac2573d6000803e3d6000fd5b5050506101008201518391507f9cf63071e3fd9f7e4398e9006607e9abdef3508bdad88e3d465a88ae054c5e6790600281518110611b0257611b02612600565b60200260200101516063611b169190612899565b610100840151600381518110611b2e57611b2e612600565b60200260200101516005611b429190612899565b6040805192835260208301919091520160405180910390a25b6101008101516000908181518110611b7557611b75612600565b60200260200101519050600060068210611b9f57600b8210611b98576005611ba2565b6002611ba2565b60005b60ff16905060005b83610140015151811015611d2e57611bc38260056129a0565b8461014001518281518110611bda57611bda612600565b60200260200101511015611d1c5760cc5461014085015180516001600160a01b03909216916376a8612f91889185919082908110611c1a57611c1a612600565b6020026020010151866005611c2f91906129a0565b611c399190612899565b6040516001600160e01b031960e086901b16815260048101939093526024830191909152604482015260006064820152608401600060405180830381600087803b158015611c8657600080fd5b505af1158015611c9a573d6000803e3d6000fd5b50505050847fa4236572d4f69e6ca580d0bfa9bd463afff9989c499531cdb96f60790820cd14826001611ccd91906129a0565b8661014001518481518110611ce457611ce4612600565b6020026020010151856005611cf991906129a0565b611d039190612899565b6040805192835260208301919091520160405180910390a25b80611d26816129b8565b915050611baa565b5060405184907f646627e6dad851a1e10592fd62c30759db4eac7df3977198c2b5e1c70fa11d7390600090a250505050565b600082815260656020526040902060010154611d7b81611e43565b6108368383611ed3565b60005b81518110156108365760ca5482516001600160a01b03909116906323b872dd9033908690869086908110611dbe57611dbe612600565b60209081029190910101516040516001600160e01b031960e086901b1681526001600160a01b0393841660048201529290911660248301526044820152606401600060405180830381600087803b158015611e1857600080fd5b505af1158015611e2c573d6000803e3d6000fd5b505050508080611e3b906129b8565b915050611d88565b611098813361204b565b611e5782826111db565b61085a5760008281526065602090815260408083206001600160a01b03851684529091529020805460ff19166001179055611e8f3390565b6001600160a01b0316816001600160a01b0316837f2f8788117e7eff1d82e926ec794901d17c78024a50270940304540a733656f0d60405160405180910390a45050565b611edd82826111db565b1561085a5760008281526065602090815260408083206001600160a01b0385168085529252808320805460ff1916905551339285917ff6391f5c32d9c69d2a47ea670b442974b53935d1edc7fd64eb21e047a839171b9190a45050565b611f426120a4565b6097805460ff191690557f5db9ee0a495bf2e6ff9c91a7834c1ba4fdd244a5e8aa4e537bd38aeae4b073aa335b6040516001600160a01b03909116815260200160405180910390a1565b611f94612005565b6097805460ff191660011790557f62e78cea01bee320cd4e420270b5ea74000d11b0c9f74754ebdbfc544b05a258611f6f3390565b600054610100900460ff16611fdd57600080fd5b565b600054610100900460ff16611ff357600080fd5b611fdd6120ed565b61085a8282611e4d565b60975460ff1615611fdd5760405162461bcd60e51b815260206004820152601060248201526f14185d5cd8589b194e881c185d5cd95960821b60448201526064016104f1565b61205582826111db565b61085a576120628161210d565b61206d83602061211f565b60405160200161207e929190612b04565b60408051601f198184030181529082905262461bcd60e51b82526104f191600401612b79565b60975460ff16611fdd5760405162461bcd60e51b815260206004820152601460248201527314185d5cd8589b194e881b9bdd081c185d5cd95960621b60448201526064016104f1565b600054610100900460ff1661210157600080fd5b6097805460ff19169055565b606061032a6001600160a01b03831660145b6060600061212e836002612a16565b6121399060026129a0565b67ffffffffffffffff811115612151576121516122ff565b6040519080825280601f01601f19166020018201604052801561217b576020820181803683370190505b509050600360fc1b8160008151811061219657612196612600565b60200101906001600160f81b031916908160001a905350600f60fb1b816001815181106121c5576121c5612600565b60200101906001600160f81b031916908160001a90535060006121e9846002612a16565b6121f49060016129a0565b90505b600181111561226c576f181899199a1a9b1b9c1cb0b131b232b360811b85600f166010811061222857612228612600565b1a60f81b82828151811061223e5761223e612600565b60200101906001600160f81b031916908160001a90535060049490941c9361226581612b8c565b90506121f7565b50831561227857600080fd5b9392505050565b60006020828403121561229157600080fd5b81356001600160e01b03198116811461227857600080fd5b6001600160a01b038116811461109857600080fd5b6000806000606084860312156122d357600080fd5b83356122de816122a9565b925060208401356122ee816122a9565b929592945050506040919091013590565b634e487b7160e01b600052604160045260246000fd5b604051610180810167ffffffffffffffff81118282101715612339576123396122ff565b60405290565b604051601f8201601f1916810167ffffffffffffffff81118282101715612368576123686122ff565b604052919050565b600067ffffffffffffffff82111561238a5761238a6122ff565b5060051b60200190565b600082601f8301126123a557600080fd5b813560206123ba6123b583612370565b61233f565b82815260059290921b840181019181810190868411156123d957600080fd5b8286015b848110156123f457803583529183019183016123dd565b509695505050505050565b60006020828403121561241157600080fd5b813567ffffffffffffffff81111561242857600080fd5b61243484828501612394565b949350505050565b60006020828403121561244e57600080fd5b5035919050565b6000806040838503121561246857600080fd5b82359150602083013561247a816122a9565b809150509250929050565b600081518084526020808501945080840160005b838110156124b557815187529582019590820190600101612499565b509495945050505050565b8281526040602082015260006124346040830184612485565b600080604083850312156124ec57600080fd5b82356124f7816122a9565b9150602083013561247a816122a9565b6000806000806080858703121561251d57600080fd5b8435612528816122a9565b93506020850135612538816122a9565b92506040850135612548816122a9565b91506060850135612558816122a9565b939692955090935050565b60006020828403121561257557600080fd5b8135612278816122a9565b6000806040838503121561259357600080fd5b823561259e816122a9565b9150602083013567ffffffffffffffff8111156125ba57600080fd5b6125c685828601612394565b9150509250929050565b805180151581146125e057600080fd5b919050565b6000602082840312156125f757600080fd5b612278826125d0565b634e487b7160e01b600052603260045260246000fd5b60005b83811015612631578181015183820152602001612619565b83811115612640576000848401525b50505050565b600082601f83011261265757600080fd5b815167ffffffffffffffff811115612671576126716122ff565b612684601f8201601f191660200161233f565b81815284602083860101111561269957600080fd5b612434826020830160208701612616565b80516125e0816122a9565b600082601f8301126126c657600080fd5b815160206126d66123b583612370565b82815260059290921b840181019181810190868411156126f557600080fd5b8286015b848110156123f457805183529183019183016126f9565b60006020828403121561272257600080fd5b815167ffffffffffffffff8082111561273a57600080fd5b90830190610180828603121561274f57600080fd5b612757612315565b8251815260208301518281111561276d57600080fd5b61277987828601612646565b60208301525060408301518281111561279157600080fd5b61279d87828601612646565b6040830152506127af606084016126aa565b60608201526080830151608082015260a083015160a082015260c083015160c082015260e083015160e082015261010080840151838111156127f057600080fd5b6127fc888287016126b5565b828401525050610120808401518381111561281657600080fd5b612822888287016126b5565b828401525050610140808401518381111561283c57600080fd5b612848888287016126b5565b828401525050610160915061285e8284016125d0565b91810191909152949350505050565b634e487b7160e01b600052602160045260246000fd5b634e487b7160e01b600052601160045260246000fd5b6000828210156128ab576128ab612883565b500390565b600181815b808511156128eb5781600019048211156128d1576128d1612883565b808516156128de57918102915b93841c93908002906128b5565b509250929050565b6000826129025750600161032a565b8161290f5750600061032a565b8160018114612925576002811461292f5761294b565b600191505061032a565b60ff84111561294057612940612883565b50506001821b61032a565b5060208310610133831016604e8410600b841016171561296e575081810a61032a565b61297883836128b0565b806000190482111561298c5761298c612883565b029392505050565b600061227883836128f3565b600082198211156129b3576129b3612883565b500190565b60006000198214156129cc576129cc612883565b5060010190565b60018060a01b03841681528260208201526060604082015260006129fa6060830184612485565b95945050505050565b6020815260006122786020830184612485565b6000816000190483118215151615612a3057612a30612883565b500290565b600082612a5257634e487b7160e01b600052601260045260246000fd5b500490565b60008060408385031215612a6a57600080fd5b505080516020909101519092909150565b600060208284031215612a8d57600080fd5b5051919050565b60008151808452612aac816020860160208601612616565b601f01601f19169290920160200192915050565b85815284602082015260a060408201526000612adf60a0830186612a94565b8281036060840152612af18186612a94565b9150508260808301529695505050505050565b7f416363657373436f6e74726f6c3a206163636f756e7420000000000000000000815260008351612b3c816017850160208801612616565b7001034b99036b4b9b9b4b733903937b6329607d1b6017918401918201528351612b6d816028840160208801612616565b01602801949350505050565b6020815260006122786020830184612a94565b600081612b9b57612b9b612883565b50600019019056fe97667070c54ef182b0f5858b034beac1b6f3089aa2d3188bb1e8929f4fa9b929a264697066735822122050ddea0c4e97b5651c832d93dbda86b06cc66a5a50b41ba64c5ce84e0f9c05f664736f6c63430008090033",
  "linkReferences": {},
  "deployedLinkReferences": {}
}