{
  "_format": "hh-sol-artifact-1",
  "contractName": "CommunityPool_V2",
  "sourceName": "contracts/features/CommunityPool_V2.sol",
  "abi": [
    {
      "anonymous": false,
      "inputs": [
        {
          "indexed": false,
          "internalType": "address",
          "name": "account",
          "type": "address"
        },
        {
          "indexed": false,
          "internalType": "uint256",
          "name": "stableTokensIn",
          "type": "uint256"
        },
        {
          "indexed": false,
          "internalType": "uint256",
          "name": "gameTokensOut",
          "type": "uint256"
        },
        {
          "indexed": false,
          "internalType": "uint256",
          "name": "newPrice",
          "type": "uint256"
        }
      ],
      "name": "Buy",
      "type": "event"
    },
    {
      "anonymous": false,
      "inputs": [
        {
          "indexed": false,
          "internalType": "address",
          "name": "account",
          "type": "address"
        },
        {
          "indexed": false,
          "internalType": "uint256",
          "name": "stableTokensIn",
          "type": "uint256"
        },
        {
          "indexed": false,
          "internalType": "uint256",
          "name": "gameTokensBurned",
          "type": "uint256"
        },
        {
          "indexed": false,
          "internalType": "uint256",
          "name": "newPrice",
          "type": "uint256"
        }
      ],
      "name": "BuyAndBurn",
      "type": "event"
    },
    {
      "anonymous": false,
      "inputs": [
        {
          "indexed": false,
          "internalType": "uint8",
          "name": "version",
          "type": "uint8"
        }
      ],
      "name": "Initialized",
      "type": "event"
    },
    {
      "anonymous": false,
      "inputs": [
        {
          "indexed": false,
          "internalType": "address",
          "name": "from",
          "type": "address"
        },
        {
          "indexed": false,
          "internalType": "uint256",
          "name": "gameTokensIn",
          "type": "uint256"
        },
        {
          "indexed": false,
          "internalType": "uint256",
          "name": "stableTokensIn",
          "type": "uint256"
        },
        {
          "indexed": false,
          "internalType": "uint256",
          "name": "newPrice",
          "type": "uint256"
        }
      ],
      "name": "LiquidityAdded",
      "type": "event"
    },
    {
      "anonymous": false,
      "inputs": [
        {
          "indexed": false,
          "internalType": "uint256",
          "name": "price",
          "type": "uint256"
        }
      ],
      "name": "NewPrice",
      "type": "event"
    },
    {
      "anonymous": false,
      "inputs": [
        {
          "indexed": false,
          "internalType": "address",
          "name": "account",
          "type": "address"
        }
      ],
      "name": "Paused",
      "type": "event"
    },
    {
      "anonymous": false,
      "inputs": [
        {
          "indexed": true,
          "internalType": "bytes32",
          "name": "role",
          "type": "bytes32"
        },
        {
          "indexed": true,
          "internalType": "bytes32",
          "name": "previousAdminRole",
          "type": "bytes32"
        },
        {
          "indexed": true,
          "internalType": "bytes32",
          "name": "newAdminRole",
          "type": "bytes32"
        }
      ],
      "name": "RoleAdminChanged",
      "type": "event"
    },
    {
      "anonymous": false,
      "inputs": [
        {
          "indexed": true,
          "internalType": "bytes32",
          "name": "role",
          "type": "bytes32"
        },
        {
          "indexed": true,
          "internalType": "address",
          "name": "account",
          "type": "address"
        },
        {
          "indexed": true,
          "internalType": "address",
          "name": "sender",
          "type": "address"
        }
      ],
      "name": "RoleGranted",
      "type": "event"
    },
    {
      "anonymous": false,
      "inputs": [
        {
          "indexed": true,
          "internalType": "bytes32",
          "name": "role",
          "type": "bytes32"
        },
        {
          "indexed": true,
          "internalType": "address",
          "name": "account",
          "type": "address"
        },
        {
          "indexed": true,
          "internalType": "address",
          "name": "sender",
          "type": "address"
        }
      ],
      "name": "RoleRevoked",
      "type": "event"
    },
    {
      "anonymous": false,
      "inputs": [
        {
          "indexed": false,
          "internalType": "address",
          "name": "account",
          "type": "address"
        },
        {
          "indexed": false,
          "internalType": "uint256",
          "name": "gameTokensIn",
          "type": "uint256"
        },
        {
          "indexed": false,
          "internalType": "uint256",
          "name": "stableTokensOut",
          "type": "uint256"
        },
        {
          "indexed": false,
          "internalType": "uint256",
          "name": "gameTokensBurned",
          "type": "uint256"
        },
        {
          "indexed": false,
          "internalType": "uint256",
          "name": "newPrice",
          "type": "uint256"
        }
      ],
      "name": "Sell",
      "type": "event"
    },
    {
      "anonymous": false,
      "inputs": [
        {
          "indexed": false,
          "internalType": "address",
          "name": "account",
          "type": "address"
        }
      ],
      "name": "Unpaused",
      "type": "event"
    },
    {
      "inputs": [],
      "name": "DEFAULT_ADMIN_ROLE",
      "outputs": [
        {
          "internalType": "bytes32",
          "name": "",
          "type": "bytes32"
        }
      ],
      "stateMutability": "view",
      "type": "function"
    },
    {
      "inputs": [
        {
          "internalType": "uint256",
          "name": "amountOfBct",
          "type": "uint256"
        },
        {
          "internalType": "uint256",
          "name": "amountOfStableTokens",
          "type": "uint256"
        }
      ],
      "name": "addLiquidity",
      "outputs": [],
      "stateMutability": "nonpayable",
      "type": "function"
    },
    {
      "inputs": [],
      "name": "blocklist",
      "outputs": [
        {
          "internalType": "contract IBlocklist",
          "name": "",
          "type": "address"
        }
      ],
      "stateMutability": "view",
      "type": "function"
    },
    {
      "inputs": [
        {
          "internalType": "uint256",
          "name": "amount",
          "type": "uint256"
        }
      ],
      "name": "burnBct",
      "outputs": [],
      "stateMutability": "nonpayable",
      "type": "function"
    },
    {
      "inputs": [
        {
          "internalType": "uint256",
          "name": "amountIn",
          "type": "uint256"
        }
      ],
      "name": "buyAndBurn",
      "outputs": [
        {
          "internalType": "uint256",
          "name": "amountBurned",
          "type": "uint256"
        }
      ],
      "stateMutability": "nonpayable",
      "type": "function"
    },
    {
      "inputs": [
        {
          "internalType": "uint256",
          "name": "gameTokens",
          "type": "uint256"
        }
      ],
      "name": "buyGameTokens",
      "outputs": [
        {
          "internalType": "uint256",
          "name": "stableTokensPaid",
          "type": "uint256"
        }
      ],
      "stateMutability": "nonpayable",
      "type": "function"
    },
    {
      "inputs": [
        {
          "internalType": "uint256",
          "name": "gameTokens",
          "type": "uint256"
        },
        {
          "internalType": "uint256",
          "name": "atPrice",
          "type": "uint256"
        },
        {
          "internalType": "uint256",
          "name": "maxSlippage",
          "type": "uint256"
        }
      ],
      "name": "buyGameTokensAtPrice",
      "outputs": [
        {
          "internalType": "uint256",
          "name": "stableTokensPaid",
          "type": "uint256"
        }
      ],
      "stateMutability": "nonpayable",
      "type": "function"
    },
    {
      "inputs": [],
      "name": "config",
      "outputs": [
        {
          "internalType": "uint8",
          "name": "stasherDiscount",
          "type": "uint8"
        },
        {
          "internalType": "uint8",
          "name": "baseCommunityFee",
          "type": "uint8"
        },
        {
          "internalType": "uint8",
          "name": "closedForMonths",
          "type": "uint8"
        },
        {
          "internalType": "uint8",
          "name": "steepCurveMonths",
          "type": "uint8"
        },
        {
          "internalType": "uint8",
          "name": "maxMonths",
          "type": "uint8"
        }
      ],
      "stateMutability": "view",
      "type": "function"
    },
    {
      "inputs": [],
      "name": "gameToken",
      "outputs": [
        {
          "internalType": "contract MHIERC20",
          "name": "",
          "type": "address"
        }
      ],
      "stateMutability": "view",
      "type": "function"
    },
    {
      "inputs": [],
      "name": "gameTokenReserve",
      "outputs": [
        {
          "internalType": "uint256",
          "name": "",
          "type": "uint256"
        }
      ],
      "stateMutability": "view",
      "type": "function"
    },
    {
      "inputs": [],
      "name": "gasPriceLimit",
      "outputs": [
        {
          "internalType": "uint256",
          "name": "",
          "type": "uint256"
        }
      ],
      "stateMutability": "view",
      "type": "function"
    },
    {
      "inputs": [
        {
          "internalType": "uint256",
          "name": "_amountOut",
          "type": "uint256"
        },
        {
          "internalType": "uint8",
          "name": "stasherLevel",
          "type": "uint8"
        }
      ],
      "name": "getCommunityFeeInWei",
      "outputs": [
        {
          "internalType": "uint256",
          "name": "feeInWei",
          "type": "uint256"
        }
      ],
      "stateMutability": "view",
      "type": "function"
    },
    {
      "inputs": [
        {
          "internalType": "uint8",
          "name": "stasherLevel",
          "type": "uint8"
        }
      ],
      "name": "getCommunityFeePct",
      "outputs": [
        {
          "internalType": "uint256",
          "name": "feeInPct",
          "type": "uint256"
        }
      ],
      "stateMutability": "view",
      "type": "function"
    },
    {
      "inputs": [],
      "name": "getPrice",
      "outputs": [
        {
          "internalType": "uint256",
          "name": "_price",
          "type": "uint256"
        }
      ],
      "stateMutability": "view",
      "type": "function"
    },
    {
      "inputs": [],
      "name": "getReserves",
      "outputs": [
        {
          "internalType": "uint256",
          "name": "_gameTokenReserve",
          "type": "uint256"
        },
        {
          "internalType": "uint256",
          "name": "_stableTokenReserve",
          "type": "uint256"
        }
      ],
      "stateMutability": "view",
      "type": "function"
    },
    {
      "inputs": [
        {
          "internalType": "bytes32",
          "name": "role",
          "type": "bytes32"
        }
      ],
      "name": "getRoleAdmin",
      "outputs": [
        {
          "internalType": "bytes32",
          "name": "",
          "type": "bytes32"
        }
      ],
      "stateMutability": "view",
      "type": "function"
    },
    {
      "inputs": [
        {
          "internalType": "uint256",
          "name": "bctOut",
          "type": "uint256"
        }
      ],
      "name": "getStableTokensIn",
      "outputs": [
        {
          "internalType": "uint256",
          "name": "stableTokensIn",
          "type": "uint256"
        }
      ],
      "stateMutability": "view",
      "type": "function"
    },
    {
      "inputs": [
        {
          "internalType": "bytes32",
          "name": "role",
          "type": "bytes32"
        },
        {
          "internalType": "address",
          "name": "account",
          "type": "address"
        }
      ],
      "name": "grantRole",
      "outputs": [],
      "stateMutability": "nonpayable",
      "type": "function"
    },
    {
      "inputs": [],
      "name": "hasBlocklist",
      "outputs": [
        {
          "internalType": "bool",
          "name": "",
          "type": "bool"
        }
      ],
      "stateMutability": "view",
      "type": "function"
    },
    {
      "inputs": [
        {
          "internalType": "bytes32",
          "name": "role",
          "type": "bytes32"
        },
        {
          "internalType": "address",
          "name": "account",
          "type": "address"
        }
      ],
      "name": "hasRole",
      "outputs": [
        {
          "internalType": "bool",
          "name": "",
          "type": "bool"
        }
      ],
      "stateMutability": "view",
      "type": "function"
    },
    {
      "inputs": [
        {
          "internalType": "address",
          "name": "_operator",
          "type": "address"
        },
        {
          "internalType": "address",
          "name": "_gameToken",
          "type": "address"
        },
        {
          "internalType": "address",
          "name": "_stableToken",
          "type": "address"
        },
        {
          "internalType": "address",
          "name": "_stasher",
          "type": "address"
        },
        {
          "internalType": "uint256",
          "name": "_startBlock",
          "type": "uint256"
        }
      ],
      "name": "initialize",
      "outputs": [],
      "stateMutability": "nonpayable",
      "type": "function"
    },
    {
      "inputs": [],
      "name": "isOpenForSelling",
      "outputs": [
        {
          "internalType": "bool",
          "name": "",
          "type": "bool"
        }
      ],
      "stateMutability": "pure",
      "type": "function"
    },
    {
      "inputs": [],
      "name": "lockPeriod",
      "outputs": [
        {
          "internalType": "uint256",
          "name": "",
          "type": "uint256"
        }
      ],
      "stateMutability": "view",
      "type": "function"
    },
    {
      "inputs": [],
      "name": "pause",
      "outputs": [],
      "stateMutability": "nonpayable",
      "type": "function"
    },
    {
      "inputs": [],
      "name": "paused",
      "outputs": [
        {
          "internalType": "bool",
          "name": "",
          "type": "bool"
        }
      ],
      "stateMutability": "view",
      "type": "function"
    },
    {
      "inputs": [
        {
          "internalType": "uint256",
          "name": "gameTokensToBuy",
          "type": "uint256"
        }
      ],
      "name": "quoteBuyGameTokens",
      "outputs": [
        {
          "internalType": "uint256",
          "name": "costInStableTokens",
          "type": "uint256"
        }
      ],
      "stateMutability": "view",
      "type": "function"
    },
    {
      "inputs": [
        {
          "internalType": "uint256",
          "name": "gameTokens",
          "type": "uint256"
        }
      ],
      "name": "quoteGameToStableTokens",
      "outputs": [
        {
          "internalType": "uint256",
          "name": "stableTokens",
          "type": "uint256"
        }
      ],
      "stateMutability": "view",
      "type": "function"
    },
    {
      "inputs": [
        {
          "internalType": "uint256",
          "name": "gameTokensToSell",
          "type": "uint256"
        }
      ],
      "name": "quoteSellGameTokens",
      "outputs": [
        {
          "internalType": "uint256",
          "name": "stableTokensOut",
          "type": "uint256"
        },
        {
          "internalType": "uint256",
          "name": "feeInWei",
          "type": "uint256"
        }
      ],
      "stateMutability": "view",
      "type": "function"
    },
    {
      "inputs": [
        {
          "internalType": "uint256",
          "name": "gameTokensToSell",
          "type": "uint256"
        },
        {
          "internalType": "address",
          "name": "account",
          "type": "address"
        }
      ],
      "name": "quoteSellGameTokensFor",
      "outputs": [
        {
          "internalType": "uint256",
          "name": "stableTokensOut",
          "type": "uint256"
        },
        {
          "internalType": "uint256",
          "name": "feeInWei",
          "type": "uint256"
        }
      ],
      "stateMutability": "view",
      "type": "function"
    },
    {
      "inputs": [
        {
          "internalType": "uint256",
          "name": "stableTokens",
          "type": "uint256"
        }
      ],
      "name": "quoteStableToGameTokens",
      "outputs": [
        {
          "internalType": "uint256",
          "name": "gameTokens",
          "type": "uint256"
        }
      ],
      "stateMutability": "view",
      "type": "function"
    },
    {
      "inputs": [
        {
          "internalType": "address",
          "name": "tokenAddress",
          "type": "address"
        },
        {
          "internalType": "address",
          "name": "to",
          "type": "address"
        },
        {
          "internalType": "uint256",
          "name": "amount",
          "type": "uint256"
        }
      ],
      "name": "recoverERC20",
      "outputs": [],
      "stateMutability": "nonpayable",
      "type": "function"
    },
    {
      "inputs": [
        {
          "internalType": "address",
          "name": "tokenAddress",
          "type": "address"
        },
        {
          "internalType": "address",
          "name": "to",
          "type": "address"
        },
        {
          "internalType": "uint256",
          "name": "tokenId",
          "type": "uint256"
        }
      ],
      "name": "recoverERC721",
      "outputs": [],
      "stateMutability": "nonpayable",
      "type": "function"
    },
    {
      "inputs": [
        {
          "internalType": "bytes32",
          "name": "role",
          "type": "bytes32"
        },
        {
          "internalType": "address",
          "name": "account",
          "type": "address"
        }
      ],
      "name": "renounceRole",
      "outputs": [],
      "stateMutability": "nonpayable",
      "type": "function"
    },
    {
      "inputs": [],
      "name": "resetBlocklist",
      "outputs": [],
      "stateMutability": "nonpayable",
      "type": "function"
    },
    {
      "inputs": [
        {
          "internalType": "bytes32",
          "name": "role",
          "type": "bytes32"
        },
        {
          "internalType": "address",
          "name": "account",
          "type": "address"
        }
      ],
      "name": "revokeRole",
      "outputs": [],
      "stateMutability": "nonpayable",
      "type": "function"
    },
    {
      "inputs": [
        {
          "internalType": "uint256",
          "name": "gameTokens",
          "type": "uint256"
        }
      ],
      "name": "sellGameTokens",
      "outputs": [
        {
          "internalType": "uint256",
          "name": "stableTokensOut",
          "type": "uint256"
        }
      ],
      "stateMutability": "nonpayable",
      "type": "function"
    },
    {
      "inputs": [
        {
          "internalType": "uint256",
          "name": "gameTokens",
          "type": "uint256"
        },
        {
          "internalType": "uint256",
          "name": "atPrice",
          "type": "uint256"
        },
        {
          "internalType": "uint256",
          "name": "maxSlippage",
          "type": "uint256"
        }
      ],
      "name": "sellGameTokensAtPrice",
      "outputs": [
        {
          "internalType": "uint256",
          "name": "stableTokensOut",
          "type": "uint256"
        }
      ],
      "stateMutability": "nonpayable",
      "type": "function"
    },
    {
      "inputs": [
        {
          "internalType": "address",
          "name": "_blocklist",
          "type": "address"
        }
      ],
      "name": "setBlocklist",
      "outputs": [],
      "stateMutability": "nonpayable",
      "type": "function"
    },
    {
      "inputs": [
        {
          "components": [
            {
              "internalType": "uint8",
              "name": "stasherDiscount",
              "type": "uint8"
            },
            {
              "internalType": "uint8",
              "name": "baseCommunityFee",
              "type": "uint8"
            },
            {
              "internalType": "uint8",
              "name": "closedForMonths",
              "type": "uint8"
            },
            {
              "internalType": "uint8",
              "name": "steepCurveMonths",
              "type": "uint8"
            },
            {
              "internalType": "uint8",
              "name": "maxMonths",
              "type": "uint8"
            }
          ],
          "internalType": "struct CommunityPool_V2.Config",
          "name": "_config",
          "type": "tuple"
        }
      ],
      "name": "setConfig",
      "outputs": [],
      "stateMutability": "nonpayable",
      "type": "function"
    },
    {
      "inputs": [
        {
          "internalType": "address",
          "name": "_gameToken",
          "type": "address"
        }
      ],
      "name": "setGameToken",
      "outputs": [],
      "stateMutability": "nonpayable",
      "type": "function"
    },
    {
      "inputs": [
        {
          "internalType": "uint256",
          "name": "_gasLimit",
          "type": "uint256"
        }
      ],
      "name": "setGasPriceLimit",
      "outputs": [],
      "stateMutability": "nonpayable",
      "type": "function"
    },
    {
      "inputs": [
        {
          "internalType": "uint256",
          "name": "blocks",
          "type": "uint256"
        }
      ],
      "name": "setLockPeriod",
      "outputs": [],
      "stateMutability": "nonpayable",
      "type": "function"
    },
    {
      "inputs": [
        {
          "internalType": "address",
          "name": "_stableToken",
          "type": "address"
        }
      ],
      "name": "setStableToken",
      "outputs": [],
      "stateMutability": "nonpayable",
      "type": "function"
    },
    {
      "inputs": [
        {
          "internalType": "uint256",
          "name": "_startBlock",
          "type": "uint256"
        }
      ],
      "name": "setStartBlock",
      "outputs": [],
      "stateMutability": "nonpayable",
      "type": "function"
    },
    {
      "inputs": [
        {
          "internalType": "address",
          "name": "_stasherAddress",
          "type": "address"
        }
      ],
      "name": "setStasher",
      "outputs": [],
      "stateMutability": "nonpayable",
      "type": "function"
    },
    {
      "inputs": [],
      "name": "stableToken",
      "outputs": [
        {
          "internalType": "contract MHIERC20",
          "name": "",
          "type": "address"
        }
      ],
      "stateMutability": "view",
      "type": "function"
    },
    {
      "inputs": [],
      "name": "stableTokenReserve",
      "outputs": [
        {
          "internalType": "uint256",
          "name": "",
          "type": "uint256"
        }
      ],
      "stateMutability": "view",
      "type": "function"
    },
    {
      "inputs": [],
      "name": "startBlock",
      "outputs": [
        {
          "internalType": "uint256",
          "name": "",
          "type": "uint256"
        }
      ],
      "stateMutability": "view",
      "type": "function"
    },
    {
      "inputs": [],
      "name": "stasher",
      "outputs": [
        {
          "internalType": "contract IStasher",
          "name": "",
          "type": "address"
        }
      ],
      "stateMutability": "view",
      "type": "function"
    },
    {
      "inputs": [
        {
          "internalType": "bytes4",
          "name": "interfaceId",
          "type": "bytes4"
        }
      ],
      "name": "supportsInterface",
      "outputs": [
        {
          "internalType": "bool",
          "name": "",
          "type": "bool"
        }
      ],
      "stateMutability": "view",
      "type": "function"
    },
    {
      "inputs": [],
      "name": "unpause",
      "outputs": [],
      "stateMutability": "nonpayable",
      "type": "function"
    }
  ],
  "bytecode": "0x608060405234801561001057600080fd5b506128f3806100206000396000f3fe608060405234801561001057600080fd5b50600436106102f15760003560e01c80638e28d9991161019d578063aef18ae7116100e9578063db1bc87b116100a2578063f7013ef61161007c578063f7013ef6146106af578063fc83424a146106c2578063fddd5198146106d5578063ffe7ff7b146106e857600080fd5b8063db1bc87b14610676578063e76a962714610689578063f35e4a6e1461069c57600080fd5b8063aef18ae714610618578063b00a29221461062b578063c2c7a9f914610634578063c3dfdae61461063d578063d547741f14610650578063d64e53961461066357600080fd5b80639cd441da11610156578063a217fddf11610130578063a217fddf146105d7578063a4c4cffa146105df578063a70db671146105f2578063a9d75b2b1461060557600080fd5b80639cd441da146105865780639e97736f146105995780639f57891d146105ac57600080fd5b80638e28d9991461052957806391d148541461053c5780639327f04e1461054f578063961a929c1461056257806398d5fdca1461056b578063994399961461057357600080fd5b80633c7fd8221161025c578063634210f411610215578063779972da116101ef578063779972da1461049257806379502c55146104a557806380d29e661461050e5780638456cb591461052157600080fd5b8063634210f414610458578063704a0ff51461046c578063778226731461047f57600080fd5b80633c7fd822146104185780633f4ba83a146104205780633fd8b02f146104285780634429bf9b1461043157806348cd4cb1146104445780635c975abb1461044d57600080fd5b8063248a9ca3116102ae578063248a9ca3146103965780632cdf2c35146103b95780632f2ff15d146103cc57806334e6436c146103df57806336568abe146103f257806338de0d061461040557600080fd5b806301ffc9a7146102f65780630902f1ac1461031e578063092316021461033a5780630aac7ccf1461034f5780631171bda9146103705780632394e46d14610383575b600080fd5b6103096103043660046122b6565b6106ef565b60405190151581526020015b60405180910390f35b60d05460d1545b60408051928352602083019190915201610315565b61034d6103483660046122e0565b610726565b005b61036261035d366004612308565b61074b565b604051908152602001610315565b61034d61037e366004612354565b610777565b610362610391366004612390565b610818565b6103626103a43660046122e0565b60009081526069602052604090206001015490565b61034d6103c7366004612354565b610973565b61034d6103da3660046123bc565b6109f3565b6103626103ed3660046122e0565b610a1d565b61034d6104003660046123bc565b610d0f565b6103256104133660046122e0565b610d2e565b61034d610d44565b61034d610d74565b61036260005481565b61036261043f3660046122e0565b610d94565b61036260d25481565b609b5460ff16610309565b60045461030990600160a01b900460ff1681565b61036261047a3660046122e0565b610e68565b61034d61048d3660046122e0565b610ec5565b61034d6104a03660046122e0565b610fad565b60d3546104da9060ff808216916101008104821691620100008204811691630100000081048216916401000000009091041685565b6040805160ff968716815294861660208601529285169284019290925283166060830152909116608082015260a001610315565b61034d61051c3660046123e8565b610fce565b61034d611009565b61034d610537366004612403565b611029565b61030961054a3660046123bc565b611054565b61034d61055d3660046123e8565b61107f565b61036260035481565b6103626110ba565b6103626105813660046122e0565b6110d2565b61034d61059436600461241b565b611128565b6103626105a736600461243d565b611336565b60cd546105bf906001600160a01b031681565b6040516001600160a01b039091168152602001610315565b610362600081565b6103626105ed3660046122e0565b611375565b6103256106003660046123bc565b611422565b60cf546105bf906001600160a01b031681565b61034d6106263660046123e8565b61143a565b61036260d15481565b61036260d05481565b60ce546105bf906001600160a01b031681565b61034d61065e3660046123bc565b61147d565b6004546105bf906001600160a01b031681565b61034d6106843660046123e8565b6114a2565b6103626106973660046122e0565b6114dd565b61034d6106aa3660046122e0565b6114ef565b61034d6106bd36600461245a565b61150d565b6103626106d03660046122e0565b6116f8565b6103626106e3366004612390565b6117bc565b6000610309565b60006001600160e01b03198216637965db0b60e01b148061072057506301ffc9a760e01b6001600160e01b03198316145b92915050565b60008051602061287e83398151915261073e816118fa565b61074782600355565b5050565b60008061075783611336565b9050606461076582866124cc565b61076f91906124eb565b949350505050565b60008051602061287e83398151915261078f816118fa565b60405163a9059cbb60e01b81526001600160a01b0384811660048301526024820184905285169063a9059cbb90604401602060405180830381600087803b1580156107d957600080fd5b505af11580156107ed573d6000803e3d6000fd5b505050506040513d601f19601f82011682018060405250810190610811919061250d565b5050505050565b60025460009060ff16156108475760405162461bcd60e51b815260040161083e9061252f565b60405180910390fd5b6002805460ff1916600117905561085c611904565b6003543a111561087e5760405162461bcd60e51b815260040161083e9061254e565b61088733611916565b156108a45760405162461bcd60e51b815260040161083e90612570565b336000908152600160205260409020544310156108d35760405162461bcd60e51b815260040161083e90612595565b6108dc336119b1565b60006108e66110ba565b905060006103e86108f785876124cc565b61090191906124eb565b61090b90866125b7565b9050808210156109565760405162461bcd60e51b81526020600482015260166024820152750a0e4d2c6ca40c6d0c2dccecac840e8dede40daeac6d60531b604482015260640161083e565b61095f866119da565b6002805460ff191690559695505050505050565b60008051602061287e83398151915261098b816118fa565b604051632142170760e11b81526001600160a01b038516906342842e0e906109bb903090879087906004016125ce565b600060405180830381600087803b1580156109d557600080fd5b505af11580156109e9573d6000803e3d6000fd5b5050505050505050565b600082815260696020526040902060010154610a0e816118fa565b610a188383611bd6565b505050565b60025460009060ff1615610a435760405162461bcd60e51b815260040161083e9061252f565b6002805460ff191660011790557f73e573f9566d61418a34d5de3ff49360f9c51fec37f7486551670290f6285dab610a7a816118fa565b60008311610ac05760405162461bcd60e51b8152602060048201526013602482015272125b9cdd59999a58da595b9d08105b5bdd5b9d606a1b604482015260640161083e565b610ac9836110d2565b60cf546040516323b872dd60e01b81529193506001600160a01b0316906323b872dd90610afe903390309088906004016125ce565b600060405180830381600087803b158015610b1857600080fd5b505af1158015610b2c573d6000803e3d6000fd5b505060ce54604051630852cd8d60e31b8152600481018690526001600160a01b0390911692506342966c689150602401600060405180830381600087803b158015610b7657600080fd5b505af1158015610b8a573d6000803e3d6000fd5b505060ce546040516370a0823160e01b8152306004820152610c9493506001600160a01b0390911691506370a08231906024015b60206040518083038186803b158015610bd657600080fd5b505afa158015610bea573d6000803e3d6000fd5b505050506040513d601f19601f82011682018060405250810190610c0e91906125f2565b60cf546040516370a0823160e01b81523060048201526001600160a01b03909116906370a082319060240160206040518083038186803b158015610c5157600080fd5b505afa158015610c65573d6000803e3d6000fd5b505050506040513d601f19601f82011682018060405250810190610c8991906125f2565b60d09190915560d155565b6000610c9e6110ba565b90507f0f960106459651f5920865daf08e328c57639961da0b3ea82d647c11ee0ec88233858584604051610cd5949392919061260b565b60405180910390a160405181815260008051602061289e8339815191529060200160405180910390a150506002805460ff19169055919050565b6001600160a01b0381163314610d2457600080fd5b6107478282611c5c565b600080610d3b8333611cc3565b91509150915091565b60008051602061287e833981519152610d5c816118fa565b610d71600480546001600160a81b0319169055565b50565b60008051602061287e833981519152610d8c816118fa565b610d71611dc2565b60025460009060ff1615610dba5760405162461bcd60e51b815260040161083e9061252f565b6002805460ff19166001179055610dcf611904565b6003543a1115610df15760405162461bcd60e51b815260040161083e9061254e565b610dfa33611916565b15610e175760405162461bcd60e51b815260040161083e90612570565b33600090815260016020526040902054431015610e465760405162461bcd60e51b815260040161083e90612595565b610e4f336119b1565b610e5882611e14565b6002805460ff1916905592915050565b6000806000610e7a60d05460d1549091565b9092509050610e898483612631565b610e9385836124cc565b610e9d91906124eb565b9250808310610ebe5760405162461bcd60e51b815260040161083e90612649565b5050919050565b7f73e573f9566d61418a34d5de3ff49360f9c51fec37f7486551670290f6285dab610eef816118fa565b60ce54604051630852cd8d60e31b8152600481018490526001600160a01b03909116906342966c6890602401600060405180830381600087803b158015610f3557600080fd5b505af1158015610f49573d6000803e3d6000fd5b505060ce546040516370a0823160e01b8152306004820152610f8193506001600160a01b0390911691506370a0823190602401610bbe565b60008051602061289e833981519152610f986110ba565b60405190815260200160405180910390a15050565b60008051602061287e833981519152610fc5816118fa565b61074782600055565b60008051602061287e833981519152610fe6816118fa565b5060ce80546001600160a01b0319166001600160a01b0392909216919091179055565b60008051602061287e833981519152611021816118fa565b610d71611ffc565b60008051602061287e833981519152611041816118fa565b8160d361104e8282612686565b50505050565b60009182526069602090815260408084206001600160a01b0393909316845291905290205460ff1690565b60008051602061287e833981519152611097816118fa565b5060cd80546001600160a01b0319166001600160a01b0392909216919091179055565b60006110cd670de0b6b3a7640000611375565b905090565b60008060006110e460d05460d1549091565b90925090506110f38482612631565b6110fd85846124cc565b61110791906124eb565b9250818310610ebe5760405162461bcd60e51b815260040161083e90612649565b611130611904565b60008061114060d05460d1549091565b9150915060008211806111535750600081115b156111b95761116282846124cc565b61116c82866124cc565b146111b95760405162461bcd60e51b815260206004820152601d60248201527f556e62616c616e636564204c69717569646974792050726f7669646564000000604482015260640161083e565b83156112265760ce546040516323b872dd60e01b81526001600160a01b03909116906323b872dd906111f3903390309089906004016125ce565b600060405180830381600087803b15801561120d57600080fd5b505af1158015611221573d6000803e3d6000fd5b505050505b82156112935760cf546040516323b872dd60e01b81526001600160a01b03909116906323b872dd90611260903390309088906004016125ce565b600060405180830381600087803b15801561127a57600080fd5b505af115801561128e573d6000803e3d6000fd5b505050505b60ce546040516370a0823160e01b81523060048201526112c5916001600160a01b0316906370a0823190602401610bbe565b60006112cf6110ba565b90507f64b83944e79c3ce8d4c297411de637c3e102d064677aac0c163976ebdcd6f50e33868684604051611306949392919061260b565b60405180910390a160405181815260008051602061289e8339815191529060200160405180910390a15050505050565b600060405162461bcd60e51b8152602060048201526012602482015271436c6f73656420666f722073656c6c696e6760701b604482015260640161083e565b6000670de0b6b3a76400008210156113c65760405162461bcd60e51b8152602060048201526014602482015273135a5b9a5b5d5b48189d5e481a5cc80c481090d560621b604482015260640161083e565b6000806113d660d05460d1549091565b915091508184106113f95760405162461bcd60e51b815260040161083e90612649565b61140384836125b7565b61140d85836124cc565b61141791906124eb565b61076f906001612631565b60008061142f8484611cc3565b915091509250929050565b60008051602061287e833981519152611452816118fa565b61074782600480546001600160a81b0319166001600160a01b0390921691909117600160a01b179055565b600082815260696020526040902060010154611498816118fa565b610a188383611c5c565b60008051602061287e8339815191526114ba816118fa565b5060cf80546001600160a01b0319166001600160a01b0392909216919091179055565b60008060006113d660d05460d1549091565b60008051602061287e833981519152611507816118fa565b5060d255565b600454600160b01b900460ff161580801561153557506004546001600160a81b90910460ff16105b806115565750303b1580156115565750600454600160a81b900460ff166001145b6115865760405162461bcd60e51b81526020600482015260016024820152603760f91b604482015260640161083e565b6004805460ff60a81b1916600160a81b17905580156115b3576004805460ff60b01b1916600160b01b1790555b6115bb612039565b6115c361204f565b6115ce60008761206d565b6115e660008051602061287e8339815191528761206d565b6116107f73e573f9566d61418a34d5de3ff49360f9c51fec37f7486551670290f6285dab8761206d565b60ce80546001600160a01b03199081166001600160a01b038881169190911790925560cf8054821687841617905560cd80549091169185169190911790556040805160a081018252600481526046602082015260029181019190915260036060820152600e60809091015260d3805464ffffffffff1916640e0302460417905560d282905560c86000556116a864012a05f200600355565b80156116f0576004805460ff60b01b19169055604051600181527f7f26b83ff96e1f2b6a682f133852f6798a09c465da95921460cefb38474024989060200160405180910390a15b505050505050565b60025460009060ff161561171e5760405162461bcd60e51b815260040161083e9061252f565b6002805460ff19166001179055611733611904565b6003543a11156117555760405162461bcd60e51b815260040161083e9061254e565b61175e33611916565b1561177b5760405162461bcd60e51b815260040161083e90612570565b336000908152600160205260409020544310156117aa5760405162461bcd60e51b815260040161083e90612595565b6117b3336119b1565b610e58826119da565b60025460009060ff16156117e25760405162461bcd60e51b815260040161083e9061252f565b6002805460ff191660011790556117f7611904565b6003543a11156118195760405162461bcd60e51b815260040161083e9061254e565b61182233611916565b1561183f5760405162461bcd60e51b815260040161083e90612570565b3360009081526001602052604090205443101561186e5760405162461bcd60e51b815260040161083e90612595565b611877336119b1565b60006118816110ba565b905060006103e861189285876124cc565b61189c91906124eb565b6118a69086612631565b9050808211156118f15760405162461bcd60e51b81526020600482015260166024820152750a0e4d2c6ca40c6d0c2dccecac840e8dede40daeac6d60531b604482015260640161083e565b61095f86611e14565b610d718133612077565b609b5460ff161561191457600080fd5b565b600454600090600160a01b900460ff1661193257506000919050565b60048054604051638e204c4360e01b81526001600160a01b0385811693820193909352911690638e204c439060240160206040518083038186803b15801561197957600080fd5b505afa15801561198d573d6000803e3d6000fd5b505050506040513d601f19601f82011682018060405250810190610720919061250d565b6000546119be9043612631565b6001600160a01b03909116600090815260016020526040902055565b6000808211611a215760405162461bcd60e51b8152602060048201526013602482015272125b9cdd59999a58da595b9d08105b5bdd5b9d606a1b604482015260640161083e565b600080611a2d84610d2e565b60ce546040516323b872dd60e01b81529295508594509092506001600160a01b0316906323b872dd90611a68903390309089906004016125ce565b600060405180830381600087803b158015611a8257600080fd5b505af1158015611a96573d6000803e3d6000fd5b505060cf5460405163a9059cbb60e01b8152336004820152602481018790526001600160a01b03909116925063a9059cbb9150604401602060405180830381600087803b158015611ae657600080fd5b505af1158015611afa573d6000803e3d6000fd5b505050506040513d601f19601f82011682018060405250810190611b1e919061250d565b5060ce546040516370a0823160e01b8152306004820152611b51916001600160a01b0316906370a0823190602401610bbe565b6000611b5b6110ba565b604080513381526020810188905290810186905260608101849052608081018290529091507f483f8aec0fd892ac72ad1ba8d0e9c9e73db59c12d263fd71de480b5b3deeae3c9060a00160405180910390a160405181815260008051602061289e8339815191529060200160405180910390a1505050919050565b611be08282611054565b6107475760008281526069602090815260408083206001600160a01b03851684529091529020805460ff19166001179055611c183390565b6001600160a01b0316816001600160a01b0316837f2f8788117e7eff1d82e926ec794901d17c78024a50270940304540a733656f0d60405160405180910390a45050565b611c668282611054565b156107475760008281526069602090815260408083206001600160a01b0385168085529252808320805460ff1916905551339285917ff6391f5c32d9c69d2a47ea670b442974b53935d1edc7fd64eb21e047a839171b9190a45050565b600080600080611cd660d05460d1549091565b90925090506000611ce78784612631565b611cf188846124cc565b611cfb91906124eb565b60cd54604051635c138c9d60e01b81526001600160a01b03898116600483015292935060009290911690635c138c9d9060240160206040518083038186803b158015611d4657600080fd5b505afa158015611d5a573d6000803e3d6000fd5b505050506040513d601f19601f82011682018060405250810190611d7e9190612749565b9050611d8a828261074b565b9450611d9685836125b7565b9550828610611db75760405162461bcd60e51b815260040161083e90612649565b505050509250929050565b611dca6120d0565b609b805460ff191690557f5db9ee0a495bf2e6ff9c91a7834c1ba4fdd244a5e8aa4e537bd38aeae4b073aa335b6040516001600160a01b03909116815260200160405180910390a1565b6000670de0b6b3a7640000821015611e655760405162461bcd60e51b8152602060048201526014602482015273135a5b9a5b5d5b48189d5e481a5cc80c481090d560621b604482015260640161083e565b611e6e82611375565b60cf546040516323b872dd60e01b81529192506001600160a01b0316906323b872dd90611ea3903390309086906004016125ce565b600060405180830381600087803b158015611ebd57600080fd5b505af1158015611ed1573d6000803e3d6000fd5b505060ce5460405163a9059cbb60e01b8152336004820152602481018690526001600160a01b03909116925063a9059cbb9150604401602060405180830381600087803b158015611f2157600080fd5b505af1158015611f35573d6000803e3d6000fd5b505050506040513d601f19601f82011682018060405250810190611f59919061250d565b5060ce546040516370a0823160e01b8152306004820152611f8c916001600160a01b0316906370a0823190602401610bbe565b6000611f966110ba565b90507fbeae048c6d270d9469f86cf6e8fedda3c60ad770f16c24c9fc131c8e9a09101d33848484604051611fcd949392919061260b565b60405180910390a160405181815260008051602061289e8339815191529060200160405180910390a150919050565b612004611904565b609b805460ff191660011790557f62e78cea01bee320cd4e420270b5ea74000d11b0c9f74754ebdbfc544b05a258611df73390565b600454600160b01b900460ff1661191457600080fd5b600454600160b01b900460ff1661206557600080fd5b6119146120df565b6107478282611bd6565b6120818282611054565b6107475761208e81612101565b612099836020612113565b6040516020016120aa929190612792565b60408051601f198184030181529082905262461bcd60e51b825261083e91600401612807565b609b5460ff1661191457600080fd5b600454600160b01b900460ff166120f557600080fd5b609b805460ff19169055565b60606107206001600160a01b03831660145b606060006121228360026124cc565b61212d906002612631565b67ffffffffffffffff8111156121455761214561283a565b6040519080825280601f01601f19166020018201604052801561216f576020820181803683370190505b509050600360fc1b8160008151811061218a5761218a612850565b60200101906001600160f81b031916908160001a905350600f60fb1b816001815181106121b9576121b9612850565b60200101906001600160f81b031916908160001a90535060006121dd8460026124cc565b6121e8906001612631565b90505b6001811115612260576f181899199a1a9b1b9c1cb0b131b232b360811b85600f166010811061221c5761221c612850565b1a60f81b82828151811061223257612232612850565b60200101906001600160f81b031916908160001a90535060049490941c9361225981612866565b90506121eb565b5083156122af5760405162461bcd60e51b815260206004820181905260248201527f537472696e67733a20686578206c656e67746820696e73756666696369656e74604482015260640161083e565b9392505050565b6000602082840312156122c857600080fd5b81356001600160e01b0319811681146122af57600080fd5b6000602082840312156122f257600080fd5b5035919050565b60ff81168114610d7157600080fd5b6000806040838503121561231b57600080fd5b82359150602083013561232d816122f9565b809150509250929050565b80356001600160a01b038116811461234f57600080fd5b919050565b60008060006060848603121561236957600080fd5b61237284612338565b925061238060208501612338565b9150604084013590509250925092565b6000806000606084860312156123a557600080fd5b505081359360208301359350604090920135919050565b600080604083850312156123cf57600080fd5b823591506123df60208401612338565b90509250929050565b6000602082840312156123fa57600080fd5b6122af82612338565b600060a0828403121561241557600080fd5b50919050565b6000806040838503121561242e57600080fd5b50508035926020909101359150565b60006020828403121561244f57600080fd5b81356122af816122f9565b600080600080600060a0868803121561247257600080fd5b61247b86612338565b945061248960208701612338565b935061249760408701612338565b92506124a560608701612338565b949793965091946080013592915050565b634e487b7160e01b600052601160045260246000fd5b60008160001904831182151516156124e6576124e66124b6565b500290565b60008261250857634e487b7160e01b600052601260045260246000fd5b500490565b60006020828403121561251f57600080fd5b815180151581146122af57600080fd5b6020808252600590820152640daeae8caf60db1b604082015260600190565b6020808252600890820152670cec2e664d0d2ced60c31b604082015260600190565b6020808252600b908201526a109b1bd8dadb1a5cdd195960aa1b604082015260600190565b60208082526008908201526731b7b7b63237bbb760c11b604082015260600190565b6000828210156125c9576125c96124b6565b500390565b6001600160a01b039384168152919092166020820152604081019190915260600190565b60006020828403121561260457600080fd5b5051919050565b6001600160a01b0394909416845260208401929092526040830152606082015260800190565b60008219821115612644576126446124b6565b500190565b602080825260169082015275496e73756666696369656e74204c697175696469747960501b604082015260600190565b60008135610720816122f9565b8135612691816122f9565b60ff8116905081548160ff19821617835560208401356126b0816122f9565b61ff008160081b169050808361ffff1984161717845560408501356126d4816122f9565b62ff00008160101b1690508362ffffff1984161793508084831717855560608601359250612701836122f9565b63ff0000008360181b1663ff000000198516831782171785555050505061074761272d60808401612679565b825464ff00000000191660209190911b64ff0000000016178255565b60006020828403121561275b57600080fd5b81516122af816122f9565b60005b83811015612781578181015183820152602001612769565b8381111561104e5750506000910152565b7f416363657373436f6e74726f6c3a206163636f756e74200000000000000000008152600083516127ca816017850160208801612766565b7001034b99036b4b9b9b4b733903937b6329607d1b60179184019182015283516127fb816028840160208801612766565b01602801949350505050565b6020815260008251806020840152612826816040850160208701612766565b601f01601f19169190910160400192915050565b634e487b7160e01b600052604160045260246000fd5b634e487b7160e01b600052603260045260246000fd5b600081612875576128756124b6565b50600019019056fe97667070c54ef182b0f5858b034beac1b6f3089aa2d3188bb1e8929f4fa9b929270b316b51ab2cf3a3bb8ca4d22e76a327d05e762fcaa8bd6afaf8cfde9270b7a26469706673582212206e67bca58077993d2cbcd95400fdc9cf1ee1c07fcaffb8552b379a38eae67ed964736f6c63430008090033",
  "linkReferences": {},
  "deployedLinkReferences": {}
}