{
  "_format": "hh-sol-artifact-1",
  "contractName": "BkCommonwealthFund",
  "sourceName": "contracts/features/BkCommonwealthFund.sol",
  "abi": [
    {
      "anonymous": false,
      "inputs": [
        {
          "indexed": false,
          "internalType": "address",
          "name": "from",
          "type": "address"
        },
        {
          "indexed": false,
          "internalType": "uint256",
          "name": "amount",
          "type": "uint256"
        },
        {
          "indexed": false,
          "internalType": "uint256",
          "name": "totalStabletokensAdded",
          "type": "uint256"
        }
      ],
      "name": "AddStabletokensToPool",
      "type": "event"
    },
    {
      "anonymous": false,
      "inputs": [
        {
          "indexed": false,
          "internalType": "address",
          "name": "from",
          "type": "address"
        },
        {
          "indexed": false,
          "internalType": "uint256",
          "name": "amount",
          "type": "uint256"
        },
        {
          "indexed": false,
          "internalType": "uint256",
          "name": "totalBurnedBct",
          "type": "uint256"
        }
      ],
      "name": "BurnBctFromPool",
      "type": "event"
    },
    {
      "anonymous": false,
      "inputs": [
        {
          "indexed": false,
          "internalType": "address",
          "name": "from",
          "type": "address"
        },
        {
          "indexed": false,
          "internalType": "uint256",
          "name": "lastFlowBlock",
          "type": "uint256"
        },
        {
          "indexed": false,
          "internalType": "uint256",
          "name": "priceBefore",
          "type": "uint256"
        },
        {
          "indexed": false,
          "internalType": "uint256",
          "name": "priceAfter",
          "type": "uint256"
        }
      ],
      "name": "FlowStabletokens",
      "type": "event"
    },
    {
      "anonymous": false,
      "inputs": [
        {
          "indexed": false,
          "internalType": "uint8",
          "name": "version",
          "type": "uint8"
        }
      ],
      "name": "Initialized",
      "type": "event"
    },
    {
      "anonymous": false,
      "inputs": [
        {
          "indexed": false,
          "internalType": "address",
          "name": "from",
          "type": "address"
        },
        {
          "indexed": false,
          "internalType": "uint256",
          "name": "lastFlowBlock",
          "type": "uint256"
        }
      ],
      "name": "NoStabletokensToFlow",
      "type": "event"
    },
    {
      "anonymous": false,
      "inputs": [
        {
          "indexed": false,
          "internalType": "address",
          "name": "account",
          "type": "address"
        }
      ],
      "name": "Paused",
      "type": "event"
    },
    {
      "anonymous": false,
      "inputs": [
        {
          "indexed": false,
          "internalType": "address",
          "name": "from",
          "type": "address"
        },
        {
          "indexed": false,
          "internalType": "uint256",
          "name": "amount",
          "type": "uint256"
        },
        {
          "indexed": false,
          "internalType": "uint256",
          "name": "totalFarmRefilledBct",
          "type": "uint256"
        }
      ],
      "name": "RefillFarmBct",
      "type": "event"
    },
    {
      "anonymous": false,
      "inputs": [
        {
          "indexed": true,
          "internalType": "bytes32",
          "name": "role",
          "type": "bytes32"
        },
        {
          "indexed": true,
          "internalType": "bytes32",
          "name": "previousAdminRole",
          "type": "bytes32"
        },
        {
          "indexed": true,
          "internalType": "bytes32",
          "name": "newAdminRole",
          "type": "bytes32"
        }
      ],
      "name": "RoleAdminChanged",
      "type": "event"
    },
    {
      "anonymous": false,
      "inputs": [
        {
          "indexed": true,
          "internalType": "bytes32",
          "name": "role",
          "type": "bytes32"
        },
        {
          "indexed": true,
          "internalType": "address",
          "name": "account",
          "type": "address"
        },
        {
          "indexed": true,
          "internalType": "address",
          "name": "sender",
          "type": "address"
        }
      ],
      "name": "RoleGranted",
      "type": "event"
    },
    {
      "anonymous": false,
      "inputs": [
        {
          "indexed": true,
          "internalType": "bytes32",
          "name": "role",
          "type": "bytes32"
        },
        {
          "indexed": true,
          "internalType": "address",
          "name": "account",
          "type": "address"
        },
        {
          "indexed": true,
          "internalType": "address",
          "name": "sender",
          "type": "address"
        }
      ],
      "name": "RoleRevoked",
      "type": "event"
    },
    {
      "anonymous": false,
      "inputs": [
        {
          "indexed": false,
          "internalType": "address",
          "name": "account",
          "type": "address"
        }
      ],
      "name": "Unpaused",
      "type": "event"
    },
    {
      "inputs": [],
      "name": "DEFAULT_ADMIN_ROLE",
      "outputs": [
        {
          "internalType": "bytes32",
          "name": "",
          "type": "bytes32"
        }
      ],
      "stateMutability": "view",
      "type": "function"
    },
    {
      "inputs": [
        {
          "internalType": "address",
          "name": "_operator",
          "type": "address"
        },
        {
          "internalType": "address",
          "name": "_blocklistAddress",
          "type": "address"
        }
      ],
      "name": "__Administrable_init",
      "outputs": [],
      "stateMutability": "nonpayable",
      "type": "function"
    },
    {
      "inputs": [],
      "name": "bct",
      "outputs": [
        {
          "internalType": "contract IBkERC20",
          "name": "",
          "type": "address"
        }
      ],
      "stateMutability": "view",
      "type": "function"
    },
    {
      "inputs": [],
      "name": "communityPool",
      "outputs": [
        {
          "internalType": "contract ICommunityPool",
          "name": "",
          "type": "address"
        }
      ],
      "stateMutability": "view",
      "type": "function"
    },
    {
      "inputs": [],
      "name": "farmAddress",
      "outputs": [
        {
          "internalType": "address",
          "name": "",
          "type": "address"
        }
      ],
      "stateMutability": "view",
      "type": "function"
    },
    {
      "inputs": [],
      "name": "flowStabletokens",
      "outputs": [],
      "stateMutability": "nonpayable",
      "type": "function"
    },
    {
      "inputs": [
        {
          "internalType": "bytes32",
          "name": "role",
          "type": "bytes32"
        }
      ],
      "name": "getRoleAdmin",
      "outputs": [
        {
          "internalType": "bytes32",
          "name": "",
          "type": "bytes32"
        }
      ],
      "stateMutability": "view",
      "type": "function"
    },
    {
      "inputs": [
        {
          "internalType": "bytes32",
          "name": "role",
          "type": "bytes32"
        },
        {
          "internalType": "address",
          "name": "account",
          "type": "address"
        }
      ],
      "name": "grantRole",
      "outputs": [],
      "stateMutability": "nonpayable",
      "type": "function"
    },
    {
      "inputs": [],
      "name": "hasBlocklist",
      "outputs": [
        {
          "internalType": "bool",
          "name": "",
          "type": "bool"
        }
      ],
      "stateMutability": "view",
      "type": "function"
    },
    {
      "inputs": [
        {
          "internalType": "bytes32",
          "name": "role",
          "type": "bytes32"
        },
        {
          "internalType": "address",
          "name": "account",
          "type": "address"
        }
      ],
      "name": "hasRole",
      "outputs": [
        {
          "internalType": "bool",
          "name": "",
          "type": "bool"
        }
      ],
      "stateMutability": "view",
      "type": "function"
    },
    {
      "inputs": [
        {
          "internalType": "address",
          "name": "_operator",
          "type": "address"
        },
        {
          "internalType": "address",
          "name": "_blocklist",
          "type": "address"
        },
        {
          "internalType": "address",
          "name": "_stabletoken",
          "type": "address"
        },
        {
          "internalType": "address",
          "name": "_bct",
          "type": "address"
        },
        {
          "internalType": "address",
          "name": "_communityPool",
          "type": "address"
        },
        {
          "internalType": "address",
          "name": "_farmAddress",
          "type": "address"
        }
      ],
      "name": "initialize",
      "outputs": [],
      "stateMutability": "nonpayable",
      "type": "function"
    },
    {
      "inputs": [],
      "name": "lastFlowBlock",
      "outputs": [
        {
          "internalType": "uint256",
          "name": "",
          "type": "uint256"
        }
      ],
      "stateMutability": "view",
      "type": "function"
    },
    {
      "inputs": [],
      "name": "pause",
      "outputs": [],
      "stateMutability": "nonpayable",
      "type": "function"
    },
    {
      "inputs": [],
      "name": "paused",
      "outputs": [
        {
          "internalType": "bool",
          "name": "",
          "type": "bool"
        }
      ],
      "stateMutability": "view",
      "type": "function"
    },
    {
      "inputs": [
        {
          "internalType": "address",
          "name": "tokenAddress",
          "type": "address"
        },
        {
          "internalType": "address",
          "name": "to",
          "type": "address"
        },
        {
          "internalType": "uint256",
          "name": "amount",
          "type": "uint256"
        }
      ],
      "name": "recoverERC20",
      "outputs": [],
      "stateMutability": "nonpayable",
      "type": "function"
    },
    {
      "inputs": [
        {
          "internalType": "bytes32",
          "name": "role",
          "type": "bytes32"
        },
        {
          "internalType": "address",
          "name": "account",
          "type": "address"
        }
      ],
      "name": "renounceRole",
      "outputs": [],
      "stateMutability": "nonpayable",
      "type": "function"
    },
    {
      "inputs": [],
      "name": "resetBlocklist",
      "outputs": [],
      "stateMutability": "nonpayable",
      "type": "function"
    },
    {
      "inputs": [
        {
          "internalType": "bytes32",
          "name": "role",
          "type": "bytes32"
        },
        {
          "internalType": "address",
          "name": "account",
          "type": "address"
        }
      ],
      "name": "revokeRole",
      "outputs": [],
      "stateMutability": "nonpayable",
      "type": "function"
    },
    {
      "inputs": [
        {
          "internalType": "address",
          "name": "blocklistAddress",
          "type": "address"
        }
      ],
      "name": "setBlocklist",
      "outputs": [],
      "stateMutability": "nonpayable",
      "type": "function"
    },
    {
      "inputs": [],
      "name": "stabletoken",
      "outputs": [
        {
          "internalType": "contract IBkERC20",
          "name": "",
          "type": "address"
        }
      ],
      "stateMutability": "view",
      "type": "function"
    },
    {
      "inputs": [
        {
          "internalType": "bytes4",
          "name": "interfaceId",
          "type": "bytes4"
        }
      ],
      "name": "supportsInterface",
      "outputs": [
        {
          "internalType": "bool",
          "name": "",
          "type": "bool"
        }
      ],
      "stateMutability": "view",
      "type": "function"
    },
    {
      "inputs": [],
      "name": "totalBurnedBct",
      "outputs": [
        {
          "internalType": "uint256",
          "name": "",
          "type": "uint256"
        }
      ],
      "stateMutability": "view",
      "type": "function"
    },
    {
      "inputs": [],
      "name": "totalFarmRefilledBct",
      "outputs": [
        {
          "internalType": "uint256",
          "name": "",
          "type": "uint256"
        }
      ],
      "stateMutability": "view",
      "type": "function"
    },
    {
      "inputs": [],
      "name": "totalStabletokensAdded",
      "outputs": [
        {
          "internalType": "uint256",
          "name": "",
          "type": "uint256"
        }
      ],
      "stateMutability": "view",
      "type": "function"
    },
    {
      "inputs": [],
      "name": "unpause",
      "outputs": [],
      "stateMutability": "nonpayable",
      "type": "function"
    }
  ],
  "bytecode": "0x608060405234801561001057600080fd5b50611581806100206000396000f3fe608060405234801561001057600080fd5b50600436106101735760003560e01c80638456cb59116100de578063b4807c2911610097578063ce4a1c7f11610071578063ce4a1c7f146102ee578063d547741f14610301578063e451753714610314578063f9da3f751461032757600080fd5b8063b4807c29146102c9578063c22180cb146102d2578063cc2a9a5b146102db57600080fd5b80638456cb59146102775780638a1a1f891461027f57806391d1485414610288578063931da89b1461029b578063a217fddf146102ae578063aef18ae7146102b657600080fd5b80632f2ff15d116101305780632f2ff15d1461022257806336568abe146102355780633c7fd822146102485780633f4ba83a146102505780635c975abb14610258578063634210f41461026357600080fd5b806301ffc9a7146101785780630462ac10146101a05780631171bda9146101aa57806314d140b0146101bd578063205b2e79146101e8578063248a9ca3146101ff575b600080fd5b61018b610186366004611208565b61033a565b60405190151581526020015b60405180910390f35b6101a8610371565b005b6101a86101b836600461124e565b6108fc565b60cc546101d0906001600160a01b031681565b6040516001600160a01b039091168152602001610197565b6101f160ce5481565b604051908152602001610197565b6101f161020d36600461128a565b60009081526065602052604090206001015490565b6101a86102303660046112a3565b61099d565b6101a86102433660046112a3565b6109c7565b6101a86109ea565b6101a8610a15565b60975460ff1661018b565b60c95461018b90600160a01b900460ff1681565b6101a8610a38565b6101f160d05481565b61018b6102963660046112a3565b610a58565b6101a86102a93660046112cf565b610a83565b6101f1600081565b6101a86102c43660046112f9565b610b99565b6101f160d15481565b6101f160cf5481565b6101a86102e9366004611314565b610bd9565b60cb546101d0906001600160a01b031681565b6101a861030f3660046112a3565b610da7565b60ca546101d0906001600160a01b031681565b60cd546101d0906001600160a01b031681565b60006001600160e01b03198216637965db0b60e01b148061036b57506301ffc9a760e01b6001600160e01b03198316145b92915050565b60c954600160a81b900460ff16156103b85760405162461bcd60e51b81526020600482015260056024820152640daeae8caf60db1b60448201526064015b60405180910390fd5b60c9805460ff60a81b1916600160a81b1790556103d3610dcc565b7f73e573f9566d61418a34d5de3ff49360f9c51fec37f7486551670290f6285dab6103fd81610e14565b4360d15560cc5460408051634c6afee560e11b815290516000926001600160a01b0316916398d5fdca916004808301926020929190829003018186803b15801561044657600080fd5b505afa15801561045a573d6000803e3d6000fd5b505050506040513d601f19601f8201168201806040525081019061047e9190611388565b60ca546040516370a0823160e01b81523060048201529192506000916001600160a01b03909116906370a082319060240160206040518083038186803b1580156104c757600080fd5b505afa1580156104db573d6000803e3d6000fd5b505050506040513d601f19601f820116820180604052508101906104ff9190611388565b90508061054a5760d1546040805133815260208101929092527fdc019de6615deae13c7fbec74ea7fb54692ba15e113632e23f1c24ee79ea7f75910160405180910390a150506108ec565b670de0b6b3a76400008181111561055e5750805b60cc54604051630138b79b60e11b8152600481018390526000916001600160a01b0316906302716f3690602401602060405180830381600087803b1580156105a557600080fd5b505af11580156105b9573d6000803e3d6000fd5b505050506040513d601f19601f820116820180604052508101906105dd9190611388565b90508060ce60008282546105f191906113b7565b925050819055508160cf600082825461060a91906113b7565b909155505060cf54604080513381526020810185905280820192909252517fbcf9c0dd3837207a49c43225fc2ea15f5757f96b50f5198e7a7f0998de7761789181900360600190a160d054680f0e8e396adcbf00009069d3c21bcecceda1000000111561073f5760cc5460cb5460cd54604051631171bda960e01b81526001600160a01b039283166004820152908216602482015260448101849052911690631171bda990606401600060405180830381600087803b1580156106cc57600080fd5b505af11580156106e0573d6000803e3d6000fd5b505050508060d060008282546106f691906113b7565b909155505060d054604080513381526020810184905280820192909252517f83593b88e0325a1f30f4af4e9a4f04fef4d58cb9f2fa6b055db202beeeb58d269181900360600190a15b69d3c21bcecceda100000060ce5410156107d75760cc54604051637782267360e01b8152600481018390526001600160a01b0390911690637782267390602401600060405180830381600087803b15801561079957600080fd5b505af11580156107ad573d6000803e3d6000fd5b5050505080826107bd91906113b7565b91508160ce60008282546107d191906113b7565b90915550505b60ce54604080513381526020810185905280820192909252517f17a511897572e0e71c82583c675a12959f3d66389305a0842374453f7817e00f9181900360600190a160cc5460408051634c6afee560e11b815290516000926001600160a01b0316916398d5fdca916004808301926020929190829003018186803b15801561085f57600080fd5b505afa158015610873573d6000803e3d6000fd5b505050506040513d601f19601f820116820180604052508101906108979190611388565b60d1546040805133815260208101929092528101889052606081018290529091507f7e4d3595b3b2feb362251746d53ce303ec0a3610390042151caea9e88b07ae6e9060800160405180910390a15050505050505b5060c9805460ff60a81b19169055565b60008051602061152c83398151915261091481610e14565b60405163a9059cbb60e01b81526001600160a01b0384811660048301526024820184905285169063a9059cbb90604401602060405180830381600087803b15801561095e57600080fd5b505af1158015610972573d6000803e3d6000fd5b505050506040513d601f19601f8201168201806040525081019061099691906113cf565b5050505050565b6000828152606560205260409020600101546109b881610e14565b6109c28383610e1e565b505050565b6001600160a01b03811633146109dc57600080fd5b6109e68282610ea4565b5050565b60008051602061152c833981519152610a0281610e14565b5060c980546001600160a81b0319169055565b60008051602061152c833981519152610a2d81610e14565b610a35610f0b565b50565b60008051602061152c833981519152610a5081610e14565b610a35610f5d565b60009182526065602090815260408084206001600160a01b0393909316845291905290205460ff1690565b600054610100900460ff1615808015610aa35750600054600160ff909116105b80610abd5750303b158015610abd575060005460ff166001145b610ac657600080fd5b6000805460ff191660011790558015610ae9576000805461ff0019166101001790555b610af1610f9a565b610af9610fae565b610b04600084610fca565b610b1c60008051602061152c83398151915284610fca565b610b467f73e573f9566d61418a34d5de3ff49360f9c51fec37f7486551670290f6285dab84610fca565b610b4f82610b99565b80156109c2576000805461ff0019169055604051600181527f7f26b83ff96e1f2b6a682f133852f6798a09c465da95921460cefb38474024989060200160405180910390a1505050565b60008051602061152c833981519152610bb181610e14565b5060c980546001600160a81b0319166001600160a01b0390921691909117600160a01b179055565b600054610100900460ff1615808015610bf95750600054600160ff909116105b80610c135750303b158015610c13575060005460ff166001145b610c1c57600080fd5b6000805460ff191660011790558015610c3f576000805461ff0019166101001790555b610c498787610a83565b60ca80546001600160a01b038781166001600160a01b03199283161790925560cb8054878416908316811790915560cc8054878516908416811790915560cd8054948716949093169390931790915560405163095ea7b360e01b8152600481019290925260001960248301529063095ea7b390604401600060405180830381600087803b158015610cd957600080fd5b505af1158015610ced573d6000803e3d6000fd5b505060ca5460405163095ea7b360e01b81526001600160a01b0387811660048301526000196024830152909116925063095ea7b39150604401600060405180830381600087803b158015610d4057600080fd5b505af1158015610d54573d6000803e3d6000fd5b505050508015610d9e576000805461ff0019169055604051600181527f7f26b83ff96e1f2b6a682f133852f6798a09c465da95921460cefb38474024989060200160405180910390a15b50505050505050565b600082815260656020526040902060010154610dc281610e14565b6109c28383610ea4565b60975460ff1615610e125760405162461bcd60e51b815260206004820152601060248201526f14185d5cd8589b194e881c185d5cd95960821b60448201526064016103af565b565b610a358133610fd4565b610e288282610a58565b6109e65760008281526065602090815260408083206001600160a01b03851684529091529020805460ff19166001179055610e603390565b6001600160a01b0316816001600160a01b0316837f2f8788117e7eff1d82e926ec794901d17c78024a50270940304540a733656f0d60405160405180910390a45050565b610eae8282610a58565b156109e65760008281526065602090815260408083206001600160a01b0385168085529252808320805460ff1916905551339285917ff6391f5c32d9c69d2a47ea670b442974b53935d1edc7fd64eb21e047a839171b9190a45050565b610f1361102d565b6097805460ff191690557f5db9ee0a495bf2e6ff9c91a7834c1ba4fdd244a5e8aa4e537bd38aeae4b073aa335b6040516001600160a01b03909116815260200160405180910390a1565b610f65610dcc565b6097805460ff191660011790557f62e78cea01bee320cd4e420270b5ea74000d11b0c9f74754ebdbfc544b05a258610f403390565b600054610100900460ff16610e1257600080fd5b600054610100900460ff16610fc257600080fd5b610e12611076565b6109e68282610e1e565b610fde8282610a58565b6109e657610feb81611096565b610ff68360206110a8565b604051602001611007929190611421565b60408051601f198184030181529082905262461bcd60e51b82526103af91600401611496565b60975460ff16610e125760405162461bcd60e51b815260206004820152601460248201527314185d5cd8589b194e881b9bdd081c185d5cd95960621b60448201526064016103af565b600054610100900460ff1661108a57600080fd5b6097805460ff19169055565b606061036b6001600160a01b03831660145b606060006110b78360026114c9565b6110c29060026113b7565b67ffffffffffffffff8111156110da576110da6114e8565b6040519080825280601f01601f191660200182016040528015611104576020820181803683370190505b509050600360fc1b8160008151811061111f5761111f6114fe565b60200101906001600160f81b031916908160001a905350600f60fb1b8160018151811061114e5761114e6114fe565b60200101906001600160f81b031916908160001a90535060006111728460026114c9565b61117d9060016113b7565b90505b60018111156111f5576f181899199a1a9b1b9c1cb0b131b232b360811b85600f16601081106111b1576111b16114fe565b1a60f81b8282815181106111c7576111c76114fe565b60200101906001600160f81b031916908160001a90535060049490941c936111ee81611514565b9050611180565b50831561120157600080fd5b9392505050565b60006020828403121561121a57600080fd5b81356001600160e01b03198116811461120157600080fd5b80356001600160a01b038116811461124957600080fd5b919050565b60008060006060848603121561126357600080fd5b61126c84611232565b925061127a60208501611232565b9150604084013590509250925092565b60006020828403121561129c57600080fd5b5035919050565b600080604083850312156112b657600080fd5b823591506112c660208401611232565b90509250929050565b600080604083850312156112e257600080fd5b6112eb83611232565b91506112c660208401611232565b60006020828403121561130b57600080fd5b61120182611232565b60008060008060008060c0878903121561132d57600080fd5b61133687611232565b955061134460208801611232565b945061135260408801611232565b935061136060608801611232565b925061136e60808801611232565b915061137c60a08801611232565b90509295509295509295565b60006020828403121561139a57600080fd5b5051919050565b634e487b7160e01b600052601160045260246000fd5b600082198211156113ca576113ca6113a1565b500190565b6000602082840312156113e157600080fd5b8151801515811461120157600080fd5b60005b8381101561140c5781810151838201526020016113f4565b8381111561141b576000848401525b50505050565b7f416363657373436f6e74726f6c3a206163636f756e74200000000000000000008152600083516114598160178501602088016113f1565b7001034b99036b4b9b9b4b733903937b6329607d1b601791840191820152835161148a8160288401602088016113f1565b01602801949350505050565b60208152600082518060208401526114b58160408501602087016113f1565b601f01601f19169190910160400192915050565b60008160001904831182151516156114e3576114e36113a1565b500290565b634e487b7160e01b600052604160045260246000fd5b634e487b7160e01b600052603260045260246000fd5b600081611523576115236113a1565b50600019019056fe97667070c54ef182b0f5858b034beac1b6f3089aa2d3188bb1e8929f4fa9b929a26469706673582212203e244f7b85bb65727116c29c68f6a38d8f8eab746ad8505efd771f5f1e595aae64736f6c63430008090033",
  "linkReferences": {},
  "deployedLinkReferences": {}
}