{
  "_format": "hh-sol-artifact-1",
  "contractName": "BkDnaManager",
  "sourceName": "contracts/features/BkDnaManager.sol",
  "abi": [
    {
      "anonymous": false,
      "inputs": [
        {
          "indexed": false,
          "internalType": "address",
          "name": "account",
          "type": "address"
        },
        {
          "indexed": false,
          "internalType": "uint256",
          "name": "nftId",
          "type": "uint256"
        },
        {
          "indexed": false,
          "internalType": "uint256",
          "name": "chosenTrait",
          "type": "uint256"
        }
      ],
      "name": "AddExtraTrait",
      "type": "event"
    },
    {
      "anonymous": false,
      "inputs": [
        {
          "indexed": false,
          "internalType": "address",
          "name": "account",
          "type": "address"
        },
        {
          "indexed": false,
          "internalType": "uint256",
          "name": "nftId",
          "type": "uint256"
        },
        {
          "indexed": false,
          "internalType": "uint256",
          "name": "chosenTrait",
          "type": "uint256"
        },
        {
          "indexed": false,
          "internalType": "uint256",
          "name": "evolutions",
          "type": "uint256"
        }
      ],
      "name": "Evolve",
      "type": "event"
    },
    {
      "anonymous": false,
      "inputs": [
        {
          "indexed": false,
          "internalType": "address",
          "name": "account",
          "type": "address"
        },
        {
          "indexed": false,
          "internalType": "uint256",
          "name": "collectionId",
          "type": "uint256"
        },
        {
          "indexed": false,
          "internalType": "uint256",
          "name": "type_",
          "type": "uint256"
        }
      ],
      "name": "ExpandCollection",
      "type": "event"
    },
    {
      "anonymous": false,
      "inputs": [
        {
          "indexed": false,
          "internalType": "uint8",
          "name": "version",
          "type": "uint8"
        }
      ],
      "name": "Initialized",
      "type": "event"
    },
    {
      "anonymous": false,
      "inputs": [
        {
          "indexed": false,
          "internalType": "address",
          "name": "account",
          "type": "address"
        },
        {
          "indexed": false,
          "internalType": "uint256",
          "name": "collectionId",
          "type": "uint256"
        },
        {
          "indexed": false,
          "internalType": "string",
          "name": "name",
          "type": "string"
        },
        {
          "indexed": false,
          "internalType": "uint256",
          "name": "type_",
          "type": "uint256"
        }
      ],
      "name": "NewCollection",
      "type": "event"
    },
    {
      "anonymous": false,
      "inputs": [
        {
          "indexed": false,
          "internalType": "address",
          "name": "account",
          "type": "address"
        },
        {
          "indexed": false,
          "internalType": "uint256",
          "name": "nftId",
          "type": "uint256"
        },
        {
          "indexed": false,
          "internalType": "uint256",
          "name": "howManyNuts",
          "type": "uint256"
        },
        {
          "indexed": false,
          "internalType": "uint256",
          "name": "newBaseFarm",
          "type": "uint256"
        }
      ],
      "name": "NutsToBaseFarm",
      "type": "event"
    },
    {
      "anonymous": false,
      "inputs": [
        {
          "indexed": false,
          "internalType": "address",
          "name": "account",
          "type": "address"
        }
      ],
      "name": "Paused",
      "type": "event"
    },
    {
      "anonymous": false,
      "inputs": [
        {
          "indexed": false,
          "internalType": "address",
          "name": "account",
          "type": "address"
        },
        {
          "indexed": false,
          "internalType": "uint256",
          "name": "targetNftId",
          "type": "uint256"
        },
        {
          "indexed": false,
          "internalType": "uint256",
          "name": "traitRemovedFromTarget",
          "type": "uint256"
        },
        {
          "indexed": false,
          "internalType": "uint256",
          "name": "sacrificeNftId",
          "type": "uint256"
        },
        {
          "indexed": false,
          "internalType": "uint256",
          "name": "traitExtractedFromSacrifice",
          "type": "uint256"
        }
      ],
      "name": "ReplaceTrait",
      "type": "event"
    },
    {
      "anonymous": false,
      "inputs": [
        {
          "indexed": true,
          "internalType": "bytes32",
          "name": "role",
          "type": "bytes32"
        },
        {
          "indexed": true,
          "internalType": "bytes32",
          "name": "previousAdminRole",
          "type": "bytes32"
        },
        {
          "indexed": true,
          "internalType": "bytes32",
          "name": "newAdminRole",
          "type": "bytes32"
        }
      ],
      "name": "RoleAdminChanged",
      "type": "event"
    },
    {
      "anonymous": false,
      "inputs": [
        {
          "indexed": true,
          "internalType": "bytes32",
          "name": "role",
          "type": "bytes32"
        },
        {
          "indexed": true,
          "internalType": "address",
          "name": "account",
          "type": "address"
        },
        {
          "indexed": true,
          "internalType": "address",
          "name": "sender",
          "type": "address"
        }
      ],
      "name": "RoleGranted",
      "type": "event"
    },
    {
      "anonymous": false,
      "inputs": [
        {
          "indexed": true,
          "internalType": "bytes32",
          "name": "role",
          "type": "bytes32"
        },
        {
          "indexed": true,
          "internalType": "address",
          "name": "account",
          "type": "address"
        },
        {
          "indexed": true,
          "internalType": "address",
          "name": "sender",
          "type": "address"
        }
      ],
      "name": "RoleRevoked",
      "type": "event"
    },
    {
      "anonymous": false,
      "inputs": [
        {
          "indexed": false,
          "internalType": "address",
          "name": "account",
          "type": "address"
        },
        {
          "indexed": false,
          "internalType": "uint256",
          "name": "nftId",
          "type": "uint256"
        },
        {
          "indexed": false,
          "internalType": "uint256",
          "name": "chosenTrait",
          "type": "uint256"
        }
      ],
      "name": "TraitReroll",
      "type": "event"
    },
    {
      "anonymous": false,
      "inputs": [
        {
          "indexed": false,
          "internalType": "address",
          "name": "account",
          "type": "address"
        }
      ],
      "name": "Unpaused",
      "type": "event"
    },
    {
      "inputs": [],
      "name": "DEFAULT_ADMIN_ROLE",
      "outputs": [
        {
          "internalType": "bytes32",
          "name": "",
          "type": "bytes32"
        }
      ],
      "stateMutability": "view",
      "type": "function"
    },
    {
      "inputs": [
        {
          "internalType": "address",
          "name": "_operator",
          "type": "address"
        },
        {
          "internalType": "address",
          "name": "_blocklistAddress",
          "type": "address"
        }
      ],
      "name": "__Administrable_init",
      "outputs": [],
      "stateMutability": "nonpayable",
      "type": "function"
    },
    {
      "inputs": [
        {
          "internalType": "uint256",
          "name": "nftId",
          "type": "uint256"
        },
        {
          "internalType": "uint256",
          "name": "chosenTrait",
          "type": "uint256"
        }
      ],
      "name": "addExtraTrait",
      "outputs": [],
      "stateMutability": "nonpayable",
      "type": "function"
    },
    {
      "inputs": [],
      "name": "autoReturnRate",
      "outputs": [
        {
          "internalType": "uint256",
          "name": "",
          "type": "uint256"
        }
      ],
      "stateMutability": "view",
      "type": "function"
    },
    {
      "inputs": [
        {
          "internalType": "uint256",
          "name": "bctAmount",
          "type": "uint256"
        }
      ],
      "name": "bctToStabletoken",
      "outputs": [
        {
          "internalType": "uint256",
          "name": "",
          "type": "uint256"
        }
      ],
      "stateMutability": "view",
      "type": "function"
    },
    {
      "inputs": [
        {
          "internalType": "uint256",
          "name": "",
          "type": "uint256"
        }
      ],
      "name": "collections",
      "outputs": [
        {
          "internalType": "uint256",
          "name": "id",
          "type": "uint256"
        },
        {
          "internalType": "string",
          "name": "name",
          "type": "string"
        },
        {
          "internalType": "address",
          "name": "creator",
          "type": "address"
        }
      ],
      "stateMutability": "view",
      "type": "function"
    },
    {
      "inputs": [
        {
          "internalType": "address",
          "name": "",
          "type": "address"
        },
        {
          "internalType": "uint256",
          "name": "",
          "type": "uint256"
        }
      ],
      "name": "collectionsIdsByOwner",
      "outputs": [
        {
          "internalType": "uint256",
          "name": "",
          "type": "uint256"
        }
      ],
      "stateMutability": "view",
      "type": "function"
    },
    {
      "inputs": [],
      "name": "contracts",
      "outputs": [
        {
          "internalType": "contract IBkNft",
          "name": "nft",
          "type": "address"
        },
        {
          "internalType": "contract IBkStasher",
          "name": "stasher",
          "type": "address"
        }
      ],
      "stateMutability": "view",
      "type": "function"
    },
    {
      "inputs": [
        {
          "internalType": "string",
          "name": "collectionName",
          "type": "string"
        },
        {
          "internalType": "string[]",
          "name": "names",
          "type": "string[]"
        },
        {
          "internalType": "uint256",
          "name": "species",
          "type": "uint256"
        },
        {
          "internalType": "uint256",
          "name": "rarity",
          "type": "uint256"
        },
        {
          "internalType": "uint256",
          "name": "chosenTrait",
          "type": "uint256"
        },
        {
          "internalType": "string[]",
          "name": "imageUrls",
          "type": "string[]"
        },
        {
          "internalType": "bool",
          "name": "withBusd",
          "type": "bool"
        }
      ],
      "name": "createCollection",
      "outputs": [],
      "stateMutability": "payable",
      "type": "function"
    },
    {
      "inputs": [
        {
          "internalType": "uint256",
          "name": "nftId",
          "type": "uint256"
        },
        {
          "internalType": "uint256",
          "name": "chosenTrait",
          "type": "uint256"
        },
        {
          "internalType": "string",
          "name": "newName",
          "type": "string"
        },
        {
          "internalType": "string",
          "name": "newImageUrl",
          "type": "string"
        }
      ],
      "name": "evolve",
      "outputs": [],
      "stateMutability": "nonpayable",
      "type": "function"
    },
    {
      "inputs": [
        {
          "internalType": "uint256",
          "name": "nftId",
          "type": "uint256"
        },
        {
          "internalType": "uint256",
          "name": "chosenTrait",
          "type": "uint256"
        },
        {
          "internalType": "string",
          "name": "newName",
          "type": "string"
        },
        {
          "internalType": "string",
          "name": "newImageUrl",
          "type": "string"
        },
        {
          "internalType": "uint256",
          "name": "times",
          "type": "uint256"
        }
      ],
      "name": "evolveSequentially",
      "outputs": [],
      "stateMutability": "nonpayable",
      "type": "function"
    },
    {
      "inputs": [
        {
          "internalType": "uint256",
          "name": "collectionId",
          "type": "uint256"
        },
        {
          "internalType": "string[]",
          "name": "names",
          "type": "string[]"
        },
        {
          "internalType": "uint256",
          "name": "species",
          "type": "uint256"
        },
        {
          "internalType": "uint256",
          "name": "rarity",
          "type": "uint256"
        },
        {
          "internalType": "uint256",
          "name": "chosenTrait",
          "type": "uint256"
        },
        {
          "internalType": "string[]",
          "name": "imageUrls",
          "type": "string[]"
        },
        {
          "internalType": "bool",
          "name": "withBusd",
          "type": "bool"
        }
      ],
      "name": "expandCollection",
      "outputs": [],
      "stateMutability": "payable",
      "type": "function"
    },
    {
      "inputs": [
        {
          "internalType": "uint256[]",
          "name": "collectionIds",
          "type": "uint256[]"
        }
      ],
      "name": "getCollectionNames",
      "outputs": [
        {
          "internalType": "string[]",
          "name": "",
          "type": "string[]"
        }
      ],
      "stateMutability": "view",
      "type": "function"
    },
    {
      "inputs": [
        {
          "internalType": "uint256[]",
          "name": "collectionIds",
          "type": "uint256[]"
        }
      ],
      "name": "getCollections",
      "outputs": [
        {
          "components": [
            {
              "internalType": "uint256",
              "name": "id",
              "type": "uint256"
            },
            {
              "internalType": "string",
              "name": "name",
              "type": "string"
            },
            {
              "internalType": "address",
              "name": "creator",
              "type": "address"
            },
            {
              "internalType": "uint256[]",
              "name": "nftIds",
              "type": "uint256[]"
            }
          ],
          "internalType": "struct BkDnaManager.Collection[]",
          "name": "_collections",
          "type": "tuple[]"
        },
        {
          "components": [
            {
              "internalType": "uint256",
              "name": "id",
              "type": "uint256"
            },
            {
              "internalType": "string",
              "name": "name",
              "type": "string"
            },
            {
              "internalType": "string",
              "name": "imageUrl",
              "type": "string"
            },
            {
              "internalType": "address",
              "name": "currentOwner",
              "type": "address"
            },
            {
              "internalType": "uint256",
              "name": "squadId",
              "type": "uint256"
            },
            {
              "internalType": "uint256",
              "name": "collection",
              "type": "uint256"
            },
            {
              "internalType": "uint256",
              "name": "baseFarm",
              "type": "uint256"
            },
            {
              "internalType": "uint256",
              "name": "farmPerBlock",
              "type": "uint256"
            },
            {
              "internalType": "uint256[]",
              "name": "attributes",
              "type": "uint256[]"
            },
            {
              "internalType": "uint256[]",
              "name": "traits",
              "type": "uint256[]"
            },
            {
              "internalType": "uint256[]",
              "name": "skills",
              "type": "uint256[]"
            },
            {
              "internalType": "bool",
              "name": "isDead",
              "type": "bool"
            }
          ],
          "internalType": "struct IBkChar.BkChar[][]",
          "name": "_nfts",
          "type": "tuple[][]"
        }
      ],
      "stateMutability": "view",
      "type": "function"
    },
    {
      "inputs": [
        {
          "internalType": "address",
          "name": "account",
          "type": "address"
        }
      ],
      "name": "getCollectionsByAccount",
      "outputs": [
        {
          "components": [
            {
              "internalType": "uint256",
              "name": "id",
              "type": "uint256"
            },
            {
              "internalType": "string",
              "name": "name",
              "type": "string"
            },
            {
              "internalType": "address",
              "name": "creator",
              "type": "address"
            },
            {
              "internalType": "uint256[]",
              "name": "nftIds",
              "type": "uint256[]"
            }
          ],
          "internalType": "struct BkDnaManager.Collection[]",
          "name": "_collections",
          "type": "tuple[]"
        },
        {
          "components": [
            {
              "internalType": "uint256",
              "name": "id",
              "type": "uint256"
            },
            {
              "internalType": "string",
              "name": "name",
              "type": "string"
            },
            {
              "internalType": "string",
              "name": "imageUrl",
              "type": "string"
            },
            {
              "internalType": "address",
              "name": "currentOwner",
              "type": "address"
            },
            {
              "internalType": "uint256",
              "name": "squadId",
              "type": "uint256"
            },
            {
              "internalType": "uint256",
              "name": "collection",
              "type": "uint256"
            },
            {
              "internalType": "uint256",
              "name": "baseFarm",
              "type": "uint256"
            },
            {
              "internalType": "uint256",
              "name": "farmPerBlock",
              "type": "uint256"
            },
            {
              "internalType": "uint256[]",
              "name": "attributes",
              "type": "uint256[]"
            },
            {
              "internalType": "uint256[]",
              "name": "traits",
              "type": "uint256[]"
            },
            {
              "internalType": "uint256[]",
              "name": "skills",
              "type": "uint256[]"
            },
            {
              "internalType": "bool",
              "name": "isDead",
              "type": "bool"
            }
          ],
          "internalType": "struct IBkChar.BkChar[][]",
          "name": "_nfts",
          "type": "tuple[][]"
        }
      ],
      "stateMutability": "view",
      "type": "function"
    },
    {
      "inputs": [],
      "name": "getCollectionsCount",
      "outputs": [
        {
          "internalType": "uint256",
          "name": "",
          "type": "uint256"
        }
      ],
      "stateMutability": "view",
      "type": "function"
    },
    {
      "inputs": [
        {
          "internalType": "uint256",
          "name": "type_",
          "type": "uint256"
        },
        {
          "internalType": "uint256",
          "name": "rarity",
          "type": "uint256"
        }
      ],
      "name": "getIntegrationPrices",
      "outputs": [
        {
          "internalType": "uint256",
          "name": "bct",
          "type": "uint256"
        },
        {
          "internalType": "uint256",
          "name": "resourceCents",
          "type": "uint256"
        }
      ],
      "stateMutability": "view",
      "type": "function"
    },
    {
      "inputs": [
        {
          "internalType": "bytes32",
          "name": "role",
          "type": "bytes32"
        }
      ],
      "name": "getRoleAdmin",
      "outputs": [
        {
          "internalType": "bytes32",
          "name": "",
          "type": "bytes32"
        }
      ],
      "stateMutability": "view",
      "type": "function"
    },
    {
      "inputs": [
        {
          "internalType": "bytes32",
          "name": "role",
          "type": "bytes32"
        },
        {
          "internalType": "address",
          "name": "account",
          "type": "address"
        }
      ],
      "name": "grantRole",
      "outputs": [],
      "stateMutability": "nonpayable",
      "type": "function"
    },
    {
      "inputs": [],
      "name": "hasBlocklist",
      "outputs": [
        {
          "internalType": "bool",
          "name": "",
          "type": "bool"
        }
      ],
      "stateMutability": "view",
      "type": "function"
    },
    {
      "inputs": [
        {
          "internalType": "bytes32",
          "name": "role",
          "type": "bytes32"
        },
        {
          "internalType": "address",
          "name": "account",
          "type": "address"
        }
      ],
      "name": "hasRole",
      "outputs": [
        {
          "internalType": "bool",
          "name": "",
          "type": "bool"
        }
      ],
      "stateMutability": "view",
      "type": "function"
    },
    {
      "inputs": [
        {
          "internalType": "uint256",
          "name": "nftId",
          "type": "uint256"
        },
        {
          "internalType": "uint256",
          "name": "howManyNuts",
          "type": "uint256"
        }
      ],
      "name": "improveBaseFarmWithNuts",
      "outputs": [],
      "stateMutability": "nonpayable",
      "type": "function"
    },
    {
      "inputs": [
        {
          "internalType": "address",
          "name": "_operator",
          "type": "address"
        },
        {
          "internalType": "address",
          "name": "_blocklist",
          "type": "address"
        },
        {
          "internalType": "address",
          "name": "_result",
          "type": "address"
        }
      ],
      "name": "initialize",
      "outputs": [],
      "stateMutability": "nonpayable",
      "type": "function"
    },
    {
      "inputs": [
        {
          "internalType": "uint256[]",
          "name": "nftIds",
          "type": "uint256[]"
        },
        {
          "internalType": "bool",
          "name": "usePowerMangoes",
          "type": "bool"
        },
        {
          "internalType": "bool",
          "name": "transform",
          "type": "bool"
        }
      ],
      "name": "integrate",
      "outputs": [],
      "stateMutability": "nonpayable",
      "type": "function"
    },
    {
      "inputs": [],
      "name": "koziPayments",
      "outputs": [
        {
          "internalType": "contract IKoziPayments",
          "name": "",
          "type": "address"
        }
      ],
      "stateMutability": "view",
      "type": "function"
    },
    {
      "inputs": [],
      "name": "pause",
      "outputs": [],
      "stateMutability": "nonpayable",
      "type": "function"
    },
    {
      "inputs": [],
      "name": "paused",
      "outputs": [
        {
          "internalType": "bool",
          "name": "",
          "type": "bool"
        }
      ],
      "stateMutability": "view",
      "type": "function"
    },
    {
      "inputs": [],
      "name": "paymentContracts",
      "outputs": [
        {
          "internalType": "contract IBkERC20",
          "name": "bct",
          "type": "address"
        },
        {
          "internalType": "contract IBkERC20",
          "name": "busd",
          "type": "address"
        },
        {
          "internalType": "contract ICommunityPool",
          "name": "pool",
          "type": "address"
        },
        {
          "internalType": "contract IBkFarm",
          "name": "farm",
          "type": "address"
        }
      ],
      "stateMutability": "view",
      "type": "function"
    },
    {
      "inputs": [
        {
          "internalType": "address",
          "name": "",
          "type": "address"
        }
      ],
      "name": "playerCollectionsCount",
      "outputs": [
        {
          "internalType": "uint256",
          "name": "",
          "type": "uint256"
        }
      ],
      "stateMutability": "view",
      "type": "function"
    },
    {
      "inputs": [
        {
          "internalType": "address",
          "name": "tokenAddress",
          "type": "address"
        },
        {
          "internalType": "address",
          "name": "to",
          "type": "address"
        },
        {
          "internalType": "uint256",
          "name": "amount",
          "type": "uint256"
        }
      ],
      "name": "recoverERC20",
      "outputs": [],
      "stateMutability": "nonpayable",
      "type": "function"
    },
    {
      "inputs": [
        {
          "internalType": "bytes32",
          "name": "role",
          "type": "bytes32"
        },
        {
          "internalType": "address",
          "name": "account",
          "type": "address"
        }
      ],
      "name": "renounceRole",
      "outputs": [],
      "stateMutability": "nonpayable",
      "type": "function"
    },
    {
      "inputs": [],
      "name": "resetBlocklist",
      "outputs": [],
      "stateMutability": "nonpayable",
      "type": "function"
    },
    {
      "inputs": [
        {
          "internalType": "uint256",
          "name": "",
          "type": "uint256"
        }
      ],
      "name": "resources",
      "outputs": [
        {
          "internalType": "address",
          "name": "",
          "type": "address"
        }
      ],
      "stateMutability": "view",
      "type": "function"
    },
    {
      "inputs": [],
      "name": "resourcesCount",
      "outputs": [
        {
          "internalType": "uint256",
          "name": "",
          "type": "uint256"
        }
      ],
      "stateMutability": "view",
      "type": "function"
    },
    {
      "inputs": [
        {
          "internalType": "bytes32",
          "name": "role",
          "type": "bytes32"
        },
        {
          "internalType": "address",
          "name": "account",
          "type": "address"
        }
      ],
      "name": "revokeRole",
      "outputs": [],
      "stateMutability": "nonpayable",
      "type": "function"
    },
    {
      "inputs": [],
      "name": "scale",
      "outputs": [
        {
          "internalType": "uint256",
          "name": "",
          "type": "uint256"
        }
      ],
      "stateMutability": "view",
      "type": "function"
    },
    {
      "inputs": [
        {
          "internalType": "address",
          "name": "blocklistAddress",
          "type": "address"
        }
      ],
      "name": "setBlocklist",
      "outputs": [],
      "stateMutability": "nonpayable",
      "type": "function"
    },
    {
      "inputs": [
        {
          "components": [
            {
              "internalType": "uint256",
              "name": "id",
              "type": "uint256"
            },
            {
              "internalType": "string",
              "name": "name",
              "type": "string"
            },
            {
              "internalType": "address",
              "name": "creator",
              "type": "address"
            },
            {
              "internalType": "uint256[]",
              "name": "nftIds",
              "type": "uint256[]"
            }
          ],
          "internalType": "struct BkDnaManager.Collection[]",
          "name": "_collections",
          "type": "tuple[]"
        }
      ],
      "name": "setCollections",
      "outputs": [],
      "stateMutability": "nonpayable",
      "type": "function"
    },
    {
      "inputs": [
        {
          "internalType": "address",
          "name": "_nft",
          "type": "address"
        },
        {
          "internalType": "address",
          "name": "_stasher",
          "type": "address"
        }
      ],
      "name": "setContracts",
      "outputs": [],
      "stateMutability": "nonpayable",
      "type": "function"
    },
    {
      "inputs": [
        {
          "internalType": "address",
          "name": "_koziPayments",
          "type": "address"
        }
      ],
      "name": "setKoziPayments",
      "outputs": [],
      "stateMutability": "nonpayable",
      "type": "function"
    },
    {
      "inputs": [
        {
          "internalType": "uint256",
          "name": "_scale",
          "type": "uint256"
        }
      ],
      "name": "setScale",
      "outputs": [],
      "stateMutability": "nonpayable",
      "type": "function"
    },
    {
      "inputs": [
        {
          "internalType": "address",
          "name": "_reroller",
          "type": "address"
        }
      ],
      "name": "setTraitReroller",
      "outputs": [],
      "stateMutability": "nonpayable",
      "type": "function"
    },
    {
      "inputs": [
        {
          "internalType": "address",
          "name": "_bct",
          "type": "address"
        },
        {
          "internalType": "address",
          "name": "_busd",
          "type": "address"
        },
        {
          "internalType": "address",
          "name": "_pool",
          "type": "address"
        },
        {
          "internalType": "address",
          "name": "_farm",
          "type": "address"
        },
        {
          "internalType": "address",
          "name": "_resourcesSource",
          "type": "address"
        },
        {
          "internalType": "uint256",
          "name": "_autoReturnRate",
          "type": "uint256"
        }
      ],
      "name": "setupPaymentModule",
      "outputs": [],
      "stateMutability": "nonpayable",
      "type": "function"
    },
    {
      "inputs": [
        {
          "internalType": "uint256",
          "name": "busdAmount",
          "type": "uint256"
        }
      ],
      "name": "stabletokenToBct",
      "outputs": [
        {
          "internalType": "uint256",
          "name": "",
          "type": "uint256"
        }
      ],
      "stateMutability": "view",
      "type": "function"
    },
    {
      "inputs": [
        {
          "internalType": "bytes4",
          "name": "interfaceId",
          "type": "bytes4"
        }
      ],
      "name": "supportsInterface",
      "outputs": [
        {
          "internalType": "bool",
          "name": "",
          "type": "bool"
        }
      ],
      "stateMutability": "view",
      "type": "function"
    },
    {
      "inputs": [],
      "name": "traitReroller",
      "outputs": [
        {
          "internalType": "contract IBkTraitReroller",
          "name": "",
          "type": "address"
        }
      ],
      "stateMutability": "view",
      "type": "function"
    },
    {
      "inputs": [],
      "name": "unpause",
      "outputs": [],
      "stateMutability": "nonpayable",
      "type": "function"
    }
  ],
  "bytecode": "0x608060405234801561001057600080fd5b50615fc280620000216000396000f3fe6080604052600436106102885760003560e01c80637df427c51161015a578063c0c53b8b116100c1578063d878436a1161007a578063d878436a14610851578063d8952a4914610871578063dd0f7fd714610891578063f4b93f45146108c6578063f51e181a146108e6578063fdbda0ec146108fc57600080fd5b8063c0c53b8b14610783578063c0d0875f146107a3578063c429d349146107c3578063d0c53315146107d9578063d12dc4ca146107f9578063d547741f1461083157600080fd5b8063a217fddf11610113578063a217fddf146106db578063a89637bb146106f0578063aef18ae714610710578063b00873fc14610730578063b5f63f6014610743578063b84e99b81461076357600080fd5b80637df427c5146106335780638456cb5914610653578063896cce781461066857806391d148541461067b578063931da89b1461069b578063984314f9146106bb57600080fd5b80633c7fd822116101fe578063597d7f81116101b7578063597d7f81146105535780635c975abb14610573578063634210f41461058b5780636599499c146105ac5780636c0f79b6146105cc57806373e284fe1461061357600080fd5b80633c7fd822146104b35780633edc3519146104c85780633f4ba83a146104e857806341e80ad9146104fd57806350f8915e1461051d57806351ac7b8c1461053d57600080fd5b8063244d6daa11610250578063244d6daa1461037a578063248a9ca3146103c85780632a9cec66146103f85780632f2ff15d1461040d578063323b6cb71461042d57806336568abe1461049357600080fd5b806301ffc9a71461028d57806308e2c359146102c25780630eb3523c146102fd5780631171bda91461032a5780631f4b63ac1461034c575b600080fd5b34801561029957600080fd5b506102ad6102a8366004614d0b565b61092b565b60405190151581526020015b60405180910390f35b3480156102ce57600080fd5b506102ef6102dd366004614d4a565b60d76020526000908152604090205481565b6040519081526020016102b9565b34801561030957600080fd5b5061031d610318366004614e86565b610962565b6040516102b99190614f1a565b34801561033657600080fd5b5061034a610345366004614f7c565b610ab2565b005b34801561035857600080fd5b5061036c610367366004614d4a565b610b53565b6040516102b9929190615182565b34801561038657600080fd5b506103b0610395366004615238565b60cb602052600090815260409020546001600160a01b031681565b6040516001600160a01b0390911681526020016102b9565b3480156103d457600080fd5b506102ef6103e3366004615238565b60009081526065602052604090206001015490565b34801561040457600080fd5b5060d4546102ef565b34801561041957600080fd5b5061034a610428366004615251565b610c2b565b34801561043957600080fd5b5060cc5460cd5460ce5460cf54610460936001600160a01b03908116938116928116911684565b604080516001600160a01b03958616815293851660208501529184169183019190915290911660608201526080016102b9565b34801561049f57600080fd5b5061034a6104ae366004615251565b610c55565b3480156104bf57600080fd5b5061034a610c78565b3480156104d457600080fd5b5061034a6104e3366004615238565b610ca3565b3480156104f457600080fd5b5061034a610cc1565b34801561050957600080fd5b506102ef610518366004615238565b610ce4565b34801561052957600080fd5b5060d9546103b0906001600160a01b031681565b34801561054957600080fd5b506102ef60ca5481565b34801561055f57600080fd5b5061034a61056e366004614d4a565b610d62565b34801561057f57600080fd5b5060975460ff166102ad565b34801561059757600080fd5b5060c9546102ad90600160a01b900460ff1681565b3480156105b857600080fd5b5061034a6105c7366004614d4a565b610d9d565b3480156105d857600080fd5b5060d25460d3546105f3916001600160a01b03908116911682565b604080516001600160a01b039384168152929091166020830152016102b9565b34801561061f57600080fd5b5061034a61062e3660046152f9565b610dd8565b34801561063f57600080fd5b5061034a61064e36600461536f565b6112f2565b34801561065f57600080fd5b5061034a61136c565b61034a61067636600461547a565b61138c565b34801561068757600080fd5b506102ad610696366004615251565b6116ca565b3480156106a757600080fd5b5061034a6106b6366004615533565b6116f5565b3480156106c757600080fd5b5061034a6106d6366004615561565b61180b565b3480156106e757600080fd5b506102ef600081565b3480156106fc57600080fd5b5061034a61070b366004615583565b611c59565b34801561071c57600080fd5b5061034a61072b366004614d4a565b611db5565b61034a61073e3660046156ae565b611df5565b34801561074f57600080fd5b506102ef61075e366004615238565b612163565b34801561076f57600080fd5b5060db546103b0906001600160a01b031681565b34801561078f57600080fd5b5061034a61079e3660046156e7565b612195565b3480156107af57600080fd5b5061034a6107be366004615732565b612271565b3480156107cf57600080fd5b506102ef60d05481565b3480156107e557600080fd5b5061036c6107f4366004614e86565b6131ef565b34801561080557600080fd5b506102ef61081436600461578a565b60d660209081526000928352604080842090915290825290205481565b34801561083d57600080fd5b5061034a61084c366004615251565b6135b9565b34801561085d57600080fd5b5061034a61086c366004615561565b6135de565b34801561087d57600080fd5b5061034a61088c366004615533565b613908565b34801561089d57600080fd5b506108b16108ac366004615561565b613968565b604080519283526020830191909152016102b9565b3480156108d257600080fd5b5061034a6108e13660046157b6565b6139d0565b3480156108f257600080fd5b506102ef60da5481565b34801561090857600080fd5b5061091c610917366004615238565b6139ff565b6040516102b99392919061582f565b60006001600160e01b03198216637965db0b60e01b148061095c57506301ffc9a760e01b6001600160e01b03198316145b92915050565b80516060906000816001600160401b0381111561098157610981614d67565b6040519080825280602002602001820160405280156109b457816020015b606081526020019060019003908161099f5790505b50905060005b82811015610aaa5760d560008683815181106109d8576109d8615860565b6020026020010151815260200190815260200160002060010180546109fc90615876565b80601f0160208091040260200160405190810160405280929190818152602001828054610a2890615876565b8015610a755780601f10610a4a57610100808354040283529160200191610a75565b820191906000526020600020905b815481529060010190602001808311610a5857829003601f168201915b5050505050828281518110610a8c57610a8c615860565b60200260200101819052508080610aa2906158c7565b9150506109ba565b509392505050565b600080516020615f6d833981519152610aca81613ab3565b60405163a9059cbb60e01b81526001600160a01b0384811660048301526024820184905285169063a9059cbb90604401602060405180830381600087803b158015610b1457600080fd5b505af1158015610b28573d6000803e3d6000fd5b505050506040513d601f19601f82011682018060405250810190610b4c91906158f2565b5050505050565b6001600160a01b038116600090815260d76020526040812054606091829190816001600160401b03811115610b8a57610b8a614d67565b604051908082528060200260200182016040528015610bb3578160200160208202803683370190505b50905060005b82811015610c16576001600160a01b038616600090815260d6602090815260408083208484529091529020548251839083908110610bf957610bf9615860565b602090810291909101015280610c0e816158c7565b915050610bb9565b50610c20816131ef565b935093505050915091565b600082815260656020526040902060010154610c4681613ab3565b610c508383613abd565b505050565b6001600160a01b0381163314610c6a57600080fd5b610c748282613b43565b5050565b600080516020615f6d833981519152610c9081613ab3565b5060c980546001600160a81b0319169055565b600080516020615f6d833981519152610cbb81613ab3565b5060da55565b600080516020615f6d833981519152610cd981613ab3565b610ce1613baa565b50565b60ce54604051634ca1cccb60e11b8152600481018390526000916001600160a01b0316906399439996906024015b60206040518083038186803b158015610d2a57600080fd5b505afa158015610d3e573d6000803e3d6000fd5b505050506040513d601f19601f8201168201806040525081019061095c919061590f565b600080516020615f6d833981519152610d7a81613ab3565b5060db80546001600160a01b0319166001600160a01b0392909216919091179055565b600080516020615f6d833981519152610db581613ab3565b5060d980546001600160a01b0319166001600160a01b0392909216919091179055565b610de0613bfc565b60d2546040516341f63bfd60e01b8152600481018690526000916001600160a01b0316906341f63bfd9060240160006040518083038186803b158015610e2557600080fd5b505afa158015610e39573d6000803e3d6000fd5b505050506040513d6000823e601f3d908101601f19168201604052610e6191908101906159d3565b60608101519091506001600160a01b03163314610e7d57600080fd5b60d254604051630f2a280d60e21b8152600481018790526001600160a01b0390911690633ca8a0349060240160206040518083038186803b158015610ec157600080fd5b505afa158015610ed5573d6000803e3d6000fd5b505050506040513d601f19601f82011682018060405250810190610ef991906158f2565b15610f0357600080fd5b6001816101000151600181518110610f1d57610f1d615860565b602002602001015111610f2f57600080fd5b610100810151600090600581518110610f4a57610f4a615860565b60200260200101519050600b8110610f6157600080fd5b6000826101000151600081518110610f7b57610f7b615860565b60200260200101519050600081600e610f949190615b2f565b6001600160401b03811115610fab57610fab614d67565b604051908082528060200260200182016040528015610fd4578160200160208202803683370190505b509050606481600b81518110610fec57610fec615860565b602090810291909101015260648161100584600d615b2f565b8151811061101557611015615860565b6020026020010181815250506110bd6002606460da5487610100015160018151811061104357611043615860565b60200260200101518660646110589190615b47565b6110629190615b47565b61107490670de0b6b3a7640000615b47565b61107e9190615b47565b6110889190615b7c565b6110929190615b7c565b6040805160808101825260018082526020820152600091810182905260608101919091528390613c49565b86156110f85760006110d3856101200151613ede565b90506000600282106110e557816110e8565b60025b90506110f58a8a83613f34565b50505b60d254604051639497558560e01b81526001600160a01b039091169063949755859061112c908b908a908a90600401615b90565b600060405180830381600087803b15801561114657600080fd5b505af115801561115a573d6000803e3d6000fd5b5050505060008360001461116f576002611172565b60195b60d25460ff9190911691506001600160a01b031663fd5eea4e8a6005611199886001615b2f565b6040516001600160e01b031960e086901b168152600481019390935260248301919091526044820152606401600060405180830381600087803b1580156111df57600080fd5b505af11580156111f3573d6000803e3d6000fd5b50505050600060648260646112089190615b2f565b8760c001516112179190615b47565b6112219190615b7c565b60d25460405163de71b06760e01b8152600481018d9052602481018390529192506001600160a01b03169063de71b06790604401600060405180830381600087803b15801561126f57600080fd5b505af1158015611283573d6000803e3d6000fd5b505050507fbfd6d48031280e3b4b22ba7a30448b14fd5ff36108a5e5a818e5f96308cfbde1338b8b8860016112b89190615b2f565b604080516001600160a01b03909516855260208501939093529183015260608201526080015b60405180910390a150505050505050505050565b6112fa613bfc565b60005b8181101561136457611310600183615bc5565b8110156113465761134186866040518060200160405280600081525060405180602001604052806000815250610dd8565b611352565b61135286868686610dd8565b8061135c816158c7565b9150506112fd565b505050505050565b600080516020615f6d83398151915261138481613ab3565b610ce1614029565b611394613bfc565b60d354604051635c138c9d60e01b81523360048201526000916001600160a01b031690635c138c9d9060240160206040518083038186803b1580156113d857600080fd5b505afa1580156113ec573d6000803e3d6000fd5b505050506040513d601f19601f82011682018060405250810190611410919061590f565b9050865160031461142057600080fd5b6000861180156114305750600686105b61143957600080fd5b600a81101580611453575061144f866008615b2f565b8110155b61145c57600080fd5b611467868684614066565b60d254604080516393f1da4f60e01b815290516000926001600160a01b0316916393f1da4f916004808301926020929190829003018186803b1580156114ac57600080fd5b505afa1580156114c0573d6000803e3d6000fd5b505050506040513d601f19601f820116820180604052508101906114e4919061590f565b60d4805491925060006114f6836158c7565b9190505550611529604051806080016040528089815260200188815260200187815260200160d454815250898684614322565b6040805160038082526080820190925260009160208201606080368337019050509050818160008151811061156057611560615860565b6020908102919091010152611576826001615b2f565b8160018151811061158957611589615860565b602090810291909101015261159f826002615b2f565b816002815181106115b2576115b2615860565b6020908102919091018101919091526040805160808101825260d4548082528184018e8152338385015260608301869052600091825260d585529290208151815591518051919361160b92600185019290910190614bcc565b5060408201516002820180546001600160a01b0319166001600160a01b039092169190911790556060820151805161164d916003840191602090910190614c50565b505060d45433600081815260d66020908152604080832060d78084528285208054865291845291842095909555928252919091528154925061168e836158c7565b91905055507f118c9ce6be59cabf3d5246cec2811ba5b3825abb042624d769903d5d6c9045703360d4548c8b6040516112de9493929190615bdc565b60009182526065602090815260408084206001600160a01b0393909316845291905290205460ff1690565b600054610100900460ff16158080156117155750600054600160ff909116105b8061172f5750303b15801561172f575060005460ff166001145b61173857600080fd5b6000805460ff19166001179055801561175b576000805461ff0019166101001790555b611763614773565b61176b614787565b6117766000846147a3565b61178e600080516020615f6d833981519152846147a3565b6117b87f73e573f9566d61418a34d5de3ff49360f9c51fec37f7486551670290f6285dab846147a3565b6117c182611db5565b8015610c50576000805461ff0019169055604051600181527f7f26b83ff96e1f2b6a682f133852f6798a09c465da95921460cefb38474024989060200160405180910390a1505050565b611813613bfc565b60d2546040516341f63bfd60e01b8152600481018490526000916001600160a01b0316906341f63bfd9060240160006040518083038186803b15801561185857600080fd5b505afa15801561186c573d6000803e3d6000fd5b505050506040513d6000823e601f3d908101601f1916820160405261189491908101906159d3565b60d2546040516331a9108f60e11b81526004810186905291925033916001600160a01b0390911690636352211e9060240160206040518083038186803b1580156118dd57600080fd5b505afa1580156118f1573d6000803e3d6000fd5b505050506040513d601f19601f820116820180604052508101906119159190615c14565b6001600160a01b03161461192857600080fd5b600081610100015160048151811061194257611942615860565b602002602001015190506033838261195a9190615b2f565b1061196457600080fd5b600082610100015160008151811061197e5761197e615860565b602090810291909101015160d2549091506001600160a01b031663fd5eea4e8660046119aa8887615b2f565b6040516001600160e01b031960e086901b168152600481019390935260248301919091526044820152606401600060405180830381600087803b1580156119f057600080fd5b505af1158015611a04573d6000803e3d6000fd5b5060009250600b9150611a149050565b604051908082528060200260200182016040528015611a3d578160200160208202803683370190505b509050611a4b856064615b47565b81600a81518110611a5e57611a5e615860565b60200260200101818152505060068210158015611a7c5750600a8211155b15611acc5780600a81518110611a9457611a94615860565b60200260200101516005611aa89190615b47565b81600a81518110611abb57611abb615860565b602002602001018181525050611b1c565b600a821115611b1c5780600a81518110611ae857611ae8615860565b6020026020010151600a611afc9190615b47565b81600a81518110611b0f57611b0f615860565b6020026020010181815250505b611b7a6002606460da5488886101000151600181518110611b3f57611b3f615860565b6020026020010151876002611b549190615b47565b611b5e9190615b47565b611b7090670de0b6b3a7640000615b47565b6110749190615b47565b60006064611b888782615b2f565b8660c00151611b979190615b47565b611ba19190615b7c565b60d25460405163de71b06760e01b8152600481018a9052602481018390529192506001600160a01b03169063de71b06790604401600060405180830381600087803b158015611bef57600080fd5b505af1158015611c03573d6000803e3d6000fd5b505060408051338152602081018b9052908101899052606081018490527f7ed267d32c06d391996d108f1937dc459d0c99df2d4f50c21bc26e3cd8099c489250608001905060405180910390a150505050505050565b600080516020615f6d833981519152611c7181613ab3565b60005b8251811015611d4657828181518110611c8f57611c8f615860565b602002602001015160d56000858481518110611cad57611cad615860565b6020026020010151600001518152602001908152602001600020600082015181600001556020820151816001019080519060200190611ced929190614bcc565b5060408201516002820180546001600160a01b0319166001600160a01b0390921691909117905560608201518051611d2f916003840191602090910190614c50565b509050508080611d3e906158c7565b915050611c74565b5060d4548260018451611d599190615bc5565b81518110611d6957611d69615860565b60200260200101516000015111611d825760d454611dae565b8160018351611d919190615bc5565b81518110611da157611da1615860565b6020026020010151600001515b60d4555050565b600080516020615f6d833981519152611dcd81613ab3565b5060c980546001600160a81b0319166001600160a01b0390921691909117600160a01b179055565b611dfd613bfc565b60d354604051635c138c9d60e01b81523360048201526000916001600160a01b031690635c138c9d9060240160206040518083038186803b158015611e4157600080fd5b505afa158015611e55573d6000803e3d6000fd5b505050506040513d601f19601f82011682018060405250810190611e79919061590f565b9050600086118015611e8b5750600686105b611e9457600080fd5b600a81101580611eae5750611eaa866008615b2f565b8110155b611eb757600080fd5b600060d560008a815260200190815260200160002060405180608001604052908160008201548152602001600182018054611ef190615876565b80601f0160208091040260200160405190810160405280929190818152602001828054611f1d90615876565b8015611f6a5780601f10611f3f57610100808354040283529160200191611f6a565b820191906000526020600020905b815481529060010190602001808311611f4d57829003601f168201915b505050918352505060028201546001600160a01b03166020808301919091526003830180546040805182850281018501825282815294019392830182828015611fd257602002820191906000526020600020905b815481526020019060010190808311611fbe575b5050505050815250509050336001600160a01b031681604001516001600160a01b031614611fff57600080fd5b600e8160600151511061201157600080fd5b875160051461201f57600080fd5b61202a878785614066565b60d254604080516393f1da4f60e01b815290516000926001600160a01b0316916393f1da4f916004808301926020929190829003018186803b15801561206f57600080fd5b505afa158015612083573d6000803e3d6000fd5b505050506040513d601f19601f820116820180604052508101906120a7919061590f565b90506120d560405180608001604052808a81526020018981526020018881526020018c8152508a8784614322565b60005b60058110156121245760008b815260d5602052604090206003016120fc8284615b2f565b815460018101835560009283526020909220909101558061211c816158c7565b9150506120d8565b5060408051338152602081018c90529081018990527f60a2810e6e3e65fc7b5a3c3f354dac0f5ea3ff14df103aeaf860d8af63d17fd0906060016112de565b60ce5460405163526267fd60e11b8152600481018390526000916001600160a01b03169063a4c4cffa90602401610d12565b600054610100900460ff16158080156121b55750600054600160ff909116105b806121cf5750303b1580156121cf575060005460ff166001145b6121d857600080fd5b6000805460ff1916600117905580156121fb576000805461ff0019166101001790555b61220584846116f5565b60d180546001600160a01b0319166001600160a01b038416179055600560d855801561226b576000805461ff0019169055604051600181527f7f26b83ff96e1f2b6a682f133852f6798a09c465da95921460cefb38474024989060200160405180910390a15b50505050565b612279613bfc565b60d25483516000916001600160a01b0316906341f63bfd90869084906122a1576122a1615860565b60200260200101516040518263ffffffff1660e01b81526004016122c791815260200190565b60006040518083038186803b1580156122df57600080fd5b505afa1580156122f3573d6000803e3d6000fd5b505050506040513d6000823e601f3d908101601f1916820160405261231b91908101906159d3565b60608101519091506001600160a01b0316331461233757600080fd5b600081610100015160008151811061235157612351615860565b60200260200101519050600060d260000160009054906101000a90046001600160a01b03166001600160a01b03166341f63bfd8760018151811061239757612397615860565b60200260200101516040518263ffffffff1660e01b81526004016123bd91815260200190565b60006040518083038186803b1580156123d557600080fd5b505afa1580156123e9573d6000803e3d6000fd5b505050506040513d6000823e601f3d908101601f1916820160405261241191908101906159d3565b60608101519091506001600160a01b0316331461242d57600080fd5b82610100015160018151811061244557612445615860565b602002602001015181610100015160018151811061246557612465615860565b60200260200101511461247757600080fd5b8181610100015160008151811061249057612490615860565b6020026020010151146124a257600080fd5b8051835114156124b157600080fd5b60d254815160405163079cc67960e41b815233600482015260248101919091526001600160a01b03909116906379cc679090604401600060405180830381600087803b15801561250057600080fd5b505af1158015612514573d6000803e3d6000fd5b5060009250601391506125249050565b60405190808252806020026020018201604052801561254d578160200160208202803683370190505b509050612558614c8a565b86156125885784905061012c8260088151811061257757612577615860565b6020026020010181815250506127bf565b60d25488516001600160a01b03909116906341f63bfd908a9060029081106125b2576125b2615860565b60200260200101516040518263ffffffff1660e01b81526004016125d891815260200190565b60006040518083038186803b1580156125f057600080fd5b505afa158015612604573d6000803e3d6000fd5b505050506040513d6000823e601f3d908101601f1916820160405261262c91908101906159d3565b60d25481516040516331a9108f60e11b8152600481019190915291925033916001600160a01b0390911690636352211e9060240160206040518083038186803b15801561267857600080fd5b505afa15801561268c573d6000803e3d6000fd5b505050506040513d601f19601f820116820180604052508101906126b09190615c14565b6001600160a01b0316146126c357600080fd5b8261010001516001815181106126db576126db615860565b60200260200101518161010001516001815181106126fb576126fb615860565b60200260200101511461270d57600080fd5b82610100015160008151811061272557612725615860565b602002602001015181610100015160008151811061274557612745615860565b60200260200101511461275757600080fd5b60d254815160405163079cc67960e41b815233600482015260248101919091526001600160a01b03909116906379cc679090604401600060405180830381600087803b1580156127a657600080fd5b505af11580156127ba573d6000803e3d6000fd5b505050505b600061283f8261010001516004815181106127dc576127dc615860565b60200260200101518561010001516004815181106127fc576127fc615860565b602002602001015188610100015160048151811061281c5761281c615860565b602002602001015161282e9190615b2f565b6128389190615b2f565b60036147ad565b9050600061289e83610100015160058151811061285e5761285e615860565b602002602001015186610100015160058151811061287e5761287e615860565b602002602001015189610100015160058151811061281c5761281c615860565b9050600060038461010001516002815181106128bc576128bc615860565b60200260200101518761010001516002815181106128dc576128dc615860565b60200260200101518a61010001516002815181106128fc576128fc615860565b602002602001015161290e9190615b2f565b6129189190615b2f565b6129229190615b7c565b90506000600385610100015160038151811061294057612940615860565b602002602001015188610100015160038151811061296057612960615860565b60200260200101518b610100015160038151811061298057612980615860565b60200260200101516129929190615b2f565b61299c9190615b2f565b6129a69190615b7c565b90506000600a60038760c001518a60c001518d60c001516129c79190615b2f565b6129d19190615b2f565b6129db9190615b7c565b6129e6906011615b47565b6129f09190615b7c565b60408051600480825260a0820190925291925060009190602082016080803683370190505090506003876101400151600081518110612a3157612a31615860565b60200260200101518a6101400151600081518110612a5157612a51615860565b60200260200101518d6101400151600081518110612a7157612a71615860565b6020026020010151612a839190615b2f565b612a8d9190615b2f565b612a979190615b7c565b81600081518110612aaa57612aaa615860565b6020026020010181815250506003876101400151600181518110612ad057612ad0615860565b60200260200101518a6101400151600181518110612af057612af0615860565b60200260200101518d6101400151600181518110612b1057612b10615860565b6020026020010151612b229190615b2f565b612b2c9190615b2f565b612b369190615b7c565b81600181518110612b4957612b49615860565b6020026020010181815250506003876101400151600281518110612b6f57612b6f615860565b60200260200101518a6101400151600281518110612b8f57612b8f615860565b60200260200101518d6101400151600281518110612baf57612baf615860565b6020026020010151612bc19190615b2f565b612bcb9190615b2f565b612bd59190615b7c565b81600281518110612be857612be8615860565b6020026020010181815250506003876101400151600381518110612c0e57612c0e615860565b60200260200101518a6101400151600381518110612c2e57612c2e615860565b60200260200101518d6101400151600381518110612c4e57612c4e615860565b6020026020010151612c609190615b2f565b612c6a9190615b2f565b612c749190615b7c565b81600381518110612c8757612c87615860565b602002602001018181525050600080612cbf8c8e6101000151600181518110612cb257612cb2615860565b6020026020010151613968565b6101008f015191935091508690600281518110612cde57612cde615860565b60209081029190910101526101008d01518590600381518110612d0357612d03615860565b60209081029190910101526101008d01518890600481518110612d2857612d28615860565b60209081029190910101526101008d01518790600581518110612d4d57612d4d615860565b6020026020010181815250508c6101000151600181518110612d7157612d71615860565b60200260200101516004148015612d8557508d5b15612f595760058c10612d9757600080fd5b60648a600b81518110612dac57612dac615860565b602090810291909101015260648a612dc58e600e615b2f565b81518110612dd557612dd5615860565b602002602001018181525050612e18828b604051806080016040528060011515815260200160011515815260200160001515815260200160001515815250613c49565b612e238c6001615b2f565b6101008e0151600081518110612e3b57612e3b615860565b60209081029190910101526101008d01516001908181518110612e6057612e60615860565b602090810291909101015260d2548d516101008f01516040516386931e4960e01b81526001600160a01b03909316926386931e4992612ea59290918890600401615c31565b600060405180830381600087803b158015612ebf57600080fd5b505af1158015612ed3573d6000803e3d6000fd5b505060d2548f51604051639497558560e01b81526004810191909152606060248201526000606482018190526080604483015260848201526001600160a01b0390911692506394975585915060a401600060405180830381600087803b158015612f3c57600080fd5b505af1158015612f50573d6000803e3d6000fd5b50505050613170565b808a612f668e6004615b2f565b81518110612f7657612f76615860565b60200260200101818151612f8a9190615b2f565b905250604080516080810182526001808252602082015260009181018290526060810191909152612fbe9083908c90613c49565b8c6101000151600181518110612fd657612fd6615860565b60200260200101516001612fea9190615b2f565b6101008e015160018151811061300257613002615860565b602090810291909101015260d2548d516101008f01516040516386931e4960e01b81526001600160a01b03909316926386931e49926130479290918890600401615c31565b600060405180830381600087803b15801561306157600080fd5b505af1158015613075573d6000803e3d6000fd5b505050508c610100015160018151811061309157613091615860565b60200260200101516004141561310b5760d2548d5160208f0151604051639497558560e01b81526001600160a01b03909316926394975585926130d8929091600401615c5c565b600060405180830381600087803b1580156130f257600080fd5b505af1158015613106573d6000803e3d6000fd5b505050505b600061311b8e6101200151613ede565b9050806001141561315a576131558e600001518f610120015160008151811061314657613146615860565b60200260200101516002613f34565b61316e565b8061316e578d5161316e9060006002613f34565b505b60d2548d5160405163de71b06760e01b81526001600160a01b039092169163de71b067916131ab918890600401918252602082015260400190565b600060405180830381600087803b1580156131c557600080fd5b505af11580156131d9573d6000803e3d6000fd5b5050505050505050505050505050505050505050565b80516060908190806001600160401b0381111561320e5761320e614d67565b60405190808252806020026020018201604052801561327357816020015b6132606040518060800160405280600081526020016060815260200160006001600160a01b03168152602001606081525090565b81526020019060019003908161322c5790505b509250806001600160401b0381111561328e5761328e614d67565b6040519080825280602002602001820160405280156132c157816020015b60608152602001906001900390816132ac5790505b50915060005b818110156135b257600060d560008784815181106132e7576132e7615860565b602002602001015181526020019081526020016000206040518060800160405290816000820154815260200160018201805461332290615876565b80601f016020809104026020016040519081016040528092919081815260200182805461334e90615876565b801561339b5780601f106133705761010080835404028352916020019161339b565b820191906000526020600020905b81548152906001019060200180831161337e57829003601f168201915b505050918352505060028201546001600160a01b0316602080830191909152600383018054604080518285028101850182528281529401939283018282801561340357602002820191906000526020600020905b8154815260200190600101908083116133ef575b50505050508152505090508085838151811061342157613421615860565b6020908102919091010152606081015151806001600160401b0381111561344a5761344a614d67565b60405190808252806020026020018201604052801561348357816020015b613470614c8a565b8152602001906001900390816134685790505b5085848151811061349657613496615860565b602002602001018190525060005b8181101561359c5760d254606084015180516001600160a01b03909216916341f63bfd9190849081106134d9576134d9615860565b60200260200101516040518263ffffffff1660e01b81526004016134ff91815260200190565b60006040518083038186803b15801561351757600080fd5b505afa15801561352b573d6000803e3d6000fd5b505050506040513d6000823e601f3d908101601f1916820160405261355391908101906159d3565b86858151811061356557613565615860565b6020026020010151828151811061357e5761357e615860565b60200260200101819052508080613594906158c7565b9150506134a4565b50505080806135aa906158c7565b9150506132c7565b5050915091565b6000828152606560205260409020600101546135d481613ab3565b610c508383613b43565b6135e6613bfc565b60d2546040516341f63bfd60e01b8152600481018490526000916001600160a01b0316906341f63bfd9060240160006040518083038186803b15801561362b57600080fd5b505afa15801561363f573d6000803e3d6000fd5b505050506040513d6000823e601f3d908101601f1916820160405261366791908101906159d3565b60608101519091506001600160a01b0316331461368357600080fd5b613691816101200151613ede565b60021461369d57600080fd5b6000821180156136ae575060328211155b6136b757600080fd5b60008161010001516000815181106136d1576136d1615860565b60200260200101519050600081600e6136ea9190615b2f565b6001600160401b0381111561370157613701614d67565b60405190808252806020026020018201604052801561372a578160200160208202803683370190505b5090506109c48160078151811061374357613743615860565b602090810291909101015260648161375c84600d615b2f565b8151811061376c5761376c615860565b60200260200101818152505061379a6002606460da5486610100015160018151811061104357611043615860565b60408051600380825260808201909252600091602082016060803683370190505090508361012001516000815181106137d5576137d5615860565b6020026020010151816000815181106137f0576137f0615860565b60200260200101818152505083610120015160018151811061381457613814615860565b60200260200101518160018151811061382f5761382f615860565b602002602001018181525050848160028151811061384f5761384f615860565b602090810291909101015260d25460405163088d210f60e41b81526001600160a01b03909116906388d210f09061388c9089908590600401615c8f565b600060405180830381600087803b1580156138a657600080fd5b505af11580156138ba573d6000803e3d6000fd5b505060408051338152602081018a90529081018890527facfac4728a405cdb5f1a86f582da1d981168b6a62162622e120947544050e1e39250606001905060405180910390a1505050505050565b600080516020615f6d83398151915261392081613ab3565b50604080518082019091526001600160a01b0392831680825291909216602090920182905260d280546001600160a01b0319908116909217905560d380549091169091179055565b6000806002606460da54858760196139809190615b47565b61398a9190615b47565b61399c90670de0b6b3a7640000615b47565b6139a69190615b47565b6139b09190615b7c565b6139ba9190615b7c565b6139c5846019615b47565b915091509250929050565b600080516020615f6d8339815191526139e881613ab3565b6139f68787878787876147ea565b50505050505050565b60d56020526000908152604090208054600182018054919291613a2190615876565b80601f0160208091040260200160405190810160405280929190818152602001828054613a4d90615876565b8015613a9a5780601f10613a6f57610100808354040283529160200191613a9a565b820191906000526020600020905b815481529060010190602001808311613a7d57829003601f168201915b505050600290930154919250506001600160a01b031683565b610ce181336148b1565b613ac782826116ca565b610c745760008281526065602090815260408083206001600160a01b03851684529091529020805460ff19166001179055613aff3390565b6001600160a01b0316816001600160a01b0316837f2f8788117e7eff1d82e926ec794901d17c78024a50270940304540a733656f0d60405160405180910390a45050565b613b4d82826116ca565b15610c745760008281526065602090815260408083206001600160a01b0385168085529252808320805460ff1916905551339285917ff6391f5c32d9c69d2a47ea670b442974b53935d1edc7fd64eb21e047a839171b9190a45050565b613bb261490a565b6097805460ff191690557f5db9ee0a495bf2e6ff9c91a7834c1ba4fdd244a5e8aa4e537bd38aeae4b073aa335b6040516001600160a01b03909116815260200160405180910390a1565b60975460ff1615613c475760405162461bcd60e51b815260206004820152601060248201526f14185d5cd8589b194e881c185d5cd95960821b60448201526064015b60405180910390fd5b565b806040015115613dc957806020015115613c8a5760405162461bcd60e51b8152602060048201526002602482015261070360f41b6044820152606401613c3e565b8051600090613c995783613ca2565b613ca284612163565b60cd546040516323b872dd60e01b8152336004820152306024820152604481018390529192506001600160a01b0316906323b872dd90606401602060405180830381600087803b158015613cf557600080fd5b505af1158015613d09573d6000803e3d6000fd5b505050506040513d601f19601f82011682018060405250810190613d2d91906158f2565b50600060648260d054613d409190615b47565b613d4a9190615b7c565b60ce54604051630d3990db60e21b8152600481018390529192506001600160a01b0316906334e6436c90602401602060405180830381600087803b158015613d9157600080fd5b505af1158015613da5573d6000803e3d6000fd5b505050506040513d601f19601f82011682018060405250810190611364919061590f565b806060015115613e005760405162461bcd60e51b8152602060048201526002602482015261703160f01b6044820152606401613c3e565b8051600090613e1757613e1284610ce4565b613e19565b835b60cf5460405163b1918c9560e01b81529192506000916001600160a01b039091169063b1918c9590613e5390339086908990600401615ca8565b602060405180830381600087803b158015613e6d57600080fd5b505af1158015613e81573d6000803e3d6000fd5b505050506040513d601f19601f82011682018060405250810190613ea591906158f2565b905080610b4c5760405162461bcd60e51b81526020600482015260076024820152666e6f46756e647360c81b6044820152606401613c3e565b600080805b8351811015613f2d57838181518110613efe57613efe615860565b6020026020010151600014613f1b5781613f17816158c7565b9250505b80613f25816158c7565b915050613ee3565b5092915050565b60d954604051637b01d59f60e01b815260048101849052602481018390526000916001600160a01b031690637b01d59f90604401600060405180830381600087803b158015613f8257600080fd5b505af1158015613f96573d6000803e3d6000fd5b505050506040513d6000823e601f3d908101601f19168201604052613fbe9190810190615cd8565b60d25460405163088d210f60e41b81529192506001600160a01b0316906388d210f090613ff19087908590600401615c8f565b600060405180830381600087803b15801561400b57600080fd5b505af115801561401f573d6000803e3d6000fd5b5050505050505050565b614031613bfc565b6097805460ff191660011790557f62e78cea01bee320cd4e420270b5ea74000d11b0c9f74754ebdbfc544b05a258613bdf3390565b60006002606460da5460018761407c9190615bc5565b614087906002615df0565b61409390612710615b47565b6140a590670de0b6b3a7640000615b47565b6140af9190615b47565b6140b99190615b7c565b6140c39190615b7c565b9050826004146140dd576140d8816002615b47565b6140df565b805b90506000836004141561410c5760028511156140fd57612ee0614101565b6113885b61ffff169050614128565b600285111561411d57618ca0614121565b613a985b61ffff1690505b821561423457614139826002615b47565b9150600061414f6801158e460913d00000610ce4565b9050846005141561417657614165816002615b47565b61416f9084615b2f565b925061418c565b600286111561418c576141898184615b2f565b92505b60db546001600160a01b0316637700db8834336141a887612163565b6040516001600160e01b031960e086901b1681526001600160a01b0390921660048301526024820152600160448201526064016020604051808303818588803b1580156141f457600080fd5b505af1158015614208573d6000803e3d6000fd5b50505050506040513d601f19601f8201168201806040525081019061422d919061590f565b5050610b4c565b60408051601980825261034082019092526000916020820161032080368337019050509050818161426688600d615b2f565b8151811061427657614276615860565b60200260200101818152505084600514156142bb57610fa08161429a886014615b2f565b815181106142aa576142aa615860565b6020026020010181815250506142f0565b60028611156142f0576107d0816142d3886014615b2f565b815181106142e3576142e3615860565b6020026020010181815250505b604080516080810182526001815260006020820181905291810182905260608101919091526113649084908390613c49565b60005b8351811015610b4c5760408051600280825260608201835260009260208301908036833701905050905085604001518160008151811061436757614367615860565b602090810291909101015260d15460608701516001600160a01b039091169063d19435ff90339060019060329061439f908890615b2f565b6143a9888a615b2f565b6040516001600160e01b031960e088901b1681526001600160a01b039095166004860152602485019390935260448401919091526064830152608482015260a40160206040518083038186803b15801561440257600080fd5b505afa158015614416573d6000803e3d6000fd5b505050506040513d601f19601f8201168201806040525081019061443a919061590f565b8160018151811061444d5761444d615860565b602090810291909101015260408051600680825260e0820190925260009181602001602082028036833701905050905086600001518160008151811061449557614495615860565b6020026020010181815250508660200151816001815181106144b9576144b9615860565b602090810291909101015260408051600680825260e082019092526000918160200160208202803683370190505090506001816000815181106144fe576144fe615860565b60200260200101818152505060018160018151811061451f5761451f615860565b60200260200101818152505060d260000160009054906101000a90046001600160a01b03166001600160a01b03166366dbd6be33604051806101800160405280600081526020018b898151811061457857614578615860565b602002602001015181526020018a898151811061459757614597615860565b60200260200101518152602001336001600160a01b03168152602001600081526020018c6060015181526020016000815260200160008152602001868152602001878152602001858152602001600015158152506040518363ffffffff1660e01b8152600401614608929190615dfc565b600060405180830381600087803b15801561462257600080fd5b505af1158015614636573d6000803e3d6000fd5b505060d254600092506001600160a01b031690506341f63bfd6146598789615b2f565b6040518263ffffffff1660e01b815260040161467791815260200190565b60006040518083038186803b15801561468f57600080fd5b505afa1580156146a3573d6000803e3d6000fd5b505050506040513d6000823e601f3d908101601f191682016040526146cb91908101906159d3565b60d2549091506001600160a01b031663de71b0676146e98789615b2f565b60648460c00151607d6146fc9190615b47565b6147069190615b7c565b6040516001600160e01b031960e085901b16815260048101929092526024820152604401600060405180830381600087803b15801561474457600080fd5b505af1158015614758573d6000803e3d6000fd5b5050505050505050808061476b906158c7565b915050614325565b600054610100900460ff16613c4757600080fd5b600054610100900460ff1661479b57600080fd5b613c47614953565b610c748282613abd565b60006147b98284615e20565b6147ce576147c78284615b7c565b905061095c565b6147d88284615b7c565b6147e3906001615b2f565b9392505050565b60cc80546001600160a01b038089166001600160a01b03199283161790925560cd805488841690831617905560ce805487841690831617905560cf80549286169290911691909117905561483d82614973565b60d081905560cd5460405163095ea7b360e01b81526001600160a01b03868116600483015260001960248301529091169063095ea7b390604401600060405180830381600087803b15801561489157600080fd5b505af11580156148a5573d6000803e3d6000fd5b50505050505050505050565b6148bb82826116ca565b610c74576148c881614a62565b6148d3836020614a74565b6040516020016148e4929190615e34565b60408051601f198184030181529082905262461bcd60e51b8252613c3e91600401615ea9565b60975460ff16613c475760405162461bcd60e51b815260206004820152601460248201527314185d5cd8589b194e881b9bdd081c185d5cd95960621b6044820152606401613c3e565b600054610100900460ff1661496757600080fd5b6097805460ff19169055565b60008190506000816001600160a01b031663c1cc57b06040518163ffffffff1660e01b815260040160006040518083038186803b1580156149b357600080fd5b505afa1580156149c7573d6000803e3d6000fd5b505050506040513d6000823e601f3d908101601f191682016040526149ef9190810190615ebc565b905060005b8151811015614a5957818181518110614a0f57614a0f615860565b602090810291909101810151600083815260cb909252604090912080546001600160a01b0319166001600160a01b0390921691909117905580614a51816158c7565b9150506149f4565b505160ca555050565b606061095c6001600160a01b03831660145b60606000614a83836002615b47565b614a8e906002615b2f565b6001600160401b03811115614aa557614aa5614d67565b6040519080825280601f01601f191660200182016040528015614acf576020820181803683370190505b509050600360fc1b81600081518110614aea57614aea615860565b60200101906001600160f81b031916908160001a905350600f60fb1b81600181518110614b1957614b19615860565b60200101906001600160f81b031916908160001a9053506000614b3d846002615b47565b614b48906001615b2f565b90505b6001811115614bc0576f181899199a1a9b1b9c1cb0b131b232b360811b85600f1660108110614b7c57614b7c615860565b1a60f81b828281518110614b9257614b92615860565b60200101906001600160f81b031916908160001a90535060049490941c93614bb981615f55565b9050614b4b565b5083156147e357600080fd5b828054614bd890615876565b90600052602060002090601f016020900481019282614bfa5760008555614c40565b82601f10614c1357805160ff1916838001178555614c40565b82800160010185558215614c40579182015b82811115614c40578251825591602001919060010190614c25565b50614c4c929150614cf6565b5090565b828054828255906000526020600020908101928215614c405791602002820182811115614c40578251825591602001919060010190614c25565b60405180610180016040528060008152602001606081526020016060815260200160006001600160a01b03168152602001600081526020016000815260200160008152602001600081526020016060815260200160608152602001606081526020016000151581525090565b5b80821115614c4c5760008155600101614cf7565b600060208284031215614d1d57600080fd5b81356001600160e01b0319811681146147e357600080fd5b6001600160a01b0381168114610ce157600080fd5b600060208284031215614d5c57600080fd5b81356147e381614d35565b634e487b7160e01b600052604160045260246000fd5b604051608081016001600160401b0381118282101715614d9f57614d9f614d67565b60405290565b60405161018081016001600160401b0381118282101715614d9f57614d9f614d67565b604051601f8201601f191681016001600160401b0381118282101715614df057614df0614d67565b604052919050565b60006001600160401b03821115614e1157614e11614d67565b5060051b60200190565b600082601f830112614e2c57600080fd5b81356020614e41614e3c83614df8565b614dc8565b82815260059290921b84018101918181019086841115614e6057600080fd5b8286015b84811015614e7b5780358352918301918301614e64565b509695505050505050565b600060208284031215614e9857600080fd5b81356001600160401b03811115614eae57600080fd5b614eba84828501614e1b565b949350505050565b60005b83811015614edd578181015183820152602001614ec5565b8381111561226b5750506000910152565b60008151808452614f06816020860160208601614ec2565b601f01601f19169290920160200192915050565b6000602080830181845280855180835260408601915060408160051b870101925083870160005b82811015614f6f57603f19888603018452614f5d858351614eee565b94509285019290850190600101614f41565b5092979650505050505050565b600080600060608486031215614f9157600080fd5b8335614f9c81614d35565b92506020840135614fac81614d35565b929592945050506040919091013590565b600081518084526020808501945080840160005b83811015614fed57815187529582019590820190600101614fd1565b509495945050505050565b600061018082518452602083015181602086015261501882860182614eee565b915050604083015184820360408601526150328282614eee565b915050606083015161504f60608601826001600160a01b03169052565b506080830151608085015260a083015160a085015260c083015160c085015260e083015160e085015261010080840151858303828701526150908382614fbd565b9250505061012080840151858303828701526150ac8382614fbd565b9250505061014080840151858303828701526150c88382614fbd565b92505050610160808401516150e08287018215159052565b5090949350505050565b600081518084526020808501808196506005915083821b81018387016000805b87811015615173578484038b5282518051808652908801908886019080891b87018a01855b8281101561515d57601f1989830301845261514b828651614ff8565b948c0194938c0193915060010161512f565b509d8a019d96505050928701925060010161510a565b50919998505050505050505050565b60006040808301818452808651808352606092508286019150828160051b8701016020808a0160005b8481101561521857605f198a850301865281516080815186528482015181868801526151d982880182614eee565b838c01516001600160a01b0316888d0152928a01518784038b89015292915061520490508183614fbd565b9785019795505050908201906001016151ab565b50508782039088015261522b81896150ea565b9998505050505050505050565b60006020828403121561524a57600080fd5b5035919050565b6000806040838503121561526457600080fd5b82359150602083013561527681614d35565b809150509250929050565b60006001600160401b0382111561529a5761529a614d67565b50601f01601f191660200190565b600082601f8301126152b957600080fd5b81356152c7614e3c82615281565b8181528460208386010111156152dc57600080fd5b816020850160208301376000918101602001919091529392505050565b6000806000806080858703121561530f57600080fd5b843593506020850135925060408501356001600160401b038082111561533457600080fd5b615340888389016152a8565b9350606087013591508082111561535657600080fd5b50615363878288016152a8565b91505092959194509250565b600080600080600060a0868803121561538757600080fd5b853594506020860135935060408601356001600160401b03808211156153ac57600080fd5b6153b889838a016152a8565b945060608801359150808211156153ce57600080fd5b506153db888289016152a8565b95989497509295608001359392505050565b600082601f8301126153fe57600080fd5b8135602061540e614e3c83614df8565b82815260059290921b8401810191818101908684111561542d57600080fd5b8286015b84811015614e7b5780356001600160401b038111156154505760008081fd5b61545e8986838b01016152a8565b845250918301918301615431565b8015158114610ce157600080fd5b600080600080600080600060e0888a03121561549557600080fd5b87356001600160401b03808211156154ac57600080fd5b6154b88b838c016152a8565b985060208a01359150808211156154ce57600080fd5b6154da8b838c016153ed565b975060408a0135965060608a0135955060808a0135945060a08a013591508082111561550557600080fd5b506155128a828b016153ed565b92505060c08801356155238161546c565b8091505092959891949750929550565b6000806040838503121561554657600080fd5b823561555181614d35565b9150602083013561527681614d35565b6000806040838503121561557457600080fd5b50508035926020909101359150565b6000602080838503121561559657600080fd5b82356001600160401b03808211156155ad57600080fd5b818501915085601f8301126155c157600080fd5b81356155cf614e3c82614df8565b81815260059190911b830184019084810190888311156155ee57600080fd5b8585015b838110156156a15780358581111561560a5760008081fd5b86016080818c03601f19018113156156225760008081fd5b61562a614d7d565b898301358152604080840135898111156156445760008081fd5b6156528f8d838801016152a8565b8c8401525060608085013561566681614d35565b8383015292840135928984111561567f57600091508182fd5b61568d8f8d86880101614e1b565b9083015250855250509186019186016155f2565b5098975050505050505050565b600080600080600080600060e0888a0312156156c957600080fd5b8735965060208801356001600160401b03808211156154ce57600080fd5b6000806000606084860312156156fc57600080fd5b833561570781614d35565b9250602084013561571781614d35565b9150604084013561572781614d35565b809150509250925092565b60008060006060848603121561574757600080fd5b83356001600160401b0381111561575d57600080fd5b61576986828701614e1b565b935050602084013561577a8161546c565b915060408401356157278161546c565b6000806040838503121561579d57600080fd5b82356157a881614d35565b946020939093013593505050565b60008060008060008060c087890312156157cf57600080fd5b86356157da81614d35565b955060208701356157ea81614d35565b945060408701356157fa81614d35565b9350606087013561580a81614d35565b9250608087013561581a81614d35565b8092505060a087013590509295509295509295565b8381526060602082015260006158486060830185614eee565b905060018060a01b0383166040830152949350505050565b634e487b7160e01b600052603260045260246000fd5b600181811c9082168061588a57607f821691505b602082108114156158ab57634e487b7160e01b600052602260045260246000fd5b50919050565b634e487b7160e01b600052601160045260246000fd5b60006000198214156158db576158db6158b1565b5060010190565b80516158ed8161546c565b919050565b60006020828403121561590457600080fd5b81516147e38161546c565b60006020828403121561592157600080fd5b5051919050565b600082601f83011261593957600080fd5b8151615947614e3c82615281565b81815284602083860101111561595c57600080fd5b614eba826020830160208701614ec2565b80516158ed81614d35565b600082601f83011261598957600080fd5b81516020615999614e3c83614df8565b82815260059290921b840181019181810190868411156159b857600080fd5b8286015b84811015614e7b57805183529183019183016159bc565b6000602082840312156159e557600080fd5b81516001600160401b03808211156159fc57600080fd5b908301906101808286031215615a1157600080fd5b615a19614da5565b82518152602083015182811115615a2f57600080fd5b615a3b87828601615928565b602083015250604083015182811115615a5357600080fd5b615a5f87828601615928565b604083015250615a716060840161596d565b60608201526080830151608082015260a083015160a082015260c083015160c082015260e083015160e08201526101008084015183811115615ab257600080fd5b615abe88828701615978565b8284015250506101208084015183811115615ad857600080fd5b615ae488828701615978565b8284015250506101408084015183811115615afe57600080fd5b615b0a88828701615978565b8284015250506101609150615b208284016158e2565b91810191909152949350505050565b60008219821115615b4257615b426158b1565b500190565b6000816000190483118215151615615b6157615b616158b1565b500290565b634e487b7160e01b600052601260045260246000fd5b600082615b8b57615b8b615b66565b500490565b838152606060208201526000615ba96060830185614eee565b8281036040840152615bbb8185614eee565b9695505050505050565b600082821015615bd757615bd76158b1565b500390565b60018060a01b0385168152836020820152608060408201526000615c036080830185614eee565b905082606083015295945050505050565b600060208284031215615c2657600080fd5b81516147e381614d35565b838152606060208201526000615c4a6060830185614fbd565b8281036040840152615bbb8185614fbd565b828152606060208201526000615c756060830184614eee565b828103604084015260008152602081019150509392505050565b828152604060208201526000614eba6040830184614fbd565b60018060a01b0384168152826020820152606060408201526000615ccf6060830184614fbd565b95945050505050565b600060208284031215615cea57600080fd5b81516001600160401b03811115615d0057600080fd5b614eba84828501615978565b600181815b80851115615d47578160001904821115615d2d57615d2d6158b1565b80851615615d3a57918102915b93841c9390800290615d11565b509250929050565b600082615d5e5750600161095c565b81615d6b5750600061095c565b8160018114615d815760028114615d8b57615da7565b600191505061095c565b60ff841115615d9c57615d9c6158b1565b50506001821b61095c565b5060208310610133831016604e8410600b8410161715615dca575081810a61095c565b615dd48383615d0c565b8060001904821115615de857615de86158b1565b029392505050565b60006147e38383615d4f565b6001600160a01b0383168152604060208201819052600090614eba90830184614ff8565b600082615e2f57615e2f615b66565b500690565b7f416363657373436f6e74726f6c3a206163636f756e7420000000000000000000815260008351615e6c816017850160208801614ec2565b7001034b99036b4b9b9b4b733903937b6329607d1b6017918401918201528351615e9d816028840160208801614ec2565b01602801949350505050565b6020815260006147e36020830184614eee565b60006020808385031215615ecf57600080fd5b82516001600160401b03811115615ee557600080fd5b8301601f81018513615ef657600080fd5b8051615f04614e3c82614df8565b81815260059190911b82018301908381019087831115615f2357600080fd5b928401925b82841015615f4a578351615f3b81614d35565b82529284019290840190615f28565b979650505050505050565b600081615f6457615f646158b1565b50600019019056fe97667070c54ef182b0f5858b034beac1b6f3089aa2d3188bb1e8929f4fa9b929a264697066735822122078bdf6ebb2019362be3cb27ef11d65cbb3f66eb08ab9cb3fcb06a67fdb7c821764736f6c63430008090033",
  "linkReferences": {},
  "deployedLinkReferences": {}
}