{
  "_format": "hh-sol-artifact-1",
  "contractName": "BkVaultV2",
  "sourceName": "contracts/features/BkVaultV2/BkVaultV2.sol",
  "abi": [
    {
      "inputs": [],
      "name": "ECDSAInvalidSignature",
      "type": "error"
    },
    {
      "inputs": [
        {
          "internalType": "uint256",
          "name": "length",
          "type": "uint256"
        }
      ],
      "name": "ECDSAInvalidSignatureLength",
      "type": "error"
    },
    {
      "inputs": [
        {
          "internalType": "bytes32",
          "name": "s",
          "type": "bytes32"
        }
      ],
      "name": "ECDSAInvalidSignatureS",
      "type": "error"
    },
    {
      "anonymous": false,
      "inputs": [
        {
          "indexed": false,
          "internalType": "address",
          "name": "playerAddress",
          "type": "address"
        },
        {
          "indexed": false,
          "internalType": "uint256",
          "name": "eBct",
          "type": "uint256"
        },
        {
          "indexed": false,
          "internalType": "uint256[]",
          "name": "resources",
          "type": "uint256[]"
        }
      ],
      "name": "Claimed",
      "type": "event"
    },
    {
      "anonymous": false,
      "inputs": [
        {
          "indexed": false,
          "internalType": "uint8",
          "name": "version",
          "type": "uint8"
        }
      ],
      "name": "Initialized",
      "type": "event"
    },
    {
      "anonymous": false,
      "inputs": [
        {
          "indexed": false,
          "internalType": "address",
          "name": "account",
          "type": "address"
        }
      ],
      "name": "Paused",
      "type": "event"
    },
    {
      "anonymous": false,
      "inputs": [
        {
          "indexed": true,
          "internalType": "bytes32",
          "name": "role",
          "type": "bytes32"
        },
        {
          "indexed": true,
          "internalType": "bytes32",
          "name": "previousAdminRole",
          "type": "bytes32"
        },
        {
          "indexed": true,
          "internalType": "bytes32",
          "name": "newAdminRole",
          "type": "bytes32"
        }
      ],
      "name": "RoleAdminChanged",
      "type": "event"
    },
    {
      "anonymous": false,
      "inputs": [
        {
          "indexed": true,
          "internalType": "bytes32",
          "name": "role",
          "type": "bytes32"
        },
        {
          "indexed": true,
          "internalType": "address",
          "name": "account",
          "type": "address"
        },
        {
          "indexed": true,
          "internalType": "address",
          "name": "sender",
          "type": "address"
        }
      ],
      "name": "RoleGranted",
      "type": "event"
    },
    {
      "anonymous": false,
      "inputs": [
        {
          "indexed": true,
          "internalType": "bytes32",
          "name": "role",
          "type": "bytes32"
        },
        {
          "indexed": true,
          "internalType": "address",
          "name": "account",
          "type": "address"
        },
        {
          "indexed": true,
          "internalType": "address",
          "name": "sender",
          "type": "address"
        }
      ],
      "name": "RoleRevoked",
      "type": "event"
    },
    {
      "anonymous": false,
      "inputs": [
        {
          "indexed": false,
          "internalType": "address",
          "name": "account",
          "type": "address"
        }
      ],
      "name": "Unpaused",
      "type": "event"
    },
    {
      "inputs": [],
      "name": "DEFAULT_ADMIN_ROLE",
      "outputs": [
        {
          "internalType": "bytes32",
          "name": "",
          "type": "bytes32"
        }
      ],
      "stateMutability": "view",
      "type": "function"
    },
    {
      "inputs": [
        {
          "internalType": "address",
          "name": "_operator",
          "type": "address"
        }
      ],
      "name": "__Administrable_init",
      "outputs": [],
      "stateMutability": "nonpayable",
      "type": "function"
    },
    {
      "inputs": [
        {
          "internalType": "bytes32",
          "name": "hashDigest",
          "type": "bytes32"
        },
        {
          "components": [
            {
              "internalType": "address",
              "name": "guardianAddress",
              "type": "address"
            },
            {
              "internalType": "address",
              "name": "playerAddress",
              "type": "address"
            },
            {
              "internalType": "uint256",
              "name": "eBct",
              "type": "uint256"
            },
            {
              "internalType": "uint256[]",
              "name": "resources",
              "type": "uint256[]"
            },
            {
              "internalType": "uint256",
              "name": "nonce",
              "type": "uint256"
            }
          ],
          "internalType": "struct VaultSignatureV2.ClaimData",
          "name": "claimData",
          "type": "tuple"
        },
        {
          "components": [
            {
              "internalType": "address",
              "name": "signer",
              "type": "address"
            },
            {
              "internalType": "uint8",
              "name": "_v",
              "type": "uint8"
            },
            {
              "internalType": "bytes32",
              "name": "_r",
              "type": "bytes32"
            },
            {
              "internalType": "bytes32",
              "name": "_s",
              "type": "bytes32"
            }
          ],
          "internalType": "struct VaultSigGuardianV2.SignatureData",
          "name": "signatureData",
          "type": "tuple"
        }
      ],
      "name": "claim",
      "outputs": [],
      "stateMutability": "nonpayable",
      "type": "function"
    },
    {
      "inputs": [
        {
          "internalType": "bytes32",
          "name": "role",
          "type": "bytes32"
        }
      ],
      "name": "getRoleAdmin",
      "outputs": [
        {
          "internalType": "bytes32",
          "name": "",
          "type": "bytes32"
        }
      ],
      "stateMutability": "view",
      "type": "function"
    },
    {
      "inputs": [
        {
          "internalType": "bytes32",
          "name": "role",
          "type": "bytes32"
        },
        {
          "internalType": "address",
          "name": "account",
          "type": "address"
        }
      ],
      "name": "grantRole",
      "outputs": [],
      "stateMutability": "nonpayable",
      "type": "function"
    },
    {
      "inputs": [
        {
          "internalType": "bytes32",
          "name": "role",
          "type": "bytes32"
        },
        {
          "internalType": "address",
          "name": "account",
          "type": "address"
        }
      ],
      "name": "hasRole",
      "outputs": [
        {
          "internalType": "bool",
          "name": "",
          "type": "bool"
        }
      ],
      "stateMutability": "view",
      "type": "function"
    },
    {
      "inputs": [
        {
          "internalType": "address",
          "name": "_operator",
          "type": "address"
        },
        {
          "internalType": "address",
          "name": "_initialValidator",
          "type": "address"
        }
      ],
      "name": "initialize",
      "outputs": [],
      "stateMutability": "nonpayable",
      "type": "function"
    },
    {
      "inputs": [
        {
          "internalType": "address",
          "name": "",
          "type": "address"
        }
      ],
      "name": "lastNonceUpBlock",
      "outputs": [
        {
          "internalType": "uint256",
          "name": "",
          "type": "uint256"
        }
      ],
      "stateMutability": "view",
      "type": "function"
    },
    {
      "inputs": [
        {
          "internalType": "address",
          "name": "",
          "type": "address"
        }
      ],
      "name": "nonces",
      "outputs": [
        {
          "internalType": "uint256",
          "name": "",
          "type": "uint256"
        }
      ],
      "stateMutability": "view",
      "type": "function"
    },
    {
      "inputs": [],
      "name": "pause",
      "outputs": [],
      "stateMutability": "nonpayable",
      "type": "function"
    },
    {
      "inputs": [],
      "name": "paused",
      "outputs": [
        {
          "internalType": "bool",
          "name": "",
          "type": "bool"
        }
      ],
      "stateMutability": "view",
      "type": "function"
    },
    {
      "inputs": [
        {
          "internalType": "address",
          "name": "tokenAddress",
          "type": "address"
        },
        {
          "internalType": "address",
          "name": "to",
          "type": "address"
        },
        {
          "internalType": "uint256",
          "name": "amount",
          "type": "uint256"
        }
      ],
      "name": "recoverERC20",
      "outputs": [],
      "stateMutability": "nonpayable",
      "type": "function"
    },
    {
      "inputs": [
        {
          "internalType": "bytes32",
          "name": "role",
          "type": "bytes32"
        },
        {
          "internalType": "address",
          "name": "account",
          "type": "address"
        }
      ],
      "name": "renounceRole",
      "outputs": [],
      "stateMutability": "nonpayable",
      "type": "function"
    },
    {
      "inputs": [
        {
          "internalType": "bytes32",
          "name": "role",
          "type": "bytes32"
        },
        {
          "internalType": "address",
          "name": "account",
          "type": "address"
        }
      ],
      "name": "revokeRole",
      "outputs": [],
      "stateMutability": "nonpayable",
      "type": "function"
    },
    {
      "inputs": [
        {
          "internalType": "address",
          "name": "_farm",
          "type": "address"
        }
      ],
      "name": "setContracts",
      "outputs": [],
      "stateMutability": "nonpayable",
      "type": "function"
    },
    {
      "inputs": [
        {
          "internalType": "address",
          "name": "validator",
          "type": "address"
        },
        {
          "internalType": "bool",
          "name": "isValid",
          "type": "bool"
        }
      ],
      "name": "setValidator",
      "outputs": [],
      "stateMutability": "nonpayable",
      "type": "function"
    },
    {
      "inputs": [
        {
          "internalType": "bytes4",
          "name": "interfaceId",
          "type": "bytes4"
        }
      ],
      "name": "supportsInterface",
      "outputs": [
        {
          "internalType": "bool",
          "name": "",
          "type": "bool"
        }
      ],
      "stateMutability": "view",
      "type": "function"
    },
    {
      "inputs": [],
      "name": "unpause",
      "outputs": [],
      "stateMutability": "nonpayable",
      "type": "function"
    }
  ],
  "bytecode": "0x608060405234801561001057600080fd5b50611910806100206000396000f3fe608060405234801561001057600080fd5b50600436106101165760003560e01c80635a2e2f47116100a257806388d8d28c1161007157806388d8d28c1461023657806391d1485414610256578063a217fddf14610269578063d547741f14610271578063dc3af73c1461028457600080fd5b80635a2e2f47146101f05780635c975abb146102035780637ecebe001461020e5780638456cb591461022e57600080fd5b80632f2ff15d116100e95780632f2ff15d1461019c57806336568abe146101af5780633f4ba83a146101c25780634623c91d146101ca578063485cc955146101dd57600080fd5b806301ffc9a71461011b578063070b6449146101435780631171bda914610158578063248a9ca31461016b575b600080fd5b61012e6101293660046112d8565b610297565b60405190151581526020015b60405180910390f35b61015661015136600461131e565b6102ce565b005b610156610166366004611339565b610407565b61018e610179366004611375565b60009081526069602052604090206001015490565b60405190815260200161013a565b6101566101aa36600461138e565b610499565b6101566101bd36600461138e565b6104c3565b61015661053d565b6101566101d83660046113c8565b610560565b6101566101eb3660046113ff565b610582565b6101566101fe36600461131e565b610668565b609b5460ff1661012e565b61018e61021c36600461131e565b60026020526000908152604090205481565b6101566106a3565b61018e61024436600461131e565b60036020526000908152604090205481565b61012e61026436600461138e565b6106c3565b61018e600081565b61015661027f36600461138e565b6106ee565b6101566102923660046114b1565b610713565b60006001600160e01b03198216637965db0b60e01b14806102c857506301ffc9a760e01b6001600160e01b03198316145b92915050565b60045462010000900460ff16158080156102f35750600454600161010090910460ff16105b806103135750303b158015610313575060045460ff610100909104166001145b6103385760405162461bcd60e51b815260040161032f906115d5565b60405180910390fd5b6004805461ff001916610100179055801561035f576004805462ff00001916620100001790555b61036761073d565b61036f610767565b61037a600083610797565b6103926000805160206118bb83398151915283610797565b6103bc7f73e573f9566d61418a34d5de3ff49360f9c51fec37f7486551670290f6285dab83610797565b8015610403576004805462ff000019169055604051600181527f7f26b83ff96e1f2b6a682f133852f6798a09c465da95921460cefb38474024989060200160405180910390a15b5050565b6000805160206118bb83398151915261041f816107a1565b60405163a9059cbb60e01b81526001600160a01b0384811660048301526024820184905285169063a9059cbb906044016020604051808303816000875af115801561046e573d6000803e3d6000fd5b505050506040513d601f19601f820116820180604052508101906104929190611623565b5050505050565b6000828152606960205260409020600101546104b4816107a1565b6104be83836107ab565b505050565b6001600160a01b03811633146105335760405162461bcd60e51b815260206004820152602f60248201527f416363657373436f6e74726f6c3a2063616e206f6e6c792072656e6f756e636560448201526e103937b632b9903337b91039b2b63360891b606482015260840161032f565b6104038282610831565b6000805160206118bb833981519152610555816107a1565b61055d610898565b50565b6000805160206118bb833981519152610578816107a1565b6104be83836108ea565b60045462010000900460ff16158080156105a75750600454600161010090910460ff16105b806105c75750303b1580156105c7575060045460ff610100909104166001145b6105e35760405162461bcd60e51b815260040161032f906115d5565b6004805461ff001916610100179055801561060a576004805462ff00001916620100001790555b610613836102ce565b61061c82610915565b80156104be576004805462ff000019169055604051600181527f7f26b83ff96e1f2b6a682f133852f6798a09c465da95921460cefb3847402498906020015b60405180910390a1505050565b6000805160206118bb833981519152610680816107a1565b5060cd80546001600160a01b0319166001600160a01b0392909216919091179055565b6000805160206118bb8339815191526106bb816107a1565b61055d610979565b60009182526069602090815260408084206001600160a01b0393909316845291905290205460ff1690565b600082815260696020526040902060010154610709816107a1565b6104be8383610831565b61071b6109b6565b6107268383836109fc565b6104be826020015183604001518460600151610bae565b60045462010000900460ff166107655760405162461bcd60e51b815260040161032f90611640565b565b60045462010000900460ff1661078f5760405162461bcd60e51b815260040161032f90611640565b610765610c47565b61040382826107ab565b61055d8133610c7b565b6107b582826106c3565b6104035760008281526069602090815260408083206001600160a01b03851684529091529020805460ff191660011790556107ed3390565b6001600160a01b0316816001600160a01b0316837f2f8788117e7eff1d82e926ec794901d17c78024a50270940304540a733656f0d60405160405180910390a45050565b61083b82826106c3565b156104035760008281526069602090815260408083206001600160a01b0385168085529252808320805460ff1916905551339285917ff6391f5c32d9c69d2a47ea670b442974b53935d1edc7fd64eb21e047a839171b9190a45050565b6108a0610cd4565b609b805460ff191690557f5db9ee0a495bf2e6ff9c91a7834c1ba4fdd244a5e8aa4e537bd38aeae4b073aa335b6040516001600160a01b03909116815260200160405180910390a1565b6001600160a01b03919091166000908152602081905260409020805460ff1916911515919091179055565b60045460ff161561095e5760405162461bcd60e51b81526020600482015260136024820152721053149150511657d253925512505312569151606a1b604482015260640161032f565b6109698160016108ea565b506004805460ff19166001179055565b6109816109b6565b609b805460ff191660011790557f62e78cea01bee320cd4e420270b5ea74000d11b0c9f74754ebdbfc544b05a2586108cd3390565b609b5460ff16156107655760405162461bcd60e51b815260206004820152601060248201526f14185d5cd8589b194e881c185d5cd95960821b604482015260640161032f565b81516001600160a01b03163014610a445760405162461bcd60e51b815260206004820152600c60248201526b24a72b2fa3aaa0a92224a0a760a11b604482015260640161032f565b610a4e8383610d1d565b610a855760405162461bcd60e51b8152602060048201526008602482015267494e565f4441544160c01b604482015260640161032f565b610a8f8382610d33565b610ac85760405162461bcd60e51b815260206004820152600a60248201526924a72b2fa9a4a3a722a960b11b604482015260640161032f565b610ada82602001518360800151610e6b565b610b125760405162461bcd60e51b8152602060048201526009602482015268494e565f4e4f4e434560b81b604482015260640161032f565b60008381526001602052604090205460ff1615610b5d5760405162461bcd60e51b8152602060048201526009602482015268494e565f434c41494d60b81b604482015260640161032f565b506000918252600160208181526040808520805460ff191690931790925582810180516001600160a01b03908116865260038352838620439055608090940151905190931684526002905290912055565b60cd546040516304567ca960e11b81526001600160a01b03909116906308acf95290610be2908690869086906004016116c6565b600060405180830381600087803b158015610bfc57600080fd5b505af1158015610c10573d6000803e3d6000fd5b505050507fa6836ed9f6b0bfa430c6b744cac7cc781c2a5b5be98f6e7ca42d32fd16bc6af383838360405161065b939291906116c6565b60045462010000900460ff16610c6f5760405162461bcd60e51b815260040161032f90611640565b609b805460ff19169055565b610c8582826106c3565b61040357610c9281610f1d565b610c9d836020610f2f565b604051602001610cae92919061171a565b60408051601f198184030181529082905262461bcd60e51b825261032f9160040161178f565b609b5460ff166107655760405162461bcd60e51b815260206004820152601460248201527314185d5cd8589b194e881b9bdd081c185d5cd95960621b604482015260640161032f565b600080610d29836110d2565b9093149392505050565b6040517f19457468657265756d205369676e6564204d6573736167653a0a3332000000006020820152603c81018390526000908190605c016040516020818303038152906040528051906020012090506000610dab82856020016020810190610d9c91906117c2565b86604001358760600135611122565b6001600160a01b03811660009081526020819052604090205490915060ff16610e065760405162461bcd60e51b815260206004820152600d60248201526c24a72b2fab20a624a220aa27a960991b604482015260640161032f565b6001600160a01b038116610e1d602086018661131e565b6001600160a01b031614610e605760405162461bcd60e51b815260206004820152600a60248201526924a72b2fa9a4a3a722a960b11b604482015260640161032f565b506001949350505050565b6001600160a01b0382166000908152600360205260408120541580610eb457506001600160a01b038316600090815260036020526040902054610eb19062010e006117fb565b43115b610ef05760405162461bcd60e51b815260206004820152600d60248201526c12539597d393d390d157d55411609a1b604482015260640161032f565b6001600160a01b038316600090815260026020526040902054610f149060016117fb565b90911492915050565b60606102c86001600160a01b03831660145b60606000610f3e83600261180e565b610f499060026117fb565b67ffffffffffffffff811115610f6157610f61611429565b6040519080825280601f01601f191660200182016040528015610f8b576020820181803683370190505b509050600360fc1b81600081518110610fa657610fa6611825565b60200101906001600160f81b031916908160001a905350600f60fb1b81600181518110610fd557610fd5611825565b60200101906001600160f81b031916908160001a9053506000610ff984600261180e565b6110049060016117fb565b90505b600181111561107c576f181899199a1a9b1b9c1cb0b131b232b360811b85600f166010811061103857611038611825565b1a60f81b82828151811061104e5761104e611825565b60200101906001600160f81b031916908160001a90535060049490941c936110758161183b565b9050611007565b5083156110cb5760405162461bcd60e51b815260206004820181905260248201527f537472696e67733a20686578206c656e67746820696e73756666696369656e74604482015260640161032f565b9392505050565b805160208083015160408085015160608601516080870151925160009661110496909594916298454091839101611852565b60408051601f19818403018152919052805160209091012092915050565b60008060008061113488888888611150565b925092509250611144828261121f565b50909695505050505050565b600080807f7fffffffffffffffffffffffffffffff5d576e7357a4501ddfe92f46681b20a084111561118b5750600091506003905082611215565b604080516000808252602082018084528a905260ff891692820192909252606081018790526080810186905260019060a0016020604051602081039080840390855afa1580156111df573d6000803e3d6000fd5b5050604051601f1901519150506001600160a01b03811661120b57506000925060019150829050611215565b9250600091508190505b9450945094915050565b6000826003811115611233576112336118a4565b0361123c575050565b6001826003811115611250576112506118a4565b0361126e5760405163f645eedf60e01b815260040160405180910390fd5b6002826003811115611282576112826118a4565b036112a35760405163fce698f760e01b81526004810182905260240161032f565b60038260038111156112b7576112b76118a4565b03610403576040516335e2f38360e21b81526004810182905260240161032f565b6000602082840312156112ea57600080fd5b81356001600160e01b0319811681146110cb57600080fd5b80356001600160a01b038116811461131957600080fd5b919050565b60006020828403121561133057600080fd5b6110cb82611302565b60008060006060848603121561134e57600080fd5b61135784611302565b925061136560208501611302565b9150604084013590509250925092565b60006020828403121561138757600080fd5b5035919050565b600080604083850312156113a157600080fd5b823591506113b160208401611302565b90509250929050565b801515811461055d57600080fd5b600080604083850312156113db57600080fd5b6113e483611302565b915060208301356113f4816113ba565b809150509250929050565b6000806040838503121561141257600080fd5b61141b83611302565b91506113b160208401611302565b634e487b7160e01b600052604160045260246000fd5b60405160a0810167ffffffffffffffff8111828210171561146257611462611429565b60405290565b604051601f8201601f1916810167ffffffffffffffff8111828210171561149157611491611429565b604052919050565b6000608082840312156114ab57600080fd5b50919050565b600080600060c084860312156114c657600080fd5b8335925060208085013567ffffffffffffffff808211156114e657600080fd5b9086019060a082890312156114fa57600080fd5b61150261143f565b61150b83611302565b8152611518848401611302565b848201526040830135604082015260608301358281111561153857600080fd5b8301601f81018a1361154957600080fd5b80358381111561155b5761155b611429565b8060051b935061156c868501611468565b818152938201860193868101908c86111561158657600080fd5b928701925b858410156115a45783358252928701929087019061158b565b8060608601525050505060808301356080820152809550505050506115cc8560408601611499565b90509250925092565b6020808252602e908201527f496e697469616c697a61626c653a20636f6e747261637420697320616c72656160408201526d191e481a5b9a5d1a585b1a5e995960921b606082015260800190565b60006020828403121561163557600080fd5b81516110cb816113ba565b6020808252602b908201527f496e697469616c697a61626c653a20636f6e7472616374206973206e6f74206960408201526a6e697469616c697a696e6760a81b606082015260800190565b600081518084526020808501945080840160005b838110156116bb5781518752958201959082019060010161169f565b509495945050505050565b60018060a01b03841681528260208201526060604082015260006116ed606083018461168b565b95945050505050565b60005b838110156117115781810151838201526020016116f9565b50506000910152565b7f416363657373436f6e74726f6c3a206163636f756e74200000000000000000008152600083516117528160178501602088016116f6565b7001034b99036b4b9b9b4b733903937b6329607d1b60179184019182015283516117838160288401602088016116f6565b01602801949350505050565b60208152600082518060208401526117ae8160408501602087016116f6565b601f01601f19169190910160400192915050565b6000602082840312156117d457600080fd5b813560ff811681146110cb57600080fd5b634e487b7160e01b600052601160045260246000fd5b808201808211156102c8576102c86117e5565b80820281158282048414176102c8576102c86117e5565b634e487b7160e01b600052603260045260246000fd5b60008161184a5761184a6117e5565b506000190190565b6001600160a01b038881168252871660208201526040810186905260e0606082018190526000906118859083018761168b565b60808301959095525060a081019290925260c090910152949350505050565b634e487b7160e01b600052602160045260246000fdfe97667070c54ef182b0f5858b034beac1b6f3089aa2d3188bb1e8929f4fa9b929a264697066735822122058af600474fe252236684b1e04658c5e53ace54952eb3f34a42035d10715ec8964736f6c63430008140033",
  "linkReferences": {},
  "deployedLinkReferences": {}
}