{
  "_format": "hh-sol-artifact-1",
  "contractName": "BkStasher",
  "sourceName": "contracts/features/BkStasher.sol",
  "abi": [
    {
      "anonymous": false,
      "inputs": [
        {
          "indexed": false,
          "internalType": "uint8",
          "name": "version",
          "type": "uint8"
        }
      ],
      "name": "Initialized",
      "type": "event"
    },
    {
      "anonymous": false,
      "inputs": [
        {
          "indexed": false,
          "internalType": "address",
          "name": "account",
          "type": "address"
        }
      ],
      "name": "Paused",
      "type": "event"
    },
    {
      "anonymous": false,
      "inputs": [
        {
          "indexed": true,
          "internalType": "bytes32",
          "name": "role",
          "type": "bytes32"
        },
        {
          "indexed": true,
          "internalType": "bytes32",
          "name": "previousAdminRole",
          "type": "bytes32"
        },
        {
          "indexed": true,
          "internalType": "bytes32",
          "name": "newAdminRole",
          "type": "bytes32"
        }
      ],
      "name": "RoleAdminChanged",
      "type": "event"
    },
    {
      "anonymous": false,
      "inputs": [
        {
          "indexed": true,
          "internalType": "bytes32",
          "name": "role",
          "type": "bytes32"
        },
        {
          "indexed": true,
          "internalType": "address",
          "name": "account",
          "type": "address"
        },
        {
          "indexed": true,
          "internalType": "address",
          "name": "sender",
          "type": "address"
        }
      ],
      "name": "RoleGranted",
      "type": "event"
    },
    {
      "anonymous": false,
      "inputs": [
        {
          "indexed": true,
          "internalType": "bytes32",
          "name": "role",
          "type": "bytes32"
        },
        {
          "indexed": true,
          "internalType": "address",
          "name": "account",
          "type": "address"
        },
        {
          "indexed": true,
          "internalType": "address",
          "name": "sender",
          "type": "address"
        }
      ],
      "name": "RoleRevoked",
      "type": "event"
    },
    {
      "anonymous": false,
      "inputs": [
        {
          "indexed": false,
          "internalType": "address",
          "name": "account",
          "type": "address"
        },
        {
          "indexed": false,
          "internalType": "uint256",
          "name": "amount",
          "type": "uint256"
        }
      ],
      "name": "Stashed",
      "type": "event"
    },
    {
      "anonymous": false,
      "inputs": [
        {
          "indexed": false,
          "internalType": "address",
          "name": "account",
          "type": "address"
        }
      ],
      "name": "Unpaused",
      "type": "event"
    },
    {
      "anonymous": false,
      "inputs": [
        {
          "indexed": false,
          "internalType": "address",
          "name": "account",
          "type": "address"
        },
        {
          "indexed": false,
          "internalType": "uint256",
          "name": "amount",
          "type": "uint256"
        }
      ],
      "name": "Unstashed",
      "type": "event"
    },
    {
      "inputs": [],
      "name": "DEFAULT_ADMIN_ROLE",
      "outputs": [
        {
          "internalType": "bytes32",
          "name": "",
          "type": "bytes32"
        }
      ],
      "stateMutability": "view",
      "type": "function"
    },
    {
      "inputs": [
        {
          "internalType": "address",
          "name": "_operator",
          "type": "address"
        },
        {
          "internalType": "address",
          "name": "_blocklistAddress",
          "type": "address"
        }
      ],
      "name": "__Administrable_init",
      "outputs": [],
      "stateMutability": "nonpayable",
      "type": "function"
    },
    {
      "inputs": [
        {
          "internalType": "address",
          "name": "account",
          "type": "address"
        }
      ],
      "name": "balanceAndLevelOf",
      "outputs": [
        {
          "internalType": "uint256",
          "name": "",
          "type": "uint256"
        },
        {
          "internalType": "uint256",
          "name": "",
          "type": "uint256"
        }
      ],
      "stateMutability": "view",
      "type": "function"
    },
    {
      "inputs": [
        {
          "internalType": "address",
          "name": "account",
          "type": "address"
        }
      ],
      "name": "balanceOf",
      "outputs": [
        {
          "internalType": "uint256",
          "name": "",
          "type": "uint256"
        }
      ],
      "stateMutability": "view",
      "type": "function"
    },
    {
      "inputs": [
        {
          "internalType": "address",
          "name": "",
          "type": "address"
        }
      ],
      "name": "balances",
      "outputs": [
        {
          "internalType": "uint256",
          "name": "",
          "type": "uint256"
        }
      ],
      "stateMutability": "view",
      "type": "function"
    },
    {
      "inputs": [],
      "name": "bct",
      "outputs": [
        {
          "internalType": "contract IBkERC20",
          "name": "",
          "type": "address"
        }
      ],
      "stateMutability": "view",
      "type": "function"
    },
    {
      "inputs": [
        {
          "internalType": "address",
          "name": "account",
          "type": "address"
        }
      ],
      "name": "canUnstash",
      "outputs": [
        {
          "internalType": "bool",
          "name": "",
          "type": "bool"
        }
      ],
      "stateMutability": "view",
      "type": "function"
    },
    {
      "inputs": [],
      "name": "farm",
      "outputs": [
        {
          "internalType": "contract IBkFarm",
          "name": "",
          "type": "address"
        }
      ],
      "stateMutability": "view",
      "type": "function"
    },
    {
      "inputs": [
        {
          "internalType": "address",
          "name": "account",
          "type": "address"
        }
      ],
      "name": "getDataFor",
      "outputs": [
        {
          "internalType": "uint256",
          "name": "_balance",
          "type": "uint256"
        },
        {
          "internalType": "uint256",
          "name": "_level",
          "type": "uint256"
        },
        {
          "internalType": "uint256",
          "name": "_stashedAt",
          "type": "uint256"
        },
        {
          "internalType": "uint256",
          "name": "_unstashedAt",
          "type": "uint256"
        },
        {
          "internalType": "uint256",
          "name": "_canUnstashAt",
          "type": "uint256"
        }
      ],
      "stateMutability": "view",
      "type": "function"
    },
    {
      "inputs": [
        {
          "internalType": "bytes32",
          "name": "role",
          "type": "bytes32"
        }
      ],
      "name": "getRoleAdmin",
      "outputs": [
        {
          "internalType": "bytes32",
          "name": "",
          "type": "bytes32"
        }
      ],
      "stateMutability": "view",
      "type": "function"
    },
    {
      "inputs": [
        {
          "internalType": "bytes32",
          "name": "role",
          "type": "bytes32"
        },
        {
          "internalType": "address",
          "name": "account",
          "type": "address"
        }
      ],
      "name": "grantRole",
      "outputs": [],
      "stateMutability": "nonpayable",
      "type": "function"
    },
    {
      "inputs": [],
      "name": "hasBlocklist",
      "outputs": [
        {
          "internalType": "bool",
          "name": "",
          "type": "bool"
        }
      ],
      "stateMutability": "view",
      "type": "function"
    },
    {
      "inputs": [
        {
          "internalType": "address",
          "name": "",
          "type": "address"
        }
      ],
      "name": "hasInteractedAfterMigration",
      "outputs": [
        {
          "internalType": "bool",
          "name": "",
          "type": "bool"
        }
      ],
      "stateMutability": "view",
      "type": "function"
    },
    {
      "inputs": [
        {
          "internalType": "address",
          "name": "",
          "type": "address"
        }
      ],
      "name": "hasMigrated",
      "outputs": [
        {
          "internalType": "bool",
          "name": "",
          "type": "bool"
        }
      ],
      "stateMutability": "view",
      "type": "function"
    },
    {
      "inputs": [
        {
          "internalType": "bytes32",
          "name": "role",
          "type": "bytes32"
        },
        {
          "internalType": "address",
          "name": "account",
          "type": "address"
        }
      ],
      "name": "hasRole",
      "outputs": [
        {
          "internalType": "bool",
          "name": "",
          "type": "bool"
        }
      ],
      "stateMutability": "view",
      "type": "function"
    },
    {
      "inputs": [
        {
          "internalType": "address",
          "name": "",
          "type": "address"
        }
      ],
      "name": "hasStashedAfterMigration",
      "outputs": [
        {
          "internalType": "bool",
          "name": "",
          "type": "bool"
        }
      ],
      "stateMutability": "view",
      "type": "function"
    },
    {
      "inputs": [
        {
          "internalType": "address",
          "name": "_operator",
          "type": "address"
        },
        {
          "internalType": "address",
          "name": "_blocklist",
          "type": "address"
        },
        {
          "internalType": "address",
          "name": "_bct",
          "type": "address"
        }
      ],
      "name": "initialize",
      "outputs": [],
      "stateMutability": "nonpayable",
      "type": "function"
    },
    {
      "inputs": [
        {
          "internalType": "address",
          "name": "account",
          "type": "address"
        }
      ],
      "name": "levelOf",
      "outputs": [
        {
          "internalType": "uint256",
          "name": "",
          "type": "uint256"
        }
      ],
      "stateMutability": "view",
      "type": "function"
    },
    {
      "inputs": [
        {
          "internalType": "uint256",
          "name": "",
          "type": "uint256"
        }
      ],
      "name": "levelToAmount",
      "outputs": [
        {
          "internalType": "uint256",
          "name": "",
          "type": "uint256"
        }
      ],
      "stateMutability": "view",
      "type": "function"
    },
    {
      "inputs": [
        {
          "internalType": "address",
          "name": "account",
          "type": "address"
        },
        {
          "internalType": "uint256",
          "name": "amount",
          "type": "uint256"
        }
      ],
      "name": "migrateStash",
      "outputs": [],
      "stateMutability": "nonpayable",
      "type": "function"
    },
    {
      "inputs": [],
      "name": "pause",
      "outputs": [],
      "stateMutability": "nonpayable",
      "type": "function"
    },
    {
      "inputs": [],
      "name": "paused",
      "outputs": [
        {
          "internalType": "bool",
          "name": "",
          "type": "bool"
        }
      ],
      "stateMutability": "view",
      "type": "function"
    },
    {
      "inputs": [],
      "name": "playerBonus",
      "outputs": [
        {
          "internalType": "contract IBkPlayerBonus",
          "name": "",
          "type": "address"
        }
      ],
      "stateMutability": "view",
      "type": "function"
    },
    {
      "inputs": [
        {
          "internalType": "address",
          "name": "tokenAddress",
          "type": "address"
        },
        {
          "internalType": "address",
          "name": "to",
          "type": "address"
        },
        {
          "internalType": "uint256",
          "name": "amount",
          "type": "uint256"
        }
      ],
      "name": "recoverERC20",
      "outputs": [],
      "stateMutability": "nonpayable",
      "type": "function"
    },
    {
      "inputs": [
        {
          "internalType": "bytes32",
          "name": "role",
          "type": "bytes32"
        },
        {
          "internalType": "address",
          "name": "account",
          "type": "address"
        }
      ],
      "name": "renounceRole",
      "outputs": [],
      "stateMutability": "nonpayable",
      "type": "function"
    },
    {
      "inputs": [],
      "name": "resetBlocklist",
      "outputs": [],
      "stateMutability": "nonpayable",
      "type": "function"
    },
    {
      "inputs": [
        {
          "internalType": "bytes32",
          "name": "role",
          "type": "bytes32"
        },
        {
          "internalType": "address",
          "name": "account",
          "type": "address"
        }
      ],
      "name": "revokeRole",
      "outputs": [],
      "stateMutability": "nonpayable",
      "type": "function"
    },
    {
      "inputs": [
        {
          "internalType": "address",
          "name": "blocklistAddress",
          "type": "address"
        }
      ],
      "name": "setBlocklist",
      "outputs": [],
      "stateMutability": "nonpayable",
      "type": "function"
    },
    {
      "inputs": [
        {
          "internalType": "uint256",
          "name": "blocks",
          "type": "uint256"
        }
      ],
      "name": "setCooldownInBlocks",
      "outputs": [],
      "stateMutability": "nonpayable",
      "type": "function"
    },
    {
      "inputs": [
        {
          "internalType": "address",
          "name": "account",
          "type": "address"
        }
      ],
      "name": "setLevelOf",
      "outputs": [],
      "stateMutability": "nonpayable",
      "type": "function"
    },
    {
      "inputs": [
        {
          "components": [
            {
              "internalType": "uint256",
              "name": "amount",
              "type": "uint256"
            },
            {
              "internalType": "uint256",
              "name": "level",
              "type": "uint256"
            }
          ],
          "internalType": "struct BkStasher.LevelSet[]",
          "name": "_levelSet",
          "type": "tuple[]"
        }
      ],
      "name": "setLevels",
      "outputs": [],
      "stateMutability": "nonpayable",
      "type": "function"
    },
    {
      "inputs": [
        {
          "internalType": "uint256",
          "name": "_maxLevel",
          "type": "uint256"
        }
      ],
      "name": "setMaxLevel",
      "outputs": [],
      "stateMutability": "nonpayable",
      "type": "function"
    },
    {
      "inputs": [
        {
          "internalType": "address",
          "name": "_playerBonus",
          "type": "address"
        },
        {
          "internalType": "address",
          "name": "_farm",
          "type": "address"
        }
      ],
      "name": "setPlayerBonusAndFarm",
      "outputs": [],
      "stateMutability": "nonpayable",
      "type": "function"
    },
    {
      "inputs": [
        {
          "internalType": "uint256",
          "name": "amount",
          "type": "uint256"
        },
        {
          "internalType": "bool",
          "name": "fromFarm",
          "type": "bool"
        }
      ],
      "name": "stash",
      "outputs": [],
      "stateMutability": "nonpayable",
      "type": "function"
    },
    {
      "inputs": [
        {
          "internalType": "address",
          "name": "",
          "type": "address"
        }
      ],
      "name": "stashedAt",
      "outputs": [
        {
          "internalType": "uint256",
          "name": "",
          "type": "uint256"
        }
      ],
      "stateMutability": "view",
      "type": "function"
    },
    {
      "inputs": [
        {
          "internalType": "bytes4",
          "name": "interfaceId",
          "type": "bytes4"
        }
      ],
      "name": "supportsInterface",
      "outputs": [
        {
          "internalType": "bool",
          "name": "",
          "type": "bool"
        }
      ],
      "stateMutability": "view",
      "type": "function"
    },
    {
      "inputs": [],
      "name": "unpause",
      "outputs": [],
      "stateMutability": "nonpayable",
      "type": "function"
    },
    {
      "inputs": [],
      "name": "unstash",
      "outputs": [],
      "stateMutability": "nonpayable",
      "type": "function"
    },
    {
      "inputs": [
        {
          "internalType": "address",
          "name": "account",
          "type": "address"
        }
      ],
      "name": "unstashFor",
      "outputs": [],
      "stateMutability": "nonpayable",
      "type": "function"
    },
    {
      "inputs": [
        {
          "internalType": "address",
          "name": "",
          "type": "address"
        }
      ],
      "name": "withdrawnAt",
      "outputs": [
        {
          "internalType": "uint256",
          "name": "",
          "type": "uint256"
        }
      ],
      "stateMutability": "view",
      "type": "function"
    }
  ],
  "bytecode": "0x608060405234801561001057600080fd5b50611e9e806100206000396000f3fe608060405234801561001057600080fd5b50600436106102485760003560e01c806379db06df1161013b578063c0c53b8b116100b8578063d7625c881161007c578063d7625c881461059d578063de8f958a146105c0578063ecff6918146105e3578063f0c2c5471461061e578063fc7430a11461063157600080fd5b8063c0c53b8b1461052e578063ca0c8c5214610541578063ce4a1c7f14610564578063d4f7340d14610577578063d547741f1461058a57600080fd5b80638dd46856116100ff5780638dd46856146104da57806391d14854146104ed578063931da89b14610500578063a217fddf14610513578063aef18ae71461051b57600080fd5b806379db06df1461046c5780637b39b6d81461047f5780638456cb591461049f57806385d4a0d2146104a7578063893ee7fc146104ba57600080fd5b806336568abe116101c957806358e95c3d1161018d57806358e95c3d146103db5780635c138c9d146103fb5780635c975abb14610424578063634210f41461042f57806370a082311461044357600080fd5b806336568abe1461039d57806336e9332d146103b05780633c7fd822146103c35780633f4ba83a146103cb57806349e12ebd146103d357600080fd5b80631412cd6f116102105780631412cd6f14610313578063248a9ca31461032657806327e235e3146103575780632f2ff15d14610377578063344f1ba51461038a57600080fd5b806301ffc9a71461024d5780630a060a83146102755780631171bda9146102c057806312b0631b146102d557806313074be4146102e8575b600080fd5b61026061025b3660046119ea565b610644565b60405190151581526020015b60405180910390f35b6102ab610283366004611a30565b6001600160a01b0316600090815260ce602090815260408083205460d2909252909120549091565b6040805192835260208301919091520161026c565b6102d36102ce366004611a4b565b61067b565b005b6102d36102e3366004611a87565b61071c565b60cb546102fb906001600160a01b031681565b6040516001600160a01b03909116815260200161026c565b6102d3610321366004611b0a565b6107a6565b610349610334366004611b3a565b60009081526065602052604090206001015490565b60405190815260200161026c565b610349610365366004611a30565b60ce6020526000908152604090205481565b6102d3610385366004611b53565b610836565b6102d3610398366004611b3a565b610860565b6102d36103ab366004611b53565b61087e565b60cc546102fb906001600160a01b031681565b6102d361089d565b6102d36108c8565b6102d36108eb565b6103496103e9366004611a30565b60d56020526000908152604090205481565b610349610409366004611a30565b6001600160a01b0316600090815260d2602052604090205490565b60975460ff16610260565b60c95461026090600160a01b900460ff1681565b610349610451366004611a30565b6001600160a01b0316600090815260ce602052604090205490565b6102d361047a366004611a30565b610a2f565b61034961048d366004611a30565b60cd6020526000908152604090205481565b6102d3610b00565b6102d36104b5366004611b3a565b610b20565b6103496104c8366004611b3a565b60cf6020526000908152604090205481565b6102d36104e8366004611b7f565b610b3e565b6102606104fb366004611b53565b610b85565b6102d361050e366004611b7f565b610bb0565b610349600081565b6102d3610529366004611a30565b610cc6565b6102d361053c366004611ba9565b610d06565b61026061054f366004611a30565b60d66020526000908152604090205460ff1681565b60ca546102fb906001600160a01b031681565b6102d3610585366004611bec565b610de8565b6102d3610598366004611b53565b610e9b565b6102606105ab366004611a30565b60d06020526000908152604090205460ff1681565b6102606105ce366004611a30565b60d16020526000908152604090205460ff1681565b6105f66105f1366004611a30565b610ec0565b604080519586526020860194909452928401919091526060830152608082015260a00161026c565b61026061062c366004611a30565b610fbd565b6102d361063f366004611a30565b6110e0565b60006001600160e01b03198216637965db0b60e01b148061067557506301ffc9a760e01b6001600160e01b03198316145b92915050565b600080516020611e4983398151915261069381611109565b60405163a9059cbb60e01b81526001600160a01b0384811660048301526024820184905285169063a9059cbb90604401602060405180830381600087803b1580156106dd57600080fd5b505af11580156106f1573d6000803e3d6000fd5b505050506040513d601f19601f820116820180604052508101906107159190611c16565b5050505050565b600080516020611e4983398151915261073481611109565b60005b828110156107a05783838281811061075157610751611c33565b9050604002016000013560cf600086868581811061077157610771611c33565b90506040020160200135815260200190815260200160002081905550808061079890611c5f565b915050610737565b50505050565b6107ae611113565b33600090815260d1602090815260408083208054600160ff19918216811790925560d6909352922080549091169091179055801561081e5760405162461bcd60e51b8152602060048201526008602482015267111254d05093115160c21b60448201526064015b60405180910390fd5b61082833836111b6565b61083233836111f5565b5050565b60008281526065602052604090206001015461085181611109565b61085b8383611284565b505050565b600080516020611e4983398151915261087881611109565b5060d355565b6001600160a01b038116331461089357600080fd5b610832828261130a565b600080516020611e498339815191526108b581611109565b5060c980546001600160a81b0319169055565b600080516020611e498339815191526108e081611109565b6108e8611371565b50565b6108f3611113565b33600090815260d560205260409020546203f480906109129043611c7a565b10158061092f575033600090815260d1602052604090205460ff16155b6109675760405162461bcd60e51b8152602060048201526009602482015268544f4f5f4541524c5960b81b6044820152606401610815565b33600090815260cd602052604090205415801590610995575033600090815260d0602052604090205460ff16155b806109af575033600090815260d6602052604090205460ff165b15610a0a5760d45433600090815260cd60205260409020546109d19043611c7a565b1015610a0a5760405162461bcd60e51b815260206004820152600860248201526721a7a7a62227aba760c11b6044820152606401610815565b33600081815260d160205260409020805460ff19166001179055610a2d906113c3565b565b7f9bb4860ae4018b7a63008e1d4c4f2ef74d5a095e46377c820dc3f962c67498e8546001600160a01b038216600090815260ce60205260409020541015610a8a576001600160a01b0316600090815260d26020526040812055565b600060015b60d3548111610ae357600081815260cf60209081526040808320546001600160a01b038716845260ce9092529091205410610acc57809150610ad1565b610ae3565b80610adb81611c5f565b915050610a8f565b506001600160a01b03909116600090815260d26020526040902055565b600080516020611e49833981519152610b1881611109565b6108e86115ff565b600080516020611e49833981519152610b3881611109565b5060d455565b600080516020611e49833981519152610b5681611109565b5060cb80546001600160a01b039384166001600160a01b03199182161790915560cc8054929093169116179055565b60009182526065602090815260408084206001600160a01b0393909316845291905290205460ff1690565b600054610100900460ff1615808015610bd05750600054600160ff909116105b80610bea5750303b158015610bea575060005460ff166001145b610bf357600080fd5b6000805460ff191660011790558015610c16576000805461ff0019166101001790555b610c1e61163c565b610c26611650565b610c3160008461166c565b610c49600080516020611e498339815191528461166c565b610c737f73e573f9566d61418a34d5de3ff49360f9c51fec37f7486551670290f6285dab8461166c565b610c7c82610cc6565b801561085b576000805461ff0019169055604051600181527f7f26b83ff96e1f2b6a682f133852f6798a09c465da95921460cefb38474024989060200160405180910390a1505050565b600080516020611e49833981519152610cde81611109565b5060c980546001600160a81b0319166001600160a01b0390921691909117600160a01b179055565b600054610100900460ff1615808015610d265750600054600160ff909116105b80610d405750303b158015610d40575060005460ff166001145b610d4957600080fd5b6000805460ff191660011790558015610d6c576000805461ff0019166101001790555b610d768484610bb0565b60ca80546001600160a01b0319166001600160a01b038416179055600a60d3556217bb0060d45580156107a0576000805461ff0019169055604051600181527f7f26b83ff96e1f2b6a682f133852f6798a09c465da95921460cefb38474024989060200160405180910390a150505050565b7f73e573f9566d61418a34d5de3ff49360f9c51fec37f7486551670290f6285dab610e1281611109565b6001600160a01b038316600090815260d0602052604090205460ff1615610e6e5760405162461bcd60e51b815260206004820152601060248201526f105b1c9958591e481b5a59dc985d195960821b6044820152606401610815565b6001600160a01b038316600090815260d060205260409020805460ff1916600117905561085b8383611676565b600082815260656020526040902060010154610eb681611109565b61085b838361130a565b6001600160a01b038116600090815260ce602090815260408083205460d283528184205460cd84528285205460d5909452918420549093919291610f0386610fbd565b15610f1057506001610fb4565b6001600160a01b038616600090815260d5602052604090205415801590610f5957506001600160a01b038616600090815260cd602090815260408083205460d590925290912054115b15610f8b576001600160a01b038616600090815260d56020526040902054610f84906203f480611c91565b9050610fb4565b60d4546001600160a01b038716600090815260cd6020526040902054610fb19190611c91565b90505b91939590929450565b6001600160a01b038116600090815260ce6020526040812054610fe257506000919050565b6001600160a01b038216600090815260d560205260409020546203f4809061100a9043611c7a565b10801561102f57506001600160a01b038216600090815260d1602052604090205460ff165b1561103c57506000919050565b6001600160a01b038216600090815260cd60205260409020541580159061107c57506001600160a01b038216600090815260d0602052604090205460ff16155b8061109f57506001600160a01b038216600090815260d6602052604090205460ff165b156110d85760d4546001600160a01b038316600090815260cd60205260409020546110ca9043611c7a565b10156110d857506000919050565b506001919050565b600080516020611e498339815191526110f881611109565b611100611113565b610832826113c3565b6108e881336117b6565b60975460ff1615610a2d5760405162461bcd60e51b815260206004820152601060248201526f14185d5cd8589b194e881c185d5cd95960821b6044820152606401610815565b602060405180830381600087803b15801561117357600080fd5b505af1158015611187573d6000803e3d6000fd5b505050506040513d601f19601f820116820180604052508101906111ab9190611c16565b506108328282611676565b60ca546040516323b872dd60e01b81526001600160a01b03848116600483015230602483015260448201849052909116906323b872dd90606401611159565b60006064611204836028611ca9565b61120e9190611cc8565b6040805160008152602081019182905260cc546304567ca960e11b9092529192506001600160a01b03166308acf95261124c86858560248101611d00565b600060405180830381600087803b15801561126657600080fd5b505af115801561127a573d6000803e3d6000fd5b5050505050505050565b61128e8282610b85565b6108325760008281526065602090815260408083206001600160a01b03851684529091529020805460ff191660011790556112c63390565b6001600160a01b0316816001600160a01b0316837f2f8788117e7eff1d82e926ec794901d17c78024a50270940304540a733656f0d60405160405180910390a45050565b6113148282610b85565b156108325760008281526065602090815260408083206001600160a01b0385168085529252808320805460ff1916905551339285917ff6391f5c32d9c69d2a47ea670b442974b53935d1edc7fd64eb21e047a839171b9190a45050565b61137961180f565b6097805460ff191690557f5db9ee0a495bf2e6ff9c91a7834c1ba4fdd244a5e8aa4e537bd38aeae4b073aa335b6040516001600160a01b03909116815260200160405180910390a1565b6001600160a01b038116600090815260ce60205260409020546114155760405162461bcd60e51b815260206004820152600a6024820152694e4f5f42414c414e434560b01b6044820152606401610815565b6001600160a01b038116600090815260ce6020526040812054686c6b935b8bbd4000001161144d5750686c6b935b8bbd400000611468565b506001600160a01b038116600090815260ce60205260409020545b6001600160a01b038216600090815260d56020908152604080832043905560ce909152902054611499908290611c7a565b6001600160a01b038316600090815260ce60205260409020556114bb82610a2f565b60cb546001600160a01b03838116600081815260d2602052604090819020549051631ec1e36f60e11b815260048101929092526024820152911690633d83c6de90604401600060405180830381600087803b15801561151957600080fd5b505af115801561152d573d6000803e3d6000fd5b505060ca5460405163a9059cbb60e01b81526001600160a01b03868116600483015260248201869052909116925063a9059cbb9150604401602060405180830381600087803b15801561157f57600080fd5b505af1158015611593573d6000803e3d6000fd5b505050506040513d601f19601f820116820180604052508101906115b79190611c16565b50604080516001600160a01b0384168152602081018390527f6ff2a444c4353cfe4d3d0d77371942824d799f9d5256f9beb4979096362ecda891015b60405180910390a15050565b611607611113565b6097805460ff191660011790557f62e78cea01bee320cd4e420270b5ea74000d11b0c9f74754ebdbfc544b05a2586113a63390565b600054610100900460ff16610a2d57600080fd5b600054610100900460ff1661166457600080fd5b610a2d611858565b6108328282611284565b600081116116af5760405162461bcd60e51b8152600401610815906020808252600490820152637a65726f60e01b604082015260600190565b6001600160a01b038216600090815260ce6020526040812080548392906116d7908490611c91565b90915550506001600160a01b038216600090815260cd6020526040902043905561170082610a2f565b60cb546001600160a01b03838116600081815260d2602052604090819020549051631ec1e36f60e11b815260048101929092526024820152911690633d83c6de90604401600060405180830381600087803b15801561175e57600080fd5b505af1158015611772573d6000803e3d6000fd5b5050604080516001600160a01b0386168152602081018590527f3c54659ea5ff21964d07447ffa8cd103abb28ac25fe4af22bd7536d60ecfab3293500190506115f3565b6117c08282610b85565b610832576117cd81611878565b6117d883602061188a565b6040516020016117e9929190611d89565b60408051601f198184030181529082905262461bcd60e51b825261081591600401611dfe565b60975460ff16610a2d5760405162461bcd60e51b815260206004820152601460248201527314185d5cd8589b194e881b9bdd081c185d5cd95960621b6044820152606401610815565b600054610100900460ff1661186c57600080fd5b6097805460ff19169055565b60606106756001600160a01b03831660145b60606000611899836002611ca9565b6118a4906002611c91565b67ffffffffffffffff8111156118bc576118bc611cea565b6040519080825280601f01601f1916602001820160405280156118e6576020820181803683370190505b509050600360fc1b8160008151811061190157611901611c33565b60200101906001600160f81b031916908160001a905350600f60fb1b8160018151811061193057611930611c33565b60200101906001600160f81b031916908160001a9053506000611954846002611ca9565b61195f906001611c91565b90505b60018111156119d7576f181899199a1a9b1b9c1cb0b131b232b360811b85600f166010811061199357611993611c33565b1a60f81b8282815181106119a9576119a9611c33565b60200101906001600160f81b031916908160001a90535060049490941c936119d081611e31565b9050611962565b5083156119e357600080fd5b9392505050565b6000602082840312156119fc57600080fd5b81356001600160e01b0319811681146119e357600080fd5b80356001600160a01b0381168114611a2b57600080fd5b919050565b600060208284031215611a4257600080fd5b6119e382611a14565b600080600060608486031215611a6057600080fd5b611a6984611a14565b9250611a7760208501611a14565b9150604084013590509250925092565b60008060208385031215611a9a57600080fd5b823567ffffffffffffffff80821115611ab257600080fd5b818501915085601f830112611ac657600080fd5b813581811115611ad557600080fd5b8660208260061b8501011115611aea57600080fd5b60209290920196919550909350505050565b80151581146108e857600080fd5b60008060408385031215611b1d57600080fd5b823591506020830135611b2f81611afc565b809150509250929050565b600060208284031215611b4c57600080fd5b5035919050565b60008060408385031215611b6657600080fd5b82359150611b7660208401611a14565b90509250929050565b60008060408385031215611b9257600080fd5b611b9b83611a14565b9150611b7660208401611a14565b600080600060608486031215611bbe57600080fd5b611bc784611a14565b9250611bd560208501611a14565b9150611be360408501611a14565b90509250925092565b60008060408385031215611bff57600080fd5b611c0883611a14565b946020939093013593505050565b600060208284031215611c2857600080fd5b81516119e381611afc565b634e487b7160e01b600052603260045260246000fd5b634e487b7160e01b600052601160045260246000fd5b6000600019821415611c7357611c73611c49565b5060010190565b600082821015611c8c57611c8c611c49565b500390565b60008219821115611ca457611ca4611c49565b500190565b6000816000190483118215151615611cc357611cc3611c49565b500290565b600082611ce557634e487b7160e01b600052601260045260246000fd5b500490565b634e487b7160e01b600052604160045260246000fd5b6001600160a01b038416815260208082018490526060604083018190528351908301819052600091848101916080850190845b81811015611d4f57845183529383019391830191600101611d33565b509098975050505050505050565b60005b83811015611d78578181015183820152602001611d60565b838111156107a05750506000910152565b7f416363657373436f6e74726f6c3a206163636f756e7420000000000000000000815260008351611dc1816017850160208801611d5d565b7001034b99036b4b9b9b4b733903937b6329607d1b6017918401918201528351611df2816028840160208801611d5d565b01602801949350505050565b6020815260008251806020840152611e1d816040850160208701611d5d565b601f01601f19169190910160400192915050565b600081611e4057611e40611c49565b50600019019056fe97667070c54ef182b0f5858b034beac1b6f3089aa2d3188bb1e8929f4fa9b929a26469706673582212204fd45f9292e223927656d0e540dd6318d26034410f697b8d443d90e075c19b6564736f6c63430008090033",
  "linkReferences": {},
  "deployedLinkReferences": {}
}