{
  "_format": "hh-sol-artifact-1",
  "contractName": "BkStasher",
  "sourceName": "contracts/features/BkStasher.sol",
  "abi": [
    {
      "anonymous": false,
      "inputs": [
        {
          "indexed": false,
          "internalType": "uint8",
          "name": "version",
          "type": "uint8"
        }
      ],
      "name": "Initialized",
      "type": "event"
    },
    {
      "anonymous": false,
      "inputs": [
        {
          "indexed": false,
          "internalType": "address",
          "name": "account",
          "type": "address"
        }
      ],
      "name": "Paused",
      "type": "event"
    },
    {
      "anonymous": false,
      "inputs": [
        {
          "indexed": true,
          "internalType": "bytes32",
          "name": "role",
          "type": "bytes32"
        },
        {
          "indexed": true,
          "internalType": "bytes32",
          "name": "previousAdminRole",
          "type": "bytes32"
        },
        {
          "indexed": true,
          "internalType": "bytes32",
          "name": "newAdminRole",
          "type": "bytes32"
        }
      ],
      "name": "RoleAdminChanged",
      "type": "event"
    },
    {
      "anonymous": false,
      "inputs": [
        {
          "indexed": true,
          "internalType": "bytes32",
          "name": "role",
          "type": "bytes32"
        },
        {
          "indexed": true,
          "internalType": "address",
          "name": "account",
          "type": "address"
        },
        {
          "indexed": true,
          "internalType": "address",
          "name": "sender",
          "type": "address"
        }
      ],
      "name": "RoleGranted",
      "type": "event"
    },
    {
      "anonymous": false,
      "inputs": [
        {
          "indexed": true,
          "internalType": "bytes32",
          "name": "role",
          "type": "bytes32"
        },
        {
          "indexed": true,
          "internalType": "address",
          "name": "account",
          "type": "address"
        },
        {
          "indexed": true,
          "internalType": "address",
          "name": "sender",
          "type": "address"
        }
      ],
      "name": "RoleRevoked",
      "type": "event"
    },
    {
      "anonymous": false,
      "inputs": [
        {
          "indexed": false,
          "internalType": "address",
          "name": "account",
          "type": "address"
        },
        {
          "indexed": false,
          "internalType": "uint256",
          "name": "amount",
          "type": "uint256"
        }
      ],
      "name": "Stashed",
      "type": "event"
    },
    {
      "anonymous": false,
      "inputs": [
        {
          "indexed": false,
          "internalType": "address",
          "name": "account",
          "type": "address"
        }
      ],
      "name": "Unpaused",
      "type": "event"
    },
    {
      "anonymous": false,
      "inputs": [
        {
          "indexed": false,
          "internalType": "address",
          "name": "account",
          "type": "address"
        },
        {
          "indexed": false,
          "internalType": "uint256",
          "name": "amount",
          "type": "uint256"
        }
      ],
      "name": "Unstashed",
      "type": "event"
    },
    {
      "inputs": [],
      "name": "DEFAULT_ADMIN_ROLE",
      "outputs": [
        {
          "internalType": "bytes32",
          "name": "",
          "type": "bytes32"
        }
      ],
      "stateMutability": "view",
      "type": "function"
    },
    {
      "inputs": [
        {
          "internalType": "address",
          "name": "_operator",
          "type": "address"
        },
        {
          "internalType": "address",
          "name": "_blocklistAddress",
          "type": "address"
        }
      ],
      "name": "__Administrable_init",
      "outputs": [],
      "stateMutability": "nonpayable",
      "type": "function"
    },
    {
      "inputs": [],
      "name": "_resetBlocklist",
      "outputs": [],
      "stateMutability": "nonpayable",
      "type": "function"
    },
    {
      "inputs": [
        {
          "internalType": "address",
          "name": "account",
          "type": "address"
        }
      ],
      "name": "balanceAndLevelOf",
      "outputs": [
        {
          "internalType": "uint256",
          "name": "",
          "type": "uint256"
        },
        {
          "internalType": "uint256",
          "name": "",
          "type": "uint256"
        }
      ],
      "stateMutability": "view",
      "type": "function"
    },
    {
      "inputs": [
        {
          "internalType": "address",
          "name": "account",
          "type": "address"
        }
      ],
      "name": "balanceOf",
      "outputs": [
        {
          "internalType": "uint256",
          "name": "",
          "type": "uint256"
        }
      ],
      "stateMutability": "view",
      "type": "function"
    },
    {
      "inputs": [
        {
          "internalType": "address",
          "name": "",
          "type": "address"
        }
      ],
      "name": "balances",
      "outputs": [
        {
          "internalType": "uint256",
          "name": "",
          "type": "uint256"
        }
      ],
      "stateMutability": "view",
      "type": "function"
    },
    {
      "inputs": [],
      "name": "bct",
      "outputs": [
        {
          "internalType": "contract IBkERC20",
          "name": "",
          "type": "address"
        }
      ],
      "stateMutability": "view",
      "type": "function"
    },
    {
      "inputs": [],
      "name": "farm",
      "outputs": [
        {
          "internalType": "contract IBkFarm",
          "name": "",
          "type": "address"
        }
      ],
      "stateMutability": "view",
      "type": "function"
    },
    {
      "inputs": [
        {
          "internalType": "bytes32",
          "name": "role",
          "type": "bytes32"
        }
      ],
      "name": "getRoleAdmin",
      "outputs": [
        {
          "internalType": "bytes32",
          "name": "",
          "type": "bytes32"
        }
      ],
      "stateMutability": "view",
      "type": "function"
    },
    {
      "inputs": [
        {
          "internalType": "bytes32",
          "name": "role",
          "type": "bytes32"
        },
        {
          "internalType": "address",
          "name": "account",
          "type": "address"
        }
      ],
      "name": "grantRole",
      "outputs": [],
      "stateMutability": "nonpayable",
      "type": "function"
    },
    {
      "inputs": [],
      "name": "hasBlocklist",
      "outputs": [
        {
          "internalType": "bool",
          "name": "",
          "type": "bool"
        }
      ],
      "stateMutability": "view",
      "type": "function"
    },
    {
      "inputs": [
        {
          "internalType": "address",
          "name": "",
          "type": "address"
        }
      ],
      "name": "hasMigrated",
      "outputs": [
        {
          "internalType": "bool",
          "name": "",
          "type": "bool"
        }
      ],
      "stateMutability": "view",
      "type": "function"
    },
    {
      "inputs": [
        {
          "internalType": "bytes32",
          "name": "role",
          "type": "bytes32"
        },
        {
          "internalType": "address",
          "name": "account",
          "type": "address"
        }
      ],
      "name": "hasRole",
      "outputs": [
        {
          "internalType": "bool",
          "name": "",
          "type": "bool"
        }
      ],
      "stateMutability": "view",
      "type": "function"
    },
    {
      "inputs": [
        {
          "internalType": "address",
          "name": "_operator",
          "type": "address"
        },
        {
          "internalType": "address",
          "name": "_blocklist",
          "type": "address"
        },
        {
          "internalType": "address",
          "name": "_bct",
          "type": "address"
        }
      ],
      "name": "initialize",
      "outputs": [],
      "stateMutability": "nonpayable",
      "type": "function"
    },
    {
      "inputs": [
        {
          "internalType": "address",
          "name": "account",
          "type": "address"
        }
      ],
      "name": "levelOf",
      "outputs": [
        {
          "internalType": "uint256",
          "name": "",
          "type": "uint256"
        }
      ],
      "stateMutability": "view",
      "type": "function"
    },
    {
      "inputs": [
        {
          "internalType": "uint256",
          "name": "",
          "type": "uint256"
        }
      ],
      "name": "levelToAmount",
      "outputs": [
        {
          "internalType": "uint256",
          "name": "",
          "type": "uint256"
        }
      ],
      "stateMutability": "view",
      "type": "function"
    },
    {
      "inputs": [],
      "name": "pause",
      "outputs": [],
      "stateMutability": "nonpayable",
      "type": "function"
    },
    {
      "inputs": [],
      "name": "paused",
      "outputs": [
        {
          "internalType": "bool",
          "name": "",
          "type": "bool"
        }
      ],
      "stateMutability": "view",
      "type": "function"
    },
    {
      "inputs": [],
      "name": "playerBonus",
      "outputs": [
        {
          "internalType": "contract IBkPlayerBonus",
          "name": "",
          "type": "address"
        }
      ],
      "stateMutability": "view",
      "type": "function"
    },
    {
      "inputs": [
        {
          "internalType": "address",
          "name": "tokenAddress",
          "type": "address"
        },
        {
          "internalType": "address",
          "name": "to",
          "type": "address"
        },
        {
          "internalType": "uint256",
          "name": "amount",
          "type": "uint256"
        }
      ],
      "name": "recoverERC20",
      "outputs": [],
      "stateMutability": "nonpayable",
      "type": "function"
    },
    {
      "inputs": [
        {
          "internalType": "bytes32",
          "name": "role",
          "type": "bytes32"
        },
        {
          "internalType": "address",
          "name": "account",
          "type": "address"
        }
      ],
      "name": "renounceRole",
      "outputs": [],
      "stateMutability": "nonpayable",
      "type": "function"
    },
    {
      "inputs": [
        {
          "internalType": "bytes32",
          "name": "role",
          "type": "bytes32"
        },
        {
          "internalType": "address",
          "name": "account",
          "type": "address"
        }
      ],
      "name": "revokeRole",
      "outputs": [],
      "stateMutability": "nonpayable",
      "type": "function"
    },
    {
      "inputs": [
        {
          "internalType": "address",
          "name": "blocklistAddress",
          "type": "address"
        }
      ],
      "name": "setBlocklist",
      "outputs": [],
      "stateMutability": "nonpayable",
      "type": "function"
    },
    {
      "inputs": [
        {
          "internalType": "uint256",
          "name": "blocks",
          "type": "uint256"
        }
      ],
      "name": "setCooldownInBlocks",
      "outputs": [],
      "stateMutability": "nonpayable",
      "type": "function"
    },
    {
      "inputs": [
        {
          "internalType": "address",
          "name": "account",
          "type": "address"
        }
      ],
      "name": "setLevelOf",
      "outputs": [],
      "stateMutability": "nonpayable",
      "type": "function"
    },
    {
      "inputs": [
        {
          "components": [
            {
              "internalType": "uint256",
              "name": "amount",
              "type": "uint256"
            },
            {
              "internalType": "uint256",
              "name": "level",
              "type": "uint256"
            }
          ],
          "internalType": "struct BkStasher.LevelSet[]",
          "name": "_levelSet",
          "type": "tuple[]"
        }
      ],
      "name": "setLevels",
      "outputs": [],
      "stateMutability": "nonpayable",
      "type": "function"
    },
    {
      "inputs": [
        {
          "internalType": "uint256",
          "name": "_maxLevel",
          "type": "uint256"
        }
      ],
      "name": "setMaxLevel",
      "outputs": [],
      "stateMutability": "nonpayable",
      "type": "function"
    },
    {
      "inputs": [
        {
          "internalType": "address",
          "name": "_playerBonus",
          "type": "address"
        },
        {
          "internalType": "address",
          "name": "_farm",
          "type": "address"
        }
      ],
      "name": "setPlayerBonusAndFarm",
      "outputs": [],
      "stateMutability": "nonpayable",
      "type": "function"
    },
    {
      "inputs": [
        {
          "internalType": "uint256",
          "name": "amount",
          "type": "uint256"
        },
        {
          "internalType": "bool",
          "name": "fromFarm",
          "type": "bool"
        }
      ],
      "name": "stash",
      "outputs": [],
      "stateMutability": "nonpayable",
      "type": "function"
    },
    {
      "inputs": [
        {
          "internalType": "address",
          "name": "",
          "type": "address"
        }
      ],
      "name": "stashedAt",
      "outputs": [
        {
          "internalType": "uint256",
          "name": "",
          "type": "uint256"
        }
      ],
      "stateMutability": "view",
      "type": "function"
    },
    {
      "inputs": [
        {
          "internalType": "bytes4",
          "name": "interfaceId",
          "type": "bytes4"
        }
      ],
      "name": "supportsInterface",
      "outputs": [
        {
          "internalType": "bool",
          "name": "",
          "type": "bool"
        }
      ],
      "stateMutability": "view",
      "type": "function"
    },
    {
      "inputs": [],
      "name": "unpause",
      "outputs": [],
      "stateMutability": "nonpayable",
      "type": "function"
    },
    {
      "inputs": [],
      "name": "unstash",
      "outputs": [],
      "stateMutability": "nonpayable",
      "type": "function"
    },
    {
      "inputs": [
        {
          "internalType": "address",
          "name": "account",
          "type": "address"
        }
      ],
      "name": "unstashFor",
      "outputs": [],
      "stateMutability": "nonpayable",
      "type": "function"
    },
    {
      "inputs": [
        {
          "internalType": "address",
          "name": "",
          "type": "address"
        }
      ],
      "name": "withdrawnAt",
      "outputs": [
        {
          "internalType": "uint256",
          "name": "",
          "type": "uint256"
        }
      ],
      "stateMutability": "view",
      "type": "function"
    }
  ],
  "bytecode": "0x608060405234801561001057600080fd5b506119ee806100206000396000f3fe608060405234801561001057600080fd5b50600436106102115760003560e01c80635c975abb1161012557806391d14854116100ad578063c0c53b8b1161007c578063c0c53b8b146104f7578063ce4a1c7f1461050a578063d547741f1461051d578063d7625c8814610530578063fc7430a11461055357600080fd5b806391d14854146104b6578063931da89b146104c9578063a217fddf146104dc578063aef18ae7146104e457600080fd5b80637b39b6d8116100f45780637b39b6d8146104485780638456cb591461046857806385d4a0d214610470578063893ee7fc146104835780638dd46856146104a357600080fd5b80635c975abb146103ed578063634210f4146103f857806370a082311461040c57806379db06df1461043557600080fd5b806327e235e3116101a857806336e9332d1161017757806336e9332d146103815780633f4ba83a1461039457806349e12ebd1461039c57806358e95c3d146103a45780635c138c9d146103c457600080fd5b806327e235e3146103285780632f2ff15d14610348578063344f1ba51461035b57806336568abe1461036e57600080fd5b806312b0631b116101e457806312b0631b146102a657806313074be4146102b95780631412cd6f146102e4578063248a9ca3146102f757600080fd5b806301ffc9a71461021657806306a450701461023e5780630a060a83146102485780631171bda914610293575b600080fd5b610229610224366004611564565b610566565b60405190151581526020015b60405180910390f35b61024661059d565b005b61027e6102563660046115aa565b6001600160a01b0316600090815260ce602090815260408083205460d1909252909120549091565b60408051928352602083019190915201610235565b6102466102a13660046115c5565b6105c8565b6102466102b4366004611601565b610669565b60cb546102cc906001600160a01b031681565b6040516001600160a01b039091168152602001610235565b6102466102f2366004611684565b6106f3565b61031a6103053660046116b4565b60009081526065602052604090206001015490565b604051908152602001610235565b61031a6103363660046115aa565b60ce6020526000908152604090205481565b6102466103563660046116cd565b610751565b6102466103693660046116b4565b61077b565b61024661037c3660046116cd565b610799565b60cc546102cc906001600160a01b031681565b6102466107b8565b6102466107db565b61031a6103b23660046115aa565b60d46020526000908152604090205481565b61031a6103d23660046115aa565b6001600160a01b0316600090815260d1602052604090205490565b60975460ff16610229565b60c95461022990600160a01b900460ff1681565b61031a61041a3660046115aa565b6001600160a01b0316600090815260ce602052604090205490565b6102466104433660046115aa565b61089d565b61031a6104563660046115aa565b60cd6020526000908152604090205481565b61024661096e565b61024661047e3660046116b4565b61098e565b61031a6104913660046116b4565b60cf6020526000908152604090205481565b6102466104b13660046116f9565b6109ac565b6102296104c43660046116cd565b6109f3565b6102466104d73660046116f9565b610a1e565b61031a600081565b6102466104f23660046115aa565b610b34565b610246610505366004611723565b610b74565b60ca546102cc906001600160a01b031681565b61024661052b3660046116cd565b610c56565b61022961053e3660046115aa565b60d06020526000908152604090205460ff1681565b6102466105613660046115aa565b610c7b565b60006001600160e01b03198216637965db0b60e01b148061059757506301ffc9a760e01b6001600160e01b03198316145b92915050565b6000805160206119998339815191526105b581610ca4565b5060c980546001600160a81b0319169055565b6000805160206119998339815191526105e081610ca4565b60405163a9059cbb60e01b81526001600160a01b0384811660048301526024820184905285169063a9059cbb90604401602060405180830381600087803b15801561062a57600080fd5b505af115801561063e573d6000803e3d6000fd5b505050506040513d601f19601f820116820180604052508101906106629190611766565b5050505050565b60008051602061199983398151915261068181610ca4565b60005b828110156106ed5783838281811061069e5761069e611783565b9050604002016000013560cf60008686858181106106be576106be611783565b9050604002016020013581526020019081526020016000208190555080806106e5906117af565b915050610684565b50505050565b6106fb610cae565b80156107395760405162461bcd60e51b8152602060048201526008602482015267111254d05093115160c21b60448201526064015b60405180910390fd5b6107433383610d30565b61074d3383610d6f565b5050565b60008281526065602052604090206001015461076c81610ca4565b6107768383610dfe565b505050565b60008051602061199983398151915261079381610ca4565b5060d255565b6001600160a01b03811633146107ae57600080fd5b61074d8282610e84565b6000805160206119998339815191526107d081610ca4565b6107d8610eeb565b50565b6107e3610cae565b60d35433600090815260cd602052604090205461080090436117ca565b10156108395760405162461bcd60e51b815260206004820152600860248201526721a7a7a62227aba760c11b6044820152606401610730565b33600090815260d460205260409020546203f4809061085890436117ca565b10156108925760405162461bcd60e51b8152602060048201526009602482015268544f4f5f4541524c5960b81b6044820152606401610730565b61089b33610f3d565b565b7f9bb4860ae4018b7a63008e1d4c4f2ef74d5a095e46377c820dc3f962c67498e8546001600160a01b038216600090815260ce602052604090205410156108f8576001600160a01b0316600090815260d16020526040812055565b600060015b60d254811161095157600081815260cf60209081526040808320546001600160a01b038716845260ce909252909120541061093a5780915061093f565b610951565b80610949816117af565b9150506108fd565b506001600160a01b03909116600090815260d16020526040902055565b60008051602061199983398151915261098681610ca4565b6107d8611179565b6000805160206119998339815191526109a681610ca4565b5060d355565b6000805160206119998339815191526109c481610ca4565b5060cb80546001600160a01b039384166001600160a01b03199182161790915560cc8054929093169116179055565b60009182526065602090815260408084206001600160a01b0393909316845291905290205460ff1690565b600054610100900460ff1615808015610a3e5750600054600160ff909116105b80610a585750303b158015610a58575060005460ff166001145b610a6157600080fd5b6000805460ff191660011790558015610a84576000805461ff0019166101001790555b610a8c6111b6565b610a946111ca565b610a9f6000846111e6565b610ab7600080516020611999833981519152846111e6565b610ae17f73e573f9566d61418a34d5de3ff49360f9c51fec37f7486551670290f6285dab846111e6565b610aea82610b34565b8015610776576000805461ff0019169055604051600181527f7f26b83ff96e1f2b6a682f133852f6798a09c465da95921460cefb38474024989060200160405180910390a1505050565b600080516020611999833981519152610b4c81610ca4565b5060c980546001600160a81b0319166001600160a01b0390921691909117600160a01b179055565b600054610100900460ff1615808015610b945750600054600160ff909116105b80610bae5750303b158015610bae575060005460ff166001145b610bb757600080fd5b6000805460ff191660011790558015610bda576000805461ff0019166101001790555b610be48484610a1e565b60ca80546001600160a01b0319166001600160a01b038416179055600a60d2556217bb0060d35580156106ed576000805461ff0019169055604051600181527f7f26b83ff96e1f2b6a682f133852f6798a09c465da95921460cefb38474024989060200160405180910390a150505050565b600082815260656020526040902060010154610c7181610ca4565b6107768383610e84565b600080516020611999833981519152610c9381610ca4565b610c9b610cae565b61074d82610f3d565b6107d881336111f0565b60975460ff161561089b5760405162461bcd60e51b815260206004820152601060248201526f14185d5cd8589b194e881c185d5cd95960821b6044820152606401610730565b600060405180830381600087803b158015610d0e57600080fd5b505af1158015610d22573d6000803e3d6000fd5b5050505061074d8282611249565b60ca546040516323b872dd60e01b81526001600160a01b03848116600483015230602483015260448201849052909116906323b872dd90606401610cf4565b60006064610d7e8360286117e1565b610d889190611800565b6040805160008152602081019182905260cc546304567ca960e11b9092529192506001600160a01b03166308acf952610dc686858560248101611838565b600060405180830381600087803b158015610de057600080fd5b505af1158015610df4573d6000803e3d6000fd5b5050505050505050565b610e0882826109f3565b61074d5760008281526065602090815260408083206001600160a01b03851684529091529020805460ff19166001179055610e403390565b6001600160a01b0316816001600160a01b0316837f2f8788117e7eff1d82e926ec794901d17c78024a50270940304540a733656f0d60405160405180910390a45050565b610e8e82826109f3565b1561074d5760008281526065602090815260408083206001600160a01b0385168085529252808320805460ff1916905551339285917ff6391f5c32d9c69d2a47ea670b442974b53935d1edc7fd64eb21e047a839171b9190a45050565b610ef3611389565b6097805460ff191690557f5db9ee0a495bf2e6ff9c91a7834c1ba4fdd244a5e8aa4e537bd38aeae4b073aa335b6040516001600160a01b03909116815260200160405180910390a1565b6001600160a01b038116600090815260ce6020526040902054610f8f5760405162461bcd60e51b815260206004820152600a6024820152694e4f5f42414c414e434560b01b6044820152606401610730565b6001600160a01b038116600090815260ce6020526040812054686c6b935b8bbd40000011610fc75750686c6b935b8bbd400000610fe2565b506001600160a01b038116600090815260ce60205260409020545b6001600160a01b038216600090815260d46020908152604080832043905560ce9091529020546110139082906117ca565b6001600160a01b038316600090815260ce60205260409020556110358261089d565b60cb546001600160a01b03838116600081815260d1602052604090819020549051631ec1e36f60e11b815260048101929092526024820152911690633d83c6de90604401600060405180830381600087803b15801561109357600080fd5b505af11580156110a7573d6000803e3d6000fd5b505060ca5460405163a9059cbb60e01b81526001600160a01b03868116600483015260248201869052909116925063a9059cbb9150604401602060405180830381600087803b1580156110f957600080fd5b505af115801561110d573d6000803e3d6000fd5b505050506040513d601f19601f820116820180604052508101906111319190611766565b50604080516001600160a01b0384168152602081018390527f6ff2a444c4353cfe4d3d0d77371942824d799f9d5256f9beb4979096362ecda891015b60405180910390a15050565b611181610cae565b6097805460ff191660011790557f62e78cea01bee320cd4e420270b5ea74000d11b0c9f74754ebdbfc544b05a258610f203390565b600054610100900460ff1661089b57600080fd5b600054610100900460ff166111de57600080fd5b61089b6113d2565b61074d8282610dfe565b6111fa82826109f3565b61074d57611207816113f2565b611212836020611404565b6040516020016112239291906118c1565b60408051601f198184030181529082905262461bcd60e51b825261073091600401611936565b600081116112825760405162461bcd60e51b8152600401610730906020808252600490820152637a65726f60e01b604082015260600190565b6001600160a01b038216600090815260ce6020526040812080548392906112aa908490611969565b90915550506001600160a01b038216600090815260cd602052604090204390556112d38261089d565b60cb546001600160a01b03838116600081815260d1602052604090819020549051631ec1e36f60e11b815260048101929092526024820152911690633d83c6de90604401600060405180830381600087803b15801561133157600080fd5b505af1158015611345573d6000803e3d6000fd5b5050604080516001600160a01b0386168152602081018590527f3c54659ea5ff21964d07447ffa8cd103abb28ac25fe4af22bd7536d60ecfab32935001905061116d565b60975460ff1661089b5760405162461bcd60e51b815260206004820152601460248201527314185d5cd8589b194e881b9bdd081c185d5cd95960621b6044820152606401610730565b600054610100900460ff166113e657600080fd5b6097805460ff19169055565b60606105976001600160a01b03831660145b606060006114138360026117e1565b61141e906002611969565b67ffffffffffffffff81111561143657611436611822565b6040519080825280601f01601f191660200182016040528015611460576020820181803683370190505b509050600360fc1b8160008151811061147b5761147b611783565b60200101906001600160f81b031916908160001a905350600f60fb1b816001815181106114aa576114aa611783565b60200101906001600160f81b031916908160001a90535060006114ce8460026117e1565b6114d9906001611969565b90505b6001811115611551576f181899199a1a9b1b9c1cb0b131b232b360811b85600f166010811061150d5761150d611783565b1a60f81b82828151811061152357611523611783565b60200101906001600160f81b031916908160001a90535060049490941c9361154a81611981565b90506114dc565b50831561155d57600080fd5b9392505050565b60006020828403121561157657600080fd5b81356001600160e01b03198116811461155d57600080fd5b80356001600160a01b03811681146115a557600080fd5b919050565b6000602082840312156115bc57600080fd5b61155d8261158e565b6000806000606084860312156115da57600080fd5b6115e38461158e565b92506115f16020850161158e565b9150604084013590509250925092565b6000806020838503121561161457600080fd5b823567ffffffffffffffff8082111561162c57600080fd5b818501915085601f83011261164057600080fd5b81358181111561164f57600080fd5b8660208260061b850101111561166457600080fd5b60209290920196919550909350505050565b80151581146107d857600080fd5b6000806040838503121561169757600080fd5b8235915060208301356116a981611676565b809150509250929050565b6000602082840312156116c657600080fd5b5035919050565b600080604083850312156116e057600080fd5b823591506116f06020840161158e565b90509250929050565b6000806040838503121561170c57600080fd5b6117158361158e565b91506116f06020840161158e565b60008060006060848603121561173857600080fd5b6117418461158e565b925061174f6020850161158e565b915061175d6040850161158e565b90509250925092565b60006020828403121561177857600080fd5b815161155d81611676565b634e487b7160e01b600052603260045260246000fd5b634e487b7160e01b600052601160045260246000fd5b60006000198214156117c3576117c3611799565b5060010190565b6000828210156117dc576117dc611799565b500390565b60008160001904831182151516156117fb576117fb611799565b500290565b60008261181d57634e487b7160e01b600052601260045260246000fd5b500490565b634e487b7160e01b600052604160045260246000fd5b6001600160a01b038416815260208082018490526060604083018190528351908301819052600091848101916080850190845b818110156118875784518352938301939183019160010161186b565b509098975050505050505050565b60005b838110156118b0578181015183820152602001611898565b838111156106ed5750506000910152565b7f416363657373436f6e74726f6c3a206163636f756e74200000000000000000008152600083516118f9816017850160208801611895565b7001034b99036b4b9b9b4b733903937b6329607d1b601791840191820152835161192a816028840160208801611895565b01602801949350505050565b6020815260008251806020840152611955816040850160208701611895565b601f01601f19169190910160400192915050565b6000821982111561197c5761197c611799565b500190565b60008161199057611990611799565b50600019019056fe97667070c54ef182b0f5858b034beac1b6f3089aa2d3188bb1e8929f4fa9b929a264697066735822122074cf94e43f61f7d8bfac48c2ba4774349e97e366d8d51edfb396c745b4a5816b64736f6c63430008090033",
  "linkReferences": {},
  "deployedLinkReferences": {}
}