{
  "_format": "hh-sol-artifact-1",
  "contractName": "BkStasher",
  "sourceName": "contracts/features/BkStasher.sol",
  "abi": [
    {
      "anonymous": false,
      "inputs": [
        {
          "indexed": false,
          "internalType": "uint8",
          "name": "version",
          "type": "uint8"
        }
      ],
      "name": "Initialized",
      "type": "event"
    },
    {
      "anonymous": false,
      "inputs": [
        {
          "indexed": false,
          "internalType": "address",
          "name": "account",
          "type": "address"
        }
      ],
      "name": "Paused",
      "type": "event"
    },
    {
      "anonymous": false,
      "inputs": [
        {
          "indexed": true,
          "internalType": "bytes32",
          "name": "role",
          "type": "bytes32"
        },
        {
          "indexed": true,
          "internalType": "bytes32",
          "name": "previousAdminRole",
          "type": "bytes32"
        },
        {
          "indexed": true,
          "internalType": "bytes32",
          "name": "newAdminRole",
          "type": "bytes32"
        }
      ],
      "name": "RoleAdminChanged",
      "type": "event"
    },
    {
      "anonymous": false,
      "inputs": [
        {
          "indexed": true,
          "internalType": "bytes32",
          "name": "role",
          "type": "bytes32"
        },
        {
          "indexed": true,
          "internalType": "address",
          "name": "account",
          "type": "address"
        },
        {
          "indexed": true,
          "internalType": "address",
          "name": "sender",
          "type": "address"
        }
      ],
      "name": "RoleGranted",
      "type": "event"
    },
    {
      "anonymous": false,
      "inputs": [
        {
          "indexed": true,
          "internalType": "bytes32",
          "name": "role",
          "type": "bytes32"
        },
        {
          "indexed": true,
          "internalType": "address",
          "name": "account",
          "type": "address"
        },
        {
          "indexed": true,
          "internalType": "address",
          "name": "sender",
          "type": "address"
        }
      ],
      "name": "RoleRevoked",
      "type": "event"
    },
    {
      "anonymous": false,
      "inputs": [
        {
          "indexed": false,
          "internalType": "address",
          "name": "account",
          "type": "address"
        },
        {
          "indexed": false,
          "internalType": "uint256",
          "name": "amount",
          "type": "uint256"
        }
      ],
      "name": "Stashed",
      "type": "event"
    },
    {
      "anonymous": false,
      "inputs": [
        {
          "indexed": false,
          "internalType": "address",
          "name": "account",
          "type": "address"
        }
      ],
      "name": "Unpaused",
      "type": "event"
    },
    {
      "anonymous": false,
      "inputs": [
        {
          "indexed": false,
          "internalType": "address",
          "name": "account",
          "type": "address"
        },
        {
          "indexed": false,
          "internalType": "uint256",
          "name": "amount",
          "type": "uint256"
        }
      ],
      "name": "Unstashed",
      "type": "event"
    },
    {
      "inputs": [],
      "name": "DEFAULT_ADMIN_ROLE",
      "outputs": [
        {
          "internalType": "bytes32",
          "name": "",
          "type": "bytes32"
        }
      ],
      "stateMutability": "view",
      "type": "function"
    },
    {
      "inputs": [
        {
          "internalType": "address",
          "name": "_operator",
          "type": "address"
        },
        {
          "internalType": "address",
          "name": "_blocklistAddress",
          "type": "address"
        }
      ],
      "name": "__Administrable_init",
      "outputs": [],
      "stateMutability": "nonpayable",
      "type": "function"
    },
    {
      "inputs": [
        {
          "internalType": "address",
          "name": "account",
          "type": "address"
        }
      ],
      "name": "balanceAndLevelOf",
      "outputs": [
        {
          "internalType": "uint256",
          "name": "",
          "type": "uint256"
        },
        {
          "internalType": "uint256",
          "name": "",
          "type": "uint256"
        }
      ],
      "stateMutability": "view",
      "type": "function"
    },
    {
      "inputs": [
        {
          "internalType": "address",
          "name": "account",
          "type": "address"
        }
      ],
      "name": "balanceOf",
      "outputs": [
        {
          "internalType": "uint256",
          "name": "",
          "type": "uint256"
        }
      ],
      "stateMutability": "view",
      "type": "function"
    },
    {
      "inputs": [
        {
          "internalType": "address",
          "name": "",
          "type": "address"
        }
      ],
      "name": "balances",
      "outputs": [
        {
          "internalType": "uint256",
          "name": "",
          "type": "uint256"
        }
      ],
      "stateMutability": "view",
      "type": "function"
    },
    {
      "inputs": [],
      "name": "bct",
      "outputs": [
        {
          "internalType": "contract IBkERC20",
          "name": "",
          "type": "address"
        }
      ],
      "stateMutability": "view",
      "type": "function"
    },
    {
      "inputs": [],
      "name": "farm",
      "outputs": [
        {
          "internalType": "contract IBkFarm",
          "name": "",
          "type": "address"
        }
      ],
      "stateMutability": "view",
      "type": "function"
    },
    {
      "inputs": [
        {
          "internalType": "bytes32",
          "name": "role",
          "type": "bytes32"
        }
      ],
      "name": "getRoleAdmin",
      "outputs": [
        {
          "internalType": "bytes32",
          "name": "",
          "type": "bytes32"
        }
      ],
      "stateMutability": "view",
      "type": "function"
    },
    {
      "inputs": [
        {
          "internalType": "bytes32",
          "name": "role",
          "type": "bytes32"
        },
        {
          "internalType": "address",
          "name": "account",
          "type": "address"
        }
      ],
      "name": "grantRole",
      "outputs": [],
      "stateMutability": "nonpayable",
      "type": "function"
    },
    {
      "inputs": [],
      "name": "hasBlocklist",
      "outputs": [
        {
          "internalType": "bool",
          "name": "",
          "type": "bool"
        }
      ],
      "stateMutability": "view",
      "type": "function"
    },
    {
      "inputs": [
        {
          "internalType": "address",
          "name": "",
          "type": "address"
        }
      ],
      "name": "hasInteractedAfterMigration",
      "outputs": [
        {
          "internalType": "bool",
          "name": "",
          "type": "bool"
        }
      ],
      "stateMutability": "view",
      "type": "function"
    },
    {
      "inputs": [
        {
          "internalType": "address",
          "name": "",
          "type": "address"
        }
      ],
      "name": "hasMigrated",
      "outputs": [
        {
          "internalType": "bool",
          "name": "",
          "type": "bool"
        }
      ],
      "stateMutability": "view",
      "type": "function"
    },
    {
      "inputs": [
        {
          "internalType": "bytes32",
          "name": "role",
          "type": "bytes32"
        },
        {
          "internalType": "address",
          "name": "account",
          "type": "address"
        }
      ],
      "name": "hasRole",
      "outputs": [
        {
          "internalType": "bool",
          "name": "",
          "type": "bool"
        }
      ],
      "stateMutability": "view",
      "type": "function"
    },
    {
      "inputs": [
        {
          "internalType": "address",
          "name": "_operator",
          "type": "address"
        },
        {
          "internalType": "address",
          "name": "_blocklist",
          "type": "address"
        },
        {
          "internalType": "address",
          "name": "_bct",
          "type": "address"
        }
      ],
      "name": "initialize",
      "outputs": [],
      "stateMutability": "nonpayable",
      "type": "function"
    },
    {
      "inputs": [
        {
          "internalType": "address",
          "name": "account",
          "type": "address"
        }
      ],
      "name": "levelOf",
      "outputs": [
        {
          "internalType": "uint256",
          "name": "",
          "type": "uint256"
        }
      ],
      "stateMutability": "view",
      "type": "function"
    },
    {
      "inputs": [
        {
          "internalType": "uint256",
          "name": "",
          "type": "uint256"
        }
      ],
      "name": "levelToAmount",
      "outputs": [
        {
          "internalType": "uint256",
          "name": "",
          "type": "uint256"
        }
      ],
      "stateMutability": "view",
      "type": "function"
    },
    {
      "inputs": [
        {
          "internalType": "address",
          "name": "account",
          "type": "address"
        },
        {
          "internalType": "uint256",
          "name": "amount",
          "type": "uint256"
        }
      ],
      "name": "migrateStash",
      "outputs": [],
      "stateMutability": "nonpayable",
      "type": "function"
    },
    {
      "inputs": [],
      "name": "pause",
      "outputs": [],
      "stateMutability": "nonpayable",
      "type": "function"
    },
    {
      "inputs": [],
      "name": "paused",
      "outputs": [
        {
          "internalType": "bool",
          "name": "",
          "type": "bool"
        }
      ],
      "stateMutability": "view",
      "type": "function"
    },
    {
      "inputs": [],
      "name": "playerBonus",
      "outputs": [
        {
          "internalType": "contract IBkPlayerBonus",
          "name": "",
          "type": "address"
        }
      ],
      "stateMutability": "view",
      "type": "function"
    },
    {
      "inputs": [
        {
          "internalType": "address",
          "name": "tokenAddress",
          "type": "address"
        },
        {
          "internalType": "address",
          "name": "to",
          "type": "address"
        },
        {
          "internalType": "uint256",
          "name": "amount",
          "type": "uint256"
        }
      ],
      "name": "recoverERC20",
      "outputs": [],
      "stateMutability": "nonpayable",
      "type": "function"
    },
    {
      "inputs": [
        {
          "internalType": "bytes32",
          "name": "role",
          "type": "bytes32"
        },
        {
          "internalType": "address",
          "name": "account",
          "type": "address"
        }
      ],
      "name": "renounceRole",
      "outputs": [],
      "stateMutability": "nonpayable",
      "type": "function"
    },
    {
      "inputs": [],
      "name": "resetBlocklist",
      "outputs": [],
      "stateMutability": "nonpayable",
      "type": "function"
    },
    {
      "inputs": [
        {
          "internalType": "bytes32",
          "name": "role",
          "type": "bytes32"
        },
        {
          "internalType": "address",
          "name": "account",
          "type": "address"
        }
      ],
      "name": "revokeRole",
      "outputs": [],
      "stateMutability": "nonpayable",
      "type": "function"
    },
    {
      "inputs": [
        {
          "internalType": "address",
          "name": "blocklistAddress",
          "type": "address"
        }
      ],
      "name": "setBlocklist",
      "outputs": [],
      "stateMutability": "nonpayable",
      "type": "function"
    },
    {
      "inputs": [
        {
          "internalType": "uint256",
          "name": "blocks",
          "type": "uint256"
        }
      ],
      "name": "setCooldownInBlocks",
      "outputs": [],
      "stateMutability": "nonpayable",
      "type": "function"
    },
    {
      "inputs": [
        {
          "internalType": "address",
          "name": "account",
          "type": "address"
        }
      ],
      "name": "setLevelOf",
      "outputs": [],
      "stateMutability": "nonpayable",
      "type": "function"
    },
    {
      "inputs": [
        {
          "components": [
            {
              "internalType": "uint256",
              "name": "amount",
              "type": "uint256"
            },
            {
              "internalType": "uint256",
              "name": "level",
              "type": "uint256"
            }
          ],
          "internalType": "struct BkStasher.LevelSet[]",
          "name": "_levelSet",
          "type": "tuple[]"
        }
      ],
      "name": "setLevels",
      "outputs": [],
      "stateMutability": "nonpayable",
      "type": "function"
    },
    {
      "inputs": [
        {
          "internalType": "uint256",
          "name": "_maxLevel",
          "type": "uint256"
        }
      ],
      "name": "setMaxLevel",
      "outputs": [],
      "stateMutability": "nonpayable",
      "type": "function"
    },
    {
      "inputs": [
        {
          "internalType": "address",
          "name": "_playerBonus",
          "type": "address"
        },
        {
          "internalType": "address",
          "name": "_farm",
          "type": "address"
        }
      ],
      "name": "setPlayerBonusAndFarm",
      "outputs": [],
      "stateMutability": "nonpayable",
      "type": "function"
    },
    {
      "inputs": [
        {
          "internalType": "uint256",
          "name": "amount",
          "type": "uint256"
        },
        {
          "internalType": "bool",
          "name": "fromFarm",
          "type": "bool"
        }
      ],
      "name": "stash",
      "outputs": [],
      "stateMutability": "nonpayable",
      "type": "function"
    },
    {
      "inputs": [
        {
          "internalType": "address",
          "name": "",
          "type": "address"
        }
      ],
      "name": "stashedAt",
      "outputs": [
        {
          "internalType": "uint256",
          "name": "",
          "type": "uint256"
        }
      ],
      "stateMutability": "view",
      "type": "function"
    },
    {
      "inputs": [
        {
          "internalType": "bytes4",
          "name": "interfaceId",
          "type": "bytes4"
        }
      ],
      "name": "supportsInterface",
      "outputs": [
        {
          "internalType": "bool",
          "name": "",
          "type": "bool"
        }
      ],
      "stateMutability": "view",
      "type": "function"
    },
    {
      "inputs": [],
      "name": "unpause",
      "outputs": [],
      "stateMutability": "nonpayable",
      "type": "function"
    },
    {
      "inputs": [],
      "name": "unstash",
      "outputs": [],
      "stateMutability": "nonpayable",
      "type": "function"
    },
    {
      "inputs": [
        {
          "internalType": "address",
          "name": "account",
          "type": "address"
        }
      ],
      "name": "unstashFor",
      "outputs": [],
      "stateMutability": "nonpayable",
      "type": "function"
    },
    {
      "inputs": [
        {
          "internalType": "address",
          "name": "",
          "type": "address"
        }
      ],
      "name": "withdrawnAt",
      "outputs": [
        {
          "internalType": "uint256",
          "name": "",
          "type": "uint256"
        }
      ],
      "stateMutability": "view",
      "type": "function"
    }
  ],
  "bytecode": "0x608060405234801561001057600080fd5b50611b67806100206000396000f3fe608060405234801561001057600080fd5b50600436106102275760003560e01c8063634210f411610130578063931da89b116100b8578063d4f7340d1161007c578063d4f7340d14610533578063d547741f14610546578063d7625c8814610559578063de8f958a1461057c578063fc7430a11461059f57600080fd5b8063931da89b146104df578063a217fddf146104f2578063aef18ae7146104fa578063c0c53b8b1461050d578063ce4a1c7f1461052057600080fd5b80638456cb59116100ff5780638456cb591461047e57806385d4a0d214610486578063893ee7fc146104995780638dd46856146104b957806391d14854146104cc57600080fd5b8063634210f41461040e57806370a082311461042257806379db06df1461044b5780637b39b6d81461045e57600080fd5b8063344f1ba5116101b35780633f4ba83a116101825780633f4ba83a146103aa57806349e12ebd146103b257806358e95c3d146103ba5780635c138c9d146103da5780635c975abb1461040357600080fd5b8063344f1ba51461036957806336568abe1461037c57806336e9332d1461038f5780633c7fd822146103a257600080fd5b806313074be4116101fa57806313074be4146102c75780631412cd6f146102f2578063248a9ca31461030557806327e235e3146103365780632f2ff15d1461035657600080fd5b806301ffc9a71461022c5780630a060a83146102545780631171bda91461029f57806312b0631b146102b4575b600080fd5b61023f61023a3660046116b3565b6105b2565b60405190151581526020015b60405180910390f35b61028a6102623660046116f9565b6001600160a01b0316600090815260ce602090815260408083205460d2909252909120549091565b6040805192835260208301919091520161024b565b6102b26102ad366004611714565b6105e9565b005b6102b26102c2366004611750565b61068a565b60cb546102da906001600160a01b031681565b6040516001600160a01b03909116815260200161024b565b6102b26103003660046117d3565b610714565b610328610313366004611803565b60009081526065602052604090206001015490565b60405190815260200161024b565b6103286103443660046116f9565b60ce6020526000908152604090205481565b6102b261036436600461181c565b61078c565b6102b2610377366004611803565b6107b6565b6102b261038a36600461181c565b6107d4565b60cc546102da906001600160a01b031681565b6102b26107f3565b6102b261081e565b6102b2610841565b6103286103c83660046116f9565b60d56020526000908152604090205481565b6103286103e83660046116f9565b6001600160a01b0316600090815260d2602052604090205490565b60975460ff1661023f565b60c95461023f90600160a01b900460ff1681565b6103286104303660046116f9565b6001600160a01b0316600090815260ce602052604090205490565b6102b26104593660046116f9565b610918565b61032861046c3660046116f9565b60cd6020526000908152604090205481565b6102b26109e9565b6102b2610494366004611803565b610a09565b6103286104a7366004611803565b60cf6020526000908152604090205481565b6102b26104c7366004611848565b610a27565b61023f6104da36600461181c565b610a6e565b6102b26104ed366004611848565b610a99565b610328600081565b6102b26105083660046116f9565b610baf565b6102b261051b366004611872565b610bef565b60ca546102da906001600160a01b031681565b6102b26105413660046118b5565b610cd1565b6102b261055436600461181c565b610d84565b61023f6105673660046116f9565b60d06020526000908152604090205460ff1681565b61023f61058a3660046116f9565b60d16020526000908152604090205460ff1681565b6102b26105ad3660046116f9565b610da9565b60006001600160e01b03198216637965db0b60e01b14806105e357506301ffc9a760e01b6001600160e01b03198316145b92915050565b600080516020611b1283398151915261060181610dd2565b60405163a9059cbb60e01b81526001600160a01b0384811660048301526024820184905285169063a9059cbb90604401602060405180830381600087803b15801561064b57600080fd5b505af115801561065f573d6000803e3d6000fd5b505050506040513d601f19601f8201168201806040525081019061068391906118df565b5050505050565b600080516020611b128339815191526106a281610dd2565b60005b8281101561070e578383828181106106bf576106bf6118fc565b9050604002016000013560cf60008686858181106106df576106df6118fc565b90506040020160200135815260200190815260200160002081905550808061070690611928565b9150506106a5565b50505050565b61071c610ddc565b33600090815260d160205260409020805460ff1916600117905580156107745760405162461bcd60e51b8152602060048201526008602482015267111254d05093115160c21b60448201526064015b60405180910390fd5b61077e3383610e7f565b6107883383610ebe565b5050565b6000828152606560205260409020600101546107a781610dd2565b6107b18383610f4d565b505050565b600080516020611b128339815191526107ce81610dd2565b5060d355565b6001600160a01b03811633146107e957600080fd5b6107888282610fd3565b600080516020611b1283398151915261080b81610dd2565b5060c980546001600160a81b0319169055565b600080516020611b1283398151915261083681610dd2565b61083e61103a565b50565b610849610ddc565b33600090815260d560205260409020546203f480906108689043611943565b10156108a25760405162461bcd60e51b8152602060048201526009602482015268544f4f5f4541524c5960b81b604482015260640161076b565b33600090815260cd60205260409020541561090d5760d45433600090815260cd60205260409020546108d49043611943565b101561090d5760405162461bcd60e51b815260206004820152600860248201526721a7a7a62227aba760c11b604482015260640161076b565b6109163361108c565b565b7f9bb4860ae4018b7a63008e1d4c4f2ef74d5a095e46377c820dc3f962c67498e8546001600160a01b038216600090815260ce60205260409020541015610973576001600160a01b0316600090815260d26020526040812055565b600060015b60d35481116109cc57600081815260cf60209081526040808320546001600160a01b038716845260ce90925290912054106109b5578091506109ba565b6109cc565b806109c481611928565b915050610978565b506001600160a01b03909116600090815260d26020526040902055565b600080516020611b12833981519152610a0181610dd2565b61083e6112c8565b600080516020611b12833981519152610a2181610dd2565b5060d455565b600080516020611b12833981519152610a3f81610dd2565b5060cb80546001600160a01b039384166001600160a01b03199182161790915560cc8054929093169116179055565b60009182526065602090815260408084206001600160a01b0393909316845291905290205460ff1690565b600054610100900460ff1615808015610ab95750600054600160ff909116105b80610ad35750303b158015610ad3575060005460ff166001145b610adc57600080fd5b6000805460ff191660011790558015610aff576000805461ff0019166101001790555b610b07611305565b610b0f611319565b610b1a600084611335565b610b32600080516020611b1283398151915284611335565b610b5c7f73e573f9566d61418a34d5de3ff49360f9c51fec37f7486551670290f6285dab84611335565b610b6582610baf565b80156107b1576000805461ff0019169055604051600181527f7f26b83ff96e1f2b6a682f133852f6798a09c465da95921460cefb38474024989060200160405180910390a1505050565b600080516020611b12833981519152610bc781610dd2565b5060c980546001600160a81b0319166001600160a01b0390921691909117600160a01b179055565b600054610100900460ff1615808015610c0f5750600054600160ff909116105b80610c295750303b158015610c29575060005460ff166001145b610c3257600080fd5b6000805460ff191660011790558015610c55576000805461ff0019166101001790555b610c5f8484610a99565b60ca80546001600160a01b0319166001600160a01b038416179055600a60d3556217bb0060d455801561070e576000805461ff0019169055604051600181527f7f26b83ff96e1f2b6a682f133852f6798a09c465da95921460cefb38474024989060200160405180910390a150505050565b7f73e573f9566d61418a34d5de3ff49360f9c51fec37f7486551670290f6285dab610cfb81610dd2565b6001600160a01b038316600090815260d0602052604090205460ff1615610d575760405162461bcd60e51b815260206004820152601060248201526f105b1c9958591e481b5a59dc985d195960821b604482015260640161076b565b6001600160a01b038316600090815260d060205260409020805460ff191660011790556107b1838361133f565b600082815260656020526040902060010154610d9f81610dd2565b6107b18383610fd3565b600080516020611b12833981519152610dc181610dd2565b610dc9610ddc565b6107888261108c565b61083e813361147f565b60975460ff16156109165760405162461bcd60e51b815260206004820152601060248201526f14185d5cd8589b194e881c185d5cd95960821b604482015260640161076b565b602060405180830381600087803b158015610e3c57600080fd5b505af1158015610e50573d6000803e3d6000fd5b505050506040513d601f19601f82011682018060405250810190610e7491906118df565b50610788828261133f565b60ca546040516323b872dd60e01b81526001600160a01b03848116600483015230602483015260448201849052909116906323b872dd90606401610e22565b60006064610ecd83602861195a565b610ed79190611979565b6040805160008152602081019182905260cc546304567ca960e11b9092529192506001600160a01b03166308acf952610f15868585602481016119b1565b600060405180830381600087803b158015610f2f57600080fd5b505af1158015610f43573d6000803e3d6000fd5b5050505050505050565b610f578282610a6e565b6107885760008281526065602090815260408083206001600160a01b03851684529091529020805460ff19166001179055610f8f3390565b6001600160a01b0316816001600160a01b0316837f2f8788117e7eff1d82e926ec794901d17c78024a50270940304540a733656f0d60405160405180910390a45050565b610fdd8282610a6e565b156107885760008281526065602090815260408083206001600160a01b0385168085529252808320805460ff1916905551339285917ff6391f5c32d9c69d2a47ea670b442974b53935d1edc7fd64eb21e047a839171b9190a45050565b6110426114d8565b6097805460ff191690557f5db9ee0a495bf2e6ff9c91a7834c1ba4fdd244a5e8aa4e537bd38aeae4b073aa335b6040516001600160a01b03909116815260200160405180910390a1565b6001600160a01b038116600090815260ce60205260409020546110de5760405162461bcd60e51b815260206004820152600a6024820152694e4f5f42414c414e434560b01b604482015260640161076b565b6001600160a01b038116600090815260ce6020526040812054686c6b935b8bbd400000116111165750686c6b935b8bbd400000611131565b506001600160a01b038116600090815260ce60205260409020545b6001600160a01b038216600090815260d56020908152604080832043905560ce909152902054611162908290611943565b6001600160a01b038316600090815260ce602052604090205561118482610918565b60cb546001600160a01b03838116600081815260d2602052604090819020549051631ec1e36f60e11b815260048101929092526024820152911690633d83c6de90604401600060405180830381600087803b1580156111e257600080fd5b505af11580156111f6573d6000803e3d6000fd5b505060ca5460405163a9059cbb60e01b81526001600160a01b03868116600483015260248201869052909116925063a9059cbb9150604401602060405180830381600087803b15801561124857600080fd5b505af115801561125c573d6000803e3d6000fd5b505050506040513d601f19601f8201168201806040525081019061128091906118df565b50604080516001600160a01b0384168152602081018390527f6ff2a444c4353cfe4d3d0d77371942824d799f9d5256f9beb4979096362ecda891015b60405180910390a15050565b6112d0610ddc565b6097805460ff191660011790557f62e78cea01bee320cd4e420270b5ea74000d11b0c9f74754ebdbfc544b05a25861106f3390565b600054610100900460ff1661091657600080fd5b600054610100900460ff1661132d57600080fd5b610916611521565b6107888282610f4d565b600081116113785760405162461bcd60e51b815260040161076b906020808252600490820152637a65726f60e01b604082015260600190565b6001600160a01b038216600090815260ce6020526040812080548392906113a0908490611a0e565b90915550506001600160a01b038216600090815260cd602052604090204390556113c982610918565b60cb546001600160a01b03838116600081815260d2602052604090819020549051631ec1e36f60e11b815260048101929092526024820152911690633d83c6de90604401600060405180830381600087803b15801561142757600080fd5b505af115801561143b573d6000803e3d6000fd5b5050604080516001600160a01b0386168152602081018590527f3c54659ea5ff21964d07447ffa8cd103abb28ac25fe4af22bd7536d60ecfab3293500190506112bc565b6114898282610a6e565b6107885761149681611541565b6114a1836020611553565b6040516020016114b2929190611a52565b60408051601f198184030181529082905262461bcd60e51b825261076b91600401611ac7565b60975460ff166109165760405162461bcd60e51b815260206004820152601460248201527314185d5cd8589b194e881b9bdd081c185d5cd95960621b604482015260640161076b565b600054610100900460ff1661153557600080fd5b6097805460ff19169055565b60606105e36001600160a01b03831660145b6060600061156283600261195a565b61156d906002611a0e565b67ffffffffffffffff8111156115855761158561199b565b6040519080825280601f01601f1916602001820160405280156115af576020820181803683370190505b509050600360fc1b816000815181106115ca576115ca6118fc565b60200101906001600160f81b031916908160001a905350600f60fb1b816001815181106115f9576115f96118fc565b60200101906001600160f81b031916908160001a905350600061161d84600261195a565b611628906001611a0e565b90505b60018111156116a0576f181899199a1a9b1b9c1cb0b131b232b360811b85600f166010811061165c5761165c6118fc565b1a60f81b828281518110611672576116726118fc565b60200101906001600160f81b031916908160001a90535060049490941c9361169981611afa565b905061162b565b5083156116ac57600080fd5b9392505050565b6000602082840312156116c557600080fd5b81356001600160e01b0319811681146116ac57600080fd5b80356001600160a01b03811681146116f457600080fd5b919050565b60006020828403121561170b57600080fd5b6116ac826116dd565b60008060006060848603121561172957600080fd5b611732846116dd565b9250611740602085016116dd565b9150604084013590509250925092565b6000806020838503121561176357600080fd5b823567ffffffffffffffff8082111561177b57600080fd5b818501915085601f83011261178f57600080fd5b81358181111561179e57600080fd5b8660208260061b85010111156117b357600080fd5b60209290920196919550909350505050565b801515811461083e57600080fd5b600080604083850312156117e657600080fd5b8235915060208301356117f8816117c5565b809150509250929050565b60006020828403121561181557600080fd5b5035919050565b6000806040838503121561182f57600080fd5b8235915061183f602084016116dd565b90509250929050565b6000806040838503121561185b57600080fd5b611864836116dd565b915061183f602084016116dd565b60008060006060848603121561188757600080fd5b611890846116dd565b925061189e602085016116dd565b91506118ac604085016116dd565b90509250925092565b600080604083850312156118c857600080fd5b6118d1836116dd565b946020939093013593505050565b6000602082840312156118f157600080fd5b81516116ac816117c5565b634e487b7160e01b600052603260045260246000fd5b634e487b7160e01b600052601160045260246000fd5b600060001982141561193c5761193c611912565b5060010190565b60008282101561195557611955611912565b500390565b600081600019048311821515161561197457611974611912565b500290565b60008261199657634e487b7160e01b600052601260045260246000fd5b500490565b634e487b7160e01b600052604160045260246000fd5b6001600160a01b038416815260208082018490526060604083018190528351908301819052600091848101916080850190845b81811015611a00578451835293830193918301916001016119e4565b509098975050505050505050565b60008219821115611a2157611a21611912565b500190565b60005b83811015611a41578181015183820152602001611a29565b8381111561070e5750506000910152565b7f416363657373436f6e74726f6c3a206163636f756e7420000000000000000000815260008351611a8a816017850160208801611a26565b7001034b99036b4b9b9b4b733903937b6329607d1b6017918401918201528351611abb816028840160208801611a26565b01602801949350505050565b6020815260008251806020840152611ae6816040850160208701611a26565b601f01601f19169190910160400192915050565b600081611b0957611b09611912565b50600019019056fe97667070c54ef182b0f5858b034beac1b6f3089aa2d3188bb1e8929f4fa9b929a26469706673582212206f1f8ac92b75a78d5980a365d19e9ae34cd2c7606e3693afe50a040f46523a9164736f6c63430008090033",
  "linkReferences": {},
  "deployedLinkReferences": {}
}