{
  "_format": "hh-sol-artifact-1",
  "contractName": "BkTimelock",
  "sourceName": "contracts/features/BkTimelock.sol",
  "abi": [
    {
      "anonymous": false,
      "inputs": [
        {
          "indexed": false,
          "internalType": "uint8",
          "name": "version",
          "type": "uint8"
        }
      ],
      "name": "Initialized",
      "type": "event"
    },
    {
      "anonymous": false,
      "inputs": [
        {
          "indexed": false,
          "internalType": "address",
          "name": "account",
          "type": "address"
        }
      ],
      "name": "Paused",
      "type": "event"
    },
    {
      "anonymous": false,
      "inputs": [
        {
          "indexed": true,
          "internalType": "bytes32",
          "name": "role",
          "type": "bytes32"
        },
        {
          "indexed": true,
          "internalType": "bytes32",
          "name": "previousAdminRole",
          "type": "bytes32"
        },
        {
          "indexed": true,
          "internalType": "bytes32",
          "name": "newAdminRole",
          "type": "bytes32"
        }
      ],
      "name": "RoleAdminChanged",
      "type": "event"
    },
    {
      "anonymous": false,
      "inputs": [
        {
          "indexed": true,
          "internalType": "bytes32",
          "name": "role",
          "type": "bytes32"
        },
        {
          "indexed": true,
          "internalType": "address",
          "name": "account",
          "type": "address"
        },
        {
          "indexed": true,
          "internalType": "address",
          "name": "sender",
          "type": "address"
        }
      ],
      "name": "RoleGranted",
      "type": "event"
    },
    {
      "anonymous": false,
      "inputs": [
        {
          "indexed": true,
          "internalType": "bytes32",
          "name": "role",
          "type": "bytes32"
        },
        {
          "indexed": true,
          "internalType": "address",
          "name": "account",
          "type": "address"
        },
        {
          "indexed": true,
          "internalType": "address",
          "name": "sender",
          "type": "address"
        }
      ],
      "name": "RoleRevoked",
      "type": "event"
    },
    {
      "anonymous": false,
      "inputs": [
        {
          "indexed": false,
          "internalType": "address",
          "name": "account",
          "type": "address"
        }
      ],
      "name": "Unpaused",
      "type": "event"
    },
    {
      "inputs": [],
      "name": "DEFAULT_ADMIN_ROLE",
      "outputs": [
        {
          "internalType": "bytes32",
          "name": "",
          "type": "bytes32"
        }
      ],
      "stateMutability": "view",
      "type": "function"
    },
    {
      "inputs": [
        {
          "internalType": "address",
          "name": "_operator",
          "type": "address"
        },
        {
          "internalType": "address",
          "name": "_blocklistAddress",
          "type": "address"
        }
      ],
      "name": "__Administrable_init",
      "outputs": [],
      "stateMutability": "nonpayable",
      "type": "function"
    },
    {
      "inputs": [],
      "name": "_resetBlocklist",
      "outputs": [],
      "stateMutability": "nonpayable",
      "type": "function"
    },
    {
      "inputs": [
        {
          "internalType": "address",
          "name": "",
          "type": "address"
        }
      ],
      "name": "balances",
      "outputs": [
        {
          "internalType": "uint256",
          "name": "",
          "type": "uint256"
        }
      ],
      "stateMutability": "view",
      "type": "function"
    },
    {
      "inputs": [],
      "name": "bct",
      "outputs": [
        {
          "internalType": "contract ERC20",
          "name": "",
          "type": "address"
        }
      ],
      "stateMutability": "view",
      "type": "function"
    },
    {
      "inputs": [
        {
          "internalType": "uint256",
          "name": "amount",
          "type": "uint256"
        }
      ],
      "name": "deposit",
      "outputs": [],
      "stateMutability": "nonpayable",
      "type": "function"
    },
    {
      "inputs": [
        {
          "internalType": "bytes32",
          "name": "role",
          "type": "bytes32"
        }
      ],
      "name": "getRoleAdmin",
      "outputs": [
        {
          "internalType": "bytes32",
          "name": "",
          "type": "bytes32"
        }
      ],
      "stateMutability": "view",
      "type": "function"
    },
    {
      "inputs": [
        {
          "internalType": "bytes32",
          "name": "role",
          "type": "bytes32"
        },
        {
          "internalType": "address",
          "name": "account",
          "type": "address"
        }
      ],
      "name": "grantRole",
      "outputs": [],
      "stateMutability": "nonpayable",
      "type": "function"
    },
    {
      "inputs": [],
      "name": "hasBlocklist",
      "outputs": [
        {
          "internalType": "bool",
          "name": "",
          "type": "bool"
        }
      ],
      "stateMutability": "view",
      "type": "function"
    },
    {
      "inputs": [
        {
          "internalType": "bytes32",
          "name": "role",
          "type": "bytes32"
        },
        {
          "internalType": "address",
          "name": "account",
          "type": "address"
        }
      ],
      "name": "hasRole",
      "outputs": [
        {
          "internalType": "bool",
          "name": "",
          "type": "bool"
        }
      ],
      "stateMutability": "view",
      "type": "function"
    },
    {
      "inputs": [
        {
          "internalType": "address",
          "name": "_operator",
          "type": "address"
        },
        {
          "internalType": "address",
          "name": "_blocklist",
          "type": "address"
        }
      ],
      "name": "initialize",
      "outputs": [],
      "stateMutability": "nonpayable",
      "type": "function"
    },
    {
      "inputs": [],
      "name": "pause",
      "outputs": [],
      "stateMutability": "nonpayable",
      "type": "function"
    },
    {
      "inputs": [],
      "name": "paused",
      "outputs": [
        {
          "internalType": "bool",
          "name": "",
          "type": "bool"
        }
      ],
      "stateMutability": "view",
      "type": "function"
    },
    {
      "inputs": [
        {
          "internalType": "address",
          "name": "tokenAddress",
          "type": "address"
        },
        {
          "internalType": "address",
          "name": "to",
          "type": "address"
        },
        {
          "internalType": "uint256",
          "name": "amount",
          "type": "uint256"
        }
      ],
      "name": "recoverERC20",
      "outputs": [],
      "stateMutability": "nonpayable",
      "type": "function"
    },
    {
      "inputs": [
        {
          "internalType": "bytes32",
          "name": "role",
          "type": "bytes32"
        },
        {
          "internalType": "address",
          "name": "account",
          "type": "address"
        }
      ],
      "name": "renounceRole",
      "outputs": [],
      "stateMutability": "nonpayable",
      "type": "function"
    },
    {
      "inputs": [
        {
          "internalType": "bytes32",
          "name": "role",
          "type": "bytes32"
        },
        {
          "internalType": "address",
          "name": "account",
          "type": "address"
        }
      ],
      "name": "revokeRole",
      "outputs": [],
      "stateMutability": "nonpayable",
      "type": "function"
    },
    {
      "inputs": [
        {
          "internalType": "address",
          "name": "blocklistAddress",
          "type": "address"
        }
      ],
      "name": "setBlocklist",
      "outputs": [],
      "stateMutability": "nonpayable",
      "type": "function"
    },
    {
      "inputs": [
        {
          "internalType": "bytes4",
          "name": "interfaceId",
          "type": "bytes4"
        }
      ],
      "name": "supportsInterface",
      "outputs": [
        {
          "internalType": "bool",
          "name": "",
          "type": "bool"
        }
      ],
      "stateMutability": "view",
      "type": "function"
    },
    {
      "inputs": [],
      "name": "unlockBlock",
      "outputs": [
        {
          "internalType": "uint256",
          "name": "",
          "type": "uint256"
        }
      ],
      "stateMutability": "view",
      "type": "function"
    },
    {
      "inputs": [],
      "name": "unpause",
      "outputs": [],
      "stateMutability": "nonpayable",
      "type": "function"
    },
    {
      "inputs": [
        {
          "internalType": "uint256",
          "name": "amount",
          "type": "uint256"
        }
      ],
      "name": "withdraw",
      "outputs": [],
      "stateMutability": "nonpayable",
      "type": "function"
    }
  ],
  "bytecode": "0x608060405234801561001057600080fd5b50611041806100206000396000f3fe608060405234801561001057600080fd5b50600436106101375760003560e01c80635c975abb116100b8578063a217fddf1161007c578063a217fddf14610273578063aef18ae71461027b578063b6b55f251461028e578063ce4a1c7f146102a1578063d547741f146102cc578063ea35df16146102df57600080fd5b80635c975abb14610226578063634210f4146102315780638456cb591461024557806391d148541461024d578063931da89b1461026057600080fd5b80632e1a7d4d116100ff5780632e1a7d4d146101d25780632f2ff15d146101e557806336568abe146101f85780633f4ba83a1461020b578063485cc9551461021357600080fd5b806301ffc9a71461013c57806306a45070146101645780631171bda91461016e578063248a9ca31461018157806327e235e3146101b2575b600080fd5b61014f61014a366004610d3e565b6102e8565b60405190151581526020015b60405180910390f35b61016c61031f565b005b61016c61017c366004610d84565b61034a565b6101a461018f366004610dc0565b60009081526065602052604090206001015490565b60405190815260200161015b565b6101a46101c0366004610dd9565b60cb6020526000908152604090205481565b61016c6101e0366004610dc0565b6103eb565b61016c6101f3366004610df4565b61051e565b61016c610206366004610df4565b610548565b61016c61056b565b61016c610221366004610e20565b61058e565b60975460ff1661014f565b60c95461014f90600160a01b900460ff1681565b61016c61066f565b61014f61025b366004610df4565b61068f565b61016c61026e366004610e20565b6106ba565b6101a4600081565b61016c610289366004610dd9565b6107c8565b61016c61029c366004610dc0565b610808565b60cc546102b4906001600160a01b031681565b6040516001600160a01b03909116815260200161015b565b61016c6102da366004610df4565b6108dd565b6101a460ca5481565b60006001600160e01b03198216637965db0b60e01b148061031957506301ffc9a760e01b6001600160e01b03198316145b92915050565b600080516020610fec83398151915261033781610902565b5060c980546001600160a81b0319169055565b600080516020610fec83398151915261036281610902565b60405163a9059cbb60e01b81526001600160a01b0384811660048301526024820184905285169063a9059cbb90604401602060405180830381600087803b1580156103ac57600080fd5b505af11580156103c0573d6000803e3d6000fd5b505050506040513d601f19601f820116820180604052508101906103e49190610e4a565b5050505050565b33736f165b30ee4bfc9565e977ae252e4110624ab147146104535760405162461bcd60e51b815260206004820152601860248201527f4f6e6c79204b4f5a494b412063616e207769746864726177000000000000000060448201526064015b60405180910390fd5b60ca544310156104995760405162461bcd60e51b8152602060048201526011602482015270151bdad95b9cc8185c99481b1bd8dad959607a1b604482015260640161044a565b33600090815260cb6020526040812080548392906104b8908490610e82565b909155505060cc5460405163a9059cbb60e01b8152336004820152602481018390526001600160a01b039091169063a9059cbb906044015b600060405180830381600087803b15801561050a57600080fd5b505af11580156103e4573d6000803e3d6000fd5b60008281526065602052604090206001015461053981610902565b610543838361090c565b505050565b6001600160a01b038116331461055d57600080fd5b6105678282610992565b5050565b600080516020610fec83398151915261058381610902565b61058b6109f9565b50565b600054610100900460ff16158080156105ae5750600054600160ff909116105b806105c85750303b1580156105c8575060005460ff166001145b6105d157600080fd5b6000805460ff1916600117905580156105f4576000805461ff0019166101001790555b6105fe83836106ba565b60cc80546001600160a01b031916736c93500e8bef8c806cf5228a352f8c0af439370f1790558015610543576000805461ff0019169055604051600181527f7f26b83ff96e1f2b6a682f133852f6798a09c465da95921460cefb3847402498906020015b60405180910390a1505050565b600080516020610fec83398151915261068781610902565b61058b610a4b565b60009182526065602090815260408084206001600160a01b0393909316845291905290205460ff1690565b600054610100900460ff16158080156106da5750600054600160ff909116105b806106f45750303b1580156106f4575060005460ff166001145b6106fd57600080fd5b6000805460ff191660011790558015610720576000805461ff0019166101001790555b610728610a88565b610730610a9e565b61073b600084610aba565b610753600080516020610fec83398151915284610aba565b61077d7f73e573f9566d61418a34d5de3ff49360f9c51fec37f7486551670290f6285dab84610aba565b610786826107c8565b8015610543576000805461ff0019169055604051600181527f7f26b83ff96e1f2b6a682f133852f6798a09c465da95921460cefb384740249890602001610662565b600080516020610fec8339815191526107e081610902565b5060c980546001600160a81b0319166001600160a01b0390921691909117600160a01b179055565b33736f165b30ee4bfc9565e977ae252e4110624ab1471461086b5760405162461bcd60e51b815260206004820152601760248201527f4f6e6c79204b4f5a494b412063616e206465706f736974000000000000000000604482015260640161044a565b33600090815260cb60205260408120805483929061088a908490610e99565b9091555061089d9050436283d600610e99565b60ca5560cc546040516323b872dd60e01b8152336004820152306024820152604481018390526001600160a01b03909116906323b872dd906064016104f0565b6000828152606560205260409020600101546108f881610902565b6105438383610992565b61058b8133610ac4565b610916828261068f565b6105675760008281526065602090815260408083206001600160a01b03851684529091529020805460ff1916600117905561094e3390565b6001600160a01b0316816001600160a01b0316837f2f8788117e7eff1d82e926ec794901d17c78024a50270940304540a733656f0d60405160405180910390a45050565b61099c828261068f565b156105675760008281526065602090815260408083206001600160a01b0385168085529252808320805460ff1916905551339285917ff6391f5c32d9c69d2a47ea670b442974b53935d1edc7fd64eb21e047a839171b9190a45050565b610a01610b1d565b6097805460ff191690557f5db9ee0a495bf2e6ff9c91a7834c1ba4fdd244a5e8aa4e537bd38aeae4b073aa335b6040516001600160a01b03909116815260200160405180910390a1565b610a53610b66565b6097805460ff191660011790557f62e78cea01bee320cd4e420270b5ea74000d11b0c9f74754ebdbfc544b05a258610a2e3390565b600054610100900460ff16610a9c57600080fd5b565b600054610100900460ff16610ab257600080fd5b610a9c610bac565b610567828261090c565b610ace828261068f565b61056757610adb81610bcc565b610ae6836020610bde565b604051602001610af7929190610ee1565b60408051601f198184030181529082905262461bcd60e51b825261044a91600401610f56565b60975460ff16610a9c5760405162461bcd60e51b815260206004820152601460248201527314185d5cd8589b194e881b9bdd081c185d5cd95960621b604482015260640161044a565b60975460ff1615610a9c5760405162461bcd60e51b815260206004820152601060248201526f14185d5cd8589b194e881c185d5cd95960821b604482015260640161044a565b600054610100900460ff16610bc057600080fd5b6097805460ff19169055565b60606103196001600160a01b03831660145b60606000610bed836002610f89565b610bf8906002610e99565b67ffffffffffffffff811115610c1057610c10610fa8565b6040519080825280601f01601f191660200182016040528015610c3a576020820181803683370190505b509050600360fc1b81600081518110610c5557610c55610fbe565b60200101906001600160f81b031916908160001a905350600f60fb1b81600181518110610c8457610c84610fbe565b60200101906001600160f81b031916908160001a9053506000610ca8846002610f89565b610cb3906001610e99565b90505b6001811115610d2b576f181899199a1a9b1b9c1cb0b131b232b360811b85600f1660108110610ce757610ce7610fbe565b1a60f81b828281518110610cfd57610cfd610fbe565b60200101906001600160f81b031916908160001a90535060049490941c93610d2481610fd4565b9050610cb6565b508315610d3757600080fd5b9392505050565b600060208284031215610d5057600080fd5b81356001600160e01b031981168114610d3757600080fd5b80356001600160a01b0381168114610d7f57600080fd5b919050565b600080600060608486031215610d9957600080fd5b610da284610d68565b9250610db060208501610d68565b9150604084013590509250925092565b600060208284031215610dd257600080fd5b5035919050565b600060208284031215610deb57600080fd5b610d3782610d68565b60008060408385031215610e0757600080fd5b82359150610e1760208401610d68565b90509250929050565b60008060408385031215610e3357600080fd5b610e3c83610d68565b9150610e1760208401610d68565b600060208284031215610e5c57600080fd5b81518015158114610d3757600080fd5b634e487b7160e01b600052601160045260246000fd5b600082821015610e9457610e94610e6c565b500390565b60008219821115610eac57610eac610e6c565b500190565b60005b83811015610ecc578181015183820152602001610eb4565b83811115610edb576000848401525b50505050565b7f416363657373436f6e74726f6c3a206163636f756e7420000000000000000000815260008351610f19816017850160208801610eb1565b7001034b99036b4b9b9b4b733903937b6329607d1b6017918401918201528351610f4a816028840160208801610eb1565b01602801949350505050565b6020815260008251806020840152610f75816040850160208701610eb1565b601f01601f19169190910160400192915050565b6000816000190483118215151615610fa357610fa3610e6c565b500290565b634e487b7160e01b600052604160045260246000fd5b634e487b7160e01b600052603260045260246000fd5b600081610fe357610fe3610e6c565b50600019019056fe97667070c54ef182b0f5858b034beac1b6f3089aa2d3188bb1e8929f4fa9b929a26469706673582212205d20c03f07a7f956fe2086509c4857aa89d777daf697eed619d131bf5299e7f964736f6c63430008090033",
  "linkReferences": {},
  "deployedLinkReferences": {}
}