{
  "_format": "hh-sol-artifact-1",
  "contractName": "BkQuestManager",
  "sourceName": "contracts/features/BkQuestManager.sol",
  "abi": [
    {
      "anonymous": false,
      "inputs": [
        {
          "indexed": true,
          "internalType": "address",
          "name": "player",
          "type": "address"
        },
        {
          "indexed": false,
          "internalType": "uint256",
          "name": "bct",
          "type": "uint256"
        }
      ],
      "name": "BctTransfered",
      "type": "event"
    },
    {
      "anonymous": false,
      "inputs": [
        {
          "indexed": false,
          "internalType": "uint8",
          "name": "version",
          "type": "uint8"
        }
      ],
      "name": "Initialized",
      "type": "event"
    },
    {
      "anonymous": false,
      "inputs": [
        {
          "indexed": false,
          "internalType": "address",
          "name": "account",
          "type": "address"
        }
      ],
      "name": "Paused",
      "type": "event"
    },
    {
      "anonymous": false,
      "inputs": [
        {
          "indexed": true,
          "internalType": "address",
          "name": "player",
          "type": "address"
        },
        {
          "indexed": false,
          "internalType": "uint256",
          "name": "eBct",
          "type": "uint256"
        },
        {
          "indexed": false,
          "internalType": "uint256[]",
          "name": "resources",
          "type": "uint256[]"
        }
      ],
      "name": "ResourcesTransfered",
      "type": "event"
    },
    {
      "anonymous": false,
      "inputs": [
        {
          "indexed": true,
          "internalType": "bytes32",
          "name": "role",
          "type": "bytes32"
        },
        {
          "indexed": true,
          "internalType": "bytes32",
          "name": "previousAdminRole",
          "type": "bytes32"
        },
        {
          "indexed": true,
          "internalType": "bytes32",
          "name": "newAdminRole",
          "type": "bytes32"
        }
      ],
      "name": "RoleAdminChanged",
      "type": "event"
    },
    {
      "anonymous": false,
      "inputs": [
        {
          "indexed": true,
          "internalType": "bytes32",
          "name": "role",
          "type": "bytes32"
        },
        {
          "indexed": true,
          "internalType": "address",
          "name": "account",
          "type": "address"
        },
        {
          "indexed": true,
          "internalType": "address",
          "name": "sender",
          "type": "address"
        }
      ],
      "name": "RoleGranted",
      "type": "event"
    },
    {
      "anonymous": false,
      "inputs": [
        {
          "indexed": true,
          "internalType": "bytes32",
          "name": "role",
          "type": "bytes32"
        },
        {
          "indexed": true,
          "internalType": "address",
          "name": "account",
          "type": "address"
        },
        {
          "indexed": true,
          "internalType": "address",
          "name": "sender",
          "type": "address"
        }
      ],
      "name": "RoleRevoked",
      "type": "event"
    },
    {
      "anonymous": false,
      "inputs": [
        {
          "indexed": false,
          "internalType": "address",
          "name": "account",
          "type": "address"
        }
      ],
      "name": "Unpaused",
      "type": "event"
    },
    {
      "inputs": [],
      "name": "DEFAULT_ADMIN_ROLE",
      "outputs": [
        {
          "internalType": "bytes32",
          "name": "",
          "type": "bytes32"
        }
      ],
      "stateMutability": "view",
      "type": "function"
    },
    {
      "inputs": [
        {
          "internalType": "address",
          "name": "_operator",
          "type": "address"
        },
        {
          "internalType": "address",
          "name": "_blocklistAddress",
          "type": "address"
        }
      ],
      "name": "__Administrable_init",
      "outputs": [],
      "stateMutability": "nonpayable",
      "type": "function"
    },
    {
      "inputs": [],
      "name": "autoReturnRate",
      "outputs": [
        {
          "internalType": "uint256",
          "name": "",
          "type": "uint256"
        }
      ],
      "stateMutability": "view",
      "type": "function"
    },
    {
      "inputs": [
        {
          "internalType": "uint256",
          "name": "bctAmount",
          "type": "uint256"
        }
      ],
      "name": "bctToStabletoken",
      "outputs": [
        {
          "internalType": "uint256",
          "name": "",
          "type": "uint256"
        }
      ],
      "stateMutability": "view",
      "type": "function"
    },
    {
      "inputs": [
        {
          "internalType": "uint256",
          "name": "squadId",
          "type": "uint256"
        }
      ],
      "name": "cancelQuest",
      "outputs": [],
      "stateMutability": "nonpayable",
      "type": "function"
    },
    {
      "inputs": [],
      "name": "contracts",
      "outputs": [
        {
          "internalType": "contract IBkFarm",
          "name": "farm",
          "type": "address"
        },
        {
          "internalType": "contract IBkNft",
          "name": "nft",
          "type": "address"
        },
        {
          "internalType": "contract IBkStasher",
          "name": "stasher",
          "type": "address"
        },
        {
          "internalType": "contract IBkPlayerBonus",
          "name": "playerBonus",
          "type": "address"
        }
      ],
      "stateMutability": "view",
      "type": "function"
    },
    {
      "inputs": [
        {
          "internalType": "uint256",
          "name": "",
          "type": "uint256"
        }
      ],
      "name": "deletedQuests",
      "outputs": [
        {
          "internalType": "bool",
          "name": "",
          "type": "bool"
        }
      ],
      "stateMutability": "view",
      "type": "function"
    },
    {
      "inputs": [
        {
          "internalType": "uint256",
          "name": "squadId",
          "type": "uint256"
        }
      ],
      "name": "finishQuest",
      "outputs": [],
      "stateMutability": "nonpayable",
      "type": "function"
    },
    {
      "inputs": [
        {
          "internalType": "bytes32",
          "name": "role",
          "type": "bytes32"
        }
      ],
      "name": "getRoleAdmin",
      "outputs": [
        {
          "internalType": "bytes32",
          "name": "",
          "type": "bytes32"
        }
      ],
      "stateMutability": "view",
      "type": "function"
    },
    {
      "inputs": [
        {
          "internalType": "bytes32",
          "name": "role",
          "type": "bytes32"
        },
        {
          "internalType": "address",
          "name": "account",
          "type": "address"
        }
      ],
      "name": "grantRole",
      "outputs": [],
      "stateMutability": "nonpayable",
      "type": "function"
    },
    {
      "inputs": [],
      "name": "hasBlocklist",
      "outputs": [
        {
          "internalType": "bool",
          "name": "",
          "type": "bool"
        }
      ],
      "stateMutability": "view",
      "type": "function"
    },
    {
      "inputs": [
        {
          "internalType": "bytes32",
          "name": "role",
          "type": "bytes32"
        },
        {
          "internalType": "address",
          "name": "account",
          "type": "address"
        }
      ],
      "name": "hasRole",
      "outputs": [
        {
          "internalType": "bool",
          "name": "",
          "type": "bool"
        }
      ],
      "stateMutability": "view",
      "type": "function"
    },
    {
      "inputs": [
        {
          "internalType": "address",
          "name": "_operator",
          "type": "address"
        },
        {
          "internalType": "address",
          "name": "_blocklist",
          "type": "address"
        }
      ],
      "name": "initialize",
      "outputs": [],
      "stateMutability": "nonpayable",
      "type": "function"
    },
    {
      "inputs": [
        {
          "internalType": "address",
          "name": "",
          "type": "address"
        },
        {
          "internalType": "uint256",
          "name": "",
          "type": "uint256"
        }
      ],
      "name": "ongoingSpecialQuestIdsPerPlayer",
      "outputs": [
        {
          "internalType": "bool",
          "name": "",
          "type": "bool"
        }
      ],
      "stateMutability": "view",
      "type": "function"
    },
    {
      "inputs": [],
      "name": "pause",
      "outputs": [],
      "stateMutability": "nonpayable",
      "type": "function"
    },
    {
      "inputs": [],
      "name": "paused",
      "outputs": [
        {
          "internalType": "bool",
          "name": "",
          "type": "bool"
        }
      ],
      "stateMutability": "view",
      "type": "function"
    },
    {
      "inputs": [],
      "name": "paymentContracts",
      "outputs": [
        {
          "internalType": "contract IBkERC20",
          "name": "bct",
          "type": "address"
        },
        {
          "internalType": "contract IBkERC20",
          "name": "busd",
          "type": "address"
        },
        {
          "internalType": "contract ICommunityPool",
          "name": "pool",
          "type": "address"
        },
        {
          "internalType": "contract IBkFarm",
          "name": "farm",
          "type": "address"
        }
      ],
      "stateMutability": "view",
      "type": "function"
    },
    {
      "inputs": [
        {
          "internalType": "address",
          "name": "tokenAddress",
          "type": "address"
        },
        {
          "internalType": "address",
          "name": "to",
          "type": "address"
        },
        {
          "internalType": "uint256",
          "name": "amount",
          "type": "uint256"
        }
      ],
      "name": "recoverERC20",
      "outputs": [],
      "stateMutability": "nonpayable",
      "type": "function"
    },
    {
      "inputs": [
        {
          "internalType": "bytes32",
          "name": "role",
          "type": "bytes32"
        },
        {
          "internalType": "address",
          "name": "account",
          "type": "address"
        }
      ],
      "name": "renounceRole",
      "outputs": [],
      "stateMutability": "nonpayable",
      "type": "function"
    },
    {
      "inputs": [],
      "name": "resetBlocklist",
      "outputs": [],
      "stateMutability": "nonpayable",
      "type": "function"
    },
    {
      "inputs": [
        {
          "internalType": "uint256",
          "name": "",
          "type": "uint256"
        }
      ],
      "name": "resources",
      "outputs": [
        {
          "internalType": "address",
          "name": "",
          "type": "address"
        }
      ],
      "stateMutability": "view",
      "type": "function"
    },
    {
      "inputs": [],
      "name": "resourcesCount",
      "outputs": [
        {
          "internalType": "uint256",
          "name": "",
          "type": "uint256"
        }
      ],
      "stateMutability": "view",
      "type": "function"
    },
    {
      "inputs": [
        {
          "internalType": "bytes32",
          "name": "role",
          "type": "bytes32"
        },
        {
          "internalType": "address",
          "name": "account",
          "type": "address"
        }
      ],
      "name": "revokeRole",
      "outputs": [],
      "stateMutability": "nonpayable",
      "type": "function"
    },
    {
      "inputs": [
        {
          "internalType": "address",
          "name": "blocklistAddress",
          "type": "address"
        }
      ],
      "name": "setBlocklist",
      "outputs": [],
      "stateMutability": "nonpayable",
      "type": "function"
    },
    {
      "inputs": [
        {
          "internalType": "address",
          "name": "_farm",
          "type": "address"
        },
        {
          "internalType": "address",
          "name": "_nft",
          "type": "address"
        },
        {
          "internalType": "address",
          "name": "_stasher",
          "type": "address"
        },
        {
          "internalType": "address",
          "name": "_playerBonus",
          "type": "address"
        }
      ],
      "name": "setContracts",
      "outputs": [],
      "stateMutability": "nonpayable",
      "type": "function"
    },
    {
      "inputs": [
        {
          "internalType": "uint256[]",
          "name": "questIds",
          "type": "uint256[]"
        },
        {
          "internalType": "bool[]",
          "name": "isDeleted",
          "type": "bool[]"
        }
      ],
      "name": "setDeletedQuests",
      "outputs": [],
      "stateMutability": "nonpayable",
      "type": "function"
    },
    {
      "inputs": [
        {
          "internalType": "uint256[]",
          "name": "questIds",
          "type": "uint256[]"
        },
        {
          "components": [
            {
              "internalType": "uint256",
              "name": "id",
              "type": "uint256"
            },
            {
              "internalType": "uint256",
              "name": "costInBct",
              "type": "uint256"
            },
            {
              "internalType": "uint256[]",
              "name": "costInResources",
              "type": "uint256[]"
            },
            {
              "internalType": "uint8[]",
              "name": "requiredDreamBeasts",
              "type": "uint8[]"
            },
            {
              "internalType": "uint8",
              "name": "requiredMaxedOutNfts",
              "type": "uint8"
            },
            {
              "internalType": "uint256[]",
              "name": "extraRewardInResources",
              "type": "uint256[]"
            },
            {
              "internalType": "uint256",
              "name": "extraRewardInBct",
              "type": "uint256"
            },
            {
              "internalType": "uint256",
              "name": "extraRewardInEbct",
              "type": "uint256"
            }
          ],
          "internalType": "struct BkQuestManager.SpecialQuest[]",
          "name": "quests_",
          "type": "tuple[]"
        }
      ],
      "name": "setQuests",
      "outputs": [],
      "stateMutability": "nonpayable",
      "type": "function"
    },
    {
      "inputs": [
        {
          "internalType": "address",
          "name": "_bct",
          "type": "address"
        },
        {
          "internalType": "address",
          "name": "_busd",
          "type": "address"
        },
        {
          "internalType": "address",
          "name": "_pool",
          "type": "address"
        },
        {
          "internalType": "address",
          "name": "_farm",
          "type": "address"
        },
        {
          "internalType": "address",
          "name": "_resourcesSource",
          "type": "address"
        },
        {
          "internalType": "uint256",
          "name": "_autoReturnRate",
          "type": "uint256"
        }
      ],
      "name": "setupPaymentModule",
      "outputs": [],
      "stateMutability": "nonpayable",
      "type": "function"
    },
    {
      "inputs": [
        {
          "internalType": "uint256",
          "name": "busdAmount",
          "type": "uint256"
        }
      ],
      "name": "stabletokenToBct",
      "outputs": [
        {
          "internalType": "uint256",
          "name": "",
          "type": "uint256"
        }
      ],
      "stateMutability": "view",
      "type": "function"
    },
    {
      "inputs": [
        {
          "internalType": "uint256",
          "name": "squadId",
          "type": "uint256"
        },
        {
          "internalType": "uint256",
          "name": "questId",
          "type": "uint256"
        }
      ],
      "name": "startQuest",
      "outputs": [],
      "stateMutability": "nonpayable",
      "type": "function"
    },
    {
      "inputs": [
        {
          "internalType": "bytes4",
          "name": "interfaceId",
          "type": "bytes4"
        }
      ],
      "name": "supportsInterface",
      "outputs": [
        {
          "internalType": "bool",
          "name": "",
          "type": "bool"
        }
      ],
      "stateMutability": "view",
      "type": "function"
    },
    {
      "inputs": [],
      "name": "unpause",
      "outputs": [],
      "stateMutability": "nonpayable",
      "type": "function"
    }
  ],
  "bytecode": "0x608060405234801561001057600080fd5b5061337e806100206000396000f3fe608060405234801561001057600080fd5b50600436106101f05760003560e01c8063634210f41161010f578063b5f63f60116100a2578063c429d34911610071578063c429d349146104b3578063d547741f146104bc578063f4b93f45146104cf578063fe90ff7d146104e257600080fd5b8063b5f63f6014610457578063b6baa8e51461046a578063bf989b6e1461048d578063c3c33b40146104a057600080fd5b8063931da89b116100de578063931da89b14610416578063a217fddf14610429578063ae0ed68c14610431578063aef18ae71461044457600080fd5b8063634210f4146103c15780636c0f79b6146103d55780638456cb59146103fb57806391d148541461040357600080fd5b806336568abe1161018757806343fcf6311161015657806343fcf6311461036c578063485cc9551461039a57806351ac7b8c146103ad5780635c975abb146103b657600080fd5b806336568abe146103365780633c7fd822146103495780633f4ba83a1461035157806341e80ad91461035957600080fd5b8063244d6daa116101c3578063244d6daa14610258578063248a9ca3146102995780632f2ff15d146102ca578063323b6cb7146102dd57600080fd5b806301ffc9a7146101f55780631094f1521461021d5780631171bda91461023257806323ed6dbe14610245575b600080fd5b610208610203366004612625565b6104f5565b60405190151581526020015b60405180910390f35b61023061022b36600461264f565b61052c565b005b61023061024036600461267d565b610a59565b61023061025336600461287e565b610afa565b61028161026636600461264f565b60cb602052600090815260409020546001600160a01b031681565b6040516001600160a01b039091168152602001610214565b6102bc6102a736600461264f565b60009081526065602052604090206001015490565b604051908152602001610214565b6102306102d8366004612a0a565b610c15565b60cc5460cd5460ce5460cf54610303936001600160a01b03908116938116928116911684565b604080516001600160a01b0395861681529385166020850152918416918301919091529091166060820152608001610214565b610230610344366004612a0a565b610c3a565b610230610c5d565b610230610c88565b6102bc61036736600461264f565b610cab565b61020861037a366004612a3a565b60d660209081526000928352604080842090915290825290205460ff1681565b6102306103a8366004612a66565b610d29565b6102bc60ca5481565b60975460ff16610208565b60c95461020890600160a01b900460ff1681565b60d15460d25460d35460d454610303936001600160a01b03908116938116928116911684565b610230610de3565b610208610411366004612a0a565b610e03565b610230610424366004612a66565b610e2e565b6102bc600081565b61023061043f366004612aa2565b610efa565b610230610452366004612b66565b610f8e565b6102bc61046536600461264f565b610fce565b61020861047836600461264f565b60d76020526000908152604090205460ff1681565b61023061049b366004612b83565b611000565b6102306104ae366004612bdf565b61108b565b6102bc60d05481565b6102306104ca366004612a0a565b6115ce565b6102306104dd366004612c01565b6115f3565b6102306104f036600461264f565b611622565b60006001600160e01b03198216637965db0b60e01b148061052657506301ffc9a760e01b6001600160e01b03198316145b92915050565b60d1546040516334d074b360e11b8152600481018390526000916001600160a01b0316906369a0e9669060240160006040518083038186803b15801561057157600080fd5b505afa158015610585573d6000803e3d6000fd5b505050506040513d6000823e601f3d908101601f191682016040526105ad9190810190612ce0565b90506000816101000151116105ed5760405162461bcd60e51b81526020600482015260016024820152603360f81b60448201526064015b60405180910390fd5b80516105f89061177e565b610100810151600090815260d7602052604090205460ff16156106785760d1546040516318988e4360e01b8152600481018490526001600160a01b03909116906318988e43906024015b600060405180830381600087803b15801561065c57600080fd5b505af1158015610670573d6000803e3d6000fd5b505050505050565b61010080820151600090815260d560209081526040808320815194850182528054855260018101548584015260028101805483518186028101860185528181529596959294938601938301828280156106f057602002820191906000526020600020905b8154815260200190600101908083116106dc575b505050505081526020016003820180548060200260200160405190810160405280929190818152602001828054801561076657602002820191906000526020600020906000905b825461010083900a900460ff168152602060019283018181049485019490930390920291018084116107375790505b5050509183525050600482015460ff1660208083019190915260058301805460408051828502810185018252828152940193928301828280156107c857602002820191906000526020600020905b8154815260200190600101908083116107b4575b5050509183525050600682015460208201526007909101546040909101528051909150156109905760008160a00151511180610808575060008160e00151115b156108cd5760d154825160e083015160a08401516040516304567ca960e11b81526001600160a01b03909416936308acf9529361084b9390929091600401612e54565b600060405180830381600087803b15801561086557600080fd5b505af1158015610879573d6000803e3d6000fd5b5050505081600001516001600160a01b03167f8b7c65ecfbbf17546a8d95a1ec956f2056f0e6d281f0ed8771c3d9f22014e8178260e001518360a001516040516108c4929190612e84565b60405180910390a25b60c0810151156109905760d154825160c0830151604051632654603560e01b81526001600160a01b0392831660048201526024810191909152911690632654603590604401600060405180830381600087803b15801561092c57600080fd5b505af1158015610940573d6000803e3d6000fd5b5050505081600001516001600160a01b03167f7a362f0b7c5c1be1064d717d2492992a0379b24e1724b17f9edb6a75b1c875ac8260c0015160405161098791815260200190565b60405180910390a25b60d15460405163c1f3ef4d60e01b8152600481018590526001600160a01b039091169063c1f3ef4d90602401600060405180830381600087803b1580156109d657600080fd5b505af11580156109ea573d6000803e3d6000fd5b505083516001600160a01b0316600090815260d660209081526040808320610100880151845290915290205460ff16159150610a5490505781516001600160a01b0316600090815260d66020908152604080832061010086015184529091529020805460ff191690555b505050565b600080516020613329833981519152610a71816117d2565b60405163a9059cbb60e01b81526001600160a01b0384811660048301526024820184905285169063a9059cbb90604401602060405180830381600087803b158015610abb57600080fd5b505af1158015610acf573d6000803e3d6000fd5b505050506040513d601f19601f82011682018060405250810190610af39190612eb0565b5050505050565b600080516020613329833981519152610b12816117d2565b60005b8251811015610c0f57828181518110610b3057610b30612ecd565b602002602001015160d56000868481518110610b4e57610b4e612ecd565b6020026020010151815260200190815260200160002060008201518160000155602082015181600101556040820151816002019080519060200190610b94929190612528565b5060608201518051610bb0916003840191602090910190612573565b50608082015160048201805460ff191660ff90921691909117905560a08201518051610be6916005840191602090910190612528565b5060c0820151600682015560e09091015160079091015580610c0781612ef9565b915050610b15565b50505050565b600082815260656020526040902060010154610c30816117d2565b610a5483836117dc565b6001600160a01b0381163314610c4f57600080fd5b610c598282611862565b5050565b600080516020613329833981519152610c75816117d2565b5060c980546001600160a81b0319169055565b600080516020613329833981519152610ca0816117d2565b610ca86118c9565b50565b60ce54604051634ca1cccb60e11b8152600481018390526000916001600160a01b0316906399439996906024015b60206040518083038186803b158015610cf157600080fd5b505afa158015610d05573d6000803e3d6000fd5b505050506040513d601f19601f820116820180604052508101906105269190612f14565b600054610100900460ff1615808015610d495750600054600160ff909116105b80610d635750303b158015610d63575060005460ff166001145b610d6c57600080fd5b6000805460ff191660011790558015610d8f576000805461ff0019166101001790555b610d998383610e2e565b8015610a54576000805461ff0019169055604051600181527f7f26b83ff96e1f2b6a682f133852f6798a09c465da95921460cefb38474024989060200160405180910390a1505050565b600080516020613329833981519152610dfb816117d2565b610ca861191b565b60009182526065602090815260408084206001600160a01b0393909316845291905290205460ff1690565b600054610100900460ff1615808015610e4e5750600054600160ff909116105b80610e685750303b158015610e68575060005460ff166001145b610e7157600080fd5b6000805460ff191660011790558015610e94576000805461ff0019166101001790555b610e9c611958565b610ea461196e565b610eaf60008461198a565b610ec76000805160206133298339815191528461198a565b610ef17f73e573f9566d61418a34d5de3ff49360f9c51fec37f7486551670290f6285dab8461198a565b610d9982610f8e565b600080516020613329833981519152610f12816117d2565b60005b8351811015610c0f57828181518110610f3057610f30612ecd565b602002602001015160d76000868481518110610f4e57610f4e612ecd565b6020026020010151815260200190815260200160002060006101000a81548160ff0219169083151502179055508080610f8690612ef9565b915050610f15565b600080516020613329833981519152610fa6816117d2565b5060c980546001600160a81b0319166001600160a01b0390921691909117600160a01b179055565b60ce5460405163526267fd60e11b8152600481018390526000916001600160a01b03169063a4c4cffa90602401610cd9565b600080516020613329833981519152611018816117d2565b50604080516080810182526001600160a01b039586168082529486166020820181905293861691810182905291909416606090910181905260d180546001600160a01b0319908116909417905560d28054841690921790915560d38054831690931790925560d480549091169091179055565b600081815260d7602052604090205460ff16156110cf5760405162461bcd60e51b8152602060048201526002602482015261070760f31b60448201526064016105e4565b60d1546040516334d074b360e11b8152600481018490526000916001600160a01b0316906369a0e9669060240160006040518083038186803b15801561111457600080fd5b505afa158015611128573d6000803e3d6000fd5b505050506040513d6000823e601f3d908101601f191682016040526111509190810190612ce0565b905061115f816000015161177e565b600082815260d560209081526040808320815161010081018352815481526001820154818501526002820180548451818702810187018652818152929593948601938301828280156111d057602002820191906000526020600020905b8154815260200190600101908083116111bc575b505050505081526020016003820180548060200260200160405190810160405280929190818152602001828054801561124657602002820191906000526020600020906000905b825461010083900a900460ff168152602060019283018181049485019490930390920291018084116112175790505b5050509183525050600482015460ff1660208083019190915260058301805460408051828502810185018252828152940193928301828280156112a857602002820191906000526020600020905b815481526020019060010190808311611294575b5050509183525050600682015460208201526007909101546040909101528051909150156115635781516001600160a01b0316600090815260d66020908152604080832086845290915290205460ff16156113295760405162461bcd60e51b81526020600482015260016024820152600360fc1b60448201526064016105e4565b6000816080015160ff16118061134457506000816060015151115b1561142d5760008061135586611994565b91509150826080015160ff168260ff1610156113975760405162461bcd60e51b81526020600482015260016024820152603160f81b60448201526064016105e4565b60005b83606001515181101561142957836060015181815181106113bd576113bd612ecd565b602002602001015160ff168282815181106113da576113da612ecd565b602002602001015160ff1610156114175760405162461bcd60e51b81526020600482015260016024820152601960f91b60448201526064016105e4565b8061142181612ef9565b91505061139a565b5050505b604081015151156115335760d3548251604051635c138c9d60e01b81526001600160a01b0391821660048201526000929190911690635c138c9d9060240160206040518083038186803b15801561148357600080fd5b505afa158015611497573d6000803e3d6000fd5b505050506040513d601f19601f820116820180604052508101906114bb9190612f14565b905060098110156114f25760405162461bcd60e51b81526020600482015260016024820152600d60fa1b60448201526064016105e4565b61153182602001518360400151604051806080016040528060011515815260200160011515815260200160001515815260200160001515815250611db8565b505b81516001600160a01b0316600090815260d6602090815260408083208684529091529020805460ff191660011790555b60d15460405163f1486dcd60e01b815260048101869052602481018590526001600160a01b039091169063f1486dcd90604401600060405180830381600087803b1580156115b057600080fd5b505af11580156115c4573d6000803e3d6000fd5b5050505050505050565b6000828152606560205260409020600101546115e9816117d2565b610a548383611862565b60008051602061332983398151915261160b816117d2565b61161987878787878761204d565b50505050505050565b60d1546040516334d074b360e11b8152600481018390526000916001600160a01b0316906369a0e9669060240160006040518083038186803b15801561166757600080fd5b505afa15801561167b573d6000803e3d6000fd5b505050506040513d6000823e601f3d908101601f191682016040526116a39190810190612ce0565b90506000816101000151116116de5760405162461bcd60e51b81526020600482015260016024820152603360f81b60448201526064016105e4565b80516116e99061177e565b80516001600160a01b0316600090815260d660209081526040808320610100850151845290915290205460ff161561174d5780516001600160a01b0316600090815260d66020908152604080832061010085015184529091529020805460ff191690555b60d1546040516318988e4360e01b8152600481018490526001600160a01b03909116906318988e4390602401610642565b6001600160a01b03811633148015611799575060975460ff16155b806117c957506117c97f73e573f9566d61418a34d5de3ff49360f9c51fec37f7486551670290f6285dab33610e03565b610ca857600080fd5b610ca88133612114565b6117e68282610e03565b610c595760008281526065602090815260408083206001600160a01b03851684529091529020805460ff1916600117905561181e3390565b6001600160a01b0316816001600160a01b0316837f2f8788117e7eff1d82e926ec794901d17c78024a50270940304540a733656f0d60405160405180910390a45050565b61186c8282610e03565b15610c595760008281526065602090815260408083206001600160a01b0385168085529252808320805460ff1916905551339285917ff6391f5c32d9c69d2a47ea670b442974b53935d1edc7fd64eb21e047a839171b9190a45050565b6118d161216d565b6097805460ff191690557f5db9ee0a495bf2e6ff9c91a7834c1ba4fdd244a5e8aa4e537bd38aeae4b073aa335b6040516001600160a01b03909116815260200160405180910390a1565b6119236121b6565b6097805460ff191660011790557f62e78cea01bee320cd4e420270b5ea74000d11b0c9f74754ebdbfc544b05a2586118fe3390565b600054610100900460ff1661196c57600080fd5b565b600054610100900460ff1661198257600080fd5b61196c6121fc565b610c5982826117dc565b60d1546040516334d074b360e11b81526004810183905260009160609183916001600160a01b0316906369a0e9669060240160006040518083038186803b1580156119de57600080fd5b505afa1580156119f2573d6000803e3d6000fd5b505050506040513d6000823e601f3d908101601f19168201604052611a1a9190810190612ce0565b60408051600a8082526101608201909252919250602082016101408036833701905050915060005b81610160015151811015611db15760d25461016083015180516001926000926001600160a01b03909116916341f63bfd919086908110611a8457611a84612ecd565b60200260200101516040518263ffffffff1660e01b8152600401611aaa91815260200190565b60006040518083038186803b158015611ac257600080fd5b505afa158015611ad6573d6000803e3d6000fd5b505050506040513d6000823e601f3d908101601f19168201604052611afe9190810190612fbd565b90506063611b0b8261221c565b1015611b1657600091505b6005611b2182612245565b1015611b2c57600091505b6032611b378261225f565b1015611b4257600091505b600b611b4d82612279565b1015611b5857600091505b6004611b6382612293565b1015611b6e57600091505b6003816101200151511015611b8257600091505b60006006611b8f836122ad565b10611bb257600b611b9f836122ad565b10611bab576005611bb5565b6002611bb5565b60005b9050611bc281600561311a565b60ff16826101400151600081518110611bdd57611bdd612ecd565b60200260200101511015611bf057600092505b611bfb81600561311a565b60ff16826101400151600181518110611c1657611c16612ecd565b60200260200101511015611c2957600092505b611c3481600561311a565b60ff16826101400151600281518110611c4f57611c4f612ecd565b60200260200101511015611c6257600092505b611c6d81600561311a565b60ff16826101400151600381518110611c8857611c88612ecd565b60200260200101511015611c9b57600092505b6005611ca6836122ad565b118015611cde5750611cb981600561311a565b60ff16826101400151600481518110611cd457611cd4612ecd565b6020026020010151105b15611ce857600092505b600a611cf3836122ad565b118015611d2b5750611d0681600561311a565b60ff16826101400151600581518110611d2157611d21612ecd565b6020026020010151105b15611d3557600092505b8215611d495786611d458161313f565b9750505b6006611d54836122ad565b10611d9b57856006611d65846122ad565b611d6f919061315f565b81518110611d7f57611d7f612ecd565b602002602001018051809190611d949061313f565b60ff169052505b5050508080611da990612ef9565b915050611a42565b5050915091565b806040015115611f3857806020015115611df95760405162461bcd60e51b8152602060048201526002602482015261070360f41b60448201526064016105e4565b8051600090611e085783611e11565b611e1184610fce565b60cd546040516323b872dd60e01b8152336004820152306024820152604481018390529192506001600160a01b0316906323b872dd90606401602060405180830381600087803b158015611e6457600080fd5b505af1158015611e78573d6000803e3d6000fd5b505050506040513d601f19601f82011682018060405250810190611e9c9190612eb0565b50600060648260d054611eaf9190613176565b611eb99190613195565b60ce54604051630d3990db60e21b8152600481018390529192506001600160a01b0316906334e6436c90602401602060405180830381600087803b158015611f0057600080fd5b505af1158015611f14573d6000803e3d6000fd5b505050506040513d601f19601f820116820180604052508101906106709190612f14565b806060015115611f6f5760405162461bcd60e51b8152602060048201526002602482015261703160f01b60448201526064016105e4565b8051600090611f8657611f8184610cab565b611f88565b835b60cf5460405163b1918c9560e01b81529192506000916001600160a01b039091169063b1918c9590611fc290339086908990600401612e54565b602060405180830381600087803b158015611fdc57600080fd5b505af1158015611ff0573d6000803e3d6000fd5b505050506040513d601f19601f820116820180604052508101906120149190612eb0565b905080610af35760405162461bcd60e51b81526020600482015260076024820152666e6f46756e647360c81b60448201526064016105e4565b60cc80546001600160a01b038089166001600160a01b03199283161790925560cd805488841690831617905560ce805487841690831617905560cf8054928616929091169190911790556120a0826122c7565b60d081905560cd5460405163095ea7b360e01b81526001600160a01b03868116600483015260001960248301529091169063095ea7b390604401600060405180830381600087803b1580156120f457600080fd5b505af1158015612108573d6000803e3d6000fd5b50505050505050505050565b61211e8282610e03565b610c595761212b816123b6565b6121368360206123c8565b6040516020016121479291906131b7565b60408051601f198184030181529082905262461bcd60e51b82526105e49160040161322c565b60975460ff1661196c5760405162461bcd60e51b815260206004820152601460248201527314185d5cd8589b194e881b9bdd081c185d5cd95960621b60448201526064016105e4565b60975460ff161561196c5760405162461bcd60e51b815260206004820152601060248201526f14185d5cd8589b194e881c185d5cd95960821b60448201526064016105e4565b600054610100900460ff1661221057600080fd5b6097805460ff19169055565b600081610100015160028151811061223657612236612ecd565b60200260200101519050919050565b600081610100015160038151811061223657612236612ecd565b600081610100015160048151811061223657612236612ecd565b600081610100015160058151811061223657612236612ecd565b600081610100015160018151811061223657612236612ecd565b600081610100015160008151811061223657612236612ecd565b60008190506000816001600160a01b031663c1cc57b06040518163ffffffff1660e01b815260040160006040518083038186803b15801561230757600080fd5b505afa15801561231b573d6000803e3d6000fd5b505050506040513d6000823e601f3d908101601f19168201604052612343919081019061325f565b905060005b81518110156123ad5781818151811061236357612363612ecd565b602090810291909101810151600083815260cb909252604090912080546001600160a01b0319166001600160a01b03909216919091179055806123a581612ef9565b915050612348565b505160ca555050565b60606105266001600160a01b03831660145b606060006123d7836002613176565b6123e29060026132f9565b67ffffffffffffffff8111156123fa576123fa6126be565b6040519080825280601f01601f191660200182016040528015612424576020820181803683370190505b509050600360fc1b8160008151811061243f5761243f612ecd565b60200101906001600160f81b031916908160001a905350600f60fb1b8160018151811061246e5761246e612ecd565b60200101906001600160f81b031916908160001a9053506000612492846002613176565b61249d9060016132f9565b90505b6001811115612515576f181899199a1a9b1b9c1cb0b131b232b360811b85600f16601081106124d1576124d1612ecd565b1a60f81b8282815181106124e7576124e7612ecd565b60200101906001600160f81b031916908160001a90535060049490941c9361250e81613311565b90506124a0565b50831561252157600080fd5b9392505050565b828054828255906000526020600020908101928215612563579160200282015b82811115612563578251825591602001919060010190612548565b5061256f929150612610565b5090565b82805482825590600052602060002090601f016020900481019282156125635791602002820160005b838211156125da57835183826101000a81548160ff021916908360ff160217905550926020019260010160208160000104928301926001030261259c565b80156126075782816101000a81549060ff02191690556001016020816000010492830192600103026125da565b505061256f9291505b5b8082111561256f5760008155600101612611565b60006020828403121561263757600080fd5b81356001600160e01b03198116811461252157600080fd5b60006020828403121561266157600080fd5b5035919050565b6001600160a01b0381168114610ca857600080fd5b60008060006060848603121561269257600080fd5b833561269d81612668565b925060208401356126ad81612668565b929592945050506040919091013590565b634e487b7160e01b600052604160045260246000fd5b604051610100810167ffffffffffffffff811182821017156126f8576126f86126be565b60405290565b6040516101c0810167ffffffffffffffff811182821017156126f8576126f86126be565b604051610180810167ffffffffffffffff811182821017156126f8576126f86126be565b604051601f8201601f1916810167ffffffffffffffff8111828210171561276f5761276f6126be565b604052919050565b600067ffffffffffffffff821115612791576127916126be565b5060051b60200190565b600082601f8301126127ac57600080fd5b813560206127c16127bc83612777565b612746565b82815260059290921b840181019181810190868411156127e057600080fd5b8286015b848110156127fb57803583529183019183016127e4565b509695505050505050565b803560ff8116811461281757600080fd5b919050565b600082601f83011261282d57600080fd5b8135602061283d6127bc83612777565b82815260059290921b8401810191818101908684111561285c57600080fd5b8286015b848110156127fb5761287181612806565b8352918301918301612860565b6000806040838503121561289157600080fd5b823567ffffffffffffffff808211156128a957600080fd5b6128b58683870161279b565b93506020915081850135818111156128cc57600080fd5b8501601f810187136128dd57600080fd5b80356128eb6127bc82612777565b81815260059190911b8201840190848101908983111561290a57600080fd5b8584015b838110156129f95780358681111561292557600080fd5b8501610100818d03601f190181131561293d57600080fd5b6129456126d4565b89830135815260408301358a82015260608301358981111561296657600080fd5b6129748f8c8387010161279b565b60408301525060808301358981111561298c57600080fd5b61299a8f8c8387010161281c565b6060830152506129ac60a08401612806565b608082015260c0830135898111156129c45760008081fd5b6129d28f8c8387010161279b565b60a08301525060e08381013560c0830152919092013590820152835291860191860161290e565b508096505050505050509250929050565b60008060408385031215612a1d57600080fd5b823591506020830135612a2f81612668565b809150509250929050565b60008060408385031215612a4d57600080fd5b8235612a5881612668565b946020939093013593505050565b60008060408385031215612a7957600080fd5b8235612a8481612668565b91506020830135612a2f81612668565b8015158114610ca857600080fd5b60008060408385031215612ab557600080fd5b823567ffffffffffffffff80821115612acd57600080fd5b612ad98683870161279b565b9350602091508185013581811115612af057600080fd5b85019050601f81018613612b0357600080fd5b8035612b116127bc82612777565b81815260059190911b82018301908381019088831115612b3057600080fd5b928401925b82841015612b57578335612b4881612a94565b82529284019290840190612b35565b80955050505050509250929050565b600060208284031215612b7857600080fd5b813561252181612668565b60008060008060808587031215612b9957600080fd5b8435612ba481612668565b93506020850135612bb481612668565b92506040850135612bc481612668565b91506060850135612bd481612668565b939692955090935050565b60008060408385031215612bf257600080fd5b50508035926020909101359150565b60008060008060008060c08789031215612c1a57600080fd5b8635612c2581612668565b95506020870135612c3581612668565b94506040870135612c4581612668565b93506060870135612c5581612668565b92506080870135612c6581612668565b8092505060a087013590509295509295509295565b805161281781612668565b600082601f830112612c9657600080fd5b81516020612ca66127bc83612777565b82815260059290921b84018101918181019086841115612cc557600080fd5b8286015b848110156127fb5780518352918301918301612cc9565b600060208284031215612cf257600080fd5b815167ffffffffffffffff80821115612d0a57600080fd5b908301906101c08286031215612d1f57600080fd5b612d276126fe565b612d3083612c7a565b81526020830151602082015260408301516040820152606083015160608201526080830151608082015260a083015160a082015260c083015160c082015260e083015160e08201526101008084015181830152506101208084015181830152506101408084015181830152506101608084015183811115612db057600080fd5b612dbc88828701612c85565b8284015250506101808084015183811115612dd657600080fd5b612de288828701612c85565b8284015250506101a08084015183811115612dfc57600080fd5b612e0888828701612c85565b918301919091525095945050505050565b600081518084526020808501945080840160005b83811015612e4957815187529582019590820190600101612e2d565b509495945050505050565b60018060a01b0384168152826020820152606060408201526000612e7b6060830184612e19565b95945050505050565b828152604060208201526000612e9d6040830184612e19565b949350505050565b805161281781612a94565b600060208284031215612ec257600080fd5b815161252181612a94565b634e487b7160e01b600052603260045260246000fd5b634e487b7160e01b600052601160045260246000fd5b6000600019821415612f0d57612f0d612ee3565b5060010190565b600060208284031215612f2657600080fd5b5051919050565b60005b83811015612f48578181015183820152602001612f30565b83811115610c0f5750506000910152565b600082601f830112612f6a57600080fd5b815167ffffffffffffffff811115612f8457612f846126be565b612f97601f8201601f1916602001612746565b818152846020838601011115612fac57600080fd5b612e9d826020830160208701612f2d565b600060208284031215612fcf57600080fd5b815167ffffffffffffffff80821115612fe757600080fd5b908301906101808286031215612ffc57600080fd5b613004612722565b8251815260208301518281111561301a57600080fd5b61302687828601612f59565b60208301525060408301518281111561303e57600080fd5b61304a87828601612f59565b60408301525061305c60608401612c7a565b60608201526080830151608082015260a083015160a082015260c083015160c082015260e083015160e0820152610100808401518381111561309d57600080fd5b6130a988828701612c85565b82840152505061012080840151838111156130c357600080fd5b6130cf88828701612c85565b82840152505061014080840151838111156130e957600080fd5b6130f588828701612c85565b828401525050610160915061310b828401612ea5565b91810191909152949350505050565b600060ff821660ff84168060ff0382111561313757613137612ee3565b019392505050565b600060ff821660ff81141561315657613156612ee3565b60010192915050565b60008282101561317157613171612ee3565b500390565b600081600019048311821515161561319057613190612ee3565b500290565b6000826131b257634e487b7160e01b600052601260045260246000fd5b500490565b7f416363657373436f6e74726f6c3a206163636f756e74200000000000000000008152600083516131ef816017850160208801612f2d565b7001034b99036b4b9b9b4b733903937b6329607d1b6017918401918201528351613220816028840160208801612f2d565b01602801949350505050565b602081526000825180602084015261324b816040850160208701612f2d565b601f01601f19169190910160400192915050565b6000602080838503121561327257600080fd5b825167ffffffffffffffff81111561328957600080fd5b8301601f8101851361329a57600080fd5b80516132a86127bc82612777565b81815260059190911b820183019083810190878311156132c757600080fd5b928401925b828410156132ee5783516132df81612668565b825292840192908401906132cc565b979650505050505050565b6000821982111561330c5761330c612ee3565b500190565b60008161332057613320612ee3565b50600019019056fe97667070c54ef182b0f5858b034beac1b6f3089aa2d3188bb1e8929f4fa9b929a2646970667358221220dfeea83f82a8c0179aa3c6d8abadd4cfba16c8e476be01258c9ab2d2c68a7cae64736f6c63430008090033",
  "linkReferences": {},
  "deployedLinkReferences": {}
}