{
  "_format": "hh-sol-artifact-1",
  "contractName": "BkQuestManager",
  "sourceName": "contracts/features/BkQuestManager.sol",
  "abi": [
    {
      "anonymous": false,
      "inputs": [
        {
          "indexed": true,
          "internalType": "address",
          "name": "player",
          "type": "address"
        },
        {
          "indexed": false,
          "internalType": "uint256",
          "name": "bct",
          "type": "uint256"
        }
      ],
      "name": "BctTransfered",
      "type": "event"
    },
    {
      "anonymous": false,
      "inputs": [
        {
          "indexed": false,
          "internalType": "uint8",
          "name": "version",
          "type": "uint8"
        }
      ],
      "name": "Initialized",
      "type": "event"
    },
    {
      "anonymous": false,
      "inputs": [
        {
          "indexed": false,
          "internalType": "address",
          "name": "account",
          "type": "address"
        }
      ],
      "name": "Paused",
      "type": "event"
    },
    {
      "anonymous": false,
      "inputs": [
        {
          "indexed": true,
          "internalType": "address",
          "name": "player",
          "type": "address"
        },
        {
          "indexed": false,
          "internalType": "uint256",
          "name": "eBct",
          "type": "uint256"
        },
        {
          "indexed": false,
          "internalType": "uint256[]",
          "name": "resources",
          "type": "uint256[]"
        }
      ],
      "name": "ResourcesTransfered",
      "type": "event"
    },
    {
      "anonymous": false,
      "inputs": [
        {
          "indexed": true,
          "internalType": "bytes32",
          "name": "role",
          "type": "bytes32"
        },
        {
          "indexed": true,
          "internalType": "bytes32",
          "name": "previousAdminRole",
          "type": "bytes32"
        },
        {
          "indexed": true,
          "internalType": "bytes32",
          "name": "newAdminRole",
          "type": "bytes32"
        }
      ],
      "name": "RoleAdminChanged",
      "type": "event"
    },
    {
      "anonymous": false,
      "inputs": [
        {
          "indexed": true,
          "internalType": "bytes32",
          "name": "role",
          "type": "bytes32"
        },
        {
          "indexed": true,
          "internalType": "address",
          "name": "account",
          "type": "address"
        },
        {
          "indexed": true,
          "internalType": "address",
          "name": "sender",
          "type": "address"
        }
      ],
      "name": "RoleGranted",
      "type": "event"
    },
    {
      "anonymous": false,
      "inputs": [
        {
          "indexed": true,
          "internalType": "bytes32",
          "name": "role",
          "type": "bytes32"
        },
        {
          "indexed": true,
          "internalType": "address",
          "name": "account",
          "type": "address"
        },
        {
          "indexed": true,
          "internalType": "address",
          "name": "sender",
          "type": "address"
        }
      ],
      "name": "RoleRevoked",
      "type": "event"
    },
    {
      "anonymous": false,
      "inputs": [
        {
          "indexed": false,
          "internalType": "address",
          "name": "account",
          "type": "address"
        }
      ],
      "name": "Unpaused",
      "type": "event"
    },
    {
      "inputs": [],
      "name": "DEFAULT_ADMIN_ROLE",
      "outputs": [
        {
          "internalType": "bytes32",
          "name": "",
          "type": "bytes32"
        }
      ],
      "stateMutability": "view",
      "type": "function"
    },
    {
      "inputs": [
        {
          "internalType": "address",
          "name": "_operator",
          "type": "address"
        },
        {
          "internalType": "address",
          "name": "_blocklistAddress",
          "type": "address"
        }
      ],
      "name": "__Administrable_init",
      "outputs": [],
      "stateMutability": "nonpayable",
      "type": "function"
    },
    {
      "inputs": [],
      "name": "_resetBlocklist",
      "outputs": [],
      "stateMutability": "nonpayable",
      "type": "function"
    },
    {
      "inputs": [],
      "name": "autoReturnRate",
      "outputs": [
        {
          "internalType": "uint256",
          "name": "",
          "type": "uint256"
        }
      ],
      "stateMutability": "view",
      "type": "function"
    },
    {
      "inputs": [
        {
          "internalType": "uint256",
          "name": "bctAmount",
          "type": "uint256"
        }
      ],
      "name": "bctToStabletoken",
      "outputs": [
        {
          "internalType": "uint256",
          "name": "",
          "type": "uint256"
        }
      ],
      "stateMutability": "view",
      "type": "function"
    },
    {
      "inputs": [
        {
          "internalType": "uint256",
          "name": "squadId",
          "type": "uint256"
        }
      ],
      "name": "cancelQuest",
      "outputs": [],
      "stateMutability": "nonpayable",
      "type": "function"
    },
    {
      "inputs": [],
      "name": "contracts",
      "outputs": [
        {
          "internalType": "contract IBkFarm",
          "name": "farm",
          "type": "address"
        },
        {
          "internalType": "contract IBkNft",
          "name": "nft",
          "type": "address"
        },
        {
          "internalType": "contract IBkStasher",
          "name": "stasher",
          "type": "address"
        },
        {
          "internalType": "contract IBkPlayerBonus",
          "name": "playerBonus",
          "type": "address"
        }
      ],
      "stateMutability": "view",
      "type": "function"
    },
    {
      "inputs": [
        {
          "internalType": "uint256",
          "name": "",
          "type": "uint256"
        }
      ],
      "name": "deletedQuests",
      "outputs": [
        {
          "internalType": "bool",
          "name": "",
          "type": "bool"
        }
      ],
      "stateMutability": "view",
      "type": "function"
    },
    {
      "inputs": [
        {
          "internalType": "uint256",
          "name": "squadId",
          "type": "uint256"
        }
      ],
      "name": "finishQuest",
      "outputs": [],
      "stateMutability": "nonpayable",
      "type": "function"
    },
    {
      "inputs": [
        {
          "internalType": "bytes32",
          "name": "role",
          "type": "bytes32"
        }
      ],
      "name": "getRoleAdmin",
      "outputs": [
        {
          "internalType": "bytes32",
          "name": "",
          "type": "bytes32"
        }
      ],
      "stateMutability": "view",
      "type": "function"
    },
    {
      "inputs": [
        {
          "internalType": "bytes32",
          "name": "role",
          "type": "bytes32"
        },
        {
          "internalType": "address",
          "name": "account",
          "type": "address"
        }
      ],
      "name": "grantRole",
      "outputs": [],
      "stateMutability": "nonpayable",
      "type": "function"
    },
    {
      "inputs": [],
      "name": "hasBlocklist",
      "outputs": [
        {
          "internalType": "bool",
          "name": "",
          "type": "bool"
        }
      ],
      "stateMutability": "view",
      "type": "function"
    },
    {
      "inputs": [
        {
          "internalType": "bytes32",
          "name": "role",
          "type": "bytes32"
        },
        {
          "internalType": "address",
          "name": "account",
          "type": "address"
        }
      ],
      "name": "hasRole",
      "outputs": [
        {
          "internalType": "bool",
          "name": "",
          "type": "bool"
        }
      ],
      "stateMutability": "view",
      "type": "function"
    },
    {
      "inputs": [
        {
          "internalType": "address",
          "name": "_operator",
          "type": "address"
        },
        {
          "internalType": "address",
          "name": "_blocklist",
          "type": "address"
        }
      ],
      "name": "initialize",
      "outputs": [],
      "stateMutability": "nonpayable",
      "type": "function"
    },
    {
      "inputs": [
        {
          "internalType": "address",
          "name": "",
          "type": "address"
        },
        {
          "internalType": "uint256",
          "name": "",
          "type": "uint256"
        }
      ],
      "name": "ongoingSpecialQuestIdsPerPlayer",
      "outputs": [
        {
          "internalType": "bool",
          "name": "",
          "type": "bool"
        }
      ],
      "stateMutability": "view",
      "type": "function"
    },
    {
      "inputs": [],
      "name": "pause",
      "outputs": [],
      "stateMutability": "nonpayable",
      "type": "function"
    },
    {
      "inputs": [],
      "name": "paused",
      "outputs": [
        {
          "internalType": "bool",
          "name": "",
          "type": "bool"
        }
      ],
      "stateMutability": "view",
      "type": "function"
    },
    {
      "inputs": [],
      "name": "paymentContracts",
      "outputs": [
        {
          "internalType": "contract IBkERC20",
          "name": "bct",
          "type": "address"
        },
        {
          "internalType": "contract IBkERC20",
          "name": "busd",
          "type": "address"
        },
        {
          "internalType": "contract ICommunityPool",
          "name": "pool",
          "type": "address"
        },
        {
          "internalType": "contract IBkFarm",
          "name": "farm",
          "type": "address"
        }
      ],
      "stateMutability": "view",
      "type": "function"
    },
    {
      "inputs": [
        {
          "internalType": "address",
          "name": "tokenAddress",
          "type": "address"
        },
        {
          "internalType": "address",
          "name": "to",
          "type": "address"
        },
        {
          "internalType": "uint256",
          "name": "amount",
          "type": "uint256"
        }
      ],
      "name": "recoverERC20",
      "outputs": [],
      "stateMutability": "nonpayable",
      "type": "function"
    },
    {
      "inputs": [
        {
          "internalType": "bytes32",
          "name": "role",
          "type": "bytes32"
        },
        {
          "internalType": "address",
          "name": "account",
          "type": "address"
        }
      ],
      "name": "renounceRole",
      "outputs": [],
      "stateMutability": "nonpayable",
      "type": "function"
    },
    {
      "inputs": [
        {
          "internalType": "uint256",
          "name": "",
          "type": "uint256"
        }
      ],
      "name": "resources",
      "outputs": [
        {
          "internalType": "address",
          "name": "",
          "type": "address"
        }
      ],
      "stateMutability": "view",
      "type": "function"
    },
    {
      "inputs": [],
      "name": "resourcesCount",
      "outputs": [
        {
          "internalType": "uint256",
          "name": "",
          "type": "uint256"
        }
      ],
      "stateMutability": "view",
      "type": "function"
    },
    {
      "inputs": [
        {
          "internalType": "bytes32",
          "name": "role",
          "type": "bytes32"
        },
        {
          "internalType": "address",
          "name": "account",
          "type": "address"
        }
      ],
      "name": "revokeRole",
      "outputs": [],
      "stateMutability": "nonpayable",
      "type": "function"
    },
    {
      "inputs": [
        {
          "internalType": "address",
          "name": "blocklistAddress",
          "type": "address"
        }
      ],
      "name": "setBlocklist",
      "outputs": [],
      "stateMutability": "nonpayable",
      "type": "function"
    },
    {
      "inputs": [
        {
          "internalType": "address",
          "name": "_farm",
          "type": "address"
        },
        {
          "internalType": "address",
          "name": "_nft",
          "type": "address"
        },
        {
          "internalType": "address",
          "name": "_stasher",
          "type": "address"
        },
        {
          "internalType": "address",
          "name": "_playerBonus",
          "type": "address"
        }
      ],
      "name": "setContracts",
      "outputs": [],
      "stateMutability": "nonpayable",
      "type": "function"
    },
    {
      "inputs": [
        {
          "internalType": "uint256[]",
          "name": "questIds",
          "type": "uint256[]"
        },
        {
          "internalType": "bool[]",
          "name": "isDeleted",
          "type": "bool[]"
        }
      ],
      "name": "setDeletedQuests",
      "outputs": [],
      "stateMutability": "nonpayable",
      "type": "function"
    },
    {
      "inputs": [
        {
          "internalType": "uint256[]",
          "name": "questIds",
          "type": "uint256[]"
        },
        {
          "components": [
            {
              "internalType": "uint256",
              "name": "id",
              "type": "uint256"
            },
            {
              "internalType": "uint256",
              "name": "costInBct",
              "type": "uint256"
            },
            {
              "internalType": "uint256[]",
              "name": "costInResources",
              "type": "uint256[]"
            },
            {
              "internalType": "uint8[]",
              "name": "requiredDreamBeasts",
              "type": "uint8[]"
            },
            {
              "internalType": "uint8",
              "name": "requiredMaxedOutNfts",
              "type": "uint8"
            },
            {
              "internalType": "uint256[]",
              "name": "extraRewardInResources",
              "type": "uint256[]"
            },
            {
              "internalType": "uint256",
              "name": "extraRewardInBct",
              "type": "uint256"
            },
            {
              "internalType": "uint256",
              "name": "extraRewardInEbct",
              "type": "uint256"
            }
          ],
          "internalType": "struct BkQuestManager.SpecialQuest[]",
          "name": "quests_",
          "type": "tuple[]"
        }
      ],
      "name": "setQuests",
      "outputs": [],
      "stateMutability": "nonpayable",
      "type": "function"
    },
    {
      "inputs": [
        {
          "internalType": "address",
          "name": "_bct",
          "type": "address"
        },
        {
          "internalType": "address",
          "name": "_busd",
          "type": "address"
        },
        {
          "internalType": "address",
          "name": "_pool",
          "type": "address"
        },
        {
          "internalType": "address",
          "name": "_farm",
          "type": "address"
        },
        {
          "internalType": "address",
          "name": "_resourcesSource",
          "type": "address"
        },
        {
          "internalType": "uint256",
          "name": "_autoReturnRate",
          "type": "uint256"
        }
      ],
      "name": "setupPaymentModule",
      "outputs": [],
      "stateMutability": "nonpayable",
      "type": "function"
    },
    {
      "inputs": [
        {
          "internalType": "uint256",
          "name": "busdAmount",
          "type": "uint256"
        }
      ],
      "name": "stabletokenToBct",
      "outputs": [
        {
          "internalType": "uint256",
          "name": "",
          "type": "uint256"
        }
      ],
      "stateMutability": "view",
      "type": "function"
    },
    {
      "inputs": [
        {
          "internalType": "uint256",
          "name": "squadId",
          "type": "uint256"
        },
        {
          "internalType": "uint256",
          "name": "questId",
          "type": "uint256"
        }
      ],
      "name": "startQuest",
      "outputs": [],
      "stateMutability": "nonpayable",
      "type": "function"
    },
    {
      "inputs": [
        {
          "internalType": "bytes4",
          "name": "interfaceId",
          "type": "bytes4"
        }
      ],
      "name": "supportsInterface",
      "outputs": [
        {
          "internalType": "bool",
          "name": "",
          "type": "bool"
        }
      ],
      "stateMutability": "view",
      "type": "function"
    },
    {
      "inputs": [],
      "name": "unpause",
      "outputs": [],
      "stateMutability": "nonpayable",
      "type": "function"
    }
  ],
  "bytecode": "0x608060405234801561001057600080fd5b5061335d806100206000396000f3fe608060405234801561001057600080fd5b50600436106101f05760003560e01c8063634210f41161010f578063b5f63f60116100a2578063c429d34911610071578063c429d349146104b3578063d547741f146104bc578063f4b93f45146104cf578063fe90ff7d146104e257600080fd5b8063b5f63f6014610457578063b6baa8e51461046a578063bf989b6e1461048d578063c3c33b40146104a057600080fd5b8063931da89b116100de578063931da89b14610416578063a217fddf14610429578063ae0ed68c14610431578063aef18ae71461044457600080fd5b8063634210f4146103c15780636c0f79b6146103d55780638456cb59146103fb57806391d148541461040357600080fd5b8063323b6cb71161018757806343fcf6311161015657806343fcf6311461036c578063485cc9551461039a57806351ac7b8c146103ad5780635c975abb146103b657600080fd5b8063323b6cb7146102e557806336568abe1461033e5780633f4ba83a1461035157806341e80ad91461035957600080fd5b806323ed6dbe116101c357806323ed6dbe1461024d578063244d6daa14610260578063248a9ca3146102a15780632f2ff15d146102d257600080fd5b806301ffc9a7146101f557806306a450701461021d5780631094f152146102275780631171bda91461023a575b600080fd5b610208610203366004612604565b6104f5565b60405190151581526020015b60405180910390f35b61022561052c565b005b61022561023536600461262e565b610557565b61022561024836600461265c565b610a84565b61022561025b36600461285d565b610b25565b61028961026e36600461262e565b60cb602052600090815260409020546001600160a01b031681565b6040516001600160a01b039091168152602001610214565b6102c46102af36600461262e565b60009081526065602052604090206001015490565b604051908152602001610214565b6102256102e03660046129e9565b610c40565b60cc5460cd5460ce5460cf5461030b936001600160a01b03908116938116928116911684565b604080516001600160a01b0395861681529385166020850152918416918301919091529091166060820152608001610214565b61022561034c3660046129e9565b610c65565b610225610c88565b6102c461036736600461262e565b610cab565b61020861037a366004612a19565b60d660209081526000928352604080842090915290825290205460ff1681565b6102256103a8366004612a45565b610d29565b6102c460ca5481565b60975460ff16610208565b60c95461020890600160a01b900460ff1681565b60d15460d25460d35460d45461030b936001600160a01b03908116938116928116911684565b610225610de3565b6102086104113660046129e9565b610e03565b610225610424366004612a45565b610e2e565b6102c4600081565b61022561043f366004612a81565b610efa565b610225610452366004612b45565b610f8e565b6102c461046536600461262e565b610fce565b61020861047836600461262e565b60d76020526000908152604090205460ff1681565b61022561049b366004612b62565b611000565b6102256104ae366004612bbe565b61108b565b6102c460d05481565b6102256104ca3660046129e9565b6115ce565b6102256104dd366004612be0565b6115f3565b6102256104f036600461262e565b611622565b60006001600160e01b03198216637965db0b60e01b148061052657506301ffc9a760e01b6001600160e01b03198316145b92915050565b6000805160206133088339815191526105448161177e565b5060c980546001600160a81b0319169055565b60d1546040516334d074b360e11b8152600481018390526000916001600160a01b0316906369a0e9669060240160006040518083038186803b15801561059c57600080fd5b505afa1580156105b0573d6000803e3d6000fd5b505050506040513d6000823e601f3d908101601f191682016040526105d89190810190612cbf565b90506000816101000151116106185760405162461bcd60e51b81526020600482015260016024820152603360f81b60448201526064015b60405180910390fd5b805161062390611788565b610100810151600090815260d7602052604090205460ff16156106a35760d1546040516318988e4360e01b8152600481018490526001600160a01b03909116906318988e43906024015b600060405180830381600087803b15801561068757600080fd5b505af115801561069b573d6000803e3d6000fd5b505050505050565b61010080820151600090815260d5602090815260408083208151948501825280548552600181015485840152600281018054835181860281018601855281815295969592949386019383018282801561071b57602002820191906000526020600020905b815481526020019060010190808311610707575b505050505081526020016003820180548060200260200160405190810160405280929190818152602001828054801561079157602002820191906000526020600020906000905b825461010083900a900460ff168152602060019283018181049485019490930390920291018084116107625790505b5050509183525050600482015460ff1660208083019190915260058301805460408051828502810185018252828152940193928301828280156107f357602002820191906000526020600020905b8154815260200190600101908083116107df575b5050509183525050600682015460208201526007909101546040909101528051909150156109bb5760008160a00151511180610833575060008160e00151115b156108f85760d154825160e083015160a08401516040516304567ca960e11b81526001600160a01b03909416936308acf952936108769390929091600401612e33565b600060405180830381600087803b15801561089057600080fd5b505af11580156108a4573d6000803e3d6000fd5b5050505081600001516001600160a01b03167f8b7c65ecfbbf17546a8d95a1ec956f2056f0e6d281f0ed8771c3d9f22014e8178260e001518360a001516040516108ef929190612e63565b60405180910390a25b60c0810151156109bb5760d154825160c0830151604051632654603560e01b81526001600160a01b0392831660048201526024810191909152911690632654603590604401600060405180830381600087803b15801561095757600080fd5b505af115801561096b573d6000803e3d6000fd5b5050505081600001516001600160a01b03167f7a362f0b7c5c1be1064d717d2492992a0379b24e1724b17f9edb6a75b1c875ac8260c001516040516109b291815260200190565b60405180910390a25b60d15460405163c1f3ef4d60e01b8152600481018590526001600160a01b039091169063c1f3ef4d90602401600060405180830381600087803b158015610a0157600080fd5b505af1158015610a15573d6000803e3d6000fd5b505083516001600160a01b0316600090815260d660209081526040808320610100880151845290915290205460ff16159150610a7f90505781516001600160a01b0316600090815260d66020908152604080832061010086015184529091529020805460ff191690555b505050565b600080516020613308833981519152610a9c8161177e565b60405163a9059cbb60e01b81526001600160a01b0384811660048301526024820184905285169063a9059cbb90604401602060405180830381600087803b158015610ae657600080fd5b505af1158015610afa573d6000803e3d6000fd5b505050506040513d601f19601f82011682018060405250810190610b1e9190612e8f565b5050505050565b600080516020613308833981519152610b3d8161177e565b60005b8251811015610c3a57828181518110610b5b57610b5b612eac565b602002602001015160d56000868481518110610b7957610b79612eac565b6020026020010151815260200190815260200160002060008201518160000155602082015181600101556040820151816002019080519060200190610bbf929190612507565b5060608201518051610bdb916003840191602090910190612552565b50608082015160048201805460ff191660ff90921691909117905560a08201518051610c11916005840191602090910190612507565b5060c0820151600682015560e09091015160079091015580610c3281612ed8565b915050610b40565b50505050565b600082815260656020526040902060010154610c5b8161177e565b610a7f83836117dc565b6001600160a01b0381163314610c7a57600080fd5b610c848282611862565b5050565b600080516020613308833981519152610ca08161177e565b610ca86118c9565b50565b60ce54604051634ca1cccb60e11b8152600481018390526000916001600160a01b0316906399439996906024015b60206040518083038186803b158015610cf157600080fd5b505afa158015610d05573d6000803e3d6000fd5b505050506040513d601f19601f820116820180604052508101906105269190612ef3565b600054610100900460ff1615808015610d495750600054600160ff909116105b80610d635750303b158015610d63575060005460ff166001145b610d6c57600080fd5b6000805460ff191660011790558015610d8f576000805461ff0019166101001790555b610d998383610e2e565b8015610a7f576000805461ff0019169055604051600181527f7f26b83ff96e1f2b6a682f133852f6798a09c465da95921460cefb38474024989060200160405180910390a1505050565b600080516020613308833981519152610dfb8161177e565b610ca861191b565b60009182526065602090815260408084206001600160a01b0393909316845291905290205460ff1690565b600054610100900460ff1615808015610e4e5750600054600160ff909116105b80610e685750303b158015610e68575060005460ff166001145b610e7157600080fd5b6000805460ff191660011790558015610e94576000805461ff0019166101001790555b610e9c611958565b610ea461196e565b610eaf60008461198a565b610ec76000805160206133088339815191528461198a565b610ef17f73e573f9566d61418a34d5de3ff49360f9c51fec37f7486551670290f6285dab8461198a565b610d9982610f8e565b600080516020613308833981519152610f128161177e565b60005b8351811015610c3a57828181518110610f3057610f30612eac565b602002602001015160d76000868481518110610f4e57610f4e612eac565b6020026020010151815260200190815260200160002060006101000a81548160ff0219169083151502179055508080610f8690612ed8565b915050610f15565b600080516020613308833981519152610fa68161177e565b5060c980546001600160a81b0319166001600160a01b0390921691909117600160a01b179055565b60ce5460405163526267fd60e11b8152600481018390526000916001600160a01b03169063a4c4cffa90602401610cd9565b6000805160206133088339815191526110188161177e565b50604080516080810182526001600160a01b039586168082529486166020820181905293861691810182905291909416606090910181905260d180546001600160a01b0319908116909417905560d28054841690921790915560d38054831690931790925560d480549091169091179055565b600081815260d7602052604090205460ff16156110cf5760405162461bcd60e51b8152602060048201526002602482015261070760f31b604482015260640161060f565b60d1546040516334d074b360e11b8152600481018490526000916001600160a01b0316906369a0e9669060240160006040518083038186803b15801561111457600080fd5b505afa158015611128573d6000803e3d6000fd5b505050506040513d6000823e601f3d908101601f191682016040526111509190810190612cbf565b905061115f8160000151611788565b600082815260d560209081526040808320815161010081018352815481526001820154818501526002820180548451818702810187018652818152929593948601938301828280156111d057602002820191906000526020600020905b8154815260200190600101908083116111bc575b505050505081526020016003820180548060200260200160405190810160405280929190818152602001828054801561124657602002820191906000526020600020906000905b825461010083900a900460ff168152602060019283018181049485019490930390920291018084116112175790505b5050509183525050600482015460ff1660208083019190915260058301805460408051828502810185018252828152940193928301828280156112a857602002820191906000526020600020905b815481526020019060010190808311611294575b5050509183525050600682015460208201526007909101546040909101528051909150156115635781516001600160a01b0316600090815260d66020908152604080832086845290915290205460ff16156113295760405162461bcd60e51b81526020600482015260016024820152600360fc1b604482015260640161060f565b6000816080015160ff16118061134457506000816060015151115b1561142d5760008061135586611994565b91509150826080015160ff168260ff1610156113975760405162461bcd60e51b81526020600482015260016024820152603160f81b604482015260640161060f565b60005b83606001515181101561142957836060015181815181106113bd576113bd612eac565b602002602001015160ff168282815181106113da576113da612eac565b602002602001015160ff1610156114175760405162461bcd60e51b81526020600482015260016024820152601960f91b604482015260640161060f565b8061142181612ed8565b91505061139a565b5050505b604081015151156115335760d3548251604051635c138c9d60e01b81526001600160a01b0391821660048201526000929190911690635c138c9d9060240160206040518083038186803b15801561148357600080fd5b505afa158015611497573d6000803e3d6000fd5b505050506040513d601f19601f820116820180604052508101906114bb9190612ef3565b905060098110156114f25760405162461bcd60e51b81526020600482015260016024820152600d60fa1b604482015260640161060f565b61153182602001518360400151604051806080016040528060011515815260200160011515815260200160001515815260200160001515815250611db8565b505b81516001600160a01b0316600090815260d6602090815260408083208684529091529020805460ff191660011790555b60d15460405163f1486dcd60e01b815260048101869052602481018590526001600160a01b039091169063f1486dcd90604401600060405180830381600087803b1580156115b057600080fd5b505af11580156115c4573d6000803e3d6000fd5b5050505050505050565b6000828152606560205260409020600101546115e98161177e565b610a7f8383611862565b60008051602061330883398151915261160b8161177e565b61161987878787878761202c565b50505050505050565b60d1546040516334d074b360e11b8152600481018390526000916001600160a01b0316906369a0e9669060240160006040518083038186803b15801561166757600080fd5b505afa15801561167b573d6000803e3d6000fd5b505050506040513d6000823e601f3d908101601f191682016040526116a39190810190612cbf565b90506000816101000151116116de5760405162461bcd60e51b81526020600482015260016024820152603360f81b604482015260640161060f565b80516116e990611788565b80516001600160a01b0316600090815260d660209081526040808320610100850151845290915290205460ff161561174d5780516001600160a01b0316600090815260d66020908152604080832061010085015184529091529020805460ff191690555b60d1546040516318988e4360e01b8152600481018490526001600160a01b03909116906318988e439060240161066d565b610ca881336120f3565b6001600160a01b038116331480156117a3575060975460ff16155b806117d357506117d37f73e573f9566d61418a34d5de3ff49360f9c51fec37f7486551670290f6285dab33610e03565b610ca857600080fd5b6117e68282610e03565b610c845760008281526065602090815260408083206001600160a01b03851684529091529020805460ff1916600117905561181e3390565b6001600160a01b0316816001600160a01b0316837f2f8788117e7eff1d82e926ec794901d17c78024a50270940304540a733656f0d60405160405180910390a45050565b61186c8282610e03565b15610c845760008281526065602090815260408083206001600160a01b0385168085529252808320805460ff1916905551339285917ff6391f5c32d9c69d2a47ea670b442974b53935d1edc7fd64eb21e047a839171b9190a45050565b6118d161214c565b6097805460ff191690557f5db9ee0a495bf2e6ff9c91a7834c1ba4fdd244a5e8aa4e537bd38aeae4b073aa335b6040516001600160a01b03909116815260200160405180910390a1565b611923612195565b6097805460ff191660011790557f62e78cea01bee320cd4e420270b5ea74000d11b0c9f74754ebdbfc544b05a2586118fe3390565b600054610100900460ff1661196c57600080fd5b565b600054610100900460ff1661198257600080fd5b61196c6121db565b610c8482826117dc565b60d1546040516334d074b360e11b81526004810183905260009160609183916001600160a01b0316906369a0e9669060240160006040518083038186803b1580156119de57600080fd5b505afa1580156119f2573d6000803e3d6000fd5b505050506040513d6000823e601f3d908101601f19168201604052611a1a9190810190612cbf565b60408051600a8082526101608201909252919250602082016101408036833701905050915060005b81610160015151811015611db15760d25461016083015180516001926000926001600160a01b03909116916341f63bfd919086908110611a8457611a84612eac565b60200260200101516040518263ffffffff1660e01b8152600401611aaa91815260200190565b60006040518083038186803b158015611ac257600080fd5b505afa158015611ad6573d6000803e3d6000fd5b505050506040513d6000823e601f3d908101601f19168201604052611afe9190810190612f9c565b90506063611b0b826121fb565b1015611b1657600091505b6005611b2182612224565b1015611b2c57600091505b6032611b378261223e565b1015611b4257600091505b600b611b4d82612258565b1015611b5857600091505b6004611b6382612272565b1015611b6e57600091505b6003816101200151511015611b8257600091505b60006006611b8f8361228c565b10611bb257600b611b9f8361228c565b10611bab576005611bb5565b6002611bb5565b60005b9050611bc28160056130f9565b60ff16826101400151600081518110611bdd57611bdd612eac565b60200260200101511015611bf057600092505b611bfb8160056130f9565b60ff16826101400151600181518110611c1657611c16612eac565b60200260200101511015611c2957600092505b611c348160056130f9565b60ff16826101400151600281518110611c4f57611c4f612eac565b60200260200101511015611c6257600092505b611c6d8160056130f9565b60ff16826101400151600381518110611c8857611c88612eac565b60200260200101511015611c9b57600092505b6005611ca68361228c565b118015611cde5750611cb98160056130f9565b60ff16826101400151600481518110611cd457611cd4612eac565b6020026020010151105b15611ce857600092505b600a611cf38361228c565b118015611d2b5750611d068160056130f9565b60ff16826101400151600581518110611d2157611d21612eac565b6020026020010151105b15611d3557600092505b8215611d495786611d458161311e565b9750505b6006611d548361228c565b10611d9b57856006611d658461228c565b611d6f919061313e565b81518110611d7f57611d7f612eac565b602002602001018051809190611d949061311e565b60ff169052505b5050508080611da990612ed8565b915050611a42565b5050915091565b806040015115611f1757806020015115611df95760405162461bcd60e51b8152602060048201526002602482015261070360f41b604482015260640161060f565b8051600090611e085783611e11565b611e1184610fce565b60cd546040516323b872dd60e01b8152336004820152306024820152604481018390529192506001600160a01b0316906323b872dd90606401600060405180830381600087803b158015611e6457600080fd5b505af1158015611e78573d6000803e3d6000fd5b50505050600060648260d054611e8e9190613155565b611e989190613174565b60ce54604051630d3990db60e21b8152600481018390529192506001600160a01b0316906334e6436c90602401602060405180830381600087803b158015611edf57600080fd5b505af1158015611ef3573d6000803e3d6000fd5b505050506040513d601f19601f8201168201806040525081019061069b9190612ef3565b806060015115611f4e5760405162461bcd60e51b8152602060048201526002602482015261703160f01b604482015260640161060f565b8051600090611f6557611f6084610cab565b611f67565b835b60cf5460405163b1918c9560e01b81529192506000916001600160a01b039091169063b1918c9590611fa190339086908990600401612e33565b602060405180830381600087803b158015611fbb57600080fd5b505af1158015611fcf573d6000803e3d6000fd5b505050506040513d601f19601f82011682018060405250810190611ff39190612e8f565b905080610b1e5760405162461bcd60e51b81526020600482015260076024820152666e6f46756e647360c81b604482015260640161060f565b60cc80546001600160a01b038089166001600160a01b03199283161790925560cd805488841690831617905560ce805487841690831617905560cf80549286169290911691909117905561207f826122a6565b60d081905560cd5460405163095ea7b360e01b81526001600160a01b03868116600483015260001960248301529091169063095ea7b390604401600060405180830381600087803b1580156120d357600080fd5b505af11580156120e7573d6000803e3d6000fd5b50505050505050505050565b6120fd8282610e03565b610c845761210a81612395565b6121158360206123a7565b604051602001612126929190613196565b60408051601f198184030181529082905262461bcd60e51b825261060f9160040161320b565b60975460ff1661196c5760405162461bcd60e51b815260206004820152601460248201527314185d5cd8589b194e881b9bdd081c185d5cd95960621b604482015260640161060f565b60975460ff161561196c5760405162461bcd60e51b815260206004820152601060248201526f14185d5cd8589b194e881c185d5cd95960821b604482015260640161060f565b600054610100900460ff166121ef57600080fd5b6097805460ff19169055565b600081610100015160028151811061221557612215612eac565b60200260200101519050919050565b600081610100015160038151811061221557612215612eac565b600081610100015160048151811061221557612215612eac565b600081610100015160058151811061221557612215612eac565b600081610100015160018151811061221557612215612eac565b600081610100015160008151811061221557612215612eac565b60008190506000816001600160a01b031663c1cc57b06040518163ffffffff1660e01b815260040160006040518083038186803b1580156122e657600080fd5b505afa1580156122fa573d6000803e3d6000fd5b505050506040513d6000823e601f3d908101601f19168201604052612322919081019061323e565b905060005b815181101561238c5781818151811061234257612342612eac565b602090810291909101810151600083815260cb909252604090912080546001600160a01b0319166001600160a01b039092169190911790558061238481612ed8565b915050612327565b505160ca555050565b60606105266001600160a01b03831660145b606060006123b6836002613155565b6123c19060026132d8565b67ffffffffffffffff8111156123d9576123d961269d565b6040519080825280601f01601f191660200182016040528015612403576020820181803683370190505b509050600360fc1b8160008151811061241e5761241e612eac565b60200101906001600160f81b031916908160001a905350600f60fb1b8160018151811061244d5761244d612eac565b60200101906001600160f81b031916908160001a9053506000612471846002613155565b61247c9060016132d8565b90505b60018111156124f4576f181899199a1a9b1b9c1cb0b131b232b360811b85600f16601081106124b0576124b0612eac565b1a60f81b8282815181106124c6576124c6612eac565b60200101906001600160f81b031916908160001a90535060049490941c936124ed816132f0565b905061247f565b50831561250057600080fd5b9392505050565b828054828255906000526020600020908101928215612542579160200282015b82811115612542578251825591602001919060010190612527565b5061254e9291506125ef565b5090565b82805482825590600052602060002090601f016020900481019282156125425791602002820160005b838211156125b957835183826101000a81548160ff021916908360ff160217905550926020019260010160208160000104928301926001030261257b565b80156125e65782816101000a81549060ff02191690556001016020816000010492830192600103026125b9565b505061254e9291505b5b8082111561254e57600081556001016125f0565b60006020828403121561261657600080fd5b81356001600160e01b03198116811461250057600080fd5b60006020828403121561264057600080fd5b5035919050565b6001600160a01b0381168114610ca857600080fd5b60008060006060848603121561267157600080fd5b833561267c81612647565b9250602084013561268c81612647565b929592945050506040919091013590565b634e487b7160e01b600052604160045260246000fd5b604051610100810167ffffffffffffffff811182821017156126d7576126d761269d565b60405290565b6040516101c0810167ffffffffffffffff811182821017156126d7576126d761269d565b604051610180810167ffffffffffffffff811182821017156126d7576126d761269d565b604051601f8201601f1916810167ffffffffffffffff8111828210171561274e5761274e61269d565b604052919050565b600067ffffffffffffffff8211156127705761277061269d565b5060051b60200190565b600082601f83011261278b57600080fd5b813560206127a061279b83612756565b612725565b82815260059290921b840181019181810190868411156127bf57600080fd5b8286015b848110156127da57803583529183019183016127c3565b509695505050505050565b803560ff811681146127f657600080fd5b919050565b600082601f83011261280c57600080fd5b8135602061281c61279b83612756565b82815260059290921b8401810191818101908684111561283b57600080fd5b8286015b848110156127da57612850816127e5565b835291830191830161283f565b6000806040838503121561287057600080fd5b823567ffffffffffffffff8082111561288857600080fd5b6128948683870161277a565b93506020915081850135818111156128ab57600080fd5b8501601f810187136128bc57600080fd5b80356128ca61279b82612756565b81815260059190911b820184019084810190898311156128e957600080fd5b8584015b838110156129d85780358681111561290457600080fd5b8501610100818d03601f190181131561291c57600080fd5b6129246126b3565b89830135815260408301358a82015260608301358981111561294557600080fd5b6129538f8c8387010161277a565b60408301525060808301358981111561296b57600080fd5b6129798f8c838701016127fb565b60608301525061298b60a084016127e5565b608082015260c0830135898111156129a35760008081fd5b6129b18f8c8387010161277a565b60a08301525060e08381013560c083015291909201359082015283529186019186016128ed565b508096505050505050509250929050565b600080604083850312156129fc57600080fd5b823591506020830135612a0e81612647565b809150509250929050565b60008060408385031215612a2c57600080fd5b8235612a3781612647565b946020939093013593505050565b60008060408385031215612a5857600080fd5b8235612a6381612647565b91506020830135612a0e81612647565b8015158114610ca857600080fd5b60008060408385031215612a9457600080fd5b823567ffffffffffffffff80821115612aac57600080fd5b612ab88683870161277a565b9350602091508185013581811115612acf57600080fd5b85019050601f81018613612ae257600080fd5b8035612af061279b82612756565b81815260059190911b82018301908381019088831115612b0f57600080fd5b928401925b82841015612b36578335612b2781612a73565b82529284019290840190612b14565b80955050505050509250929050565b600060208284031215612b5757600080fd5b813561250081612647565b60008060008060808587031215612b7857600080fd5b8435612b8381612647565b93506020850135612b9381612647565b92506040850135612ba381612647565b91506060850135612bb381612647565b939692955090935050565b60008060408385031215612bd157600080fd5b50508035926020909101359150565b60008060008060008060c08789031215612bf957600080fd5b8635612c0481612647565b95506020870135612c1481612647565b94506040870135612c2481612647565b93506060870135612c3481612647565b92506080870135612c4481612647565b8092505060a087013590509295509295509295565b80516127f681612647565b600082601f830112612c7557600080fd5b81516020612c8561279b83612756565b82815260059290921b84018101918181019086841115612ca457600080fd5b8286015b848110156127da5780518352918301918301612ca8565b600060208284031215612cd157600080fd5b815167ffffffffffffffff80821115612ce957600080fd5b908301906101c08286031215612cfe57600080fd5b612d066126dd565b612d0f83612c59565b81526020830151602082015260408301516040820152606083015160608201526080830151608082015260a083015160a082015260c083015160c082015260e083015160e08201526101008084015181830152506101208084015181830152506101408084015181830152506101608084015183811115612d8f57600080fd5b612d9b88828701612c64565b8284015250506101808084015183811115612db557600080fd5b612dc188828701612c64565b8284015250506101a08084015183811115612ddb57600080fd5b612de788828701612c64565b918301919091525095945050505050565b600081518084526020808501945080840160005b83811015612e2857815187529582019590820190600101612e0c565b509495945050505050565b60018060a01b0384168152826020820152606060408201526000612e5a6060830184612df8565b95945050505050565b828152604060208201526000612e7c6040830184612df8565b949350505050565b80516127f681612a73565b600060208284031215612ea157600080fd5b815161250081612a73565b634e487b7160e01b600052603260045260246000fd5b634e487b7160e01b600052601160045260246000fd5b6000600019821415612eec57612eec612ec2565b5060010190565b600060208284031215612f0557600080fd5b5051919050565b60005b83811015612f27578181015183820152602001612f0f565b83811115610c3a5750506000910152565b600082601f830112612f4957600080fd5b815167ffffffffffffffff811115612f6357612f6361269d565b612f76601f8201601f1916602001612725565b818152846020838601011115612f8b57600080fd5b612e7c826020830160208701612f0c565b600060208284031215612fae57600080fd5b815167ffffffffffffffff80821115612fc657600080fd5b908301906101808286031215612fdb57600080fd5b612fe3612701565b82518152602083015182811115612ff957600080fd5b61300587828601612f38565b60208301525060408301518281111561301d57600080fd5b61302987828601612f38565b60408301525061303b60608401612c59565b60608201526080830151608082015260a083015160a082015260c083015160c082015260e083015160e0820152610100808401518381111561307c57600080fd5b61308888828701612c64565b82840152505061012080840151838111156130a257600080fd5b6130ae88828701612c64565b82840152505061014080840151838111156130c857600080fd5b6130d488828701612c64565b82840152505061016091506130ea828401612e84565b91810191909152949350505050565b600060ff821660ff84168060ff0382111561311657613116612ec2565b019392505050565b600060ff821660ff81141561313557613135612ec2565b60010192915050565b60008282101561315057613150612ec2565b500390565b600081600019048311821515161561316f5761316f612ec2565b500290565b60008261319157634e487b7160e01b600052601260045260246000fd5b500490565b7f416363657373436f6e74726f6c3a206163636f756e74200000000000000000008152600083516131ce816017850160208801612f0c565b7001034b99036b4b9b9b4b733903937b6329607d1b60179184019182015283516131ff816028840160208801612f0c565b01602801949350505050565b602081526000825180602084015261322a816040850160208701612f0c565b601f01601f19169190910160400192915050565b6000602080838503121561325157600080fd5b825167ffffffffffffffff81111561326857600080fd5b8301601f8101851361327957600080fd5b805161328761279b82612756565b81815260059190911b820183019083810190878311156132a657600080fd5b928401925b828410156132cd5783516132be81612647565b825292840192908401906132ab565b979650505050505050565b600082198211156132eb576132eb612ec2565b500190565b6000816132ff576132ff612ec2565b50600019019056fe97667070c54ef182b0f5858b034beac1b6f3089aa2d3188bb1e8929f4fa9b929a2646970667358221220d55bc35f441455a741273a460516c93e7af1799e39fd0274c7bc65101c83b6f564736f6c63430008090033",
  "linkReferences": {},
  "deployedLinkReferences": {}
}