{
  "_format": "hh-sol-artifact-1",
  "contractName": "BkQuestManager",
  "sourceName": "contracts/features/BkQuestManager.sol",
  "abi": [
    {
      "anonymous": false,
      "inputs": [
        {
          "indexed": true,
          "internalType": "address",
          "name": "player",
          "type": "address"
        },
        {
          "indexed": false,
          "internalType": "uint256",
          "name": "bct",
          "type": "uint256"
        }
      ],
      "name": "BctTransfered",
      "type": "event"
    },
    {
      "anonymous": false,
      "inputs": [
        {
          "indexed": false,
          "internalType": "uint8",
          "name": "version",
          "type": "uint8"
        }
      ],
      "name": "Initialized",
      "type": "event"
    },
    {
      "anonymous": false,
      "inputs": [
        {
          "indexed": false,
          "internalType": "address",
          "name": "account",
          "type": "address"
        }
      ],
      "name": "Paused",
      "type": "event"
    },
    {
      "anonymous": false,
      "inputs": [
        {
          "indexed": true,
          "internalType": "address",
          "name": "player",
          "type": "address"
        },
        {
          "indexed": false,
          "internalType": "uint256",
          "name": "eBct",
          "type": "uint256"
        },
        {
          "indexed": false,
          "internalType": "uint256[]",
          "name": "resources",
          "type": "uint256[]"
        }
      ],
      "name": "ResourcesTransfered",
      "type": "event"
    },
    {
      "anonymous": false,
      "inputs": [
        {
          "indexed": true,
          "internalType": "bytes32",
          "name": "role",
          "type": "bytes32"
        },
        {
          "indexed": true,
          "internalType": "bytes32",
          "name": "previousAdminRole",
          "type": "bytes32"
        },
        {
          "indexed": true,
          "internalType": "bytes32",
          "name": "newAdminRole",
          "type": "bytes32"
        }
      ],
      "name": "RoleAdminChanged",
      "type": "event"
    },
    {
      "anonymous": false,
      "inputs": [
        {
          "indexed": true,
          "internalType": "bytes32",
          "name": "role",
          "type": "bytes32"
        },
        {
          "indexed": true,
          "internalType": "address",
          "name": "account",
          "type": "address"
        },
        {
          "indexed": true,
          "internalType": "address",
          "name": "sender",
          "type": "address"
        }
      ],
      "name": "RoleGranted",
      "type": "event"
    },
    {
      "anonymous": false,
      "inputs": [
        {
          "indexed": true,
          "internalType": "bytes32",
          "name": "role",
          "type": "bytes32"
        },
        {
          "indexed": true,
          "internalType": "address",
          "name": "account",
          "type": "address"
        },
        {
          "indexed": true,
          "internalType": "address",
          "name": "sender",
          "type": "address"
        }
      ],
      "name": "RoleRevoked",
      "type": "event"
    },
    {
      "anonymous": false,
      "inputs": [
        {
          "indexed": false,
          "internalType": "address",
          "name": "account",
          "type": "address"
        }
      ],
      "name": "Unpaused",
      "type": "event"
    },
    {
      "inputs": [],
      "name": "DEFAULT_ADMIN_ROLE",
      "outputs": [
        {
          "internalType": "bytes32",
          "name": "",
          "type": "bytes32"
        }
      ],
      "stateMutability": "view",
      "type": "function"
    },
    {
      "inputs": [
        {
          "internalType": "address",
          "name": "_operator",
          "type": "address"
        },
        {
          "internalType": "address",
          "name": "_blocklistAddress",
          "type": "address"
        }
      ],
      "name": "__Administrable_init",
      "outputs": [],
      "stateMutability": "nonpayable",
      "type": "function"
    },
    {
      "inputs": [],
      "name": "autoReturnRate",
      "outputs": [
        {
          "internalType": "uint256",
          "name": "",
          "type": "uint256"
        }
      ],
      "stateMutability": "view",
      "type": "function"
    },
    {
      "inputs": [
        {
          "internalType": "uint256",
          "name": "bctAmount",
          "type": "uint256"
        }
      ],
      "name": "bctToStabletoken",
      "outputs": [
        {
          "internalType": "uint256",
          "name": "",
          "type": "uint256"
        }
      ],
      "stateMutability": "view",
      "type": "function"
    },
    {
      "inputs": [
        {
          "internalType": "uint256",
          "name": "squadId",
          "type": "uint256"
        }
      ],
      "name": "cancelQuest",
      "outputs": [],
      "stateMutability": "nonpayable",
      "type": "function"
    },
    {
      "inputs": [],
      "name": "contracts",
      "outputs": [
        {
          "internalType": "contract IBkFarm",
          "name": "farm",
          "type": "address"
        },
        {
          "internalType": "contract IBkNft",
          "name": "nft",
          "type": "address"
        },
        {
          "internalType": "contract IBkStasher",
          "name": "stasher",
          "type": "address"
        },
        {
          "internalType": "contract IBkPlayerBonus",
          "name": "playerBonus",
          "type": "address"
        }
      ],
      "stateMutability": "view",
      "type": "function"
    },
    {
      "inputs": [
        {
          "internalType": "uint256",
          "name": "",
          "type": "uint256"
        }
      ],
      "name": "deletedQuests",
      "outputs": [
        {
          "internalType": "bool",
          "name": "",
          "type": "bool"
        }
      ],
      "stateMutability": "view",
      "type": "function"
    },
    {
      "inputs": [
        {
          "internalType": "uint256",
          "name": "squadId",
          "type": "uint256"
        }
      ],
      "name": "finishQuest",
      "outputs": [],
      "stateMutability": "nonpayable",
      "type": "function"
    },
    {
      "inputs": [
        {
          "internalType": "bytes32",
          "name": "role",
          "type": "bytes32"
        }
      ],
      "name": "getRoleAdmin",
      "outputs": [
        {
          "internalType": "bytes32",
          "name": "",
          "type": "bytes32"
        }
      ],
      "stateMutability": "view",
      "type": "function"
    },
    {
      "inputs": [
        {
          "internalType": "bytes32",
          "name": "role",
          "type": "bytes32"
        },
        {
          "internalType": "address",
          "name": "account",
          "type": "address"
        }
      ],
      "name": "grantRole",
      "outputs": [],
      "stateMutability": "nonpayable",
      "type": "function"
    },
    {
      "inputs": [],
      "name": "hasBlocklist",
      "outputs": [
        {
          "internalType": "bool",
          "name": "",
          "type": "bool"
        }
      ],
      "stateMutability": "view",
      "type": "function"
    },
    {
      "inputs": [
        {
          "internalType": "bytes32",
          "name": "role",
          "type": "bytes32"
        },
        {
          "internalType": "address",
          "name": "account",
          "type": "address"
        }
      ],
      "name": "hasRole",
      "outputs": [
        {
          "internalType": "bool",
          "name": "",
          "type": "bool"
        }
      ],
      "stateMutability": "view",
      "type": "function"
    },
    {
      "inputs": [
        {
          "internalType": "address",
          "name": "_operator",
          "type": "address"
        },
        {
          "internalType": "address",
          "name": "_blocklist",
          "type": "address"
        }
      ],
      "name": "initialize",
      "outputs": [],
      "stateMutability": "nonpayable",
      "type": "function"
    },
    {
      "inputs": [
        {
          "internalType": "address",
          "name": "",
          "type": "address"
        },
        {
          "internalType": "uint256",
          "name": "",
          "type": "uint256"
        }
      ],
      "name": "ongoingSpecialQuestIdsPerPlayer",
      "outputs": [
        {
          "internalType": "bool",
          "name": "",
          "type": "bool"
        }
      ],
      "stateMutability": "view",
      "type": "function"
    },
    {
      "inputs": [],
      "name": "pause",
      "outputs": [],
      "stateMutability": "nonpayable",
      "type": "function"
    },
    {
      "inputs": [],
      "name": "paused",
      "outputs": [
        {
          "internalType": "bool",
          "name": "",
          "type": "bool"
        }
      ],
      "stateMutability": "view",
      "type": "function"
    },
    {
      "inputs": [],
      "name": "paymentContracts",
      "outputs": [
        {
          "internalType": "contract IBkERC20",
          "name": "bct",
          "type": "address"
        },
        {
          "internalType": "contract IBkERC20",
          "name": "busd",
          "type": "address"
        },
        {
          "internalType": "contract ICommunityPool",
          "name": "pool",
          "type": "address"
        },
        {
          "internalType": "contract IBkFarm",
          "name": "farm",
          "type": "address"
        }
      ],
      "stateMutability": "view",
      "type": "function"
    },
    {
      "inputs": [
        {
          "internalType": "address",
          "name": "tokenAddress",
          "type": "address"
        },
        {
          "internalType": "address",
          "name": "to",
          "type": "address"
        },
        {
          "internalType": "uint256",
          "name": "amount",
          "type": "uint256"
        }
      ],
      "name": "recoverERC20",
      "outputs": [],
      "stateMutability": "nonpayable",
      "type": "function"
    },
    {
      "inputs": [
        {
          "internalType": "bytes32",
          "name": "role",
          "type": "bytes32"
        },
        {
          "internalType": "address",
          "name": "account",
          "type": "address"
        }
      ],
      "name": "renounceRole",
      "outputs": [],
      "stateMutability": "nonpayable",
      "type": "function"
    },
    {
      "inputs": [],
      "name": "resetBlocklist",
      "outputs": [],
      "stateMutability": "nonpayable",
      "type": "function"
    },
    {
      "inputs": [
        {
          "internalType": "uint256",
          "name": "",
          "type": "uint256"
        }
      ],
      "name": "resources",
      "outputs": [
        {
          "internalType": "address",
          "name": "",
          "type": "address"
        }
      ],
      "stateMutability": "view",
      "type": "function"
    },
    {
      "inputs": [],
      "name": "resourcesCount",
      "outputs": [
        {
          "internalType": "uint256",
          "name": "",
          "type": "uint256"
        }
      ],
      "stateMutability": "view",
      "type": "function"
    },
    {
      "inputs": [
        {
          "internalType": "bytes32",
          "name": "role",
          "type": "bytes32"
        },
        {
          "internalType": "address",
          "name": "account",
          "type": "address"
        }
      ],
      "name": "revokeRole",
      "outputs": [],
      "stateMutability": "nonpayable",
      "type": "function"
    },
    {
      "inputs": [
        {
          "internalType": "address",
          "name": "blocklistAddress",
          "type": "address"
        }
      ],
      "name": "setBlocklist",
      "outputs": [],
      "stateMutability": "nonpayable",
      "type": "function"
    },
    {
      "inputs": [
        {
          "internalType": "address",
          "name": "_farm",
          "type": "address"
        },
        {
          "internalType": "address",
          "name": "_nft",
          "type": "address"
        },
        {
          "internalType": "address",
          "name": "_stasher",
          "type": "address"
        },
        {
          "internalType": "address",
          "name": "_playerBonus",
          "type": "address"
        }
      ],
      "name": "setContracts",
      "outputs": [],
      "stateMutability": "nonpayable",
      "type": "function"
    },
    {
      "inputs": [
        {
          "internalType": "uint256[]",
          "name": "questIds",
          "type": "uint256[]"
        },
        {
          "internalType": "bool[]",
          "name": "isDeleted",
          "type": "bool[]"
        }
      ],
      "name": "setDeletedQuests",
      "outputs": [],
      "stateMutability": "nonpayable",
      "type": "function"
    },
    {
      "inputs": [
        {
          "internalType": "uint256[]",
          "name": "questIds",
          "type": "uint256[]"
        },
        {
          "components": [
            {
              "internalType": "uint256",
              "name": "id",
              "type": "uint256"
            },
            {
              "internalType": "uint256",
              "name": "costInBct",
              "type": "uint256"
            },
            {
              "internalType": "uint256[]",
              "name": "costInResources",
              "type": "uint256[]"
            },
            {
              "internalType": "uint8[]",
              "name": "requiredDreamBeasts",
              "type": "uint8[]"
            },
            {
              "internalType": "uint8",
              "name": "requiredMaxedOutNfts",
              "type": "uint8"
            },
            {
              "internalType": "uint256[]",
              "name": "extraRewardInResources",
              "type": "uint256[]"
            },
            {
              "internalType": "uint256",
              "name": "extraRewardInBct",
              "type": "uint256"
            },
            {
              "internalType": "uint256",
              "name": "extraRewardInEbct",
              "type": "uint256"
            }
          ],
          "internalType": "struct BkQuestManager.SpecialQuest[]",
          "name": "quests_",
          "type": "tuple[]"
        }
      ],
      "name": "setQuests",
      "outputs": [],
      "stateMutability": "nonpayable",
      "type": "function"
    },
    {
      "inputs": [
        {
          "internalType": "address",
          "name": "_bct",
          "type": "address"
        },
        {
          "internalType": "address",
          "name": "_busd",
          "type": "address"
        },
        {
          "internalType": "address",
          "name": "_pool",
          "type": "address"
        },
        {
          "internalType": "address",
          "name": "_farm",
          "type": "address"
        },
        {
          "internalType": "address",
          "name": "_resourcesSource",
          "type": "address"
        },
        {
          "internalType": "uint256",
          "name": "_autoReturnRate",
          "type": "uint256"
        }
      ],
      "name": "setupPaymentModule",
      "outputs": [],
      "stateMutability": "nonpayable",
      "type": "function"
    },
    {
      "inputs": [
        {
          "internalType": "uint256",
          "name": "busdAmount",
          "type": "uint256"
        }
      ],
      "name": "stabletokenToBct",
      "outputs": [
        {
          "internalType": "uint256",
          "name": "",
          "type": "uint256"
        }
      ],
      "stateMutability": "view",
      "type": "function"
    },
    {
      "inputs": [
        {
          "internalType": "uint256",
          "name": "squadId",
          "type": "uint256"
        },
        {
          "internalType": "uint256",
          "name": "questId",
          "type": "uint256"
        }
      ],
      "name": "startQuest",
      "outputs": [],
      "stateMutability": "nonpayable",
      "type": "function"
    },
    {
      "inputs": [
        {
          "internalType": "bytes4",
          "name": "interfaceId",
          "type": "bytes4"
        }
      ],
      "name": "supportsInterface",
      "outputs": [
        {
          "internalType": "bool",
          "name": "",
          "type": "bool"
        }
      ],
      "stateMutability": "view",
      "type": "function"
    },
    {
      "inputs": [],
      "name": "unpause",
      "outputs": [],
      "stateMutability": "nonpayable",
      "type": "function"
    }
  ],
  "bytecode": "0x608060405234801561001057600080fd5b50613325806100206000396000f3fe608060405234801561001057600080fd5b50600436106101f05760003560e01c8063634210f41161010f578063b5f63f60116100a2578063c429d34911610071578063c429d349146104b3578063d547741f146104bc578063f4b93f45146104cf578063fe90ff7d146104e257600080fd5b8063b5f63f6014610457578063b6baa8e51461046a578063bf989b6e1461048d578063c3c33b40146104a057600080fd5b8063931da89b116100de578063931da89b14610416578063a217fddf14610429578063ae0ed68c14610431578063aef18ae71461044457600080fd5b8063634210f4146103c15780636c0f79b6146103d55780638456cb59146103fb57806391d148541461040357600080fd5b806336568abe1161018757806343fcf6311161015657806343fcf6311461036c578063485cc9551461039a57806351ac7b8c146103ad5780635c975abb146103b657600080fd5b806336568abe146103365780633c7fd822146103495780633f4ba83a1461035157806341e80ad91461035957600080fd5b8063244d6daa116101c3578063244d6daa14610258578063248a9ca3146102995780632f2ff15d146102ca578063323b6cb7146102dd57600080fd5b806301ffc9a7146101f55780631094f1521461021d5780631171bda91461023257806323ed6dbe14610245575b600080fd5b6102086102033660046125cc565b6104f5565b60405190151581526020015b60405180910390f35b61023061022b3660046125f6565b61052c565b005b610230610240366004612624565b610a59565b610230610253366004612825565b610afa565b6102816102663660046125f6565b60cb602052600090815260409020546001600160a01b031681565b6040516001600160a01b039091168152602001610214565b6102bc6102a73660046125f6565b60009081526065602052604090206001015490565b604051908152602001610214565b6102306102d83660046129b1565b610c15565b60cc5460cd5460ce5460cf54610303936001600160a01b03908116938116928116911684565b604080516001600160a01b0395861681529385166020850152918416918301919091529091166060820152608001610214565b6102306103443660046129b1565b610c3a565b610230610c5d565b610230610c88565b6102bc6103673660046125f6565b610cab565b61020861037a3660046129e1565b60d660209081526000928352604080842090915290825290205460ff1681565b6102306103a8366004612a0d565b610d29565b6102bc60ca5481565b60975460ff16610208565b60c95461020890600160a01b900460ff1681565b60d15460d25460d35460d454610303936001600160a01b03908116938116928116911684565b610230610de3565b6102086104113660046129b1565b610e03565b610230610424366004612a0d565b610e2e565b6102bc600081565b61023061043f366004612a49565b610efa565b610230610452366004612b0d565b610f8e565b6102bc6104653660046125f6565b610fce565b6102086104783660046125f6565b60d76020526000908152604090205460ff1681565b61023061049b366004612b2a565b611000565b6102306104ae366004612b86565b61108b565b6102bc60d05481565b6102306104ca3660046129b1565b611575565b6102306104dd366004612ba8565b61159a565b6102306104f03660046125f6565b6115c9565b60006001600160e01b03198216637965db0b60e01b148061052657506301ffc9a760e01b6001600160e01b03198316145b92915050565b60d1546040516334d074b360e11b8152600481018390526000916001600160a01b0316906369a0e9669060240160006040518083038186803b15801561057157600080fd5b505afa158015610585573d6000803e3d6000fd5b505050506040513d6000823e601f3d908101601f191682016040526105ad9190810190612c87565b90506000816101000151116105ed5760405162461bcd60e51b81526020600482015260016024820152603360f81b60448201526064015b60405180910390fd5b80516105f890611725565b610100810151600090815260d7602052604090205460ff16156106785760d1546040516318988e4360e01b8152600481018490526001600160a01b03909116906318988e43906024015b600060405180830381600087803b15801561065c57600080fd5b505af1158015610670573d6000803e3d6000fd5b505050505050565b61010080820151600090815260d560209081526040808320815194850182528054855260018101548584015260028101805483518186028101860185528181529596959294938601938301828280156106f057602002820191906000526020600020905b8154815260200190600101908083116106dc575b505050505081526020016003820180548060200260200160405190810160405280929190818152602001828054801561076657602002820191906000526020600020906000905b825461010083900a900460ff168152602060019283018181049485019490930390920291018084116107375790505b5050509183525050600482015460ff1660208083019190915260058301805460408051828502810185018252828152940193928301828280156107c857602002820191906000526020600020905b8154815260200190600101908083116107b4575b5050509183525050600682015460208201526007909101546040909101528051909150156109905760008160a00151511180610808575060008160e00151115b156108cd5760d154825160e083015160a08401516040516304567ca960e11b81526001600160a01b03909416936308acf9529361084b9390929091600401612dfb565b600060405180830381600087803b15801561086557600080fd5b505af1158015610879573d6000803e3d6000fd5b5050505081600001516001600160a01b03167f8b7c65ecfbbf17546a8d95a1ec956f2056f0e6d281f0ed8771c3d9f22014e8178260e001518360a001516040516108c4929190612e2b565b60405180910390a25b60c0810151156109905760d154825160c0830151604051632654603560e01b81526001600160a01b0392831660048201526024810191909152911690632654603590604401600060405180830381600087803b15801561092c57600080fd5b505af1158015610940573d6000803e3d6000fd5b5050505081600001516001600160a01b03167f7a362f0b7c5c1be1064d717d2492992a0379b24e1724b17f9edb6a75b1c875ac8260c0015160405161098791815260200190565b60405180910390a25b60d15460405163c1f3ef4d60e01b8152600481018590526001600160a01b039091169063c1f3ef4d90602401600060405180830381600087803b1580156109d657600080fd5b505af11580156109ea573d6000803e3d6000fd5b505083516001600160a01b0316600090815260d660209081526040808320610100880151845290915290205460ff16159150610a5490505781516001600160a01b0316600090815260d66020908152604080832061010086015184529091529020805460ff191690555b505050565b6000805160206132d0833981519152610a7181611779565b60405163a9059cbb60e01b81526001600160a01b0384811660048301526024820184905285169063a9059cbb90604401602060405180830381600087803b158015610abb57600080fd5b505af1158015610acf573d6000803e3d6000fd5b505050506040513d601f19601f82011682018060405250810190610af39190612e57565b5050505050565b6000805160206132d0833981519152610b1281611779565b60005b8251811015610c0f57828181518110610b3057610b30612e74565b602002602001015160d56000868481518110610b4e57610b4e612e74565b6020026020010151815260200190815260200160002060008201518160000155602082015181600101556040820151816002019080519060200190610b949291906124cf565b5060608201518051610bb091600384019160209091019061251a565b50608082015160048201805460ff191660ff90921691909117905560a08201518051610be69160058401916020909101906124cf565b5060c0820151600682015560e09091015160079091015580610c0781612ea0565b915050610b15565b50505050565b600082815260656020526040902060010154610c3081611779565b610a548383611783565b6001600160a01b0381163314610c4f57600080fd5b610c598282611809565b5050565b6000805160206132d0833981519152610c7581611779565b5060c980546001600160a81b0319169055565b6000805160206132d0833981519152610ca081611779565b610ca8611870565b50565b60ce54604051634ca1cccb60e11b8152600481018390526000916001600160a01b0316906399439996906024015b60206040518083038186803b158015610cf157600080fd5b505afa158015610d05573d6000803e3d6000fd5b505050506040513d601f19601f820116820180604052508101906105269190612ebb565b600054610100900460ff1615808015610d495750600054600160ff909116105b80610d635750303b158015610d63575060005460ff166001145b610d6c57600080fd5b6000805460ff191660011790558015610d8f576000805461ff0019166101001790555b610d998383610e2e565b8015610a54576000805461ff0019169055604051600181527f7f26b83ff96e1f2b6a682f133852f6798a09c465da95921460cefb38474024989060200160405180910390a1505050565b6000805160206132d0833981519152610dfb81611779565b610ca86118c2565b60009182526065602090815260408084206001600160a01b0393909316845291905290205460ff1690565b600054610100900460ff1615808015610e4e5750600054600160ff909116105b80610e685750303b158015610e68575060005460ff166001145b610e7157600080fd5b6000805460ff191660011790558015610e94576000805461ff0019166101001790555b610e9c6118ff565b610ea4611915565b610eaf600084611931565b610ec76000805160206132d083398151915284611931565b610ef17f73e573f9566d61418a34d5de3ff49360f9c51fec37f7486551670290f6285dab84611931565b610d9982610f8e565b6000805160206132d0833981519152610f1281611779565b60005b8351811015610c0f57828181518110610f3057610f30612e74565b602002602001015160d76000868481518110610f4e57610f4e612e74565b6020026020010151815260200190815260200160002060006101000a81548160ff0219169083151502179055508080610f8690612ea0565b915050610f15565b6000805160206132d0833981519152610fa681611779565b5060c980546001600160a81b0319166001600160a01b0390921691909117600160a01b179055565b60ce5460405163526267fd60e11b8152600481018390526000916001600160a01b03169063a4c4cffa90602401610cd9565b6000805160206132d083398151915261101881611779565b50604080516080810182526001600160a01b039586168082529486166020820181905293861691810182905291909416606090910181905260d180546001600160a01b0319908116909417905560d28054841690921790915560d38054831690931790925560d480549091169091179055565b600081815260d7602052604090205460ff16156110cf5760405162461bcd60e51b8152602060048201526002602482015261070760f31b60448201526064016105e4565b60d1546040516334d074b360e11b8152600481018490526000916001600160a01b0316906369a0e9669060240160006040518083038186803b15801561111457600080fd5b505afa158015611128573d6000803e3d6000fd5b505050506040513d6000823e601f3d908101601f191682016040526111509190810190612c87565b905061115f8160000151611725565b600082815260d560209081526040808320815161010081018352815481526001820154818501526002820180548451818702810187018652818152929593948601938301828280156111d057602002820191906000526020600020905b8154815260200190600101908083116111bc575b505050505081526020016003820180548060200260200160405190810160405280929190818152602001828054801561124657602002820191906000526020600020906000905b825461010083900a900460ff168152602060019283018181049485019490930390920291018084116112175790505b5050509183525050600482015460ff1660208083019190915260058301805460408051828502810185018252828152940193928301828280156112a857602002820191906000526020600020905b815481526020019060010190808311611294575b50505091835250506006820154602082015260079091015460409091015280519091501561150a576000816080015160ff1611806112eb57506000816060015151115b156113d4576000806112fc8661193b565b91509150826080015160ff168260ff16101561133e5760405162461bcd60e51b81526020600482015260016024820152603160f81b60448201526064016105e4565b60005b8360600151518110156113d0578360600151818151811061136457611364612e74565b602002602001015160ff1682828151811061138157611381612e74565b602002602001015160ff1610156113be5760405162461bcd60e51b81526020600482015260016024820152601960f91b60448201526064016105e4565b806113c881612ea0565b915050611341565b5050505b604081015151156114da5760d3548251604051635c138c9d60e01b81526001600160a01b0391821660048201526000929190911690635c138c9d9060240160206040518083038186803b15801561142a57600080fd5b505afa15801561143e573d6000803e3d6000fd5b505050506040513d601f19601f820116820180604052508101906114629190612ebb565b905060098110156114995760405162461bcd60e51b81526020600482015260016024820152600d60fa1b60448201526064016105e4565b6114d882602001518360400151604051806080016040528060011515815260200160011515815260200160001515815260200160001515815250611d5f565b505b81516001600160a01b0316600090815260d6602090815260408083208684529091529020805460ff191660011790555b60d15460405163f1486dcd60e01b815260048101869052602481018590526001600160a01b039091169063f1486dcd90604401600060405180830381600087803b15801561155757600080fd5b505af115801561156b573d6000803e3d6000fd5b5050505050505050565b60008281526065602052604090206001015461159081611779565b610a548383611809565b6000805160206132d08339815191526115b281611779565b6115c0878787878787611ff4565b50505050505050565b60d1546040516334d074b360e11b8152600481018390526000916001600160a01b0316906369a0e9669060240160006040518083038186803b15801561160e57600080fd5b505afa158015611622573d6000803e3d6000fd5b505050506040513d6000823e601f3d908101601f1916820160405261164a9190810190612c87565b90506000816101000151116116855760405162461bcd60e51b81526020600482015260016024820152603360f81b60448201526064016105e4565b805161169090611725565b80516001600160a01b0316600090815260d660209081526040808320610100850151845290915290205460ff16156116f45780516001600160a01b0316600090815260d66020908152604080832061010085015184529091529020805460ff191690555b60d1546040516318988e4360e01b8152600481018490526001600160a01b03909116906318988e4390602401610642565b6001600160a01b03811633148015611740575060975460ff16155b8061177057506117707f73e573f9566d61418a34d5de3ff49360f9c51fec37f7486551670290f6285dab33610e03565b610ca857600080fd5b610ca881336120bb565b61178d8282610e03565b610c595760008281526065602090815260408083206001600160a01b03851684529091529020805460ff191660011790556117c53390565b6001600160a01b0316816001600160a01b0316837f2f8788117e7eff1d82e926ec794901d17c78024a50270940304540a733656f0d60405160405180910390a45050565b6118138282610e03565b15610c595760008281526065602090815260408083206001600160a01b0385168085529252808320805460ff1916905551339285917ff6391f5c32d9c69d2a47ea670b442974b53935d1edc7fd64eb21e047a839171b9190a45050565b611878612114565b6097805460ff191690557f5db9ee0a495bf2e6ff9c91a7834c1ba4fdd244a5e8aa4e537bd38aeae4b073aa335b6040516001600160a01b03909116815260200160405180910390a1565b6118ca61215d565b6097805460ff191660011790557f62e78cea01bee320cd4e420270b5ea74000d11b0c9f74754ebdbfc544b05a2586118a53390565b600054610100900460ff1661191357600080fd5b565b600054610100900460ff1661192957600080fd5b6119136121a3565b610c598282611783565b60d1546040516334d074b360e11b81526004810183905260009160609183916001600160a01b0316906369a0e9669060240160006040518083038186803b15801561198557600080fd5b505afa158015611999573d6000803e3d6000fd5b505050506040513d6000823e601f3d908101601f191682016040526119c19190810190612c87565b60408051600a8082526101608201909252919250602082016101408036833701905050915060005b81610160015151811015611d585760d25461016083015180516001926000926001600160a01b03909116916341f63bfd919086908110611a2b57611a2b612e74565b60200260200101516040518263ffffffff1660e01b8152600401611a5191815260200190565b60006040518083038186803b158015611a6957600080fd5b505afa158015611a7d573d6000803e3d6000fd5b505050506040513d6000823e601f3d908101601f19168201604052611aa59190810190612f64565b90506063611ab2826121c3565b1015611abd57600091505b6005611ac8826121ec565b1015611ad357600091505b6032611ade82612206565b1015611ae957600091505b600b611af482612220565b1015611aff57600091505b6004611b0a8261223a565b1015611b1557600091505b6003816101200151511015611b2957600091505b60006006611b3683612254565b10611b5957600b611b4683612254565b10611b52576005611b5c565b6002611b5c565b60005b9050611b698160056130c1565b60ff16826101400151600081518110611b8457611b84612e74565b60200260200101511015611b9757600092505b611ba28160056130c1565b60ff16826101400151600181518110611bbd57611bbd612e74565b60200260200101511015611bd057600092505b611bdb8160056130c1565b60ff16826101400151600281518110611bf657611bf6612e74565b60200260200101511015611c0957600092505b611c148160056130c1565b60ff16826101400151600381518110611c2f57611c2f612e74565b60200260200101511015611c4257600092505b6005611c4d83612254565b118015611c855750611c608160056130c1565b60ff16826101400151600481518110611c7b57611c7b612e74565b6020026020010151105b15611c8f57600092505b600a611c9a83612254565b118015611cd25750611cad8160056130c1565b60ff16826101400151600581518110611cc857611cc8612e74565b6020026020010151105b15611cdc57600092505b8215611cf05786611cec816130e6565b9750505b6006611cfb83612254565b10611d4257856006611d0c84612254565b611d169190613106565b81518110611d2657611d26612e74565b602002602001018051809190611d3b906130e6565b60ff169052505b5050508080611d5090612ea0565b9150506119e9565b5050915091565b806040015115611edf57806020015115611da05760405162461bcd60e51b8152602060048201526002602482015261070360f41b60448201526064016105e4565b8051600090611daf5783611db8565b611db884610fce565b60cd546040516323b872dd60e01b8152336004820152306024820152604481018390529192506001600160a01b0316906323b872dd90606401602060405180830381600087803b158015611e0b57600080fd5b505af1158015611e1f573d6000803e3d6000fd5b505050506040513d601f19601f82011682018060405250810190611e439190612e57565b50600060648260d054611e56919061311d565b611e60919061313c565b60ce54604051630d3990db60e21b8152600481018390529192506001600160a01b0316906334e6436c90602401602060405180830381600087803b158015611ea757600080fd5b505af1158015611ebb573d6000803e3d6000fd5b505050506040513d601f19601f820116820180604052508101906106709190612ebb565b806060015115611f165760405162461bcd60e51b8152602060048201526002602482015261703160f01b60448201526064016105e4565b8051600090611f2d57611f2884610cab565b611f2f565b835b60cf5460405163b1918c9560e01b81529192506000916001600160a01b039091169063b1918c9590611f6990339086908990600401612dfb565b602060405180830381600087803b158015611f8357600080fd5b505af1158015611f97573d6000803e3d6000fd5b505050506040513d601f19601f82011682018060405250810190611fbb9190612e57565b905080610af35760405162461bcd60e51b81526020600482015260076024820152666e6f46756e647360c81b60448201526064016105e4565b60cc80546001600160a01b038089166001600160a01b03199283161790925560cd805488841690831617905560ce805487841690831617905560cf8054928616929091169190911790556120478261226e565b60d081905560cd5460405163095ea7b360e01b81526001600160a01b03868116600483015260001960248301529091169063095ea7b390604401600060405180830381600087803b15801561209b57600080fd5b505af11580156120af573d6000803e3d6000fd5b50505050505050505050565b6120c58282610e03565b610c59576120d28161235d565b6120dd83602061236f565b6040516020016120ee92919061315e565b60408051601f198184030181529082905262461bcd60e51b82526105e4916004016131d3565b60975460ff166119135760405162461bcd60e51b815260206004820152601460248201527314185d5cd8589b194e881b9bdd081c185d5cd95960621b60448201526064016105e4565b60975460ff16156119135760405162461bcd60e51b815260206004820152601060248201526f14185d5cd8589b194e881c185d5cd95960821b60448201526064016105e4565b600054610100900460ff166121b757600080fd5b6097805460ff19169055565b60008161010001516002815181106121dd576121dd612e74565b60200260200101519050919050565b60008161010001516003815181106121dd576121dd612e74565b60008161010001516004815181106121dd576121dd612e74565b60008161010001516005815181106121dd576121dd612e74565b60008161010001516001815181106121dd576121dd612e74565b60008161010001516000815181106121dd576121dd612e74565b60008190506000816001600160a01b031663c1cc57b06040518163ffffffff1660e01b815260040160006040518083038186803b1580156122ae57600080fd5b505afa1580156122c2573d6000803e3d6000fd5b505050506040513d6000823e601f3d908101601f191682016040526122ea9190810190613206565b905060005b81518110156123545781818151811061230a5761230a612e74565b602090810291909101810151600083815260cb909252604090912080546001600160a01b0319166001600160a01b039092169190911790558061234c81612ea0565b9150506122ef565b505160ca555050565b60606105266001600160a01b03831660145b6060600061237e83600261311d565b6123899060026132a0565b67ffffffffffffffff8111156123a1576123a1612665565b6040519080825280601f01601f1916602001820160405280156123cb576020820181803683370190505b509050600360fc1b816000815181106123e6576123e6612e74565b60200101906001600160f81b031916908160001a905350600f60fb1b8160018151811061241557612415612e74565b60200101906001600160f81b031916908160001a905350600061243984600261311d565b6124449060016132a0565b90505b60018111156124bc576f181899199a1a9b1b9c1cb0b131b232b360811b85600f166010811061247857612478612e74565b1a60f81b82828151811061248e5761248e612e74565b60200101906001600160f81b031916908160001a90535060049490941c936124b5816132b8565b9050612447565b5083156124c857600080fd5b9392505050565b82805482825590600052602060002090810192821561250a579160200282015b8281111561250a5782518255916020019190600101906124ef565b506125169291506125b7565b5090565b82805482825590600052602060002090601f0160209004810192821561250a5791602002820160005b8382111561258157835183826101000a81548160ff021916908360ff1602179055509260200192600101602081600001049283019260010302612543565b80156125ae5782816101000a81549060ff0219169055600101602081600001049283019260010302612581565b50506125169291505b5b8082111561251657600081556001016125b8565b6000602082840312156125de57600080fd5b81356001600160e01b0319811681146124c857600080fd5b60006020828403121561260857600080fd5b5035919050565b6001600160a01b0381168114610ca857600080fd5b60008060006060848603121561263957600080fd5b83356126448161260f565b925060208401356126548161260f565b929592945050506040919091013590565b634e487b7160e01b600052604160045260246000fd5b604051610100810167ffffffffffffffff8111828210171561269f5761269f612665565b60405290565b6040516101c0810167ffffffffffffffff8111828210171561269f5761269f612665565b604051610180810167ffffffffffffffff8111828210171561269f5761269f612665565b604051601f8201601f1916810167ffffffffffffffff8111828210171561271657612716612665565b604052919050565b600067ffffffffffffffff82111561273857612738612665565b5060051b60200190565b600082601f83011261275357600080fd5b813560206127686127638361271e565b6126ed565b82815260059290921b8401810191818101908684111561278757600080fd5b8286015b848110156127a2578035835291830191830161278b565b509695505050505050565b803560ff811681146127be57600080fd5b919050565b600082601f8301126127d457600080fd5b813560206127e46127638361271e565b82815260059290921b8401810191818101908684111561280357600080fd5b8286015b848110156127a257612818816127ad565b8352918301918301612807565b6000806040838503121561283857600080fd5b823567ffffffffffffffff8082111561285057600080fd5b61285c86838701612742565b935060209150818501358181111561287357600080fd5b8501601f8101871361288457600080fd5b80356128926127638261271e565b81815260059190911b820184019084810190898311156128b157600080fd5b8584015b838110156129a0578035868111156128cc57600080fd5b8501610100818d03601f19018113156128e457600080fd5b6128ec61267b565b89830135815260408301358a82015260608301358981111561290d57600080fd5b61291b8f8c83870101612742565b60408301525060808301358981111561293357600080fd5b6129418f8c838701016127c3565b60608301525061295360a084016127ad565b608082015260c08301358981111561296b5760008081fd5b6129798f8c83870101612742565b60a08301525060e08381013560c083015291909201359082015283529186019186016128b5565b508096505050505050509250929050565b600080604083850312156129c457600080fd5b8235915060208301356129d68161260f565b809150509250929050565b600080604083850312156129f457600080fd5b82356129ff8161260f565b946020939093013593505050565b60008060408385031215612a2057600080fd5b8235612a2b8161260f565b915060208301356129d68161260f565b8015158114610ca857600080fd5b60008060408385031215612a5c57600080fd5b823567ffffffffffffffff80821115612a7457600080fd5b612a8086838701612742565b9350602091508185013581811115612a9757600080fd5b85019050601f81018613612aaa57600080fd5b8035612ab86127638261271e565b81815260059190911b82018301908381019088831115612ad757600080fd5b928401925b82841015612afe578335612aef81612a3b565b82529284019290840190612adc565b80955050505050509250929050565b600060208284031215612b1f57600080fd5b81356124c88161260f565b60008060008060808587031215612b4057600080fd5b8435612b4b8161260f565b93506020850135612b5b8161260f565b92506040850135612b6b8161260f565b91506060850135612b7b8161260f565b939692955090935050565b60008060408385031215612b9957600080fd5b50508035926020909101359150565b60008060008060008060c08789031215612bc157600080fd5b8635612bcc8161260f565b95506020870135612bdc8161260f565b94506040870135612bec8161260f565b93506060870135612bfc8161260f565b92506080870135612c0c8161260f565b8092505060a087013590509295509295509295565b80516127be8161260f565b600082601f830112612c3d57600080fd5b81516020612c4d6127638361271e565b82815260059290921b84018101918181019086841115612c6c57600080fd5b8286015b848110156127a25780518352918301918301612c70565b600060208284031215612c9957600080fd5b815167ffffffffffffffff80821115612cb157600080fd5b908301906101c08286031215612cc657600080fd5b612cce6126a5565b612cd783612c21565b81526020830151602082015260408301516040820152606083015160608201526080830151608082015260a083015160a082015260c083015160c082015260e083015160e08201526101008084015181830152506101208084015181830152506101408084015181830152506101608084015183811115612d5757600080fd5b612d6388828701612c2c565b8284015250506101808084015183811115612d7d57600080fd5b612d8988828701612c2c565b8284015250506101a08084015183811115612da357600080fd5b612daf88828701612c2c565b918301919091525095945050505050565b600081518084526020808501945080840160005b83811015612df057815187529582019590820190600101612dd4565b509495945050505050565b60018060a01b0384168152826020820152606060408201526000612e226060830184612dc0565b95945050505050565b828152604060208201526000612e446040830184612dc0565b949350505050565b80516127be81612a3b565b600060208284031215612e6957600080fd5b81516124c881612a3b565b634e487b7160e01b600052603260045260246000fd5b634e487b7160e01b600052601160045260246000fd5b6000600019821415612eb457612eb4612e8a565b5060010190565b600060208284031215612ecd57600080fd5b5051919050565b60005b83811015612eef578181015183820152602001612ed7565b83811115610c0f5750506000910152565b600082601f830112612f1157600080fd5b815167ffffffffffffffff811115612f2b57612f2b612665565b612f3e601f8201601f19166020016126ed565b818152846020838601011115612f5357600080fd5b612e44826020830160208701612ed4565b600060208284031215612f7657600080fd5b815167ffffffffffffffff80821115612f8e57600080fd5b908301906101808286031215612fa357600080fd5b612fab6126c9565b82518152602083015182811115612fc157600080fd5b612fcd87828601612f00565b602083015250604083015182811115612fe557600080fd5b612ff187828601612f00565b60408301525061300360608401612c21565b60608201526080830151608082015260a083015160a082015260c083015160c082015260e083015160e0820152610100808401518381111561304457600080fd5b61305088828701612c2c565b828401525050610120808401518381111561306a57600080fd5b61307688828701612c2c565b828401525050610140808401518381111561309057600080fd5b61309c88828701612c2c565b82840152505061016091506130b2828401612e4c565b91810191909152949350505050565b600060ff821660ff84168060ff038211156130de576130de612e8a565b019392505050565b600060ff821660ff8114156130fd576130fd612e8a565b60010192915050565b60008282101561311857613118612e8a565b500390565b600081600019048311821515161561313757613137612e8a565b500290565b60008261315957634e487b7160e01b600052601260045260246000fd5b500490565b7f416363657373436f6e74726f6c3a206163636f756e7420000000000000000000815260008351613196816017850160208801612ed4565b7001034b99036b4b9b9b4b733903937b6329607d1b60179184019182015283516131c7816028840160208801612ed4565b01602801949350505050565b60208152600082518060208401526131f2816040850160208701612ed4565b601f01601f19169190910160400192915050565b6000602080838503121561321957600080fd5b825167ffffffffffffffff81111561323057600080fd5b8301601f8101851361324157600080fd5b805161324f6127638261271e565b81815260059190911b8201830190838101908783111561326e57600080fd5b928401925b828410156132955783516132868161260f565b82529284019290840190613273565b979650505050505050565b600082198211156132b3576132b3612e8a565b500190565b6000816132c7576132c7612e8a565b50600019019056fe97667070c54ef182b0f5858b034beac1b6f3089aa2d3188bb1e8929f4fa9b929a26469706673582212206bd066635f41fa256585e927bf71282b3be1105e9341b52f6e457da8d1847f2964736f6c63430008090033",
  "linkReferences": {},
  "deployedLinkReferences": {}
}