{
  "_format": "hh-sol-artifact-1",
  "contractName": "BkUpgradesV8",
  "sourceName": "contracts/features/BkUpgradesV8.sol",
  "abi": [
    {
      "anonymous": false,
      "inputs": [
        {
          "indexed": false,
          "internalType": "address",
          "name": "sender",
          "type": "address"
        },
        {
          "indexed": false,
          "internalType": "uint256",
          "name": "amount",
          "type": "uint256"
        },
        {
          "indexed": false,
          "internalType": "uint256",
          "name": "amountWithBonus",
          "type": "uint256"
        }
      ],
      "name": "Deposit",
      "type": "event"
    },
    {
      "anonymous": false,
      "inputs": [
        {
          "indexed": false,
          "internalType": "uint8",
          "name": "version",
          "type": "uint8"
        }
      ],
      "name": "Initialized",
      "type": "event"
    },
    {
      "anonymous": false,
      "inputs": [
        {
          "indexed": false,
          "internalType": "address",
          "name": "account",
          "type": "address"
        }
      ],
      "name": "Paused",
      "type": "event"
    },
    {
      "anonymous": false,
      "inputs": [
        {
          "indexed": false,
          "internalType": "uint256",
          "name": "nftId",
          "type": "uint256"
        },
        {
          "indexed": false,
          "internalType": "uint256",
          "name": "ranks",
          "type": "uint256"
        },
        {
          "indexed": false,
          "internalType": "address",
          "name": "owner",
          "type": "address"
        }
      ],
      "name": "RankUp",
      "type": "event"
    },
    {
      "anonymous": false,
      "inputs": [
        {
          "indexed": true,
          "internalType": "bytes32",
          "name": "role",
          "type": "bytes32"
        },
        {
          "indexed": true,
          "internalType": "bytes32",
          "name": "previousAdminRole",
          "type": "bytes32"
        },
        {
          "indexed": true,
          "internalType": "bytes32",
          "name": "newAdminRole",
          "type": "bytes32"
        }
      ],
      "name": "RoleAdminChanged",
      "type": "event"
    },
    {
      "anonymous": false,
      "inputs": [
        {
          "indexed": true,
          "internalType": "bytes32",
          "name": "role",
          "type": "bytes32"
        },
        {
          "indexed": true,
          "internalType": "address",
          "name": "account",
          "type": "address"
        },
        {
          "indexed": true,
          "internalType": "address",
          "name": "sender",
          "type": "address"
        }
      ],
      "name": "RoleGranted",
      "type": "event"
    },
    {
      "anonymous": false,
      "inputs": [
        {
          "indexed": true,
          "internalType": "bytes32",
          "name": "role",
          "type": "bytes32"
        },
        {
          "indexed": true,
          "internalType": "address",
          "name": "account",
          "type": "address"
        },
        {
          "indexed": true,
          "internalType": "address",
          "name": "sender",
          "type": "address"
        }
      ],
      "name": "RoleRevoked",
      "type": "event"
    },
    {
      "anonymous": false,
      "inputs": [
        {
          "indexed": false,
          "internalType": "address",
          "name": "account",
          "type": "address"
        }
      ],
      "name": "Unpaused",
      "type": "event"
    },
    {
      "inputs": [],
      "name": "DEFAULT_ADMIN_ROLE",
      "outputs": [
        {
          "internalType": "bytes32",
          "name": "",
          "type": "bytes32"
        }
      ],
      "stateMutability": "view",
      "type": "function"
    },
    {
      "inputs": [],
      "name": "autoReturnRate",
      "outputs": [
        {
          "internalType": "uint256",
          "name": "",
          "type": "uint256"
        }
      ],
      "stateMutability": "view",
      "type": "function"
    },
    {
      "inputs": [
        {
          "internalType": "uint256",
          "name": "bctAmount",
          "type": "uint256"
        }
      ],
      "name": "bctToBusd",
      "outputs": [
        {
          "internalType": "uint256",
          "name": "",
          "type": "uint256"
        }
      ],
      "stateMutability": "view",
      "type": "function"
    },
    {
      "inputs": [
        {
          "internalType": "uint256",
          "name": "busdAmount",
          "type": "uint256"
        }
      ],
      "name": "busdToBct",
      "outputs": [
        {
          "internalType": "uint256",
          "name": "",
          "type": "uint256"
        }
      ],
      "stateMutability": "view",
      "type": "function"
    },
    {
      "inputs": [
        {
          "internalType": "uint256",
          "name": "nftId",
          "type": "uint256"
        },
        {
          "internalType": "uint256",
          "name": "levels",
          "type": "uint256"
        },
        {
          "internalType": "bool",
          "name": "withBusd",
          "type": "bool"
        }
      ],
      "name": "buyAgilityUp",
      "outputs": [],
      "stateMutability": "nonpayable",
      "type": "function"
    },
    {
      "inputs": [
        {
          "internalType": "uint256",
          "name": "squadId",
          "type": "uint256"
        },
        {
          "internalType": "bool",
          "name": "withBusd",
          "type": "bool"
        }
      ],
      "name": "buyExtraSlot",
      "outputs": [],
      "stateMutability": "nonpayable",
      "type": "function"
    },
    {
      "inputs": [
        {
          "internalType": "bool",
          "name": "withBusd",
          "type": "bool"
        }
      ],
      "name": "buyExtraSquad",
      "outputs": [],
      "stateMutability": "nonpayable",
      "type": "function"
    },
    {
      "inputs": [
        {
          "internalType": "uint256",
          "name": "nftId",
          "type": "uint256"
        }
      ],
      "name": "buyMaxOutRankAgility",
      "outputs": [],
      "stateMutability": "nonpayable",
      "type": "function"
    },
    {
      "inputs": [
        {
          "internalType": "uint256",
          "name": "levels",
          "type": "uint256"
        },
        {
          "internalType": "bool",
          "name": "withBusd",
          "type": "bool"
        }
      ],
      "name": "buyMentorLevel",
      "outputs": [],
      "stateMutability": "nonpayable",
      "type": "function"
    },
    {
      "inputs": [
        {
          "internalType": "uint256",
          "name": "nftId",
          "type": "uint256"
        },
        {
          "internalType": "uint256",
          "name": "ranks",
          "type": "uint256"
        }
      ],
      "name": "buyRankUp",
      "outputs": [],
      "stateMutability": "nonpayable",
      "type": "function"
    },
    {
      "inputs": [
        {
          "internalType": "uint256",
          "name": "nftId",
          "type": "uint256"
        },
        {
          "internalType": "uint256",
          "name": "skillIndex",
          "type": "uint256"
        },
        {
          "internalType": "uint256",
          "name": "levels",
          "type": "uint256"
        },
        {
          "internalType": "bool",
          "name": "withBusd",
          "type": "bool"
        }
      ],
      "name": "buySkillLevel",
      "outputs": [],
      "stateMutability": "nonpayable",
      "type": "function"
    },
    {
      "inputs": [],
      "name": "config",
      "outputs": [
        {
          "internalType": "uint256",
          "name": "autoReturnRate",
          "type": "uint256"
        },
        {
          "internalType": "uint256",
          "name": "cooldownInBlocks",
          "type": "uint256"
        },
        {
          "internalType": "uint256",
          "name": "depositBonus",
          "type": "uint256"
        },
        {
          "internalType": "uint256",
          "name": "rankUpPrice",
          "type": "uint256"
        },
        {
          "internalType": "uint256",
          "name": "agilityUpPrice",
          "type": "uint256"
        },
        {
          "internalType": "uint256",
          "name": "extraSquadPrice",
          "type": "uint256"
        },
        {
          "internalType": "uint256",
          "name": "mentorPrice",
          "type": "uint256"
        },
        {
          "internalType": "uint256",
          "name": "merchantPrice",
          "type": "uint256"
        },
        {
          "internalType": "uint256",
          "name": "skillPrice",
          "type": "uint256"
        },
        {
          "internalType": "uint256",
          "name": "ritualPrice",
          "type": "uint256"
        },
        {
          "internalType": "uint256",
          "name": "maxIntegrationType",
          "type": "uint256"
        }
      ],
      "stateMutability": "view",
      "type": "function"
    },
    {
      "inputs": [],
      "name": "contracts",
      "outputs": [
        {
          "internalType": "contract IMhdaoFarmUpgrades",
          "name": "farm",
          "type": "address"
        },
        {
          "internalType": "contract IMhdaoNft",
          "name": "nft",
          "type": "address"
        },
        {
          "internalType": "contract IStasher",
          "name": "stasher",
          "type": "address"
        },
        {
          "internalType": "contract IMhdaoMarketplace",
          "name": "marketplace",
          "type": "address"
        },
        {
          "internalType": "contract IMhdaoDnaManager",
          "name": "dnaManager",
          "type": "address"
        }
      ],
      "stateMutability": "view",
      "type": "function"
    },
    {
      "inputs": [
        {
          "internalType": "uint256",
          "name": "amount",
          "type": "uint256"
        }
      ],
      "name": "deposit",
      "outputs": [],
      "stateMutability": "nonpayable",
      "type": "function"
    },
    {
      "inputs": [
        {
          "internalType": "uint256",
          "name": "nftId",
          "type": "uint256"
        },
        {
          "internalType": "uint256",
          "name": "traitToExtract",
          "type": "uint256"
        },
        {
          "internalType": "uint256",
          "name": "squadToGetTrait",
          "type": "uint256"
        },
        {
          "internalType": "bool",
          "name": "withBusd",
          "type": "bool"
        }
      ],
      "name": "extractTrait",
      "outputs": [],
      "stateMutability": "nonpayable",
      "type": "function"
    },
    {
      "inputs": [
        {
          "internalType": "uint256",
          "name": "type_",
          "type": "uint256"
        },
        {
          "internalType": "uint256",
          "name": "rarity",
          "type": "uint256"
        },
        {
          "internalType": "uint256",
          "name": "currentAgility",
          "type": "uint256"
        },
        {
          "internalType": "uint256",
          "name": "levels",
          "type": "uint256"
        }
      ],
      "name": "getAgilityUpPrices",
      "outputs": [
        {
          "internalType": "uint256",
          "name": "bct",
          "type": "uint256"
        },
        {
          "internalType": "uint256",
          "name": "resourceCents",
          "type": "uint256"
        }
      ],
      "stateMutability": "view",
      "type": "function"
    },
    {
      "inputs": [
        {
          "internalType": "uint256",
          "name": "currentSize",
          "type": "uint256"
        },
        {
          "internalType": "uint256",
          "name": "squadBonus",
          "type": "uint256"
        }
      ],
      "name": "getExtraSlotPrices",
      "outputs": [
        {
          "internalType": "uint256",
          "name": "bct",
          "type": "uint256"
        },
        {
          "internalType": "uint256",
          "name": "resourceCents",
          "type": "uint256"
        }
      ],
      "stateMutability": "view",
      "type": "function"
    },
    {
      "inputs": [
        {
          "internalType": "uint256",
          "name": "currentSquads",
          "type": "uint256"
        }
      ],
      "name": "getExtraSquadPrices",
      "outputs": [
        {
          "internalType": "uint256",
          "name": "bct",
          "type": "uint256"
        },
        {
          "internalType": "uint256",
          "name": "resourceCents",
          "type": "uint256"
        }
      ],
      "stateMutability": "view",
      "type": "function"
    },
    {
      "inputs": [
        {
          "internalType": "uint256",
          "name": "type_",
          "type": "uint256"
        },
        {
          "internalType": "uint256",
          "name": "rarity",
          "type": "uint256"
        },
        {
          "internalType": "uint256",
          "name": "currentRank",
          "type": "uint256"
        },
        {
          "internalType": "uint256",
          "name": "currentAgility",
          "type": "uint256"
        }
      ],
      "name": "getMaxOutRankAgilityPrices",
      "outputs": [
        {
          "internalType": "uint256",
          "name": "bct",
          "type": "uint256"
        },
        {
          "internalType": "uint256",
          "name": "resourceCents",
          "type": "uint256"
        }
      ],
      "stateMutability": "view",
      "type": "function"
    },
    {
      "inputs": [],
      "name": "getMentorLevelPrices",
      "outputs": [
        {
          "internalType": "uint256",
          "name": "bct",
          "type": "uint256"
        },
        {
          "internalType": "uint256",
          "name": "resourceCents",
          "type": "uint256"
        }
      ],
      "stateMutability": "view",
      "type": "function"
    },
    {
      "inputs": [
        {
          "internalType": "uint256",
          "name": "type_",
          "type": "uint256"
        },
        {
          "internalType": "uint256",
          "name": "rarity",
          "type": "uint256"
        }
      ],
      "name": "getRankUpPrices",
      "outputs": [
        {
          "internalType": "uint256",
          "name": "bct",
          "type": "uint256"
        },
        {
          "internalType": "uint256",
          "name": "resourceCents",
          "type": "uint256"
        }
      ],
      "stateMutability": "view",
      "type": "function"
    },
    {
      "inputs": [
        {
          "internalType": "bytes32",
          "name": "role",
          "type": "bytes32"
        }
      ],
      "name": "getRoleAdmin",
      "outputs": [
        {
          "internalType": "bytes32",
          "name": "",
          "type": "bytes32"
        }
      ],
      "stateMutability": "view",
      "type": "function"
    },
    {
      "inputs": [
        {
          "internalType": "uint256",
          "name": "rarity",
          "type": "uint256"
        },
        {
          "internalType": "uint256",
          "name": "weight",
          "type": "uint256"
        },
        {
          "internalType": "uint256",
          "name": "levels",
          "type": "uint256"
        }
      ],
      "name": "getSkillLevelPrices",
      "outputs": [
        {
          "internalType": "uint256",
          "name": "bct",
          "type": "uint256"
        },
        {
          "internalType": "uint256",
          "name": "resourceCents",
          "type": "uint256"
        }
      ],
      "stateMutability": "view",
      "type": "function"
    },
    {
      "inputs": [
        {
          "internalType": "bytes32",
          "name": "role",
          "type": "bytes32"
        },
        {
          "internalType": "address",
          "name": "account",
          "type": "address"
        }
      ],
      "name": "grantRole",
      "outputs": [],
      "stateMutability": "nonpayable",
      "type": "function"
    },
    {
      "inputs": [
        {
          "internalType": "bytes32",
          "name": "role",
          "type": "bytes32"
        },
        {
          "internalType": "address",
          "name": "account",
          "type": "address"
        }
      ],
      "name": "hasRole",
      "outputs": [
        {
          "internalType": "bool",
          "name": "",
          "type": "bool"
        }
      ],
      "stateMutability": "view",
      "type": "function"
    },
    {
      "inputs": [
        {
          "internalType": "address",
          "name": "operator",
          "type": "address"
        }
      ],
      "name": "initialize",
      "outputs": [],
      "stateMutability": "nonpayable",
      "type": "function"
    },
    {
      "inputs": [],
      "name": "pause",
      "outputs": [],
      "stateMutability": "nonpayable",
      "type": "function"
    },
    {
      "inputs": [],
      "name": "paused",
      "outputs": [
        {
          "internalType": "bool",
          "name": "",
          "type": "bool"
        }
      ],
      "stateMutability": "view",
      "type": "function"
    },
    {
      "inputs": [],
      "name": "paymentContracts",
      "outputs": [
        {
          "internalType": "contract MHIERC20",
          "name": "bct",
          "type": "address"
        },
        {
          "internalType": "contract MHIERC20",
          "name": "busd",
          "type": "address"
        },
        {
          "internalType": "contract ICommunityPool",
          "name": "pool",
          "type": "address"
        },
        {
          "internalType": "contract IMhdaoFarmTransact_II",
          "name": "farm",
          "type": "address"
        }
      ],
      "stateMutability": "view",
      "type": "function"
    },
    {
      "inputs": [
        {
          "internalType": "address",
          "name": "tokenAddress",
          "type": "address"
        },
        {
          "internalType": "address",
          "name": "to",
          "type": "address"
        },
        {
          "internalType": "uint256",
          "name": "amount",
          "type": "uint256"
        }
      ],
      "name": "recoverERC20",
      "outputs": [],
      "stateMutability": "nonpayable",
      "type": "function"
    },
    {
      "inputs": [
        {
          "internalType": "bytes32",
          "name": "role",
          "type": "bytes32"
        },
        {
          "internalType": "address",
          "name": "account",
          "type": "address"
        }
      ],
      "name": "renounceRole",
      "outputs": [],
      "stateMutability": "nonpayable",
      "type": "function"
    },
    {
      "inputs": [
        {
          "internalType": "uint256",
          "name": "",
          "type": "uint256"
        }
      ],
      "name": "resources",
      "outputs": [
        {
          "internalType": "address",
          "name": "",
          "type": "address"
        }
      ],
      "stateMutability": "view",
      "type": "function"
    },
    {
      "inputs": [],
      "name": "resourcesCount",
      "outputs": [
        {
          "internalType": "uint256",
          "name": "",
          "type": "uint256"
        }
      ],
      "stateMutability": "view",
      "type": "function"
    },
    {
      "inputs": [
        {
          "internalType": "bytes32",
          "name": "role",
          "type": "bytes32"
        },
        {
          "internalType": "address",
          "name": "account",
          "type": "address"
        }
      ],
      "name": "revokeRole",
      "outputs": [],
      "stateMutability": "nonpayable",
      "type": "function"
    },
    {
      "inputs": [],
      "name": "scale",
      "outputs": [
        {
          "internalType": "uint256",
          "name": "",
          "type": "uint256"
        }
      ],
      "stateMutability": "view",
      "type": "function"
    },
    {
      "inputs": [
        {
          "internalType": "uint256",
          "name": "_autoReturnRate",
          "type": "uint256"
        }
      ],
      "name": "setAutoReturnRate",
      "outputs": [],
      "stateMutability": "nonpayable",
      "type": "function"
    },
    {
      "inputs": [
        {
          "components": [
            {
              "internalType": "uint256",
              "name": "autoReturnRate",
              "type": "uint256"
            },
            {
              "internalType": "uint256",
              "name": "cooldownInBlocks",
              "type": "uint256"
            },
            {
              "internalType": "uint256",
              "name": "depositBonus",
              "type": "uint256"
            },
            {
              "internalType": "uint256",
              "name": "rankUpPrice",
              "type": "uint256"
            },
            {
              "internalType": "uint256",
              "name": "agilityUpPrice",
              "type": "uint256"
            },
            {
              "internalType": "uint256",
              "name": "extraSquadPrice",
              "type": "uint256"
            },
            {
              "internalType": "uint256",
              "name": "mentorPrice",
              "type": "uint256"
            },
            {
              "internalType": "uint256",
              "name": "merchantPrice",
              "type": "uint256"
            },
            {
              "internalType": "uint256",
              "name": "skillPrice",
              "type": "uint256"
            },
            {
              "internalType": "uint256",
              "name": "ritualPrice",
              "type": "uint256"
            },
            {
              "internalType": "uint256",
              "name": "maxIntegrationType",
              "type": "uint256"
            }
          ],
          "internalType": "struct BkUpgradesV8.Config",
          "name": "_config",
          "type": "tuple"
        }
      ],
      "name": "setConfig",
      "outputs": [],
      "stateMutability": "nonpayable",
      "type": "function"
    },
    {
      "inputs": [
        {
          "internalType": "address",
          "name": "_farm",
          "type": "address"
        },
        {
          "internalType": "address",
          "name": "_nft",
          "type": "address"
        },
        {
          "internalType": "address",
          "name": "_stasher",
          "type": "address"
        },
        {
          "internalType": "address",
          "name": "_marketplace",
          "type": "address"
        },
        {
          "internalType": "address",
          "name": "_dnaManager",
          "type": "address"
        }
      ],
      "name": "setContracts",
      "outputs": [],
      "stateMutability": "nonpayable",
      "type": "function"
    },
    {
      "inputs": [
        {
          "internalType": "uint256",
          "name": "_scale",
          "type": "uint256"
        }
      ],
      "name": "setScale",
      "outputs": [],
      "stateMutability": "nonpayable",
      "type": "function"
    },
    {
      "inputs": [
        {
          "internalType": "uint256",
          "name": "squadId",
          "type": "uint256"
        },
        {
          "internalType": "uint256",
          "name": "newType",
          "type": "uint256"
        }
      ],
      "name": "setSquadType",
      "outputs": [],
      "stateMutability": "nonpayable",
      "type": "function"
    },
    {
      "inputs": [
        {
          "internalType": "address",
          "name": "_bct",
          "type": "address"
        },
        {
          "internalType": "address",
          "name": "_busd",
          "type": "address"
        },
        {
          "internalType": "address",
          "name": "_pool",
          "type": "address"
        },
        {
          "internalType": "address",
          "name": "_farm",
          "type": "address"
        },
        {
          "internalType": "address",
          "name": "_resourcesSource",
          "type": "address"
        },
        {
          "internalType": "uint256",
          "name": "_autoReturnRate",
          "type": "uint256"
        }
      ],
      "name": "setupPaymentModule",
      "outputs": [],
      "stateMutability": "nonpayable",
      "type": "function"
    },
    {
      "inputs": [
        {
          "internalType": "bytes4",
          "name": "interfaceId",
          "type": "bytes4"
        }
      ],
      "name": "supportsInterface",
      "outputs": [
        {
          "internalType": "bool",
          "name": "",
          "type": "bool"
        }
      ],
      "stateMutability": "view",
      "type": "function"
    },
    {
      "inputs": [],
      "name": "unpause",
      "outputs": [],
      "stateMutability": "nonpayable",
      "type": "function"
    },
    {
      "inputs": [
        {
          "internalType": "address",
          "name": "sourceContract",
          "type": "address"
        }
      ],
      "name": "updateResources",
      "outputs": [],
      "stateMutability": "nonpayable",
      "type": "function"
    }
  ],
  "bytecode": "0x608060405234801561001057600080fd5b5061482b806100206000396000f3fe608060405234801561001057600080fd5b50600436106102745760003560e01c80638587683511610151578063cf3da804116100c3578063ddee958311610087578063ddee958314610691578063e1f3c3d414610699578063e3d28ea1146106ac578063f4b93f45146106bf578063f51e181a146106d2578063f63bf8bd146106db57600080fd5b8063cf3da80414610632578063cfe5aa2814610645578063d547741f14610658578063da73d69c1461066b578063dd18f91b1461067e57600080fd5b8063b6b55f2511610115578063b6b55f25146105ca578063be505d08146105dd578063c3c87d53146105f0578063c429d34914610603578063c4d66de81461060c578063c53225761461061f57600080fd5b806385876835146105765780638c0dd9c51461058957806391d148541461059c578063a217fddf146105af578063a75faf5d146105b757600080fd5b80633c5b364c116101ea5780636721a4df116101ae5780636721a4df1461044a5780636c0f79b61461045d57806376a8612f146104c357806379502c55146104d65780637cf295511461055b5780638456cb591461056e57600080fd5b80633c5b364c146104085780633edc35191461041b5780633f4ba83a1461042e57806351ac7b8c146104365780635c975abb1461043f57600080fd5b8063248a9ca31161023c578063248a9ca31461032b5780632f2ff15d1461034e5780632f467f4e14610361578063323b6cb71461038957806336568abe146103e257806338d4588d146103f557600080fd5b806301ffc9a71461027957806305f18dcb146102a15780631171bda9146102b657806314d70ebe146102c9578063244d6daa146102ea575b600080fd5b61028c610287366004613a12565b6106ee565b60405190151581526020015b60405180910390f35b6102b46102af366004613a4a565b610725565b005b6102b46102c4366004613a8f565b61090c565b6102dc6102d7366004613ad0565b610935565b604051908152602001610298565b6103136102f8366004613ad0565b6001602052600090815260409020546001600160a01b031681565b6040516001600160a01b039091168152602001610298565b6102dc610339366004613ad0565b6000908152606c602052604090206001015490565b6102b461035c366004613ae9565b6109b5565b61037461036f366004613ad0565b6109df565b60408051928352602083019190915201610298565b6002546003546004546005546103af936001600160a01b03908116938116928116911684565b604080516001600160a01b0395861681529385166020850152918416918301919091529091166060820152608001610298565b6102b46103f0366004613ae9565b610a7a565b6102b4610403366004613b0e565b610a9d565b6102b4610416366004613b47565b610db4565b6102b4610429366004613ad0565b61112a565b6102b4611148565b6102dc60005481565b609e5460ff1661028c565b610374610458366004613b64565b61116b565b60db5460dc5460dd5460de5460df54610489946001600160a01b03908116948116938116928116911685565b604080516001600160a01b03968716815294861660208601529285169284019290925283166060830152909116608082015260a001610298565b6102b46104d1366004613b86565b611244565b60d05460d15460d25460d35460d45460d55460d65460d75460d85460d95460da546105089a999897969594939291908b565b604080519b8c5260208c019a909a52988a01979097526060890195909552608088019390935260a087019190915260c086015260e085015261010084015261012083015261014082015261016001610298565b6102b4610569366004613a4a565b6117af565b6102b4611929565b610374610584366004613bc7565b611949565b610374610597366004613bc7565b6119ca565b61028c6105aa366004613ae9565b611add565b6102dc600081565b6102b46105c5366004613cae565b611b08565b6102b46105d8366004613ad0565b611b7a565b6102b46105eb366004613b86565b611f81565b6102b46105fe366004613d41565b6123bc565b6102dc60065481565b6102b461061a366004613d41565b6123dd565b6102b461062d366004613b64565b612558565b6102b4610640366004613ad0565b6128c9565b6102b4610653366004613ad0565b612c51565b6102b4610666366004613ae9565b612c6f565b6102b4610679366004613b64565b612c94565b61037461068c366004613d5e565b612e78565b610374612ef0565b6103746106a7366004613b64565b612f2c565b6102dc6106ba366004613ad0565b612fce565b6102b46106cd366004613d8a565b613002565b6102dc60e05481565b6102b46106e9366004613e03565b613028565b60006001600160e01b03198216637965db0b60e01b148061071f57506301ffc9a760e01b6001600160e01b03198316145b92915050565b61072d6130c6565b60db54604051635c12cd4b60e01b81523360048201526000916001600160a01b031690635c12cd4b9060240160006040518083038186803b15801561077157600080fd5b505afa158015610785573d6000803e3d6000fd5b505050506040513d6000823e601f3d908101601f191682016040526107ad9190810190613f12565b9050600a838260a001516107c19190613fe2565b11156107cc57600080fd5b6000806107d7612ef0565b604080516002808252606082018352939550919350600092906020830190803683370190505090506108098683613ffa565b8160008151811061081c5761081c614019565b60209081029190910101526108318683613ffa565b8160018151811061084457610844614019565b602090810291909101015261088e61085c8785613ffa565b8260405180608001604052806001151581526020016000151581526020018915158152602001600015158152506130d8565b60db5460a08501516001600160a01b039091169063a46443ae9033906108b5908a90613fe2565b6040518363ffffffff1660e01b81526004016108d292919061402f565b600060405180830381600087803b1580156108ec57600080fd5b505af1158015610900573d6000803e3d6000fd5b50505050505050505050565b6000805160206147d68339815191526109248161345e565b61092f848484613468565b50505050565b6004805460405163526267fd60e11b81529182018390526000916001600160a01b039091169063a4c4cffa906024015b60206040518083038186803b15801561097d57600080fd5b505afa158015610991573d6000803e3d6000fd5b505050506040513d601f19601f8201168201806040525081019061071f9190614048565b6000828152606c60205260409020600101546109d08161345e565b6109da83836134e8565b505050565b60d554600090819081906109f4600386614061565b6109fe9190613ffa565b905060006003851115610a2657610a16600486614061565b610a2190600c613ffa565b610a29565b60005b90506002606460e05484670de0b6b3a7640000610a469190613ffa565b610a509190613ffa565b610a5a919061408e565b610a64919061408e565b610a6f826064613ffa565b935093505050915091565b6001600160a01b0381163314610a8f57600080fd5b610a99828261356e565b5050565b610aa56130c6565b60dc546040516341f63bfd60e01b8152600481018590526000916001600160a01b0316906341f63bfd9060240160006040518083038186803b158015610aea57600080fd5b505afa158015610afe573d6000803e3d6000fd5b505050506040513d6000823e601f3d908101601f19168201604052610b269190810190614139565b60dc546040516331a9108f60e11b81526004810187905291925033916001600160a01b0390911690636352211e9060240160206040518083038186803b158015610b6f57600080fd5b505afa158015610b83573d6000803e3d6000fd5b505050506040513d601f19601f82011682018060405250810190610ba79190614285565b6001600160a01b031614610bba57600080fd5b600683826101200151610bcd9190613fe2565b10610bd757600080fd5b60008311610be457600080fd5b60dc5460405163b95e593b60e01b81526004810186905260009182916001600160a01b039091169063b95e593b9060240160006040518083038186803b158015610c2d57600080fd5b505afa158015610c41573d6000803e3d6000fd5b505050506040513d6000823e601f3d908101601f19168201604052610c6991908101906142a2565b5091509150600080610c8283858761012001518a6119ca565b915091506000836001600160401b03811115610ca057610ca0613bf9565b604051908082528060200260200182016040528015610cc9578160200160208202803683370190505b5090508181610cd9600187614061565b81518110610ce957610ce9614019565b602002602001018181525050610d2b838260405180608001604052806001151581526020016000151581526020018b15158152602001600015158152506130d8565b60dc546101208701516001600160a01b0390911690632ca2aa1a908b90610d53908c90613fe2565b6040516001600160e01b031960e085901b16815260048101929092526024820152604401600060405180830381600087803b158015610d9157600080fd5b505af1158015610da5573d6000803e3d6000fd5b50505050505050505050505050565b610dbc6130c6565b60db54604051635c12cd4b60e01b81523360048201526000916001600160a01b031690635c12cd4b9060240160006040518083038186803b158015610e0057600080fd5b505afa158015610e14573d6000803e3d6000fd5b505050506040513d6000823e601f3d908101601f19168201604052610e3c9190810190613f12565b905060148160e001515110610e5057600080fd5b60dd54604051635c138c9d60e01b81523360048201526000916001600160a01b031690635c138c9d9060240160206040518083038186803b158015610e9457600080fd5b505afa158015610ea8573d6000803e3d6000fd5b505050506040513d601f19601f82011682018060405250810190610ecc91906142f1565b60ff1690508060018360e0015151610ee49190614061565b111580610ef2575060088110155b610efb57600080fd5b600080610f0c8460e00151516109df565b60408051600680825260e08201909252929450909250600091906020820160c0803683370190505090508181600581518110610f4a57610f4a614019565b602002602001018181525050610f8c838260405180608001604052806001151581526020016000151581526020018a15158152602001600015158152506130d8565b60028560e00151516001610fa09190613fe2565b610faa9190614314565b1561103a5760db5460405163c1b712c760e01b81526001600160a01b039091169063c1b712c790610fe290339060069060040161402f565b602060405180830381600087803b158015610ffc57600080fd5b505af1158015611010573d6000803e3d6000fd5b505050506040513d601f19601f820116820180604052508101906110349190614048565b50611122565b8460e00151516009148061105357508460e0015151600f145b8061106357508460e00151516013145b1561109b5760db5460405163c1b712c760e01b81526001600160a01b039091169063c1b712c790610fe290339060029060040161402f565b60db5460405163c1b712c760e01b81526001600160a01b039091169063c1b712c7906110ce90339060019060040161402f565b602060405180830381600087803b1580156110e857600080fd5b505af11580156110fc573d6000803e3d6000fd5b505050506040513d601f19601f820116820180604052508101906111209190614048565b505b505050505050565b6000805160206147d68339815191526111428161345e565b5060e055565b6000805160206147d68339815191526111608161345e565b6111686135d5565b50565b600080600080856003141561118757506127109050600b6111af565b856004141561119d5750613a98905060166111af565b85600514156111af57506161a89050602c5b60646111bb8682613fe2565b6111c59084613ffa565b6111cf919061408e565b915060646111dd8682613fe2565b6111e79083613ffa565b6111f1919061408e565b90506002606460e05484670de0b6b3a764000061120e9190613ffa565b6112189190613ffa565b611222919061408e565b61122c919061408e565b611237826064613ffa565b9350935050509250929050565b61124c6130c6565b60dc546040516331a9108f60e11b81526004810186905233916001600160a01b031690636352211e9060240160206040518083038186803b15801561129057600080fd5b505afa1580156112a4573d6000803e3d6000fd5b505050506040513d601f19601f820116820180604052508101906112c89190614285565b6001600160a01b0316146112db57600080fd5b60dc54604051630f2a280d60e21b8152600481018690526001600160a01b0390911690633ca8a0349060240160206040518083038186803b15801561131f57600080fd5b505afa158015611333573d6000803e3d6000fd5b505050506040513d601f19601f820116820180604052508101906113579190614328565b1561138f5760405162461bcd60e51b81526020600482015260036024820152626f6e5160e81b60448201526064015b60405180910390fd5b60dc5460405163b95e593b60e01b815260048101869052600091829182916001600160a01b03169063b95e593b9060240160006040518083038186803b1580156113d857600080fd5b505afa1580156113ec573d6000803e3d6000fd5b505050506040513d6000823e601f3d908101601f1916820160405261141491908101906142a2565b9250925092508051600414156114e15760408051600680825260e082019092526000916020820160c08036833701905050905060005b600481101561149c5782818151811061146557611465614019565b602002602001015182828151811061147f5761147f614019565b60209081029190910101528061149481614345565b91505061144a565b506000816004815181106114b2576114b2614019565b6020026020010181815250506000816005815181106114d3576114d3614019565b602090810291909101015290505b6005821161152e5760038611156114f757600080fd5b60058582888151811061150c5761150c614019565b602002602001015161151e9190613fe2565b111561152957600080fd5b611599565b600a821161155957600486111561154457600080fd5b60078582888151811061150c5761150c614019565b600586111561156757600080fd5b600a8582888151811061157c5761157c614019565b602002602001015161158e9190613fe2565b111561159957600080fd5b6000806115b1856115ab8a6001613fe2565b89612e78565b60408051601a8082526103608201909252929450909250600091906020820161034080368337019050509050886116105781816115ef600188614061565b815181106115ff576115ff614019565b6020026020010181815250506116c7565b88600114156116265781816115ef876004613fe2565b886002141561166457818161163c600188614061565b8151811061164c5761164c614019565b602090810291909101015281816115ef876004613fe2565b8860031415611681578181600a815181106115ff576115ff614019565b886004141561169d57818186815181106115ff576115ff614019565b81816116aa876005613fe2565b815181106116ba576116ba614019565b6020026020010181815250505b6116fd838260405180608001604052806001151581526020016000151581526020018b15158152602001600015158152506130d8565b87848a8151811061171057611710614019565b60200260200101516117229190613fe2565b848a8151811061173457611734614019565b602090810291909101015260dc546040516321005a3160e01b81526001600160a01b03909116906321005a3190611771908d90889060040161439b565b600060405180830381600087803b15801561178b57600080fd5b505af115801561179f573d6000803e3d6000fd5b5050505050505050505050505050565b6117b76130c6565b60db546040516334d074b360e11b8152600481018490526000916001600160a01b0316906369a0e9669060240160006040518083038186803b1580156117fc57600080fd5b505afa158015611810573d6000803e3d6000fd5b505050506040513d6000823e601f3d908101601f1916820160405261183891908101906143b4565b80519091506001600160a01b0316331461185157600080fd5b600681604001511061186257600080fd5b60008061187783604001518460a0015161116b565b6040805160078082526101008201909252929450909250600091906020820160e08036833701905050905081816006815181106118b6576118b6614019565b6020026020010181815250506118f8838260405180608001604052806001151581526020016000151581526020018915158152602001600015158152506130d8565b60db546040516346e2b20960e01b8152600481018890526001600160a01b03909116906346e2b209906024016108d2565b6000805160206147d68339815191526119418161345e565b611168613627565b6000806000806119598888612f2c565b9092509050611969866063614061565b6119739083613ffa565b9150611980866063614061565b61198a9082613ffa565b90506000806119a08a8a89610597816005614061565b90925090506119af8285613fe2565b6119b98285613fe2565b955095505050505094509492505050565b600080600586116119db57856119de565b60055b9550600060016119ef8760026145d0565b6119f99190614061565b6001611a068960026145d0565b611a109190614061565b60d454611a1d9190613ffa565b611a279190613ffa565b90506000855b611a378688613fe2565b811015611a7d576002611a4b826001613fe2565b611a5591906145dc565b611a5f9084613ffa565b611a699083613fe2565b915080611a7581614345565b915050611a2d565b506002606460e05483670de0b6b3a7640000611a999190613ffa565b611aa39190613ffa565b611aad919061408e565b611ab7919061408e565b6019611ac483600a613ffa565b611ace919061408e565b93509350505094509492505050565b6000918252606c602090815260408084206001600160a01b0393909316845291905290205460ff1690565b6000805160206147d6833981519152611b208161345e565b50805160d055602081015160d155604081015160d255606081015160d355608081015160d45560a081015160d55560c081015160d65560e081015160d75561010081015160d85561012081015160d955610140015160da55565b611b826130c6565b678ac7230489e800008111611bbd5760405162461bcd60e51b81526020600482015260016024820152603160f81b6044820152606401611386565b60025460405163079cc67960e41b81526001600160a01b03909116906379cc679090611bef903390859060040161402f565b600060405180830381600087803b158015611c0957600080fd5b505af1158015611c1d573d6000803e3d6000fd5b505060dd54604051635c138c9d60e01b8152336004820152600093506001600160a01b039091169150635c138c9d9060240160206040518083038186803b158015611c6757600080fd5b505afa158015611c7b573d6000803e3d6000fd5b505050506040513d601f19601f82011682018060405250810190611c9f91906142f1565b60db546040516359f827ad60e01b815233600482015260ff9290921692506000916001600160a01b03909116906359f827ad90602401604080518083038186803b158015611cec57600080fd5b505afa158015611d00573d6000803e3d6000fd5b505050506040513d601f19601f82011682018060405250810190611d2491906145eb565b915060009050611d35826005613ffa565b611d40846002613ffa565b611d4b906005613fe2565b611d5690600a613ffa565b611d609190613fe2565b905060006103e8611d718387613ffa565b611d7b919061408e565b611d859086613fe2565b90506000670de0b6b3a76400006103e8611da0886019613ffa565b611daa919061408e565b611db4919061408e565b6040805160158082526102c0820190925291925060009190602082016102a08036833701905050905060005b6010811015611e195782828281518110611dfc57611dfc614019565b602090810291909101015280611e1181614345565b915050611de0565b5069021e19e0c9bab24000008710611e7557670de0b6b3a7640000611e406127108961408e565b611e4a919061408e565b611e55906064613ffa565b81601381518110611e6857611e68614019565b6020026020010181815250505b690a968163f0a57b4000008710611ed057670de0b6b3a7640000611e9b61c3508961408e565b611ea5919061408e565b611eb0906064613ffa565b81601481518110611ec357611ec3614019565b6020026020010181815250505b60db546040516304567ca960e11b81526001600160a01b03909116906308acf95290611f0490339087908690600401614619565b600060405180830381600087803b158015611f1e57600080fd5b505af1158015611f32573d6000803e3d6000fd5b505060408051338152602081018b90529081018690527f90890809c654f11d6e72a28fa60149770a0d11ec6c92319d6ceb2bb0a4ea1a159250606001905060405180910390a150505050505050565b611f896130c6565b60dc546040516341f63bfd60e01b8152600481018690526000916001600160a01b0316906341f63bfd9060240160006040518083038186803b158015611fce57600080fd5b505afa158015611fe2573d6000803e3d6000fd5b505050506040513d6000823e601f3d908101601f1916820160405261200a9190810190614139565b60dc546040516331a9108f60e11b81526004810188905291925033916001600160a01b0390911690636352211e9060240160206040518083038186803b15801561205357600080fd5b505afa158015612067573d6000803e3d6000fd5b505050506040513d601f19601f8201168201806040525081019061208b9190614285565b6001600160a01b03161461209e57600080fd5b60db546040516334d074b360e11b8152600481018590526000916001600160a01b0316906369a0e9669060240160006040518083038186803b1580156120e357600080fd5b505afa1580156120f7573d6000803e3d6000fd5b505050506040513d6000823e601f3d908101601f1916820160405261211f91908101906143b4565b80519091506001600160a01b0316331461213857600080fd5b6101008101511561214857600080fd5b60058260a001511061215957600080fd5b6000805b8360c00151518110156121aa57868460c00151828151811061218157612181614019565b6020026020010151141561219857600191506121aa565b806121a281614345565b91505061215d565b50806121b557600080fd5b60dc5460405163079cc67960e41b81526001600160a01b03909116906379cc6790906121e79033908b9060040161402f565b600060405180830381600087803b15801561220157600080fd5b505af1158015612215573d6000803e3d6000fd5b5060009250600991506122259050565b60405190808252806020026020018201604052801561224e578160200160208202803683370190505b5090508360a0015160056122629190613ffa565b61226d90601e614061565b612278906064613ffa565b8160088151811061228b5761228b614019565b6020026020010181815250506122ef6002606460e0548760a001516103e86122b39190613ffa565b6122bf90611388614061565b6122d190670de0b6b3a7640000613ffa565b6122db9190613ffa565b6122e5919061408e565b61085c919061408e565b60db546040516314472f0560e01b815260048101889052602481018990526001600160a01b03909116906314472f0590604401600060405180830381600087803b15801561233c57600080fd5b505af1158015612350573d6000803e3d6000fd5b505060db54604051632da17b6560e21b8152600481018a90526001600160a01b03909116925063b685ed949150602401600060405180830381600087803b15801561239a57600080fd5b505af11580156123ae573d6000803e3d6000fd5b505050505050505050505050565b6000805160206147d68339815191526123d48161345e565b610a9982613664565b600754610100900460ff16158080156123fd5750600754600160ff909116105b806124175750303b158015612417575060075460ff166001145b61242057600080fd5b6007805460ff191660011790558015612443576007805461ff0019166101001790555b61244b613753565b612453613767565b61245e600083613783565b6124766000805160206147d683398151915283613783565b6040805161016081018252606480825260208201819052600392820183905260026060830181905260056080840181905261138860a0850181905261022660c0860181905260e08601859052607d61010087018190526019610120880181905261014090970188905260d086905560d186905560d288905560d39490945560d49290925560d55560d65560d79190915560d85560d95560da558015610a99576007805461ff0019169055604051600181527f7f26b83ff96e1f2b6a682f133852f6798a09c465da95921460cefb38474024989060200160405180910390a15050565b6125606130c6565b60dc546040516341f63bfd60e01b8152600481018490526000916001600160a01b0316906341f63bfd9060240160006040518083038186803b1580156125a557600080fd5b505afa1580156125b9573d6000803e3d6000fd5b505050506040513d6000823e601f3d908101601f191682016040526125e19190810190614139565b60dc546040516331a9108f60e11b81526004810186905291925033916001600160a01b0390911690636352211e9060240160206040518083038186803b15801561262a57600080fd5b505afa15801561263e573d6000803e3d6000fd5b505050506040513d601f19601f820116820180604052508101906126629190614285565b6001600160a01b03161461267557600080fd5b612680826064614061565b816101400151106126b75760405162461bcd60e51b81526020600482015260016024820152603760f81b6044820152606401611386565b60dc5460405163b95e593b60e01b81526004810185905260009182916001600160a01b039091169063b95e593b9060240160006040518083038186803b15801561270057600080fd5b505afa158015612714573d6000803e3d6000fd5b505050506040513d6000823e601f3d908101601f1916820160405261273c91908101906142a2565b509150915060008061274e8385612f2c565b915091506000836001600160401b0381111561276c5761276c613bf9565b604051908082528060200260200182016040528015612795578160200160208202803683370190505b5090506127a28783613ffa565b816127ae600187614061565b815181106127be576127be614019565b60209081029190910101526128016127d68885613ffa565b60408051608081018252600180825260208201526000918101829052606081019190915283906130d8565b60dc546101408701516001600160a01b0390911690630c2f2be7908a90612829908b90613fe2565b6040516001600160e01b031960e085901b16815260048101929092526024820152604401600060405180830381600087803b15801561286757600080fd5b505af115801561287b573d6000803e3d6000fd5b5050604080518b8152602081018b9052338183015290517f9f2ce95eb1432da7c0b3a6fcea410c7d3837578ef2f15d05c66ac088f95972359350908190036060019150a15050505050505050565b6128d16130c6565b60dc546040516341f63bfd60e01b8152600481018390526000916001600160a01b0316906341f63bfd9060240160006040518083038186803b15801561291657600080fd5b505afa15801561292a573d6000803e3d6000fd5b505050506040513d6000823e601f3d908101601f191682016040526129529190810190614139565b60dc546040516331a9108f60e11b81526004810185905291925033916001600160a01b0390911690636352211e9060240160206040518083038186803b15801561299b57600080fd5b505afa1580156129af573d6000803e3d6000fd5b505050506040513d601f19601f820116820180604052508101906129d39190614285565b6001600160a01b031614612a0d5760405162461bcd60e51b81526020600482015260016024820152603560f81b6044820152606401611386565b606381610140015110612a1f57600080fd5b600581610120015110612a3157600080fd5b60dc5460405163b95e593b60e01b81526004810184905260009182916001600160a01b039091169063b95e593b9060240160006040518083038186803b158015612a7a57600080fd5b505afa158015612a8e573d6000803e3d6000fd5b505050506040513d6000823e601f3d908101601f19168201604052612ab691908101906142a2565b5091509150600080612ad48385876101400151886101200151611949565b915091506000836001600160401b03811115612af257612af2613bf9565b604051908082528060200260200182016040528015612b1b578160200160208202803683370190505b5090508181612b2b600187614061565b81518110612b3b57612b3b614019565b602002602001018181525050612b7e83826040518060800160405280600115158152602001600115158152602001600015158152602001600015158152506130d8565b60dc54604051630c2f2be760e01b815260048101899052606360248201526001600160a01b0390911690630c2f2be790604401600060405180830381600087803b158015612bcb57600080fd5b505af1158015612bdf573d6000803e3d6000fd5b505060dc54604051631651550d60e11b8152600481018b9052600560248201526001600160a01b039091169250632ca2aa1a9150604401600060405180830381600087803b158015612c3057600080fd5b505af1158015612c44573d6000803e3d6000fd5b5050505050505050505050565b6000805160206147d6833981519152612c698161345e565b5060d055565b6000828152606c6020526040902060010154612c8a8161345e565b6109da838361356e565b612c9c6130c6565b60db546040516334d074b360e11b8152600481018490526000916001600160a01b0316906369a0e9669060240160006040518083038186803b158015612ce157600080fd5b505afa158015612cf5573d6000803e3d6000fd5b505050506040513d6000823e601f3d908101601f19168201604052612d1d91908101906143b4565b80519091506001600160a01b03163314612d3657600080fd5b60408051600a8082526101608201909252600091602082016101408036833701905050905060c881600981518110612d7057612d70614019565b602002602001018181525050612daf6002606460e05469021e19e0c9bab2400000612d9b9190613ffa565b612da5919061408e565b6127d6919061408e565b60db5460405163369cf5a760e21b815260048101869052602481018590526001600160a01b039091169063da73d69c90604401600060405180830381600087803b158015612dfc57600080fd5b505af1158015612e10573d6000803e3d6000fd5b505060db54604051632da17b6560e21b8152600481018890526001600160a01b03909116925063b685ed949150602401600060405180830381600087803b158015612e5a57600080fd5b505af1158015612e6e573d6000803e3d6000fd5b5050505050505050565b600080808385612e8988607d613ffa565b612e939190613ffa565b612e9d9190613ffa565b9050612eaa60058261408e565b91506002606460e05483670de0b6b3a7640000612ec79190613ffa565b612ed19190613ffa565b612edb919061408e565b612ee5919061408e565b925050935093915050565b6000806002606460e054681dd0c885f9a0d80000612f0e9190613ffa565b612f18919061408e565b612f22919061408e565b9261012c92509050565b60008060058411612f3d5783612f40565b60055b935060006001612f518560026145d0565b612f5b9190614061565b6001612f688760026145d0565b612f729190614061565b60d354612f7f9190613ffa565b612f899190613ffa565b90506002606460e05483670de0b6b3a7640000612fa69190613ffa565b612fb09190613ffa565b612fba919061408e565b612fc4919061408e565b9590945092505050565b60048054604051634ca1cccb60e11b81529182018390526000916001600160a01b0390911690639943999690602401610965565b6000805160206147d683398151915261301a8161345e565b61112087878787878761378d565b6000805160206147d68339815191526130408161345e565b6040805160a0810182526001600160a01b038089168083528189166020840181905282891694840185905282881660608501819052928716608090940184905260db80546001600160a01b0319908116909317905560dc80548316909117905560dd8054821690941790935560de80548416909117905560df8054909216179055611122565b609e5460ff16156130d657600080fd5b565b806040015115613216578060200151156130f157600080fd5b80516000906131005783613109565b61310984610935565b6003546040516323b872dd60e01b8152336004820152306024820152604481018390529192506001600160a01b0316906323b872dd90606401600060405180830381600087803b15801561315c57600080fd5b505af1158015613170573d6000803e3d6000fd5b5050505060006064826006546131869190613ffa565b613190919061408e565b60048054604051630d3990db60e21b81529293506001600160a01b0316916334e6436c916131c49185910190815260200190565b602060405180830381600087803b1580156131de57600080fd5b505af11580156131f2573d6000803e3d6000fd5b505050506040513d601f19601f820116820180604052508101906111229190614048565b80606001511561322557600080fd5b805160009061323c5761323784612fce565b61323e565b835b60055460405163b1918c9560e01b81529192506000916001600160a01b039091169063b1918c959061327890339086908990600401614619565b600060405180830381600087803b15801561329257600080fd5b505af11580156132a6573d6000803e3d6000fd5b505050506040513d6000823e601f3d908101601f191682016040526132ce9190810190614649565b90506000816000815181106132e5576132e5614019565b602002602001015111156133755760025481516001600160a01b03909116906379cc6790903390849060009061331d5761331d614019565b60200260200101516040518363ffffffff1660e01b815260040161334292919061402f565b600060405180830381600087803b15801561335c57600080fd5b505af1158015613370573d6000803e3d6000fd5b505050505b60015b815181101561112257600082828151811061339557613395614019565b6020026020010151111561344c57600160006133b18284614061565b815260200190815260200160002060009054906101000a90046001600160a01b03166001600160a01b03166379cc6790338484815181106133f4576133f4614019565b60200260200101516040518363ffffffff1660e01b815260040161341992919061402f565b600060405180830381600087803b15801561343357600080fd5b505af1158015613447573d6000803e3d6000fd5b505050505b8061345681614345565b915050613378565b6111688133613819565b60405163a9059cbb60e01b81526001600160a01b0384169063a9059cbb90613496908590859060040161402f565b602060405180830381600087803b1580156134b057600080fd5b505af11580156134c4573d6000803e3d6000fd5b505050506040513d601f19601f8201168201806040525081019061092f9190614328565b6134f28282611add565b610a99576000828152606c602090815260408083206001600160a01b03851684529091529020805460ff1916600117905561352a3390565b6001600160a01b0316816001600160a01b0316837f2f8788117e7eff1d82e926ec794901d17c78024a50270940304540a733656f0d60405160405180910390a45050565b6135788282611add565b15610a99576000828152606c602090815260408083206001600160a01b0385168085529252808320805460ff1916905551339285917ff6391f5c32d9c69d2a47ea670b442974b53935d1edc7fd64eb21e047a839171b9190a45050565b6135dd613872565b609e805460ff191690557f5db9ee0a495bf2e6ff9c91a7834c1ba4fdd244a5e8aa4e537bd38aeae4b073aa335b6040516001600160a01b03909116815260200160405180910390a1565b61362f6130c6565b609e805460ff191660011790557f62e78cea01bee320cd4e420270b5ea74000d11b0c9f74754ebdbfc544b05a25861360a3390565b60008190506000816001600160a01b031663c1cc57b06040518163ffffffff1660e01b815260040160006040518083038186803b1580156136a457600080fd5b505afa1580156136b8573d6000803e3d6000fd5b505050506040513d6000823e601f3d908101601f191682016040526136e0919081019061467d565b905060005b815181101561374a5781818151811061370057613700614019565b60209081029190910181015160008381526001909252604090912080546001600160a01b0319166001600160a01b039092169190911790558061374281614345565b9150506136e5565b50516000555050565b600754610100900460ff166130d657600080fd5b600754610100900460ff1661377b57600080fd5b6130d6613881565b610a9982826134e8565b600280546001600160a01b038089166001600160a01b031992831617909255600380548884169083161790556004805487841690831617905560058054928616929091169190911790556137e082613664565b600681905560035460405163095ea7b360e01b81526001600160a01b039091169063095ea7b3906108d29087906000199060040161402f565b6138238282611add565b610a9957613830816138a1565b61383b8360206138b3565b60405160200161384c929190614716565b60408051601f198184030181529082905262461bcd60e51b82526113869160040161478b565b609e5460ff166130d657600080fd5b600754610100900460ff1661389557600080fd5b609e805460ff19169055565b606061071f6001600160a01b03831660145b606060006138c2836002613ffa565b6138cd906002613fe2565b6001600160401b038111156138e4576138e4613bf9565b6040519080825280601f01601f19166020018201604052801561390e576020820181803683370190505b509050600360fc1b8160008151811061392957613929614019565b60200101906001600160f81b031916908160001a905350600f60fb1b8160018151811061395857613958614019565b60200101906001600160f81b031916908160001a905350600061397c846002613ffa565b613987906001613fe2565b90505b60018111156139ff576f181899199a1a9b1b9c1cb0b131b232b360811b85600f16601081106139bb576139bb614019565b1a60f81b8282815181106139d1576139d1614019565b60200101906001600160f81b031916908160001a90535060049490941c936139f8816147be565b905061398a565b508315613a0b57600080fd5b9392505050565b600060208284031215613a2457600080fd5b81356001600160e01b031981168114613a0b57600080fd5b801515811461116857600080fd5b60008060408385031215613a5d57600080fd5b823591506020830135613a6f81613a3c565b809150509250929050565b6001600160a01b038116811461116857600080fd5b600080600060608486031215613aa457600080fd5b8335613aaf81613a7a565b92506020840135613abf81613a7a565b929592945050506040919091013590565b600060208284031215613ae257600080fd5b5035919050565b60008060408385031215613afc57600080fd5b823591506020830135613a6f81613a7a565b600080600060608486031215613b2357600080fd5b83359250602084013591506040840135613b3c81613a3c565b809150509250925092565b600060208284031215613b5957600080fd5b8135613a0b81613a3c565b60008060408385031215613b7757600080fd5b50508035926020909101359150565b60008060008060808587031215613b9c57600080fd5b8435935060208501359250604085013591506060850135613bbc81613a3c565b939692955090935050565b60008060008060808587031215613bdd57600080fd5b5050823594602084013594506040840135936060013592509050565b634e487b7160e01b600052604160045260246000fd5b60405161016081016001600160401b0381118282101715613c3257613c32613bf9565b60405290565b60405161010081016001600160401b0381118282101715613c3257613c32613bf9565b6040516101c081016001600160401b0381118282101715613c3257613c32613bf9565b604051601f8201601f191681016001600160401b0381118282101715613ca657613ca6613bf9565b604052919050565b60006101608284031215613cc157600080fd5b613cc9613c0f565b823581526020830135602082015260408301356040820152606083013560608201526080830135608082015260a083013560a082015260c083013560c082015260e083013560e08201526101008084013581830152506101208084013581830152506101408084013581830152508091505092915050565b600060208284031215613d5357600080fd5b8135613a0b81613a7a565b600080600060608486031215613d7357600080fd5b505081359360208301359350604090920135919050565b60008060008060008060c08789031215613da357600080fd5b8635613dae81613a7a565b95506020870135613dbe81613a7a565b94506040870135613dce81613a7a565b93506060870135613dde81613a7a565b92506080870135613dee81613a7a565b8092505060a087013590509295509295509295565b600080600080600060a08688031215613e1b57600080fd5b8535613e2681613a7a565b94506020860135613e3681613a7a565b93506040860135613e4681613a7a565b92506060860135613e5681613a7a565b91506080860135613e6681613a7a565b809150509295509295909350565b8051613e7f81613a7a565b919050565b60006001600160401b03821115613e9d57613e9d613bf9565b5060051b60200190565b600082601f830112613eb857600080fd5b81516020613ecd613ec883613e84565b613c7e565b82815260059290921b84018101918181019086841115613eec57600080fd5b8286015b84811015613f075780518352918301918301613ef0565b509695505050505050565b600060208284031215613f2457600080fd5b81516001600160401b0380821115613f3b57600080fd5b908301906101008286031215613f5057600080fd5b613f58613c38565b82518152602083015160208201526040830151604082015260608301516060820152613f8660808401613e74565b608082015260a083015160a082015260c083015160c082015260e083015182811115613fb157600080fd5b613fbd87828601613ea7565b60e08301525095945050505050565b634e487b7160e01b600052601160045260246000fd5b60008219821115613ff557613ff5613fcc565b500190565b600081600019048311821515161561401457614014613fcc565b500290565b634e487b7160e01b600052603260045260246000fd5b6001600160a01b03929092168252602082015260400190565b60006020828403121561405a57600080fd5b5051919050565b60008282101561407357614073613fcc565b500390565b634e487b7160e01b600052601260045260246000fd5b60008261409d5761409d614078565b500490565b60005b838110156140bd5781810151838201526020016140a5565b8381111561092f5750506000910152565b600082601f8301126140df57600080fd5b81516001600160401b038111156140f8576140f8613bf9565b61410b601f8201601f1916602001613c7e565b81815284602083860101111561412057600080fd5b6141318260208301602087016140a2565b949350505050565b60006020828403121561414b57600080fd5b81516001600160401b038082111561416257600080fd5b908301906101c0828603121561417757600080fd5b61417f613c5b565b8251815260208301518281111561419557600080fd5b6141a1878286016140ce565b6020830152506040830151828111156141b957600080fd5b6141c5878286016140ce565b6040830152506141d760608401613e74565b60608201526080830151608082015260a083015160a082015260c08301518281111561420257600080fd5b61420e87828601613ea7565b60c08301525060e08301518281111561422657600080fd5b61423287828601613ea7565b60e083015250610100838101519082015261012080840151908201526101408084015190820152610160808401519082015261018080840151908201526101a09283015192810192909252509392505050565b60006020828403121561429757600080fd5b8151613a0b81613a7a565b6000806000606084860312156142b757600080fd5b835192506020840151915060408401516001600160401b038111156142db57600080fd5b6142e786828701613ea7565b9150509250925092565b60006020828403121561430357600080fd5b815160ff81168114613a0b57600080fd5b60008261432357614323614078565b500690565b60006020828403121561433a57600080fd5b8151613a0b81613a3c565b600060001982141561435957614359613fcc565b5060010190565b600081518084526020808501945080840160005b8381101561439057815187529582019590820190600101614374565b509495945050505050565b8281526040602082015260006141316040830184614360565b6000602082840312156143c657600080fd5b81516001600160401b03808211156143dd57600080fd5b908301906101c082860312156143f257600080fd5b6143fa613c5b565b61440383613e74565b81526020830151602082015260408301516040820152606083015160608201526080830151608082015260a083015160a082015260c083015160c082015260e083015160e0820152610100808401518183015250610120808401518183015250610140808401518183015250610160808401518381111561448357600080fd5b61448f88828701613ea7565b82840152505061018080840151838111156144a957600080fd5b6144b588828701613ea7565b8284015250506101a080840151838111156144cf57600080fd5b6144db88828701613ea7565b918301919091525095945050505050565b600181815b8085111561452757816000190482111561450d5761450d613fcc565b8085161561451a57918102915b93841c93908002906144f1565b509250929050565b60008261453e5750600161071f565b8161454b5750600061071f565b8160018114614561576002811461456b57614587565b600191505061071f565b60ff84111561457c5761457c613fcc565b50506001821b61071f565b5060208310610133831016604e8410600b84101617156145aa575081810a61071f565b6145b483836144ec565b80600019048211156145c8576145c8613fcc565b029392505050565b6000613a0b838361452f565b6000613a0b60ff84168361452f565b600080604083850312156145fe57600080fd5b825161460981613a7a565b6020939093015192949293505050565b60018060a01b03841681528260208201526060604082015260006146406060830184614360565b95945050505050565b60006020828403121561465b57600080fd5b81516001600160401b0381111561467157600080fd5b61413184828501613ea7565b6000602080838503121561469057600080fd5b82516001600160401b038111156146a657600080fd5b8301601f810185136146b757600080fd5b80516146c5613ec882613e84565b81815260059190911b820183019083810190878311156146e457600080fd5b928401925b8284101561470b5783516146fc81613a7a565b825292840192908401906146e9565b979650505050505050565b7f416363657373436f6e74726f6c3a206163636f756e742000000000000000000081526000835161474e8160178501602088016140a2565b7001034b99036b4b9b9b4b733903937b6329607d1b601791840191820152835161477f8160288401602088016140a2565b01602801949350505050565b60208152600082518060208401526147aa8160408501602087016140a2565b601f01601f19169190910160400192915050565b6000816147cd576147cd613fcc565b50600019019056fe97667070c54ef182b0f5858b034beac1b6f3089aa2d3188bb1e8929f4fa9b929a2646970667358221220080f022688e92e6c9ddfccacc40cef5df89709df138d434a9f3400069ca6953064736f6c63430008090033",
  "linkReferences": {},
  "deployedLinkReferences": {}
}