{
  "_format": "hh-sol-artifact-1",
  "contractName": "BkNft",
  "sourceName": "contracts/erc721/BkNft.sol",
  "abi": [
    {
      "anonymous": false,
      "inputs": [
        {
          "indexed": true,
          "internalType": "address",
          "name": "owner",
          "type": "address"
        },
        {
          "indexed": true,
          "internalType": "address",
          "name": "approved",
          "type": "address"
        },
        {
          "indexed": true,
          "internalType": "uint256",
          "name": "tokenId",
          "type": "uint256"
        }
      ],
      "name": "Approval",
      "type": "event"
    },
    {
      "anonymous": false,
      "inputs": [
        {
          "indexed": true,
          "internalType": "address",
          "name": "owner",
          "type": "address"
        },
        {
          "indexed": true,
          "internalType": "address",
          "name": "operator",
          "type": "address"
        },
        {
          "indexed": false,
          "internalType": "bool",
          "name": "approved",
          "type": "bool"
        }
      ],
      "name": "ApprovalForAll",
      "type": "event"
    },
    {
      "anonymous": false,
      "inputs": [
        {
          "indexed": false,
          "internalType": "uint8",
          "name": "version",
          "type": "uint8"
        }
      ],
      "name": "Initialized",
      "type": "event"
    },
    {
      "anonymous": false,
      "inputs": [
        {
          "indexed": false,
          "internalType": "address",
          "name": "account",
          "type": "address"
        }
      ],
      "name": "Paused",
      "type": "event"
    },
    {
      "anonymous": false,
      "inputs": [
        {
          "indexed": true,
          "internalType": "bytes32",
          "name": "role",
          "type": "bytes32"
        },
        {
          "indexed": true,
          "internalType": "bytes32",
          "name": "previousAdminRole",
          "type": "bytes32"
        },
        {
          "indexed": true,
          "internalType": "bytes32",
          "name": "newAdminRole",
          "type": "bytes32"
        }
      ],
      "name": "RoleAdminChanged",
      "type": "event"
    },
    {
      "anonymous": false,
      "inputs": [
        {
          "indexed": true,
          "internalType": "bytes32",
          "name": "role",
          "type": "bytes32"
        },
        {
          "indexed": true,
          "internalType": "address",
          "name": "account",
          "type": "address"
        },
        {
          "indexed": true,
          "internalType": "address",
          "name": "sender",
          "type": "address"
        }
      ],
      "name": "RoleGranted",
      "type": "event"
    },
    {
      "anonymous": false,
      "inputs": [
        {
          "indexed": true,
          "internalType": "bytes32",
          "name": "role",
          "type": "bytes32"
        },
        {
          "indexed": true,
          "internalType": "address",
          "name": "account",
          "type": "address"
        },
        {
          "indexed": true,
          "internalType": "address",
          "name": "sender",
          "type": "address"
        }
      ],
      "name": "RoleRevoked",
      "type": "event"
    },
    {
      "anonymous": false,
      "inputs": [
        {
          "indexed": true,
          "internalType": "address",
          "name": "from",
          "type": "address"
        },
        {
          "indexed": true,
          "internalType": "address",
          "name": "to",
          "type": "address"
        },
        {
          "indexed": true,
          "internalType": "uint256",
          "name": "tokenId",
          "type": "uint256"
        }
      ],
      "name": "Transfer",
      "type": "event"
    },
    {
      "anonymous": false,
      "inputs": [
        {
          "indexed": false,
          "internalType": "address",
          "name": "account",
          "type": "address"
        }
      ],
      "name": "Unpaused",
      "type": "event"
    },
    {
      "inputs": [],
      "name": "DEFAULT_ADMIN_ROLE",
      "outputs": [
        {
          "internalType": "bytes32",
          "name": "",
          "type": "bytes32"
        }
      ],
      "stateMutability": "view",
      "type": "function"
    },
    {
      "inputs": [
        {
          "internalType": "string",
          "name": "_name",
          "type": "string"
        },
        {
          "internalType": "string",
          "name": "_symbol",
          "type": "string"
        },
        {
          "internalType": "string",
          "name": "_baseTokenURI",
          "type": "string"
        },
        {
          "internalType": "address",
          "name": "_operator",
          "type": "address"
        },
        {
          "internalType": "address",
          "name": "_blocklistAddress",
          "type": "address"
        }
      ],
      "name": "__AdminUpgradeableERC721_init",
      "outputs": [],
      "stateMutability": "nonpayable",
      "type": "function"
    },
    {
      "inputs": [
        {
          "internalType": "address",
          "name": "to",
          "type": "address"
        },
        {
          "internalType": "uint256",
          "name": "tokenId",
          "type": "uint256"
        }
      ],
      "name": "approve",
      "outputs": [],
      "stateMutability": "nonpayable",
      "type": "function"
    },
    {
      "inputs": [
        {
          "internalType": "uint256",
          "name": "tokenId",
          "type": "uint256"
        },
        {
          "internalType": "uint256",
          "name": "attribute",
          "type": "uint256"
        }
      ],
      "name": "attributeOf",
      "outputs": [
        {
          "internalType": "uint256",
          "name": "",
          "type": "uint256"
        }
      ],
      "stateMutability": "view",
      "type": "function"
    },
    {
      "inputs": [
        {
          "internalType": "uint256",
          "name": "tokenId",
          "type": "uint256"
        }
      ],
      "name": "attributesAndSkillsOf",
      "outputs": [
        {
          "internalType": "uint256[]",
          "name": "",
          "type": "uint256[]"
        },
        {
          "internalType": "uint256[]",
          "name": "",
          "type": "uint256[]"
        }
      ],
      "stateMutability": "view",
      "type": "function"
    },
    {
      "inputs": [
        {
          "internalType": "uint256",
          "name": "tokenId",
          "type": "uint256"
        }
      ],
      "name": "attributesOf",
      "outputs": [
        {
          "internalType": "uint256[]",
          "name": "",
          "type": "uint256[]"
        }
      ],
      "stateMutability": "view",
      "type": "function"
    },
    {
      "inputs": [
        {
          "internalType": "address",
          "name": "owner",
          "type": "address"
        }
      ],
      "name": "balanceOf",
      "outputs": [
        {
          "internalType": "uint256",
          "name": "",
          "type": "uint256"
        }
      ],
      "stateMutability": "view",
      "type": "function"
    },
    {
      "inputs": [],
      "name": "baseTokenURI",
      "outputs": [
        {
          "internalType": "string",
          "name": "",
          "type": "string"
        }
      ],
      "stateMutability": "view",
      "type": "function"
    },
    {
      "inputs": [
        {
          "internalType": "uint256",
          "name": "",
          "type": "uint256"
        }
      ],
      "name": "bkChars",
      "outputs": [
        {
          "internalType": "uint256",
          "name": "id",
          "type": "uint256"
        },
        {
          "internalType": "string",
          "name": "name",
          "type": "string"
        },
        {
          "internalType": "string",
          "name": "imageUrl",
          "type": "string"
        },
        {
          "internalType": "address",
          "name": "currentOwner",
          "type": "address"
        },
        {
          "internalType": "uint256",
          "name": "squadId",
          "type": "uint256"
        },
        {
          "internalType": "uint256",
          "name": "collection",
          "type": "uint256"
        },
        {
          "internalType": "uint256",
          "name": "baseFarm",
          "type": "uint256"
        },
        {
          "internalType": "uint256",
          "name": "farmPerBlock",
          "type": "uint256"
        },
        {
          "internalType": "bool",
          "name": "isDead",
          "type": "bool"
        }
      ],
      "stateMutability": "view",
      "type": "function"
    },
    {
      "inputs": [],
      "name": "blocklist",
      "outputs": [
        {
          "internalType": "contract IBlocklist",
          "name": "",
          "type": "address"
        }
      ],
      "stateMutability": "view",
      "type": "function"
    },
    {
      "inputs": [
        {
          "internalType": "address",
          "name": "account",
          "type": "address"
        },
        {
          "internalType": "uint256",
          "name": "tokenId",
          "type": "uint256"
        }
      ],
      "name": "burnFrom",
      "outputs": [],
      "stateMutability": "nonpayable",
      "type": "function"
    },
    {
      "inputs": [
        {
          "internalType": "uint256",
          "name": "tokenId",
          "type": "uint256"
        }
      ],
      "name": "collectionOf",
      "outputs": [
        {
          "internalType": "uint256",
          "name": "",
          "type": "uint256"
        }
      ],
      "stateMutability": "view",
      "type": "function"
    },
    {
      "inputs": [],
      "name": "farm",
      "outputs": [
        {
          "internalType": "contract FarmSimplified",
          "name": "",
          "type": "address"
        }
      ],
      "stateMutability": "view",
      "type": "function"
    },
    {
      "inputs": [
        {
          "internalType": "uint256",
          "name": "tokenId",
          "type": "uint256"
        }
      ],
      "name": "farmPerBlockOf",
      "outputs": [
        {
          "internalType": "uint256",
          "name": "",
          "type": "uint256"
        }
      ],
      "stateMutability": "view",
      "type": "function"
    },
    {
      "inputs": [
        {
          "internalType": "uint256",
          "name": "tokenId",
          "type": "uint256"
        }
      ],
      "name": "getApproved",
      "outputs": [
        {
          "internalType": "address",
          "name": "",
          "type": "address"
        }
      ],
      "stateMutability": "view",
      "type": "function"
    },
    {
      "inputs": [
        {
          "internalType": "uint256",
          "name": "tokenId",
          "type": "uint256"
        }
      ],
      "name": "getNft",
      "outputs": [
        {
          "components": [
            {
              "internalType": "uint256",
              "name": "id",
              "type": "uint256"
            },
            {
              "internalType": "string",
              "name": "name",
              "type": "string"
            },
            {
              "internalType": "string",
              "name": "imageUrl",
              "type": "string"
            },
            {
              "internalType": "address",
              "name": "currentOwner",
              "type": "address"
            },
            {
              "internalType": "uint256",
              "name": "squadId",
              "type": "uint256"
            },
            {
              "internalType": "uint256",
              "name": "collection",
              "type": "uint256"
            },
            {
              "internalType": "uint256",
              "name": "baseFarm",
              "type": "uint256"
            },
            {
              "internalType": "uint256",
              "name": "farmPerBlock",
              "type": "uint256"
            },
            {
              "internalType": "uint256[]",
              "name": "attributes",
              "type": "uint256[]"
            },
            {
              "internalType": "uint256[]",
              "name": "traits",
              "type": "uint256[]"
            },
            {
              "internalType": "uint256[]",
              "name": "skills",
              "type": "uint256[]"
            },
            {
              "internalType": "bool",
              "name": "isDead",
              "type": "bool"
            }
          ],
          "internalType": "struct IBkChar.BkChar",
          "name": "",
          "type": "tuple"
        }
      ],
      "stateMutability": "view",
      "type": "function"
    },
    {
      "inputs": [
        {
          "internalType": "uint256[]",
          "name": "tokenIds",
          "type": "uint256[]"
        }
      ],
      "name": "getNfts",
      "outputs": [
        {
          "components": [
            {
              "internalType": "uint256",
              "name": "id",
              "type": "uint256"
            },
            {
              "internalType": "string",
              "name": "name",
              "type": "string"
            },
            {
              "internalType": "string",
              "name": "imageUrl",
              "type": "string"
            },
            {
              "internalType": "address",
              "name": "currentOwner",
              "type": "address"
            },
            {
              "internalType": "uint256",
              "name": "squadId",
              "type": "uint256"
            },
            {
              "internalType": "uint256",
              "name": "collection",
              "type": "uint256"
            },
            {
              "internalType": "uint256",
              "name": "baseFarm",
              "type": "uint256"
            },
            {
              "internalType": "uint256",
              "name": "farmPerBlock",
              "type": "uint256"
            },
            {
              "internalType": "uint256[]",
              "name": "attributes",
              "type": "uint256[]"
            },
            {
              "internalType": "uint256[]",
              "name": "traits",
              "type": "uint256[]"
            },
            {
              "internalType": "uint256[]",
              "name": "skills",
              "type": "uint256[]"
            },
            {
              "internalType": "bool",
              "name": "isDead",
              "type": "bool"
            }
          ],
          "internalType": "struct IBkChar.BkChar[]",
          "name": "",
          "type": "tuple[]"
        }
      ],
      "stateMutability": "view",
      "type": "function"
    },
    {
      "inputs": [
        {
          "internalType": "bytes32",
          "name": "role",
          "type": "bytes32"
        }
      ],
      "name": "getRoleAdmin",
      "outputs": [
        {
          "internalType": "bytes32",
          "name": "",
          "type": "bytes32"
        }
      ],
      "stateMutability": "view",
      "type": "function"
    },
    {
      "inputs": [
        {
          "internalType": "bytes32",
          "name": "role",
          "type": "bytes32"
        },
        {
          "internalType": "address",
          "name": "account",
          "type": "address"
        }
      ],
      "name": "grantRole",
      "outputs": [],
      "stateMutability": "nonpayable",
      "type": "function"
    },
    {
      "inputs": [],
      "name": "hasBlocklist",
      "outputs": [
        {
          "internalType": "bool",
          "name": "",
          "type": "bool"
        }
      ],
      "stateMutability": "view",
      "type": "function"
    },
    {
      "inputs": [
        {
          "internalType": "bytes32",
          "name": "role",
          "type": "bytes32"
        },
        {
          "internalType": "address",
          "name": "account",
          "type": "address"
        }
      ],
      "name": "hasRole",
      "outputs": [
        {
          "internalType": "bool",
          "name": "",
          "type": "bool"
        }
      ],
      "stateMutability": "view",
      "type": "function"
    },
    {
      "inputs": [
        {
          "internalType": "string",
          "name": "_name",
          "type": "string"
        },
        {
          "internalType": "string",
          "name": "_symbol",
          "type": "string"
        },
        {
          "internalType": "string",
          "name": "_baseTokenURI",
          "type": "string"
        },
        {
          "internalType": "address",
          "name": "_operator",
          "type": "address"
        },
        {
          "internalType": "address",
          "name": "_blocklistAddress",
          "type": "address"
        }
      ],
      "name": "initialize",
      "outputs": [],
      "stateMutability": "nonpayable",
      "type": "function"
    },
    {
      "inputs": [
        {
          "internalType": "address",
          "name": "owner",
          "type": "address"
        },
        {
          "internalType": "address",
          "name": "operator",
          "type": "address"
        }
      ],
      "name": "isApprovedForAll",
      "outputs": [
        {
          "internalType": "bool",
          "name": "",
          "type": "bool"
        }
      ],
      "stateMutability": "view",
      "type": "function"
    },
    {
      "inputs": [
        {
          "internalType": "uint256",
          "name": "tokenId",
          "type": "uint256"
        }
      ],
      "name": "isInSquad",
      "outputs": [
        {
          "internalType": "bool",
          "name": "",
          "type": "bool"
        }
      ],
      "stateMutability": "view",
      "type": "function"
    },
    {
      "inputs": [
        {
          "internalType": "uint256",
          "name": "tokenId",
          "type": "uint256"
        }
      ],
      "name": "isOnQuest",
      "outputs": [
        {
          "internalType": "bool",
          "name": "",
          "type": "bool"
        }
      ],
      "stateMutability": "view",
      "type": "function"
    },
    {
      "inputs": [
        {
          "internalType": "address",
          "name": "to",
          "type": "address"
        },
        {
          "components": [
            {
              "internalType": "uint256",
              "name": "id",
              "type": "uint256"
            },
            {
              "internalType": "string",
              "name": "name",
              "type": "string"
            },
            {
              "internalType": "string",
              "name": "imageUrl",
              "type": "string"
            },
            {
              "internalType": "address",
              "name": "currentOwner",
              "type": "address"
            },
            {
              "internalType": "uint256",
              "name": "squadId",
              "type": "uint256"
            },
            {
              "internalType": "uint256",
              "name": "collection",
              "type": "uint256"
            },
            {
              "internalType": "uint256",
              "name": "baseFarm",
              "type": "uint256"
            },
            {
              "internalType": "uint256",
              "name": "farmPerBlock",
              "type": "uint256"
            },
            {
              "internalType": "uint256[]",
              "name": "attributes",
              "type": "uint256[]"
            },
            {
              "internalType": "uint256[]",
              "name": "traits",
              "type": "uint256[]"
            },
            {
              "internalType": "uint256[]",
              "name": "skills",
              "type": "uint256[]"
            },
            {
              "internalType": "bool",
              "name": "isDead",
              "type": "bool"
            }
          ],
          "internalType": "struct IBkChar.BkChar[]",
          "name": "characters",
          "type": "tuple[]"
        }
      ],
      "name": "migrate",
      "outputs": [],
      "stateMutability": "nonpayable",
      "type": "function"
    },
    {
      "inputs": [
        {
          "internalType": "address",
          "name": "to",
          "type": "address"
        },
        {
          "components": [
            {
              "internalType": "uint256",
              "name": "id",
              "type": "uint256"
            },
            {
              "internalType": "string",
              "name": "name",
              "type": "string"
            },
            {
              "internalType": "string",
              "name": "imageUrl",
              "type": "string"
            },
            {
              "internalType": "address",
              "name": "currentOwner",
              "type": "address"
            },
            {
              "internalType": "uint256",
              "name": "squadId",
              "type": "uint256"
            },
            {
              "internalType": "uint256",
              "name": "collection",
              "type": "uint256"
            },
            {
              "internalType": "uint256",
              "name": "baseFarm",
              "type": "uint256"
            },
            {
              "internalType": "uint256",
              "name": "farmPerBlock",
              "type": "uint256"
            },
            {
              "internalType": "uint256[]",
              "name": "attributes",
              "type": "uint256[]"
            },
            {
              "internalType": "uint256[]",
              "name": "traits",
              "type": "uint256[]"
            },
            {
              "internalType": "uint256[]",
              "name": "skills",
              "type": "uint256[]"
            },
            {
              "internalType": "bool",
              "name": "isDead",
              "type": "bool"
            }
          ],
          "internalType": "struct IBkChar.BkChar",
          "name": "character",
          "type": "tuple"
        }
      ],
      "name": "mint",
      "outputs": [],
      "stateMutability": "nonpayable",
      "type": "function"
    },
    {
      "inputs": [
        {
          "internalType": "address",
          "name": "to",
          "type": "address"
        }
      ],
      "name": "mintTo",
      "outputs": [],
      "stateMutability": "nonpayable",
      "type": "function"
    },
    {
      "inputs": [],
      "name": "name",
      "outputs": [
        {
          "internalType": "string",
          "name": "",
          "type": "string"
        }
      ],
      "stateMutability": "view",
      "type": "function"
    },
    {
      "inputs": [
        {
          "internalType": "address",
          "name": "_owner",
          "type": "address"
        }
      ],
      "name": "nftsOfOwner",
      "outputs": [
        {
          "components": [
            {
              "internalType": "uint256",
              "name": "id",
              "type": "uint256"
            },
            {
              "internalType": "string",
              "name": "name",
              "type": "string"
            },
            {
              "internalType": "string",
              "name": "imageUrl",
              "type": "string"
            },
            {
              "internalType": "address",
              "name": "currentOwner",
              "type": "address"
            },
            {
              "internalType": "uint256",
              "name": "squadId",
              "type": "uint256"
            },
            {
              "internalType": "uint256",
              "name": "collection",
              "type": "uint256"
            },
            {
              "internalType": "uint256",
              "name": "baseFarm",
              "type": "uint256"
            },
            {
              "internalType": "uint256",
              "name": "farmPerBlock",
              "type": "uint256"
            },
            {
              "internalType": "uint256[]",
              "name": "attributes",
              "type": "uint256[]"
            },
            {
              "internalType": "uint256[]",
              "name": "traits",
              "type": "uint256[]"
            },
            {
              "internalType": "uint256[]",
              "name": "skills",
              "type": "uint256[]"
            },
            {
              "internalType": "bool",
              "name": "isDead",
              "type": "bool"
            }
          ],
          "internalType": "struct IBkChar.BkChar[]",
          "name": "",
          "type": "tuple[]"
        }
      ],
      "stateMutability": "view",
      "type": "function"
    },
    {
      "inputs": [
        {
          "internalType": "uint256",
          "name": "tokenId",
          "type": "uint256"
        }
      ],
      "name": "ownerOf",
      "outputs": [
        {
          "internalType": "address",
          "name": "",
          "type": "address"
        }
      ],
      "stateMutability": "view",
      "type": "function"
    },
    {
      "inputs": [],
      "name": "pause",
      "outputs": [],
      "stateMutability": "nonpayable",
      "type": "function"
    },
    {
      "inputs": [],
      "name": "paused",
      "outputs": [
        {
          "internalType": "bool",
          "name": "",
          "type": "bool"
        }
      ],
      "stateMutability": "view",
      "type": "function"
    },
    {
      "inputs": [
        {
          "internalType": "uint256",
          "name": "",
          "type": "uint256"
        }
      ],
      "name": "rarityAndTypeFactor",
      "outputs": [
        {
          "internalType": "uint256",
          "name": "",
          "type": "uint256"
        }
      ],
      "stateMutability": "view",
      "type": "function"
    },
    {
      "inputs": [
        {
          "internalType": "bytes32",
          "name": "role",
          "type": "bytes32"
        },
        {
          "internalType": "address",
          "name": "account",
          "type": "address"
        }
      ],
      "name": "renounceRole",
      "outputs": [],
      "stateMutability": "nonpayable",
      "type": "function"
    },
    {
      "inputs": [
        {
          "internalType": "bytes32",
          "name": "role",
          "type": "bytes32"
        },
        {
          "internalType": "address",
          "name": "account",
          "type": "address"
        }
      ],
      "name": "revokeRole",
      "outputs": [],
      "stateMutability": "nonpayable",
      "type": "function"
    },
    {
      "inputs": [
        {
          "internalType": "address",
          "name": "from",
          "type": "address"
        },
        {
          "internalType": "address",
          "name": "to",
          "type": "address"
        },
        {
          "internalType": "uint256",
          "name": "tokenId",
          "type": "uint256"
        }
      ],
      "name": "safeTransferFrom",
      "outputs": [],
      "stateMutability": "nonpayable",
      "type": "function"
    },
    {
      "inputs": [
        {
          "internalType": "address",
          "name": "from",
          "type": "address"
        },
        {
          "internalType": "address",
          "name": "to",
          "type": "address"
        },
        {
          "internalType": "uint256",
          "name": "tokenId",
          "type": "uint256"
        },
        {
          "internalType": "bytes",
          "name": "data",
          "type": "bytes"
        }
      ],
      "name": "safeTransferFrom",
      "outputs": [],
      "stateMutability": "nonpayable",
      "type": "function"
    },
    {
      "inputs": [
        {
          "internalType": "address",
          "name": "operator",
          "type": "address"
        },
        {
          "internalType": "bool",
          "name": "approved",
          "type": "bool"
        }
      ],
      "name": "setApprovalForAll",
      "outputs": [],
      "stateMutability": "nonpayable",
      "type": "function"
    },
    {
      "inputs": [
        {
          "internalType": "uint256",
          "name": "tokenId",
          "type": "uint256"
        },
        {
          "internalType": "uint256",
          "name": "attribute",
          "type": "uint256"
        },
        {
          "internalType": "uint256",
          "name": "value",
          "type": "uint256"
        }
      ],
      "name": "setAttribute",
      "outputs": [],
      "stateMutability": "nonpayable",
      "type": "function"
    },
    {
      "inputs": [
        {
          "internalType": "uint256",
          "name": "tokenId",
          "type": "uint256"
        },
        {
          "internalType": "uint256[]",
          "name": "attributes",
          "type": "uint256[]"
        }
      ],
      "name": "setAttributes",
      "outputs": [],
      "stateMutability": "nonpayable",
      "type": "function"
    },
    {
      "inputs": [
        {
          "internalType": "uint256",
          "name": "tokenId",
          "type": "uint256"
        },
        {
          "internalType": "uint256[]",
          "name": "attributes",
          "type": "uint256[]"
        },
        {
          "internalType": "uint256",
          "name": "newBaseFarm",
          "type": "uint256"
        }
      ],
      "name": "setAttributesAndBaseFarm",
      "outputs": [],
      "stateMutability": "nonpayable",
      "type": "function"
    },
    {
      "inputs": [
        {
          "internalType": "uint256",
          "name": "tokenId",
          "type": "uint256"
        },
        {
          "internalType": "uint256[]",
          "name": "attributes",
          "type": "uint256[]"
        },
        {
          "internalType": "uint256[]",
          "name": "skills",
          "type": "uint256[]"
        }
      ],
      "name": "setAttributesAndSkills",
      "outputs": [],
      "stateMutability": "nonpayable",
      "type": "function"
    },
    {
      "inputs": [
        {
          "internalType": "uint256",
          "name": "tokenId",
          "type": "uint256"
        },
        {
          "internalType": "uint256[]",
          "name": "attributes",
          "type": "uint256[]"
        },
        {
          "internalType": "uint256",
          "name": "newBaseFarm",
          "type": "uint256"
        },
        {
          "internalType": "uint256[]",
          "name": "skills",
          "type": "uint256[]"
        }
      ],
      "name": "setAttributesBaseFarmAndSkills",
      "outputs": [],
      "stateMutability": "nonpayable",
      "type": "function"
    },
    {
      "inputs": [
        {
          "internalType": "uint256",
          "name": "tokenId",
          "type": "uint256"
        },
        {
          "internalType": "uint256",
          "name": "newBaseFarm",
          "type": "uint256"
        }
      ],
      "name": "setBaseFarm",
      "outputs": [],
      "stateMutability": "nonpayable",
      "type": "function"
    },
    {
      "inputs": [
        {
          "internalType": "string",
          "name": "_baseTokenURI",
          "type": "string"
        }
      ],
      "name": "setBaseTokenURI",
      "outputs": [],
      "stateMutability": "nonpayable",
      "type": "function"
    },
    {
      "inputs": [
        {
          "internalType": "uint256",
          "name": "tokenId",
          "type": "uint256"
        },
        {
          "internalType": "uint256",
          "name": "newCollection",
          "type": "uint256"
        }
      ],
      "name": "setCollection",
      "outputs": [],
      "stateMutability": "nonpayable",
      "type": "function"
    },
    {
      "inputs": [
        {
          "internalType": "address",
          "name": "_farm",
          "type": "address"
        }
      ],
      "name": "setFarm",
      "outputs": [],
      "stateMutability": "nonpayable",
      "type": "function"
    },
    {
      "inputs": [
        {
          "internalType": "uint256",
          "name": "tokenId",
          "type": "uint256"
        },
        {
          "internalType": "string",
          "name": "newName",
          "type": "string"
        },
        {
          "internalType": "string",
          "name": "newImageUrl",
          "type": "string"
        }
      ],
      "name": "setNameAndImage",
      "outputs": [],
      "stateMutability": "nonpayable",
      "type": "function"
    },
    {
      "inputs": [
        {
          "internalType": "uint256",
          "name": "tokenId",
          "type": "uint256"
        },
        {
          "internalType": "uint256[]",
          "name": "_skills",
          "type": "uint256[]"
        }
      ],
      "name": "setSkills",
      "outputs": [],
      "stateMutability": "nonpayable",
      "type": "function"
    },
    {
      "inputs": [
        {
          "internalType": "uint256",
          "name": "tokenId",
          "type": "uint256"
        },
        {
          "internalType": "uint256",
          "name": "squadId",
          "type": "uint256"
        }
      ],
      "name": "setSquad",
      "outputs": [],
      "stateMutability": "nonpayable",
      "type": "function"
    },
    {
      "inputs": [
        {
          "internalType": "uint256",
          "name": "tokenId",
          "type": "uint256"
        },
        {
          "internalType": "uint256[]",
          "name": "traits",
          "type": "uint256[]"
        }
      ],
      "name": "setTraits",
      "outputs": [],
      "stateMutability": "nonpayable",
      "type": "function"
    },
    {
      "inputs": [
        {
          "internalType": "uint256",
          "name": "tokenId",
          "type": "uint256"
        }
      ],
      "name": "squadOf",
      "outputs": [
        {
          "internalType": "uint256",
          "name": "",
          "type": "uint256"
        }
      ],
      "stateMutability": "view",
      "type": "function"
    },
    {
      "inputs": [
        {
          "internalType": "bytes4",
          "name": "interfaceId",
          "type": "bytes4"
        }
      ],
      "name": "supportsInterface",
      "outputs": [
        {
          "internalType": "bool",
          "name": "",
          "type": "bool"
        }
      ],
      "stateMutability": "view",
      "type": "function"
    },
    {
      "inputs": [],
      "name": "symbol",
      "outputs": [
        {
          "internalType": "string",
          "name": "",
          "type": "string"
        }
      ],
      "stateMutability": "view",
      "type": "function"
    },
    {
      "inputs": [
        {
          "internalType": "uint256",
          "name": "index",
          "type": "uint256"
        }
      ],
      "name": "tokenByIndex",
      "outputs": [
        {
          "internalType": "uint256",
          "name": "",
          "type": "uint256"
        }
      ],
      "stateMutability": "view",
      "type": "function"
    },
    {
      "inputs": [],
      "name": "tokenIdTracker",
      "outputs": [
        {
          "internalType": "uint256",
          "name": "",
          "type": "uint256"
        }
      ],
      "stateMutability": "view",
      "type": "function"
    },
    {
      "inputs": [
        {
          "internalType": "address",
          "name": "owner",
          "type": "address"
        },
        {
          "internalType": "uint256",
          "name": "index",
          "type": "uint256"
        }
      ],
      "name": "tokenOfOwnerByIndex",
      "outputs": [
        {
          "internalType": "uint256",
          "name": "",
          "type": "uint256"
        }
      ],
      "stateMutability": "view",
      "type": "function"
    },
    {
      "inputs": [
        {
          "internalType": "uint256",
          "name": "tokenId",
          "type": "uint256"
        }
      ],
      "name": "tokenURI",
      "outputs": [
        {
          "internalType": "string",
          "name": "",
          "type": "string"
        }
      ],
      "stateMutability": "view",
      "type": "function"
    },
    {
      "inputs": [
        {
          "internalType": "address",
          "name": "_owner",
          "type": "address"
        }
      ],
      "name": "tokensOfOwner",
      "outputs": [
        {
          "internalType": "uint256[]",
          "name": "",
          "type": "uint256[]"
        }
      ],
      "stateMutability": "view",
      "type": "function"
    },
    {
      "inputs": [],
      "name": "totalSupply",
      "outputs": [
        {
          "internalType": "uint256",
          "name": "",
          "type": "uint256"
        }
      ],
      "stateMutability": "view",
      "type": "function"
    },
    {
      "inputs": [
        {
          "internalType": "uint256",
          "name": "tokenId",
          "type": "uint256"
        }
      ],
      "name": "traitsOf",
      "outputs": [
        {
          "internalType": "uint256[]",
          "name": "",
          "type": "uint256[]"
        }
      ],
      "stateMutability": "view",
      "type": "function"
    },
    {
      "inputs": [
        {
          "internalType": "address",
          "name": "from",
          "type": "address"
        },
        {
          "internalType": "address",
          "name": "to",
          "type": "address"
        },
        {
          "internalType": "uint256",
          "name": "tokenId",
          "type": "uint256"
        }
      ],
      "name": "transferFrom",
      "outputs": [],
      "stateMutability": "nonpayable",
      "type": "function"
    },
    {
      "inputs": [],
      "name": "unpause",
      "outputs": [],
      "stateMutability": "nonpayable",
      "type": "function"
    }
  ],
  "bytecode": "0x608060405234801561001057600080fd5b50614f0a806100206000396000f3fe608060405234801561001057600080fd5b50600436106103d05760003560e01c8063755edd17116101ff578063c7778baa1161011a578063d64e5396116100ad578063e2a9d72e1161007c578063e2a9d72e146108d2578063e985e9c5146108fa578063ed6be91f14610936578063fd5eea4e1461094957600080fd5b8063d64e539614610885578063d6d0faee14610899578063de71b067146108ac578063e011b44a146108bf57600080fd5b8063cbaab6dc116100e9578063cbaab6dc14610844578063d4f26c5114610857578063d547741f1461086a578063d547cfb71461087d57600080fd5b8063c7778baa146107d9578063c7b84f8f146107fd578063c87b56dd1461081e578063c99efaa01461083157600080fd5b806395d89b4111610192578063b88d4fde11610161578063b88d4fde1461077c578063bd7a2d541461078f578063c31e99b6146107a2578063c3fe4e20146107b557600080fd5b806395d89b4114610746578063a217fddf1461074e578063a22cb46514610756578063b3d84ae81461076957600080fd5b806386931e49116101ce57806386931e49146106fa57806388d210f01461070d57806391d1485414610720578063949755851461073357600080fd5b8063755edd17146106b957806379cc6790146106cc5780638456cb59146106df5780638462151c146106e757600080fd5b80633ca8a034116102ef5780635efab6e41161028257806366cb49601161025157806366cb49601461065c57806366dbd6be1461066f578063698c9d7e1461068257806370a08231146106a657600080fd5b80635efab6e41461060157806362875b8414610614578063634210f4146106345780636352211e1461064957600080fd5b80634f6ccce7116102be5780634f6ccce7146105aa57806353017bd1146105bd5780635751907b146105e35780635c975abb146105f657600080fd5b80633ca8a0341461055c5780633f4ba83a1461056f57806341f63bfd1461057757806342842e0e1461059757600080fd5b806321005a31116103675780632f745c59116103365780632f745c591461050f57806330176e131461052257806336568abe1461053557806336e9332d1461054857600080fd5b806321005a31146104b357806323b872dd146104c6578063248a9ca3146104d95780632f2ff15d146104fc57600080fd5b8063081812fc116103a3578063081812fc1461044b57806309363c4414610476578063095ea7b31461049657806318160ddd146104ab57600080fd5b806301ffc9a7146103d557806302bf3d56146103fd57806304d3a6661461041557806306fdde0314610436575b600080fd5b6103e86103e3366004613e87565b61095c565b60405190151581526020015b60405180910390f35b61040761012e5481565b6040519081526020016103f4565b610428610423366004613ea4565b61096d565b6040516103f4929190613ef8565b61043e610a35565b6040516103f49190613f7e565b61045e610459366004613ea4565b610ac7565b6040516001600160a01b0390911681526020016103f4565b610489610484366004613ea4565b610aee565b6040516103f49190613f91565b6104a96104a4366004613fc0565b610b54565b005b609954610407565b6104a96104c13660046140e7565b610c6f565b6104a96104d436600461412d565b610cb3565b6104076104e7366004613ea4565b600090815260c9602052604090206001015490565b6104a961050a366004614169565b610ce4565b61040761051d366004613fc0565b610d09565b6104a961053036600461420c565b610d9f565b6104a9610543366004614169565b610dcb565b6101305461045e906001600160a01b031681565b6103e861056a366004613ea4565b610e49565b6104a9610efb565b61058a610585366004613ea4565b610f26565b6040516103f49190614332565b6104a96105a536600461412d565b6111f2565b6104076105b8366004613ea4565b61120d565b6103e86105cb366004613ea4565b60009081526101316020526040902060040154151590565b6104076105f1366004614345565b6112a0565b60fb5460ff166103e8565b61048961060f366004613ea4565b6112d7565b610627610622366004614367565b61133b565b6040516103f49190614382565b61012d546103e890600160a01b900460ff1681565b61045e610657366004613ea4565b6113f0565b6104a961066a3660046143e4565b611450565b6104a961067d3660046145ac565b6114cd565b610407610690366004613ea4565b6000908152610131602052604090206007015490565b6104076106b4366004614367565b6114fc565b6104a96106c7366004614367565b611582565b6104a96106da366004613fc0565b6115b5565b6104a961162f565b6104896106f5366004614367565b611657565b6104a96107083660046145ef565b6116f0565b6104a961071b3660046140e7565b61175f565b6103e861072e366004614169565b6117cd565b6104a961074136600461465b565b6117f8565b61043e61185d565b610407600081565b6104a96107643660046146bd565b61186c565b6104a9610777366004614345565b611877565b6104a961078a3660046146f4565b6118d6565b6104a961079d366004614763565b611908565b6106276107b03660046147b2565b611965565b6104076107c3366004613ea4565b6000908152610131602052604090206004015490565b6104076107e7366004613ea4565b6000908152610131602052604090206005015490565b61040761080b366004613ea4565b6101326020526000908152604090205481565b61043e61082c366004613ea4565b611cda565b6104a961083f3660046147e6565b611d76565b6104a96108523660046140e7565b611e22565b6104a9610865366004614367565b611e90565b6104a9610878366004614169565b611ecc565b61043e611ef1565b61012d5461045e906001600160a01b031681565b6104a96108a73660046147e6565b611f80565b6104a96108ba366004614345565b61212a565b6104a96108cd36600461488f565b612160565b6108e56108e0366004613ea4565b6121e6565b6040516103f499989796959493929190614952565b6103e86109083660046149c0565b6001600160a01b039182166000908152606a6020908152604080832093909416825291909152205460ff1690565b6104a9610944366004614345565b61234e565b6104a96109573660046149ea565b6123b6565b600061096782612430565b92915050565b6000818152610131602090815260409182902060088101805484518185028101850190955280855260609485949293600a0192909184918301828280156109d357602002820191906000526020600020905b8154815260200190600101908083116109bf575b5050505050915080805480602002602001604051908101604052809291908181526020018280548015610a2557602002820191906000526020600020905b815481526020019060010190808311610a11575b5050505050905091509150915091565b606060658054610a4490614a16565b80601f0160208091040260200160405190810160405280929190818152602001828054610a7090614a16565b8015610abd5780601f10610a9257610100808354040283529160200191610abd565b820191906000526020600020905b815481529060010190602001808311610aa057829003601f168201915b5050505050905090565b6000610ad282612455565b506000908152606960205260409020546001600160a01b031690565b60008181526101316020908152604091829020600801805483518184028101840190945280845260609392830182828015610b4857602002820191906000526020600020905b815481526020019060010190808311610b34575b50505050509050919050565b6000610b5f826113f0565b9050806001600160a01b0316836001600160a01b03161415610bd25760405162461bcd60e51b815260206004820152602160248201527f4552433732313a20617070726f76616c20746f2063757272656e74206f776e656044820152603960f91b60648201526084015b60405180910390fd5b336001600160a01b0382161480610bee5750610bee8133610908565b610c605760405162461bcd60e51b815260206004820152603d60248201527f4552433732313a20617070726f76652063616c6c6572206973206e6f7420746f60448201527f6b656e206f776e6572206f7220617070726f76656420666f7220616c6c0000006064820152608401610bc9565b610c6a83836124b4565b505050565b600080516020614e95833981519152610c8781612522565b6000838152610131602090815260409091208351610cad92600a90920191850190613d32565b50505050565b610cbd338261252c565b610cd95760405162461bcd60e51b8152600401610bc990614a51565b610c6a8383836125ab565b600082815260c96020526040902060010154610cff81612522565b610c6a838361271c565b6000610d14836114fc565b8210610d765760405162461bcd60e51b815260206004820152602b60248201527f455243373231456e756d657261626c653a206f776e657220696e646578206f7560448201526a74206f6620626f756e647360a81b6064820152608401610bc9565b506001600160a01b03919091166000908152609760209081526040808320938352929052205490565b600080516020614eb5833981519152610db781612522565b8151610c6a9061012f906020850190613d7d565b6001600160a01b0381163314610e3b5760405162461bcd60e51b815260206004820152602f60248201527f416363657373436f6e74726f6c3a2063616e206f6e6c792072656e6f756e636560448201526e103937b632b9903337b91039b2b63360891b6064820152608401610bc9565b610e4582826127a2565b5050565b60008181526101316020526040812060040154610e6857506000919050565b6101305460008381526101316020526040908190206004908101549151637c2c1b1d60e01b8152908101919091526001600160a01b0390911690637c2c1b1d9060240160206040518083038186803b158015610ec357600080fd5b505afa158015610ed7573d6000803e3d6000fd5b505050506040513d601f19601f820116820180604052508101906109679190614a9e565b600080516020614eb5833981519152610f1381612522565b610f1b612809565b610f23612854565b50565b610f2e613df0565b61013160008381526020019081526020016000206040518061018001604052908160008201548152602001600182018054610f6890614a16565b80601f0160208091040260200160405190810160405280929190818152602001828054610f9490614a16565b8015610fe15780601f10610fb657610100808354040283529160200191610fe1565b820191906000526020600020905b815481529060010190602001808311610fc457829003601f168201915b50505050508152602001600282018054610ffa90614a16565b80601f016020809104026020016040519081016040528092919081815260200182805461102690614a16565b80156110735780601f1061104857610100808354040283529160200191611073565b820191906000526020600020905b81548152906001019060200180831161105657829003601f168201915b505050505081526020016003820160009054906101000a90046001600160a01b03166001600160a01b03166001600160a01b03168152602001600482015481526020016005820154815260200160068201548152602001600782015481526020016008820180548060200260200160405190810160405280929190818152602001828054801561112257602002820191906000526020600020905b81548152602001906001019080831161110e575b505050505081526020016009820180548060200260200160405190810160405280929190818152602001828054801561117a57602002820191906000526020600020905b815481526020019060010190808311611166575b50505050508152602001600a82018054806020026020016040519081016040528092919081815260200182805480156111d257602002820191906000526020600020905b8154815260200190600101908083116111be575b5050509183525050600b919091015460ff16151560209091015292915050565b610c6a838383604051806020016040528060008152506118d6565b600061121860995490565b821061127b5760405162461bcd60e51b815260206004820152602c60248201527f455243373231456e756d657261626c653a20676c6f62616c20696e646578206f60448201526b7574206f6620626f756e647360a01b6064820152608401610bc9565b6099828154811061128e5761128e614abb565b90600052602060002001549050919050565b6000828152610131602052604081206008018054839081106112c4576112c4614abb565b9060005260206000200154905092915050565b60008181526101316020908152604091829020600901805483518184028101840190945280845260609392830182828015610b485760200282019190600052602060002090815481526020019060010190808311610b345750505050509050919050565b60606000611348836114fc565b90506000816001600160401b0381111561136457611364613fea565b60405190808252806020026020018201604052801561139d57816020015b61138a613df0565b8152602001906001900390816113825790505b50905060005b828110156113e8576113b86105858683610d09565b8282815181106113ca576113ca614abb565b602002602001018190525080806113e090614ae7565b9150506113a3565b509392505050565b6000818152606760205260408120546001600160a01b0316806109675760405162461bcd60e51b8152602060048201526018602482015277115490cdcc8c4e881a5b9d985b1a59081d1bdad95b88125160421b6044820152606401610bc9565b600080516020614e9583398151915261146881612522565b600085815261013160209081526040909120855161148e92600890920191870190613d32565b506000858152610131602090815260409091206006810185905583516114bc92600a90920191850190613d32565b506114c6856128a6565b5050505050565b600080516020614e958339815191526114e581612522565b6114f3838361012e546128cb565b610c6a83612b12565b60006001600160a01b0382166115665760405162461bcd60e51b815260206004820152602960248201527f4552433732313a2061646472657373207a65726f206973206e6f7420612076616044820152683634b21037bbb732b960b91b6064820152608401610bc9565b506001600160a01b031660009081526068602052604090205490565b7f9f2df0fed2c77648de5860a4cc508cd0818c85b8b8a1ab4ceeef8d981c8956a66115ac81612522565b610e4582612b12565b816001600160a01b03166115c8826113f0565b6001600160a01b0316146116065760405162461bcd60e51b815260206004820152600560248201526437bbb732b960d91b6044820152606401610bc9565b61160f81612b34565b600090815261013160205260409020600b01805460ff1916600117905550565b600080516020614eb583398151915261164781612522565b61164f612bd7565b610f23612c1d565b60606000611664836114fc565b90506000816001600160401b0381111561168057611680613fea565b6040519080825280602002602001820160405280156116a9578160200160208202803683370190505b50905060005b828110156113e8576116c18582610d09565b8282815181106116d3576116d3614abb565b6020908102919091010152806116e881614ae7565b9150506116af565b600080516020614e9583398151915261170881612522565b600084815261013160209081526040909120845161172e92600890920191860190613d32565b50600084815261013160209081526040909120835161175592600a90920191850190613d32565b50610cad846128a6565b600080516020614e9583398151915261177781612522565b61178083610e49565b1561179d5760405162461bcd60e51b8152600401610bc990614b02565b60008381526101316020908152604090912083516117c392600990920191850190613d32565b50610c6a83612c5a565b600091825260c9602090815260408084206001600160a01b0393909316845291905290205460ff1690565b600080516020614e9583398151915261181081612522565b600084815261013160209081526040909120845161183692600190920191860190613d7d565b5060008481526101316020908152604090912083516114c692600290920191850190613d7d565b606060668054610a4490614a16565b610e45338383612ce3565b600080516020614e9583398151915261188f81612522565b60008381526101316020526040902060040154156118bf5760405162461bcd60e51b8152600401610bc990614b1f565b506000918252610131602052604090912060050155565b6118e0338361252c565b6118fc5760405162461bcd60e51b8152600401610bc990614a51565b610cad84848484612db2565b600080516020614e9583398151915261192081612522565b600084815261013160209081526040909120845161194692600890920191860190613d32565b50600084815261013160205260409020600601829055610cad846128a6565b6060600082516001600160401b0381111561198257611982613fea565b6040519080825280602002602001820160405280156119bb57816020015b6119a8613df0565b8152602001906001900390816119a05790505b50905060005b8351811015611cd35761013160008583815181106119e1576119e1614abb565b602002602001015181526020019081526020016000206040518061018001604052908160008201548152602001600182018054611a1d90614a16565b80601f0160208091040260200160405190810160405280929190818152602001828054611a4990614a16565b8015611a965780601f10611a6b57610100808354040283529160200191611a96565b820191906000526020600020905b815481529060010190602001808311611a7957829003601f168201915b50505050508152602001600282018054611aaf90614a16565b80601f0160208091040260200160405190810160405280929190818152602001828054611adb90614a16565b8015611b285780601f10611afd57610100808354040283529160200191611b28565b820191906000526020600020905b815481529060010190602001808311611b0b57829003601f168201915b505050505081526020016003820160009054906101000a90046001600160a01b03166001600160a01b03166001600160a01b031681526020016004820154815260200160058201548152602001600682015481526020016007820154815260200160088201805480602002602001604051908101604052809291908181526020018280548015611bd757602002820191906000526020600020905b815481526020019060010190808311611bc3575b5050505050815260200160098201805480602002602001604051908101604052809291908181526020018280548015611c2f57602002820191906000526020600020905b815481526020019060010190808311611c1b575b50505050508152602001600a8201805480602002602001604051908101604052809291908181526020018280548015611c8757602002820191906000526020600020905b815481526020019060010190808311611c73575b5050509183525050600b919091015460ff1615156020909101528251839083908110611cb557611cb5614abb565b60200260200101819052508080611ccb90614ae7565b9150506119c1565b5092915050565b600081815261013160205260409020600201805460609190611cfb90614a16565b80601f0160208091040260200160405190810160405280929190818152602001828054611d2790614a16565b8015610b485780601f10611d4957610100808354040283529160200191610b48565b820191906000526020600020905b815481529060010190602001808311611d575750939695505050505050565b600054610100900460ff16611d9d5760405162461bcd60e51b8152600401610bc990614b40565b611da78585612de5565b611daf612e16565b611db7612e3d565b611de38161012d80546001600160a81b0319166001600160a01b0390921691909117600160a01b179055565b611dee600083612e6c565b611e06600080516020614eb583398151915283612e6c565b8251611e1a9061012f906020860190613d7d565b505050505050565b600080516020614e95833981519152611e3a81612522565b611e4383610e49565b15611e605760405162461bcd60e51b8152600401610bc990614b02565b6000838152610131602090815260409091208351611e8692600890920191850190613d32565b50610c6a836128a6565b600080516020614eb5833981519152611ea881612522565b5061013080546001600160a01b0319166001600160a01b0392909216919091179055565b600082815260c96020526040902060010154611ee781612522565b610c6a83836127a2565b61012f8054611eff90614a16565b80601f0160208091040260200160405190810160405280929190818152602001828054611f2b90614a16565b8015611f785780601f10611f4d57610100808354040283529160200191611f78565b820191906000526020600020905b815481529060010190602001808311611f5b57829003601f168201915b505050505081565b600054610100900460ff1615808015611fa05750600054600160ff909116105b80611fba5750303b158015611fba575060005460ff166001145b61201d5760405162461bcd60e51b815260206004820152602e60248201527f496e697469616c697a61626c653a20636f6e747261637420697320616c72656160448201526d191e481a5b9a5d1a585b1a5e995960921b6064820152608401610bc9565b6000805460ff191660011790558015612040576000805461ff0019166101001790555b61204d8686868686611d76565b600160008190526101326020527fb0176a9aff47fe9db68ba87663f92f59cb14d8f7ca54d4ab0fcc1940414663538190555b600a8110156120dc5760016120948282614b8b565b61209f906002614c87565b6120a99190614c93565b61013260006120b9846001614b8b565b8152602081019190915260400160002055806120d481614ae7565b91505061207f565b508015611e1a576000805461ff0019169055604051600181527f7f26b83ff96e1f2b6a682f133852f6798a09c465da95921460cefb38474024989060200160405180910390a1505050505050565b600080516020614e9583398151915261214281612522565b600083815261013160205260409020600601829055610c6a836128a6565b7f9f2df0fed2c77648de5860a4cc508cd0818c85b8b8a1ab4ceeef8d981c8956a661218a81612522565b60005b82518110156121da576121c8848483815181106121ac576121ac614abb565b60200260200101518361012e546121c39190614b8b565b6128cb565b806121d281614ae7565b91505061218d565b50610c6a838351612e76565b610131602052600090815260409020805460018201805491929161220990614a16565b80601f016020809104026020016040519081016040528092919081815260200182805461223590614a16565b80156122825780601f1061225757610100808354040283529160200191612282565b820191906000526020600020905b81548152906001019060200180831161226557829003601f168201915b50505050509080600201805461229790614a16565b80601f01602080910402602001604051908101604052809291908181526020018280546122c390614a16565b80156123105780601f106122e557610100808354040283529160200191612310565b820191906000526020600020905b8154815290600101906020018083116122f357829003601f168201915b50505060038401546004850154600586015460068701546007880154600b9098015496976001600160a01b0390941696929550909350919060ff1689565b600080516020614e9583398151915261236681612522565b600083815261013160205260409020600401541580612383575081155b61239f5760405162461bcd60e51b8152600401610bc990614b1f565b506000918252610131602052604090912060040155565b600080516020614e958339815191526123ce81612522565b6123d784610e49565b156123f45760405162461bcd60e51b8152600401610bc990614b02565b60008481526101316020526040902060080180548391908590811061241b5761241b614abb565b600091825260209091200155610cad846128a6565b60006001600160e01b03198216637965db0b60e01b1480610967575061096782612eb5565b6000818152606760205260409020546001600160a01b0316610f235760405162461bcd60e51b8152602060048201526018602482015277115490cdcc8c4e881a5b9d985b1a59081d1bdad95b88125160421b6044820152606401610bc9565b600081815260696020526040902080546001600160a01b0319166001600160a01b03841690811790915581906124e9826113f0565b6001600160a01b03167f8c5be1e5ebec7d5bd14f71427d1e84f3dd0314c0f7b2291e5b200ac8c7c3b92560405160405180910390a45050565b610f238133612eda565b600080612538836113f0565b9050806001600160a01b0316846001600160a01b0316148061257f57506001600160a01b038082166000908152606a602090815260408083209388168352929052205460ff165b806125a35750836001600160a01b031661259884610ac7565b6001600160a01b0316145b949350505050565b826001600160a01b03166125be826113f0565b6001600160a01b0316146125e45760405162461bcd60e51b8152600401610bc990614caa565b6001600160a01b0382166126465760405162461bcd60e51b8152602060048201526024808201527f4552433732313a207472616e7366657220746f20746865207a65726f206164646044820152637265737360e01b6064820152608401610bc9565b6126538383836001612f33565b826001600160a01b0316612666826113f0565b6001600160a01b03161461268c5760405162461bcd60e51b8152600401610bc990614caa565b600081815260696020908152604080832080546001600160a01b03199081169091556001600160a01b0387811680865260688552838620805460001901905590871680865283862080546001019055868652606790945282852080549092168417909155905184937fddf252ad1be2c89b69c2b068fc378daa952ba7f163c4a11628f55a4df523b3ef91a4505050565b61272682826117cd565b610e4557600082815260c9602090815260408083206001600160a01b03851684529091529020805460ff1916600117905561275e3390565b6001600160a01b0316816001600160a01b0316837f2f8788117e7eff1d82e926ec794901d17c78024a50270940304540a733656f0d60405160405180910390a45050565b6127ac82826117cd565b15610e4557600082815260c9602090815260408083206001600160a01b0385168085529252808320805460ff1916905551339285917ff6391f5c32d9c69d2a47ea670b442974b53935d1edc7fd64eb21e047a839171b9190a45050565b60fb5460ff166128525760405162461bcd60e51b815260206004820152601460248201527314185d5cd8589b194e881b9bdd081c185d5cd95960621b6044820152606401610bc9565b565b61285c612809565b60fb805460ff191690557f5db9ee0a495bf2e6ff9c91a7834c1ba4fdd244a5e8aa4e537bd38aeae4b073aa335b6040516001600160a01b03909116815260200160405180910390a1565b6128af81612fef565b60008281526101316020526040902060070155610f2381612c5a565b60c08201516129225761291c8261010001516000815181106128ef576128ef614abb565b602002602001015183610100015160018151811061290f5761290f614abb565b6020026020010151613304565b60c08301525b604080516101808101825282815260208481015181830190815285840151838501526001600160a01b038716606084015260006080840181905260a0808801519085015260c0808801519085015260e08401819052610100808801519085015261012080880151908501526101408088015190850152610160840181905285815261013183529390932082518155925180519293926129c79260018501920190613d7d565b50604082015180516129e3916002840191602090910190613d7d565b5060608201516003820180546001600160a01b0319166001600160a01b039092169190911790556080820151600482015560a0820151600582015560c0820151600682015560e082015160078201556101008201518051612a4e916008840191602090910190613d32565b506101208201518051612a6b916009840191602090910190613d32565b506101408201518051612a8891600a840191602090910190613d32565b5061016082015181600b0160006101000a81548160ff021916908315150217905550905050612afa8260c00151836101000151600281518110612acd57612acd614abb565b6020026020010151846101000151600381518110612aed57612aed614abb565b6020026020010151613335565b60009182526101316020526040909120600701555050565b61012e80549081906000612b2583614ae7565b9190505550610e45828261336c565b6000612b3f826113f0565b9050612b4f816000846001612f33565b612b58826113f0565b600083815260696020908152604080832080546001600160a01b03199081169091556001600160a01b0385168085526068845282852080546000190190558785526067909352818420805490911690555192935084927fddf252ad1be2c89b69c2b068fc378daa952ba7f163c4a11628f55a4df523b3ef908390a45050565b60fb5460ff16156128525760405162461bcd60e51b815260206004820152601060248201526f14185d5cd8589b194e881c185d5cd95960821b6044820152606401610bc9565b612c25612bd7565b60fb805460ff191660011790557f62e78cea01bee320cd4e420270b5ea74000d11b0c9f74754ebdbfc544b05a2586128893390565b6000818152610131602052604090206004015415610f23576101305460008281526101316020526040908190206004908101549151632da17b6560e21b8152908101919091526001600160a01b039091169063b685ed9490602401600060405180830381600087803b158015612ccf57600080fd5b505af11580156114c6573d6000803e3d6000fd5b816001600160a01b0316836001600160a01b03161415612d455760405162461bcd60e51b815260206004820152601960248201527f4552433732313a20617070726f766520746f2063616c6c6572000000000000006044820152606401610bc9565b6001600160a01b038381166000818152606a6020908152604080832094871680845294825291829020805460ff191686151590811790915591519182527f17307eab39ab6107e8899845ad3d59bd9653f200f220920489ca2b5937696c31910160405180910390a3505050565b612dbd8484846125ab565b612dc984848484613505565b610cad5760405162461bcd60e51b8152600401610bc990614cef565b600054610100900460ff16612e0c5760405162461bcd60e51b8152600401610bc990614b40565b610e458282613612565b600054610100900460ff166128525760405162461bcd60e51b8152600401610bc990614b40565b600054610100900460ff16612e645760405162461bcd60e51b8152600401610bc990614b40565b612852613660565b610e45828261271c565b61012e5460005b82811015612eac57612e9a8483612e9381614ae7565b945061336c565b80612ea481614ae7565b915050612e7d565b5061012e555050565b60006001600160e01b0319821663780e9d6360e01b1480610967575061096782613693565b612ee482826117cd565b610e4557612ef1816136e3565b612efc8360206136f5565b604051602001612f0d929190614d41565b60408051601f198184030181529082905262461bcd60e51b8252610bc991600401613f7e565b612f3f84848484613890565b6000828152610131602052604090206004015415612f6f5760405162461bcd60e51b8152600401610bc990614b1f565b600082815261013160205260409020600b015460ff1615612fbb5760405162461bcd60e51b8152600401610bc9906020808252600490820152631919585960e21b604082015260600190565b5060009081526101316020526040902060030180546001600160a01b0319166001600160a01b039290921691909117905550565b600081815261013160209081526040808320815161018081019092528054825260018101805485948401919061302490614a16565b80601f016020809104026020016040519081016040528092919081815260200182805461305090614a16565b801561309d5780601f106130725761010080835404028352916020019161309d565b820191906000526020600020905b81548152906001019060200180831161308057829003601f168201915b505050505081526020016002820180546130b690614a16565b80601f01602080910402602001604051908101604052809291908181526020018280546130e290614a16565b801561312f5780601f106131045761010080835404028352916020019161312f565b820191906000526020600020905b81548152906001019060200180831161311257829003601f168201915b505050505081526020016003820160009054906101000a90046001600160a01b03166001600160a01b03166001600160a01b0316815260200160048201548152602001600582015481526020016006820154815260200160078201548152602001600882018054806020026020016040519081016040528092919081815260200182805480156131de57602002820191906000526020600020905b8154815260200190600101908083116131ca575b505050505081526020016009820180548060200260200160405190810160405280929190818152602001828054801561323657602002820191906000526020600020905b815481526020019060010190808311613222575b50505050508152602001600a820180548060200260200160405190810160405280929190818152602001828054801561328e57602002820191906000526020600020905b81548152602001906001019080831161327a575b5050509183525050600b919091015460ff16151560209091015260c08101516101008201519192506132fd916002815181106132cc576132cc614abb565b6020026020010151836101000151600360058111156132ed576132ed614db6565b81518110612aed57612aed614abb565b9392505050565b60008281526101326020526040808220548383529082205461332b90642e90edd000614dcc565b6132fd9190614dcc565b6000613342826006614c93565b600a61334e8587614dcc565b6133589190614deb565b6133629190614deb565b6125a39085614b8b565b6001600160a01b0382166133c25760405162461bcd60e51b815260206004820181905260248201527f4552433732313a206d696e7420746f20746865207a65726f20616464726573736044820152606401610bc9565b6000818152606760205260409020546001600160a01b0316156134275760405162461bcd60e51b815260206004820152601c60248201527f4552433732313a20746f6b656e20616c7265616479206d696e746564000000006044820152606401610bc9565b613435600083836001612f33565b6000818152606760205260409020546001600160a01b03161561349a5760405162461bcd60e51b815260206004820152601c60248201527f4552433732313a20746f6b656e20616c7265616479206d696e746564000000006044820152606401610bc9565b6001600160a01b038216600081815260686020908152604080832080546001019055848352606790915280822080546001600160a01b0319168417905551839291907fddf252ad1be2c89b69c2b068fc378daa952ba7f163c4a11628f55a4df523b3ef908290a45050565b60006001600160a01b0384163b1561360757604051630a85bd0160e11b81526001600160a01b0385169063150b7a0290613549903390899088908890600401614e0d565b602060405180830381600087803b15801561356357600080fd5b505af1925050508015613593575060408051601f3d908101601f1916820190925261359091810190614e4a565b60015b6135ed573d8080156135c1576040519150601f19603f3d011682016040523d82523d6000602084013e6135c6565b606091505b5080516135e55760405162461bcd60e51b8152600401610bc990614cef565b805181602001fd5b6001600160e01b031916630a85bd0160e11b1490506125a3565b506001949350505050565b600054610100900460ff166136395760405162461bcd60e51b8152600401610bc990614b40565b815161364c906065906020850190613d7d565b508051610c6a906066906020840190613d7d565b600054610100900460ff166136875760405162461bcd60e51b8152600401610bc990614b40565b60fb805460ff19169055565b60006001600160e01b031982166380ac58cd60e01b14806136c457506001600160e01b03198216635b5e139f60e01b145b8061096757506301ffc9a760e01b6001600160e01b0319831614610967565b60606109676001600160a01b03831660145b60606000613704836002614dcc565b61370f906002614b8b565b6001600160401b0381111561372657613726613fea565b6040519080825280601f01601f191660200182016040528015613750576020820181803683370190505b509050600360fc1b8160008151811061376b5761376b614abb565b60200101906001600160f81b031916908160001a905350600f60fb1b8160018151811061379a5761379a614abb565b60200101906001600160f81b031916908160001a90535060006137be846002614dcc565b6137c9906001614b8b565b90505b6001811115613841576f181899199a1a9b1b9c1cb0b131b232b360811b85600f16601081106137fd576137fd614abb565b1a60f81b82828151811061381357613813614abb565b60200101906001600160f81b031916908160001a90535060049490941c9361383a81614e67565b90506137cc565b5083156132fd5760405162461bcd60e51b815260206004820181905260248201527f537472696e67733a20686578206c656e67746820696e73756666696369656e746044820152606401610bc9565b61389c8484848461393e565b60fb5460ff16156138d85760405162461bcd60e51b81526020600482015260066024820152651c185d5cd95960d21b6044820152606401610bc9565b6138e28484613a77565b15610cad5760405162461bcd60e51b815260206004820152602660248201527f53656e64657220616e642f6f7220726563697069656e7420697320626c6f636b6044820152651b1a5cdd195960d21b6064820152608401610bc9565b61394a84848484613b1a565b60018111156139b95760405162461bcd60e51b815260206004820152603560248201527f455243373231456e756d657261626c653a20636f6e7365637574697665207472604482015274185b9cd9995c9cc81b9bdd081cdd5c1c1bdc9d1959605a1b6064820152608401610bc9565b816001600160a01b038516613a1557613a1081609980546000838152609a60205260408120829055600182018355919091527f72a152ddfb8e864297c917af52ea6c1c68aead0fee1a62673fcc7e0c94979d000155565b613a38565b836001600160a01b0316856001600160a01b031614613a3857613a388582613ba2565b6001600160a01b038416613a5457613a4f81613c3f565b6114c6565b846001600160a01b0316846001600160a01b0316146114c6576114c68482613cee565b61012d54600090600160a01b900460ff16613a9457506000610967565b61012d5460405163257128dd60e21b81526001600160a01b0385811660048301528481166024830152909116906395c4a3749060440160206040518083038186803b158015613ae257600080fd5b505afa158015613af6573d6000803e3d6000fd5b505050506040513d601f19601f820116820180604052508101906132fd9190614a9e565b6001811115610cad576001600160a01b03841615613b60576001600160a01b03841660009081526068602052604081208054839290613b5a908490614c93565b90915550505b6001600160a01b03831615610cad576001600160a01b03831660009081526068602052604081208054839290613b97908490614b8b565b909155505050505050565b60006001613baf846114fc565b613bb99190614c93565b600083815260986020526040902054909150808214613c0c576001600160a01b03841660009081526097602090815260408083208584528252808320548484528184208190558352609890915290208190555b5060009182526098602090815260408084208490556001600160a01b039094168352609781528383209183525290812055565b609954600090613c5190600190614c93565b6000838152609a602052604081205460998054939450909284908110613c7957613c79614abb565b906000526020600020015490508060998381548110613c9a57613c9a614abb565b6000918252602080832090910192909255828152609a90915260408082208490558582528120556099805480613cd257613cd2614e7e565b6001900381819060005260206000200160009055905550505050565b6000613cf9836114fc565b6001600160a01b039093166000908152609760209081526040808320868452825280832085905593825260989052919091209190915550565b828054828255906000526020600020908101928215613d6d579160200282015b82811115613d6d578251825591602001919060010190613d52565b50613d79929150613e5c565b5090565b828054613d8990614a16565b90600052602060002090601f016020900481019282613dab5760008555613d6d565b82601f10613dc457805160ff1916838001178555613d6d565b82800160010185558215613d6d5791820182811115613d6d578251825591602001919060010190613d52565b60405180610180016040528060008152602001606081526020016060815260200160006001600160a01b03168152602001600081526020016000815260200160008152602001600081526020016060815260200160608152602001606081526020016000151581525090565b5b80821115613d795760008155600101613e5d565b6001600160e01b031981168114610f2357600080fd5b600060208284031215613e9957600080fd5b81356132fd81613e71565b600060208284031215613eb657600080fd5b5035919050565b600081518084526020808501945080840160005b83811015613eed57815187529582019590820190600101613ed1565b509495945050505050565b604081526000613f0b6040830185613ebd565b8281036020840152613f1d8185613ebd565b95945050505050565b60005b83811015613f41578181015183820152602001613f29565b83811115610cad5750506000910152565b60008151808452613f6a816020860160208601613f26565b601f01601f19169290920160200192915050565b6020815260006132fd6020830184613f52565b6020815260006132fd6020830184613ebd565b80356001600160a01b0381168114613fbb57600080fd5b919050565b60008060408385031215613fd357600080fd5b613fdc83613fa4565b946020939093013593505050565b634e487b7160e01b600052604160045260246000fd5b60405161018081016001600160401b038111828210171561402357614023613fea565b60405290565b604051601f8201601f191681016001600160401b038111828210171561405157614051613fea565b604052919050565b60006001600160401b0382111561407257614072613fea565b5060051b60200190565b600082601f83011261408d57600080fd5b813560206140a261409d83614059565b614029565b82815260059290921b840181019181810190868411156140c157600080fd5b8286015b848110156140dc57803583529183019183016140c5565b509695505050505050565b600080604083850312156140fa57600080fd5b8235915060208301356001600160401b0381111561411757600080fd5b6141238582860161407c565b9150509250929050565b60008060006060848603121561414257600080fd5b61414b84613fa4565b925061415960208501613fa4565b9150604084013590509250925092565b6000806040838503121561417c57600080fd5b8235915061418c60208401613fa4565b90509250929050565b60006001600160401b038311156141ae576141ae613fea565b6141c1601f8401601f1916602001614029565b90508281528383830111156141d557600080fd5b828260208301376000602084830101529392505050565b600082601f8301126141fd57600080fd5b6132fd83833560208501614195565b60006020828403121561421e57600080fd5b81356001600160401b0381111561423457600080fd5b6125a3848285016141ec565b600061018082518452602083015181602086015261426082860182613f52565b9150506040830151848203604086015261427a8282613f52565b915050606083015161429760608601826001600160a01b03169052565b506080830151608085015260a083015160a085015260c083015160c085015260e083015160e085015261010080840151858303828701526142d88382613ebd565b9250505061012080840151858303828701526142f48382613ebd565b9250505061014080840151858303828701526143108382613ebd565b92505050610160808401516143288287018215159052565b5090949350505050565b6020815260006132fd6020830184614240565b6000806040838503121561435857600080fd5b50508035926020909101359150565b60006020828403121561437957600080fd5b6132fd82613fa4565b6000602080830181845280855180835260408601915060408160051b870101925083870160005b828110156143d757603f198886030184526143c5858351614240565b945092850192908501906001016143a9565b5092979650505050505050565b600080600080608085870312156143fa57600080fd5b8435935060208501356001600160401b038082111561441857600080fd5b6144248883890161407c565b945060408701359350606087013591508082111561444157600080fd5b5061444e8782880161407c565b91505092959194509250565b8015158114610f2357600080fd5b8035613fbb8161445a565b6000610180828403121561448657600080fd5b61448e614000565b90508135815260208201356001600160401b03808211156144ae57600080fd5b6144ba858386016141ec565b602084015260408401359150808211156144d357600080fd5b6144df858386016141ec565b60408401526144f060608501613fa4565b60608401526080840135608084015260a084013560a084015260c084013560c084015260e084013560e08401526101009150818401358181111561453357600080fd5b61453f8682870161407c565b83850152506101209150818401358181111561455a57600080fd5b6145668682870161407c565b83850152506101409150818401358181111561458157600080fd5b61458d8682870161407c565b838501525050506101606145a2818401614468565b9082015292915050565b600080604083850312156145bf57600080fd5b6145c883613fa4565b915060208301356001600160401b038111156145e357600080fd5b61412385828601614473565b60008060006060848603121561460457600080fd5b8335925060208401356001600160401b038082111561462257600080fd5b61462e8783880161407c565b9350604086013591508082111561464457600080fd5b506146518682870161407c565b9150509250925092565b60008060006060848603121561467057600080fd5b8335925060208401356001600160401b038082111561468e57600080fd5b61469a878388016141ec565b935060408601359150808211156146b057600080fd5b50614651868287016141ec565b600080604083850312156146d057600080fd5b6146d983613fa4565b915060208301356146e98161445a565b809150509250929050565b6000806000806080858703121561470a57600080fd5b61471385613fa4565b935061472160208601613fa4565b92506040850135915060608501356001600160401b0381111561474357600080fd5b8501601f8101871361475457600080fd5b61444e87823560208401614195565b60008060006060848603121561477857600080fd5b8335925060208401356001600160401b0381111561479557600080fd5b6147a18682870161407c565b925050604084013590509250925092565b6000602082840312156147c457600080fd5b81356001600160401b038111156147da57600080fd5b6125a38482850161407c565b600080600080600060a086880312156147fe57600080fd5b85356001600160401b038082111561481557600080fd5b61482189838a016141ec565b9650602088013591508082111561483757600080fd5b61484389838a016141ec565b9550604088013591508082111561485957600080fd5b50614866888289016141ec565b93505061487560608701613fa4565b915061488360808701613fa4565b90509295509295909350565b600080604083850312156148a257600080fd5b6148ab83613fa4565b91506020808401356001600160401b03808211156148c857600080fd5b818601915086601f8301126148dc57600080fd5b81356148ea61409d82614059565b81815260059190911b8301840190848101908983111561490957600080fd5b8585015b83811015614941578035858111156149255760008081fd5b6149338c89838a0101614473565b84525091860191860161490d565b508096505050505050509250929050565b60006101208b835280602084015261496c8184018c613f52565b90508281036040840152614980818b613f52565b6001600160a01b039990991660608401525050608081019590955260a085019390935260c084019190915260e08301521515610100909101529392505050565b600080604083850312156149d357600080fd5b6149dc83613fa4565b915061418c60208401613fa4565b6000806000606084860312156149ff57600080fd5b505081359360208301359350604090920135919050565b600181811c90821680614a2a57607f821691505b60208210811415614a4b57634e487b7160e01b600052602260045260246000fd5b50919050565b6020808252602d908201527f4552433732313a2063616c6c6572206973206e6f7420746f6b656e206f776e6560408201526c1c881bdc88185c1c1c9bdd9959609a1b606082015260800190565b600060208284031215614ab057600080fd5b81516132fd8161445a565b634e487b7160e01b600052603260045260246000fd5b634e487b7160e01b600052601160045260246000fd5b6000600019821415614afb57614afb614ad1565b5060010190565b6020808252600390820152626f6e5160e81b604082015260600190565b6020808252600790820152661a5b94dc5d585960ca1b604082015260600190565b6020808252602b908201527f496e697469616c697a61626c653a20636f6e7472616374206973206e6f74206960408201526a6e697469616c697a696e6760a81b606082015260800190565b60008219821115614b9e57614b9e614ad1565b500190565b600181815b80851115614bde578160001904821115614bc457614bc4614ad1565b80851615614bd157918102915b93841c9390800290614ba8565b509250929050565b600082614bf557506001610967565b81614c0257506000610967565b8160018114614c185760028114614c2257614c3e565b6001915050610967565b60ff841115614c3357614c33614ad1565b50506001821b610967565b5060208310610133831016604e8410600b8410161715614c61575081810a610967565b614c6b8383614ba3565b8060001904821115614c7f57614c7f614ad1565b029392505050565b60006132fd8383614be6565b600082821015614ca557614ca5614ad1565b500390565b60208082526025908201527f4552433732313a207472616e736665722066726f6d20696e636f72726563742060408201526437bbb732b960d91b606082015260800190565b60208082526032908201527f4552433732313a207472616e7366657220746f206e6f6e20455243373231526560408201527131b2b4bb32b91034b6b83632b6b2b73a32b960711b606082015260800190565b7f416363657373436f6e74726f6c3a206163636f756e7420000000000000000000815260008351614d79816017850160208801613f26565b7001034b99036b4b9b9b4b733903937b6329607d1b6017918401918201528351614daa816028840160208801613f26565b01602801949350505050565b634e487b7160e01b600052602160045260246000fd5b6000816000190483118215151615614de657614de6614ad1565b500290565b600082614e0857634e487b7160e01b600052601260045260246000fd5b500490565b6001600160a01b0385811682528416602082015260408101839052608060608201819052600090614e4090830184613f52565b9695505050505050565b600060208284031215614e5c57600080fd5b81516132fd81613e71565b600081614e7657614e76614ad1565b506000190190565b634e487b7160e01b600052603160045260246000fdfe73e573f9566d61418a34d5de3ff49360f9c51fec37f7486551670290f6285dab97667070c54ef182b0f5858b034beac1b6f3089aa2d3188bb1e8929f4fa9b929a264697066735822122091dc018e006a65c0b6b179ae152e84f55e84e12881ba3243d8d41101c20d5c0864736f6c63430008090033",
  "linkReferences": {},
  "deployedLinkReferences": {}
}