{
  "_format": "hh-sol-artifact-1",
  "contractName": "BkNft",
  "sourceName": "contracts/erc721/BkNft.sol",
  "abi": [
    {
      "anonymous": false,
      "inputs": [
        {
          "indexed": true,
          "internalType": "address",
          "name": "owner",
          "type": "address"
        },
        {
          "indexed": true,
          "internalType": "address",
          "name": "approved",
          "type": "address"
        },
        {
          "indexed": true,
          "internalType": "uint256",
          "name": "tokenId",
          "type": "uint256"
        }
      ],
      "name": "Approval",
      "type": "event"
    },
    {
      "anonymous": false,
      "inputs": [
        {
          "indexed": true,
          "internalType": "address",
          "name": "owner",
          "type": "address"
        },
        {
          "indexed": true,
          "internalType": "address",
          "name": "operator",
          "type": "address"
        },
        {
          "indexed": false,
          "internalType": "bool",
          "name": "approved",
          "type": "bool"
        }
      ],
      "name": "ApprovalForAll",
      "type": "event"
    },
    {
      "anonymous": false,
      "inputs": [
        {
          "indexed": false,
          "internalType": "uint8",
          "name": "version",
          "type": "uint8"
        }
      ],
      "name": "Initialized",
      "type": "event"
    },
    {
      "anonymous": false,
      "inputs": [
        {
          "indexed": false,
          "internalType": "address",
          "name": "account",
          "type": "address"
        }
      ],
      "name": "Paused",
      "type": "event"
    },
    {
      "anonymous": false,
      "inputs": [
        {
          "indexed": true,
          "internalType": "bytes32",
          "name": "role",
          "type": "bytes32"
        },
        {
          "indexed": true,
          "internalType": "bytes32",
          "name": "previousAdminRole",
          "type": "bytes32"
        },
        {
          "indexed": true,
          "internalType": "bytes32",
          "name": "newAdminRole",
          "type": "bytes32"
        }
      ],
      "name": "RoleAdminChanged",
      "type": "event"
    },
    {
      "anonymous": false,
      "inputs": [
        {
          "indexed": true,
          "internalType": "bytes32",
          "name": "role",
          "type": "bytes32"
        },
        {
          "indexed": true,
          "internalType": "address",
          "name": "account",
          "type": "address"
        },
        {
          "indexed": true,
          "internalType": "address",
          "name": "sender",
          "type": "address"
        }
      ],
      "name": "RoleGranted",
      "type": "event"
    },
    {
      "anonymous": false,
      "inputs": [
        {
          "indexed": true,
          "internalType": "bytes32",
          "name": "role",
          "type": "bytes32"
        },
        {
          "indexed": true,
          "internalType": "address",
          "name": "account",
          "type": "address"
        },
        {
          "indexed": true,
          "internalType": "address",
          "name": "sender",
          "type": "address"
        }
      ],
      "name": "RoleRevoked",
      "type": "event"
    },
    {
      "anonymous": false,
      "inputs": [
        {
          "indexed": true,
          "internalType": "address",
          "name": "from",
          "type": "address"
        },
        {
          "indexed": true,
          "internalType": "address",
          "name": "to",
          "type": "address"
        },
        {
          "indexed": true,
          "internalType": "uint256",
          "name": "tokenId",
          "type": "uint256"
        }
      ],
      "name": "Transfer",
      "type": "event"
    },
    {
      "anonymous": false,
      "inputs": [
        {
          "indexed": false,
          "internalType": "address",
          "name": "account",
          "type": "address"
        }
      ],
      "name": "Unpaused",
      "type": "event"
    },
    {
      "inputs": [],
      "name": "DEFAULT_ADMIN_ROLE",
      "outputs": [
        {
          "internalType": "bytes32",
          "name": "",
          "type": "bytes32"
        }
      ],
      "stateMutability": "view",
      "type": "function"
    },
    {
      "inputs": [
        {
          "internalType": "string",
          "name": "_name",
          "type": "string"
        },
        {
          "internalType": "string",
          "name": "_symbol",
          "type": "string"
        },
        {
          "internalType": "string",
          "name": "_baseTokenURI",
          "type": "string"
        },
        {
          "internalType": "address",
          "name": "_operator",
          "type": "address"
        },
        {
          "internalType": "address",
          "name": "_blocklistAddress",
          "type": "address"
        }
      ],
      "name": "__AdminUpgradeableERC721_init",
      "outputs": [],
      "stateMutability": "nonpayable",
      "type": "function"
    },
    {
      "inputs": [
        {
          "internalType": "address",
          "name": "to",
          "type": "address"
        },
        {
          "internalType": "uint256",
          "name": "tokenId",
          "type": "uint256"
        }
      ],
      "name": "approve",
      "outputs": [],
      "stateMutability": "nonpayable",
      "type": "function"
    },
    {
      "inputs": [
        {
          "internalType": "uint256",
          "name": "tokenId",
          "type": "uint256"
        },
        {
          "internalType": "uint256",
          "name": "attribute",
          "type": "uint256"
        }
      ],
      "name": "attributeOf",
      "outputs": [
        {
          "internalType": "uint256",
          "name": "",
          "type": "uint256"
        }
      ],
      "stateMutability": "view",
      "type": "function"
    },
    {
      "inputs": [
        {
          "internalType": "uint256",
          "name": "tokenId",
          "type": "uint256"
        }
      ],
      "name": "attributesAndSkillsOf",
      "outputs": [
        {
          "internalType": "uint256[]",
          "name": "",
          "type": "uint256[]"
        },
        {
          "internalType": "uint256[]",
          "name": "",
          "type": "uint256[]"
        }
      ],
      "stateMutability": "view",
      "type": "function"
    },
    {
      "inputs": [
        {
          "internalType": "uint256",
          "name": "tokenId",
          "type": "uint256"
        }
      ],
      "name": "attributesOf",
      "outputs": [
        {
          "internalType": "uint256[]",
          "name": "",
          "type": "uint256[]"
        }
      ],
      "stateMutability": "view",
      "type": "function"
    },
    {
      "inputs": [
        {
          "internalType": "address",
          "name": "owner",
          "type": "address"
        }
      ],
      "name": "balanceOf",
      "outputs": [
        {
          "internalType": "uint256",
          "name": "",
          "type": "uint256"
        }
      ],
      "stateMutability": "view",
      "type": "function"
    },
    {
      "inputs": [],
      "name": "baseTokenURI",
      "outputs": [
        {
          "internalType": "string",
          "name": "",
          "type": "string"
        }
      ],
      "stateMutability": "view",
      "type": "function"
    },
    {
      "inputs": [
        {
          "internalType": "uint256",
          "name": "",
          "type": "uint256"
        }
      ],
      "name": "bkChars",
      "outputs": [
        {
          "internalType": "uint256",
          "name": "id",
          "type": "uint256"
        },
        {
          "internalType": "string",
          "name": "name",
          "type": "string"
        },
        {
          "internalType": "string",
          "name": "imageUrl",
          "type": "string"
        },
        {
          "internalType": "address",
          "name": "currentOwner",
          "type": "address"
        },
        {
          "internalType": "uint256",
          "name": "squadId",
          "type": "uint256"
        },
        {
          "internalType": "uint256",
          "name": "collection",
          "type": "uint256"
        },
        {
          "internalType": "uint256",
          "name": "baseFarm",
          "type": "uint256"
        },
        {
          "internalType": "uint256",
          "name": "farmPerBlock",
          "type": "uint256"
        },
        {
          "internalType": "bool",
          "name": "isDead",
          "type": "bool"
        }
      ],
      "stateMutability": "view",
      "type": "function"
    },
    {
      "inputs": [],
      "name": "blocklist",
      "outputs": [
        {
          "internalType": "contract IBlocklist",
          "name": "",
          "type": "address"
        }
      ],
      "stateMutability": "view",
      "type": "function"
    },
    {
      "inputs": [
        {
          "internalType": "address",
          "name": "account",
          "type": "address"
        },
        {
          "internalType": "uint256",
          "name": "tokenId",
          "type": "uint256"
        }
      ],
      "name": "burnFrom",
      "outputs": [],
      "stateMutability": "nonpayable",
      "type": "function"
    },
    {
      "inputs": [
        {
          "internalType": "uint256",
          "name": "tokenId",
          "type": "uint256"
        }
      ],
      "name": "collectionOf",
      "outputs": [
        {
          "internalType": "uint256",
          "name": "",
          "type": "uint256"
        }
      ],
      "stateMutability": "view",
      "type": "function"
    },
    {
      "inputs": [],
      "name": "farm",
      "outputs": [
        {
          "internalType": "contract FarmSimplified",
          "name": "",
          "type": "address"
        }
      ],
      "stateMutability": "view",
      "type": "function"
    },
    {
      "inputs": [
        {
          "internalType": "uint256",
          "name": "tokenId",
          "type": "uint256"
        }
      ],
      "name": "farmPerBlockOf",
      "outputs": [
        {
          "internalType": "uint256",
          "name": "",
          "type": "uint256"
        }
      ],
      "stateMutability": "view",
      "type": "function"
    },
    {
      "inputs": [
        {
          "internalType": "uint256",
          "name": "tokenId",
          "type": "uint256"
        }
      ],
      "name": "getApproved",
      "outputs": [
        {
          "internalType": "address",
          "name": "",
          "type": "address"
        }
      ],
      "stateMutability": "view",
      "type": "function"
    },
    {
      "inputs": [
        {
          "internalType": "uint256",
          "name": "tokenId",
          "type": "uint256"
        }
      ],
      "name": "getNft",
      "outputs": [
        {
          "components": [
            {
              "internalType": "uint256",
              "name": "id",
              "type": "uint256"
            },
            {
              "internalType": "string",
              "name": "name",
              "type": "string"
            },
            {
              "internalType": "string",
              "name": "imageUrl",
              "type": "string"
            },
            {
              "internalType": "address",
              "name": "currentOwner",
              "type": "address"
            },
            {
              "internalType": "uint256",
              "name": "squadId",
              "type": "uint256"
            },
            {
              "internalType": "uint256",
              "name": "collection",
              "type": "uint256"
            },
            {
              "internalType": "uint256",
              "name": "baseFarm",
              "type": "uint256"
            },
            {
              "internalType": "uint256",
              "name": "farmPerBlock",
              "type": "uint256"
            },
            {
              "internalType": "uint256[]",
              "name": "attributes",
              "type": "uint256[]"
            },
            {
              "internalType": "uint256[]",
              "name": "traits",
              "type": "uint256[]"
            },
            {
              "internalType": "uint256[]",
              "name": "skills",
              "type": "uint256[]"
            },
            {
              "internalType": "bool",
              "name": "isDead",
              "type": "bool"
            }
          ],
          "internalType": "struct IBkChar.BkChar",
          "name": "",
          "type": "tuple"
        }
      ],
      "stateMutability": "view",
      "type": "function"
    },
    {
      "inputs": [
        {
          "internalType": "uint256[]",
          "name": "tokenIds",
          "type": "uint256[]"
        }
      ],
      "name": "getNfts",
      "outputs": [
        {
          "components": [
            {
              "internalType": "uint256",
              "name": "id",
              "type": "uint256"
            },
            {
              "internalType": "string",
              "name": "name",
              "type": "string"
            },
            {
              "internalType": "string",
              "name": "imageUrl",
              "type": "string"
            },
            {
              "internalType": "address",
              "name": "currentOwner",
              "type": "address"
            },
            {
              "internalType": "uint256",
              "name": "squadId",
              "type": "uint256"
            },
            {
              "internalType": "uint256",
              "name": "collection",
              "type": "uint256"
            },
            {
              "internalType": "uint256",
              "name": "baseFarm",
              "type": "uint256"
            },
            {
              "internalType": "uint256",
              "name": "farmPerBlock",
              "type": "uint256"
            },
            {
              "internalType": "uint256[]",
              "name": "attributes",
              "type": "uint256[]"
            },
            {
              "internalType": "uint256[]",
              "name": "traits",
              "type": "uint256[]"
            },
            {
              "internalType": "uint256[]",
              "name": "skills",
              "type": "uint256[]"
            },
            {
              "internalType": "bool",
              "name": "isDead",
              "type": "bool"
            }
          ],
          "internalType": "struct IBkChar.BkChar[]",
          "name": "",
          "type": "tuple[]"
        }
      ],
      "stateMutability": "view",
      "type": "function"
    },
    {
      "inputs": [
        {
          "internalType": "bytes32",
          "name": "role",
          "type": "bytes32"
        }
      ],
      "name": "getRoleAdmin",
      "outputs": [
        {
          "internalType": "bytes32",
          "name": "",
          "type": "bytes32"
        }
      ],
      "stateMutability": "view",
      "type": "function"
    },
    {
      "inputs": [
        {
          "internalType": "bytes32",
          "name": "role",
          "type": "bytes32"
        },
        {
          "internalType": "address",
          "name": "account",
          "type": "address"
        }
      ],
      "name": "grantRole",
      "outputs": [],
      "stateMutability": "nonpayable",
      "type": "function"
    },
    {
      "inputs": [],
      "name": "hasBlocklist",
      "outputs": [
        {
          "internalType": "bool",
          "name": "",
          "type": "bool"
        }
      ],
      "stateMutability": "view",
      "type": "function"
    },
    {
      "inputs": [
        {
          "internalType": "bytes32",
          "name": "role",
          "type": "bytes32"
        },
        {
          "internalType": "address",
          "name": "account",
          "type": "address"
        }
      ],
      "name": "hasRole",
      "outputs": [
        {
          "internalType": "bool",
          "name": "",
          "type": "bool"
        }
      ],
      "stateMutability": "view",
      "type": "function"
    },
    {
      "inputs": [
        {
          "internalType": "string",
          "name": "_name",
          "type": "string"
        },
        {
          "internalType": "string",
          "name": "_symbol",
          "type": "string"
        },
        {
          "internalType": "string",
          "name": "_baseTokenURI",
          "type": "string"
        },
        {
          "internalType": "address",
          "name": "_operator",
          "type": "address"
        },
        {
          "internalType": "address",
          "name": "_blocklistAddress",
          "type": "address"
        }
      ],
      "name": "initialize",
      "outputs": [],
      "stateMutability": "nonpayable",
      "type": "function"
    },
    {
      "inputs": [
        {
          "internalType": "address",
          "name": "owner",
          "type": "address"
        },
        {
          "internalType": "address",
          "name": "operator",
          "type": "address"
        }
      ],
      "name": "isApprovedForAll",
      "outputs": [
        {
          "internalType": "bool",
          "name": "",
          "type": "bool"
        }
      ],
      "stateMutability": "view",
      "type": "function"
    },
    {
      "inputs": [
        {
          "internalType": "uint256",
          "name": "tokenId",
          "type": "uint256"
        }
      ],
      "name": "isInSquad",
      "outputs": [
        {
          "internalType": "bool",
          "name": "",
          "type": "bool"
        }
      ],
      "stateMutability": "view",
      "type": "function"
    },
    {
      "inputs": [
        {
          "internalType": "uint256",
          "name": "tokenId",
          "type": "uint256"
        }
      ],
      "name": "isOnQuest",
      "outputs": [
        {
          "internalType": "bool",
          "name": "",
          "type": "bool"
        }
      ],
      "stateMutability": "view",
      "type": "function"
    },
    {
      "inputs": [
        {
          "components": [
            {
              "internalType": "uint256",
              "name": "id",
              "type": "uint256"
            },
            {
              "internalType": "string",
              "name": "name",
              "type": "string"
            },
            {
              "internalType": "string",
              "name": "imageUrl",
              "type": "string"
            },
            {
              "internalType": "address",
              "name": "currentOwner",
              "type": "address"
            },
            {
              "internalType": "uint256",
              "name": "squadId",
              "type": "uint256"
            },
            {
              "internalType": "uint256",
              "name": "collection",
              "type": "uint256"
            },
            {
              "internalType": "uint256",
              "name": "baseFarm",
              "type": "uint256"
            },
            {
              "internalType": "uint256",
              "name": "farmPerBlock",
              "type": "uint256"
            },
            {
              "internalType": "uint256[]",
              "name": "attributes",
              "type": "uint256[]"
            },
            {
              "internalType": "uint256[]",
              "name": "traits",
              "type": "uint256[]"
            },
            {
              "internalType": "uint256[]",
              "name": "skills",
              "type": "uint256[]"
            },
            {
              "internalType": "bool",
              "name": "isDead",
              "type": "bool"
            }
          ],
          "internalType": "struct IBkChar.BkChar[]",
          "name": "characters",
          "type": "tuple[]"
        }
      ],
      "name": "migrate",
      "outputs": [],
      "stateMutability": "nonpayable",
      "type": "function"
    },
    {
      "inputs": [
        {
          "internalType": "address",
          "name": "to",
          "type": "address"
        },
        {
          "components": [
            {
              "internalType": "uint256",
              "name": "id",
              "type": "uint256"
            },
            {
              "internalType": "string",
              "name": "name",
              "type": "string"
            },
            {
              "internalType": "string",
              "name": "imageUrl",
              "type": "string"
            },
            {
              "internalType": "address",
              "name": "currentOwner",
              "type": "address"
            },
            {
              "internalType": "uint256",
              "name": "squadId",
              "type": "uint256"
            },
            {
              "internalType": "uint256",
              "name": "collection",
              "type": "uint256"
            },
            {
              "internalType": "uint256",
              "name": "baseFarm",
              "type": "uint256"
            },
            {
              "internalType": "uint256",
              "name": "farmPerBlock",
              "type": "uint256"
            },
            {
              "internalType": "uint256[]",
              "name": "attributes",
              "type": "uint256[]"
            },
            {
              "internalType": "uint256[]",
              "name": "traits",
              "type": "uint256[]"
            },
            {
              "internalType": "uint256[]",
              "name": "skills",
              "type": "uint256[]"
            },
            {
              "internalType": "bool",
              "name": "isDead",
              "type": "bool"
            }
          ],
          "internalType": "struct IBkChar.BkChar[]",
          "name": "characters",
          "type": "tuple[]"
        }
      ],
      "name": "migrateToPlayer",
      "outputs": [],
      "stateMutability": "nonpayable",
      "type": "function"
    },
    {
      "inputs": [
        {
          "internalType": "address",
          "name": "to",
          "type": "address"
        },
        {
          "components": [
            {
              "internalType": "uint256",
              "name": "id",
              "type": "uint256"
            },
            {
              "internalType": "string",
              "name": "name",
              "type": "string"
            },
            {
              "internalType": "string",
              "name": "imageUrl",
              "type": "string"
            },
            {
              "internalType": "address",
              "name": "currentOwner",
              "type": "address"
            },
            {
              "internalType": "uint256",
              "name": "squadId",
              "type": "uint256"
            },
            {
              "internalType": "uint256",
              "name": "collection",
              "type": "uint256"
            },
            {
              "internalType": "uint256",
              "name": "baseFarm",
              "type": "uint256"
            },
            {
              "internalType": "uint256",
              "name": "farmPerBlock",
              "type": "uint256"
            },
            {
              "internalType": "uint256[]",
              "name": "attributes",
              "type": "uint256[]"
            },
            {
              "internalType": "uint256[]",
              "name": "traits",
              "type": "uint256[]"
            },
            {
              "internalType": "uint256[]",
              "name": "skills",
              "type": "uint256[]"
            },
            {
              "internalType": "bool",
              "name": "isDead",
              "type": "bool"
            }
          ],
          "internalType": "struct IBkChar.BkChar",
          "name": "character",
          "type": "tuple"
        }
      ],
      "name": "mint",
      "outputs": [],
      "stateMutability": "nonpayable",
      "type": "function"
    },
    {
      "inputs": [
        {
          "internalType": "address",
          "name": "to",
          "type": "address"
        }
      ],
      "name": "mintTo",
      "outputs": [],
      "stateMutability": "nonpayable",
      "type": "function"
    },
    {
      "inputs": [],
      "name": "name",
      "outputs": [
        {
          "internalType": "string",
          "name": "",
          "type": "string"
        }
      ],
      "stateMutability": "view",
      "type": "function"
    },
    {
      "inputs": [],
      "name": "nextNftId",
      "outputs": [
        {
          "internalType": "uint256",
          "name": "",
          "type": "uint256"
        }
      ],
      "stateMutability": "view",
      "type": "function"
    },
    {
      "inputs": [
        {
          "internalType": "address",
          "name": "_owner",
          "type": "address"
        }
      ],
      "name": "nftsOfOwner",
      "outputs": [
        {
          "components": [
            {
              "internalType": "uint256",
              "name": "id",
              "type": "uint256"
            },
            {
              "internalType": "string",
              "name": "name",
              "type": "string"
            },
            {
              "internalType": "string",
              "name": "imageUrl",
              "type": "string"
            },
            {
              "internalType": "address",
              "name": "currentOwner",
              "type": "address"
            },
            {
              "internalType": "uint256",
              "name": "squadId",
              "type": "uint256"
            },
            {
              "internalType": "uint256",
              "name": "collection",
              "type": "uint256"
            },
            {
              "internalType": "uint256",
              "name": "baseFarm",
              "type": "uint256"
            },
            {
              "internalType": "uint256",
              "name": "farmPerBlock",
              "type": "uint256"
            },
            {
              "internalType": "uint256[]",
              "name": "attributes",
              "type": "uint256[]"
            },
            {
              "internalType": "uint256[]",
              "name": "traits",
              "type": "uint256[]"
            },
            {
              "internalType": "uint256[]",
              "name": "skills",
              "type": "uint256[]"
            },
            {
              "internalType": "bool",
              "name": "isDead",
              "type": "bool"
            }
          ],
          "internalType": "struct IBkChar.BkChar[]",
          "name": "",
          "type": "tuple[]"
        }
      ],
      "stateMutability": "view",
      "type": "function"
    },
    {
      "inputs": [
        {
          "internalType": "uint256",
          "name": "tokenId",
          "type": "uint256"
        }
      ],
      "name": "ownerOf",
      "outputs": [
        {
          "internalType": "address",
          "name": "",
          "type": "address"
        }
      ],
      "stateMutability": "view",
      "type": "function"
    },
    {
      "inputs": [],
      "name": "pause",
      "outputs": [],
      "stateMutability": "nonpayable",
      "type": "function"
    },
    {
      "inputs": [],
      "name": "paused",
      "outputs": [
        {
          "internalType": "bool",
          "name": "",
          "type": "bool"
        }
      ],
      "stateMutability": "view",
      "type": "function"
    },
    {
      "inputs": [
        {
          "internalType": "uint256",
          "name": "",
          "type": "uint256"
        }
      ],
      "name": "rarityAndTypeFactor",
      "outputs": [
        {
          "internalType": "uint256",
          "name": "",
          "type": "uint256"
        }
      ],
      "stateMutability": "view",
      "type": "function"
    },
    {
      "inputs": [
        {
          "internalType": "bytes32",
          "name": "role",
          "type": "bytes32"
        },
        {
          "internalType": "address",
          "name": "account",
          "type": "address"
        }
      ],
      "name": "renounceRole",
      "outputs": [],
      "stateMutability": "nonpayable",
      "type": "function"
    },
    {
      "inputs": [
        {
          "internalType": "bytes32",
          "name": "role",
          "type": "bytes32"
        },
        {
          "internalType": "address",
          "name": "account",
          "type": "address"
        }
      ],
      "name": "revokeRole",
      "outputs": [],
      "stateMutability": "nonpayable",
      "type": "function"
    },
    {
      "inputs": [
        {
          "internalType": "address",
          "name": "from",
          "type": "address"
        },
        {
          "internalType": "address",
          "name": "to",
          "type": "address"
        },
        {
          "internalType": "uint256",
          "name": "tokenId",
          "type": "uint256"
        }
      ],
      "name": "safeTransferFrom",
      "outputs": [],
      "stateMutability": "nonpayable",
      "type": "function"
    },
    {
      "inputs": [
        {
          "internalType": "address",
          "name": "from",
          "type": "address"
        },
        {
          "internalType": "address",
          "name": "to",
          "type": "address"
        },
        {
          "internalType": "uint256",
          "name": "tokenId",
          "type": "uint256"
        },
        {
          "internalType": "bytes",
          "name": "data",
          "type": "bytes"
        }
      ],
      "name": "safeTransferFrom",
      "outputs": [],
      "stateMutability": "nonpayable",
      "type": "function"
    },
    {
      "inputs": [
        {
          "internalType": "address",
          "name": "operator",
          "type": "address"
        },
        {
          "internalType": "bool",
          "name": "approved",
          "type": "bool"
        }
      ],
      "name": "setApprovalForAll",
      "outputs": [],
      "stateMutability": "nonpayable",
      "type": "function"
    },
    {
      "inputs": [
        {
          "internalType": "uint256",
          "name": "tokenId",
          "type": "uint256"
        },
        {
          "internalType": "uint256",
          "name": "attribute",
          "type": "uint256"
        },
        {
          "internalType": "uint256",
          "name": "value",
          "type": "uint256"
        }
      ],
      "name": "setAttribute",
      "outputs": [],
      "stateMutability": "nonpayable",
      "type": "function"
    },
    {
      "inputs": [
        {
          "internalType": "uint256",
          "name": "tokenId",
          "type": "uint256"
        },
        {
          "internalType": "uint256[]",
          "name": "attributes",
          "type": "uint256[]"
        }
      ],
      "name": "setAttributes",
      "outputs": [],
      "stateMutability": "nonpayable",
      "type": "function"
    },
    {
      "inputs": [
        {
          "internalType": "uint256",
          "name": "tokenId",
          "type": "uint256"
        },
        {
          "internalType": "uint256[]",
          "name": "attributes",
          "type": "uint256[]"
        },
        {
          "internalType": "uint256",
          "name": "newBaseFarm",
          "type": "uint256"
        }
      ],
      "name": "setAttributesAndBaseFarm",
      "outputs": [],
      "stateMutability": "nonpayable",
      "type": "function"
    },
    {
      "inputs": [
        {
          "internalType": "uint256",
          "name": "tokenId",
          "type": "uint256"
        },
        {
          "internalType": "uint256[]",
          "name": "attributes",
          "type": "uint256[]"
        },
        {
          "internalType": "uint256[]",
          "name": "skills",
          "type": "uint256[]"
        }
      ],
      "name": "setAttributesAndSkills",
      "outputs": [],
      "stateMutability": "nonpayable",
      "type": "function"
    },
    {
      "inputs": [
        {
          "internalType": "uint256",
          "name": "tokenId",
          "type": "uint256"
        },
        {
          "internalType": "uint256[]",
          "name": "attributes",
          "type": "uint256[]"
        },
        {
          "internalType": "uint256",
          "name": "newBaseFarm",
          "type": "uint256"
        },
        {
          "internalType": "uint256[]",
          "name": "skills",
          "type": "uint256[]"
        }
      ],
      "name": "setAttributesBaseFarmAndSkills",
      "outputs": [],
      "stateMutability": "nonpayable",
      "type": "function"
    },
    {
      "inputs": [
        {
          "internalType": "uint256",
          "name": "tokenId",
          "type": "uint256"
        },
        {
          "internalType": "uint256",
          "name": "newBaseFarm",
          "type": "uint256"
        }
      ],
      "name": "setBaseFarm",
      "outputs": [],
      "stateMutability": "nonpayable",
      "type": "function"
    },
    {
      "inputs": [
        {
          "internalType": "string",
          "name": "_baseTokenURI",
          "type": "string"
        }
      ],
      "name": "setBaseTokenURI",
      "outputs": [],
      "stateMutability": "nonpayable",
      "type": "function"
    },
    {
      "inputs": [
        {
          "internalType": "uint256",
          "name": "tokenId",
          "type": "uint256"
        },
        {
          "internalType": "uint256",
          "name": "newCollection",
          "type": "uint256"
        }
      ],
      "name": "setCollection",
      "outputs": [],
      "stateMutability": "nonpayable",
      "type": "function"
    },
    {
      "inputs": [
        {
          "internalType": "address",
          "name": "_farm",
          "type": "address"
        }
      ],
      "name": "setFarm",
      "outputs": [],
      "stateMutability": "nonpayable",
      "type": "function"
    },
    {
      "inputs": [
        {
          "internalType": "uint256",
          "name": "tokenId",
          "type": "uint256"
        },
        {
          "internalType": "bool",
          "name": "isDead",
          "type": "bool"
        }
      ],
      "name": "setIsDead",
      "outputs": [],
      "stateMutability": "nonpayable",
      "type": "function"
    },
    {
      "inputs": [
        {
          "internalType": "uint256",
          "name": "tokenId",
          "type": "uint256"
        },
        {
          "internalType": "string",
          "name": "newName",
          "type": "string"
        },
        {
          "internalType": "string",
          "name": "newImageUrl",
          "type": "string"
        }
      ],
      "name": "setNameAndImage",
      "outputs": [],
      "stateMutability": "nonpayable",
      "type": "function"
    },
    {
      "inputs": [
        {
          "internalType": "uint256",
          "name": "tokenId",
          "type": "uint256"
        },
        {
          "internalType": "uint256[]",
          "name": "_skills",
          "type": "uint256[]"
        }
      ],
      "name": "setSkills",
      "outputs": [],
      "stateMutability": "nonpayable",
      "type": "function"
    },
    {
      "inputs": [
        {
          "internalType": "uint256",
          "name": "tokenId",
          "type": "uint256"
        },
        {
          "internalType": "uint256",
          "name": "squadId",
          "type": "uint256"
        }
      ],
      "name": "setSquad",
      "outputs": [],
      "stateMutability": "nonpayable",
      "type": "function"
    },
    {
      "inputs": [
        {
          "internalType": "uint256",
          "name": "tokenId",
          "type": "uint256"
        },
        {
          "internalType": "uint256[]",
          "name": "traits",
          "type": "uint256[]"
        }
      ],
      "name": "setTraits",
      "outputs": [],
      "stateMutability": "nonpayable",
      "type": "function"
    },
    {
      "inputs": [
        {
          "internalType": "uint256",
          "name": "tokenId",
          "type": "uint256"
        }
      ],
      "name": "squadOf",
      "outputs": [
        {
          "internalType": "uint256",
          "name": "",
          "type": "uint256"
        }
      ],
      "stateMutability": "view",
      "type": "function"
    },
    {
      "inputs": [
        {
          "internalType": "bytes4",
          "name": "interfaceId",
          "type": "bytes4"
        }
      ],
      "name": "supportsInterface",
      "outputs": [
        {
          "internalType": "bool",
          "name": "",
          "type": "bool"
        }
      ],
      "stateMutability": "view",
      "type": "function"
    },
    {
      "inputs": [],
      "name": "symbol",
      "outputs": [
        {
          "internalType": "string",
          "name": "",
          "type": "string"
        }
      ],
      "stateMutability": "view",
      "type": "function"
    },
    {
      "inputs": [
        {
          "internalType": "uint256",
          "name": "index",
          "type": "uint256"
        }
      ],
      "name": "tokenByIndex",
      "outputs": [
        {
          "internalType": "uint256",
          "name": "",
          "type": "uint256"
        }
      ],
      "stateMutability": "view",
      "type": "function"
    },
    {
      "inputs": [
        {
          "internalType": "address",
          "name": "owner",
          "type": "address"
        },
        {
          "internalType": "uint256",
          "name": "index",
          "type": "uint256"
        }
      ],
      "name": "tokenOfOwnerByIndex",
      "outputs": [
        {
          "internalType": "uint256",
          "name": "",
          "type": "uint256"
        }
      ],
      "stateMutability": "view",
      "type": "function"
    },
    {
      "inputs": [
        {
          "internalType": "uint256",
          "name": "tokenId",
          "type": "uint256"
        }
      ],
      "name": "tokenURI",
      "outputs": [
        {
          "internalType": "string",
          "name": "",
          "type": "string"
        }
      ],
      "stateMutability": "view",
      "type": "function"
    },
    {
      "inputs": [
        {
          "internalType": "address",
          "name": "_owner",
          "type": "address"
        }
      ],
      "name": "tokensOfOwner",
      "outputs": [
        {
          "internalType": "uint256[]",
          "name": "",
          "type": "uint256[]"
        }
      ],
      "stateMutability": "view",
      "type": "function"
    },
    {
      "inputs": [],
      "name": "totalSupply",
      "outputs": [
        {
          "internalType": "uint256",
          "name": "",
          "type": "uint256"
        }
      ],
      "stateMutability": "view",
      "type": "function"
    },
    {
      "inputs": [
        {
          "internalType": "uint256",
          "name": "tokenId",
          "type": "uint256"
        }
      ],
      "name": "traitsOf",
      "outputs": [
        {
          "internalType": "uint256[]",
          "name": "",
          "type": "uint256[]"
        }
      ],
      "stateMutability": "view",
      "type": "function"
    },
    {
      "inputs": [
        {
          "internalType": "address",
          "name": "from",
          "type": "address"
        },
        {
          "internalType": "address",
          "name": "to",
          "type": "address"
        },
        {
          "internalType": "uint256",
          "name": "tokenId",
          "type": "uint256"
        }
      ],
      "name": "transferFrom",
      "outputs": [],
      "stateMutability": "nonpayable",
      "type": "function"
    },
    {
      "inputs": [],
      "name": "unpause",
      "outputs": [],
      "stateMutability": "nonpayable",
      "type": "function"
    }
  ],
  "bytecode": "0x608060405234801561001057600080fd5b5061514e806100206000396000f3fe608060405234801561001057600080fd5b50600436106103e65760003560e01c80637895d4381161020a578063c31e99b611610125578063d547741f116100b8578063de71b06711610087578063de71b067146108f7578063e2a9d72e1461090a578063e985e9c514610932578063ed6be91f1461096e578063fd5eea4e1461098157600080fd5b8063d547741f146108b5578063d547cfb7146108c8578063d64e5396146108d0578063d6d0faee146108e457600080fd5b8063c87b56dd116100f4578063c87b56dd14610869578063c99efaa01461087c578063cbaab6dc1461088f578063d4f26c51146108a257600080fd5b8063c31e99b6146107ed578063c3fe4e2014610800578063c7778baa14610824578063c7b84f8f1461084857600080fd5b806393f1da4f1161019d578063a22cb4651161016c578063a22cb465146107a1578063b3d84ae8146107b4578063b88d4fde146107c7578063bd7a2d54146107da57600080fd5b806393f1da4f14610774578063949755851461077e57806395d89b4114610791578063a217fddf1461079957600080fd5b80638462151c116101d95780638462151c1461072857806386931e491461073b57806388d210f01461074e57806391d148541461076157600080fd5b80637895d438146106e757806379cc6790146106fa5780637cecd56e1461070d5780638456cb591461072057600080fd5b80633ca8a034116103055780635efab6e41161029857806366cb49601161026757806366cb49601461067757806366dbd6be1461068a578063698c9d7e1461069d57806370a08231146106c1578063755edd17146106d457600080fd5b80635efab6e41461061c57806362875b841461062f578063634210f41461064f5780636352211e1461066457600080fd5b80634f6ccce7116102d45780634f6ccce7146105c557806353017bd1146105d85780635751907b146105fe5780635c975abb1461061157600080fd5b80633ca8a034146105775780633f4ba83a1461058a57806341f63bfd1461059257806342842e0e146105b257600080fd5b806321005a311161037d5780632f745c591161034c5780632f745c591461052a57806330176e131461053d57806336568abe1461055057806336e9332d1461056357600080fd5b806321005a31146104ce57806323b872dd146104e1578063248a9ca3146104f45780632f2ff15d1461051757600080fd5b806309363c44116103b957806309363c4414610474578063095ea7b31461049457806318160ddd146104a957806320a63d32146104bb57600080fd5b806301ffc9a7146103eb57806304d3a6661461041357806306fdde0314610434578063081812fc14610449575b600080fd5b6103fe6103f9366004614073565b610994565b60405190151581526020015b60405180910390f35b610426610421366004614090565b6109a5565b60405161040a9291906140e4565b61043c610a6d565b60405161040a919061416a565b61045c610457366004614090565b610aff565b6040516001600160a01b03909116815260200161040a565b610487610482366004614090565b610b26565b60405161040a919061417d565b6104a76104a23660046141ac565b610b8c565b005b6099545b60405190815260200161040a565b6104a76104c936600461451b565b610ca7565b6104a76104dc36600461454f565b610ddf565b6104a76104ef366004614595565b610e1d565b6104ad610502366004614090565b600090815260c9602052604090206001015490565b6104a76105253660046145d1565b610e4e565b6104ad6105383660046141ac565b610e73565b6104a761054b3660046145fd565b610f09565b6104a761055e3660046145d1565b610f35565b6101305461045c906001600160a01b031681565b6103fe610585366004614090565b610fb3565b6104a7611065565b6105a56105a0366004614090565b611090565b60405161040a9190614723565b6104a76105c0366004614595565b61135c565b6104ad6105d3366004614090565b611377565b6103fe6105e6366004614090565b60009081526101316020526040902060040154151590565b6104ad61060c366004614736565b61140a565b60fb5460ff166103fe565b61048761062a366004614090565b611441565b61064261063d366004614758565b6114a5565b60405161040a9190614773565b61012d546103fe90600160a01b900460ff1681565b61045c610672366004614090565b61155a565b6104a76106853660046147d5565b6115ba565b6104a761069836600461484b565b611637565b6104ad6106ab366004614090565b6000908152610131602052604090206007015490565b6104ad6106cf366004614758565b611666565b6104a76106e2366004614758565b6116ec565b6104a76106f536600461488e565b61171f565b6104a76107083660046141ac565b6117a1565b6104a761071b3660046148d1565b61181b565b6104a7611858565b610487610736366004614758565b611880565b6104a7610749366004614901565b611919565b6104a761075c36600461454f565b611988565b6103fe61076f3660046145d1565b6119f6565b6104ad61012e5481565b6104a761078c36600461496d565b611a21565b61043c611a86565b6104ad600081565b6104a76107af3660046149cf565b611a95565b6104a76107c2366004614736565b611aa0565b6104a76107d53660046149fb565b611aff565b6104a76107e8366004614a6a565b611b31565b6106426107fb366004614ab9565b611b8e565b6104ad61080e366004614090565b6000908152610131602052604090206004015490565b6104ad610832366004614090565b6000908152610131602052604090206005015490565b6104ad610856366004614090565b6101326020526000908152604090205481565b61043c610877366004614090565b611f03565b6104a761088a366004614aed565b611f9f565b6104a761089d36600461454f565b612051565b6104a76108b0366004614758565b6120bf565b6104a76108c33660046145d1565b6120fb565b61043c612120565b61012d5461045c906001600160a01b031681565b6104a76108f2366004614aed565b6121af565b6104a7610905366004614736565b61235a565b61091d610918366004614090565b612390565b60405161040a99989796959493929190614b96565b6103fe610940366004614c04565b6001600160a01b039182166000908152606a6020908152604080832093909416825291909152205460ff1690565b6104a761097c366004614736565b6124f8565b6104a761098f366004614c2e565b612560565b600061099f826125da565b92915050565b6000818152610131602090815260409182902060088101805484518185028101850190955280855260609485949293600a019290918491830182828015610a0b57602002820191906000526020600020905b8154815260200190600101908083116109f7575b5050505050915080805480602002602001604051908101604052809291908181526020018280548015610a5d57602002820191906000526020600020905b815481526020019060010190808311610a49575b5050505050905091509150915091565b606060658054610a7c90614c5a565b80601f0160208091040260200160405190810160405280929190818152602001828054610aa890614c5a565b8015610af55780601f10610aca57610100808354040283529160200191610af5565b820191906000526020600020905b815481529060010190602001808311610ad857829003601f168201915b5050505050905090565b6000610b0a826125ff565b506000908152606960205260409020546001600160a01b031690565b60008181526101316020908152604091829020600801805483518184028101840190945280845260609392830182828015610b8057602002820191906000526020600020905b815481526020019060010190808311610b6c575b50505050509050919050565b6000610b978261155a565b9050806001600160a01b0316836001600160a01b03161415610c0a5760405162461bcd60e51b815260206004820152602160248201527f4552433732313a20617070726f76616c20746f2063757272656e74206f776e656044820152603960f91b60648201526084015b60405180910390fd5b336001600160a01b0382161480610c265750610c268133610940565b610c985760405162461bcd60e51b815260206004820152603d60248201527f4552433732313a20617070726f76652063616c6c6572206973206e6f7420746f60448201527f6b656e206f776e6572206f7220617070726f76656420666f7220616c6c0000006064820152608401610c01565b610ca2838361265e565b505050565b7f9f2df0fed2c77648de5860a4cc508cd0818c85b8b8a1ab4ceeef8d981c8956a6610cd1816126cc565b61012e5482516000906001600160401b03811115610cf157610cf16141d6565b604051908082528060200260200182016040528015610d1a578160200160208202803683370190505b50905060005b8451811015610dcf57610d75858281518110610d3e57610d3e614c95565b602002602001015160600151868381518110610d5c57610d5c614c95565b60200260200101518386610d709190614cc1565b6126d6565b848181518110610d8757610d87614c95565b602002602001015160600151828281518110610da557610da5614c95565b6001600160a01b039092166020928302919091019091015280610dc781614cd9565b915050610d20565b50610dd981612935565b50505050565b6000805160206150d9833981519152610df7816126cc565b6000838152610131602090815260409091208351610dd992600a90920191850190613f1e565b610e273382612990565b610e435760405162461bcd60e51b8152600401610c0190614cf4565b610ca2838383612a0f565b600082815260c96020526040902060010154610e69816126cc565b610ca28383612b80565b6000610e7e83611666565b8210610ee05760405162461bcd60e51b815260206004820152602b60248201527f455243373231456e756d657261626c653a206f776e657220696e646578206f7560448201526a74206f6620626f756e647360a81b6064820152608401610c01565b506001600160a01b03919091166000908152609760209081526040808320938352929052205490565b6000805160206150f9833981519152610f21816126cc565b8151610ca29061012f906020850190613f69565b6001600160a01b0381163314610fa55760405162461bcd60e51b815260206004820152602f60248201527f416363657373436f6e74726f6c3a2063616e206f6e6c792072656e6f756e636560448201526e103937b632b9903337b91039b2b63360891b6064820152608401610c01565b610faf8282612c06565b5050565b60008181526101316020526040812060040154610fd257506000919050565b6101305460008381526101316020526040908190206004908101549151637c2c1b1d60e01b8152908101919091526001600160a01b0390911690637c2c1b1d9060240160206040518083038186803b15801561102d57600080fd5b505afa158015611041573d6000803e3d6000fd5b505050506040513d601f19601f8201168201806040525081019061099f9190614d41565b6000805160206150f983398151915261107d816126cc565b611085612c6d565b61108d612cb8565b50565b611098613fdc565b610131600083815260200190815260200160002060405180610180016040529081600082015481526020016001820180546110d290614c5a565b80601f01602080910402602001604051908101604052809291908181526020018280546110fe90614c5a565b801561114b5780601f106111205761010080835404028352916020019161114b565b820191906000526020600020905b81548152906001019060200180831161112e57829003601f168201915b5050505050815260200160028201805461116490614c5a565b80601f016020809104026020016040519081016040528092919081815260200182805461119090614c5a565b80156111dd5780601f106111b2576101008083540402835291602001916111dd565b820191906000526020600020905b8154815290600101906020018083116111c057829003601f168201915b505050505081526020016003820160009054906101000a90046001600160a01b03166001600160a01b03166001600160a01b03168152602001600482015481526020016005820154815260200160068201548152602001600782015481526020016008820180548060200260200160405190810160405280929190818152602001828054801561128c57602002820191906000526020600020905b815481526020019060010190808311611278575b50505050508152602001600982018054806020026020016040519081016040528092919081815260200182805480156112e457602002820191906000526020600020905b8154815260200190600101908083116112d0575b50505050508152602001600a820180548060200260200160405190810160405280929190818152602001828054801561133c57602002820191906000526020600020905b815481526020019060010190808311611328575b5050509183525050600b919091015460ff16151560209091015292915050565b610ca283838360405180602001604052806000815250611aff565b600061138260995490565b82106113e55760405162461bcd60e51b815260206004820152602c60248201527f455243373231456e756d657261626c653a20676c6f62616c20696e646578206f60448201526b7574206f6620626f756e647360a01b6064820152608401610c01565b609982815481106113f8576113f8614c95565b90600052602060002001549050919050565b60008281526101316020526040812060080180548390811061142e5761142e614c95565b9060005260206000200154905092915050565b60008181526101316020908152604091829020600901805483518184028101840190945280845260609392830182828015610b805760200282019190600052602060002090815481526020019060010190808311610b6c5750505050509050919050565b606060006114b283611666565b90506000816001600160401b038111156114ce576114ce6141d6565b60405190808252806020026020018201604052801561150757816020015b6114f4613fdc565b8152602001906001900390816114ec5790505b50905060005b82811015611552576115226105a08683610e73565b82828151811061153457611534614c95565b6020026020010181905250808061154a90614cd9565b91505061150d565b509392505050565b6000818152606760205260408120546001600160a01b03168061099f5760405162461bcd60e51b8152602060048201526018602482015277115490cdcc8c4e881a5b9d985b1a59081d1bdad95b88125160421b6044820152606401610c01565b6000805160206150d98339815191526115d2816126cc565b60008581526101316020908152604090912085516115f892600890920191870190613f1e565b5060008581526101316020908152604090912060068101859055835161162692600a90920191850190613f1e565b5061163085612d0a565b5050505050565b6000805160206150d983398151915261164f816126cc565b61165d838361012e546126d6565b610ca283612d2f565b60006001600160a01b0382166116d05760405162461bcd60e51b815260206004820152602960248201527f4552433732313a2061646472657373207a65726f206973206e6f7420612076616044820152683634b21037bbb732b960b91b6064820152608401610c01565b506001600160a01b031660009081526068602052604090205490565b7f9f2df0fed2c77648de5860a4cc508cd0818c85b8b8a1ab4ceeef8d981c8956a6611716816126cc565b610faf82612d2f565b7f9f2df0fed2c77648de5860a4cc508cd0818c85b8b8a1ab4ceeef8d981c8956a6611749816126cc565b61012e5460005b8351811015611795576117838585838151811061176f5761176f614c95565b60200260200101518385610d709190614cc1565b8061178d81614cd9565b915050611750565b50610dd9848451612d55565b816001600160a01b03166117b48261155a565b6001600160a01b0316146117f25760405162461bcd60e51b815260206004820152600560248201526437bbb732b960d91b6044820152606401610c01565b6117fb81612d97565b600090815261013160205260409020600b01805460ff1916600117905550565b6000805160206150d9833981519152611833816126cc565b5060009182526101316020526040909120600b01805460ff1916911515919091179055565b6000805160206150f9833981519152611870816126cc565b611878612e3a565b61108d612e80565b6060600061188d83611666565b90506000816001600160401b038111156118a9576118a96141d6565b6040519080825280602002602001820160405280156118d2578160200160208202803683370190505b50905060005b82811015611552576118ea8582610e73565b8282815181106118fc576118fc614c95565b60209081029190910101528061191181614cd9565b9150506118d8565b6000805160206150d9833981519152611931816126cc565b600084815261013160209081526040909120845161195792600890920191860190613f1e565b50600084815261013160209081526040909120835161197e92600a90920191850190613f1e565b50610dd984612d0a565b6000805160206150d98339815191526119a0816126cc565b6119a983610fb3565b156119c65760405162461bcd60e51b8152600401610c0190614d5e565b60008381526101316020908152604090912083516119ec92600990920191850190613f1e565b50610ca283612ebd565b600091825260c9602090815260408084206001600160a01b0393909316845291905290205460ff1690565b6000805160206150d9833981519152611a39816126cc565b6000848152610131602090815260409091208451611a5f92600190920191860190613f69565b50600084815261013160209081526040909120835161163092600290920191850190613f69565b606060668054610a7c90614c5a565b610faf338383612f46565b6000805160206150d9833981519152611ab8816126cc565b6000838152610131602052604090206004015415611ae85760405162461bcd60e51b8152600401610c0190614d7b565b506000918252610131602052604090912060050155565b611b093383612990565b611b255760405162461bcd60e51b8152600401610c0190614cf4565b610dd984848484613015565b6000805160206150d9833981519152611b49816126cc565b6000848152610131602090815260409091208451611b6f92600890920191860190613f1e565b50600084815261013160205260409020600601829055610dd984612d0a565b6060600082516001600160401b03811115611bab57611bab6141d6565b604051908082528060200260200182016040528015611be457816020015b611bd1613fdc565b815260200190600190039081611bc95790505b50905060005b8351811015611efc576101316000858381518110611c0a57611c0a614c95565b602002602001015181526020019081526020016000206040518061018001604052908160008201548152602001600182018054611c4690614c5a565b80601f0160208091040260200160405190810160405280929190818152602001828054611c7290614c5a565b8015611cbf5780601f10611c9457610100808354040283529160200191611cbf565b820191906000526020600020905b815481529060010190602001808311611ca257829003601f168201915b50505050508152602001600282018054611cd890614c5a565b80601f0160208091040260200160405190810160405280929190818152602001828054611d0490614c5a565b8015611d515780601f10611d2657610100808354040283529160200191611d51565b820191906000526020600020905b815481529060010190602001808311611d3457829003601f168201915b505050505081526020016003820160009054906101000a90046001600160a01b03166001600160a01b03166001600160a01b031681526020016004820154815260200160058201548152602001600682015481526020016007820154815260200160088201805480602002602001604051908101604052809291908181526020018280548015611e0057602002820191906000526020600020905b815481526020019060010190808311611dec575b5050505050815260200160098201805480602002602001604051908101604052809291908181526020018280548015611e5857602002820191906000526020600020905b815481526020019060010190808311611e44575b50505050508152602001600a8201805480602002602001604051908101604052809291908181526020018280548015611eb057602002820191906000526020600020905b815481526020019060010190808311611e9c575b5050509183525050600b919091015460ff1615156020909101528251839083908110611ede57611ede614c95565b60200260200101819052508080611ef490614cd9565b915050611bea565b5092915050565b600081815261013160205260409020600201805460609190611f2490614c5a565b80601f0160208091040260200160405190810160405280929190818152602001828054611f5090614c5a565b8015610b805780601f10611f7257610100808354040283529160200191610b80565b820191906000526020600020905b815481529060010190602001808311611f805750939695505050505050565b600054610100900460ff16611fc65760405162461bcd60e51b8152600401610c0190614d9c565b611fd08585613048565b611fd8613079565b611fe06130a0565b61200c8161012d80546001600160a81b0319166001600160a01b0390921691909117600160a01b179055565b6120176000836130cf565b61202f6000805160206150f9833981519152836130cf565b82516120439061012f906020860190613f69565b5050600161012e5550505050565b6000805160206150d9833981519152612069816126cc565b61207283610fb3565b1561208f5760405162461bcd60e51b8152600401610c0190614d5e565b60008381526101316020908152604090912083516120b592600890920191850190613f1e565b50610ca283612d0a565b6000805160206150f98339815191526120d7816126cc565b5061013080546001600160a01b0319166001600160a01b0392909216919091179055565b600082815260c96020526040902060010154612116816126cc565b610ca28383612c06565b61012f805461212e90614c5a565b80601f016020809104026020016040519081016040528092919081815260200182805461215a90614c5a565b80156121a75780601f1061217c576101008083540402835291602001916121a7565b820191906000526020600020905b81548152906001019060200180831161218a57829003601f168201915b505050505081565b600054610100900460ff16158080156121cf5750600054600160ff909116105b806121e95750303b1580156121e9575060005460ff166001145b61224c5760405162461bcd60e51b815260206004820152602e60248201527f496e697469616c697a61626c653a20636f6e747261637420697320616c72656160448201526d191e481a5b9a5d1a585b1a5e995960921b6064820152608401610c01565b6000805460ff19166001179055801561226f576000805461ff0019166101001790555b61227c8686868686611f9f565b600160008190526101326020527fb0176a9aff47fe9db68ba87663f92f59cb14d8f7ca54d4ab0fcc1940414663538190555b600a81101561230b5760016122c38282614cc1565b6122ce906002614ecb565b6122d89190614ed7565b61013260006122e8846001614cc1565b81526020810191909152604001600020558061230381614cd9565b9150506122ae565b508015612352576000805461ff0019169055604051600181527f7f26b83ff96e1f2b6a682f133852f6798a09c465da95921460cefb38474024989060200160405180910390a15b505050505050565b6000805160206150d9833981519152612372816126cc565b600083815261013160205260409020600601829055610ca283612d0a565b61013160205260009081526040902080546001820180549192916123b390614c5a565b80601f01602080910402602001604051908101604052809291908181526020018280546123df90614c5a565b801561242c5780601f106124015761010080835404028352916020019161242c565b820191906000526020600020905b81548152906001019060200180831161240f57829003601f168201915b50505050509080600201805461244190614c5a565b80601f016020809104026020016040519081016040528092919081815260200182805461246d90614c5a565b80156124ba5780601f1061248f576101008083540402835291602001916124ba565b820191906000526020600020905b81548152906001019060200180831161249d57829003601f168201915b50505060038401546004850154600586015460068701546007880154600b9098015496976001600160a01b0390941696929550909350919060ff1689565b6000805160206150d9833981519152612510816126cc565b60008381526101316020526040902060040154158061252d575081155b6125495760405162461bcd60e51b8152600401610c0190614d7b565b506000918252610131602052604090912060040155565b6000805160206150d9833981519152612578816126cc565b61258184610fb3565b1561259e5760405162461bcd60e51b8152600401610c0190614d5e565b6000848152610131602052604090206008018054839190859081106125c5576125c5614c95565b600091825260209091200155610dd984612d0a565b60006001600160e01b03198216637965db0b60e01b148061099f575061099f826130d9565b6000818152606760205260409020546001600160a01b031661108d5760405162461bcd60e51b8152602060048201526018602482015277115490cdcc8c4e881a5b9d985b1a59081d1bdad95b88125160421b6044820152606401610c01565b600081815260696020526040902080546001600160a01b0319166001600160a01b03841690811790915581906126938261155a565b6001600160a01b03167f8c5be1e5ebec7d5bd14f71427d1e84f3dd0314c0f7b2291e5b200ac8c7c3b92560405160405180910390a45050565b61108d81336130fe565b60c082015161272d576127278261010001516000815181106126fa576126fa614c95565b602002602001015183610100015160018151811061271a5761271a614c95565b6020026020010151613157565b60c08301525b6040518061018001604052808281526020018360200151815260200183604001518152602001846001600160a01b03168152602001600081526020018360a0015181526020018360c00151815260200160008152602001836101000151815260200183610120015181526020018361014001518152602001836101600151151581525061013160008381526020019081526020016000206000820151816000015560208201518160010190805190602001906127ea929190613f69565b5060408201518051612806916002840191602090910190613f69565b5060608201516003820180546001600160a01b0319166001600160a01b039092169190911790556080820151600482015560a0820151600582015560c0820151600682015560e082015160078201556101008201518051612871916008840191602090910190613f1e565b50610120820151805161288e916009840191602090910190613f1e565b5061014082015180516128ab91600a840191602090910190613f1e565b5061016082015181600b0160006101000a81548160ff02191690831515021790555090505061291d8260c001518361010001516002815181106128f0576128f0614c95565b602002602001015184610100015160038151811061291057612910614c95565b602002602001015161318f565b60009182526101316020526040909120600701555050565b61012e5460005b82518110156129885761296883828151811061295a5761295a614c95565b6020026020010151836131c6565b8161297281614cd9565b925050808061298090614cd9565b91505061293c565b5061012e5550565b60008061299c8361155a565b9050806001600160a01b0316846001600160a01b031614806129e357506001600160a01b038082166000908152606a602090815260408083209388168352929052205460ff165b80612a075750836001600160a01b03166129fc84610aff565b6001600160a01b0316145b949350505050565b826001600160a01b0316612a228261155a565b6001600160a01b031614612a485760405162461bcd60e51b8152600401610c0190614eee565b6001600160a01b038216612aaa5760405162461bcd60e51b8152602060048201526024808201527f4552433732313a207472616e7366657220746f20746865207a65726f206164646044820152637265737360e01b6064820152608401610c01565b612ab78383836001613309565b826001600160a01b0316612aca8261155a565b6001600160a01b031614612af05760405162461bcd60e51b8152600401610c0190614eee565b600081815260696020908152604080832080546001600160a01b03199081169091556001600160a01b0387811680865260688552838620805460001901905590871680865283862080546001019055868652606790945282852080549092168417909155905184937fddf252ad1be2c89b69c2b068fc378daa952ba7f163c4a11628f55a4df523b3ef91a4505050565b612b8a82826119f6565b610faf57600082815260c9602090815260408083206001600160a01b03851684529091529020805460ff19166001179055612bc23390565b6001600160a01b0316816001600160a01b0316837f2f8788117e7eff1d82e926ec794901d17c78024a50270940304540a733656f0d60405160405180910390a45050565b612c1082826119f6565b15610faf57600082815260c9602090815260408083206001600160a01b0385168085529252808320805460ff1916905551339285917ff6391f5c32d9c69d2a47ea670b442974b53935d1edc7fd64eb21e047a839171b9190a45050565b60fb5460ff16612cb65760405162461bcd60e51b815260206004820152601460248201527314185d5cd8589b194e881b9bdd081c185d5cd95960621b6044820152606401610c01565b565b612cc0612c6d565b60fb805460ff191690557f5db9ee0a495bf2e6ff9c91a7834c1ba4fdd244a5e8aa4e537bd38aeae4b073aa335b6040516001600160a01b03909116815260200160405180910390a1565b612d13816133e3565b6000828152610131602052604090206007015561108d81612ebd565b612d3c8161012e546131c6565b61012e8054906000612d4d83614cd9565b919050555050565b61012e5460005b82811015612d8e57612d6e84836131c6565b81612d7881614cd9565b9250508080612d8690614cd9565b915050612d5c565b5061012e555050565b6000612da28261155a565b9050612db2816000846001613309565b612dbb8261155a565b600083815260696020908152604080832080546001600160a01b03199081169091556001600160a01b0385168085526068845282852080546000190190558785526067909352818420805490911690555192935084927fddf252ad1be2c89b69c2b068fc378daa952ba7f163c4a11628f55a4df523b3ef908390a45050565b60fb5460ff1615612cb65760405162461bcd60e51b815260206004820152601060248201526f14185d5cd8589b194e881c185d5cd95960821b6044820152606401610c01565b612e88612e3a565b60fb805460ff191660011790557f62e78cea01bee320cd4e420270b5ea74000d11b0c9f74754ebdbfc544b05a258612ced3390565b600081815261013160205260409020600401541561108d576101305460008281526101316020526040908190206004908101549151632da17b6560e21b8152908101919091526001600160a01b039091169063b685ed9490602401600060405180830381600087803b158015612f3257600080fd5b505af1158015611630573d6000803e3d6000fd5b816001600160a01b0316836001600160a01b03161415612fa85760405162461bcd60e51b815260206004820152601960248201527f4552433732313a20617070726f766520746f2063616c6c6572000000000000006044820152606401610c01565b6001600160a01b038381166000818152606a6020908152604080832094871680845294825291829020805460ff191686151590811790915591519182527f17307eab39ab6107e8899845ad3d59bd9653f200f220920489ca2b5937696c31910160405180910390a3505050565b613020848484612a0f565b61302c848484846136f1565b610dd95760405162461bcd60e51b8152600401610c0190614f33565b600054610100900460ff1661306f5760405162461bcd60e51b8152600401610c0190614d9c565b610faf82826137fe565b600054610100900460ff16612cb65760405162461bcd60e51b8152600401610c0190614d9c565b600054610100900460ff166130c75760405162461bcd60e51b8152600401610c0190614d9c565b612cb661384c565b610faf8282612b80565b60006001600160e01b0319821663780e9d6360e01b148061099f575061099f8261387f565b61310882826119f6565b610faf57613115816138cf565b6131208360206138e1565b604051602001613131929190614f85565b60408051601f198184030181529082905262461bcd60e51b8252610c019160040161416a565b60008281526101326020526040808220548383529082205461317e90642e90edd000614ffa565b6131889190614ffa565b9392505050565b600061319c826006614ed7565b600a6131a88587614ffa565b6131b29190615019565b6131bc9190615019565b612a079085614cc1565b6000818152606760205260409020546001600160a01b03161561322b5760405162461bcd60e51b815260206004820152601c60248201527f4552433732313a20746f6b656e20616c7265616479206d696e746564000000006044820152606401610c01565b613239600083836001613309565b6000818152606760205260409020546001600160a01b03161561329e5760405162461bcd60e51b815260206004820152601c60248201527f4552433732313a20746f6b656e20616c7265616479206d696e746564000000006044820152606401610c01565b6001600160a01b038216600081815260686020908152604080832080546001019055848352606790915280822080546001600160a01b0319168417905551839291907fddf252ad1be2c89b69c2b068fc378daa952ba7f163c4a11628f55a4df523b3ef908290a45050565b61331584848484613a7c565b60008281526101316020526040902060040154156133455760405162461bcd60e51b8152600401610c0190614d7b565b600082815261013160205260409020600b015460ff16158061337a575061337a6000805160206150d9833981519152336119f6565b6133af5760405162461bcd60e51b8152600401610c01906020808252600490820152631919585960e21b604082015260600190565b5060009081526101316020526040902060030180546001600160a01b0319166001600160a01b039290921691909117905550565b600081815261013160209081526040808320815161018081019092528054825260018101805485948401919061341890614c5a565b80601f016020809104026020016040519081016040528092919081815260200182805461344490614c5a565b80156134915780601f1061346657610100808354040283529160200191613491565b820191906000526020600020905b81548152906001019060200180831161347457829003601f168201915b505050505081526020016002820180546134aa90614c5a565b80601f01602080910402602001604051908101604052809291908181526020018280546134d690614c5a565b80156135235780601f106134f857610100808354040283529160200191613523565b820191906000526020600020905b81548152906001019060200180831161350657829003601f168201915b505050505081526020016003820160009054906101000a90046001600160a01b03166001600160a01b03166001600160a01b0316815260200160048201548152602001600582015481526020016006820154815260200160078201548152602001600882018054806020026020016040519081016040528092919081815260200182805480156135d257602002820191906000526020600020905b8154815260200190600101908083116135be575b505050505081526020016009820180548060200260200160405190810160405280929190818152602001828054801561362a57602002820191906000526020600020905b815481526020019060010190808311613616575b50505050508152602001600a820180548060200260200160405190810160405280929190818152602001828054801561368257602002820191906000526020600020905b81548152602001906001019080831161366e575b5050509183525050600b919091015460ff16151560209091015260c0810151610100820151919250613188916002815181106136c0576136c0614c95565b6020026020010151836101000151600360058111156136e1576136e161503b565b8151811061291057612910614c95565b60006001600160a01b0384163b156137f357604051630a85bd0160e11b81526001600160a01b0385169063150b7a0290613735903390899088908890600401615051565b602060405180830381600087803b15801561374f57600080fd5b505af192505050801561377f575060408051601f3d908101601f1916820190925261377c9181019061508e565b60015b6137d9573d8080156137ad576040519150601f19603f3d011682016040523d82523d6000602084013e6137b2565b606091505b5080516137d15760405162461bcd60e51b8152600401610c0190614f33565b805181602001fd5b6001600160e01b031916630a85bd0160e11b149050612a07565b506001949350505050565b600054610100900460ff166138255760405162461bcd60e51b8152600401610c0190614d9c565b8151613838906065906020850190613f69565b508051610ca2906066906020840190613f69565b600054610100900460ff166138735760405162461bcd60e51b8152600401610c0190614d9c565b60fb805460ff19169055565b60006001600160e01b031982166380ac58cd60e01b14806138b057506001600160e01b03198216635b5e139f60e01b145b8061099f57506301ffc9a760e01b6001600160e01b031983161461099f565b606061099f6001600160a01b03831660145b606060006138f0836002614ffa565b6138fb906002614cc1565b6001600160401b03811115613912576139126141d6565b6040519080825280601f01601f19166020018201604052801561393c576020820181803683370190505b509050600360fc1b8160008151811061395757613957614c95565b60200101906001600160f81b031916908160001a905350600f60fb1b8160018151811061398657613986614c95565b60200101906001600160f81b031916908160001a90535060006139aa846002614ffa565b6139b5906001614cc1565b90505b6001811115613a2d576f181899199a1a9b1b9c1cb0b131b232b360811b85600f16601081106139e9576139e9614c95565b1a60f81b8282815181106139ff576139ff614c95565b60200101906001600160f81b031916908160001a90535060049490941c93613a26816150ab565b90506139b8565b5083156131885760405162461bcd60e51b815260206004820181905260248201527f537472696e67733a20686578206c656e67746820696e73756666696369656e746044820152606401610c01565b613a8884848484613b2a565b60fb5460ff1615613ac45760405162461bcd60e51b81526020600482015260066024820152651c185d5cd95960d21b6044820152606401610c01565b613ace8484613c63565b15610dd95760405162461bcd60e51b815260206004820152602660248201527f53656e64657220616e642f6f7220726563697069656e7420697320626c6f636b6044820152651b1a5cdd195960d21b6064820152608401610c01565b613b3684848484613d06565b6001811115613ba55760405162461bcd60e51b815260206004820152603560248201527f455243373231456e756d657261626c653a20636f6e7365637574697665207472604482015274185b9cd9995c9cc81b9bdd081cdd5c1c1bdc9d1959605a1b6064820152608401610c01565b816001600160a01b038516613c0157613bfc81609980546000838152609a60205260408120829055600182018355919091527f72a152ddfb8e864297c917af52ea6c1c68aead0fee1a62673fcc7e0c94979d000155565b613c24565b836001600160a01b0316856001600160a01b031614613c2457613c248582613d8e565b6001600160a01b038416613c4057613c3b81613e2b565b611630565b846001600160a01b0316846001600160a01b031614611630576116308482613eda565b61012d54600090600160a01b900460ff16613c805750600061099f565b61012d5460405163257128dd60e21b81526001600160a01b0385811660048301528481166024830152909116906395c4a3749060440160206040518083038186803b158015613cce57600080fd5b505afa158015613ce2573d6000803e3d6000fd5b505050506040513d601f19601f820116820180604052508101906131889190614d41565b6001811115610dd9576001600160a01b03841615613d4c576001600160a01b03841660009081526068602052604081208054839290613d46908490614ed7565b90915550505b6001600160a01b03831615610dd9576001600160a01b03831660009081526068602052604081208054839290613d83908490614cc1565b909155505050505050565b60006001613d9b84611666565b613da59190614ed7565b600083815260986020526040902054909150808214613df8576001600160a01b03841660009081526097602090815260408083208584528252808320548484528184208190558352609890915290208190555b5060009182526098602090815260408084208490556001600160a01b039094168352609781528383209183525290812055565b609954600090613e3d90600190614ed7565b6000838152609a602052604081205460998054939450909284908110613e6557613e65614c95565b906000526020600020015490508060998381548110613e8657613e86614c95565b6000918252602080832090910192909255828152609a90915260408082208490558582528120556099805480613ebe57613ebe6150c2565b6001900381819060005260206000200160009055905550505050565b6000613ee583611666565b6001600160a01b039093166000908152609760209081526040808320868452825280832085905593825260989052919091209190915550565b828054828255906000526020600020908101928215613f59579160200282015b82811115613f59578251825591602001919060010190613f3e565b50613f65929150614048565b5090565b828054613f7590614c5a565b90600052602060002090601f016020900481019282613f975760008555613f59565b82601f10613fb057805160ff1916838001178555613f59565b82800160010185558215613f595791820182811115613f59578251825591602001919060010190613f3e565b60405180610180016040528060008152602001606081526020016060815260200160006001600160a01b03168152602001600081526020016000815260200160008152602001600081526020016060815260200160608152602001606081526020016000151581525090565b5b80821115613f655760008155600101614049565b6001600160e01b03198116811461108d57600080fd5b60006020828403121561408557600080fd5b81356131888161405d565b6000602082840312156140a257600080fd5b5035919050565b600081518084526020808501945080840160005b838110156140d9578151875295820195908201906001016140bd565b509495945050505050565b6040815260006140f760408301856140a9565b828103602084015261410981856140a9565b95945050505050565b60005b8381101561412d578181015183820152602001614115565b83811115610dd95750506000910152565b60008151808452614156816020860160208601614112565b601f01601f19169290920160200192915050565b602081526000613188602083018461413e565b60208152600061318860208301846140a9565b80356001600160a01b03811681146141a757600080fd5b919050565b600080604083850312156141bf57600080fd5b6141c883614190565b946020939093013593505050565b634e487b7160e01b600052604160045260246000fd5b60405161018081016001600160401b038111828210171561420f5761420f6141d6565b60405290565b604051601f8201601f191681016001600160401b038111828210171561423d5761423d6141d6565b604052919050565b60006001600160401b0382111561425e5761425e6141d6565b5060051b60200190565b60006001600160401b03831115614281576142816141d6565b614294601f8401601f1916602001614215565b90508281528383830111156142a857600080fd5b828260208301376000602084830101529392505050565b600082601f8301126142d057600080fd5b61318883833560208501614268565b600082601f8301126142f057600080fd5b8135602061430561430083614245565b614215565b82815260059290921b8401810191818101908684111561432457600080fd5b8286015b8481101561433f5780358352918301918301614328565b509695505050505050565b801515811461108d57600080fd5b80356141a78161434a565b6000610180828403121561437657600080fd5b61437e6141ec565b90508135815260208201356001600160401b038082111561439e57600080fd5b6143aa858386016142bf565b602084015260408401359150808211156143c357600080fd5b6143cf858386016142bf565b60408401526143e060608501614190565b60608401526080840135608084015260a084013560a084015260c084013560c084015260e084013560e08401526101009150818401358181111561442357600080fd5b61442f868287016142df565b83850152506101209150818401358181111561444a57600080fd5b614456868287016142df565b83850152506101409150818401358181111561447157600080fd5b61447d868287016142df565b83850152505050610160614492818401614358565b9082015292915050565b600082601f8301126144ad57600080fd5b813560206144bd61430083614245565b82815260059290921b840181019181810190868411156144dc57600080fd5b8286015b8481101561433f5780356001600160401b038111156144ff5760008081fd5b61450d8986838b0101614363565b8452509183019183016144e0565b60006020828403121561452d57600080fd5b81356001600160401b0381111561454357600080fd5b612a078482850161449c565b6000806040838503121561456257600080fd5b8235915060208301356001600160401b0381111561457f57600080fd5b61458b858286016142df565b9150509250929050565b6000806000606084860312156145aa57600080fd5b6145b384614190565b92506145c160208501614190565b9150604084013590509250925092565b600080604083850312156145e457600080fd5b823591506145f460208401614190565b90509250929050565b60006020828403121561460f57600080fd5b81356001600160401b0381111561462557600080fd5b612a07848285016142bf565b60006101808251845260208301518160208601526146518286018261413e565b9150506040830151848203604086015261466b828261413e565b915050606083015161468860608601826001600160a01b03169052565b506080830151608085015260a083015160a085015260c083015160c085015260e083015160e085015261010080840151858303828701526146c983826140a9565b9250505061012080840151858303828701526146e583826140a9565b92505050610140808401518583038287015261470183826140a9565b92505050610160808401516147198287018215159052565b5090949350505050565b6020815260006131886020830184614631565b6000806040838503121561474957600080fd5b50508035926020909101359150565b60006020828403121561476a57600080fd5b61318882614190565b6000602080830181845280855180835260408601915060408160051b870101925083870160005b828110156147c857603f198886030184526147b6858351614631565b9450928501929085019060010161479a565b5092979650505050505050565b600080600080608085870312156147eb57600080fd5b8435935060208501356001600160401b038082111561480957600080fd5b614815888389016142df565b945060408701359350606087013591508082111561483257600080fd5b5061483f878288016142df565b91505092959194509250565b6000806040838503121561485e57600080fd5b61486783614190565b915060208301356001600160401b0381111561488257600080fd5b61458b85828601614363565b600080604083850312156148a157600080fd5b6148aa83614190565b915060208301356001600160401b038111156148c557600080fd5b61458b8582860161449c565b600080604083850312156148e457600080fd5b8235915060208301356148f68161434a565b809150509250929050565b60008060006060848603121561491657600080fd5b8335925060208401356001600160401b038082111561493457600080fd5b614940878388016142df565b9350604086013591508082111561495657600080fd5b50614963868287016142df565b9150509250925092565b60008060006060848603121561498257600080fd5b8335925060208401356001600160401b03808211156149a057600080fd5b6149ac878388016142bf565b935060408601359150808211156149c257600080fd5b50614963868287016142bf565b600080604083850312156149e257600080fd5b6149eb83614190565b915060208301356148f68161434a565b60008060008060808587031215614a1157600080fd5b614a1a85614190565b9350614a2860208601614190565b92506040850135915060608501356001600160401b03811115614a4a57600080fd5b8501601f81018713614a5b57600080fd5b61483f87823560208401614268565b600080600060608486031215614a7f57600080fd5b8335925060208401356001600160401b03811115614a9c57600080fd5b614aa8868287016142df565b925050604084013590509250925092565b600060208284031215614acb57600080fd5b81356001600160401b03811115614ae157600080fd5b612a07848285016142df565b600080600080600060a08688031215614b0557600080fd5b85356001600160401b0380821115614b1c57600080fd5b614b2889838a016142bf565b96506020880135915080821115614b3e57600080fd5b614b4a89838a016142bf565b95506040880135915080821115614b6057600080fd5b50614b6d888289016142bf565b935050614b7c60608701614190565b9150614b8a60808701614190565b90509295509295909350565b60006101208b8352806020840152614bb08184018c61413e565b90508281036040840152614bc4818b61413e565b6001600160a01b039990991660608401525050608081019590955260a085019390935260c084019190915260e08301521515610100909101529392505050565b60008060408385031215614c1757600080fd5b614c2083614190565b91506145f460208401614190565b600080600060608486031215614c4357600080fd5b505081359360208301359350604090920135919050565b600181811c90821680614c6e57607f821691505b60208210811415614c8f57634e487b7160e01b600052602260045260246000fd5b50919050565b634e487b7160e01b600052603260045260246000fd5b634e487b7160e01b600052601160045260246000fd5b60008219821115614cd457614cd4614cab565b500190565b6000600019821415614ced57614ced614cab565b5060010190565b6020808252602d908201527f4552433732313a2063616c6c6572206973206e6f7420746f6b656e206f776e6560408201526c1c881bdc88185c1c1c9bdd9959609a1b606082015260800190565b600060208284031215614d5357600080fd5b81516131888161434a565b6020808252600390820152626f6e5160e81b604082015260600190565b6020808252600790820152661a5b94dc5d585960ca1b604082015260600190565b6020808252602b908201527f496e697469616c697a61626c653a20636f6e7472616374206973206e6f74206960408201526a6e697469616c697a696e6760a81b606082015260800190565b600181815b80851115614e22578160001904821115614e0857614e08614cab565b80851615614e1557918102915b93841c9390800290614dec565b509250929050565b600082614e395750600161099f565b81614e465750600061099f565b8160018114614e5c5760028114614e6657614e82565b600191505061099f565b60ff841115614e7757614e77614cab565b50506001821b61099f565b5060208310610133831016604e8410600b8410161715614ea5575081810a61099f565b614eaf8383614de7565b8060001904821115614ec357614ec3614cab565b029392505050565b60006131888383614e2a565b600082821015614ee957614ee9614cab565b500390565b60208082526025908201527f4552433732313a207472616e736665722066726f6d20696e636f72726563742060408201526437bbb732b960d91b606082015260800190565b60208082526032908201527f4552433732313a207472616e7366657220746f206e6f6e20455243373231526560408201527131b2b4bb32b91034b6b83632b6b2b73a32b960711b606082015260800190565b7f416363657373436f6e74726f6c3a206163636f756e7420000000000000000000815260008351614fbd816017850160208801614112565b7001034b99036b4b9b9b4b733903937b6329607d1b6017918401918201528351614fee816028840160208801614112565b01602801949350505050565b600081600019048311821515161561501457615014614cab565b500290565b60008261503657634e487b7160e01b600052601260045260246000fd5b500490565b634e487b7160e01b600052602160045260246000fd5b6001600160a01b03858116825284166020820152604081018390526080606082018190526000906150849083018461413e565b9695505050505050565b6000602082840312156150a057600080fd5b81516131888161405d565b6000816150ba576150ba614cab565b506000190190565b634e487b7160e01b600052603160045260246000fdfe73e573f9566d61418a34d5de3ff49360f9c51fec37f7486551670290f6285dab97667070c54ef182b0f5858b034beac1b6f3089aa2d3188bb1e8929f4fa9b929a2646970667358221220ff0747dc5141945b9ec5fb8c07dad4a720248272ac78fb411725a11f1c2d89c864736f6c63430008090033",
  "linkReferences": {},
  "deployedLinkReferences": {}
}