{
  "_format": "hh-sol-artifact-1",
  "contractName": "BkNft",
  "sourceName": "contracts/erc721/BkNft.sol",
  "abi": [
    {
      "anonymous": false,
      "inputs": [
        {
          "indexed": true,
          "internalType": "address",
          "name": "owner",
          "type": "address"
        },
        {
          "indexed": true,
          "internalType": "address",
          "name": "approved",
          "type": "address"
        },
        {
          "indexed": true,
          "internalType": "uint256",
          "name": "tokenId",
          "type": "uint256"
        }
      ],
      "name": "Approval",
      "type": "event"
    },
    {
      "anonymous": false,
      "inputs": [
        {
          "indexed": true,
          "internalType": "address",
          "name": "owner",
          "type": "address"
        },
        {
          "indexed": true,
          "internalType": "address",
          "name": "operator",
          "type": "address"
        },
        {
          "indexed": false,
          "internalType": "bool",
          "name": "approved",
          "type": "bool"
        }
      ],
      "name": "ApprovalForAll",
      "type": "event"
    },
    {
      "anonymous": false,
      "inputs": [
        {
          "indexed": false,
          "internalType": "uint8",
          "name": "version",
          "type": "uint8"
        }
      ],
      "name": "Initialized",
      "type": "event"
    },
    {
      "anonymous": false,
      "inputs": [
        {
          "indexed": false,
          "internalType": "address",
          "name": "account",
          "type": "address"
        }
      ],
      "name": "Paused",
      "type": "event"
    },
    {
      "anonymous": false,
      "inputs": [
        {
          "indexed": true,
          "internalType": "bytes32",
          "name": "role",
          "type": "bytes32"
        },
        {
          "indexed": true,
          "internalType": "bytes32",
          "name": "previousAdminRole",
          "type": "bytes32"
        },
        {
          "indexed": true,
          "internalType": "bytes32",
          "name": "newAdminRole",
          "type": "bytes32"
        }
      ],
      "name": "RoleAdminChanged",
      "type": "event"
    },
    {
      "anonymous": false,
      "inputs": [
        {
          "indexed": true,
          "internalType": "bytes32",
          "name": "role",
          "type": "bytes32"
        },
        {
          "indexed": true,
          "internalType": "address",
          "name": "account",
          "type": "address"
        },
        {
          "indexed": true,
          "internalType": "address",
          "name": "sender",
          "type": "address"
        }
      ],
      "name": "RoleGranted",
      "type": "event"
    },
    {
      "anonymous": false,
      "inputs": [
        {
          "indexed": true,
          "internalType": "bytes32",
          "name": "role",
          "type": "bytes32"
        },
        {
          "indexed": true,
          "internalType": "address",
          "name": "account",
          "type": "address"
        },
        {
          "indexed": true,
          "internalType": "address",
          "name": "sender",
          "type": "address"
        }
      ],
      "name": "RoleRevoked",
      "type": "event"
    },
    {
      "anonymous": false,
      "inputs": [
        {
          "indexed": true,
          "internalType": "address",
          "name": "from",
          "type": "address"
        },
        {
          "indexed": true,
          "internalType": "address",
          "name": "to",
          "type": "address"
        },
        {
          "indexed": true,
          "internalType": "uint256",
          "name": "tokenId",
          "type": "uint256"
        }
      ],
      "name": "Transfer",
      "type": "event"
    },
    {
      "anonymous": false,
      "inputs": [
        {
          "indexed": false,
          "internalType": "address",
          "name": "account",
          "type": "address"
        }
      ],
      "name": "Unpaused",
      "type": "event"
    },
    {
      "inputs": [],
      "name": "DEFAULT_ADMIN_ROLE",
      "outputs": [
        {
          "internalType": "bytes32",
          "name": "",
          "type": "bytes32"
        }
      ],
      "stateMutability": "view",
      "type": "function"
    },
    {
      "inputs": [
        {
          "internalType": "string",
          "name": "_name",
          "type": "string"
        },
        {
          "internalType": "string",
          "name": "_symbol",
          "type": "string"
        },
        {
          "internalType": "string",
          "name": "_baseTokenURI",
          "type": "string"
        },
        {
          "internalType": "address",
          "name": "_operator",
          "type": "address"
        },
        {
          "internalType": "address",
          "name": "_blocklistAddress",
          "type": "address"
        }
      ],
      "name": "__AdminUpgradeableERC721_init",
      "outputs": [],
      "stateMutability": "nonpayable",
      "type": "function"
    },
    {
      "inputs": [
        {
          "internalType": "address",
          "name": "to",
          "type": "address"
        },
        {
          "internalType": "uint256",
          "name": "tokenId",
          "type": "uint256"
        }
      ],
      "name": "approve",
      "outputs": [],
      "stateMutability": "nonpayable",
      "type": "function"
    },
    {
      "inputs": [
        {
          "internalType": "uint256",
          "name": "tokenId",
          "type": "uint256"
        },
        {
          "internalType": "uint256",
          "name": "attribute",
          "type": "uint256"
        }
      ],
      "name": "attributeOf",
      "outputs": [
        {
          "internalType": "uint256",
          "name": "",
          "type": "uint256"
        }
      ],
      "stateMutability": "view",
      "type": "function"
    },
    {
      "inputs": [
        {
          "internalType": "uint256",
          "name": "tokenId",
          "type": "uint256"
        }
      ],
      "name": "attributesAndSkillsOf",
      "outputs": [
        {
          "internalType": "uint256[]",
          "name": "",
          "type": "uint256[]"
        },
        {
          "internalType": "uint256[]",
          "name": "",
          "type": "uint256[]"
        }
      ],
      "stateMutability": "view",
      "type": "function"
    },
    {
      "inputs": [
        {
          "internalType": "uint256",
          "name": "tokenId",
          "type": "uint256"
        }
      ],
      "name": "attributesOf",
      "outputs": [
        {
          "internalType": "uint256[]",
          "name": "",
          "type": "uint256[]"
        }
      ],
      "stateMutability": "view",
      "type": "function"
    },
    {
      "inputs": [
        {
          "internalType": "address",
          "name": "owner",
          "type": "address"
        }
      ],
      "name": "balanceOf",
      "outputs": [
        {
          "internalType": "uint256",
          "name": "",
          "type": "uint256"
        }
      ],
      "stateMutability": "view",
      "type": "function"
    },
    {
      "inputs": [],
      "name": "baseTokenURI",
      "outputs": [
        {
          "internalType": "string",
          "name": "",
          "type": "string"
        }
      ],
      "stateMutability": "view",
      "type": "function"
    },
    {
      "inputs": [
        {
          "internalType": "uint256",
          "name": "",
          "type": "uint256"
        }
      ],
      "name": "bkChars",
      "outputs": [
        {
          "internalType": "uint256",
          "name": "id",
          "type": "uint256"
        },
        {
          "internalType": "string",
          "name": "name",
          "type": "string"
        },
        {
          "internalType": "string",
          "name": "imageUrl",
          "type": "string"
        },
        {
          "internalType": "address",
          "name": "currentOwner",
          "type": "address"
        },
        {
          "internalType": "uint256",
          "name": "squadId",
          "type": "uint256"
        },
        {
          "internalType": "uint256",
          "name": "collection",
          "type": "uint256"
        },
        {
          "internalType": "uint256",
          "name": "baseFarm",
          "type": "uint256"
        },
        {
          "internalType": "uint256",
          "name": "farmPerBlock",
          "type": "uint256"
        },
        {
          "internalType": "bool",
          "name": "isDead",
          "type": "bool"
        }
      ],
      "stateMutability": "view",
      "type": "function"
    },
    {
      "inputs": [],
      "name": "blocklist",
      "outputs": [
        {
          "internalType": "contract IBlocklist",
          "name": "",
          "type": "address"
        }
      ],
      "stateMutability": "view",
      "type": "function"
    },
    {
      "inputs": [
        {
          "internalType": "address",
          "name": "account",
          "type": "address"
        },
        {
          "internalType": "uint256",
          "name": "tokenId",
          "type": "uint256"
        }
      ],
      "name": "burnFrom",
      "outputs": [],
      "stateMutability": "nonpayable",
      "type": "function"
    },
    {
      "inputs": [
        {
          "internalType": "uint256",
          "name": "tokenId",
          "type": "uint256"
        }
      ],
      "name": "collectionOf",
      "outputs": [
        {
          "internalType": "uint256",
          "name": "",
          "type": "uint256"
        }
      ],
      "stateMutability": "view",
      "type": "function"
    },
    {
      "inputs": [],
      "name": "farm",
      "outputs": [
        {
          "internalType": "contract FarmSimplified",
          "name": "",
          "type": "address"
        }
      ],
      "stateMutability": "view",
      "type": "function"
    },
    {
      "inputs": [
        {
          "internalType": "uint256",
          "name": "tokenId",
          "type": "uint256"
        }
      ],
      "name": "farmPerBlockOf",
      "outputs": [
        {
          "internalType": "uint256",
          "name": "",
          "type": "uint256"
        }
      ],
      "stateMutability": "view",
      "type": "function"
    },
    {
      "inputs": [
        {
          "internalType": "uint256",
          "name": "tokenId",
          "type": "uint256"
        }
      ],
      "name": "getApproved",
      "outputs": [
        {
          "internalType": "address",
          "name": "",
          "type": "address"
        }
      ],
      "stateMutability": "view",
      "type": "function"
    },
    {
      "inputs": [
        {
          "internalType": "uint256",
          "name": "tokenId",
          "type": "uint256"
        }
      ],
      "name": "getNft",
      "outputs": [
        {
          "components": [
            {
              "internalType": "uint256",
              "name": "id",
              "type": "uint256"
            },
            {
              "internalType": "string",
              "name": "name",
              "type": "string"
            },
            {
              "internalType": "string",
              "name": "imageUrl",
              "type": "string"
            },
            {
              "internalType": "address",
              "name": "currentOwner",
              "type": "address"
            },
            {
              "internalType": "uint256",
              "name": "squadId",
              "type": "uint256"
            },
            {
              "internalType": "uint256",
              "name": "collection",
              "type": "uint256"
            },
            {
              "internalType": "uint256",
              "name": "baseFarm",
              "type": "uint256"
            },
            {
              "internalType": "uint256",
              "name": "farmPerBlock",
              "type": "uint256"
            },
            {
              "internalType": "uint256[]",
              "name": "attributes",
              "type": "uint256[]"
            },
            {
              "internalType": "uint256[]",
              "name": "traits",
              "type": "uint256[]"
            },
            {
              "internalType": "uint256[]",
              "name": "skills",
              "type": "uint256[]"
            },
            {
              "internalType": "bool",
              "name": "isDead",
              "type": "bool"
            }
          ],
          "internalType": "struct IBkChar.BkChar",
          "name": "",
          "type": "tuple"
        }
      ],
      "stateMutability": "view",
      "type": "function"
    },
    {
      "inputs": [
        {
          "internalType": "uint256[]",
          "name": "tokenIds",
          "type": "uint256[]"
        }
      ],
      "name": "getNfts",
      "outputs": [
        {
          "components": [
            {
              "internalType": "uint256",
              "name": "id",
              "type": "uint256"
            },
            {
              "internalType": "string",
              "name": "name",
              "type": "string"
            },
            {
              "internalType": "string",
              "name": "imageUrl",
              "type": "string"
            },
            {
              "internalType": "address",
              "name": "currentOwner",
              "type": "address"
            },
            {
              "internalType": "uint256",
              "name": "squadId",
              "type": "uint256"
            },
            {
              "internalType": "uint256",
              "name": "collection",
              "type": "uint256"
            },
            {
              "internalType": "uint256",
              "name": "baseFarm",
              "type": "uint256"
            },
            {
              "internalType": "uint256",
              "name": "farmPerBlock",
              "type": "uint256"
            },
            {
              "internalType": "uint256[]",
              "name": "attributes",
              "type": "uint256[]"
            },
            {
              "internalType": "uint256[]",
              "name": "traits",
              "type": "uint256[]"
            },
            {
              "internalType": "uint256[]",
              "name": "skills",
              "type": "uint256[]"
            },
            {
              "internalType": "bool",
              "name": "isDead",
              "type": "bool"
            }
          ],
          "internalType": "struct IBkChar.BkChar[]",
          "name": "",
          "type": "tuple[]"
        }
      ],
      "stateMutability": "view",
      "type": "function"
    },
    {
      "inputs": [
        {
          "internalType": "bytes32",
          "name": "role",
          "type": "bytes32"
        }
      ],
      "name": "getRoleAdmin",
      "outputs": [
        {
          "internalType": "bytes32",
          "name": "",
          "type": "bytes32"
        }
      ],
      "stateMutability": "view",
      "type": "function"
    },
    {
      "inputs": [
        {
          "internalType": "bytes32",
          "name": "role",
          "type": "bytes32"
        },
        {
          "internalType": "address",
          "name": "account",
          "type": "address"
        }
      ],
      "name": "grantRole",
      "outputs": [],
      "stateMutability": "nonpayable",
      "type": "function"
    },
    {
      "inputs": [],
      "name": "hasBlocklist",
      "outputs": [
        {
          "internalType": "bool",
          "name": "",
          "type": "bool"
        }
      ],
      "stateMutability": "view",
      "type": "function"
    },
    {
      "inputs": [
        {
          "internalType": "bytes32",
          "name": "role",
          "type": "bytes32"
        },
        {
          "internalType": "address",
          "name": "account",
          "type": "address"
        }
      ],
      "name": "hasRole",
      "outputs": [
        {
          "internalType": "bool",
          "name": "",
          "type": "bool"
        }
      ],
      "stateMutability": "view",
      "type": "function"
    },
    {
      "inputs": [
        {
          "internalType": "string",
          "name": "_name",
          "type": "string"
        },
        {
          "internalType": "string",
          "name": "_symbol",
          "type": "string"
        },
        {
          "internalType": "string",
          "name": "_baseTokenURI",
          "type": "string"
        },
        {
          "internalType": "address",
          "name": "_operator",
          "type": "address"
        },
        {
          "internalType": "address",
          "name": "_blocklistAddress",
          "type": "address"
        }
      ],
      "name": "initialize",
      "outputs": [],
      "stateMutability": "nonpayable",
      "type": "function"
    },
    {
      "inputs": [
        {
          "internalType": "address",
          "name": "owner",
          "type": "address"
        },
        {
          "internalType": "address",
          "name": "operator",
          "type": "address"
        }
      ],
      "name": "isApprovedForAll",
      "outputs": [
        {
          "internalType": "bool",
          "name": "",
          "type": "bool"
        }
      ],
      "stateMutability": "view",
      "type": "function"
    },
    {
      "inputs": [
        {
          "internalType": "uint256",
          "name": "tokenId",
          "type": "uint256"
        }
      ],
      "name": "isInSquad",
      "outputs": [
        {
          "internalType": "bool",
          "name": "",
          "type": "bool"
        }
      ],
      "stateMutability": "view",
      "type": "function"
    },
    {
      "inputs": [
        {
          "internalType": "uint256",
          "name": "tokenId",
          "type": "uint256"
        }
      ],
      "name": "isOnQuest",
      "outputs": [
        {
          "internalType": "bool",
          "name": "",
          "type": "bool"
        }
      ],
      "stateMutability": "view",
      "type": "function"
    },
    {
      "inputs": [
        {
          "components": [
            {
              "internalType": "uint256",
              "name": "id",
              "type": "uint256"
            },
            {
              "internalType": "string",
              "name": "name",
              "type": "string"
            },
            {
              "internalType": "string",
              "name": "imageUrl",
              "type": "string"
            },
            {
              "internalType": "address",
              "name": "currentOwner",
              "type": "address"
            },
            {
              "internalType": "uint256",
              "name": "squadId",
              "type": "uint256"
            },
            {
              "internalType": "uint256",
              "name": "collection",
              "type": "uint256"
            },
            {
              "internalType": "uint256",
              "name": "baseFarm",
              "type": "uint256"
            },
            {
              "internalType": "uint256",
              "name": "farmPerBlock",
              "type": "uint256"
            },
            {
              "internalType": "uint256[]",
              "name": "attributes",
              "type": "uint256[]"
            },
            {
              "internalType": "uint256[]",
              "name": "traits",
              "type": "uint256[]"
            },
            {
              "internalType": "uint256[]",
              "name": "skills",
              "type": "uint256[]"
            },
            {
              "internalType": "bool",
              "name": "isDead",
              "type": "bool"
            }
          ],
          "internalType": "struct IBkChar.BkChar[]",
          "name": "characters",
          "type": "tuple[]"
        }
      ],
      "name": "migrate",
      "outputs": [],
      "stateMutability": "nonpayable",
      "type": "function"
    },
    {
      "inputs": [
        {
          "internalType": "address",
          "name": "to",
          "type": "address"
        },
        {
          "components": [
            {
              "internalType": "uint256",
              "name": "id",
              "type": "uint256"
            },
            {
              "internalType": "string",
              "name": "name",
              "type": "string"
            },
            {
              "internalType": "string",
              "name": "imageUrl",
              "type": "string"
            },
            {
              "internalType": "address",
              "name": "currentOwner",
              "type": "address"
            },
            {
              "internalType": "uint256",
              "name": "squadId",
              "type": "uint256"
            },
            {
              "internalType": "uint256",
              "name": "collection",
              "type": "uint256"
            },
            {
              "internalType": "uint256",
              "name": "baseFarm",
              "type": "uint256"
            },
            {
              "internalType": "uint256",
              "name": "farmPerBlock",
              "type": "uint256"
            },
            {
              "internalType": "uint256[]",
              "name": "attributes",
              "type": "uint256[]"
            },
            {
              "internalType": "uint256[]",
              "name": "traits",
              "type": "uint256[]"
            },
            {
              "internalType": "uint256[]",
              "name": "skills",
              "type": "uint256[]"
            },
            {
              "internalType": "bool",
              "name": "isDead",
              "type": "bool"
            }
          ],
          "internalType": "struct IBkChar.BkChar[]",
          "name": "characters",
          "type": "tuple[]"
        }
      ],
      "name": "migrateToPlayer",
      "outputs": [],
      "stateMutability": "nonpayable",
      "type": "function"
    },
    {
      "inputs": [
        {
          "internalType": "address",
          "name": "to",
          "type": "address"
        },
        {
          "components": [
            {
              "internalType": "uint256",
              "name": "id",
              "type": "uint256"
            },
            {
              "internalType": "string",
              "name": "name",
              "type": "string"
            },
            {
              "internalType": "string",
              "name": "imageUrl",
              "type": "string"
            },
            {
              "internalType": "address",
              "name": "currentOwner",
              "type": "address"
            },
            {
              "internalType": "uint256",
              "name": "squadId",
              "type": "uint256"
            },
            {
              "internalType": "uint256",
              "name": "collection",
              "type": "uint256"
            },
            {
              "internalType": "uint256",
              "name": "baseFarm",
              "type": "uint256"
            },
            {
              "internalType": "uint256",
              "name": "farmPerBlock",
              "type": "uint256"
            },
            {
              "internalType": "uint256[]",
              "name": "attributes",
              "type": "uint256[]"
            },
            {
              "internalType": "uint256[]",
              "name": "traits",
              "type": "uint256[]"
            },
            {
              "internalType": "uint256[]",
              "name": "skills",
              "type": "uint256[]"
            },
            {
              "internalType": "bool",
              "name": "isDead",
              "type": "bool"
            }
          ],
          "internalType": "struct IBkChar.BkChar",
          "name": "character",
          "type": "tuple"
        }
      ],
      "name": "mint",
      "outputs": [],
      "stateMutability": "nonpayable",
      "type": "function"
    },
    {
      "inputs": [
        {
          "internalType": "address",
          "name": "to",
          "type": "address"
        }
      ],
      "name": "mintTo",
      "outputs": [],
      "stateMutability": "nonpayable",
      "type": "function"
    },
    {
      "inputs": [],
      "name": "name",
      "outputs": [
        {
          "internalType": "string",
          "name": "",
          "type": "string"
        }
      ],
      "stateMutability": "view",
      "type": "function"
    },
    {
      "inputs": [],
      "name": "nextNftId",
      "outputs": [
        {
          "internalType": "uint256",
          "name": "",
          "type": "uint256"
        }
      ],
      "stateMutability": "view",
      "type": "function"
    },
    {
      "inputs": [
        {
          "internalType": "address",
          "name": "_owner",
          "type": "address"
        }
      ],
      "name": "nftsOfOwner",
      "outputs": [
        {
          "components": [
            {
              "internalType": "uint256",
              "name": "id",
              "type": "uint256"
            },
            {
              "internalType": "string",
              "name": "name",
              "type": "string"
            },
            {
              "internalType": "string",
              "name": "imageUrl",
              "type": "string"
            },
            {
              "internalType": "address",
              "name": "currentOwner",
              "type": "address"
            },
            {
              "internalType": "uint256",
              "name": "squadId",
              "type": "uint256"
            },
            {
              "internalType": "uint256",
              "name": "collection",
              "type": "uint256"
            },
            {
              "internalType": "uint256",
              "name": "baseFarm",
              "type": "uint256"
            },
            {
              "internalType": "uint256",
              "name": "farmPerBlock",
              "type": "uint256"
            },
            {
              "internalType": "uint256[]",
              "name": "attributes",
              "type": "uint256[]"
            },
            {
              "internalType": "uint256[]",
              "name": "traits",
              "type": "uint256[]"
            },
            {
              "internalType": "uint256[]",
              "name": "skills",
              "type": "uint256[]"
            },
            {
              "internalType": "bool",
              "name": "isDead",
              "type": "bool"
            }
          ],
          "internalType": "struct IBkChar.BkChar[]",
          "name": "",
          "type": "tuple[]"
        }
      ],
      "stateMutability": "view",
      "type": "function"
    },
    {
      "inputs": [
        {
          "internalType": "uint256",
          "name": "tokenId",
          "type": "uint256"
        }
      ],
      "name": "ownerOf",
      "outputs": [
        {
          "internalType": "address",
          "name": "",
          "type": "address"
        }
      ],
      "stateMutability": "view",
      "type": "function"
    },
    {
      "inputs": [],
      "name": "pause",
      "outputs": [],
      "stateMutability": "nonpayable",
      "type": "function"
    },
    {
      "inputs": [],
      "name": "paused",
      "outputs": [
        {
          "internalType": "bool",
          "name": "",
          "type": "bool"
        }
      ],
      "stateMutability": "view",
      "type": "function"
    },
    {
      "inputs": [
        {
          "internalType": "uint256",
          "name": "",
          "type": "uint256"
        }
      ],
      "name": "rarityAndTypeFactor",
      "outputs": [
        {
          "internalType": "uint256",
          "name": "",
          "type": "uint256"
        }
      ],
      "stateMutability": "view",
      "type": "function"
    },
    {
      "inputs": [
        {
          "internalType": "bytes32",
          "name": "role",
          "type": "bytes32"
        },
        {
          "internalType": "address",
          "name": "account",
          "type": "address"
        }
      ],
      "name": "renounceRole",
      "outputs": [],
      "stateMutability": "nonpayable",
      "type": "function"
    },
    {
      "inputs": [
        {
          "internalType": "bytes32",
          "name": "role",
          "type": "bytes32"
        },
        {
          "internalType": "address",
          "name": "account",
          "type": "address"
        }
      ],
      "name": "revokeRole",
      "outputs": [],
      "stateMutability": "nonpayable",
      "type": "function"
    },
    {
      "inputs": [
        {
          "internalType": "address",
          "name": "from",
          "type": "address"
        },
        {
          "internalType": "address",
          "name": "to",
          "type": "address"
        },
        {
          "internalType": "uint256",
          "name": "tokenId",
          "type": "uint256"
        }
      ],
      "name": "safeTransferFrom",
      "outputs": [],
      "stateMutability": "nonpayable",
      "type": "function"
    },
    {
      "inputs": [
        {
          "internalType": "address",
          "name": "from",
          "type": "address"
        },
        {
          "internalType": "address",
          "name": "to",
          "type": "address"
        },
        {
          "internalType": "uint256",
          "name": "tokenId",
          "type": "uint256"
        },
        {
          "internalType": "bytes",
          "name": "data",
          "type": "bytes"
        }
      ],
      "name": "safeTransferFrom",
      "outputs": [],
      "stateMutability": "nonpayable",
      "type": "function"
    },
    {
      "inputs": [
        {
          "internalType": "address",
          "name": "operator",
          "type": "address"
        },
        {
          "internalType": "bool",
          "name": "approved",
          "type": "bool"
        }
      ],
      "name": "setApprovalForAll",
      "outputs": [],
      "stateMutability": "nonpayable",
      "type": "function"
    },
    {
      "inputs": [
        {
          "internalType": "uint256",
          "name": "tokenId",
          "type": "uint256"
        },
        {
          "internalType": "uint256",
          "name": "attribute",
          "type": "uint256"
        },
        {
          "internalType": "uint256",
          "name": "value",
          "type": "uint256"
        }
      ],
      "name": "setAttribute",
      "outputs": [],
      "stateMutability": "nonpayable",
      "type": "function"
    },
    {
      "inputs": [
        {
          "internalType": "uint256",
          "name": "tokenId",
          "type": "uint256"
        },
        {
          "internalType": "uint256[]",
          "name": "attributes",
          "type": "uint256[]"
        }
      ],
      "name": "setAttributes",
      "outputs": [],
      "stateMutability": "nonpayable",
      "type": "function"
    },
    {
      "inputs": [
        {
          "internalType": "uint256",
          "name": "tokenId",
          "type": "uint256"
        },
        {
          "internalType": "uint256[]",
          "name": "attributes",
          "type": "uint256[]"
        },
        {
          "internalType": "uint256",
          "name": "newBaseFarm",
          "type": "uint256"
        }
      ],
      "name": "setAttributesAndBaseFarm",
      "outputs": [],
      "stateMutability": "nonpayable",
      "type": "function"
    },
    {
      "inputs": [
        {
          "internalType": "uint256",
          "name": "tokenId",
          "type": "uint256"
        },
        {
          "internalType": "uint256[]",
          "name": "attributes",
          "type": "uint256[]"
        },
        {
          "internalType": "uint256[]",
          "name": "skills",
          "type": "uint256[]"
        }
      ],
      "name": "setAttributesAndSkills",
      "outputs": [],
      "stateMutability": "nonpayable",
      "type": "function"
    },
    {
      "inputs": [
        {
          "internalType": "uint256",
          "name": "tokenId",
          "type": "uint256"
        },
        {
          "internalType": "uint256[]",
          "name": "attributes",
          "type": "uint256[]"
        },
        {
          "internalType": "uint256",
          "name": "newBaseFarm",
          "type": "uint256"
        },
        {
          "internalType": "uint256[]",
          "name": "skills",
          "type": "uint256[]"
        }
      ],
      "name": "setAttributesBaseFarmAndSkills",
      "outputs": [],
      "stateMutability": "nonpayable",
      "type": "function"
    },
    {
      "inputs": [
        {
          "internalType": "uint256",
          "name": "tokenId",
          "type": "uint256"
        },
        {
          "internalType": "uint256",
          "name": "newBaseFarm",
          "type": "uint256"
        }
      ],
      "name": "setBaseFarm",
      "outputs": [],
      "stateMutability": "nonpayable",
      "type": "function"
    },
    {
      "inputs": [
        {
          "internalType": "string",
          "name": "_baseTokenURI",
          "type": "string"
        }
      ],
      "name": "setBaseTokenURI",
      "outputs": [],
      "stateMutability": "nonpayable",
      "type": "function"
    },
    {
      "inputs": [
        {
          "internalType": "uint256",
          "name": "tokenId",
          "type": "uint256"
        },
        {
          "internalType": "uint256",
          "name": "newCollection",
          "type": "uint256"
        }
      ],
      "name": "setCollection",
      "outputs": [],
      "stateMutability": "nonpayable",
      "type": "function"
    },
    {
      "inputs": [
        {
          "internalType": "address",
          "name": "_farm",
          "type": "address"
        }
      ],
      "name": "setFarm",
      "outputs": [],
      "stateMutability": "nonpayable",
      "type": "function"
    },
    {
      "inputs": [
        {
          "internalType": "uint256",
          "name": "tokenId",
          "type": "uint256"
        },
        {
          "internalType": "bool",
          "name": "isDead",
          "type": "bool"
        }
      ],
      "name": "setIsDead",
      "outputs": [],
      "stateMutability": "nonpayable",
      "type": "function"
    },
    {
      "inputs": [
        {
          "internalType": "uint256",
          "name": "tokenId",
          "type": "uint256"
        },
        {
          "internalType": "string",
          "name": "newName",
          "type": "string"
        },
        {
          "internalType": "string",
          "name": "newImageUrl",
          "type": "string"
        }
      ],
      "name": "setNameAndImage",
      "outputs": [],
      "stateMutability": "nonpayable",
      "type": "function"
    },
    {
      "inputs": [
        {
          "internalType": "uint256",
          "name": "tokenId",
          "type": "uint256"
        },
        {
          "internalType": "uint256[]",
          "name": "_skills",
          "type": "uint256[]"
        }
      ],
      "name": "setSkills",
      "outputs": [],
      "stateMutability": "nonpayable",
      "type": "function"
    },
    {
      "inputs": [
        {
          "internalType": "uint256",
          "name": "tokenId",
          "type": "uint256"
        },
        {
          "internalType": "uint256",
          "name": "squadId",
          "type": "uint256"
        }
      ],
      "name": "setSquad",
      "outputs": [],
      "stateMutability": "nonpayable",
      "type": "function"
    },
    {
      "inputs": [
        {
          "internalType": "uint256",
          "name": "tokenId",
          "type": "uint256"
        },
        {
          "internalType": "uint256[]",
          "name": "traits",
          "type": "uint256[]"
        }
      ],
      "name": "setTraits",
      "outputs": [],
      "stateMutability": "nonpayable",
      "type": "function"
    },
    {
      "inputs": [
        {
          "internalType": "uint256",
          "name": "tokenId",
          "type": "uint256"
        }
      ],
      "name": "squadOf",
      "outputs": [
        {
          "internalType": "uint256",
          "name": "",
          "type": "uint256"
        }
      ],
      "stateMutability": "view",
      "type": "function"
    },
    {
      "inputs": [
        {
          "internalType": "bytes4",
          "name": "interfaceId",
          "type": "bytes4"
        }
      ],
      "name": "supportsInterface",
      "outputs": [
        {
          "internalType": "bool",
          "name": "",
          "type": "bool"
        }
      ],
      "stateMutability": "view",
      "type": "function"
    },
    {
      "inputs": [],
      "name": "symbol",
      "outputs": [
        {
          "internalType": "string",
          "name": "",
          "type": "string"
        }
      ],
      "stateMutability": "view",
      "type": "function"
    },
    {
      "inputs": [
        {
          "internalType": "uint256",
          "name": "index",
          "type": "uint256"
        }
      ],
      "name": "tokenByIndex",
      "outputs": [
        {
          "internalType": "uint256",
          "name": "",
          "type": "uint256"
        }
      ],
      "stateMutability": "view",
      "type": "function"
    },
    {
      "inputs": [
        {
          "internalType": "address",
          "name": "owner",
          "type": "address"
        },
        {
          "internalType": "uint256",
          "name": "index",
          "type": "uint256"
        }
      ],
      "name": "tokenOfOwnerByIndex",
      "outputs": [
        {
          "internalType": "uint256",
          "name": "",
          "type": "uint256"
        }
      ],
      "stateMutability": "view",
      "type": "function"
    },
    {
      "inputs": [
        {
          "internalType": "uint256",
          "name": "tokenId",
          "type": "uint256"
        }
      ],
      "name": "tokenURI",
      "outputs": [
        {
          "internalType": "string",
          "name": "",
          "type": "string"
        }
      ],
      "stateMutability": "view",
      "type": "function"
    },
    {
      "inputs": [
        {
          "internalType": "address",
          "name": "_owner",
          "type": "address"
        }
      ],
      "name": "tokensOfOwner",
      "outputs": [
        {
          "internalType": "uint256[]",
          "name": "",
          "type": "uint256[]"
        }
      ],
      "stateMutability": "view",
      "type": "function"
    },
    {
      "inputs": [],
      "name": "totalSupply",
      "outputs": [
        {
          "internalType": "uint256",
          "name": "",
          "type": "uint256"
        }
      ],
      "stateMutability": "view",
      "type": "function"
    },
    {
      "inputs": [
        {
          "internalType": "uint256",
          "name": "tokenId",
          "type": "uint256"
        }
      ],
      "name": "traitsOf",
      "outputs": [
        {
          "internalType": "uint256[]",
          "name": "",
          "type": "uint256[]"
        }
      ],
      "stateMutability": "view",
      "type": "function"
    },
    {
      "inputs": [
        {
          "internalType": "address",
          "name": "from",
          "type": "address"
        },
        {
          "internalType": "address",
          "name": "to",
          "type": "address"
        },
        {
          "internalType": "uint256",
          "name": "tokenId",
          "type": "uint256"
        }
      ],
      "name": "transferFrom",
      "outputs": [],
      "stateMutability": "nonpayable",
      "type": "function"
    },
    {
      "inputs": [],
      "name": "unpause",
      "outputs": [],
      "stateMutability": "nonpayable",
      "type": "function"
    }
  ],
  "bytecode": "0x608060405234801561001057600080fd5b5061516e806100206000396000f3fe608060405234801561001057600080fd5b50600436106103e65760003560e01c80637895d4381161020a578063c31e99b611610125578063d547741f116100b8578063de71b06711610087578063de71b067146108f7578063e2a9d72e1461090a578063e985e9c514610932578063ed6be91f1461096e578063fd5eea4e1461098157600080fd5b8063d547741f146108b5578063d547cfb7146108c8578063d64e5396146108d0578063d6d0faee146108e457600080fd5b8063c87b56dd116100f4578063c87b56dd14610869578063c99efaa01461087c578063cbaab6dc1461088f578063d4f26c51146108a257600080fd5b8063c31e99b6146107ed578063c3fe4e2014610800578063c7778baa14610824578063c7b84f8f1461084857600080fd5b806393f1da4f1161019d578063a22cb4651161016c578063a22cb465146107a1578063b3d84ae8146107b4578063b88d4fde146107c7578063bd7a2d54146107da57600080fd5b806393f1da4f14610774578063949755851461077e57806395d89b4114610791578063a217fddf1461079957600080fd5b80638462151c116101d95780638462151c1461072857806386931e491461073b57806388d210f01461074e57806391d148541461076157600080fd5b80637895d438146106e757806379cc6790146106fa5780637cecd56e1461070d5780638456cb591461072057600080fd5b80633ca8a034116103055780635efab6e41161029857806366cb49601161026757806366cb49601461067757806366dbd6be1461068a578063698c9d7e1461069d57806370a08231146106c1578063755edd17146106d457600080fd5b80635efab6e41461061c57806362875b841461062f578063634210f41461064f5780636352211e1461066457600080fd5b80634f6ccce7116102d45780634f6ccce7146105c557806353017bd1146105d85780635751907b146105fe5780635c975abb1461061157600080fd5b80633ca8a034146105775780633f4ba83a1461058a57806341f63bfd1461059257806342842e0e146105b257600080fd5b806321005a311161037d5780632f745c591161034c5780632f745c591461052a57806330176e131461053d57806336568abe1461055057806336e9332d1461056357600080fd5b806321005a31146104ce57806323b872dd146104e1578063248a9ca3146104f45780632f2ff15d1461051757600080fd5b806309363c44116103b957806309363c4414610474578063095ea7b31461049457806318160ddd146104a957806320a63d32146104bb57600080fd5b806301ffc9a7146103eb57806304d3a6661461041357806306fdde0314610434578063081812fc14610449575b600080fd5b6103fe6103f9366004614093565b610994565b60405190151581526020015b60405180910390f35b6104266104213660046140b0565b6109a5565b60405161040a929190614104565b61043c610a6d565b60405161040a919061418a565b61045c6104573660046140b0565b610aff565b6040516001600160a01b03909116815260200161040a565b6104876104823660046140b0565b610b26565b60405161040a919061419d565b6104a76104a23660046141cc565b610b8c565b005b6099545b60405190815260200161040a565b6104a76104c936600461453b565b610ca7565b6104a76104dc36600461456f565b610ddf565b6104a76104ef3660046145b5565b610e1d565b6104ad6105023660046140b0565b600090815260c9602052604090206001015490565b6104a76105253660046145f1565b610e4e565b6104ad6105383660046141cc565b610e73565b6104a761054b36600461461d565b610f09565b6104a761055e3660046145f1565b610f35565b6101305461045c906001600160a01b031681565b6103fe6105853660046140b0565b610fb3565b6104a7611065565b6105a56105a03660046140b0565b611090565b60405161040a9190614743565b6104a76105c03660046145b5565b61135c565b6104ad6105d33660046140b0565b611377565b6103fe6105e63660046140b0565b60009081526101316020526040902060040154151590565b6104ad61060c366004614756565b61140a565b60fb5460ff166103fe565b61048761062a3660046140b0565b611441565b61064261063d366004614778565b6114a5565b60405161040a9190614793565b61012d546103fe90600160a01b900460ff1681565b61045c6106723660046140b0565b61155a565b6104a76106853660046147f5565b6115ba565b6104a761069836600461486b565b611637565b6104ad6106ab3660046140b0565b6000908152610131602052604090206007015490565b6104ad6106cf366004614778565b611666565b6104a76106e2366004614778565b6116ec565b6104a76106f53660046148ae565b61171f565b6104a76107083660046141cc565b6117a1565b6104a761071b3660046148f1565b61181b565b6104a7611858565b610487610736366004614778565b611880565b6104a7610749366004614921565b611919565b6104a761075c36600461456f565b611988565b6103fe61076f3660046145f1565b6119f6565b6104ad61012e5481565b6104a761078c36600461498d565b611a21565b61043c611a86565b6104ad600081565b6104a76107af3660046149ef565b611a95565b6104a76107c2366004614756565b611aa0565b6104a76107d5366004614a1b565b611aff565b6104a76107e8366004614a8a565b611b31565b6106426107fb366004614ad9565b611b8e565b6104ad61080e3660046140b0565b6000908152610131602052604090206004015490565b6104ad6108323660046140b0565b6000908152610131602052604090206005015490565b6104ad6108563660046140b0565b6101326020526000908152604090205481565b61043c6108773660046140b0565b611f03565b6104a761088a366004614b0d565b611f9f565b6104a761089d36600461456f565b612051565b6104a76108b0366004614778565b6120bf565b6104a76108c33660046145f1565b6120fb565b61043c612120565b61012d5461045c906001600160a01b031681565b6104a76108f2366004614b0d565b6121af565b6104a7610905366004614756565b61235a565b61091d6109183660046140b0565b612390565b60405161040a99989796959493929190614bb6565b6103fe610940366004614c24565b6001600160a01b039182166000908152606a6020908152604080832093909416825291909152205460ff1690565b6104a761097c366004614756565b6124f8565b6104a761098f366004614c4e565b612560565b600061099f826125da565b92915050565b6000818152610131602090815260409182902060088101805484518185028101850190955280855260609485949293600a019290918491830182828015610a0b57602002820191906000526020600020905b8154815260200190600101908083116109f7575b5050505050915080805480602002602001604051908101604052809291908181526020018280548015610a5d57602002820191906000526020600020905b815481526020019060010190808311610a49575b5050505050905091509150915091565b606060658054610a7c90614c7a565b80601f0160208091040260200160405190810160405280929190818152602001828054610aa890614c7a565b8015610af55780601f10610aca57610100808354040283529160200191610af5565b820191906000526020600020905b815481529060010190602001808311610ad857829003601f168201915b5050505050905090565b6000610b0a826125ff565b506000908152606960205260409020546001600160a01b031690565b60008181526101316020908152604091829020600801805483518184028101840190945280845260609392830182828015610b8057602002820191906000526020600020905b815481526020019060010190808311610b6c575b50505050509050919050565b6000610b978261155a565b9050806001600160a01b0316836001600160a01b03161415610c0a5760405162461bcd60e51b815260206004820152602160248201527f4552433732313a20617070726f76616c20746f2063757272656e74206f776e656044820152603960f91b60648201526084015b60405180910390fd5b336001600160a01b0382161480610c265750610c268133610940565b610c985760405162461bcd60e51b815260206004820152603d60248201527f4552433732313a20617070726f76652063616c6c6572206973206e6f7420746f60448201527f6b656e206f776e6572206f7220617070726f76656420666f7220616c6c0000006064820152608401610c01565b610ca2838361265e565b505050565b7f9f2df0fed2c77648de5860a4cc508cd0818c85b8b8a1ab4ceeef8d981c8956a6610cd1816126cc565b61012e5482516000906001600160401b03811115610cf157610cf16141f6565b604051908082528060200260200182016040528015610d1a578160200160208202803683370190505b50905060005b8451811015610dcf57610d75858281518110610d3e57610d3e614cb5565b602002602001015160600151868381518110610d5c57610d5c614cb5565b60200260200101518386610d709190614ce1565b6126d6565b848181518110610d8757610d87614cb5565b602002602001015160600151828281518110610da557610da5614cb5565b6001600160a01b039092166020928302919091019091015280610dc781614cf9565b915050610d20565b50610dd98161291d565b50505050565b6000805160206150f9833981519152610df7816126cc565b6000838152610131602090815260409091208351610dd992600a90920191850190613f3e565b610e273382612978565b610e435760405162461bcd60e51b8152600401610c0190614d14565b610ca28383836129f7565b600082815260c96020526040902060010154610e69816126cc565b610ca28383612b68565b6000610e7e83611666565b8210610ee05760405162461bcd60e51b815260206004820152602b60248201527f455243373231456e756d657261626c653a206f776e657220696e646578206f7560448201526a74206f6620626f756e647360a81b6064820152608401610c01565b506001600160a01b03919091166000908152609760209081526040808320938352929052205490565b600080516020615119833981519152610f21816126cc565b8151610ca29061012f906020850190613f89565b6001600160a01b0381163314610fa55760405162461bcd60e51b815260206004820152602f60248201527f416363657373436f6e74726f6c3a2063616e206f6e6c792072656e6f756e636560448201526e103937b632b9903337b91039b2b63360891b6064820152608401610c01565b610faf8282612bee565b5050565b60008181526101316020526040812060040154610fd257506000919050565b6101305460008381526101316020526040908190206004908101549151637c2c1b1d60e01b8152908101919091526001600160a01b0390911690637c2c1b1d9060240160206040518083038186803b15801561102d57600080fd5b505afa158015611041573d6000803e3d6000fd5b505050506040513d601f19601f8201168201806040525081019061099f9190614d61565b60008051602061511983398151915261107d816126cc565b611085612c55565b61108d612ca0565b50565b611098613ffc565b610131600083815260200190815260200160002060405180610180016040529081600082015481526020016001820180546110d290614c7a565b80601f01602080910402602001604051908101604052809291908181526020018280546110fe90614c7a565b801561114b5780601f106111205761010080835404028352916020019161114b565b820191906000526020600020905b81548152906001019060200180831161112e57829003601f168201915b5050505050815260200160028201805461116490614c7a565b80601f016020809104026020016040519081016040528092919081815260200182805461119090614c7a565b80156111dd5780601f106111b2576101008083540402835291602001916111dd565b820191906000526020600020905b8154815290600101906020018083116111c057829003601f168201915b505050505081526020016003820160009054906101000a90046001600160a01b03166001600160a01b03166001600160a01b03168152602001600482015481526020016005820154815260200160068201548152602001600782015481526020016008820180548060200260200160405190810160405280929190818152602001828054801561128c57602002820191906000526020600020905b815481526020019060010190808311611278575b50505050508152602001600982018054806020026020016040519081016040528092919081815260200182805480156112e457602002820191906000526020600020905b8154815260200190600101908083116112d0575b50505050508152602001600a820180548060200260200160405190810160405280929190818152602001828054801561133c57602002820191906000526020600020905b815481526020019060010190808311611328575b5050509183525050600b919091015460ff16151560209091015292915050565b610ca283838360405180602001604052806000815250611aff565b600061138260995490565b82106113e55760405162461bcd60e51b815260206004820152602c60248201527f455243373231456e756d657261626c653a20676c6f62616c20696e646578206f60448201526b7574206f6620626f756e647360a01b6064820152608401610c01565b609982815481106113f8576113f8614cb5565b90600052602060002001549050919050565b60008281526101316020526040812060080180548390811061142e5761142e614cb5565b9060005260206000200154905092915050565b60008181526101316020908152604091829020600901805483518184028101840190945280845260609392830182828015610b805760200282019190600052602060002090815481526020019060010190808311610b6c5750505050509050919050565b606060006114b283611666565b90506000816001600160401b038111156114ce576114ce6141f6565b60405190808252806020026020018201604052801561150757816020015b6114f4613ffc565b8152602001906001900390816114ec5790505b50905060005b82811015611552576115226105a08683610e73565b82828151811061153457611534614cb5565b6020026020010181905250808061154a90614cf9565b91505061150d565b509392505050565b6000818152606760205260408120546001600160a01b03168061099f5760405162461bcd60e51b8152602060048201526018602482015277115490cdcc8c4e881a5b9d985b1a59081d1bdad95b88125160421b6044820152606401610c01565b6000805160206150f98339815191526115d2816126cc565b60008581526101316020908152604090912085516115f892600890920191870190613f3e565b5060008581526101316020908152604090912060068101859055835161162692600a90920191850190613f3e565b5061163085612cf2565b5050505050565b6000805160206150f983398151915261164f816126cc565b61165d838361012e546126d6565b610ca283612d17565b60006001600160a01b0382166116d05760405162461bcd60e51b815260206004820152602960248201527f4552433732313a2061646472657373207a65726f206973206e6f7420612076616044820152683634b21037bbb732b960b91b6064820152608401610c01565b506001600160a01b031660009081526068602052604090205490565b7f9f2df0fed2c77648de5860a4cc508cd0818c85b8b8a1ab4ceeef8d981c8956a6611716816126cc565b610faf82612d17565b7f9f2df0fed2c77648de5860a4cc508cd0818c85b8b8a1ab4ceeef8d981c8956a6611749816126cc565b61012e5460005b8351811015611795576117838585838151811061176f5761176f614cb5565b60200260200101518385610d709190614ce1565b8061178d81614cf9565b915050611750565b50610dd9848451612d3d565b816001600160a01b03166117b48261155a565b6001600160a01b0316146117f25760405162461bcd60e51b815260206004820152600560248201526437bbb732b960d91b6044820152606401610c01565b6117fb81612d7f565b600090815261013160205260409020600b01805460ff1916600117905550565b6000805160206150f9833981519152611833816126cc565b5060009182526101316020526040909120600b01805460ff1916911515919091179055565b600080516020615119833981519152611870816126cc565b611878612e22565b61108d612e68565b6060600061188d83611666565b90506000816001600160401b038111156118a9576118a96141f6565b6040519080825280602002602001820160405280156118d2578160200160208202803683370190505b50905060005b82811015611552576118ea8582610e73565b8282815181106118fc576118fc614cb5565b60209081029190910101528061191181614cf9565b9150506118d8565b6000805160206150f9833981519152611931816126cc565b600084815261013160209081526040909120845161195792600890920191860190613f3e565b50600084815261013160209081526040909120835161197e92600a90920191850190613f3e565b50610dd984612cf2565b6000805160206150f98339815191526119a0816126cc565b6119a983610fb3565b156119c65760405162461bcd60e51b8152600401610c0190614d7e565b60008381526101316020908152604090912083516119ec92600990920191850190613f3e565b50610ca283612ea5565b600091825260c9602090815260408084206001600160a01b0393909316845291905290205460ff1690565b6000805160206150f9833981519152611a39816126cc565b6000848152610131602090815260409091208451611a5f92600190920191860190613f89565b50600084815261013160209081526040909120835161163092600290920191850190613f89565b606060668054610a7c90614c7a565b610faf338383612f2e565b6000805160206150f9833981519152611ab8816126cc565b6000838152610131602052604090206004015415611ae85760405162461bcd60e51b8152600401610c0190614d9b565b506000918252610131602052604090912060050155565b611b093383612978565b611b255760405162461bcd60e51b8152600401610c0190614d14565b610dd984848484612ffd565b6000805160206150f9833981519152611b49816126cc565b6000848152610131602090815260409091208451611b6f92600890920191860190613f3e565b50600084815261013160205260409020600601829055610dd984612cf2565b6060600082516001600160401b03811115611bab57611bab6141f6565b604051908082528060200260200182016040528015611be457816020015b611bd1613ffc565b815260200190600190039081611bc95790505b50905060005b8351811015611efc576101316000858381518110611c0a57611c0a614cb5565b602002602001015181526020019081526020016000206040518061018001604052908160008201548152602001600182018054611c4690614c7a565b80601f0160208091040260200160405190810160405280929190818152602001828054611c7290614c7a565b8015611cbf5780601f10611c9457610100808354040283529160200191611cbf565b820191906000526020600020905b815481529060010190602001808311611ca257829003601f168201915b50505050508152602001600282018054611cd890614c7a565b80601f0160208091040260200160405190810160405280929190818152602001828054611d0490614c7a565b8015611d515780601f10611d2657610100808354040283529160200191611d51565b820191906000526020600020905b815481529060010190602001808311611d3457829003601f168201915b505050505081526020016003820160009054906101000a90046001600160a01b03166001600160a01b03166001600160a01b031681526020016004820154815260200160058201548152602001600682015481526020016007820154815260200160088201805480602002602001604051908101604052809291908181526020018280548015611e0057602002820191906000526020600020905b815481526020019060010190808311611dec575b5050505050815260200160098201805480602002602001604051908101604052809291908181526020018280548015611e5857602002820191906000526020600020905b815481526020019060010190808311611e44575b50505050508152602001600a8201805480602002602001604051908101604052809291908181526020018280548015611eb057602002820191906000526020600020905b815481526020019060010190808311611e9c575b5050509183525050600b919091015460ff1615156020909101528251839083908110611ede57611ede614cb5565b60200260200101819052508080611ef490614cf9565b915050611bea565b5092915050565b600081815261013160205260409020600201805460609190611f2490614c7a565b80601f0160208091040260200160405190810160405280929190818152602001828054611f5090614c7a565b8015610b805780601f10611f7257610100808354040283529160200191610b80565b820191906000526020600020905b815481529060010190602001808311611f805750939695505050505050565b600054610100900460ff16611fc65760405162461bcd60e51b8152600401610c0190614dbc565b611fd08585613030565b611fd8613061565b611fe0613088565b61200c8161012d80546001600160a81b0319166001600160a01b0390921691909117600160a01b179055565b6120176000836130b7565b61202f600080516020615119833981519152836130b7565b82516120439061012f906020860190613f89565b5050600161012e5550505050565b6000805160206150f9833981519152612069816126cc565b61207283610fb3565b1561208f5760405162461bcd60e51b8152600401610c0190614d7e565b60008381526101316020908152604090912083516120b592600890920191850190613f3e565b50610ca283612cf2565b6000805160206151198339815191526120d7816126cc565b5061013080546001600160a01b0319166001600160a01b0392909216919091179055565b600082815260c96020526040902060010154612116816126cc565b610ca28383612bee565b61012f805461212e90614c7a565b80601f016020809104026020016040519081016040528092919081815260200182805461215a90614c7a565b80156121a75780601f1061217c576101008083540402835291602001916121a7565b820191906000526020600020905b81548152906001019060200180831161218a57829003601f168201915b505050505081565b600054610100900460ff16158080156121cf5750600054600160ff909116105b806121e95750303b1580156121e9575060005460ff166001145b61224c5760405162461bcd60e51b815260206004820152602e60248201527f496e697469616c697a61626c653a20636f6e747261637420697320616c72656160448201526d191e481a5b9a5d1a585b1a5e995960921b6064820152608401610c01565b6000805460ff19166001179055801561226f576000805461ff0019166101001790555b61227c8686868686611f9f565b600160008190526101326020527fb0176a9aff47fe9db68ba87663f92f59cb14d8f7ca54d4ab0fcc1940414663538190555b600a81101561230b5760016122c38282614ce1565b6122ce906002614eeb565b6122d89190614ef7565b61013260006122e8846001614ce1565b81526020810191909152604001600020558061230381614cf9565b9150506122ae565b508015612352576000805461ff0019169055604051600181527f7f26b83ff96e1f2b6a682f133852f6798a09c465da95921460cefb38474024989060200160405180910390a15b505050505050565b6000805160206150f9833981519152612372816126cc565b600083815261013160205260409020600601829055610ca283612cf2565b61013160205260009081526040902080546001820180549192916123b390614c7a565b80601f01602080910402602001604051908101604052809291908181526020018280546123df90614c7a565b801561242c5780601f106124015761010080835404028352916020019161242c565b820191906000526020600020905b81548152906001019060200180831161240f57829003601f168201915b50505050509080600201805461244190614c7a565b80601f016020809104026020016040519081016040528092919081815260200182805461246d90614c7a565b80156124ba5780601f1061248f576101008083540402835291602001916124ba565b820191906000526020600020905b81548152906001019060200180831161249d57829003601f168201915b50505060038401546004850154600586015460068701546007880154600b9098015496976001600160a01b0390941696929550909350919060ff1689565b6000805160206150f9833981519152612510816126cc565b60008381526101316020526040902060040154158061252d575081155b6125495760405162461bcd60e51b8152600401610c0190614d9b565b506000918252610131602052604090912060040155565b6000805160206150f9833981519152612578816126cc565b61258184610fb3565b1561259e5760405162461bcd60e51b8152600401610c0190614d7e565b6000848152610131602052604090206008018054839190859081106125c5576125c5614cb5565b600091825260209091200155610dd984612cf2565b60006001600160e01b03198216637965db0b60e01b148061099f575061099f826130c1565b6000818152606760205260409020546001600160a01b031661108d5760405162461bcd60e51b8152602060048201526018602482015277115490cdcc8c4e881a5b9d985b1a59081d1bdad95b88125160421b6044820152606401610c01565b600081815260696020526040902080546001600160a01b0319166001600160a01b03841690811790915581906126938261155a565b6001600160a01b03167f8c5be1e5ebec7d5bd14f71427d1e84f3dd0314c0f7b2291e5b200ac8c7c3b92560405160405180910390a45050565b61108d81336130e6565b60c082015161272d576127278261010001516000815181106126fa576126fa614cb5565b602002602001015183610100015160018151811061271a5761271a614cb5565b602002602001015161313f565b60c08301525b604080516101808101825282815260208481015181830190815285840151838501526001600160a01b038716606084015260006080840181905260a0808801519085015260c0808801519085015260e08401819052610100808801519085015261012080880151908501526101408088015190850152610160840181905285815261013183529390932082518155925180519293926127d29260018501920190613f89565b50604082015180516127ee916002840191602090910190613f89565b5060608201516003820180546001600160a01b0319166001600160a01b039092169190911790556080820151600482015560a0820151600582015560c0820151600682015560e082015160078201556101008201518051612859916008840191602090910190613f3e565b506101208201518051612876916009840191602090910190613f3e565b50610140820151805161289391600a840191602090910190613f3e565b5061016082015181600b0160006101000a81548160ff0219169083151502179055509050506129058260c001518361010001516002815181106128d8576128d8614cb5565b60200260200101518461010001516003815181106128f8576128f8614cb5565b6020026020010151613177565b60009182526101316020526040909120600701555050565b61012e5460005b82518110156129705761295083828151811061294257612942614cb5565b6020026020010151836131ae565b8161295a81614cf9565b925050808061296890614cf9565b915050612924565b5061012e5550565b6000806129848361155a565b9050806001600160a01b0316846001600160a01b031614806129cb57506001600160a01b038082166000908152606a602090815260408083209388168352929052205460ff165b806129ef5750836001600160a01b03166129e484610aff565b6001600160a01b0316145b949350505050565b826001600160a01b0316612a0a8261155a565b6001600160a01b031614612a305760405162461bcd60e51b8152600401610c0190614f0e565b6001600160a01b038216612a925760405162461bcd60e51b8152602060048201526024808201527f4552433732313a207472616e7366657220746f20746865207a65726f206164646044820152637265737360e01b6064820152608401610c01565b612a9f8383836001613347565b826001600160a01b0316612ab28261155a565b6001600160a01b031614612ad85760405162461bcd60e51b8152600401610c0190614f0e565b600081815260696020908152604080832080546001600160a01b03199081169091556001600160a01b0387811680865260688552838620805460001901905590871680865283862080546001019055868652606790945282852080549092168417909155905184937fddf252ad1be2c89b69c2b068fc378daa952ba7f163c4a11628f55a4df523b3ef91a4505050565b612b7282826119f6565b610faf57600082815260c9602090815260408083206001600160a01b03851684529091529020805460ff19166001179055612baa3390565b6001600160a01b0316816001600160a01b0316837f2f8788117e7eff1d82e926ec794901d17c78024a50270940304540a733656f0d60405160405180910390a45050565b612bf882826119f6565b15610faf57600082815260c9602090815260408083206001600160a01b0385168085529252808320805460ff1916905551339285917ff6391f5c32d9c69d2a47ea670b442974b53935d1edc7fd64eb21e047a839171b9190a45050565b60fb5460ff16612c9e5760405162461bcd60e51b815260206004820152601460248201527314185d5cd8589b194e881b9bdd081c185d5cd95960621b6044820152606401610c01565b565b612ca8612c55565b60fb805460ff191690557f5db9ee0a495bf2e6ff9c91a7834c1ba4fdd244a5e8aa4e537bd38aeae4b073aa335b6040516001600160a01b03909116815260200160405180910390a1565b612cfb81613403565b6000828152610131602052604090206007015561108d81612ea5565b612d248161012e546131ae565b61012e8054906000612d3583614cf9565b919050555050565b61012e5460005b82811015612d7657612d5684836131ae565b81612d6081614cf9565b9250508080612d6e90614cf9565b915050612d44565b5061012e555050565b6000612d8a8261155a565b9050612d9a816000846001613347565b612da38261155a565b600083815260696020908152604080832080546001600160a01b03199081169091556001600160a01b0385168085526068845282852080546000190190558785526067909352818420805490911690555192935084927fddf252ad1be2c89b69c2b068fc378daa952ba7f163c4a11628f55a4df523b3ef908390a45050565b60fb5460ff1615612c9e5760405162461bcd60e51b815260206004820152601060248201526f14185d5cd8589b194e881c185d5cd95960821b6044820152606401610c01565b612e70612e22565b60fb805460ff191660011790557f62e78cea01bee320cd4e420270b5ea74000d11b0c9f74754ebdbfc544b05a258612cd53390565b600081815261013160205260409020600401541561108d576101305460008281526101316020526040908190206004908101549151632da17b6560e21b8152908101919091526001600160a01b039091169063b685ed9490602401600060405180830381600087803b158015612f1a57600080fd5b505af1158015611630573d6000803e3d6000fd5b816001600160a01b0316836001600160a01b03161415612f905760405162461bcd60e51b815260206004820152601960248201527f4552433732313a20617070726f766520746f2063616c6c6572000000000000006044820152606401610c01565b6001600160a01b038381166000818152606a6020908152604080832094871680845294825291829020805460ff191686151590811790915591519182527f17307eab39ab6107e8899845ad3d59bd9653f200f220920489ca2b5937696c31910160405180910390a3505050565b6130088484846129f7565b61301484848484613711565b610dd95760405162461bcd60e51b8152600401610c0190614f53565b600054610100900460ff166130575760405162461bcd60e51b8152600401610c0190614dbc565b610faf828261381e565b600054610100900460ff16612c9e5760405162461bcd60e51b8152600401610c0190614dbc565b600054610100900460ff166130af5760405162461bcd60e51b8152600401610c0190614dbc565b612c9e61386c565b610faf8282612b68565b60006001600160e01b0319821663780e9d6360e01b148061099f575061099f8261389f565b6130f082826119f6565b610faf576130fd816138ef565b613108836020613901565b604051602001613119929190614fa5565b60408051601f198184030181529082905262461bcd60e51b8252610c019160040161418a565b60008281526101326020526040808220548383529082205461316690642e90edd00061501a565b613170919061501a565b9392505050565b6000613184826006614ef7565b600a613190858761501a565b61319a9190615039565b6131a49190615039565b6129ef9085614ce1565b6001600160a01b0382166132045760405162461bcd60e51b815260206004820181905260248201527f4552433732313a206d696e7420746f20746865207a65726f20616464726573736044820152606401610c01565b6000818152606760205260409020546001600160a01b0316156132695760405162461bcd60e51b815260206004820152601c60248201527f4552433732313a20746f6b656e20616c7265616479206d696e746564000000006044820152606401610c01565b613277600083836001613347565b6000818152606760205260409020546001600160a01b0316156132dc5760405162461bcd60e51b815260206004820152601c60248201527f4552433732313a20746f6b656e20616c7265616479206d696e746564000000006044820152606401610c01565b6001600160a01b038216600081815260686020908152604080832080546001019055848352606790915280822080546001600160a01b0319168417905551839291907fddf252ad1be2c89b69c2b068fc378daa952ba7f163c4a11628f55a4df523b3ef908290a45050565b61335384848484613a9c565b60008281526101316020526040902060040154156133835760405162461bcd60e51b8152600401610c0190614d9b565b600082815261013160205260409020600b015460ff16156133cf5760405162461bcd60e51b8152600401610c01906020808252600490820152631919585960e21b604082015260600190565b5060009081526101316020526040902060030180546001600160a01b0319166001600160a01b039290921691909117905550565b600081815261013160209081526040808320815161018081019092528054825260018101805485948401919061343890614c7a565b80601f016020809104026020016040519081016040528092919081815260200182805461346490614c7a565b80156134b15780601f10613486576101008083540402835291602001916134b1565b820191906000526020600020905b81548152906001019060200180831161349457829003601f168201915b505050505081526020016002820180546134ca90614c7a565b80601f01602080910402602001604051908101604052809291908181526020018280546134f690614c7a565b80156135435780601f1061351857610100808354040283529160200191613543565b820191906000526020600020905b81548152906001019060200180831161352657829003601f168201915b505050505081526020016003820160009054906101000a90046001600160a01b03166001600160a01b03166001600160a01b0316815260200160048201548152602001600582015481526020016006820154815260200160078201548152602001600882018054806020026020016040519081016040528092919081815260200182805480156135f257602002820191906000526020600020905b8154815260200190600101908083116135de575b505050505081526020016009820180548060200260200160405190810160405280929190818152602001828054801561364a57602002820191906000526020600020905b815481526020019060010190808311613636575b50505050508152602001600a82018054806020026020016040519081016040528092919081815260200182805480156136a257602002820191906000526020600020905b81548152602001906001019080831161368e575b5050509183525050600b919091015460ff16151560209091015260c0810151610100820151919250613170916002815181106136e0576136e0614cb5565b6020026020010151836101000151600360058111156137015761370161505b565b815181106128f8576128f8614cb5565b60006001600160a01b0384163b1561381357604051630a85bd0160e11b81526001600160a01b0385169063150b7a0290613755903390899088908890600401615071565b602060405180830381600087803b15801561376f57600080fd5b505af192505050801561379f575060408051601f3d908101601f1916820190925261379c918101906150ae565b60015b6137f9573d8080156137cd576040519150601f19603f3d011682016040523d82523d6000602084013e6137d2565b606091505b5080516137f15760405162461bcd60e51b8152600401610c0190614f53565b805181602001fd5b6001600160e01b031916630a85bd0160e11b1490506129ef565b506001949350505050565b600054610100900460ff166138455760405162461bcd60e51b8152600401610c0190614dbc565b8151613858906065906020850190613f89565b508051610ca2906066906020840190613f89565b600054610100900460ff166138935760405162461bcd60e51b8152600401610c0190614dbc565b60fb805460ff19169055565b60006001600160e01b031982166380ac58cd60e01b14806138d057506001600160e01b03198216635b5e139f60e01b145b8061099f57506301ffc9a760e01b6001600160e01b031983161461099f565b606061099f6001600160a01b03831660145b6060600061391083600261501a565b61391b906002614ce1565b6001600160401b03811115613932576139326141f6565b6040519080825280601f01601f19166020018201604052801561395c576020820181803683370190505b509050600360fc1b8160008151811061397757613977614cb5565b60200101906001600160f81b031916908160001a905350600f60fb1b816001815181106139a6576139a6614cb5565b60200101906001600160f81b031916908160001a90535060006139ca84600261501a565b6139d5906001614ce1565b90505b6001811115613a4d576f181899199a1a9b1b9c1cb0b131b232b360811b85600f1660108110613a0957613a09614cb5565b1a60f81b828281518110613a1f57613a1f614cb5565b60200101906001600160f81b031916908160001a90535060049490941c93613a46816150cb565b90506139d8565b5083156131705760405162461bcd60e51b815260206004820181905260248201527f537472696e67733a20686578206c656e67746820696e73756666696369656e746044820152606401610c01565b613aa884848484613b4a565b60fb5460ff1615613ae45760405162461bcd60e51b81526020600482015260066024820152651c185d5cd95960d21b6044820152606401610c01565b613aee8484613c83565b15610dd95760405162461bcd60e51b815260206004820152602660248201527f53656e64657220616e642f6f7220726563697069656e7420697320626c6f636b6044820152651b1a5cdd195960d21b6064820152608401610c01565b613b5684848484613d26565b6001811115613bc55760405162461bcd60e51b815260206004820152603560248201527f455243373231456e756d657261626c653a20636f6e7365637574697665207472604482015274185b9cd9995c9cc81b9bdd081cdd5c1c1bdc9d1959605a1b6064820152608401610c01565b816001600160a01b038516613c2157613c1c81609980546000838152609a60205260408120829055600182018355919091527f72a152ddfb8e864297c917af52ea6c1c68aead0fee1a62673fcc7e0c94979d000155565b613c44565b836001600160a01b0316856001600160a01b031614613c4457613c448582613dae565b6001600160a01b038416613c6057613c5b81613e4b565b611630565b846001600160a01b0316846001600160a01b031614611630576116308482613efa565b61012d54600090600160a01b900460ff16613ca05750600061099f565b61012d5460405163257128dd60e21b81526001600160a01b0385811660048301528481166024830152909116906395c4a3749060440160206040518083038186803b158015613cee57600080fd5b505afa158015613d02573d6000803e3d6000fd5b505050506040513d601f19601f820116820180604052508101906131709190614d61565b6001811115610dd9576001600160a01b03841615613d6c576001600160a01b03841660009081526068602052604081208054839290613d66908490614ef7565b90915550505b6001600160a01b03831615610dd9576001600160a01b03831660009081526068602052604081208054839290613da3908490614ce1565b909155505050505050565b60006001613dbb84611666565b613dc59190614ef7565b600083815260986020526040902054909150808214613e18576001600160a01b03841660009081526097602090815260408083208584528252808320548484528184208190558352609890915290208190555b5060009182526098602090815260408084208490556001600160a01b039094168352609781528383209183525290812055565b609954600090613e5d90600190614ef7565b6000838152609a602052604081205460998054939450909284908110613e8557613e85614cb5565b906000526020600020015490508060998381548110613ea657613ea6614cb5565b6000918252602080832090910192909255828152609a90915260408082208490558582528120556099805480613ede57613ede6150e2565b6001900381819060005260206000200160009055905550505050565b6000613f0583611666565b6001600160a01b039093166000908152609760209081526040808320868452825280832085905593825260989052919091209190915550565b828054828255906000526020600020908101928215613f79579160200282015b82811115613f79578251825591602001919060010190613f5e565b50613f85929150614068565b5090565b828054613f9590614c7a565b90600052602060002090601f016020900481019282613fb75760008555613f79565b82601f10613fd057805160ff1916838001178555613f79565b82800160010185558215613f795791820182811115613f79578251825591602001919060010190613f5e565b60405180610180016040528060008152602001606081526020016060815260200160006001600160a01b03168152602001600081526020016000815260200160008152602001600081526020016060815260200160608152602001606081526020016000151581525090565b5b80821115613f855760008155600101614069565b6001600160e01b03198116811461108d57600080fd5b6000602082840312156140a557600080fd5b81356131708161407d565b6000602082840312156140c257600080fd5b5035919050565b600081518084526020808501945080840160005b838110156140f9578151875295820195908201906001016140dd565b509495945050505050565b60408152600061411760408301856140c9565b828103602084015261412981856140c9565b95945050505050565b60005b8381101561414d578181015183820152602001614135565b83811115610dd95750506000910152565b60008151808452614176816020860160208601614132565b601f01601f19169290920160200192915050565b602081526000613170602083018461415e565b60208152600061317060208301846140c9565b80356001600160a01b03811681146141c757600080fd5b919050565b600080604083850312156141df57600080fd5b6141e8836141b0565b946020939093013593505050565b634e487b7160e01b600052604160045260246000fd5b60405161018081016001600160401b038111828210171561422f5761422f6141f6565b60405290565b604051601f8201601f191681016001600160401b038111828210171561425d5761425d6141f6565b604052919050565b60006001600160401b0382111561427e5761427e6141f6565b5060051b60200190565b60006001600160401b038311156142a1576142a16141f6565b6142b4601f8401601f1916602001614235565b90508281528383830111156142c857600080fd5b828260208301376000602084830101529392505050565b600082601f8301126142f057600080fd5b61317083833560208501614288565b600082601f83011261431057600080fd5b8135602061432561432083614265565b614235565b82815260059290921b8401810191818101908684111561434457600080fd5b8286015b8481101561435f5780358352918301918301614348565b509695505050505050565b801515811461108d57600080fd5b80356141c78161436a565b6000610180828403121561439657600080fd5b61439e61420c565b90508135815260208201356001600160401b03808211156143be57600080fd5b6143ca858386016142df565b602084015260408401359150808211156143e357600080fd5b6143ef858386016142df565b6040840152614400606085016141b0565b60608401526080840135608084015260a084013560a084015260c084013560c084015260e084013560e08401526101009150818401358181111561444357600080fd5b61444f868287016142ff565b83850152506101209150818401358181111561446a57600080fd5b614476868287016142ff565b83850152506101409150818401358181111561449157600080fd5b61449d868287016142ff565b838501525050506101606144b2818401614378565b9082015292915050565b600082601f8301126144cd57600080fd5b813560206144dd61432083614265565b82815260059290921b840181019181810190868411156144fc57600080fd5b8286015b8481101561435f5780356001600160401b0381111561451f5760008081fd5b61452d8986838b0101614383565b845250918301918301614500565b60006020828403121561454d57600080fd5b81356001600160401b0381111561456357600080fd5b6129ef848285016144bc565b6000806040838503121561458257600080fd5b8235915060208301356001600160401b0381111561459f57600080fd5b6145ab858286016142ff565b9150509250929050565b6000806000606084860312156145ca57600080fd5b6145d3846141b0565b92506145e1602085016141b0565b9150604084013590509250925092565b6000806040838503121561460457600080fd5b82359150614614602084016141b0565b90509250929050565b60006020828403121561462f57600080fd5b81356001600160401b0381111561464557600080fd5b6129ef848285016142df565b60006101808251845260208301518160208601526146718286018261415e565b9150506040830151848203604086015261468b828261415e565b91505060608301516146a860608601826001600160a01b03169052565b506080830151608085015260a083015160a085015260c083015160c085015260e083015160e085015261010080840151858303828701526146e983826140c9565b92505050610120808401518583038287015261470583826140c9565b92505050610140808401518583038287015261472183826140c9565b92505050610160808401516147398287018215159052565b5090949350505050565b6020815260006131706020830184614651565b6000806040838503121561476957600080fd5b50508035926020909101359150565b60006020828403121561478a57600080fd5b613170826141b0565b6000602080830181845280855180835260408601915060408160051b870101925083870160005b828110156147e857603f198886030184526147d6858351614651565b945092850192908501906001016147ba565b5092979650505050505050565b6000806000806080858703121561480b57600080fd5b8435935060208501356001600160401b038082111561482957600080fd5b614835888389016142ff565b945060408701359350606087013591508082111561485257600080fd5b5061485f878288016142ff565b91505092959194509250565b6000806040838503121561487e57600080fd5b614887836141b0565b915060208301356001600160401b038111156148a257600080fd5b6145ab85828601614383565b600080604083850312156148c157600080fd5b6148ca836141b0565b915060208301356001600160401b038111156148e557600080fd5b6145ab858286016144bc565b6000806040838503121561490457600080fd5b8235915060208301356149168161436a565b809150509250929050565b60008060006060848603121561493657600080fd5b8335925060208401356001600160401b038082111561495457600080fd5b614960878388016142ff565b9350604086013591508082111561497657600080fd5b50614983868287016142ff565b9150509250925092565b6000806000606084860312156149a257600080fd5b8335925060208401356001600160401b03808211156149c057600080fd5b6149cc878388016142df565b935060408601359150808211156149e257600080fd5b50614983868287016142df565b60008060408385031215614a0257600080fd5b614a0b836141b0565b915060208301356149168161436a565b60008060008060808587031215614a3157600080fd5b614a3a856141b0565b9350614a48602086016141b0565b92506040850135915060608501356001600160401b03811115614a6a57600080fd5b8501601f81018713614a7b57600080fd5b61485f87823560208401614288565b600080600060608486031215614a9f57600080fd5b8335925060208401356001600160401b03811115614abc57600080fd5b614ac8868287016142ff565b925050604084013590509250925092565b600060208284031215614aeb57600080fd5b81356001600160401b03811115614b0157600080fd5b6129ef848285016142ff565b600080600080600060a08688031215614b2557600080fd5b85356001600160401b0380821115614b3c57600080fd5b614b4889838a016142df565b96506020880135915080821115614b5e57600080fd5b614b6a89838a016142df565b95506040880135915080821115614b8057600080fd5b50614b8d888289016142df565b935050614b9c606087016141b0565b9150614baa608087016141b0565b90509295509295909350565b60006101208b8352806020840152614bd08184018c61415e565b90508281036040840152614be4818b61415e565b6001600160a01b039990991660608401525050608081019590955260a085019390935260c084019190915260e08301521515610100909101529392505050565b60008060408385031215614c3757600080fd5b614c40836141b0565b9150614614602084016141b0565b600080600060608486031215614c6357600080fd5b505081359360208301359350604090920135919050565b600181811c90821680614c8e57607f821691505b60208210811415614caf57634e487b7160e01b600052602260045260246000fd5b50919050565b634e487b7160e01b600052603260045260246000fd5b634e487b7160e01b600052601160045260246000fd5b60008219821115614cf457614cf4614ccb565b500190565b6000600019821415614d0d57614d0d614ccb565b5060010190565b6020808252602d908201527f4552433732313a2063616c6c6572206973206e6f7420746f6b656e206f776e6560408201526c1c881bdc88185c1c1c9bdd9959609a1b606082015260800190565b600060208284031215614d7357600080fd5b81516131708161436a565b6020808252600390820152626f6e5160e81b604082015260600190565b6020808252600790820152661a5b94dc5d585960ca1b604082015260600190565b6020808252602b908201527f496e697469616c697a61626c653a20636f6e7472616374206973206e6f74206960408201526a6e697469616c697a696e6760a81b606082015260800190565b600181815b80851115614e42578160001904821115614e2857614e28614ccb565b80851615614e3557918102915b93841c9390800290614e0c565b509250929050565b600082614e595750600161099f565b81614e665750600061099f565b8160018114614e7c5760028114614e8657614ea2565b600191505061099f565b60ff841115614e9757614e97614ccb565b50506001821b61099f565b5060208310610133831016604e8410600b8410161715614ec5575081810a61099f565b614ecf8383614e07565b8060001904821115614ee357614ee3614ccb565b029392505050565b60006131708383614e4a565b600082821015614f0957614f09614ccb565b500390565b60208082526025908201527f4552433732313a207472616e736665722066726f6d20696e636f72726563742060408201526437bbb732b960d91b606082015260800190565b60208082526032908201527f4552433732313a207472616e7366657220746f206e6f6e20455243373231526560408201527131b2b4bb32b91034b6b83632b6b2b73a32b960711b606082015260800190565b7f416363657373436f6e74726f6c3a206163636f756e7420000000000000000000815260008351614fdd816017850160208801614132565b7001034b99036b4b9b9b4b733903937b6329607d1b601791840191820152835161500e816028840160208801614132565b01602801949350505050565b600081600019048311821515161561503457615034614ccb565b500290565b60008261505657634e487b7160e01b600052601260045260246000fd5b500490565b634e487b7160e01b600052602160045260246000fd5b6001600160a01b03858116825284166020820152604081018390526080606082018190526000906150a49083018461415e565b9695505050505050565b6000602082840312156150c057600080fd5b81516131708161407d565b6000816150da576150da614ccb565b506000190190565b634e487b7160e01b600052603160045260246000fdfe73e573f9566d61418a34d5de3ff49360f9c51fec37f7486551670290f6285dab97667070c54ef182b0f5858b034beac1b6f3089aa2d3188bb1e8929f4fa9b929a26469706673582212200d995e18bba8a9980509e78c4ad39462a4a0a91adba6161c2e0ced6f44343c2864736f6c63430008090033",
  "linkReferences": {},
  "deployedLinkReferences": {}
}