{
  "_format": "hh-sol-artifact-1",
  "contractName": "KingdomBridgeSigGuardian",
  "sourceName": "contracts/features/KingdomBridge/KingdomBridge/sigGuardian/KingdomBridgeSigGuardian.sol",
  "abi": [
    {
      "inputs": [
        {
          "internalType": "address",
          "name": "",
          "type": "address"
        }
      ],
      "name": "nonces",
      "outputs": [
        {
          "internalType": "uint256",
          "name": "",
          "type": "uint256"
        }
      ],
      "stateMutability": "view",
      "type": "function"
    }
  ],
  "bytecode": "0x608060405234801561001057600080fd5b5060c08061001f6000396000f3fe6080604052348015600f57600080fd5b506004361060285760003560e01c80637ecebe0014602d575b600080fd5b604a6038366004605c565b60036020526000908152604090205481565b60405190815260200160405180910390f35b600060208284031215606d57600080fd5b81356001600160a01b0381168114608357600080fd5b939250505056fea2646970667358221220d7e44e60e3604ba145a80dacb8bdb113127a7f7d3e945ea9b949d36be30082cd64736f6c63430008140033",
  "linkReferences": {},
  "deployedLinkReferences": {}
}